{
	"contracts/LendingPoolGate.sol": {
		"LendingPoolGate": {
			"abi": [
				{
					"inputs": [
						{
							"internalType": "uint256",
							"name": "total_users",
							"type": "uint256"
						},
						{
							"internalType": "address",
							"name": "lending_pool_address",
							"type": "address"
						}
					],
					"stateMutability": "nonpayable",
					"type": "constructor"
				},
				{
					"anonymous": false,
					"inputs": [
						{
							"indexed": false,
							"internalType": "string",
							"name": "msg",
							"type": "string"
						},
						{
							"indexed": false,
							"internalType": "address",
							"name": "related",
							"type": "address"
						},
						{
							"indexed": false,
							"internalType": "uint256",
							"name": "token",
							"type": "uint256"
						}
					],
					"name": "LendingPoolGateMessage",
					"type": "event"
				},
				{
					"inputs": [
						{
							"internalType": "address",
							"name": "contract_address",
							"type": "address"
						}
					],
					"name": "append2WhiteList",
					"outputs": [
						{
							"internalType": "uint256",
							"name": "",
							"type": "uint256"
						},
						{
							"internalType": "bool",
							"name": "",
							"type": "bool"
						}
					],
					"stateMutability": "nonpayable",
					"type": "function"
				},
				{
					"inputs": [
						{
							"internalType": "uint256",
							"name": "id",
							"type": "uint256"
						}
					],
					"name": "deleteFromWhiteList",
					"outputs": [],
					"stateMutability": "nonpayable",
					"type": "function"
				},
				{
					"inputs": [],
					"name": "lending_pool",
					"outputs": [
						{
							"internalType": "contract LendingPool",
							"name": "",
							"type": "address"
						}
					],
					"stateMutability": "view",
					"type": "function"
				},
				{
					"inputs": [],
					"name": "max_nuser",
					"outputs": [
						{
							"internalType": "uint256",
							"name": "",
							"type": "uint256"
						}
					],
					"stateMutability": "view",
					"type": "function"
				},
				{
					"inputs": [],
					"name": "parent_contract",
					"outputs": [
						{
							"internalType": "address",
							"name": "",
							"type": "address"
						}
					],
					"stateMutability": "view",
					"type": "function"
				},
				{
					"inputs": [
						{
							"internalType": "uint256",
							"name": "requester_id",
							"type": "uint256"
						},
						{
							"internalType": "address",
							"name": "reciever_address",
							"type": "address"
						},
						{
							"internalType": "uint256",
							"name": "amount",
							"type": "uint256"
						}
					],
					"name": "payDapp",
					"outputs": [
						{
							"internalType": "bool",
							"name": "",
							"type": "bool"
						}
					],
					"stateMutability": "nonpayable",
					"type": "function"
				},
				{
					"inputs": [],
					"name": "withdrawMoney",
					"outputs": [],
					"stateMutability": "nonpayable",
					"type": "function"
				}
			],
			"devdoc": {
				"author": "Hileamlak Yitayew, Matt Tengtrakool",
				"details": "Only whitelisted smart contracts can ask to withdraw money form lending       pools and only the smart contract contract that created this contract     can update the whitelist",
				"kind": "dev",
				"methods": {
					"append2WhiteList(address)": {
						"details": "Only parent smart contract could make this request",
						"params": {
							"contract_address": "Address to add to the whitelist"
						},
						"returns": {
							"_0": "id returns the id contract_address should use to withdraw_money, and the status of the white list             true meaning free space is available and false meaning the opposite"
						}
					},
					"deleteFromWhiteList(uint256)": {
						"details": "Only creator smart contract can delete element from a whitelist",
						"params": {
							"id": "Id of smart contract to be deleted, must be already in whitelist"
						}
					},
					"payDapp(uint256,address,uint256)": {
						"details": "Only whitlisted smart contract can access this function",
						"params": {
							"amount": "amount of money to be transferred",
							"reciever_address": "Adress money is to be transfered to",
							"requester_id": "Whitlist id of smart contract provided during creation"
						},
						"returns": {
							"_0": "sucess true if payment was successfull or false if it fails."
						}
					}
				},
				"title": "LendingPoolGate  ",
				"version": 1
			},
			"evm": {
				"assembly": "    /* \"contracts/LendingPoolGate.sol\":451:5305  contract LendingPoolGate {... */\n  mstore(0x40, 0x80)\n    /* \"contracts/LendingPoolGate.sol\":1367:1664  constructor(uint256 total_users, address lending_pool_address){... */\n  callvalue\n  dup1\n  iszero\n  tag_1\n  jumpi\n  0x00\n  dup1\n  revert\ntag_1:\n  pop\n  mload(0x40)\n  sub(codesize, bytecodeSize)\n  dup1\n  bytecodeSize\n  dup4\n  codecopy\n  dup2\n  dup2\n  add\n  0x40\n  mstore\n  dup2\n  add\n  swap1\n  tag_2\n  swap2\n  swap1\n  tag_3\n  jump\t// in\ntag_2:\n    /* \"contracts/LendingPoolGate.sol\":1457:1467  msg.sender */\n  caller\n    /* \"contracts/LendingPoolGate.sol\":1439:1454  parent_contract */\n  0x00\n  dup1\n    /* \"contracts/LendingPoolGate.sol\":1439:1467  parent_contract = msg.sender */\n  0x0100\n  exp\n  dup2\n  sload\n  dup2\n  0xffffffffffffffffffffffffffffffffffffffff\n  mul\n  not\n  and\n  swap1\n  dup4\n  0xffffffffffffffffffffffffffffffffffffffff\n  and\n  mul\n  or\n  swap1\n  sstore\n  pop\n    /* \"contracts/LendingPoolGate.sol\":1489:1500  total_users */\n  dup2\n    /* \"contracts/LendingPoolGate.sol\":1477:1486  max_nuser */\n  0x03\n    /* \"contracts/LendingPoolGate.sol\":1477:1500  max_nuser = total_users */\n  dup2\n  swap1\n  sstore\n  pop\n    /* \"contracts/LendingPoolGate.sol\":1546:1566  lending_pool_address */\n  dup1\n    /* \"contracts/LendingPoolGate.sol\":1511:1523  lending_pool */\n  0x04\n  0x00\n    /* \"contracts/LendingPoolGate.sol\":1511:1568  lending_pool = LendingPool(payable(lending_pool_address)) */\n  0x0100\n  exp\n  dup2\n  sload\n  dup2\n  0xffffffffffffffffffffffffffffffffffffffff\n  mul\n  not\n  and\n  swap1\n  dup4\n  0xffffffffffffffffffffffffffffffffffffffff\n  and\n  mul\n  or\n  swap1\n  sstore\n  pop\n    /* \"contracts/LendingPoolGate.sol\":1583:1657  LendingPoolGateMessage(\"Lending pool gate created by\", parent_contract, 0) */\n  0x2cce1494b4ef3c5682648d5c4bbf147548f403fc2ac218e41ec797babdb0acb5\n    /* \"contracts/LendingPoolGate.sol\":1638:1653  parent_contract */\n  0x00\n  dup1\n  sload\n  swap1\n  0x0100\n  exp\n  swap1\n  div\n  0xffffffffffffffffffffffffffffffffffffffff\n  and\n    /* \"contracts/LendingPoolGate.sol\":1655:1656  0 */\n  0x00\n    /* \"contracts/LendingPoolGate.sol\":1583:1657  LendingPoolGateMessage(\"Lending pool gate created by\", parent_contract, 0) */\n  mload(0x40)\n  tag_6\n  swap3\n  swap2\n  swap1\n  tag_7\n  jump\t// in\ntag_6:\n  mload(0x40)\n  dup1\n  swap2\n  sub\n  swap1\n  log1\n    /* \"contracts/LendingPoolGate.sol\":1367:1664  constructor(uint256 total_users, address lending_pool_address){... */\n  pop\n  pop\n    /* \"contracts/LendingPoolGate.sol\":451:5305  contract LendingPoolGate {... */\n  jump(tag_8)\n    /* \"#utility.yul\":7:150   */\ntag_10:\n    /* \"#utility.yul\":64:69   */\n  0x00\n    /* \"#utility.yul\":95:101   */\n  dup2\n    /* \"#utility.yul\":89:102   */\n  mload\n    /* \"#utility.yul\":80:102   */\n  swap1\n  pop\n    /* \"#utility.yul\":111:144   */\n  tag_12\n    /* \"#utility.yul\":138:143   */\n  dup2\n    /* \"#utility.yul\":111:144   */\n  tag_13\n  jump\t// in\ntag_12:\n    /* \"#utility.yul\":7:150   */\n  swap3\n  swap2\n  pop\n  pop\n  jump\t// out\n    /* \"#utility.yul\":156:299   */\ntag_14:\n    /* \"#utility.yul\":213:218   */\n  0x00\n    /* \"#utility.yul\":244:250   */\n  dup2\n    /* \"#utility.yul\":238:251   */\n  mload\n    /* \"#utility.yul\":229:251   */\n  swap1\n  pop\n    /* \"#utility.yul\":260:293   */\n  tag_16\n    /* \"#utility.yul\":287:292   */\n  dup2\n    /* \"#utility.yul\":260:293   */\n  tag_17\n  jump\t// in\ntag_16:\n    /* \"#utility.yul\":156:299   */\n  swap3\n  swap2\n  pop\n  pop\n  jump\t// out\n    /* \"#utility.yul\":305:812   */\ntag_3:\n    /* \"#utility.yul\":384:390   */\n  0x00\n    /* \"#utility.yul\":392:398   */\n  dup1\n    /* \"#utility.yul\":441:443   */\n  0x40\n    /* \"#utility.yul\":429:438   */\n  dup4\n    /* \"#utility.yul\":420:427   */\n  dup6\n    /* \"#utility.yul\":416:439   */\n  sub\n    /* \"#utility.yul\":412:444   */\n  slt\n    /* \"#utility.yul\":409:528   */\n  iszero\n  tag_19\n  jumpi\n    /* \"#utility.yul\":447:526   */\n  tag_20\n  tag_21\n  jump\t// in\ntag_20:\n    /* \"#utility.yul\":409:528   */\ntag_19:\n    /* \"#utility.yul\":567:568   */\n  0x00\n    /* \"#utility.yul\":592:656   */\n  tag_22\n    /* \"#utility.yul\":648:655   */\n  dup6\n    /* \"#utility.yul\":639:645   */\n  dup3\n    /* \"#utility.yul\":628:637   */\n  dup7\n    /* \"#utility.yul\":624:646   */\n  add\n    /* \"#utility.yul\":592:656   */\n  tag_14\n  jump\t// in\ntag_22:\n    /* \"#utility.yul\":582:656   */\n  swap3\n  pop\n    /* \"#utility.yul\":538:666   */\n  pop\n    /* \"#utility.yul\":705:707   */\n  0x20\n    /* \"#utility.yul\":731:795   */\n  tag_23\n    /* \"#utility.yul\":787:794   */\n  dup6\n    /* \"#utility.yul\":778:784   */\n  dup3\n    /* \"#utility.yul\":767:776   */\n  dup7\n    /* \"#utility.yul\":763:785   */\n  add\n    /* \"#utility.yul\":731:795   */\n  tag_10\n  jump\t// in\ntag_23:\n    /* \"#utility.yul\":721:795   */\n  swap2\n  pop\n    /* \"#utility.yul\":676:805   */\n  pop\n    /* \"#utility.yul\":305:812   */\n  swap3\n  pop\n  swap3\n  swap1\n  pop\n  jump\t// out\n    /* \"#utility.yul\":818:936   */\ntag_24:\n    /* \"#utility.yul\":905:929   */\n  tag_26\n    /* \"#utility.yul\":923:928   */\n  dup2\n    /* \"#utility.yul\":905:929   */\n  tag_27\n  jump\t// in\ntag_26:\n    /* \"#utility.yul\":900:903   */\n  dup3\n    /* \"#utility.yul\":893:930   */\n  mstore\n    /* \"#utility.yul\":818:936   */\n  pop\n  pop\n  jump\t// out\n    /* \"#utility.yul\":942:1089   */\ntag_28:\n    /* \"#utility.yul\":1037:1082   */\n  tag_30\n    /* \"#utility.yul\":1076:1081   */\n  dup2\n    /* \"#utility.yul\":1037:1082   */\n  tag_31\n  jump\t// in\ntag_30:\n    /* \"#utility.yul\":1032:1035   */\n  dup3\n    /* \"#utility.yul\":1025:1083   */\n  mstore\n    /* \"#utility.yul\":942:1089   */\n  pop\n  pop\n  jump\t// out\n    /* \"#utility.yul\":1095:1461   */\ntag_32:\n    /* \"#utility.yul\":1237:1240   */\n  0x00\n    /* \"#utility.yul\":1258:1325   */\n  tag_34\n    /* \"#utility.yul\":1322:1324   */\n  0x1c\n    /* \"#utility.yul\":1317:1320   */\n  dup4\n    /* \"#utility.yul\":1258:1325   */\n  tag_35\n  jump\t// in\ntag_34:\n    /* \"#utility.yul\":1251:1325   */\n  swap2\n  pop\n    /* \"#utility.yul\":1334:1427   */\n  tag_36\n    /* \"#utility.yul\":1423:1426   */\n  dup3\n    /* \"#utility.yul\":1334:1427   */\n  tag_37\n  jump\t// in\ntag_36:\n    /* \"#utility.yul\":1452:1454   */\n  0x20\n    /* \"#utility.yul\":1447:1450   */\n  dup3\n    /* \"#utility.yul\":1443:1455   */\n  add\n    /* \"#utility.yul\":1436:1455   */\n  swap1\n  pop\n    /* \"#utility.yul\":1095:1461   */\n  swap2\n  swap1\n  pop\n  jump\t// out\n    /* \"#utility.yul\":1467:2122   */\ntag_7:\n    /* \"#utility.yul\":1697:1701   */\n  0x00\n    /* \"#utility.yul\":1735:1737   */\n  0x60\n    /* \"#utility.yul\":1724:1733   */\n  dup3\n    /* \"#utility.yul\":1720:1738   */\n  add\n    /* \"#utility.yul\":1712:1738   */\n  swap1\n  pop\n    /* \"#utility.yul\":1784:1793   */\n  dup2\n    /* \"#utility.yul\":1778:1782   */\n  dup2\n    /* \"#utility.yul\":1774:1794   */\n  sub\n    /* \"#utility.yul\":1770:1771   */\n  0x00\n    /* \"#utility.yul\":1759:1768   */\n  dup4\n    /* \"#utility.yul\":1755:1772   */\n  add\n    /* \"#utility.yul\":1748:1795   */\n  mstore\n    /* \"#utility.yul\":1812:1943   */\n  tag_39\n    /* \"#utility.yul\":1938:1942   */\n  dup2\n    /* \"#utility.yul\":1812:1943   */\n  tag_32\n  jump\t// in\ntag_39:\n    /* \"#utility.yul\":1804:1943   */\n  swap1\n  pop\n    /* \"#utility.yul\":1953:2025   */\n  tag_40\n    /* \"#utility.yul\":2021:2023   */\n  0x20\n    /* \"#utility.yul\":2010:2019   */\n  dup4\n    /* \"#utility.yul\":2006:2024   */\n  add\n    /* \"#utility.yul\":1997:2003   */\n  dup6\n    /* \"#utility.yul\":1953:2025   */\n  tag_24\n  jump\t// in\ntag_40:\n    /* \"#utility.yul\":2035:2115   */\n  tag_41\n    /* \"#utility.yul\":2111:2113   */\n  0x40\n    /* \"#utility.yul\":2100:2109   */\n  dup4\n    /* \"#utility.yul\":2096:2114   */\n  add\n    /* \"#utility.yul\":2087:2093   */\n  dup5\n    /* \"#utility.yul\":2035:2115   */\n  tag_28\n  jump\t// in\ntag_41:\n    /* \"#utility.yul\":1467:2122   */\n  swap4\n  swap3\n  pop\n  pop\n  pop\n  jump\t// out\n    /* \"#utility.yul\":2209:2378   */\ntag_35:\n    /* \"#utility.yul\":2293:2304   */\n  0x00\n    /* \"#utility.yul\":2327:2333   */\n  dup3\n    /* \"#utility.yul\":2322:2325   */\n  dup3\n    /* \"#utility.yul\":2315:2334   */\n  mstore\n    /* \"#utility.yul\":2367:2371   */\n  0x20\n    /* \"#utility.yul\":2362:2365   */\n  dup3\n    /* \"#utility.yul\":2358:2372   */\n  add\n    /* \"#utility.yul\":2343:2372   */\n  swap1\n  pop\n    /* \"#utility.yul\":2209:2378   */\n  swap3\n  swap2\n  pop\n  pop\n  jump\t// out\n    /* \"#utility.yul\":2384:2480   */\ntag_27:\n    /* \"#utility.yul\":2421:2428   */\n  0x00\n    /* \"#utility.yul\":2450:2474   */\n  tag_46\n    /* \"#utility.yul\":2468:2473   */\n  dup3\n    /* \"#utility.yul\":2450:2474   */\n  tag_47\n  jump\t// in\ntag_46:\n    /* \"#utility.yul\":2439:2474   */\n  swap1\n  pop\n    /* \"#utility.yul\":2384:2480   */\n  swap2\n  swap1\n  pop\n  jump\t// out\n    /* \"#utility.yul\":2486:2612   */\ntag_47:\n    /* \"#utility.yul\":2523:2530   */\n  0x00\n    /* \"#utility.yul\":2563:2605   */\n  0xffffffffffffffffffffffffffffffffffffffff\n    /* \"#utility.yul\":2556:2561   */\n  dup3\n    /* \"#utility.yul\":2552:2606   */\n  and\n    /* \"#utility.yul\":2541:2606   */\n  swap1\n  pop\n    /* \"#utility.yul\":2486:2612   */\n  swap2\n  swap1\n  pop\n  jump\t// out\n    /* \"#utility.yul\":2618:2695   */\ntag_49:\n    /* \"#utility.yul\":2655:2662   */\n  0x00\n    /* \"#utility.yul\":2684:2689   */\n  dup2\n    /* \"#utility.yul\":2673:2689   */\n  swap1\n  pop\n    /* \"#utility.yul\":2618:2695   */\n  swap2\n  swap1\n  pop\n  jump\t// out\n    /* \"#utility.yul\":2701:2822   */\ntag_31:\n    /* \"#utility.yul\":2759:2768   */\n  0x00\n    /* \"#utility.yul\":2792:2816   */\n  tag_52\n    /* \"#utility.yul\":2810:2815   */\n  dup3\n    /* \"#utility.yul\":2792:2816   */\n  tag_49\n  jump\t// in\ntag_52:\n    /* \"#utility.yul\":2779:2816   */\n  swap1\n  pop\n    /* \"#utility.yul\":2701:2822   */\n  swap2\n  swap1\n  pop\n  jump\t// out\n    /* \"#utility.yul\":2951:3068   */\ntag_21:\n    /* \"#utility.yul\":3060:3061   */\n  0x00\n    /* \"#utility.yul\":3057:3058   */\n  dup1\n    /* \"#utility.yul\":3050:3062   */\n  revert\n    /* \"#utility.yul\":3074:3252   */\ntag_37:\n    /* \"#utility.yul\":3214:3244   */\n  0x4c656e64696e6720706f6f6c2067617465206372656174656420627900000000\n    /* \"#utility.yul\":3210:3211   */\n  0x00\n    /* \"#utility.yul\":3202:3208   */\n  dup3\n    /* \"#utility.yul\":3198:3212   */\n  add\n    /* \"#utility.yul\":3191:3245   */\n  mstore\n    /* \"#utility.yul\":3074:3252   */\n  pop\n  jump\t// out\n    /* \"#utility.yul\":3258:3380   */\ntag_13:\n    /* \"#utility.yul\":3331:3355   */\n  tag_58\n    /* \"#utility.yul\":3349:3354   */\n  dup2\n    /* \"#utility.yul\":3331:3355   */\n  tag_27\n  jump\t// in\ntag_58:\n    /* \"#utility.yul\":3324:3329   */\n  dup2\n    /* \"#utility.yul\":3321:3356   */\n  eq\n    /* \"#utility.yul\":3311:3374   */\n  tag_59\n  jumpi\n    /* \"#utility.yul\":3370:3371   */\n  0x00\n    /* \"#utility.yul\":3367:3368   */\n  dup1\n    /* \"#utility.yul\":3360:3372   */\n  revert\n    /* \"#utility.yul\":3311:3374   */\ntag_59:\n    /* \"#utility.yul\":3258:3380   */\n  pop\n  jump\t// out\n    /* \"#utility.yul\":3386:3508   */\ntag_17:\n    /* \"#utility.yul\":3459:3483   */\n  tag_61\n    /* \"#utility.yul\":3477:3482   */\n  dup2\n    /* \"#utility.yul\":3459:3483   */\n  tag_49\n  jump\t// in\ntag_61:\n    /* \"#utility.yul\":3452:3457   */\n  dup2\n    /* \"#utility.yul\":3449:3484   */\n  eq\n    /* \"#utility.yul\":3439:3502   */\n  tag_62\n  jumpi\n    /* \"#utility.yul\":3498:3499   */\n  0x00\n    /* \"#utility.yul\":3495:3496   */\n  dup1\n    /* \"#utility.yul\":3488:3500   */\n  revert\n    /* \"#utility.yul\":3439:3502   */\ntag_62:\n    /* \"#utility.yul\":3386:3508   */\n  pop\n  jump\t// out\n    /* \"contracts/LendingPoolGate.sol\":451:5305  contract LendingPoolGate {... */\ntag_8:\n  dataSize(sub_0)\n  dup1\n  dataOffset(sub_0)\n  0x00\n  codecopy\n  0x00\n  return\nstop\n\nsub_0: assembly {\n        /* \"contracts/LendingPoolGate.sol\":451:5305  contract LendingPoolGate {... */\n      mstore(0x40, 0x80)\n      callvalue\n      dup1\n      iszero\n      tag_1\n      jumpi\n      0x00\n      dup1\n      revert\n    tag_1:\n      pop\n      jumpi(tag_2, lt(calldatasize, 0x04))\n      shr(0xe0, calldataload(0x00))\n      dup1\n      0xac446002\n      gt\n      tag_10\n      jumpi\n      dup1\n      0xac446002\n      eq\n      tag_6\n      jumpi\n      dup1\n      0xbc134ae3\n      eq\n      tag_7\n      jumpi\n      dup1\n      0xcbc20f30\n      eq\n      tag_8\n      jumpi\n      dup1\n      0xf984ead8\n      eq\n      tag_9\n      jumpi\n      jump(tag_2)\n    tag_10:\n      dup1\n      0x317549f2\n      eq\n      tag_3\n      jumpi\n      dup1\n      0x89f78c8e\n      eq\n      tag_4\n      jumpi\n      dup1\n      0x9dc61d4f\n      eq\n      tag_5\n      jumpi\n    tag_2:\n      0x00\n      dup1\n      revert\n        /* \"contracts/LendingPoolGate.sol\":2072:3001  function append2WhiteList(address contract_address) ... */\n    tag_3:\n      tag_11\n      0x04\n      dup1\n      calldatasize\n      sub\n      dup2\n      add\n      swap1\n      tag_12\n      swap2\n      swap1\n      tag_13\n      jump\t// in\n    tag_12:\n      tag_14\n      jump\t// in\n    tag_11:\n      mload(0x40)\n      tag_15\n      swap3\n      swap2\n      swap1\n      tag_16\n      jump\t// in\n    tag_15:\n      mload(0x40)\n      dup1\n      swap2\n      sub\n      swap1\n      return\n        /* \"contracts/LendingPoolGate.sol\":621:645  uint256 public max_nuser */\n    tag_4:\n      tag_17\n      tag_18\n      jump\t// in\n    tag_17:\n      mload(0x40)\n      tag_19\n      swap2\n      swap1\n      tag_20\n      jump\t// in\n    tag_19:\n      mload(0x40)\n      dup1\n      swap2\n      sub\n      swap1\n      return\n        /* \"contracts/LendingPoolGate.sol\":516:546  address public parent_contract */\n    tag_5:\n      tag_21\n      tag_22\n      jump\t// in\n    tag_21:\n      mload(0x40)\n      tag_23\n      swap2\n      swap1\n      tag_24\n      jump\t// in\n    tag_23:\n      mload(0x40)\n      dup1\n      swap2\n      sub\n      swap1\n      return\n        /* \"contracts/LendingPoolGate.sol\":4549:4849  function withdrawMoney() public{... */\n    tag_6:\n      tag_25\n      tag_26\n      jump\t// in\n    tag_25:\n      stop\n        /* \"contracts/LendingPoolGate.sol\":3955:4543  function payDapp(uint256 requester_id, ... */\n    tag_7:\n      tag_27\n      0x04\n      dup1\n      calldatasize\n      sub\n      dup2\n      add\n      swap1\n      tag_28\n      swap2\n      swap1\n      tag_29\n      jump\t// in\n    tag_28:\n      tag_30\n      jump\t// in\n    tag_27:\n      mload(0x40)\n      tag_31\n      swap2\n      swap1\n      tag_32\n      jump\t// in\n    tag_31:\n      mload(0x40)\n      dup1\n      swap2\n      sub\n      swap1\n      return\n        /* \"contracts/LendingPoolGate.sol\":3221:3515  function deleteFromWhiteList(uint256 id) ... */\n    tag_8:\n      tag_33\n      0x04\n      dup1\n      calldatasize\n      sub\n      dup2\n      add\n      swap1\n      tag_34\n      swap2\n      swap1\n      tag_35\n      jump\t// in\n    tag_34:\n      tag_36\n      jump\t// in\n    tag_33:\n      stop\n        /* \"contracts/LendingPoolGate.sol\":651:682  LendingPool public lending_pool */\n    tag_9:\n      tag_37\n      tag_38\n      jump\t// in\n    tag_37:\n      mload(0x40)\n      tag_39\n      swap2\n      swap1\n      tag_40\n      jump\t// in\n    tag_39:\n      mload(0x40)\n      dup1\n      swap2\n      sub\n      swap1\n      return\n        /* \"contracts/LendingPoolGate.sol\":2072:3001  function append2WhiteList(address contract_address) ... */\n    tag_14:\n        /* \"contracts/LendingPoolGate.sol\":2176:2183  uint256 */\n      0x00\n        /* \"contracts/LendingPoolGate.sol\":2185:2189  bool */\n      dup1\n        /* \"contracts/LendingPoolGate.sol\":1263:1278  parent_contract */\n      0x00\n      dup1\n      sload\n      swap1\n      0x0100\n      exp\n      swap1\n      div\n      0xffffffffffffffffffffffffffffffffffffffff\n      and\n        /* \"contracts/LendingPoolGate.sol\":1249:1278  msg.sender == parent_contract */\n      0xffffffffffffffffffffffffffffffffffffffff\n      and\n        /* \"contracts/LendingPoolGate.sol\":1249:1259  msg.sender */\n      caller\n        /* \"contracts/LendingPoolGate.sol\":1249:1278  msg.sender == parent_contract */\n      0xffffffffffffffffffffffffffffffffffffffff\n      and\n      eq\n        /* \"contracts/LendingPoolGate.sol\":1241:1328  require(msg.sender == parent_contract, \"Only creating contract can call this function\") */\n      tag_42\n      jumpi\n      mload(0x40)\n      0x08c379a000000000000000000000000000000000000000000000000000000000\n      dup2\n      mstore\n      0x04\n      add\n      tag_43\n      swap1\n      tag_44\n      jump\t// in\n    tag_43:\n      mload(0x40)\n      dup1\n      swap2\n      sub\n      swap1\n      revert\n    tag_42:\n        /* \"contracts/LendingPoolGate.sol\":2241:2250  max_nuser */\n      sload(0x03)\n        /* \"contracts/LendingPoolGate.sol\":2221:2231  users_list */\n      0x01\n        /* \"contracts/LendingPoolGate.sol\":2221:2238  users_list.length */\n      dup1\n      sload\n      swap1\n      pop\n        /* \"contracts/LendingPoolGate.sol\":2221:2250  users_list.length < max_nuser */\n      lt\n        /* \"contracts/LendingPoolGate.sol\":2221:2277  users_list.length < max_nuser || freed_index.length != 0 */\n      dup1\n      tag_46\n      jumpi\n      pop\n        /* \"contracts/LendingPoolGate.sol\":2276:2277  0 */\n      0x00\n        /* \"contracts/LendingPoolGate.sol\":2254:2265  freed_index */\n      0x02\n        /* \"contracts/LendingPoolGate.sol\":2254:2272  freed_index.length */\n      dup1\n      sload\n      swap1\n      pop\n        /* \"contracts/LendingPoolGate.sol\":2254:2277  freed_index.length != 0 */\n      eq\n      iszero\n        /* \"contracts/LendingPoolGate.sol\":2221:2277  users_list.length < max_nuser || freed_index.length != 0 */\n    tag_46:\n        /* \"contracts/LendingPoolGate.sol\":2213:2300  require(users_list.length < max_nuser || freed_index.length != 0, \"White list is full\") */\n      tag_47\n      jumpi\n      mload(0x40)\n      0x08c379a000000000000000000000000000000000000000000000000000000000\n      dup2\n      mstore\n      0x04\n      add\n      tag_48\n      swap1\n      tag_49\n      jump\t// in\n    tag_48:\n      mload(0x40)\n      dup1\n      swap2\n      sub\n      swap1\n      revert\n    tag_47:\n        /* \"contracts/LendingPoolGate.sol\":2336:2337  0 */\n      0x00\n        /* \"contracts/LendingPoolGate.sol\":2314:2325  freed_index */\n      0x02\n        /* \"contracts/LendingPoolGate.sol\":2314:2332  freed_index.length */\n      dup1\n      sload\n      swap1\n      pop\n        /* \"contracts/LendingPoolGate.sol\":2314:2337  freed_index.length != 0 */\n      eq\n        /* \"contracts/LendingPoolGate.sol\":2310:2985  if (freed_index.length != 0){... */\n      tag_50\n      jumpi\n        /* \"contracts/LendingPoolGate.sol\":2352:2362  uint256 id */\n      0x00\n        /* \"contracts/LendingPoolGate.sol\":2365:2376  freed_index */\n      0x02\n        /* \"contracts/LendingPoolGate.sol\":2377:2402  freed_index.length.sub(1) */\n      tag_51\n        /* \"contracts/LendingPoolGate.sol\":2400:2401  1 */\n      0x01\n        /* \"contracts/LendingPoolGate.sol\":2377:2388  freed_index */\n      0x02\n        /* \"contracts/LendingPoolGate.sol\":2377:2395  freed_index.length */\n      dup1\n      sload\n      swap1\n      pop\n        /* \"contracts/LendingPoolGate.sol\":2377:2399  freed_index.length.sub */\n      tag_52\n      swap1\n        /* \"contracts/LendingPoolGate.sol\":2377:2402  freed_index.length.sub(1) */\n      swap2\n      swap1\n      0xffffffff\n      and\n      jump\t// in\n    tag_51:\n        /* \"contracts/LendingPoolGate.sol\":2365:2403  freed_index[freed_index.length.sub(1)] */\n      dup2\n      sload\n      dup2\n      lt\n      tag_53\n      jumpi\n      tag_54\n      tag_55\n      jump\t// in\n    tag_54:\n    tag_53:\n      swap1\n      0x00\n      mstore\n      keccak256(0x00, 0x20)\n      add\n      sload\n        /* \"contracts/LendingPoolGate.sol\":2352:2403  uint256 id = freed_index[freed_index.length.sub(1)] */\n      swap1\n      pop\n        /* \"contracts/LendingPoolGate.sol\":2434:2450  contract_address */\n      dup4\n        /* \"contracts/LendingPoolGate.sol\":2417:2427  users_list */\n      0x01\n        /* \"contracts/LendingPoolGate.sol\":2428:2430  id */\n      dup3\n        /* \"contracts/LendingPoolGate.sol\":2417:2431  users_list[id] */\n      dup2\n      sload\n      dup2\n      lt\n      tag_57\n      jumpi\n      tag_58\n      tag_55\n      jump\t// in\n    tag_58:\n    tag_57:\n      swap1\n      0x00\n      mstore\n      keccak256(0x00, 0x20)\n      add\n      0x00\n        /* \"contracts/LendingPoolGate.sol\":2417:2450  users_list[id] = contract_address */\n      0x0100\n      exp\n      dup2\n      sload\n      dup2\n      0xffffffffffffffffffffffffffffffffffffffff\n      mul\n      not\n      and\n      swap1\n      dup4\n      0xffffffffffffffffffffffffffffffffffffffff\n      and\n      mul\n      or\n      swap1\n      sstore\n      pop\n        /* \"contracts/LendingPoolGate.sol\":2464:2475  freed_index */\n      0x02\n        /* \"contracts/LendingPoolGate.sol\":2464:2481  freed_index.pop() */\n      dup1\n      sload\n      dup1\n      tag_60\n      jumpi\n      tag_61\n      tag_62\n      jump\t// in\n    tag_61:\n    tag_60:\n      0x01\n      swap1\n      sub\n      dup2\n      dup2\n      swap1\n      0x00\n      mstore\n      keccak256(0x00, 0x20)\n      add\n      0x00\n      swap1\n      sstore\n      swap1\n      sstore\n        /* \"contracts/LendingPoolGate.sol\":2500:2567  LendingPoolGateMessage(\"Added to white list\", contract_address, id) */\n      0x2cce1494b4ef3c5682648d5c4bbf147548f403fc2ac218e41ec797babdb0acb5\n        /* \"contracts/LendingPoolGate.sol\":2546:2562  contract_address */\n      dup5\n        /* \"contracts/LendingPoolGate.sol\":2564:2566  id */\n      dup3\n        /* \"contracts/LendingPoolGate.sol\":2500:2567  LendingPoolGateMessage(\"Added to white list\", contract_address, id) */\n      mload(0x40)\n      tag_64\n      swap3\n      swap2\n      swap1\n      tag_65\n      jump\t// in\n    tag_64:\n      mload(0x40)\n      dup1\n      swap2\n      sub\n      swap1\n      log1\n        /* \"contracts/LendingPoolGate.sol\":2589:2591  id */\n      dup1\n        /* \"contracts/LendingPoolGate.sol\":2613:2622  max_nuser */\n      sload(0x03)\n        /* \"contracts/LendingPoolGate.sol\":2593:2603  users_list */\n      0x01\n        /* \"contracts/LendingPoolGate.sol\":2593:2610  users_list.length */\n      dup1\n      sload\n      swap1\n      pop\n        /* \"contracts/LendingPoolGate.sol\":2593:2622  users_list.length < max_nuser */\n      lt\n        /* \"contracts/LendingPoolGate.sol\":2593:2649  users_list.length < max_nuser || freed_index.length != 0 */\n      dup1\n      tag_66\n      jumpi\n      pop\n        /* \"contracts/LendingPoolGate.sol\":2648:2649  0 */\n      0x00\n        /* \"contracts/LendingPoolGate.sol\":2626:2637  freed_index */\n      0x02\n        /* \"contracts/LendingPoolGate.sol\":2626:2644  freed_index.length */\n      dup1\n      sload\n      swap1\n      pop\n        /* \"contracts/LendingPoolGate.sol\":2626:2649  freed_index.length != 0 */\n      eq\n      iszero\n        /* \"contracts/LendingPoolGate.sol\":2593:2649  users_list.length < max_nuser || freed_index.length != 0 */\n    tag_66:\n        /* \"contracts/LendingPoolGate.sol\":2581:2650  return (id, users_list.length < max_nuser || freed_index.length != 0) */\n      swap3\n      pop\n      swap3\n      pop\n      pop\n      jump(tag_45)\n        /* \"contracts/LendingPoolGate.sol\":2310:2985  if (freed_index.length != 0){... */\n    tag_50:\n        /* \"contracts/LendingPoolGate.sol\":2728:2738  users_list */\n      0x01\n        /* \"contracts/LendingPoolGate.sol\":2744:2760  contract_address */\n      dup4\n        /* \"contracts/LendingPoolGate.sol\":2728:2761  users_list.push(contract_address) */\n      swap1\n      dup1\n      0x01\n      dup2\n      sload\n      add\n      dup1\n      dup3\n      sstore\n      dup1\n      swap2\n      pop\n      pop\n      0x01\n      swap1\n      sub\n      swap1\n      0x00\n      mstore\n      keccak256(0x00, 0x20)\n      add\n      0x00\n      swap1\n      swap2\n      swap1\n      swap2\n      swap1\n      swap2\n      0x0100\n      exp\n      dup2\n      sload\n      dup2\n      0xffffffffffffffffffffffffffffffffffffffff\n      mul\n      not\n      and\n      swap1\n      dup4\n      0xffffffffffffffffffffffffffffffffffffffff\n      and\n      mul\n      or\n      swap1\n      sstore\n      pop\n        /* \"contracts/LendingPoolGate.sol\":2780:2869  LendingPoolGateMessage(\"Added to white list\", contract_address, users_list.length.sub(1)) */\n      0x2cce1494b4ef3c5682648d5c4bbf147548f403fc2ac218e41ec797babdb0acb5\n        /* \"contracts/LendingPoolGate.sol\":2826:2842  contract_address */\n      dup4\n        /* \"contracts/LendingPoolGate.sol\":2844:2868  users_list.length.sub(1) */\n      tag_69\n        /* \"contracts/LendingPoolGate.sol\":2866:2867  1 */\n      0x01\n        /* \"contracts/LendingPoolGate.sol\":2844:2854  users_list */\n      dup1\n        /* \"contracts/LendingPoolGate.sol\":2844:2861  users_list.length */\n      dup1\n      sload\n      swap1\n      pop\n        /* \"contracts/LendingPoolGate.sol\":2844:2865  users_list.length.sub */\n      tag_52\n      swap1\n        /* \"contracts/LendingPoolGate.sol\":2844:2868  users_list.length.sub(1) */\n      swap2\n      swap1\n      0xffffffff\n      and\n      jump\t// in\n    tag_69:\n        /* \"contracts/LendingPoolGate.sol\":2780:2869  LendingPoolGateMessage(\"Added to white list\", contract_address, users_list.length.sub(1)) */\n      mload(0x40)\n      tag_70\n      swap3\n      swap2\n      swap1\n      tag_65\n      jump\t// in\n    tag_70:\n      mload(0x40)\n      dup1\n      swap2\n      sub\n      swap1\n      log1\n        /* \"contracts/LendingPoolGate.sol\":2891:2915  users_list.length.sub(1) */\n      tag_71\n        /* \"contracts/LendingPoolGate.sol\":2913:2914  1 */\n      0x01\n        /* \"contracts/LendingPoolGate.sol\":2891:2901  users_list */\n      dup1\n        /* \"contracts/LendingPoolGate.sol\":2891:2908  users_list.length */\n      dup1\n      sload\n      swap1\n      pop\n        /* \"contracts/LendingPoolGate.sol\":2891:2912  users_list.length.sub */\n      tag_52\n      swap1\n        /* \"contracts/LendingPoolGate.sol\":2891:2915  users_list.length.sub(1) */\n      swap2\n      swap1\n      0xffffffff\n      and\n      jump\t// in\n    tag_71:\n        /* \"contracts/LendingPoolGate.sol\":2937:2946  max_nuser */\n      sload(0x03)\n        /* \"contracts/LendingPoolGate.sol\":2917:2927  users_list */\n      0x01\n        /* \"contracts/LendingPoolGate.sol\":2917:2934  users_list.length */\n      dup1\n      sload\n      swap1\n      pop\n        /* \"contracts/LendingPoolGate.sol\":2917:2946  users_list.length < max_nuser */\n      lt\n        /* \"contracts/LendingPoolGate.sol\":2917:2973  users_list.length < max_nuser || freed_index.length != 0 */\n      dup1\n      tag_72\n      jumpi\n      pop\n        /* \"contracts/LendingPoolGate.sol\":2972:2973  0 */\n      0x00\n        /* \"contracts/LendingPoolGate.sol\":2950:2961  freed_index */\n      0x02\n        /* \"contracts/LendingPoolGate.sol\":2950:2968  freed_index.length */\n      dup1\n      sload\n      swap1\n      pop\n        /* \"contracts/LendingPoolGate.sol\":2950:2973  freed_index.length != 0 */\n      eq\n      iszero\n        /* \"contracts/LendingPoolGate.sol\":2917:2973  users_list.length < max_nuser || freed_index.length != 0 */\n    tag_72:\n        /* \"contracts/LendingPoolGate.sol\":2883:2974  return (users_list.length.sub(1), users_list.length < max_nuser || freed_index.length != 0) */\n      swap2\n      pop\n      swap2\n      pop\n        /* \"contracts/LendingPoolGate.sol\":1338:1339  _ */\n    tag_45:\n        /* \"contracts/LendingPoolGate.sol\":2072:3001  function append2WhiteList(address contract_address) ... */\n      swap2\n      pop\n      swap2\n      jump\t// out\n        /* \"contracts/LendingPoolGate.sol\":621:645  uint256 public max_nuser */\n    tag_18:\n      sload(0x03)\n      dup2\n      jump\t// out\n        /* \"contracts/LendingPoolGate.sol\":516:546  address public parent_contract */\n    tag_22:\n      0x00\n      dup1\n      sload\n      swap1\n      0x0100\n      exp\n      swap1\n      div\n      0xffffffffffffffffffffffffffffffffffffffff\n      and\n      dup2\n      jump\t// out\n        /* \"contracts/LendingPoolGate.sol\":4549:4849  function withdrawMoney() public{... */\n    tag_26:\n        /* \"contracts/LendingPoolGate.sol\":4590:4604  uint256 amount */\n      0x00\n        /* \"contracts/LendingPoolGate.sol\":4607:4625  pendingWithdrawals */\n      0x05\n        /* \"contracts/LendingPoolGate.sol\":4607:4637  pendingWithdrawals[msg.sender] */\n      0x00\n        /* \"contracts/LendingPoolGate.sol\":4626:4636  msg.sender */\n      caller\n        /* \"contracts/LendingPoolGate.sol\":4607:4637  pendingWithdrawals[msg.sender] */\n      0xffffffffffffffffffffffffffffffffffffffff\n      and\n      0xffffffffffffffffffffffffffffffffffffffff\n      and\n      dup2\n      mstore\n      0x20\n      add\n      swap1\n      dup2\n      mstore\n      0x20\n      add\n      0x00\n      keccak256\n      sload\n        /* \"contracts/LendingPoolGate.sol\":4590:4637  uint256 amount = pendingWithdrawals[msg.sender] */\n      swap1\n      pop\n        /* \"contracts/LendingPoolGate.sol\":4784:4785  0 */\n      0x00\n        /* \"contracts/LendingPoolGate.sol\":4751:4769  pendingWithdrawals */\n      0x05\n        /* \"contracts/LendingPoolGate.sol\":4751:4781  pendingWithdrawals[msg.sender] */\n      0x00\n        /* \"contracts/LendingPoolGate.sol\":4770:4780  msg.sender */\n      caller\n        /* \"contracts/LendingPoolGate.sol\":4751:4781  pendingWithdrawals[msg.sender] */\n      0xffffffffffffffffffffffffffffffffffffffff\n      and\n      0xffffffffffffffffffffffffffffffffffffffff\n      and\n      dup2\n      mstore\n      0x20\n      add\n      swap1\n      dup2\n      mstore\n      0x20\n      add\n      0x00\n      keccak256\n        /* \"contracts/LendingPoolGate.sol\":4751:4785  pendingWithdrawals[msg.sender] = 0 */\n      dup2\n      swap1\n      sstore\n      pop\n        /* \"contracts/LendingPoolGate.sol\":4803:4813  msg.sender */\n      caller\n        /* \"contracts/LendingPoolGate.sol\":4795:4823  payable(msg.sender).transfer */\n      0xffffffffffffffffffffffffffffffffffffffff\n      and\n        /* \"contracts/LendingPoolGate.sol\":4795:4831  payable(msg.sender).transfer(amount) */\n      0x08fc\n        /* \"contracts/LendingPoolGate.sol\":4824:4830  amount */\n      dup3\n        /* \"contracts/LendingPoolGate.sol\":4795:4831  payable(msg.sender).transfer(amount) */\n      swap1\n      dup2\n      iszero\n      mul\n      swap1\n      mload(0x40)\n      0x00\n      mload(0x40)\n      dup1\n      dup4\n      sub\n      dup2\n      dup6\n      dup9\n      dup9\n      call\n      swap4\n      pop\n      pop\n      pop\n      pop\n      iszero\n      dup1\n      iszero\n      tag_75\n      jumpi\n      returndatasize\n      0x00\n      dup1\n      returndatacopy\n      revert(0x00, returndatasize)\n    tag_75:\n      pop\n        /* \"contracts/LendingPoolGate.sol\":4580:4849  {... */\n      pop\n        /* \"contracts/LendingPoolGate.sol\":4549:4849  function withdrawMoney() public{... */\n      jump\t// out\n        /* \"contracts/LendingPoolGate.sol\":3955:4543  function payDapp(uint256 requester_id, ... */\n    tag_30:\n        /* \"contracts/LendingPoolGate.sol\":4115:4119  bool */\n      0x00\n        /* \"contracts/LendingPoolGate.sol\":4070:4082  requester_id */\n      dup4\n        /* \"contracts/LendingPoolGate.sol\":964:974  users_list */\n      0x01\n        /* \"contracts/LendingPoolGate.sol\":964:981  users_list.length */\n      dup1\n      sload\n      swap1\n      pop\n        /* \"contracts/LendingPoolGate.sol\":949:961  requester_id */\n      dup2\n        /* \"contracts/LendingPoolGate.sol\":949:981  requester_id < users_list.length */\n      lt\n        /* \"contracts/LendingPoolGate.sol\":941:982  require(requester_id < users_list.length) */\n      tag_77\n      jumpi\n      0x00\n      dup1\n      revert\n    tag_77:\n        /* \"contracts/LendingPoolGate.sol\":1036:1039  0x0 */\n      0x00\n        /* \"contracts/LendingPoolGate.sol\":1000:1040  users_list[requester_id] != address(0x0) */\n      0xffffffffffffffffffffffffffffffffffffffff\n      and\n        /* \"contracts/LendingPoolGate.sol\":1000:1010  users_list */\n      0x01\n        /* \"contracts/LendingPoolGate.sol\":1011:1023  requester_id */\n      dup3\n        /* \"contracts/LendingPoolGate.sol\":1000:1024  users_list[requester_id] */\n      dup2\n      sload\n      dup2\n      lt\n      tag_78\n      jumpi\n      tag_79\n      tag_55\n      jump\t// in\n    tag_79:\n    tag_78:\n      swap1\n      0x00\n      mstore\n      keccak256(0x00, 0x20)\n      add\n      0x00\n      swap1\n      sload\n      swap1\n      0x0100\n      exp\n      swap1\n      div\n      0xffffffffffffffffffffffffffffffffffffffff\n      and\n        /* \"contracts/LendingPoolGate.sol\":1000:1040  users_list[requester_id] != address(0x0) */\n      0xffffffffffffffffffffffffffffffffffffffff\n      and\n      eq\n      iszero\n        /* \"contracts/LendingPoolGate.sol\":992:1061  require(users_list[requester_id] != address(0x0), \"Deleted Contract\") */\n      tag_81\n      jumpi\n      mload(0x40)\n      0x08c379a000000000000000000000000000000000000000000000000000000000\n      dup2\n      mstore\n      0x04\n      add\n      tag_82\n      swap1\n      tag_83\n      jump\t// in\n    tag_82:\n      mload(0x40)\n      dup1\n      swap2\n      sub\n      swap1\n      revert\n    tag_81:\n        /* \"contracts/LendingPoolGate.sol\":1093:1103  users_list */\n      0x01\n        /* \"contracts/LendingPoolGate.sol\":1104:1116  requester_id */\n      dup2\n        /* \"contracts/LendingPoolGate.sol\":1093:1117  users_list[requester_id] */\n      dup2\n      sload\n      dup2\n      lt\n      tag_84\n      jumpi\n      tag_85\n      tag_55\n      jump\t// in\n    tag_85:\n    tag_84:\n      swap1\n      0x00\n      mstore\n      keccak256(0x00, 0x20)\n      add\n      0x00\n      swap1\n      sload\n      swap1\n      0x0100\n      exp\n      swap1\n      div\n      0xffffffffffffffffffffffffffffffffffffffff\n      and\n        /* \"contracts/LendingPoolGate.sol\":1079:1117  msg.sender == users_list[requester_id] */\n      0xffffffffffffffffffffffffffffffffffffffff\n      and\n        /* \"contracts/LendingPoolGate.sol\":1079:1089  msg.sender */\n      caller\n        /* \"contracts/LendingPoolGate.sol\":1079:1117  msg.sender == users_list[requester_id] */\n      0xffffffffffffffffffffffffffffffffffffffff\n      and\n      eq\n        /* \"contracts/LendingPoolGate.sol\":1071:1185  require(msg.sender == users_list[requester_id], \"Smart contract not allowed to withdraw money throught this gate\") */\n      tag_87\n      jumpi\n      mload(0x40)\n      0x08c379a000000000000000000000000000000000000000000000000000000000\n      dup2\n      mstore\n      0x04\n      add\n      tag_88\n      swap1\n      tag_89\n      jump\t// in\n    tag_88:\n      mload(0x40)\n      dup1\n      swap2\n      sub\n      swap1\n      revert\n    tag_87:\n        /* \"contracts/LendingPoolGate.sol\":4460:4472  lending_pool */\n      0x04\n      0x00\n      swap1\n      sload\n      swap1\n      0x0100\n      exp\n      swap1\n      div\n      0xffffffffffffffffffffffffffffffffffffffff\n      and\n        /* \"contracts/LendingPoolGate.sol\":4460:4488  lending_pool.lendingWithdraw */\n      0xffffffffffffffffffffffffffffffffffffffff\n      and\n      0x3607999b\n        /* \"contracts/LendingPoolGate.sol\":4489:4495  amount */\n      dup5\n        /* \"contracts/LendingPoolGate.sol\":4497:4513  reciever_address */\n      dup7\n        /* \"contracts/LendingPoolGate.sol\":4460:4514  lending_pool.lendingWithdraw(amount, reciever_address) */\n      mload(0x40)\n      dup4\n      0xffffffff\n      and\n      0xe0\n      shl\n      dup2\n      mstore\n      0x04\n      add\n      tag_91\n      swap3\n      swap2\n      swap1\n      tag_92\n      jump\t// in\n    tag_91:\n      0x00\n      mload(0x40)\n      dup1\n      dup4\n      sub\n      dup2\n      0x00\n      dup8\n      dup1\n      extcodesize\n      iszero\n      dup1\n      iszero\n      tag_93\n      jumpi\n      0x00\n      dup1\n      revert\n    tag_93:\n      pop\n      gas\n      call\n      iszero\n      dup1\n      iszero\n      tag_95\n      jumpi\n      returndatasize\n      0x00\n      dup1\n      returndatacopy\n      revert(0x00, returndatasize)\n    tag_95:\n      pop\n      pop\n      pop\n      pop\n        /* \"contracts/LendingPoolGate.sol\":4532:4536  true */\n      0x01\n        /* \"contracts/LendingPoolGate.sol\":4525:4536  return true */\n      swap2\n      pop\n        /* \"contracts/LendingPoolGate.sol\":3955:4543  function payDapp(uint256 requester_id, ... */\n      pop\n      swap4\n      swap3\n      pop\n      pop\n      pop\n      jump\t// out\n        /* \"contracts/LendingPoolGate.sol\":3221:3515  function deleteFromWhiteList(uint256 id) ... */\n    tag_36:\n        /* \"contracts/LendingPoolGate.sol\":1263:1278  parent_contract */\n      0x00\n      dup1\n      sload\n      swap1\n      0x0100\n      exp\n      swap1\n      div\n      0xffffffffffffffffffffffffffffffffffffffff\n      and\n        /* \"contracts/LendingPoolGate.sol\":1249:1278  msg.sender == parent_contract */\n      0xffffffffffffffffffffffffffffffffffffffff\n      and\n        /* \"contracts/LendingPoolGate.sol\":1249:1259  msg.sender */\n      caller\n        /* \"contracts/LendingPoolGate.sol\":1249:1278  msg.sender == parent_contract */\n      0xffffffffffffffffffffffffffffffffffffffff\n      and\n      eq\n        /* \"contracts/LendingPoolGate.sol\":1241:1328  require(msg.sender == parent_contract, \"Only creating contract can call this function\") */\n      tag_97\n      jumpi\n      mload(0x40)\n      0x08c379a000000000000000000000000000000000000000000000000000000000\n      dup2\n      mstore\n      0x04\n      add\n      tag_98\n      swap1\n      tag_44\n      jump\t// in\n    tag_98:\n      mload(0x40)\n      dup1\n      swap2\n      sub\n      swap1\n      revert\n    tag_97:\n        /* \"contracts/LendingPoolGate.sol\":3324:3334  users_list */\n      0x01\n        /* \"contracts/LendingPoolGate.sol\":3324:3341  users_list.length */\n      dup1\n      sload\n      swap1\n      pop\n        /* \"contracts/LendingPoolGate.sol\":3319:3321  id */\n      dup2\n        /* \"contracts/LendingPoolGate.sol\":3319:3341  id < users_list.length */\n      lt\n        /* \"contracts/LendingPoolGate.sol\":3311:3363  require(id < users_list.length, 'Token not created') */\n      tag_100\n      jumpi\n      mload(0x40)\n      0x08c379a000000000000000000000000000000000000000000000000000000000\n      dup2\n      mstore\n      0x04\n      add\n      tag_101\n      swap1\n      tag_102\n      jump\t// in\n    tag_101:\n      mload(0x40)\n      dup1\n      swap2\n      sub\n      swap1\n      revert\n    tag_100:\n        /* \"contracts/LendingPoolGate.sol\":3407:3410  0x0 */\n      0x00\n        /* \"contracts/LendingPoolGate.sol\":3381:3411  users_list[id] != address(0x0) */\n      0xffffffffffffffffffffffffffffffffffffffff\n      and\n        /* \"contracts/LendingPoolGate.sol\":3381:3391  users_list */\n      0x01\n        /* \"contracts/LendingPoolGate.sol\":3392:3394  id */\n      dup3\n        /* \"contracts/LendingPoolGate.sol\":3381:3395  users_list[id] */\n      dup2\n      sload\n      dup2\n      lt\n      tag_103\n      jumpi\n      tag_104\n      tag_55\n      jump\t// in\n    tag_104:\n    tag_103:\n      swap1\n      0x00\n      mstore\n      keccak256(0x00, 0x20)\n      add\n      0x00\n      swap1\n      sload\n      swap1\n      0x0100\n      exp\n      swap1\n      div\n      0xffffffffffffffffffffffffffffffffffffffff\n      and\n        /* \"contracts/LendingPoolGate.sol\":3381:3411  users_list[id] != address(0x0) */\n      0xffffffffffffffffffffffffffffffffffffffff\n      and\n      eq\n      iszero\n        /* \"contracts/LendingPoolGate.sol\":3373:3439  require(users_list[id] != address(0x0), \"account already deleted\") */\n      tag_106\n      jumpi\n      mload(0x40)\n      0x08c379a000000000000000000000000000000000000000000000000000000000\n      dup2\n      mstore\n      0x04\n      add\n      tag_107\n      swap1\n      tag_108\n      jump\t// in\n    tag_107:\n      mload(0x40)\n      dup1\n      swap2\n      sub\n      swap1\n      revert\n    tag_106:\n        /* \"contracts/LendingPoolGate.sol\":3474:3477  0x0 */\n      0x00\n        /* \"contracts/LendingPoolGate.sol\":3449:3459  users_list */\n      0x01\n        /* \"contracts/LendingPoolGate.sol\":3460:3462  id */\n      dup3\n        /* \"contracts/LendingPoolGate.sol\":3449:3463  users_list[id] */\n      dup2\n      sload\n      dup2\n      lt\n      tag_109\n      jumpi\n      tag_110\n      tag_55\n      jump\t// in\n    tag_110:\n    tag_109:\n      swap1\n      0x00\n      mstore\n      keccak256(0x00, 0x20)\n      add\n      0x00\n        /* \"contracts/LendingPoolGate.sol\":3449:3478  users_list[id] = address(0x0) */\n      0x0100\n      exp\n      dup2\n      sload\n      dup2\n      0xffffffffffffffffffffffffffffffffffffffff\n      mul\n      not\n      and\n      swap1\n      dup4\n      0xffffffffffffffffffffffffffffffffffffffff\n      and\n      mul\n      or\n      swap1\n      sstore\n      pop\n        /* \"contracts/LendingPoolGate.sol\":3488:3499  freed_index */\n      0x02\n        /* \"contracts/LendingPoolGate.sol\":3505:3507  id */\n      dup2\n        /* \"contracts/LendingPoolGate.sol\":3488:3508  freed_index.push(id) */\n      swap1\n      dup1\n      0x01\n      dup2\n      sload\n      add\n      dup1\n      dup3\n      sstore\n      dup1\n      swap2\n      pop\n      pop\n      0x01\n      swap1\n      sub\n      swap1\n      0x00\n      mstore\n      keccak256(0x00, 0x20)\n      add\n      0x00\n      swap1\n      swap2\n      swap1\n      swap2\n      swap1\n      swap2\n      pop\n      sstore\n        /* \"contracts/LendingPoolGate.sol\":3221:3515  function deleteFromWhiteList(uint256 id) ... */\n      pop\n      jump\t// out\n        /* \"contracts/LendingPoolGate.sol\":651:682  LendingPool public lending_pool */\n    tag_38:\n      0x04\n      0x00\n      swap1\n      sload\n      swap1\n      0x0100\n      exp\n      swap1\n      div\n      0xffffffffffffffffffffffffffffffffffffffff\n      and\n      dup2\n      jump\t// out\n        /* \"contracts/SafeMath.sol\":226:364  function sub(uint256 a, uint256 b) internal pure returns (uint256 c) {... */\n    tag_52:\n        /* \"contracts/SafeMath.sol\":284:293  uint256 c */\n      0x00\n        /* \"contracts/SafeMath.sol\":318:319  a */\n      dup3\n        /* \"contracts/SafeMath.sol\":313:314  b */\n      dup3\n        /* \"contracts/SafeMath.sol\":313:319  b <= a */\n      gt\n      iszero\n        /* \"contracts/SafeMath.sol\":305:320  require(b <= a) */\n      tag_114\n      jumpi\n      0x00\n      dup1\n      revert\n    tag_114:\n        /* \"contracts/SafeMath.sol\":338:339  b */\n      dup2\n        /* \"contracts/SafeMath.sol\":334:335  a */\n      dup4\n        /* \"contracts/SafeMath.sol\":334:339  a - b */\n      tag_115\n      swap2\n      swap1\n      tag_116\n      jump\t// in\n    tag_115:\n        /* \"contracts/SafeMath.sol\":330:339  c = a - b */\n      swap1\n      pop\n        /* \"contracts/SafeMath.sol\":226:364  function sub(uint256 a, uint256 b) internal pure returns (uint256 c) {... */\n      swap3\n      swap2\n      pop\n      pop\n      jump\t// out\n        /* \"#utility.yul\":7:146   */\n    tag_118:\n        /* \"#utility.yul\":53:58   */\n      0x00\n        /* \"#utility.yul\":91:97   */\n      dup2\n        /* \"#utility.yul\":78:98   */\n      calldataload\n        /* \"#utility.yul\":69:98   */\n      swap1\n      pop\n        /* \"#utility.yul\":107:140   */\n      tag_120\n        /* \"#utility.yul\":134:139   */\n      dup2\n        /* \"#utility.yul\":107:140   */\n      tag_121\n      jump\t// in\n    tag_120:\n        /* \"#utility.yul\":7:146   */\n      swap3\n      swap2\n      pop\n      pop\n      jump\t// out\n        /* \"#utility.yul\":152:291   */\n    tag_122:\n        /* \"#utility.yul\":198:203   */\n      0x00\n        /* \"#utility.yul\":236:242   */\n      dup2\n        /* \"#utility.yul\":223:243   */\n      calldataload\n        /* \"#utility.yul\":214:243   */\n      swap1\n      pop\n        /* \"#utility.yul\":252:285   */\n      tag_124\n        /* \"#utility.yul\":279:284   */\n      dup2\n        /* \"#utility.yul\":252:285   */\n      tag_125\n      jump\t// in\n    tag_124:\n        /* \"#utility.yul\":152:291   */\n      swap3\n      swap2\n      pop\n      pop\n      jump\t// out\n        /* \"#utility.yul\":297:626   */\n    tag_13:\n        /* \"#utility.yul\":356:362   */\n      0x00\n        /* \"#utility.yul\":405:407   */\n      0x20\n        /* \"#utility.yul\":393:402   */\n      dup3\n        /* \"#utility.yul\":384:391   */\n      dup5\n        /* \"#utility.yul\":380:403   */\n      sub\n        /* \"#utility.yul\":376:408   */\n      slt\n        /* \"#utility.yul\":373:492   */\n      iszero\n      tag_127\n      jumpi\n        /* \"#utility.yul\":411:490   */\n      tag_128\n      tag_129\n      jump\t// in\n    tag_128:\n        /* \"#utility.yul\":373:492   */\n    tag_127:\n        /* \"#utility.yul\":531:532   */\n      0x00\n        /* \"#utility.yul\":556:609   */\n      tag_130\n        /* \"#utility.yul\":601:608   */\n      dup5\n        /* \"#utility.yul\":592:598   */\n      dup3\n        /* \"#utility.yul\":581:590   */\n      dup6\n        /* \"#utility.yul\":577:599   */\n      add\n        /* \"#utility.yul\":556:609   */\n      tag_118\n      jump\t// in\n    tag_130:\n        /* \"#utility.yul\":546:609   */\n      swap2\n      pop\n        /* \"#utility.yul\":502:619   */\n      pop\n        /* \"#utility.yul\":297:626   */\n      swap3\n      swap2\n      pop\n      pop\n      jump\t// out\n        /* \"#utility.yul\":632:961   */\n    tag_35:\n        /* \"#utility.yul\":691:697   */\n      0x00\n        /* \"#utility.yul\":740:742   */\n      0x20\n        /* \"#utility.yul\":728:737   */\n      dup3\n        /* \"#utility.yul\":719:726   */\n      dup5\n        /* \"#utility.yul\":715:738   */\n      sub\n        /* \"#utility.yul\":711:743   */\n      slt\n        /* \"#utility.yul\":708:827   */\n      iszero\n      tag_132\n      jumpi\n        /* \"#utility.yul\":746:825   */\n      tag_133\n      tag_129\n      jump\t// in\n    tag_133:\n        /* \"#utility.yul\":708:827   */\n    tag_132:\n        /* \"#utility.yul\":866:867   */\n      0x00\n        /* \"#utility.yul\":891:944   */\n      tag_134\n        /* \"#utility.yul\":936:943   */\n      dup5\n        /* \"#utility.yul\":927:933   */\n      dup3\n        /* \"#utility.yul\":916:925   */\n      dup6\n        /* \"#utility.yul\":912:934   */\n      add\n        /* \"#utility.yul\":891:944   */\n      tag_122\n      jump\t// in\n    tag_134:\n        /* \"#utility.yul\":881:944   */\n      swap2\n      pop\n        /* \"#utility.yul\":837:954   */\n      pop\n        /* \"#utility.yul\":632:961   */\n      swap3\n      swap2\n      pop\n      pop\n      jump\t// out\n        /* \"#utility.yul\":967:1586   */\n    tag_29:\n        /* \"#utility.yul\":1044:1050   */\n      0x00\n        /* \"#utility.yul\":1052:1058   */\n      dup1\n        /* \"#utility.yul\":1060:1066   */\n      0x00\n        /* \"#utility.yul\":1109:1111   */\n      0x60\n        /* \"#utility.yul\":1097:1106   */\n      dup5\n        /* \"#utility.yul\":1088:1095   */\n      dup7\n        /* \"#utility.yul\":1084:1107   */\n      sub\n        /* \"#utility.yul\":1080:1112   */\n      slt\n        /* \"#utility.yul\":1077:1196   */\n      iszero\n      tag_136\n      jumpi\n        /* \"#utility.yul\":1115:1194   */\n      tag_137\n      tag_129\n      jump\t// in\n    tag_137:\n        /* \"#utility.yul\":1077:1196   */\n    tag_136:\n        /* \"#utility.yul\":1235:1236   */\n      0x00\n        /* \"#utility.yul\":1260:1313   */\n      tag_138\n        /* \"#utility.yul\":1305:1312   */\n      dup7\n        /* \"#utility.yul\":1296:1302   */\n      dup3\n        /* \"#utility.yul\":1285:1294   */\n      dup8\n        /* \"#utility.yul\":1281:1303   */\n      add\n        /* \"#utility.yul\":1260:1313   */\n      tag_122\n      jump\t// in\n    tag_138:\n        /* \"#utility.yul\":1250:1313   */\n      swap4\n      pop\n        /* \"#utility.yul\":1206:1323   */\n      pop\n        /* \"#utility.yul\":1362:1364   */\n      0x20\n        /* \"#utility.yul\":1388:1441   */\n      tag_139\n        /* \"#utility.yul\":1433:1440   */\n      dup7\n        /* \"#utility.yul\":1424:1430   */\n      dup3\n        /* \"#utility.yul\":1413:1422   */\n      dup8\n        /* \"#utility.yul\":1409:1431   */\n      add\n        /* \"#utility.yul\":1388:1441   */\n      tag_118\n      jump\t// in\n    tag_139:\n        /* \"#utility.yul\":1378:1441   */\n      swap3\n      pop\n        /* \"#utility.yul\":1333:1451   */\n      pop\n        /* \"#utility.yul\":1490:1492   */\n      0x40\n        /* \"#utility.yul\":1516:1569   */\n      tag_140\n        /* \"#utility.yul\":1561:1568   */\n      dup7\n        /* \"#utility.yul\":1552:1558   */\n      dup3\n        /* \"#utility.yul\":1541:1550   */\n      dup8\n        /* \"#utility.yul\":1537:1559   */\n      add\n        /* \"#utility.yul\":1516:1569   */\n      tag_122\n      jump\t// in\n    tag_140:\n        /* \"#utility.yul\":1506:1569   */\n      swap2\n      pop\n        /* \"#utility.yul\":1461:1579   */\n      pop\n        /* \"#utility.yul\":967:1586   */\n      swap3\n      pop\n      swap3\n      pop\n      swap3\n      jump\t// out\n        /* \"#utility.yul\":1592:1710   */\n    tag_141:\n        /* \"#utility.yul\":1679:1703   */\n      tag_143\n        /* \"#utility.yul\":1697:1702   */\n      dup2\n        /* \"#utility.yul\":1679:1703   */\n      tag_144\n      jump\t// in\n    tag_143:\n        /* \"#utility.yul\":1674:1677   */\n      dup3\n        /* \"#utility.yul\":1667:1704   */\n      mstore\n        /* \"#utility.yul\":1592:1710   */\n      pop\n      pop\n      jump\t// out\n        /* \"#utility.yul\":1716:1825   */\n    tag_145:\n        /* \"#utility.yul\":1797:1818   */\n      tag_147\n        /* \"#utility.yul\":1812:1817   */\n      dup2\n        /* \"#utility.yul\":1797:1818   */\n      tag_148\n      jump\t// in\n    tag_147:\n        /* \"#utility.yul\":1792:1795   */\n      dup3\n        /* \"#utility.yul\":1785:1819   */\n      mstore\n        /* \"#utility.yul\":1716:1825   */\n      pop\n      pop\n      jump\t// out\n        /* \"#utility.yul\":1831:2016   */\n    tag_149:\n        /* \"#utility.yul\":1945:2009   */\n      tag_151\n        /* \"#utility.yul\":2003:2008   */\n      dup2\n        /* \"#utility.yul\":1945:2009   */\n      tag_152\n      jump\t// in\n    tag_151:\n        /* \"#utility.yul\":1940:1943   */\n      dup3\n        /* \"#utility.yul\":1933:2010   */\n      mstore\n        /* \"#utility.yul\":1831:2016   */\n      pop\n      pop\n      jump\t// out\n        /* \"#utility.yul\":2022:2388   */\n    tag_153:\n        /* \"#utility.yul\":2164:2167   */\n      0x00\n        /* \"#utility.yul\":2185:2252   */\n      tag_155\n        /* \"#utility.yul\":2249:2251   */\n      0x2d\n        /* \"#utility.yul\":2244:2247   */\n      dup4\n        /* \"#utility.yul\":2185:2252   */\n      tag_156\n      jump\t// in\n    tag_155:\n        /* \"#utility.yul\":2178:2252   */\n      swap2\n      pop\n        /* \"#utility.yul\":2261:2354   */\n      tag_157\n        /* \"#utility.yul\":2350:2353   */\n      dup3\n        /* \"#utility.yul\":2261:2354   */\n      tag_158\n      jump\t// in\n    tag_157:\n        /* \"#utility.yul\":2379:2381   */\n      0x40\n        /* \"#utility.yul\":2374:2377   */\n      dup3\n        /* \"#utility.yul\":2370:2382   */\n      add\n        /* \"#utility.yul\":2363:2382   */\n      swap1\n      pop\n        /* \"#utility.yul\":2022:2388   */\n      swap2\n      swap1\n      pop\n      jump\t// out\n        /* \"#utility.yul\":2394:2760   */\n    tag_159:\n        /* \"#utility.yul\":2536:2539   */\n      0x00\n        /* \"#utility.yul\":2557:2624   */\n      tag_161\n        /* \"#utility.yul\":2621:2623   */\n      0x17\n        /* \"#utility.yul\":2616:2619   */\n      dup4\n        /* \"#utility.yul\":2557:2624   */\n      tag_156\n      jump\t// in\n    tag_161:\n        /* \"#utility.yul\":2550:2624   */\n      swap2\n      pop\n        /* \"#utility.yul\":2633:2726   */\n      tag_162\n        /* \"#utility.yul\":2722:2725   */\n      dup3\n        /* \"#utility.yul\":2633:2726   */\n      tag_163\n      jump\t// in\n    tag_162:\n        /* \"#utility.yul\":2751:2753   */\n      0x20\n        /* \"#utility.yul\":2746:2749   */\n      dup3\n        /* \"#utility.yul\":2742:2754   */\n      add\n        /* \"#utility.yul\":2735:2754   */\n      swap1\n      pop\n        /* \"#utility.yul\":2394:2760   */\n      swap2\n      swap1\n      pop\n      jump\t// out\n        /* \"#utility.yul\":2766:3132   */\n    tag_164:\n        /* \"#utility.yul\":2908:2911   */\n      0x00\n        /* \"#utility.yul\":2929:2996   */\n      tag_166\n        /* \"#utility.yul\":2993:2995   */\n      0x12\n        /* \"#utility.yul\":2988:2991   */\n      dup4\n        /* \"#utility.yul\":2929:2996   */\n      tag_156\n      jump\t// in\n    tag_166:\n        /* \"#utility.yul\":2922:2996   */\n      swap2\n      pop\n        /* \"#utility.yul\":3005:3098   */\n      tag_167\n        /* \"#utility.yul\":3094:3097   */\n      dup3\n        /* \"#utility.yul\":3005:3098   */\n      tag_168\n      jump\t// in\n    tag_167:\n        /* \"#utility.yul\":3123:3125   */\n      0x20\n        /* \"#utility.yul\":3118:3121   */\n      dup3\n        /* \"#utility.yul\":3114:3126   */\n      add\n        /* \"#utility.yul\":3107:3126   */\n      swap1\n      pop\n        /* \"#utility.yul\":2766:3132   */\n      swap2\n      swap1\n      pop\n      jump\t// out\n        /* \"#utility.yul\":3138:3504   */\n    tag_169:\n        /* \"#utility.yul\":3280:3283   */\n      0x00\n        /* \"#utility.yul\":3301:3368   */\n      tag_171\n        /* \"#utility.yul\":3365:3367   */\n      0x3f\n        /* \"#utility.yul\":3360:3363   */\n      dup4\n        /* \"#utility.yul\":3301:3368   */\n      tag_156\n      jump\t// in\n    tag_171:\n        /* \"#utility.yul\":3294:3368   */\n      swap2\n      pop\n        /* \"#utility.yul\":3377:3470   */\n      tag_172\n        /* \"#utility.yul\":3466:3469   */\n      dup3\n        /* \"#utility.yul\":3377:3470   */\n      tag_173\n      jump\t// in\n    tag_172:\n        /* \"#utility.yul\":3495:3497   */\n      0x40\n        /* \"#utility.yul\":3490:3493   */\n      dup3\n        /* \"#utility.yul\":3486:3498   */\n      add\n        /* \"#utility.yul\":3479:3498   */\n      swap1\n      pop\n        /* \"#utility.yul\":3138:3504   */\n      swap2\n      swap1\n      pop\n      jump\t// out\n        /* \"#utility.yul\":3510:3876   */\n    tag_174:\n        /* \"#utility.yul\":3652:3655   */\n      0x00\n        /* \"#utility.yul\":3673:3740   */\n      tag_176\n        /* \"#utility.yul\":3737:3739   */\n      0x11\n        /* \"#utility.yul\":3732:3735   */\n      dup4\n        /* \"#utility.yul\":3673:3740   */\n      tag_156\n      jump\t// in\n    tag_176:\n        /* \"#utility.yul\":3666:3740   */\n      swap2\n      pop\n        /* \"#utility.yul\":3749:3842   */\n      tag_177\n        /* \"#utility.yul\":3838:3841   */\n      dup3\n        /* \"#utility.yul\":3749:3842   */\n      tag_178\n      jump\t// in\n    tag_177:\n        /* \"#utility.yul\":3867:3869   */\n      0x20\n        /* \"#utility.yul\":3862:3865   */\n      dup3\n        /* \"#utility.yul\":3858:3870   */\n      add\n        /* \"#utility.yul\":3851:3870   */\n      swap1\n      pop\n        /* \"#utility.yul\":3510:3876   */\n      swap2\n      swap1\n      pop\n      jump\t// out\n        /* \"#utility.yul\":3882:4248   */\n    tag_179:\n        /* \"#utility.yul\":4024:4027   */\n      0x00\n        /* \"#utility.yul\":4045:4112   */\n      tag_181\n        /* \"#utility.yul\":4109:4111   */\n      0x13\n        /* \"#utility.yul\":4104:4107   */\n      dup4\n        /* \"#utility.yul\":4045:4112   */\n      tag_156\n      jump\t// in\n    tag_181:\n        /* \"#utility.yul\":4038:4112   */\n      swap2\n      pop\n        /* \"#utility.yul\":4121:4214   */\n      tag_182\n        /* \"#utility.yul\":4210:4213   */\n      dup3\n        /* \"#utility.yul\":4121:4214   */\n      tag_183\n      jump\t// in\n    tag_182:\n        /* \"#utility.yul\":4239:4241   */\n      0x20\n        /* \"#utility.yul\":4234:4237   */\n      dup3\n        /* \"#utility.yul\":4230:4242   */\n      add\n        /* \"#utility.yul\":4223:4242   */\n      swap1\n      pop\n        /* \"#utility.yul\":3882:4248   */\n      swap2\n      swap1\n      pop\n      jump\t// out\n        /* \"#utility.yul\":4254:4620   */\n    tag_184:\n        /* \"#utility.yul\":4396:4399   */\n      0x00\n        /* \"#utility.yul\":4417:4484   */\n      tag_186\n        /* \"#utility.yul\":4481:4483   */\n      0x10\n        /* \"#utility.yul\":4476:4479   */\n      dup4\n        /* \"#utility.yul\":4417:4484   */\n      tag_156\n      jump\t// in\n    tag_186:\n        /* \"#utility.yul\":4410:4484   */\n      swap2\n      pop\n        /* \"#utility.yul\":4493:4586   */\n      tag_187\n        /* \"#utility.yul\":4582:4585   */\n      dup3\n        /* \"#utility.yul\":4493:4586   */\n      tag_188\n      jump\t// in\n    tag_187:\n        /* \"#utility.yul\":4611:4613   */\n      0x20\n        /* \"#utility.yul\":4606:4609   */\n      dup3\n        /* \"#utility.yul\":4602:4614   */\n      add\n        /* \"#utility.yul\":4595:4614   */\n      swap1\n      pop\n        /* \"#utility.yul\":4254:4620   */\n      swap2\n      swap1\n      pop\n      jump\t// out\n        /* \"#utility.yul\":4626:4744   */\n    tag_189:\n        /* \"#utility.yul\":4713:4737   */\n      tag_191\n        /* \"#utility.yul\":4731:4736   */\n      dup2\n        /* \"#utility.yul\":4713:4737   */\n      tag_192\n      jump\t// in\n    tag_191:\n        /* \"#utility.yul\":4708:4711   */\n      dup3\n        /* \"#utility.yul\":4701:4738   */\n      mstore\n        /* \"#utility.yul\":4626:4744   */\n      pop\n      pop\n      jump\t// out\n        /* \"#utility.yul\":4750:4972   */\n    tag_24:\n        /* \"#utility.yul\":4843:4847   */\n      0x00\n        /* \"#utility.yul\":4881:4883   */\n      0x20\n        /* \"#utility.yul\":4870:4879   */\n      dup3\n        /* \"#utility.yul\":4866:4884   */\n      add\n        /* \"#utility.yul\":4858:4884   */\n      swap1\n      pop\n        /* \"#utility.yul\":4894:4965   */\n      tag_194\n        /* \"#utility.yul\":4962:4963   */\n      0x00\n        /* \"#utility.yul\":4951:4960   */\n      dup4\n        /* \"#utility.yul\":4947:4964   */\n      add\n        /* \"#utility.yul\":4938:4944   */\n      dup5\n        /* \"#utility.yul\":4894:4965   */\n      tag_141\n      jump\t// in\n    tag_194:\n        /* \"#utility.yul\":4750:4972   */\n      swap3\n      swap2\n      pop\n      pop\n      jump\t// out\n        /* \"#utility.yul\":4978:5188   */\n    tag_32:\n        /* \"#utility.yul\":5065:5069   */\n      0x00\n        /* \"#utility.yul\":5103:5105   */\n      0x20\n        /* \"#utility.yul\":5092:5101   */\n      dup3\n        /* \"#utility.yul\":5088:5106   */\n      add\n        /* \"#utility.yul\":5080:5106   */\n      swap1\n      pop\n        /* \"#utility.yul\":5116:5181   */\n      tag_196\n        /* \"#utility.yul\":5178:5179   */\n      0x00\n        /* \"#utility.yul\":5167:5176   */\n      dup4\n        /* \"#utility.yul\":5163:5180   */\n      add\n        /* \"#utility.yul\":5154:5160   */\n      dup5\n        /* \"#utility.yul\":5116:5181   */\n      tag_145\n      jump\t// in\n    tag_196:\n        /* \"#utility.yul\":4978:5188   */\n      swap3\n      swap2\n      pop\n      pop\n      jump\t// out\n        /* \"#utility.yul\":5194:5470   */\n    tag_40:\n        /* \"#utility.yul\":5314:5318   */\n      0x00\n        /* \"#utility.yul\":5352:5354   */\n      0x20\n        /* \"#utility.yul\":5341:5350   */\n      dup3\n        /* \"#utility.yul\":5337:5355   */\n      add\n        /* \"#utility.yul\":5329:5355   */\n      swap1\n      pop\n        /* \"#utility.yul\":5365:5463   */\n      tag_198\n        /* \"#utility.yul\":5460:5461   */\n      0x00\n        /* \"#utility.yul\":5449:5458   */\n      dup4\n        /* \"#utility.yul\":5445:5462   */\n      add\n        /* \"#utility.yul\":5436:5442   */\n      dup5\n        /* \"#utility.yul\":5365:5463   */\n      tag_149\n      jump\t// in\n    tag_198:\n        /* \"#utility.yul\":5194:5470   */\n      swap3\n      swap2\n      pop\n      pop\n      jump\t// out\n        /* \"#utility.yul\":5476:5895   */\n    tag_44:\n        /* \"#utility.yul\":5642:5646   */\n      0x00\n        /* \"#utility.yul\":5680:5682   */\n      0x20\n        /* \"#utility.yul\":5669:5678   */\n      dup3\n        /* \"#utility.yul\":5665:5683   */\n      add\n        /* \"#utility.yul\":5657:5683   */\n      swap1\n      pop\n        /* \"#utility.yul\":5729:5738   */\n      dup2\n        /* \"#utility.yul\":5723:5727   */\n      dup2\n        /* \"#utility.yul\":5719:5739   */\n      sub\n        /* \"#utility.yul\":5715:5716   */\n      0x00\n        /* \"#utility.yul\":5704:5713   */\n      dup4\n        /* \"#utility.yul\":5700:5717   */\n      add\n        /* \"#utility.yul\":5693:5740   */\n      mstore\n        /* \"#utility.yul\":5757:5888   */\n      tag_200\n        /* \"#utility.yul\":5883:5887   */\n      dup2\n        /* \"#utility.yul\":5757:5888   */\n      tag_153\n      jump\t// in\n    tag_200:\n        /* \"#utility.yul\":5749:5888   */\n      swap1\n      pop\n        /* \"#utility.yul\":5476:5895   */\n      swap2\n      swap1\n      pop\n      jump\t// out\n        /* \"#utility.yul\":5901:6320   */\n    tag_108:\n        /* \"#utility.yul\":6067:6071   */\n      0x00\n        /* \"#utility.yul\":6105:6107   */\n      0x20\n        /* \"#utility.yul\":6094:6103   */\n      dup3\n        /* \"#utility.yul\":6090:6108   */\n      add\n        /* \"#utility.yul\":6082:6108   */\n      swap1\n      pop\n        /* \"#utility.yul\":6154:6163   */\n      dup2\n        /* \"#utility.yul\":6148:6152   */\n      dup2\n        /* \"#utility.yul\":6144:6164   */\n      sub\n        /* \"#utility.yul\":6140:6141   */\n      0x00\n        /* \"#utility.yul\":6129:6138   */\n      dup4\n        /* \"#utility.yul\":6125:6142   */\n      add\n        /* \"#utility.yul\":6118:6165   */\n      mstore\n        /* \"#utility.yul\":6182:6313   */\n      tag_202\n        /* \"#utility.yul\":6308:6312   */\n      dup2\n        /* \"#utility.yul\":6182:6313   */\n      tag_159\n      jump\t// in\n    tag_202:\n        /* \"#utility.yul\":6174:6313   */\n      swap1\n      pop\n        /* \"#utility.yul\":5901:6320   */\n      swap2\n      swap1\n      pop\n      jump\t// out\n        /* \"#utility.yul\":6326:6745   */\n    tag_49:\n        /* \"#utility.yul\":6492:6496   */\n      0x00\n        /* \"#utility.yul\":6530:6532   */\n      0x20\n        /* \"#utility.yul\":6519:6528   */\n      dup3\n        /* \"#utility.yul\":6515:6533   */\n      add\n        /* \"#utility.yul\":6507:6533   */\n      swap1\n      pop\n        /* \"#utility.yul\":6579:6588   */\n      dup2\n        /* \"#utility.yul\":6573:6577   */\n      dup2\n        /* \"#utility.yul\":6569:6589   */\n      sub\n        /* \"#utility.yul\":6565:6566   */\n      0x00\n        /* \"#utility.yul\":6554:6563   */\n      dup4\n        /* \"#utility.yul\":6550:6567   */\n      add\n        /* \"#utility.yul\":6543:6590   */\n      mstore\n        /* \"#utility.yul\":6607:6738   */\n      tag_204\n        /* \"#utility.yul\":6733:6737   */\n      dup2\n        /* \"#utility.yul\":6607:6738   */\n      tag_164\n      jump\t// in\n    tag_204:\n        /* \"#utility.yul\":6599:6738   */\n      swap1\n      pop\n        /* \"#utility.yul\":6326:6745   */\n      swap2\n      swap1\n      pop\n      jump\t// out\n        /* \"#utility.yul\":6751:7170   */\n    tag_89:\n        /* \"#utility.yul\":6917:6921   */\n      0x00\n        /* \"#utility.yul\":6955:6957   */\n      0x20\n        /* \"#utility.yul\":6944:6953   */\n      dup3\n        /* \"#utility.yul\":6940:6958   */\n      add\n        /* \"#utility.yul\":6932:6958   */\n      swap1\n      pop\n        /* \"#utility.yul\":7004:7013   */\n      dup2\n        /* \"#utility.yul\":6998:7002   */\n      dup2\n        /* \"#utility.yul\":6994:7014   */\n      sub\n        /* \"#utility.yul\":6990:6991   */\n      0x00\n        /* \"#utility.yul\":6979:6988   */\n      dup4\n        /* \"#utility.yul\":6975:6992   */\n      add\n        /* \"#utility.yul\":6968:7015   */\n      mstore\n        /* \"#utility.yul\":7032:7163   */\n      tag_206\n        /* \"#utility.yul\":7158:7162   */\n      dup2\n        /* \"#utility.yul\":7032:7163   */\n      tag_169\n      jump\t// in\n    tag_206:\n        /* \"#utility.yul\":7024:7163   */\n      swap1\n      pop\n        /* \"#utility.yul\":6751:7170   */\n      swap2\n      swap1\n      pop\n      jump\t// out\n        /* \"#utility.yul\":7176:7595   */\n    tag_102:\n        /* \"#utility.yul\":7342:7346   */\n      0x00\n        /* \"#utility.yul\":7380:7382   */\n      0x20\n        /* \"#utility.yul\":7369:7378   */\n      dup3\n        /* \"#utility.yul\":7365:7383   */\n      add\n        /* \"#utility.yul\":7357:7383   */\n      swap1\n      pop\n        /* \"#utility.yul\":7429:7438   */\n      dup2\n        /* \"#utility.yul\":7423:7427   */\n      dup2\n        /* \"#utility.yul\":7419:7439   */\n      sub\n        /* \"#utility.yul\":7415:7416   */\n      0x00\n        /* \"#utility.yul\":7404:7413   */\n      dup4\n        /* \"#utility.yul\":7400:7417   */\n      add\n        /* \"#utility.yul\":7393:7440   */\n      mstore\n        /* \"#utility.yul\":7457:7588   */\n      tag_208\n        /* \"#utility.yul\":7583:7587   */\n      dup2\n        /* \"#utility.yul\":7457:7588   */\n      tag_174\n      jump\t// in\n    tag_208:\n        /* \"#utility.yul\":7449:7588   */\n      swap1\n      pop\n        /* \"#utility.yul\":7176:7595   */\n      swap2\n      swap1\n      pop\n      jump\t// out\n        /* \"#utility.yul\":7601:8240   */\n    tag_65:\n        /* \"#utility.yul\":7823:7827   */\n      0x00\n        /* \"#utility.yul\":7861:7863   */\n      0x60\n        /* \"#utility.yul\":7850:7859   */\n      dup3\n        /* \"#utility.yul\":7846:7864   */\n      add\n        /* \"#utility.yul\":7838:7864   */\n      swap1\n      pop\n        /* \"#utility.yul\":7910:7919   */\n      dup2\n        /* \"#utility.yul\":7904:7908   */\n      dup2\n        /* \"#utility.yul\":7900:7920   */\n      sub\n        /* \"#utility.yul\":7896:7897   */\n      0x00\n        /* \"#utility.yul\":7885:7894   */\n      dup4\n        /* \"#utility.yul\":7881:7898   */\n      add\n        /* \"#utility.yul\":7874:7921   */\n      mstore\n        /* \"#utility.yul\":7938:8069   */\n      tag_210\n        /* \"#utility.yul\":8064:8068   */\n      dup2\n        /* \"#utility.yul\":7938:8069   */\n      tag_179\n      jump\t// in\n    tag_210:\n        /* \"#utility.yul\":7930:8069   */\n      swap1\n      pop\n        /* \"#utility.yul\":8079:8151   */\n      tag_211\n        /* \"#utility.yul\":8147:8149   */\n      0x20\n        /* \"#utility.yul\":8136:8145   */\n      dup4\n        /* \"#utility.yul\":8132:8150   */\n      add\n        /* \"#utility.yul\":8123:8129   */\n      dup6\n        /* \"#utility.yul\":8079:8151   */\n      tag_141\n      jump\t// in\n    tag_211:\n        /* \"#utility.yul\":8161:8233   */\n      tag_212\n        /* \"#utility.yul\":8229:8231   */\n      0x40\n        /* \"#utility.yul\":8218:8227   */\n      dup4\n        /* \"#utility.yul\":8214:8232   */\n      add\n        /* \"#utility.yul\":8205:8211   */\n      dup5\n        /* \"#utility.yul\":8161:8233   */\n      tag_189\n      jump\t// in\n    tag_212:\n        /* \"#utility.yul\":7601:8240   */\n      swap4\n      swap3\n      pop\n      pop\n      pop\n      jump\t// out\n        /* \"#utility.yul\":8246:8665   */\n    tag_83:\n        /* \"#utility.yul\":8412:8416   */\n      0x00\n        /* \"#utility.yul\":8450:8452   */\n      0x20\n        /* \"#utility.yul\":8439:8448   */\n      dup3\n        /* \"#utility.yul\":8435:8453   */\n      add\n        /* \"#utility.yul\":8427:8453   */\n      swap1\n      pop\n        /* \"#utility.yul\":8499:8508   */\n      dup2\n        /* \"#utility.yul\":8493:8497   */\n      dup2\n        /* \"#utility.yul\":8489:8509   */\n      sub\n        /* \"#utility.yul\":8485:8486   */\n      0x00\n        /* \"#utility.yul\":8474:8483   */\n      dup4\n        /* \"#utility.yul\":8470:8487   */\n      add\n        /* \"#utility.yul\":8463:8510   */\n      mstore\n        /* \"#utility.yul\":8527:8658   */\n      tag_214\n        /* \"#utility.yul\":8653:8657   */\n      dup2\n        /* \"#utility.yul\":8527:8658   */\n      tag_184\n      jump\t// in\n    tag_214:\n        /* \"#utility.yul\":8519:8658   */\n      swap1\n      pop\n        /* \"#utility.yul\":8246:8665   */\n      swap2\n      swap1\n      pop\n      jump\t// out\n        /* \"#utility.yul\":8671:8893   */\n    tag_20:\n        /* \"#utility.yul\":8764:8768   */\n      0x00\n        /* \"#utility.yul\":8802:8804   */\n      0x20\n        /* \"#utility.yul\":8791:8800   */\n      dup3\n        /* \"#utility.yul\":8787:8805   */\n      add\n        /* \"#utility.yul\":8779:8805   */\n      swap1\n      pop\n        /* \"#utility.yul\":8815:8886   */\n      tag_216\n        /* \"#utility.yul\":8883:8884   */\n      0x00\n        /* \"#utility.yul\":8872:8881   */\n      dup4\n        /* \"#utility.yul\":8868:8885   */\n      add\n        /* \"#utility.yul\":8859:8865   */\n      dup5\n        /* \"#utility.yul\":8815:8886   */\n      tag_189\n      jump\t// in\n    tag_216:\n        /* \"#utility.yul\":8671:8893   */\n      swap3\n      swap2\n      pop\n      pop\n      jump\t// out\n        /* \"#utility.yul\":8899:9231   */\n    tag_92:\n        /* \"#utility.yul\":9020:9024   */\n      0x00\n        /* \"#utility.yul\":9058:9060   */\n      0x40\n        /* \"#utility.yul\":9047:9056   */\n      dup3\n        /* \"#utility.yul\":9043:9061   */\n      add\n        /* \"#utility.yul\":9035:9061   */\n      swap1\n      pop\n        /* \"#utility.yul\":9071:9142   */\n      tag_218\n        /* \"#utility.yul\":9139:9140   */\n      0x00\n        /* \"#utility.yul\":9128:9137   */\n      dup4\n        /* \"#utility.yul\":9124:9141   */\n      add\n        /* \"#utility.yul\":9115:9121   */\n      dup6\n        /* \"#utility.yul\":9071:9142   */\n      tag_189\n      jump\t// in\n    tag_218:\n        /* \"#utility.yul\":9152:9224   */\n      tag_219\n        /* \"#utility.yul\":9220:9222   */\n      0x20\n        /* \"#utility.yul\":9209:9218   */\n      dup4\n        /* \"#utility.yul\":9205:9223   */\n      add\n        /* \"#utility.yul\":9196:9202   */\n      dup5\n        /* \"#utility.yul\":9152:9224   */\n      tag_141\n      jump\t// in\n    tag_219:\n        /* \"#utility.yul\":8899:9231   */\n      swap4\n      swap3\n      pop\n      pop\n      pop\n      jump\t// out\n        /* \"#utility.yul\":9237:9557   */\n    tag_16:\n        /* \"#utility.yul\":9352:9356   */\n      0x00\n        /* \"#utility.yul\":9390:9392   */\n      0x40\n        /* \"#utility.yul\":9379:9388   */\n      dup3\n        /* \"#utility.yul\":9375:9393   */\n      add\n        /* \"#utility.yul\":9367:9393   */\n      swap1\n      pop\n        /* \"#utility.yul\":9403:9474   */\n      tag_221\n        /* \"#utility.yul\":9471:9472   */\n      0x00\n        /* \"#utility.yul\":9460:9469   */\n      dup4\n        /* \"#utility.yul\":9456:9473   */\n      add\n        /* \"#utility.yul\":9447:9453   */\n      dup6\n        /* \"#utility.yul\":9403:9474   */\n      tag_189\n      jump\t// in\n    tag_221:\n        /* \"#utility.yul\":9484:9550   */\n      tag_222\n        /* \"#utility.yul\":9546:9548   */\n      0x20\n        /* \"#utility.yul\":9535:9544   */\n      dup4\n        /* \"#utility.yul\":9531:9549   */\n      add\n        /* \"#utility.yul\":9522:9528   */\n      dup5\n        /* \"#utility.yul\":9484:9550   */\n      tag_145\n      jump\t// in\n    tag_222:\n        /* \"#utility.yul\":9237:9557   */\n      swap4\n      swap3\n      pop\n      pop\n      pop\n      jump\t// out\n        /* \"#utility.yul\":9644:9813   */\n    tag_156:\n        /* \"#utility.yul\":9728:9739   */\n      0x00\n        /* \"#utility.yul\":9762:9768   */\n      dup3\n        /* \"#utility.yul\":9757:9760   */\n      dup3\n        /* \"#utility.yul\":9750:9769   */\n      mstore\n        /* \"#utility.yul\":9802:9806   */\n      0x20\n        /* \"#utility.yul\":9797:9800   */\n      dup3\n        /* \"#utility.yul\":9793:9807   */\n      add\n        /* \"#utility.yul\":9778:9807   */\n      swap1\n      pop\n        /* \"#utility.yul\":9644:9813   */\n      swap3\n      swap2\n      pop\n      pop\n      jump\t// out\n        /* \"#utility.yul\":9819:10010   */\n    tag_116:\n        /* \"#utility.yul\":9859:9863   */\n      0x00\n        /* \"#utility.yul\":9879:9899   */\n      tag_227\n        /* \"#utility.yul\":9897:9898   */\n      dup3\n        /* \"#utility.yul\":9879:9899   */\n      tag_192\n      jump\t// in\n    tag_227:\n        /* \"#utility.yul\":9874:9899   */\n      swap2\n      pop\n        /* \"#utility.yul\":9913:9933   */\n      tag_228\n        /* \"#utility.yul\":9931:9932   */\n      dup4\n        /* \"#utility.yul\":9913:9933   */\n      tag_192\n      jump\t// in\n    tag_228:\n        /* \"#utility.yul\":9908:9933   */\n      swap3\n      pop\n        /* \"#utility.yul\":9952:9953   */\n      dup3\n        /* \"#utility.yul\":9949:9950   */\n      dup3\n        /* \"#utility.yul\":9946:9954   */\n      lt\n        /* \"#utility.yul\":9943:9977   */\n      iszero\n      tag_229\n      jumpi\n        /* \"#utility.yul\":9957:9975   */\n      tag_230\n      tag_231\n      jump\t// in\n    tag_230:\n        /* \"#utility.yul\":9943:9977   */\n    tag_229:\n        /* \"#utility.yul\":10002:10003   */\n      dup3\n        /* \"#utility.yul\":9999:10000   */\n      dup3\n        /* \"#utility.yul\":9995:10004   */\n      sub\n        /* \"#utility.yul\":9987:10004   */\n      swap1\n      pop\n        /* \"#utility.yul\":9819:10010   */\n      swap3\n      swap2\n      pop\n      pop\n      jump\t// out\n        /* \"#utility.yul\":10016:10112   */\n    tag_144:\n        /* \"#utility.yul\":10053:10060   */\n      0x00\n        /* \"#utility.yul\":10082:10106   */\n      tag_233\n        /* \"#utility.yul\":10100:10105   */\n      dup3\n        /* \"#utility.yul\":10082:10106   */\n      tag_234\n      jump\t// in\n    tag_233:\n        /* \"#utility.yul\":10071:10106   */\n      swap1\n      pop\n        /* \"#utility.yul\":10016:10112   */\n      swap2\n      swap1\n      pop\n      jump\t// out\n        /* \"#utility.yul\":10118:10208   */\n    tag_148:\n        /* \"#utility.yul\":10152:10159   */\n      0x00\n        /* \"#utility.yul\":10195:10200   */\n      dup2\n        /* \"#utility.yul\":10188:10201   */\n      iszero\n        /* \"#utility.yul\":10181:10202   */\n      iszero\n        /* \"#utility.yul\":10170:10202   */\n      swap1\n      pop\n        /* \"#utility.yul\":10118:10208   */\n      swap2\n      swap1\n      pop\n      jump\t// out\n        /* \"#utility.yul\":10214:10340   */\n    tag_234:\n        /* \"#utility.yul\":10251:10258   */\n      0x00\n        /* \"#utility.yul\":10291:10333   */\n      0xffffffffffffffffffffffffffffffffffffffff\n        /* \"#utility.yul\":10284:10289   */\n      dup3\n        /* \"#utility.yul\":10280:10334   */\n      and\n        /* \"#utility.yul\":10269:10334   */\n      swap1\n      pop\n        /* \"#utility.yul\":10214:10340   */\n      swap2\n      swap1\n      pop\n      jump\t// out\n        /* \"#utility.yul\":10346:10423   */\n    tag_192:\n        /* \"#utility.yul\":10383:10390   */\n      0x00\n        /* \"#utility.yul\":10412:10417   */\n      dup2\n        /* \"#utility.yul\":10401:10417   */\n      swap1\n      pop\n        /* \"#utility.yul\":10346:10423   */\n      swap2\n      swap1\n      pop\n      jump\t// out\n        /* \"#utility.yul\":10429:10590   */\n    tag_152:\n        /* \"#utility.yul\":10506:10515   */\n      0x00\n        /* \"#utility.yul\":10539:10584   */\n      tag_239\n        /* \"#utility.yul\":10578:10583   */\n      dup3\n        /* \"#utility.yul\":10539:10584   */\n      tag_240\n      jump\t// in\n    tag_239:\n        /* \"#utility.yul\":10526:10584   */\n      swap1\n      pop\n        /* \"#utility.yul\":10429:10590   */\n      swap2\n      swap1\n      pop\n      jump\t// out\n        /* \"#utility.yul\":10596:10730   */\n    tag_240:\n        /* \"#utility.yul\":10654:10663   */\n      0x00\n        /* \"#utility.yul\":10687:10724   */\n      tag_242\n        /* \"#utility.yul\":10718:10723   */\n      dup3\n        /* \"#utility.yul\":10687:10724   */\n      tag_243\n      jump\t// in\n    tag_242:\n        /* \"#utility.yul\":10674:10724   */\n      swap1\n      pop\n        /* \"#utility.yul\":10596:10730   */\n      swap2\n      swap1\n      pop\n      jump\t// out\n        /* \"#utility.yul\":10736:10849   */\n    tag_243:\n        /* \"#utility.yul\":10786:10795   */\n      0x00\n        /* \"#utility.yul\":10819:10843   */\n      tag_245\n        /* \"#utility.yul\":10837:10842   */\n      dup3\n        /* \"#utility.yul\":10819:10843   */\n      tag_234\n      jump\t// in\n    tag_245:\n        /* \"#utility.yul\":10806:10843   */\n      swap1\n      pop\n        /* \"#utility.yul\":10736:10849   */\n      swap2\n      swap1\n      pop\n      jump\t// out\n        /* \"#utility.yul\":10855:11035   */\n    tag_231:\n        /* \"#utility.yul\":10903:10980   */\n      0x4e487b7100000000000000000000000000000000000000000000000000000000\n        /* \"#utility.yul\":10900:10901   */\n      0x00\n        /* \"#utility.yul\":10893:10981   */\n      mstore\n        /* \"#utility.yul\":11000:11004   */\n      0x11\n        /* \"#utility.yul\":10997:10998   */\n      0x04\n        /* \"#utility.yul\":10990:11005   */\n      mstore\n        /* \"#utility.yul\":11024:11028   */\n      0x24\n        /* \"#utility.yul\":11021:11022   */\n      0x00\n        /* \"#utility.yul\":11014:11029   */\n      revert\n        /* \"#utility.yul\":11041:11221   */\n    tag_62:\n        /* \"#utility.yul\":11089:11166   */\n      0x4e487b7100000000000000000000000000000000000000000000000000000000\n        /* \"#utility.yul\":11086:11087   */\n      0x00\n        /* \"#utility.yul\":11079:11167   */\n      mstore\n        /* \"#utility.yul\":11186:11190   */\n      0x31\n        /* \"#utility.yul\":11183:11184   */\n      0x04\n        /* \"#utility.yul\":11176:11191   */\n      mstore\n        /* \"#utility.yul\":11210:11214   */\n      0x24\n        /* \"#utility.yul\":11207:11208   */\n      0x00\n        /* \"#utility.yul\":11200:11215   */\n      revert\n        /* \"#utility.yul\":11227:11407   */\n    tag_55:\n        /* \"#utility.yul\":11275:11352   */\n      0x4e487b7100000000000000000000000000000000000000000000000000000000\n        /* \"#utility.yul\":11272:11273   */\n      0x00\n        /* \"#utility.yul\":11265:11353   */\n      mstore\n        /* \"#utility.yul\":11372:11376   */\n      0x32\n        /* \"#utility.yul\":11369:11370   */\n      0x04\n        /* \"#utility.yul\":11362:11377   */\n      mstore\n        /* \"#utility.yul\":11396:11400   */\n      0x24\n        /* \"#utility.yul\":11393:11394   */\n      0x00\n        /* \"#utility.yul\":11386:11401   */\n      revert\n        /* \"#utility.yul\":11536:11653   */\n    tag_129:\n        /* \"#utility.yul\":11645:11646   */\n      0x00\n        /* \"#utility.yul\":11642:11643   */\n      dup1\n        /* \"#utility.yul\":11635:11647   */\n      revert\n        /* \"#utility.yul\":11659:11891   */\n    tag_158:\n        /* \"#utility.yul\":11799:11833   */\n      0x4f6e6c79206372656174696e6720636f6e74726163742063616e2063616c6c20\n        /* \"#utility.yul\":11795:11796   */\n      0x00\n        /* \"#utility.yul\":11787:11793   */\n      dup3\n        /* \"#utility.yul\":11783:11797   */\n      add\n        /* \"#utility.yul\":11776:11834   */\n      mstore\n        /* \"#utility.yul\":11868:11883   */\n      0x746869732066756e6374696f6e00000000000000000000000000000000000000\n        /* \"#utility.yul\":11863:11865   */\n      0x20\n        /* \"#utility.yul\":11855:11861   */\n      dup3\n        /* \"#utility.yul\":11851:11866   */\n      add\n        /* \"#utility.yul\":11844:11884   */\n      mstore\n        /* \"#utility.yul\":11659:11891   */\n      pop\n      jump\t// out\n        /* \"#utility.yul\":11897:12070   */\n    tag_163:\n        /* \"#utility.yul\":12037:12062   */\n      0x6163636f756e7420616c72656164792064656c65746564000000000000000000\n        /* \"#utility.yul\":12033:12034   */\n      0x00\n        /* \"#utility.yul\":12025:12031   */\n      dup3\n        /* \"#utility.yul\":12021:12035   */\n      add\n        /* \"#utility.yul\":12014:12063   */\n      mstore\n        /* \"#utility.yul\":11897:12070   */\n      pop\n      jump\t// out\n        /* \"#utility.yul\":12076:12244   */\n    tag_168:\n        /* \"#utility.yul\":12216:12236   */\n      0x5768697465206c6973742069732066756c6c0000000000000000000000000000\n        /* \"#utility.yul\":12212:12213   */\n      0x00\n        /* \"#utility.yul\":12204:12210   */\n      dup3\n        /* \"#utility.yul\":12200:12214   */\n      add\n        /* \"#utility.yul\":12193:12237   */\n      mstore\n        /* \"#utility.yul\":12076:12244   */\n      pop\n      jump\t// out\n        /* \"#utility.yul\":12250:12500   */\n    tag_173:\n        /* \"#utility.yul\":12390:12424   */\n      0x536d61727420636f6e7472616374206e6f7420616c6c6f77656420746f207769\n        /* \"#utility.yul\":12386:12387   */\n      0x00\n        /* \"#utility.yul\":12378:12384   */\n      dup3\n        /* \"#utility.yul\":12374:12388   */\n      add\n        /* \"#utility.yul\":12367:12425   */\n      mstore\n        /* \"#utility.yul\":12459:12492   */\n      0x746864726177206d6f6e6579207468726f756768742074686973206761746500\n        /* \"#utility.yul\":12454:12456   */\n      0x20\n        /* \"#utility.yul\":12446:12452   */\n      dup3\n        /* \"#utility.yul\":12442:12457   */\n      add\n        /* \"#utility.yul\":12435:12493   */\n      mstore\n        /* \"#utility.yul\":12250:12500   */\n      pop\n      jump\t// out\n        /* \"#utility.yul\":12506:12673   */\n    tag_178:\n        /* \"#utility.yul\":12646:12665   */\n      0x546f6b656e206e6f742063726561746564000000000000000000000000000000\n        /* \"#utility.yul\":12642:12643   */\n      0x00\n        /* \"#utility.yul\":12634:12640   */\n      dup3\n        /* \"#utility.yul\":12630:12644   */\n      add\n        /* \"#utility.yul\":12623:12666   */\n      mstore\n        /* \"#utility.yul\":12506:12673   */\n      pop\n      jump\t// out\n        /* \"#utility.yul\":12679:12848   */\n    tag_183:\n        /* \"#utility.yul\":12819:12840   */\n      0x416464656420746f207768697465206c69737400000000000000000000000000\n        /* \"#utility.yul\":12815:12816   */\n      0x00\n        /* \"#utility.yul\":12807:12813   */\n      dup3\n        /* \"#utility.yul\":12803:12817   */\n      add\n        /* \"#utility.yul\":12796:12841   */\n      mstore\n        /* \"#utility.yul\":12679:12848   */\n      pop\n      jump\t// out\n        /* \"#utility.yul\":12854:13020   */\n    tag_188:\n        /* \"#utility.yul\":12994:13012   */\n      0x44656c6574656420436f6e747261637400000000000000000000000000000000\n        /* \"#utility.yul\":12990:12991   */\n      0x00\n        /* \"#utility.yul\":12982:12988   */\n      dup3\n        /* \"#utility.yul\":12978:12992   */\n      add\n        /* \"#utility.yul\":12971:13013   */\n      mstore\n        /* \"#utility.yul\":12854:13020   */\n      pop\n      jump\t// out\n        /* \"#utility.yul\":13026:13148   */\n    tag_121:\n        /* \"#utility.yul\":13099:13123   */\n      tag_260\n        /* \"#utility.yul\":13117:13122   */\n      dup2\n        /* \"#utility.yul\":13099:13123   */\n      tag_144\n      jump\t// in\n    tag_260:\n        /* \"#utility.yul\":13092:13097   */\n      dup2\n        /* \"#utility.yul\":13089:13124   */\n      eq\n        /* \"#utility.yul\":13079:13142   */\n      tag_261\n      jumpi\n        /* \"#utility.yul\":13138:13139   */\n      0x00\n        /* \"#utility.yul\":13135:13136   */\n      dup1\n        /* \"#utility.yul\":13128:13140   */\n      revert\n        /* \"#utility.yul\":13079:13142   */\n    tag_261:\n        /* \"#utility.yul\":13026:13148   */\n      pop\n      jump\t// out\n        /* \"#utility.yul\":13154:13276   */\n    tag_125:\n        /* \"#utility.yul\":13227:13251   */\n      tag_263\n        /* \"#utility.yul\":13245:13250   */\n      dup2\n        /* \"#utility.yul\":13227:13251   */\n      tag_192\n      jump\t// in\n    tag_263:\n        /* \"#utility.yul\":13220:13225   */\n      dup2\n        /* \"#utility.yul\":13217:13252   */\n      eq\n        /* \"#utility.yul\":13207:13270   */\n      tag_264\n      jumpi\n        /* \"#utility.yul\":13266:13267   */\n      0x00\n        /* \"#utility.yul\":13263:13264   */\n      dup1\n        /* \"#utility.yul\":13256:13268   */\n      revert\n        /* \"#utility.yul\":13207:13270   */\n    tag_264:\n        /* \"#utility.yul\":13154:13276   */\n      pop\n      jump\t// out\n\n    auxdata: 0xa2646970667358221220a18bdb72bf435b541a6b6e2c46055dffba7dfd1d3e1c3a4bbde62a867995fbb264736f6c63430008070033\n}\n",
				"bytecode": {
					"linkReferences": {},
					"object": "60806040523480156200001157600080fd5b50604051620013a4380380620013a4833981810160405281019062000037919062000151565b336000806101000a81548173ffffffffffffffffffffffffffffffffffffffff021916908373ffffffffffffffffffffffffffffffffffffffff1602179055508160038190555080600460006101000a81548173ffffffffffffffffffffffffffffffffffffffff021916908373ffffffffffffffffffffffffffffffffffffffff1602179055507f2cce1494b4ef3c5682648d5c4bbf147548f403fc2ac218e41ec797babdb0acb560008054906101000a900473ffffffffffffffffffffffffffffffffffffffff16600060405162000113929190620001e1565b60405180910390a15050620002e8565b6000815190506200013481620002b4565b92915050565b6000815190506200014b81620002ce565b92915050565b600080604083850312156200016b576200016a62000286565b5b60006200017b858286016200013a565b92505060206200018e8582860162000123565b9150509250929050565b620001a38162000234565b82525050565b620001b48162000272565b82525050565b6000620001c9601c8362000223565b9150620001d6826200028b565b602082019050919050565b60006060820190508181036000830152620001fc81620001ba565b90506200020d602083018562000198565b6200021c6040830184620001a9565b9392505050565b600082825260208201905092915050565b6000620002418262000248565b9050919050565b600073ffffffffffffffffffffffffffffffffffffffff82169050919050565b6000819050919050565b60006200027f8262000268565b9050919050565b600080fd5b7f4c656e64696e6720706f6f6c2067617465206372656174656420627900000000600082015250565b620002bf8162000234565b8114620002cb57600080fd5b50565b620002d98162000268565b8114620002e557600080fd5b50565b6110ac80620002f86000396000f3fe608060405234801561001057600080fd5b506004361061007d5760003560e01c8063ac4460021161005b578063ac446002146100ef578063bc134ae3146100f9578063cbc20f3014610129578063f984ead8146101455761007d565b8063317549f21461008257806389f78c8e146100b35780639dc61d4f146100d1575b600080fd5b61009c600480360381019061009791906109f0565b610163565b6040516100aa929190610d5f565b60405180910390f35b6100bb61046a565b6040516100c89190610d1b565b60405180910390f35b6100d9610470565b6040516100e69190610bce565b60405180910390f35b6100f7610494565b005b610113600480360381019061010e9190610a4a565b610567565b6040516101209190610be9565b60405180910390f35b610143600480360381019061013e9190610a1d565b610770565b005b61014d61097d565b60405161015a9190610c04565b60405180910390f35b60008060008054906101000a900473ffffffffffffffffffffffffffffffffffffffff1673ffffffffffffffffffffffffffffffffffffffff163373ffffffffffffffffffffffffffffffffffffffff16146101f4576040517f08c379a00000000000000000000000000000000000000000000000000000000081526004016101eb90610c1f565b60405180910390fd5b600354600180549050108061020f5750600060028054905014155b61024e576040517f08c379a000000000000000000000000000000000000000000000000000000000815260040161024590610c5f565b60405180910390fd5b60006002805490501461037a576000600261027860016002805490506109a390919063ffffffff16565b8154811061028957610288610ea9565b5b9060005260206000200154905083600182815481106102ab576102aa610ea9565b5b9060005260206000200160006101000a81548173ffffffffffffffffffffffffffffffffffffffff021916908373ffffffffffffffffffffffffffffffffffffffff160217905550600280548061030557610304610e7a565b5b600190038181906000526020600020016000905590557f2cce1494b4ef3c5682648d5c4bbf147548f403fc2ac218e41ec797babdb0acb5848260405161034c929190610cbf565b60405180910390a18060035460018054905010806103705750600060028054905014155b9250925050610465565b6001839080600181540180825580915050600190039060005260206000200160009091909190916101000a81548173ffffffffffffffffffffffffffffffffffffffff021916908373ffffffffffffffffffffffffffffffffffffffff1602179055507f2cce1494b4ef3c5682648d5c4bbf147548f403fc2ac218e41ec797babdb0acb583610417600180805490506109a390919063ffffffff16565b604051610425929190610cbf565b60405180910390a1610445600180805490506109a390919063ffffffff16565b60035460018054905010806104605750600060028054905014155b915091505b915091565b60035481565b60008054906101000a900473ffffffffffffffffffffffffffffffffffffffff1681565b6000600560003373ffffffffffffffffffffffffffffffffffffffff1673ffffffffffffffffffffffffffffffffffffffff1681526020019081526020016000205490506000600560003373ffffffffffffffffffffffffffffffffffffffff1673ffffffffffffffffffffffffffffffffffffffff168152602001908152602001600020819055503373ffffffffffffffffffffffffffffffffffffffff166108fc829081150290604051600060405180830381858888f19350505050158015610563573d6000803e3d6000fd5b5050565b600083600180549050811061057b57600080fd5b600073ffffffffffffffffffffffffffffffffffffffff16600182815481106105a7576105a6610ea9565b5b9060005260206000200160009054906101000a900473ffffffffffffffffffffffffffffffffffffffff1673ffffffffffffffffffffffffffffffffffffffff161415610629576040517f08c379a000000000000000000000000000000000000000000000000000000000815260040161062090610cfb565b60405180910390fd5b6001818154811061063d5761063c610ea9565b5b9060005260206000200160009054906101000a900473ffffffffffffffffffffffffffffffffffffffff1673ffffffffffffffffffffffffffffffffffffffff163373ffffffffffffffffffffffffffffffffffffffff16146106d5576040517f08c379a00000000000000000000000000000000000000000000000000000000081526004016106cc90610c7f565b60405180910390fd5b600460009054906101000a900473ffffffffffffffffffffffffffffffffffffffff1673ffffffffffffffffffffffffffffffffffffffff16633607999b84866040518363ffffffff1660e01b8152600401610732929190610d36565b600060405180830381600087803b15801561074c57600080fd5b505af1158015610760573d6000803e3d6000fd5b5050505060019150509392505050565b60008054906101000a900473ffffffffffffffffffffffffffffffffffffffff1673ffffffffffffffffffffffffffffffffffffffff163373ffffffffffffffffffffffffffffffffffffffff16146107fe576040517f08c379a00000000000000000000000000000000000000000000000000000000081526004016107f590610c1f565b60405180910390fd5b6001805490508110610845576040517f08c379a000000000000000000000000000000000000000000000000000000000815260040161083c90610c9f565b60405180910390fd5b600073ffffffffffffffffffffffffffffffffffffffff166001828154811061087157610870610ea9565b5b9060005260206000200160009054906101000a900473ffffffffffffffffffffffffffffffffffffffff1673ffffffffffffffffffffffffffffffffffffffff1614156108f3576040517f08c379a00000000000000000000000000000000000000000000000000000000081526004016108ea90610c3f565b60405180910390fd5b60006001828154811061090957610908610ea9565b5b9060005260206000200160006101000a81548173ffffffffffffffffffffffffffffffffffffffff021916908373ffffffffffffffffffffffffffffffffffffffff160217905550600281908060018154018082558091505060019003906000526020600020016000909190919091505550565b600460009054906101000a900473ffffffffffffffffffffffffffffffffffffffff1681565b6000828211156109b257600080fd5b81836109be9190610d99565b905092915050565b6000813590506109d581611048565b92915050565b6000813590506109ea8161105f565b92915050565b600060208284031215610a0657610a05610ed8565b5b6000610a14848285016109c6565b91505092915050565b600060208284031215610a3357610a32610ed8565b5b6000610a41848285016109db565b91505092915050565b600080600060608486031215610a6357610a62610ed8565b5b6000610a71868287016109db565b9350506020610a82868287016109c6565b9250506040610a93868287016109db565b9150509250925092565b610aa681610dcd565b82525050565b610ab581610ddf565b82525050565b610ac481610e15565b82525050565b6000610ad7602d83610d88565b9150610ae282610edd565b604082019050919050565b6000610afa601783610d88565b9150610b0582610f2c565b602082019050919050565b6000610b1d601283610d88565b9150610b2882610f55565b602082019050919050565b6000610b40603f83610d88565b9150610b4b82610f7e565b604082019050919050565b6000610b63601183610d88565b9150610b6e82610fcd565b602082019050919050565b6000610b86601383610d88565b9150610b9182610ff6565b602082019050919050565b6000610ba9601083610d88565b9150610bb48261101f565b602082019050919050565b610bc881610e0b565b82525050565b6000602082019050610be36000830184610a9d565b92915050565b6000602082019050610bfe6000830184610aac565b92915050565b6000602082019050610c196000830184610abb565b92915050565b60006020820190508181036000830152610c3881610aca565b9050919050565b60006020820190508181036000830152610c5881610aed565b9050919050565b60006020820190508181036000830152610c7881610b10565b9050919050565b60006020820190508181036000830152610c9881610b33565b9050919050565b60006020820190508181036000830152610cb881610b56565b9050919050565b60006060820190508181036000830152610cd881610b79565b9050610ce76020830185610a9d565b610cf46040830184610bbf565b9392505050565b60006020820190508181036000830152610d1481610b9c565b9050919050565b6000602082019050610d306000830184610bbf565b92915050565b6000604082019050610d4b6000830185610bbf565b610d586020830184610a9d565b9392505050565b6000604082019050610d746000830185610bbf565b610d816020830184610aac565b9392505050565b600082825260208201905092915050565b6000610da482610e0b565b9150610daf83610e0b565b925082821015610dc257610dc1610e4b565b5b828203905092915050565b6000610dd882610deb565b9050919050565b60008115159050919050565b600073ffffffffffffffffffffffffffffffffffffffff82169050919050565b6000819050919050565b6000610e2082610e27565b9050919050565b6000610e3282610e39565b9050919050565b6000610e4482610deb565b9050919050565b7f4e487b7100000000000000000000000000000000000000000000000000000000600052601160045260246000fd5b7f4e487b7100000000000000000000000000000000000000000000000000000000600052603160045260246000fd5b7f4e487b7100000000000000000000000000000000000000000000000000000000600052603260045260246000fd5b600080fd5b7f4f6e6c79206372656174696e6720636f6e74726163742063616e2063616c6c2060008201527f746869732066756e6374696f6e00000000000000000000000000000000000000602082015250565b7f6163636f756e7420616c72656164792064656c65746564000000000000000000600082015250565b7f5768697465206c6973742069732066756c6c0000000000000000000000000000600082015250565b7f536d61727420636f6e7472616374206e6f7420616c6c6f77656420746f20776960008201527f746864726177206d6f6e6579207468726f756768742074686973206761746500602082015250565b7f546f6b656e206e6f742063726561746564000000000000000000000000000000600082015250565b7f416464656420746f207768697465206c69737400000000000000000000000000600082015250565b7f44656c6574656420436f6e747261637400000000000000000000000000000000600082015250565b61105181610dcd565b811461105c57600080fd5b50565b61106881610e0b565b811461107357600080fd5b5056fea2646970667358221220a18bdb72bf435b541a6b6e2c46055dffba7dfd1d3e1c3a4bbde62a867995fbb264736f6c63430008070033",
					"opcodes": "PUSH1 0x80 PUSH1 0x40 MSTORE CALLVALUE DUP1 ISZERO PUSH3 0x11 JUMPI PUSH1 0x0 DUP1 REVERT JUMPDEST POP PUSH1 0x40 MLOAD PUSH3 0x13A4 CODESIZE SUB DUP1 PUSH3 0x13A4 DUP4 CODECOPY DUP2 DUP2 ADD PUSH1 0x40 MSTORE DUP2 ADD SWAP1 PUSH3 0x37 SWAP2 SWAP1 PUSH3 0x151 JUMP JUMPDEST CALLER PUSH1 0x0 DUP1 PUSH2 0x100 EXP DUP2 SLOAD DUP2 PUSH20 0xFFFFFFFFFFFFFFFFFFFFFFFFFFFFFFFFFFFFFFFF MUL NOT AND SWAP1 DUP4 PUSH20 0xFFFFFFFFFFFFFFFFFFFFFFFFFFFFFFFFFFFFFFFF AND MUL OR SWAP1 SSTORE POP DUP2 PUSH1 0x3 DUP2 SWAP1 SSTORE POP DUP1 PUSH1 0x4 PUSH1 0x0 PUSH2 0x100 EXP DUP2 SLOAD DUP2 PUSH20 0xFFFFFFFFFFFFFFFFFFFFFFFFFFFFFFFFFFFFFFFF MUL NOT AND SWAP1 DUP4 PUSH20 0xFFFFFFFFFFFFFFFFFFFFFFFFFFFFFFFFFFFFFFFF AND MUL OR SWAP1 SSTORE POP PUSH32 0x2CCE1494B4EF3C5682648D5C4BBF147548F403FC2AC218E41EC797BABDB0ACB5 PUSH1 0x0 DUP1 SLOAD SWAP1 PUSH2 0x100 EXP SWAP1 DIV PUSH20 0xFFFFFFFFFFFFFFFFFFFFFFFFFFFFFFFFFFFFFFFF AND PUSH1 0x0 PUSH1 0x40 MLOAD PUSH3 0x113 SWAP3 SWAP2 SWAP1 PUSH3 0x1E1 JUMP JUMPDEST PUSH1 0x40 MLOAD DUP1 SWAP2 SUB SWAP1 LOG1 POP POP PUSH3 0x2E8 JUMP JUMPDEST PUSH1 0x0 DUP2 MLOAD SWAP1 POP PUSH3 0x134 DUP2 PUSH3 0x2B4 JUMP JUMPDEST SWAP3 SWAP2 POP POP JUMP JUMPDEST PUSH1 0x0 DUP2 MLOAD SWAP1 POP PUSH3 0x14B DUP2 PUSH3 0x2CE JUMP JUMPDEST SWAP3 SWAP2 POP POP JUMP JUMPDEST PUSH1 0x0 DUP1 PUSH1 0x40 DUP4 DUP6 SUB SLT ISZERO PUSH3 0x16B JUMPI PUSH3 0x16A PUSH3 0x286 JUMP JUMPDEST JUMPDEST PUSH1 0x0 PUSH3 0x17B DUP6 DUP3 DUP7 ADD PUSH3 0x13A JUMP JUMPDEST SWAP3 POP POP PUSH1 0x20 PUSH3 0x18E DUP6 DUP3 DUP7 ADD PUSH3 0x123 JUMP JUMPDEST SWAP2 POP POP SWAP3 POP SWAP3 SWAP1 POP JUMP JUMPDEST PUSH3 0x1A3 DUP2 PUSH3 0x234 JUMP JUMPDEST DUP3 MSTORE POP POP JUMP JUMPDEST PUSH3 0x1B4 DUP2 PUSH3 0x272 JUMP JUMPDEST DUP3 MSTORE POP POP JUMP JUMPDEST PUSH1 0x0 PUSH3 0x1C9 PUSH1 0x1C DUP4 PUSH3 0x223 JUMP JUMPDEST SWAP2 POP PUSH3 0x1D6 DUP3 PUSH3 0x28B JUMP JUMPDEST PUSH1 0x20 DUP3 ADD SWAP1 POP SWAP2 SWAP1 POP JUMP JUMPDEST PUSH1 0x0 PUSH1 0x60 DUP3 ADD SWAP1 POP DUP2 DUP2 SUB PUSH1 0x0 DUP4 ADD MSTORE PUSH3 0x1FC DUP2 PUSH3 0x1BA JUMP JUMPDEST SWAP1 POP PUSH3 0x20D PUSH1 0x20 DUP4 ADD DUP6 PUSH3 0x198 JUMP JUMPDEST PUSH3 0x21C PUSH1 0x40 DUP4 ADD DUP5 PUSH3 0x1A9 JUMP JUMPDEST SWAP4 SWAP3 POP POP POP JUMP JUMPDEST PUSH1 0x0 DUP3 DUP3 MSTORE PUSH1 0x20 DUP3 ADD SWAP1 POP SWAP3 SWAP2 POP POP JUMP JUMPDEST PUSH1 0x0 PUSH3 0x241 DUP3 PUSH3 0x248 JUMP JUMPDEST SWAP1 POP SWAP2 SWAP1 POP JUMP JUMPDEST PUSH1 0x0 PUSH20 0xFFFFFFFFFFFFFFFFFFFFFFFFFFFFFFFFFFFFFFFF DUP3 AND SWAP1 POP SWAP2 SWAP1 POP JUMP JUMPDEST PUSH1 0x0 DUP2 SWAP1 POP SWAP2 SWAP1 POP JUMP JUMPDEST PUSH1 0x0 PUSH3 0x27F DUP3 PUSH3 0x268 JUMP JUMPDEST SWAP1 POP SWAP2 SWAP1 POP JUMP JUMPDEST PUSH1 0x0 DUP1 REVERT JUMPDEST PUSH32 0x4C656E64696E6720706F6F6C2067617465206372656174656420627900000000 PUSH1 0x0 DUP3 ADD MSTORE POP JUMP JUMPDEST PUSH3 0x2BF DUP2 PUSH3 0x234 JUMP JUMPDEST DUP2 EQ PUSH3 0x2CB JUMPI PUSH1 0x0 DUP1 REVERT JUMPDEST POP JUMP JUMPDEST PUSH3 0x2D9 DUP2 PUSH3 0x268 JUMP JUMPDEST DUP2 EQ PUSH3 0x2E5 JUMPI PUSH1 0x0 DUP1 REVERT JUMPDEST POP JUMP JUMPDEST PUSH2 0x10AC DUP1 PUSH3 0x2F8 PUSH1 0x0 CODECOPY PUSH1 0x0 RETURN INVALID PUSH1 0x80 PUSH1 0x40 MSTORE CALLVALUE DUP1 ISZERO PUSH2 0x10 JUMPI PUSH1 0x0 DUP1 REVERT JUMPDEST POP PUSH1 0x4 CALLDATASIZE LT PUSH2 0x7D JUMPI PUSH1 0x0 CALLDATALOAD PUSH1 0xE0 SHR DUP1 PUSH4 0xAC446002 GT PUSH2 0x5B JUMPI DUP1 PUSH4 0xAC446002 EQ PUSH2 0xEF JUMPI DUP1 PUSH4 0xBC134AE3 EQ PUSH2 0xF9 JUMPI DUP1 PUSH4 0xCBC20F30 EQ PUSH2 0x129 JUMPI DUP1 PUSH4 0xF984EAD8 EQ PUSH2 0x145 JUMPI PUSH2 0x7D JUMP JUMPDEST DUP1 PUSH4 0x317549F2 EQ PUSH2 0x82 JUMPI DUP1 PUSH4 0x89F78C8E EQ PUSH2 0xB3 JUMPI DUP1 PUSH4 0x9DC61D4F EQ PUSH2 0xD1 JUMPI JUMPDEST PUSH1 0x0 DUP1 REVERT JUMPDEST PUSH2 0x9C PUSH1 0x4 DUP1 CALLDATASIZE SUB DUP2 ADD SWAP1 PUSH2 0x97 SWAP2 SWAP1 PUSH2 0x9F0 JUMP JUMPDEST PUSH2 0x163 JUMP JUMPDEST PUSH1 0x40 MLOAD PUSH2 0xAA SWAP3 SWAP2 SWAP1 PUSH2 0xD5F JUMP JUMPDEST PUSH1 0x40 MLOAD DUP1 SWAP2 SUB SWAP1 RETURN JUMPDEST PUSH2 0xBB PUSH2 0x46A JUMP JUMPDEST PUSH1 0x40 MLOAD PUSH2 0xC8 SWAP2 SWAP1 PUSH2 0xD1B JUMP JUMPDEST PUSH1 0x40 MLOAD DUP1 SWAP2 SUB SWAP1 RETURN JUMPDEST PUSH2 0xD9 PUSH2 0x470 JUMP JUMPDEST PUSH1 0x40 MLOAD PUSH2 0xE6 SWAP2 SWAP1 PUSH2 0xBCE JUMP JUMPDEST PUSH1 0x40 MLOAD DUP1 SWAP2 SUB SWAP1 RETURN JUMPDEST PUSH2 0xF7 PUSH2 0x494 JUMP JUMPDEST STOP JUMPDEST PUSH2 0x113 PUSH1 0x4 DUP1 CALLDATASIZE SUB DUP2 ADD SWAP1 PUSH2 0x10E SWAP2 SWAP1 PUSH2 0xA4A JUMP JUMPDEST PUSH2 0x567 JUMP JUMPDEST PUSH1 0x40 MLOAD PUSH2 0x120 SWAP2 SWAP1 PUSH2 0xBE9 JUMP JUMPDEST PUSH1 0x40 MLOAD DUP1 SWAP2 SUB SWAP1 RETURN JUMPDEST PUSH2 0x143 PUSH1 0x4 DUP1 CALLDATASIZE SUB DUP2 ADD SWAP1 PUSH2 0x13E SWAP2 SWAP1 PUSH2 0xA1D JUMP JUMPDEST PUSH2 0x770 JUMP JUMPDEST STOP JUMPDEST PUSH2 0x14D PUSH2 0x97D JUMP JUMPDEST PUSH1 0x40 MLOAD PUSH2 0x15A SWAP2 SWAP1 PUSH2 0xC04 JUMP JUMPDEST PUSH1 0x40 MLOAD DUP1 SWAP2 SUB SWAP1 RETURN JUMPDEST PUSH1 0x0 DUP1 PUSH1 0x0 DUP1 SLOAD SWAP1 PUSH2 0x100 EXP SWAP1 DIV PUSH20 0xFFFFFFFFFFFFFFFFFFFFFFFFFFFFFFFFFFFFFFFF AND PUSH20 0xFFFFFFFFFFFFFFFFFFFFFFFFFFFFFFFFFFFFFFFF AND CALLER PUSH20 0xFFFFFFFFFFFFFFFFFFFFFFFFFFFFFFFFFFFFFFFF AND EQ PUSH2 0x1F4 JUMPI PUSH1 0x40 MLOAD PUSH32 0x8C379A000000000000000000000000000000000000000000000000000000000 DUP2 MSTORE PUSH1 0x4 ADD PUSH2 0x1EB SWAP1 PUSH2 0xC1F JUMP JUMPDEST PUSH1 0x40 MLOAD DUP1 SWAP2 SUB SWAP1 REVERT JUMPDEST PUSH1 0x3 SLOAD PUSH1 0x1 DUP1 SLOAD SWAP1 POP LT DUP1 PUSH2 0x20F JUMPI POP PUSH1 0x0 PUSH1 0x2 DUP1 SLOAD SWAP1 POP EQ ISZERO JUMPDEST PUSH2 0x24E JUMPI PUSH1 0x40 MLOAD PUSH32 0x8C379A000000000000000000000000000000000000000000000000000000000 DUP2 MSTORE PUSH1 0x4 ADD PUSH2 0x245 SWAP1 PUSH2 0xC5F JUMP JUMPDEST PUSH1 0x40 MLOAD DUP1 SWAP2 SUB SWAP1 REVERT JUMPDEST PUSH1 0x0 PUSH1 0x2 DUP1 SLOAD SWAP1 POP EQ PUSH2 0x37A JUMPI PUSH1 0x0 PUSH1 0x2 PUSH2 0x278 PUSH1 0x1 PUSH1 0x2 DUP1 SLOAD SWAP1 POP PUSH2 0x9A3 SWAP1 SWAP2 SWAP1 PUSH4 0xFFFFFFFF AND JUMP JUMPDEST DUP2 SLOAD DUP2 LT PUSH2 0x289 JUMPI PUSH2 0x288 PUSH2 0xEA9 JUMP JUMPDEST JUMPDEST SWAP1 PUSH1 0x0 MSTORE PUSH1 0x20 PUSH1 0x0 KECCAK256 ADD SLOAD SWAP1 POP DUP4 PUSH1 0x1 DUP3 DUP2 SLOAD DUP2 LT PUSH2 0x2AB JUMPI PUSH2 0x2AA PUSH2 0xEA9 JUMP JUMPDEST JUMPDEST SWAP1 PUSH1 0x0 MSTORE PUSH1 0x20 PUSH1 0x0 KECCAK256 ADD PUSH1 0x0 PUSH2 0x100 EXP DUP2 SLOAD DUP2 PUSH20 0xFFFFFFFFFFFFFFFFFFFFFFFFFFFFFFFFFFFFFFFF MUL NOT AND SWAP1 DUP4 PUSH20 0xFFFFFFFFFFFFFFFFFFFFFFFFFFFFFFFFFFFFFFFF AND MUL OR SWAP1 SSTORE POP PUSH1 0x2 DUP1 SLOAD DUP1 PUSH2 0x305 JUMPI PUSH2 0x304 PUSH2 0xE7A JUMP JUMPDEST JUMPDEST PUSH1 0x1 SWAP1 SUB DUP2 DUP2 SWAP1 PUSH1 0x0 MSTORE PUSH1 0x20 PUSH1 0x0 KECCAK256 ADD PUSH1 0x0 SWAP1 SSTORE SWAP1 SSTORE PUSH32 0x2CCE1494B4EF3C5682648D5C4BBF147548F403FC2AC218E41EC797BABDB0ACB5 DUP5 DUP3 PUSH1 0x40 MLOAD PUSH2 0x34C SWAP3 SWAP2 SWAP1 PUSH2 0xCBF JUMP JUMPDEST PUSH1 0x40 MLOAD DUP1 SWAP2 SUB SWAP1 LOG1 DUP1 PUSH1 0x3 SLOAD PUSH1 0x1 DUP1 SLOAD SWAP1 POP LT DUP1 PUSH2 0x370 JUMPI POP PUSH1 0x0 PUSH1 0x2 DUP1 SLOAD SWAP1 POP EQ ISZERO JUMPDEST SWAP3 POP SWAP3 POP POP PUSH2 0x465 JUMP JUMPDEST PUSH1 0x1 DUP4 SWAP1 DUP1 PUSH1 0x1 DUP2 SLOAD ADD DUP1 DUP3 SSTORE DUP1 SWAP2 POP POP PUSH1 0x1 SWAP1 SUB SWAP1 PUSH1 0x0 MSTORE PUSH1 0x20 PUSH1 0x0 KECCAK256 ADD PUSH1 0x0 SWAP1 SWAP2 SWAP1 SWAP2 SWAP1 SWAP2 PUSH2 0x100 EXP DUP2 SLOAD DUP2 PUSH20 0xFFFFFFFFFFFFFFFFFFFFFFFFFFFFFFFFFFFFFFFF MUL NOT AND SWAP1 DUP4 PUSH20 0xFFFFFFFFFFFFFFFFFFFFFFFFFFFFFFFFFFFFFFFF AND MUL OR SWAP1 SSTORE POP PUSH32 0x2CCE1494B4EF3C5682648D5C4BBF147548F403FC2AC218E41EC797BABDB0ACB5 DUP4 PUSH2 0x417 PUSH1 0x1 DUP1 DUP1 SLOAD SWAP1 POP PUSH2 0x9A3 SWAP1 SWAP2 SWAP1 PUSH4 0xFFFFFFFF AND JUMP JUMPDEST PUSH1 0x40 MLOAD PUSH2 0x425 SWAP3 SWAP2 SWAP1 PUSH2 0xCBF JUMP JUMPDEST PUSH1 0x40 MLOAD DUP1 SWAP2 SUB SWAP1 LOG1 PUSH2 0x445 PUSH1 0x1 DUP1 DUP1 SLOAD SWAP1 POP PUSH2 0x9A3 SWAP1 SWAP2 SWAP1 PUSH4 0xFFFFFFFF AND JUMP JUMPDEST PUSH1 0x3 SLOAD PUSH1 0x1 DUP1 SLOAD SWAP1 POP LT DUP1 PUSH2 0x460 JUMPI POP PUSH1 0x0 PUSH1 0x2 DUP1 SLOAD SWAP1 POP EQ ISZERO JUMPDEST SWAP2 POP SWAP2 POP JUMPDEST SWAP2 POP SWAP2 JUMP JUMPDEST PUSH1 0x3 SLOAD DUP2 JUMP JUMPDEST PUSH1 0x0 DUP1 SLOAD SWAP1 PUSH2 0x100 EXP SWAP1 DIV PUSH20 0xFFFFFFFFFFFFFFFFFFFFFFFFFFFFFFFFFFFFFFFF AND DUP2 JUMP JUMPDEST PUSH1 0x0 PUSH1 0x5 PUSH1 0x0 CALLER PUSH20 0xFFFFFFFFFFFFFFFFFFFFFFFFFFFFFFFFFFFFFFFF AND PUSH20 0xFFFFFFFFFFFFFFFFFFFFFFFFFFFFFFFFFFFFFFFF AND DUP2 MSTORE PUSH1 0x20 ADD SWAP1 DUP2 MSTORE PUSH1 0x20 ADD PUSH1 0x0 KECCAK256 SLOAD SWAP1 POP PUSH1 0x0 PUSH1 0x5 PUSH1 0x0 CALLER PUSH20 0xFFFFFFFFFFFFFFFFFFFFFFFFFFFFFFFFFFFFFFFF AND PUSH20 0xFFFFFFFFFFFFFFFFFFFFFFFFFFFFFFFFFFFFFFFF AND DUP2 MSTORE PUSH1 0x20 ADD SWAP1 DUP2 MSTORE PUSH1 0x20 ADD PUSH1 0x0 KECCAK256 DUP2 SWAP1 SSTORE POP CALLER PUSH20 0xFFFFFFFFFFFFFFFFFFFFFFFFFFFFFFFFFFFFFFFF AND PUSH2 0x8FC DUP3 SWAP1 DUP2 ISZERO MUL SWAP1 PUSH1 0x40 MLOAD PUSH1 0x0 PUSH1 0x40 MLOAD DUP1 DUP4 SUB DUP2 DUP6 DUP9 DUP9 CALL SWAP4 POP POP POP POP ISZERO DUP1 ISZERO PUSH2 0x563 JUMPI RETURNDATASIZE PUSH1 0x0 DUP1 RETURNDATACOPY RETURNDATASIZE PUSH1 0x0 REVERT JUMPDEST POP POP JUMP JUMPDEST PUSH1 0x0 DUP4 PUSH1 0x1 DUP1 SLOAD SWAP1 POP DUP2 LT PUSH2 0x57B JUMPI PUSH1 0x0 DUP1 REVERT JUMPDEST PUSH1 0x0 PUSH20 0xFFFFFFFFFFFFFFFFFFFFFFFFFFFFFFFFFFFFFFFF AND PUSH1 0x1 DUP3 DUP2 SLOAD DUP2 LT PUSH2 0x5A7 JUMPI PUSH2 0x5A6 PUSH2 0xEA9 JUMP JUMPDEST JUMPDEST SWAP1 PUSH1 0x0 MSTORE PUSH1 0x20 PUSH1 0x0 KECCAK256 ADD PUSH1 0x0 SWAP1 SLOAD SWAP1 PUSH2 0x100 EXP SWAP1 DIV PUSH20 0xFFFFFFFFFFFFFFFFFFFFFFFFFFFFFFFFFFFFFFFF AND PUSH20 0xFFFFFFFFFFFFFFFFFFFFFFFFFFFFFFFFFFFFFFFF AND EQ ISZERO PUSH2 0x629 JUMPI PUSH1 0x40 MLOAD PUSH32 0x8C379A000000000000000000000000000000000000000000000000000000000 DUP2 MSTORE PUSH1 0x4 ADD PUSH2 0x620 SWAP1 PUSH2 0xCFB JUMP JUMPDEST PUSH1 0x40 MLOAD DUP1 SWAP2 SUB SWAP1 REVERT JUMPDEST PUSH1 0x1 DUP2 DUP2 SLOAD DUP2 LT PUSH2 0x63D JUMPI PUSH2 0x63C PUSH2 0xEA9 JUMP JUMPDEST JUMPDEST SWAP1 PUSH1 0x0 MSTORE PUSH1 0x20 PUSH1 0x0 KECCAK256 ADD PUSH1 0x0 SWAP1 SLOAD SWAP1 PUSH2 0x100 EXP SWAP1 DIV PUSH20 0xFFFFFFFFFFFFFFFFFFFFFFFFFFFFFFFFFFFFFFFF AND PUSH20 0xFFFFFFFFFFFFFFFFFFFFFFFFFFFFFFFFFFFFFFFF AND CALLER PUSH20 0xFFFFFFFFFFFFFFFFFFFFFFFFFFFFFFFFFFFFFFFF AND EQ PUSH2 0x6D5 JUMPI PUSH1 0x40 MLOAD PUSH32 0x8C379A000000000000000000000000000000000000000000000000000000000 DUP2 MSTORE PUSH1 0x4 ADD PUSH2 0x6CC SWAP1 PUSH2 0xC7F JUMP JUMPDEST PUSH1 0x40 MLOAD DUP1 SWAP2 SUB SWAP1 REVERT JUMPDEST PUSH1 0x4 PUSH1 0x0 SWAP1 SLOAD SWAP1 PUSH2 0x100 EXP SWAP1 DIV PUSH20 0xFFFFFFFFFFFFFFFFFFFFFFFFFFFFFFFFFFFFFFFF AND PUSH20 0xFFFFFFFFFFFFFFFFFFFFFFFFFFFFFFFFFFFFFFFF AND PUSH4 0x3607999B DUP5 DUP7 PUSH1 0x40 MLOAD DUP4 PUSH4 0xFFFFFFFF AND PUSH1 0xE0 SHL DUP2 MSTORE PUSH1 0x4 ADD PUSH2 0x732 SWAP3 SWAP2 SWAP1 PUSH2 0xD36 JUMP JUMPDEST PUSH1 0x0 PUSH1 0x40 MLOAD DUP1 DUP4 SUB DUP2 PUSH1 0x0 DUP8 DUP1 EXTCODESIZE ISZERO DUP1 ISZERO PUSH2 0x74C JUMPI PUSH1 0x0 DUP1 REVERT JUMPDEST POP GAS CALL ISZERO DUP1 ISZERO PUSH2 0x760 JUMPI RETURNDATASIZE PUSH1 0x0 DUP1 RETURNDATACOPY RETURNDATASIZE PUSH1 0x0 REVERT JUMPDEST POP POP POP POP PUSH1 0x1 SWAP2 POP POP SWAP4 SWAP3 POP POP POP JUMP JUMPDEST PUSH1 0x0 DUP1 SLOAD SWAP1 PUSH2 0x100 EXP SWAP1 DIV PUSH20 0xFFFFFFFFFFFFFFFFFFFFFFFFFFFFFFFFFFFFFFFF AND PUSH20 0xFFFFFFFFFFFFFFFFFFFFFFFFFFFFFFFFFFFFFFFF AND CALLER PUSH20 0xFFFFFFFFFFFFFFFFFFFFFFFFFFFFFFFFFFFFFFFF AND EQ PUSH2 0x7FE JUMPI PUSH1 0x40 MLOAD PUSH32 0x8C379A000000000000000000000000000000000000000000000000000000000 DUP2 MSTORE PUSH1 0x4 ADD PUSH2 0x7F5 SWAP1 PUSH2 0xC1F JUMP JUMPDEST PUSH1 0x40 MLOAD DUP1 SWAP2 SUB SWAP1 REVERT JUMPDEST PUSH1 0x1 DUP1 SLOAD SWAP1 POP DUP2 LT PUSH2 0x845 JUMPI PUSH1 0x40 MLOAD PUSH32 0x8C379A000000000000000000000000000000000000000000000000000000000 DUP2 MSTORE PUSH1 0x4 ADD PUSH2 0x83C SWAP1 PUSH2 0xC9F JUMP JUMPDEST PUSH1 0x40 MLOAD DUP1 SWAP2 SUB SWAP1 REVERT JUMPDEST PUSH1 0x0 PUSH20 0xFFFFFFFFFFFFFFFFFFFFFFFFFFFFFFFFFFFFFFFF AND PUSH1 0x1 DUP3 DUP2 SLOAD DUP2 LT PUSH2 0x871 JUMPI PUSH2 0x870 PUSH2 0xEA9 JUMP JUMPDEST JUMPDEST SWAP1 PUSH1 0x0 MSTORE PUSH1 0x20 PUSH1 0x0 KECCAK256 ADD PUSH1 0x0 SWAP1 SLOAD SWAP1 PUSH2 0x100 EXP SWAP1 DIV PUSH20 0xFFFFFFFFFFFFFFFFFFFFFFFFFFFFFFFFFFFFFFFF AND PUSH20 0xFFFFFFFFFFFFFFFFFFFFFFFFFFFFFFFFFFFFFFFF AND EQ ISZERO PUSH2 0x8F3 JUMPI PUSH1 0x40 MLOAD PUSH32 0x8C379A000000000000000000000000000000000000000000000000000000000 DUP2 MSTORE PUSH1 0x4 ADD PUSH2 0x8EA SWAP1 PUSH2 0xC3F JUMP JUMPDEST PUSH1 0x40 MLOAD DUP1 SWAP2 SUB SWAP1 REVERT JUMPDEST PUSH1 0x0 PUSH1 0x1 DUP3 DUP2 SLOAD DUP2 LT PUSH2 0x909 JUMPI PUSH2 0x908 PUSH2 0xEA9 JUMP JUMPDEST JUMPDEST SWAP1 PUSH1 0x0 MSTORE PUSH1 0x20 PUSH1 0x0 KECCAK256 ADD PUSH1 0x0 PUSH2 0x100 EXP DUP2 SLOAD DUP2 PUSH20 0xFFFFFFFFFFFFFFFFFFFFFFFFFFFFFFFFFFFFFFFF MUL NOT AND SWAP1 DUP4 PUSH20 0xFFFFFFFFFFFFFFFFFFFFFFFFFFFFFFFFFFFFFFFF AND MUL OR SWAP1 SSTORE POP PUSH1 0x2 DUP2 SWAP1 DUP1 PUSH1 0x1 DUP2 SLOAD ADD DUP1 DUP3 SSTORE DUP1 SWAP2 POP POP PUSH1 0x1 SWAP1 SUB SWAP1 PUSH1 0x0 MSTORE PUSH1 0x20 PUSH1 0x0 KECCAK256 ADD PUSH1 0x0 SWAP1 SWAP2 SWAP1 SWAP2 SWAP1 SWAP2 POP SSTORE POP JUMP JUMPDEST PUSH1 0x4 PUSH1 0x0 SWAP1 SLOAD SWAP1 PUSH2 0x100 EXP SWAP1 DIV PUSH20 0xFFFFFFFFFFFFFFFFFFFFFFFFFFFFFFFFFFFFFFFF AND DUP2 JUMP JUMPDEST PUSH1 0x0 DUP3 DUP3 GT ISZERO PUSH2 0x9B2 JUMPI PUSH1 0x0 DUP1 REVERT JUMPDEST DUP2 DUP4 PUSH2 0x9BE SWAP2 SWAP1 PUSH2 0xD99 JUMP JUMPDEST SWAP1 POP SWAP3 SWAP2 POP POP JUMP JUMPDEST PUSH1 0x0 DUP2 CALLDATALOAD SWAP1 POP PUSH2 0x9D5 DUP2 PUSH2 0x1048 JUMP JUMPDEST SWAP3 SWAP2 POP POP JUMP JUMPDEST PUSH1 0x0 DUP2 CALLDATALOAD SWAP1 POP PUSH2 0x9EA DUP2 PUSH2 0x105F JUMP JUMPDEST SWAP3 SWAP2 POP POP JUMP JUMPDEST PUSH1 0x0 PUSH1 0x20 DUP3 DUP5 SUB SLT ISZERO PUSH2 0xA06 JUMPI PUSH2 0xA05 PUSH2 0xED8 JUMP JUMPDEST JUMPDEST PUSH1 0x0 PUSH2 0xA14 DUP5 DUP3 DUP6 ADD PUSH2 0x9C6 JUMP JUMPDEST SWAP2 POP POP SWAP3 SWAP2 POP POP JUMP JUMPDEST PUSH1 0x0 PUSH1 0x20 DUP3 DUP5 SUB SLT ISZERO PUSH2 0xA33 JUMPI PUSH2 0xA32 PUSH2 0xED8 JUMP JUMPDEST JUMPDEST PUSH1 0x0 PUSH2 0xA41 DUP5 DUP3 DUP6 ADD PUSH2 0x9DB JUMP JUMPDEST SWAP2 POP POP SWAP3 SWAP2 POP POP JUMP JUMPDEST PUSH1 0x0 DUP1 PUSH1 0x0 PUSH1 0x60 DUP5 DUP7 SUB SLT ISZERO PUSH2 0xA63 JUMPI PUSH2 0xA62 PUSH2 0xED8 JUMP JUMPDEST JUMPDEST PUSH1 0x0 PUSH2 0xA71 DUP7 DUP3 DUP8 ADD PUSH2 0x9DB JUMP JUMPDEST SWAP4 POP POP PUSH1 0x20 PUSH2 0xA82 DUP7 DUP3 DUP8 ADD PUSH2 0x9C6 JUMP JUMPDEST SWAP3 POP POP PUSH1 0x40 PUSH2 0xA93 DUP7 DUP3 DUP8 ADD PUSH2 0x9DB JUMP JUMPDEST SWAP2 POP POP SWAP3 POP SWAP3 POP SWAP3 JUMP JUMPDEST PUSH2 0xAA6 DUP2 PUSH2 0xDCD JUMP JUMPDEST DUP3 MSTORE POP POP JUMP JUMPDEST PUSH2 0xAB5 DUP2 PUSH2 0xDDF JUMP JUMPDEST DUP3 MSTORE POP POP JUMP JUMPDEST PUSH2 0xAC4 DUP2 PUSH2 0xE15 JUMP JUMPDEST DUP3 MSTORE POP POP JUMP JUMPDEST PUSH1 0x0 PUSH2 0xAD7 PUSH1 0x2D DUP4 PUSH2 0xD88 JUMP JUMPDEST SWAP2 POP PUSH2 0xAE2 DUP3 PUSH2 0xEDD JUMP JUMPDEST PUSH1 0x40 DUP3 ADD SWAP1 POP SWAP2 SWAP1 POP JUMP JUMPDEST PUSH1 0x0 PUSH2 0xAFA PUSH1 0x17 DUP4 PUSH2 0xD88 JUMP JUMPDEST SWAP2 POP PUSH2 0xB05 DUP3 PUSH2 0xF2C JUMP JUMPDEST PUSH1 0x20 DUP3 ADD SWAP1 POP SWAP2 SWAP1 POP JUMP JUMPDEST PUSH1 0x0 PUSH2 0xB1D PUSH1 0x12 DUP4 PUSH2 0xD88 JUMP JUMPDEST SWAP2 POP PUSH2 0xB28 DUP3 PUSH2 0xF55 JUMP JUMPDEST PUSH1 0x20 DUP3 ADD SWAP1 POP SWAP2 SWAP1 POP JUMP JUMPDEST PUSH1 0x0 PUSH2 0xB40 PUSH1 0x3F DUP4 PUSH2 0xD88 JUMP JUMPDEST SWAP2 POP PUSH2 0xB4B DUP3 PUSH2 0xF7E JUMP JUMPDEST PUSH1 0x40 DUP3 ADD SWAP1 POP SWAP2 SWAP1 POP JUMP JUMPDEST PUSH1 0x0 PUSH2 0xB63 PUSH1 0x11 DUP4 PUSH2 0xD88 JUMP JUMPDEST SWAP2 POP PUSH2 0xB6E DUP3 PUSH2 0xFCD JUMP JUMPDEST PUSH1 0x20 DUP3 ADD SWAP1 POP SWAP2 SWAP1 POP JUMP JUMPDEST PUSH1 0x0 PUSH2 0xB86 PUSH1 0x13 DUP4 PUSH2 0xD88 JUMP JUMPDEST SWAP2 POP PUSH2 0xB91 DUP3 PUSH2 0xFF6 JUMP JUMPDEST PUSH1 0x20 DUP3 ADD SWAP1 POP SWAP2 SWAP1 POP JUMP JUMPDEST PUSH1 0x0 PUSH2 0xBA9 PUSH1 0x10 DUP4 PUSH2 0xD88 JUMP JUMPDEST SWAP2 POP PUSH2 0xBB4 DUP3 PUSH2 0x101F JUMP JUMPDEST PUSH1 0x20 DUP3 ADD SWAP1 POP SWAP2 SWAP1 POP JUMP JUMPDEST PUSH2 0xBC8 DUP2 PUSH2 0xE0B JUMP JUMPDEST DUP3 MSTORE POP POP JUMP JUMPDEST PUSH1 0x0 PUSH1 0x20 DUP3 ADD SWAP1 POP PUSH2 0xBE3 PUSH1 0x0 DUP4 ADD DUP5 PUSH2 0xA9D JUMP JUMPDEST SWAP3 SWAP2 POP POP JUMP JUMPDEST PUSH1 0x0 PUSH1 0x20 DUP3 ADD SWAP1 POP PUSH2 0xBFE PUSH1 0x0 DUP4 ADD DUP5 PUSH2 0xAAC JUMP JUMPDEST SWAP3 SWAP2 POP POP JUMP JUMPDEST PUSH1 0x0 PUSH1 0x20 DUP3 ADD SWAP1 POP PUSH2 0xC19 PUSH1 0x0 DUP4 ADD DUP5 PUSH2 0xABB JUMP JUMPDEST SWAP3 SWAP2 POP POP JUMP JUMPDEST PUSH1 0x0 PUSH1 0x20 DUP3 ADD SWAP1 POP DUP2 DUP2 SUB PUSH1 0x0 DUP4 ADD MSTORE PUSH2 0xC38 DUP2 PUSH2 0xACA JUMP JUMPDEST SWAP1 POP SWAP2 SWAP1 POP JUMP JUMPDEST PUSH1 0x0 PUSH1 0x20 DUP3 ADD SWAP1 POP DUP2 DUP2 SUB PUSH1 0x0 DUP4 ADD MSTORE PUSH2 0xC58 DUP2 PUSH2 0xAED JUMP JUMPDEST SWAP1 POP SWAP2 SWAP1 POP JUMP JUMPDEST PUSH1 0x0 PUSH1 0x20 DUP3 ADD SWAP1 POP DUP2 DUP2 SUB PUSH1 0x0 DUP4 ADD MSTORE PUSH2 0xC78 DUP2 PUSH2 0xB10 JUMP JUMPDEST SWAP1 POP SWAP2 SWAP1 POP JUMP JUMPDEST PUSH1 0x0 PUSH1 0x20 DUP3 ADD SWAP1 POP DUP2 DUP2 SUB PUSH1 0x0 DUP4 ADD MSTORE PUSH2 0xC98 DUP2 PUSH2 0xB33 JUMP JUMPDEST SWAP1 POP SWAP2 SWAP1 POP JUMP JUMPDEST PUSH1 0x0 PUSH1 0x20 DUP3 ADD SWAP1 POP DUP2 DUP2 SUB PUSH1 0x0 DUP4 ADD MSTORE PUSH2 0xCB8 DUP2 PUSH2 0xB56 JUMP JUMPDEST SWAP1 POP SWAP2 SWAP1 POP JUMP JUMPDEST PUSH1 0x0 PUSH1 0x60 DUP3 ADD SWAP1 POP DUP2 DUP2 SUB PUSH1 0x0 DUP4 ADD MSTORE PUSH2 0xCD8 DUP2 PUSH2 0xB79 JUMP JUMPDEST SWAP1 POP PUSH2 0xCE7 PUSH1 0x20 DUP4 ADD DUP6 PUSH2 0xA9D JUMP JUMPDEST PUSH2 0xCF4 PUSH1 0x40 DUP4 ADD DUP5 PUSH2 0xBBF JUMP JUMPDEST SWAP4 SWAP3 POP POP POP JUMP JUMPDEST PUSH1 0x0 PUSH1 0x20 DUP3 ADD SWAP1 POP DUP2 DUP2 SUB PUSH1 0x0 DUP4 ADD MSTORE PUSH2 0xD14 DUP2 PUSH2 0xB9C JUMP JUMPDEST SWAP1 POP SWAP2 SWAP1 POP JUMP JUMPDEST PUSH1 0x0 PUSH1 0x20 DUP3 ADD SWAP1 POP PUSH2 0xD30 PUSH1 0x0 DUP4 ADD DUP5 PUSH2 0xBBF JUMP JUMPDEST SWAP3 SWAP2 POP POP JUMP JUMPDEST PUSH1 0x0 PUSH1 0x40 DUP3 ADD SWAP1 POP PUSH2 0xD4B PUSH1 0x0 DUP4 ADD DUP6 PUSH2 0xBBF JUMP JUMPDEST PUSH2 0xD58 PUSH1 0x20 DUP4 ADD DUP5 PUSH2 0xA9D JUMP JUMPDEST SWAP4 SWAP3 POP POP POP JUMP JUMPDEST PUSH1 0x0 PUSH1 0x40 DUP3 ADD SWAP1 POP PUSH2 0xD74 PUSH1 0x0 DUP4 ADD DUP6 PUSH2 0xBBF JUMP JUMPDEST PUSH2 0xD81 PUSH1 0x20 DUP4 ADD DUP5 PUSH2 0xAAC JUMP JUMPDEST SWAP4 SWAP3 POP POP POP JUMP JUMPDEST PUSH1 0x0 DUP3 DUP3 MSTORE PUSH1 0x20 DUP3 ADD SWAP1 POP SWAP3 SWAP2 POP POP JUMP JUMPDEST PUSH1 0x0 PUSH2 0xDA4 DUP3 PUSH2 0xE0B JUMP JUMPDEST SWAP2 POP PUSH2 0xDAF DUP4 PUSH2 0xE0B JUMP JUMPDEST SWAP3 POP DUP3 DUP3 LT ISZERO PUSH2 0xDC2 JUMPI PUSH2 0xDC1 PUSH2 0xE4B JUMP JUMPDEST JUMPDEST DUP3 DUP3 SUB SWAP1 POP SWAP3 SWAP2 POP POP JUMP JUMPDEST PUSH1 0x0 PUSH2 0xDD8 DUP3 PUSH2 0xDEB JUMP JUMPDEST SWAP1 POP SWAP2 SWAP1 POP JUMP JUMPDEST PUSH1 0x0 DUP2 ISZERO ISZERO SWAP1 POP SWAP2 SWAP1 POP JUMP JUMPDEST PUSH1 0x0 PUSH20 0xFFFFFFFFFFFFFFFFFFFFFFFFFFFFFFFFFFFFFFFF DUP3 AND SWAP1 POP SWAP2 SWAP1 POP JUMP JUMPDEST PUSH1 0x0 DUP2 SWAP1 POP SWAP2 SWAP1 POP JUMP JUMPDEST PUSH1 0x0 PUSH2 0xE20 DUP3 PUSH2 0xE27 JUMP JUMPDEST SWAP1 POP SWAP2 SWAP1 POP JUMP JUMPDEST PUSH1 0x0 PUSH2 0xE32 DUP3 PUSH2 0xE39 JUMP JUMPDEST SWAP1 POP SWAP2 SWAP1 POP JUMP JUMPDEST PUSH1 0x0 PUSH2 0xE44 DUP3 PUSH2 0xDEB JUMP JUMPDEST SWAP1 POP SWAP2 SWAP1 POP JUMP JUMPDEST PUSH32 0x4E487B7100000000000000000000000000000000000000000000000000000000 PUSH1 0x0 MSTORE PUSH1 0x11 PUSH1 0x4 MSTORE PUSH1 0x24 PUSH1 0x0 REVERT JUMPDEST PUSH32 0x4E487B7100000000000000000000000000000000000000000000000000000000 PUSH1 0x0 MSTORE PUSH1 0x31 PUSH1 0x4 MSTORE PUSH1 0x24 PUSH1 0x0 REVERT JUMPDEST PUSH32 0x4E487B7100000000000000000000000000000000000000000000000000000000 PUSH1 0x0 MSTORE PUSH1 0x32 PUSH1 0x4 MSTORE PUSH1 0x24 PUSH1 0x0 REVERT JUMPDEST PUSH1 0x0 DUP1 REVERT JUMPDEST PUSH32 0x4F6E6C79206372656174696E6720636F6E74726163742063616E2063616C6C20 PUSH1 0x0 DUP3 ADD MSTORE PUSH32 0x746869732066756E6374696F6E00000000000000000000000000000000000000 PUSH1 0x20 DUP3 ADD MSTORE POP JUMP JUMPDEST PUSH32 0x6163636F756E7420616C72656164792064656C65746564000000000000000000 PUSH1 0x0 DUP3 ADD MSTORE POP JUMP JUMPDEST PUSH32 0x5768697465206C6973742069732066756C6C0000000000000000000000000000 PUSH1 0x0 DUP3 ADD MSTORE POP JUMP JUMPDEST PUSH32 0x536D61727420636F6E7472616374206E6F7420616C6C6F77656420746F207769 PUSH1 0x0 DUP3 ADD MSTORE PUSH32 0x746864726177206D6F6E6579207468726F756768742074686973206761746500 PUSH1 0x20 DUP3 ADD MSTORE POP JUMP JUMPDEST PUSH32 0x546F6B656E206E6F742063726561746564000000000000000000000000000000 PUSH1 0x0 DUP3 ADD MSTORE POP JUMP JUMPDEST PUSH32 0x416464656420746F207768697465206C69737400000000000000000000000000 PUSH1 0x0 DUP3 ADD MSTORE POP JUMP JUMPDEST PUSH32 0x44656C6574656420436F6E747261637400000000000000000000000000000000 PUSH1 0x0 DUP3 ADD MSTORE POP JUMP JUMPDEST PUSH2 0x1051 DUP2 PUSH2 0xDCD JUMP JUMPDEST DUP2 EQ PUSH2 0x105C JUMPI PUSH1 0x0 DUP1 REVERT JUMPDEST POP JUMP JUMPDEST PUSH2 0x1068 DUP2 PUSH2 0xE0B JUMP JUMPDEST DUP2 EQ PUSH2 0x1073 JUMPI PUSH1 0x0 DUP1 REVERT JUMPDEST POP JUMP INVALID LOG2 PUSH5 0x6970667358 0x22 SLT KECCAK256 LOG1 DUP12 0xDB PUSH19 0xBF435B541A6B6E2C46055DFFBA7DFD1D3E1C3A 0x4B 0xBD 0xE6 0x2A DUP7 PUSH26 0x95FBB264736F6C63430008070033000000000000000000000000 "
				},
				"gasEstimates": {
					"creation": {
						"codeDepositCost": "853600",
						"executionCost": "infinite",
						"totalCost": "infinite"
					},
					"external": {
						"append2WhiteList(address)": "infinite",
						"deleteFromWhiteList(uint256)": "81972",
						"lending_pool()": "2666",
						"max_nuser()": "2452",
						"parent_contract()": "2556",
						"payDapp(uint256,address,uint256)": "infinite",
						"withdrawMoney()": "infinite"
					},
					"internal": {
						"informParent()": "infinite",
						"withdrawFromPool()": "infinite"
					}
				},
				"methodIdentifiers": {
					"append2WhiteList(address)": "317549f2",
					"deleteFromWhiteList(uint256)": "cbc20f30",
					"lending_pool()": "f984ead8",
					"max_nuser()": "89f78c8e",
					"parent_contract()": "9dc61d4f",
					"payDapp(uint256,address,uint256)": "bc134ae3",
					"withdrawMoney()": "ac446002"
				}
			},
			"userdoc": {
				"kind": "user",
				"methods": {
					"append2WhiteList(address)": {
						"notice": "Adds a new smart contract to a whitelist"
					},
					"deleteFromWhiteList(uint256)": {
						"notice": "Delete an account from the whitelist"
					},
					"payDapp(uint256,address,uint256)": {
						"notice": "Withdraws money from a lending pool and pays to a requested user"
					}
				},
				"notice": "Transfers money from lending pool to preffered address",
				"version": 1
			}
		}
	}
}