{
	"contracts/LendingPool.sol": {
		"LendingPool": {
			"abi": [
				{
					"inputs": [],
					"stateMutability": "nonpayable",
					"type": "constructor"
				},
				{
					"anonymous": false,
					"inputs": [
						{
							"indexed": false,
							"internalType": "string",
							"name": "message",
							"type": "string"
						},
						{
							"indexed": false,
							"internalType": "address",
							"name": "from",
							"type": "address"
						}
					],
					"name": "LendingPoolMessage",
					"type": "event"
				},
				{
					"stateMutability": "payable",
					"type": "fallback"
				},
				{
					"inputs": [
						{
							"internalType": "address",
							"name": "pool_address",
							"type": "address"
						}
					],
					"name": "addGate",
					"outputs": [],
					"stateMutability": "nonpayable",
					"type": "function"
				},
				{
					"inputs": [
						{
							"internalType": "address",
							"name": "",
							"type": "address"
						}
					],
					"name": "allowed_pools",
					"outputs": [
						{
							"internalType": "bool",
							"name": "",
							"type": "bool"
						}
					],
					"stateMutability": "view",
					"type": "function"
				},
				{
					"inputs": [],
					"name": "deposit",
					"outputs": [],
					"stateMutability": "payable",
					"type": "function"
				},
				{
					"inputs": [],
					"name": "depositWithdraw",
					"outputs": [],
					"stateMutability": "nonpayable",
					"type": "function"
				},
				{
					"inputs": [],
					"name": "editor",
					"outputs": [
						{
							"internalType": "address",
							"name": "",
							"type": "address"
						}
					],
					"stateMutability": "view",
					"type": "function"
				},
				{
					"inputs": [],
					"name": "gateWithdrawl",
					"outputs": [],
					"stateMutability": "nonpayable",
					"type": "function"
				},
				{
					"inputs": [
						{
							"internalType": "uint256",
							"name": "amount",
							"type": "uint256"
						},
						{
							"internalType": "address",
							"name": "to",
							"type": "address"
						}
					],
					"name": "lendingWithdraw",
					"outputs": [],
					"stateMutability": "payable",
					"type": "function"
				},
				{
					"inputs": [],
					"name": "minimumAmt",
					"outputs": [
						{
							"internalType": "uint256",
							"name": "",
							"type": "uint256"
						}
					],
					"stateMutability": "view",
					"type": "function"
				},
				{
					"inputs": [],
					"name": "owner",
					"outputs": [
						{
							"internalType": "address payable",
							"name": "",
							"type": "address"
						}
					],
					"stateMutability": "view",
					"type": "function"
				},
				{
					"inputs": [
						{
							"internalType": "address",
							"name": "",
							"type": "address"
						}
					],
					"name": "pendingPayment",
					"outputs": [
						{
							"internalType": "uint256",
							"name": "",
							"type": "uint256"
						}
					],
					"stateMutability": "view",
					"type": "function"
				},
				{
					"inputs": [
						{
							"internalType": "address",
							"name": "",
							"type": "address"
						}
					],
					"name": "stakedAmount",
					"outputs": [
						{
							"internalType": "uint256",
							"name": "",
							"type": "uint256"
						}
					],
					"stateMutability": "view",
					"type": "function"
				},
				{
					"inputs": [
						{
							"internalType": "address",
							"name": "",
							"type": "address"
						}
					],
					"name": "startTime",
					"outputs": [
						{
							"internalType": "uint256",
							"name": "",
							"type": "uint256"
						}
					],
					"stateMutability": "view",
					"type": "function"
				},
				{
					"inputs": [
						{
							"internalType": "address",
							"name": "new_editor",
							"type": "address"
						}
					],
					"name": "updateEditor",
					"outputs": [],
					"stateMutability": "nonpayable",
					"type": "function"
				},
				{
					"stateMutability": "payable",
					"type": "receive"
				}
			],
			"devdoc": {
				"author": "Hileamlak Yitayew, Matt Tengtrakool",
				"details": "need help review ",
				"kind": "dev",
				"methods": {},
				"title": "LendingPool ",
				"version": 1
			},
			"evm": {
				"assembly": "    /* \"contracts/LendingPool.sol\":219:3576  contract LendingPool  {... */\n  mstore(0x40, 0x80)\n    /* \"contracts/LendingPool.sol\":309:316  1 ether */\n  0x0de0b6b3a7640000\n    /* \"contracts/LendingPool.sol\":281:316  uint256 public minimumAmt = 1 ether */\n  0x00\n  sstore\n    /* \"contracts/LendingPool.sol\":748:875  constructor() {... */\n  callvalue\n  dup1\n  iszero\n  tag_1\n  jumpi\n  0x00\n  dup1\n  revert\ntag_1:\n  pop\n    /* \"contracts/LendingPool.sol\":788:798  msg.sender */\n  caller\n    /* \"contracts/LendingPool.sol\":772:777  owner */\n  0x01\n  0x00\n    /* \"contracts/LendingPool.sol\":772:799  owner = payable(msg.sender) */\n  0x0100\n  exp\n  dup2\n  sload\n  dup2\n  0xffffffffffffffffffffffffffffffffffffffff\n  mul\n  not\n  and\n  swap1\n  dup4\n  0xffffffffffffffffffffffffffffffffffffffff\n  and\n  mul\n  or\n  swap1\n  sstore\n  pop\n    /* \"contracts/LendingPool.sol\":814:868  LendingPoolMessage(\"Lending pool created\", msg.sender) */\n  0xf67e7992d539193fc243c42fe89f8fab49013e8e4fb18cfa891dc51adcaccc80\n    /* \"contracts/LendingPool.sol\":857:867  msg.sender */\n  caller\n    /* \"contracts/LendingPool.sol\":814:868  LendingPoolMessage(\"Lending pool created\", msg.sender) */\n  mload(0x40)\n  tag_4\n  swap2\n  swap1\n  tag_5\n  jump\t// in\ntag_4:\n  mload(0x40)\n  dup1\n  swap2\n  sub\n  swap1\n  log1\n    /* \"contracts/LendingPool.sol\":219:3576  contract LendingPool  {... */\n  jump(tag_6)\n    /* \"#utility.yul\":7:125   */\ntag_8:\n    /* \"#utility.yul\":94:118   */\n  tag_10\n    /* \"#utility.yul\":112:117   */\n  dup2\n    /* \"#utility.yul\":94:118   */\n  tag_11\n  jump\t// in\ntag_10:\n    /* \"#utility.yul\":89:92   */\n  dup3\n    /* \"#utility.yul\":82:119   */\n  mstore\n    /* \"#utility.yul\":7:125   */\n  pop\n  pop\n  jump\t// out\n    /* \"#utility.yul\":131:497   */\ntag_12:\n    /* \"#utility.yul\":273:276   */\n  0x00\n    /* \"#utility.yul\":294:361   */\n  tag_14\n    /* \"#utility.yul\":358:360   */\n  0x14\n    /* \"#utility.yul\":353:356   */\n  dup4\n    /* \"#utility.yul\":294:361   */\n  tag_15\n  jump\t// in\ntag_14:\n    /* \"#utility.yul\":287:361   */\n  swap2\n  pop\n    /* \"#utility.yul\":370:463   */\n  tag_16\n    /* \"#utility.yul\":459:462   */\n  dup3\n    /* \"#utility.yul\":370:463   */\n  tag_17\n  jump\t// in\ntag_16:\n    /* \"#utility.yul\":488:490   */\n  0x20\n    /* \"#utility.yul\":483:486   */\n  dup3\n    /* \"#utility.yul\":479:491   */\n  add\n    /* \"#utility.yul\":472:491   */\n  swap1\n  pop\n    /* \"#utility.yul\":131:497   */\n  swap2\n  swap1\n  pop\n  jump\t// out\n    /* \"#utility.yul\":503:1032   */\ntag_5:\n    /* \"#utility.yul\":697:701   */\n  0x00\n    /* \"#utility.yul\":735:737   */\n  0x40\n    /* \"#utility.yul\":724:733   */\n  dup3\n    /* \"#utility.yul\":720:738   */\n  add\n    /* \"#utility.yul\":712:738   */\n  swap1\n  pop\n    /* \"#utility.yul\":784:793   */\n  dup2\n    /* \"#utility.yul\":778:782   */\n  dup2\n    /* \"#utility.yul\":774:794   */\n  sub\n    /* \"#utility.yul\":770:771   */\n  0x00\n    /* \"#utility.yul\":759:768   */\n  dup4\n    /* \"#utility.yul\":755:772   */\n  add\n    /* \"#utility.yul\":748:795   */\n  mstore\n    /* \"#utility.yul\":812:943   */\n  tag_19\n    /* \"#utility.yul\":938:942   */\n  dup2\n    /* \"#utility.yul\":812:943   */\n  tag_12\n  jump\t// in\ntag_19:\n    /* \"#utility.yul\":804:943   */\n  swap1\n  pop\n    /* \"#utility.yul\":953:1025   */\n  tag_20\n    /* \"#utility.yul\":1021:1023   */\n  0x20\n    /* \"#utility.yul\":1010:1019   */\n  dup4\n    /* \"#utility.yul\":1006:1024   */\n  add\n    /* \"#utility.yul\":997:1003   */\n  dup5\n    /* \"#utility.yul\":953:1025   */\n  tag_8\n  jump\t// in\ntag_20:\n    /* \"#utility.yul\":503:1032   */\n  swap3\n  swap2\n  pop\n  pop\n  jump\t// out\n    /* \"#utility.yul\":1038:1207   */\ntag_15:\n    /* \"#utility.yul\":1122:1133   */\n  0x00\n    /* \"#utility.yul\":1156:1162   */\n  dup3\n    /* \"#utility.yul\":1151:1154   */\n  dup3\n    /* \"#utility.yul\":1144:1163   */\n  mstore\n    /* \"#utility.yul\":1196:1200   */\n  0x20\n    /* \"#utility.yul\":1191:1194   */\n  dup3\n    /* \"#utility.yul\":1187:1201   */\n  add\n    /* \"#utility.yul\":1172:1201   */\n  swap1\n  pop\n    /* \"#utility.yul\":1038:1207   */\n  swap3\n  swap2\n  pop\n  pop\n  jump\t// out\n    /* \"#utility.yul\":1213:1309   */\ntag_11:\n    /* \"#utility.yul\":1250:1257   */\n  0x00\n    /* \"#utility.yul\":1279:1303   */\n  tag_23\n    /* \"#utility.yul\":1297:1302   */\n  dup3\n    /* \"#utility.yul\":1279:1303   */\n  tag_24\n  jump\t// in\ntag_23:\n    /* \"#utility.yul\":1268:1303   */\n  swap1\n  pop\n    /* \"#utility.yul\":1213:1309   */\n  swap2\n  swap1\n  pop\n  jump\t// out\n    /* \"#utility.yul\":1315:1441   */\ntag_24:\n    /* \"#utility.yul\":1352:1359   */\n  0x00\n    /* \"#utility.yul\":1392:1434   */\n  0xffffffffffffffffffffffffffffffffffffffff\n    /* \"#utility.yul\":1385:1390   */\n  dup3\n    /* \"#utility.yul\":1381:1435   */\n  and\n    /* \"#utility.yul\":1370:1435   */\n  swap1\n  pop\n    /* \"#utility.yul\":1315:1441   */\n  swap2\n  swap1\n  pop\n  jump\t// out\n    /* \"#utility.yul\":1447:1617   */\ntag_17:\n    /* \"#utility.yul\":1587:1609   */\n  0x4c656e64696e6720706f6f6c2063726561746564000000000000000000000000\n    /* \"#utility.yul\":1583:1584   */\n  0x00\n    /* \"#utility.yul\":1575:1581   */\n  dup3\n    /* \"#utility.yul\":1571:1585   */\n  add\n    /* \"#utility.yul\":1564:1610   */\n  mstore\n    /* \"#utility.yul\":1447:1617   */\n  pop\n  jump\t// out\n    /* \"contracts/LendingPool.sol\":219:3576  contract LendingPool  {... */\ntag_6:\n  dataSize(sub_0)\n  dup1\n  dataOffset(sub_0)\n  0x00\n  codecopy\n  0x00\n  return\nstop\n\nsub_0: assembly {\n        /* \"contracts/LendingPool.sol\":219:3576  contract LendingPool  {... */\n      mstore(0x40, 0x80)\n      jumpi(tag_1, lt(calldatasize, 0x04))\n      shr(0xe0, calldataload(0x00))\n      dup1\n      0x6e1dc66e\n      gt\n      tag_16\n      jumpi\n      dup1\n      0xaeae177c\n      gt\n      tag_17\n      jumpi\n      dup1\n      0xaeae177c\n      eq\n      tag_12\n      jumpi\n      dup1\n      0xc02b2092\n      eq\n      tag_13\n      jumpi\n      dup1\n      0xd0e30db0\n      eq\n      tag_14\n      jumpi\n      dup1\n      0xf9931855\n      eq\n      tag_15\n      jumpi\n      jump(tag_2)\n    tag_17:\n      dup1\n      0x6e1dc66e\n      eq\n      tag_9\n      jumpi\n      dup1\n      0x8da5cb5b\n      eq\n      tag_10\n      jumpi\n      dup1\n      0xa464d265\n      eq\n      tag_11\n      jumpi\n      jump(tag_2)\n    tag_16:\n      dup1\n      0x166d7b48\n      eq\n      tag_3\n      jumpi\n      dup1\n      0x1e23271d\n      eq\n      tag_4\n      jumpi\n      dup1\n      0x3607999b\n      eq\n      tag_5\n      jumpi\n      dup1\n      0x56852391\n      eq\n      tag_6\n      jumpi\n      dup1\n      0x650fad76\n      eq\n      tag_7\n      jumpi\n      dup1\n      0x6e0e0da2\n      eq\n      tag_8\n      jumpi\n      jump(tag_2)\n    tag_1:\n      jumpi(tag_2, calldatasize)\n      stop\n    tag_2:\n      stop\n        /* \"contracts/LendingPool.sol\":1274:1435  function updateEditor(address new_editor) public onlyOwner{... */\n    tag_3:\n      callvalue\n      dup1\n      iszero\n      tag_22\n      jumpi\n      0x00\n      dup1\n      revert\n    tag_22:\n      pop\n      tag_23\n      0x04\n      dup1\n      calldatasize\n      sub\n      dup2\n      add\n      swap1\n      tag_24\n      swap2\n      swap1\n      tag_25\n      jump\t// in\n    tag_24:\n      tag_26\n      jump\t// in\n    tag_23:\n      stop\n        /* \"contracts/LendingPool.sol\":1441:1614  function addGate (address pool_address) public onlyEditor{... */\n    tag_4:\n      callvalue\n      dup1\n      iszero\n      tag_27\n      jumpi\n      0x00\n      dup1\n      revert\n    tag_27:\n      pop\n      tag_28\n      0x04\n      dup1\n      calldatasize\n      sub\n      dup2\n      add\n      swap1\n      tag_29\n      swap2\n      swap1\n      tag_25\n      jump\t// in\n    tag_29:\n      tag_30\n      jump\t// in\n    tag_28:\n      stop\n        /* \"contracts/LendingPool.sol\":2087:2448  function lendingWithdraw(uint256 amount, address to) public payable onlyAllowedGate {... */\n    tag_5:\n      tag_31\n      0x04\n      dup1\n      calldatasize\n      sub\n      dup2\n      add\n      swap1\n      tag_32\n      swap2\n      swap1\n      tag_33\n      jump\t// in\n    tag_32:\n      tag_34\n      jump\t// in\n    tag_31:\n      stop\n        /* \"contracts/LendingPool.sol\":3222:3494  function gateWithdrawl() public {... */\n    tag_6:\n      callvalue\n      dup1\n      iszero\n      tag_35\n      jumpi\n      0x00\n      dup1\n      revert\n    tag_35:\n      pop\n      tag_36\n      tag_37\n      jump\t// in\n    tag_36:\n      stop\n        /* \"contracts/LendingPool.sol\":281:316  uint256 public minimumAmt = 1 ether */\n    tag_7:\n      callvalue\n      dup1\n      iszero\n      tag_38\n      jumpi\n      0x00\n      dup1\n      revert\n    tag_38:\n      pop\n      tag_39\n      tag_40\n      jump\t// in\n    tag_39:\n      mload(0x40)\n      tag_41\n      swap2\n      swap1\n      tag_42\n      jump\t// in\n    tag_41:\n      mload(0x40)\n      dup1\n      swap2\n      sub\n      swap1\n      return\n        /* \"contracts/LendingPool.sol\":2522:3146  function depositWithdraw() public{... */\n    tag_8:\n      callvalue\n      dup1\n      iszero\n      tag_43\n      jumpi\n      0x00\n      dup1\n      revert\n    tag_43:\n      pop\n      tag_44\n      tag_45\n      jump\t// in\n    tag_44:\n      stop\n        /* \"contracts/LendingPool.sol\":477:521  mapping(address => uint256) public startTime */\n    tag_9:\n      callvalue\n      dup1\n      iszero\n      tag_46\n      jumpi\n      0x00\n      dup1\n      revert\n    tag_46:\n      pop\n      tag_47\n      0x04\n      dup1\n      calldatasize\n      sub\n      dup2\n      add\n      swap1\n      tag_48\n      swap2\n      swap1\n      tag_25\n      jump\t// in\n    tag_48:\n      tag_49\n      jump\t// in\n    tag_47:\n      mload(0x40)\n      tag_50\n      swap2\n      swap1\n      tag_42\n      jump\t// in\n    tag_50:\n      mload(0x40)\n      dup1\n      swap2\n      sub\n      swap1\n      return\n        /* \"contracts/LendingPool.sol\":322:350  address payable public owner */\n    tag_10:\n      callvalue\n      dup1\n      iszero\n      tag_51\n      jumpi\n      0x00\n      dup1\n      revert\n    tag_51:\n      pop\n      tag_52\n      tag_53\n      jump\t// in\n    tag_52:\n      mload(0x40)\n      tag_54\n      swap2\n      swap1\n      tag_55\n      jump\t// in\n    tag_54:\n      mload(0x40)\n      dup1\n      swap2\n      sub\n      swap1\n      return\n        /* \"contracts/LendingPool.sol\":392:413  address public editor */\n    tag_11:\n      callvalue\n      dup1\n      iszero\n      tag_56\n      jumpi\n      0x00\n      dup1\n      revert\n    tag_56:\n      pop\n      tag_57\n      tag_58\n      jump\t// in\n    tag_57:\n      mload(0x40)\n      tag_59\n      swap2\n      swap1\n      tag_60\n      jump\t// in\n    tag_59:\n      mload(0x40)\n      dup1\n      swap2\n      sub\n      swap1\n      return\n        /* \"contracts/LendingPool.sol\":580:629  mapping(address => uint256) public pendingPayment */\n    tag_12:\n      callvalue\n      dup1\n      iszero\n      tag_61\n      jumpi\n      0x00\n      dup1\n      revert\n    tag_61:\n      pop\n      tag_62\n      0x04\n      dup1\n      calldatasize\n      sub\n      dup2\n      add\n      swap1\n      tag_63\n      swap2\n      swap1\n      tag_25\n      jump\t// in\n    tag_63:\n      tag_64\n      jump\t// in\n    tag_62:\n      mload(0x40)\n      tag_65\n      swap2\n      swap1\n      tag_42\n      jump\t// in\n    tag_65:\n      mload(0x40)\n      dup1\n      swap2\n      sub\n      swap1\n      return\n        /* \"contracts/LendingPool.sol\":635:680  mapping(address => bool) public allowed_pools */\n    tag_13:\n      callvalue\n      dup1\n      iszero\n      tag_66\n      jumpi\n      0x00\n      dup1\n      revert\n    tag_66:\n      pop\n      tag_67\n      0x04\n      dup1\n      calldatasize\n      sub\n      dup2\n      add\n      swap1\n      tag_68\n      swap2\n      swap1\n      tag_25\n      jump\t// in\n    tag_68:\n      tag_69\n      jump\t// in\n    tag_67:\n      mload(0x40)\n      tag_70\n      swap2\n      swap1\n      tag_71\n      jump\t// in\n    tag_70:\n      mload(0x40)\n      dup1\n      swap2\n      sub\n      swap1\n      return\n        /* \"contracts/LendingPool.sol\":1678:2081  function deposit() public payable {... */\n    tag_14:\n      tag_72\n      tag_73\n      jump\t// in\n    tag_72:\n      stop\n        /* \"contracts/LendingPool.sol\":527:574  mapping(address => uint256) public stakedAmount */\n    tag_15:\n      callvalue\n      dup1\n      iszero\n      tag_74\n      jumpi\n      0x00\n      dup1\n      revert\n    tag_74:\n      pop\n      tag_75\n      0x04\n      dup1\n      calldatasize\n      sub\n      dup2\n      add\n      swap1\n      tag_76\n      swap2\n      swap1\n      tag_25\n      jump\t// in\n    tag_76:\n      tag_77\n      jump\t// in\n    tag_75:\n      mload(0x40)\n      tag_78\n      swap2\n      swap1\n      tag_42\n      jump\t// in\n    tag_78:\n      mload(0x40)\n      dup1\n      swap2\n      sub\n      swap1\n      return\n        /* \"contracts/LendingPool.sol\":1274:1435  function updateEditor(address new_editor) public onlyOwner{... */\n    tag_26:\n        /* \"contracts/LendingPool.sol\":934:939  owner */\n      0x01\n      0x00\n      swap1\n      sload\n      swap1\n      0x0100\n      exp\n      swap1\n      div\n      0xffffffffffffffffffffffffffffffffffffffff\n      and\n        /* \"contracts/LendingPool.sol\":920:939  msg.sender == owner */\n      0xffffffffffffffffffffffffffffffffffffffff\n      and\n        /* \"contracts/LendingPool.sol\":920:930  msg.sender */\n      caller\n        /* \"contracts/LendingPool.sol\":920:939  msg.sender == owner */\n      0xffffffffffffffffffffffffffffffffffffffff\n      and\n      eq\n        /* \"contracts/LendingPool.sol\":912:988  require(msg.sender == owner, \"Only initial uploader can access this method\") */\n      tag_80\n      jumpi\n      mload(0x40)\n      0x08c379a000000000000000000000000000000000000000000000000000000000\n      dup2\n      mstore\n      0x04\n      add\n      tag_81\n      swap1\n      tag_82\n      jump\t// in\n    tag_81:\n      mload(0x40)\n      dup1\n      swap2\n      sub\n      swap1\n      revert\n    tag_80:\n        /* \"contracts/LendingPool.sol\":1351:1361  new_editor */\n      dup1\n        /* \"contracts/LendingPool.sol\":1342:1348  editor */\n      0x03\n      0x00\n        /* \"contracts/LendingPool.sol\":1342:1361  editor = new_editor */\n      0x0100\n      exp\n      dup2\n      sload\n      dup2\n      0xffffffffffffffffffffffffffffffffffffffff\n      mul\n      not\n      and\n      swap1\n      dup4\n      0xffffffffffffffffffffffffffffffffffffffff\n      and\n      mul\n      or\n      swap1\n      sstore\n      pop\n        /* \"contracts/LendingPool.sol\":1376:1427  LendingPoolMessage(\"Editor updated to\", new_editor) */\n      0xf67e7992d539193fc243c42fe89f8fab49013e8e4fb18cfa891dc51adcaccc80\n        /* \"contracts/LendingPool.sol\":1416:1426  new_editor */\n      dup2\n        /* \"contracts/LendingPool.sol\":1376:1427  LendingPoolMessage(\"Editor updated to\", new_editor) */\n      mload(0x40)\n      tag_84\n      swap2\n      swap1\n      tag_85\n      jump\t// in\n    tag_84:\n      mload(0x40)\n      dup1\n      swap2\n      sub\n      swap1\n      log1\n        /* \"contracts/LendingPool.sol\":1274:1435  function updateEditor(address new_editor) public onlyOwner{... */\n      pop\n      jump\t// out\n        /* \"contracts/LendingPool.sol\":1441:1614  function addGate (address pool_address) public onlyEditor{... */\n    tag_30:\n        /* \"contracts/LendingPool.sol\":1066:1072  editor */\n      0x03\n      0x00\n      swap1\n      sload\n      swap1\n      0x0100\n      exp\n      swap1\n      div\n      0xffffffffffffffffffffffffffffffffffffffff\n      and\n        /* \"contracts/LendingPool.sol\":1052:1072  msg.sender == editor */\n      0xffffffffffffffffffffffffffffffffffffffff\n      and\n        /* \"contracts/LendingPool.sol\":1052:1062  msg.sender */\n      caller\n        /* \"contracts/LendingPool.sol\":1052:1072  msg.sender == editor */\n      0xffffffffffffffffffffffffffffffffffffffff\n      and\n      eq\n        /* \"contracts/LendingPool.sol\":1044:1111  require(msg.sender == editor, \"Only editor can access this method\") */\n      tag_87\n      jumpi\n      mload(0x40)\n      0x08c379a000000000000000000000000000000000000000000000000000000000\n      dup2\n      mstore\n      0x04\n      add\n      tag_88\n      swap1\n      tag_89\n      jump\t// in\n    tag_88:\n      mload(0x40)\n      dup1\n      swap2\n      sub\n      swap1\n      revert\n    tag_87:\n        /* \"contracts/LendingPool.sol\":1538:1542  true */\n      0x01\n        /* \"contracts/LendingPool.sol\":1508:1521  allowed_pools */\n      0x08\n        /* \"contracts/LendingPool.sol\":1508:1535  allowed_pools[pool_address] */\n      0x00\n        /* \"contracts/LendingPool.sol\":1522:1534  pool_address */\n      dup4\n        /* \"contracts/LendingPool.sol\":1508:1535  allowed_pools[pool_address] */\n      0xffffffffffffffffffffffffffffffffffffffff\n      and\n      0xffffffffffffffffffffffffffffffffffffffff\n      and\n      dup2\n      mstore\n      0x20\n      add\n      swap1\n      dup2\n      mstore\n      0x20\n      add\n      0x00\n      keccak256\n      0x00\n        /* \"contracts/LendingPool.sol\":1508:1542  allowed_pools[pool_address] = true */\n      0x0100\n      exp\n      dup2\n      sload\n      dup2\n      0xff\n      mul\n      not\n      and\n      swap1\n      dup4\n      iszero\n      iszero\n      mul\n      or\n      swap1\n      sstore\n      pop\n        /* \"contracts/LendingPool.sol\":1557:1607  LendingPoolMessage(\"new gate added\", pool_address) */\n      0xf67e7992d539193fc243c42fe89f8fab49013e8e4fb18cfa891dc51adcaccc80\n        /* \"contracts/LendingPool.sol\":1594:1606  pool_address */\n      dup2\n        /* \"contracts/LendingPool.sol\":1557:1607  LendingPoolMessage(\"new gate added\", pool_address) */\n      mload(0x40)\n      tag_91\n      swap2\n      swap1\n      tag_92\n      jump\t// in\n    tag_91:\n      mload(0x40)\n      dup1\n      swap2\n      sub\n      swap1\n      log1\n        /* \"contracts/LendingPool.sol\":1441:1614  function addGate (address pool_address) public onlyEditor{... */\n      pop\n      jump\t// out\n        /* \"contracts/LendingPool.sol\":2087:2448  function lendingWithdraw(uint256 amount, address to) public payable onlyAllowedGate {... */\n    tag_34:\n        /* \"contracts/LendingPool.sol\":1179:1192  allowed_pools */\n      0x08\n        /* \"contracts/LendingPool.sol\":1179:1204  allowed_pools[msg.sender] */\n      0x00\n        /* \"contracts/LendingPool.sol\":1193:1203  msg.sender */\n      caller\n        /* \"contracts/LendingPool.sol\":1179:1204  allowed_pools[msg.sender] */\n      0xffffffffffffffffffffffffffffffffffffffff\n      and\n      0xffffffffffffffffffffffffffffffffffffffff\n      and\n      dup2\n      mstore\n      0x20\n      add\n      swap1\n      dup2\n      mstore\n      0x20\n      add\n      0x00\n      keccak256\n      0x00\n      swap1\n      sload\n      swap1\n      0x0100\n      exp\n      swap1\n      div\n      0xff\n      and\n        /* \"contracts/LendingPool.sol\":1171:1250  require(allowed_pools[msg.sender], \"Only allowed gates can access this method\") */\n      tag_94\n      jumpi\n      mload(0x40)\n      0x08c379a000000000000000000000000000000000000000000000000000000000\n      dup2\n      mstore\n      0x04\n      add\n      tag_95\n      swap1\n      tag_96\n      jump\t// in\n    tag_95:\n      mload(0x40)\n      dup1\n      swap2\n      sub\n      swap1\n      revert\n    tag_94:\n        /* \"contracts/LendingPool.sol\":2208:2222  totalDeposited */\n      sload(0x02)\n        /* \"contracts/LendingPool.sol\":2198:2204  amount */\n      dup3\n        /* \"contracts/LendingPool.sol\":2198:2222  amount <= totalDeposited */\n      gt\n      iszero\n        /* \"contracts/LendingPool.sol\":2190:2266  require(amount <= totalDeposited, \"Doesn't have enough balance in the bank\") */\n      tag_98\n      jumpi\n      mload(0x40)\n      0x08c379a000000000000000000000000000000000000000000000000000000000\n      dup2\n      mstore\n      0x04\n      add\n      tag_99\n      swap1\n      tag_100\n      jump\t// in\n    tag_99:\n      mload(0x40)\n      dup1\n      swap2\n      sub\n      swap1\n      revert\n    tag_98:\n        /* \"contracts/LendingPool.sol\":2293:2319  totalDeposited.sub(amount) */\n      tag_101\n        /* \"contracts/LendingPool.sol\":2312:2318  amount */\n      dup3\n        /* \"contracts/LendingPool.sol\":2293:2307  totalDeposited */\n      sload(0x02)\n        /* \"contracts/LendingPool.sol\":2293:2311  totalDeposited.sub */\n      tag_102\n      swap1\n        /* \"contracts/LendingPool.sol\":2293:2319  totalDeposited.sub(amount) */\n      swap2\n      swap1\n      0xffffffff\n      and\n      jump\t// in\n    tag_101:\n        /* \"contracts/LendingPool.sol\":2276:2290  totalDeposited */\n      0x02\n        /* \"contracts/LendingPool.sol\":2276:2319  totalDeposited = totalDeposited.sub(amount) */\n      dup2\n      swap1\n      sstore\n      pop\n        /* \"contracts/LendingPool.sol\":2350:2380  pendingPayment[to].add(amount) */\n      tag_103\n        /* \"contracts/LendingPool.sol\":2373:2379  amount */\n      dup3\n        /* \"contracts/LendingPool.sol\":2350:2364  pendingPayment */\n      0x07\n        /* \"contracts/LendingPool.sol\":2350:2368  pendingPayment[to] */\n      0x00\n        /* \"contracts/LendingPool.sol\":2365:2367  to */\n      dup5\n        /* \"contracts/LendingPool.sol\":2350:2368  pendingPayment[to] */\n      0xffffffffffffffffffffffffffffffffffffffff\n      and\n      0xffffffffffffffffffffffffffffffffffffffff\n      and\n      dup2\n      mstore\n      0x20\n      add\n      swap1\n      dup2\n      mstore\n      0x20\n      add\n      0x00\n      keccak256\n      sload\n        /* \"contracts/LendingPool.sol\":2350:2372  pendingPayment[to].add */\n      tag_104\n      swap1\n        /* \"contracts/LendingPool.sol\":2350:2380  pendingPayment[to].add(amount) */\n      swap2\n      swap1\n      0xffffffff\n      and\n      jump\t// in\n    tag_103:\n        /* \"contracts/LendingPool.sol\":2329:2343  pendingPayment */\n      0x07\n        /* \"contracts/LendingPool.sol\":2329:2347  pendingPayment[to] */\n      0x00\n        /* \"contracts/LendingPool.sol\":2344:2346  to */\n      dup4\n        /* \"contracts/LendingPool.sol\":2329:2347  pendingPayment[to] */\n      0xffffffffffffffffffffffffffffffffffffffff\n      and\n      0xffffffffffffffffffffffffffffffffffffffff\n      and\n      dup2\n      mstore\n      0x20\n      add\n      swap1\n      dup2\n      mstore\n      0x20\n      add\n      0x00\n      keccak256\n        /* \"contracts/LendingPool.sol\":2329:2380  pendingPayment[to] = pendingPayment[to].add(amount) */\n      dup2\n      swap1\n      sstore\n      pop\n        /* \"contracts/LendingPool.sol\":2395:2440  LendingPoolMessage(\"Money withdrawen to\", to) */\n      0xf67e7992d539193fc243c42fe89f8fab49013e8e4fb18cfa891dc51adcaccc80\n        /* \"contracts/LendingPool.sol\":2437:2439  to */\n      dup2\n        /* \"contracts/LendingPool.sol\":2395:2440  LendingPoolMessage(\"Money withdrawen to\", to) */\n      mload(0x40)\n      tag_105\n      swap2\n      swap1\n      tag_106\n      jump\t// in\n    tag_105:\n      mload(0x40)\n      dup1\n      swap2\n      sub\n      swap1\n      log1\n        /* \"contracts/LendingPool.sol\":2087:2448  function lendingWithdraw(uint256 amount, address to) public payable onlyAllowedGate {... */\n      pop\n      pop\n      jump\t// out\n        /* \"contracts/LendingPool.sol\":3222:3494  function gateWithdrawl() public {... */\n    tag_37:\n        /* \"contracts/LendingPool.sol\":3301:3302  0 */\n      0x00\n        /* \"contracts/LendingPool.sol\":3272:3286  pendingPayment */\n      0x07\n        /* \"contracts/LendingPool.sol\":3272:3298  pendingPayment[msg.sender] */\n      0x00\n        /* \"contracts/LendingPool.sol\":3287:3297  msg.sender */\n      caller\n        /* \"contracts/LendingPool.sol\":3272:3298  pendingPayment[msg.sender] */\n      0xffffffffffffffffffffffffffffffffffffffff\n      and\n      0xffffffffffffffffffffffffffffffffffffffff\n      and\n      dup2\n      mstore\n      0x20\n      add\n      swap1\n      dup2\n      mstore\n      0x20\n      add\n      0x00\n      keccak256\n      sload\n        /* \"contracts/LendingPool.sol\":3272:3302  pendingPayment[msg.sender] > 0 */\n      gt\n        /* \"contracts/LendingPool.sol\":3264:3343  require(pendingPayment[msg.sender] > 0, \"You don't have no pending withdrawls\") */\n      tag_108\n      jumpi\n      mload(0x40)\n      0x08c379a000000000000000000000000000000000000000000000000000000000\n      dup2\n      mstore\n      0x04\n      add\n      tag_109\n      swap1\n      tag_110\n      jump\t// in\n    tag_109:\n      mload(0x40)\n      dup1\n      swap2\n      sub\n      swap1\n      revert\n    tag_108:\n        /* \"contracts/LendingPool.sol\":3353:3367  uint256 amount */\n      0x00\n        /* \"contracts/LendingPool.sol\":3370:3384  pendingPayment */\n      0x07\n        /* \"contracts/LendingPool.sol\":3370:3396  pendingPayment[msg.sender] */\n      0x00\n        /* \"contracts/LendingPool.sol\":3385:3395  msg.sender */\n      caller\n        /* \"contracts/LendingPool.sol\":3370:3396  pendingPayment[msg.sender] */\n      0xffffffffffffffffffffffffffffffffffffffff\n      and\n      0xffffffffffffffffffffffffffffffffffffffff\n      and\n      dup2\n      mstore\n      0x20\n      add\n      swap1\n      dup2\n      mstore\n      0x20\n      add\n      0x00\n      keccak256\n      sload\n        /* \"contracts/LendingPool.sol\":3353:3396  uint256 amount = pendingPayment[msg.sender] */\n      swap1\n      pop\n        /* \"contracts/LendingPool.sol\":3436:3437  0 */\n      0x00\n        /* \"contracts/LendingPool.sol\":3406:3420  pendingPayment */\n      0x07\n        /* \"contracts/LendingPool.sol\":3406:3432  pendingPayment[msg.sender] */\n      0x00\n        /* \"contracts/LendingPool.sol\":3421:3431  msg.sender */\n      caller\n        /* \"contracts/LendingPool.sol\":3406:3432  pendingPayment[msg.sender] */\n      0xffffffffffffffffffffffffffffffffffffffff\n      and\n      0xffffffffffffffffffffffffffffffffffffffff\n      and\n      dup2\n      mstore\n      0x20\n      add\n      swap1\n      dup2\n      mstore\n      0x20\n      add\n      0x00\n      keccak256\n        /* \"contracts/LendingPool.sol\":3406:3437  pendingPayment[msg.sender] =  0 */\n      dup2\n      swap1\n      sstore\n      pop\n        /* \"contracts/LendingPool.sol\":3459:3469  msg.sender */\n      caller\n        /* \"contracts/LendingPool.sol\":3451:3479  payable(msg.sender).transfer */\n      0xffffffffffffffffffffffffffffffffffffffff\n      and\n        /* \"contracts/LendingPool.sol\":3451:3487  payable(msg.sender).transfer(amount) */\n      0x08fc\n        /* \"contracts/LendingPool.sol\":3480:3486  amount */\n      dup3\n        /* \"contracts/LendingPool.sol\":3451:3487  payable(msg.sender).transfer(amount) */\n      swap1\n      dup2\n      iszero\n      mul\n      swap1\n      mload(0x40)\n      0x00\n      mload(0x40)\n      dup1\n      dup4\n      sub\n      dup2\n      dup6\n      dup9\n      dup9\n      call\n      swap4\n      pop\n      pop\n      pop\n      pop\n      iszero\n      dup1\n      iszero\n      tag_112\n      jumpi\n      returndatasize\n      0x00\n      dup1\n      returndatacopy\n      revert(0x00, returndatasize)\n    tag_112:\n      pop\n        /* \"contracts/LendingPool.sol\":3254:3494  {... */\n      pop\n        /* \"contracts/LendingPool.sol\":3222:3494  function gateWithdrawl() public {... */\n      jump\t// out\n        /* \"contracts/LendingPool.sol\":281:316  uint256 public minimumAmt = 1 ether */\n    tag_40:\n      sload(0x00)\n      dup2\n      jump\t// out\n        /* \"contracts/LendingPool.sol\":2522:3146  function depositWithdraw() public{... */\n    tag_45:\n        /* \"contracts/LendingPool.sol\":2600:2601  0 */\n      0x00\n        /* \"contracts/LendingPool.sol\":2573:2585  stakedAmount */\n      0x06\n        /* \"contracts/LendingPool.sol\":2573:2597  stakedAmount[msg.sender] */\n      0x00\n        /* \"contracts/LendingPool.sol\":2586:2596  msg.sender */\n      caller\n        /* \"contracts/LendingPool.sol\":2573:2597  stakedAmount[msg.sender] */\n      0xffffffffffffffffffffffffffffffffffffffff\n      and\n      0xffffffffffffffffffffffffffffffffffffffff\n      and\n      dup2\n      mstore\n      0x20\n      add\n      swap1\n      dup2\n      mstore\n      0x20\n      add\n      0x00\n      keccak256\n      sload\n        /* \"contracts/LendingPool.sol\":2573:2601  stakedAmount[msg.sender] > 0 */\n      gt\n        /* \"contracts/LendingPool.sol\":2565:2638  require(stakedAmount[msg.sender] > 0, \"You don't have any money in here\") */\n      tag_114\n      jumpi\n      mload(0x40)\n      0x08c379a000000000000000000000000000000000000000000000000000000000\n      dup2\n      mstore\n      0x04\n      add\n      tag_115\n      swap1\n      tag_116\n      jump\t// in\n    tag_115:\n      mload(0x40)\n      dup1\n      swap2\n      sub\n      swap1\n      revert\n    tag_114:\n        /* \"contracts/LendingPool.sol\":2648:2667  uint256 time_staked */\n      0x00\n        /* \"contracts/LendingPool.sol\":2670:2723  (startTime[msg.sender] -  block.timestamp).div(86400) */\n      tag_117\n        /* \"contracts/LendingPool.sol\":2717:2722  86400 */\n      0x015180\n        /* \"contracts/LendingPool.sol\":2696:2711  block.timestamp */\n      timestamp\n        /* \"contracts/LendingPool.sol\":2671:2680  startTime */\n      0x05\n        /* \"contracts/LendingPool.sol\":2671:2692  startTime[msg.sender] */\n      0x00\n        /* \"contracts/LendingPool.sol\":2681:2691  msg.sender */\n      caller\n        /* \"contracts/LendingPool.sol\":2671:2692  startTime[msg.sender] */\n      0xffffffffffffffffffffffffffffffffffffffff\n      and\n      0xffffffffffffffffffffffffffffffffffffffff\n      and\n      dup2\n      mstore\n      0x20\n      add\n      swap1\n      dup2\n      mstore\n      0x20\n      add\n      0x00\n      keccak256\n      sload\n        /* \"contracts/LendingPool.sol\":2671:2711  startTime[msg.sender] -  block.timestamp */\n      tag_118\n      swap2\n      swap1\n      tag_119\n      jump\t// in\n    tag_118:\n        /* \"contracts/LendingPool.sol\":2670:2716  (startTime[msg.sender] -  block.timestamp).div */\n      tag_120\n      swap1\n        /* \"contracts/LendingPool.sol\":2670:2723  (startTime[msg.sender] -  block.timestamp).div(86400) */\n      swap2\n      swap1\n      0xffffffff\n      and\n      jump\t// in\n    tag_117:\n        /* \"contracts/LendingPool.sol\":2648:2723  uint256 time_staked = (startTime[msg.sender] -  block.timestamp).div(86400) */\n      swap1\n      pop\n        /* \"contracts/LendingPool.sol\":2755:2765  30 * 86400 */\n      0x278d00\n        /* \"contracts/LendingPool.sol\":2741:2752  time_staked */\n      dup2\n        /* \"contracts/LendingPool.sol\":2741:2765  time_staked > 30 * 86400 */\n      gt\n        /* \"contracts/LendingPool.sol\":2733:2806  require(time_staked > 30 * 86400, \"You should atleast stake for a monty\") */\n      tag_121\n      jumpi\n      mload(0x40)\n      0x08c379a000000000000000000000000000000000000000000000000000000000\n      dup2\n      mstore\n      0x04\n      add\n      tag_122\n      swap1\n      tag_123\n      jump\t// in\n    tag_122:\n      mload(0x40)\n      dup1\n      swap2\n      sub\n      swap1\n      revert\n    tag_121:\n        /* \"contracts/LendingPool.sol\":2816:2829  uint256 yield */\n      0x00\n        /* \"contracts/LendingPool.sol\":2859:2916  time_staked.mul(5).mul(stakedAmount[msg.sender]).div(100) */\n      tag_124\n        /* \"contracts/LendingPool.sol\":2912:2915  100 */\n      0x64\n        /* \"contracts/LendingPool.sol\":2859:2907  time_staked.mul(5).mul(stakedAmount[msg.sender]) */\n      tag_125\n        /* \"contracts/LendingPool.sol\":2882:2894  stakedAmount */\n      0x06\n        /* \"contracts/LendingPool.sol\":2882:2906  stakedAmount[msg.sender] */\n      0x00\n        /* \"contracts/LendingPool.sol\":2895:2905  msg.sender */\n      caller\n        /* \"contracts/LendingPool.sol\":2882:2906  stakedAmount[msg.sender] */\n      0xffffffffffffffffffffffffffffffffffffffff\n      and\n      0xffffffffffffffffffffffffffffffffffffffff\n      and\n      dup2\n      mstore\n      0x20\n      add\n      swap1\n      dup2\n      mstore\n      0x20\n      add\n      0x00\n      keccak256\n      sload\n        /* \"contracts/LendingPool.sol\":2859:2877  time_staked.mul(5) */\n      tag_126\n        /* \"contracts/LendingPool.sol\":2875:2876  5 */\n      0x05\n        /* \"contracts/LendingPool.sol\":2859:2870  time_staked */\n      dup8\n        /* \"contracts/LendingPool.sol\":2859:2874  time_staked.mul */\n      tag_127\n      swap1\n        /* \"contracts/LendingPool.sol\":2859:2877  time_staked.mul(5) */\n      swap2\n      swap1\n      0xffffffff\n      and\n      jump\t// in\n    tag_126:\n        /* \"contracts/LendingPool.sol\":2859:2881  time_staked.mul(5).mul */\n      tag_127\n      swap1\n        /* \"contracts/LendingPool.sol\":2859:2907  time_staked.mul(5).mul(stakedAmount[msg.sender]) */\n      swap2\n      swap1\n      0xffffffff\n      and\n      jump\t// in\n    tag_125:\n        /* \"contracts/LendingPool.sol\":2859:2911  time_staked.mul(5).mul(stakedAmount[msg.sender]).div */\n      tag_120\n      swap1\n        /* \"contracts/LendingPool.sol\":2859:2916  time_staked.mul(5).mul(stakedAmount[msg.sender]).div(100) */\n      swap2\n      swap1\n      0xffffffff\n      and\n      jump\t// in\n    tag_124:\n        /* \"contracts/LendingPool.sol\":2832:2844  stakedAmount */\n      0x06\n        /* \"contracts/LendingPool.sol\":2832:2856  stakedAmount[msg.sender] */\n      0x00\n        /* \"contracts/LendingPool.sol\":2845:2855  msg.sender */\n      caller\n        /* \"contracts/LendingPool.sol\":2832:2856  stakedAmount[msg.sender] */\n      0xffffffffffffffffffffffffffffffffffffffff\n      and\n      0xffffffffffffffffffffffffffffffffffffffff\n      and\n      dup2\n      mstore\n      0x20\n      add\n      swap1\n      dup2\n      mstore\n      0x20\n      add\n      0x00\n      keccak256\n      sload\n        /* \"contracts/LendingPool.sol\":2832:2916  stakedAmount[msg.sender] + time_staked.mul(5).mul(stakedAmount[msg.sender]).div(100) */\n      tag_128\n      swap2\n      swap1\n      tag_129\n      jump\t// in\n    tag_128:\n        /* \"contracts/LendingPool.sol\":2816:2916  uint256 yield = stakedAmount[msg.sender] + time_staked.mul(5).mul(stakedAmount[msg.sender]).div(100) */\n      swap1\n      pop\n        /* \"contracts/LendingPool.sol\":2942:2956  totalDeposited */\n      sload(0x02)\n        /* \"contracts/LendingPool.sol\":2934:2939  yield */\n      dup2\n        /* \"contracts/LendingPool.sol\":2934:2956  yield < totalDeposited */\n      lt\n        /* \"contracts/LendingPool.sol\":2926:3011  require(yield < totalDeposited, \"Sorry we don't have enough money so comeback later\") */\n      tag_130\n      jumpi\n      mload(0x40)\n      0x08c379a000000000000000000000000000000000000000000000000000000000\n      dup2\n      mstore\n      0x04\n      add\n      tag_131\n      swap1\n      tag_132\n      jump\t// in\n    tag_131:\n      mload(0x40)\n      dup1\n      swap2\n      sub\n      swap1\n      revert\n    tag_130:\n        /* \"contracts/LendingPool.sol\":3038:3063  totalDeposited.sub(yield) */\n      tag_133\n        /* \"contracts/LendingPool.sol\":3057:3062  yield */\n      dup2\n        /* \"contracts/LendingPool.sol\":3038:3052  totalDeposited */\n      sload(0x02)\n        /* \"contracts/LendingPool.sol\":3038:3056  totalDeposited.sub */\n      tag_102\n      swap1\n        /* \"contracts/LendingPool.sol\":3038:3063  totalDeposited.sub(yield) */\n      swap2\n      swap1\n      0xffffffff\n      and\n      jump\t// in\n    tag_133:\n        /* \"contracts/LendingPool.sol\":3021:3035  totalDeposited */\n      0x02\n        /* \"contracts/LendingPool.sol\":3021:3063  totalDeposited = totalDeposited.sub(yield) */\n      dup2\n      swap1\n      sstore\n      pop\n        /* \"contracts/LendingPool.sol\":3102:3139  pendingPayment[msg.sender].add(yield) */\n      tag_134\n        /* \"contracts/LendingPool.sol\":3133:3138  yield */\n      dup2\n        /* \"contracts/LendingPool.sol\":3102:3116  pendingPayment */\n      0x07\n        /* \"contracts/LendingPool.sol\":3102:3128  pendingPayment[msg.sender] */\n      0x00\n        /* \"contracts/LendingPool.sol\":3117:3127  msg.sender */\n      caller\n        /* \"contracts/LendingPool.sol\":3102:3128  pendingPayment[msg.sender] */\n      0xffffffffffffffffffffffffffffffffffffffff\n      and\n      0xffffffffffffffffffffffffffffffffffffffff\n      and\n      dup2\n      mstore\n      0x20\n      add\n      swap1\n      dup2\n      mstore\n      0x20\n      add\n      0x00\n      keccak256\n      sload\n        /* \"contracts/LendingPool.sol\":3102:3132  pendingPayment[msg.sender].add */\n      tag_104\n      swap1\n        /* \"contracts/LendingPool.sol\":3102:3139  pendingPayment[msg.sender].add(yield) */\n      swap2\n      swap1\n      0xffffffff\n      and\n      jump\t// in\n    tag_134:\n        /* \"contracts/LendingPool.sol\":3073:3087  pendingPayment */\n      0x07\n        /* \"contracts/LendingPool.sol\":3073:3099  pendingPayment[msg.sender] */\n      0x00\n        /* \"contracts/LendingPool.sol\":3088:3098  msg.sender */\n      caller\n        /* \"contracts/LendingPool.sol\":3073:3099  pendingPayment[msg.sender] */\n      0xffffffffffffffffffffffffffffffffffffffff\n      and\n      0xffffffffffffffffffffffffffffffffffffffff\n      and\n      dup2\n      mstore\n      0x20\n      add\n      swap1\n      dup2\n      mstore\n      0x20\n      add\n      0x00\n      keccak256\n        /* \"contracts/LendingPool.sol\":3073:3139  pendingPayment[msg.sender] = pendingPayment[msg.sender].add(yield) */\n      dup2\n      swap1\n      sstore\n      pop\n        /* \"contracts/LendingPool.sol\":2555:3146  {... */\n      pop\n      pop\n        /* \"contracts/LendingPool.sol\":2522:3146  function depositWithdraw() public{... */\n      jump\t// out\n        /* \"contracts/LendingPool.sol\":477:521  mapping(address => uint256) public startTime */\n    tag_49:\n      mstore(0x20, 0x05)\n      dup1\n      0x00\n      mstore\n      keccak256(0x00, 0x40)\n      0x00\n      swap2\n      pop\n      swap1\n      pop\n      sload\n      dup2\n      jump\t// out\n        /* \"contracts/LendingPool.sol\":322:350  address payable public owner */\n    tag_53:\n      0x01\n      0x00\n      swap1\n      sload\n      swap1\n      0x0100\n      exp\n      swap1\n      div\n      0xffffffffffffffffffffffffffffffffffffffff\n      and\n      dup2\n      jump\t// out\n        /* \"contracts/LendingPool.sol\":392:413  address public editor */\n    tag_58:\n      0x03\n      0x00\n      swap1\n      sload\n      swap1\n      0x0100\n      exp\n      swap1\n      div\n      0xffffffffffffffffffffffffffffffffffffffff\n      and\n      dup2\n      jump\t// out\n        /* \"contracts/LendingPool.sol\":580:629  mapping(address => uint256) public pendingPayment */\n    tag_64:\n      mstore(0x20, 0x07)\n      dup1\n      0x00\n      mstore\n      keccak256(0x00, 0x40)\n      0x00\n      swap2\n      pop\n      swap1\n      pop\n      sload\n      dup2\n      jump\t// out\n        /* \"contracts/LendingPool.sol\":635:680  mapping(address => bool) public allowed_pools */\n    tag_69:\n      mstore(0x20, 0x08)\n      dup1\n      0x00\n      mstore\n      keccak256(0x00, 0x40)\n      0x00\n      swap2\n      pop\n      sload\n      swap1\n      0x0100\n      exp\n      swap1\n      div\n      0xff\n      and\n      dup2\n      jump\t// out\n        /* \"contracts/LendingPool.sol\":1678:2081  function deposit() public payable {... */\n    tag_73:\n        /* \"contracts/LendingPool.sol\":1743:1753  minimumAmt */\n      sload(0x00)\n        /* \"contracts/LendingPool.sol\":1730:1739  msg.value */\n      callvalue\n        /* \"contracts/LendingPool.sol\":1730:1753  msg.value >= minimumAmt */\n      lt\n      iszero\n        /* \"contracts/LendingPool.sol\":1722:1782  require(msg.value >= minimumAmt, \"Minimum 1 Ether Required\") */\n      tag_136\n      jumpi\n      mload(0x40)\n      0x08c379a000000000000000000000000000000000000000000000000000000000\n      dup2\n      mstore\n      0x04\n      add\n      tag_137\n      swap1\n      tag_138\n      jump\t// in\n    tag_137:\n      mload(0x40)\n      dup1\n      swap2\n      sub\n      swap1\n      revert\n    tag_136:\n        /* \"contracts/LendingPool.sol\":1872:1887  block.timestamp */\n      timestamp\n        /* \"contracts/LendingPool.sol\":1848:1857  startTime */\n      0x05\n        /* \"contracts/LendingPool.sol\":1848:1869  startTime[msg.sender] */\n      0x00\n        /* \"contracts/LendingPool.sol\":1858:1868  msg.sender */\n      caller\n        /* \"contracts/LendingPool.sol\":1848:1869  startTime[msg.sender] */\n      0xffffffffffffffffffffffffffffffffffffffff\n      and\n      0xffffffffffffffffffffffffffffffffffffffff\n      and\n      dup2\n      mstore\n      0x20\n      add\n      swap1\n      dup2\n      mstore\n      0x20\n      add\n      0x00\n      keccak256\n        /* \"contracts/LendingPool.sol\":1848:1887  startTime[msg.sender] = block.timestamp */\n      dup2\n      swap1\n      sstore\n      pop\n        /* \"contracts/LendingPool.sol\":1924:1963  stakedAmount[msg.sender].add(msg.value) */\n      tag_139\n        /* \"contracts/LendingPool.sol\":1953:1962  msg.value */\n      callvalue\n        /* \"contracts/LendingPool.sol\":1924:1936  stakedAmount */\n      0x06\n        /* \"contracts/LendingPool.sol\":1924:1948  stakedAmount[msg.sender] */\n      0x00\n        /* \"contracts/LendingPool.sol\":1937:1947  msg.sender */\n      caller\n        /* \"contracts/LendingPool.sol\":1924:1948  stakedAmount[msg.sender] */\n      0xffffffffffffffffffffffffffffffffffffffff\n      and\n      0xffffffffffffffffffffffffffffffffffffffff\n      and\n      dup2\n      mstore\n      0x20\n      add\n      swap1\n      dup2\n      mstore\n      0x20\n      add\n      0x00\n      keccak256\n      sload\n        /* \"contracts/LendingPool.sol\":1924:1952  stakedAmount[msg.sender].add */\n      tag_104\n      swap1\n        /* \"contracts/LendingPool.sol\":1924:1963  stakedAmount[msg.sender].add(msg.value) */\n      swap2\n      swap1\n      0xffffffff\n      and\n      jump\t// in\n    tag_139:\n        /* \"contracts/LendingPool.sol\":1897:1909  stakedAmount */\n      0x06\n        /* \"contracts/LendingPool.sol\":1897:1921  stakedAmount[msg.sender] */\n      0x00\n        /* \"contracts/LendingPool.sol\":1910:1920  msg.sender */\n      caller\n        /* \"contracts/LendingPool.sol\":1897:1921  stakedAmount[msg.sender] */\n      0xffffffffffffffffffffffffffffffffffffffff\n      and\n      0xffffffffffffffffffffffffffffffffffffffff\n      and\n      dup2\n      mstore\n      0x20\n      add\n      swap1\n      dup2\n      mstore\n      0x20\n      add\n      0x00\n      keccak256\n        /* \"contracts/LendingPool.sol\":1897:1963  stakedAmount[msg.sender] = stakedAmount[msg.sender].add(msg.value) */\n      dup2\n      swap1\n      sstore\n      pop\n        /* \"contracts/LendingPool.sol\":1990:2019  totalDeposited.add(msg.value) */\n      tag_140\n        /* \"contracts/LendingPool.sol\":2009:2018  msg.value */\n      callvalue\n        /* \"contracts/LendingPool.sol\":1990:2004  totalDeposited */\n      sload(0x02)\n        /* \"contracts/LendingPool.sol\":1990:2008  totalDeposited.add */\n      tag_104\n      swap1\n        /* \"contracts/LendingPool.sol\":1990:2019  totalDeposited.add(msg.value) */\n      swap2\n      swap1\n      0xffffffff\n      and\n      jump\t// in\n    tag_140:\n        /* \"contracts/LendingPool.sol\":1973:1987  totalDeposited */\n      0x02\n        /* \"contracts/LendingPool.sol\":1973:2019  totalDeposited = totalDeposited.add(msg.value) */\n      dup2\n      swap1\n      sstore\n      pop\n        /* \"contracts/LendingPool.sol\":2034:2074  LendingPoolMessage(\"staked\", msg.sender) */\n      0xf67e7992d539193fc243c42fe89f8fab49013e8e4fb18cfa891dc51adcaccc80\n        /* \"contracts/LendingPool.sol\":2063:2073  msg.sender */\n      caller\n        /* \"contracts/LendingPool.sol\":2034:2074  LendingPoolMessage(\"staked\", msg.sender) */\n      mload(0x40)\n      tag_141\n      swap2\n      swap1\n      tag_142\n      jump\t// in\n    tag_141:\n      mload(0x40)\n      dup1\n      swap2\n      sub\n      swap1\n      log1\n        /* \"contracts/LendingPool.sol\":1678:2081  function deposit() public payable {... */\n      jump\t// out\n        /* \"contracts/LendingPool.sol\":527:574  mapping(address => uint256) public stakedAmount */\n    tag_77:\n      mstore(0x20, 0x06)\n      dup1\n      0x00\n      mstore\n      keccak256(0x00, 0x40)\n      0x00\n      swap2\n      pop\n      swap1\n      pop\n      sload\n      dup2\n      jump\t// out\n        /* \"contracts/SafeMath.sol\":245:405  function sub(uint256 a, uint256 b) internal pure returns (uint256 c) {... */\n    tag_102:\n        /* \"contracts/SafeMath.sol\":303:312  uint256 c */\n      0x00\n        /* \"contracts/SafeMath.sol\":337:338  a */\n      dup3\n        /* \"contracts/SafeMath.sol\":332:333  b */\n      dup3\n        /* \"contracts/SafeMath.sol\":332:338  b <= a */\n      gt\n      iszero\n        /* \"contracts/SafeMath.sol\":324:361  require(b <= a, \"Substraction faild\") */\n      tag_144\n      jumpi\n      mload(0x40)\n      0x08c379a000000000000000000000000000000000000000000000000000000000\n      dup2\n      mstore\n      0x04\n      add\n      tag_145\n      swap1\n      tag_146\n      jump\t// in\n    tag_145:\n      mload(0x40)\n      dup1\n      swap2\n      sub\n      swap1\n      revert\n    tag_144:\n        /* \"contracts/SafeMath.sol\":379:380  b */\n      dup2\n        /* \"contracts/SafeMath.sol\":375:376  a */\n      dup4\n        /* \"contracts/SafeMath.sol\":375:380  a - b */\n      tag_147\n      swap2\n      swap1\n      tag_119\n      jump\t// in\n    tag_147:\n        /* \"contracts/SafeMath.sol\":371:380  c = a - b */\n      swap1\n      pop\n        /* \"contracts/SafeMath.sol\":245:405  function sub(uint256 a, uint256 b) internal pure returns (uint256 c) {... */\n      swap3\n      swap2\n      pop\n      pop\n      jump\t// out\n        /* \"contracts/SafeMath.sol\":82:239  function add(uint256 a, uint256 b) internal pure returns (uint256 c) {... */\n    tag_104:\n        /* \"contracts/SafeMath.sol\":140:149  uint256 c */\n      0x00\n        /* \"contracts/SafeMath.sol\":169:170  b */\n      dup2\n        /* \"contracts/SafeMath.sol\":165:166  a */\n      dup4\n        /* \"contracts/SafeMath.sol\":165:170  a + b */\n      tag_149\n      swap2\n      swap1\n      tag_129\n      jump\t// in\n    tag_149:\n        /* \"contracts/SafeMath.sol\":161:170  c = a + b */\n      swap1\n      pop\n        /* \"contracts/SafeMath.sol\":193:194  a */\n      dup3\n        /* \"contracts/SafeMath.sol\":188:189  c */\n      dup2\n        /* \"contracts/SafeMath.sol\":188:194  c >= a */\n      lt\n      iszero\n        /* \"contracts/SafeMath.sol\":180:214  require(c >= a, \"Addition failed\") */\n      tag_150\n      jumpi\n      mload(0x40)\n      0x08c379a000000000000000000000000000000000000000000000000000000000\n      dup2\n      mstore\n      0x04\n      add\n      tag_151\n      swap1\n      tag_152\n      jump\t// in\n    tag_151:\n      mload(0x40)\n      dup1\n      swap2\n      sub\n      swap1\n      revert\n    tag_150:\n        /* \"contracts/SafeMath.sol\":82:239  function add(uint256 a, uint256 b) internal pure returns (uint256 c) {... */\n      swap3\n      swap2\n      pop\n      pop\n      jump\t// out\n        /* \"contracts/SafeMath.sol\":593:748  function div(uint256 a, uint256 b) internal pure returns (uint256 c) {... */\n    tag_120:\n        /* \"contracts/SafeMath.sol\":651:660  uint256 c */\n      0x00\n        /* \"contracts/SafeMath.sol\":684:685  0 */\n      dup1\n        /* \"contracts/SafeMath.sol\":680:681  b */\n      dup3\n        /* \"contracts/SafeMath.sol\":680:685  b > 0 */\n      gt\n        /* \"contracts/SafeMath.sol\":672:704  require(b > 0, \"Division faild\") */\n      tag_154\n      jumpi\n      mload(0x40)\n      0x08c379a000000000000000000000000000000000000000000000000000000000\n      dup2\n      mstore\n      0x04\n      add\n      tag_155\n      swap1\n      tag_156\n      jump\t// in\n    tag_155:\n      mload(0x40)\n      dup1\n      swap2\n      sub\n      swap1\n      revert\n    tag_154:\n        /* \"contracts/SafeMath.sol\":722:723  b */\n      dup2\n        /* \"contracts/SafeMath.sol\":718:719  a */\n      dup4\n        /* \"contracts/SafeMath.sol\":718:723  a / b */\n      tag_157\n      swap2\n      swap1\n      tag_158\n      jump\t// in\n    tag_157:\n        /* \"contracts/SafeMath.sol\":714:723  c = a / b */\n      swap1\n      pop\n        /* \"contracts/SafeMath.sol\":593:748  function div(uint256 a, uint256 b) internal pure returns (uint256 c) {... */\n      swap3\n      swap2\n      pop\n      pop\n      jump\t// out\n        /* \"contracts/SafeMath.sol\":411:587  function mul(uint256 a, uint256 b) internal pure returns (uint256 c) {... */\n    tag_127:\n        /* \"contracts/SafeMath.sol\":469:478  uint256 c */\n      0x00\n        /* \"contracts/SafeMath.sol\":498:499  b */\n      dup2\n        /* \"contracts/SafeMath.sol\":494:495  a */\n      dup4\n        /* \"contracts/SafeMath.sol\":494:499  a * b */\n      tag_160\n      swap2\n      swap1\n      tag_161\n      jump\t// in\n    tag_160:\n        /* \"contracts/SafeMath.sol\":490:499  c = a * b */\n      swap1\n      pop\n        /* \"contracts/SafeMath.sol\":522:523  0 */\n      0x00\n        /* \"contracts/SafeMath.sol\":517:518  a */\n      dup4\n        /* \"contracts/SafeMath.sol\":517:523  a == 0 */\n      eq\n        /* \"contracts/SafeMath.sol\":517:537  a == 0 || c / a == b */\n      dup1\n      tag_162\n      jumpi\n      pop\n        /* \"contracts/SafeMath.sol\":536:537  b */\n      dup2\n        /* \"contracts/SafeMath.sol\":531:532  a */\n      dup4\n        /* \"contracts/SafeMath.sol\":527:528  c */\n      dup3\n        /* \"contracts/SafeMath.sol\":527:532  c / a */\n      tag_163\n      swap2\n      swap1\n      tag_158\n      jump\t// in\n    tag_163:\n        /* \"contracts/SafeMath.sol\":527:537  c / a == b */\n      eq\n        /* \"contracts/SafeMath.sol\":517:537  a == 0 || c / a == b */\n    tag_162:\n        /* \"contracts/SafeMath.sol\":509:562  require(a == 0 || c / a == b, \"Multiplication faild\") */\n      tag_164\n      jumpi\n      mload(0x40)\n      0x08c379a000000000000000000000000000000000000000000000000000000000\n      dup2\n      mstore\n      0x04\n      add\n      tag_165\n      swap1\n      tag_166\n      jump\t// in\n    tag_165:\n      mload(0x40)\n      dup1\n      swap2\n      sub\n      swap1\n      revert\n    tag_164:\n        /* \"contracts/SafeMath.sol\":411:587  function mul(uint256 a, uint256 b) internal pure returns (uint256 c) {... */\n      swap3\n      swap2\n      pop\n      pop\n      jump\t// out\n        /* \"#utility.yul\":7:146   */\n    tag_168:\n        /* \"#utility.yul\":53:58   */\n      0x00\n        /* \"#utility.yul\":91:97   */\n      dup2\n        /* \"#utility.yul\":78:98   */\n      calldataload\n        /* \"#utility.yul\":69:98   */\n      swap1\n      pop\n        /* \"#utility.yul\":107:140   */\n      tag_170\n        /* \"#utility.yul\":134:139   */\n      dup2\n        /* \"#utility.yul\":107:140   */\n      tag_171\n      jump\t// in\n    tag_170:\n        /* \"#utility.yul\":7:146   */\n      swap3\n      swap2\n      pop\n      pop\n      jump\t// out\n        /* \"#utility.yul\":152:291   */\n    tag_172:\n        /* \"#utility.yul\":198:203   */\n      0x00\n        /* \"#utility.yul\":236:242   */\n      dup2\n        /* \"#utility.yul\":223:243   */\n      calldataload\n        /* \"#utility.yul\":214:243   */\n      swap1\n      pop\n        /* \"#utility.yul\":252:285   */\n      tag_174\n        /* \"#utility.yul\":279:284   */\n      dup2\n        /* \"#utility.yul\":252:285   */\n      tag_175\n      jump\t// in\n    tag_174:\n        /* \"#utility.yul\":152:291   */\n      swap3\n      swap2\n      pop\n      pop\n      jump\t// out\n        /* \"#utility.yul\":297:626   */\n    tag_25:\n        /* \"#utility.yul\":356:362   */\n      0x00\n        /* \"#utility.yul\":405:407   */\n      0x20\n        /* \"#utility.yul\":393:402   */\n      dup3\n        /* \"#utility.yul\":384:391   */\n      dup5\n        /* \"#utility.yul\":380:403   */\n      sub\n        /* \"#utility.yul\":376:408   */\n      slt\n        /* \"#utility.yul\":373:492   */\n      iszero\n      tag_177\n      jumpi\n        /* \"#utility.yul\":411:490   */\n      tag_178\n      tag_179\n      jump\t// in\n    tag_178:\n        /* \"#utility.yul\":373:492   */\n    tag_177:\n        /* \"#utility.yul\":531:532   */\n      0x00\n        /* \"#utility.yul\":556:609   */\n      tag_180\n        /* \"#utility.yul\":601:608   */\n      dup5\n        /* \"#utility.yul\":592:598   */\n      dup3\n        /* \"#utility.yul\":581:590   */\n      dup6\n        /* \"#utility.yul\":577:599   */\n      add\n        /* \"#utility.yul\":556:609   */\n      tag_168\n      jump\t// in\n    tag_180:\n        /* \"#utility.yul\":546:609   */\n      swap2\n      pop\n        /* \"#utility.yul\":502:619   */\n      pop\n        /* \"#utility.yul\":297:626   */\n      swap3\n      swap2\n      pop\n      pop\n      jump\t// out\n        /* \"#utility.yul\":632:1106   */\n    tag_33:\n        /* \"#utility.yul\":700:706   */\n      0x00\n        /* \"#utility.yul\":708:714   */\n      dup1\n        /* \"#utility.yul\":757:759   */\n      0x40\n        /* \"#utility.yul\":745:754   */\n      dup4\n        /* \"#utility.yul\":736:743   */\n      dup6\n        /* \"#utility.yul\":732:755   */\n      sub\n        /* \"#utility.yul\":728:760   */\n      slt\n        /* \"#utility.yul\":725:844   */\n      iszero\n      tag_182\n      jumpi\n        /* \"#utility.yul\":763:842   */\n      tag_183\n      tag_179\n      jump\t// in\n    tag_183:\n        /* \"#utility.yul\":725:844   */\n    tag_182:\n        /* \"#utility.yul\":883:884   */\n      0x00\n        /* \"#utility.yul\":908:961   */\n      tag_184\n        /* \"#utility.yul\":953:960   */\n      dup6\n        /* \"#utility.yul\":944:950   */\n      dup3\n        /* \"#utility.yul\":933:942   */\n      dup7\n        /* \"#utility.yul\":929:951   */\n      add\n        /* \"#utility.yul\":908:961   */\n      tag_172\n      jump\t// in\n    tag_184:\n        /* \"#utility.yul\":898:961   */\n      swap3\n      pop\n        /* \"#utility.yul\":854:971   */\n      pop\n        /* \"#utility.yul\":1010:1012   */\n      0x20\n        /* \"#utility.yul\":1036:1089   */\n      tag_185\n        /* \"#utility.yul\":1081:1088   */\n      dup6\n        /* \"#utility.yul\":1072:1078   */\n      dup3\n        /* \"#utility.yul\":1061:1070   */\n      dup7\n        /* \"#utility.yul\":1057:1079   */\n      add\n        /* \"#utility.yul\":1036:1089   */\n      tag_168\n      jump\t// in\n    tag_185:\n        /* \"#utility.yul\":1026:1089   */\n      swap2\n      pop\n        /* \"#utility.yul\":981:1099   */\n      pop\n        /* \"#utility.yul\":632:1106   */\n      swap3\n      pop\n      swap3\n      swap1\n      pop\n      jump\t// out\n        /* \"#utility.yul\":1112:1254   */\n    tag_186:\n        /* \"#utility.yul\":1215:1247   */\n      tag_188\n        /* \"#utility.yul\":1241:1246   */\n      dup2\n        /* \"#utility.yul\":1215:1247   */\n      tag_189\n      jump\t// in\n    tag_188:\n        /* \"#utility.yul\":1210:1213   */\n      dup3\n        /* \"#utility.yul\":1203:1248   */\n      mstore\n        /* \"#utility.yul\":1112:1254   */\n      pop\n      pop\n      jump\t// out\n        /* \"#utility.yul\":1260:1378   */\n    tag_190:\n        /* \"#utility.yul\":1347:1371   */\n      tag_192\n        /* \"#utility.yul\":1365:1370   */\n      dup2\n        /* \"#utility.yul\":1347:1371   */\n      tag_193\n      jump\t// in\n    tag_192:\n        /* \"#utility.yul\":1342:1345   */\n      dup3\n        /* \"#utility.yul\":1335:1372   */\n      mstore\n        /* \"#utility.yul\":1260:1378   */\n      pop\n      pop\n      jump\t// out\n        /* \"#utility.yul\":1384:1493   */\n    tag_194:\n        /* \"#utility.yul\":1465:1486   */\n      tag_196\n        /* \"#utility.yul\":1480:1485   */\n      dup2\n        /* \"#utility.yul\":1465:1486   */\n      tag_197\n      jump\t// in\n    tag_196:\n        /* \"#utility.yul\":1460:1463   */\n      dup3\n        /* \"#utility.yul\":1453:1487   */\n      mstore\n        /* \"#utility.yul\":1384:1493   */\n      pop\n      pop\n      jump\t// out\n        /* \"#utility.yul\":1499:1865   */\n    tag_198:\n        /* \"#utility.yul\":1641:1644   */\n      0x00\n        /* \"#utility.yul\":1662:1729   */\n      tag_200\n        /* \"#utility.yul\":1726:1728   */\n      0x13\n        /* \"#utility.yul\":1721:1724   */\n      dup4\n        /* \"#utility.yul\":1662:1729   */\n      tag_201\n      jump\t// in\n    tag_200:\n        /* \"#utility.yul\":1655:1729   */\n      swap2\n      pop\n        /* \"#utility.yul\":1738:1831   */\n      tag_202\n        /* \"#utility.yul\":1827:1830   */\n      dup3\n        /* \"#utility.yul\":1738:1831   */\n      tag_203\n      jump\t// in\n    tag_202:\n        /* \"#utility.yul\":1856:1858   */\n      0x20\n        /* \"#utility.yul\":1851:1854   */\n      dup3\n        /* \"#utility.yul\":1847:1859   */\n      add\n        /* \"#utility.yul\":1840:1859   */\n      swap1\n      pop\n        /* \"#utility.yul\":1499:1865   */\n      swap2\n      swap1\n      pop\n      jump\t// out\n        /* \"#utility.yul\":1871:2237   */\n    tag_204:\n        /* \"#utility.yul\":2013:2016   */\n      0x00\n        /* \"#utility.yul\":2034:2101   */\n      tag_206\n        /* \"#utility.yul\":2098:2100   */\n      0x11\n        /* \"#utility.yul\":2093:2096   */\n      dup4\n        /* \"#utility.yul\":2034:2101   */\n      tag_201\n      jump\t// in\n    tag_206:\n        /* \"#utility.yul\":2027:2101   */\n      swap2\n      pop\n        /* \"#utility.yul\":2110:2203   */\n      tag_207\n        /* \"#utility.yul\":2199:2202   */\n      dup3\n        /* \"#utility.yul\":2110:2203   */\n      tag_208\n      jump\t// in\n    tag_207:\n        /* \"#utility.yul\":2228:2230   */\n      0x20\n        /* \"#utility.yul\":2223:2226   */\n      dup3\n        /* \"#utility.yul\":2219:2231   */\n      add\n        /* \"#utility.yul\":2212:2231   */\n      swap1\n      pop\n        /* \"#utility.yul\":1871:2237   */\n      swap2\n      swap1\n      pop\n      jump\t// out\n        /* \"#utility.yul\":2243:2609   */\n    tag_209:\n        /* \"#utility.yul\":2385:2388   */\n      0x00\n        /* \"#utility.yul\":2406:2473   */\n      tag_211\n        /* \"#utility.yul\":2470:2472   */\n      0x29\n        /* \"#utility.yul\":2465:2468   */\n      dup4\n        /* \"#utility.yul\":2406:2473   */\n      tag_201\n      jump\t// in\n    tag_211:\n        /* \"#utility.yul\":2399:2473   */\n      swap2\n      pop\n        /* \"#utility.yul\":2482:2575   */\n      tag_212\n        /* \"#utility.yul\":2571:2574   */\n      dup3\n        /* \"#utility.yul\":2482:2575   */\n      tag_213\n      jump\t// in\n    tag_212:\n        /* \"#utility.yul\":2600:2602   */\n      0x40\n        /* \"#utility.yul\":2595:2598   */\n      dup3\n        /* \"#utility.yul\":2591:2603   */\n      add\n        /* \"#utility.yul\":2584:2603   */\n      swap1\n      pop\n        /* \"#utility.yul\":2243:2609   */\n      swap2\n      swap1\n      pop\n      jump\t// out\n        /* \"#utility.yul\":2615:2981   */\n    tag_214:\n        /* \"#utility.yul\":2757:2760   */\n      0x00\n        /* \"#utility.yul\":2778:2845   */\n      tag_216\n        /* \"#utility.yul\":2842:2844   */\n      0x20\n        /* \"#utility.yul\":2837:2840   */\n      dup4\n        /* \"#utility.yul\":2778:2845   */\n      tag_201\n      jump\t// in\n    tag_216:\n        /* \"#utility.yul\":2771:2845   */\n      swap2\n      pop\n        /* \"#utility.yul\":2854:2947   */\n      tag_217\n        /* \"#utility.yul\":2943:2946   */\n      dup3\n        /* \"#utility.yul\":2854:2947   */\n      tag_218\n      jump\t// in\n    tag_217:\n        /* \"#utility.yul\":2972:2974   */\n      0x20\n        /* \"#utility.yul\":2967:2970   */\n      dup3\n        /* \"#utility.yul\":2963:2975   */\n      add\n        /* \"#utility.yul\":2956:2975   */\n      swap1\n      pop\n        /* \"#utility.yul\":2615:2981   */\n      swap2\n      swap1\n      pop\n      jump\t// out\n        /* \"#utility.yul\":2987:3353   */\n    tag_219:\n        /* \"#utility.yul\":3129:3132   */\n      0x00\n        /* \"#utility.yul\":3150:3217   */\n      tag_221\n        /* \"#utility.yul\":3214:3216   */\n      0x18\n        /* \"#utility.yul\":3209:3212   */\n      dup4\n        /* \"#utility.yul\":3150:3217   */\n      tag_201\n      jump\t// in\n    tag_221:\n        /* \"#utility.yul\":3143:3217   */\n      swap2\n      pop\n        /* \"#utility.yul\":3226:3319   */\n      tag_222\n        /* \"#utility.yul\":3315:3318   */\n      dup3\n        /* \"#utility.yul\":3226:3319   */\n      tag_223\n      jump\t// in\n    tag_222:\n        /* \"#utility.yul\":3344:3346   */\n      0x20\n        /* \"#utility.yul\":3339:3342   */\n      dup3\n        /* \"#utility.yul\":3335:3347   */\n      add\n        /* \"#utility.yul\":3328:3347   */\n      swap1\n      pop\n        /* \"#utility.yul\":2987:3353   */\n      swap2\n      swap1\n      pop\n      jump\t// out\n        /* \"#utility.yul\":3359:3725   */\n    tag_224:\n        /* \"#utility.yul\":3501:3504   */\n      0x00\n        /* \"#utility.yul\":3522:3589   */\n      tag_226\n        /* \"#utility.yul\":3586:3588   */\n      0x24\n        /* \"#utility.yul\":3581:3584   */\n      dup4\n        /* \"#utility.yul\":3522:3589   */\n      tag_201\n      jump\t// in\n    tag_226:\n        /* \"#utility.yul\":3515:3589   */\n      swap2\n      pop\n        /* \"#utility.yul\":3598:3691   */\n      tag_227\n        /* \"#utility.yul\":3687:3690   */\n      dup3\n        /* \"#utility.yul\":3598:3691   */\n      tag_228\n      jump\t// in\n    tag_227:\n        /* \"#utility.yul\":3716:3718   */\n      0x40\n        /* \"#utility.yul\":3711:3714   */\n      dup3\n        /* \"#utility.yul\":3707:3719   */\n      add\n        /* \"#utility.yul\":3700:3719   */\n      swap1\n      pop\n        /* \"#utility.yul\":3359:3725   */\n      swap2\n      swap1\n      pop\n      jump\t// out\n        /* \"#utility.yul\":3731:4097   */\n    tag_229:\n        /* \"#utility.yul\":3873:3876   */\n      0x00\n        /* \"#utility.yul\":3894:3961   */\n      tag_231\n        /* \"#utility.yul\":3958:3960   */\n      0x22\n        /* \"#utility.yul\":3953:3956   */\n      dup4\n        /* \"#utility.yul\":3894:3961   */\n      tag_201\n      jump\t// in\n    tag_231:\n        /* \"#utility.yul\":3887:3961   */\n      swap2\n      pop\n        /* \"#utility.yul\":3970:4063   */\n      tag_232\n        /* \"#utility.yul\":4059:4062   */\n      dup3\n        /* \"#utility.yul\":3970:4063   */\n      tag_233\n      jump\t// in\n    tag_232:\n        /* \"#utility.yul\":4088:4090   */\n      0x40\n        /* \"#utility.yul\":4083:4086   */\n      dup3\n        /* \"#utility.yul\":4079:4091   */\n      add\n        /* \"#utility.yul\":4072:4091   */\n      swap1\n      pop\n        /* \"#utility.yul\":3731:4097   */\n      swap2\n      swap1\n      pop\n      jump\t// out\n        /* \"#utility.yul\":4103:4468   */\n    tag_234:\n        /* \"#utility.yul\":4245:4248   */\n      0x00\n        /* \"#utility.yul\":4266:4332   */\n      tag_236\n        /* \"#utility.yul\":4330:4331   */\n      0x06\n        /* \"#utility.yul\":4325:4328   */\n      dup4\n        /* \"#utility.yul\":4266:4332   */\n      tag_201\n      jump\t// in\n    tag_236:\n        /* \"#utility.yul\":4259:4332   */\n      swap2\n      pop\n        /* \"#utility.yul\":4341:4434   */\n      tag_237\n        /* \"#utility.yul\":4430:4433   */\n      dup3\n        /* \"#utility.yul\":4341:4434   */\n      tag_238\n      jump\t// in\n    tag_237:\n        /* \"#utility.yul\":4459:4461   */\n      0x20\n        /* \"#utility.yul\":4454:4457   */\n      dup3\n        /* \"#utility.yul\":4450:4462   */\n      add\n        /* \"#utility.yul\":4443:4462   */\n      swap1\n      pop\n        /* \"#utility.yul\":4103:4468   */\n      swap2\n      swap1\n      pop\n      jump\t// out\n        /* \"#utility.yul\":4474:4840   */\n    tag_239:\n        /* \"#utility.yul\":4616:4619   */\n      0x00\n        /* \"#utility.yul\":4637:4704   */\n      tag_241\n        /* \"#utility.yul\":4701:4703   */\n      0x12\n        /* \"#utility.yul\":4696:4699   */\n      dup4\n        /* \"#utility.yul\":4637:4704   */\n      tag_201\n      jump\t// in\n    tag_241:\n        /* \"#utility.yul\":4630:4704   */\n      swap2\n      pop\n        /* \"#utility.yul\":4713:4806   */\n      tag_242\n        /* \"#utility.yul\":4802:4805   */\n      dup3\n        /* \"#utility.yul\":4713:4806   */\n      tag_243\n      jump\t// in\n    tag_242:\n        /* \"#utility.yul\":4831:4833   */\n      0x20\n        /* \"#utility.yul\":4826:4829   */\n      dup3\n        /* \"#utility.yul\":4822:4834   */\n      add\n        /* \"#utility.yul\":4815:4834   */\n      swap1\n      pop\n        /* \"#utility.yul\":4474:4840   */\n      swap2\n      swap1\n      pop\n      jump\t// out\n        /* \"#utility.yul\":4846:5212   */\n    tag_244:\n        /* \"#utility.yul\":4988:4991   */\n      0x00\n        /* \"#utility.yul\":5009:5076   */\n      tag_246\n        /* \"#utility.yul\":5073:5075   */\n      0x0f\n        /* \"#utility.yul\":5068:5071   */\n      dup4\n        /* \"#utility.yul\":5009:5076   */\n      tag_201\n      jump\t// in\n    tag_246:\n        /* \"#utility.yul\":5002:5076   */\n      swap2\n      pop\n        /* \"#utility.yul\":5085:5178   */\n      tag_247\n        /* \"#utility.yul\":5174:5177   */\n      dup3\n        /* \"#utility.yul\":5085:5178   */\n      tag_248\n      jump\t// in\n    tag_247:\n        /* \"#utility.yul\":5203:5205   */\n      0x20\n        /* \"#utility.yul\":5198:5201   */\n      dup3\n        /* \"#utility.yul\":5194:5206   */\n      add\n        /* \"#utility.yul\":5187:5206   */\n      swap1\n      pop\n        /* \"#utility.yul\":4846:5212   */\n      swap2\n      swap1\n      pop\n      jump\t// out\n        /* \"#utility.yul\":5218:5584   */\n    tag_249:\n        /* \"#utility.yul\":5360:5363   */\n      0x00\n        /* \"#utility.yul\":5381:5448   */\n      tag_251\n        /* \"#utility.yul\":5445:5447   */\n      0x24\n        /* \"#utility.yul\":5440:5443   */\n      dup4\n        /* \"#utility.yul\":5381:5448   */\n      tag_201\n      jump\t// in\n    tag_251:\n        /* \"#utility.yul\":5374:5448   */\n      swap2\n      pop\n        /* \"#utility.yul\":5457:5550   */\n      tag_252\n        /* \"#utility.yul\":5546:5549   */\n      dup3\n        /* \"#utility.yul\":5457:5550   */\n      tag_253\n      jump\t// in\n    tag_252:\n        /* \"#utility.yul\":5575:5577   */\n      0x40\n        /* \"#utility.yul\":5570:5573   */\n      dup3\n        /* \"#utility.yul\":5566:5578   */\n      add\n        /* \"#utility.yul\":5559:5578   */\n      swap1\n      pop\n        /* \"#utility.yul\":5218:5584   */\n      swap2\n      swap1\n      pop\n      jump\t// out\n        /* \"#utility.yul\":5590:5956   */\n    tag_254:\n        /* \"#utility.yul\":5732:5735   */\n      0x00\n        /* \"#utility.yul\":5753:5820   */\n      tag_256\n        /* \"#utility.yul\":5817:5819   */\n      0x0e\n        /* \"#utility.yul\":5812:5815   */\n      dup4\n        /* \"#utility.yul\":5753:5820   */\n      tag_201\n      jump\t// in\n    tag_256:\n        /* \"#utility.yul\":5746:5820   */\n      swap2\n      pop\n        /* \"#utility.yul\":5829:5922   */\n      tag_257\n        /* \"#utility.yul\":5918:5921   */\n      dup3\n        /* \"#utility.yul\":5829:5922   */\n      tag_258\n      jump\t// in\n    tag_257:\n        /* \"#utility.yul\":5947:5949   */\n      0x20\n        /* \"#utility.yul\":5942:5945   */\n      dup3\n        /* \"#utility.yul\":5938:5950   */\n      add\n        /* \"#utility.yul\":5931:5950   */\n      swap1\n      pop\n        /* \"#utility.yul\":5590:5956   */\n      swap2\n      swap1\n      pop\n      jump\t// out\n        /* \"#utility.yul\":5962:6328   */\n    tag_259:\n        /* \"#utility.yul\":6104:6107   */\n      0x00\n        /* \"#utility.yul\":6125:6192   */\n      tag_261\n        /* \"#utility.yul\":6189:6191   */\n      0x2c\n        /* \"#utility.yul\":6184:6187   */\n      dup4\n        /* \"#utility.yul\":6125:6192   */\n      tag_201\n      jump\t// in\n    tag_261:\n        /* \"#utility.yul\":6118:6192   */\n      swap2\n      pop\n        /* \"#utility.yul\":6201:6294   */\n      tag_262\n        /* \"#utility.yul\":6290:6293   */\n      dup3\n        /* \"#utility.yul\":6201:6294   */\n      tag_263\n      jump\t// in\n    tag_262:\n        /* \"#utility.yul\":6319:6321   */\n      0x40\n        /* \"#utility.yul\":6314:6317   */\n      dup3\n        /* \"#utility.yul\":6310:6322   */\n      add\n        /* \"#utility.yul\":6303:6322   */\n      swap1\n      pop\n        /* \"#utility.yul\":5962:6328   */\n      swap2\n      swap1\n      pop\n      jump\t// out\n        /* \"#utility.yul\":6334:6700   */\n    tag_264:\n        /* \"#utility.yul\":6476:6479   */\n      0x00\n        /* \"#utility.yul\":6497:6564   */\n      tag_266\n        /* \"#utility.yul\":6561:6563   */\n      0x0e\n        /* \"#utility.yul\":6556:6559   */\n      dup4\n        /* \"#utility.yul\":6497:6564   */\n      tag_201\n      jump\t// in\n    tag_266:\n        /* \"#utility.yul\":6490:6564   */\n      swap2\n      pop\n        /* \"#utility.yul\":6573:6666   */\n      tag_267\n        /* \"#utility.yul\":6662:6665   */\n      dup3\n        /* \"#utility.yul\":6573:6666   */\n      tag_268\n      jump\t// in\n    tag_267:\n        /* \"#utility.yul\":6691:6693   */\n      0x20\n        /* \"#utility.yul\":6686:6689   */\n      dup3\n        /* \"#utility.yul\":6682:6694   */\n      add\n        /* \"#utility.yul\":6675:6694   */\n      swap1\n      pop\n        /* \"#utility.yul\":6334:6700   */\n      swap2\n      swap1\n      pop\n      jump\t// out\n        /* \"#utility.yul\":6706:7072   */\n    tag_269:\n        /* \"#utility.yul\":6848:6851   */\n      0x00\n        /* \"#utility.yul\":6869:6936   */\n      tag_271\n        /* \"#utility.yul\":6933:6935   */\n      0x27\n        /* \"#utility.yul\":6928:6931   */\n      dup4\n        /* \"#utility.yul\":6869:6936   */\n      tag_201\n      jump\t// in\n    tag_271:\n        /* \"#utility.yul\":6862:6936   */\n      swap2\n      pop\n        /* \"#utility.yul\":6945:7038   */\n      tag_272\n        /* \"#utility.yul\":7034:7037   */\n      dup3\n        /* \"#utility.yul\":6945:7038   */\n      tag_273\n      jump\t// in\n    tag_272:\n        /* \"#utility.yul\":7063:7065   */\n      0x40\n        /* \"#utility.yul\":7058:7061   */\n      dup3\n        /* \"#utility.yul\":7054:7066   */\n      add\n        /* \"#utility.yul\":7047:7066   */\n      swap1\n      pop\n        /* \"#utility.yul\":6706:7072   */\n      swap2\n      swap1\n      pop\n      jump\t// out\n        /* \"#utility.yul\":7078:7444   */\n    tag_274:\n        /* \"#utility.yul\":7220:7223   */\n      0x00\n        /* \"#utility.yul\":7241:7308   */\n      tag_276\n        /* \"#utility.yul\":7305:7307   */\n      0x32\n        /* \"#utility.yul\":7300:7303   */\n      dup4\n        /* \"#utility.yul\":7241:7308   */\n      tag_201\n      jump\t// in\n    tag_276:\n        /* \"#utility.yul\":7234:7308   */\n      swap2\n      pop\n        /* \"#utility.yul\":7317:7410   */\n      tag_277\n        /* \"#utility.yul\":7406:7409   */\n      dup3\n        /* \"#utility.yul\":7317:7410   */\n      tag_278\n      jump\t// in\n    tag_277:\n        /* \"#utility.yul\":7435:7437   */\n      0x40\n        /* \"#utility.yul\":7430:7433   */\n      dup3\n        /* \"#utility.yul\":7426:7438   */\n      add\n        /* \"#utility.yul\":7419:7438   */\n      swap1\n      pop\n        /* \"#utility.yul\":7078:7444   */\n      swap2\n      swap1\n      pop\n      jump\t// out\n        /* \"#utility.yul\":7450:7816   */\n    tag_279:\n        /* \"#utility.yul\":7592:7595   */\n      0x00\n        /* \"#utility.yul\":7613:7680   */\n      tag_281\n        /* \"#utility.yul\":7677:7679   */\n      0x14\n        /* \"#utility.yul\":7672:7675   */\n      dup4\n        /* \"#utility.yul\":7613:7680   */\n      tag_201\n      jump\t// in\n    tag_281:\n        /* \"#utility.yul\":7606:7680   */\n      swap2\n      pop\n        /* \"#utility.yul\":7689:7782   */\n      tag_282\n        /* \"#utility.yul\":7778:7781   */\n      dup3\n        /* \"#utility.yul\":7689:7782   */\n      tag_283\n      jump\t// in\n    tag_282:\n        /* \"#utility.yul\":7807:7809   */\n      0x20\n        /* \"#utility.yul\":7802:7805   */\n      dup3\n        /* \"#utility.yul\":7798:7810   */\n      add\n        /* \"#utility.yul\":7791:7810   */\n      swap1\n      pop\n        /* \"#utility.yul\":7450:7816   */\n      swap2\n      swap1\n      pop\n      jump\t// out\n        /* \"#utility.yul\":7822:7940   */\n    tag_284:\n        /* \"#utility.yul\":7909:7933   */\n      tag_286\n        /* \"#utility.yul\":7927:7932   */\n      dup2\n        /* \"#utility.yul\":7909:7933   */\n      tag_287\n      jump\t// in\n    tag_286:\n        /* \"#utility.yul\":7904:7907   */\n      dup3\n        /* \"#utility.yul\":7897:7934   */\n      mstore\n        /* \"#utility.yul\":7822:7940   */\n      pop\n      pop\n      jump\t// out\n        /* \"#utility.yul\":7946:8168   */\n    tag_60:\n        /* \"#utility.yul\":8039:8043   */\n      0x00\n        /* \"#utility.yul\":8077:8079   */\n      0x20\n        /* \"#utility.yul\":8066:8075   */\n      dup3\n        /* \"#utility.yul\":8062:8080   */\n      add\n        /* \"#utility.yul\":8054:8080   */\n      swap1\n      pop\n        /* \"#utility.yul\":8090:8161   */\n      tag_289\n        /* \"#utility.yul\":8158:8159   */\n      0x00\n        /* \"#utility.yul\":8147:8156   */\n      dup4\n        /* \"#utility.yul\":8143:8160   */\n      add\n        /* \"#utility.yul\":8134:8140   */\n      dup5\n        /* \"#utility.yul\":8090:8161   */\n      tag_190\n      jump\t// in\n    tag_289:\n        /* \"#utility.yul\":7946:8168   */\n      swap3\n      swap2\n      pop\n      pop\n      jump\t// out\n        /* \"#utility.yul\":8174:8428   */\n    tag_55:\n        /* \"#utility.yul\":8283:8287   */\n      0x00\n        /* \"#utility.yul\":8321:8323   */\n      0x20\n        /* \"#utility.yul\":8310:8319   */\n      dup3\n        /* \"#utility.yul\":8306:8324   */\n      add\n        /* \"#utility.yul\":8298:8324   */\n      swap1\n      pop\n        /* \"#utility.yul\":8334:8421   */\n      tag_291\n        /* \"#utility.yul\":8418:8419   */\n      0x00\n        /* \"#utility.yul\":8407:8416   */\n      dup4\n        /* \"#utility.yul\":8403:8420   */\n      add\n        /* \"#utility.yul\":8394:8400   */\n      dup5\n        /* \"#utility.yul\":8334:8421   */\n      tag_186\n      jump\t// in\n    tag_291:\n        /* \"#utility.yul\":8174:8428   */\n      swap3\n      swap2\n      pop\n      pop\n      jump\t// out\n        /* \"#utility.yul\":8434:8644   */\n    tag_71:\n        /* \"#utility.yul\":8521:8525   */\n      0x00\n        /* \"#utility.yul\":8559:8561   */\n      0x20\n        /* \"#utility.yul\":8548:8557   */\n      dup3\n        /* \"#utility.yul\":8544:8562   */\n      add\n        /* \"#utility.yul\":8536:8562   */\n      swap1\n      pop\n        /* \"#utility.yul\":8572:8637   */\n      tag_293\n        /* \"#utility.yul\":8634:8635   */\n      0x00\n        /* \"#utility.yul\":8623:8632   */\n      dup4\n        /* \"#utility.yul\":8619:8636   */\n      add\n        /* \"#utility.yul\":8610:8616   */\n      dup5\n        /* \"#utility.yul\":8572:8637   */\n      tag_194\n      jump\t// in\n    tag_293:\n        /* \"#utility.yul\":8434:8644   */\n      swap3\n      swap2\n      pop\n      pop\n      jump\t// out\n        /* \"#utility.yul\":8650:9179   */\n    tag_106:\n        /* \"#utility.yul\":8844:8848   */\n      0x00\n        /* \"#utility.yul\":8882:8884   */\n      0x40\n        /* \"#utility.yul\":8871:8880   */\n      dup3\n        /* \"#utility.yul\":8867:8885   */\n      add\n        /* \"#utility.yul\":8859:8885   */\n      swap1\n      pop\n        /* \"#utility.yul\":8931:8940   */\n      dup2\n        /* \"#utility.yul\":8925:8929   */\n      dup2\n        /* \"#utility.yul\":8921:8941   */\n      sub\n        /* \"#utility.yul\":8917:8918   */\n      0x00\n        /* \"#utility.yul\":8906:8915   */\n      dup4\n        /* \"#utility.yul\":8902:8919   */\n      add\n        /* \"#utility.yul\":8895:8942   */\n      mstore\n        /* \"#utility.yul\":8959:9090   */\n      tag_295\n        /* \"#utility.yul\":9085:9089   */\n      dup2\n        /* \"#utility.yul\":8959:9090   */\n      tag_198\n      jump\t// in\n    tag_295:\n        /* \"#utility.yul\":8951:9090   */\n      swap1\n      pop\n        /* \"#utility.yul\":9100:9172   */\n      tag_296\n        /* \"#utility.yul\":9168:9170   */\n      0x20\n        /* \"#utility.yul\":9157:9166   */\n      dup4\n        /* \"#utility.yul\":9153:9171   */\n      add\n        /* \"#utility.yul\":9144:9150   */\n      dup5\n        /* \"#utility.yul\":9100:9172   */\n      tag_190\n      jump\t// in\n    tag_296:\n        /* \"#utility.yul\":8650:9179   */\n      swap3\n      swap2\n      pop\n      pop\n      jump\t// out\n        /* \"#utility.yul\":9185:9714   */\n    tag_85:\n        /* \"#utility.yul\":9379:9383   */\n      0x00\n        /* \"#utility.yul\":9417:9419   */\n      0x40\n        /* \"#utility.yul\":9406:9415   */\n      dup3\n        /* \"#utility.yul\":9402:9420   */\n      add\n        /* \"#utility.yul\":9394:9420   */\n      swap1\n      pop\n        /* \"#utility.yul\":9466:9475   */\n      dup2\n        /* \"#utility.yul\":9460:9464   */\n      dup2\n        /* \"#utility.yul\":9456:9476   */\n      sub\n        /* \"#utility.yul\":9452:9453   */\n      0x00\n        /* \"#utility.yul\":9441:9450   */\n      dup4\n        /* \"#utility.yul\":9437:9454   */\n      add\n        /* \"#utility.yul\":9430:9477   */\n      mstore\n        /* \"#utility.yul\":9494:9625   */\n      tag_298\n        /* \"#utility.yul\":9620:9624   */\n      dup2\n        /* \"#utility.yul\":9494:9625   */\n      tag_204\n      jump\t// in\n    tag_298:\n        /* \"#utility.yul\":9486:9625   */\n      swap1\n      pop\n        /* \"#utility.yul\":9635:9707   */\n      tag_299\n        /* \"#utility.yul\":9703:9705   */\n      0x20\n        /* \"#utility.yul\":9692:9701   */\n      dup4\n        /* \"#utility.yul\":9688:9706   */\n      add\n        /* \"#utility.yul\":9679:9685   */\n      dup5\n        /* \"#utility.yul\":9635:9707   */\n      tag_190\n      jump\t// in\n    tag_299:\n        /* \"#utility.yul\":9185:9714   */\n      swap3\n      swap2\n      pop\n      pop\n      jump\t// out\n        /* \"#utility.yul\":9720:10139   */\n    tag_96:\n        /* \"#utility.yul\":9886:9890   */\n      0x00\n        /* \"#utility.yul\":9924:9926   */\n      0x20\n        /* \"#utility.yul\":9913:9922   */\n      dup3\n        /* \"#utility.yul\":9909:9927   */\n      add\n        /* \"#utility.yul\":9901:9927   */\n      swap1\n      pop\n        /* \"#utility.yul\":9973:9982   */\n      dup2\n        /* \"#utility.yul\":9967:9971   */\n      dup2\n        /* \"#utility.yul\":9963:9983   */\n      sub\n        /* \"#utility.yul\":9959:9960   */\n      0x00\n        /* \"#utility.yul\":9948:9957   */\n      dup4\n        /* \"#utility.yul\":9944:9961   */\n      add\n        /* \"#utility.yul\":9937:9984   */\n      mstore\n        /* \"#utility.yul\":10001:10132   */\n      tag_301\n        /* \"#utility.yul\":10127:10131   */\n      dup2\n        /* \"#utility.yul\":10001:10132   */\n      tag_209\n      jump\t// in\n    tag_301:\n        /* \"#utility.yul\":9993:10132   */\n      swap1\n      pop\n        /* \"#utility.yul\":9720:10139   */\n      swap2\n      swap1\n      pop\n      jump\t// out\n        /* \"#utility.yul\":10145:10564   */\n    tag_116:\n        /* \"#utility.yul\":10311:10315   */\n      0x00\n        /* \"#utility.yul\":10349:10351   */\n      0x20\n        /* \"#utility.yul\":10338:10347   */\n      dup3\n        /* \"#utility.yul\":10334:10352   */\n      add\n        /* \"#utility.yul\":10326:10352   */\n      swap1\n      pop\n        /* \"#utility.yul\":10398:10407   */\n      dup2\n        /* \"#utility.yul\":10392:10396   */\n      dup2\n        /* \"#utility.yul\":10388:10408   */\n      sub\n        /* \"#utility.yul\":10384:10385   */\n      0x00\n        /* \"#utility.yul\":10373:10382   */\n      dup4\n        /* \"#utility.yul\":10369:10386   */\n      add\n        /* \"#utility.yul\":10362:10409   */\n      mstore\n        /* \"#utility.yul\":10426:10557   */\n      tag_303\n        /* \"#utility.yul\":10552:10556   */\n      dup2\n        /* \"#utility.yul\":10426:10557   */\n      tag_214\n      jump\t// in\n    tag_303:\n        /* \"#utility.yul\":10418:10557   */\n      swap1\n      pop\n        /* \"#utility.yul\":10145:10564   */\n      swap2\n      swap1\n      pop\n      jump\t// out\n        /* \"#utility.yul\":10570:10989   */\n    tag_138:\n        /* \"#utility.yul\":10736:10740   */\n      0x00\n        /* \"#utility.yul\":10774:10776   */\n      0x20\n        /* \"#utility.yul\":10763:10772   */\n      dup3\n        /* \"#utility.yul\":10759:10777   */\n      add\n        /* \"#utility.yul\":10751:10777   */\n      swap1\n      pop\n        /* \"#utility.yul\":10823:10832   */\n      dup2\n        /* \"#utility.yul\":10817:10821   */\n      dup2\n        /* \"#utility.yul\":10813:10833   */\n      sub\n        /* \"#utility.yul\":10809:10810   */\n      0x00\n        /* \"#utility.yul\":10798:10807   */\n      dup4\n        /* \"#utility.yul\":10794:10811   */\n      add\n        /* \"#utility.yul\":10787:10834   */\n      mstore\n        /* \"#utility.yul\":10851:10982   */\n      tag_305\n        /* \"#utility.yul\":10977:10981   */\n      dup2\n        /* \"#utility.yul\":10851:10982   */\n      tag_219\n      jump\t// in\n    tag_305:\n        /* \"#utility.yul\":10843:10982   */\n      swap1\n      pop\n        /* \"#utility.yul\":10570:10989   */\n      swap2\n      swap1\n      pop\n      jump\t// out\n        /* \"#utility.yul\":10995:11414   */\n    tag_110:\n        /* \"#utility.yul\":11161:11165   */\n      0x00\n        /* \"#utility.yul\":11199:11201   */\n      0x20\n        /* \"#utility.yul\":11188:11197   */\n      dup3\n        /* \"#utility.yul\":11184:11202   */\n      add\n        /* \"#utility.yul\":11176:11202   */\n      swap1\n      pop\n        /* \"#utility.yul\":11248:11257   */\n      dup2\n        /* \"#utility.yul\":11242:11246   */\n      dup2\n        /* \"#utility.yul\":11238:11258   */\n      sub\n        /* \"#utility.yul\":11234:11235   */\n      0x00\n        /* \"#utility.yul\":11223:11232   */\n      dup4\n        /* \"#utility.yul\":11219:11236   */\n      add\n        /* \"#utility.yul\":11212:11259   */\n      mstore\n        /* \"#utility.yul\":11276:11407   */\n      tag_307\n        /* \"#utility.yul\":11402:11406   */\n      dup2\n        /* \"#utility.yul\":11276:11407   */\n      tag_224\n      jump\t// in\n    tag_307:\n        /* \"#utility.yul\":11268:11407   */\n      swap1\n      pop\n        /* \"#utility.yul\":10995:11414   */\n      swap2\n      swap1\n      pop\n      jump\t// out\n        /* \"#utility.yul\":11420:11839   */\n    tag_89:\n        /* \"#utility.yul\":11586:11590   */\n      0x00\n        /* \"#utility.yul\":11624:11626   */\n      0x20\n        /* \"#utility.yul\":11613:11622   */\n      dup3\n        /* \"#utility.yul\":11609:11627   */\n      add\n        /* \"#utility.yul\":11601:11627   */\n      swap1\n      pop\n        /* \"#utility.yul\":11673:11682   */\n      dup2\n        /* \"#utility.yul\":11667:11671   */\n      dup2\n        /* \"#utility.yul\":11663:11683   */\n      sub\n        /* \"#utility.yul\":11659:11660   */\n      0x00\n        /* \"#utility.yul\":11648:11657   */\n      dup4\n        /* \"#utility.yul\":11644:11661   */\n      add\n        /* \"#utility.yul\":11637:11684   */\n      mstore\n        /* \"#utility.yul\":11701:11832   */\n      tag_309\n        /* \"#utility.yul\":11827:11831   */\n      dup2\n        /* \"#utility.yul\":11701:11832   */\n      tag_229\n      jump\t// in\n    tag_309:\n        /* \"#utility.yul\":11693:11832   */\n      swap1\n      pop\n        /* \"#utility.yul\":11420:11839   */\n      swap2\n      swap1\n      pop\n      jump\t// out\n        /* \"#utility.yul\":11845:12374   */\n    tag_142:\n        /* \"#utility.yul\":12039:12043   */\n      0x00\n        /* \"#utility.yul\":12077:12079   */\n      0x40\n        /* \"#utility.yul\":12066:12075   */\n      dup3\n        /* \"#utility.yul\":12062:12080   */\n      add\n        /* \"#utility.yul\":12054:12080   */\n      swap1\n      pop\n        /* \"#utility.yul\":12126:12135   */\n      dup2\n        /* \"#utility.yul\":12120:12124   */\n      dup2\n        /* \"#utility.yul\":12116:12136   */\n      sub\n        /* \"#utility.yul\":12112:12113   */\n      0x00\n        /* \"#utility.yul\":12101:12110   */\n      dup4\n        /* \"#utility.yul\":12097:12114   */\n      add\n        /* \"#utility.yul\":12090:12137   */\n      mstore\n        /* \"#utility.yul\":12154:12285   */\n      tag_311\n        /* \"#utility.yul\":12280:12284   */\n      dup2\n        /* \"#utility.yul\":12154:12285   */\n      tag_234\n      jump\t// in\n    tag_311:\n        /* \"#utility.yul\":12146:12285   */\n      swap1\n      pop\n        /* \"#utility.yul\":12295:12367   */\n      tag_312\n        /* \"#utility.yul\":12363:12365   */\n      0x20\n        /* \"#utility.yul\":12352:12361   */\n      dup4\n        /* \"#utility.yul\":12348:12366   */\n      add\n        /* \"#utility.yul\":12339:12345   */\n      dup5\n        /* \"#utility.yul\":12295:12367   */\n      tag_190\n      jump\t// in\n    tag_312:\n        /* \"#utility.yul\":11845:12374   */\n      swap3\n      swap2\n      pop\n      pop\n      jump\t// out\n        /* \"#utility.yul\":12380:12799   */\n    tag_146:\n        /* \"#utility.yul\":12546:12550   */\n      0x00\n        /* \"#utility.yul\":12584:12586   */\n      0x20\n        /* \"#utility.yul\":12573:12582   */\n      dup3\n        /* \"#utility.yul\":12569:12587   */\n      add\n        /* \"#utility.yul\":12561:12587   */\n      swap1\n      pop\n        /* \"#utility.yul\":12633:12642   */\n      dup2\n        /* \"#utility.yul\":12627:12631   */\n      dup2\n        /* \"#utility.yul\":12623:12643   */\n      sub\n        /* \"#utility.yul\":12619:12620   */\n      0x00\n        /* \"#utility.yul\":12608:12617   */\n      dup4\n        /* \"#utility.yul\":12604:12621   */\n      add\n        /* \"#utility.yul\":12597:12644   */\n      mstore\n        /* \"#utility.yul\":12661:12792   */\n      tag_314\n        /* \"#utility.yul\":12787:12791   */\n      dup2\n        /* \"#utility.yul\":12661:12792   */\n      tag_239\n      jump\t// in\n    tag_314:\n        /* \"#utility.yul\":12653:12792   */\n      swap1\n      pop\n        /* \"#utility.yul\":12380:12799   */\n      swap2\n      swap1\n      pop\n      jump\t// out\n        /* \"#utility.yul\":12805:13224   */\n    tag_152:\n        /* \"#utility.yul\":12971:12975   */\n      0x00\n        /* \"#utility.yul\":13009:13011   */\n      0x20\n        /* \"#utility.yul\":12998:13007   */\n      dup3\n        /* \"#utility.yul\":12994:13012   */\n      add\n        /* \"#utility.yul\":12986:13012   */\n      swap1\n      pop\n        /* \"#utility.yul\":13058:13067   */\n      dup2\n        /* \"#utility.yul\":13052:13056   */\n      dup2\n        /* \"#utility.yul\":13048:13068   */\n      sub\n        /* \"#utility.yul\":13044:13045   */\n      0x00\n        /* \"#utility.yul\":13033:13042   */\n      dup4\n        /* \"#utility.yul\":13029:13046   */\n      add\n        /* \"#utility.yul\":13022:13069   */\n      mstore\n        /* \"#utility.yul\":13086:13217   */\n      tag_316\n        /* \"#utility.yul\":13212:13216   */\n      dup2\n        /* \"#utility.yul\":13086:13217   */\n      tag_244\n      jump\t// in\n    tag_316:\n        /* \"#utility.yul\":13078:13217   */\n      swap1\n      pop\n        /* \"#utility.yul\":12805:13224   */\n      swap2\n      swap1\n      pop\n      jump\t// out\n        /* \"#utility.yul\":13230:13649   */\n    tag_123:\n        /* \"#utility.yul\":13396:13400   */\n      0x00\n        /* \"#utility.yul\":13434:13436   */\n      0x20\n        /* \"#utility.yul\":13423:13432   */\n      dup3\n        /* \"#utility.yul\":13419:13437   */\n      add\n        /* \"#utility.yul\":13411:13437   */\n      swap1\n      pop\n        /* \"#utility.yul\":13483:13492   */\n      dup2\n        /* \"#utility.yul\":13477:13481   */\n      dup2\n        /* \"#utility.yul\":13473:13493   */\n      sub\n        /* \"#utility.yul\":13469:13470   */\n      0x00\n        /* \"#utility.yul\":13458:13467   */\n      dup4\n        /* \"#utility.yul\":13454:13471   */\n      add\n        /* \"#utility.yul\":13447:13494   */\n      mstore\n        /* \"#utility.yul\":13511:13642   */\n      tag_318\n        /* \"#utility.yul\":13637:13641   */\n      dup2\n        /* \"#utility.yul\":13511:13642   */\n      tag_249\n      jump\t// in\n    tag_318:\n        /* \"#utility.yul\":13503:13642   */\n      swap1\n      pop\n        /* \"#utility.yul\":13230:13649   */\n      swap2\n      swap1\n      pop\n      jump\t// out\n        /* \"#utility.yul\":13655:14184   */\n    tag_92:\n        /* \"#utility.yul\":13849:13853   */\n      0x00\n        /* \"#utility.yul\":13887:13889   */\n      0x40\n        /* \"#utility.yul\":13876:13885   */\n      dup3\n        /* \"#utility.yul\":13872:13890   */\n      add\n        /* \"#utility.yul\":13864:13890   */\n      swap1\n      pop\n        /* \"#utility.yul\":13936:13945   */\n      dup2\n        /* \"#utility.yul\":13930:13934   */\n      dup2\n        /* \"#utility.yul\":13926:13946   */\n      sub\n        /* \"#utility.yul\":13922:13923   */\n      0x00\n        /* \"#utility.yul\":13911:13920   */\n      dup4\n        /* \"#utility.yul\":13907:13924   */\n      add\n        /* \"#utility.yul\":13900:13947   */\n      mstore\n        /* \"#utility.yul\":13964:14095   */\n      tag_320\n        /* \"#utility.yul\":14090:14094   */\n      dup2\n        /* \"#utility.yul\":13964:14095   */\n      tag_254\n      jump\t// in\n    tag_320:\n        /* \"#utility.yul\":13956:14095   */\n      swap1\n      pop\n        /* \"#utility.yul\":14105:14177   */\n      tag_321\n        /* \"#utility.yul\":14173:14175   */\n      0x20\n        /* \"#utility.yul\":14162:14171   */\n      dup4\n        /* \"#utility.yul\":14158:14176   */\n      add\n        /* \"#utility.yul\":14149:14155   */\n      dup5\n        /* \"#utility.yul\":14105:14177   */\n      tag_190\n      jump\t// in\n    tag_321:\n        /* \"#utility.yul\":13655:14184   */\n      swap3\n      swap2\n      pop\n      pop\n      jump\t// out\n        /* \"#utility.yul\":14190:14609   */\n    tag_82:\n        /* \"#utility.yul\":14356:14360   */\n      0x00\n        /* \"#utility.yul\":14394:14396   */\n      0x20\n        /* \"#utility.yul\":14383:14392   */\n      dup3\n        /* \"#utility.yul\":14379:14397   */\n      add\n        /* \"#utility.yul\":14371:14397   */\n      swap1\n      pop\n        /* \"#utility.yul\":14443:14452   */\n      dup2\n        /* \"#utility.yul\":14437:14441   */\n      dup2\n        /* \"#utility.yul\":14433:14453   */\n      sub\n        /* \"#utility.yul\":14429:14430   */\n      0x00\n        /* \"#utility.yul\":14418:14427   */\n      dup4\n        /* \"#utility.yul\":14414:14431   */\n      add\n        /* \"#utility.yul\":14407:14454   */\n      mstore\n        /* \"#utility.yul\":14471:14602   */\n      tag_323\n        /* \"#utility.yul\":14597:14601   */\n      dup2\n        /* \"#utility.yul\":14471:14602   */\n      tag_259\n      jump\t// in\n    tag_323:\n        /* \"#utility.yul\":14463:14602   */\n      swap1\n      pop\n        /* \"#utility.yul\":14190:14609   */\n      swap2\n      swap1\n      pop\n      jump\t// out\n        /* \"#utility.yul\":14615:15034   */\n    tag_156:\n        /* \"#utility.yul\":14781:14785   */\n      0x00\n        /* \"#utility.yul\":14819:14821   */\n      0x20\n        /* \"#utility.yul\":14808:14817   */\n      dup3\n        /* \"#utility.yul\":14804:14822   */\n      add\n        /* \"#utility.yul\":14796:14822   */\n      swap1\n      pop\n        /* \"#utility.yul\":14868:14877   */\n      dup2\n        /* \"#utility.yul\":14862:14866   */\n      dup2\n        /* \"#utility.yul\":14858:14878   */\n      sub\n        /* \"#utility.yul\":14854:14855   */\n      0x00\n        /* \"#utility.yul\":14843:14852   */\n      dup4\n        /* \"#utility.yul\":14839:14856   */\n      add\n        /* \"#utility.yul\":14832:14879   */\n      mstore\n        /* \"#utility.yul\":14896:15027   */\n      tag_325\n        /* \"#utility.yul\":15022:15026   */\n      dup2\n        /* \"#utility.yul\":14896:15027   */\n      tag_264\n      jump\t// in\n    tag_325:\n        /* \"#utility.yul\":14888:15027   */\n      swap1\n      pop\n        /* \"#utility.yul\":14615:15034   */\n      swap2\n      swap1\n      pop\n      jump\t// out\n        /* \"#utility.yul\":15040:15459   */\n    tag_100:\n        /* \"#utility.yul\":15206:15210   */\n      0x00\n        /* \"#utility.yul\":15244:15246   */\n      0x20\n        /* \"#utility.yul\":15233:15242   */\n      dup3\n        /* \"#utility.yul\":15229:15247   */\n      add\n        /* \"#utility.yul\":15221:15247   */\n      swap1\n      pop\n        /* \"#utility.yul\":15293:15302   */\n      dup2\n        /* \"#utility.yul\":15287:15291   */\n      dup2\n        /* \"#utility.yul\":15283:15303   */\n      sub\n        /* \"#utility.yul\":15279:15280   */\n      0x00\n        /* \"#utility.yul\":15268:15277   */\n      dup4\n        /* \"#utility.yul\":15264:15281   */\n      add\n        /* \"#utility.yul\":15257:15304   */\n      mstore\n        /* \"#utility.yul\":15321:15452   */\n      tag_327\n        /* \"#utility.yul\":15447:15451   */\n      dup2\n        /* \"#utility.yul\":15321:15452   */\n      tag_269\n      jump\t// in\n    tag_327:\n        /* \"#utility.yul\":15313:15452   */\n      swap1\n      pop\n        /* \"#utility.yul\":15040:15459   */\n      swap2\n      swap1\n      pop\n      jump\t// out\n        /* \"#utility.yul\":15465:15884   */\n    tag_132:\n        /* \"#utility.yul\":15631:15635   */\n      0x00\n        /* \"#utility.yul\":15669:15671   */\n      0x20\n        /* \"#utility.yul\":15658:15667   */\n      dup3\n        /* \"#utility.yul\":15654:15672   */\n      add\n        /* \"#utility.yul\":15646:15672   */\n      swap1\n      pop\n        /* \"#utility.yul\":15718:15727   */\n      dup2\n        /* \"#utility.yul\":15712:15716   */\n      dup2\n        /* \"#utility.yul\":15708:15728   */\n      sub\n        /* \"#utility.yul\":15704:15705   */\n      0x00\n        /* \"#utility.yul\":15693:15702   */\n      dup4\n        /* \"#utility.yul\":15689:15706   */\n      add\n        /* \"#utility.yul\":15682:15729   */\n      mstore\n        /* \"#utility.yul\":15746:15877   */\n      tag_329\n        /* \"#utility.yul\":15872:15876   */\n      dup2\n        /* \"#utility.yul\":15746:15877   */\n      tag_274\n      jump\t// in\n    tag_329:\n        /* \"#utility.yul\":15738:15877   */\n      swap1\n      pop\n        /* \"#utility.yul\":15465:15884   */\n      swap2\n      swap1\n      pop\n      jump\t// out\n        /* \"#utility.yul\":15890:16309   */\n    tag_166:\n        /* \"#utility.yul\":16056:16060   */\n      0x00\n        /* \"#utility.yul\":16094:16096   */\n      0x20\n        /* \"#utility.yul\":16083:16092   */\n      dup3\n        /* \"#utility.yul\":16079:16097   */\n      add\n        /* \"#utility.yul\":16071:16097   */\n      swap1\n      pop\n        /* \"#utility.yul\":16143:16152   */\n      dup2\n        /* \"#utility.yul\":16137:16141   */\n      dup2\n        /* \"#utility.yul\":16133:16153   */\n      sub\n        /* \"#utility.yul\":16129:16130   */\n      0x00\n        /* \"#utility.yul\":16118:16127   */\n      dup4\n        /* \"#utility.yul\":16114:16131   */\n      add\n        /* \"#utility.yul\":16107:16154   */\n      mstore\n        /* \"#utility.yul\":16171:16302   */\n      tag_331\n        /* \"#utility.yul\":16297:16301   */\n      dup2\n        /* \"#utility.yul\":16171:16302   */\n      tag_279\n      jump\t// in\n    tag_331:\n        /* \"#utility.yul\":16163:16302   */\n      swap1\n      pop\n        /* \"#utility.yul\":15890:16309   */\n      swap2\n      swap1\n      pop\n      jump\t// out\n        /* \"#utility.yul\":16315:16537   */\n    tag_42:\n        /* \"#utility.yul\":16408:16412   */\n      0x00\n        /* \"#utility.yul\":16446:16448   */\n      0x20\n        /* \"#utility.yul\":16435:16444   */\n      dup3\n        /* \"#utility.yul\":16431:16449   */\n      add\n        /* \"#utility.yul\":16423:16449   */\n      swap1\n      pop\n        /* \"#utility.yul\":16459:16530   */\n      tag_333\n        /* \"#utility.yul\":16527:16528   */\n      0x00\n        /* \"#utility.yul\":16516:16525   */\n      dup4\n        /* \"#utility.yul\":16512:16529   */\n      add\n        /* \"#utility.yul\":16503:16509   */\n      dup5\n        /* \"#utility.yul\":16459:16530   */\n      tag_284\n      jump\t// in\n    tag_333:\n        /* \"#utility.yul\":16315:16537   */\n      swap3\n      swap2\n      pop\n      pop\n      jump\t// out\n        /* \"#utility.yul\":16624:16793   */\n    tag_201:\n        /* \"#utility.yul\":16708:16719   */\n      0x00\n        /* \"#utility.yul\":16742:16748   */\n      dup3\n        /* \"#utility.yul\":16737:16740   */\n      dup3\n        /* \"#utility.yul\":16730:16749   */\n      mstore\n        /* \"#utility.yul\":16782:16786   */\n      0x20\n        /* \"#utility.yul\":16777:16780   */\n      dup3\n        /* \"#utility.yul\":16773:16787   */\n      add\n        /* \"#utility.yul\":16758:16787   */\n      swap1\n      pop\n        /* \"#utility.yul\":16624:16793   */\n      swap3\n      swap2\n      pop\n      pop\n      jump\t// out\n        /* \"#utility.yul\":16799:17104   */\n    tag_129:\n        /* \"#utility.yul\":16839:16842   */\n      0x00\n        /* \"#utility.yul\":16858:16878   */\n      tag_338\n        /* \"#utility.yul\":16876:16877   */\n      dup3\n        /* \"#utility.yul\":16858:16878   */\n      tag_287\n      jump\t// in\n    tag_338:\n        /* \"#utility.yul\":16853:16878   */\n      swap2\n      pop\n        /* \"#utility.yul\":16892:16912   */\n      tag_339\n        /* \"#utility.yul\":16910:16911   */\n      dup4\n        /* \"#utility.yul\":16892:16912   */\n      tag_287\n      jump\t// in\n    tag_339:\n        /* \"#utility.yul\":16887:16912   */\n      swap3\n      pop\n        /* \"#utility.yul\":17046:17047   */\n      dup3\n        /* \"#utility.yul\":16978:17044   */\n      0xffffffffffffffffffffffffffffffffffffffffffffffffffffffffffffffff\n        /* \"#utility.yul\":16974:17048   */\n      sub\n        /* \"#utility.yul\":16971:16972   */\n      dup3\n        /* \"#utility.yul\":16968:17049   */\n      gt\n        /* \"#utility.yul\":16965:17072   */\n      iszero\n      tag_340\n      jumpi\n        /* \"#utility.yul\":17052:17070   */\n      tag_341\n      tag_342\n      jump\t// in\n    tag_341:\n        /* \"#utility.yul\":16965:17072   */\n    tag_340:\n        /* \"#utility.yul\":17096:17097   */\n      dup3\n        /* \"#utility.yul\":17093:17094   */\n      dup3\n        /* \"#utility.yul\":17089:17098   */\n      add\n        /* \"#utility.yul\":17082:17098   */\n      swap1\n      pop\n        /* \"#utility.yul\":16799:17104   */\n      swap3\n      swap2\n      pop\n      pop\n      jump\t// out\n        /* \"#utility.yul\":17110:17295   */\n    tag_158:\n        /* \"#utility.yul\":17150:17151   */\n      0x00\n        /* \"#utility.yul\":17167:17187   */\n      tag_344\n        /* \"#utility.yul\":17185:17186   */\n      dup3\n        /* \"#utility.yul\":17167:17187   */\n      tag_287\n      jump\t// in\n    tag_344:\n        /* \"#utility.yul\":17162:17187   */\n      swap2\n      pop\n        /* \"#utility.yul\":17201:17221   */\n      tag_345\n        /* \"#utility.yul\":17219:17220   */\n      dup4\n        /* \"#utility.yul\":17201:17221   */\n      tag_287\n      jump\t// in\n    tag_345:\n        /* \"#utility.yul\":17196:17221   */\n      swap3\n      pop\n        /* \"#utility.yul\":17240:17241   */\n      dup3\n        /* \"#utility.yul\":17230:17265   */\n      tag_346\n      jumpi\n        /* \"#utility.yul\":17245:17263   */\n      tag_347\n      tag_348\n      jump\t// in\n    tag_347:\n        /* \"#utility.yul\":17230:17265   */\n    tag_346:\n        /* \"#utility.yul\":17287:17288   */\n      dup3\n        /* \"#utility.yul\":17284:17285   */\n      dup3\n        /* \"#utility.yul\":17280:17289   */\n      div\n        /* \"#utility.yul\":17275:17289   */\n      swap1\n      pop\n        /* \"#utility.yul\":17110:17295   */\n      swap3\n      swap2\n      pop\n      pop\n      jump\t// out\n        /* \"#utility.yul\":17301:17649   */\n    tag_161:\n        /* \"#utility.yul\":17341:17348   */\n      0x00\n        /* \"#utility.yul\":17364:17384   */\n      tag_350\n        /* \"#utility.yul\":17382:17383   */\n      dup3\n        /* \"#utility.yul\":17364:17384   */\n      tag_287\n      jump\t// in\n    tag_350:\n        /* \"#utility.yul\":17359:17384   */\n      swap2\n      pop\n        /* \"#utility.yul\":17398:17418   */\n      tag_351\n        /* \"#utility.yul\":17416:17417   */\n      dup4\n        /* \"#utility.yul\":17398:17418   */\n      tag_287\n      jump\t// in\n    tag_351:\n        /* \"#utility.yul\":17393:17418   */\n      swap3\n      pop\n        /* \"#utility.yul\":17586:17587   */\n      dup2\n        /* \"#utility.yul\":17518:17584   */\n      0xffffffffffffffffffffffffffffffffffffffffffffffffffffffffffffffff\n        /* \"#utility.yul\":17514:17588   */\n      div\n        /* \"#utility.yul\":17511:17512   */\n      dup4\n        /* \"#utility.yul\":17508:17589   */\n      gt\n        /* \"#utility.yul\":17503:17504   */\n      dup3\n        /* \"#utility.yul\":17496:17505   */\n      iszero\n        /* \"#utility.yul\":17489:17506   */\n      iszero\n        /* \"#utility.yul\":17485:17590   */\n      and\n        /* \"#utility.yul\":17482:17613   */\n      iszero\n      tag_352\n      jumpi\n        /* \"#utility.yul\":17593:17611   */\n      tag_353\n      tag_342\n      jump\t// in\n    tag_353:\n        /* \"#utility.yul\":17482:17613   */\n    tag_352:\n        /* \"#utility.yul\":17641:17642   */\n      dup3\n        /* \"#utility.yul\":17638:17639   */\n      dup3\n        /* \"#utility.yul\":17634:17643   */\n      mul\n        /* \"#utility.yul\":17623:17643   */\n      swap1\n      pop\n        /* \"#utility.yul\":17301:17649   */\n      swap3\n      swap2\n      pop\n      pop\n      jump\t// out\n        /* \"#utility.yul\":17655:17846   */\n    tag_119:\n        /* \"#utility.yul\":17695:17699   */\n      0x00\n        /* \"#utility.yul\":17715:17735   */\n      tag_355\n        /* \"#utility.yul\":17733:17734   */\n      dup3\n        /* \"#utility.yul\":17715:17735   */\n      tag_287\n      jump\t// in\n    tag_355:\n        /* \"#utility.yul\":17710:17735   */\n      swap2\n      pop\n        /* \"#utility.yul\":17749:17769   */\n      tag_356\n        /* \"#utility.yul\":17767:17768   */\n      dup4\n        /* \"#utility.yul\":17749:17769   */\n      tag_287\n      jump\t// in\n    tag_356:\n        /* \"#utility.yul\":17744:17769   */\n      swap3\n      pop\n        /* \"#utility.yul\":17788:17789   */\n      dup3\n        /* \"#utility.yul\":17785:17786   */\n      dup3\n        /* \"#utility.yul\":17782:17790   */\n      lt\n        /* \"#utility.yul\":17779:17813   */\n      iszero\n      tag_357\n      jumpi\n        /* \"#utility.yul\":17793:17811   */\n      tag_358\n      tag_342\n      jump\t// in\n    tag_358:\n        /* \"#utility.yul\":17779:17813   */\n    tag_357:\n        /* \"#utility.yul\":17838:17839   */\n      dup3\n        /* \"#utility.yul\":17835:17836   */\n      dup3\n        /* \"#utility.yul\":17831:17840   */\n      sub\n        /* \"#utility.yul\":17823:17840   */\n      swap1\n      pop\n        /* \"#utility.yul\":17655:17846   */\n      swap3\n      swap2\n      pop\n      pop\n      jump\t// out\n        /* \"#utility.yul\":17852:17948   */\n    tag_193:\n        /* \"#utility.yul\":17889:17896   */\n      0x00\n        /* \"#utility.yul\":17918:17942   */\n      tag_360\n        /* \"#utility.yul\":17936:17941   */\n      dup3\n        /* \"#utility.yul\":17918:17942   */\n      tag_361\n      jump\t// in\n    tag_360:\n        /* \"#utility.yul\":17907:17942   */\n      swap1\n      pop\n        /* \"#utility.yul\":17852:17948   */\n      swap2\n      swap1\n      pop\n      jump\t// out\n        /* \"#utility.yul\":17954:18058   */\n    tag_189:\n        /* \"#utility.yul\":17999:18006   */\n      0x00\n        /* \"#utility.yul\":18028:18052   */\n      tag_363\n        /* \"#utility.yul\":18046:18051   */\n      dup3\n        /* \"#utility.yul\":18028:18052   */\n      tag_361\n      jump\t// in\n    tag_363:\n        /* \"#utility.yul\":18017:18052   */\n      swap1\n      pop\n        /* \"#utility.yul\":17954:18058   */\n      swap2\n      swap1\n      pop\n      jump\t// out\n        /* \"#utility.yul\":18064:18154   */\n    tag_197:\n        /* \"#utility.yul\":18098:18105   */\n      0x00\n        /* \"#utility.yul\":18141:18146   */\n      dup2\n        /* \"#utility.yul\":18134:18147   */\n      iszero\n        /* \"#utility.yul\":18127:18148   */\n      iszero\n        /* \"#utility.yul\":18116:18148   */\n      swap1\n      pop\n        /* \"#utility.yul\":18064:18154   */\n      swap2\n      swap1\n      pop\n      jump\t// out\n        /* \"#utility.yul\":18160:18286   */\n    tag_361:\n        /* \"#utility.yul\":18197:18204   */\n      0x00\n        /* \"#utility.yul\":18237:18279   */\n      0xffffffffffffffffffffffffffffffffffffffff\n        /* \"#utility.yul\":18230:18235   */\n      dup3\n        /* \"#utility.yul\":18226:18280   */\n      and\n        /* \"#utility.yul\":18215:18280   */\n      swap1\n      pop\n        /* \"#utility.yul\":18160:18286   */\n      swap2\n      swap1\n      pop\n      jump\t// out\n        /* \"#utility.yul\":18292:18369   */\n    tag_287:\n        /* \"#utility.yul\":18329:18336   */\n      0x00\n        /* \"#utility.yul\":18358:18363   */\n      dup2\n        /* \"#utility.yul\":18347:18363   */\n      swap1\n      pop\n        /* \"#utility.yul\":18292:18369   */\n      swap2\n      swap1\n      pop\n      jump\t// out\n        /* \"#utility.yul\":18375:18555   */\n    tag_342:\n        /* \"#utility.yul\":18423:18500   */\n      0x4e487b7100000000000000000000000000000000000000000000000000000000\n        /* \"#utility.yul\":18420:18421   */\n      0x00\n        /* \"#utility.yul\":18413:18501   */\n      mstore\n        /* \"#utility.yul\":18520:18524   */\n      0x11\n        /* \"#utility.yul\":18517:18518   */\n      0x04\n        /* \"#utility.yul\":18510:18525   */\n      mstore\n        /* \"#utility.yul\":18544:18548   */\n      0x24\n        /* \"#utility.yul\":18541:18542   */\n      0x00\n        /* \"#utility.yul\":18534:18549   */\n      revert\n        /* \"#utility.yul\":18561:18741   */\n    tag_348:\n        /* \"#utility.yul\":18609:18686   */\n      0x4e487b7100000000000000000000000000000000000000000000000000000000\n        /* \"#utility.yul\":18606:18607   */\n      0x00\n        /* \"#utility.yul\":18599:18687   */\n      mstore\n        /* \"#utility.yul\":18706:18710   */\n      0x12\n        /* \"#utility.yul\":18703:18704   */\n      0x04\n        /* \"#utility.yul\":18696:18711   */\n      mstore\n        /* \"#utility.yul\":18730:18734   */\n      0x24\n        /* \"#utility.yul\":18727:18728   */\n      0x00\n        /* \"#utility.yul\":18720:18735   */\n      revert\n        /* \"#utility.yul\":18870:18987   */\n    tag_179:\n        /* \"#utility.yul\":18979:18980   */\n      0x00\n        /* \"#utility.yul\":18976:18977   */\n      dup1\n        /* \"#utility.yul\":18969:18981   */\n      revert\n        /* \"#utility.yul\":18993:19162   */\n    tag_203:\n        /* \"#utility.yul\":19133:19154   */\n      0x4d6f6e6579207769746864726177656e20746f00000000000000000000000000\n        /* \"#utility.yul\":19129:19130   */\n      0x00\n        /* \"#utility.yul\":19121:19127   */\n      dup3\n        /* \"#utility.yul\":19117:19131   */\n      add\n        /* \"#utility.yul\":19110:19155   */\n      mstore\n        /* \"#utility.yul\":18993:19162   */\n      pop\n      jump\t// out\n        /* \"#utility.yul\":19168:19335   */\n    tag_208:\n        /* \"#utility.yul\":19308:19327   */\n      0x456469746f72207570646174656420746f000000000000000000000000000000\n        /* \"#utility.yul\":19304:19305   */\n      0x00\n        /* \"#utility.yul\":19296:19302   */\n      dup3\n        /* \"#utility.yul\":19292:19306   */\n      add\n        /* \"#utility.yul\":19285:19328   */\n      mstore\n        /* \"#utility.yul\":19168:19335   */\n      pop\n      jump\t// out\n        /* \"#utility.yul\":19341:19569   */\n    tag_213:\n        /* \"#utility.yul\":19481:19515   */\n      0x4f6e6c7920616c6c6f7765642067617465732063616e20616363657373207468\n        /* \"#utility.yul\":19477:19478   */\n      0x00\n        /* \"#utility.yul\":19469:19475   */\n      dup3\n        /* \"#utility.yul\":19465:19479   */\n      add\n        /* \"#utility.yul\":19458:19516   */\n      mstore\n        /* \"#utility.yul\":19550:19561   */\n      0x6973206d6574686f640000000000000000000000000000000000000000000000\n        /* \"#utility.yul\":19545:19547   */\n      0x20\n        /* \"#utility.yul\":19537:19543   */\n      dup3\n        /* \"#utility.yul\":19533:19548   */\n      add\n        /* \"#utility.yul\":19526:19562   */\n      mstore\n        /* \"#utility.yul\":19341:19569   */\n      pop\n      jump\t// out\n        /* \"#utility.yul\":19575:19757   */\n    tag_218:\n        /* \"#utility.yul\":19715:19749   */\n      0x596f7520646f6e2774206861766520616e79206d6f6e657920696e2068657265\n        /* \"#utility.yul\":19711:19712   */\n      0x00\n        /* \"#utility.yul\":19703:19709   */\n      dup3\n        /* \"#utility.yul\":19699:19713   */\n      add\n        /* \"#utility.yul\":19692:19750   */\n      mstore\n        /* \"#utility.yul\":19575:19757   */\n      pop\n      jump\t// out\n        /* \"#utility.yul\":19763:19937   */\n    tag_223:\n        /* \"#utility.yul\":19903:19929   */\n      0x4d696e696d756d20312045746865722052657175697265640000000000000000\n        /* \"#utility.yul\":19899:19900   */\n      0x00\n        /* \"#utility.yul\":19891:19897   */\n      dup3\n        /* \"#utility.yul\":19887:19901   */\n      add\n        /* \"#utility.yul\":19880:19930   */\n      mstore\n        /* \"#utility.yul\":19763:19937   */\n      pop\n      jump\t// out\n        /* \"#utility.yul\":19943:20166   */\n    tag_228:\n        /* \"#utility.yul\":20083:20117   */\n      0x596f7520646f6e27742068617665206e6f2070656e64696e6720776974686472\n        /* \"#utility.yul\":20079:20080   */\n      0x00\n        /* \"#utility.yul\":20071:20077   */\n      dup3\n        /* \"#utility.yul\":20067:20081   */\n      add\n        /* \"#utility.yul\":20060:20118   */\n      mstore\n        /* \"#utility.yul\":20152:20158   */\n      0x61776c7300000000000000000000000000000000000000000000000000000000\n        /* \"#utility.yul\":20147:20149   */\n      0x20\n        /* \"#utility.yul\":20139:20145   */\n      dup3\n        /* \"#utility.yul\":20135:20150   */\n      add\n        /* \"#utility.yul\":20128:20159   */\n      mstore\n        /* \"#utility.yul\":19943:20166   */\n      pop\n      jump\t// out\n        /* \"#utility.yul\":20172:20393   */\n    tag_233:\n        /* \"#utility.yul\":20312:20346   */\n      0x4f6e6c7920656469746f722063616e206163636573732074686973206d657468\n        /* \"#utility.yul\":20308:20309   */\n      0x00\n        /* \"#utility.yul\":20300:20306   */\n      dup3\n        /* \"#utility.yul\":20296:20310   */\n      add\n        /* \"#utility.yul\":20289:20347   */\n      mstore\n        /* \"#utility.yul\":20381:20385   */\n      0x6f64000000000000000000000000000000000000000000000000000000000000\n        /* \"#utility.yul\":20376:20378   */\n      0x20\n        /* \"#utility.yul\":20368:20374   */\n      dup3\n        /* \"#utility.yul\":20364:20379   */\n      add\n        /* \"#utility.yul\":20357:20386   */\n      mstore\n        /* \"#utility.yul\":20172:20393   */\n      pop\n      jump\t// out\n        /* \"#utility.yul\":20399:20555   */\n    tag_238:\n        /* \"#utility.yul\":20539:20547   */\n      0x7374616b65640000000000000000000000000000000000000000000000000000\n        /* \"#utility.yul\":20535:20536   */\n      0x00\n        /* \"#utility.yul\":20527:20533   */\n      dup3\n        /* \"#utility.yul\":20523:20537   */\n      add\n        /* \"#utility.yul\":20516:20548   */\n      mstore\n        /* \"#utility.yul\":20399:20555   */\n      pop\n      jump\t// out\n        /* \"#utility.yul\":20561:20729   */\n    tag_243:\n        /* \"#utility.yul\":20701:20721   */\n      0x537562737472616374696f6e206661696c640000000000000000000000000000\n        /* \"#utility.yul\":20697:20698   */\n      0x00\n        /* \"#utility.yul\":20689:20695   */\n      dup3\n        /* \"#utility.yul\":20685:20699   */\n      add\n        /* \"#utility.yul\":20678:20722   */\n      mstore\n        /* \"#utility.yul\":20561:20729   */\n      pop\n      jump\t// out\n        /* \"#utility.yul\":20735:20900   */\n    tag_248:\n        /* \"#utility.yul\":20875:20892   */\n      0x4164646974696f6e206661696c65640000000000000000000000000000000000\n        /* \"#utility.yul\":20871:20872   */\n      0x00\n        /* \"#utility.yul\":20863:20869   */\n      dup3\n        /* \"#utility.yul\":20859:20873   */\n      add\n        /* \"#utility.yul\":20852:20893   */\n      mstore\n        /* \"#utility.yul\":20735:20900   */\n      pop\n      jump\t// out\n        /* \"#utility.yul\":20906:21129   */\n    tag_253:\n        /* \"#utility.yul\":21046:21080   */\n      0x596f752073686f756c642061746c65617374207374616b6520666f722061206d\n        /* \"#utility.yul\":21042:21043   */\n      0x00\n        /* \"#utility.yul\":21034:21040   */\n      dup3\n        /* \"#utility.yul\":21030:21044   */\n      add\n        /* \"#utility.yul\":21023:21081   */\n      mstore\n        /* \"#utility.yul\":21115:21121   */\n      0x6f6e747900000000000000000000000000000000000000000000000000000000\n        /* \"#utility.yul\":21110:21112   */\n      0x20\n        /* \"#utility.yul\":21102:21108   */\n      dup3\n        /* \"#utility.yul\":21098:21113   */\n      add\n        /* \"#utility.yul\":21091:21122   */\n      mstore\n        /* \"#utility.yul\":20906:21129   */\n      pop\n      jump\t// out\n        /* \"#utility.yul\":21135:21299   */\n    tag_258:\n        /* \"#utility.yul\":21275:21291   */\n      0x6e65772067617465206164646564000000000000000000000000000000000000\n        /* \"#utility.yul\":21271:21272   */\n      0x00\n        /* \"#utility.yul\":21263:21269   */\n      dup3\n        /* \"#utility.yul\":21259:21273   */\n      add\n        /* \"#utility.yul\":21252:21292   */\n      mstore\n        /* \"#utility.yul\":21135:21299   */\n      pop\n      jump\t// out\n        /* \"#utility.yul\":21305:21536   */\n    tag_263:\n        /* \"#utility.yul\":21445:21479   */\n      0x4f6e6c7920696e697469616c2075706c6f616465722063616e20616363657373\n        /* \"#utility.yul\":21441:21442   */\n      0x00\n        /* \"#utility.yul\":21433:21439   */\n      dup3\n        /* \"#utility.yul\":21429:21443   */\n      add\n        /* \"#utility.yul\":21422:21480   */\n      mstore\n        /* \"#utility.yul\":21514:21528   */\n      0x2074686973206d6574686f640000000000000000000000000000000000000000\n        /* \"#utility.yul\":21509:21511   */\n      0x20\n        /* \"#utility.yul\":21501:21507   */\n      dup3\n        /* \"#utility.yul\":21497:21512   */\n      add\n        /* \"#utility.yul\":21490:21529   */\n      mstore\n        /* \"#utility.yul\":21305:21536   */\n      pop\n      jump\t// out\n        /* \"#utility.yul\":21542:21706   */\n    tag_268:\n        /* \"#utility.yul\":21682:21698   */\n      0x4469766973696f6e206661696c64000000000000000000000000000000000000\n        /* \"#utility.yul\":21678:21679   */\n      0x00\n        /* \"#utility.yul\":21670:21676   */\n      dup3\n        /* \"#utility.yul\":21666:21680   */\n      add\n        /* \"#utility.yul\":21659:21699   */\n      mstore\n        /* \"#utility.yul\":21542:21706   */\n      pop\n      jump\t// out\n        /* \"#utility.yul\":21712:21938   */\n    tag_273:\n        /* \"#utility.yul\":21852:21886   */\n      0x446f65736e2774206861766520656e6f7567682062616c616e636520696e2074\n        /* \"#utility.yul\":21848:21849   */\n      0x00\n        /* \"#utility.yul\":21840:21846   */\n      dup3\n        /* \"#utility.yul\":21836:21850   */\n      add\n        /* \"#utility.yul\":21829:21887   */\n      mstore\n        /* \"#utility.yul\":21921:21930   */\n      0x68652062616e6b00000000000000000000000000000000000000000000000000\n        /* \"#utility.yul\":21916:21918   */\n      0x20\n        /* \"#utility.yul\":21908:21914   */\n      dup3\n        /* \"#utility.yul\":21904:21919   */\n      add\n        /* \"#utility.yul\":21897:21931   */\n      mstore\n        /* \"#utility.yul\":21712:21938   */\n      pop\n      jump\t// out\n        /* \"#utility.yul\":21944:22181   */\n    tag_278:\n        /* \"#utility.yul\":22084:22118   */\n      0x536f72727920776520646f6e2774206861766520656e6f756768206d6f6e6579\n        /* \"#utility.yul\":22080:22081   */\n      0x00\n        /* \"#utility.yul\":22072:22078   */\n      dup3\n        /* \"#utility.yul\":22068:22082   */\n      add\n        /* \"#utility.yul\":22061:22119   */\n      mstore\n        /* \"#utility.yul\":22153:22173   */\n      0x20736f20636f6d656261636b206c617465720000000000000000000000000000\n        /* \"#utility.yul\":22148:22150   */\n      0x20\n        /* \"#utility.yul\":22140:22146   */\n      dup3\n        /* \"#utility.yul\":22136:22151   */\n      add\n        /* \"#utility.yul\":22129:22174   */\n      mstore\n        /* \"#utility.yul\":21944:22181   */\n      pop\n      jump\t// out\n        /* \"#utility.yul\":22187:22357   */\n    tag_283:\n        /* \"#utility.yul\":22327:22349   */\n      0x4d756c7469706c69636174696f6e206661696c64000000000000000000000000\n        /* \"#utility.yul\":22323:22324   */\n      0x00\n        /* \"#utility.yul\":22315:22321   */\n      dup3\n        /* \"#utility.yul\":22311:22325   */\n      add\n        /* \"#utility.yul\":22304:22350   */\n      mstore\n        /* \"#utility.yul\":22187:22357   */\n      pop\n      jump\t// out\n        /* \"#utility.yul\":22363:22485   */\n    tag_171:\n        /* \"#utility.yul\":22436:22460   */\n      tag_390\n        /* \"#utility.yul\":22454:22459   */\n      dup2\n        /* \"#utility.yul\":22436:22460   */\n      tag_193\n      jump\t// in\n    tag_390:\n        /* \"#utility.yul\":22429:22434   */\n      dup2\n        /* \"#utility.yul\":22426:22461   */\n      eq\n        /* \"#utility.yul\":22416:22479   */\n      tag_391\n      jumpi\n        /* \"#utility.yul\":22475:22476   */\n      0x00\n        /* \"#utility.yul\":22472:22473   */\n      dup1\n        /* \"#utility.yul\":22465:22477   */\n      revert\n        /* \"#utility.yul\":22416:22479   */\n    tag_391:\n        /* \"#utility.yul\":22363:22485   */\n      pop\n      jump\t// out\n        /* \"#utility.yul\":22491:22613   */\n    tag_175:\n        /* \"#utility.yul\":22564:22588   */\n      tag_393\n        /* \"#utility.yul\":22582:22587   */\n      dup2\n        /* \"#utility.yul\":22564:22588   */\n      tag_287\n      jump\t// in\n    tag_393:\n        /* \"#utility.yul\":22557:22562   */\n      dup2\n        /* \"#utility.yul\":22554:22589   */\n      eq\n        /* \"#utility.yul\":22544:22607   */\n      tag_394\n      jumpi\n        /* \"#utility.yul\":22603:22604   */\n      0x00\n        /* \"#utility.yul\":22600:22601   */\n      dup1\n        /* \"#utility.yul\":22593:22605   */\n      revert\n        /* \"#utility.yul\":22544:22607   */\n    tag_394:\n        /* \"#utility.yul\":22491:22613   */\n      pop\n      jump\t// out\n\n    auxdata: 0xa264697066735822122025e034dee5ffcaec2b6b8e434c2ce762a94ab5861e2632f2d608b3ae9e025d7764736f6c63430008070033\n}\n",
				"bytecode": {
					"linkReferences": {},
					"object": "6080604052670de0b6b3a76400006000553480156200001d57600080fd5b5033600160006101000a81548173ffffffffffffffffffffffffffffffffffffffff021916908373ffffffffffffffffffffffffffffffffffffffff1602179055507ff67e7992d539193fc243c42fe89f8fab49013e8e4fb18cfa891dc51adcaccc8033604051620000909190620000d6565b60405180910390a162000176565b620000a98162000119565b82525050565b6000620000be60148362000108565b9150620000cb826200014d565b602082019050919050565b60006040820190508181036000830152620000f181620000af565b90506200010260208301846200009e565b92915050565b600082825260208201905092915050565b600062000126826200012d565b9050919050565b600073ffffffffffffffffffffffffffffffffffffffff82169050919050565b7f4c656e64696e6720706f6f6c2063726561746564000000000000000000000000600082015250565b611aa980620001866000396000f3fe6080604052600436106100c65760003560e01c80636e1dc66e1161007f578063aeae177c11610059578063aeae177c14610229578063c02b209214610266578063d0e30db0146102a3578063f9931855146102ad576100cd565b80636e1dc66e146101965780638da5cb5b146101d3578063a464d265146101fe576100cd565b8063166d7b48146100cf5780631e23271d146100f85780633607999b14610121578063568523911461013d578063650fad76146101545780636e0e0da21461017f576100cd565b366100cd57005b005b3480156100db57600080fd5b506100f660048036038101906100f19190610edf565b6102ea565b005b34801561010457600080fd5b5061011f600480360381019061011a9190610edf565b6103f5565b005b61013b60048036038101906101369190610f0c565b610517565b005b34801561014957600080fd5b506101526106d3565b005b34801561016057600080fd5b50610169610828565b6040516101769190611484565b60405180910390f35b34801561018b57600080fd5b5061019461082e565b005b3480156101a257600080fd5b506101bd60048036038101906101b89190610edf565b610b17565b6040516101ca9190611484565b60405180910390f35b3480156101df57600080fd5b506101e8610b2f565b6040516101f591906111f6565b60405180910390f35b34801561020a57600080fd5b50610213610b55565b60405161022091906111db565b60405180910390f35b34801561023557600080fd5b50610250600480360381019061024b9190610edf565b610b7b565b60405161025d9190611484565b60405180910390f35b34801561027257600080fd5b5061028d60048036038101906102889190610edf565b610b93565b60405161029a9190611211565b60405180910390f35b6102ab610bb3565b005b3480156102b957600080fd5b506102d460048036038101906102cf9190610edf565b610d25565b6040516102e19190611484565b60405180910390f35b600160009054906101000a900473ffffffffffffffffffffffffffffffffffffffff1673ffffffffffffffffffffffffffffffffffffffff163373ffffffffffffffffffffffffffffffffffffffff161461037a576040517f08c379a0000000000000000000000000000000000000000000000000000000008152600401610371906113e4565b60405180910390fd5b80600360006101000a81548173ffffffffffffffffffffffffffffffffffffffff021916908373ffffffffffffffffffffffffffffffffffffffff1602179055507ff67e7992d539193fc243c42fe89f8fab49013e8e4fb18cfa891dc51adcaccc80816040516103ea919061125a565b60405180910390a150565b600360009054906101000a900473ffffffffffffffffffffffffffffffffffffffff1673ffffffffffffffffffffffffffffffffffffffff163373ffffffffffffffffffffffffffffffffffffffff1614610485576040517f08c379a000000000000000000000000000000000000000000000000000000000815260040161047c90611308565b60405180910390fd5b6001600860008373ffffffffffffffffffffffffffffffffffffffff1673ffffffffffffffffffffffffffffffffffffffff16815260200190815260200160002060006101000a81548160ff0219169083151502179055507ff67e7992d539193fc243c42fe89f8fab49013e8e4fb18cfa891dc51adcaccc808160405161050c91906113b6565b60405180910390a150565b600860003373ffffffffffffffffffffffffffffffffffffffff1673ffffffffffffffffffffffffffffffffffffffff16815260200190815260200160002060009054906101000a900460ff166105a3576040517f08c379a000000000000000000000000000000000000000000000000000000000815260040161059a90611288565b60405180910390fd5b6002548211156105e8576040517f08c379a00000000000000000000000000000000000000000000000000000000081526004016105df90611424565b60405180910390fd5b6105fd82600254610d3d90919063ffffffff16565b60028190555061065582600760008473ffffffffffffffffffffffffffffffffffffffff1673ffffffffffffffffffffffffffffffffffffffff16815260200190815260200160002054610d9690919063ffffffff16565b600760008373ffffffffffffffffffffffffffffffffffffffff1673ffffffffffffffffffffffffffffffffffffffff168152602001908152602001600020819055507ff67e7992d539193fc243c42fe89f8fab49013e8e4fb18cfa891dc51adcaccc80816040516106c7919061122c565b60405180910390a15050565b6000600760003373ffffffffffffffffffffffffffffffffffffffff1673ffffffffffffffffffffffffffffffffffffffff1681526020019081526020016000205411610755576040517f08c379a000000000000000000000000000000000000000000000000000000000815260040161074c906112e8565b60405180910390fd5b6000600760003373ffffffffffffffffffffffffffffffffffffffff1673ffffffffffffffffffffffffffffffffffffffff1681526020019081526020016000205490506000600760003373ffffffffffffffffffffffffffffffffffffffff1673ffffffffffffffffffffffffffffffffffffffff168152602001908152602001600020819055503373ffffffffffffffffffffffffffffffffffffffff166108fc829081150290604051600060405180830381858888f19350505050158015610824573d6000803e3d6000fd5b5050565b60005481565b6000600660003373ffffffffffffffffffffffffffffffffffffffff1673ffffffffffffffffffffffffffffffffffffffff16815260200190815260200160002054116108b0576040517f08c379a00000000000000000000000000000000000000000000000000000000081526004016108a7906112a8565b60405180910390fd5b60006109126201518042600560003373ffffffffffffffffffffffffffffffffffffffff1673ffffffffffffffffffffffffffffffffffffffff168152602001908152602001600020546109049190611591565b610def90919063ffffffff16565b905062278d008111610959576040517f08c379a000000000000000000000000000000000000000000000000000000000815260040161095090611396565b60405180910390fd5b60006109d360646109c5600660003373ffffffffffffffffffffffffffffffffffffffff1673ffffffffffffffffffffffffffffffffffffffff168152602001908152602001600020546109b7600587610e4790919063ffffffff16565b610e4790919063ffffffff16565b610def90919063ffffffff16565b600660003373ffffffffffffffffffffffffffffffffffffffff1673ffffffffffffffffffffffffffffffffffffffff16815260200190815260200160002054610a1d91906114b0565b90506002548110610a63576040517f08c379a0000000000000000000000000000000000000000000000000000000008152600401610a5a90611444565b60405180910390fd5b610a7881600254610d3d90919063ffffffff16565b600281905550610ad081600760003373ffffffffffffffffffffffffffffffffffffffff1673ffffffffffffffffffffffffffffffffffffffff16815260200190815260200160002054610d9690919063ffffffff16565b600760003373ffffffffffffffffffffffffffffffffffffffff1673ffffffffffffffffffffffffffffffffffffffff168152602001908152602001600020819055505050565b60056020528060005260406000206000915090505481565b600160009054906101000a900473ffffffffffffffffffffffffffffffffffffffff1681565b600360009054906101000a900473ffffffffffffffffffffffffffffffffffffffff1681565b60076020528060005260406000206000915090505481565b60086020528060005260406000206000915054906101000a900460ff1681565b600054341015610bf8576040517f08c379a0000000000000000000000000000000000000000000000000000000008152600401610bef906112c8565b60405180910390fd5b42600560003373ffffffffffffffffffffffffffffffffffffffff1673ffffffffffffffffffffffffffffffffffffffff16815260200190815260200160002081905550610c8e34600660003373ffffffffffffffffffffffffffffffffffffffff1673ffffffffffffffffffffffffffffffffffffffff16815260200190815260200160002054610d9690919063ffffffff16565b600660003373ffffffffffffffffffffffffffffffffffffffff1673ffffffffffffffffffffffffffffffffffffffff16815260200190815260200160002081905550610ce634600254610d9690919063ffffffff16565b6002819055507ff67e7992d539193fc243c42fe89f8fab49013e8e4fb18cfa891dc51adcaccc8033604051610d1b9190611328565b60405180910390a1565b60066020528060005260406000206000915090505481565b600082821115610d82576040517f08c379a0000000000000000000000000000000000000000000000000000000008152600401610d7990611356565b60405180910390fd5b8183610d8e9190611591565b905092915050565b60008183610da491906114b0565b905082811015610de9576040517f08c379a0000000000000000000000000000000000000000000000000000000008152600401610de090611376565b60405180910390fd5b92915050565b6000808211610e33576040517f08c379a0000000000000000000000000000000000000000000000000000000008152600401610e2a90611404565b60405180910390fd5b8183610e3f9190611506565b905092915050565b60008183610e559190611537565b90506000831480610e705750818382610e6e9190611506565b145b610eaf576040517f08c379a0000000000000000000000000000000000000000000000000000000008152600401610ea690611464565b60405180910390fd5b92915050565b600081359050610ec481611a45565b92915050565b600081359050610ed981611a5c565b92915050565b600060208284031215610ef557610ef461167d565b5b6000610f0384828501610eb5565b91505092915050565b60008060408385031215610f2357610f2261167d565b5b6000610f3185828601610eca565b9250506020610f4285828601610eb5565b9150509250929050565b610f55816115d7565b82525050565b610f64816115c5565b82525050565b610f73816115e9565b82525050565b6000610f8660138361149f565b9150610f9182611682565b602082019050919050565b6000610fa960118361149f565b9150610fb4826116ab565b602082019050919050565b6000610fcc60298361149f565b9150610fd7826116d4565b604082019050919050565b6000610fef60208361149f565b9150610ffa82611723565b602082019050919050565b600061101260188361149f565b915061101d8261174c565b602082019050919050565b600061103560248361149f565b915061104082611775565b604082019050919050565b600061105860228361149f565b9150611063826117c4565b604082019050919050565b600061107b60068361149f565b915061108682611813565b602082019050919050565b600061109e60128361149f565b91506110a98261183c565b602082019050919050565b60006110c1600f8361149f565b91506110cc82611865565b602082019050919050565b60006110e460248361149f565b91506110ef8261188e565b604082019050919050565b6000611107600e8361149f565b9150611112826118dd565b602082019050919050565b600061112a602c8361149f565b915061113582611906565b604082019050919050565b600061114d600e8361149f565b915061115882611955565b602082019050919050565b600061117060278361149f565b915061117b8261197e565b604082019050919050565b600061119360328361149f565b915061119e826119cd565b604082019050919050565b60006111b660148361149f565b91506111c182611a1c565b602082019050919050565b6111d581611615565b82525050565b60006020820190506111f06000830184610f5b565b92915050565b600060208201905061120b6000830184610f4c565b92915050565b60006020820190506112266000830184610f6a565b92915050565b6000604082019050818103600083015261124581610f79565b90506112546020830184610f5b565b92915050565b6000604082019050818103600083015261127381610f9c565b90506112826020830184610f5b565b92915050565b600060208201905081810360008301526112a181610fbf565b9050919050565b600060208201905081810360008301526112c181610fe2565b9050919050565b600060208201905081810360008301526112e181611005565b9050919050565b6000602082019050818103600083015261130181611028565b9050919050565b600060208201905081810360008301526113218161104b565b9050919050565b600060408201905081810360008301526113418161106e565b90506113506020830184610f5b565b92915050565b6000602082019050818103600083015261136f81611091565b9050919050565b6000602082019050818103600083015261138f816110b4565b9050919050565b600060208201905081810360008301526113af816110d7565b9050919050565b600060408201905081810360008301526113cf816110fa565b90506113de6020830184610f5b565b92915050565b600060208201905081810360008301526113fd8161111d565b9050919050565b6000602082019050818103600083015261141d81611140565b9050919050565b6000602082019050818103600083015261143d81611163565b9050919050565b6000602082019050818103600083015261145d81611186565b9050919050565b6000602082019050818103600083015261147d816111a9565b9050919050565b600060208201905061149960008301846111cc565b92915050565b600082825260208201905092915050565b60006114bb82611615565b91506114c683611615565b9250827fffffffffffffffffffffffffffffffffffffffffffffffffffffffffffffffff038211156114fb576114fa61161f565b5b828201905092915050565b600061151182611615565b915061151c83611615565b92508261152c5761152b61164e565b5b828204905092915050565b600061154282611615565b915061154d83611615565b9250817fffffffffffffffffffffffffffffffffffffffffffffffffffffffffffffffff04831182151516156115865761158561161f565b5b828202905092915050565b600061159c82611615565b91506115a783611615565b9250828210156115ba576115b961161f565b5b828203905092915050565b60006115d0826115f5565b9050919050565b60006115e2826115f5565b9050919050565b60008115159050919050565b600073ffffffffffffffffffffffffffffffffffffffff82169050919050565b6000819050919050565b7f4e487b7100000000000000000000000000000000000000000000000000000000600052601160045260246000fd5b7f4e487b7100000000000000000000000000000000000000000000000000000000600052601260045260246000fd5b600080fd5b7f4d6f6e6579207769746864726177656e20746f00000000000000000000000000600082015250565b7f456469746f72207570646174656420746f000000000000000000000000000000600082015250565b7f4f6e6c7920616c6c6f7765642067617465732063616e2061636365737320746860008201527f6973206d6574686f640000000000000000000000000000000000000000000000602082015250565b7f596f7520646f6e2774206861766520616e79206d6f6e657920696e2068657265600082015250565b7f4d696e696d756d20312045746865722052657175697265640000000000000000600082015250565b7f596f7520646f6e27742068617665206e6f2070656e64696e672077697468647260008201527f61776c7300000000000000000000000000000000000000000000000000000000602082015250565b7f4f6e6c7920656469746f722063616e206163636573732074686973206d65746860008201527f6f64000000000000000000000000000000000000000000000000000000000000602082015250565b7f7374616b65640000000000000000000000000000000000000000000000000000600082015250565b7f537562737472616374696f6e206661696c640000000000000000000000000000600082015250565b7f4164646974696f6e206661696c65640000000000000000000000000000000000600082015250565b7f596f752073686f756c642061746c65617374207374616b6520666f722061206d60008201527f6f6e747900000000000000000000000000000000000000000000000000000000602082015250565b7f6e65772067617465206164646564000000000000000000000000000000000000600082015250565b7f4f6e6c7920696e697469616c2075706c6f616465722063616e2061636365737360008201527f2074686973206d6574686f640000000000000000000000000000000000000000602082015250565b7f4469766973696f6e206661696c64000000000000000000000000000000000000600082015250565b7f446f65736e2774206861766520656e6f7567682062616c616e636520696e207460008201527f68652062616e6b00000000000000000000000000000000000000000000000000602082015250565b7f536f72727920776520646f6e2774206861766520656e6f756768206d6f6e657960008201527f20736f20636f6d656261636b206c617465720000000000000000000000000000602082015250565b7f4d756c7469706c69636174696f6e206661696c64000000000000000000000000600082015250565b611a4e816115c5565b8114611a5957600080fd5b50565b611a6581611615565b8114611a7057600080fd5b5056fea264697066735822122025e034dee5ffcaec2b6b8e434c2ce762a94ab5861e2632f2d608b3ae9e025d7764736f6c63430008070033",
					"opcodes": "PUSH1 0x80 PUSH1 0x40 MSTORE PUSH8 0xDE0B6B3A7640000 PUSH1 0x0 SSTORE CALLVALUE DUP1 ISZERO PUSH3 0x1D JUMPI PUSH1 0x0 DUP1 REVERT JUMPDEST POP CALLER PUSH1 0x1 PUSH1 0x0 PUSH2 0x100 EXP DUP2 SLOAD DUP2 PUSH20 0xFFFFFFFFFFFFFFFFFFFFFFFFFFFFFFFFFFFFFFFF MUL NOT AND SWAP1 DUP4 PUSH20 0xFFFFFFFFFFFFFFFFFFFFFFFFFFFFFFFFFFFFFFFF AND MUL OR SWAP1 SSTORE POP PUSH32 0xF67E7992D539193FC243C42FE89F8FAB49013E8E4FB18CFA891DC51ADCACCC80 CALLER PUSH1 0x40 MLOAD PUSH3 0x90 SWAP2 SWAP1 PUSH3 0xD6 JUMP JUMPDEST PUSH1 0x40 MLOAD DUP1 SWAP2 SUB SWAP1 LOG1 PUSH3 0x176 JUMP JUMPDEST PUSH3 0xA9 DUP2 PUSH3 0x119 JUMP JUMPDEST DUP3 MSTORE POP POP JUMP JUMPDEST PUSH1 0x0 PUSH3 0xBE PUSH1 0x14 DUP4 PUSH3 0x108 JUMP JUMPDEST SWAP2 POP PUSH3 0xCB DUP3 PUSH3 0x14D JUMP JUMPDEST PUSH1 0x20 DUP3 ADD SWAP1 POP SWAP2 SWAP1 POP JUMP JUMPDEST PUSH1 0x0 PUSH1 0x40 DUP3 ADD SWAP1 POP DUP2 DUP2 SUB PUSH1 0x0 DUP4 ADD MSTORE PUSH3 0xF1 DUP2 PUSH3 0xAF JUMP JUMPDEST SWAP1 POP PUSH3 0x102 PUSH1 0x20 DUP4 ADD DUP5 PUSH3 0x9E JUMP JUMPDEST SWAP3 SWAP2 POP POP JUMP JUMPDEST PUSH1 0x0 DUP3 DUP3 MSTORE PUSH1 0x20 DUP3 ADD SWAP1 POP SWAP3 SWAP2 POP POP JUMP JUMPDEST PUSH1 0x0 PUSH3 0x126 DUP3 PUSH3 0x12D JUMP JUMPDEST SWAP1 POP SWAP2 SWAP1 POP JUMP JUMPDEST PUSH1 0x0 PUSH20 0xFFFFFFFFFFFFFFFFFFFFFFFFFFFFFFFFFFFFFFFF DUP3 AND SWAP1 POP SWAP2 SWAP1 POP JUMP JUMPDEST PUSH32 0x4C656E64696E6720706F6F6C2063726561746564000000000000000000000000 PUSH1 0x0 DUP3 ADD MSTORE POP JUMP JUMPDEST PUSH2 0x1AA9 DUP1 PUSH3 0x186 PUSH1 0x0 CODECOPY PUSH1 0x0 RETURN INVALID PUSH1 0x80 PUSH1 0x40 MSTORE PUSH1 0x4 CALLDATASIZE LT PUSH2 0xC6 JUMPI PUSH1 0x0 CALLDATALOAD PUSH1 0xE0 SHR DUP1 PUSH4 0x6E1DC66E GT PUSH2 0x7F JUMPI DUP1 PUSH4 0xAEAE177C GT PUSH2 0x59 JUMPI DUP1 PUSH4 0xAEAE177C EQ PUSH2 0x229 JUMPI DUP1 PUSH4 0xC02B2092 EQ PUSH2 0x266 JUMPI DUP1 PUSH4 0xD0E30DB0 EQ PUSH2 0x2A3 JUMPI DUP1 PUSH4 0xF9931855 EQ PUSH2 0x2AD JUMPI PUSH2 0xCD JUMP JUMPDEST DUP1 PUSH4 0x6E1DC66E EQ PUSH2 0x196 JUMPI DUP1 PUSH4 0x8DA5CB5B EQ PUSH2 0x1D3 JUMPI DUP1 PUSH4 0xA464D265 EQ PUSH2 0x1FE JUMPI PUSH2 0xCD JUMP JUMPDEST DUP1 PUSH4 0x166D7B48 EQ PUSH2 0xCF JUMPI DUP1 PUSH4 0x1E23271D EQ PUSH2 0xF8 JUMPI DUP1 PUSH4 0x3607999B EQ PUSH2 0x121 JUMPI DUP1 PUSH4 0x56852391 EQ PUSH2 0x13D JUMPI DUP1 PUSH4 0x650FAD76 EQ PUSH2 0x154 JUMPI DUP1 PUSH4 0x6E0E0DA2 EQ PUSH2 0x17F JUMPI PUSH2 0xCD JUMP JUMPDEST CALLDATASIZE PUSH2 0xCD JUMPI STOP JUMPDEST STOP JUMPDEST CALLVALUE DUP1 ISZERO PUSH2 0xDB JUMPI PUSH1 0x0 DUP1 REVERT JUMPDEST POP PUSH2 0xF6 PUSH1 0x4 DUP1 CALLDATASIZE SUB DUP2 ADD SWAP1 PUSH2 0xF1 SWAP2 SWAP1 PUSH2 0xEDF JUMP JUMPDEST PUSH2 0x2EA JUMP JUMPDEST STOP JUMPDEST CALLVALUE DUP1 ISZERO PUSH2 0x104 JUMPI PUSH1 0x0 DUP1 REVERT JUMPDEST POP PUSH2 0x11F PUSH1 0x4 DUP1 CALLDATASIZE SUB DUP2 ADD SWAP1 PUSH2 0x11A SWAP2 SWAP1 PUSH2 0xEDF JUMP JUMPDEST PUSH2 0x3F5 JUMP JUMPDEST STOP JUMPDEST PUSH2 0x13B PUSH1 0x4 DUP1 CALLDATASIZE SUB DUP2 ADD SWAP1 PUSH2 0x136 SWAP2 SWAP1 PUSH2 0xF0C JUMP JUMPDEST PUSH2 0x517 JUMP JUMPDEST STOP JUMPDEST CALLVALUE DUP1 ISZERO PUSH2 0x149 JUMPI PUSH1 0x0 DUP1 REVERT JUMPDEST POP PUSH2 0x152 PUSH2 0x6D3 JUMP JUMPDEST STOP JUMPDEST CALLVALUE DUP1 ISZERO PUSH2 0x160 JUMPI PUSH1 0x0 DUP1 REVERT JUMPDEST POP PUSH2 0x169 PUSH2 0x828 JUMP JUMPDEST PUSH1 0x40 MLOAD PUSH2 0x176 SWAP2 SWAP1 PUSH2 0x1484 JUMP JUMPDEST PUSH1 0x40 MLOAD DUP1 SWAP2 SUB SWAP1 RETURN JUMPDEST CALLVALUE DUP1 ISZERO PUSH2 0x18B JUMPI PUSH1 0x0 DUP1 REVERT JUMPDEST POP PUSH2 0x194 PUSH2 0x82E JUMP JUMPDEST STOP JUMPDEST CALLVALUE DUP1 ISZERO PUSH2 0x1A2 JUMPI PUSH1 0x0 DUP1 REVERT JUMPDEST POP PUSH2 0x1BD PUSH1 0x4 DUP1 CALLDATASIZE SUB DUP2 ADD SWAP1 PUSH2 0x1B8 SWAP2 SWAP1 PUSH2 0xEDF JUMP JUMPDEST PUSH2 0xB17 JUMP JUMPDEST PUSH1 0x40 MLOAD PUSH2 0x1CA SWAP2 SWAP1 PUSH2 0x1484 JUMP JUMPDEST PUSH1 0x40 MLOAD DUP1 SWAP2 SUB SWAP1 RETURN JUMPDEST CALLVALUE DUP1 ISZERO PUSH2 0x1DF JUMPI PUSH1 0x0 DUP1 REVERT JUMPDEST POP PUSH2 0x1E8 PUSH2 0xB2F JUMP JUMPDEST PUSH1 0x40 MLOAD PUSH2 0x1F5 SWAP2 SWAP1 PUSH2 0x11F6 JUMP JUMPDEST PUSH1 0x40 MLOAD DUP1 SWAP2 SUB SWAP1 RETURN JUMPDEST CALLVALUE DUP1 ISZERO PUSH2 0x20A JUMPI PUSH1 0x0 DUP1 REVERT JUMPDEST POP PUSH2 0x213 PUSH2 0xB55 JUMP JUMPDEST PUSH1 0x40 MLOAD PUSH2 0x220 SWAP2 SWAP1 PUSH2 0x11DB JUMP JUMPDEST PUSH1 0x40 MLOAD DUP1 SWAP2 SUB SWAP1 RETURN JUMPDEST CALLVALUE DUP1 ISZERO PUSH2 0x235 JUMPI PUSH1 0x0 DUP1 REVERT JUMPDEST POP PUSH2 0x250 PUSH1 0x4 DUP1 CALLDATASIZE SUB DUP2 ADD SWAP1 PUSH2 0x24B SWAP2 SWAP1 PUSH2 0xEDF JUMP JUMPDEST PUSH2 0xB7B JUMP JUMPDEST PUSH1 0x40 MLOAD PUSH2 0x25D SWAP2 SWAP1 PUSH2 0x1484 JUMP JUMPDEST PUSH1 0x40 MLOAD DUP1 SWAP2 SUB SWAP1 RETURN JUMPDEST CALLVALUE DUP1 ISZERO PUSH2 0x272 JUMPI PUSH1 0x0 DUP1 REVERT JUMPDEST POP PUSH2 0x28D PUSH1 0x4 DUP1 CALLDATASIZE SUB DUP2 ADD SWAP1 PUSH2 0x288 SWAP2 SWAP1 PUSH2 0xEDF JUMP JUMPDEST PUSH2 0xB93 JUMP JUMPDEST PUSH1 0x40 MLOAD PUSH2 0x29A SWAP2 SWAP1 PUSH2 0x1211 JUMP JUMPDEST PUSH1 0x40 MLOAD DUP1 SWAP2 SUB SWAP1 RETURN JUMPDEST PUSH2 0x2AB PUSH2 0xBB3 JUMP JUMPDEST STOP JUMPDEST CALLVALUE DUP1 ISZERO PUSH2 0x2B9 JUMPI PUSH1 0x0 DUP1 REVERT JUMPDEST POP PUSH2 0x2D4 PUSH1 0x4 DUP1 CALLDATASIZE SUB DUP2 ADD SWAP1 PUSH2 0x2CF SWAP2 SWAP1 PUSH2 0xEDF JUMP JUMPDEST PUSH2 0xD25 JUMP JUMPDEST PUSH1 0x40 MLOAD PUSH2 0x2E1 SWAP2 SWAP1 PUSH2 0x1484 JUMP JUMPDEST PUSH1 0x40 MLOAD DUP1 SWAP2 SUB SWAP1 RETURN JUMPDEST PUSH1 0x1 PUSH1 0x0 SWAP1 SLOAD SWAP1 PUSH2 0x100 EXP SWAP1 DIV PUSH20 0xFFFFFFFFFFFFFFFFFFFFFFFFFFFFFFFFFFFFFFFF AND PUSH20 0xFFFFFFFFFFFFFFFFFFFFFFFFFFFFFFFFFFFFFFFF AND CALLER PUSH20 0xFFFFFFFFFFFFFFFFFFFFFFFFFFFFFFFFFFFFFFFF AND EQ PUSH2 0x37A JUMPI PUSH1 0x40 MLOAD PUSH32 0x8C379A000000000000000000000000000000000000000000000000000000000 DUP2 MSTORE PUSH1 0x4 ADD PUSH2 0x371 SWAP1 PUSH2 0x13E4 JUMP JUMPDEST PUSH1 0x40 MLOAD DUP1 SWAP2 SUB SWAP1 REVERT JUMPDEST DUP1 PUSH1 0x3 PUSH1 0x0 PUSH2 0x100 EXP DUP2 SLOAD DUP2 PUSH20 0xFFFFFFFFFFFFFFFFFFFFFFFFFFFFFFFFFFFFFFFF MUL NOT AND SWAP1 DUP4 PUSH20 0xFFFFFFFFFFFFFFFFFFFFFFFFFFFFFFFFFFFFFFFF AND MUL OR SWAP1 SSTORE POP PUSH32 0xF67E7992D539193FC243C42FE89F8FAB49013E8E4FB18CFA891DC51ADCACCC80 DUP2 PUSH1 0x40 MLOAD PUSH2 0x3EA SWAP2 SWAP1 PUSH2 0x125A JUMP JUMPDEST PUSH1 0x40 MLOAD DUP1 SWAP2 SUB SWAP1 LOG1 POP JUMP JUMPDEST PUSH1 0x3 PUSH1 0x0 SWAP1 SLOAD SWAP1 PUSH2 0x100 EXP SWAP1 DIV PUSH20 0xFFFFFFFFFFFFFFFFFFFFFFFFFFFFFFFFFFFFFFFF AND PUSH20 0xFFFFFFFFFFFFFFFFFFFFFFFFFFFFFFFFFFFFFFFF AND CALLER PUSH20 0xFFFFFFFFFFFFFFFFFFFFFFFFFFFFFFFFFFFFFFFF AND EQ PUSH2 0x485 JUMPI PUSH1 0x40 MLOAD PUSH32 0x8C379A000000000000000000000000000000000000000000000000000000000 DUP2 MSTORE PUSH1 0x4 ADD PUSH2 0x47C SWAP1 PUSH2 0x1308 JUMP JUMPDEST PUSH1 0x40 MLOAD DUP1 SWAP2 SUB SWAP1 REVERT JUMPDEST PUSH1 0x1 PUSH1 0x8 PUSH1 0x0 DUP4 PUSH20 0xFFFFFFFFFFFFFFFFFFFFFFFFFFFFFFFFFFFFFFFF AND PUSH20 0xFFFFFFFFFFFFFFFFFFFFFFFFFFFFFFFFFFFFFFFF AND DUP2 MSTORE PUSH1 0x20 ADD SWAP1 DUP2 MSTORE PUSH1 0x20 ADD PUSH1 0x0 KECCAK256 PUSH1 0x0 PUSH2 0x100 EXP DUP2 SLOAD DUP2 PUSH1 0xFF MUL NOT AND SWAP1 DUP4 ISZERO ISZERO MUL OR SWAP1 SSTORE POP PUSH32 0xF67E7992D539193FC243C42FE89F8FAB49013E8E4FB18CFA891DC51ADCACCC80 DUP2 PUSH1 0x40 MLOAD PUSH2 0x50C SWAP2 SWAP1 PUSH2 0x13B6 JUMP JUMPDEST PUSH1 0x40 MLOAD DUP1 SWAP2 SUB SWAP1 LOG1 POP JUMP JUMPDEST PUSH1 0x8 PUSH1 0x0 CALLER PUSH20 0xFFFFFFFFFFFFFFFFFFFFFFFFFFFFFFFFFFFFFFFF AND PUSH20 0xFFFFFFFFFFFFFFFFFFFFFFFFFFFFFFFFFFFFFFFF AND DUP2 MSTORE PUSH1 0x20 ADD SWAP1 DUP2 MSTORE PUSH1 0x20 ADD PUSH1 0x0 KECCAK256 PUSH1 0x0 SWAP1 SLOAD SWAP1 PUSH2 0x100 EXP SWAP1 DIV PUSH1 0xFF AND PUSH2 0x5A3 JUMPI PUSH1 0x40 MLOAD PUSH32 0x8C379A000000000000000000000000000000000000000000000000000000000 DUP2 MSTORE PUSH1 0x4 ADD PUSH2 0x59A SWAP1 PUSH2 0x1288 JUMP JUMPDEST PUSH1 0x40 MLOAD DUP1 SWAP2 SUB SWAP1 REVERT JUMPDEST PUSH1 0x2 SLOAD DUP3 GT ISZERO PUSH2 0x5E8 JUMPI PUSH1 0x40 MLOAD PUSH32 0x8C379A000000000000000000000000000000000000000000000000000000000 DUP2 MSTORE PUSH1 0x4 ADD PUSH2 0x5DF SWAP1 PUSH2 0x1424 JUMP JUMPDEST PUSH1 0x40 MLOAD DUP1 SWAP2 SUB SWAP1 REVERT JUMPDEST PUSH2 0x5FD DUP3 PUSH1 0x2 SLOAD PUSH2 0xD3D SWAP1 SWAP2 SWAP1 PUSH4 0xFFFFFFFF AND JUMP JUMPDEST PUSH1 0x2 DUP2 SWAP1 SSTORE POP PUSH2 0x655 DUP3 PUSH1 0x7 PUSH1 0x0 DUP5 PUSH20 0xFFFFFFFFFFFFFFFFFFFFFFFFFFFFFFFFFFFFFFFF AND PUSH20 0xFFFFFFFFFFFFFFFFFFFFFFFFFFFFFFFFFFFFFFFF AND DUP2 MSTORE PUSH1 0x20 ADD SWAP1 DUP2 MSTORE PUSH1 0x20 ADD PUSH1 0x0 KECCAK256 SLOAD PUSH2 0xD96 SWAP1 SWAP2 SWAP1 PUSH4 0xFFFFFFFF AND JUMP JUMPDEST PUSH1 0x7 PUSH1 0x0 DUP4 PUSH20 0xFFFFFFFFFFFFFFFFFFFFFFFFFFFFFFFFFFFFFFFF AND PUSH20 0xFFFFFFFFFFFFFFFFFFFFFFFFFFFFFFFFFFFFFFFF AND DUP2 MSTORE PUSH1 0x20 ADD SWAP1 DUP2 MSTORE PUSH1 0x20 ADD PUSH1 0x0 KECCAK256 DUP2 SWAP1 SSTORE POP PUSH32 0xF67E7992D539193FC243C42FE89F8FAB49013E8E4FB18CFA891DC51ADCACCC80 DUP2 PUSH1 0x40 MLOAD PUSH2 0x6C7 SWAP2 SWAP1 PUSH2 0x122C JUMP JUMPDEST PUSH1 0x40 MLOAD DUP1 SWAP2 SUB SWAP1 LOG1 POP POP JUMP JUMPDEST PUSH1 0x0 PUSH1 0x7 PUSH1 0x0 CALLER PUSH20 0xFFFFFFFFFFFFFFFFFFFFFFFFFFFFFFFFFFFFFFFF AND PUSH20 0xFFFFFFFFFFFFFFFFFFFFFFFFFFFFFFFFFFFFFFFF AND DUP2 MSTORE PUSH1 0x20 ADD SWAP1 DUP2 MSTORE PUSH1 0x20 ADD PUSH1 0x0 KECCAK256 SLOAD GT PUSH2 0x755 JUMPI PUSH1 0x40 MLOAD PUSH32 0x8C379A000000000000000000000000000000000000000000000000000000000 DUP2 MSTORE PUSH1 0x4 ADD PUSH2 0x74C SWAP1 PUSH2 0x12E8 JUMP JUMPDEST PUSH1 0x40 MLOAD DUP1 SWAP2 SUB SWAP1 REVERT JUMPDEST PUSH1 0x0 PUSH1 0x7 PUSH1 0x0 CALLER PUSH20 0xFFFFFFFFFFFFFFFFFFFFFFFFFFFFFFFFFFFFFFFF AND PUSH20 0xFFFFFFFFFFFFFFFFFFFFFFFFFFFFFFFFFFFFFFFF AND DUP2 MSTORE PUSH1 0x20 ADD SWAP1 DUP2 MSTORE PUSH1 0x20 ADD PUSH1 0x0 KECCAK256 SLOAD SWAP1 POP PUSH1 0x0 PUSH1 0x7 PUSH1 0x0 CALLER PUSH20 0xFFFFFFFFFFFFFFFFFFFFFFFFFFFFFFFFFFFFFFFF AND PUSH20 0xFFFFFFFFFFFFFFFFFFFFFFFFFFFFFFFFFFFFFFFF AND DUP2 MSTORE PUSH1 0x20 ADD SWAP1 DUP2 MSTORE PUSH1 0x20 ADD PUSH1 0x0 KECCAK256 DUP2 SWAP1 SSTORE POP CALLER PUSH20 0xFFFFFFFFFFFFFFFFFFFFFFFFFFFFFFFFFFFFFFFF AND PUSH2 0x8FC DUP3 SWAP1 DUP2 ISZERO MUL SWAP1 PUSH1 0x40 MLOAD PUSH1 0x0 PUSH1 0x40 MLOAD DUP1 DUP4 SUB DUP2 DUP6 DUP9 DUP9 CALL SWAP4 POP POP POP POP ISZERO DUP1 ISZERO PUSH2 0x824 JUMPI RETURNDATASIZE PUSH1 0x0 DUP1 RETURNDATACOPY RETURNDATASIZE PUSH1 0x0 REVERT JUMPDEST POP POP JUMP JUMPDEST PUSH1 0x0 SLOAD DUP2 JUMP JUMPDEST PUSH1 0x0 PUSH1 0x6 PUSH1 0x0 CALLER PUSH20 0xFFFFFFFFFFFFFFFFFFFFFFFFFFFFFFFFFFFFFFFF AND PUSH20 0xFFFFFFFFFFFFFFFFFFFFFFFFFFFFFFFFFFFFFFFF AND DUP2 MSTORE PUSH1 0x20 ADD SWAP1 DUP2 MSTORE PUSH1 0x20 ADD PUSH1 0x0 KECCAK256 SLOAD GT PUSH2 0x8B0 JUMPI PUSH1 0x40 MLOAD PUSH32 0x8C379A000000000000000000000000000000000000000000000000000000000 DUP2 MSTORE PUSH1 0x4 ADD PUSH2 0x8A7 SWAP1 PUSH2 0x12A8 JUMP JUMPDEST PUSH1 0x40 MLOAD DUP1 SWAP2 SUB SWAP1 REVERT JUMPDEST PUSH1 0x0 PUSH2 0x912 PUSH3 0x15180 TIMESTAMP PUSH1 0x5 PUSH1 0x0 CALLER PUSH20 0xFFFFFFFFFFFFFFFFFFFFFFFFFFFFFFFFFFFFFFFF AND PUSH20 0xFFFFFFFFFFFFFFFFFFFFFFFFFFFFFFFFFFFFFFFF AND DUP2 MSTORE PUSH1 0x20 ADD SWAP1 DUP2 MSTORE PUSH1 0x20 ADD PUSH1 0x0 KECCAK256 SLOAD PUSH2 0x904 SWAP2 SWAP1 PUSH2 0x1591 JUMP JUMPDEST PUSH2 0xDEF SWAP1 SWAP2 SWAP1 PUSH4 0xFFFFFFFF AND JUMP JUMPDEST SWAP1 POP PUSH3 0x278D00 DUP2 GT PUSH2 0x959 JUMPI PUSH1 0x40 MLOAD PUSH32 0x8C379A000000000000000000000000000000000000000000000000000000000 DUP2 MSTORE PUSH1 0x4 ADD PUSH2 0x950 SWAP1 PUSH2 0x1396 JUMP JUMPDEST PUSH1 0x40 MLOAD DUP1 SWAP2 SUB SWAP1 REVERT JUMPDEST PUSH1 0x0 PUSH2 0x9D3 PUSH1 0x64 PUSH2 0x9C5 PUSH1 0x6 PUSH1 0x0 CALLER PUSH20 0xFFFFFFFFFFFFFFFFFFFFFFFFFFFFFFFFFFFFFFFF AND PUSH20 0xFFFFFFFFFFFFFFFFFFFFFFFFFFFFFFFFFFFFFFFF AND DUP2 MSTORE PUSH1 0x20 ADD SWAP1 DUP2 MSTORE PUSH1 0x20 ADD PUSH1 0x0 KECCAK256 SLOAD PUSH2 0x9B7 PUSH1 0x5 DUP8 PUSH2 0xE47 SWAP1 SWAP2 SWAP1 PUSH4 0xFFFFFFFF AND JUMP JUMPDEST PUSH2 0xE47 SWAP1 SWAP2 SWAP1 PUSH4 0xFFFFFFFF AND JUMP JUMPDEST PUSH2 0xDEF SWAP1 SWAP2 SWAP1 PUSH4 0xFFFFFFFF AND JUMP JUMPDEST PUSH1 0x6 PUSH1 0x0 CALLER PUSH20 0xFFFFFFFFFFFFFFFFFFFFFFFFFFFFFFFFFFFFFFFF AND PUSH20 0xFFFFFFFFFFFFFFFFFFFFFFFFFFFFFFFFFFFFFFFF AND DUP2 MSTORE PUSH1 0x20 ADD SWAP1 DUP2 MSTORE PUSH1 0x20 ADD PUSH1 0x0 KECCAK256 SLOAD PUSH2 0xA1D SWAP2 SWAP1 PUSH2 0x14B0 JUMP JUMPDEST SWAP1 POP PUSH1 0x2 SLOAD DUP2 LT PUSH2 0xA63 JUMPI PUSH1 0x40 MLOAD PUSH32 0x8C379A000000000000000000000000000000000000000000000000000000000 DUP2 MSTORE PUSH1 0x4 ADD PUSH2 0xA5A SWAP1 PUSH2 0x1444 JUMP JUMPDEST PUSH1 0x40 MLOAD DUP1 SWAP2 SUB SWAP1 REVERT JUMPDEST PUSH2 0xA78 DUP2 PUSH1 0x2 SLOAD PUSH2 0xD3D SWAP1 SWAP2 SWAP1 PUSH4 0xFFFFFFFF AND JUMP JUMPDEST PUSH1 0x2 DUP2 SWAP1 SSTORE POP PUSH2 0xAD0 DUP2 PUSH1 0x7 PUSH1 0x0 CALLER PUSH20 0xFFFFFFFFFFFFFFFFFFFFFFFFFFFFFFFFFFFFFFFF AND PUSH20 0xFFFFFFFFFFFFFFFFFFFFFFFFFFFFFFFFFFFFFFFF AND DUP2 MSTORE PUSH1 0x20 ADD SWAP1 DUP2 MSTORE PUSH1 0x20 ADD PUSH1 0x0 KECCAK256 SLOAD PUSH2 0xD96 SWAP1 SWAP2 SWAP1 PUSH4 0xFFFFFFFF AND JUMP JUMPDEST PUSH1 0x7 PUSH1 0x0 CALLER PUSH20 0xFFFFFFFFFFFFFFFFFFFFFFFFFFFFFFFFFFFFFFFF AND PUSH20 0xFFFFFFFFFFFFFFFFFFFFFFFFFFFFFFFFFFFFFFFF AND DUP2 MSTORE PUSH1 0x20 ADD SWAP1 DUP2 MSTORE PUSH1 0x20 ADD PUSH1 0x0 KECCAK256 DUP2 SWAP1 SSTORE POP POP POP JUMP JUMPDEST PUSH1 0x5 PUSH1 0x20 MSTORE DUP1 PUSH1 0x0 MSTORE PUSH1 0x40 PUSH1 0x0 KECCAK256 PUSH1 0x0 SWAP2 POP SWAP1 POP SLOAD DUP2 JUMP JUMPDEST PUSH1 0x1 PUSH1 0x0 SWAP1 SLOAD SWAP1 PUSH2 0x100 EXP SWAP1 DIV PUSH20 0xFFFFFFFFFFFFFFFFFFFFFFFFFFFFFFFFFFFFFFFF AND DUP2 JUMP JUMPDEST PUSH1 0x3 PUSH1 0x0 SWAP1 SLOAD SWAP1 PUSH2 0x100 EXP SWAP1 DIV PUSH20 0xFFFFFFFFFFFFFFFFFFFFFFFFFFFFFFFFFFFFFFFF AND DUP2 JUMP JUMPDEST PUSH1 0x7 PUSH1 0x20 MSTORE DUP1 PUSH1 0x0 MSTORE PUSH1 0x40 PUSH1 0x0 KECCAK256 PUSH1 0x0 SWAP2 POP SWAP1 POP SLOAD DUP2 JUMP JUMPDEST PUSH1 0x8 PUSH1 0x20 MSTORE DUP1 PUSH1 0x0 MSTORE PUSH1 0x40 PUSH1 0x0 KECCAK256 PUSH1 0x0 SWAP2 POP SLOAD SWAP1 PUSH2 0x100 EXP SWAP1 DIV PUSH1 0xFF AND DUP2 JUMP JUMPDEST PUSH1 0x0 SLOAD CALLVALUE LT ISZERO PUSH2 0xBF8 JUMPI PUSH1 0x40 MLOAD PUSH32 0x8C379A000000000000000000000000000000000000000000000000000000000 DUP2 MSTORE PUSH1 0x4 ADD PUSH2 0xBEF SWAP1 PUSH2 0x12C8 JUMP JUMPDEST PUSH1 0x40 MLOAD DUP1 SWAP2 SUB SWAP1 REVERT JUMPDEST TIMESTAMP PUSH1 0x5 PUSH1 0x0 CALLER PUSH20 0xFFFFFFFFFFFFFFFFFFFFFFFFFFFFFFFFFFFFFFFF AND PUSH20 0xFFFFFFFFFFFFFFFFFFFFFFFFFFFFFFFFFFFFFFFF AND DUP2 MSTORE PUSH1 0x20 ADD SWAP1 DUP2 MSTORE PUSH1 0x20 ADD PUSH1 0x0 KECCAK256 DUP2 SWAP1 SSTORE POP PUSH2 0xC8E CALLVALUE PUSH1 0x6 PUSH1 0x0 CALLER PUSH20 0xFFFFFFFFFFFFFFFFFFFFFFFFFFFFFFFFFFFFFFFF AND PUSH20 0xFFFFFFFFFFFFFFFFFFFFFFFFFFFFFFFFFFFFFFFF AND DUP2 MSTORE PUSH1 0x20 ADD SWAP1 DUP2 MSTORE PUSH1 0x20 ADD PUSH1 0x0 KECCAK256 SLOAD PUSH2 0xD96 SWAP1 SWAP2 SWAP1 PUSH4 0xFFFFFFFF AND JUMP JUMPDEST PUSH1 0x6 PUSH1 0x0 CALLER PUSH20 0xFFFFFFFFFFFFFFFFFFFFFFFFFFFFFFFFFFFFFFFF AND PUSH20 0xFFFFFFFFFFFFFFFFFFFFFFFFFFFFFFFFFFFFFFFF AND DUP2 MSTORE PUSH1 0x20 ADD SWAP1 DUP2 MSTORE PUSH1 0x20 ADD PUSH1 0x0 KECCAK256 DUP2 SWAP1 SSTORE POP PUSH2 0xCE6 CALLVALUE PUSH1 0x2 SLOAD PUSH2 0xD96 SWAP1 SWAP2 SWAP1 PUSH4 0xFFFFFFFF AND JUMP JUMPDEST PUSH1 0x2 DUP2 SWAP1 SSTORE POP PUSH32 0xF67E7992D539193FC243C42FE89F8FAB49013E8E4FB18CFA891DC51ADCACCC80 CALLER PUSH1 0x40 MLOAD PUSH2 0xD1B SWAP2 SWAP1 PUSH2 0x1328 JUMP JUMPDEST PUSH1 0x40 MLOAD DUP1 SWAP2 SUB SWAP1 LOG1 JUMP JUMPDEST PUSH1 0x6 PUSH1 0x20 MSTORE DUP1 PUSH1 0x0 MSTORE PUSH1 0x40 PUSH1 0x0 KECCAK256 PUSH1 0x0 SWAP2 POP SWAP1 POP SLOAD DUP2 JUMP JUMPDEST PUSH1 0x0 DUP3 DUP3 GT ISZERO PUSH2 0xD82 JUMPI PUSH1 0x40 MLOAD PUSH32 0x8C379A000000000000000000000000000000000000000000000000000000000 DUP2 MSTORE PUSH1 0x4 ADD PUSH2 0xD79 SWAP1 PUSH2 0x1356 JUMP JUMPDEST PUSH1 0x40 MLOAD DUP1 SWAP2 SUB SWAP1 REVERT JUMPDEST DUP2 DUP4 PUSH2 0xD8E SWAP2 SWAP1 PUSH2 0x1591 JUMP JUMPDEST SWAP1 POP SWAP3 SWAP2 POP POP JUMP JUMPDEST PUSH1 0x0 DUP2 DUP4 PUSH2 0xDA4 SWAP2 SWAP1 PUSH2 0x14B0 JUMP JUMPDEST SWAP1 POP DUP3 DUP2 LT ISZERO PUSH2 0xDE9 JUMPI PUSH1 0x40 MLOAD PUSH32 0x8C379A000000000000000000000000000000000000000000000000000000000 DUP2 MSTORE PUSH1 0x4 ADD PUSH2 0xDE0 SWAP1 PUSH2 0x1376 JUMP JUMPDEST PUSH1 0x40 MLOAD DUP1 SWAP2 SUB SWAP1 REVERT JUMPDEST SWAP3 SWAP2 POP POP JUMP JUMPDEST PUSH1 0x0 DUP1 DUP3 GT PUSH2 0xE33 JUMPI PUSH1 0x40 MLOAD PUSH32 0x8C379A000000000000000000000000000000000000000000000000000000000 DUP2 MSTORE PUSH1 0x4 ADD PUSH2 0xE2A SWAP1 PUSH2 0x1404 JUMP JUMPDEST PUSH1 0x40 MLOAD DUP1 SWAP2 SUB SWAP1 REVERT JUMPDEST DUP2 DUP4 PUSH2 0xE3F SWAP2 SWAP1 PUSH2 0x1506 JUMP JUMPDEST SWAP1 POP SWAP3 SWAP2 POP POP JUMP JUMPDEST PUSH1 0x0 DUP2 DUP4 PUSH2 0xE55 SWAP2 SWAP1 PUSH2 0x1537 JUMP JUMPDEST SWAP1 POP PUSH1 0x0 DUP4 EQ DUP1 PUSH2 0xE70 JUMPI POP DUP2 DUP4 DUP3 PUSH2 0xE6E SWAP2 SWAP1 PUSH2 0x1506 JUMP JUMPDEST EQ JUMPDEST PUSH2 0xEAF JUMPI PUSH1 0x40 MLOAD PUSH32 0x8C379A000000000000000000000000000000000000000000000000000000000 DUP2 MSTORE PUSH1 0x4 ADD PUSH2 0xEA6 SWAP1 PUSH2 0x1464 JUMP JUMPDEST PUSH1 0x40 MLOAD DUP1 SWAP2 SUB SWAP1 REVERT JUMPDEST SWAP3 SWAP2 POP POP JUMP JUMPDEST PUSH1 0x0 DUP2 CALLDATALOAD SWAP1 POP PUSH2 0xEC4 DUP2 PUSH2 0x1A45 JUMP JUMPDEST SWAP3 SWAP2 POP POP JUMP JUMPDEST PUSH1 0x0 DUP2 CALLDATALOAD SWAP1 POP PUSH2 0xED9 DUP2 PUSH2 0x1A5C JUMP JUMPDEST SWAP3 SWAP2 POP POP JUMP JUMPDEST PUSH1 0x0 PUSH1 0x20 DUP3 DUP5 SUB SLT ISZERO PUSH2 0xEF5 JUMPI PUSH2 0xEF4 PUSH2 0x167D JUMP JUMPDEST JUMPDEST PUSH1 0x0 PUSH2 0xF03 DUP5 DUP3 DUP6 ADD PUSH2 0xEB5 JUMP JUMPDEST SWAP2 POP POP SWAP3 SWAP2 POP POP JUMP JUMPDEST PUSH1 0x0 DUP1 PUSH1 0x40 DUP4 DUP6 SUB SLT ISZERO PUSH2 0xF23 JUMPI PUSH2 0xF22 PUSH2 0x167D JUMP JUMPDEST JUMPDEST PUSH1 0x0 PUSH2 0xF31 DUP6 DUP3 DUP7 ADD PUSH2 0xECA JUMP JUMPDEST SWAP3 POP POP PUSH1 0x20 PUSH2 0xF42 DUP6 DUP3 DUP7 ADD PUSH2 0xEB5 JUMP JUMPDEST SWAP2 POP POP SWAP3 POP SWAP3 SWAP1 POP JUMP JUMPDEST PUSH2 0xF55 DUP2 PUSH2 0x15D7 JUMP JUMPDEST DUP3 MSTORE POP POP JUMP JUMPDEST PUSH2 0xF64 DUP2 PUSH2 0x15C5 JUMP JUMPDEST DUP3 MSTORE POP POP JUMP JUMPDEST PUSH2 0xF73 DUP2 PUSH2 0x15E9 JUMP JUMPDEST DUP3 MSTORE POP POP JUMP JUMPDEST PUSH1 0x0 PUSH2 0xF86 PUSH1 0x13 DUP4 PUSH2 0x149F JUMP JUMPDEST SWAP2 POP PUSH2 0xF91 DUP3 PUSH2 0x1682 JUMP JUMPDEST PUSH1 0x20 DUP3 ADD SWAP1 POP SWAP2 SWAP1 POP JUMP JUMPDEST PUSH1 0x0 PUSH2 0xFA9 PUSH1 0x11 DUP4 PUSH2 0x149F JUMP JUMPDEST SWAP2 POP PUSH2 0xFB4 DUP3 PUSH2 0x16AB JUMP JUMPDEST PUSH1 0x20 DUP3 ADD SWAP1 POP SWAP2 SWAP1 POP JUMP JUMPDEST PUSH1 0x0 PUSH2 0xFCC PUSH1 0x29 DUP4 PUSH2 0x149F JUMP JUMPDEST SWAP2 POP PUSH2 0xFD7 DUP3 PUSH2 0x16D4 JUMP JUMPDEST PUSH1 0x40 DUP3 ADD SWAP1 POP SWAP2 SWAP1 POP JUMP JUMPDEST PUSH1 0x0 PUSH2 0xFEF PUSH1 0x20 DUP4 PUSH2 0x149F JUMP JUMPDEST SWAP2 POP PUSH2 0xFFA DUP3 PUSH2 0x1723 JUMP JUMPDEST PUSH1 0x20 DUP3 ADD SWAP1 POP SWAP2 SWAP1 POP JUMP JUMPDEST PUSH1 0x0 PUSH2 0x1012 PUSH1 0x18 DUP4 PUSH2 0x149F JUMP JUMPDEST SWAP2 POP PUSH2 0x101D DUP3 PUSH2 0x174C JUMP JUMPDEST PUSH1 0x20 DUP3 ADD SWAP1 POP SWAP2 SWAP1 POP JUMP JUMPDEST PUSH1 0x0 PUSH2 0x1035 PUSH1 0x24 DUP4 PUSH2 0x149F JUMP JUMPDEST SWAP2 POP PUSH2 0x1040 DUP3 PUSH2 0x1775 JUMP JUMPDEST PUSH1 0x40 DUP3 ADD SWAP1 POP SWAP2 SWAP1 POP JUMP JUMPDEST PUSH1 0x0 PUSH2 0x1058 PUSH1 0x22 DUP4 PUSH2 0x149F JUMP JUMPDEST SWAP2 POP PUSH2 0x1063 DUP3 PUSH2 0x17C4 JUMP JUMPDEST PUSH1 0x40 DUP3 ADD SWAP1 POP SWAP2 SWAP1 POP JUMP JUMPDEST PUSH1 0x0 PUSH2 0x107B PUSH1 0x6 DUP4 PUSH2 0x149F JUMP JUMPDEST SWAP2 POP PUSH2 0x1086 DUP3 PUSH2 0x1813 JUMP JUMPDEST PUSH1 0x20 DUP3 ADD SWAP1 POP SWAP2 SWAP1 POP JUMP JUMPDEST PUSH1 0x0 PUSH2 0x109E PUSH1 0x12 DUP4 PUSH2 0x149F JUMP JUMPDEST SWAP2 POP PUSH2 0x10A9 DUP3 PUSH2 0x183C JUMP JUMPDEST PUSH1 0x20 DUP3 ADD SWAP1 POP SWAP2 SWAP1 POP JUMP JUMPDEST PUSH1 0x0 PUSH2 0x10C1 PUSH1 0xF DUP4 PUSH2 0x149F JUMP JUMPDEST SWAP2 POP PUSH2 0x10CC DUP3 PUSH2 0x1865 JUMP JUMPDEST PUSH1 0x20 DUP3 ADD SWAP1 POP SWAP2 SWAP1 POP JUMP JUMPDEST PUSH1 0x0 PUSH2 0x10E4 PUSH1 0x24 DUP4 PUSH2 0x149F JUMP JUMPDEST SWAP2 POP PUSH2 0x10EF DUP3 PUSH2 0x188E JUMP JUMPDEST PUSH1 0x40 DUP3 ADD SWAP1 POP SWAP2 SWAP1 POP JUMP JUMPDEST PUSH1 0x0 PUSH2 0x1107 PUSH1 0xE DUP4 PUSH2 0x149F JUMP JUMPDEST SWAP2 POP PUSH2 0x1112 DUP3 PUSH2 0x18DD JUMP JUMPDEST PUSH1 0x20 DUP3 ADD SWAP1 POP SWAP2 SWAP1 POP JUMP JUMPDEST PUSH1 0x0 PUSH2 0x112A PUSH1 0x2C DUP4 PUSH2 0x149F JUMP JUMPDEST SWAP2 POP PUSH2 0x1135 DUP3 PUSH2 0x1906 JUMP JUMPDEST PUSH1 0x40 DUP3 ADD SWAP1 POP SWAP2 SWAP1 POP JUMP JUMPDEST PUSH1 0x0 PUSH2 0x114D PUSH1 0xE DUP4 PUSH2 0x149F JUMP JUMPDEST SWAP2 POP PUSH2 0x1158 DUP3 PUSH2 0x1955 JUMP JUMPDEST PUSH1 0x20 DUP3 ADD SWAP1 POP SWAP2 SWAP1 POP JUMP JUMPDEST PUSH1 0x0 PUSH2 0x1170 PUSH1 0x27 DUP4 PUSH2 0x149F JUMP JUMPDEST SWAP2 POP PUSH2 0x117B DUP3 PUSH2 0x197E JUMP JUMPDEST PUSH1 0x40 DUP3 ADD SWAP1 POP SWAP2 SWAP1 POP JUMP JUMPDEST PUSH1 0x0 PUSH2 0x1193 PUSH1 0x32 DUP4 PUSH2 0x149F JUMP JUMPDEST SWAP2 POP PUSH2 0x119E DUP3 PUSH2 0x19CD JUMP JUMPDEST PUSH1 0x40 DUP3 ADD SWAP1 POP SWAP2 SWAP1 POP JUMP JUMPDEST PUSH1 0x0 PUSH2 0x11B6 PUSH1 0x14 DUP4 PUSH2 0x149F JUMP JUMPDEST SWAP2 POP PUSH2 0x11C1 DUP3 PUSH2 0x1A1C JUMP JUMPDEST PUSH1 0x20 DUP3 ADD SWAP1 POP SWAP2 SWAP1 POP JUMP JUMPDEST PUSH2 0x11D5 DUP2 PUSH2 0x1615 JUMP JUMPDEST DUP3 MSTORE POP POP JUMP JUMPDEST PUSH1 0x0 PUSH1 0x20 DUP3 ADD SWAP1 POP PUSH2 0x11F0 PUSH1 0x0 DUP4 ADD DUP5 PUSH2 0xF5B JUMP JUMPDEST SWAP3 SWAP2 POP POP JUMP JUMPDEST PUSH1 0x0 PUSH1 0x20 DUP3 ADD SWAP1 POP PUSH2 0x120B PUSH1 0x0 DUP4 ADD DUP5 PUSH2 0xF4C JUMP JUMPDEST SWAP3 SWAP2 POP POP JUMP JUMPDEST PUSH1 0x0 PUSH1 0x20 DUP3 ADD SWAP1 POP PUSH2 0x1226 PUSH1 0x0 DUP4 ADD DUP5 PUSH2 0xF6A JUMP JUMPDEST SWAP3 SWAP2 POP POP JUMP JUMPDEST PUSH1 0x0 PUSH1 0x40 DUP3 ADD SWAP1 POP DUP2 DUP2 SUB PUSH1 0x0 DUP4 ADD MSTORE PUSH2 0x1245 DUP2 PUSH2 0xF79 JUMP JUMPDEST SWAP1 POP PUSH2 0x1254 PUSH1 0x20 DUP4 ADD DUP5 PUSH2 0xF5B JUMP JUMPDEST SWAP3 SWAP2 POP POP JUMP JUMPDEST PUSH1 0x0 PUSH1 0x40 DUP3 ADD SWAP1 POP DUP2 DUP2 SUB PUSH1 0x0 DUP4 ADD MSTORE PUSH2 0x1273 DUP2 PUSH2 0xF9C JUMP JUMPDEST SWAP1 POP PUSH2 0x1282 PUSH1 0x20 DUP4 ADD DUP5 PUSH2 0xF5B JUMP JUMPDEST SWAP3 SWAP2 POP POP JUMP JUMPDEST PUSH1 0x0 PUSH1 0x20 DUP3 ADD SWAP1 POP DUP2 DUP2 SUB PUSH1 0x0 DUP4 ADD MSTORE PUSH2 0x12A1 DUP2 PUSH2 0xFBF JUMP JUMPDEST SWAP1 POP SWAP2 SWAP1 POP JUMP JUMPDEST PUSH1 0x0 PUSH1 0x20 DUP3 ADD SWAP1 POP DUP2 DUP2 SUB PUSH1 0x0 DUP4 ADD MSTORE PUSH2 0x12C1 DUP2 PUSH2 0xFE2 JUMP JUMPDEST SWAP1 POP SWAP2 SWAP1 POP JUMP JUMPDEST PUSH1 0x0 PUSH1 0x20 DUP3 ADD SWAP1 POP DUP2 DUP2 SUB PUSH1 0x0 DUP4 ADD MSTORE PUSH2 0x12E1 DUP2 PUSH2 0x1005 JUMP JUMPDEST SWAP1 POP SWAP2 SWAP1 POP JUMP JUMPDEST PUSH1 0x0 PUSH1 0x20 DUP3 ADD SWAP1 POP DUP2 DUP2 SUB PUSH1 0x0 DUP4 ADD MSTORE PUSH2 0x1301 DUP2 PUSH2 0x1028 JUMP JUMPDEST SWAP1 POP SWAP2 SWAP1 POP JUMP JUMPDEST PUSH1 0x0 PUSH1 0x20 DUP3 ADD SWAP1 POP DUP2 DUP2 SUB PUSH1 0x0 DUP4 ADD MSTORE PUSH2 0x1321 DUP2 PUSH2 0x104B JUMP JUMPDEST SWAP1 POP SWAP2 SWAP1 POP JUMP JUMPDEST PUSH1 0x0 PUSH1 0x40 DUP3 ADD SWAP1 POP DUP2 DUP2 SUB PUSH1 0x0 DUP4 ADD MSTORE PUSH2 0x1341 DUP2 PUSH2 0x106E JUMP JUMPDEST SWAP1 POP PUSH2 0x1350 PUSH1 0x20 DUP4 ADD DUP5 PUSH2 0xF5B JUMP JUMPDEST SWAP3 SWAP2 POP POP JUMP JUMPDEST PUSH1 0x0 PUSH1 0x20 DUP3 ADD SWAP1 POP DUP2 DUP2 SUB PUSH1 0x0 DUP4 ADD MSTORE PUSH2 0x136F DUP2 PUSH2 0x1091 JUMP JUMPDEST SWAP1 POP SWAP2 SWAP1 POP JUMP JUMPDEST PUSH1 0x0 PUSH1 0x20 DUP3 ADD SWAP1 POP DUP2 DUP2 SUB PUSH1 0x0 DUP4 ADD MSTORE PUSH2 0x138F DUP2 PUSH2 0x10B4 JUMP JUMPDEST SWAP1 POP SWAP2 SWAP1 POP JUMP JUMPDEST PUSH1 0x0 PUSH1 0x20 DUP3 ADD SWAP1 POP DUP2 DUP2 SUB PUSH1 0x0 DUP4 ADD MSTORE PUSH2 0x13AF DUP2 PUSH2 0x10D7 JUMP JUMPDEST SWAP1 POP SWAP2 SWAP1 POP JUMP JUMPDEST PUSH1 0x0 PUSH1 0x40 DUP3 ADD SWAP1 POP DUP2 DUP2 SUB PUSH1 0x0 DUP4 ADD MSTORE PUSH2 0x13CF DUP2 PUSH2 0x10FA JUMP JUMPDEST SWAP1 POP PUSH2 0x13DE PUSH1 0x20 DUP4 ADD DUP5 PUSH2 0xF5B JUMP JUMPDEST SWAP3 SWAP2 POP POP JUMP JUMPDEST PUSH1 0x0 PUSH1 0x20 DUP3 ADD SWAP1 POP DUP2 DUP2 SUB PUSH1 0x0 DUP4 ADD MSTORE PUSH2 0x13FD DUP2 PUSH2 0x111D JUMP JUMPDEST SWAP1 POP SWAP2 SWAP1 POP JUMP JUMPDEST PUSH1 0x0 PUSH1 0x20 DUP3 ADD SWAP1 POP DUP2 DUP2 SUB PUSH1 0x0 DUP4 ADD MSTORE PUSH2 0x141D DUP2 PUSH2 0x1140 JUMP JUMPDEST SWAP1 POP SWAP2 SWAP1 POP JUMP JUMPDEST PUSH1 0x0 PUSH1 0x20 DUP3 ADD SWAP1 POP DUP2 DUP2 SUB PUSH1 0x0 DUP4 ADD MSTORE PUSH2 0x143D DUP2 PUSH2 0x1163 JUMP JUMPDEST SWAP1 POP SWAP2 SWAP1 POP JUMP JUMPDEST PUSH1 0x0 PUSH1 0x20 DUP3 ADD SWAP1 POP DUP2 DUP2 SUB PUSH1 0x0 DUP4 ADD MSTORE PUSH2 0x145D DUP2 PUSH2 0x1186 JUMP JUMPDEST SWAP1 POP SWAP2 SWAP1 POP JUMP JUMPDEST PUSH1 0x0 PUSH1 0x20 DUP3 ADD SWAP1 POP DUP2 DUP2 SUB PUSH1 0x0 DUP4 ADD MSTORE PUSH2 0x147D DUP2 PUSH2 0x11A9 JUMP JUMPDEST SWAP1 POP SWAP2 SWAP1 POP JUMP JUMPDEST PUSH1 0x0 PUSH1 0x20 DUP3 ADD SWAP1 POP PUSH2 0x1499 PUSH1 0x0 DUP4 ADD DUP5 PUSH2 0x11CC JUMP JUMPDEST SWAP3 SWAP2 POP POP JUMP JUMPDEST PUSH1 0x0 DUP3 DUP3 MSTORE PUSH1 0x20 DUP3 ADD SWAP1 POP SWAP3 SWAP2 POP POP JUMP JUMPDEST PUSH1 0x0 PUSH2 0x14BB DUP3 PUSH2 0x1615 JUMP JUMPDEST SWAP2 POP PUSH2 0x14C6 DUP4 PUSH2 0x1615 JUMP JUMPDEST SWAP3 POP DUP3 PUSH32 0xFFFFFFFFFFFFFFFFFFFFFFFFFFFFFFFFFFFFFFFFFFFFFFFFFFFFFFFFFFFFFFFF SUB DUP3 GT ISZERO PUSH2 0x14FB JUMPI PUSH2 0x14FA PUSH2 0x161F JUMP JUMPDEST JUMPDEST DUP3 DUP3 ADD SWAP1 POP SWAP3 SWAP2 POP POP JUMP JUMPDEST PUSH1 0x0 PUSH2 0x1511 DUP3 PUSH2 0x1615 JUMP JUMPDEST SWAP2 POP PUSH2 0x151C DUP4 PUSH2 0x1615 JUMP JUMPDEST SWAP3 POP DUP3 PUSH2 0x152C JUMPI PUSH2 0x152B PUSH2 0x164E JUMP JUMPDEST JUMPDEST DUP3 DUP3 DIV SWAP1 POP SWAP3 SWAP2 POP POP JUMP JUMPDEST PUSH1 0x0 PUSH2 0x1542 DUP3 PUSH2 0x1615 JUMP JUMPDEST SWAP2 POP PUSH2 0x154D DUP4 PUSH2 0x1615 JUMP JUMPDEST SWAP3 POP DUP2 PUSH32 0xFFFFFFFFFFFFFFFFFFFFFFFFFFFFFFFFFFFFFFFFFFFFFFFFFFFFFFFFFFFFFFFF DIV DUP4 GT DUP3 ISZERO ISZERO AND ISZERO PUSH2 0x1586 JUMPI PUSH2 0x1585 PUSH2 0x161F JUMP JUMPDEST JUMPDEST DUP3 DUP3 MUL SWAP1 POP SWAP3 SWAP2 POP POP JUMP JUMPDEST PUSH1 0x0 PUSH2 0x159C DUP3 PUSH2 0x1615 JUMP JUMPDEST SWAP2 POP PUSH2 0x15A7 DUP4 PUSH2 0x1615 JUMP JUMPDEST SWAP3 POP DUP3 DUP3 LT ISZERO PUSH2 0x15BA JUMPI PUSH2 0x15B9 PUSH2 0x161F JUMP JUMPDEST JUMPDEST DUP3 DUP3 SUB SWAP1 POP SWAP3 SWAP2 POP POP JUMP JUMPDEST PUSH1 0x0 PUSH2 0x15D0 DUP3 PUSH2 0x15F5 JUMP JUMPDEST SWAP1 POP SWAP2 SWAP1 POP JUMP JUMPDEST PUSH1 0x0 PUSH2 0x15E2 DUP3 PUSH2 0x15F5 JUMP JUMPDEST SWAP1 POP SWAP2 SWAP1 POP JUMP JUMPDEST PUSH1 0x0 DUP2 ISZERO ISZERO SWAP1 POP SWAP2 SWAP1 POP JUMP JUMPDEST PUSH1 0x0 PUSH20 0xFFFFFFFFFFFFFFFFFFFFFFFFFFFFFFFFFFFFFFFF DUP3 AND SWAP1 POP SWAP2 SWAP1 POP JUMP JUMPDEST PUSH1 0x0 DUP2 SWAP1 POP SWAP2 SWAP1 POP JUMP JUMPDEST PUSH32 0x4E487B7100000000000000000000000000000000000000000000000000000000 PUSH1 0x0 MSTORE PUSH1 0x11 PUSH1 0x4 MSTORE PUSH1 0x24 PUSH1 0x0 REVERT JUMPDEST PUSH32 0x4E487B7100000000000000000000000000000000000000000000000000000000 PUSH1 0x0 MSTORE PUSH1 0x12 PUSH1 0x4 MSTORE PUSH1 0x24 PUSH1 0x0 REVERT JUMPDEST PUSH1 0x0 DUP1 REVERT JUMPDEST PUSH32 0x4D6F6E6579207769746864726177656E20746F00000000000000000000000000 PUSH1 0x0 DUP3 ADD MSTORE POP JUMP JUMPDEST PUSH32 0x456469746F72207570646174656420746F000000000000000000000000000000 PUSH1 0x0 DUP3 ADD MSTORE POP JUMP JUMPDEST PUSH32 0x4F6E6C7920616C6C6F7765642067617465732063616E20616363657373207468 PUSH1 0x0 DUP3 ADD MSTORE PUSH32 0x6973206D6574686F640000000000000000000000000000000000000000000000 PUSH1 0x20 DUP3 ADD MSTORE POP JUMP JUMPDEST PUSH32 0x596F7520646F6E2774206861766520616E79206D6F6E657920696E2068657265 PUSH1 0x0 DUP3 ADD MSTORE POP JUMP JUMPDEST PUSH32 0x4D696E696D756D20312045746865722052657175697265640000000000000000 PUSH1 0x0 DUP3 ADD MSTORE POP JUMP JUMPDEST PUSH32 0x596F7520646F6E27742068617665206E6F2070656E64696E6720776974686472 PUSH1 0x0 DUP3 ADD MSTORE PUSH32 0x61776C7300000000000000000000000000000000000000000000000000000000 PUSH1 0x20 DUP3 ADD MSTORE POP JUMP JUMPDEST PUSH32 0x4F6E6C7920656469746F722063616E206163636573732074686973206D657468 PUSH1 0x0 DUP3 ADD MSTORE PUSH32 0x6F64000000000000000000000000000000000000000000000000000000000000 PUSH1 0x20 DUP3 ADD MSTORE POP JUMP JUMPDEST PUSH32 0x7374616B65640000000000000000000000000000000000000000000000000000 PUSH1 0x0 DUP3 ADD MSTORE POP JUMP JUMPDEST PUSH32 0x537562737472616374696F6E206661696C640000000000000000000000000000 PUSH1 0x0 DUP3 ADD MSTORE POP JUMP JUMPDEST PUSH32 0x4164646974696F6E206661696C65640000000000000000000000000000000000 PUSH1 0x0 DUP3 ADD MSTORE POP JUMP JUMPDEST PUSH32 0x596F752073686F756C642061746C65617374207374616B6520666F722061206D PUSH1 0x0 DUP3 ADD MSTORE PUSH32 0x6F6E747900000000000000000000000000000000000000000000000000000000 PUSH1 0x20 DUP3 ADD MSTORE POP JUMP JUMPDEST PUSH32 0x6E65772067617465206164646564000000000000000000000000000000000000 PUSH1 0x0 DUP3 ADD MSTORE POP JUMP JUMPDEST PUSH32 0x4F6E6C7920696E697469616C2075706C6F616465722063616E20616363657373 PUSH1 0x0 DUP3 ADD MSTORE PUSH32 0x2074686973206D6574686F640000000000000000000000000000000000000000 PUSH1 0x20 DUP3 ADD MSTORE POP JUMP JUMPDEST PUSH32 0x4469766973696F6E206661696C64000000000000000000000000000000000000 PUSH1 0x0 DUP3 ADD MSTORE POP JUMP JUMPDEST PUSH32 0x446F65736E2774206861766520656E6F7567682062616C616E636520696E2074 PUSH1 0x0 DUP3 ADD MSTORE PUSH32 0x68652062616E6B00000000000000000000000000000000000000000000000000 PUSH1 0x20 DUP3 ADD MSTORE POP JUMP JUMPDEST PUSH32 0x536F72727920776520646F6E2774206861766520656E6F756768206D6F6E6579 PUSH1 0x0 DUP3 ADD MSTORE PUSH32 0x20736F20636F6D656261636B206C617465720000000000000000000000000000 PUSH1 0x20 DUP3 ADD MSTORE POP JUMP JUMPDEST PUSH32 0x4D756C7469706C69636174696F6E206661696C64000000000000000000000000 PUSH1 0x0 DUP3 ADD MSTORE POP JUMP JUMPDEST PUSH2 0x1A4E DUP2 PUSH2 0x15C5 JUMP JUMPDEST DUP2 EQ PUSH2 0x1A59 JUMPI PUSH1 0x0 DUP1 REVERT JUMPDEST POP JUMP JUMPDEST PUSH2 0x1A65 DUP2 PUSH2 0x1615 JUMP JUMPDEST DUP2 EQ PUSH2 0x1A70 JUMPI PUSH1 0x0 DUP1 REVERT JUMPDEST POP JUMP INVALID LOG2 PUSH5 0x6970667358 0x22 SLT KECCAK256 0x25 0xE0 CALLVALUE 0xDE 0xE5 SELFDESTRUCT 0xCA 0xEC 0x2B PUSH12 0x8E434C2CE762A94AB5861E26 ORIGIN CALLCODE 0xD6 ADDMOD 0xB3 0xAE SWAP15 MUL 0x5D PUSH24 0x64736F6C6343000807003300000000000000000000000000 "
				},
				"gasEstimates": {
					"creation": {
						"codeDepositCost": "1365000",
						"executionCost": "50002",
						"totalCost": "1415002"
					},
					"external": {
						"": "218",
						"addGate(address)": "infinite",
						"allowed_pools(address)": "2889",
						"deposit()": "infinite",
						"depositWithdraw()": "infinite",
						"editor()": "2581",
						"gateWithdrawl()": "infinite",
						"lendingWithdraw(uint256,address)": "infinite",
						"minimumAmt()": "2518",
						"owner()": "2559",
						"pendingPayment(address)": "2836",
						"stakedAmount(address)": "2902",
						"startTime(address)": "2837",
						"updateEditor(address)": "infinite"
					}
				},
				"methodIdentifiers": {
					"addGate(address)": "1e23271d",
					"allowed_pools(address)": "c02b2092",
					"deposit()": "d0e30db0",
					"depositWithdraw()": "6e0e0da2",
					"editor()": "a464d265",
					"gateWithdrawl()": "56852391",
					"lendingWithdraw(uint256,address)": "3607999b",
					"minimumAmt()": "650fad76",
					"owner()": "8da5cb5b",
					"pendingPayment(address)": "aeae177c",
					"stakedAmount(address)": "f9931855",
					"startTime(address)": "6e1dc66e",
					"updateEditor(address)": "166d7b48"
				}
			},
			"userdoc": {
				"kind": "user",
				"methods": {
					"deposit()": {
						"notice": "lenders can deposit money to lending pool"
					},
					"depositWithdraw()": {
						"notice": "notice Stakers can use this function to take out thier money"
					}
				},
				"notice": "Lending pool for Swip3",
				"version": 1
			}
		}
	}
}