{
	"contracts/LendingPool.sol": {
		"LendingPool": {
			"abi": [
				{
					"inputs": [],
					"stateMutability": "nonpayable",
					"type": "constructor"
				},
				{
					"anonymous": false,
					"inputs": [
						{
							"indexed": false,
							"internalType": "string",
							"name": "message",
							"type": "string"
						},
						{
							"indexed": false,
							"internalType": "address",
							"name": "from",
							"type": "address"
						}
					],
					"name": "LendingPoolMessage",
					"type": "event"
				},
				{
					"stateMutability": "payable",
					"type": "fallback"
				},
				{
					"inputs": [
						{
							"internalType": "address",
							"name": "",
							"type": "address"
						}
					],
					"name": "allowed_pools",
					"outputs": [
						{
							"internalType": "bool",
							"name": "",
							"type": "bool"
						}
					],
					"stateMutability": "view",
					"type": "function"
				},
				{
					"inputs": [],
					"name": "deposit",
					"outputs": [],
					"stateMutability": "payable",
					"type": "function"
				},
				{
					"inputs": [],
					"name": "depositWithdraw",
					"outputs": [],
					"stateMutability": "nonpayable",
					"type": "function"
				},
				{
					"inputs": [],
					"name": "editor",
					"outputs": [
						{
							"internalType": "address",
							"name": "",
							"type": "address"
						}
					],
					"stateMutability": "view",
					"type": "function"
				},
				{
					"inputs": [],
					"name": "gateWithdrawl",
					"outputs": [],
					"stateMutability": "nonpayable",
					"type": "function"
				},
				{
					"inputs": [
						{
							"internalType": "uint256",
							"name": "amount",
							"type": "uint256"
						},
						{
							"internalType": "address",
							"name": "to",
							"type": "address"
						}
					],
					"name": "lendingWithdraw",
					"outputs": [],
					"stateMutability": "payable",
					"type": "function"
				},
				{
					"inputs": [],
					"name": "minimumAmt",
					"outputs": [
						{
							"internalType": "uint256",
							"name": "",
							"type": "uint256"
						}
					],
					"stateMutability": "view",
					"type": "function"
				},
				{
					"inputs": [],
					"name": "owner",
					"outputs": [
						{
							"internalType": "address payable",
							"name": "",
							"type": "address"
						}
					],
					"stateMutability": "view",
					"type": "function"
				},
				{
					"inputs": [
						{
							"internalType": "address",
							"name": "",
							"type": "address"
						}
					],
					"name": "pendingPayment",
					"outputs": [
						{
							"internalType": "uint256",
							"name": "",
							"type": "uint256"
						}
					],
					"stateMutability": "view",
					"type": "function"
				},
				{
					"inputs": [
						{
							"internalType": "address",
							"name": "",
							"type": "address"
						}
					],
					"name": "stakedAmount",
					"outputs": [
						{
							"internalType": "uint256",
							"name": "",
							"type": "uint256"
						}
					],
					"stateMutability": "view",
					"type": "function"
				},
				{
					"inputs": [
						{
							"internalType": "address",
							"name": "",
							"type": "address"
						}
					],
					"name": "startTime",
					"outputs": [
						{
							"internalType": "uint256",
							"name": "",
							"type": "uint256"
						}
					],
					"stateMutability": "view",
					"type": "function"
				},
				{
					"inputs": [
						{
							"internalType": "address",
							"name": "new_editor",
							"type": "address"
						}
					],
					"name": "updateEditor",
					"outputs": [],
					"stateMutability": "nonpayable",
					"type": "function"
				},
				{
					"stateMutability": "payable",
					"type": "receive"
				}
			],
			"devdoc": {
				"author": "Hileamlak Yitayew, Matt Tengtrakool",
				"details": "need help review ",
				"kind": "dev",
				"methods": {},
				"title": "LendingPool ",
				"version": 1
			},
			"evm": {
				"assembly": "    /* \"contracts/LendingPool.sol\":219:3397  contract LendingPool  {... */\n  mstore(0x40, 0x80)\n    /* \"contracts/LendingPool.sol\":309:316  1 ether */\n  0x0de0b6b3a7640000\n    /* \"contracts/LendingPool.sol\":281:316  uint256 public minimumAmt = 1 ether */\n  0x00\n  sstore\n    /* \"contracts/LendingPool.sol\":748:875  constructor() {... */\n  callvalue\n  dup1\n  iszero\n  tag_1\n  jumpi\n  0x00\n  dup1\n  revert\ntag_1:\n  pop\n    /* \"contracts/LendingPool.sol\":788:798  msg.sender */\n  caller\n    /* \"contracts/LendingPool.sol\":772:777  owner */\n  0x01\n  0x00\n    /* \"contracts/LendingPool.sol\":772:799  owner = payable(msg.sender) */\n  0x0100\n  exp\n  dup2\n  sload\n  dup2\n  0xffffffffffffffffffffffffffffffffffffffff\n  mul\n  not\n  and\n  swap1\n  dup4\n  0xffffffffffffffffffffffffffffffffffffffff\n  and\n  mul\n  or\n  swap1\n  sstore\n  pop\n    /* \"contracts/LendingPool.sol\":814:868  LendingPoolMessage(\"Lending pool created\", msg.sender) */\n  0xf67e7992d539193fc243c42fe89f8fab49013e8e4fb18cfa891dc51adcaccc80\n    /* \"contracts/LendingPool.sol\":857:867  msg.sender */\n  caller\n    /* \"contracts/LendingPool.sol\":814:868  LendingPoolMessage(\"Lending pool created\", msg.sender) */\n  mload(0x40)\n  tag_4\n  swap2\n  swap1\n  tag_5\n  jump\t// in\ntag_4:\n  mload(0x40)\n  dup1\n  swap2\n  sub\n  swap1\n  log1\n    /* \"contracts/LendingPool.sol\":219:3397  contract LendingPool  {... */\n  jump(tag_6)\n    /* \"#utility.yul\":7:125   */\ntag_8:\n    /* \"#utility.yul\":94:118   */\n  tag_10\n    /* \"#utility.yul\":112:117   */\n  dup2\n    /* \"#utility.yul\":94:118   */\n  tag_11\n  jump\t// in\ntag_10:\n    /* \"#utility.yul\":89:92   */\n  dup3\n    /* \"#utility.yul\":82:119   */\n  mstore\n    /* \"#utility.yul\":7:125   */\n  pop\n  pop\n  jump\t// out\n    /* \"#utility.yul\":131:497   */\ntag_12:\n    /* \"#utility.yul\":273:276   */\n  0x00\n    /* \"#utility.yul\":294:361   */\n  tag_14\n    /* \"#utility.yul\":358:360   */\n  0x14\n    /* \"#utility.yul\":353:356   */\n  dup4\n    /* \"#utility.yul\":294:361   */\n  tag_15\n  jump\t// in\ntag_14:\n    /* \"#utility.yul\":287:361   */\n  swap2\n  pop\n    /* \"#utility.yul\":370:463   */\n  tag_16\n    /* \"#utility.yul\":459:462   */\n  dup3\n    /* \"#utility.yul\":370:463   */\n  tag_17\n  jump\t// in\ntag_16:\n    /* \"#utility.yul\":488:490   */\n  0x20\n    /* \"#utility.yul\":483:486   */\n  dup3\n    /* \"#utility.yul\":479:491   */\n  add\n    /* \"#utility.yul\":472:491   */\n  swap1\n  pop\n    /* \"#utility.yul\":131:497   */\n  swap2\n  swap1\n  pop\n  jump\t// out\n    /* \"#utility.yul\":503:1032   */\ntag_5:\n    /* \"#utility.yul\":697:701   */\n  0x00\n    /* \"#utility.yul\":735:737   */\n  0x40\n    /* \"#utility.yul\":724:733   */\n  dup3\n    /* \"#utility.yul\":720:738   */\n  add\n    /* \"#utility.yul\":712:738   */\n  swap1\n  pop\n    /* \"#utility.yul\":784:793   */\n  dup2\n    /* \"#utility.yul\":778:782   */\n  dup2\n    /* \"#utility.yul\":774:794   */\n  sub\n    /* \"#utility.yul\":770:771   */\n  0x00\n    /* \"#utility.yul\":759:768   */\n  dup4\n    /* \"#utility.yul\":755:772   */\n  add\n    /* \"#utility.yul\":748:795   */\n  mstore\n    /* \"#utility.yul\":812:943   */\n  tag_19\n    /* \"#utility.yul\":938:942   */\n  dup2\n    /* \"#utility.yul\":812:943   */\n  tag_12\n  jump\t// in\ntag_19:\n    /* \"#utility.yul\":804:943   */\n  swap1\n  pop\n    /* \"#utility.yul\":953:1025   */\n  tag_20\n    /* \"#utility.yul\":1021:1023   */\n  0x20\n    /* \"#utility.yul\":1010:1019   */\n  dup4\n    /* \"#utility.yul\":1006:1024   */\n  add\n    /* \"#utility.yul\":997:1003   */\n  dup5\n    /* \"#utility.yul\":953:1025   */\n  tag_8\n  jump\t// in\ntag_20:\n    /* \"#utility.yul\":503:1032   */\n  swap3\n  swap2\n  pop\n  pop\n  jump\t// out\n    /* \"#utility.yul\":1038:1207   */\ntag_15:\n    /* \"#utility.yul\":1122:1133   */\n  0x00\n    /* \"#utility.yul\":1156:1162   */\n  dup3\n    /* \"#utility.yul\":1151:1154   */\n  dup3\n    /* \"#utility.yul\":1144:1163   */\n  mstore\n    /* \"#utility.yul\":1196:1200   */\n  0x20\n    /* \"#utility.yul\":1191:1194   */\n  dup3\n    /* \"#utility.yul\":1187:1201   */\n  add\n    /* \"#utility.yul\":1172:1201   */\n  swap1\n  pop\n    /* \"#utility.yul\":1038:1207   */\n  swap3\n  swap2\n  pop\n  pop\n  jump\t// out\n    /* \"#utility.yul\":1213:1309   */\ntag_11:\n    /* \"#utility.yul\":1250:1257   */\n  0x00\n    /* \"#utility.yul\":1279:1303   */\n  tag_23\n    /* \"#utility.yul\":1297:1302   */\n  dup3\n    /* \"#utility.yul\":1279:1303   */\n  tag_24\n  jump\t// in\ntag_23:\n    /* \"#utility.yul\":1268:1303   */\n  swap1\n  pop\n    /* \"#utility.yul\":1213:1309   */\n  swap2\n  swap1\n  pop\n  jump\t// out\n    /* \"#utility.yul\":1315:1441   */\ntag_24:\n    /* \"#utility.yul\":1352:1359   */\n  0x00\n    /* \"#utility.yul\":1392:1434   */\n  0xffffffffffffffffffffffffffffffffffffffff\n    /* \"#utility.yul\":1385:1390   */\n  dup3\n    /* \"#utility.yul\":1381:1435   */\n  and\n    /* \"#utility.yul\":1370:1435   */\n  swap1\n  pop\n    /* \"#utility.yul\":1315:1441   */\n  swap2\n  swap1\n  pop\n  jump\t// out\n    /* \"#utility.yul\":1447:1617   */\ntag_17:\n    /* \"#utility.yul\":1587:1609   */\n  0x4c656e64696e6720706f6f6c2063726561746564000000000000000000000000\n    /* \"#utility.yul\":1583:1584   */\n  0x00\n    /* \"#utility.yul\":1575:1581   */\n  dup3\n    /* \"#utility.yul\":1571:1585   */\n  add\n    /* \"#utility.yul\":1564:1610   */\n  mstore\n    /* \"#utility.yul\":1447:1617   */\n  pop\n  jump\t// out\n    /* \"contracts/LendingPool.sol\":219:3397  contract LendingPool  {... */\ntag_6:\n  dataSize(sub_0)\n  dup1\n  dataOffset(sub_0)\n  0x00\n  codecopy\n  0x00\n  return\nstop\n\nsub_0: assembly {\n        /* \"contracts/LendingPool.sol\":219:3397  contract LendingPool  {... */\n      mstore(0x40, 0x80)\n      jumpi(tag_1, lt(calldatasize, 0x04))\n      shr(0xe0, calldataload(0x00))\n      dup1\n      0x8da5cb5b\n      gt\n      tag_15\n      jumpi\n      dup1\n      0x8da5cb5b\n      eq\n      tag_9\n      jumpi\n      dup1\n      0xa464d265\n      eq\n      tag_10\n      jumpi\n      dup1\n      0xaeae177c\n      eq\n      tag_11\n      jumpi\n      dup1\n      0xc02b2092\n      eq\n      tag_12\n      jumpi\n      dup1\n      0xd0e30db0\n      eq\n      tag_13\n      jumpi\n      dup1\n      0xf9931855\n      eq\n      tag_14\n      jumpi\n      jump(tag_2)\n    tag_15:\n      dup1\n      0x166d7b48\n      eq\n      tag_3\n      jumpi\n      dup1\n      0x3607999b\n      eq\n      tag_4\n      jumpi\n      dup1\n      0x56852391\n      eq\n      tag_5\n      jumpi\n      dup1\n      0x650fad76\n      eq\n      tag_6\n      jumpi\n      dup1\n      0x6e0e0da2\n      eq\n      tag_7\n      jumpi\n      dup1\n      0x6e1dc66e\n      eq\n      tag_8\n      jumpi\n      jump(tag_2)\n    tag_1:\n      jumpi(tag_2, calldatasize)\n      stop\n    tag_2:\n      stop\n        /* \"contracts/LendingPool.sol\":1274:1435  function updateEditor(address new_editor) public onlyOwner{... */\n    tag_3:\n      callvalue\n      dup1\n      iszero\n      tag_20\n      jumpi\n      0x00\n      dup1\n      revert\n    tag_20:\n      pop\n      tag_21\n      0x04\n      dup1\n      calldatasize\n      sub\n      dup2\n      add\n      swap1\n      tag_22\n      swap2\n      swap1\n      tag_23\n      jump\t// in\n    tag_22:\n      tag_24\n      jump\t// in\n    tag_21:\n      stop\n        /* \"contracts/LendingPool.sol\":1908:2269  function lendingWithdraw(uint256 amount, address to) public payable onlyAllowedGate {... */\n    tag_4:\n      tag_25\n      0x04\n      dup1\n      calldatasize\n      sub\n      dup2\n      add\n      swap1\n      tag_26\n      swap2\n      swap1\n      tag_27\n      jump\t// in\n    tag_26:\n      tag_28\n      jump\t// in\n    tag_25:\n      stop\n        /* \"contracts/LendingPool.sol\":3043:3315  function gateWithdrawl() public {... */\n    tag_5:\n      callvalue\n      dup1\n      iszero\n      tag_29\n      jumpi\n      0x00\n      dup1\n      revert\n    tag_29:\n      pop\n      tag_30\n      tag_31\n      jump\t// in\n    tag_30:\n      stop\n        /* \"contracts/LendingPool.sol\":281:316  uint256 public minimumAmt = 1 ether */\n    tag_6:\n      callvalue\n      dup1\n      iszero\n      tag_32\n      jumpi\n      0x00\n      dup1\n      revert\n    tag_32:\n      pop\n      tag_33\n      tag_34\n      jump\t// in\n    tag_33:\n      mload(0x40)\n      tag_35\n      swap2\n      swap1\n      tag_36\n      jump\t// in\n    tag_35:\n      mload(0x40)\n      dup1\n      swap2\n      sub\n      swap1\n      return\n        /* \"contracts/LendingPool.sol\":2343:2967  function depositWithdraw() public{... */\n    tag_7:\n      callvalue\n      dup1\n      iszero\n      tag_37\n      jumpi\n      0x00\n      dup1\n      revert\n    tag_37:\n      pop\n      tag_38\n      tag_39\n      jump\t// in\n    tag_38:\n      stop\n        /* \"contracts/LendingPool.sol\":477:521  mapping(address => uint256) public startTime */\n    tag_8:\n      callvalue\n      dup1\n      iszero\n      tag_40\n      jumpi\n      0x00\n      dup1\n      revert\n    tag_40:\n      pop\n      tag_41\n      0x04\n      dup1\n      calldatasize\n      sub\n      dup2\n      add\n      swap1\n      tag_42\n      swap2\n      swap1\n      tag_23\n      jump\t// in\n    tag_42:\n      tag_43\n      jump\t// in\n    tag_41:\n      mload(0x40)\n      tag_44\n      swap2\n      swap1\n      tag_36\n      jump\t// in\n    tag_44:\n      mload(0x40)\n      dup1\n      swap2\n      sub\n      swap1\n      return\n        /* \"contracts/LendingPool.sol\":322:350  address payable public owner */\n    tag_9:\n      callvalue\n      dup1\n      iszero\n      tag_45\n      jumpi\n      0x00\n      dup1\n      revert\n    tag_45:\n      pop\n      tag_46\n      tag_47\n      jump\t// in\n    tag_46:\n      mload(0x40)\n      tag_48\n      swap2\n      swap1\n      tag_49\n      jump\t// in\n    tag_48:\n      mload(0x40)\n      dup1\n      swap2\n      sub\n      swap1\n      return\n        /* \"contracts/LendingPool.sol\":392:413  address public editor */\n    tag_10:\n      callvalue\n      dup1\n      iszero\n      tag_50\n      jumpi\n      0x00\n      dup1\n      revert\n    tag_50:\n      pop\n      tag_51\n      tag_52\n      jump\t// in\n    tag_51:\n      mload(0x40)\n      tag_53\n      swap2\n      swap1\n      tag_54\n      jump\t// in\n    tag_53:\n      mload(0x40)\n      dup1\n      swap2\n      sub\n      swap1\n      return\n        /* \"contracts/LendingPool.sol\":580:629  mapping(address => uint256) public pendingPayment */\n    tag_11:\n      callvalue\n      dup1\n      iszero\n      tag_55\n      jumpi\n      0x00\n      dup1\n      revert\n    tag_55:\n      pop\n      tag_56\n      0x04\n      dup1\n      calldatasize\n      sub\n      dup2\n      add\n      swap1\n      tag_57\n      swap2\n      swap1\n      tag_23\n      jump\t// in\n    tag_57:\n      tag_58\n      jump\t// in\n    tag_56:\n      mload(0x40)\n      tag_59\n      swap2\n      swap1\n      tag_36\n      jump\t// in\n    tag_59:\n      mload(0x40)\n      dup1\n      swap2\n      sub\n      swap1\n      return\n        /* \"contracts/LendingPool.sol\":635:680  mapping(address => bool) public allowed_pools */\n    tag_12:\n      callvalue\n      dup1\n      iszero\n      tag_60\n      jumpi\n      0x00\n      dup1\n      revert\n    tag_60:\n      pop\n      tag_61\n      0x04\n      dup1\n      calldatasize\n      sub\n      dup2\n      add\n      swap1\n      tag_62\n      swap2\n      swap1\n      tag_23\n      jump\t// in\n    tag_62:\n      tag_63\n      jump\t// in\n    tag_61:\n      mload(0x40)\n      tag_64\n      swap2\n      swap1\n      tag_65\n      jump\t// in\n    tag_64:\n      mload(0x40)\n      dup1\n      swap2\n      sub\n      swap1\n      return\n        /* \"contracts/LendingPool.sol\":1499:1902  function deposit() public payable {... */\n    tag_13:\n      tag_66\n      tag_67\n      jump\t// in\n    tag_66:\n      stop\n        /* \"contracts/LendingPool.sol\":527:574  mapping(address => uint256) public stakedAmount */\n    tag_14:\n      callvalue\n      dup1\n      iszero\n      tag_68\n      jumpi\n      0x00\n      dup1\n      revert\n    tag_68:\n      pop\n      tag_69\n      0x04\n      dup1\n      calldatasize\n      sub\n      dup2\n      add\n      swap1\n      tag_70\n      swap2\n      swap1\n      tag_23\n      jump\t// in\n    tag_70:\n      tag_71\n      jump\t// in\n    tag_69:\n      mload(0x40)\n      tag_72\n      swap2\n      swap1\n      tag_36\n      jump\t// in\n    tag_72:\n      mload(0x40)\n      dup1\n      swap2\n      sub\n      swap1\n      return\n        /* \"contracts/LendingPool.sol\":1274:1435  function updateEditor(address new_editor) public onlyOwner{... */\n    tag_24:\n        /* \"contracts/LendingPool.sol\":934:939  owner */\n      0x01\n      0x00\n      swap1\n      sload\n      swap1\n      0x0100\n      exp\n      swap1\n      div\n      0xffffffffffffffffffffffffffffffffffffffff\n      and\n        /* \"contracts/LendingPool.sol\":920:939  msg.sender == owner */\n      0xffffffffffffffffffffffffffffffffffffffff\n      and\n        /* \"contracts/LendingPool.sol\":920:930  msg.sender */\n      caller\n        /* \"contracts/LendingPool.sol\":920:939  msg.sender == owner */\n      0xffffffffffffffffffffffffffffffffffffffff\n      and\n      eq\n        /* \"contracts/LendingPool.sol\":912:988  require(msg.sender == owner, \"Only initial uploader can access this method\") */\n      tag_74\n      jumpi\n      mload(0x40)\n      0x08c379a000000000000000000000000000000000000000000000000000000000\n      dup2\n      mstore\n      0x04\n      add\n      tag_75\n      swap1\n      tag_76\n      jump\t// in\n    tag_75:\n      mload(0x40)\n      dup1\n      swap2\n      sub\n      swap1\n      revert\n    tag_74:\n        /* \"contracts/LendingPool.sol\":1351:1361  new_editor */\n      dup1\n        /* \"contracts/LendingPool.sol\":1342:1348  editor */\n      0x03\n      0x00\n        /* \"contracts/LendingPool.sol\":1342:1361  editor = new_editor */\n      0x0100\n      exp\n      dup2\n      sload\n      dup2\n      0xffffffffffffffffffffffffffffffffffffffff\n      mul\n      not\n      and\n      swap1\n      dup4\n      0xffffffffffffffffffffffffffffffffffffffff\n      and\n      mul\n      or\n      swap1\n      sstore\n      pop\n        /* \"contracts/LendingPool.sol\":1376:1427  LendingPoolMessage(\"Editor updated to\", new_editor) */\n      0xf67e7992d539193fc243c42fe89f8fab49013e8e4fb18cfa891dc51adcaccc80\n        /* \"contracts/LendingPool.sol\":1416:1426  new_editor */\n      dup2\n        /* \"contracts/LendingPool.sol\":1376:1427  LendingPoolMessage(\"Editor updated to\", new_editor) */\n      mload(0x40)\n      tag_78\n      swap2\n      swap1\n      tag_79\n      jump\t// in\n    tag_78:\n      mload(0x40)\n      dup1\n      swap2\n      sub\n      swap1\n      log1\n        /* \"contracts/LendingPool.sol\":1274:1435  function updateEditor(address new_editor) public onlyOwner{... */\n      pop\n      jump\t// out\n        /* \"contracts/LendingPool.sol\":1908:2269  function lendingWithdraw(uint256 amount, address to) public payable onlyAllowedGate {... */\n    tag_28:\n        /* \"contracts/LendingPool.sol\":1179:1192  allowed_pools */\n      0x08\n        /* \"contracts/LendingPool.sol\":1179:1204  allowed_pools[msg.sender] */\n      0x00\n        /* \"contracts/LendingPool.sol\":1193:1203  msg.sender */\n      caller\n        /* \"contracts/LendingPool.sol\":1179:1204  allowed_pools[msg.sender] */\n      0xffffffffffffffffffffffffffffffffffffffff\n      and\n      0xffffffffffffffffffffffffffffffffffffffff\n      and\n      dup2\n      mstore\n      0x20\n      add\n      swap1\n      dup2\n      mstore\n      0x20\n      add\n      0x00\n      keccak256\n      0x00\n      swap1\n      sload\n      swap1\n      0x0100\n      exp\n      swap1\n      div\n      0xff\n      and\n        /* \"contracts/LendingPool.sol\":1171:1250  require(allowed_pools[msg.sender], \"Only allowed gates can access this method\") */\n      tag_81\n      jumpi\n      mload(0x40)\n      0x08c379a000000000000000000000000000000000000000000000000000000000\n      dup2\n      mstore\n      0x04\n      add\n      tag_82\n      swap1\n      tag_83\n      jump\t// in\n    tag_82:\n      mload(0x40)\n      dup1\n      swap2\n      sub\n      swap1\n      revert\n    tag_81:\n        /* \"contracts/LendingPool.sol\":2029:2043  totalDeposited */\n      sload(0x02)\n        /* \"contracts/LendingPool.sol\":2019:2025  amount */\n      dup3\n        /* \"contracts/LendingPool.sol\":2019:2043  amount <= totalDeposited */\n      gt\n      iszero\n        /* \"contracts/LendingPool.sol\":2011:2087  require(amount <= totalDeposited, \"Doesn't have enough balance in the bank\") */\n      tag_85\n      jumpi\n      mload(0x40)\n      0x08c379a000000000000000000000000000000000000000000000000000000000\n      dup2\n      mstore\n      0x04\n      add\n      tag_86\n      swap1\n      tag_87\n      jump\t// in\n    tag_86:\n      mload(0x40)\n      dup1\n      swap2\n      sub\n      swap1\n      revert\n    tag_85:\n        /* \"contracts/LendingPool.sol\":2114:2140  totalDeposited.sub(amount) */\n      tag_88\n        /* \"contracts/LendingPool.sol\":2133:2139  amount */\n      dup3\n        /* \"contracts/LendingPool.sol\":2114:2128  totalDeposited */\n      sload(0x02)\n        /* \"contracts/LendingPool.sol\":2114:2132  totalDeposited.sub */\n      tag_89\n      swap1\n        /* \"contracts/LendingPool.sol\":2114:2140  totalDeposited.sub(amount) */\n      swap2\n      swap1\n      0xffffffff\n      and\n      jump\t// in\n    tag_88:\n        /* \"contracts/LendingPool.sol\":2097:2111  totalDeposited */\n      0x02\n        /* \"contracts/LendingPool.sol\":2097:2140  totalDeposited = totalDeposited.sub(amount) */\n      dup2\n      swap1\n      sstore\n      pop\n        /* \"contracts/LendingPool.sol\":2171:2201  pendingPayment[to].add(amount) */\n      tag_90\n        /* \"contracts/LendingPool.sol\":2194:2200  amount */\n      dup3\n        /* \"contracts/LendingPool.sol\":2171:2185  pendingPayment */\n      0x07\n        /* \"contracts/LendingPool.sol\":2171:2189  pendingPayment[to] */\n      0x00\n        /* \"contracts/LendingPool.sol\":2186:2188  to */\n      dup5\n        /* \"contracts/LendingPool.sol\":2171:2189  pendingPayment[to] */\n      0xffffffffffffffffffffffffffffffffffffffff\n      and\n      0xffffffffffffffffffffffffffffffffffffffff\n      and\n      dup2\n      mstore\n      0x20\n      add\n      swap1\n      dup2\n      mstore\n      0x20\n      add\n      0x00\n      keccak256\n      sload\n        /* \"contracts/LendingPool.sol\":2171:2193  pendingPayment[to].add */\n      tag_91\n      swap1\n        /* \"contracts/LendingPool.sol\":2171:2201  pendingPayment[to].add(amount) */\n      swap2\n      swap1\n      0xffffffff\n      and\n      jump\t// in\n    tag_90:\n        /* \"contracts/LendingPool.sol\":2150:2164  pendingPayment */\n      0x07\n        /* \"contracts/LendingPool.sol\":2150:2168  pendingPayment[to] */\n      0x00\n        /* \"contracts/LendingPool.sol\":2165:2167  to */\n      dup4\n        /* \"contracts/LendingPool.sol\":2150:2168  pendingPayment[to] */\n      0xffffffffffffffffffffffffffffffffffffffff\n      and\n      0xffffffffffffffffffffffffffffffffffffffff\n      and\n      dup2\n      mstore\n      0x20\n      add\n      swap1\n      dup2\n      mstore\n      0x20\n      add\n      0x00\n      keccak256\n        /* \"contracts/LendingPool.sol\":2150:2201  pendingPayment[to] = pendingPayment[to].add(amount) */\n      dup2\n      swap1\n      sstore\n      pop\n        /* \"contracts/LendingPool.sol\":2216:2261  LendingPoolMessage(\"Money withdrawen to\", to) */\n      0xf67e7992d539193fc243c42fe89f8fab49013e8e4fb18cfa891dc51adcaccc80\n        /* \"contracts/LendingPool.sol\":2258:2260  to */\n      dup2\n        /* \"contracts/LendingPool.sol\":2216:2261  LendingPoolMessage(\"Money withdrawen to\", to) */\n      mload(0x40)\n      tag_92\n      swap2\n      swap1\n      tag_93\n      jump\t// in\n    tag_92:\n      mload(0x40)\n      dup1\n      swap2\n      sub\n      swap1\n      log1\n        /* \"contracts/LendingPool.sol\":1908:2269  function lendingWithdraw(uint256 amount, address to) public payable onlyAllowedGate {... */\n      pop\n      pop\n      jump\t// out\n        /* \"contracts/LendingPool.sol\":3043:3315  function gateWithdrawl() public {... */\n    tag_31:\n        /* \"contracts/LendingPool.sol\":3122:3123  0 */\n      0x00\n        /* \"contracts/LendingPool.sol\":3093:3107  pendingPayment */\n      0x07\n        /* \"contracts/LendingPool.sol\":3093:3119  pendingPayment[msg.sender] */\n      0x00\n        /* \"contracts/LendingPool.sol\":3108:3118  msg.sender */\n      caller\n        /* \"contracts/LendingPool.sol\":3093:3119  pendingPayment[msg.sender] */\n      0xffffffffffffffffffffffffffffffffffffffff\n      and\n      0xffffffffffffffffffffffffffffffffffffffff\n      and\n      dup2\n      mstore\n      0x20\n      add\n      swap1\n      dup2\n      mstore\n      0x20\n      add\n      0x00\n      keccak256\n      sload\n        /* \"contracts/LendingPool.sol\":3093:3123  pendingPayment[msg.sender] > 0 */\n      gt\n        /* \"contracts/LendingPool.sol\":3085:3164  require(pendingPayment[msg.sender] > 0, \"You don't have no pending withdrawls\") */\n      tag_95\n      jumpi\n      mload(0x40)\n      0x08c379a000000000000000000000000000000000000000000000000000000000\n      dup2\n      mstore\n      0x04\n      add\n      tag_96\n      swap1\n      tag_97\n      jump\t// in\n    tag_96:\n      mload(0x40)\n      dup1\n      swap2\n      sub\n      swap1\n      revert\n    tag_95:\n        /* \"contracts/LendingPool.sol\":3174:3188  uint256 amount */\n      0x00\n        /* \"contracts/LendingPool.sol\":3191:3205  pendingPayment */\n      0x07\n        /* \"contracts/LendingPool.sol\":3191:3217  pendingPayment[msg.sender] */\n      0x00\n        /* \"contracts/LendingPool.sol\":3206:3216  msg.sender */\n      caller\n        /* \"contracts/LendingPool.sol\":3191:3217  pendingPayment[msg.sender] */\n      0xffffffffffffffffffffffffffffffffffffffff\n      and\n      0xffffffffffffffffffffffffffffffffffffffff\n      and\n      dup2\n      mstore\n      0x20\n      add\n      swap1\n      dup2\n      mstore\n      0x20\n      add\n      0x00\n      keccak256\n      sload\n        /* \"contracts/LendingPool.sol\":3174:3217  uint256 amount = pendingPayment[msg.sender] */\n      swap1\n      pop\n        /* \"contracts/LendingPool.sol\":3257:3258  0 */\n      0x00\n        /* \"contracts/LendingPool.sol\":3227:3241  pendingPayment */\n      0x07\n        /* \"contracts/LendingPool.sol\":3227:3253  pendingPayment[msg.sender] */\n      0x00\n        /* \"contracts/LendingPool.sol\":3242:3252  msg.sender */\n      caller\n        /* \"contracts/LendingPool.sol\":3227:3253  pendingPayment[msg.sender] */\n      0xffffffffffffffffffffffffffffffffffffffff\n      and\n      0xffffffffffffffffffffffffffffffffffffffff\n      and\n      dup2\n      mstore\n      0x20\n      add\n      swap1\n      dup2\n      mstore\n      0x20\n      add\n      0x00\n      keccak256\n        /* \"contracts/LendingPool.sol\":3227:3258  pendingPayment[msg.sender] =  0 */\n      dup2\n      swap1\n      sstore\n      pop\n        /* \"contracts/LendingPool.sol\":3280:3290  msg.sender */\n      caller\n        /* \"contracts/LendingPool.sol\":3272:3300  payable(msg.sender).transfer */\n      0xffffffffffffffffffffffffffffffffffffffff\n      and\n        /* \"contracts/LendingPool.sol\":3272:3308  payable(msg.sender).transfer(amount) */\n      0x08fc\n        /* \"contracts/LendingPool.sol\":3301:3307  amount */\n      dup3\n        /* \"contracts/LendingPool.sol\":3272:3308  payable(msg.sender).transfer(amount) */\n      swap1\n      dup2\n      iszero\n      mul\n      swap1\n      mload(0x40)\n      0x00\n      mload(0x40)\n      dup1\n      dup4\n      sub\n      dup2\n      dup6\n      dup9\n      dup9\n      call\n      swap4\n      pop\n      pop\n      pop\n      pop\n      iszero\n      dup1\n      iszero\n      tag_99\n      jumpi\n      returndatasize\n      0x00\n      dup1\n      returndatacopy\n      revert(0x00, returndatasize)\n    tag_99:\n      pop\n        /* \"contracts/LendingPool.sol\":3075:3315  {... */\n      pop\n        /* \"contracts/LendingPool.sol\":3043:3315  function gateWithdrawl() public {... */\n      jump\t// out\n        /* \"contracts/LendingPool.sol\":281:316  uint256 public minimumAmt = 1 ether */\n    tag_34:\n      sload(0x00)\n      dup2\n      jump\t// out\n        /* \"contracts/LendingPool.sol\":2343:2967  function depositWithdraw() public{... */\n    tag_39:\n        /* \"contracts/LendingPool.sol\":2421:2422  0 */\n      0x00\n        /* \"contracts/LendingPool.sol\":2394:2406  stakedAmount */\n      0x06\n        /* \"contracts/LendingPool.sol\":2394:2418  stakedAmount[msg.sender] */\n      0x00\n        /* \"contracts/LendingPool.sol\":2407:2417  msg.sender */\n      caller\n        /* \"contracts/LendingPool.sol\":2394:2418  stakedAmount[msg.sender] */\n      0xffffffffffffffffffffffffffffffffffffffff\n      and\n      0xffffffffffffffffffffffffffffffffffffffff\n      and\n      dup2\n      mstore\n      0x20\n      add\n      swap1\n      dup2\n      mstore\n      0x20\n      add\n      0x00\n      keccak256\n      sload\n        /* \"contracts/LendingPool.sol\":2394:2422  stakedAmount[msg.sender] > 0 */\n      gt\n        /* \"contracts/LendingPool.sol\":2386:2459  require(stakedAmount[msg.sender] > 0, \"You don't have any money in here\") */\n      tag_101\n      jumpi\n      mload(0x40)\n      0x08c379a000000000000000000000000000000000000000000000000000000000\n      dup2\n      mstore\n      0x04\n      add\n      tag_102\n      swap1\n      tag_103\n      jump\t// in\n    tag_102:\n      mload(0x40)\n      dup1\n      swap2\n      sub\n      swap1\n      revert\n    tag_101:\n        /* \"contracts/LendingPool.sol\":2469:2488  uint256 time_staked */\n      0x00\n        /* \"contracts/LendingPool.sol\":2491:2544  (startTime[msg.sender] -  block.timestamp).div(86400) */\n      tag_104\n        /* \"contracts/LendingPool.sol\":2538:2543  86400 */\n      0x015180\n        /* \"contracts/LendingPool.sol\":2517:2532  block.timestamp */\n      timestamp\n        /* \"contracts/LendingPool.sol\":2492:2501  startTime */\n      0x05\n        /* \"contracts/LendingPool.sol\":2492:2513  startTime[msg.sender] */\n      0x00\n        /* \"contracts/LendingPool.sol\":2502:2512  msg.sender */\n      caller\n        /* \"contracts/LendingPool.sol\":2492:2513  startTime[msg.sender] */\n      0xffffffffffffffffffffffffffffffffffffffff\n      and\n      0xffffffffffffffffffffffffffffffffffffffff\n      and\n      dup2\n      mstore\n      0x20\n      add\n      swap1\n      dup2\n      mstore\n      0x20\n      add\n      0x00\n      keccak256\n      sload\n        /* \"contracts/LendingPool.sol\":2492:2532  startTime[msg.sender] -  block.timestamp */\n      tag_105\n      swap2\n      swap1\n      tag_106\n      jump\t// in\n    tag_105:\n        /* \"contracts/LendingPool.sol\":2491:2537  (startTime[msg.sender] -  block.timestamp).div */\n      tag_107\n      swap1\n        /* \"contracts/LendingPool.sol\":2491:2544  (startTime[msg.sender] -  block.timestamp).div(86400) */\n      swap2\n      swap1\n      0xffffffff\n      and\n      jump\t// in\n    tag_104:\n        /* \"contracts/LendingPool.sol\":2469:2544  uint256 time_staked = (startTime[msg.sender] -  block.timestamp).div(86400) */\n      swap1\n      pop\n        /* \"contracts/LendingPool.sol\":2576:2586  30 * 86400 */\n      0x278d00\n        /* \"contracts/LendingPool.sol\":2562:2573  time_staked */\n      dup2\n        /* \"contracts/LendingPool.sol\":2562:2586  time_staked > 30 * 86400 */\n      gt\n        /* \"contracts/LendingPool.sol\":2554:2627  require(time_staked > 30 * 86400, \"You should atleast stake for a monty\") */\n      tag_108\n      jumpi\n      mload(0x40)\n      0x08c379a000000000000000000000000000000000000000000000000000000000\n      dup2\n      mstore\n      0x04\n      add\n      tag_109\n      swap1\n      tag_110\n      jump\t// in\n    tag_109:\n      mload(0x40)\n      dup1\n      swap2\n      sub\n      swap1\n      revert\n    tag_108:\n        /* \"contracts/LendingPool.sol\":2637:2650  uint256 yield */\n      0x00\n        /* \"contracts/LendingPool.sol\":2680:2737  time_staked.mul(5).mul(stakedAmount[msg.sender]).div(100) */\n      tag_111\n        /* \"contracts/LendingPool.sol\":2733:2736  100 */\n      0x64\n        /* \"contracts/LendingPool.sol\":2680:2728  time_staked.mul(5).mul(stakedAmount[msg.sender]) */\n      tag_112\n        /* \"contracts/LendingPool.sol\":2703:2715  stakedAmount */\n      0x06\n        /* \"contracts/LendingPool.sol\":2703:2727  stakedAmount[msg.sender] */\n      0x00\n        /* \"contracts/LendingPool.sol\":2716:2726  msg.sender */\n      caller\n        /* \"contracts/LendingPool.sol\":2703:2727  stakedAmount[msg.sender] */\n      0xffffffffffffffffffffffffffffffffffffffff\n      and\n      0xffffffffffffffffffffffffffffffffffffffff\n      and\n      dup2\n      mstore\n      0x20\n      add\n      swap1\n      dup2\n      mstore\n      0x20\n      add\n      0x00\n      keccak256\n      sload\n        /* \"contracts/LendingPool.sol\":2680:2698  time_staked.mul(5) */\n      tag_113\n        /* \"contracts/LendingPool.sol\":2696:2697  5 */\n      0x05\n        /* \"contracts/LendingPool.sol\":2680:2691  time_staked */\n      dup8\n        /* \"contracts/LendingPool.sol\":2680:2695  time_staked.mul */\n      tag_114\n      swap1\n        /* \"contracts/LendingPool.sol\":2680:2698  time_staked.mul(5) */\n      swap2\n      swap1\n      0xffffffff\n      and\n      jump\t// in\n    tag_113:\n        /* \"contracts/LendingPool.sol\":2680:2702  time_staked.mul(5).mul */\n      tag_114\n      swap1\n        /* \"contracts/LendingPool.sol\":2680:2728  time_staked.mul(5).mul(stakedAmount[msg.sender]) */\n      swap2\n      swap1\n      0xffffffff\n      and\n      jump\t// in\n    tag_112:\n        /* \"contracts/LendingPool.sol\":2680:2732  time_staked.mul(5).mul(stakedAmount[msg.sender]).div */\n      tag_107\n      swap1\n        /* \"contracts/LendingPool.sol\":2680:2737  time_staked.mul(5).mul(stakedAmount[msg.sender]).div(100) */\n      swap2\n      swap1\n      0xffffffff\n      and\n      jump\t// in\n    tag_111:\n        /* \"contracts/LendingPool.sol\":2653:2665  stakedAmount */\n      0x06\n        /* \"contracts/LendingPool.sol\":2653:2677  stakedAmount[msg.sender] */\n      0x00\n        /* \"contracts/LendingPool.sol\":2666:2676  msg.sender */\n      caller\n        /* \"contracts/LendingPool.sol\":2653:2677  stakedAmount[msg.sender] */\n      0xffffffffffffffffffffffffffffffffffffffff\n      and\n      0xffffffffffffffffffffffffffffffffffffffff\n      and\n      dup2\n      mstore\n      0x20\n      add\n      swap1\n      dup2\n      mstore\n      0x20\n      add\n      0x00\n      keccak256\n      sload\n        /* \"contracts/LendingPool.sol\":2653:2737  stakedAmount[msg.sender] + time_staked.mul(5).mul(stakedAmount[msg.sender]).div(100) */\n      tag_115\n      swap2\n      swap1\n      tag_116\n      jump\t// in\n    tag_115:\n        /* \"contracts/LendingPool.sol\":2637:2737  uint256 yield = stakedAmount[msg.sender] + time_staked.mul(5).mul(stakedAmount[msg.sender]).div(100) */\n      swap1\n      pop\n        /* \"contracts/LendingPool.sol\":2763:2777  totalDeposited */\n      sload(0x02)\n        /* \"contracts/LendingPool.sol\":2755:2760  yield */\n      dup2\n        /* \"contracts/LendingPool.sol\":2755:2777  yield < totalDeposited */\n      lt\n        /* \"contracts/LendingPool.sol\":2747:2832  require(yield < totalDeposited, \"Sorry we don't have enough money so comeback later\") */\n      tag_117\n      jumpi\n      mload(0x40)\n      0x08c379a000000000000000000000000000000000000000000000000000000000\n      dup2\n      mstore\n      0x04\n      add\n      tag_118\n      swap1\n      tag_119\n      jump\t// in\n    tag_118:\n      mload(0x40)\n      dup1\n      swap2\n      sub\n      swap1\n      revert\n    tag_117:\n        /* \"contracts/LendingPool.sol\":2859:2884  totalDeposited.sub(yield) */\n      tag_120\n        /* \"contracts/LendingPool.sol\":2878:2883  yield */\n      dup2\n        /* \"contracts/LendingPool.sol\":2859:2873  totalDeposited */\n      sload(0x02)\n        /* \"contracts/LendingPool.sol\":2859:2877  totalDeposited.sub */\n      tag_89\n      swap1\n        /* \"contracts/LendingPool.sol\":2859:2884  totalDeposited.sub(yield) */\n      swap2\n      swap1\n      0xffffffff\n      and\n      jump\t// in\n    tag_120:\n        /* \"contracts/LendingPool.sol\":2842:2856  totalDeposited */\n      0x02\n        /* \"contracts/LendingPool.sol\":2842:2884  totalDeposited = totalDeposited.sub(yield) */\n      dup2\n      swap1\n      sstore\n      pop\n        /* \"contracts/LendingPool.sol\":2923:2960  pendingPayment[msg.sender].add(yield) */\n      tag_121\n        /* \"contracts/LendingPool.sol\":2954:2959  yield */\n      dup2\n        /* \"contracts/LendingPool.sol\":2923:2937  pendingPayment */\n      0x07\n        /* \"contracts/LendingPool.sol\":2923:2949  pendingPayment[msg.sender] */\n      0x00\n        /* \"contracts/LendingPool.sol\":2938:2948  msg.sender */\n      caller\n        /* \"contracts/LendingPool.sol\":2923:2949  pendingPayment[msg.sender] */\n      0xffffffffffffffffffffffffffffffffffffffff\n      and\n      0xffffffffffffffffffffffffffffffffffffffff\n      and\n      dup2\n      mstore\n      0x20\n      add\n      swap1\n      dup2\n      mstore\n      0x20\n      add\n      0x00\n      keccak256\n      sload\n        /* \"contracts/LendingPool.sol\":2923:2953  pendingPayment[msg.sender].add */\n      tag_91\n      swap1\n        /* \"contracts/LendingPool.sol\":2923:2960  pendingPayment[msg.sender].add(yield) */\n      swap2\n      swap1\n      0xffffffff\n      and\n      jump\t// in\n    tag_121:\n        /* \"contracts/LendingPool.sol\":2894:2908  pendingPayment */\n      0x07\n        /* \"contracts/LendingPool.sol\":2894:2920  pendingPayment[msg.sender] */\n      0x00\n        /* \"contracts/LendingPool.sol\":2909:2919  msg.sender */\n      caller\n        /* \"contracts/LendingPool.sol\":2894:2920  pendingPayment[msg.sender] */\n      0xffffffffffffffffffffffffffffffffffffffff\n      and\n      0xffffffffffffffffffffffffffffffffffffffff\n      and\n      dup2\n      mstore\n      0x20\n      add\n      swap1\n      dup2\n      mstore\n      0x20\n      add\n      0x00\n      keccak256\n        /* \"contracts/LendingPool.sol\":2894:2960  pendingPayment[msg.sender] = pendingPayment[msg.sender].add(yield) */\n      dup2\n      swap1\n      sstore\n      pop\n        /* \"contracts/LendingPool.sol\":2376:2967  {... */\n      pop\n      pop\n        /* \"contracts/LendingPool.sol\":2343:2967  function depositWithdraw() public{... */\n      jump\t// out\n        /* \"contracts/LendingPool.sol\":477:521  mapping(address => uint256) public startTime */\n    tag_43:\n      mstore(0x20, 0x05)\n      dup1\n      0x00\n      mstore\n      keccak256(0x00, 0x40)\n      0x00\n      swap2\n      pop\n      swap1\n      pop\n      sload\n      dup2\n      jump\t// out\n        /* \"contracts/LendingPool.sol\":322:350  address payable public owner */\n    tag_47:\n      0x01\n      0x00\n      swap1\n      sload\n      swap1\n      0x0100\n      exp\n      swap1\n      div\n      0xffffffffffffffffffffffffffffffffffffffff\n      and\n      dup2\n      jump\t// out\n        /* \"contracts/LendingPool.sol\":392:413  address public editor */\n    tag_52:\n      0x03\n      0x00\n      swap1\n      sload\n      swap1\n      0x0100\n      exp\n      swap1\n      div\n      0xffffffffffffffffffffffffffffffffffffffff\n      and\n      dup2\n      jump\t// out\n        /* \"contracts/LendingPool.sol\":580:629  mapping(address => uint256) public pendingPayment */\n    tag_58:\n      mstore(0x20, 0x07)\n      dup1\n      0x00\n      mstore\n      keccak256(0x00, 0x40)\n      0x00\n      swap2\n      pop\n      swap1\n      pop\n      sload\n      dup2\n      jump\t// out\n        /* \"contracts/LendingPool.sol\":635:680  mapping(address => bool) public allowed_pools */\n    tag_63:\n      mstore(0x20, 0x08)\n      dup1\n      0x00\n      mstore\n      keccak256(0x00, 0x40)\n      0x00\n      swap2\n      pop\n      sload\n      swap1\n      0x0100\n      exp\n      swap1\n      div\n      0xff\n      and\n      dup2\n      jump\t// out\n        /* \"contracts/LendingPool.sol\":1499:1902  function deposit() public payable {... */\n    tag_67:\n        /* \"contracts/LendingPool.sol\":1564:1574  minimumAmt */\n      sload(0x00)\n        /* \"contracts/LendingPool.sol\":1551:1560  msg.value */\n      callvalue\n        /* \"contracts/LendingPool.sol\":1551:1574  msg.value >= minimumAmt */\n      lt\n      iszero\n        /* \"contracts/LendingPool.sol\":1543:1603  require(msg.value >= minimumAmt, \"Minimum 1 Ether Required\") */\n      tag_123\n      jumpi\n      mload(0x40)\n      0x08c379a000000000000000000000000000000000000000000000000000000000\n      dup2\n      mstore\n      0x04\n      add\n      tag_124\n      swap1\n      tag_125\n      jump\t// in\n    tag_124:\n      mload(0x40)\n      dup1\n      swap2\n      sub\n      swap1\n      revert\n    tag_123:\n        /* \"contracts/LendingPool.sol\":1693:1708  block.timestamp */\n      timestamp\n        /* \"contracts/LendingPool.sol\":1669:1678  startTime */\n      0x05\n        /* \"contracts/LendingPool.sol\":1669:1690  startTime[msg.sender] */\n      0x00\n        /* \"contracts/LendingPool.sol\":1679:1689  msg.sender */\n      caller\n        /* \"contracts/LendingPool.sol\":1669:1690  startTime[msg.sender] */\n      0xffffffffffffffffffffffffffffffffffffffff\n      and\n      0xffffffffffffffffffffffffffffffffffffffff\n      and\n      dup2\n      mstore\n      0x20\n      add\n      swap1\n      dup2\n      mstore\n      0x20\n      add\n      0x00\n      keccak256\n        /* \"contracts/LendingPool.sol\":1669:1708  startTime[msg.sender] = block.timestamp */\n      dup2\n      swap1\n      sstore\n      pop\n        /* \"contracts/LendingPool.sol\":1745:1784  stakedAmount[msg.sender].add(msg.value) */\n      tag_126\n        /* \"contracts/LendingPool.sol\":1774:1783  msg.value */\n      callvalue\n        /* \"contracts/LendingPool.sol\":1745:1757  stakedAmount */\n      0x06\n        /* \"contracts/LendingPool.sol\":1745:1769  stakedAmount[msg.sender] */\n      0x00\n        /* \"contracts/LendingPool.sol\":1758:1768  msg.sender */\n      caller\n        /* \"contracts/LendingPool.sol\":1745:1769  stakedAmount[msg.sender] */\n      0xffffffffffffffffffffffffffffffffffffffff\n      and\n      0xffffffffffffffffffffffffffffffffffffffff\n      and\n      dup2\n      mstore\n      0x20\n      add\n      swap1\n      dup2\n      mstore\n      0x20\n      add\n      0x00\n      keccak256\n      sload\n        /* \"contracts/LendingPool.sol\":1745:1773  stakedAmount[msg.sender].add */\n      tag_91\n      swap1\n        /* \"contracts/LendingPool.sol\":1745:1784  stakedAmount[msg.sender].add(msg.value) */\n      swap2\n      swap1\n      0xffffffff\n      and\n      jump\t// in\n    tag_126:\n        /* \"contracts/LendingPool.sol\":1718:1730  stakedAmount */\n      0x06\n        /* \"contracts/LendingPool.sol\":1718:1742  stakedAmount[msg.sender] */\n      0x00\n        /* \"contracts/LendingPool.sol\":1731:1741  msg.sender */\n      caller\n        /* \"contracts/LendingPool.sol\":1718:1742  stakedAmount[msg.sender] */\n      0xffffffffffffffffffffffffffffffffffffffff\n      and\n      0xffffffffffffffffffffffffffffffffffffffff\n      and\n      dup2\n      mstore\n      0x20\n      add\n      swap1\n      dup2\n      mstore\n      0x20\n      add\n      0x00\n      keccak256\n        /* \"contracts/LendingPool.sol\":1718:1784  stakedAmount[msg.sender] = stakedAmount[msg.sender].add(msg.value) */\n      dup2\n      swap1\n      sstore\n      pop\n        /* \"contracts/LendingPool.sol\":1811:1840  totalDeposited.add(msg.value) */\n      tag_127\n        /* \"contracts/LendingPool.sol\":1830:1839  msg.value */\n      callvalue\n        /* \"contracts/LendingPool.sol\":1811:1825  totalDeposited */\n      sload(0x02)\n        /* \"contracts/LendingPool.sol\":1811:1829  totalDeposited.add */\n      tag_91\n      swap1\n        /* \"contracts/LendingPool.sol\":1811:1840  totalDeposited.add(msg.value) */\n      swap2\n      swap1\n      0xffffffff\n      and\n      jump\t// in\n    tag_127:\n        /* \"contracts/LendingPool.sol\":1794:1808  totalDeposited */\n      0x02\n        /* \"contracts/LendingPool.sol\":1794:1840  totalDeposited = totalDeposited.add(msg.value) */\n      dup2\n      swap1\n      sstore\n      pop\n        /* \"contracts/LendingPool.sol\":1855:1895  LendingPoolMessage(\"staked\", msg.sender) */\n      0xf67e7992d539193fc243c42fe89f8fab49013e8e4fb18cfa891dc51adcaccc80\n        /* \"contracts/LendingPool.sol\":1884:1894  msg.sender */\n      caller\n        /* \"contracts/LendingPool.sol\":1855:1895  LendingPoolMessage(\"staked\", msg.sender) */\n      mload(0x40)\n      tag_128\n      swap2\n      swap1\n      tag_129\n      jump\t// in\n    tag_128:\n      mload(0x40)\n      dup1\n      swap2\n      sub\n      swap1\n      log1\n        /* \"contracts/LendingPool.sol\":1499:1902  function deposit() public payable {... */\n      jump\t// out\n        /* \"contracts/LendingPool.sol\":527:574  mapping(address => uint256) public stakedAmount */\n    tag_71:\n      mstore(0x20, 0x06)\n      dup1\n      0x00\n      mstore\n      keccak256(0x00, 0x40)\n      0x00\n      swap2\n      pop\n      swap1\n      pop\n      sload\n      dup2\n      jump\t// out\n        /* \"contracts/SafeMath.sol\":245:405  function sub(uint256 a, uint256 b) internal pure returns (uint256 c) {... */\n    tag_89:\n        /* \"contracts/SafeMath.sol\":303:312  uint256 c */\n      0x00\n        /* \"contracts/SafeMath.sol\":337:338  a */\n      dup3\n        /* \"contracts/SafeMath.sol\":332:333  b */\n      dup3\n        /* \"contracts/SafeMath.sol\":332:338  b <= a */\n      gt\n      iszero\n        /* \"contracts/SafeMath.sol\":324:361  require(b <= a, \"Substraction faild\") */\n      tag_131\n      jumpi\n      mload(0x40)\n      0x08c379a000000000000000000000000000000000000000000000000000000000\n      dup2\n      mstore\n      0x04\n      add\n      tag_132\n      swap1\n      tag_133\n      jump\t// in\n    tag_132:\n      mload(0x40)\n      dup1\n      swap2\n      sub\n      swap1\n      revert\n    tag_131:\n        /* \"contracts/SafeMath.sol\":379:380  b */\n      dup2\n        /* \"contracts/SafeMath.sol\":375:376  a */\n      dup4\n        /* \"contracts/SafeMath.sol\":375:380  a - b */\n      tag_134\n      swap2\n      swap1\n      tag_106\n      jump\t// in\n    tag_134:\n        /* \"contracts/SafeMath.sol\":371:380  c = a - b */\n      swap1\n      pop\n        /* \"contracts/SafeMath.sol\":245:405  function sub(uint256 a, uint256 b) internal pure returns (uint256 c) {... */\n      swap3\n      swap2\n      pop\n      pop\n      jump\t// out\n        /* \"contracts/SafeMath.sol\":82:239  function add(uint256 a, uint256 b) internal pure returns (uint256 c) {... */\n    tag_91:\n        /* \"contracts/SafeMath.sol\":140:149  uint256 c */\n      0x00\n        /* \"contracts/SafeMath.sol\":169:170  b */\n      dup2\n        /* \"contracts/SafeMath.sol\":165:166  a */\n      dup4\n        /* \"contracts/SafeMath.sol\":165:170  a + b */\n      tag_136\n      swap2\n      swap1\n      tag_116\n      jump\t// in\n    tag_136:\n        /* \"contracts/SafeMath.sol\":161:170  c = a + b */\n      swap1\n      pop\n        /* \"contracts/SafeMath.sol\":193:194  a */\n      dup3\n        /* \"contracts/SafeMath.sol\":188:189  c */\n      dup2\n        /* \"contracts/SafeMath.sol\":188:194  c >= a */\n      lt\n      iszero\n        /* \"contracts/SafeMath.sol\":180:214  require(c >= a, \"Addition failed\") */\n      tag_137\n      jumpi\n      mload(0x40)\n      0x08c379a000000000000000000000000000000000000000000000000000000000\n      dup2\n      mstore\n      0x04\n      add\n      tag_138\n      swap1\n      tag_139\n      jump\t// in\n    tag_138:\n      mload(0x40)\n      dup1\n      swap2\n      sub\n      swap1\n      revert\n    tag_137:\n        /* \"contracts/SafeMath.sol\":82:239  function add(uint256 a, uint256 b) internal pure returns (uint256 c) {... */\n      swap3\n      swap2\n      pop\n      pop\n      jump\t// out\n        /* \"contracts/SafeMath.sol\":593:748  function div(uint256 a, uint256 b) internal pure returns (uint256 c) {... */\n    tag_107:\n        /* \"contracts/SafeMath.sol\":651:660  uint256 c */\n      0x00\n        /* \"contracts/SafeMath.sol\":684:685  0 */\n      dup1\n        /* \"contracts/SafeMath.sol\":680:681  b */\n      dup3\n        /* \"contracts/SafeMath.sol\":680:685  b > 0 */\n      gt\n        /* \"contracts/SafeMath.sol\":672:704  require(b > 0, \"Division faild\") */\n      tag_141\n      jumpi\n      mload(0x40)\n      0x08c379a000000000000000000000000000000000000000000000000000000000\n      dup2\n      mstore\n      0x04\n      add\n      tag_142\n      swap1\n      tag_143\n      jump\t// in\n    tag_142:\n      mload(0x40)\n      dup1\n      swap2\n      sub\n      swap1\n      revert\n    tag_141:\n        /* \"contracts/SafeMath.sol\":722:723  b */\n      dup2\n        /* \"contracts/SafeMath.sol\":718:719  a */\n      dup4\n        /* \"contracts/SafeMath.sol\":718:723  a / b */\n      tag_144\n      swap2\n      swap1\n      tag_145\n      jump\t// in\n    tag_144:\n        /* \"contracts/SafeMath.sol\":714:723  c = a / b */\n      swap1\n      pop\n        /* \"contracts/SafeMath.sol\":593:748  function div(uint256 a, uint256 b) internal pure returns (uint256 c) {... */\n      swap3\n      swap2\n      pop\n      pop\n      jump\t// out\n        /* \"contracts/SafeMath.sol\":411:587  function mul(uint256 a, uint256 b) internal pure returns (uint256 c) {... */\n    tag_114:\n        /* \"contracts/SafeMath.sol\":469:478  uint256 c */\n      0x00\n        /* \"contracts/SafeMath.sol\":498:499  b */\n      dup2\n        /* \"contracts/SafeMath.sol\":494:495  a */\n      dup4\n        /* \"contracts/SafeMath.sol\":494:499  a * b */\n      tag_147\n      swap2\n      swap1\n      tag_148\n      jump\t// in\n    tag_147:\n        /* \"contracts/SafeMath.sol\":490:499  c = a * b */\n      swap1\n      pop\n        /* \"contracts/SafeMath.sol\":522:523  0 */\n      0x00\n        /* \"contracts/SafeMath.sol\":517:518  a */\n      dup4\n        /* \"contracts/SafeMath.sol\":517:523  a == 0 */\n      eq\n        /* \"contracts/SafeMath.sol\":517:537  a == 0 || c / a == b */\n      dup1\n      tag_149\n      jumpi\n      pop\n        /* \"contracts/SafeMath.sol\":536:537  b */\n      dup2\n        /* \"contracts/SafeMath.sol\":531:532  a */\n      dup4\n        /* \"contracts/SafeMath.sol\":527:528  c */\n      dup3\n        /* \"contracts/SafeMath.sol\":527:532  c / a */\n      tag_150\n      swap2\n      swap1\n      tag_145\n      jump\t// in\n    tag_150:\n        /* \"contracts/SafeMath.sol\":527:537  c / a == b */\n      eq\n        /* \"contracts/SafeMath.sol\":517:537  a == 0 || c / a == b */\n    tag_149:\n        /* \"contracts/SafeMath.sol\":509:562  require(a == 0 || c / a == b, \"Multiplication faild\") */\n      tag_151\n      jumpi\n      mload(0x40)\n      0x08c379a000000000000000000000000000000000000000000000000000000000\n      dup2\n      mstore\n      0x04\n      add\n      tag_152\n      swap1\n      tag_153\n      jump\t// in\n    tag_152:\n      mload(0x40)\n      dup1\n      swap2\n      sub\n      swap1\n      revert\n    tag_151:\n        /* \"contracts/SafeMath.sol\":411:587  function mul(uint256 a, uint256 b) internal pure returns (uint256 c) {... */\n      swap3\n      swap2\n      pop\n      pop\n      jump\t// out\n        /* \"#utility.yul\":7:146   */\n    tag_155:\n        /* \"#utility.yul\":53:58   */\n      0x00\n        /* \"#utility.yul\":91:97   */\n      dup2\n        /* \"#utility.yul\":78:98   */\n      calldataload\n        /* \"#utility.yul\":69:98   */\n      swap1\n      pop\n        /* \"#utility.yul\":107:140   */\n      tag_157\n        /* \"#utility.yul\":134:139   */\n      dup2\n        /* \"#utility.yul\":107:140   */\n      tag_158\n      jump\t// in\n    tag_157:\n        /* \"#utility.yul\":7:146   */\n      swap3\n      swap2\n      pop\n      pop\n      jump\t// out\n        /* \"#utility.yul\":152:291   */\n    tag_159:\n        /* \"#utility.yul\":198:203   */\n      0x00\n        /* \"#utility.yul\":236:242   */\n      dup2\n        /* \"#utility.yul\":223:243   */\n      calldataload\n        /* \"#utility.yul\":214:243   */\n      swap1\n      pop\n        /* \"#utility.yul\":252:285   */\n      tag_161\n        /* \"#utility.yul\":279:284   */\n      dup2\n        /* \"#utility.yul\":252:285   */\n      tag_162\n      jump\t// in\n    tag_161:\n        /* \"#utility.yul\":152:291   */\n      swap3\n      swap2\n      pop\n      pop\n      jump\t// out\n        /* \"#utility.yul\":297:626   */\n    tag_23:\n        /* \"#utility.yul\":356:362   */\n      0x00\n        /* \"#utility.yul\":405:407   */\n      0x20\n        /* \"#utility.yul\":393:402   */\n      dup3\n        /* \"#utility.yul\":384:391   */\n      dup5\n        /* \"#utility.yul\":380:403   */\n      sub\n        /* \"#utility.yul\":376:408   */\n      slt\n        /* \"#utility.yul\":373:492   */\n      iszero\n      tag_164\n      jumpi\n        /* \"#utility.yul\":411:490   */\n      tag_165\n      tag_166\n      jump\t// in\n    tag_165:\n        /* \"#utility.yul\":373:492   */\n    tag_164:\n        /* \"#utility.yul\":531:532   */\n      0x00\n        /* \"#utility.yul\":556:609   */\n      tag_167\n        /* \"#utility.yul\":601:608   */\n      dup5\n        /* \"#utility.yul\":592:598   */\n      dup3\n        /* \"#utility.yul\":581:590   */\n      dup6\n        /* \"#utility.yul\":577:599   */\n      add\n        /* \"#utility.yul\":556:609   */\n      tag_155\n      jump\t// in\n    tag_167:\n        /* \"#utility.yul\":546:609   */\n      swap2\n      pop\n        /* \"#utility.yul\":502:619   */\n      pop\n        /* \"#utility.yul\":297:626   */\n      swap3\n      swap2\n      pop\n      pop\n      jump\t// out\n        /* \"#utility.yul\":632:1106   */\n    tag_27:\n        /* \"#utility.yul\":700:706   */\n      0x00\n        /* \"#utility.yul\":708:714   */\n      dup1\n        /* \"#utility.yul\":757:759   */\n      0x40\n        /* \"#utility.yul\":745:754   */\n      dup4\n        /* \"#utility.yul\":736:743   */\n      dup6\n        /* \"#utility.yul\":732:755   */\n      sub\n        /* \"#utility.yul\":728:760   */\n      slt\n        /* \"#utility.yul\":725:844   */\n      iszero\n      tag_169\n      jumpi\n        /* \"#utility.yul\":763:842   */\n      tag_170\n      tag_166\n      jump\t// in\n    tag_170:\n        /* \"#utility.yul\":725:844   */\n    tag_169:\n        /* \"#utility.yul\":883:884   */\n      0x00\n        /* \"#utility.yul\":908:961   */\n      tag_171\n        /* \"#utility.yul\":953:960   */\n      dup6\n        /* \"#utility.yul\":944:950   */\n      dup3\n        /* \"#utility.yul\":933:942   */\n      dup7\n        /* \"#utility.yul\":929:951   */\n      add\n        /* \"#utility.yul\":908:961   */\n      tag_159\n      jump\t// in\n    tag_171:\n        /* \"#utility.yul\":898:961   */\n      swap3\n      pop\n        /* \"#utility.yul\":854:971   */\n      pop\n        /* \"#utility.yul\":1010:1012   */\n      0x20\n        /* \"#utility.yul\":1036:1089   */\n      tag_172\n        /* \"#utility.yul\":1081:1088   */\n      dup6\n        /* \"#utility.yul\":1072:1078   */\n      dup3\n        /* \"#utility.yul\":1061:1070   */\n      dup7\n        /* \"#utility.yul\":1057:1079   */\n      add\n        /* \"#utility.yul\":1036:1089   */\n      tag_155\n      jump\t// in\n    tag_172:\n        /* \"#utility.yul\":1026:1089   */\n      swap2\n      pop\n        /* \"#utility.yul\":981:1099   */\n      pop\n        /* \"#utility.yul\":632:1106   */\n      swap3\n      pop\n      swap3\n      swap1\n      pop\n      jump\t// out\n        /* \"#utility.yul\":1112:1254   */\n    tag_173:\n        /* \"#utility.yul\":1215:1247   */\n      tag_175\n        /* \"#utility.yul\":1241:1246   */\n      dup2\n        /* \"#utility.yul\":1215:1247   */\n      tag_176\n      jump\t// in\n    tag_175:\n        /* \"#utility.yul\":1210:1213   */\n      dup3\n        /* \"#utility.yul\":1203:1248   */\n      mstore\n        /* \"#utility.yul\":1112:1254   */\n      pop\n      pop\n      jump\t// out\n        /* \"#utility.yul\":1260:1378   */\n    tag_177:\n        /* \"#utility.yul\":1347:1371   */\n      tag_179\n        /* \"#utility.yul\":1365:1370   */\n      dup2\n        /* \"#utility.yul\":1347:1371   */\n      tag_180\n      jump\t// in\n    tag_179:\n        /* \"#utility.yul\":1342:1345   */\n      dup3\n        /* \"#utility.yul\":1335:1372   */\n      mstore\n        /* \"#utility.yul\":1260:1378   */\n      pop\n      pop\n      jump\t// out\n        /* \"#utility.yul\":1384:1493   */\n    tag_181:\n        /* \"#utility.yul\":1465:1486   */\n      tag_183\n        /* \"#utility.yul\":1480:1485   */\n      dup2\n        /* \"#utility.yul\":1465:1486   */\n      tag_184\n      jump\t// in\n    tag_183:\n        /* \"#utility.yul\":1460:1463   */\n      dup3\n        /* \"#utility.yul\":1453:1487   */\n      mstore\n        /* \"#utility.yul\":1384:1493   */\n      pop\n      pop\n      jump\t// out\n        /* \"#utility.yul\":1499:1865   */\n    tag_185:\n        /* \"#utility.yul\":1641:1644   */\n      0x00\n        /* \"#utility.yul\":1662:1729   */\n      tag_187\n        /* \"#utility.yul\":1726:1728   */\n      0x13\n        /* \"#utility.yul\":1721:1724   */\n      dup4\n        /* \"#utility.yul\":1662:1729   */\n      tag_188\n      jump\t// in\n    tag_187:\n        /* \"#utility.yul\":1655:1729   */\n      swap2\n      pop\n        /* \"#utility.yul\":1738:1831   */\n      tag_189\n        /* \"#utility.yul\":1827:1830   */\n      dup3\n        /* \"#utility.yul\":1738:1831   */\n      tag_190\n      jump\t// in\n    tag_189:\n        /* \"#utility.yul\":1856:1858   */\n      0x20\n        /* \"#utility.yul\":1851:1854   */\n      dup3\n        /* \"#utility.yul\":1847:1859   */\n      add\n        /* \"#utility.yul\":1840:1859   */\n      swap1\n      pop\n        /* \"#utility.yul\":1499:1865   */\n      swap2\n      swap1\n      pop\n      jump\t// out\n        /* \"#utility.yul\":1871:2237   */\n    tag_191:\n        /* \"#utility.yul\":2013:2016   */\n      0x00\n        /* \"#utility.yul\":2034:2101   */\n      tag_193\n        /* \"#utility.yul\":2098:2100   */\n      0x11\n        /* \"#utility.yul\":2093:2096   */\n      dup4\n        /* \"#utility.yul\":2034:2101   */\n      tag_188\n      jump\t// in\n    tag_193:\n        /* \"#utility.yul\":2027:2101   */\n      swap2\n      pop\n        /* \"#utility.yul\":2110:2203   */\n      tag_194\n        /* \"#utility.yul\":2199:2202   */\n      dup3\n        /* \"#utility.yul\":2110:2203   */\n      tag_195\n      jump\t// in\n    tag_194:\n        /* \"#utility.yul\":2228:2230   */\n      0x20\n        /* \"#utility.yul\":2223:2226   */\n      dup3\n        /* \"#utility.yul\":2219:2231   */\n      add\n        /* \"#utility.yul\":2212:2231   */\n      swap1\n      pop\n        /* \"#utility.yul\":1871:2237   */\n      swap2\n      swap1\n      pop\n      jump\t// out\n        /* \"#utility.yul\":2243:2609   */\n    tag_196:\n        /* \"#utility.yul\":2385:2388   */\n      0x00\n        /* \"#utility.yul\":2406:2473   */\n      tag_198\n        /* \"#utility.yul\":2470:2472   */\n      0x29\n        /* \"#utility.yul\":2465:2468   */\n      dup4\n        /* \"#utility.yul\":2406:2473   */\n      tag_188\n      jump\t// in\n    tag_198:\n        /* \"#utility.yul\":2399:2473   */\n      swap2\n      pop\n        /* \"#utility.yul\":2482:2575   */\n      tag_199\n        /* \"#utility.yul\":2571:2574   */\n      dup3\n        /* \"#utility.yul\":2482:2575   */\n      tag_200\n      jump\t// in\n    tag_199:\n        /* \"#utility.yul\":2600:2602   */\n      0x40\n        /* \"#utility.yul\":2595:2598   */\n      dup3\n        /* \"#utility.yul\":2591:2603   */\n      add\n        /* \"#utility.yul\":2584:2603   */\n      swap1\n      pop\n        /* \"#utility.yul\":2243:2609   */\n      swap2\n      swap1\n      pop\n      jump\t// out\n        /* \"#utility.yul\":2615:2981   */\n    tag_201:\n        /* \"#utility.yul\":2757:2760   */\n      0x00\n        /* \"#utility.yul\":2778:2845   */\n      tag_203\n        /* \"#utility.yul\":2842:2844   */\n      0x20\n        /* \"#utility.yul\":2837:2840   */\n      dup4\n        /* \"#utility.yul\":2778:2845   */\n      tag_188\n      jump\t// in\n    tag_203:\n        /* \"#utility.yul\":2771:2845   */\n      swap2\n      pop\n        /* \"#utility.yul\":2854:2947   */\n      tag_204\n        /* \"#utility.yul\":2943:2946   */\n      dup3\n        /* \"#utility.yul\":2854:2947   */\n      tag_205\n      jump\t// in\n    tag_204:\n        /* \"#utility.yul\":2972:2974   */\n      0x20\n        /* \"#utility.yul\":2967:2970   */\n      dup3\n        /* \"#utility.yul\":2963:2975   */\n      add\n        /* \"#utility.yul\":2956:2975   */\n      swap1\n      pop\n        /* \"#utility.yul\":2615:2981   */\n      swap2\n      swap1\n      pop\n      jump\t// out\n        /* \"#utility.yul\":2987:3353   */\n    tag_206:\n        /* \"#utility.yul\":3129:3132   */\n      0x00\n        /* \"#utility.yul\":3150:3217   */\n      tag_208\n        /* \"#utility.yul\":3214:3216   */\n      0x18\n        /* \"#utility.yul\":3209:3212   */\n      dup4\n        /* \"#utility.yul\":3150:3217   */\n      tag_188\n      jump\t// in\n    tag_208:\n        /* \"#utility.yul\":3143:3217   */\n      swap2\n      pop\n        /* \"#utility.yul\":3226:3319   */\n      tag_209\n        /* \"#utility.yul\":3315:3318   */\n      dup3\n        /* \"#utility.yul\":3226:3319   */\n      tag_210\n      jump\t// in\n    tag_209:\n        /* \"#utility.yul\":3344:3346   */\n      0x20\n        /* \"#utility.yul\":3339:3342   */\n      dup3\n        /* \"#utility.yul\":3335:3347   */\n      add\n        /* \"#utility.yul\":3328:3347   */\n      swap1\n      pop\n        /* \"#utility.yul\":2987:3353   */\n      swap2\n      swap1\n      pop\n      jump\t// out\n        /* \"#utility.yul\":3359:3725   */\n    tag_211:\n        /* \"#utility.yul\":3501:3504   */\n      0x00\n        /* \"#utility.yul\":3522:3589   */\n      tag_213\n        /* \"#utility.yul\":3586:3588   */\n      0x24\n        /* \"#utility.yul\":3581:3584   */\n      dup4\n        /* \"#utility.yul\":3522:3589   */\n      tag_188\n      jump\t// in\n    tag_213:\n        /* \"#utility.yul\":3515:3589   */\n      swap2\n      pop\n        /* \"#utility.yul\":3598:3691   */\n      tag_214\n        /* \"#utility.yul\":3687:3690   */\n      dup3\n        /* \"#utility.yul\":3598:3691   */\n      tag_215\n      jump\t// in\n    tag_214:\n        /* \"#utility.yul\":3716:3718   */\n      0x40\n        /* \"#utility.yul\":3711:3714   */\n      dup3\n        /* \"#utility.yul\":3707:3719   */\n      add\n        /* \"#utility.yul\":3700:3719   */\n      swap1\n      pop\n        /* \"#utility.yul\":3359:3725   */\n      swap2\n      swap1\n      pop\n      jump\t// out\n        /* \"#utility.yul\":3731:4096   */\n    tag_216:\n        /* \"#utility.yul\":3873:3876   */\n      0x00\n        /* \"#utility.yul\":3894:3960   */\n      tag_218\n        /* \"#utility.yul\":3958:3959   */\n      0x06\n        /* \"#utility.yul\":3953:3956   */\n      dup4\n        /* \"#utility.yul\":3894:3960   */\n      tag_188\n      jump\t// in\n    tag_218:\n        /* \"#utility.yul\":3887:3960   */\n      swap2\n      pop\n        /* \"#utility.yul\":3969:4062   */\n      tag_219\n        /* \"#utility.yul\":4058:4061   */\n      dup3\n        /* \"#utility.yul\":3969:4062   */\n      tag_220\n      jump\t// in\n    tag_219:\n        /* \"#utility.yul\":4087:4089   */\n      0x20\n        /* \"#utility.yul\":4082:4085   */\n      dup3\n        /* \"#utility.yul\":4078:4090   */\n      add\n        /* \"#utility.yul\":4071:4090   */\n      swap1\n      pop\n        /* \"#utility.yul\":3731:4096   */\n      swap2\n      swap1\n      pop\n      jump\t// out\n        /* \"#utility.yul\":4102:4468   */\n    tag_221:\n        /* \"#utility.yul\":4244:4247   */\n      0x00\n        /* \"#utility.yul\":4265:4332   */\n      tag_223\n        /* \"#utility.yul\":4329:4331   */\n      0x12\n        /* \"#utility.yul\":4324:4327   */\n      dup4\n        /* \"#utility.yul\":4265:4332   */\n      tag_188\n      jump\t// in\n    tag_223:\n        /* \"#utility.yul\":4258:4332   */\n      swap2\n      pop\n        /* \"#utility.yul\":4341:4434   */\n      tag_224\n        /* \"#utility.yul\":4430:4433   */\n      dup3\n        /* \"#utility.yul\":4341:4434   */\n      tag_225\n      jump\t// in\n    tag_224:\n        /* \"#utility.yul\":4459:4461   */\n      0x20\n        /* \"#utility.yul\":4454:4457   */\n      dup3\n        /* \"#utility.yul\":4450:4462   */\n      add\n        /* \"#utility.yul\":4443:4462   */\n      swap1\n      pop\n        /* \"#utility.yul\":4102:4468   */\n      swap2\n      swap1\n      pop\n      jump\t// out\n        /* \"#utility.yul\":4474:4840   */\n    tag_226:\n        /* \"#utility.yul\":4616:4619   */\n      0x00\n        /* \"#utility.yul\":4637:4704   */\n      tag_228\n        /* \"#utility.yul\":4701:4703   */\n      0x0f\n        /* \"#utility.yul\":4696:4699   */\n      dup4\n        /* \"#utility.yul\":4637:4704   */\n      tag_188\n      jump\t// in\n    tag_228:\n        /* \"#utility.yul\":4630:4704   */\n      swap2\n      pop\n        /* \"#utility.yul\":4713:4806   */\n      tag_229\n        /* \"#utility.yul\":4802:4805   */\n      dup3\n        /* \"#utility.yul\":4713:4806   */\n      tag_230\n      jump\t// in\n    tag_229:\n        /* \"#utility.yul\":4831:4833   */\n      0x20\n        /* \"#utility.yul\":4826:4829   */\n      dup3\n        /* \"#utility.yul\":4822:4834   */\n      add\n        /* \"#utility.yul\":4815:4834   */\n      swap1\n      pop\n        /* \"#utility.yul\":4474:4840   */\n      swap2\n      swap1\n      pop\n      jump\t// out\n        /* \"#utility.yul\":4846:5212   */\n    tag_231:\n        /* \"#utility.yul\":4988:4991   */\n      0x00\n        /* \"#utility.yul\":5009:5076   */\n      tag_233\n        /* \"#utility.yul\":5073:5075   */\n      0x24\n        /* \"#utility.yul\":5068:5071   */\n      dup4\n        /* \"#utility.yul\":5009:5076   */\n      tag_188\n      jump\t// in\n    tag_233:\n        /* \"#utility.yul\":5002:5076   */\n      swap2\n      pop\n        /* \"#utility.yul\":5085:5178   */\n      tag_234\n        /* \"#utility.yul\":5174:5177   */\n      dup3\n        /* \"#utility.yul\":5085:5178   */\n      tag_235\n      jump\t// in\n    tag_234:\n        /* \"#utility.yul\":5203:5205   */\n      0x40\n        /* \"#utility.yul\":5198:5201   */\n      dup3\n        /* \"#utility.yul\":5194:5206   */\n      add\n        /* \"#utility.yul\":5187:5206   */\n      swap1\n      pop\n        /* \"#utility.yul\":4846:5212   */\n      swap2\n      swap1\n      pop\n      jump\t// out\n        /* \"#utility.yul\":5218:5584   */\n    tag_236:\n        /* \"#utility.yul\":5360:5363   */\n      0x00\n        /* \"#utility.yul\":5381:5448   */\n      tag_238\n        /* \"#utility.yul\":5445:5447   */\n      0x2c\n        /* \"#utility.yul\":5440:5443   */\n      dup4\n        /* \"#utility.yul\":5381:5448   */\n      tag_188\n      jump\t// in\n    tag_238:\n        /* \"#utility.yul\":5374:5448   */\n      swap2\n      pop\n        /* \"#utility.yul\":5457:5550   */\n      tag_239\n        /* \"#utility.yul\":5546:5549   */\n      dup3\n        /* \"#utility.yul\":5457:5550   */\n      tag_240\n      jump\t// in\n    tag_239:\n        /* \"#utility.yul\":5575:5577   */\n      0x40\n        /* \"#utility.yul\":5570:5573   */\n      dup3\n        /* \"#utility.yul\":5566:5578   */\n      add\n        /* \"#utility.yul\":5559:5578   */\n      swap1\n      pop\n        /* \"#utility.yul\":5218:5584   */\n      swap2\n      swap1\n      pop\n      jump\t// out\n        /* \"#utility.yul\":5590:5956   */\n    tag_241:\n        /* \"#utility.yul\":5732:5735   */\n      0x00\n        /* \"#utility.yul\":5753:5820   */\n      tag_243\n        /* \"#utility.yul\":5817:5819   */\n      0x0e\n        /* \"#utility.yul\":5812:5815   */\n      dup4\n        /* \"#utility.yul\":5753:5820   */\n      tag_188\n      jump\t// in\n    tag_243:\n        /* \"#utility.yul\":5746:5820   */\n      swap2\n      pop\n        /* \"#utility.yul\":5829:5922   */\n      tag_244\n        /* \"#utility.yul\":5918:5921   */\n      dup3\n        /* \"#utility.yul\":5829:5922   */\n      tag_245\n      jump\t// in\n    tag_244:\n        /* \"#utility.yul\":5947:5949   */\n      0x20\n        /* \"#utility.yul\":5942:5945   */\n      dup3\n        /* \"#utility.yul\":5938:5950   */\n      add\n        /* \"#utility.yul\":5931:5950   */\n      swap1\n      pop\n        /* \"#utility.yul\":5590:5956   */\n      swap2\n      swap1\n      pop\n      jump\t// out\n        /* \"#utility.yul\":5962:6328   */\n    tag_246:\n        /* \"#utility.yul\":6104:6107   */\n      0x00\n        /* \"#utility.yul\":6125:6192   */\n      tag_248\n        /* \"#utility.yul\":6189:6191   */\n      0x27\n        /* \"#utility.yul\":6184:6187   */\n      dup4\n        /* \"#utility.yul\":6125:6192   */\n      tag_188\n      jump\t// in\n    tag_248:\n        /* \"#utility.yul\":6118:6192   */\n      swap2\n      pop\n        /* \"#utility.yul\":6201:6294   */\n      tag_249\n        /* \"#utility.yul\":6290:6293   */\n      dup3\n        /* \"#utility.yul\":6201:6294   */\n      tag_250\n      jump\t// in\n    tag_249:\n        /* \"#utility.yul\":6319:6321   */\n      0x40\n        /* \"#utility.yul\":6314:6317   */\n      dup3\n        /* \"#utility.yul\":6310:6322   */\n      add\n        /* \"#utility.yul\":6303:6322   */\n      swap1\n      pop\n        /* \"#utility.yul\":5962:6328   */\n      swap2\n      swap1\n      pop\n      jump\t// out\n        /* \"#utility.yul\":6334:6700   */\n    tag_251:\n        /* \"#utility.yul\":6476:6479   */\n      0x00\n        /* \"#utility.yul\":6497:6564   */\n      tag_253\n        /* \"#utility.yul\":6561:6563   */\n      0x32\n        /* \"#utility.yul\":6556:6559   */\n      dup4\n        /* \"#utility.yul\":6497:6564   */\n      tag_188\n      jump\t// in\n    tag_253:\n        /* \"#utility.yul\":6490:6564   */\n      swap2\n      pop\n        /* \"#utility.yul\":6573:6666   */\n      tag_254\n        /* \"#utility.yul\":6662:6665   */\n      dup3\n        /* \"#utility.yul\":6573:6666   */\n      tag_255\n      jump\t// in\n    tag_254:\n        /* \"#utility.yul\":6691:6693   */\n      0x40\n        /* \"#utility.yul\":6686:6689   */\n      dup3\n        /* \"#utility.yul\":6682:6694   */\n      add\n        /* \"#utility.yul\":6675:6694   */\n      swap1\n      pop\n        /* \"#utility.yul\":6334:6700   */\n      swap2\n      swap1\n      pop\n      jump\t// out\n        /* \"#utility.yul\":6706:7072   */\n    tag_256:\n        /* \"#utility.yul\":6848:6851   */\n      0x00\n        /* \"#utility.yul\":6869:6936   */\n      tag_258\n        /* \"#utility.yul\":6933:6935   */\n      0x14\n        /* \"#utility.yul\":6928:6931   */\n      dup4\n        /* \"#utility.yul\":6869:6936   */\n      tag_188\n      jump\t// in\n    tag_258:\n        /* \"#utility.yul\":6862:6936   */\n      swap2\n      pop\n        /* \"#utility.yul\":6945:7038   */\n      tag_259\n        /* \"#utility.yul\":7034:7037   */\n      dup3\n        /* \"#utility.yul\":6945:7038   */\n      tag_260\n      jump\t// in\n    tag_259:\n        /* \"#utility.yul\":7063:7065   */\n      0x20\n        /* \"#utility.yul\":7058:7061   */\n      dup3\n        /* \"#utility.yul\":7054:7066   */\n      add\n        /* \"#utility.yul\":7047:7066   */\n      swap1\n      pop\n        /* \"#utility.yul\":6706:7072   */\n      swap2\n      swap1\n      pop\n      jump\t// out\n        /* \"#utility.yul\":7078:7196   */\n    tag_261:\n        /* \"#utility.yul\":7165:7189   */\n      tag_263\n        /* \"#utility.yul\":7183:7188   */\n      dup2\n        /* \"#utility.yul\":7165:7189   */\n      tag_264\n      jump\t// in\n    tag_263:\n        /* \"#utility.yul\":7160:7163   */\n      dup3\n        /* \"#utility.yul\":7153:7190   */\n      mstore\n        /* \"#utility.yul\":7078:7196   */\n      pop\n      pop\n      jump\t// out\n        /* \"#utility.yul\":7202:7424   */\n    tag_54:\n        /* \"#utility.yul\":7295:7299   */\n      0x00\n        /* \"#utility.yul\":7333:7335   */\n      0x20\n        /* \"#utility.yul\":7322:7331   */\n      dup3\n        /* \"#utility.yul\":7318:7336   */\n      add\n        /* \"#utility.yul\":7310:7336   */\n      swap1\n      pop\n        /* \"#utility.yul\":7346:7417   */\n      tag_266\n        /* \"#utility.yul\":7414:7415   */\n      0x00\n        /* \"#utility.yul\":7403:7412   */\n      dup4\n        /* \"#utility.yul\":7399:7416   */\n      add\n        /* \"#utility.yul\":7390:7396   */\n      dup5\n        /* \"#utility.yul\":7346:7417   */\n      tag_177\n      jump\t// in\n    tag_266:\n        /* \"#utility.yul\":7202:7424   */\n      swap3\n      swap2\n      pop\n      pop\n      jump\t// out\n        /* \"#utility.yul\":7430:7684   */\n    tag_49:\n        /* \"#utility.yul\":7539:7543   */\n      0x00\n        /* \"#utility.yul\":7577:7579   */\n      0x20\n        /* \"#utility.yul\":7566:7575   */\n      dup3\n        /* \"#utility.yul\":7562:7580   */\n      add\n        /* \"#utility.yul\":7554:7580   */\n      swap1\n      pop\n        /* \"#utility.yul\":7590:7677   */\n      tag_268\n        /* \"#utility.yul\":7674:7675   */\n      0x00\n        /* \"#utility.yul\":7663:7672   */\n      dup4\n        /* \"#utility.yul\":7659:7676   */\n      add\n        /* \"#utility.yul\":7650:7656   */\n      dup5\n        /* \"#utility.yul\":7590:7677   */\n      tag_173\n      jump\t// in\n    tag_268:\n        /* \"#utility.yul\":7430:7684   */\n      swap3\n      swap2\n      pop\n      pop\n      jump\t// out\n        /* \"#utility.yul\":7690:7900   */\n    tag_65:\n        /* \"#utility.yul\":7777:7781   */\n      0x00\n        /* \"#utility.yul\":7815:7817   */\n      0x20\n        /* \"#utility.yul\":7804:7813   */\n      dup3\n        /* \"#utility.yul\":7800:7818   */\n      add\n        /* \"#utility.yul\":7792:7818   */\n      swap1\n      pop\n        /* \"#utility.yul\":7828:7893   */\n      tag_270\n        /* \"#utility.yul\":7890:7891   */\n      0x00\n        /* \"#utility.yul\":7879:7888   */\n      dup4\n        /* \"#utility.yul\":7875:7892   */\n      add\n        /* \"#utility.yul\":7866:7872   */\n      dup5\n        /* \"#utility.yul\":7828:7893   */\n      tag_181\n      jump\t// in\n    tag_270:\n        /* \"#utility.yul\":7690:7900   */\n      swap3\n      swap2\n      pop\n      pop\n      jump\t// out\n        /* \"#utility.yul\":7906:8435   */\n    tag_93:\n        /* \"#utility.yul\":8100:8104   */\n      0x00\n        /* \"#utility.yul\":8138:8140   */\n      0x40\n        /* \"#utility.yul\":8127:8136   */\n      dup3\n        /* \"#utility.yul\":8123:8141   */\n      add\n        /* \"#utility.yul\":8115:8141   */\n      swap1\n      pop\n        /* \"#utility.yul\":8187:8196   */\n      dup2\n        /* \"#utility.yul\":8181:8185   */\n      dup2\n        /* \"#utility.yul\":8177:8197   */\n      sub\n        /* \"#utility.yul\":8173:8174   */\n      0x00\n        /* \"#utility.yul\":8162:8171   */\n      dup4\n        /* \"#utility.yul\":8158:8175   */\n      add\n        /* \"#utility.yul\":8151:8198   */\n      mstore\n        /* \"#utility.yul\":8215:8346   */\n      tag_272\n        /* \"#utility.yul\":8341:8345   */\n      dup2\n        /* \"#utility.yul\":8215:8346   */\n      tag_185\n      jump\t// in\n    tag_272:\n        /* \"#utility.yul\":8207:8346   */\n      swap1\n      pop\n        /* \"#utility.yul\":8356:8428   */\n      tag_273\n        /* \"#utility.yul\":8424:8426   */\n      0x20\n        /* \"#utility.yul\":8413:8422   */\n      dup4\n        /* \"#utility.yul\":8409:8427   */\n      add\n        /* \"#utility.yul\":8400:8406   */\n      dup5\n        /* \"#utility.yul\":8356:8428   */\n      tag_177\n      jump\t// in\n    tag_273:\n        /* \"#utility.yul\":7906:8435   */\n      swap3\n      swap2\n      pop\n      pop\n      jump\t// out\n        /* \"#utility.yul\":8441:8970   */\n    tag_79:\n        /* \"#utility.yul\":8635:8639   */\n      0x00\n        /* \"#utility.yul\":8673:8675   */\n      0x40\n        /* \"#utility.yul\":8662:8671   */\n      dup3\n        /* \"#utility.yul\":8658:8676   */\n      add\n        /* \"#utility.yul\":8650:8676   */\n      swap1\n      pop\n        /* \"#utility.yul\":8722:8731   */\n      dup2\n        /* \"#utility.yul\":8716:8720   */\n      dup2\n        /* \"#utility.yul\":8712:8732   */\n      sub\n        /* \"#utility.yul\":8708:8709   */\n      0x00\n        /* \"#utility.yul\":8697:8706   */\n      dup4\n        /* \"#utility.yul\":8693:8710   */\n      add\n        /* \"#utility.yul\":8686:8733   */\n      mstore\n        /* \"#utility.yul\":8750:8881   */\n      tag_275\n        /* \"#utility.yul\":8876:8880   */\n      dup2\n        /* \"#utility.yul\":8750:8881   */\n      tag_191\n      jump\t// in\n    tag_275:\n        /* \"#utility.yul\":8742:8881   */\n      swap1\n      pop\n        /* \"#utility.yul\":8891:8963   */\n      tag_276\n        /* \"#utility.yul\":8959:8961   */\n      0x20\n        /* \"#utility.yul\":8948:8957   */\n      dup4\n        /* \"#utility.yul\":8944:8962   */\n      add\n        /* \"#utility.yul\":8935:8941   */\n      dup5\n        /* \"#utility.yul\":8891:8963   */\n      tag_177\n      jump\t// in\n    tag_276:\n        /* \"#utility.yul\":8441:8970   */\n      swap3\n      swap2\n      pop\n      pop\n      jump\t// out\n        /* \"#utility.yul\":8976:9395   */\n    tag_83:\n        /* \"#utility.yul\":9142:9146   */\n      0x00\n        /* \"#utility.yul\":9180:9182   */\n      0x20\n        /* \"#utility.yul\":9169:9178   */\n      dup3\n        /* \"#utility.yul\":9165:9183   */\n      add\n        /* \"#utility.yul\":9157:9183   */\n      swap1\n      pop\n        /* \"#utility.yul\":9229:9238   */\n      dup2\n        /* \"#utility.yul\":9223:9227   */\n      dup2\n        /* \"#utility.yul\":9219:9239   */\n      sub\n        /* \"#utility.yul\":9215:9216   */\n      0x00\n        /* \"#utility.yul\":9204:9213   */\n      dup4\n        /* \"#utility.yul\":9200:9217   */\n      add\n        /* \"#utility.yul\":9193:9240   */\n      mstore\n        /* \"#utility.yul\":9257:9388   */\n      tag_278\n        /* \"#utility.yul\":9383:9387   */\n      dup2\n        /* \"#utility.yul\":9257:9388   */\n      tag_196\n      jump\t// in\n    tag_278:\n        /* \"#utility.yul\":9249:9388   */\n      swap1\n      pop\n        /* \"#utility.yul\":8976:9395   */\n      swap2\n      swap1\n      pop\n      jump\t// out\n        /* \"#utility.yul\":9401:9820   */\n    tag_103:\n        /* \"#utility.yul\":9567:9571   */\n      0x00\n        /* \"#utility.yul\":9605:9607   */\n      0x20\n        /* \"#utility.yul\":9594:9603   */\n      dup3\n        /* \"#utility.yul\":9590:9608   */\n      add\n        /* \"#utility.yul\":9582:9608   */\n      swap1\n      pop\n        /* \"#utility.yul\":9654:9663   */\n      dup2\n        /* \"#utility.yul\":9648:9652   */\n      dup2\n        /* \"#utility.yul\":9644:9664   */\n      sub\n        /* \"#utility.yul\":9640:9641   */\n      0x00\n        /* \"#utility.yul\":9629:9638   */\n      dup4\n        /* \"#utility.yul\":9625:9642   */\n      add\n        /* \"#utility.yul\":9618:9665   */\n      mstore\n        /* \"#utility.yul\":9682:9813   */\n      tag_280\n        /* \"#utility.yul\":9808:9812   */\n      dup2\n        /* \"#utility.yul\":9682:9813   */\n      tag_201\n      jump\t// in\n    tag_280:\n        /* \"#utility.yul\":9674:9813   */\n      swap1\n      pop\n        /* \"#utility.yul\":9401:9820   */\n      swap2\n      swap1\n      pop\n      jump\t// out\n        /* \"#utility.yul\":9826:10245   */\n    tag_125:\n        /* \"#utility.yul\":9992:9996   */\n      0x00\n        /* \"#utility.yul\":10030:10032   */\n      0x20\n        /* \"#utility.yul\":10019:10028   */\n      dup3\n        /* \"#utility.yul\":10015:10033   */\n      add\n        /* \"#utility.yul\":10007:10033   */\n      swap1\n      pop\n        /* \"#utility.yul\":10079:10088   */\n      dup2\n        /* \"#utility.yul\":10073:10077   */\n      dup2\n        /* \"#utility.yul\":10069:10089   */\n      sub\n        /* \"#utility.yul\":10065:10066   */\n      0x00\n        /* \"#utility.yul\":10054:10063   */\n      dup4\n        /* \"#utility.yul\":10050:10067   */\n      add\n        /* \"#utility.yul\":10043:10090   */\n      mstore\n        /* \"#utility.yul\":10107:10238   */\n      tag_282\n        /* \"#utility.yul\":10233:10237   */\n      dup2\n        /* \"#utility.yul\":10107:10238   */\n      tag_206\n      jump\t// in\n    tag_282:\n        /* \"#utility.yul\":10099:10238   */\n      swap1\n      pop\n        /* \"#utility.yul\":9826:10245   */\n      swap2\n      swap1\n      pop\n      jump\t// out\n        /* \"#utility.yul\":10251:10670   */\n    tag_97:\n        /* \"#utility.yul\":10417:10421   */\n      0x00\n        /* \"#utility.yul\":10455:10457   */\n      0x20\n        /* \"#utility.yul\":10444:10453   */\n      dup3\n        /* \"#utility.yul\":10440:10458   */\n      add\n        /* \"#utility.yul\":10432:10458   */\n      swap1\n      pop\n        /* \"#utility.yul\":10504:10513   */\n      dup2\n        /* \"#utility.yul\":10498:10502   */\n      dup2\n        /* \"#utility.yul\":10494:10514   */\n      sub\n        /* \"#utility.yul\":10490:10491   */\n      0x00\n        /* \"#utility.yul\":10479:10488   */\n      dup4\n        /* \"#utility.yul\":10475:10492   */\n      add\n        /* \"#utility.yul\":10468:10515   */\n      mstore\n        /* \"#utility.yul\":10532:10663   */\n      tag_284\n        /* \"#utility.yul\":10658:10662   */\n      dup2\n        /* \"#utility.yul\":10532:10663   */\n      tag_211\n      jump\t// in\n    tag_284:\n        /* \"#utility.yul\":10524:10663   */\n      swap1\n      pop\n        /* \"#utility.yul\":10251:10670   */\n      swap2\n      swap1\n      pop\n      jump\t// out\n        /* \"#utility.yul\":10676:11205   */\n    tag_129:\n        /* \"#utility.yul\":10870:10874   */\n      0x00\n        /* \"#utility.yul\":10908:10910   */\n      0x40\n        /* \"#utility.yul\":10897:10906   */\n      dup3\n        /* \"#utility.yul\":10893:10911   */\n      add\n        /* \"#utility.yul\":10885:10911   */\n      swap1\n      pop\n        /* \"#utility.yul\":10957:10966   */\n      dup2\n        /* \"#utility.yul\":10951:10955   */\n      dup2\n        /* \"#utility.yul\":10947:10967   */\n      sub\n        /* \"#utility.yul\":10943:10944   */\n      0x00\n        /* \"#utility.yul\":10932:10941   */\n      dup4\n        /* \"#utility.yul\":10928:10945   */\n      add\n        /* \"#utility.yul\":10921:10968   */\n      mstore\n        /* \"#utility.yul\":10985:11116   */\n      tag_286\n        /* \"#utility.yul\":11111:11115   */\n      dup2\n        /* \"#utility.yul\":10985:11116   */\n      tag_216\n      jump\t// in\n    tag_286:\n        /* \"#utility.yul\":10977:11116   */\n      swap1\n      pop\n        /* \"#utility.yul\":11126:11198   */\n      tag_287\n        /* \"#utility.yul\":11194:11196   */\n      0x20\n        /* \"#utility.yul\":11183:11192   */\n      dup4\n        /* \"#utility.yul\":11179:11197   */\n      add\n        /* \"#utility.yul\":11170:11176   */\n      dup5\n        /* \"#utility.yul\":11126:11198   */\n      tag_177\n      jump\t// in\n    tag_287:\n        /* \"#utility.yul\":10676:11205   */\n      swap3\n      swap2\n      pop\n      pop\n      jump\t// out\n        /* \"#utility.yul\":11211:11630   */\n    tag_133:\n        /* \"#utility.yul\":11377:11381   */\n      0x00\n        /* \"#utility.yul\":11415:11417   */\n      0x20\n        /* \"#utility.yul\":11404:11413   */\n      dup3\n        /* \"#utility.yul\":11400:11418   */\n      add\n        /* \"#utility.yul\":11392:11418   */\n      swap1\n      pop\n        /* \"#utility.yul\":11464:11473   */\n      dup2\n        /* \"#utility.yul\":11458:11462   */\n      dup2\n        /* \"#utility.yul\":11454:11474   */\n      sub\n        /* \"#utility.yul\":11450:11451   */\n      0x00\n        /* \"#utility.yul\":11439:11448   */\n      dup4\n        /* \"#utility.yul\":11435:11452   */\n      add\n        /* \"#utility.yul\":11428:11475   */\n      mstore\n        /* \"#utility.yul\":11492:11623   */\n      tag_289\n        /* \"#utility.yul\":11618:11622   */\n      dup2\n        /* \"#utility.yul\":11492:11623   */\n      tag_221\n      jump\t// in\n    tag_289:\n        /* \"#utility.yul\":11484:11623   */\n      swap1\n      pop\n        /* \"#utility.yul\":11211:11630   */\n      swap2\n      swap1\n      pop\n      jump\t// out\n        /* \"#utility.yul\":11636:12055   */\n    tag_139:\n        /* \"#utility.yul\":11802:11806   */\n      0x00\n        /* \"#utility.yul\":11840:11842   */\n      0x20\n        /* \"#utility.yul\":11829:11838   */\n      dup3\n        /* \"#utility.yul\":11825:11843   */\n      add\n        /* \"#utility.yul\":11817:11843   */\n      swap1\n      pop\n        /* \"#utility.yul\":11889:11898   */\n      dup2\n        /* \"#utility.yul\":11883:11887   */\n      dup2\n        /* \"#utility.yul\":11879:11899   */\n      sub\n        /* \"#utility.yul\":11875:11876   */\n      0x00\n        /* \"#utility.yul\":11864:11873   */\n      dup4\n        /* \"#utility.yul\":11860:11877   */\n      add\n        /* \"#utility.yul\":11853:11900   */\n      mstore\n        /* \"#utility.yul\":11917:12048   */\n      tag_291\n        /* \"#utility.yul\":12043:12047   */\n      dup2\n        /* \"#utility.yul\":11917:12048   */\n      tag_226\n      jump\t// in\n    tag_291:\n        /* \"#utility.yul\":11909:12048   */\n      swap1\n      pop\n        /* \"#utility.yul\":11636:12055   */\n      swap2\n      swap1\n      pop\n      jump\t// out\n        /* \"#utility.yul\":12061:12480   */\n    tag_110:\n        /* \"#utility.yul\":12227:12231   */\n      0x00\n        /* \"#utility.yul\":12265:12267   */\n      0x20\n        /* \"#utility.yul\":12254:12263   */\n      dup3\n        /* \"#utility.yul\":12250:12268   */\n      add\n        /* \"#utility.yul\":12242:12268   */\n      swap1\n      pop\n        /* \"#utility.yul\":12314:12323   */\n      dup2\n        /* \"#utility.yul\":12308:12312   */\n      dup2\n        /* \"#utility.yul\":12304:12324   */\n      sub\n        /* \"#utility.yul\":12300:12301   */\n      0x00\n        /* \"#utility.yul\":12289:12298   */\n      dup4\n        /* \"#utility.yul\":12285:12302   */\n      add\n        /* \"#utility.yul\":12278:12325   */\n      mstore\n        /* \"#utility.yul\":12342:12473   */\n      tag_293\n        /* \"#utility.yul\":12468:12472   */\n      dup2\n        /* \"#utility.yul\":12342:12473   */\n      tag_231\n      jump\t// in\n    tag_293:\n        /* \"#utility.yul\":12334:12473   */\n      swap1\n      pop\n        /* \"#utility.yul\":12061:12480   */\n      swap2\n      swap1\n      pop\n      jump\t// out\n        /* \"#utility.yul\":12486:12905   */\n    tag_76:\n        /* \"#utility.yul\":12652:12656   */\n      0x00\n        /* \"#utility.yul\":12690:12692   */\n      0x20\n        /* \"#utility.yul\":12679:12688   */\n      dup3\n        /* \"#utility.yul\":12675:12693   */\n      add\n        /* \"#utility.yul\":12667:12693   */\n      swap1\n      pop\n        /* \"#utility.yul\":12739:12748   */\n      dup2\n        /* \"#utility.yul\":12733:12737   */\n      dup2\n        /* \"#utility.yul\":12729:12749   */\n      sub\n        /* \"#utility.yul\":12725:12726   */\n      0x00\n        /* \"#utility.yul\":12714:12723   */\n      dup4\n        /* \"#utility.yul\":12710:12727   */\n      add\n        /* \"#utility.yul\":12703:12750   */\n      mstore\n        /* \"#utility.yul\":12767:12898   */\n      tag_295\n        /* \"#utility.yul\":12893:12897   */\n      dup2\n        /* \"#utility.yul\":12767:12898   */\n      tag_236\n      jump\t// in\n    tag_295:\n        /* \"#utility.yul\":12759:12898   */\n      swap1\n      pop\n        /* \"#utility.yul\":12486:12905   */\n      swap2\n      swap1\n      pop\n      jump\t// out\n        /* \"#utility.yul\":12911:13330   */\n    tag_143:\n        /* \"#utility.yul\":13077:13081   */\n      0x00\n        /* \"#utility.yul\":13115:13117   */\n      0x20\n        /* \"#utility.yul\":13104:13113   */\n      dup3\n        /* \"#utility.yul\":13100:13118   */\n      add\n        /* \"#utility.yul\":13092:13118   */\n      swap1\n      pop\n        /* \"#utility.yul\":13164:13173   */\n      dup2\n        /* \"#utility.yul\":13158:13162   */\n      dup2\n        /* \"#utility.yul\":13154:13174   */\n      sub\n        /* \"#utility.yul\":13150:13151   */\n      0x00\n        /* \"#utility.yul\":13139:13148   */\n      dup4\n        /* \"#utility.yul\":13135:13152   */\n      add\n        /* \"#utility.yul\":13128:13175   */\n      mstore\n        /* \"#utility.yul\":13192:13323   */\n      tag_297\n        /* \"#utility.yul\":13318:13322   */\n      dup2\n        /* \"#utility.yul\":13192:13323   */\n      tag_241\n      jump\t// in\n    tag_297:\n        /* \"#utility.yul\":13184:13323   */\n      swap1\n      pop\n        /* \"#utility.yul\":12911:13330   */\n      swap2\n      swap1\n      pop\n      jump\t// out\n        /* \"#utility.yul\":13336:13755   */\n    tag_87:\n        /* \"#utility.yul\":13502:13506   */\n      0x00\n        /* \"#utility.yul\":13540:13542   */\n      0x20\n        /* \"#utility.yul\":13529:13538   */\n      dup3\n        /* \"#utility.yul\":13525:13543   */\n      add\n        /* \"#utility.yul\":13517:13543   */\n      swap1\n      pop\n        /* \"#utility.yul\":13589:13598   */\n      dup2\n        /* \"#utility.yul\":13583:13587   */\n      dup2\n        /* \"#utility.yul\":13579:13599   */\n      sub\n        /* \"#utility.yul\":13575:13576   */\n      0x00\n        /* \"#utility.yul\":13564:13573   */\n      dup4\n        /* \"#utility.yul\":13560:13577   */\n      add\n        /* \"#utility.yul\":13553:13600   */\n      mstore\n        /* \"#utility.yul\":13617:13748   */\n      tag_299\n        /* \"#utility.yul\":13743:13747   */\n      dup2\n        /* \"#utility.yul\":13617:13748   */\n      tag_246\n      jump\t// in\n    tag_299:\n        /* \"#utility.yul\":13609:13748   */\n      swap1\n      pop\n        /* \"#utility.yul\":13336:13755   */\n      swap2\n      swap1\n      pop\n      jump\t// out\n        /* \"#utility.yul\":13761:14180   */\n    tag_119:\n        /* \"#utility.yul\":13927:13931   */\n      0x00\n        /* \"#utility.yul\":13965:13967   */\n      0x20\n        /* \"#utility.yul\":13954:13963   */\n      dup3\n        /* \"#utility.yul\":13950:13968   */\n      add\n        /* \"#utility.yul\":13942:13968   */\n      swap1\n      pop\n        /* \"#utility.yul\":14014:14023   */\n      dup2\n        /* \"#utility.yul\":14008:14012   */\n      dup2\n        /* \"#utility.yul\":14004:14024   */\n      sub\n        /* \"#utility.yul\":14000:14001   */\n      0x00\n        /* \"#utility.yul\":13989:13998   */\n      dup4\n        /* \"#utility.yul\":13985:14002   */\n      add\n        /* \"#utility.yul\":13978:14025   */\n      mstore\n        /* \"#utility.yul\":14042:14173   */\n      tag_301\n        /* \"#utility.yul\":14168:14172   */\n      dup2\n        /* \"#utility.yul\":14042:14173   */\n      tag_251\n      jump\t// in\n    tag_301:\n        /* \"#utility.yul\":14034:14173   */\n      swap1\n      pop\n        /* \"#utility.yul\":13761:14180   */\n      swap2\n      swap1\n      pop\n      jump\t// out\n        /* \"#utility.yul\":14186:14605   */\n    tag_153:\n        /* \"#utility.yul\":14352:14356   */\n      0x00\n        /* \"#utility.yul\":14390:14392   */\n      0x20\n        /* \"#utility.yul\":14379:14388   */\n      dup3\n        /* \"#utility.yul\":14375:14393   */\n      add\n        /* \"#utility.yul\":14367:14393   */\n      swap1\n      pop\n        /* \"#utility.yul\":14439:14448   */\n      dup2\n        /* \"#utility.yul\":14433:14437   */\n      dup2\n        /* \"#utility.yul\":14429:14449   */\n      sub\n        /* \"#utility.yul\":14425:14426   */\n      0x00\n        /* \"#utility.yul\":14414:14423   */\n      dup4\n        /* \"#utility.yul\":14410:14427   */\n      add\n        /* \"#utility.yul\":14403:14450   */\n      mstore\n        /* \"#utility.yul\":14467:14598   */\n      tag_303\n        /* \"#utility.yul\":14593:14597   */\n      dup2\n        /* \"#utility.yul\":14467:14598   */\n      tag_256\n      jump\t// in\n    tag_303:\n        /* \"#utility.yul\":14459:14598   */\n      swap1\n      pop\n        /* \"#utility.yul\":14186:14605   */\n      swap2\n      swap1\n      pop\n      jump\t// out\n        /* \"#utility.yul\":14611:14833   */\n    tag_36:\n        /* \"#utility.yul\":14704:14708   */\n      0x00\n        /* \"#utility.yul\":14742:14744   */\n      0x20\n        /* \"#utility.yul\":14731:14740   */\n      dup3\n        /* \"#utility.yul\":14727:14745   */\n      add\n        /* \"#utility.yul\":14719:14745   */\n      swap1\n      pop\n        /* \"#utility.yul\":14755:14826   */\n      tag_305\n        /* \"#utility.yul\":14823:14824   */\n      0x00\n        /* \"#utility.yul\":14812:14821   */\n      dup4\n        /* \"#utility.yul\":14808:14825   */\n      add\n        /* \"#utility.yul\":14799:14805   */\n      dup5\n        /* \"#utility.yul\":14755:14826   */\n      tag_261\n      jump\t// in\n    tag_305:\n        /* \"#utility.yul\":14611:14833   */\n      swap3\n      swap2\n      pop\n      pop\n      jump\t// out\n        /* \"#utility.yul\":14920:15089   */\n    tag_188:\n        /* \"#utility.yul\":15004:15015   */\n      0x00\n        /* \"#utility.yul\":15038:15044   */\n      dup3\n        /* \"#utility.yul\":15033:15036   */\n      dup3\n        /* \"#utility.yul\":15026:15045   */\n      mstore\n        /* \"#utility.yul\":15078:15082   */\n      0x20\n        /* \"#utility.yul\":15073:15076   */\n      dup3\n        /* \"#utility.yul\":15069:15083   */\n      add\n        /* \"#utility.yul\":15054:15083   */\n      swap1\n      pop\n        /* \"#utility.yul\":14920:15089   */\n      swap3\n      swap2\n      pop\n      pop\n      jump\t// out\n        /* \"#utility.yul\":15095:15400   */\n    tag_116:\n        /* \"#utility.yul\":15135:15138   */\n      0x00\n        /* \"#utility.yul\":15154:15174   */\n      tag_310\n        /* \"#utility.yul\":15172:15173   */\n      dup3\n        /* \"#utility.yul\":15154:15174   */\n      tag_264\n      jump\t// in\n    tag_310:\n        /* \"#utility.yul\":15149:15174   */\n      swap2\n      pop\n        /* \"#utility.yul\":15188:15208   */\n      tag_311\n        /* \"#utility.yul\":15206:15207   */\n      dup4\n        /* \"#utility.yul\":15188:15208   */\n      tag_264\n      jump\t// in\n    tag_311:\n        /* \"#utility.yul\":15183:15208   */\n      swap3\n      pop\n        /* \"#utility.yul\":15342:15343   */\n      dup3\n        /* \"#utility.yul\":15274:15340   */\n      0xffffffffffffffffffffffffffffffffffffffffffffffffffffffffffffffff\n        /* \"#utility.yul\":15270:15344   */\n      sub\n        /* \"#utility.yul\":15267:15268   */\n      dup3\n        /* \"#utility.yul\":15264:15345   */\n      gt\n        /* \"#utility.yul\":15261:15368   */\n      iszero\n      tag_312\n      jumpi\n        /* \"#utility.yul\":15348:15366   */\n      tag_313\n      tag_314\n      jump\t// in\n    tag_313:\n        /* \"#utility.yul\":15261:15368   */\n    tag_312:\n        /* \"#utility.yul\":15392:15393   */\n      dup3\n        /* \"#utility.yul\":15389:15390   */\n      dup3\n        /* \"#utility.yul\":15385:15394   */\n      add\n        /* \"#utility.yul\":15378:15394   */\n      swap1\n      pop\n        /* \"#utility.yul\":15095:15400   */\n      swap3\n      swap2\n      pop\n      pop\n      jump\t// out\n        /* \"#utility.yul\":15406:15591   */\n    tag_145:\n        /* \"#utility.yul\":15446:15447   */\n      0x00\n        /* \"#utility.yul\":15463:15483   */\n      tag_316\n        /* \"#utility.yul\":15481:15482   */\n      dup3\n        /* \"#utility.yul\":15463:15483   */\n      tag_264\n      jump\t// in\n    tag_316:\n        /* \"#utility.yul\":15458:15483   */\n      swap2\n      pop\n        /* \"#utility.yul\":15497:15517   */\n      tag_317\n        /* \"#utility.yul\":15515:15516   */\n      dup4\n        /* \"#utility.yul\":15497:15517   */\n      tag_264\n      jump\t// in\n    tag_317:\n        /* \"#utility.yul\":15492:15517   */\n      swap3\n      pop\n        /* \"#utility.yul\":15536:15537   */\n      dup3\n        /* \"#utility.yul\":15526:15561   */\n      tag_318\n      jumpi\n        /* \"#utility.yul\":15541:15559   */\n      tag_319\n      tag_320\n      jump\t// in\n    tag_319:\n        /* \"#utility.yul\":15526:15561   */\n    tag_318:\n        /* \"#utility.yul\":15583:15584   */\n      dup3\n        /* \"#utility.yul\":15580:15581   */\n      dup3\n        /* \"#utility.yul\":15576:15585   */\n      div\n        /* \"#utility.yul\":15571:15585   */\n      swap1\n      pop\n        /* \"#utility.yul\":15406:15591   */\n      swap3\n      swap2\n      pop\n      pop\n      jump\t// out\n        /* \"#utility.yul\":15597:15945   */\n    tag_148:\n        /* \"#utility.yul\":15637:15644   */\n      0x00\n        /* \"#utility.yul\":15660:15680   */\n      tag_322\n        /* \"#utility.yul\":15678:15679   */\n      dup3\n        /* \"#utility.yul\":15660:15680   */\n      tag_264\n      jump\t// in\n    tag_322:\n        /* \"#utility.yul\":15655:15680   */\n      swap2\n      pop\n        /* \"#utility.yul\":15694:15714   */\n      tag_323\n        /* \"#utility.yul\":15712:15713   */\n      dup4\n        /* \"#utility.yul\":15694:15714   */\n      tag_264\n      jump\t// in\n    tag_323:\n        /* \"#utility.yul\":15689:15714   */\n      swap3\n      pop\n        /* \"#utility.yul\":15882:15883   */\n      dup2\n        /* \"#utility.yul\":15814:15880   */\n      0xffffffffffffffffffffffffffffffffffffffffffffffffffffffffffffffff\n        /* \"#utility.yul\":15810:15884   */\n      div\n        /* \"#utility.yul\":15807:15808   */\n      dup4\n        /* \"#utility.yul\":15804:15885   */\n      gt\n        /* \"#utility.yul\":15799:15800   */\n      dup3\n        /* \"#utility.yul\":15792:15801   */\n      iszero\n        /* \"#utility.yul\":15785:15802   */\n      iszero\n        /* \"#utility.yul\":15781:15886   */\n      and\n        /* \"#utility.yul\":15778:15909   */\n      iszero\n      tag_324\n      jumpi\n        /* \"#utility.yul\":15889:15907   */\n      tag_325\n      tag_314\n      jump\t// in\n    tag_325:\n        /* \"#utility.yul\":15778:15909   */\n    tag_324:\n        /* \"#utility.yul\":15937:15938   */\n      dup3\n        /* \"#utility.yul\":15934:15935   */\n      dup3\n        /* \"#utility.yul\":15930:15939   */\n      mul\n        /* \"#utility.yul\":15919:15939   */\n      swap1\n      pop\n        /* \"#utility.yul\":15597:15945   */\n      swap3\n      swap2\n      pop\n      pop\n      jump\t// out\n        /* \"#utility.yul\":15951:16142   */\n    tag_106:\n        /* \"#utility.yul\":15991:15995   */\n      0x00\n        /* \"#utility.yul\":16011:16031   */\n      tag_327\n        /* \"#utility.yul\":16029:16030   */\n      dup3\n        /* \"#utility.yul\":16011:16031   */\n      tag_264\n      jump\t// in\n    tag_327:\n        /* \"#utility.yul\":16006:16031   */\n      swap2\n      pop\n        /* \"#utility.yul\":16045:16065   */\n      tag_328\n        /* \"#utility.yul\":16063:16064   */\n      dup4\n        /* \"#utility.yul\":16045:16065   */\n      tag_264\n      jump\t// in\n    tag_328:\n        /* \"#utility.yul\":16040:16065   */\n      swap3\n      pop\n        /* \"#utility.yul\":16084:16085   */\n      dup3\n        /* \"#utility.yul\":16081:16082   */\n      dup3\n        /* \"#utility.yul\":16078:16086   */\n      lt\n        /* \"#utility.yul\":16075:16109   */\n      iszero\n      tag_329\n      jumpi\n        /* \"#utility.yul\":16089:16107   */\n      tag_330\n      tag_314\n      jump\t// in\n    tag_330:\n        /* \"#utility.yul\":16075:16109   */\n    tag_329:\n        /* \"#utility.yul\":16134:16135   */\n      dup3\n        /* \"#utility.yul\":16131:16132   */\n      dup3\n        /* \"#utility.yul\":16127:16136   */\n      sub\n        /* \"#utility.yul\":16119:16136   */\n      swap1\n      pop\n        /* \"#utility.yul\":15951:16142   */\n      swap3\n      swap2\n      pop\n      pop\n      jump\t// out\n        /* \"#utility.yul\":16148:16244   */\n    tag_180:\n        /* \"#utility.yul\":16185:16192   */\n      0x00\n        /* \"#utility.yul\":16214:16238   */\n      tag_332\n        /* \"#utility.yul\":16232:16237   */\n      dup3\n        /* \"#utility.yul\":16214:16238   */\n      tag_333\n      jump\t// in\n    tag_332:\n        /* \"#utility.yul\":16203:16238   */\n      swap1\n      pop\n        /* \"#utility.yul\":16148:16244   */\n      swap2\n      swap1\n      pop\n      jump\t// out\n        /* \"#utility.yul\":16250:16354   */\n    tag_176:\n        /* \"#utility.yul\":16295:16302   */\n      0x00\n        /* \"#utility.yul\":16324:16348   */\n      tag_335\n        /* \"#utility.yul\":16342:16347   */\n      dup3\n        /* \"#utility.yul\":16324:16348   */\n      tag_333\n      jump\t// in\n    tag_335:\n        /* \"#utility.yul\":16313:16348   */\n      swap1\n      pop\n        /* \"#utility.yul\":16250:16354   */\n      swap2\n      swap1\n      pop\n      jump\t// out\n        /* \"#utility.yul\":16360:16450   */\n    tag_184:\n        /* \"#utility.yul\":16394:16401   */\n      0x00\n        /* \"#utility.yul\":16437:16442   */\n      dup2\n        /* \"#utility.yul\":16430:16443   */\n      iszero\n        /* \"#utility.yul\":16423:16444   */\n      iszero\n        /* \"#utility.yul\":16412:16444   */\n      swap1\n      pop\n        /* \"#utility.yul\":16360:16450   */\n      swap2\n      swap1\n      pop\n      jump\t// out\n        /* \"#utility.yul\":16456:16582   */\n    tag_333:\n        /* \"#utility.yul\":16493:16500   */\n      0x00\n        /* \"#utility.yul\":16533:16575   */\n      0xffffffffffffffffffffffffffffffffffffffff\n        /* \"#utility.yul\":16526:16531   */\n      dup3\n        /* \"#utility.yul\":16522:16576   */\n      and\n        /* \"#utility.yul\":16511:16576   */\n      swap1\n      pop\n        /* \"#utility.yul\":16456:16582   */\n      swap2\n      swap1\n      pop\n      jump\t// out\n        /* \"#utility.yul\":16588:16665   */\n    tag_264:\n        /* \"#utility.yul\":16625:16632   */\n      0x00\n        /* \"#utility.yul\":16654:16659   */\n      dup2\n        /* \"#utility.yul\":16643:16659   */\n      swap1\n      pop\n        /* \"#utility.yul\":16588:16665   */\n      swap2\n      swap1\n      pop\n      jump\t// out\n        /* \"#utility.yul\":16671:16851   */\n    tag_314:\n        /* \"#utility.yul\":16719:16796   */\n      0x4e487b7100000000000000000000000000000000000000000000000000000000\n        /* \"#utility.yul\":16716:16717   */\n      0x00\n        /* \"#utility.yul\":16709:16797   */\n      mstore\n        /* \"#utility.yul\":16816:16820   */\n      0x11\n        /* \"#utility.yul\":16813:16814   */\n      0x04\n        /* \"#utility.yul\":16806:16821   */\n      mstore\n        /* \"#utility.yul\":16840:16844   */\n      0x24\n        /* \"#utility.yul\":16837:16838   */\n      0x00\n        /* \"#utility.yul\":16830:16845   */\n      revert\n        /* \"#utility.yul\":16857:17037   */\n    tag_320:\n        /* \"#utility.yul\":16905:16982   */\n      0x4e487b7100000000000000000000000000000000000000000000000000000000\n        /* \"#utility.yul\":16902:16903   */\n      0x00\n        /* \"#utility.yul\":16895:16983   */\n      mstore\n        /* \"#utility.yul\":17002:17006   */\n      0x12\n        /* \"#utility.yul\":16999:17000   */\n      0x04\n        /* \"#utility.yul\":16992:17007   */\n      mstore\n        /* \"#utility.yul\":17026:17030   */\n      0x24\n        /* \"#utility.yul\":17023:17024   */\n      0x00\n        /* \"#utility.yul\":17016:17031   */\n      revert\n        /* \"#utility.yul\":17166:17283   */\n    tag_166:\n        /* \"#utility.yul\":17275:17276   */\n      0x00\n        /* \"#utility.yul\":17272:17273   */\n      dup1\n        /* \"#utility.yul\":17265:17277   */\n      revert\n        /* \"#utility.yul\":17289:17458   */\n    tag_190:\n        /* \"#utility.yul\":17429:17450   */\n      0x4d6f6e6579207769746864726177656e20746f00000000000000000000000000\n        /* \"#utility.yul\":17425:17426   */\n      0x00\n        /* \"#utility.yul\":17417:17423   */\n      dup3\n        /* \"#utility.yul\":17413:17427   */\n      add\n        /* \"#utility.yul\":17406:17451   */\n      mstore\n        /* \"#utility.yul\":17289:17458   */\n      pop\n      jump\t// out\n        /* \"#utility.yul\":17464:17631   */\n    tag_195:\n        /* \"#utility.yul\":17604:17623   */\n      0x456469746f72207570646174656420746f000000000000000000000000000000\n        /* \"#utility.yul\":17600:17601   */\n      0x00\n        /* \"#utility.yul\":17592:17598   */\n      dup3\n        /* \"#utility.yul\":17588:17602   */\n      add\n        /* \"#utility.yul\":17581:17624   */\n      mstore\n        /* \"#utility.yul\":17464:17631   */\n      pop\n      jump\t// out\n        /* \"#utility.yul\":17637:17865   */\n    tag_200:\n        /* \"#utility.yul\":17777:17811   */\n      0x4f6e6c7920616c6c6f7765642067617465732063616e20616363657373207468\n        /* \"#utility.yul\":17773:17774   */\n      0x00\n        /* \"#utility.yul\":17765:17771   */\n      dup3\n        /* \"#utility.yul\":17761:17775   */\n      add\n        /* \"#utility.yul\":17754:17812   */\n      mstore\n        /* \"#utility.yul\":17846:17857   */\n      0x6973206d6574686f640000000000000000000000000000000000000000000000\n        /* \"#utility.yul\":17841:17843   */\n      0x20\n        /* \"#utility.yul\":17833:17839   */\n      dup3\n        /* \"#utility.yul\":17829:17844   */\n      add\n        /* \"#utility.yul\":17822:17858   */\n      mstore\n        /* \"#utility.yul\":17637:17865   */\n      pop\n      jump\t// out\n        /* \"#utility.yul\":17871:18053   */\n    tag_205:\n        /* \"#utility.yul\":18011:18045   */\n      0x596f7520646f6e2774206861766520616e79206d6f6e657920696e2068657265\n        /* \"#utility.yul\":18007:18008   */\n      0x00\n        /* \"#utility.yul\":17999:18005   */\n      dup3\n        /* \"#utility.yul\":17995:18009   */\n      add\n        /* \"#utility.yul\":17988:18046   */\n      mstore\n        /* \"#utility.yul\":17871:18053   */\n      pop\n      jump\t// out\n        /* \"#utility.yul\":18059:18233   */\n    tag_210:\n        /* \"#utility.yul\":18199:18225   */\n      0x4d696e696d756d20312045746865722052657175697265640000000000000000\n        /* \"#utility.yul\":18195:18196   */\n      0x00\n        /* \"#utility.yul\":18187:18193   */\n      dup3\n        /* \"#utility.yul\":18183:18197   */\n      add\n        /* \"#utility.yul\":18176:18226   */\n      mstore\n        /* \"#utility.yul\":18059:18233   */\n      pop\n      jump\t// out\n        /* \"#utility.yul\":18239:18462   */\n    tag_215:\n        /* \"#utility.yul\":18379:18413   */\n      0x596f7520646f6e27742068617665206e6f2070656e64696e6720776974686472\n        /* \"#utility.yul\":18375:18376   */\n      0x00\n        /* \"#utility.yul\":18367:18373   */\n      dup3\n        /* \"#utility.yul\":18363:18377   */\n      add\n        /* \"#utility.yul\":18356:18414   */\n      mstore\n        /* \"#utility.yul\":18448:18454   */\n      0x61776c7300000000000000000000000000000000000000000000000000000000\n        /* \"#utility.yul\":18443:18445   */\n      0x20\n        /* \"#utility.yul\":18435:18441   */\n      dup3\n        /* \"#utility.yul\":18431:18446   */\n      add\n        /* \"#utility.yul\":18424:18455   */\n      mstore\n        /* \"#utility.yul\":18239:18462   */\n      pop\n      jump\t// out\n        /* \"#utility.yul\":18468:18624   */\n    tag_220:\n        /* \"#utility.yul\":18608:18616   */\n      0x7374616b65640000000000000000000000000000000000000000000000000000\n        /* \"#utility.yul\":18604:18605   */\n      0x00\n        /* \"#utility.yul\":18596:18602   */\n      dup3\n        /* \"#utility.yul\":18592:18606   */\n      add\n        /* \"#utility.yul\":18585:18617   */\n      mstore\n        /* \"#utility.yul\":18468:18624   */\n      pop\n      jump\t// out\n        /* \"#utility.yul\":18630:18798   */\n    tag_225:\n        /* \"#utility.yul\":18770:18790   */\n      0x537562737472616374696f6e206661696c640000000000000000000000000000\n        /* \"#utility.yul\":18766:18767   */\n      0x00\n        /* \"#utility.yul\":18758:18764   */\n      dup3\n        /* \"#utility.yul\":18754:18768   */\n      add\n        /* \"#utility.yul\":18747:18791   */\n      mstore\n        /* \"#utility.yul\":18630:18798   */\n      pop\n      jump\t// out\n        /* \"#utility.yul\":18804:18969   */\n    tag_230:\n        /* \"#utility.yul\":18944:18961   */\n      0x4164646974696f6e206661696c65640000000000000000000000000000000000\n        /* \"#utility.yul\":18940:18941   */\n      0x00\n        /* \"#utility.yul\":18932:18938   */\n      dup3\n        /* \"#utility.yul\":18928:18942   */\n      add\n        /* \"#utility.yul\":18921:18962   */\n      mstore\n        /* \"#utility.yul\":18804:18969   */\n      pop\n      jump\t// out\n        /* \"#utility.yul\":18975:19198   */\n    tag_235:\n        /* \"#utility.yul\":19115:19149   */\n      0x596f752073686f756c642061746c65617374207374616b6520666f722061206d\n        /* \"#utility.yul\":19111:19112   */\n      0x00\n        /* \"#utility.yul\":19103:19109   */\n      dup3\n        /* \"#utility.yul\":19099:19113   */\n      add\n        /* \"#utility.yul\":19092:19150   */\n      mstore\n        /* \"#utility.yul\":19184:19190   */\n      0x6f6e747900000000000000000000000000000000000000000000000000000000\n        /* \"#utility.yul\":19179:19181   */\n      0x20\n        /* \"#utility.yul\":19171:19177   */\n      dup3\n        /* \"#utility.yul\":19167:19182   */\n      add\n        /* \"#utility.yul\":19160:19191   */\n      mstore\n        /* \"#utility.yul\":18975:19198   */\n      pop\n      jump\t// out\n        /* \"#utility.yul\":19204:19435   */\n    tag_240:\n        /* \"#utility.yul\":19344:19378   */\n      0x4f6e6c7920696e697469616c2075706c6f616465722063616e20616363657373\n        /* \"#utility.yul\":19340:19341   */\n      0x00\n        /* \"#utility.yul\":19332:19338   */\n      dup3\n        /* \"#utility.yul\":19328:19342   */\n      add\n        /* \"#utility.yul\":19321:19379   */\n      mstore\n        /* \"#utility.yul\":19413:19427   */\n      0x2074686973206d6574686f640000000000000000000000000000000000000000\n        /* \"#utility.yul\":19408:19410   */\n      0x20\n        /* \"#utility.yul\":19400:19406   */\n      dup3\n        /* \"#utility.yul\":19396:19411   */\n      add\n        /* \"#utility.yul\":19389:19428   */\n      mstore\n        /* \"#utility.yul\":19204:19435   */\n      pop\n      jump\t// out\n        /* \"#utility.yul\":19441:19605   */\n    tag_245:\n        /* \"#utility.yul\":19581:19597   */\n      0x4469766973696f6e206661696c64000000000000000000000000000000000000\n        /* \"#utility.yul\":19577:19578   */\n      0x00\n        /* \"#utility.yul\":19569:19575   */\n      dup3\n        /* \"#utility.yul\":19565:19579   */\n      add\n        /* \"#utility.yul\":19558:19598   */\n      mstore\n        /* \"#utility.yul\":19441:19605   */\n      pop\n      jump\t// out\n        /* \"#utility.yul\":19611:19837   */\n    tag_250:\n        /* \"#utility.yul\":19751:19785   */\n      0x446f65736e2774206861766520656e6f7567682062616c616e636520696e2074\n        /* \"#utility.yul\":19747:19748   */\n      0x00\n        /* \"#utility.yul\":19739:19745   */\n      dup3\n        /* \"#utility.yul\":19735:19749   */\n      add\n        /* \"#utility.yul\":19728:19786   */\n      mstore\n        /* \"#utility.yul\":19820:19829   */\n      0x68652062616e6b00000000000000000000000000000000000000000000000000\n        /* \"#utility.yul\":19815:19817   */\n      0x20\n        /* \"#utility.yul\":19807:19813   */\n      dup3\n        /* \"#utility.yul\":19803:19818   */\n      add\n        /* \"#utility.yul\":19796:19830   */\n      mstore\n        /* \"#utility.yul\":19611:19837   */\n      pop\n      jump\t// out\n        /* \"#utility.yul\":19843:20080   */\n    tag_255:\n        /* \"#utility.yul\":19983:20017   */\n      0x536f72727920776520646f6e2774206861766520656e6f756768206d6f6e6579\n        /* \"#utility.yul\":19979:19980   */\n      0x00\n        /* \"#utility.yul\":19971:19977   */\n      dup3\n        /* \"#utility.yul\":19967:19981   */\n      add\n        /* \"#utility.yul\":19960:20018   */\n      mstore\n        /* \"#utility.yul\":20052:20072   */\n      0x20736f20636f6d656261636b206c617465720000000000000000000000000000\n        /* \"#utility.yul\":20047:20049   */\n      0x20\n        /* \"#utility.yul\":20039:20045   */\n      dup3\n        /* \"#utility.yul\":20035:20050   */\n      add\n        /* \"#utility.yul\":20028:20073   */\n      mstore\n        /* \"#utility.yul\":19843:20080   */\n      pop\n      jump\t// out\n        /* \"#utility.yul\":20086:20256   */\n    tag_260:\n        /* \"#utility.yul\":20226:20248   */\n      0x4d756c7469706c69636174696f6e206661696c64000000000000000000000000\n        /* \"#utility.yul\":20222:20223   */\n      0x00\n        /* \"#utility.yul\":20214:20220   */\n      dup3\n        /* \"#utility.yul\":20210:20224   */\n      add\n        /* \"#utility.yul\":20203:20249   */\n      mstore\n        /* \"#utility.yul\":20086:20256   */\n      pop\n      jump\t// out\n        /* \"#utility.yul\":20262:20384   */\n    tag_158:\n        /* \"#utility.yul\":20335:20359   */\n      tag_360\n        /* \"#utility.yul\":20353:20358   */\n      dup2\n        /* \"#utility.yul\":20335:20359   */\n      tag_180\n      jump\t// in\n    tag_360:\n        /* \"#utility.yul\":20328:20333   */\n      dup2\n        /* \"#utility.yul\":20325:20360   */\n      eq\n        /* \"#utility.yul\":20315:20378   */\n      tag_361\n      jumpi\n        /* \"#utility.yul\":20374:20375   */\n      0x00\n        /* \"#utility.yul\":20371:20372   */\n      dup1\n        /* \"#utility.yul\":20364:20376   */\n      revert\n        /* \"#utility.yul\":20315:20378   */\n    tag_361:\n        /* \"#utility.yul\":20262:20384   */\n      pop\n      jump\t// out\n        /* \"#utility.yul\":20390:20512   */\n    tag_162:\n        /* \"#utility.yul\":20463:20487   */\n      tag_363\n        /* \"#utility.yul\":20481:20486   */\n      dup2\n        /* \"#utility.yul\":20463:20487   */\n      tag_264\n      jump\t// in\n    tag_363:\n        /* \"#utility.yul\":20456:20461   */\n      dup2\n        /* \"#utility.yul\":20453:20488   */\n      eq\n        /* \"#utility.yul\":20443:20506   */\n      tag_364\n      jumpi\n        /* \"#utility.yul\":20502:20503   */\n      0x00\n        /* \"#utility.yul\":20499:20500   */\n      dup1\n        /* \"#utility.yul\":20492:20504   */\n      revert\n        /* \"#utility.yul\":20443:20506   */\n    tag_364:\n        /* \"#utility.yul\":20390:20512   */\n      pop\n      jump\t// out\n\n    auxdata: 0xa2646970667358221220dd3e43f550916b6142198e449cecee53dad249f08ea6024e4684b4e3a4dcb5ec64736f6c63430008070033\n}\n",
				"bytecode": {
					"linkReferences": {},
					"object": "6080604052670de0b6b3a76400006000553480156200001d57600080fd5b5033600160006101000a81548173ffffffffffffffffffffffffffffffffffffffff021916908373ffffffffffffffffffffffffffffffffffffffff1602179055507ff67e7992d539193fc243c42fe89f8fab49013e8e4fb18cfa891dc51adcaccc8033604051620000909190620000d6565b60405180910390a162000176565b620000a98162000119565b82525050565b6000620000be60148362000108565b9150620000cb826200014d565b602082019050919050565b60006040820190508181036000830152620000f181620000af565b90506200010260208301846200009e565b92915050565b600082825260208201905092915050565b600062000126826200012d565b9050919050565b600073ffffffffffffffffffffffffffffffffffffffff82169050919050565b7f4c656e64696e6720706f6f6c2063726561746564000000000000000000000000600082015250565b61183780620001866000396000f3fe6080604052600436106100ab5760003560e01c80638da5cb5b116100645780638da5cb5b1461018f578063a464d265146101ba578063aeae177c146101e5578063c02b209214610222578063d0e30db01461025f578063f993185514610269576100b2565b8063166d7b48146100b45780633607999b146100dd57806356852391146100f9578063650fad76146101105780636e0e0da21461013b5780636e1dc66e14610152576100b2565b366100b257005b005b3480156100c057600080fd5b506100db60048036038101906100d69190610d79565b6102a6565b005b6100f760048036038101906100f29190610da6565b6103b1565b005b34801561010557600080fd5b5061010e61056d565b005b34801561011c57600080fd5b506101256106c2565b604051610132919061128a565b60405180910390f35b34801561014757600080fd5b506101506106c8565b005b34801561015e57600080fd5b5061017960048036038101906101749190610d79565b6109b1565b604051610186919061128a565b60405180910390f35b34801561019b57600080fd5b506101a46109c9565b6040516101b1919061104a565b60405180910390f35b3480156101c657600080fd5b506101cf6109ef565b6040516101dc919061102f565b60405180910390f35b3480156101f157600080fd5b5061020c60048036038101906102079190610d79565b610a15565b604051610219919061128a565b60405180910390f35b34801561022e57600080fd5b5061024960048036038101906102449190610d79565b610a2d565b6040516102569190611065565b60405180910390f35b610267610a4d565b005b34801561027557600080fd5b50610290600480360381019061028b9190610d79565b610bbf565b60405161029d919061128a565b60405180910390f35b600160009054906101000a900473ffffffffffffffffffffffffffffffffffffffff1673ffffffffffffffffffffffffffffffffffffffff163373ffffffffffffffffffffffffffffffffffffffff1614610336576040517f08c379a000000000000000000000000000000000000000000000000000000000815260040161032d906111ea565b60405180910390fd5b80600360006101000a81548173ffffffffffffffffffffffffffffffffffffffff021916908373ffffffffffffffffffffffffffffffffffffffff1602179055507ff67e7992d539193fc243c42fe89f8fab49013e8e4fb18cfa891dc51adcaccc80816040516103a691906110ae565b60405180910390a150565b600860003373ffffffffffffffffffffffffffffffffffffffff1673ffffffffffffffffffffffffffffffffffffffff16815260200190815260200160002060009054906101000a900460ff1661043d576040517f08c379a0000000000000000000000000000000000000000000000000000000008152600401610434906110dc565b60405180910390fd5b600254821115610482576040517f08c379a00000000000000000000000000000000000000000000000000000000081526004016104799061122a565b60405180910390fd5b61049782600254610bd790919063ffffffff16565b6002819055506104ef82600760008473ffffffffffffffffffffffffffffffffffffffff1673ffffffffffffffffffffffffffffffffffffffff16815260200190815260200160002054610c3090919063ffffffff16565b600760008373ffffffffffffffffffffffffffffffffffffffff1673ffffffffffffffffffffffffffffffffffffffff168152602001908152602001600020819055507ff67e7992d539193fc243c42fe89f8fab49013e8e4fb18cfa891dc51adcaccc80816040516105619190611080565b60405180910390a15050565b6000600760003373ffffffffffffffffffffffffffffffffffffffff1673ffffffffffffffffffffffffffffffffffffffff16815260200190815260200160002054116105ef576040517f08c379a00000000000000000000000000000000000000000000000000000000081526004016105e69061113c565b60405180910390fd5b6000600760003373ffffffffffffffffffffffffffffffffffffffff1673ffffffffffffffffffffffffffffffffffffffff1681526020019081526020016000205490506000600760003373ffffffffffffffffffffffffffffffffffffffff1673ffffffffffffffffffffffffffffffffffffffff168152602001908152602001600020819055503373ffffffffffffffffffffffffffffffffffffffff166108fc829081150290604051600060405180830381858888f193505050501580156106be573d6000803e3d6000fd5b5050565b60005481565b6000600660003373ffffffffffffffffffffffffffffffffffffffff1673ffffffffffffffffffffffffffffffffffffffff168152602001908152602001600020541161074a576040517f08c379a0000000000000000000000000000000000000000000000000000000008152600401610741906110fc565b60405180910390fd5b60006107ac6201518042600560003373ffffffffffffffffffffffffffffffffffffffff1673ffffffffffffffffffffffffffffffffffffffff1681526020019081526020016000205461079e9190611397565b610c8990919063ffffffff16565b905062278d0081116107f3576040517f08c379a00000000000000000000000000000000000000000000000000000000081526004016107ea906111ca565b60405180910390fd5b600061086d606461085f600660003373ffffffffffffffffffffffffffffffffffffffff1673ffffffffffffffffffffffffffffffffffffffff16815260200190815260200160002054610851600587610ce190919063ffffffff16565b610ce190919063ffffffff16565b610c8990919063ffffffff16565b600660003373ffffffffffffffffffffffffffffffffffffffff1673ffffffffffffffffffffffffffffffffffffffff168152602001908152602001600020546108b791906112b6565b905060025481106108fd576040517f08c379a00000000000000000000000000000000000000000000000000000000081526004016108f49061124a565b60405180910390fd5b61091281600254610bd790919063ffffffff16565b60028190555061096a81600760003373ffffffffffffffffffffffffffffffffffffffff1673ffffffffffffffffffffffffffffffffffffffff16815260200190815260200160002054610c3090919063ffffffff16565b600760003373ffffffffffffffffffffffffffffffffffffffff1673ffffffffffffffffffffffffffffffffffffffff168152602001908152602001600020819055505050565b60056020528060005260406000206000915090505481565b600160009054906101000a900473ffffffffffffffffffffffffffffffffffffffff1681565b600360009054906101000a900473ffffffffffffffffffffffffffffffffffffffff1681565b60076020528060005260406000206000915090505481565b60086020528060005260406000206000915054906101000a900460ff1681565b600054341015610a92576040517f08c379a0000000000000000000000000000000000000000000000000000000008152600401610a899061111c565b60405180910390fd5b42600560003373ffffffffffffffffffffffffffffffffffffffff1673ffffffffffffffffffffffffffffffffffffffff16815260200190815260200160002081905550610b2834600660003373ffffffffffffffffffffffffffffffffffffffff1673ffffffffffffffffffffffffffffffffffffffff16815260200190815260200160002054610c3090919063ffffffff16565b600660003373ffffffffffffffffffffffffffffffffffffffff1673ffffffffffffffffffffffffffffffffffffffff16815260200190815260200160002081905550610b8034600254610c3090919063ffffffff16565b6002819055507ff67e7992d539193fc243c42fe89f8fab49013e8e4fb18cfa891dc51adcaccc8033604051610bb5919061115c565b60405180910390a1565b60066020528060005260406000206000915090505481565b600082821115610c1c576040517f08c379a0000000000000000000000000000000000000000000000000000000008152600401610c139061118a565b60405180910390fd5b8183610c289190611397565b905092915050565b60008183610c3e91906112b6565b905082811015610c83576040517f08c379a0000000000000000000000000000000000000000000000000000000008152600401610c7a906111aa565b60405180910390fd5b92915050565b6000808211610ccd576040517f08c379a0000000000000000000000000000000000000000000000000000000008152600401610cc49061120a565b60405180910390fd5b8183610cd9919061130c565b905092915050565b60008183610cef919061133d565b90506000831480610d0a5750818382610d08919061130c565b145b610d49576040517f08c379a0000000000000000000000000000000000000000000000000000000008152600401610d409061126a565b60405180910390fd5b92915050565b600081359050610d5e816117d3565b92915050565b600081359050610d73816117ea565b92915050565b600060208284031215610d8f57610d8e611483565b5b6000610d9d84828501610d4f565b91505092915050565b60008060408385031215610dbd57610dbc611483565b5b6000610dcb85828601610d64565b9250506020610ddc85828601610d4f565b9150509250929050565b610def816113dd565b82525050565b610dfe816113cb565b82525050565b610e0d816113ef565b82525050565b6000610e206013836112a5565b9150610e2b82611488565b602082019050919050565b6000610e436011836112a5565b9150610e4e826114b1565b602082019050919050565b6000610e666029836112a5565b9150610e71826114da565b604082019050919050565b6000610e896020836112a5565b9150610e9482611529565b602082019050919050565b6000610eac6018836112a5565b9150610eb782611552565b602082019050919050565b6000610ecf6024836112a5565b9150610eda8261157b565b604082019050919050565b6000610ef26006836112a5565b9150610efd826115ca565b602082019050919050565b6000610f156012836112a5565b9150610f20826115f3565b602082019050919050565b6000610f38600f836112a5565b9150610f438261161c565b602082019050919050565b6000610f5b6024836112a5565b9150610f6682611645565b604082019050919050565b6000610f7e602c836112a5565b9150610f8982611694565b604082019050919050565b6000610fa1600e836112a5565b9150610fac826116e3565b602082019050919050565b6000610fc46027836112a5565b9150610fcf8261170c565b604082019050919050565b6000610fe76032836112a5565b9150610ff28261175b565b604082019050919050565b600061100a6014836112a5565b9150611015826117aa565b602082019050919050565b6110298161141b565b82525050565b60006020820190506110446000830184610df5565b92915050565b600060208201905061105f6000830184610de6565b92915050565b600060208201905061107a6000830184610e04565b92915050565b6000604082019050818103600083015261109981610e13565b90506110a86020830184610df5565b92915050565b600060408201905081810360008301526110c781610e36565b90506110d66020830184610df5565b92915050565b600060208201905081810360008301526110f581610e59565b9050919050565b6000602082019050818103600083015261111581610e7c565b9050919050565b6000602082019050818103600083015261113581610e9f565b9050919050565b6000602082019050818103600083015261115581610ec2565b9050919050565b6000604082019050818103600083015261117581610ee5565b90506111846020830184610df5565b92915050565b600060208201905081810360008301526111a381610f08565b9050919050565b600060208201905081810360008301526111c381610f2b565b9050919050565b600060208201905081810360008301526111e381610f4e565b9050919050565b6000602082019050818103600083015261120381610f71565b9050919050565b6000602082019050818103600083015261122381610f94565b9050919050565b6000602082019050818103600083015261124381610fb7565b9050919050565b6000602082019050818103600083015261126381610fda565b9050919050565b6000602082019050818103600083015261128381610ffd565b9050919050565b600060208201905061129f6000830184611020565b92915050565b600082825260208201905092915050565b60006112c18261141b565b91506112cc8361141b565b9250827fffffffffffffffffffffffffffffffffffffffffffffffffffffffffffffffff0382111561130157611300611425565b5b828201905092915050565b60006113178261141b565b91506113228361141b565b92508261133257611331611454565b5b828204905092915050565b60006113488261141b565b91506113538361141b565b9250817fffffffffffffffffffffffffffffffffffffffffffffffffffffffffffffffff048311821515161561138c5761138b611425565b5b828202905092915050565b60006113a28261141b565b91506113ad8361141b565b9250828210156113c0576113bf611425565b5b828203905092915050565b60006113d6826113fb565b9050919050565b60006113e8826113fb565b9050919050565b60008115159050919050565b600073ffffffffffffffffffffffffffffffffffffffff82169050919050565b6000819050919050565b7f4e487b7100000000000000000000000000000000000000000000000000000000600052601160045260246000fd5b7f4e487b7100000000000000000000000000000000000000000000000000000000600052601260045260246000fd5b600080fd5b7f4d6f6e6579207769746864726177656e20746f00000000000000000000000000600082015250565b7f456469746f72207570646174656420746f000000000000000000000000000000600082015250565b7f4f6e6c7920616c6c6f7765642067617465732063616e2061636365737320746860008201527f6973206d6574686f640000000000000000000000000000000000000000000000602082015250565b7f596f7520646f6e2774206861766520616e79206d6f6e657920696e2068657265600082015250565b7f4d696e696d756d20312045746865722052657175697265640000000000000000600082015250565b7f596f7520646f6e27742068617665206e6f2070656e64696e672077697468647260008201527f61776c7300000000000000000000000000000000000000000000000000000000602082015250565b7f7374616b65640000000000000000000000000000000000000000000000000000600082015250565b7f537562737472616374696f6e206661696c640000000000000000000000000000600082015250565b7f4164646974696f6e206661696c65640000000000000000000000000000000000600082015250565b7f596f752073686f756c642061746c65617374207374616b6520666f722061206d60008201527f6f6e747900000000000000000000000000000000000000000000000000000000602082015250565b7f4f6e6c7920696e697469616c2075706c6f616465722063616e2061636365737360008201527f2074686973206d6574686f640000000000000000000000000000000000000000602082015250565b7f4469766973696f6e206661696c64000000000000000000000000000000000000600082015250565b7f446f65736e2774206861766520656e6f7567682062616c616e636520696e207460008201527f68652062616e6b00000000000000000000000000000000000000000000000000602082015250565b7f536f72727920776520646f6e2774206861766520656e6f756768206d6f6e657960008201527f20736f20636f6d656261636b206c617465720000000000000000000000000000602082015250565b7f4d756c7469706c69636174696f6e206661696c64000000000000000000000000600082015250565b6117dc816113cb565b81146117e757600080fd5b50565b6117f38161141b565b81146117fe57600080fd5b5056fea2646970667358221220dd3e43f550916b6142198e449cecee53dad249f08ea6024e4684b4e3a4dcb5ec64736f6c63430008070033",
					"opcodes": "PUSH1 0x80 PUSH1 0x40 MSTORE PUSH8 0xDE0B6B3A7640000 PUSH1 0x0 SSTORE CALLVALUE DUP1 ISZERO PUSH3 0x1D JUMPI PUSH1 0x0 DUP1 REVERT JUMPDEST POP CALLER PUSH1 0x1 PUSH1 0x0 PUSH2 0x100 EXP DUP2 SLOAD DUP2 PUSH20 0xFFFFFFFFFFFFFFFFFFFFFFFFFFFFFFFFFFFFFFFF MUL NOT AND SWAP1 DUP4 PUSH20 0xFFFFFFFFFFFFFFFFFFFFFFFFFFFFFFFFFFFFFFFF AND MUL OR SWAP1 SSTORE POP PUSH32 0xF67E7992D539193FC243C42FE89F8FAB49013E8E4FB18CFA891DC51ADCACCC80 CALLER PUSH1 0x40 MLOAD PUSH3 0x90 SWAP2 SWAP1 PUSH3 0xD6 JUMP JUMPDEST PUSH1 0x40 MLOAD DUP1 SWAP2 SUB SWAP1 LOG1 PUSH3 0x176 JUMP JUMPDEST PUSH3 0xA9 DUP2 PUSH3 0x119 JUMP JUMPDEST DUP3 MSTORE POP POP JUMP JUMPDEST PUSH1 0x0 PUSH3 0xBE PUSH1 0x14 DUP4 PUSH3 0x108 JUMP JUMPDEST SWAP2 POP PUSH3 0xCB DUP3 PUSH3 0x14D JUMP JUMPDEST PUSH1 0x20 DUP3 ADD SWAP1 POP SWAP2 SWAP1 POP JUMP JUMPDEST PUSH1 0x0 PUSH1 0x40 DUP3 ADD SWAP1 POP DUP2 DUP2 SUB PUSH1 0x0 DUP4 ADD MSTORE PUSH3 0xF1 DUP2 PUSH3 0xAF JUMP JUMPDEST SWAP1 POP PUSH3 0x102 PUSH1 0x20 DUP4 ADD DUP5 PUSH3 0x9E JUMP JUMPDEST SWAP3 SWAP2 POP POP JUMP JUMPDEST PUSH1 0x0 DUP3 DUP3 MSTORE PUSH1 0x20 DUP3 ADD SWAP1 POP SWAP3 SWAP2 POP POP JUMP JUMPDEST PUSH1 0x0 PUSH3 0x126 DUP3 PUSH3 0x12D JUMP JUMPDEST SWAP1 POP SWAP2 SWAP1 POP JUMP JUMPDEST PUSH1 0x0 PUSH20 0xFFFFFFFFFFFFFFFFFFFFFFFFFFFFFFFFFFFFFFFF DUP3 AND SWAP1 POP SWAP2 SWAP1 POP JUMP JUMPDEST PUSH32 0x4C656E64696E6720706F6F6C2063726561746564000000000000000000000000 PUSH1 0x0 DUP3 ADD MSTORE POP JUMP JUMPDEST PUSH2 0x1837 DUP1 PUSH3 0x186 PUSH1 0x0 CODECOPY PUSH1 0x0 RETURN INVALID PUSH1 0x80 PUSH1 0x40 MSTORE PUSH1 0x4 CALLDATASIZE LT PUSH2 0xAB JUMPI PUSH1 0x0 CALLDATALOAD PUSH1 0xE0 SHR DUP1 PUSH4 0x8DA5CB5B GT PUSH2 0x64 JUMPI DUP1 PUSH4 0x8DA5CB5B EQ PUSH2 0x18F JUMPI DUP1 PUSH4 0xA464D265 EQ PUSH2 0x1BA JUMPI DUP1 PUSH4 0xAEAE177C EQ PUSH2 0x1E5 JUMPI DUP1 PUSH4 0xC02B2092 EQ PUSH2 0x222 JUMPI DUP1 PUSH4 0xD0E30DB0 EQ PUSH2 0x25F JUMPI DUP1 PUSH4 0xF9931855 EQ PUSH2 0x269 JUMPI PUSH2 0xB2 JUMP JUMPDEST DUP1 PUSH4 0x166D7B48 EQ PUSH2 0xB4 JUMPI DUP1 PUSH4 0x3607999B EQ PUSH2 0xDD JUMPI DUP1 PUSH4 0x56852391 EQ PUSH2 0xF9 JUMPI DUP1 PUSH4 0x650FAD76 EQ PUSH2 0x110 JUMPI DUP1 PUSH4 0x6E0E0DA2 EQ PUSH2 0x13B JUMPI DUP1 PUSH4 0x6E1DC66E EQ PUSH2 0x152 JUMPI PUSH2 0xB2 JUMP JUMPDEST CALLDATASIZE PUSH2 0xB2 JUMPI STOP JUMPDEST STOP JUMPDEST CALLVALUE DUP1 ISZERO PUSH2 0xC0 JUMPI PUSH1 0x0 DUP1 REVERT JUMPDEST POP PUSH2 0xDB PUSH1 0x4 DUP1 CALLDATASIZE SUB DUP2 ADD SWAP1 PUSH2 0xD6 SWAP2 SWAP1 PUSH2 0xD79 JUMP JUMPDEST PUSH2 0x2A6 JUMP JUMPDEST STOP JUMPDEST PUSH2 0xF7 PUSH1 0x4 DUP1 CALLDATASIZE SUB DUP2 ADD SWAP1 PUSH2 0xF2 SWAP2 SWAP1 PUSH2 0xDA6 JUMP JUMPDEST PUSH2 0x3B1 JUMP JUMPDEST STOP JUMPDEST CALLVALUE DUP1 ISZERO PUSH2 0x105 JUMPI PUSH1 0x0 DUP1 REVERT JUMPDEST POP PUSH2 0x10E PUSH2 0x56D JUMP JUMPDEST STOP JUMPDEST CALLVALUE DUP1 ISZERO PUSH2 0x11C JUMPI PUSH1 0x0 DUP1 REVERT JUMPDEST POP PUSH2 0x125 PUSH2 0x6C2 JUMP JUMPDEST PUSH1 0x40 MLOAD PUSH2 0x132 SWAP2 SWAP1 PUSH2 0x128A JUMP JUMPDEST PUSH1 0x40 MLOAD DUP1 SWAP2 SUB SWAP1 RETURN JUMPDEST CALLVALUE DUP1 ISZERO PUSH2 0x147 JUMPI PUSH1 0x0 DUP1 REVERT JUMPDEST POP PUSH2 0x150 PUSH2 0x6C8 JUMP JUMPDEST STOP JUMPDEST CALLVALUE DUP1 ISZERO PUSH2 0x15E JUMPI PUSH1 0x0 DUP1 REVERT JUMPDEST POP PUSH2 0x179 PUSH1 0x4 DUP1 CALLDATASIZE SUB DUP2 ADD SWAP1 PUSH2 0x174 SWAP2 SWAP1 PUSH2 0xD79 JUMP JUMPDEST PUSH2 0x9B1 JUMP JUMPDEST PUSH1 0x40 MLOAD PUSH2 0x186 SWAP2 SWAP1 PUSH2 0x128A JUMP JUMPDEST PUSH1 0x40 MLOAD DUP1 SWAP2 SUB SWAP1 RETURN JUMPDEST CALLVALUE DUP1 ISZERO PUSH2 0x19B JUMPI PUSH1 0x0 DUP1 REVERT JUMPDEST POP PUSH2 0x1A4 PUSH2 0x9C9 JUMP JUMPDEST PUSH1 0x40 MLOAD PUSH2 0x1B1 SWAP2 SWAP1 PUSH2 0x104A JUMP JUMPDEST PUSH1 0x40 MLOAD DUP1 SWAP2 SUB SWAP1 RETURN JUMPDEST CALLVALUE DUP1 ISZERO PUSH2 0x1C6 JUMPI PUSH1 0x0 DUP1 REVERT JUMPDEST POP PUSH2 0x1CF PUSH2 0x9EF JUMP JUMPDEST PUSH1 0x40 MLOAD PUSH2 0x1DC SWAP2 SWAP1 PUSH2 0x102F JUMP JUMPDEST PUSH1 0x40 MLOAD DUP1 SWAP2 SUB SWAP1 RETURN JUMPDEST CALLVALUE DUP1 ISZERO PUSH2 0x1F1 JUMPI PUSH1 0x0 DUP1 REVERT JUMPDEST POP PUSH2 0x20C PUSH1 0x4 DUP1 CALLDATASIZE SUB DUP2 ADD SWAP1 PUSH2 0x207 SWAP2 SWAP1 PUSH2 0xD79 JUMP JUMPDEST PUSH2 0xA15 JUMP JUMPDEST PUSH1 0x40 MLOAD PUSH2 0x219 SWAP2 SWAP1 PUSH2 0x128A JUMP JUMPDEST PUSH1 0x40 MLOAD DUP1 SWAP2 SUB SWAP1 RETURN JUMPDEST CALLVALUE DUP1 ISZERO PUSH2 0x22E JUMPI PUSH1 0x0 DUP1 REVERT JUMPDEST POP PUSH2 0x249 PUSH1 0x4 DUP1 CALLDATASIZE SUB DUP2 ADD SWAP1 PUSH2 0x244 SWAP2 SWAP1 PUSH2 0xD79 JUMP JUMPDEST PUSH2 0xA2D JUMP JUMPDEST PUSH1 0x40 MLOAD PUSH2 0x256 SWAP2 SWAP1 PUSH2 0x1065 JUMP JUMPDEST PUSH1 0x40 MLOAD DUP1 SWAP2 SUB SWAP1 RETURN JUMPDEST PUSH2 0x267 PUSH2 0xA4D JUMP JUMPDEST STOP JUMPDEST CALLVALUE DUP1 ISZERO PUSH2 0x275 JUMPI PUSH1 0x0 DUP1 REVERT JUMPDEST POP PUSH2 0x290 PUSH1 0x4 DUP1 CALLDATASIZE SUB DUP2 ADD SWAP1 PUSH2 0x28B SWAP2 SWAP1 PUSH2 0xD79 JUMP JUMPDEST PUSH2 0xBBF JUMP JUMPDEST PUSH1 0x40 MLOAD PUSH2 0x29D SWAP2 SWAP1 PUSH2 0x128A JUMP JUMPDEST PUSH1 0x40 MLOAD DUP1 SWAP2 SUB SWAP1 RETURN JUMPDEST PUSH1 0x1 PUSH1 0x0 SWAP1 SLOAD SWAP1 PUSH2 0x100 EXP SWAP1 DIV PUSH20 0xFFFFFFFFFFFFFFFFFFFFFFFFFFFFFFFFFFFFFFFF AND PUSH20 0xFFFFFFFFFFFFFFFFFFFFFFFFFFFFFFFFFFFFFFFF AND CALLER PUSH20 0xFFFFFFFFFFFFFFFFFFFFFFFFFFFFFFFFFFFFFFFF AND EQ PUSH2 0x336 JUMPI PUSH1 0x40 MLOAD PUSH32 0x8C379A000000000000000000000000000000000000000000000000000000000 DUP2 MSTORE PUSH1 0x4 ADD PUSH2 0x32D SWAP1 PUSH2 0x11EA JUMP JUMPDEST PUSH1 0x40 MLOAD DUP1 SWAP2 SUB SWAP1 REVERT JUMPDEST DUP1 PUSH1 0x3 PUSH1 0x0 PUSH2 0x100 EXP DUP2 SLOAD DUP2 PUSH20 0xFFFFFFFFFFFFFFFFFFFFFFFFFFFFFFFFFFFFFFFF MUL NOT AND SWAP1 DUP4 PUSH20 0xFFFFFFFFFFFFFFFFFFFFFFFFFFFFFFFFFFFFFFFF AND MUL OR SWAP1 SSTORE POP PUSH32 0xF67E7992D539193FC243C42FE89F8FAB49013E8E4FB18CFA891DC51ADCACCC80 DUP2 PUSH1 0x40 MLOAD PUSH2 0x3A6 SWAP2 SWAP1 PUSH2 0x10AE JUMP JUMPDEST PUSH1 0x40 MLOAD DUP1 SWAP2 SUB SWAP1 LOG1 POP JUMP JUMPDEST PUSH1 0x8 PUSH1 0x0 CALLER PUSH20 0xFFFFFFFFFFFFFFFFFFFFFFFFFFFFFFFFFFFFFFFF AND PUSH20 0xFFFFFFFFFFFFFFFFFFFFFFFFFFFFFFFFFFFFFFFF AND DUP2 MSTORE PUSH1 0x20 ADD SWAP1 DUP2 MSTORE PUSH1 0x20 ADD PUSH1 0x0 KECCAK256 PUSH1 0x0 SWAP1 SLOAD SWAP1 PUSH2 0x100 EXP SWAP1 DIV PUSH1 0xFF AND PUSH2 0x43D JUMPI PUSH1 0x40 MLOAD PUSH32 0x8C379A000000000000000000000000000000000000000000000000000000000 DUP2 MSTORE PUSH1 0x4 ADD PUSH2 0x434 SWAP1 PUSH2 0x10DC JUMP JUMPDEST PUSH1 0x40 MLOAD DUP1 SWAP2 SUB SWAP1 REVERT JUMPDEST PUSH1 0x2 SLOAD DUP3 GT ISZERO PUSH2 0x482 JUMPI PUSH1 0x40 MLOAD PUSH32 0x8C379A000000000000000000000000000000000000000000000000000000000 DUP2 MSTORE PUSH1 0x4 ADD PUSH2 0x479 SWAP1 PUSH2 0x122A JUMP JUMPDEST PUSH1 0x40 MLOAD DUP1 SWAP2 SUB SWAP1 REVERT JUMPDEST PUSH2 0x497 DUP3 PUSH1 0x2 SLOAD PUSH2 0xBD7 SWAP1 SWAP2 SWAP1 PUSH4 0xFFFFFFFF AND JUMP JUMPDEST PUSH1 0x2 DUP2 SWAP1 SSTORE POP PUSH2 0x4EF DUP3 PUSH1 0x7 PUSH1 0x0 DUP5 PUSH20 0xFFFFFFFFFFFFFFFFFFFFFFFFFFFFFFFFFFFFFFFF AND PUSH20 0xFFFFFFFFFFFFFFFFFFFFFFFFFFFFFFFFFFFFFFFF AND DUP2 MSTORE PUSH1 0x20 ADD SWAP1 DUP2 MSTORE PUSH1 0x20 ADD PUSH1 0x0 KECCAK256 SLOAD PUSH2 0xC30 SWAP1 SWAP2 SWAP1 PUSH4 0xFFFFFFFF AND JUMP JUMPDEST PUSH1 0x7 PUSH1 0x0 DUP4 PUSH20 0xFFFFFFFFFFFFFFFFFFFFFFFFFFFFFFFFFFFFFFFF AND PUSH20 0xFFFFFFFFFFFFFFFFFFFFFFFFFFFFFFFFFFFFFFFF AND DUP2 MSTORE PUSH1 0x20 ADD SWAP1 DUP2 MSTORE PUSH1 0x20 ADD PUSH1 0x0 KECCAK256 DUP2 SWAP1 SSTORE POP PUSH32 0xF67E7992D539193FC243C42FE89F8FAB49013E8E4FB18CFA891DC51ADCACCC80 DUP2 PUSH1 0x40 MLOAD PUSH2 0x561 SWAP2 SWAP1 PUSH2 0x1080 JUMP JUMPDEST PUSH1 0x40 MLOAD DUP1 SWAP2 SUB SWAP1 LOG1 POP POP JUMP JUMPDEST PUSH1 0x0 PUSH1 0x7 PUSH1 0x0 CALLER PUSH20 0xFFFFFFFFFFFFFFFFFFFFFFFFFFFFFFFFFFFFFFFF AND PUSH20 0xFFFFFFFFFFFFFFFFFFFFFFFFFFFFFFFFFFFFFFFF AND DUP2 MSTORE PUSH1 0x20 ADD SWAP1 DUP2 MSTORE PUSH1 0x20 ADD PUSH1 0x0 KECCAK256 SLOAD GT PUSH2 0x5EF JUMPI PUSH1 0x40 MLOAD PUSH32 0x8C379A000000000000000000000000000000000000000000000000000000000 DUP2 MSTORE PUSH1 0x4 ADD PUSH2 0x5E6 SWAP1 PUSH2 0x113C JUMP JUMPDEST PUSH1 0x40 MLOAD DUP1 SWAP2 SUB SWAP1 REVERT JUMPDEST PUSH1 0x0 PUSH1 0x7 PUSH1 0x0 CALLER PUSH20 0xFFFFFFFFFFFFFFFFFFFFFFFFFFFFFFFFFFFFFFFF AND PUSH20 0xFFFFFFFFFFFFFFFFFFFFFFFFFFFFFFFFFFFFFFFF AND DUP2 MSTORE PUSH1 0x20 ADD SWAP1 DUP2 MSTORE PUSH1 0x20 ADD PUSH1 0x0 KECCAK256 SLOAD SWAP1 POP PUSH1 0x0 PUSH1 0x7 PUSH1 0x0 CALLER PUSH20 0xFFFFFFFFFFFFFFFFFFFFFFFFFFFFFFFFFFFFFFFF AND PUSH20 0xFFFFFFFFFFFFFFFFFFFFFFFFFFFFFFFFFFFFFFFF AND DUP2 MSTORE PUSH1 0x20 ADD SWAP1 DUP2 MSTORE PUSH1 0x20 ADD PUSH1 0x0 KECCAK256 DUP2 SWAP1 SSTORE POP CALLER PUSH20 0xFFFFFFFFFFFFFFFFFFFFFFFFFFFFFFFFFFFFFFFF AND PUSH2 0x8FC DUP3 SWAP1 DUP2 ISZERO MUL SWAP1 PUSH1 0x40 MLOAD PUSH1 0x0 PUSH1 0x40 MLOAD DUP1 DUP4 SUB DUP2 DUP6 DUP9 DUP9 CALL SWAP4 POP POP POP POP ISZERO DUP1 ISZERO PUSH2 0x6BE JUMPI RETURNDATASIZE PUSH1 0x0 DUP1 RETURNDATACOPY RETURNDATASIZE PUSH1 0x0 REVERT JUMPDEST POP POP JUMP JUMPDEST PUSH1 0x0 SLOAD DUP2 JUMP JUMPDEST PUSH1 0x0 PUSH1 0x6 PUSH1 0x0 CALLER PUSH20 0xFFFFFFFFFFFFFFFFFFFFFFFFFFFFFFFFFFFFFFFF AND PUSH20 0xFFFFFFFFFFFFFFFFFFFFFFFFFFFFFFFFFFFFFFFF AND DUP2 MSTORE PUSH1 0x20 ADD SWAP1 DUP2 MSTORE PUSH1 0x20 ADD PUSH1 0x0 KECCAK256 SLOAD GT PUSH2 0x74A JUMPI PUSH1 0x40 MLOAD PUSH32 0x8C379A000000000000000000000000000000000000000000000000000000000 DUP2 MSTORE PUSH1 0x4 ADD PUSH2 0x741 SWAP1 PUSH2 0x10FC JUMP JUMPDEST PUSH1 0x40 MLOAD DUP1 SWAP2 SUB SWAP1 REVERT JUMPDEST PUSH1 0x0 PUSH2 0x7AC PUSH3 0x15180 TIMESTAMP PUSH1 0x5 PUSH1 0x0 CALLER PUSH20 0xFFFFFFFFFFFFFFFFFFFFFFFFFFFFFFFFFFFFFFFF AND PUSH20 0xFFFFFFFFFFFFFFFFFFFFFFFFFFFFFFFFFFFFFFFF AND DUP2 MSTORE PUSH1 0x20 ADD SWAP1 DUP2 MSTORE PUSH1 0x20 ADD PUSH1 0x0 KECCAK256 SLOAD PUSH2 0x79E SWAP2 SWAP1 PUSH2 0x1397 JUMP JUMPDEST PUSH2 0xC89 SWAP1 SWAP2 SWAP1 PUSH4 0xFFFFFFFF AND JUMP JUMPDEST SWAP1 POP PUSH3 0x278D00 DUP2 GT PUSH2 0x7F3 JUMPI PUSH1 0x40 MLOAD PUSH32 0x8C379A000000000000000000000000000000000000000000000000000000000 DUP2 MSTORE PUSH1 0x4 ADD PUSH2 0x7EA SWAP1 PUSH2 0x11CA JUMP JUMPDEST PUSH1 0x40 MLOAD DUP1 SWAP2 SUB SWAP1 REVERT JUMPDEST PUSH1 0x0 PUSH2 0x86D PUSH1 0x64 PUSH2 0x85F PUSH1 0x6 PUSH1 0x0 CALLER PUSH20 0xFFFFFFFFFFFFFFFFFFFFFFFFFFFFFFFFFFFFFFFF AND PUSH20 0xFFFFFFFFFFFFFFFFFFFFFFFFFFFFFFFFFFFFFFFF AND DUP2 MSTORE PUSH1 0x20 ADD SWAP1 DUP2 MSTORE PUSH1 0x20 ADD PUSH1 0x0 KECCAK256 SLOAD PUSH2 0x851 PUSH1 0x5 DUP8 PUSH2 0xCE1 SWAP1 SWAP2 SWAP1 PUSH4 0xFFFFFFFF AND JUMP JUMPDEST PUSH2 0xCE1 SWAP1 SWAP2 SWAP1 PUSH4 0xFFFFFFFF AND JUMP JUMPDEST PUSH2 0xC89 SWAP1 SWAP2 SWAP1 PUSH4 0xFFFFFFFF AND JUMP JUMPDEST PUSH1 0x6 PUSH1 0x0 CALLER PUSH20 0xFFFFFFFFFFFFFFFFFFFFFFFFFFFFFFFFFFFFFFFF AND PUSH20 0xFFFFFFFFFFFFFFFFFFFFFFFFFFFFFFFFFFFFFFFF AND DUP2 MSTORE PUSH1 0x20 ADD SWAP1 DUP2 MSTORE PUSH1 0x20 ADD PUSH1 0x0 KECCAK256 SLOAD PUSH2 0x8B7 SWAP2 SWAP1 PUSH2 0x12B6 JUMP JUMPDEST SWAP1 POP PUSH1 0x2 SLOAD DUP2 LT PUSH2 0x8FD JUMPI PUSH1 0x40 MLOAD PUSH32 0x8C379A000000000000000000000000000000000000000000000000000000000 DUP2 MSTORE PUSH1 0x4 ADD PUSH2 0x8F4 SWAP1 PUSH2 0x124A JUMP JUMPDEST PUSH1 0x40 MLOAD DUP1 SWAP2 SUB SWAP1 REVERT JUMPDEST PUSH2 0x912 DUP2 PUSH1 0x2 SLOAD PUSH2 0xBD7 SWAP1 SWAP2 SWAP1 PUSH4 0xFFFFFFFF AND JUMP JUMPDEST PUSH1 0x2 DUP2 SWAP1 SSTORE POP PUSH2 0x96A DUP2 PUSH1 0x7 PUSH1 0x0 CALLER PUSH20 0xFFFFFFFFFFFFFFFFFFFFFFFFFFFFFFFFFFFFFFFF AND PUSH20 0xFFFFFFFFFFFFFFFFFFFFFFFFFFFFFFFFFFFFFFFF AND DUP2 MSTORE PUSH1 0x20 ADD SWAP1 DUP2 MSTORE PUSH1 0x20 ADD PUSH1 0x0 KECCAK256 SLOAD PUSH2 0xC30 SWAP1 SWAP2 SWAP1 PUSH4 0xFFFFFFFF AND JUMP JUMPDEST PUSH1 0x7 PUSH1 0x0 CALLER PUSH20 0xFFFFFFFFFFFFFFFFFFFFFFFFFFFFFFFFFFFFFFFF AND PUSH20 0xFFFFFFFFFFFFFFFFFFFFFFFFFFFFFFFFFFFFFFFF AND DUP2 MSTORE PUSH1 0x20 ADD SWAP1 DUP2 MSTORE PUSH1 0x20 ADD PUSH1 0x0 KECCAK256 DUP2 SWAP1 SSTORE POP POP POP JUMP JUMPDEST PUSH1 0x5 PUSH1 0x20 MSTORE DUP1 PUSH1 0x0 MSTORE PUSH1 0x40 PUSH1 0x0 KECCAK256 PUSH1 0x0 SWAP2 POP SWAP1 POP SLOAD DUP2 JUMP JUMPDEST PUSH1 0x1 PUSH1 0x0 SWAP1 SLOAD SWAP1 PUSH2 0x100 EXP SWAP1 DIV PUSH20 0xFFFFFFFFFFFFFFFFFFFFFFFFFFFFFFFFFFFFFFFF AND DUP2 JUMP JUMPDEST PUSH1 0x3 PUSH1 0x0 SWAP1 SLOAD SWAP1 PUSH2 0x100 EXP SWAP1 DIV PUSH20 0xFFFFFFFFFFFFFFFFFFFFFFFFFFFFFFFFFFFFFFFF AND DUP2 JUMP JUMPDEST PUSH1 0x7 PUSH1 0x20 MSTORE DUP1 PUSH1 0x0 MSTORE PUSH1 0x40 PUSH1 0x0 KECCAK256 PUSH1 0x0 SWAP2 POP SWAP1 POP SLOAD DUP2 JUMP JUMPDEST PUSH1 0x8 PUSH1 0x20 MSTORE DUP1 PUSH1 0x0 MSTORE PUSH1 0x40 PUSH1 0x0 KECCAK256 PUSH1 0x0 SWAP2 POP SLOAD SWAP1 PUSH2 0x100 EXP SWAP1 DIV PUSH1 0xFF AND DUP2 JUMP JUMPDEST PUSH1 0x0 SLOAD CALLVALUE LT ISZERO PUSH2 0xA92 JUMPI PUSH1 0x40 MLOAD PUSH32 0x8C379A000000000000000000000000000000000000000000000000000000000 DUP2 MSTORE PUSH1 0x4 ADD PUSH2 0xA89 SWAP1 PUSH2 0x111C JUMP JUMPDEST PUSH1 0x40 MLOAD DUP1 SWAP2 SUB SWAP1 REVERT JUMPDEST TIMESTAMP PUSH1 0x5 PUSH1 0x0 CALLER PUSH20 0xFFFFFFFFFFFFFFFFFFFFFFFFFFFFFFFFFFFFFFFF AND PUSH20 0xFFFFFFFFFFFFFFFFFFFFFFFFFFFFFFFFFFFFFFFF AND DUP2 MSTORE PUSH1 0x20 ADD SWAP1 DUP2 MSTORE PUSH1 0x20 ADD PUSH1 0x0 KECCAK256 DUP2 SWAP1 SSTORE POP PUSH2 0xB28 CALLVALUE PUSH1 0x6 PUSH1 0x0 CALLER PUSH20 0xFFFFFFFFFFFFFFFFFFFFFFFFFFFFFFFFFFFFFFFF AND PUSH20 0xFFFFFFFFFFFFFFFFFFFFFFFFFFFFFFFFFFFFFFFF AND DUP2 MSTORE PUSH1 0x20 ADD SWAP1 DUP2 MSTORE PUSH1 0x20 ADD PUSH1 0x0 KECCAK256 SLOAD PUSH2 0xC30 SWAP1 SWAP2 SWAP1 PUSH4 0xFFFFFFFF AND JUMP JUMPDEST PUSH1 0x6 PUSH1 0x0 CALLER PUSH20 0xFFFFFFFFFFFFFFFFFFFFFFFFFFFFFFFFFFFFFFFF AND PUSH20 0xFFFFFFFFFFFFFFFFFFFFFFFFFFFFFFFFFFFFFFFF AND DUP2 MSTORE PUSH1 0x20 ADD SWAP1 DUP2 MSTORE PUSH1 0x20 ADD PUSH1 0x0 KECCAK256 DUP2 SWAP1 SSTORE POP PUSH2 0xB80 CALLVALUE PUSH1 0x2 SLOAD PUSH2 0xC30 SWAP1 SWAP2 SWAP1 PUSH4 0xFFFFFFFF AND JUMP JUMPDEST PUSH1 0x2 DUP2 SWAP1 SSTORE POP PUSH32 0xF67E7992D539193FC243C42FE89F8FAB49013E8E4FB18CFA891DC51ADCACCC80 CALLER PUSH1 0x40 MLOAD PUSH2 0xBB5 SWAP2 SWAP1 PUSH2 0x115C JUMP JUMPDEST PUSH1 0x40 MLOAD DUP1 SWAP2 SUB SWAP1 LOG1 JUMP JUMPDEST PUSH1 0x6 PUSH1 0x20 MSTORE DUP1 PUSH1 0x0 MSTORE PUSH1 0x40 PUSH1 0x0 KECCAK256 PUSH1 0x0 SWAP2 POP SWAP1 POP SLOAD DUP2 JUMP JUMPDEST PUSH1 0x0 DUP3 DUP3 GT ISZERO PUSH2 0xC1C JUMPI PUSH1 0x40 MLOAD PUSH32 0x8C379A000000000000000000000000000000000000000000000000000000000 DUP2 MSTORE PUSH1 0x4 ADD PUSH2 0xC13 SWAP1 PUSH2 0x118A JUMP JUMPDEST PUSH1 0x40 MLOAD DUP1 SWAP2 SUB SWAP1 REVERT JUMPDEST DUP2 DUP4 PUSH2 0xC28 SWAP2 SWAP1 PUSH2 0x1397 JUMP JUMPDEST SWAP1 POP SWAP3 SWAP2 POP POP JUMP JUMPDEST PUSH1 0x0 DUP2 DUP4 PUSH2 0xC3E SWAP2 SWAP1 PUSH2 0x12B6 JUMP JUMPDEST SWAP1 POP DUP3 DUP2 LT ISZERO PUSH2 0xC83 JUMPI PUSH1 0x40 MLOAD PUSH32 0x8C379A000000000000000000000000000000000000000000000000000000000 DUP2 MSTORE PUSH1 0x4 ADD PUSH2 0xC7A SWAP1 PUSH2 0x11AA JUMP JUMPDEST PUSH1 0x40 MLOAD DUP1 SWAP2 SUB SWAP1 REVERT JUMPDEST SWAP3 SWAP2 POP POP JUMP JUMPDEST PUSH1 0x0 DUP1 DUP3 GT PUSH2 0xCCD JUMPI PUSH1 0x40 MLOAD PUSH32 0x8C379A000000000000000000000000000000000000000000000000000000000 DUP2 MSTORE PUSH1 0x4 ADD PUSH2 0xCC4 SWAP1 PUSH2 0x120A JUMP JUMPDEST PUSH1 0x40 MLOAD DUP1 SWAP2 SUB SWAP1 REVERT JUMPDEST DUP2 DUP4 PUSH2 0xCD9 SWAP2 SWAP1 PUSH2 0x130C JUMP JUMPDEST SWAP1 POP SWAP3 SWAP2 POP POP JUMP JUMPDEST PUSH1 0x0 DUP2 DUP4 PUSH2 0xCEF SWAP2 SWAP1 PUSH2 0x133D JUMP JUMPDEST SWAP1 POP PUSH1 0x0 DUP4 EQ DUP1 PUSH2 0xD0A JUMPI POP DUP2 DUP4 DUP3 PUSH2 0xD08 SWAP2 SWAP1 PUSH2 0x130C JUMP JUMPDEST EQ JUMPDEST PUSH2 0xD49 JUMPI PUSH1 0x40 MLOAD PUSH32 0x8C379A000000000000000000000000000000000000000000000000000000000 DUP2 MSTORE PUSH1 0x4 ADD PUSH2 0xD40 SWAP1 PUSH2 0x126A JUMP JUMPDEST PUSH1 0x40 MLOAD DUP1 SWAP2 SUB SWAP1 REVERT JUMPDEST SWAP3 SWAP2 POP POP JUMP JUMPDEST PUSH1 0x0 DUP2 CALLDATALOAD SWAP1 POP PUSH2 0xD5E DUP2 PUSH2 0x17D3 JUMP JUMPDEST SWAP3 SWAP2 POP POP JUMP JUMPDEST PUSH1 0x0 DUP2 CALLDATALOAD SWAP1 POP PUSH2 0xD73 DUP2 PUSH2 0x17EA JUMP JUMPDEST SWAP3 SWAP2 POP POP JUMP JUMPDEST PUSH1 0x0 PUSH1 0x20 DUP3 DUP5 SUB SLT ISZERO PUSH2 0xD8F JUMPI PUSH2 0xD8E PUSH2 0x1483 JUMP JUMPDEST JUMPDEST PUSH1 0x0 PUSH2 0xD9D DUP5 DUP3 DUP6 ADD PUSH2 0xD4F JUMP JUMPDEST SWAP2 POP POP SWAP3 SWAP2 POP POP JUMP JUMPDEST PUSH1 0x0 DUP1 PUSH1 0x40 DUP4 DUP6 SUB SLT ISZERO PUSH2 0xDBD JUMPI PUSH2 0xDBC PUSH2 0x1483 JUMP JUMPDEST JUMPDEST PUSH1 0x0 PUSH2 0xDCB DUP6 DUP3 DUP7 ADD PUSH2 0xD64 JUMP JUMPDEST SWAP3 POP POP PUSH1 0x20 PUSH2 0xDDC DUP6 DUP3 DUP7 ADD PUSH2 0xD4F JUMP JUMPDEST SWAP2 POP POP SWAP3 POP SWAP3 SWAP1 POP JUMP JUMPDEST PUSH2 0xDEF DUP2 PUSH2 0x13DD JUMP JUMPDEST DUP3 MSTORE POP POP JUMP JUMPDEST PUSH2 0xDFE DUP2 PUSH2 0x13CB JUMP JUMPDEST DUP3 MSTORE POP POP JUMP JUMPDEST PUSH2 0xE0D DUP2 PUSH2 0x13EF JUMP JUMPDEST DUP3 MSTORE POP POP JUMP JUMPDEST PUSH1 0x0 PUSH2 0xE20 PUSH1 0x13 DUP4 PUSH2 0x12A5 JUMP JUMPDEST SWAP2 POP PUSH2 0xE2B DUP3 PUSH2 0x1488 JUMP JUMPDEST PUSH1 0x20 DUP3 ADD SWAP1 POP SWAP2 SWAP1 POP JUMP JUMPDEST PUSH1 0x0 PUSH2 0xE43 PUSH1 0x11 DUP4 PUSH2 0x12A5 JUMP JUMPDEST SWAP2 POP PUSH2 0xE4E DUP3 PUSH2 0x14B1 JUMP JUMPDEST PUSH1 0x20 DUP3 ADD SWAP1 POP SWAP2 SWAP1 POP JUMP JUMPDEST PUSH1 0x0 PUSH2 0xE66 PUSH1 0x29 DUP4 PUSH2 0x12A5 JUMP JUMPDEST SWAP2 POP PUSH2 0xE71 DUP3 PUSH2 0x14DA JUMP JUMPDEST PUSH1 0x40 DUP3 ADD SWAP1 POP SWAP2 SWAP1 POP JUMP JUMPDEST PUSH1 0x0 PUSH2 0xE89 PUSH1 0x20 DUP4 PUSH2 0x12A5 JUMP JUMPDEST SWAP2 POP PUSH2 0xE94 DUP3 PUSH2 0x1529 JUMP JUMPDEST PUSH1 0x20 DUP3 ADD SWAP1 POP SWAP2 SWAP1 POP JUMP JUMPDEST PUSH1 0x0 PUSH2 0xEAC PUSH1 0x18 DUP4 PUSH2 0x12A5 JUMP JUMPDEST SWAP2 POP PUSH2 0xEB7 DUP3 PUSH2 0x1552 JUMP JUMPDEST PUSH1 0x20 DUP3 ADD SWAP1 POP SWAP2 SWAP1 POP JUMP JUMPDEST PUSH1 0x0 PUSH2 0xECF PUSH1 0x24 DUP4 PUSH2 0x12A5 JUMP JUMPDEST SWAP2 POP PUSH2 0xEDA DUP3 PUSH2 0x157B JUMP JUMPDEST PUSH1 0x40 DUP3 ADD SWAP1 POP SWAP2 SWAP1 POP JUMP JUMPDEST PUSH1 0x0 PUSH2 0xEF2 PUSH1 0x6 DUP4 PUSH2 0x12A5 JUMP JUMPDEST SWAP2 POP PUSH2 0xEFD DUP3 PUSH2 0x15CA JUMP JUMPDEST PUSH1 0x20 DUP3 ADD SWAP1 POP SWAP2 SWAP1 POP JUMP JUMPDEST PUSH1 0x0 PUSH2 0xF15 PUSH1 0x12 DUP4 PUSH2 0x12A5 JUMP JUMPDEST SWAP2 POP PUSH2 0xF20 DUP3 PUSH2 0x15F3 JUMP JUMPDEST PUSH1 0x20 DUP3 ADD SWAP1 POP SWAP2 SWAP1 POP JUMP JUMPDEST PUSH1 0x0 PUSH2 0xF38 PUSH1 0xF DUP4 PUSH2 0x12A5 JUMP JUMPDEST SWAP2 POP PUSH2 0xF43 DUP3 PUSH2 0x161C JUMP JUMPDEST PUSH1 0x20 DUP3 ADD SWAP1 POP SWAP2 SWAP1 POP JUMP JUMPDEST PUSH1 0x0 PUSH2 0xF5B PUSH1 0x24 DUP4 PUSH2 0x12A5 JUMP JUMPDEST SWAP2 POP PUSH2 0xF66 DUP3 PUSH2 0x1645 JUMP JUMPDEST PUSH1 0x40 DUP3 ADD SWAP1 POP SWAP2 SWAP1 POP JUMP JUMPDEST PUSH1 0x0 PUSH2 0xF7E PUSH1 0x2C DUP4 PUSH2 0x12A5 JUMP JUMPDEST SWAP2 POP PUSH2 0xF89 DUP3 PUSH2 0x1694 JUMP JUMPDEST PUSH1 0x40 DUP3 ADD SWAP1 POP SWAP2 SWAP1 POP JUMP JUMPDEST PUSH1 0x0 PUSH2 0xFA1 PUSH1 0xE DUP4 PUSH2 0x12A5 JUMP JUMPDEST SWAP2 POP PUSH2 0xFAC DUP3 PUSH2 0x16E3 JUMP JUMPDEST PUSH1 0x20 DUP3 ADD SWAP1 POP SWAP2 SWAP1 POP JUMP JUMPDEST PUSH1 0x0 PUSH2 0xFC4 PUSH1 0x27 DUP4 PUSH2 0x12A5 JUMP JUMPDEST SWAP2 POP PUSH2 0xFCF DUP3 PUSH2 0x170C JUMP JUMPDEST PUSH1 0x40 DUP3 ADD SWAP1 POP SWAP2 SWAP1 POP JUMP JUMPDEST PUSH1 0x0 PUSH2 0xFE7 PUSH1 0x32 DUP4 PUSH2 0x12A5 JUMP JUMPDEST SWAP2 POP PUSH2 0xFF2 DUP3 PUSH2 0x175B JUMP JUMPDEST PUSH1 0x40 DUP3 ADD SWAP1 POP SWAP2 SWAP1 POP JUMP JUMPDEST PUSH1 0x0 PUSH2 0x100A PUSH1 0x14 DUP4 PUSH2 0x12A5 JUMP JUMPDEST SWAP2 POP PUSH2 0x1015 DUP3 PUSH2 0x17AA JUMP JUMPDEST PUSH1 0x20 DUP3 ADD SWAP1 POP SWAP2 SWAP1 POP JUMP JUMPDEST PUSH2 0x1029 DUP2 PUSH2 0x141B JUMP JUMPDEST DUP3 MSTORE POP POP JUMP JUMPDEST PUSH1 0x0 PUSH1 0x20 DUP3 ADD SWAP1 POP PUSH2 0x1044 PUSH1 0x0 DUP4 ADD DUP5 PUSH2 0xDF5 JUMP JUMPDEST SWAP3 SWAP2 POP POP JUMP JUMPDEST PUSH1 0x0 PUSH1 0x20 DUP3 ADD SWAP1 POP PUSH2 0x105F PUSH1 0x0 DUP4 ADD DUP5 PUSH2 0xDE6 JUMP JUMPDEST SWAP3 SWAP2 POP POP JUMP JUMPDEST PUSH1 0x0 PUSH1 0x20 DUP3 ADD SWAP1 POP PUSH2 0x107A PUSH1 0x0 DUP4 ADD DUP5 PUSH2 0xE04 JUMP JUMPDEST SWAP3 SWAP2 POP POP JUMP JUMPDEST PUSH1 0x0 PUSH1 0x40 DUP3 ADD SWAP1 POP DUP2 DUP2 SUB PUSH1 0x0 DUP4 ADD MSTORE PUSH2 0x1099 DUP2 PUSH2 0xE13 JUMP JUMPDEST SWAP1 POP PUSH2 0x10A8 PUSH1 0x20 DUP4 ADD DUP5 PUSH2 0xDF5 JUMP JUMPDEST SWAP3 SWAP2 POP POP JUMP JUMPDEST PUSH1 0x0 PUSH1 0x40 DUP3 ADD SWAP1 POP DUP2 DUP2 SUB PUSH1 0x0 DUP4 ADD MSTORE PUSH2 0x10C7 DUP2 PUSH2 0xE36 JUMP JUMPDEST SWAP1 POP PUSH2 0x10D6 PUSH1 0x20 DUP4 ADD DUP5 PUSH2 0xDF5 JUMP JUMPDEST SWAP3 SWAP2 POP POP JUMP JUMPDEST PUSH1 0x0 PUSH1 0x20 DUP3 ADD SWAP1 POP DUP2 DUP2 SUB PUSH1 0x0 DUP4 ADD MSTORE PUSH2 0x10F5 DUP2 PUSH2 0xE59 JUMP JUMPDEST SWAP1 POP SWAP2 SWAP1 POP JUMP JUMPDEST PUSH1 0x0 PUSH1 0x20 DUP3 ADD SWAP1 POP DUP2 DUP2 SUB PUSH1 0x0 DUP4 ADD MSTORE PUSH2 0x1115 DUP2 PUSH2 0xE7C JUMP JUMPDEST SWAP1 POP SWAP2 SWAP1 POP JUMP JUMPDEST PUSH1 0x0 PUSH1 0x20 DUP3 ADD SWAP1 POP DUP2 DUP2 SUB PUSH1 0x0 DUP4 ADD MSTORE PUSH2 0x1135 DUP2 PUSH2 0xE9F JUMP JUMPDEST SWAP1 POP SWAP2 SWAP1 POP JUMP JUMPDEST PUSH1 0x0 PUSH1 0x20 DUP3 ADD SWAP1 POP DUP2 DUP2 SUB PUSH1 0x0 DUP4 ADD MSTORE PUSH2 0x1155 DUP2 PUSH2 0xEC2 JUMP JUMPDEST SWAP1 POP SWAP2 SWAP1 POP JUMP JUMPDEST PUSH1 0x0 PUSH1 0x40 DUP3 ADD SWAP1 POP DUP2 DUP2 SUB PUSH1 0x0 DUP4 ADD MSTORE PUSH2 0x1175 DUP2 PUSH2 0xEE5 JUMP JUMPDEST SWAP1 POP PUSH2 0x1184 PUSH1 0x20 DUP4 ADD DUP5 PUSH2 0xDF5 JUMP JUMPDEST SWAP3 SWAP2 POP POP JUMP JUMPDEST PUSH1 0x0 PUSH1 0x20 DUP3 ADD SWAP1 POP DUP2 DUP2 SUB PUSH1 0x0 DUP4 ADD MSTORE PUSH2 0x11A3 DUP2 PUSH2 0xF08 JUMP JUMPDEST SWAP1 POP SWAP2 SWAP1 POP JUMP JUMPDEST PUSH1 0x0 PUSH1 0x20 DUP3 ADD SWAP1 POP DUP2 DUP2 SUB PUSH1 0x0 DUP4 ADD MSTORE PUSH2 0x11C3 DUP2 PUSH2 0xF2B JUMP JUMPDEST SWAP1 POP SWAP2 SWAP1 POP JUMP JUMPDEST PUSH1 0x0 PUSH1 0x20 DUP3 ADD SWAP1 POP DUP2 DUP2 SUB PUSH1 0x0 DUP4 ADD MSTORE PUSH2 0x11E3 DUP2 PUSH2 0xF4E JUMP JUMPDEST SWAP1 POP SWAP2 SWAP1 POP JUMP JUMPDEST PUSH1 0x0 PUSH1 0x20 DUP3 ADD SWAP1 POP DUP2 DUP2 SUB PUSH1 0x0 DUP4 ADD MSTORE PUSH2 0x1203 DUP2 PUSH2 0xF71 JUMP JUMPDEST SWAP1 POP SWAP2 SWAP1 POP JUMP JUMPDEST PUSH1 0x0 PUSH1 0x20 DUP3 ADD SWAP1 POP DUP2 DUP2 SUB PUSH1 0x0 DUP4 ADD MSTORE PUSH2 0x1223 DUP2 PUSH2 0xF94 JUMP JUMPDEST SWAP1 POP SWAP2 SWAP1 POP JUMP JUMPDEST PUSH1 0x0 PUSH1 0x20 DUP3 ADD SWAP1 POP DUP2 DUP2 SUB PUSH1 0x0 DUP4 ADD MSTORE PUSH2 0x1243 DUP2 PUSH2 0xFB7 JUMP JUMPDEST SWAP1 POP SWAP2 SWAP1 POP JUMP JUMPDEST PUSH1 0x0 PUSH1 0x20 DUP3 ADD SWAP1 POP DUP2 DUP2 SUB PUSH1 0x0 DUP4 ADD MSTORE PUSH2 0x1263 DUP2 PUSH2 0xFDA JUMP JUMPDEST SWAP1 POP SWAP2 SWAP1 POP JUMP JUMPDEST PUSH1 0x0 PUSH1 0x20 DUP3 ADD SWAP1 POP DUP2 DUP2 SUB PUSH1 0x0 DUP4 ADD MSTORE PUSH2 0x1283 DUP2 PUSH2 0xFFD JUMP JUMPDEST SWAP1 POP SWAP2 SWAP1 POP JUMP JUMPDEST PUSH1 0x0 PUSH1 0x20 DUP3 ADD SWAP1 POP PUSH2 0x129F PUSH1 0x0 DUP4 ADD DUP5 PUSH2 0x1020 JUMP JUMPDEST SWAP3 SWAP2 POP POP JUMP JUMPDEST PUSH1 0x0 DUP3 DUP3 MSTORE PUSH1 0x20 DUP3 ADD SWAP1 POP SWAP3 SWAP2 POP POP JUMP JUMPDEST PUSH1 0x0 PUSH2 0x12C1 DUP3 PUSH2 0x141B JUMP JUMPDEST SWAP2 POP PUSH2 0x12CC DUP4 PUSH2 0x141B JUMP JUMPDEST SWAP3 POP DUP3 PUSH32 0xFFFFFFFFFFFFFFFFFFFFFFFFFFFFFFFFFFFFFFFFFFFFFFFFFFFFFFFFFFFFFFFF SUB DUP3 GT ISZERO PUSH2 0x1301 JUMPI PUSH2 0x1300 PUSH2 0x1425 JUMP JUMPDEST JUMPDEST DUP3 DUP3 ADD SWAP1 POP SWAP3 SWAP2 POP POP JUMP JUMPDEST PUSH1 0x0 PUSH2 0x1317 DUP3 PUSH2 0x141B JUMP JUMPDEST SWAP2 POP PUSH2 0x1322 DUP4 PUSH2 0x141B JUMP JUMPDEST SWAP3 POP DUP3 PUSH2 0x1332 JUMPI PUSH2 0x1331 PUSH2 0x1454 JUMP JUMPDEST JUMPDEST DUP3 DUP3 DIV SWAP1 POP SWAP3 SWAP2 POP POP JUMP JUMPDEST PUSH1 0x0 PUSH2 0x1348 DUP3 PUSH2 0x141B JUMP JUMPDEST SWAP2 POP PUSH2 0x1353 DUP4 PUSH2 0x141B JUMP JUMPDEST SWAP3 POP DUP2 PUSH32 0xFFFFFFFFFFFFFFFFFFFFFFFFFFFFFFFFFFFFFFFFFFFFFFFFFFFFFFFFFFFFFFFF DIV DUP4 GT DUP3 ISZERO ISZERO AND ISZERO PUSH2 0x138C JUMPI PUSH2 0x138B PUSH2 0x1425 JUMP JUMPDEST JUMPDEST DUP3 DUP3 MUL SWAP1 POP SWAP3 SWAP2 POP POP JUMP JUMPDEST PUSH1 0x0 PUSH2 0x13A2 DUP3 PUSH2 0x141B JUMP JUMPDEST SWAP2 POP PUSH2 0x13AD DUP4 PUSH2 0x141B JUMP JUMPDEST SWAP3 POP DUP3 DUP3 LT ISZERO PUSH2 0x13C0 JUMPI PUSH2 0x13BF PUSH2 0x1425 JUMP JUMPDEST JUMPDEST DUP3 DUP3 SUB SWAP1 POP SWAP3 SWAP2 POP POP JUMP JUMPDEST PUSH1 0x0 PUSH2 0x13D6 DUP3 PUSH2 0x13FB JUMP JUMPDEST SWAP1 POP SWAP2 SWAP1 POP JUMP JUMPDEST PUSH1 0x0 PUSH2 0x13E8 DUP3 PUSH2 0x13FB JUMP JUMPDEST SWAP1 POP SWAP2 SWAP1 POP JUMP JUMPDEST PUSH1 0x0 DUP2 ISZERO ISZERO SWAP1 POP SWAP2 SWAP1 POP JUMP JUMPDEST PUSH1 0x0 PUSH20 0xFFFFFFFFFFFFFFFFFFFFFFFFFFFFFFFFFFFFFFFF DUP3 AND SWAP1 POP SWAP2 SWAP1 POP JUMP JUMPDEST PUSH1 0x0 DUP2 SWAP1 POP SWAP2 SWAP1 POP JUMP JUMPDEST PUSH32 0x4E487B7100000000000000000000000000000000000000000000000000000000 PUSH1 0x0 MSTORE PUSH1 0x11 PUSH1 0x4 MSTORE PUSH1 0x24 PUSH1 0x0 REVERT JUMPDEST PUSH32 0x4E487B7100000000000000000000000000000000000000000000000000000000 PUSH1 0x0 MSTORE PUSH1 0x12 PUSH1 0x4 MSTORE PUSH1 0x24 PUSH1 0x0 REVERT JUMPDEST PUSH1 0x0 DUP1 REVERT JUMPDEST PUSH32 0x4D6F6E6579207769746864726177656E20746F00000000000000000000000000 PUSH1 0x0 DUP3 ADD MSTORE POP JUMP JUMPDEST PUSH32 0x456469746F72207570646174656420746F000000000000000000000000000000 PUSH1 0x0 DUP3 ADD MSTORE POP JUMP JUMPDEST PUSH32 0x4F6E6C7920616C6C6F7765642067617465732063616E20616363657373207468 PUSH1 0x0 DUP3 ADD MSTORE PUSH32 0x6973206D6574686F640000000000000000000000000000000000000000000000 PUSH1 0x20 DUP3 ADD MSTORE POP JUMP JUMPDEST PUSH32 0x596F7520646F6E2774206861766520616E79206D6F6E657920696E2068657265 PUSH1 0x0 DUP3 ADD MSTORE POP JUMP JUMPDEST PUSH32 0x4D696E696D756D20312045746865722052657175697265640000000000000000 PUSH1 0x0 DUP3 ADD MSTORE POP JUMP JUMPDEST PUSH32 0x596F7520646F6E27742068617665206E6F2070656E64696E6720776974686472 PUSH1 0x0 DUP3 ADD MSTORE PUSH32 0x61776C7300000000000000000000000000000000000000000000000000000000 PUSH1 0x20 DUP3 ADD MSTORE POP JUMP JUMPDEST PUSH32 0x7374616B65640000000000000000000000000000000000000000000000000000 PUSH1 0x0 DUP3 ADD MSTORE POP JUMP JUMPDEST PUSH32 0x537562737472616374696F6E206661696C640000000000000000000000000000 PUSH1 0x0 DUP3 ADD MSTORE POP JUMP JUMPDEST PUSH32 0x4164646974696F6E206661696C65640000000000000000000000000000000000 PUSH1 0x0 DUP3 ADD MSTORE POP JUMP JUMPDEST PUSH32 0x596F752073686F756C642061746C65617374207374616B6520666F722061206D PUSH1 0x0 DUP3 ADD MSTORE PUSH32 0x6F6E747900000000000000000000000000000000000000000000000000000000 PUSH1 0x20 DUP3 ADD MSTORE POP JUMP JUMPDEST PUSH32 0x4F6E6C7920696E697469616C2075706C6F616465722063616E20616363657373 PUSH1 0x0 DUP3 ADD MSTORE PUSH32 0x2074686973206D6574686F640000000000000000000000000000000000000000 PUSH1 0x20 DUP3 ADD MSTORE POP JUMP JUMPDEST PUSH32 0x4469766973696F6E206661696C64000000000000000000000000000000000000 PUSH1 0x0 DUP3 ADD MSTORE POP JUMP JUMPDEST PUSH32 0x446F65736E2774206861766520656E6F7567682062616C616E636520696E2074 PUSH1 0x0 DUP3 ADD MSTORE PUSH32 0x68652062616E6B00000000000000000000000000000000000000000000000000 PUSH1 0x20 DUP3 ADD MSTORE POP JUMP JUMPDEST PUSH32 0x536F72727920776520646F6E2774206861766520656E6F756768206D6F6E6579 PUSH1 0x0 DUP3 ADD MSTORE PUSH32 0x20736F20636F6D656261636B206C617465720000000000000000000000000000 PUSH1 0x20 DUP3 ADD MSTORE POP JUMP JUMPDEST PUSH32 0x4D756C7469706C69636174696F6E206661696C64000000000000000000000000 PUSH1 0x0 DUP3 ADD MSTORE POP JUMP JUMPDEST PUSH2 0x17DC DUP2 PUSH2 0x13CB JUMP JUMPDEST DUP2 EQ PUSH2 0x17E7 JUMPI PUSH1 0x0 DUP1 REVERT JUMPDEST POP JUMP JUMPDEST PUSH2 0x17F3 DUP2 PUSH2 0x141B JUMP JUMPDEST DUP2 EQ PUSH2 0x17FE JUMPI PUSH1 0x0 DUP1 REVERT JUMPDEST POP JUMP INVALID LOG2 PUSH5 0x6970667358 0x22 SLT KECCAK256 0xDD RETURNDATACOPY NUMBER CREATE2 POP SWAP2 PUSH12 0x6142198E449CECEE53DAD249 CREATE DUP15 0xA6 MUL 0x4E CHAINID DUP5 0xB4 0xE3 LOG4 0xDC 0xB5 0xEC PUSH5 0x736F6C6343 STOP ADDMOD SMOD STOP CALLER "
				},
				"gasEstimates": {
					"creation": {
						"codeDepositCost": "1239800",
						"executionCost": "49866",
						"totalCost": "1289666"
					},
					"external": {
						"": "218",
						"allowed_pools(address)": "2911",
						"deposit()": "infinite",
						"depositWithdraw()": "infinite",
						"editor()": "2536",
						"gateWithdrawl()": "infinite",
						"lendingWithdraw(uint256,address)": "infinite",
						"minimumAmt()": "2496",
						"owner()": "2514",
						"pendingPayment(address)": "2858",
						"stakedAmount(address)": "2924",
						"startTime(address)": "2925",
						"updateEditor(address)": "infinite"
					}
				},
				"methodIdentifiers": {
					"allowed_pools(address)": "c02b2092",
					"deposit()": "d0e30db0",
					"depositWithdraw()": "6e0e0da2",
					"editor()": "a464d265",
					"gateWithdrawl()": "56852391",
					"lendingWithdraw(uint256,address)": "3607999b",
					"minimumAmt()": "650fad76",
					"owner()": "8da5cb5b",
					"pendingPayment(address)": "aeae177c",
					"stakedAmount(address)": "f9931855",
					"startTime(address)": "6e1dc66e",
					"updateEditor(address)": "166d7b48"
				}
			},
			"userdoc": {
				"kind": "user",
				"methods": {
					"deposit()": {
						"notice": "lenders can deposit money to lending pool"
					},
					"depositWithdraw()": {
						"notice": "notice Stakers can use this function to take out thier money"
					}
				},
				"notice": "Lending pool for Swip3",
				"version": 1
			}
		}
	}
}