{
	"contracts/LendingPool.sol": {
		"LendingPool": {
			"abi": [
				{
					"inputs": [],
					"stateMutability": "nonpayable",
					"type": "constructor"
				},
				{
					"anonymous": false,
					"inputs": [
						{
							"indexed": false,
							"internalType": "string",
							"name": "message",
							"type": "string"
						},
						{
							"indexed": false,
							"internalType": "address",
							"name": "from",
							"type": "address"
						}
					],
					"name": "LendingPoolMessage",
					"type": "event"
				},
				{
					"stateMutability": "payable",
					"type": "fallback"
				},
				{
					"inputs": [],
					"name": "deposit",
					"outputs": [],
					"stateMutability": "payable",
					"type": "function"
				},
				{
					"inputs": [],
					"name": "depositWithdraw",
					"outputs": [],
					"stateMutability": "nonpayable",
					"type": "function"
				},
				{
					"inputs": [],
					"name": "gateWithdrawl",
					"outputs": [],
					"stateMutability": "nonpayable",
					"type": "function"
				},
				{
					"inputs": [
						{
							"internalType": "uint256",
							"name": "amount",
							"type": "uint256"
						},
						{
							"internalType": "address",
							"name": "to",
							"type": "address"
						}
					],
					"name": "lendingWithdraw",
					"outputs": [],
					"stateMutability": "payable",
					"type": "function"
				},
				{
					"inputs": [],
					"name": "minimumAmt",
					"outputs": [
						{
							"internalType": "uint256",
							"name": "",
							"type": "uint256"
						}
					],
					"stateMutability": "view",
					"type": "function"
				},
				{
					"inputs": [],
					"name": "owner",
					"outputs": [
						{
							"internalType": "address payable",
							"name": "",
							"type": "address"
						}
					],
					"stateMutability": "view",
					"type": "function"
				},
				{
					"inputs": [
						{
							"internalType": "address",
							"name": "",
							"type": "address"
						}
					],
					"name": "pendingPayment",
					"outputs": [
						{
							"internalType": "uint256",
							"name": "",
							"type": "uint256"
						}
					],
					"stateMutability": "view",
					"type": "function"
				},
				{
					"inputs": [
						{
							"internalType": "address",
							"name": "",
							"type": "address"
						}
					],
					"name": "stakedAmount",
					"outputs": [
						{
							"internalType": "uint256",
							"name": "",
							"type": "uint256"
						}
					],
					"stateMutability": "view",
					"type": "function"
				},
				{
					"inputs": [
						{
							"internalType": "address",
							"name": "",
							"type": "address"
						}
					],
					"name": "startTime",
					"outputs": [
						{
							"internalType": "uint256",
							"name": "",
							"type": "uint256"
						}
					],
					"stateMutability": "view",
					"type": "function"
				},
				{
					"stateMutability": "payable",
					"type": "receive"
				}
			],
			"devdoc": {
				"author": "Hileamlak Yitayew, Matt Tengtrakool",
				"details": "need help review ",
				"kind": "dev",
				"methods": {},
				"title": "LendingPool ",
				"version": 1
			},
			"evm": {
				"assembly": "    /* \"contracts/LendingPool.sol\":219:2829  contract LendingPool  {... */\n  mstore(0x40, 0x80)\n    /* \"contracts/LendingPool.sol\":309:316  1 ether */\n  0x0de0b6b3a7640000\n    /* \"contracts/LendingPool.sol\":281:316  uint256 public minimumAmt = 1 ether */\n  0x00\n  sstore\n    /* \"contracts/LendingPool.sol\":668:795  constructor() {... */\n  callvalue\n  dup1\n  iszero\n  tag_1\n  jumpi\n  0x00\n  dup1\n  revert\ntag_1:\n  pop\n    /* \"contracts/LendingPool.sol\":708:718  msg.sender */\n  caller\n    /* \"contracts/LendingPool.sol\":692:697  owner */\n  0x01\n  0x00\n    /* \"contracts/LendingPool.sol\":692:719  owner = payable(msg.sender) */\n  0x0100\n  exp\n  dup2\n  sload\n  dup2\n  0xffffffffffffffffffffffffffffffffffffffff\n  mul\n  not\n  and\n  swap1\n  dup4\n  0xffffffffffffffffffffffffffffffffffffffff\n  and\n  mul\n  or\n  swap1\n  sstore\n  pop\n    /* \"contracts/LendingPool.sol\":734:788  LendingPoolMessage(\"Lending pool created\", msg.sender) */\n  0xf67e7992d539193fc243c42fe89f8fab49013e8e4fb18cfa891dc51adcaccc80\n    /* \"contracts/LendingPool.sol\":777:787  msg.sender */\n  caller\n    /* \"contracts/LendingPool.sol\":734:788  LendingPoolMessage(\"Lending pool created\", msg.sender) */\n  mload(0x40)\n  tag_4\n  swap2\n  swap1\n  tag_5\n  jump\t// in\ntag_4:\n  mload(0x40)\n  dup1\n  swap2\n  sub\n  swap1\n  log1\n    /* \"contracts/LendingPool.sol\":219:2829  contract LendingPool  {... */\n  jump(tag_6)\n    /* \"#utility.yul\":7:125   */\ntag_8:\n    /* \"#utility.yul\":94:118   */\n  tag_10\n    /* \"#utility.yul\":112:117   */\n  dup2\n    /* \"#utility.yul\":94:118   */\n  tag_11\n  jump\t// in\ntag_10:\n    /* \"#utility.yul\":89:92   */\n  dup3\n    /* \"#utility.yul\":82:119   */\n  mstore\n    /* \"#utility.yul\":7:125   */\n  pop\n  pop\n  jump\t// out\n    /* \"#utility.yul\":131:497   */\ntag_12:\n    /* \"#utility.yul\":273:276   */\n  0x00\n    /* \"#utility.yul\":294:361   */\n  tag_14\n    /* \"#utility.yul\":358:360   */\n  0x14\n    /* \"#utility.yul\":353:356   */\n  dup4\n    /* \"#utility.yul\":294:361   */\n  tag_15\n  jump\t// in\ntag_14:\n    /* \"#utility.yul\":287:361   */\n  swap2\n  pop\n    /* \"#utility.yul\":370:463   */\n  tag_16\n    /* \"#utility.yul\":459:462   */\n  dup3\n    /* \"#utility.yul\":370:463   */\n  tag_17\n  jump\t// in\ntag_16:\n    /* \"#utility.yul\":488:490   */\n  0x20\n    /* \"#utility.yul\":483:486   */\n  dup3\n    /* \"#utility.yul\":479:491   */\n  add\n    /* \"#utility.yul\":472:491   */\n  swap1\n  pop\n    /* \"#utility.yul\":131:497   */\n  swap2\n  swap1\n  pop\n  jump\t// out\n    /* \"#utility.yul\":503:1032   */\ntag_5:\n    /* \"#utility.yul\":697:701   */\n  0x00\n    /* \"#utility.yul\":735:737   */\n  0x40\n    /* \"#utility.yul\":724:733   */\n  dup3\n    /* \"#utility.yul\":720:738   */\n  add\n    /* \"#utility.yul\":712:738   */\n  swap1\n  pop\n    /* \"#utility.yul\":784:793   */\n  dup2\n    /* \"#utility.yul\":778:782   */\n  dup2\n    /* \"#utility.yul\":774:794   */\n  sub\n    /* \"#utility.yul\":770:771   */\n  0x00\n    /* \"#utility.yul\":759:768   */\n  dup4\n    /* \"#utility.yul\":755:772   */\n  add\n    /* \"#utility.yul\":748:795   */\n  mstore\n    /* \"#utility.yul\":812:943   */\n  tag_19\n    /* \"#utility.yul\":938:942   */\n  dup2\n    /* \"#utility.yul\":812:943   */\n  tag_12\n  jump\t// in\ntag_19:\n    /* \"#utility.yul\":804:943   */\n  swap1\n  pop\n    /* \"#utility.yul\":953:1025   */\n  tag_20\n    /* \"#utility.yul\":1021:1023   */\n  0x20\n    /* \"#utility.yul\":1010:1019   */\n  dup4\n    /* \"#utility.yul\":1006:1024   */\n  add\n    /* \"#utility.yul\":997:1003   */\n  dup5\n    /* \"#utility.yul\":953:1025   */\n  tag_8\n  jump\t// in\ntag_20:\n    /* \"#utility.yul\":503:1032   */\n  swap3\n  swap2\n  pop\n  pop\n  jump\t// out\n    /* \"#utility.yul\":1038:1207   */\ntag_15:\n    /* \"#utility.yul\":1122:1133   */\n  0x00\n    /* \"#utility.yul\":1156:1162   */\n  dup3\n    /* \"#utility.yul\":1151:1154   */\n  dup3\n    /* \"#utility.yul\":1144:1163   */\n  mstore\n    /* \"#utility.yul\":1196:1200   */\n  0x20\n    /* \"#utility.yul\":1191:1194   */\n  dup3\n    /* \"#utility.yul\":1187:1201   */\n  add\n    /* \"#utility.yul\":1172:1201   */\n  swap1\n  pop\n    /* \"#utility.yul\":1038:1207   */\n  swap3\n  swap2\n  pop\n  pop\n  jump\t// out\n    /* \"#utility.yul\":1213:1309   */\ntag_11:\n    /* \"#utility.yul\":1250:1257   */\n  0x00\n    /* \"#utility.yul\":1279:1303   */\n  tag_23\n    /* \"#utility.yul\":1297:1302   */\n  dup3\n    /* \"#utility.yul\":1279:1303   */\n  tag_24\n  jump\t// in\ntag_23:\n    /* \"#utility.yul\":1268:1303   */\n  swap1\n  pop\n    /* \"#utility.yul\":1213:1309   */\n  swap2\n  swap1\n  pop\n  jump\t// out\n    /* \"#utility.yul\":1315:1441   */\ntag_24:\n    /* \"#utility.yul\":1352:1359   */\n  0x00\n    /* \"#utility.yul\":1392:1434   */\n  0xffffffffffffffffffffffffffffffffffffffff\n    /* \"#utility.yul\":1385:1390   */\n  dup3\n    /* \"#utility.yul\":1381:1435   */\n  and\n    /* \"#utility.yul\":1370:1435   */\n  swap1\n  pop\n    /* \"#utility.yul\":1315:1441   */\n  swap2\n  swap1\n  pop\n  jump\t// out\n    /* \"#utility.yul\":1447:1617   */\ntag_17:\n    /* \"#utility.yul\":1587:1609   */\n  0x4c656e64696e6720706f6f6c2063726561746564000000000000000000000000\n    /* \"#utility.yul\":1583:1584   */\n  0x00\n    /* \"#utility.yul\":1575:1581   */\n  dup3\n    /* \"#utility.yul\":1571:1585   */\n  add\n    /* \"#utility.yul\":1564:1610   */\n  mstore\n    /* \"#utility.yul\":1447:1617   */\n  pop\n  jump\t// out\n    /* \"contracts/LendingPool.sol\":219:2829  contract LendingPool  {... */\ntag_6:\n  dataSize(sub_0)\n  dup1\n  dataOffset(sub_0)\n  0x00\n  codecopy\n  0x00\n  return\nstop\n\nsub_0: assembly {\n        /* \"contracts/LendingPool.sol\":219:2829  contract LendingPool  {... */\n      mstore(0x40, 0x80)\n      jumpi(tag_1, lt(calldatasize, 0x04))\n      shr(0xe0, calldataload(0x00))\n      dup1\n      0x6e1dc66e\n      gt\n      tag_12\n      jumpi\n      dup1\n      0x6e1dc66e\n      eq\n      tag_7\n      jumpi\n      dup1\n      0x8da5cb5b\n      eq\n      tag_8\n      jumpi\n      dup1\n      0xaeae177c\n      eq\n      tag_9\n      jumpi\n      dup1\n      0xd0e30db0\n      eq\n      tag_10\n      jumpi\n      dup1\n      0xf9931855\n      eq\n      tag_11\n      jumpi\n      jump(tag_2)\n    tag_12:\n      dup1\n      0x3607999b\n      eq\n      tag_3\n      jumpi\n      dup1\n      0x56852391\n      eq\n      tag_4\n      jumpi\n      dup1\n      0x650fad76\n      eq\n      tag_5\n      jumpi\n      dup1\n      0x6e0e0da2\n      eq\n      tag_6\n      jumpi\n      jump(tag_2)\n    tag_1:\n      jumpi(tag_2, calldatasize)\n      stop\n    tag_2:\n      stop\n        /* \"contracts/LendingPool.sol\":1353:1701  function lendingWithdraw(uint256 amount, address to) public payable {... */\n    tag_3:\n      tag_17\n      0x04\n      dup1\n      calldatasize\n      sub\n      dup2\n      add\n      swap1\n      tag_18\n      swap2\n      swap1\n      tag_19\n      jump\t// in\n    tag_18:\n      tag_20\n      jump\t// in\n    tag_17:\n      stop\n        /* \"contracts/LendingPool.sol\":2475:2747  function gateWithdrawl() public {... */\n    tag_4:\n      callvalue\n      dup1\n      iszero\n      tag_21\n      jumpi\n      0x00\n      dup1\n      revert\n    tag_21:\n      pop\n      tag_22\n      tag_23\n      jump\t// in\n    tag_22:\n      stop\n        /* \"contracts/LendingPool.sol\":281:316  uint256 public minimumAmt = 1 ether */\n    tag_5:\n      callvalue\n      dup1\n      iszero\n      tag_24\n      jumpi\n      0x00\n      dup1\n      revert\n    tag_24:\n      pop\n      tag_25\n      tag_26\n      jump\t// in\n    tag_25:\n      mload(0x40)\n      tag_27\n      swap2\n      swap1\n      tag_28\n      jump\t// in\n    tag_27:\n      mload(0x40)\n      dup1\n      swap2\n      sub\n      swap1\n      return\n        /* \"contracts/LendingPool.sol\":1775:2399  function depositWithdraw() public{... */\n    tag_6:\n      callvalue\n      dup1\n      iszero\n      tag_29\n      jumpi\n      0x00\n      dup1\n      revert\n    tag_29:\n      pop\n      tag_30\n      tag_31\n      jump\t// in\n    tag_30:\n      stop\n        /* \"contracts/LendingPool.sol\":448:492  mapping(address => uint256) public startTime */\n    tag_7:\n      callvalue\n      dup1\n      iszero\n      tag_32\n      jumpi\n      0x00\n      dup1\n      revert\n    tag_32:\n      pop\n      tag_33\n      0x04\n      dup1\n      calldatasize\n      sub\n      dup2\n      add\n      swap1\n      tag_34\n      swap2\n      swap1\n      tag_35\n      jump\t// in\n    tag_34:\n      tag_36\n      jump\t// in\n    tag_33:\n      mload(0x40)\n      tag_37\n      swap2\n      swap1\n      tag_28\n      jump\t// in\n    tag_37:\n      mload(0x40)\n      dup1\n      swap2\n      sub\n      swap1\n      return\n        /* \"contracts/LendingPool.sol\":323:351  address payable public owner */\n    tag_8:\n      callvalue\n      dup1\n      iszero\n      tag_38\n      jumpi\n      0x00\n      dup1\n      revert\n    tag_38:\n      pop\n      tag_39\n      tag_40\n      jump\t// in\n    tag_39:\n      mload(0x40)\n      tag_41\n      swap2\n      swap1\n      tag_42\n      jump\t// in\n    tag_41:\n      mload(0x40)\n      dup1\n      swap2\n      sub\n      swap1\n      return\n        /* \"contracts/LendingPool.sol\":551:600  mapping(address => uint256) public pendingPayment */\n    tag_9:\n      callvalue\n      dup1\n      iszero\n      tag_43\n      jumpi\n      0x00\n      dup1\n      revert\n    tag_43:\n      pop\n      tag_44\n      0x04\n      dup1\n      calldatasize\n      sub\n      dup2\n      add\n      swap1\n      tag_45\n      swap2\n      swap1\n      tag_35\n      jump\t// in\n    tag_45:\n      tag_46\n      jump\t// in\n    tag_44:\n      mload(0x40)\n      tag_47\n      swap2\n      swap1\n      tag_28\n      jump\t// in\n    tag_47:\n      mload(0x40)\n      dup1\n      swap2\n      sub\n      swap1\n      return\n        /* \"contracts/LendingPool.sol\":944:1347  function deposit() public payable {... */\n    tag_10:\n      tag_48\n      tag_49\n      jump\t// in\n    tag_48:\n      stop\n        /* \"contracts/LendingPool.sol\":498:545  mapping(address => uint256) public stakedAmount */\n    tag_11:\n      callvalue\n      dup1\n      iszero\n      tag_50\n      jumpi\n      0x00\n      dup1\n      revert\n    tag_50:\n      pop\n      tag_51\n      0x04\n      dup1\n      calldatasize\n      sub\n      dup2\n      add\n      swap1\n      tag_52\n      swap2\n      swap1\n      tag_35\n      jump\t// in\n    tag_52:\n      tag_53\n      jump\t// in\n    tag_51:\n      mload(0x40)\n      tag_54\n      swap2\n      swap1\n      tag_28\n      jump\t// in\n    tag_54:\n      mload(0x40)\n      dup1\n      swap2\n      sub\n      swap1\n      return\n        /* \"contracts/LendingPool.sol\":1353:1701  function lendingWithdraw(uint256 amount, address to) public payable {... */\n    tag_20:\n        /* \"contracts/LendingPool.sol\":1546:1572  totalDeposited.sub(amount) */\n      tag_56\n        /* \"contracts/LendingPool.sol\":1565:1571  amount */\n      dup3\n        /* \"contracts/LendingPool.sol\":1546:1560  totalDeposited */\n      sload(0x02)\n        /* \"contracts/LendingPool.sol\":1546:1564  totalDeposited.sub */\n      tag_57\n      swap1\n        /* \"contracts/LendingPool.sol\":1546:1572  totalDeposited.sub(amount) */\n      swap2\n      swap1\n      0xffffffff\n      and\n      jump\t// in\n    tag_56:\n        /* \"contracts/LendingPool.sol\":1529:1543  totalDeposited */\n      0x02\n        /* \"contracts/LendingPool.sol\":1529:1572  totalDeposited = totalDeposited.sub(amount) */\n      dup2\n      swap1\n      sstore\n      pop\n        /* \"contracts/LendingPool.sol\":1603:1633  pendingPayment[to].add(amount) */\n      tag_58\n        /* \"contracts/LendingPool.sol\":1626:1632  amount */\n      dup3\n        /* \"contracts/LendingPool.sol\":1603:1617  pendingPayment */\n      0x06\n        /* \"contracts/LendingPool.sol\":1603:1621  pendingPayment[to] */\n      0x00\n        /* \"contracts/LendingPool.sol\":1618:1620  to */\n      dup5\n        /* \"contracts/LendingPool.sol\":1603:1621  pendingPayment[to] */\n      0xffffffffffffffffffffffffffffffffffffffff\n      and\n      0xffffffffffffffffffffffffffffffffffffffff\n      and\n      dup2\n      mstore\n      0x20\n      add\n      swap1\n      dup2\n      mstore\n      0x20\n      add\n      0x00\n      keccak256\n      sload\n        /* \"contracts/LendingPool.sol\":1603:1625  pendingPayment[to].add */\n      tag_59\n      swap1\n        /* \"contracts/LendingPool.sol\":1603:1633  pendingPayment[to].add(amount) */\n      swap2\n      swap1\n      0xffffffff\n      and\n      jump\t// in\n    tag_58:\n        /* \"contracts/LendingPool.sol\":1582:1596  pendingPayment */\n      0x06\n        /* \"contracts/LendingPool.sol\":1582:1600  pendingPayment[to] */\n      0x00\n        /* \"contracts/LendingPool.sol\":1597:1599  to */\n      dup4\n        /* \"contracts/LendingPool.sol\":1582:1600  pendingPayment[to] */\n      0xffffffffffffffffffffffffffffffffffffffff\n      and\n      0xffffffffffffffffffffffffffffffffffffffff\n      and\n      dup2\n      mstore\n      0x20\n      add\n      swap1\n      dup2\n      mstore\n      0x20\n      add\n      0x00\n      keccak256\n        /* \"contracts/LendingPool.sol\":1582:1633  pendingPayment[to] = pendingPayment[to].add(amount) */\n      dup2\n      swap1\n      sstore\n      pop\n        /* \"contracts/LendingPool.sol\":1648:1693  LendingPoolMessage(\"Money withdrawen to\", to) */\n      0xf67e7992d539193fc243c42fe89f8fab49013e8e4fb18cfa891dc51adcaccc80\n        /* \"contracts/LendingPool.sol\":1690:1692  to */\n      dup2\n        /* \"contracts/LendingPool.sol\":1648:1693  LendingPoolMessage(\"Money withdrawen to\", to) */\n      mload(0x40)\n      tag_60\n      swap2\n      swap1\n      tag_61\n      jump\t// in\n    tag_60:\n      mload(0x40)\n      dup1\n      swap2\n      sub\n      swap1\n      log1\n        /* \"contracts/LendingPool.sol\":1353:1701  function lendingWithdraw(uint256 amount, address to) public payable {... */\n      pop\n      pop\n      jump\t// out\n        /* \"contracts/LendingPool.sol\":2475:2747  function gateWithdrawl() public {... */\n    tag_23:\n        /* \"contracts/LendingPool.sol\":2554:2555  0 */\n      0x00\n        /* \"contracts/LendingPool.sol\":2525:2539  pendingPayment */\n      0x06\n        /* \"contracts/LendingPool.sol\":2525:2551  pendingPayment[msg.sender] */\n      0x00\n        /* \"contracts/LendingPool.sol\":2540:2550  msg.sender */\n      caller\n        /* \"contracts/LendingPool.sol\":2525:2551  pendingPayment[msg.sender] */\n      0xffffffffffffffffffffffffffffffffffffffff\n      and\n      0xffffffffffffffffffffffffffffffffffffffff\n      and\n      dup2\n      mstore\n      0x20\n      add\n      swap1\n      dup2\n      mstore\n      0x20\n      add\n      0x00\n      keccak256\n      sload\n        /* \"contracts/LendingPool.sol\":2525:2555  pendingPayment[msg.sender] > 0 */\n      gt\n        /* \"contracts/LendingPool.sol\":2517:2596  require(pendingPayment[msg.sender] > 0, \"You don't have no pending withdrawls\") */\n      tag_63\n      jumpi\n      mload(0x40)\n      0x08c379a000000000000000000000000000000000000000000000000000000000\n      dup2\n      mstore\n      0x04\n      add\n      tag_64\n      swap1\n      tag_65\n      jump\t// in\n    tag_64:\n      mload(0x40)\n      dup1\n      swap2\n      sub\n      swap1\n      revert\n    tag_63:\n        /* \"contracts/LendingPool.sol\":2606:2620  uint256 amount */\n      0x00\n        /* \"contracts/LendingPool.sol\":2623:2637  pendingPayment */\n      0x06\n        /* \"contracts/LendingPool.sol\":2623:2649  pendingPayment[msg.sender] */\n      0x00\n        /* \"contracts/LendingPool.sol\":2638:2648  msg.sender */\n      caller\n        /* \"contracts/LendingPool.sol\":2623:2649  pendingPayment[msg.sender] */\n      0xffffffffffffffffffffffffffffffffffffffff\n      and\n      0xffffffffffffffffffffffffffffffffffffffff\n      and\n      dup2\n      mstore\n      0x20\n      add\n      swap1\n      dup2\n      mstore\n      0x20\n      add\n      0x00\n      keccak256\n      sload\n        /* \"contracts/LendingPool.sol\":2606:2649  uint256 amount = pendingPayment[msg.sender] */\n      swap1\n      pop\n        /* \"contracts/LendingPool.sol\":2689:2690  0 */\n      0x00\n        /* \"contracts/LendingPool.sol\":2659:2673  pendingPayment */\n      0x06\n        /* \"contracts/LendingPool.sol\":2659:2685  pendingPayment[msg.sender] */\n      0x00\n        /* \"contracts/LendingPool.sol\":2674:2684  msg.sender */\n      caller\n        /* \"contracts/LendingPool.sol\":2659:2685  pendingPayment[msg.sender] */\n      0xffffffffffffffffffffffffffffffffffffffff\n      and\n      0xffffffffffffffffffffffffffffffffffffffff\n      and\n      dup2\n      mstore\n      0x20\n      add\n      swap1\n      dup2\n      mstore\n      0x20\n      add\n      0x00\n      keccak256\n        /* \"contracts/LendingPool.sol\":2659:2690  pendingPayment[msg.sender] =  0 */\n      dup2\n      swap1\n      sstore\n      pop\n        /* \"contracts/LendingPool.sol\":2712:2722  msg.sender */\n      caller\n        /* \"contracts/LendingPool.sol\":2704:2732  payable(msg.sender).transfer */\n      0xffffffffffffffffffffffffffffffffffffffff\n      and\n        /* \"contracts/LendingPool.sol\":2704:2740  payable(msg.sender).transfer(amount) */\n      0x08fc\n        /* \"contracts/LendingPool.sol\":2733:2739  amount */\n      dup3\n        /* \"contracts/LendingPool.sol\":2704:2740  payable(msg.sender).transfer(amount) */\n      swap1\n      dup2\n      iszero\n      mul\n      swap1\n      mload(0x40)\n      0x00\n      mload(0x40)\n      dup1\n      dup4\n      sub\n      dup2\n      dup6\n      dup9\n      dup9\n      call\n      swap4\n      pop\n      pop\n      pop\n      pop\n      iszero\n      dup1\n      iszero\n      tag_67\n      jumpi\n      returndatasize\n      0x00\n      dup1\n      returndatacopy\n      revert(0x00, returndatasize)\n    tag_67:\n      pop\n        /* \"contracts/LendingPool.sol\":2507:2747  {... */\n      pop\n        /* \"contracts/LendingPool.sol\":2475:2747  function gateWithdrawl() public {... */\n      jump\t// out\n        /* \"contracts/LendingPool.sol\":281:316  uint256 public minimumAmt = 1 ether */\n    tag_26:\n      sload(0x00)\n      dup2\n      jump\t// out\n        /* \"contracts/LendingPool.sol\":1775:2399  function depositWithdraw() public{... */\n    tag_31:\n        /* \"contracts/LendingPool.sol\":1853:1854  0 */\n      0x00\n        /* \"contracts/LendingPool.sol\":1826:1838  stakedAmount */\n      0x05\n        /* \"contracts/LendingPool.sol\":1826:1850  stakedAmount[msg.sender] */\n      0x00\n        /* \"contracts/LendingPool.sol\":1839:1849  msg.sender */\n      caller\n        /* \"contracts/LendingPool.sol\":1826:1850  stakedAmount[msg.sender] */\n      0xffffffffffffffffffffffffffffffffffffffff\n      and\n      0xffffffffffffffffffffffffffffffffffffffff\n      and\n      dup2\n      mstore\n      0x20\n      add\n      swap1\n      dup2\n      mstore\n      0x20\n      add\n      0x00\n      keccak256\n      sload\n        /* \"contracts/LendingPool.sol\":1826:1854  stakedAmount[msg.sender] > 0 */\n      gt\n        /* \"contracts/LendingPool.sol\":1818:1891  require(stakedAmount[msg.sender] > 0, \"You don't have any money in here\") */\n      tag_69\n      jumpi\n      mload(0x40)\n      0x08c379a000000000000000000000000000000000000000000000000000000000\n      dup2\n      mstore\n      0x04\n      add\n      tag_70\n      swap1\n      tag_71\n      jump\t// in\n    tag_70:\n      mload(0x40)\n      dup1\n      swap2\n      sub\n      swap1\n      revert\n    tag_69:\n        /* \"contracts/LendingPool.sol\":1901:1920  uint256 time_staked */\n      0x00\n        /* \"contracts/LendingPool.sol\":1923:1976  (startTime[msg.sender] -  block.timestamp).div(86400) */\n      tag_72\n        /* \"contracts/LendingPool.sol\":1970:1975  86400 */\n      0x015180\n        /* \"contracts/LendingPool.sol\":1949:1964  block.timestamp */\n      timestamp\n        /* \"contracts/LendingPool.sol\":1924:1933  startTime */\n      0x04\n        /* \"contracts/LendingPool.sol\":1924:1945  startTime[msg.sender] */\n      0x00\n        /* \"contracts/LendingPool.sol\":1934:1944  msg.sender */\n      caller\n        /* \"contracts/LendingPool.sol\":1924:1945  startTime[msg.sender] */\n      0xffffffffffffffffffffffffffffffffffffffff\n      and\n      0xffffffffffffffffffffffffffffffffffffffff\n      and\n      dup2\n      mstore\n      0x20\n      add\n      swap1\n      dup2\n      mstore\n      0x20\n      add\n      0x00\n      keccak256\n      sload\n        /* \"contracts/LendingPool.sol\":1924:1964  startTime[msg.sender] -  block.timestamp */\n      tag_73\n      swap2\n      swap1\n      tag_74\n      jump\t// in\n    tag_73:\n        /* \"contracts/LendingPool.sol\":1923:1969  (startTime[msg.sender] -  block.timestamp).div */\n      tag_75\n      swap1\n        /* \"contracts/LendingPool.sol\":1923:1976  (startTime[msg.sender] -  block.timestamp).div(86400) */\n      swap2\n      swap1\n      0xffffffff\n      and\n      jump\t// in\n    tag_72:\n        /* \"contracts/LendingPool.sol\":1901:1976  uint256 time_staked = (startTime[msg.sender] -  block.timestamp).div(86400) */\n      swap1\n      pop\n        /* \"contracts/LendingPool.sol\":2008:2018  30 * 86400 */\n      0x278d00\n        /* \"contracts/LendingPool.sol\":1994:2005  time_staked */\n      dup2\n        /* \"contracts/LendingPool.sol\":1994:2018  time_staked > 30 * 86400 */\n      gt\n        /* \"contracts/LendingPool.sol\":1986:2059  require(time_staked > 30 * 86400, \"You should atleast stake for a monty\") */\n      tag_76\n      jumpi\n      mload(0x40)\n      0x08c379a000000000000000000000000000000000000000000000000000000000\n      dup2\n      mstore\n      0x04\n      add\n      tag_77\n      swap1\n      tag_78\n      jump\t// in\n    tag_77:\n      mload(0x40)\n      dup1\n      swap2\n      sub\n      swap1\n      revert\n    tag_76:\n        /* \"contracts/LendingPool.sol\":2069:2082  uint256 yield */\n      0x00\n        /* \"contracts/LendingPool.sol\":2112:2169  time_staked.mul(5).mul(stakedAmount[msg.sender]).div(100) */\n      tag_79\n        /* \"contracts/LendingPool.sol\":2165:2168  100 */\n      0x64\n        /* \"contracts/LendingPool.sol\":2112:2160  time_staked.mul(5).mul(stakedAmount[msg.sender]) */\n      tag_80\n        /* \"contracts/LendingPool.sol\":2135:2147  stakedAmount */\n      0x05\n        /* \"contracts/LendingPool.sol\":2135:2159  stakedAmount[msg.sender] */\n      0x00\n        /* \"contracts/LendingPool.sol\":2148:2158  msg.sender */\n      caller\n        /* \"contracts/LendingPool.sol\":2135:2159  stakedAmount[msg.sender] */\n      0xffffffffffffffffffffffffffffffffffffffff\n      and\n      0xffffffffffffffffffffffffffffffffffffffff\n      and\n      dup2\n      mstore\n      0x20\n      add\n      swap1\n      dup2\n      mstore\n      0x20\n      add\n      0x00\n      keccak256\n      sload\n        /* \"contracts/LendingPool.sol\":2112:2130  time_staked.mul(5) */\n      tag_81\n        /* \"contracts/LendingPool.sol\":2128:2129  5 */\n      0x05\n        /* \"contracts/LendingPool.sol\":2112:2123  time_staked */\n      dup8\n        /* \"contracts/LendingPool.sol\":2112:2127  time_staked.mul */\n      tag_82\n      swap1\n        /* \"contracts/LendingPool.sol\":2112:2130  time_staked.mul(5) */\n      swap2\n      swap1\n      0xffffffff\n      and\n      jump\t// in\n    tag_81:\n        /* \"contracts/LendingPool.sol\":2112:2134  time_staked.mul(5).mul */\n      tag_82\n      swap1\n        /* \"contracts/LendingPool.sol\":2112:2160  time_staked.mul(5).mul(stakedAmount[msg.sender]) */\n      swap2\n      swap1\n      0xffffffff\n      and\n      jump\t// in\n    tag_80:\n        /* \"contracts/LendingPool.sol\":2112:2164  time_staked.mul(5).mul(stakedAmount[msg.sender]).div */\n      tag_75\n      swap1\n        /* \"contracts/LendingPool.sol\":2112:2169  time_staked.mul(5).mul(stakedAmount[msg.sender]).div(100) */\n      swap2\n      swap1\n      0xffffffff\n      and\n      jump\t// in\n    tag_79:\n        /* \"contracts/LendingPool.sol\":2085:2097  stakedAmount */\n      0x05\n        /* \"contracts/LendingPool.sol\":2085:2109  stakedAmount[msg.sender] */\n      0x00\n        /* \"contracts/LendingPool.sol\":2098:2108  msg.sender */\n      caller\n        /* \"contracts/LendingPool.sol\":2085:2109  stakedAmount[msg.sender] */\n      0xffffffffffffffffffffffffffffffffffffffff\n      and\n      0xffffffffffffffffffffffffffffffffffffffff\n      and\n      dup2\n      mstore\n      0x20\n      add\n      swap1\n      dup2\n      mstore\n      0x20\n      add\n      0x00\n      keccak256\n      sload\n        /* \"contracts/LendingPool.sol\":2085:2169  stakedAmount[msg.sender] + time_staked.mul(5).mul(stakedAmount[msg.sender]).div(100) */\n      tag_83\n      swap2\n      swap1\n      tag_84\n      jump\t// in\n    tag_83:\n        /* \"contracts/LendingPool.sol\":2069:2169  uint256 yield = stakedAmount[msg.sender] + time_staked.mul(5).mul(stakedAmount[msg.sender]).div(100) */\n      swap1\n      pop\n        /* \"contracts/LendingPool.sol\":2195:2209  totalDeposited */\n      sload(0x02)\n        /* \"contracts/LendingPool.sol\":2187:2192  yield */\n      dup2\n        /* \"contracts/LendingPool.sol\":2187:2209  yield < totalDeposited */\n      lt\n        /* \"contracts/LendingPool.sol\":2179:2264  require(yield < totalDeposited, \"Sorry we don't have enough money so comeback later\") */\n      tag_85\n      jumpi\n      mload(0x40)\n      0x08c379a000000000000000000000000000000000000000000000000000000000\n      dup2\n      mstore\n      0x04\n      add\n      tag_86\n      swap1\n      tag_87\n      jump\t// in\n    tag_86:\n      mload(0x40)\n      dup1\n      swap2\n      sub\n      swap1\n      revert\n    tag_85:\n        /* \"contracts/LendingPool.sol\":2291:2316  totalDeposited.sub(yield) */\n      tag_88\n        /* \"contracts/LendingPool.sol\":2310:2315  yield */\n      dup2\n        /* \"contracts/LendingPool.sol\":2291:2305  totalDeposited */\n      sload(0x02)\n        /* \"contracts/LendingPool.sol\":2291:2309  totalDeposited.sub */\n      tag_57\n      swap1\n        /* \"contracts/LendingPool.sol\":2291:2316  totalDeposited.sub(yield) */\n      swap2\n      swap1\n      0xffffffff\n      and\n      jump\t// in\n    tag_88:\n        /* \"contracts/LendingPool.sol\":2274:2288  totalDeposited */\n      0x02\n        /* \"contracts/LendingPool.sol\":2274:2316  totalDeposited = totalDeposited.sub(yield) */\n      dup2\n      swap1\n      sstore\n      pop\n        /* \"contracts/LendingPool.sol\":2355:2392  pendingPayment[msg.sender].add(yield) */\n      tag_89\n        /* \"contracts/LendingPool.sol\":2386:2391  yield */\n      dup2\n        /* \"contracts/LendingPool.sol\":2355:2369  pendingPayment */\n      0x06\n        /* \"contracts/LendingPool.sol\":2355:2381  pendingPayment[msg.sender] */\n      0x00\n        /* \"contracts/LendingPool.sol\":2370:2380  msg.sender */\n      caller\n        /* \"contracts/LendingPool.sol\":2355:2381  pendingPayment[msg.sender] */\n      0xffffffffffffffffffffffffffffffffffffffff\n      and\n      0xffffffffffffffffffffffffffffffffffffffff\n      and\n      dup2\n      mstore\n      0x20\n      add\n      swap1\n      dup2\n      mstore\n      0x20\n      add\n      0x00\n      keccak256\n      sload\n        /* \"contracts/LendingPool.sol\":2355:2385  pendingPayment[msg.sender].add */\n      tag_59\n      swap1\n        /* \"contracts/LendingPool.sol\":2355:2392  pendingPayment[msg.sender].add(yield) */\n      swap2\n      swap1\n      0xffffffff\n      and\n      jump\t// in\n    tag_89:\n        /* \"contracts/LendingPool.sol\":2326:2340  pendingPayment */\n      0x06\n        /* \"contracts/LendingPool.sol\":2326:2352  pendingPayment[msg.sender] */\n      0x00\n        /* \"contracts/LendingPool.sol\":2341:2351  msg.sender */\n      caller\n        /* \"contracts/LendingPool.sol\":2326:2352  pendingPayment[msg.sender] */\n      0xffffffffffffffffffffffffffffffffffffffff\n      and\n      0xffffffffffffffffffffffffffffffffffffffff\n      and\n      dup2\n      mstore\n      0x20\n      add\n      swap1\n      dup2\n      mstore\n      0x20\n      add\n      0x00\n      keccak256\n        /* \"contracts/LendingPool.sol\":2326:2392  pendingPayment[msg.sender] = pendingPayment[msg.sender].add(yield) */\n      dup2\n      swap1\n      sstore\n      pop\n        /* \"contracts/LendingPool.sol\":1808:2399  {... */\n      pop\n      pop\n        /* \"contracts/LendingPool.sol\":1775:2399  function depositWithdraw() public{... */\n      jump\t// out\n        /* \"contracts/LendingPool.sol\":448:492  mapping(address => uint256) public startTime */\n    tag_36:\n      mstore(0x20, 0x04)\n      dup1\n      0x00\n      mstore\n      keccak256(0x00, 0x40)\n      0x00\n      swap2\n      pop\n      swap1\n      pop\n      sload\n      dup2\n      jump\t// out\n        /* \"contracts/LendingPool.sol\":323:351  address payable public owner */\n    tag_40:\n      0x01\n      0x00\n      swap1\n      sload\n      swap1\n      0x0100\n      exp\n      swap1\n      div\n      0xffffffffffffffffffffffffffffffffffffffff\n      and\n      dup2\n      jump\t// out\n        /* \"contracts/LendingPool.sol\":551:600  mapping(address => uint256) public pendingPayment */\n    tag_46:\n      mstore(0x20, 0x06)\n      dup1\n      0x00\n      mstore\n      keccak256(0x00, 0x40)\n      0x00\n      swap2\n      pop\n      swap1\n      pop\n      sload\n      dup2\n      jump\t// out\n        /* \"contracts/LendingPool.sol\":944:1347  function deposit() public payable {... */\n    tag_49:\n        /* \"contracts/LendingPool.sol\":1009:1019  minimumAmt */\n      sload(0x00)\n        /* \"contracts/LendingPool.sol\":996:1005  msg.value */\n      callvalue\n        /* \"contracts/LendingPool.sol\":996:1019  msg.value >= minimumAmt */\n      lt\n      iszero\n        /* \"contracts/LendingPool.sol\":988:1048  require(msg.value >= minimumAmt, \"Minimum 1 Ether Required\") */\n      tag_91\n      jumpi\n      mload(0x40)\n      0x08c379a000000000000000000000000000000000000000000000000000000000\n      dup2\n      mstore\n      0x04\n      add\n      tag_92\n      swap1\n      tag_93\n      jump\t// in\n    tag_92:\n      mload(0x40)\n      dup1\n      swap2\n      sub\n      swap1\n      revert\n    tag_91:\n        /* \"contracts/LendingPool.sol\":1138:1153  block.timestamp */\n      timestamp\n        /* \"contracts/LendingPool.sol\":1114:1123  startTime */\n      0x04\n        /* \"contracts/LendingPool.sol\":1114:1135  startTime[msg.sender] */\n      0x00\n        /* \"contracts/LendingPool.sol\":1124:1134  msg.sender */\n      caller\n        /* \"contracts/LendingPool.sol\":1114:1135  startTime[msg.sender] */\n      0xffffffffffffffffffffffffffffffffffffffff\n      and\n      0xffffffffffffffffffffffffffffffffffffffff\n      and\n      dup2\n      mstore\n      0x20\n      add\n      swap1\n      dup2\n      mstore\n      0x20\n      add\n      0x00\n      keccak256\n        /* \"contracts/LendingPool.sol\":1114:1153  startTime[msg.sender] = block.timestamp */\n      dup2\n      swap1\n      sstore\n      pop\n        /* \"contracts/LendingPool.sol\":1190:1229  stakedAmount[msg.sender].add(msg.value) */\n      tag_94\n        /* \"contracts/LendingPool.sol\":1219:1228  msg.value */\n      callvalue\n        /* \"contracts/LendingPool.sol\":1190:1202  stakedAmount */\n      0x05\n        /* \"contracts/LendingPool.sol\":1190:1214  stakedAmount[msg.sender] */\n      0x00\n        /* \"contracts/LendingPool.sol\":1203:1213  msg.sender */\n      caller\n        /* \"contracts/LendingPool.sol\":1190:1214  stakedAmount[msg.sender] */\n      0xffffffffffffffffffffffffffffffffffffffff\n      and\n      0xffffffffffffffffffffffffffffffffffffffff\n      and\n      dup2\n      mstore\n      0x20\n      add\n      swap1\n      dup2\n      mstore\n      0x20\n      add\n      0x00\n      keccak256\n      sload\n        /* \"contracts/LendingPool.sol\":1190:1218  stakedAmount[msg.sender].add */\n      tag_59\n      swap1\n        /* \"contracts/LendingPool.sol\":1190:1229  stakedAmount[msg.sender].add(msg.value) */\n      swap2\n      swap1\n      0xffffffff\n      and\n      jump\t// in\n    tag_94:\n        /* \"contracts/LendingPool.sol\":1163:1175  stakedAmount */\n      0x05\n        /* \"contracts/LendingPool.sol\":1163:1187  stakedAmount[msg.sender] */\n      0x00\n        /* \"contracts/LendingPool.sol\":1176:1186  msg.sender */\n      caller\n        /* \"contracts/LendingPool.sol\":1163:1187  stakedAmount[msg.sender] */\n      0xffffffffffffffffffffffffffffffffffffffff\n      and\n      0xffffffffffffffffffffffffffffffffffffffff\n      and\n      dup2\n      mstore\n      0x20\n      add\n      swap1\n      dup2\n      mstore\n      0x20\n      add\n      0x00\n      keccak256\n        /* \"contracts/LendingPool.sol\":1163:1229  stakedAmount[msg.sender] = stakedAmount[msg.sender].add(msg.value) */\n      dup2\n      swap1\n      sstore\n      pop\n        /* \"contracts/LendingPool.sol\":1256:1285  totalDeposited.add(msg.value) */\n      tag_95\n        /* \"contracts/LendingPool.sol\":1275:1284  msg.value */\n      callvalue\n        /* \"contracts/LendingPool.sol\":1256:1270  totalDeposited */\n      sload(0x02)\n        /* \"contracts/LendingPool.sol\":1256:1274  totalDeposited.add */\n      tag_59\n      swap1\n        /* \"contracts/LendingPool.sol\":1256:1285  totalDeposited.add(msg.value) */\n      swap2\n      swap1\n      0xffffffff\n      and\n      jump\t// in\n    tag_95:\n        /* \"contracts/LendingPool.sol\":1239:1253  totalDeposited */\n      0x02\n        /* \"contracts/LendingPool.sol\":1239:1285  totalDeposited = totalDeposited.add(msg.value) */\n      dup2\n      swap1\n      sstore\n      pop\n        /* \"contracts/LendingPool.sol\":1300:1340  LendingPoolMessage(\"staked\", msg.sender) */\n      0xf67e7992d539193fc243c42fe89f8fab49013e8e4fb18cfa891dc51adcaccc80\n        /* \"contracts/LendingPool.sol\":1329:1339  msg.sender */\n      caller\n        /* \"contracts/LendingPool.sol\":1300:1340  LendingPoolMessage(\"staked\", msg.sender) */\n      mload(0x40)\n      tag_96\n      swap2\n      swap1\n      tag_97\n      jump\t// in\n    tag_96:\n      mload(0x40)\n      dup1\n      swap2\n      sub\n      swap1\n      log1\n        /* \"contracts/LendingPool.sol\":944:1347  function deposit() public payable {... */\n      jump\t// out\n        /* \"contracts/LendingPool.sol\":498:545  mapping(address => uint256) public stakedAmount */\n    tag_53:\n      mstore(0x20, 0x05)\n      dup1\n      0x00\n      mstore\n      keccak256(0x00, 0x40)\n      0x00\n      swap2\n      pop\n      swap1\n      pop\n      sload\n      dup2\n      jump\t// out\n        /* \"contracts/SafeMath.sol\":226:364  function sub(uint256 a, uint256 b) internal pure returns (uint256 c) {... */\n    tag_57:\n        /* \"contracts/SafeMath.sol\":284:293  uint256 c */\n      0x00\n        /* \"contracts/SafeMath.sol\":318:319  a */\n      dup3\n        /* \"contracts/SafeMath.sol\":313:314  b */\n      dup3\n        /* \"contracts/SafeMath.sol\":313:319  b <= a */\n      gt\n      iszero\n        /* \"contracts/SafeMath.sol\":305:320  require(b <= a) */\n      tag_99\n      jumpi\n      0x00\n      dup1\n      revert\n    tag_99:\n        /* \"contracts/SafeMath.sol\":338:339  b */\n      dup2\n        /* \"contracts/SafeMath.sol\":334:335  a */\n      dup4\n        /* \"contracts/SafeMath.sol\":334:339  a - b */\n      tag_100\n      swap2\n      swap1\n      tag_74\n      jump\t// in\n    tag_100:\n        /* \"contracts/SafeMath.sol\":330:339  c = a - b */\n      swap1\n      pop\n        /* \"contracts/SafeMath.sol\":226:364  function sub(uint256 a, uint256 b) internal pure returns (uint256 c) {... */\n      swap3\n      swap2\n      pop\n      pop\n      jump\t// out\n        /* \"contracts/SafeMath.sol\":82:220  function add(uint256 a, uint256 b) internal pure returns (uint256 c) {... */\n    tag_59:\n        /* \"contracts/SafeMath.sol\":140:149  uint256 c */\n      0x00\n        /* \"contracts/SafeMath.sol\":169:170  b */\n      dup2\n        /* \"contracts/SafeMath.sol\":165:166  a */\n      dup4\n        /* \"contracts/SafeMath.sol\":165:170  a + b */\n      tag_102\n      swap2\n      swap1\n      tag_84\n      jump\t// in\n    tag_102:\n        /* \"contracts/SafeMath.sol\":161:170  c = a + b */\n      swap1\n      pop\n        /* \"contracts/SafeMath.sol\":193:194  a */\n      dup3\n        /* \"contracts/SafeMath.sol\":188:189  c */\n      dup2\n        /* \"contracts/SafeMath.sol\":188:194  c >= a */\n      lt\n      iszero\n        /* \"contracts/SafeMath.sol\":180:195  require(c >= a) */\n      tag_103\n      jumpi\n      0x00\n      dup1\n      revert\n    tag_103:\n        /* \"contracts/SafeMath.sol\":82:220  function add(uint256 a, uint256 b) internal pure returns (uint256 c) {... */\n      swap3\n      swap2\n      pop\n      pop\n      jump\t// out\n        /* \"contracts/SafeMath.sol\":528:665  function div(uint256 a, uint256 b) internal pure returns (uint256 c) {... */\n    tag_75:\n        /* \"contracts/SafeMath.sol\":586:595  uint256 c */\n      0x00\n        /* \"contracts/SafeMath.sol\":619:620  0 */\n      dup1\n        /* \"contracts/SafeMath.sol\":615:616  b */\n      dup3\n        /* \"contracts/SafeMath.sol\":615:620  b > 0 */\n      gt\n        /* \"contracts/SafeMath.sol\":607:621  require(b > 0) */\n      tag_105\n      jumpi\n      0x00\n      dup1\n      revert\n    tag_105:\n        /* \"contracts/SafeMath.sol\":639:640  b */\n      dup2\n        /* \"contracts/SafeMath.sol\":635:636  a */\n      dup4\n        /* \"contracts/SafeMath.sol\":635:640  a / b */\n      tag_106\n      swap2\n      swap1\n      tag_107\n      jump\t// in\n    tag_106:\n        /* \"contracts/SafeMath.sol\":631:640  c = a / b */\n      swap1\n      pop\n        /* \"contracts/SafeMath.sol\":528:665  function div(uint256 a, uint256 b) internal pure returns (uint256 c) {... */\n      swap3\n      swap2\n      pop\n      pop\n      jump\t// out\n        /* \"contracts/SafeMath.sol\":370:522  function mul(uint256 a, uint256 b) internal pure returns (uint256 c) {... */\n    tag_82:\n        /* \"contracts/SafeMath.sol\":428:437  uint256 c */\n      0x00\n        /* \"contracts/SafeMath.sol\":457:458  b */\n      dup2\n        /* \"contracts/SafeMath.sol\":453:454  a */\n      dup4\n        /* \"contracts/SafeMath.sol\":453:458  a * b */\n      tag_109\n      swap2\n      swap1\n      tag_110\n      jump\t// in\n    tag_109:\n        /* \"contracts/SafeMath.sol\":449:458  c = a * b */\n      swap1\n      pop\n        /* \"contracts/SafeMath.sol\":481:482  0 */\n      0x00\n        /* \"contracts/SafeMath.sol\":476:477  a */\n      dup4\n        /* \"contracts/SafeMath.sol\":476:482  a == 0 */\n      eq\n        /* \"contracts/SafeMath.sol\":476:496  a == 0 || c / a == b */\n      dup1\n      tag_111\n      jumpi\n      pop\n        /* \"contracts/SafeMath.sol\":495:496  b */\n      dup2\n        /* \"contracts/SafeMath.sol\":490:491  a */\n      dup4\n        /* \"contracts/SafeMath.sol\":486:487  c */\n      dup3\n        /* \"contracts/SafeMath.sol\":486:491  c / a */\n      tag_112\n      swap2\n      swap1\n      tag_107\n      jump\t// in\n    tag_112:\n        /* \"contracts/SafeMath.sol\":486:496  c / a == b */\n      eq\n        /* \"contracts/SafeMath.sol\":476:496  a == 0 || c / a == b */\n    tag_111:\n        /* \"contracts/SafeMath.sol\":468:497  require(a == 0 || c / a == b) */\n      tag_113\n      jumpi\n      0x00\n      dup1\n      revert\n    tag_113:\n        /* \"contracts/SafeMath.sol\":370:522  function mul(uint256 a, uint256 b) internal pure returns (uint256 c) {... */\n      swap3\n      swap2\n      pop\n      pop\n      jump\t// out\n        /* \"#utility.yul\":7:146   */\n    tag_115:\n        /* \"#utility.yul\":53:58   */\n      0x00\n        /* \"#utility.yul\":91:97   */\n      dup2\n        /* \"#utility.yul\":78:98   */\n      calldataload\n        /* \"#utility.yul\":69:98   */\n      swap1\n      pop\n        /* \"#utility.yul\":107:140   */\n      tag_117\n        /* \"#utility.yul\":134:139   */\n      dup2\n        /* \"#utility.yul\":107:140   */\n      tag_118\n      jump\t// in\n    tag_117:\n        /* \"#utility.yul\":7:146   */\n      swap3\n      swap2\n      pop\n      pop\n      jump\t// out\n        /* \"#utility.yul\":152:291   */\n    tag_119:\n        /* \"#utility.yul\":198:203   */\n      0x00\n        /* \"#utility.yul\":236:242   */\n      dup2\n        /* \"#utility.yul\":223:243   */\n      calldataload\n        /* \"#utility.yul\":214:243   */\n      swap1\n      pop\n        /* \"#utility.yul\":252:285   */\n      tag_121\n        /* \"#utility.yul\":279:284   */\n      dup2\n        /* \"#utility.yul\":252:285   */\n      tag_122\n      jump\t// in\n    tag_121:\n        /* \"#utility.yul\":152:291   */\n      swap3\n      swap2\n      pop\n      pop\n      jump\t// out\n        /* \"#utility.yul\":297:626   */\n    tag_35:\n        /* \"#utility.yul\":356:362   */\n      0x00\n        /* \"#utility.yul\":405:407   */\n      0x20\n        /* \"#utility.yul\":393:402   */\n      dup3\n        /* \"#utility.yul\":384:391   */\n      dup5\n        /* \"#utility.yul\":380:403   */\n      sub\n        /* \"#utility.yul\":376:408   */\n      slt\n        /* \"#utility.yul\":373:492   */\n      iszero\n      tag_124\n      jumpi\n        /* \"#utility.yul\":411:490   */\n      tag_125\n      tag_126\n      jump\t// in\n    tag_125:\n        /* \"#utility.yul\":373:492   */\n    tag_124:\n        /* \"#utility.yul\":531:532   */\n      0x00\n        /* \"#utility.yul\":556:609   */\n      tag_127\n        /* \"#utility.yul\":601:608   */\n      dup5\n        /* \"#utility.yul\":592:598   */\n      dup3\n        /* \"#utility.yul\":581:590   */\n      dup6\n        /* \"#utility.yul\":577:599   */\n      add\n        /* \"#utility.yul\":556:609   */\n      tag_115\n      jump\t// in\n    tag_127:\n        /* \"#utility.yul\":546:609   */\n      swap2\n      pop\n        /* \"#utility.yul\":502:619   */\n      pop\n        /* \"#utility.yul\":297:626   */\n      swap3\n      swap2\n      pop\n      pop\n      jump\t// out\n        /* \"#utility.yul\":632:1106   */\n    tag_19:\n        /* \"#utility.yul\":700:706   */\n      0x00\n        /* \"#utility.yul\":708:714   */\n      dup1\n        /* \"#utility.yul\":757:759   */\n      0x40\n        /* \"#utility.yul\":745:754   */\n      dup4\n        /* \"#utility.yul\":736:743   */\n      dup6\n        /* \"#utility.yul\":732:755   */\n      sub\n        /* \"#utility.yul\":728:760   */\n      slt\n        /* \"#utility.yul\":725:844   */\n      iszero\n      tag_129\n      jumpi\n        /* \"#utility.yul\":763:842   */\n      tag_130\n      tag_126\n      jump\t// in\n    tag_130:\n        /* \"#utility.yul\":725:844   */\n    tag_129:\n        /* \"#utility.yul\":883:884   */\n      0x00\n        /* \"#utility.yul\":908:961   */\n      tag_131\n        /* \"#utility.yul\":953:960   */\n      dup6\n        /* \"#utility.yul\":944:950   */\n      dup3\n        /* \"#utility.yul\":933:942   */\n      dup7\n        /* \"#utility.yul\":929:951   */\n      add\n        /* \"#utility.yul\":908:961   */\n      tag_119\n      jump\t// in\n    tag_131:\n        /* \"#utility.yul\":898:961   */\n      swap3\n      pop\n        /* \"#utility.yul\":854:971   */\n      pop\n        /* \"#utility.yul\":1010:1012   */\n      0x20\n        /* \"#utility.yul\":1036:1089   */\n      tag_132\n        /* \"#utility.yul\":1081:1088   */\n      dup6\n        /* \"#utility.yul\":1072:1078   */\n      dup3\n        /* \"#utility.yul\":1061:1070   */\n      dup7\n        /* \"#utility.yul\":1057:1079   */\n      add\n        /* \"#utility.yul\":1036:1089   */\n      tag_115\n      jump\t// in\n    tag_132:\n        /* \"#utility.yul\":1026:1089   */\n      swap2\n      pop\n        /* \"#utility.yul\":981:1099   */\n      pop\n        /* \"#utility.yul\":632:1106   */\n      swap3\n      pop\n      swap3\n      swap1\n      pop\n      jump\t// out\n        /* \"#utility.yul\":1112:1254   */\n    tag_133:\n        /* \"#utility.yul\":1215:1247   */\n      tag_135\n        /* \"#utility.yul\":1241:1246   */\n      dup2\n        /* \"#utility.yul\":1215:1247   */\n      tag_136\n      jump\t// in\n    tag_135:\n        /* \"#utility.yul\":1210:1213   */\n      dup3\n        /* \"#utility.yul\":1203:1248   */\n      mstore\n        /* \"#utility.yul\":1112:1254   */\n      pop\n      pop\n      jump\t// out\n        /* \"#utility.yul\":1260:1378   */\n    tag_137:\n        /* \"#utility.yul\":1347:1371   */\n      tag_139\n        /* \"#utility.yul\":1365:1370   */\n      dup2\n        /* \"#utility.yul\":1347:1371   */\n      tag_140\n      jump\t// in\n    tag_139:\n        /* \"#utility.yul\":1342:1345   */\n      dup3\n        /* \"#utility.yul\":1335:1372   */\n      mstore\n        /* \"#utility.yul\":1260:1378   */\n      pop\n      pop\n      jump\t// out\n        /* \"#utility.yul\":1384:1750   */\n    tag_141:\n        /* \"#utility.yul\":1526:1529   */\n      0x00\n        /* \"#utility.yul\":1547:1614   */\n      tag_143\n        /* \"#utility.yul\":1611:1613   */\n      0x13\n        /* \"#utility.yul\":1606:1609   */\n      dup4\n        /* \"#utility.yul\":1547:1614   */\n      tag_144\n      jump\t// in\n    tag_143:\n        /* \"#utility.yul\":1540:1614   */\n      swap2\n      pop\n        /* \"#utility.yul\":1623:1716   */\n      tag_145\n        /* \"#utility.yul\":1712:1715   */\n      dup3\n        /* \"#utility.yul\":1623:1716   */\n      tag_146\n      jump\t// in\n    tag_145:\n        /* \"#utility.yul\":1741:1743   */\n      0x20\n        /* \"#utility.yul\":1736:1739   */\n      dup3\n        /* \"#utility.yul\":1732:1744   */\n      add\n        /* \"#utility.yul\":1725:1744   */\n      swap1\n      pop\n        /* \"#utility.yul\":1384:1750   */\n      swap2\n      swap1\n      pop\n      jump\t// out\n        /* \"#utility.yul\":1756:2122   */\n    tag_147:\n        /* \"#utility.yul\":1898:1901   */\n      0x00\n        /* \"#utility.yul\":1919:1986   */\n      tag_149\n        /* \"#utility.yul\":1983:1985   */\n      0x20\n        /* \"#utility.yul\":1978:1981   */\n      dup4\n        /* \"#utility.yul\":1919:1986   */\n      tag_144\n      jump\t// in\n    tag_149:\n        /* \"#utility.yul\":1912:1986   */\n      swap2\n      pop\n        /* \"#utility.yul\":1995:2088   */\n      tag_150\n        /* \"#utility.yul\":2084:2087   */\n      dup3\n        /* \"#utility.yul\":1995:2088   */\n      tag_151\n      jump\t// in\n    tag_150:\n        /* \"#utility.yul\":2113:2115   */\n      0x20\n        /* \"#utility.yul\":2108:2111   */\n      dup3\n        /* \"#utility.yul\":2104:2116   */\n      add\n        /* \"#utility.yul\":2097:2116   */\n      swap1\n      pop\n        /* \"#utility.yul\":1756:2122   */\n      swap2\n      swap1\n      pop\n      jump\t// out\n        /* \"#utility.yul\":2128:2494   */\n    tag_152:\n        /* \"#utility.yul\":2270:2273   */\n      0x00\n        /* \"#utility.yul\":2291:2358   */\n      tag_154\n        /* \"#utility.yul\":2355:2357   */\n      0x18\n        /* \"#utility.yul\":2350:2353   */\n      dup4\n        /* \"#utility.yul\":2291:2358   */\n      tag_144\n      jump\t// in\n    tag_154:\n        /* \"#utility.yul\":2284:2358   */\n      swap2\n      pop\n        /* \"#utility.yul\":2367:2460   */\n      tag_155\n        /* \"#utility.yul\":2456:2459   */\n      dup3\n        /* \"#utility.yul\":2367:2460   */\n      tag_156\n      jump\t// in\n    tag_155:\n        /* \"#utility.yul\":2485:2487   */\n      0x20\n        /* \"#utility.yul\":2480:2483   */\n      dup3\n        /* \"#utility.yul\":2476:2488   */\n      add\n        /* \"#utility.yul\":2469:2488   */\n      swap1\n      pop\n        /* \"#utility.yul\":2128:2494   */\n      swap2\n      swap1\n      pop\n      jump\t// out\n        /* \"#utility.yul\":2500:2866   */\n    tag_157:\n        /* \"#utility.yul\":2642:2645   */\n      0x00\n        /* \"#utility.yul\":2663:2730   */\n      tag_159\n        /* \"#utility.yul\":2727:2729   */\n      0x24\n        /* \"#utility.yul\":2722:2725   */\n      dup4\n        /* \"#utility.yul\":2663:2730   */\n      tag_144\n      jump\t// in\n    tag_159:\n        /* \"#utility.yul\":2656:2730   */\n      swap2\n      pop\n        /* \"#utility.yul\":2739:2832   */\n      tag_160\n        /* \"#utility.yul\":2828:2831   */\n      dup3\n        /* \"#utility.yul\":2739:2832   */\n      tag_161\n      jump\t// in\n    tag_160:\n        /* \"#utility.yul\":2857:2859   */\n      0x40\n        /* \"#utility.yul\":2852:2855   */\n      dup3\n        /* \"#utility.yul\":2848:2860   */\n      add\n        /* \"#utility.yul\":2841:2860   */\n      swap1\n      pop\n        /* \"#utility.yul\":2500:2866   */\n      swap2\n      swap1\n      pop\n      jump\t// out\n        /* \"#utility.yul\":2872:3237   */\n    tag_162:\n        /* \"#utility.yul\":3014:3017   */\n      0x00\n        /* \"#utility.yul\":3035:3101   */\n      tag_164\n        /* \"#utility.yul\":3099:3100   */\n      0x06\n        /* \"#utility.yul\":3094:3097   */\n      dup4\n        /* \"#utility.yul\":3035:3101   */\n      tag_144\n      jump\t// in\n    tag_164:\n        /* \"#utility.yul\":3028:3101   */\n      swap2\n      pop\n        /* \"#utility.yul\":3110:3203   */\n      tag_165\n        /* \"#utility.yul\":3199:3202   */\n      dup3\n        /* \"#utility.yul\":3110:3203   */\n      tag_166\n      jump\t// in\n    tag_165:\n        /* \"#utility.yul\":3228:3230   */\n      0x20\n        /* \"#utility.yul\":3223:3226   */\n      dup3\n        /* \"#utility.yul\":3219:3231   */\n      add\n        /* \"#utility.yul\":3212:3231   */\n      swap1\n      pop\n        /* \"#utility.yul\":2872:3237   */\n      swap2\n      swap1\n      pop\n      jump\t// out\n        /* \"#utility.yul\":3243:3609   */\n    tag_167:\n        /* \"#utility.yul\":3385:3388   */\n      0x00\n        /* \"#utility.yul\":3406:3473   */\n      tag_169\n        /* \"#utility.yul\":3470:3472   */\n      0x24\n        /* \"#utility.yul\":3465:3468   */\n      dup4\n        /* \"#utility.yul\":3406:3473   */\n      tag_144\n      jump\t// in\n    tag_169:\n        /* \"#utility.yul\":3399:3473   */\n      swap2\n      pop\n        /* \"#utility.yul\":3482:3575   */\n      tag_170\n        /* \"#utility.yul\":3571:3574   */\n      dup3\n        /* \"#utility.yul\":3482:3575   */\n      tag_171\n      jump\t// in\n    tag_170:\n        /* \"#utility.yul\":3600:3602   */\n      0x40\n        /* \"#utility.yul\":3595:3598   */\n      dup3\n        /* \"#utility.yul\":3591:3603   */\n      add\n        /* \"#utility.yul\":3584:3603   */\n      swap1\n      pop\n        /* \"#utility.yul\":3243:3609   */\n      swap2\n      swap1\n      pop\n      jump\t// out\n        /* \"#utility.yul\":3615:3981   */\n    tag_172:\n        /* \"#utility.yul\":3757:3760   */\n      0x00\n        /* \"#utility.yul\":3778:3845   */\n      tag_174\n        /* \"#utility.yul\":3842:3844   */\n      0x32\n        /* \"#utility.yul\":3837:3840   */\n      dup4\n        /* \"#utility.yul\":3778:3845   */\n      tag_144\n      jump\t// in\n    tag_174:\n        /* \"#utility.yul\":3771:3845   */\n      swap2\n      pop\n        /* \"#utility.yul\":3854:3947   */\n      tag_175\n        /* \"#utility.yul\":3943:3946   */\n      dup3\n        /* \"#utility.yul\":3854:3947   */\n      tag_176\n      jump\t// in\n    tag_175:\n        /* \"#utility.yul\":3972:3974   */\n      0x40\n        /* \"#utility.yul\":3967:3970   */\n      dup3\n        /* \"#utility.yul\":3963:3975   */\n      add\n        /* \"#utility.yul\":3956:3975   */\n      swap1\n      pop\n        /* \"#utility.yul\":3615:3981   */\n      swap2\n      swap1\n      pop\n      jump\t// out\n        /* \"#utility.yul\":3987:4105   */\n    tag_177:\n        /* \"#utility.yul\":4074:4098   */\n      tag_179\n        /* \"#utility.yul\":4092:4097   */\n      dup2\n        /* \"#utility.yul\":4074:4098   */\n      tag_180\n      jump\t// in\n    tag_179:\n        /* \"#utility.yul\":4069:4072   */\n      dup3\n        /* \"#utility.yul\":4062:4099   */\n      mstore\n        /* \"#utility.yul\":3987:4105   */\n      pop\n      pop\n      jump\t// out\n        /* \"#utility.yul\":4111:4365   */\n    tag_42:\n        /* \"#utility.yul\":4220:4224   */\n      0x00\n        /* \"#utility.yul\":4258:4260   */\n      0x20\n        /* \"#utility.yul\":4247:4256   */\n      dup3\n        /* \"#utility.yul\":4243:4261   */\n      add\n        /* \"#utility.yul\":4235:4261   */\n      swap1\n      pop\n        /* \"#utility.yul\":4271:4358   */\n      tag_182\n        /* \"#utility.yul\":4355:4356   */\n      0x00\n        /* \"#utility.yul\":4344:4353   */\n      dup4\n        /* \"#utility.yul\":4340:4357   */\n      add\n        /* \"#utility.yul\":4331:4337   */\n      dup5\n        /* \"#utility.yul\":4271:4358   */\n      tag_133\n      jump\t// in\n    tag_182:\n        /* \"#utility.yul\":4111:4365   */\n      swap3\n      swap2\n      pop\n      pop\n      jump\t// out\n        /* \"#utility.yul\":4371:4900   */\n    tag_61:\n        /* \"#utility.yul\":4565:4569   */\n      0x00\n        /* \"#utility.yul\":4603:4605   */\n      0x40\n        /* \"#utility.yul\":4592:4601   */\n      dup3\n        /* \"#utility.yul\":4588:4606   */\n      add\n        /* \"#utility.yul\":4580:4606   */\n      swap1\n      pop\n        /* \"#utility.yul\":4652:4661   */\n      dup2\n        /* \"#utility.yul\":4646:4650   */\n      dup2\n        /* \"#utility.yul\":4642:4662   */\n      sub\n        /* \"#utility.yul\":4638:4639   */\n      0x00\n        /* \"#utility.yul\":4627:4636   */\n      dup4\n        /* \"#utility.yul\":4623:4640   */\n      add\n        /* \"#utility.yul\":4616:4663   */\n      mstore\n        /* \"#utility.yul\":4680:4811   */\n      tag_184\n        /* \"#utility.yul\":4806:4810   */\n      dup2\n        /* \"#utility.yul\":4680:4811   */\n      tag_141\n      jump\t// in\n    tag_184:\n        /* \"#utility.yul\":4672:4811   */\n      swap1\n      pop\n        /* \"#utility.yul\":4821:4893   */\n      tag_185\n        /* \"#utility.yul\":4889:4891   */\n      0x20\n        /* \"#utility.yul\":4878:4887   */\n      dup4\n        /* \"#utility.yul\":4874:4892   */\n      add\n        /* \"#utility.yul\":4865:4871   */\n      dup5\n        /* \"#utility.yul\":4821:4893   */\n      tag_137\n      jump\t// in\n    tag_185:\n        /* \"#utility.yul\":4371:4900   */\n      swap3\n      swap2\n      pop\n      pop\n      jump\t// out\n        /* \"#utility.yul\":4906:5325   */\n    tag_71:\n        /* \"#utility.yul\":5072:5076   */\n      0x00\n        /* \"#utility.yul\":5110:5112   */\n      0x20\n        /* \"#utility.yul\":5099:5108   */\n      dup3\n        /* \"#utility.yul\":5095:5113   */\n      add\n        /* \"#utility.yul\":5087:5113   */\n      swap1\n      pop\n        /* \"#utility.yul\":5159:5168   */\n      dup2\n        /* \"#utility.yul\":5153:5157   */\n      dup2\n        /* \"#utility.yul\":5149:5169   */\n      sub\n        /* \"#utility.yul\":5145:5146   */\n      0x00\n        /* \"#utility.yul\":5134:5143   */\n      dup4\n        /* \"#utility.yul\":5130:5147   */\n      add\n        /* \"#utility.yul\":5123:5170   */\n      mstore\n        /* \"#utility.yul\":5187:5318   */\n      tag_187\n        /* \"#utility.yul\":5313:5317   */\n      dup2\n        /* \"#utility.yul\":5187:5318   */\n      tag_147\n      jump\t// in\n    tag_187:\n        /* \"#utility.yul\":5179:5318   */\n      swap1\n      pop\n        /* \"#utility.yul\":4906:5325   */\n      swap2\n      swap1\n      pop\n      jump\t// out\n        /* \"#utility.yul\":5331:5750   */\n    tag_93:\n        /* \"#utility.yul\":5497:5501   */\n      0x00\n        /* \"#utility.yul\":5535:5537   */\n      0x20\n        /* \"#utility.yul\":5524:5533   */\n      dup3\n        /* \"#utility.yul\":5520:5538   */\n      add\n        /* \"#utility.yul\":5512:5538   */\n      swap1\n      pop\n        /* \"#utility.yul\":5584:5593   */\n      dup2\n        /* \"#utility.yul\":5578:5582   */\n      dup2\n        /* \"#utility.yul\":5574:5594   */\n      sub\n        /* \"#utility.yul\":5570:5571   */\n      0x00\n        /* \"#utility.yul\":5559:5568   */\n      dup4\n        /* \"#utility.yul\":5555:5572   */\n      add\n        /* \"#utility.yul\":5548:5595   */\n      mstore\n        /* \"#utility.yul\":5612:5743   */\n      tag_189\n        /* \"#utility.yul\":5738:5742   */\n      dup2\n        /* \"#utility.yul\":5612:5743   */\n      tag_152\n      jump\t// in\n    tag_189:\n        /* \"#utility.yul\":5604:5743   */\n      swap1\n      pop\n        /* \"#utility.yul\":5331:5750   */\n      swap2\n      swap1\n      pop\n      jump\t// out\n        /* \"#utility.yul\":5756:6175   */\n    tag_65:\n        /* \"#utility.yul\":5922:5926   */\n      0x00\n        /* \"#utility.yul\":5960:5962   */\n      0x20\n        /* \"#utility.yul\":5949:5958   */\n      dup3\n        /* \"#utility.yul\":5945:5963   */\n      add\n        /* \"#utility.yul\":5937:5963   */\n      swap1\n      pop\n        /* \"#utility.yul\":6009:6018   */\n      dup2\n        /* \"#utility.yul\":6003:6007   */\n      dup2\n        /* \"#utility.yul\":5999:6019   */\n      sub\n        /* \"#utility.yul\":5995:5996   */\n      0x00\n        /* \"#utility.yul\":5984:5993   */\n      dup4\n        /* \"#utility.yul\":5980:5997   */\n      add\n        /* \"#utility.yul\":5973:6020   */\n      mstore\n        /* \"#utility.yul\":6037:6168   */\n      tag_191\n        /* \"#utility.yul\":6163:6167   */\n      dup2\n        /* \"#utility.yul\":6037:6168   */\n      tag_157\n      jump\t// in\n    tag_191:\n        /* \"#utility.yul\":6029:6168   */\n      swap1\n      pop\n        /* \"#utility.yul\":5756:6175   */\n      swap2\n      swap1\n      pop\n      jump\t// out\n        /* \"#utility.yul\":6181:6710   */\n    tag_97:\n        /* \"#utility.yul\":6375:6379   */\n      0x00\n        /* \"#utility.yul\":6413:6415   */\n      0x40\n        /* \"#utility.yul\":6402:6411   */\n      dup3\n        /* \"#utility.yul\":6398:6416   */\n      add\n        /* \"#utility.yul\":6390:6416   */\n      swap1\n      pop\n        /* \"#utility.yul\":6462:6471   */\n      dup2\n        /* \"#utility.yul\":6456:6460   */\n      dup2\n        /* \"#utility.yul\":6452:6472   */\n      sub\n        /* \"#utility.yul\":6448:6449   */\n      0x00\n        /* \"#utility.yul\":6437:6446   */\n      dup4\n        /* \"#utility.yul\":6433:6450   */\n      add\n        /* \"#utility.yul\":6426:6473   */\n      mstore\n        /* \"#utility.yul\":6490:6621   */\n      tag_193\n        /* \"#utility.yul\":6616:6620   */\n      dup2\n        /* \"#utility.yul\":6490:6621   */\n      tag_162\n      jump\t// in\n    tag_193:\n        /* \"#utility.yul\":6482:6621   */\n      swap1\n      pop\n        /* \"#utility.yul\":6631:6703   */\n      tag_194\n        /* \"#utility.yul\":6699:6701   */\n      0x20\n        /* \"#utility.yul\":6688:6697   */\n      dup4\n        /* \"#utility.yul\":6684:6702   */\n      add\n        /* \"#utility.yul\":6675:6681   */\n      dup5\n        /* \"#utility.yul\":6631:6703   */\n      tag_137\n      jump\t// in\n    tag_194:\n        /* \"#utility.yul\":6181:6710   */\n      swap3\n      swap2\n      pop\n      pop\n      jump\t// out\n        /* \"#utility.yul\":6716:7135   */\n    tag_78:\n        /* \"#utility.yul\":6882:6886   */\n      0x00\n        /* \"#utility.yul\":6920:6922   */\n      0x20\n        /* \"#utility.yul\":6909:6918   */\n      dup3\n        /* \"#utility.yul\":6905:6923   */\n      add\n        /* \"#utility.yul\":6897:6923   */\n      swap1\n      pop\n        /* \"#utility.yul\":6969:6978   */\n      dup2\n        /* \"#utility.yul\":6963:6967   */\n      dup2\n        /* \"#utility.yul\":6959:6979   */\n      sub\n        /* \"#utility.yul\":6955:6956   */\n      0x00\n        /* \"#utility.yul\":6944:6953   */\n      dup4\n        /* \"#utility.yul\":6940:6957   */\n      add\n        /* \"#utility.yul\":6933:6980   */\n      mstore\n        /* \"#utility.yul\":6997:7128   */\n      tag_196\n        /* \"#utility.yul\":7123:7127   */\n      dup2\n        /* \"#utility.yul\":6997:7128   */\n      tag_167\n      jump\t// in\n    tag_196:\n        /* \"#utility.yul\":6989:7128   */\n      swap1\n      pop\n        /* \"#utility.yul\":6716:7135   */\n      swap2\n      swap1\n      pop\n      jump\t// out\n        /* \"#utility.yul\":7141:7560   */\n    tag_87:\n        /* \"#utility.yul\":7307:7311   */\n      0x00\n        /* \"#utility.yul\":7345:7347   */\n      0x20\n        /* \"#utility.yul\":7334:7343   */\n      dup3\n        /* \"#utility.yul\":7330:7348   */\n      add\n        /* \"#utility.yul\":7322:7348   */\n      swap1\n      pop\n        /* \"#utility.yul\":7394:7403   */\n      dup2\n        /* \"#utility.yul\":7388:7392   */\n      dup2\n        /* \"#utility.yul\":7384:7404   */\n      sub\n        /* \"#utility.yul\":7380:7381   */\n      0x00\n        /* \"#utility.yul\":7369:7378   */\n      dup4\n        /* \"#utility.yul\":7365:7382   */\n      add\n        /* \"#utility.yul\":7358:7405   */\n      mstore\n        /* \"#utility.yul\":7422:7553   */\n      tag_198\n        /* \"#utility.yul\":7548:7552   */\n      dup2\n        /* \"#utility.yul\":7422:7553   */\n      tag_172\n      jump\t// in\n    tag_198:\n        /* \"#utility.yul\":7414:7553   */\n      swap1\n      pop\n        /* \"#utility.yul\":7141:7560   */\n      swap2\n      swap1\n      pop\n      jump\t// out\n        /* \"#utility.yul\":7566:7788   */\n    tag_28:\n        /* \"#utility.yul\":7659:7663   */\n      0x00\n        /* \"#utility.yul\":7697:7699   */\n      0x20\n        /* \"#utility.yul\":7686:7695   */\n      dup3\n        /* \"#utility.yul\":7682:7700   */\n      add\n        /* \"#utility.yul\":7674:7700   */\n      swap1\n      pop\n        /* \"#utility.yul\":7710:7781   */\n      tag_200\n        /* \"#utility.yul\":7778:7779   */\n      0x00\n        /* \"#utility.yul\":7767:7776   */\n      dup4\n        /* \"#utility.yul\":7763:7780   */\n      add\n        /* \"#utility.yul\":7754:7760   */\n      dup5\n        /* \"#utility.yul\":7710:7781   */\n      tag_177\n      jump\t// in\n    tag_200:\n        /* \"#utility.yul\":7566:7788   */\n      swap3\n      swap2\n      pop\n      pop\n      jump\t// out\n        /* \"#utility.yul\":7875:8044   */\n    tag_144:\n        /* \"#utility.yul\":7959:7970   */\n      0x00\n        /* \"#utility.yul\":7993:7999   */\n      dup3\n        /* \"#utility.yul\":7988:7991   */\n      dup3\n        /* \"#utility.yul\":7981:8000   */\n      mstore\n        /* \"#utility.yul\":8033:8037   */\n      0x20\n        /* \"#utility.yul\":8028:8031   */\n      dup3\n        /* \"#utility.yul\":8024:8038   */\n      add\n        /* \"#utility.yul\":8009:8038   */\n      swap1\n      pop\n        /* \"#utility.yul\":7875:8044   */\n      swap3\n      swap2\n      pop\n      pop\n      jump\t// out\n        /* \"#utility.yul\":8050:8355   */\n    tag_84:\n        /* \"#utility.yul\":8090:8093   */\n      0x00\n        /* \"#utility.yul\":8109:8129   */\n      tag_205\n        /* \"#utility.yul\":8127:8128   */\n      dup3\n        /* \"#utility.yul\":8109:8129   */\n      tag_180\n      jump\t// in\n    tag_205:\n        /* \"#utility.yul\":8104:8129   */\n      swap2\n      pop\n        /* \"#utility.yul\":8143:8163   */\n      tag_206\n        /* \"#utility.yul\":8161:8162   */\n      dup4\n        /* \"#utility.yul\":8143:8163   */\n      tag_180\n      jump\t// in\n    tag_206:\n        /* \"#utility.yul\":8138:8163   */\n      swap3\n      pop\n        /* \"#utility.yul\":8297:8298   */\n      dup3\n        /* \"#utility.yul\":8229:8295   */\n      0xffffffffffffffffffffffffffffffffffffffffffffffffffffffffffffffff\n        /* \"#utility.yul\":8225:8299   */\n      sub\n        /* \"#utility.yul\":8222:8223   */\n      dup3\n        /* \"#utility.yul\":8219:8300   */\n      gt\n        /* \"#utility.yul\":8216:8323   */\n      iszero\n      tag_207\n      jumpi\n        /* \"#utility.yul\":8303:8321   */\n      tag_208\n      tag_209\n      jump\t// in\n    tag_208:\n        /* \"#utility.yul\":8216:8323   */\n    tag_207:\n        /* \"#utility.yul\":8347:8348   */\n      dup3\n        /* \"#utility.yul\":8344:8345   */\n      dup3\n        /* \"#utility.yul\":8340:8349   */\n      add\n        /* \"#utility.yul\":8333:8349   */\n      swap1\n      pop\n        /* \"#utility.yul\":8050:8355   */\n      swap3\n      swap2\n      pop\n      pop\n      jump\t// out\n        /* \"#utility.yul\":8361:8546   */\n    tag_107:\n        /* \"#utility.yul\":8401:8402   */\n      0x00\n        /* \"#utility.yul\":8418:8438   */\n      tag_211\n        /* \"#utility.yul\":8436:8437   */\n      dup3\n        /* \"#utility.yul\":8418:8438   */\n      tag_180\n      jump\t// in\n    tag_211:\n        /* \"#utility.yul\":8413:8438   */\n      swap2\n      pop\n        /* \"#utility.yul\":8452:8472   */\n      tag_212\n        /* \"#utility.yul\":8470:8471   */\n      dup4\n        /* \"#utility.yul\":8452:8472   */\n      tag_180\n      jump\t// in\n    tag_212:\n        /* \"#utility.yul\":8447:8472   */\n      swap3\n      pop\n        /* \"#utility.yul\":8491:8492   */\n      dup3\n        /* \"#utility.yul\":8481:8516   */\n      tag_213\n      jumpi\n        /* \"#utility.yul\":8496:8514   */\n      tag_214\n      tag_215\n      jump\t// in\n    tag_214:\n        /* \"#utility.yul\":8481:8516   */\n    tag_213:\n        /* \"#utility.yul\":8538:8539   */\n      dup3\n        /* \"#utility.yul\":8535:8536   */\n      dup3\n        /* \"#utility.yul\":8531:8540   */\n      div\n        /* \"#utility.yul\":8526:8540   */\n      swap1\n      pop\n        /* \"#utility.yul\":8361:8546   */\n      swap3\n      swap2\n      pop\n      pop\n      jump\t// out\n        /* \"#utility.yul\":8552:8900   */\n    tag_110:\n        /* \"#utility.yul\":8592:8599   */\n      0x00\n        /* \"#utility.yul\":8615:8635   */\n      tag_217\n        /* \"#utility.yul\":8633:8634   */\n      dup3\n        /* \"#utility.yul\":8615:8635   */\n      tag_180\n      jump\t// in\n    tag_217:\n        /* \"#utility.yul\":8610:8635   */\n      swap2\n      pop\n        /* \"#utility.yul\":8649:8669   */\n      tag_218\n        /* \"#utility.yul\":8667:8668   */\n      dup4\n        /* \"#utility.yul\":8649:8669   */\n      tag_180\n      jump\t// in\n    tag_218:\n        /* \"#utility.yul\":8644:8669   */\n      swap3\n      pop\n        /* \"#utility.yul\":8837:8838   */\n      dup2\n        /* \"#utility.yul\":8769:8835   */\n      0xffffffffffffffffffffffffffffffffffffffffffffffffffffffffffffffff\n        /* \"#utility.yul\":8765:8839   */\n      div\n        /* \"#utility.yul\":8762:8763   */\n      dup4\n        /* \"#utility.yul\":8759:8840   */\n      gt\n        /* \"#utility.yul\":8754:8755   */\n      dup3\n        /* \"#utility.yul\":8747:8756   */\n      iszero\n        /* \"#utility.yul\":8740:8757   */\n      iszero\n        /* \"#utility.yul\":8736:8841   */\n      and\n        /* \"#utility.yul\":8733:8864   */\n      iszero\n      tag_219\n      jumpi\n        /* \"#utility.yul\":8844:8862   */\n      tag_220\n      tag_209\n      jump\t// in\n    tag_220:\n        /* \"#utility.yul\":8733:8864   */\n    tag_219:\n        /* \"#utility.yul\":8892:8893   */\n      dup3\n        /* \"#utility.yul\":8889:8890   */\n      dup3\n        /* \"#utility.yul\":8885:8894   */\n      mul\n        /* \"#utility.yul\":8874:8894   */\n      swap1\n      pop\n        /* \"#utility.yul\":8552:8900   */\n      swap3\n      swap2\n      pop\n      pop\n      jump\t// out\n        /* \"#utility.yul\":8906:9097   */\n    tag_74:\n        /* \"#utility.yul\":8946:8950   */\n      0x00\n        /* \"#utility.yul\":8966:8986   */\n      tag_222\n        /* \"#utility.yul\":8984:8985   */\n      dup3\n        /* \"#utility.yul\":8966:8986   */\n      tag_180\n      jump\t// in\n    tag_222:\n        /* \"#utility.yul\":8961:8986   */\n      swap2\n      pop\n        /* \"#utility.yul\":9000:9020   */\n      tag_223\n        /* \"#utility.yul\":9018:9019   */\n      dup4\n        /* \"#utility.yul\":9000:9020   */\n      tag_180\n      jump\t// in\n    tag_223:\n        /* \"#utility.yul\":8995:9020   */\n      swap3\n      pop\n        /* \"#utility.yul\":9039:9040   */\n      dup3\n        /* \"#utility.yul\":9036:9037   */\n      dup3\n        /* \"#utility.yul\":9033:9041   */\n      lt\n        /* \"#utility.yul\":9030:9064   */\n      iszero\n      tag_224\n      jumpi\n        /* \"#utility.yul\":9044:9062   */\n      tag_225\n      tag_209\n      jump\t// in\n    tag_225:\n        /* \"#utility.yul\":9030:9064   */\n    tag_224:\n        /* \"#utility.yul\":9089:9090   */\n      dup3\n        /* \"#utility.yul\":9086:9087   */\n      dup3\n        /* \"#utility.yul\":9082:9091   */\n      sub\n        /* \"#utility.yul\":9074:9091   */\n      swap1\n      pop\n        /* \"#utility.yul\":8906:9097   */\n      swap3\n      swap2\n      pop\n      pop\n      jump\t// out\n        /* \"#utility.yul\":9103:9199   */\n    tag_140:\n        /* \"#utility.yul\":9140:9147   */\n      0x00\n        /* \"#utility.yul\":9169:9193   */\n      tag_227\n        /* \"#utility.yul\":9187:9192   */\n      dup3\n        /* \"#utility.yul\":9169:9193   */\n      tag_228\n      jump\t// in\n    tag_227:\n        /* \"#utility.yul\":9158:9193   */\n      swap1\n      pop\n        /* \"#utility.yul\":9103:9199   */\n      swap2\n      swap1\n      pop\n      jump\t// out\n        /* \"#utility.yul\":9205:9309   */\n    tag_136:\n        /* \"#utility.yul\":9250:9257   */\n      0x00\n        /* \"#utility.yul\":9279:9303   */\n      tag_230\n        /* \"#utility.yul\":9297:9302   */\n      dup3\n        /* \"#utility.yul\":9279:9303   */\n      tag_228\n      jump\t// in\n    tag_230:\n        /* \"#utility.yul\":9268:9303   */\n      swap1\n      pop\n        /* \"#utility.yul\":9205:9309   */\n      swap2\n      swap1\n      pop\n      jump\t// out\n        /* \"#utility.yul\":9315:9441   */\n    tag_228:\n        /* \"#utility.yul\":9352:9359   */\n      0x00\n        /* \"#utility.yul\":9392:9434   */\n      0xffffffffffffffffffffffffffffffffffffffff\n        /* \"#utility.yul\":9385:9390   */\n      dup3\n        /* \"#utility.yul\":9381:9435   */\n      and\n        /* \"#utility.yul\":9370:9435   */\n      swap1\n      pop\n        /* \"#utility.yul\":9315:9441   */\n      swap2\n      swap1\n      pop\n      jump\t// out\n        /* \"#utility.yul\":9447:9524   */\n    tag_180:\n        /* \"#utility.yul\":9484:9491   */\n      0x00\n        /* \"#utility.yul\":9513:9518   */\n      dup2\n        /* \"#utility.yul\":9502:9518   */\n      swap1\n      pop\n        /* \"#utility.yul\":9447:9524   */\n      swap2\n      swap1\n      pop\n      jump\t// out\n        /* \"#utility.yul\":9530:9710   */\n    tag_209:\n        /* \"#utility.yul\":9578:9655   */\n      0x4e487b7100000000000000000000000000000000000000000000000000000000\n        /* \"#utility.yul\":9575:9576   */\n      0x00\n        /* \"#utility.yul\":9568:9656   */\n      mstore\n        /* \"#utility.yul\":9675:9679   */\n      0x11\n        /* \"#utility.yul\":9672:9673   */\n      0x04\n        /* \"#utility.yul\":9665:9680   */\n      mstore\n        /* \"#utility.yul\":9699:9703   */\n      0x24\n        /* \"#utility.yul\":9696:9697   */\n      0x00\n        /* \"#utility.yul\":9689:9704   */\n      revert\n        /* \"#utility.yul\":9716:9896   */\n    tag_215:\n        /* \"#utility.yul\":9764:9841   */\n      0x4e487b7100000000000000000000000000000000000000000000000000000000\n        /* \"#utility.yul\":9761:9762   */\n      0x00\n        /* \"#utility.yul\":9754:9842   */\n      mstore\n        /* \"#utility.yul\":9861:9865   */\n      0x12\n        /* \"#utility.yul\":9858:9859   */\n      0x04\n        /* \"#utility.yul\":9851:9866   */\n      mstore\n        /* \"#utility.yul\":9885:9889   */\n      0x24\n        /* \"#utility.yul\":9882:9883   */\n      0x00\n        /* \"#utility.yul\":9875:9890   */\n      revert\n        /* \"#utility.yul\":10025:10142   */\n    tag_126:\n        /* \"#utility.yul\":10134:10135   */\n      0x00\n        /* \"#utility.yul\":10131:10132   */\n      dup1\n        /* \"#utility.yul\":10124:10136   */\n      revert\n        /* \"#utility.yul\":10148:10317   */\n    tag_146:\n        /* \"#utility.yul\":10288:10309   */\n      0x4d6f6e6579207769746864726177656e20746f00000000000000000000000000\n        /* \"#utility.yul\":10284:10285   */\n      0x00\n        /* \"#utility.yul\":10276:10282   */\n      dup3\n        /* \"#utility.yul\":10272:10286   */\n      add\n        /* \"#utility.yul\":10265:10310   */\n      mstore\n        /* \"#utility.yul\":10148:10317   */\n      pop\n      jump\t// out\n        /* \"#utility.yul\":10323:10505   */\n    tag_151:\n        /* \"#utility.yul\":10463:10497   */\n      0x596f7520646f6e2774206861766520616e79206d6f6e657920696e2068657265\n        /* \"#utility.yul\":10459:10460   */\n      0x00\n        /* \"#utility.yul\":10451:10457   */\n      dup3\n        /* \"#utility.yul\":10447:10461   */\n      add\n        /* \"#utility.yul\":10440:10498   */\n      mstore\n        /* \"#utility.yul\":10323:10505   */\n      pop\n      jump\t// out\n        /* \"#utility.yul\":10511:10685   */\n    tag_156:\n        /* \"#utility.yul\":10651:10677   */\n      0x4d696e696d756d20312045746865722052657175697265640000000000000000\n        /* \"#utility.yul\":10647:10648   */\n      0x00\n        /* \"#utility.yul\":10639:10645   */\n      dup3\n        /* \"#utility.yul\":10635:10649   */\n      add\n        /* \"#utility.yul\":10628:10678   */\n      mstore\n        /* \"#utility.yul\":10511:10685   */\n      pop\n      jump\t// out\n        /* \"#utility.yul\":10691:10914   */\n    tag_161:\n        /* \"#utility.yul\":10831:10865   */\n      0x596f7520646f6e27742068617665206e6f2070656e64696e6720776974686472\n        /* \"#utility.yul\":10827:10828   */\n      0x00\n        /* \"#utility.yul\":10819:10825   */\n      dup3\n        /* \"#utility.yul\":10815:10829   */\n      add\n        /* \"#utility.yul\":10808:10866   */\n      mstore\n        /* \"#utility.yul\":10900:10906   */\n      0x61776c7300000000000000000000000000000000000000000000000000000000\n        /* \"#utility.yul\":10895:10897   */\n      0x20\n        /* \"#utility.yul\":10887:10893   */\n      dup3\n        /* \"#utility.yul\":10883:10898   */\n      add\n        /* \"#utility.yul\":10876:10907   */\n      mstore\n        /* \"#utility.yul\":10691:10914   */\n      pop\n      jump\t// out\n        /* \"#utility.yul\":10920:11076   */\n    tag_166:\n        /* \"#utility.yul\":11060:11068   */\n      0x7374616b65640000000000000000000000000000000000000000000000000000\n        /* \"#utility.yul\":11056:11057   */\n      0x00\n        /* \"#utility.yul\":11048:11054   */\n      dup3\n        /* \"#utility.yul\":11044:11058   */\n      add\n        /* \"#utility.yul\":11037:11069   */\n      mstore\n        /* \"#utility.yul\":10920:11076   */\n      pop\n      jump\t// out\n        /* \"#utility.yul\":11082:11305   */\n    tag_171:\n        /* \"#utility.yul\":11222:11256   */\n      0x596f752073686f756c642061746c65617374207374616b6520666f722061206d\n        /* \"#utility.yul\":11218:11219   */\n      0x00\n        /* \"#utility.yul\":11210:11216   */\n      dup3\n        /* \"#utility.yul\":11206:11220   */\n      add\n        /* \"#utility.yul\":11199:11257   */\n      mstore\n        /* \"#utility.yul\":11291:11297   */\n      0x6f6e747900000000000000000000000000000000000000000000000000000000\n        /* \"#utility.yul\":11286:11288   */\n      0x20\n        /* \"#utility.yul\":11278:11284   */\n      dup3\n        /* \"#utility.yul\":11274:11289   */\n      add\n        /* \"#utility.yul\":11267:11298   */\n      mstore\n        /* \"#utility.yul\":11082:11305   */\n      pop\n      jump\t// out\n        /* \"#utility.yul\":11311:11548   */\n    tag_176:\n        /* \"#utility.yul\":11451:11485   */\n      0x536f72727920776520646f6e2774206861766520656e6f756768206d6f6e6579\n        /* \"#utility.yul\":11447:11448   */\n      0x00\n        /* \"#utility.yul\":11439:11445   */\n      dup3\n        /* \"#utility.yul\":11435:11449   */\n      add\n        /* \"#utility.yul\":11428:11486   */\n      mstore\n        /* \"#utility.yul\":11520:11540   */\n      0x20736f20636f6d656261636b206c617465720000000000000000000000000000\n        /* \"#utility.yul\":11515:11517   */\n      0x20\n        /* \"#utility.yul\":11507:11513   */\n      dup3\n        /* \"#utility.yul\":11503:11518   */\n      add\n        /* \"#utility.yul\":11496:11541   */\n      mstore\n        /* \"#utility.yul\":11311:11548   */\n      pop\n      jump\t// out\n        /* \"#utility.yul\":11554:11676   */\n    tag_118:\n        /* \"#utility.yul\":11627:11651   */\n      tag_246\n        /* \"#utility.yul\":11645:11650   */\n      dup2\n        /* \"#utility.yul\":11627:11651   */\n      tag_140\n      jump\t// in\n    tag_246:\n        /* \"#utility.yul\":11620:11625   */\n      dup2\n        /* \"#utility.yul\":11617:11652   */\n      eq\n        /* \"#utility.yul\":11607:11670   */\n      tag_247\n      jumpi\n        /* \"#utility.yul\":11666:11667   */\n      0x00\n        /* \"#utility.yul\":11663:11664   */\n      dup1\n        /* \"#utility.yul\":11656:11668   */\n      revert\n        /* \"#utility.yul\":11607:11670   */\n    tag_247:\n        /* \"#utility.yul\":11554:11676   */\n      pop\n      jump\t// out\n        /* \"#utility.yul\":11682:11804   */\n    tag_122:\n        /* \"#utility.yul\":11755:11779   */\n      tag_249\n        /* \"#utility.yul\":11773:11778   */\n      dup2\n        /* \"#utility.yul\":11755:11779   */\n      tag_180\n      jump\t// in\n    tag_249:\n        /* \"#utility.yul\":11748:11753   */\n      dup2\n        /* \"#utility.yul\":11745:11780   */\n      eq\n        /* \"#utility.yul\":11735:11798   */\n      tag_250\n      jumpi\n        /* \"#utility.yul\":11794:11795   */\n      0x00\n        /* \"#utility.yul\":11791:11792   */\n      dup1\n        /* \"#utility.yul\":11784:11796   */\n      revert\n        /* \"#utility.yul\":11735:11798   */\n    tag_250:\n        /* \"#utility.yul\":11682:11804   */\n      pop\n      jump\t// out\n\n    auxdata: 0xa2646970667358221220ad0813006d8784dfd1ce23108a5df77ef2ec548e860cae65a54a57b2f109358864736f6c63430008070033\n}\n",
				"bytecode": {
					"linkReferences": {},
					"object": "6080604052670de0b6b3a76400006000553480156200001d57600080fd5b5033600160006101000a81548173ffffffffffffffffffffffffffffffffffffffff021916908373ffffffffffffffffffffffffffffffffffffffff1602179055507ff67e7992d539193fc243c42fe89f8fab49013e8e4fb18cfa891dc51adcaccc8033604051620000909190620000d6565b60405180910390a162000176565b620000a98162000119565b82525050565b6000620000be60148362000108565b9150620000cb826200014d565b602082019050919050565b60006040820190508181036000830152620000f181620000af565b90506200010260208301846200009e565b92915050565b600082825260208201905092915050565b600062000126826200012d565b9050919050565b600073ffffffffffffffffffffffffffffffffffffffff82169050919050565b7f4c656e64696e6720706f6f6c2063726561746564000000000000000000000000600082015250565b61105a80620001866000396000f3fe60806040526004361061008a5760003560e01c80636e1dc66e116100595780636e1dc66e146101085780638da5cb5b14610145578063aeae177c14610170578063d0e30db0146101ad578063f9931855146101b757610091565b80633607999b1461009357806356852391146100af578063650fad76146100c65780636e0e0da2146100f157610091565b3661009157005b005b6100ad60048036038101906100a891906109fa565b6101f4565b005b3480156100bb57600080fd5b506100c46102df565b005b3480156100d257600080fd5b506100db610434565b6040516100e89190610c73565b60405180910390f35b3480156100fd57600080fd5b5061010661043a565b005b34801561011457600080fd5b5061012f600480360381019061012a91906109cd565b610723565b60405161013c9190610c73565b60405180910390f35b34801561015157600080fd5b5061015a61073b565b6040516101679190610b5c565b60405180910390f35b34801561017c57600080fd5b50610197600480360381019061019291906109cd565b610761565b6040516101a49190610c73565b60405180910390f35b6101b5610779565b005b3480156101c357600080fd5b506101de60048036038101906101d991906109cd565b6108eb565b6040516101eb9190610c73565b60405180910390f35b6102098260025461090390919063ffffffff16565b60028190555061026182600660008473ffffffffffffffffffffffffffffffffffffffff1673ffffffffffffffffffffffffffffffffffffffff1681526020019081526020016000205461092690919063ffffffff16565b600660008373ffffffffffffffffffffffffffffffffffffffff1673ffffffffffffffffffffffffffffffffffffffff168152602001908152602001600020819055507ff67e7992d539193fc243c42fe89f8fab49013e8e4fb18cfa891dc51adcaccc80816040516102d39190610b77565b60405180910390a15050565b6000600660003373ffffffffffffffffffffffffffffffffffffffff1673ffffffffffffffffffffffffffffffffffffffff1681526020019081526020016000205411610361576040517f08c379a000000000000000000000000000000000000000000000000000000000815260040161035890610be5565b60405180910390fd5b6000600660003373ffffffffffffffffffffffffffffffffffffffff1673ffffffffffffffffffffffffffffffffffffffff1681526020019081526020016000205490506000600660003373ffffffffffffffffffffffffffffffffffffffff1673ffffffffffffffffffffffffffffffffffffffff168152602001908152602001600020819055503373ffffffffffffffffffffffffffffffffffffffff166108fc829081150290604051600060405180830381858888f19350505050158015610430573d6000803e3d6000fd5b5050565b60005481565b6000600560003373ffffffffffffffffffffffffffffffffffffffff1673ffffffffffffffffffffffffffffffffffffffff16815260200190815260200160002054116104bc576040517f08c379a00000000000000000000000000000000000000000000000000000000081526004016104b390610ba5565b60405180910390fd5b600061051e6201518042600460003373ffffffffffffffffffffffffffffffffffffffff1673ffffffffffffffffffffffffffffffffffffffff168152602001908152602001600020546105109190610d80565b61094990919063ffffffff16565b905062278d008111610565576040517f08c379a000000000000000000000000000000000000000000000000000000000815260040161055c90610c33565b60405180910390fd5b60006105df60646105d1600560003373ffffffffffffffffffffffffffffffffffffffff1673ffffffffffffffffffffffffffffffffffffffff168152602001908152602001600020546105c360058761096b90919063ffffffff16565b61096b90919063ffffffff16565b61094990919063ffffffff16565b600560003373ffffffffffffffffffffffffffffffffffffffff1673ffffffffffffffffffffffffffffffffffffffff168152602001908152602001600020546106299190610c9f565b9050600254811061066f576040517f08c379a000000000000000000000000000000000000000000000000000000000815260040161066690610c53565b60405180910390fd5b6106848160025461090390919063ffffffff16565b6002819055506106dc81600660003373ffffffffffffffffffffffffffffffffffffffff1673ffffffffffffffffffffffffffffffffffffffff1681526020019081526020016000205461092690919063ffffffff16565b600660003373ffffffffffffffffffffffffffffffffffffffff1673ffffffffffffffffffffffffffffffffffffffff168152602001908152602001600020819055505050565b60046020528060005260406000206000915090505481565b600160009054906101000a900473ffffffffffffffffffffffffffffffffffffffff1681565b60066020528060005260406000206000915090505481565b6000543410156107be576040517f08c379a00000000000000000000000000000000000000000000000000000000081526004016107b590610bc5565b60405180910390fd5b42600460003373ffffffffffffffffffffffffffffffffffffffff1673ffffffffffffffffffffffffffffffffffffffff1681526020019081526020016000208190555061085434600560003373ffffffffffffffffffffffffffffffffffffffff1673ffffffffffffffffffffffffffffffffffffffff1681526020019081526020016000205461092690919063ffffffff16565b600560003373ffffffffffffffffffffffffffffffffffffffff1673ffffffffffffffffffffffffffffffffffffffff168152602001908152602001600020819055506108ac3460025461092690919063ffffffff16565b6002819055507ff67e7992d539193fc243c42fe89f8fab49013e8e4fb18cfa891dc51adcaccc80336040516108e19190610c05565b60405180910390a1565b60056020528060005260406000206000915090505481565b60008282111561091257600080fd5b818361091e9190610d80565b905092915050565b600081836109349190610c9f565b90508281101561094357600080fd5b92915050565b600080821161095757600080fd5b81836109639190610cf5565b905092915050565b600081836109799190610d26565b9050600083148061099457508183826109929190610cf5565b145b61099d57600080fd5b92915050565b6000813590506109b281610ff6565b92915050565b6000813590506109c78161100d565b92915050565b6000602082840312156109e3576109e2610e60565b5b60006109f1848285016109a3565b91505092915050565b60008060408385031215610a1157610a10610e60565b5b6000610a1f858286016109b8565b9250506020610a30858286016109a3565b9150509250929050565b610a4381610dc6565b82525050565b610a5281610db4565b82525050565b6000610a65601383610c8e565b9150610a7082610e65565b602082019050919050565b6000610a88602083610c8e565b9150610a9382610e8e565b602082019050919050565b6000610aab601883610c8e565b9150610ab682610eb7565b602082019050919050565b6000610ace602483610c8e565b9150610ad982610ee0565b604082019050919050565b6000610af1600683610c8e565b9150610afc82610f2f565b602082019050919050565b6000610b14602483610c8e565b9150610b1f82610f58565b604082019050919050565b6000610b37603283610c8e565b9150610b4282610fa7565b604082019050919050565b610b5681610df8565b82525050565b6000602082019050610b716000830184610a3a565b92915050565b60006040820190508181036000830152610b9081610a58565b9050610b9f6020830184610a49565b92915050565b60006020820190508181036000830152610bbe81610a7b565b9050919050565b60006020820190508181036000830152610bde81610a9e565b9050919050565b60006020820190508181036000830152610bfe81610ac1565b9050919050565b60006040820190508181036000830152610c1e81610ae4565b9050610c2d6020830184610a49565b92915050565b60006020820190508181036000830152610c4c81610b07565b9050919050565b60006020820190508181036000830152610c6c81610b2a565b9050919050565b6000602082019050610c886000830184610b4d565b92915050565b600082825260208201905092915050565b6000610caa82610df8565b9150610cb583610df8565b9250827fffffffffffffffffffffffffffffffffffffffffffffffffffffffffffffffff03821115610cea57610ce9610e02565b5b828201905092915050565b6000610d0082610df8565b9150610d0b83610df8565b925082610d1b57610d1a610e31565b5b828204905092915050565b6000610d3182610df8565b9150610d3c83610df8565b9250817fffffffffffffffffffffffffffffffffffffffffffffffffffffffffffffffff0483118215151615610d7557610d74610e02565b5b828202905092915050565b6000610d8b82610df8565b9150610d9683610df8565b925082821015610da957610da8610e02565b5b828203905092915050565b6000610dbf82610dd8565b9050919050565b6000610dd182610dd8565b9050919050565b600073ffffffffffffffffffffffffffffffffffffffff82169050919050565b6000819050919050565b7f4e487b7100000000000000000000000000000000000000000000000000000000600052601160045260246000fd5b7f4e487b7100000000000000000000000000000000000000000000000000000000600052601260045260246000fd5b600080fd5b7f4d6f6e6579207769746864726177656e20746f00000000000000000000000000600082015250565b7f596f7520646f6e2774206861766520616e79206d6f6e657920696e2068657265600082015250565b7f4d696e696d756d20312045746865722052657175697265640000000000000000600082015250565b7f596f7520646f6e27742068617665206e6f2070656e64696e672077697468647260008201527f61776c7300000000000000000000000000000000000000000000000000000000602082015250565b7f7374616b65640000000000000000000000000000000000000000000000000000600082015250565b7f596f752073686f756c642061746c65617374207374616b6520666f722061206d60008201527f6f6e747900000000000000000000000000000000000000000000000000000000602082015250565b7f536f72727920776520646f6e2774206861766520656e6f756768206d6f6e657960008201527f20736f20636f6d656261636b206c617465720000000000000000000000000000602082015250565b610fff81610db4565b811461100a57600080fd5b50565b61101681610df8565b811461102157600080fd5b5056fea2646970667358221220ad0813006d8784dfd1ce23108a5df77ef2ec548e860cae65a54a57b2f109358864736f6c63430008070033",
					"opcodes": "PUSH1 0x80 PUSH1 0x40 MSTORE PUSH8 0xDE0B6B3A7640000 PUSH1 0x0 SSTORE CALLVALUE DUP1 ISZERO PUSH3 0x1D JUMPI PUSH1 0x0 DUP1 REVERT JUMPDEST POP CALLER PUSH1 0x1 PUSH1 0x0 PUSH2 0x100 EXP DUP2 SLOAD DUP2 PUSH20 0xFFFFFFFFFFFFFFFFFFFFFFFFFFFFFFFFFFFFFFFF MUL NOT AND SWAP1 DUP4 PUSH20 0xFFFFFFFFFFFFFFFFFFFFFFFFFFFFFFFFFFFFFFFF AND MUL OR SWAP1 SSTORE POP PUSH32 0xF67E7992D539193FC243C42FE89F8FAB49013E8E4FB18CFA891DC51ADCACCC80 CALLER PUSH1 0x40 MLOAD PUSH3 0x90 SWAP2 SWAP1 PUSH3 0xD6 JUMP JUMPDEST PUSH1 0x40 MLOAD DUP1 SWAP2 SUB SWAP1 LOG1 PUSH3 0x176 JUMP JUMPDEST PUSH3 0xA9 DUP2 PUSH3 0x119 JUMP JUMPDEST DUP3 MSTORE POP POP JUMP JUMPDEST PUSH1 0x0 PUSH3 0xBE PUSH1 0x14 DUP4 PUSH3 0x108 JUMP JUMPDEST SWAP2 POP PUSH3 0xCB DUP3 PUSH3 0x14D JUMP JUMPDEST PUSH1 0x20 DUP3 ADD SWAP1 POP SWAP2 SWAP1 POP JUMP JUMPDEST PUSH1 0x0 PUSH1 0x40 DUP3 ADD SWAP1 POP DUP2 DUP2 SUB PUSH1 0x0 DUP4 ADD MSTORE PUSH3 0xF1 DUP2 PUSH3 0xAF JUMP JUMPDEST SWAP1 POP PUSH3 0x102 PUSH1 0x20 DUP4 ADD DUP5 PUSH3 0x9E JUMP JUMPDEST SWAP3 SWAP2 POP POP JUMP JUMPDEST PUSH1 0x0 DUP3 DUP3 MSTORE PUSH1 0x20 DUP3 ADD SWAP1 POP SWAP3 SWAP2 POP POP JUMP JUMPDEST PUSH1 0x0 PUSH3 0x126 DUP3 PUSH3 0x12D JUMP JUMPDEST SWAP1 POP SWAP2 SWAP1 POP JUMP JUMPDEST PUSH1 0x0 PUSH20 0xFFFFFFFFFFFFFFFFFFFFFFFFFFFFFFFFFFFFFFFF DUP3 AND SWAP1 POP SWAP2 SWAP1 POP JUMP JUMPDEST PUSH32 0x4C656E64696E6720706F6F6C2063726561746564000000000000000000000000 PUSH1 0x0 DUP3 ADD MSTORE POP JUMP JUMPDEST PUSH2 0x105A DUP1 PUSH3 0x186 PUSH1 0x0 CODECOPY PUSH1 0x0 RETURN INVALID PUSH1 0x80 PUSH1 0x40 MSTORE PUSH1 0x4 CALLDATASIZE LT PUSH2 0x8A JUMPI PUSH1 0x0 CALLDATALOAD PUSH1 0xE0 SHR DUP1 PUSH4 0x6E1DC66E GT PUSH2 0x59 JUMPI DUP1 PUSH4 0x6E1DC66E EQ PUSH2 0x108 JUMPI DUP1 PUSH4 0x8DA5CB5B EQ PUSH2 0x145 JUMPI DUP1 PUSH4 0xAEAE177C EQ PUSH2 0x170 JUMPI DUP1 PUSH4 0xD0E30DB0 EQ PUSH2 0x1AD JUMPI DUP1 PUSH4 0xF9931855 EQ PUSH2 0x1B7 JUMPI PUSH2 0x91 JUMP JUMPDEST DUP1 PUSH4 0x3607999B EQ PUSH2 0x93 JUMPI DUP1 PUSH4 0x56852391 EQ PUSH2 0xAF JUMPI DUP1 PUSH4 0x650FAD76 EQ PUSH2 0xC6 JUMPI DUP1 PUSH4 0x6E0E0DA2 EQ PUSH2 0xF1 JUMPI PUSH2 0x91 JUMP JUMPDEST CALLDATASIZE PUSH2 0x91 JUMPI STOP JUMPDEST STOP JUMPDEST PUSH2 0xAD PUSH1 0x4 DUP1 CALLDATASIZE SUB DUP2 ADD SWAP1 PUSH2 0xA8 SWAP2 SWAP1 PUSH2 0x9FA JUMP JUMPDEST PUSH2 0x1F4 JUMP JUMPDEST STOP JUMPDEST CALLVALUE DUP1 ISZERO PUSH2 0xBB JUMPI PUSH1 0x0 DUP1 REVERT JUMPDEST POP PUSH2 0xC4 PUSH2 0x2DF JUMP JUMPDEST STOP JUMPDEST CALLVALUE DUP1 ISZERO PUSH2 0xD2 JUMPI PUSH1 0x0 DUP1 REVERT JUMPDEST POP PUSH2 0xDB PUSH2 0x434 JUMP JUMPDEST PUSH1 0x40 MLOAD PUSH2 0xE8 SWAP2 SWAP1 PUSH2 0xC73 JUMP JUMPDEST PUSH1 0x40 MLOAD DUP1 SWAP2 SUB SWAP1 RETURN JUMPDEST CALLVALUE DUP1 ISZERO PUSH2 0xFD JUMPI PUSH1 0x0 DUP1 REVERT JUMPDEST POP PUSH2 0x106 PUSH2 0x43A JUMP JUMPDEST STOP JUMPDEST CALLVALUE DUP1 ISZERO PUSH2 0x114 JUMPI PUSH1 0x0 DUP1 REVERT JUMPDEST POP PUSH2 0x12F PUSH1 0x4 DUP1 CALLDATASIZE SUB DUP2 ADD SWAP1 PUSH2 0x12A SWAP2 SWAP1 PUSH2 0x9CD JUMP JUMPDEST PUSH2 0x723 JUMP JUMPDEST PUSH1 0x40 MLOAD PUSH2 0x13C SWAP2 SWAP1 PUSH2 0xC73 JUMP JUMPDEST PUSH1 0x40 MLOAD DUP1 SWAP2 SUB SWAP1 RETURN JUMPDEST CALLVALUE DUP1 ISZERO PUSH2 0x151 JUMPI PUSH1 0x0 DUP1 REVERT JUMPDEST POP PUSH2 0x15A PUSH2 0x73B JUMP JUMPDEST PUSH1 0x40 MLOAD PUSH2 0x167 SWAP2 SWAP1 PUSH2 0xB5C JUMP JUMPDEST PUSH1 0x40 MLOAD DUP1 SWAP2 SUB SWAP1 RETURN JUMPDEST CALLVALUE DUP1 ISZERO PUSH2 0x17C JUMPI PUSH1 0x0 DUP1 REVERT JUMPDEST POP PUSH2 0x197 PUSH1 0x4 DUP1 CALLDATASIZE SUB DUP2 ADD SWAP1 PUSH2 0x192 SWAP2 SWAP1 PUSH2 0x9CD JUMP JUMPDEST PUSH2 0x761 JUMP JUMPDEST PUSH1 0x40 MLOAD PUSH2 0x1A4 SWAP2 SWAP1 PUSH2 0xC73 JUMP JUMPDEST PUSH1 0x40 MLOAD DUP1 SWAP2 SUB SWAP1 RETURN JUMPDEST PUSH2 0x1B5 PUSH2 0x779 JUMP JUMPDEST STOP JUMPDEST CALLVALUE DUP1 ISZERO PUSH2 0x1C3 JUMPI PUSH1 0x0 DUP1 REVERT JUMPDEST POP PUSH2 0x1DE PUSH1 0x4 DUP1 CALLDATASIZE SUB DUP2 ADD SWAP1 PUSH2 0x1D9 SWAP2 SWAP1 PUSH2 0x9CD JUMP JUMPDEST PUSH2 0x8EB JUMP JUMPDEST PUSH1 0x40 MLOAD PUSH2 0x1EB SWAP2 SWAP1 PUSH2 0xC73 JUMP JUMPDEST PUSH1 0x40 MLOAD DUP1 SWAP2 SUB SWAP1 RETURN JUMPDEST PUSH2 0x209 DUP3 PUSH1 0x2 SLOAD PUSH2 0x903 SWAP1 SWAP2 SWAP1 PUSH4 0xFFFFFFFF AND JUMP JUMPDEST PUSH1 0x2 DUP2 SWAP1 SSTORE POP PUSH2 0x261 DUP3 PUSH1 0x6 PUSH1 0x0 DUP5 PUSH20 0xFFFFFFFFFFFFFFFFFFFFFFFFFFFFFFFFFFFFFFFF AND PUSH20 0xFFFFFFFFFFFFFFFFFFFFFFFFFFFFFFFFFFFFFFFF AND DUP2 MSTORE PUSH1 0x20 ADD SWAP1 DUP2 MSTORE PUSH1 0x20 ADD PUSH1 0x0 KECCAK256 SLOAD PUSH2 0x926 SWAP1 SWAP2 SWAP1 PUSH4 0xFFFFFFFF AND JUMP JUMPDEST PUSH1 0x6 PUSH1 0x0 DUP4 PUSH20 0xFFFFFFFFFFFFFFFFFFFFFFFFFFFFFFFFFFFFFFFF AND PUSH20 0xFFFFFFFFFFFFFFFFFFFFFFFFFFFFFFFFFFFFFFFF AND DUP2 MSTORE PUSH1 0x20 ADD SWAP1 DUP2 MSTORE PUSH1 0x20 ADD PUSH1 0x0 KECCAK256 DUP2 SWAP1 SSTORE POP PUSH32 0xF67E7992D539193FC243C42FE89F8FAB49013E8E4FB18CFA891DC51ADCACCC80 DUP2 PUSH1 0x40 MLOAD PUSH2 0x2D3 SWAP2 SWAP1 PUSH2 0xB77 JUMP JUMPDEST PUSH1 0x40 MLOAD DUP1 SWAP2 SUB SWAP1 LOG1 POP POP JUMP JUMPDEST PUSH1 0x0 PUSH1 0x6 PUSH1 0x0 CALLER PUSH20 0xFFFFFFFFFFFFFFFFFFFFFFFFFFFFFFFFFFFFFFFF AND PUSH20 0xFFFFFFFFFFFFFFFFFFFFFFFFFFFFFFFFFFFFFFFF AND DUP2 MSTORE PUSH1 0x20 ADD SWAP1 DUP2 MSTORE PUSH1 0x20 ADD PUSH1 0x0 KECCAK256 SLOAD GT PUSH2 0x361 JUMPI PUSH1 0x40 MLOAD PUSH32 0x8C379A000000000000000000000000000000000000000000000000000000000 DUP2 MSTORE PUSH1 0x4 ADD PUSH2 0x358 SWAP1 PUSH2 0xBE5 JUMP JUMPDEST PUSH1 0x40 MLOAD DUP1 SWAP2 SUB SWAP1 REVERT JUMPDEST PUSH1 0x0 PUSH1 0x6 PUSH1 0x0 CALLER PUSH20 0xFFFFFFFFFFFFFFFFFFFFFFFFFFFFFFFFFFFFFFFF AND PUSH20 0xFFFFFFFFFFFFFFFFFFFFFFFFFFFFFFFFFFFFFFFF AND DUP2 MSTORE PUSH1 0x20 ADD SWAP1 DUP2 MSTORE PUSH1 0x20 ADD PUSH1 0x0 KECCAK256 SLOAD SWAP1 POP PUSH1 0x0 PUSH1 0x6 PUSH1 0x0 CALLER PUSH20 0xFFFFFFFFFFFFFFFFFFFFFFFFFFFFFFFFFFFFFFFF AND PUSH20 0xFFFFFFFFFFFFFFFFFFFFFFFFFFFFFFFFFFFFFFFF AND DUP2 MSTORE PUSH1 0x20 ADD SWAP1 DUP2 MSTORE PUSH1 0x20 ADD PUSH1 0x0 KECCAK256 DUP2 SWAP1 SSTORE POP CALLER PUSH20 0xFFFFFFFFFFFFFFFFFFFFFFFFFFFFFFFFFFFFFFFF AND PUSH2 0x8FC DUP3 SWAP1 DUP2 ISZERO MUL SWAP1 PUSH1 0x40 MLOAD PUSH1 0x0 PUSH1 0x40 MLOAD DUP1 DUP4 SUB DUP2 DUP6 DUP9 DUP9 CALL SWAP4 POP POP POP POP ISZERO DUP1 ISZERO PUSH2 0x430 JUMPI RETURNDATASIZE PUSH1 0x0 DUP1 RETURNDATACOPY RETURNDATASIZE PUSH1 0x0 REVERT JUMPDEST POP POP JUMP JUMPDEST PUSH1 0x0 SLOAD DUP2 JUMP JUMPDEST PUSH1 0x0 PUSH1 0x5 PUSH1 0x0 CALLER PUSH20 0xFFFFFFFFFFFFFFFFFFFFFFFFFFFFFFFFFFFFFFFF AND PUSH20 0xFFFFFFFFFFFFFFFFFFFFFFFFFFFFFFFFFFFFFFFF AND DUP2 MSTORE PUSH1 0x20 ADD SWAP1 DUP2 MSTORE PUSH1 0x20 ADD PUSH1 0x0 KECCAK256 SLOAD GT PUSH2 0x4BC JUMPI PUSH1 0x40 MLOAD PUSH32 0x8C379A000000000000000000000000000000000000000000000000000000000 DUP2 MSTORE PUSH1 0x4 ADD PUSH2 0x4B3 SWAP1 PUSH2 0xBA5 JUMP JUMPDEST PUSH1 0x40 MLOAD DUP1 SWAP2 SUB SWAP1 REVERT JUMPDEST PUSH1 0x0 PUSH2 0x51E PUSH3 0x15180 TIMESTAMP PUSH1 0x4 PUSH1 0x0 CALLER PUSH20 0xFFFFFFFFFFFFFFFFFFFFFFFFFFFFFFFFFFFFFFFF AND PUSH20 0xFFFFFFFFFFFFFFFFFFFFFFFFFFFFFFFFFFFFFFFF AND DUP2 MSTORE PUSH1 0x20 ADD SWAP1 DUP2 MSTORE PUSH1 0x20 ADD PUSH1 0x0 KECCAK256 SLOAD PUSH2 0x510 SWAP2 SWAP1 PUSH2 0xD80 JUMP JUMPDEST PUSH2 0x949 SWAP1 SWAP2 SWAP1 PUSH4 0xFFFFFFFF AND JUMP JUMPDEST SWAP1 POP PUSH3 0x278D00 DUP2 GT PUSH2 0x565 JUMPI PUSH1 0x40 MLOAD PUSH32 0x8C379A000000000000000000000000000000000000000000000000000000000 DUP2 MSTORE PUSH1 0x4 ADD PUSH2 0x55C SWAP1 PUSH2 0xC33 JUMP JUMPDEST PUSH1 0x40 MLOAD DUP1 SWAP2 SUB SWAP1 REVERT JUMPDEST PUSH1 0x0 PUSH2 0x5DF PUSH1 0x64 PUSH2 0x5D1 PUSH1 0x5 PUSH1 0x0 CALLER PUSH20 0xFFFFFFFFFFFFFFFFFFFFFFFFFFFFFFFFFFFFFFFF AND PUSH20 0xFFFFFFFFFFFFFFFFFFFFFFFFFFFFFFFFFFFFFFFF AND DUP2 MSTORE PUSH1 0x20 ADD SWAP1 DUP2 MSTORE PUSH1 0x20 ADD PUSH1 0x0 KECCAK256 SLOAD PUSH2 0x5C3 PUSH1 0x5 DUP8 PUSH2 0x96B SWAP1 SWAP2 SWAP1 PUSH4 0xFFFFFFFF AND JUMP JUMPDEST PUSH2 0x96B SWAP1 SWAP2 SWAP1 PUSH4 0xFFFFFFFF AND JUMP JUMPDEST PUSH2 0x949 SWAP1 SWAP2 SWAP1 PUSH4 0xFFFFFFFF AND JUMP JUMPDEST PUSH1 0x5 PUSH1 0x0 CALLER PUSH20 0xFFFFFFFFFFFFFFFFFFFFFFFFFFFFFFFFFFFFFFFF AND PUSH20 0xFFFFFFFFFFFFFFFFFFFFFFFFFFFFFFFFFFFFFFFF AND DUP2 MSTORE PUSH1 0x20 ADD SWAP1 DUP2 MSTORE PUSH1 0x20 ADD PUSH1 0x0 KECCAK256 SLOAD PUSH2 0x629 SWAP2 SWAP1 PUSH2 0xC9F JUMP JUMPDEST SWAP1 POP PUSH1 0x2 SLOAD DUP2 LT PUSH2 0x66F JUMPI PUSH1 0x40 MLOAD PUSH32 0x8C379A000000000000000000000000000000000000000000000000000000000 DUP2 MSTORE PUSH1 0x4 ADD PUSH2 0x666 SWAP1 PUSH2 0xC53 JUMP JUMPDEST PUSH1 0x40 MLOAD DUP1 SWAP2 SUB SWAP1 REVERT JUMPDEST PUSH2 0x684 DUP2 PUSH1 0x2 SLOAD PUSH2 0x903 SWAP1 SWAP2 SWAP1 PUSH4 0xFFFFFFFF AND JUMP JUMPDEST PUSH1 0x2 DUP2 SWAP1 SSTORE POP PUSH2 0x6DC DUP2 PUSH1 0x6 PUSH1 0x0 CALLER PUSH20 0xFFFFFFFFFFFFFFFFFFFFFFFFFFFFFFFFFFFFFFFF AND PUSH20 0xFFFFFFFFFFFFFFFFFFFFFFFFFFFFFFFFFFFFFFFF AND DUP2 MSTORE PUSH1 0x20 ADD SWAP1 DUP2 MSTORE PUSH1 0x20 ADD PUSH1 0x0 KECCAK256 SLOAD PUSH2 0x926 SWAP1 SWAP2 SWAP1 PUSH4 0xFFFFFFFF AND JUMP JUMPDEST PUSH1 0x6 PUSH1 0x0 CALLER PUSH20 0xFFFFFFFFFFFFFFFFFFFFFFFFFFFFFFFFFFFFFFFF AND PUSH20 0xFFFFFFFFFFFFFFFFFFFFFFFFFFFFFFFFFFFFFFFF AND DUP2 MSTORE PUSH1 0x20 ADD SWAP1 DUP2 MSTORE PUSH1 0x20 ADD PUSH1 0x0 KECCAK256 DUP2 SWAP1 SSTORE POP POP POP JUMP JUMPDEST PUSH1 0x4 PUSH1 0x20 MSTORE DUP1 PUSH1 0x0 MSTORE PUSH1 0x40 PUSH1 0x0 KECCAK256 PUSH1 0x0 SWAP2 POP SWAP1 POP SLOAD DUP2 JUMP JUMPDEST PUSH1 0x1 PUSH1 0x0 SWAP1 SLOAD SWAP1 PUSH2 0x100 EXP SWAP1 DIV PUSH20 0xFFFFFFFFFFFFFFFFFFFFFFFFFFFFFFFFFFFFFFFF AND DUP2 JUMP JUMPDEST PUSH1 0x6 PUSH1 0x20 MSTORE DUP1 PUSH1 0x0 MSTORE PUSH1 0x40 PUSH1 0x0 KECCAK256 PUSH1 0x0 SWAP2 POP SWAP1 POP SLOAD DUP2 JUMP JUMPDEST PUSH1 0x0 SLOAD CALLVALUE LT ISZERO PUSH2 0x7BE JUMPI PUSH1 0x40 MLOAD PUSH32 0x8C379A000000000000000000000000000000000000000000000000000000000 DUP2 MSTORE PUSH1 0x4 ADD PUSH2 0x7B5 SWAP1 PUSH2 0xBC5 JUMP JUMPDEST PUSH1 0x40 MLOAD DUP1 SWAP2 SUB SWAP1 REVERT JUMPDEST TIMESTAMP PUSH1 0x4 PUSH1 0x0 CALLER PUSH20 0xFFFFFFFFFFFFFFFFFFFFFFFFFFFFFFFFFFFFFFFF AND PUSH20 0xFFFFFFFFFFFFFFFFFFFFFFFFFFFFFFFFFFFFFFFF AND DUP2 MSTORE PUSH1 0x20 ADD SWAP1 DUP2 MSTORE PUSH1 0x20 ADD PUSH1 0x0 KECCAK256 DUP2 SWAP1 SSTORE POP PUSH2 0x854 CALLVALUE PUSH1 0x5 PUSH1 0x0 CALLER PUSH20 0xFFFFFFFFFFFFFFFFFFFFFFFFFFFFFFFFFFFFFFFF AND PUSH20 0xFFFFFFFFFFFFFFFFFFFFFFFFFFFFFFFFFFFFFFFF AND DUP2 MSTORE PUSH1 0x20 ADD SWAP1 DUP2 MSTORE PUSH1 0x20 ADD PUSH1 0x0 KECCAK256 SLOAD PUSH2 0x926 SWAP1 SWAP2 SWAP1 PUSH4 0xFFFFFFFF AND JUMP JUMPDEST PUSH1 0x5 PUSH1 0x0 CALLER PUSH20 0xFFFFFFFFFFFFFFFFFFFFFFFFFFFFFFFFFFFFFFFF AND PUSH20 0xFFFFFFFFFFFFFFFFFFFFFFFFFFFFFFFFFFFFFFFF AND DUP2 MSTORE PUSH1 0x20 ADD SWAP1 DUP2 MSTORE PUSH1 0x20 ADD PUSH1 0x0 KECCAK256 DUP2 SWAP1 SSTORE POP PUSH2 0x8AC CALLVALUE PUSH1 0x2 SLOAD PUSH2 0x926 SWAP1 SWAP2 SWAP1 PUSH4 0xFFFFFFFF AND JUMP JUMPDEST PUSH1 0x2 DUP2 SWAP1 SSTORE POP PUSH32 0xF67E7992D539193FC243C42FE89F8FAB49013E8E4FB18CFA891DC51ADCACCC80 CALLER PUSH1 0x40 MLOAD PUSH2 0x8E1 SWAP2 SWAP1 PUSH2 0xC05 JUMP JUMPDEST PUSH1 0x40 MLOAD DUP1 SWAP2 SUB SWAP1 LOG1 JUMP JUMPDEST PUSH1 0x5 PUSH1 0x20 MSTORE DUP1 PUSH1 0x0 MSTORE PUSH1 0x40 PUSH1 0x0 KECCAK256 PUSH1 0x0 SWAP2 POP SWAP1 POP SLOAD DUP2 JUMP JUMPDEST PUSH1 0x0 DUP3 DUP3 GT ISZERO PUSH2 0x912 JUMPI PUSH1 0x0 DUP1 REVERT JUMPDEST DUP2 DUP4 PUSH2 0x91E SWAP2 SWAP1 PUSH2 0xD80 JUMP JUMPDEST SWAP1 POP SWAP3 SWAP2 POP POP JUMP JUMPDEST PUSH1 0x0 DUP2 DUP4 PUSH2 0x934 SWAP2 SWAP1 PUSH2 0xC9F JUMP JUMPDEST SWAP1 POP DUP3 DUP2 LT ISZERO PUSH2 0x943 JUMPI PUSH1 0x0 DUP1 REVERT JUMPDEST SWAP3 SWAP2 POP POP JUMP JUMPDEST PUSH1 0x0 DUP1 DUP3 GT PUSH2 0x957 JUMPI PUSH1 0x0 DUP1 REVERT JUMPDEST DUP2 DUP4 PUSH2 0x963 SWAP2 SWAP1 PUSH2 0xCF5 JUMP JUMPDEST SWAP1 POP SWAP3 SWAP2 POP POP JUMP JUMPDEST PUSH1 0x0 DUP2 DUP4 PUSH2 0x979 SWAP2 SWAP1 PUSH2 0xD26 JUMP JUMPDEST SWAP1 POP PUSH1 0x0 DUP4 EQ DUP1 PUSH2 0x994 JUMPI POP DUP2 DUP4 DUP3 PUSH2 0x992 SWAP2 SWAP1 PUSH2 0xCF5 JUMP JUMPDEST EQ JUMPDEST PUSH2 0x99D JUMPI PUSH1 0x0 DUP1 REVERT JUMPDEST SWAP3 SWAP2 POP POP JUMP JUMPDEST PUSH1 0x0 DUP2 CALLDATALOAD SWAP1 POP PUSH2 0x9B2 DUP2 PUSH2 0xFF6 JUMP JUMPDEST SWAP3 SWAP2 POP POP JUMP JUMPDEST PUSH1 0x0 DUP2 CALLDATALOAD SWAP1 POP PUSH2 0x9C7 DUP2 PUSH2 0x100D JUMP JUMPDEST SWAP3 SWAP2 POP POP JUMP JUMPDEST PUSH1 0x0 PUSH1 0x20 DUP3 DUP5 SUB SLT ISZERO PUSH2 0x9E3 JUMPI PUSH2 0x9E2 PUSH2 0xE60 JUMP JUMPDEST JUMPDEST PUSH1 0x0 PUSH2 0x9F1 DUP5 DUP3 DUP6 ADD PUSH2 0x9A3 JUMP JUMPDEST SWAP2 POP POP SWAP3 SWAP2 POP POP JUMP JUMPDEST PUSH1 0x0 DUP1 PUSH1 0x40 DUP4 DUP6 SUB SLT ISZERO PUSH2 0xA11 JUMPI PUSH2 0xA10 PUSH2 0xE60 JUMP JUMPDEST JUMPDEST PUSH1 0x0 PUSH2 0xA1F DUP6 DUP3 DUP7 ADD PUSH2 0x9B8 JUMP JUMPDEST SWAP3 POP POP PUSH1 0x20 PUSH2 0xA30 DUP6 DUP3 DUP7 ADD PUSH2 0x9A3 JUMP JUMPDEST SWAP2 POP POP SWAP3 POP SWAP3 SWAP1 POP JUMP JUMPDEST PUSH2 0xA43 DUP2 PUSH2 0xDC6 JUMP JUMPDEST DUP3 MSTORE POP POP JUMP JUMPDEST PUSH2 0xA52 DUP2 PUSH2 0xDB4 JUMP JUMPDEST DUP3 MSTORE POP POP JUMP JUMPDEST PUSH1 0x0 PUSH2 0xA65 PUSH1 0x13 DUP4 PUSH2 0xC8E JUMP JUMPDEST SWAP2 POP PUSH2 0xA70 DUP3 PUSH2 0xE65 JUMP JUMPDEST PUSH1 0x20 DUP3 ADD SWAP1 POP SWAP2 SWAP1 POP JUMP JUMPDEST PUSH1 0x0 PUSH2 0xA88 PUSH1 0x20 DUP4 PUSH2 0xC8E JUMP JUMPDEST SWAP2 POP PUSH2 0xA93 DUP3 PUSH2 0xE8E JUMP JUMPDEST PUSH1 0x20 DUP3 ADD SWAP1 POP SWAP2 SWAP1 POP JUMP JUMPDEST PUSH1 0x0 PUSH2 0xAAB PUSH1 0x18 DUP4 PUSH2 0xC8E JUMP JUMPDEST SWAP2 POP PUSH2 0xAB6 DUP3 PUSH2 0xEB7 JUMP JUMPDEST PUSH1 0x20 DUP3 ADD SWAP1 POP SWAP2 SWAP1 POP JUMP JUMPDEST PUSH1 0x0 PUSH2 0xACE PUSH1 0x24 DUP4 PUSH2 0xC8E JUMP JUMPDEST SWAP2 POP PUSH2 0xAD9 DUP3 PUSH2 0xEE0 JUMP JUMPDEST PUSH1 0x40 DUP3 ADD SWAP1 POP SWAP2 SWAP1 POP JUMP JUMPDEST PUSH1 0x0 PUSH2 0xAF1 PUSH1 0x6 DUP4 PUSH2 0xC8E JUMP JUMPDEST SWAP2 POP PUSH2 0xAFC DUP3 PUSH2 0xF2F JUMP JUMPDEST PUSH1 0x20 DUP3 ADD SWAP1 POP SWAP2 SWAP1 POP JUMP JUMPDEST PUSH1 0x0 PUSH2 0xB14 PUSH1 0x24 DUP4 PUSH2 0xC8E JUMP JUMPDEST SWAP2 POP PUSH2 0xB1F DUP3 PUSH2 0xF58 JUMP JUMPDEST PUSH1 0x40 DUP3 ADD SWAP1 POP SWAP2 SWAP1 POP JUMP JUMPDEST PUSH1 0x0 PUSH2 0xB37 PUSH1 0x32 DUP4 PUSH2 0xC8E JUMP JUMPDEST SWAP2 POP PUSH2 0xB42 DUP3 PUSH2 0xFA7 JUMP JUMPDEST PUSH1 0x40 DUP3 ADD SWAP1 POP SWAP2 SWAP1 POP JUMP JUMPDEST PUSH2 0xB56 DUP2 PUSH2 0xDF8 JUMP JUMPDEST DUP3 MSTORE POP POP JUMP JUMPDEST PUSH1 0x0 PUSH1 0x20 DUP3 ADD SWAP1 POP PUSH2 0xB71 PUSH1 0x0 DUP4 ADD DUP5 PUSH2 0xA3A JUMP JUMPDEST SWAP3 SWAP2 POP POP JUMP JUMPDEST PUSH1 0x0 PUSH1 0x40 DUP3 ADD SWAP1 POP DUP2 DUP2 SUB PUSH1 0x0 DUP4 ADD MSTORE PUSH2 0xB90 DUP2 PUSH2 0xA58 JUMP JUMPDEST SWAP1 POP PUSH2 0xB9F PUSH1 0x20 DUP4 ADD DUP5 PUSH2 0xA49 JUMP JUMPDEST SWAP3 SWAP2 POP POP JUMP JUMPDEST PUSH1 0x0 PUSH1 0x20 DUP3 ADD SWAP1 POP DUP2 DUP2 SUB PUSH1 0x0 DUP4 ADD MSTORE PUSH2 0xBBE DUP2 PUSH2 0xA7B JUMP JUMPDEST SWAP1 POP SWAP2 SWAP1 POP JUMP JUMPDEST PUSH1 0x0 PUSH1 0x20 DUP3 ADD SWAP1 POP DUP2 DUP2 SUB PUSH1 0x0 DUP4 ADD MSTORE PUSH2 0xBDE DUP2 PUSH2 0xA9E JUMP JUMPDEST SWAP1 POP SWAP2 SWAP1 POP JUMP JUMPDEST PUSH1 0x0 PUSH1 0x20 DUP3 ADD SWAP1 POP DUP2 DUP2 SUB PUSH1 0x0 DUP4 ADD MSTORE PUSH2 0xBFE DUP2 PUSH2 0xAC1 JUMP JUMPDEST SWAP1 POP SWAP2 SWAP1 POP JUMP JUMPDEST PUSH1 0x0 PUSH1 0x40 DUP3 ADD SWAP1 POP DUP2 DUP2 SUB PUSH1 0x0 DUP4 ADD MSTORE PUSH2 0xC1E DUP2 PUSH2 0xAE4 JUMP JUMPDEST SWAP1 POP PUSH2 0xC2D PUSH1 0x20 DUP4 ADD DUP5 PUSH2 0xA49 JUMP JUMPDEST SWAP3 SWAP2 POP POP JUMP JUMPDEST PUSH1 0x0 PUSH1 0x20 DUP3 ADD SWAP1 POP DUP2 DUP2 SUB PUSH1 0x0 DUP4 ADD MSTORE PUSH2 0xC4C DUP2 PUSH2 0xB07 JUMP JUMPDEST SWAP1 POP SWAP2 SWAP1 POP JUMP JUMPDEST PUSH1 0x0 PUSH1 0x20 DUP3 ADD SWAP1 POP DUP2 DUP2 SUB PUSH1 0x0 DUP4 ADD MSTORE PUSH2 0xC6C DUP2 PUSH2 0xB2A JUMP JUMPDEST SWAP1 POP SWAP2 SWAP1 POP JUMP JUMPDEST PUSH1 0x0 PUSH1 0x20 DUP3 ADD SWAP1 POP PUSH2 0xC88 PUSH1 0x0 DUP4 ADD DUP5 PUSH2 0xB4D JUMP JUMPDEST SWAP3 SWAP2 POP POP JUMP JUMPDEST PUSH1 0x0 DUP3 DUP3 MSTORE PUSH1 0x20 DUP3 ADD SWAP1 POP SWAP3 SWAP2 POP POP JUMP JUMPDEST PUSH1 0x0 PUSH2 0xCAA DUP3 PUSH2 0xDF8 JUMP JUMPDEST SWAP2 POP PUSH2 0xCB5 DUP4 PUSH2 0xDF8 JUMP JUMPDEST SWAP3 POP DUP3 PUSH32 0xFFFFFFFFFFFFFFFFFFFFFFFFFFFFFFFFFFFFFFFFFFFFFFFFFFFFFFFFFFFFFFFF SUB DUP3 GT ISZERO PUSH2 0xCEA JUMPI PUSH2 0xCE9 PUSH2 0xE02 JUMP JUMPDEST JUMPDEST DUP3 DUP3 ADD SWAP1 POP SWAP3 SWAP2 POP POP JUMP JUMPDEST PUSH1 0x0 PUSH2 0xD00 DUP3 PUSH2 0xDF8 JUMP JUMPDEST SWAP2 POP PUSH2 0xD0B DUP4 PUSH2 0xDF8 JUMP JUMPDEST SWAP3 POP DUP3 PUSH2 0xD1B JUMPI PUSH2 0xD1A PUSH2 0xE31 JUMP JUMPDEST JUMPDEST DUP3 DUP3 DIV SWAP1 POP SWAP3 SWAP2 POP POP JUMP JUMPDEST PUSH1 0x0 PUSH2 0xD31 DUP3 PUSH2 0xDF8 JUMP JUMPDEST SWAP2 POP PUSH2 0xD3C DUP4 PUSH2 0xDF8 JUMP JUMPDEST SWAP3 POP DUP2 PUSH32 0xFFFFFFFFFFFFFFFFFFFFFFFFFFFFFFFFFFFFFFFFFFFFFFFFFFFFFFFFFFFFFFFF DIV DUP4 GT DUP3 ISZERO ISZERO AND ISZERO PUSH2 0xD75 JUMPI PUSH2 0xD74 PUSH2 0xE02 JUMP JUMPDEST JUMPDEST DUP3 DUP3 MUL SWAP1 POP SWAP3 SWAP2 POP POP JUMP JUMPDEST PUSH1 0x0 PUSH2 0xD8B DUP3 PUSH2 0xDF8 JUMP JUMPDEST SWAP2 POP PUSH2 0xD96 DUP4 PUSH2 0xDF8 JUMP JUMPDEST SWAP3 POP DUP3 DUP3 LT ISZERO PUSH2 0xDA9 JUMPI PUSH2 0xDA8 PUSH2 0xE02 JUMP JUMPDEST JUMPDEST DUP3 DUP3 SUB SWAP1 POP SWAP3 SWAP2 POP POP JUMP JUMPDEST PUSH1 0x0 PUSH2 0xDBF DUP3 PUSH2 0xDD8 JUMP JUMPDEST SWAP1 POP SWAP2 SWAP1 POP JUMP JUMPDEST PUSH1 0x0 PUSH2 0xDD1 DUP3 PUSH2 0xDD8 JUMP JUMPDEST SWAP1 POP SWAP2 SWAP1 POP JUMP JUMPDEST PUSH1 0x0 PUSH20 0xFFFFFFFFFFFFFFFFFFFFFFFFFFFFFFFFFFFFFFFF DUP3 AND SWAP1 POP SWAP2 SWAP1 POP JUMP JUMPDEST PUSH1 0x0 DUP2 SWAP1 POP SWAP2 SWAP1 POP JUMP JUMPDEST PUSH32 0x4E487B7100000000000000000000000000000000000000000000000000000000 PUSH1 0x0 MSTORE PUSH1 0x11 PUSH1 0x4 MSTORE PUSH1 0x24 PUSH1 0x0 REVERT JUMPDEST PUSH32 0x4E487B7100000000000000000000000000000000000000000000000000000000 PUSH1 0x0 MSTORE PUSH1 0x12 PUSH1 0x4 MSTORE PUSH1 0x24 PUSH1 0x0 REVERT JUMPDEST PUSH1 0x0 DUP1 REVERT JUMPDEST PUSH32 0x4D6F6E6579207769746864726177656E20746F00000000000000000000000000 PUSH1 0x0 DUP3 ADD MSTORE POP JUMP JUMPDEST PUSH32 0x596F7520646F6E2774206861766520616E79206D6F6E657920696E2068657265 PUSH1 0x0 DUP3 ADD MSTORE POP JUMP JUMPDEST PUSH32 0x4D696E696D756D20312045746865722052657175697265640000000000000000 PUSH1 0x0 DUP3 ADD MSTORE POP JUMP JUMPDEST PUSH32 0x596F7520646F6E27742068617665206E6F2070656E64696E6720776974686472 PUSH1 0x0 DUP3 ADD MSTORE PUSH32 0x61776C7300000000000000000000000000000000000000000000000000000000 PUSH1 0x20 DUP3 ADD MSTORE POP JUMP JUMPDEST PUSH32 0x7374616B65640000000000000000000000000000000000000000000000000000 PUSH1 0x0 DUP3 ADD MSTORE POP JUMP JUMPDEST PUSH32 0x596F752073686F756C642061746C65617374207374616B6520666F722061206D PUSH1 0x0 DUP3 ADD MSTORE PUSH32 0x6F6E747900000000000000000000000000000000000000000000000000000000 PUSH1 0x20 DUP3 ADD MSTORE POP JUMP JUMPDEST PUSH32 0x536F72727920776520646F6E2774206861766520656E6F756768206D6F6E6579 PUSH1 0x0 DUP3 ADD MSTORE PUSH32 0x20736F20636F6D656261636B206C617465720000000000000000000000000000 PUSH1 0x20 DUP3 ADD MSTORE POP JUMP JUMPDEST PUSH2 0xFFF DUP2 PUSH2 0xDB4 JUMP JUMPDEST DUP2 EQ PUSH2 0x100A JUMPI PUSH1 0x0 DUP1 REVERT JUMPDEST POP JUMP JUMPDEST PUSH2 0x1016 DUP2 PUSH2 0xDF8 JUMP JUMPDEST DUP2 EQ PUSH2 0x1021 JUMPI PUSH1 0x0 DUP1 REVERT JUMPDEST POP JUMP INVALID LOG2 PUSH5 0x6970667358 0x22 SLT KECCAK256 0xAD ADDMOD SGT STOP PUSH14 0x8784DFD1CE23108A5DF77EF2EC54 DUP15 DUP7 0xC 0xAE PUSH6 0xA54A57B2F109 CALLDATALOAD DUP9 PUSH5 0x736F6C6343 STOP ADDMOD SMOD STOP CALLER "
				},
				"gasEstimates": {
					"creation": {
						"codeDepositCost": "837200",
						"executionCost": "49448",
						"totalCost": "886648"
					},
					"external": {
						"": "174",
						"deposit()": "infinite",
						"depositWithdraw()": "infinite",
						"gateWithdrawl()": "infinite",
						"lendingWithdraw(uint256,address)": "infinite",
						"minimumAmt()": "2474",
						"owner()": "2536",
						"pendingPayment(address)": "2858",
						"stakedAmount(address)": "2902",
						"startTime(address)": "2814"
					}
				},
				"methodIdentifiers": {
					"deposit()": "d0e30db0",
					"depositWithdraw()": "6e0e0da2",
					"gateWithdrawl()": "56852391",
					"lendingWithdraw(uint256,address)": "3607999b",
					"minimumAmt()": "650fad76",
					"owner()": "8da5cb5b",
					"pendingPayment(address)": "aeae177c",
					"stakedAmount(address)": "f9931855",
					"startTime(address)": "6e1dc66e"
				}
			},
			"userdoc": {
				"kind": "user",
				"methods": {
					"deposit()": {
						"notice": "lenders can deposit money to lending pool"
					},
					"depositWithdraw()": {
						"notice": "notice Stakers can use this function to take out thier money"
					}
				},
				"notice": "Lending pool for Swip3",
				"version": 1
			}
		}
	}
}