{
	"contracts/LendingPool.sol": {
		"LendingPool": {
			"abi": [
				{
					"inputs": [],
					"stateMutability": "nonpayable",
					"type": "constructor"
				},
				{
					"anonymous": false,
					"inputs": [
						{
							"indexed": false,
							"internalType": "string",
							"name": "message",
							"type": "string"
						},
						{
							"indexed": false,
							"internalType": "address",
							"name": "from",
							"type": "address"
						}
					],
					"name": "LendingPoolMessage",
					"type": "event"
				},
				{
					"stateMutability": "payable",
					"type": "fallback"
				},
				{
					"inputs": [
						{
							"internalType": "address",
							"name": "",
							"type": "address"
						}
					],
					"name": "allowed_pools",
					"outputs": [
						{
							"internalType": "bool",
							"name": "",
							"type": "bool"
						}
					],
					"stateMutability": "view",
					"type": "function"
				},
				{
					"inputs": [],
					"name": "deposit",
					"outputs": [],
					"stateMutability": "payable",
					"type": "function"
				},
				{
					"inputs": [],
					"name": "depositWithdraw",
					"outputs": [],
					"stateMutability": "nonpayable",
					"type": "function"
				},
				{
					"inputs": [],
					"name": "gateWithdrawl",
					"outputs": [],
					"stateMutability": "nonpayable",
					"type": "function"
				},
				{
					"inputs": [
						{
							"internalType": "uint256",
							"name": "amount",
							"type": "uint256"
						},
						{
							"internalType": "address",
							"name": "to",
							"type": "address"
						}
					],
					"name": "lendingWithdraw",
					"outputs": [],
					"stateMutability": "payable",
					"type": "function"
				},
				{
					"inputs": [],
					"name": "minimumAmt",
					"outputs": [
						{
							"internalType": "uint256",
							"name": "",
							"type": "uint256"
						}
					],
					"stateMutability": "view",
					"type": "function"
				},
				{
					"inputs": [],
					"name": "owner",
					"outputs": [
						{
							"internalType": "address payable",
							"name": "",
							"type": "address"
						}
					],
					"stateMutability": "view",
					"type": "function"
				},
				{
					"inputs": [
						{
							"internalType": "address",
							"name": "",
							"type": "address"
						}
					],
					"name": "pendingPayment",
					"outputs": [
						{
							"internalType": "uint256",
							"name": "",
							"type": "uint256"
						}
					],
					"stateMutability": "view",
					"type": "function"
				},
				{
					"inputs": [
						{
							"internalType": "address",
							"name": "",
							"type": "address"
						}
					],
					"name": "stakedAmount",
					"outputs": [
						{
							"internalType": "uint256",
							"name": "",
							"type": "uint256"
						}
					],
					"stateMutability": "view",
					"type": "function"
				},
				{
					"inputs": [
						{
							"internalType": "address",
							"name": "",
							"type": "address"
						}
					],
					"name": "startTime",
					"outputs": [
						{
							"internalType": "uint256",
							"name": "",
							"type": "uint256"
						}
					],
					"stateMutability": "view",
					"type": "function"
				},
				{
					"stateMutability": "payable",
					"type": "receive"
				}
			],
			"devdoc": {
				"author": "Hileamlak Yitayew, Matt Tengtrakool",
				"details": "need help review ",
				"kind": "dev",
				"methods": {},
				"title": "LendingPool ",
				"version": 1
			},
			"evm": {
				"assembly": "    /* \"contracts/LendingPool.sol\":219:2880  contract LendingPool  {... */\n  mstore(0x40, 0x80)\n    /* \"contracts/LendingPool.sol\":309:316  1 ether */\n  0x0de0b6b3a7640000\n    /* \"contracts/LendingPool.sol\":281:316  uint256 public minimumAmt = 1 ether */\n  0x00\n  sstore\n    /* \"contracts/LendingPool.sol\":722:849  constructor() {... */\n  callvalue\n  dup1\n  iszero\n  tag_1\n  jumpi\n  0x00\n  dup1\n  revert\ntag_1:\n  pop\n    /* \"contracts/LendingPool.sol\":762:772  msg.sender */\n  caller\n    /* \"contracts/LendingPool.sol\":746:751  owner */\n  0x01\n  0x00\n    /* \"contracts/LendingPool.sol\":746:773  owner = payable(msg.sender) */\n  0x0100\n  exp\n  dup2\n  sload\n  dup2\n  0xffffffffffffffffffffffffffffffffffffffff\n  mul\n  not\n  and\n  swap1\n  dup4\n  0xffffffffffffffffffffffffffffffffffffffff\n  and\n  mul\n  or\n  swap1\n  sstore\n  pop\n    /* \"contracts/LendingPool.sol\":788:842  LendingPoolMessage(\"Lending pool created\", msg.sender) */\n  0xf67e7992d539193fc243c42fe89f8fab49013e8e4fb18cfa891dc51adcaccc80\n    /* \"contracts/LendingPool.sol\":831:841  msg.sender */\n  caller\n    /* \"contracts/LendingPool.sol\":788:842  LendingPoolMessage(\"Lending pool created\", msg.sender) */\n  mload(0x40)\n  tag_4\n  swap2\n  swap1\n  tag_5\n  jump\t// in\ntag_4:\n  mload(0x40)\n  dup1\n  swap2\n  sub\n  swap1\n  log1\n    /* \"contracts/LendingPool.sol\":219:2880  contract LendingPool  {... */\n  jump(tag_6)\n    /* \"#utility.yul\":7:125   */\ntag_8:\n    /* \"#utility.yul\":94:118   */\n  tag_10\n    /* \"#utility.yul\":112:117   */\n  dup2\n    /* \"#utility.yul\":94:118   */\n  tag_11\n  jump\t// in\ntag_10:\n    /* \"#utility.yul\":89:92   */\n  dup3\n    /* \"#utility.yul\":82:119   */\n  mstore\n    /* \"#utility.yul\":7:125   */\n  pop\n  pop\n  jump\t// out\n    /* \"#utility.yul\":131:497   */\ntag_12:\n    /* \"#utility.yul\":273:276   */\n  0x00\n    /* \"#utility.yul\":294:361   */\n  tag_14\n    /* \"#utility.yul\":358:360   */\n  0x14\n    /* \"#utility.yul\":353:356   */\n  dup4\n    /* \"#utility.yul\":294:361   */\n  tag_15\n  jump\t// in\ntag_14:\n    /* \"#utility.yul\":287:361   */\n  swap2\n  pop\n    /* \"#utility.yul\":370:463   */\n  tag_16\n    /* \"#utility.yul\":459:462   */\n  dup3\n    /* \"#utility.yul\":370:463   */\n  tag_17\n  jump\t// in\ntag_16:\n    /* \"#utility.yul\":488:490   */\n  0x20\n    /* \"#utility.yul\":483:486   */\n  dup3\n    /* \"#utility.yul\":479:491   */\n  add\n    /* \"#utility.yul\":472:491   */\n  swap1\n  pop\n    /* \"#utility.yul\":131:497   */\n  swap2\n  swap1\n  pop\n  jump\t// out\n    /* \"#utility.yul\":503:1032   */\ntag_5:\n    /* \"#utility.yul\":697:701   */\n  0x00\n    /* \"#utility.yul\":735:737   */\n  0x40\n    /* \"#utility.yul\":724:733   */\n  dup3\n    /* \"#utility.yul\":720:738   */\n  add\n    /* \"#utility.yul\":712:738   */\n  swap1\n  pop\n    /* \"#utility.yul\":784:793   */\n  dup2\n    /* \"#utility.yul\":778:782   */\n  dup2\n    /* \"#utility.yul\":774:794   */\n  sub\n    /* \"#utility.yul\":770:771   */\n  0x00\n    /* \"#utility.yul\":759:768   */\n  dup4\n    /* \"#utility.yul\":755:772   */\n  add\n    /* \"#utility.yul\":748:795   */\n  mstore\n    /* \"#utility.yul\":812:943   */\n  tag_19\n    /* \"#utility.yul\":938:942   */\n  dup2\n    /* \"#utility.yul\":812:943   */\n  tag_12\n  jump\t// in\ntag_19:\n    /* \"#utility.yul\":804:943   */\n  swap1\n  pop\n    /* \"#utility.yul\":953:1025   */\n  tag_20\n    /* \"#utility.yul\":1021:1023   */\n  0x20\n    /* \"#utility.yul\":1010:1019   */\n  dup4\n    /* \"#utility.yul\":1006:1024   */\n  add\n    /* \"#utility.yul\":997:1003   */\n  dup5\n    /* \"#utility.yul\":953:1025   */\n  tag_8\n  jump\t// in\ntag_20:\n    /* \"#utility.yul\":503:1032   */\n  swap3\n  swap2\n  pop\n  pop\n  jump\t// out\n    /* \"#utility.yul\":1038:1207   */\ntag_15:\n    /* \"#utility.yul\":1122:1133   */\n  0x00\n    /* \"#utility.yul\":1156:1162   */\n  dup3\n    /* \"#utility.yul\":1151:1154   */\n  dup3\n    /* \"#utility.yul\":1144:1163   */\n  mstore\n    /* \"#utility.yul\":1196:1200   */\n  0x20\n    /* \"#utility.yul\":1191:1194   */\n  dup3\n    /* \"#utility.yul\":1187:1201   */\n  add\n    /* \"#utility.yul\":1172:1201   */\n  swap1\n  pop\n    /* \"#utility.yul\":1038:1207   */\n  swap3\n  swap2\n  pop\n  pop\n  jump\t// out\n    /* \"#utility.yul\":1213:1309   */\ntag_11:\n    /* \"#utility.yul\":1250:1257   */\n  0x00\n    /* \"#utility.yul\":1279:1303   */\n  tag_23\n    /* \"#utility.yul\":1297:1302   */\n  dup3\n    /* \"#utility.yul\":1279:1303   */\n  tag_24\n  jump\t// in\ntag_23:\n    /* \"#utility.yul\":1268:1303   */\n  swap1\n  pop\n    /* \"#utility.yul\":1213:1309   */\n  swap2\n  swap1\n  pop\n  jump\t// out\n    /* \"#utility.yul\":1315:1441   */\ntag_24:\n    /* \"#utility.yul\":1352:1359   */\n  0x00\n    /* \"#utility.yul\":1392:1434   */\n  0xffffffffffffffffffffffffffffffffffffffff\n    /* \"#utility.yul\":1385:1390   */\n  dup3\n    /* \"#utility.yul\":1381:1435   */\n  and\n    /* \"#utility.yul\":1370:1435   */\n  swap1\n  pop\n    /* \"#utility.yul\":1315:1441   */\n  swap2\n  swap1\n  pop\n  jump\t// out\n    /* \"#utility.yul\":1447:1617   */\ntag_17:\n    /* \"#utility.yul\":1587:1609   */\n  0x4c656e64696e6720706f6f6c2063726561746564000000000000000000000000\n    /* \"#utility.yul\":1583:1584   */\n  0x00\n    /* \"#utility.yul\":1575:1581   */\n  dup3\n    /* \"#utility.yul\":1571:1585   */\n  add\n    /* \"#utility.yul\":1564:1610   */\n  mstore\n    /* \"#utility.yul\":1447:1617   */\n  pop\n  jump\t// out\n    /* \"contracts/LendingPool.sol\":219:2880  contract LendingPool  {... */\ntag_6:\n  dataSize(sub_0)\n  dup1\n  dataOffset(sub_0)\n  0x00\n  codecopy\n  0x00\n  return\nstop\n\nsub_0: assembly {\n        /* \"contracts/LendingPool.sol\":219:2880  contract LendingPool  {... */\n      mstore(0x40, 0x80)\n      jumpi(tag_1, lt(calldatasize, 0x04))\n      shr(0xe0, calldataload(0x00))\n      dup1\n      0x8da5cb5b\n      gt\n      tag_13\n      jumpi\n      dup1\n      0x8da5cb5b\n      eq\n      tag_8\n      jumpi\n      dup1\n      0xaeae177c\n      eq\n      tag_9\n      jumpi\n      dup1\n      0xc02b2092\n      eq\n      tag_10\n      jumpi\n      dup1\n      0xd0e30db0\n      eq\n      tag_11\n      jumpi\n      dup1\n      0xf9931855\n      eq\n      tag_12\n      jumpi\n      jump(tag_2)\n    tag_13:\n      dup1\n      0x3607999b\n      eq\n      tag_3\n      jumpi\n      dup1\n      0x56852391\n      eq\n      tag_4\n      jumpi\n      dup1\n      0x650fad76\n      eq\n      tag_5\n      jumpi\n      dup1\n      0x6e0e0da2\n      eq\n      tag_6\n      jumpi\n      dup1\n      0x6e1dc66e\n      eq\n      tag_7\n      jumpi\n      jump(tag_2)\n    tag_1:\n      jumpi(tag_2, calldatasize)\n      stop\n    tag_2:\n      stop\n        /* \"contracts/LendingPool.sol\":1407:1752  function lendingWithdraw(uint256 amount, address to) public payable {... */\n    tag_3:\n      tag_18\n      0x04\n      dup1\n      calldatasize\n      sub\n      dup2\n      add\n      swap1\n      tag_19\n      swap2\n      swap1\n      tag_20\n      jump\t// in\n    tag_19:\n      tag_21\n      jump\t// in\n    tag_18:\n      stop\n        /* \"contracts/LendingPool.sol\":2526:2798  function gateWithdrawl() public {... */\n    tag_4:\n      callvalue\n      dup1\n      iszero\n      tag_22\n      jumpi\n      0x00\n      dup1\n      revert\n    tag_22:\n      pop\n      tag_23\n      tag_24\n      jump\t// in\n    tag_23:\n      stop\n        /* \"contracts/LendingPool.sol\":281:316  uint256 public minimumAmt = 1 ether */\n    tag_5:\n      callvalue\n      dup1\n      iszero\n      tag_25\n      jumpi\n      0x00\n      dup1\n      revert\n    tag_25:\n      pop\n      tag_26\n      tag_27\n      jump\t// in\n    tag_26:\n      mload(0x40)\n      tag_28\n      swap2\n      swap1\n      tag_29\n      jump\t// in\n    tag_28:\n      mload(0x40)\n      dup1\n      swap2\n      sub\n      swap1\n      return\n        /* \"contracts/LendingPool.sol\":1826:2450  function depositWithdraw() public{... */\n    tag_6:\n      callvalue\n      dup1\n      iszero\n      tag_30\n      jumpi\n      0x00\n      dup1\n      revert\n    tag_30:\n      pop\n      tag_31\n      tag_32\n      jump\t// in\n    tag_31:\n      stop\n        /* \"contracts/LendingPool.sol\":451:495  mapping(address => uint256) public startTime */\n    tag_7:\n      callvalue\n      dup1\n      iszero\n      tag_33\n      jumpi\n      0x00\n      dup1\n      revert\n    tag_33:\n      pop\n      tag_34\n      0x04\n      dup1\n      calldatasize\n      sub\n      dup2\n      add\n      swap1\n      tag_35\n      swap2\n      swap1\n      tag_36\n      jump\t// in\n    tag_35:\n      tag_37\n      jump\t// in\n    tag_34:\n      mload(0x40)\n      tag_38\n      swap2\n      swap1\n      tag_29\n      jump\t// in\n    tag_38:\n      mload(0x40)\n      dup1\n      swap2\n      sub\n      swap1\n      return\n        /* \"contracts/LendingPool.sol\":323:351  address payable public owner */\n    tag_8:\n      callvalue\n      dup1\n      iszero\n      tag_39\n      jumpi\n      0x00\n      dup1\n      revert\n    tag_39:\n      pop\n      tag_40\n      tag_41\n      jump\t// in\n    tag_40:\n      mload(0x40)\n      tag_42\n      swap2\n      swap1\n      tag_43\n      jump\t// in\n    tag_42:\n      mload(0x40)\n      dup1\n      swap2\n      sub\n      swap1\n      return\n        /* \"contracts/LendingPool.sol\":554:603  mapping(address => uint256) public pendingPayment */\n    tag_9:\n      callvalue\n      dup1\n      iszero\n      tag_44\n      jumpi\n      0x00\n      dup1\n      revert\n    tag_44:\n      pop\n      tag_45\n      0x04\n      dup1\n      calldatasize\n      sub\n      dup2\n      add\n      swap1\n      tag_46\n      swap2\n      swap1\n      tag_36\n      jump\t// in\n    tag_46:\n      tag_47\n      jump\t// in\n    tag_45:\n      mload(0x40)\n      tag_48\n      swap2\n      swap1\n      tag_29\n      jump\t// in\n    tag_48:\n      mload(0x40)\n      dup1\n      swap2\n      sub\n      swap1\n      return\n        /* \"contracts/LendingPool.sol\":609:654  mapping(address => bool) public allowed_pools */\n    tag_10:\n      callvalue\n      dup1\n      iszero\n      tag_49\n      jumpi\n      0x00\n      dup1\n      revert\n    tag_49:\n      pop\n      tag_50\n      0x04\n      dup1\n      calldatasize\n      sub\n      dup2\n      add\n      swap1\n      tag_51\n      swap2\n      swap1\n      tag_36\n      jump\t// in\n    tag_51:\n      tag_52\n      jump\t// in\n    tag_50:\n      mload(0x40)\n      tag_53\n      swap2\n      swap1\n      tag_54\n      jump\t// in\n    tag_53:\n      mload(0x40)\n      dup1\n      swap2\n      sub\n      swap1\n      return\n        /* \"contracts/LendingPool.sol\":998:1401  function deposit() public payable {... */\n    tag_11:\n      tag_55\n      tag_56\n      jump\t// in\n    tag_55:\n      stop\n        /* \"contracts/LendingPool.sol\":501:548  mapping(address => uint256) public stakedAmount */\n    tag_12:\n      callvalue\n      dup1\n      iszero\n      tag_57\n      jumpi\n      0x00\n      dup1\n      revert\n    tag_57:\n      pop\n      tag_58\n      0x04\n      dup1\n      calldatasize\n      sub\n      dup2\n      add\n      swap1\n      tag_59\n      swap2\n      swap1\n      tag_36\n      jump\t// in\n    tag_59:\n      tag_60\n      jump\t// in\n    tag_58:\n      mload(0x40)\n      tag_61\n      swap2\n      swap1\n      tag_29\n      jump\t// in\n    tag_61:\n      mload(0x40)\n      dup1\n      swap2\n      sub\n      swap1\n      return\n        /* \"contracts/LendingPool.sol\":1407:1752  function lendingWithdraw(uint256 amount, address to) public payable {... */\n    tag_21:\n        /* \"contracts/LendingPool.sol\":1512:1526  totalDeposited */\n      sload(0x02)\n        /* \"contracts/LendingPool.sol\":1502:1508  amount */\n      dup3\n        /* \"contracts/LendingPool.sol\":1502:1526  amount <= totalDeposited */\n      gt\n      iszero\n        /* \"contracts/LendingPool.sol\":1494:1570  require(amount <= totalDeposited, \"Doesn't have enough balance in the bank\") */\n      tag_63\n      jumpi\n      mload(0x40)\n      0x08c379a000000000000000000000000000000000000000000000000000000000\n      dup2\n      mstore\n      0x04\n      add\n      tag_64\n      swap1\n      tag_65\n      jump\t// in\n    tag_64:\n      mload(0x40)\n      dup1\n      swap2\n      sub\n      swap1\n      revert\n    tag_63:\n        /* \"contracts/LendingPool.sol\":1597:1623  totalDeposited.sub(amount) */\n      tag_66\n        /* \"contracts/LendingPool.sol\":1616:1622  amount */\n      dup3\n        /* \"contracts/LendingPool.sol\":1597:1611  totalDeposited */\n      sload(0x02)\n        /* \"contracts/LendingPool.sol\":1597:1615  totalDeposited.sub */\n      tag_67\n      swap1\n        /* \"contracts/LendingPool.sol\":1597:1623  totalDeposited.sub(amount) */\n      swap2\n      swap1\n      0xffffffff\n      and\n      jump\t// in\n    tag_66:\n        /* \"contracts/LendingPool.sol\":1580:1594  totalDeposited */\n      0x02\n        /* \"contracts/LendingPool.sol\":1580:1623  totalDeposited = totalDeposited.sub(amount) */\n      dup2\n      swap1\n      sstore\n      pop\n        /* \"contracts/LendingPool.sol\":1654:1684  pendingPayment[to].add(amount) */\n      tag_68\n        /* \"contracts/LendingPool.sol\":1677:1683  amount */\n      dup3\n        /* \"contracts/LendingPool.sol\":1654:1668  pendingPayment */\n      0x06\n        /* \"contracts/LendingPool.sol\":1654:1672  pendingPayment[to] */\n      0x00\n        /* \"contracts/LendingPool.sol\":1669:1671  to */\n      dup5\n        /* \"contracts/LendingPool.sol\":1654:1672  pendingPayment[to] */\n      0xffffffffffffffffffffffffffffffffffffffff\n      and\n      0xffffffffffffffffffffffffffffffffffffffff\n      and\n      dup2\n      mstore\n      0x20\n      add\n      swap1\n      dup2\n      mstore\n      0x20\n      add\n      0x00\n      keccak256\n      sload\n        /* \"contracts/LendingPool.sol\":1654:1676  pendingPayment[to].add */\n      tag_69\n      swap1\n        /* \"contracts/LendingPool.sol\":1654:1684  pendingPayment[to].add(amount) */\n      swap2\n      swap1\n      0xffffffff\n      and\n      jump\t// in\n    tag_68:\n        /* \"contracts/LendingPool.sol\":1633:1647  pendingPayment */\n      0x06\n        /* \"contracts/LendingPool.sol\":1633:1651  pendingPayment[to] */\n      0x00\n        /* \"contracts/LendingPool.sol\":1648:1650  to */\n      dup4\n        /* \"contracts/LendingPool.sol\":1633:1651  pendingPayment[to] */\n      0xffffffffffffffffffffffffffffffffffffffff\n      and\n      0xffffffffffffffffffffffffffffffffffffffff\n      and\n      dup2\n      mstore\n      0x20\n      add\n      swap1\n      dup2\n      mstore\n      0x20\n      add\n      0x00\n      keccak256\n        /* \"contracts/LendingPool.sol\":1633:1684  pendingPayment[to] = pendingPayment[to].add(amount) */\n      dup2\n      swap1\n      sstore\n      pop\n        /* \"contracts/LendingPool.sol\":1699:1744  LendingPoolMessage(\"Money withdrawen to\", to) */\n      0xf67e7992d539193fc243c42fe89f8fab49013e8e4fb18cfa891dc51adcaccc80\n        /* \"contracts/LendingPool.sol\":1741:1743  to */\n      dup2\n        /* \"contracts/LendingPool.sol\":1699:1744  LendingPoolMessage(\"Money withdrawen to\", to) */\n      mload(0x40)\n      tag_70\n      swap2\n      swap1\n      tag_71\n      jump\t// in\n    tag_70:\n      mload(0x40)\n      dup1\n      swap2\n      sub\n      swap1\n      log1\n        /* \"contracts/LendingPool.sol\":1407:1752  function lendingWithdraw(uint256 amount, address to) public payable {... */\n      pop\n      pop\n      jump\t// out\n        /* \"contracts/LendingPool.sol\":2526:2798  function gateWithdrawl() public {... */\n    tag_24:\n        /* \"contracts/LendingPool.sol\":2605:2606  0 */\n      0x00\n        /* \"contracts/LendingPool.sol\":2576:2590  pendingPayment */\n      0x06\n        /* \"contracts/LendingPool.sol\":2576:2602  pendingPayment[msg.sender] */\n      0x00\n        /* \"contracts/LendingPool.sol\":2591:2601  msg.sender */\n      caller\n        /* \"contracts/LendingPool.sol\":2576:2602  pendingPayment[msg.sender] */\n      0xffffffffffffffffffffffffffffffffffffffff\n      and\n      0xffffffffffffffffffffffffffffffffffffffff\n      and\n      dup2\n      mstore\n      0x20\n      add\n      swap1\n      dup2\n      mstore\n      0x20\n      add\n      0x00\n      keccak256\n      sload\n        /* \"contracts/LendingPool.sol\":2576:2606  pendingPayment[msg.sender] > 0 */\n      gt\n        /* \"contracts/LendingPool.sol\":2568:2647  require(pendingPayment[msg.sender] > 0, \"You don't have no pending withdrawls\") */\n      tag_73\n      jumpi\n      mload(0x40)\n      0x08c379a000000000000000000000000000000000000000000000000000000000\n      dup2\n      mstore\n      0x04\n      add\n      tag_74\n      swap1\n      tag_75\n      jump\t// in\n    tag_74:\n      mload(0x40)\n      dup1\n      swap2\n      sub\n      swap1\n      revert\n    tag_73:\n        /* \"contracts/LendingPool.sol\":2657:2671  uint256 amount */\n      0x00\n        /* \"contracts/LendingPool.sol\":2674:2688  pendingPayment */\n      0x06\n        /* \"contracts/LendingPool.sol\":2674:2700  pendingPayment[msg.sender] */\n      0x00\n        /* \"contracts/LendingPool.sol\":2689:2699  msg.sender */\n      caller\n        /* \"contracts/LendingPool.sol\":2674:2700  pendingPayment[msg.sender] */\n      0xffffffffffffffffffffffffffffffffffffffff\n      and\n      0xffffffffffffffffffffffffffffffffffffffff\n      and\n      dup2\n      mstore\n      0x20\n      add\n      swap1\n      dup2\n      mstore\n      0x20\n      add\n      0x00\n      keccak256\n      sload\n        /* \"contracts/LendingPool.sol\":2657:2700  uint256 amount = pendingPayment[msg.sender] */\n      swap1\n      pop\n        /* \"contracts/LendingPool.sol\":2740:2741  0 */\n      0x00\n        /* \"contracts/LendingPool.sol\":2710:2724  pendingPayment */\n      0x06\n        /* \"contracts/LendingPool.sol\":2710:2736  pendingPayment[msg.sender] */\n      0x00\n        /* \"contracts/LendingPool.sol\":2725:2735  msg.sender */\n      caller\n        /* \"contracts/LendingPool.sol\":2710:2736  pendingPayment[msg.sender] */\n      0xffffffffffffffffffffffffffffffffffffffff\n      and\n      0xffffffffffffffffffffffffffffffffffffffff\n      and\n      dup2\n      mstore\n      0x20\n      add\n      swap1\n      dup2\n      mstore\n      0x20\n      add\n      0x00\n      keccak256\n        /* \"contracts/LendingPool.sol\":2710:2741  pendingPayment[msg.sender] =  0 */\n      dup2\n      swap1\n      sstore\n      pop\n        /* \"contracts/LendingPool.sol\":2763:2773  msg.sender */\n      caller\n        /* \"contracts/LendingPool.sol\":2755:2783  payable(msg.sender).transfer */\n      0xffffffffffffffffffffffffffffffffffffffff\n      and\n        /* \"contracts/LendingPool.sol\":2755:2791  payable(msg.sender).transfer(amount) */\n      0x08fc\n        /* \"contracts/LendingPool.sol\":2784:2790  amount */\n      dup3\n        /* \"contracts/LendingPool.sol\":2755:2791  payable(msg.sender).transfer(amount) */\n      swap1\n      dup2\n      iszero\n      mul\n      swap1\n      mload(0x40)\n      0x00\n      mload(0x40)\n      dup1\n      dup4\n      sub\n      dup2\n      dup6\n      dup9\n      dup9\n      call\n      swap4\n      pop\n      pop\n      pop\n      pop\n      iszero\n      dup1\n      iszero\n      tag_77\n      jumpi\n      returndatasize\n      0x00\n      dup1\n      returndatacopy\n      revert(0x00, returndatasize)\n    tag_77:\n      pop\n        /* \"contracts/LendingPool.sol\":2558:2798  {... */\n      pop\n        /* \"contracts/LendingPool.sol\":2526:2798  function gateWithdrawl() public {... */\n      jump\t// out\n        /* \"contracts/LendingPool.sol\":281:316  uint256 public minimumAmt = 1 ether */\n    tag_27:\n      sload(0x00)\n      dup2\n      jump\t// out\n        /* \"contracts/LendingPool.sol\":1826:2450  function depositWithdraw() public{... */\n    tag_32:\n        /* \"contracts/LendingPool.sol\":1904:1905  0 */\n      0x00\n        /* \"contracts/LendingPool.sol\":1877:1889  stakedAmount */\n      0x05\n        /* \"contracts/LendingPool.sol\":1877:1901  stakedAmount[msg.sender] */\n      0x00\n        /* \"contracts/LendingPool.sol\":1890:1900  msg.sender */\n      caller\n        /* \"contracts/LendingPool.sol\":1877:1901  stakedAmount[msg.sender] */\n      0xffffffffffffffffffffffffffffffffffffffff\n      and\n      0xffffffffffffffffffffffffffffffffffffffff\n      and\n      dup2\n      mstore\n      0x20\n      add\n      swap1\n      dup2\n      mstore\n      0x20\n      add\n      0x00\n      keccak256\n      sload\n        /* \"contracts/LendingPool.sol\":1877:1905  stakedAmount[msg.sender] > 0 */\n      gt\n        /* \"contracts/LendingPool.sol\":1869:1942  require(stakedAmount[msg.sender] > 0, \"You don't have any money in here\") */\n      tag_79\n      jumpi\n      mload(0x40)\n      0x08c379a000000000000000000000000000000000000000000000000000000000\n      dup2\n      mstore\n      0x04\n      add\n      tag_80\n      swap1\n      tag_81\n      jump\t// in\n    tag_80:\n      mload(0x40)\n      dup1\n      swap2\n      sub\n      swap1\n      revert\n    tag_79:\n        /* \"contracts/LendingPool.sol\":1952:1971  uint256 time_staked */\n      0x00\n        /* \"contracts/LendingPool.sol\":1974:2027  (startTime[msg.sender] -  block.timestamp).div(86400) */\n      tag_82\n        /* \"contracts/LendingPool.sol\":2021:2026  86400 */\n      0x015180\n        /* \"contracts/LendingPool.sol\":2000:2015  block.timestamp */\n      timestamp\n        /* \"contracts/LendingPool.sol\":1975:1984  startTime */\n      0x04\n        /* \"contracts/LendingPool.sol\":1975:1996  startTime[msg.sender] */\n      0x00\n        /* \"contracts/LendingPool.sol\":1985:1995  msg.sender */\n      caller\n        /* \"contracts/LendingPool.sol\":1975:1996  startTime[msg.sender] */\n      0xffffffffffffffffffffffffffffffffffffffff\n      and\n      0xffffffffffffffffffffffffffffffffffffffff\n      and\n      dup2\n      mstore\n      0x20\n      add\n      swap1\n      dup2\n      mstore\n      0x20\n      add\n      0x00\n      keccak256\n      sload\n        /* \"contracts/LendingPool.sol\":1975:2015  startTime[msg.sender] -  block.timestamp */\n      tag_83\n      swap2\n      swap1\n      tag_84\n      jump\t// in\n    tag_83:\n        /* \"contracts/LendingPool.sol\":1974:2020  (startTime[msg.sender] -  block.timestamp).div */\n      tag_85\n      swap1\n        /* \"contracts/LendingPool.sol\":1974:2027  (startTime[msg.sender] -  block.timestamp).div(86400) */\n      swap2\n      swap1\n      0xffffffff\n      and\n      jump\t// in\n    tag_82:\n        /* \"contracts/LendingPool.sol\":1952:2027  uint256 time_staked = (startTime[msg.sender] -  block.timestamp).div(86400) */\n      swap1\n      pop\n        /* \"contracts/LendingPool.sol\":2059:2069  30 * 86400 */\n      0x278d00\n        /* \"contracts/LendingPool.sol\":2045:2056  time_staked */\n      dup2\n        /* \"contracts/LendingPool.sol\":2045:2069  time_staked > 30 * 86400 */\n      gt\n        /* \"contracts/LendingPool.sol\":2037:2110  require(time_staked > 30 * 86400, \"You should atleast stake for a monty\") */\n      tag_86\n      jumpi\n      mload(0x40)\n      0x08c379a000000000000000000000000000000000000000000000000000000000\n      dup2\n      mstore\n      0x04\n      add\n      tag_87\n      swap1\n      tag_88\n      jump\t// in\n    tag_87:\n      mload(0x40)\n      dup1\n      swap2\n      sub\n      swap1\n      revert\n    tag_86:\n        /* \"contracts/LendingPool.sol\":2120:2133  uint256 yield */\n      0x00\n        /* \"contracts/LendingPool.sol\":2163:2220  time_staked.mul(5).mul(stakedAmount[msg.sender]).div(100) */\n      tag_89\n        /* \"contracts/LendingPool.sol\":2216:2219  100 */\n      0x64\n        /* \"contracts/LendingPool.sol\":2163:2211  time_staked.mul(5).mul(stakedAmount[msg.sender]) */\n      tag_90\n        /* \"contracts/LendingPool.sol\":2186:2198  stakedAmount */\n      0x05\n        /* \"contracts/LendingPool.sol\":2186:2210  stakedAmount[msg.sender] */\n      0x00\n        /* \"contracts/LendingPool.sol\":2199:2209  msg.sender */\n      caller\n        /* \"contracts/LendingPool.sol\":2186:2210  stakedAmount[msg.sender] */\n      0xffffffffffffffffffffffffffffffffffffffff\n      and\n      0xffffffffffffffffffffffffffffffffffffffff\n      and\n      dup2\n      mstore\n      0x20\n      add\n      swap1\n      dup2\n      mstore\n      0x20\n      add\n      0x00\n      keccak256\n      sload\n        /* \"contracts/LendingPool.sol\":2163:2181  time_staked.mul(5) */\n      tag_91\n        /* \"contracts/LendingPool.sol\":2179:2180  5 */\n      0x05\n        /* \"contracts/LendingPool.sol\":2163:2174  time_staked */\n      dup8\n        /* \"contracts/LendingPool.sol\":2163:2178  time_staked.mul */\n      tag_92\n      swap1\n        /* \"contracts/LendingPool.sol\":2163:2181  time_staked.mul(5) */\n      swap2\n      swap1\n      0xffffffff\n      and\n      jump\t// in\n    tag_91:\n        /* \"contracts/LendingPool.sol\":2163:2185  time_staked.mul(5).mul */\n      tag_92\n      swap1\n        /* \"contracts/LendingPool.sol\":2163:2211  time_staked.mul(5).mul(stakedAmount[msg.sender]) */\n      swap2\n      swap1\n      0xffffffff\n      and\n      jump\t// in\n    tag_90:\n        /* \"contracts/LendingPool.sol\":2163:2215  time_staked.mul(5).mul(stakedAmount[msg.sender]).div */\n      tag_85\n      swap1\n        /* \"contracts/LendingPool.sol\":2163:2220  time_staked.mul(5).mul(stakedAmount[msg.sender]).div(100) */\n      swap2\n      swap1\n      0xffffffff\n      and\n      jump\t// in\n    tag_89:\n        /* \"contracts/LendingPool.sol\":2136:2148  stakedAmount */\n      0x05\n        /* \"contracts/LendingPool.sol\":2136:2160  stakedAmount[msg.sender] */\n      0x00\n        /* \"contracts/LendingPool.sol\":2149:2159  msg.sender */\n      caller\n        /* \"contracts/LendingPool.sol\":2136:2160  stakedAmount[msg.sender] */\n      0xffffffffffffffffffffffffffffffffffffffff\n      and\n      0xffffffffffffffffffffffffffffffffffffffff\n      and\n      dup2\n      mstore\n      0x20\n      add\n      swap1\n      dup2\n      mstore\n      0x20\n      add\n      0x00\n      keccak256\n      sload\n        /* \"contracts/LendingPool.sol\":2136:2220  stakedAmount[msg.sender] + time_staked.mul(5).mul(stakedAmount[msg.sender]).div(100) */\n      tag_93\n      swap2\n      swap1\n      tag_94\n      jump\t// in\n    tag_93:\n        /* \"contracts/LendingPool.sol\":2120:2220  uint256 yield = stakedAmount[msg.sender] + time_staked.mul(5).mul(stakedAmount[msg.sender]).div(100) */\n      swap1\n      pop\n        /* \"contracts/LendingPool.sol\":2246:2260  totalDeposited */\n      sload(0x02)\n        /* \"contracts/LendingPool.sol\":2238:2243  yield */\n      dup2\n        /* \"contracts/LendingPool.sol\":2238:2260  yield < totalDeposited */\n      lt\n        /* \"contracts/LendingPool.sol\":2230:2315  require(yield < totalDeposited, \"Sorry we don't have enough money so comeback later\") */\n      tag_95\n      jumpi\n      mload(0x40)\n      0x08c379a000000000000000000000000000000000000000000000000000000000\n      dup2\n      mstore\n      0x04\n      add\n      tag_96\n      swap1\n      tag_97\n      jump\t// in\n    tag_96:\n      mload(0x40)\n      dup1\n      swap2\n      sub\n      swap1\n      revert\n    tag_95:\n        /* \"contracts/LendingPool.sol\":2342:2367  totalDeposited.sub(yield) */\n      tag_98\n        /* \"contracts/LendingPool.sol\":2361:2366  yield */\n      dup2\n        /* \"contracts/LendingPool.sol\":2342:2356  totalDeposited */\n      sload(0x02)\n        /* \"contracts/LendingPool.sol\":2342:2360  totalDeposited.sub */\n      tag_67\n      swap1\n        /* \"contracts/LendingPool.sol\":2342:2367  totalDeposited.sub(yield) */\n      swap2\n      swap1\n      0xffffffff\n      and\n      jump\t// in\n    tag_98:\n        /* \"contracts/LendingPool.sol\":2325:2339  totalDeposited */\n      0x02\n        /* \"contracts/LendingPool.sol\":2325:2367  totalDeposited = totalDeposited.sub(yield) */\n      dup2\n      swap1\n      sstore\n      pop\n        /* \"contracts/LendingPool.sol\":2406:2443  pendingPayment[msg.sender].add(yield) */\n      tag_99\n        /* \"contracts/LendingPool.sol\":2437:2442  yield */\n      dup2\n        /* \"contracts/LendingPool.sol\":2406:2420  pendingPayment */\n      0x06\n        /* \"contracts/LendingPool.sol\":2406:2432  pendingPayment[msg.sender] */\n      0x00\n        /* \"contracts/LendingPool.sol\":2421:2431  msg.sender */\n      caller\n        /* \"contracts/LendingPool.sol\":2406:2432  pendingPayment[msg.sender] */\n      0xffffffffffffffffffffffffffffffffffffffff\n      and\n      0xffffffffffffffffffffffffffffffffffffffff\n      and\n      dup2\n      mstore\n      0x20\n      add\n      swap1\n      dup2\n      mstore\n      0x20\n      add\n      0x00\n      keccak256\n      sload\n        /* \"contracts/LendingPool.sol\":2406:2436  pendingPayment[msg.sender].add */\n      tag_69\n      swap1\n        /* \"contracts/LendingPool.sol\":2406:2443  pendingPayment[msg.sender].add(yield) */\n      swap2\n      swap1\n      0xffffffff\n      and\n      jump\t// in\n    tag_99:\n        /* \"contracts/LendingPool.sol\":2377:2391  pendingPayment */\n      0x06\n        /* \"contracts/LendingPool.sol\":2377:2403  pendingPayment[msg.sender] */\n      0x00\n        /* \"contracts/LendingPool.sol\":2392:2402  msg.sender */\n      caller\n        /* \"contracts/LendingPool.sol\":2377:2403  pendingPayment[msg.sender] */\n      0xffffffffffffffffffffffffffffffffffffffff\n      and\n      0xffffffffffffffffffffffffffffffffffffffff\n      and\n      dup2\n      mstore\n      0x20\n      add\n      swap1\n      dup2\n      mstore\n      0x20\n      add\n      0x00\n      keccak256\n        /* \"contracts/LendingPool.sol\":2377:2443  pendingPayment[msg.sender] = pendingPayment[msg.sender].add(yield) */\n      dup2\n      swap1\n      sstore\n      pop\n        /* \"contracts/LendingPool.sol\":1859:2450  {... */\n      pop\n      pop\n        /* \"contracts/LendingPool.sol\":1826:2450  function depositWithdraw() public{... */\n      jump\t// out\n        /* \"contracts/LendingPool.sol\":451:495  mapping(address => uint256) public startTime */\n    tag_37:\n      mstore(0x20, 0x04)\n      dup1\n      0x00\n      mstore\n      keccak256(0x00, 0x40)\n      0x00\n      swap2\n      pop\n      swap1\n      pop\n      sload\n      dup2\n      jump\t// out\n        /* \"contracts/LendingPool.sol\":323:351  address payable public owner */\n    tag_41:\n      0x01\n      0x00\n      swap1\n      sload\n      swap1\n      0x0100\n      exp\n      swap1\n      div\n      0xffffffffffffffffffffffffffffffffffffffff\n      and\n      dup2\n      jump\t// out\n        /* \"contracts/LendingPool.sol\":554:603  mapping(address => uint256) public pendingPayment */\n    tag_47:\n      mstore(0x20, 0x06)\n      dup1\n      0x00\n      mstore\n      keccak256(0x00, 0x40)\n      0x00\n      swap2\n      pop\n      swap1\n      pop\n      sload\n      dup2\n      jump\t// out\n        /* \"contracts/LendingPool.sol\":609:654  mapping(address => bool) public allowed_pools */\n    tag_52:\n      mstore(0x20, 0x07)\n      dup1\n      0x00\n      mstore\n      keccak256(0x00, 0x40)\n      0x00\n      swap2\n      pop\n      sload\n      swap1\n      0x0100\n      exp\n      swap1\n      div\n      0xff\n      and\n      dup2\n      jump\t// out\n        /* \"contracts/LendingPool.sol\":998:1401  function deposit() public payable {... */\n    tag_56:\n        /* \"contracts/LendingPool.sol\":1063:1073  minimumAmt */\n      sload(0x00)\n        /* \"contracts/LendingPool.sol\":1050:1059  msg.value */\n      callvalue\n        /* \"contracts/LendingPool.sol\":1050:1073  msg.value >= minimumAmt */\n      lt\n      iszero\n        /* \"contracts/LendingPool.sol\":1042:1102  require(msg.value >= minimumAmt, \"Minimum 1 Ether Required\") */\n      tag_101\n      jumpi\n      mload(0x40)\n      0x08c379a000000000000000000000000000000000000000000000000000000000\n      dup2\n      mstore\n      0x04\n      add\n      tag_102\n      swap1\n      tag_103\n      jump\t// in\n    tag_102:\n      mload(0x40)\n      dup1\n      swap2\n      sub\n      swap1\n      revert\n    tag_101:\n        /* \"contracts/LendingPool.sol\":1192:1207  block.timestamp */\n      timestamp\n        /* \"contracts/LendingPool.sol\":1168:1177  startTime */\n      0x04\n        /* \"contracts/LendingPool.sol\":1168:1189  startTime[msg.sender] */\n      0x00\n        /* \"contracts/LendingPool.sol\":1178:1188  msg.sender */\n      caller\n        /* \"contracts/LendingPool.sol\":1168:1189  startTime[msg.sender] */\n      0xffffffffffffffffffffffffffffffffffffffff\n      and\n      0xffffffffffffffffffffffffffffffffffffffff\n      and\n      dup2\n      mstore\n      0x20\n      add\n      swap1\n      dup2\n      mstore\n      0x20\n      add\n      0x00\n      keccak256\n        /* \"contracts/LendingPool.sol\":1168:1207  startTime[msg.sender] = block.timestamp */\n      dup2\n      swap1\n      sstore\n      pop\n        /* \"contracts/LendingPool.sol\":1244:1283  stakedAmount[msg.sender].add(msg.value) */\n      tag_104\n        /* \"contracts/LendingPool.sol\":1273:1282  msg.value */\n      callvalue\n        /* \"contracts/LendingPool.sol\":1244:1256  stakedAmount */\n      0x05\n        /* \"contracts/LendingPool.sol\":1244:1268  stakedAmount[msg.sender] */\n      0x00\n        /* \"contracts/LendingPool.sol\":1257:1267  msg.sender */\n      caller\n        /* \"contracts/LendingPool.sol\":1244:1268  stakedAmount[msg.sender] */\n      0xffffffffffffffffffffffffffffffffffffffff\n      and\n      0xffffffffffffffffffffffffffffffffffffffff\n      and\n      dup2\n      mstore\n      0x20\n      add\n      swap1\n      dup2\n      mstore\n      0x20\n      add\n      0x00\n      keccak256\n      sload\n        /* \"contracts/LendingPool.sol\":1244:1272  stakedAmount[msg.sender].add */\n      tag_69\n      swap1\n        /* \"contracts/LendingPool.sol\":1244:1283  stakedAmount[msg.sender].add(msg.value) */\n      swap2\n      swap1\n      0xffffffff\n      and\n      jump\t// in\n    tag_104:\n        /* \"contracts/LendingPool.sol\":1217:1229  stakedAmount */\n      0x05\n        /* \"contracts/LendingPool.sol\":1217:1241  stakedAmount[msg.sender] */\n      0x00\n        /* \"contracts/LendingPool.sol\":1230:1240  msg.sender */\n      caller\n        /* \"contracts/LendingPool.sol\":1217:1241  stakedAmount[msg.sender] */\n      0xffffffffffffffffffffffffffffffffffffffff\n      and\n      0xffffffffffffffffffffffffffffffffffffffff\n      and\n      dup2\n      mstore\n      0x20\n      add\n      swap1\n      dup2\n      mstore\n      0x20\n      add\n      0x00\n      keccak256\n        /* \"contracts/LendingPool.sol\":1217:1283  stakedAmount[msg.sender] = stakedAmount[msg.sender].add(msg.value) */\n      dup2\n      swap1\n      sstore\n      pop\n        /* \"contracts/LendingPool.sol\":1310:1339  totalDeposited.add(msg.value) */\n      tag_105\n        /* \"contracts/LendingPool.sol\":1329:1338  msg.value */\n      callvalue\n        /* \"contracts/LendingPool.sol\":1310:1324  totalDeposited */\n      sload(0x02)\n        /* \"contracts/LendingPool.sol\":1310:1328  totalDeposited.add */\n      tag_69\n      swap1\n        /* \"contracts/LendingPool.sol\":1310:1339  totalDeposited.add(msg.value) */\n      swap2\n      swap1\n      0xffffffff\n      and\n      jump\t// in\n    tag_105:\n        /* \"contracts/LendingPool.sol\":1293:1307  totalDeposited */\n      0x02\n        /* \"contracts/LendingPool.sol\":1293:1339  totalDeposited = totalDeposited.add(msg.value) */\n      dup2\n      swap1\n      sstore\n      pop\n        /* \"contracts/LendingPool.sol\":1354:1394  LendingPoolMessage(\"staked\", msg.sender) */\n      0xf67e7992d539193fc243c42fe89f8fab49013e8e4fb18cfa891dc51adcaccc80\n        /* \"contracts/LendingPool.sol\":1383:1393  msg.sender */\n      caller\n        /* \"contracts/LendingPool.sol\":1354:1394  LendingPoolMessage(\"staked\", msg.sender) */\n      mload(0x40)\n      tag_106\n      swap2\n      swap1\n      tag_107\n      jump\t// in\n    tag_106:\n      mload(0x40)\n      dup1\n      swap2\n      sub\n      swap1\n      log1\n        /* \"contracts/LendingPool.sol\":998:1401  function deposit() public payable {... */\n      jump\t// out\n        /* \"contracts/LendingPool.sol\":501:548  mapping(address => uint256) public stakedAmount */\n    tag_60:\n      mstore(0x20, 0x05)\n      dup1\n      0x00\n      mstore\n      keccak256(0x00, 0x40)\n      0x00\n      swap2\n      pop\n      swap1\n      pop\n      sload\n      dup2\n      jump\t// out\n        /* \"contracts/SafeMath.sol\":245:405  function sub(uint256 a, uint256 b) internal pure returns (uint256 c) {... */\n    tag_67:\n        /* \"contracts/SafeMath.sol\":303:312  uint256 c */\n      0x00\n        /* \"contracts/SafeMath.sol\":337:338  a */\n      dup3\n        /* \"contracts/SafeMath.sol\":332:333  b */\n      dup3\n        /* \"contracts/SafeMath.sol\":332:338  b <= a */\n      gt\n      iszero\n        /* \"contracts/SafeMath.sol\":324:361  require(b <= a, \"Substraction faild\") */\n      tag_109\n      jumpi\n      mload(0x40)\n      0x08c379a000000000000000000000000000000000000000000000000000000000\n      dup2\n      mstore\n      0x04\n      add\n      tag_110\n      swap1\n      tag_111\n      jump\t// in\n    tag_110:\n      mload(0x40)\n      dup1\n      swap2\n      sub\n      swap1\n      revert\n    tag_109:\n        /* \"contracts/SafeMath.sol\":379:380  b */\n      dup2\n        /* \"contracts/SafeMath.sol\":375:376  a */\n      dup4\n        /* \"contracts/SafeMath.sol\":375:380  a - b */\n      tag_112\n      swap2\n      swap1\n      tag_84\n      jump\t// in\n    tag_112:\n        /* \"contracts/SafeMath.sol\":371:380  c = a - b */\n      swap1\n      pop\n        /* \"contracts/SafeMath.sol\":245:405  function sub(uint256 a, uint256 b) internal pure returns (uint256 c) {... */\n      swap3\n      swap2\n      pop\n      pop\n      jump\t// out\n        /* \"contracts/SafeMath.sol\":82:239  function add(uint256 a, uint256 b) internal pure returns (uint256 c) {... */\n    tag_69:\n        /* \"contracts/SafeMath.sol\":140:149  uint256 c */\n      0x00\n        /* \"contracts/SafeMath.sol\":169:170  b */\n      dup2\n        /* \"contracts/SafeMath.sol\":165:166  a */\n      dup4\n        /* \"contracts/SafeMath.sol\":165:170  a + b */\n      tag_114\n      swap2\n      swap1\n      tag_94\n      jump\t// in\n    tag_114:\n        /* \"contracts/SafeMath.sol\":161:170  c = a + b */\n      swap1\n      pop\n        /* \"contracts/SafeMath.sol\":193:194  a */\n      dup3\n        /* \"contracts/SafeMath.sol\":188:189  c */\n      dup2\n        /* \"contracts/SafeMath.sol\":188:194  c >= a */\n      lt\n      iszero\n        /* \"contracts/SafeMath.sol\":180:214  require(c >= a, \"Addition failed\") */\n      tag_115\n      jumpi\n      mload(0x40)\n      0x08c379a000000000000000000000000000000000000000000000000000000000\n      dup2\n      mstore\n      0x04\n      add\n      tag_116\n      swap1\n      tag_117\n      jump\t// in\n    tag_116:\n      mload(0x40)\n      dup1\n      swap2\n      sub\n      swap1\n      revert\n    tag_115:\n        /* \"contracts/SafeMath.sol\":82:239  function add(uint256 a, uint256 b) internal pure returns (uint256 c) {... */\n      swap3\n      swap2\n      pop\n      pop\n      jump\t// out\n        /* \"contracts/SafeMath.sol\":593:748  function div(uint256 a, uint256 b) internal pure returns (uint256 c) {... */\n    tag_85:\n        /* \"contracts/SafeMath.sol\":651:660  uint256 c */\n      0x00\n        /* \"contracts/SafeMath.sol\":684:685  0 */\n      dup1\n        /* \"contracts/SafeMath.sol\":680:681  b */\n      dup3\n        /* \"contracts/SafeMath.sol\":680:685  b > 0 */\n      gt\n        /* \"contracts/SafeMath.sol\":672:704  require(b > 0, \"Division faild\") */\n      tag_119\n      jumpi\n      mload(0x40)\n      0x08c379a000000000000000000000000000000000000000000000000000000000\n      dup2\n      mstore\n      0x04\n      add\n      tag_120\n      swap1\n      tag_121\n      jump\t// in\n    tag_120:\n      mload(0x40)\n      dup1\n      swap2\n      sub\n      swap1\n      revert\n    tag_119:\n        /* \"contracts/SafeMath.sol\":722:723  b */\n      dup2\n        /* \"contracts/SafeMath.sol\":718:719  a */\n      dup4\n        /* \"contracts/SafeMath.sol\":718:723  a / b */\n      tag_122\n      swap2\n      swap1\n      tag_123\n      jump\t// in\n    tag_122:\n        /* \"contracts/SafeMath.sol\":714:723  c = a / b */\n      swap1\n      pop\n        /* \"contracts/SafeMath.sol\":593:748  function div(uint256 a, uint256 b) internal pure returns (uint256 c) {... */\n      swap3\n      swap2\n      pop\n      pop\n      jump\t// out\n        /* \"contracts/SafeMath.sol\":411:587  function mul(uint256 a, uint256 b) internal pure returns (uint256 c) {... */\n    tag_92:\n        /* \"contracts/SafeMath.sol\":469:478  uint256 c */\n      0x00\n        /* \"contracts/SafeMath.sol\":498:499  b */\n      dup2\n        /* \"contracts/SafeMath.sol\":494:495  a */\n      dup4\n        /* \"contracts/SafeMath.sol\":494:499  a * b */\n      tag_125\n      swap2\n      swap1\n      tag_126\n      jump\t// in\n    tag_125:\n        /* \"contracts/SafeMath.sol\":490:499  c = a * b */\n      swap1\n      pop\n        /* \"contracts/SafeMath.sol\":522:523  0 */\n      0x00\n        /* \"contracts/SafeMath.sol\":517:518  a */\n      dup4\n        /* \"contracts/SafeMath.sol\":517:523  a == 0 */\n      eq\n        /* \"contracts/SafeMath.sol\":517:537  a == 0 || c / a == b */\n      dup1\n      tag_127\n      jumpi\n      pop\n        /* \"contracts/SafeMath.sol\":536:537  b */\n      dup2\n        /* \"contracts/SafeMath.sol\":531:532  a */\n      dup4\n        /* \"contracts/SafeMath.sol\":527:528  c */\n      dup3\n        /* \"contracts/SafeMath.sol\":527:532  c / a */\n      tag_128\n      swap2\n      swap1\n      tag_123\n      jump\t// in\n    tag_128:\n        /* \"contracts/SafeMath.sol\":527:537  c / a == b */\n      eq\n        /* \"contracts/SafeMath.sol\":517:537  a == 0 || c / a == b */\n    tag_127:\n        /* \"contracts/SafeMath.sol\":509:562  require(a == 0 || c / a == b, \"Multiplication faild\") */\n      tag_129\n      jumpi\n      mload(0x40)\n      0x08c379a000000000000000000000000000000000000000000000000000000000\n      dup2\n      mstore\n      0x04\n      add\n      tag_130\n      swap1\n      tag_131\n      jump\t// in\n    tag_130:\n      mload(0x40)\n      dup1\n      swap2\n      sub\n      swap1\n      revert\n    tag_129:\n        /* \"contracts/SafeMath.sol\":411:587  function mul(uint256 a, uint256 b) internal pure returns (uint256 c) {... */\n      swap3\n      swap2\n      pop\n      pop\n      jump\t// out\n        /* \"#utility.yul\":7:146   */\n    tag_133:\n        /* \"#utility.yul\":53:58   */\n      0x00\n        /* \"#utility.yul\":91:97   */\n      dup2\n        /* \"#utility.yul\":78:98   */\n      calldataload\n        /* \"#utility.yul\":69:98   */\n      swap1\n      pop\n        /* \"#utility.yul\":107:140   */\n      tag_135\n        /* \"#utility.yul\":134:139   */\n      dup2\n        /* \"#utility.yul\":107:140   */\n      tag_136\n      jump\t// in\n    tag_135:\n        /* \"#utility.yul\":7:146   */\n      swap3\n      swap2\n      pop\n      pop\n      jump\t// out\n        /* \"#utility.yul\":152:291   */\n    tag_137:\n        /* \"#utility.yul\":198:203   */\n      0x00\n        /* \"#utility.yul\":236:242   */\n      dup2\n        /* \"#utility.yul\":223:243   */\n      calldataload\n        /* \"#utility.yul\":214:243   */\n      swap1\n      pop\n        /* \"#utility.yul\":252:285   */\n      tag_139\n        /* \"#utility.yul\":279:284   */\n      dup2\n        /* \"#utility.yul\":252:285   */\n      tag_140\n      jump\t// in\n    tag_139:\n        /* \"#utility.yul\":152:291   */\n      swap3\n      swap2\n      pop\n      pop\n      jump\t// out\n        /* \"#utility.yul\":297:626   */\n    tag_36:\n        /* \"#utility.yul\":356:362   */\n      0x00\n        /* \"#utility.yul\":405:407   */\n      0x20\n        /* \"#utility.yul\":393:402   */\n      dup3\n        /* \"#utility.yul\":384:391   */\n      dup5\n        /* \"#utility.yul\":380:403   */\n      sub\n        /* \"#utility.yul\":376:408   */\n      slt\n        /* \"#utility.yul\":373:492   */\n      iszero\n      tag_142\n      jumpi\n        /* \"#utility.yul\":411:490   */\n      tag_143\n      tag_144\n      jump\t// in\n    tag_143:\n        /* \"#utility.yul\":373:492   */\n    tag_142:\n        /* \"#utility.yul\":531:532   */\n      0x00\n        /* \"#utility.yul\":556:609   */\n      tag_145\n        /* \"#utility.yul\":601:608   */\n      dup5\n        /* \"#utility.yul\":592:598   */\n      dup3\n        /* \"#utility.yul\":581:590   */\n      dup6\n        /* \"#utility.yul\":577:599   */\n      add\n        /* \"#utility.yul\":556:609   */\n      tag_133\n      jump\t// in\n    tag_145:\n        /* \"#utility.yul\":546:609   */\n      swap2\n      pop\n        /* \"#utility.yul\":502:619   */\n      pop\n        /* \"#utility.yul\":297:626   */\n      swap3\n      swap2\n      pop\n      pop\n      jump\t// out\n        /* \"#utility.yul\":632:1106   */\n    tag_20:\n        /* \"#utility.yul\":700:706   */\n      0x00\n        /* \"#utility.yul\":708:714   */\n      dup1\n        /* \"#utility.yul\":757:759   */\n      0x40\n        /* \"#utility.yul\":745:754   */\n      dup4\n        /* \"#utility.yul\":736:743   */\n      dup6\n        /* \"#utility.yul\":732:755   */\n      sub\n        /* \"#utility.yul\":728:760   */\n      slt\n        /* \"#utility.yul\":725:844   */\n      iszero\n      tag_147\n      jumpi\n        /* \"#utility.yul\":763:842   */\n      tag_148\n      tag_144\n      jump\t// in\n    tag_148:\n        /* \"#utility.yul\":725:844   */\n    tag_147:\n        /* \"#utility.yul\":883:884   */\n      0x00\n        /* \"#utility.yul\":908:961   */\n      tag_149\n        /* \"#utility.yul\":953:960   */\n      dup6\n        /* \"#utility.yul\":944:950   */\n      dup3\n        /* \"#utility.yul\":933:942   */\n      dup7\n        /* \"#utility.yul\":929:951   */\n      add\n        /* \"#utility.yul\":908:961   */\n      tag_137\n      jump\t// in\n    tag_149:\n        /* \"#utility.yul\":898:961   */\n      swap3\n      pop\n        /* \"#utility.yul\":854:971   */\n      pop\n        /* \"#utility.yul\":1010:1012   */\n      0x20\n        /* \"#utility.yul\":1036:1089   */\n      tag_150\n        /* \"#utility.yul\":1081:1088   */\n      dup6\n        /* \"#utility.yul\":1072:1078   */\n      dup3\n        /* \"#utility.yul\":1061:1070   */\n      dup7\n        /* \"#utility.yul\":1057:1079   */\n      add\n        /* \"#utility.yul\":1036:1089   */\n      tag_133\n      jump\t// in\n    tag_150:\n        /* \"#utility.yul\":1026:1089   */\n      swap2\n      pop\n        /* \"#utility.yul\":981:1099   */\n      pop\n        /* \"#utility.yul\":632:1106   */\n      swap3\n      pop\n      swap3\n      swap1\n      pop\n      jump\t// out\n        /* \"#utility.yul\":1112:1254   */\n    tag_151:\n        /* \"#utility.yul\":1215:1247   */\n      tag_153\n        /* \"#utility.yul\":1241:1246   */\n      dup2\n        /* \"#utility.yul\":1215:1247   */\n      tag_154\n      jump\t// in\n    tag_153:\n        /* \"#utility.yul\":1210:1213   */\n      dup3\n        /* \"#utility.yul\":1203:1248   */\n      mstore\n        /* \"#utility.yul\":1112:1254   */\n      pop\n      pop\n      jump\t// out\n        /* \"#utility.yul\":1260:1378   */\n    tag_155:\n        /* \"#utility.yul\":1347:1371   */\n      tag_157\n        /* \"#utility.yul\":1365:1370   */\n      dup2\n        /* \"#utility.yul\":1347:1371   */\n      tag_158\n      jump\t// in\n    tag_157:\n        /* \"#utility.yul\":1342:1345   */\n      dup3\n        /* \"#utility.yul\":1335:1372   */\n      mstore\n        /* \"#utility.yul\":1260:1378   */\n      pop\n      pop\n      jump\t// out\n        /* \"#utility.yul\":1384:1493   */\n    tag_159:\n        /* \"#utility.yul\":1465:1486   */\n      tag_161\n        /* \"#utility.yul\":1480:1485   */\n      dup2\n        /* \"#utility.yul\":1465:1486   */\n      tag_162\n      jump\t// in\n    tag_161:\n        /* \"#utility.yul\":1460:1463   */\n      dup3\n        /* \"#utility.yul\":1453:1487   */\n      mstore\n        /* \"#utility.yul\":1384:1493   */\n      pop\n      pop\n      jump\t// out\n        /* \"#utility.yul\":1499:1865   */\n    tag_163:\n        /* \"#utility.yul\":1641:1644   */\n      0x00\n        /* \"#utility.yul\":1662:1729   */\n      tag_165\n        /* \"#utility.yul\":1726:1728   */\n      0x13\n        /* \"#utility.yul\":1721:1724   */\n      dup4\n        /* \"#utility.yul\":1662:1729   */\n      tag_166\n      jump\t// in\n    tag_165:\n        /* \"#utility.yul\":1655:1729   */\n      swap2\n      pop\n        /* \"#utility.yul\":1738:1831   */\n      tag_167\n        /* \"#utility.yul\":1827:1830   */\n      dup3\n        /* \"#utility.yul\":1738:1831   */\n      tag_168\n      jump\t// in\n    tag_167:\n        /* \"#utility.yul\":1856:1858   */\n      0x20\n        /* \"#utility.yul\":1851:1854   */\n      dup3\n        /* \"#utility.yul\":1847:1859   */\n      add\n        /* \"#utility.yul\":1840:1859   */\n      swap1\n      pop\n        /* \"#utility.yul\":1499:1865   */\n      swap2\n      swap1\n      pop\n      jump\t// out\n        /* \"#utility.yul\":1871:2237   */\n    tag_169:\n        /* \"#utility.yul\":2013:2016   */\n      0x00\n        /* \"#utility.yul\":2034:2101   */\n      tag_171\n        /* \"#utility.yul\":2098:2100   */\n      0x20\n        /* \"#utility.yul\":2093:2096   */\n      dup4\n        /* \"#utility.yul\":2034:2101   */\n      tag_166\n      jump\t// in\n    tag_171:\n        /* \"#utility.yul\":2027:2101   */\n      swap2\n      pop\n        /* \"#utility.yul\":2110:2203   */\n      tag_172\n        /* \"#utility.yul\":2199:2202   */\n      dup3\n        /* \"#utility.yul\":2110:2203   */\n      tag_173\n      jump\t// in\n    tag_172:\n        /* \"#utility.yul\":2228:2230   */\n      0x20\n        /* \"#utility.yul\":2223:2226   */\n      dup3\n        /* \"#utility.yul\":2219:2231   */\n      add\n        /* \"#utility.yul\":2212:2231   */\n      swap1\n      pop\n        /* \"#utility.yul\":1871:2237   */\n      swap2\n      swap1\n      pop\n      jump\t// out\n        /* \"#utility.yul\":2243:2609   */\n    tag_174:\n        /* \"#utility.yul\":2385:2388   */\n      0x00\n        /* \"#utility.yul\":2406:2473   */\n      tag_176\n        /* \"#utility.yul\":2470:2472   */\n      0x18\n        /* \"#utility.yul\":2465:2468   */\n      dup4\n        /* \"#utility.yul\":2406:2473   */\n      tag_166\n      jump\t// in\n    tag_176:\n        /* \"#utility.yul\":2399:2473   */\n      swap2\n      pop\n        /* \"#utility.yul\":2482:2575   */\n      tag_177\n        /* \"#utility.yul\":2571:2574   */\n      dup3\n        /* \"#utility.yul\":2482:2575   */\n      tag_178\n      jump\t// in\n    tag_177:\n        /* \"#utility.yul\":2600:2602   */\n      0x20\n        /* \"#utility.yul\":2595:2598   */\n      dup3\n        /* \"#utility.yul\":2591:2603   */\n      add\n        /* \"#utility.yul\":2584:2603   */\n      swap1\n      pop\n        /* \"#utility.yul\":2243:2609   */\n      swap2\n      swap1\n      pop\n      jump\t// out\n        /* \"#utility.yul\":2615:2981   */\n    tag_179:\n        /* \"#utility.yul\":2757:2760   */\n      0x00\n        /* \"#utility.yul\":2778:2845   */\n      tag_181\n        /* \"#utility.yul\":2842:2844   */\n      0x24\n        /* \"#utility.yul\":2837:2840   */\n      dup4\n        /* \"#utility.yul\":2778:2845   */\n      tag_166\n      jump\t// in\n    tag_181:\n        /* \"#utility.yul\":2771:2845   */\n      swap2\n      pop\n        /* \"#utility.yul\":2854:2947   */\n      tag_182\n        /* \"#utility.yul\":2943:2946   */\n      dup3\n        /* \"#utility.yul\":2854:2947   */\n      tag_183\n      jump\t// in\n    tag_182:\n        /* \"#utility.yul\":2972:2974   */\n      0x40\n        /* \"#utility.yul\":2967:2970   */\n      dup3\n        /* \"#utility.yul\":2963:2975   */\n      add\n        /* \"#utility.yul\":2956:2975   */\n      swap1\n      pop\n        /* \"#utility.yul\":2615:2981   */\n      swap2\n      swap1\n      pop\n      jump\t// out\n        /* \"#utility.yul\":2987:3352   */\n    tag_184:\n        /* \"#utility.yul\":3129:3132   */\n      0x00\n        /* \"#utility.yul\":3150:3216   */\n      tag_186\n        /* \"#utility.yul\":3214:3215   */\n      0x06\n        /* \"#utility.yul\":3209:3212   */\n      dup4\n        /* \"#utility.yul\":3150:3216   */\n      tag_166\n      jump\t// in\n    tag_186:\n        /* \"#utility.yul\":3143:3216   */\n      swap2\n      pop\n        /* \"#utility.yul\":3225:3318   */\n      tag_187\n        /* \"#utility.yul\":3314:3317   */\n      dup3\n        /* \"#utility.yul\":3225:3318   */\n      tag_188\n      jump\t// in\n    tag_187:\n        /* \"#utility.yul\":3343:3345   */\n      0x20\n        /* \"#utility.yul\":3338:3341   */\n      dup3\n        /* \"#utility.yul\":3334:3346   */\n      add\n        /* \"#utility.yul\":3327:3346   */\n      swap1\n      pop\n        /* \"#utility.yul\":2987:3352   */\n      swap2\n      swap1\n      pop\n      jump\t// out\n        /* \"#utility.yul\":3358:3724   */\n    tag_189:\n        /* \"#utility.yul\":3500:3503   */\n      0x00\n        /* \"#utility.yul\":3521:3588   */\n      tag_191\n        /* \"#utility.yul\":3585:3587   */\n      0x12\n        /* \"#utility.yul\":3580:3583   */\n      dup4\n        /* \"#utility.yul\":3521:3588   */\n      tag_166\n      jump\t// in\n    tag_191:\n        /* \"#utility.yul\":3514:3588   */\n      swap2\n      pop\n        /* \"#utility.yul\":3597:3690   */\n      tag_192\n        /* \"#utility.yul\":3686:3689   */\n      dup3\n        /* \"#utility.yul\":3597:3690   */\n      tag_193\n      jump\t// in\n    tag_192:\n        /* \"#utility.yul\":3715:3717   */\n      0x20\n        /* \"#utility.yul\":3710:3713   */\n      dup3\n        /* \"#utility.yul\":3706:3718   */\n      add\n        /* \"#utility.yul\":3699:3718   */\n      swap1\n      pop\n        /* \"#utility.yul\":3358:3724   */\n      swap2\n      swap1\n      pop\n      jump\t// out\n        /* \"#utility.yul\":3730:4096   */\n    tag_194:\n        /* \"#utility.yul\":3872:3875   */\n      0x00\n        /* \"#utility.yul\":3893:3960   */\n      tag_196\n        /* \"#utility.yul\":3957:3959   */\n      0x0f\n        /* \"#utility.yul\":3952:3955   */\n      dup4\n        /* \"#utility.yul\":3893:3960   */\n      tag_166\n      jump\t// in\n    tag_196:\n        /* \"#utility.yul\":3886:3960   */\n      swap2\n      pop\n        /* \"#utility.yul\":3969:4062   */\n      tag_197\n        /* \"#utility.yul\":4058:4061   */\n      dup3\n        /* \"#utility.yul\":3969:4062   */\n      tag_198\n      jump\t// in\n    tag_197:\n        /* \"#utility.yul\":4087:4089   */\n      0x20\n        /* \"#utility.yul\":4082:4085   */\n      dup3\n        /* \"#utility.yul\":4078:4090   */\n      add\n        /* \"#utility.yul\":4071:4090   */\n      swap1\n      pop\n        /* \"#utility.yul\":3730:4096   */\n      swap2\n      swap1\n      pop\n      jump\t// out\n        /* \"#utility.yul\":4102:4468   */\n    tag_199:\n        /* \"#utility.yul\":4244:4247   */\n      0x00\n        /* \"#utility.yul\":4265:4332   */\n      tag_201\n        /* \"#utility.yul\":4329:4331   */\n      0x24\n        /* \"#utility.yul\":4324:4327   */\n      dup4\n        /* \"#utility.yul\":4265:4332   */\n      tag_166\n      jump\t// in\n    tag_201:\n        /* \"#utility.yul\":4258:4332   */\n      swap2\n      pop\n        /* \"#utility.yul\":4341:4434   */\n      tag_202\n        /* \"#utility.yul\":4430:4433   */\n      dup3\n        /* \"#utility.yul\":4341:4434   */\n      tag_203\n      jump\t// in\n    tag_202:\n        /* \"#utility.yul\":4459:4461   */\n      0x40\n        /* \"#utility.yul\":4454:4457   */\n      dup3\n        /* \"#utility.yul\":4450:4462   */\n      add\n        /* \"#utility.yul\":4443:4462   */\n      swap1\n      pop\n        /* \"#utility.yul\":4102:4468   */\n      swap2\n      swap1\n      pop\n      jump\t// out\n        /* \"#utility.yul\":4474:4840   */\n    tag_204:\n        /* \"#utility.yul\":4616:4619   */\n      0x00\n        /* \"#utility.yul\":4637:4704   */\n      tag_206\n        /* \"#utility.yul\":4701:4703   */\n      0x0e\n        /* \"#utility.yul\":4696:4699   */\n      dup4\n        /* \"#utility.yul\":4637:4704   */\n      tag_166\n      jump\t// in\n    tag_206:\n        /* \"#utility.yul\":4630:4704   */\n      swap2\n      pop\n        /* \"#utility.yul\":4713:4806   */\n      tag_207\n        /* \"#utility.yul\":4802:4805   */\n      dup3\n        /* \"#utility.yul\":4713:4806   */\n      tag_208\n      jump\t// in\n    tag_207:\n        /* \"#utility.yul\":4831:4833   */\n      0x20\n        /* \"#utility.yul\":4826:4829   */\n      dup3\n        /* \"#utility.yul\":4822:4834   */\n      add\n        /* \"#utility.yul\":4815:4834   */\n      swap1\n      pop\n        /* \"#utility.yul\":4474:4840   */\n      swap2\n      swap1\n      pop\n      jump\t// out\n        /* \"#utility.yul\":4846:5212   */\n    tag_209:\n        /* \"#utility.yul\":4988:4991   */\n      0x00\n        /* \"#utility.yul\":5009:5076   */\n      tag_211\n        /* \"#utility.yul\":5073:5075   */\n      0x27\n        /* \"#utility.yul\":5068:5071   */\n      dup4\n        /* \"#utility.yul\":5009:5076   */\n      tag_166\n      jump\t// in\n    tag_211:\n        /* \"#utility.yul\":5002:5076   */\n      swap2\n      pop\n        /* \"#utility.yul\":5085:5178   */\n      tag_212\n        /* \"#utility.yul\":5174:5177   */\n      dup3\n        /* \"#utility.yul\":5085:5178   */\n      tag_213\n      jump\t// in\n    tag_212:\n        /* \"#utility.yul\":5203:5205   */\n      0x40\n        /* \"#utility.yul\":5198:5201   */\n      dup3\n        /* \"#utility.yul\":5194:5206   */\n      add\n        /* \"#utility.yul\":5187:5206   */\n      swap1\n      pop\n        /* \"#utility.yul\":4846:5212   */\n      swap2\n      swap1\n      pop\n      jump\t// out\n        /* \"#utility.yul\":5218:5584   */\n    tag_214:\n        /* \"#utility.yul\":5360:5363   */\n      0x00\n        /* \"#utility.yul\":5381:5448   */\n      tag_216\n        /* \"#utility.yul\":5445:5447   */\n      0x32\n        /* \"#utility.yul\":5440:5443   */\n      dup4\n        /* \"#utility.yul\":5381:5448   */\n      tag_166\n      jump\t// in\n    tag_216:\n        /* \"#utility.yul\":5374:5448   */\n      swap2\n      pop\n        /* \"#utility.yul\":5457:5550   */\n      tag_217\n        /* \"#utility.yul\":5546:5549   */\n      dup3\n        /* \"#utility.yul\":5457:5550   */\n      tag_218\n      jump\t// in\n    tag_217:\n        /* \"#utility.yul\":5575:5577   */\n      0x40\n        /* \"#utility.yul\":5570:5573   */\n      dup3\n        /* \"#utility.yul\":5566:5578   */\n      add\n        /* \"#utility.yul\":5559:5578   */\n      swap1\n      pop\n        /* \"#utility.yul\":5218:5584   */\n      swap2\n      swap1\n      pop\n      jump\t// out\n        /* \"#utility.yul\":5590:5956   */\n    tag_219:\n        /* \"#utility.yul\":5732:5735   */\n      0x00\n        /* \"#utility.yul\":5753:5820   */\n      tag_221\n        /* \"#utility.yul\":5817:5819   */\n      0x14\n        /* \"#utility.yul\":5812:5815   */\n      dup4\n        /* \"#utility.yul\":5753:5820   */\n      tag_166\n      jump\t// in\n    tag_221:\n        /* \"#utility.yul\":5746:5820   */\n      swap2\n      pop\n        /* \"#utility.yul\":5829:5922   */\n      tag_222\n        /* \"#utility.yul\":5918:5921   */\n      dup3\n        /* \"#utility.yul\":5829:5922   */\n      tag_223\n      jump\t// in\n    tag_222:\n        /* \"#utility.yul\":5947:5949   */\n      0x20\n        /* \"#utility.yul\":5942:5945   */\n      dup3\n        /* \"#utility.yul\":5938:5950   */\n      add\n        /* \"#utility.yul\":5931:5950   */\n      swap1\n      pop\n        /* \"#utility.yul\":5590:5956   */\n      swap2\n      swap1\n      pop\n      jump\t// out\n        /* \"#utility.yul\":5962:6080   */\n    tag_224:\n        /* \"#utility.yul\":6049:6073   */\n      tag_226\n        /* \"#utility.yul\":6067:6072   */\n      dup2\n        /* \"#utility.yul\":6049:6073   */\n      tag_227\n      jump\t// in\n    tag_226:\n        /* \"#utility.yul\":6044:6047   */\n      dup3\n        /* \"#utility.yul\":6037:6074   */\n      mstore\n        /* \"#utility.yul\":5962:6080   */\n      pop\n      pop\n      jump\t// out\n        /* \"#utility.yul\":6086:6340   */\n    tag_43:\n        /* \"#utility.yul\":6195:6199   */\n      0x00\n        /* \"#utility.yul\":6233:6235   */\n      0x20\n        /* \"#utility.yul\":6222:6231   */\n      dup3\n        /* \"#utility.yul\":6218:6236   */\n      add\n        /* \"#utility.yul\":6210:6236   */\n      swap1\n      pop\n        /* \"#utility.yul\":6246:6333   */\n      tag_229\n        /* \"#utility.yul\":6330:6331   */\n      0x00\n        /* \"#utility.yul\":6319:6328   */\n      dup4\n        /* \"#utility.yul\":6315:6332   */\n      add\n        /* \"#utility.yul\":6306:6312   */\n      dup5\n        /* \"#utility.yul\":6246:6333   */\n      tag_151\n      jump\t// in\n    tag_229:\n        /* \"#utility.yul\":6086:6340   */\n      swap3\n      swap2\n      pop\n      pop\n      jump\t// out\n        /* \"#utility.yul\":6346:6556   */\n    tag_54:\n        /* \"#utility.yul\":6433:6437   */\n      0x00\n        /* \"#utility.yul\":6471:6473   */\n      0x20\n        /* \"#utility.yul\":6460:6469   */\n      dup3\n        /* \"#utility.yul\":6456:6474   */\n      add\n        /* \"#utility.yul\":6448:6474   */\n      swap1\n      pop\n        /* \"#utility.yul\":6484:6549   */\n      tag_231\n        /* \"#utility.yul\":6546:6547   */\n      0x00\n        /* \"#utility.yul\":6535:6544   */\n      dup4\n        /* \"#utility.yul\":6531:6548   */\n      add\n        /* \"#utility.yul\":6522:6528   */\n      dup5\n        /* \"#utility.yul\":6484:6549   */\n      tag_159\n      jump\t// in\n    tag_231:\n        /* \"#utility.yul\":6346:6556   */\n      swap3\n      swap2\n      pop\n      pop\n      jump\t// out\n        /* \"#utility.yul\":6562:7091   */\n    tag_71:\n        /* \"#utility.yul\":6756:6760   */\n      0x00\n        /* \"#utility.yul\":6794:6796   */\n      0x40\n        /* \"#utility.yul\":6783:6792   */\n      dup3\n        /* \"#utility.yul\":6779:6797   */\n      add\n        /* \"#utility.yul\":6771:6797   */\n      swap1\n      pop\n        /* \"#utility.yul\":6843:6852   */\n      dup2\n        /* \"#utility.yul\":6837:6841   */\n      dup2\n        /* \"#utility.yul\":6833:6853   */\n      sub\n        /* \"#utility.yul\":6829:6830   */\n      0x00\n        /* \"#utility.yul\":6818:6827   */\n      dup4\n        /* \"#utility.yul\":6814:6831   */\n      add\n        /* \"#utility.yul\":6807:6854   */\n      mstore\n        /* \"#utility.yul\":6871:7002   */\n      tag_233\n        /* \"#utility.yul\":6997:7001   */\n      dup2\n        /* \"#utility.yul\":6871:7002   */\n      tag_163\n      jump\t// in\n    tag_233:\n        /* \"#utility.yul\":6863:7002   */\n      swap1\n      pop\n        /* \"#utility.yul\":7012:7084   */\n      tag_234\n        /* \"#utility.yul\":7080:7082   */\n      0x20\n        /* \"#utility.yul\":7069:7078   */\n      dup4\n        /* \"#utility.yul\":7065:7083   */\n      add\n        /* \"#utility.yul\":7056:7062   */\n      dup5\n        /* \"#utility.yul\":7012:7084   */\n      tag_155\n      jump\t// in\n    tag_234:\n        /* \"#utility.yul\":6562:7091   */\n      swap3\n      swap2\n      pop\n      pop\n      jump\t// out\n        /* \"#utility.yul\":7097:7516   */\n    tag_81:\n        /* \"#utility.yul\":7263:7267   */\n      0x00\n        /* \"#utility.yul\":7301:7303   */\n      0x20\n        /* \"#utility.yul\":7290:7299   */\n      dup3\n        /* \"#utility.yul\":7286:7304   */\n      add\n        /* \"#utility.yul\":7278:7304   */\n      swap1\n      pop\n        /* \"#utility.yul\":7350:7359   */\n      dup2\n        /* \"#utility.yul\":7344:7348   */\n      dup2\n        /* \"#utility.yul\":7340:7360   */\n      sub\n        /* \"#utility.yul\":7336:7337   */\n      0x00\n        /* \"#utility.yul\":7325:7334   */\n      dup4\n        /* \"#utility.yul\":7321:7338   */\n      add\n        /* \"#utility.yul\":7314:7361   */\n      mstore\n        /* \"#utility.yul\":7378:7509   */\n      tag_236\n        /* \"#utility.yul\":7504:7508   */\n      dup2\n        /* \"#utility.yul\":7378:7509   */\n      tag_169\n      jump\t// in\n    tag_236:\n        /* \"#utility.yul\":7370:7509   */\n      swap1\n      pop\n        /* \"#utility.yul\":7097:7516   */\n      swap2\n      swap1\n      pop\n      jump\t// out\n        /* \"#utility.yul\":7522:7941   */\n    tag_103:\n        /* \"#utility.yul\":7688:7692   */\n      0x00\n        /* \"#utility.yul\":7726:7728   */\n      0x20\n        /* \"#utility.yul\":7715:7724   */\n      dup3\n        /* \"#utility.yul\":7711:7729   */\n      add\n        /* \"#utility.yul\":7703:7729   */\n      swap1\n      pop\n        /* \"#utility.yul\":7775:7784   */\n      dup2\n        /* \"#utility.yul\":7769:7773   */\n      dup2\n        /* \"#utility.yul\":7765:7785   */\n      sub\n        /* \"#utility.yul\":7761:7762   */\n      0x00\n        /* \"#utility.yul\":7750:7759   */\n      dup4\n        /* \"#utility.yul\":7746:7763   */\n      add\n        /* \"#utility.yul\":7739:7786   */\n      mstore\n        /* \"#utility.yul\":7803:7934   */\n      tag_238\n        /* \"#utility.yul\":7929:7933   */\n      dup2\n        /* \"#utility.yul\":7803:7934   */\n      tag_174\n      jump\t// in\n    tag_238:\n        /* \"#utility.yul\":7795:7934   */\n      swap1\n      pop\n        /* \"#utility.yul\":7522:7941   */\n      swap2\n      swap1\n      pop\n      jump\t// out\n        /* \"#utility.yul\":7947:8366   */\n    tag_75:\n        /* \"#utility.yul\":8113:8117   */\n      0x00\n        /* \"#utility.yul\":8151:8153   */\n      0x20\n        /* \"#utility.yul\":8140:8149   */\n      dup3\n        /* \"#utility.yul\":8136:8154   */\n      add\n        /* \"#utility.yul\":8128:8154   */\n      swap1\n      pop\n        /* \"#utility.yul\":8200:8209   */\n      dup2\n        /* \"#utility.yul\":8194:8198   */\n      dup2\n        /* \"#utility.yul\":8190:8210   */\n      sub\n        /* \"#utility.yul\":8186:8187   */\n      0x00\n        /* \"#utility.yul\":8175:8184   */\n      dup4\n        /* \"#utility.yul\":8171:8188   */\n      add\n        /* \"#utility.yul\":8164:8211   */\n      mstore\n        /* \"#utility.yul\":8228:8359   */\n      tag_240\n        /* \"#utility.yul\":8354:8358   */\n      dup2\n        /* \"#utility.yul\":8228:8359   */\n      tag_179\n      jump\t// in\n    tag_240:\n        /* \"#utility.yul\":8220:8359   */\n      swap1\n      pop\n        /* \"#utility.yul\":7947:8366   */\n      swap2\n      swap1\n      pop\n      jump\t// out\n        /* \"#utility.yul\":8372:8901   */\n    tag_107:\n        /* \"#utility.yul\":8566:8570   */\n      0x00\n        /* \"#utility.yul\":8604:8606   */\n      0x40\n        /* \"#utility.yul\":8593:8602   */\n      dup3\n        /* \"#utility.yul\":8589:8607   */\n      add\n        /* \"#utility.yul\":8581:8607   */\n      swap1\n      pop\n        /* \"#utility.yul\":8653:8662   */\n      dup2\n        /* \"#utility.yul\":8647:8651   */\n      dup2\n        /* \"#utility.yul\":8643:8663   */\n      sub\n        /* \"#utility.yul\":8639:8640   */\n      0x00\n        /* \"#utility.yul\":8628:8637   */\n      dup4\n        /* \"#utility.yul\":8624:8641   */\n      add\n        /* \"#utility.yul\":8617:8664   */\n      mstore\n        /* \"#utility.yul\":8681:8812   */\n      tag_242\n        /* \"#utility.yul\":8807:8811   */\n      dup2\n        /* \"#utility.yul\":8681:8812   */\n      tag_184\n      jump\t// in\n    tag_242:\n        /* \"#utility.yul\":8673:8812   */\n      swap1\n      pop\n        /* \"#utility.yul\":8822:8894   */\n      tag_243\n        /* \"#utility.yul\":8890:8892   */\n      0x20\n        /* \"#utility.yul\":8879:8888   */\n      dup4\n        /* \"#utility.yul\":8875:8893   */\n      add\n        /* \"#utility.yul\":8866:8872   */\n      dup5\n        /* \"#utility.yul\":8822:8894   */\n      tag_155\n      jump\t// in\n    tag_243:\n        /* \"#utility.yul\":8372:8901   */\n      swap3\n      swap2\n      pop\n      pop\n      jump\t// out\n        /* \"#utility.yul\":8907:9326   */\n    tag_111:\n        /* \"#utility.yul\":9073:9077   */\n      0x00\n        /* \"#utility.yul\":9111:9113   */\n      0x20\n        /* \"#utility.yul\":9100:9109   */\n      dup3\n        /* \"#utility.yul\":9096:9114   */\n      add\n        /* \"#utility.yul\":9088:9114   */\n      swap1\n      pop\n        /* \"#utility.yul\":9160:9169   */\n      dup2\n        /* \"#utility.yul\":9154:9158   */\n      dup2\n        /* \"#utility.yul\":9150:9170   */\n      sub\n        /* \"#utility.yul\":9146:9147   */\n      0x00\n        /* \"#utility.yul\":9135:9144   */\n      dup4\n        /* \"#utility.yul\":9131:9148   */\n      add\n        /* \"#utility.yul\":9124:9171   */\n      mstore\n        /* \"#utility.yul\":9188:9319   */\n      tag_245\n        /* \"#utility.yul\":9314:9318   */\n      dup2\n        /* \"#utility.yul\":9188:9319   */\n      tag_189\n      jump\t// in\n    tag_245:\n        /* \"#utility.yul\":9180:9319   */\n      swap1\n      pop\n        /* \"#utility.yul\":8907:9326   */\n      swap2\n      swap1\n      pop\n      jump\t// out\n        /* \"#utility.yul\":9332:9751   */\n    tag_117:\n        /* \"#utility.yul\":9498:9502   */\n      0x00\n        /* \"#utility.yul\":9536:9538   */\n      0x20\n        /* \"#utility.yul\":9525:9534   */\n      dup3\n        /* \"#utility.yul\":9521:9539   */\n      add\n        /* \"#utility.yul\":9513:9539   */\n      swap1\n      pop\n        /* \"#utility.yul\":9585:9594   */\n      dup2\n        /* \"#utility.yul\":9579:9583   */\n      dup2\n        /* \"#utility.yul\":9575:9595   */\n      sub\n        /* \"#utility.yul\":9571:9572   */\n      0x00\n        /* \"#utility.yul\":9560:9569   */\n      dup4\n        /* \"#utility.yul\":9556:9573   */\n      add\n        /* \"#utility.yul\":9549:9596   */\n      mstore\n        /* \"#utility.yul\":9613:9744   */\n      tag_247\n        /* \"#utility.yul\":9739:9743   */\n      dup2\n        /* \"#utility.yul\":9613:9744   */\n      tag_194\n      jump\t// in\n    tag_247:\n        /* \"#utility.yul\":9605:9744   */\n      swap1\n      pop\n        /* \"#utility.yul\":9332:9751   */\n      swap2\n      swap1\n      pop\n      jump\t// out\n        /* \"#utility.yul\":9757:10176   */\n    tag_88:\n        /* \"#utility.yul\":9923:9927   */\n      0x00\n        /* \"#utility.yul\":9961:9963   */\n      0x20\n        /* \"#utility.yul\":9950:9959   */\n      dup3\n        /* \"#utility.yul\":9946:9964   */\n      add\n        /* \"#utility.yul\":9938:9964   */\n      swap1\n      pop\n        /* \"#utility.yul\":10010:10019   */\n      dup2\n        /* \"#utility.yul\":10004:10008   */\n      dup2\n        /* \"#utility.yul\":10000:10020   */\n      sub\n        /* \"#utility.yul\":9996:9997   */\n      0x00\n        /* \"#utility.yul\":9985:9994   */\n      dup4\n        /* \"#utility.yul\":9981:9998   */\n      add\n        /* \"#utility.yul\":9974:10021   */\n      mstore\n        /* \"#utility.yul\":10038:10169   */\n      tag_249\n        /* \"#utility.yul\":10164:10168   */\n      dup2\n        /* \"#utility.yul\":10038:10169   */\n      tag_199\n      jump\t// in\n    tag_249:\n        /* \"#utility.yul\":10030:10169   */\n      swap1\n      pop\n        /* \"#utility.yul\":9757:10176   */\n      swap2\n      swap1\n      pop\n      jump\t// out\n        /* \"#utility.yul\":10182:10601   */\n    tag_121:\n        /* \"#utility.yul\":10348:10352   */\n      0x00\n        /* \"#utility.yul\":10386:10388   */\n      0x20\n        /* \"#utility.yul\":10375:10384   */\n      dup3\n        /* \"#utility.yul\":10371:10389   */\n      add\n        /* \"#utility.yul\":10363:10389   */\n      swap1\n      pop\n        /* \"#utility.yul\":10435:10444   */\n      dup2\n        /* \"#utility.yul\":10429:10433   */\n      dup2\n        /* \"#utility.yul\":10425:10445   */\n      sub\n        /* \"#utility.yul\":10421:10422   */\n      0x00\n        /* \"#utility.yul\":10410:10419   */\n      dup4\n        /* \"#utility.yul\":10406:10423   */\n      add\n        /* \"#utility.yul\":10399:10446   */\n      mstore\n        /* \"#utility.yul\":10463:10594   */\n      tag_251\n        /* \"#utility.yul\":10589:10593   */\n      dup2\n        /* \"#utility.yul\":10463:10594   */\n      tag_204\n      jump\t// in\n    tag_251:\n        /* \"#utility.yul\":10455:10594   */\n      swap1\n      pop\n        /* \"#utility.yul\":10182:10601   */\n      swap2\n      swap1\n      pop\n      jump\t// out\n        /* \"#utility.yul\":10607:11026   */\n    tag_65:\n        /* \"#utility.yul\":10773:10777   */\n      0x00\n        /* \"#utility.yul\":10811:10813   */\n      0x20\n        /* \"#utility.yul\":10800:10809   */\n      dup3\n        /* \"#utility.yul\":10796:10814   */\n      add\n        /* \"#utility.yul\":10788:10814   */\n      swap1\n      pop\n        /* \"#utility.yul\":10860:10869   */\n      dup2\n        /* \"#utility.yul\":10854:10858   */\n      dup2\n        /* \"#utility.yul\":10850:10870   */\n      sub\n        /* \"#utility.yul\":10846:10847   */\n      0x00\n        /* \"#utility.yul\":10835:10844   */\n      dup4\n        /* \"#utility.yul\":10831:10848   */\n      add\n        /* \"#utility.yul\":10824:10871   */\n      mstore\n        /* \"#utility.yul\":10888:11019   */\n      tag_253\n        /* \"#utility.yul\":11014:11018   */\n      dup2\n        /* \"#utility.yul\":10888:11019   */\n      tag_209\n      jump\t// in\n    tag_253:\n        /* \"#utility.yul\":10880:11019   */\n      swap1\n      pop\n        /* \"#utility.yul\":10607:11026   */\n      swap2\n      swap1\n      pop\n      jump\t// out\n        /* \"#utility.yul\":11032:11451   */\n    tag_97:\n        /* \"#utility.yul\":11198:11202   */\n      0x00\n        /* \"#utility.yul\":11236:11238   */\n      0x20\n        /* \"#utility.yul\":11225:11234   */\n      dup3\n        /* \"#utility.yul\":11221:11239   */\n      add\n        /* \"#utility.yul\":11213:11239   */\n      swap1\n      pop\n        /* \"#utility.yul\":11285:11294   */\n      dup2\n        /* \"#utility.yul\":11279:11283   */\n      dup2\n        /* \"#utility.yul\":11275:11295   */\n      sub\n        /* \"#utility.yul\":11271:11272   */\n      0x00\n        /* \"#utility.yul\":11260:11269   */\n      dup4\n        /* \"#utility.yul\":11256:11273   */\n      add\n        /* \"#utility.yul\":11249:11296   */\n      mstore\n        /* \"#utility.yul\":11313:11444   */\n      tag_255\n        /* \"#utility.yul\":11439:11443   */\n      dup2\n        /* \"#utility.yul\":11313:11444   */\n      tag_214\n      jump\t// in\n    tag_255:\n        /* \"#utility.yul\":11305:11444   */\n      swap1\n      pop\n        /* \"#utility.yul\":11032:11451   */\n      swap2\n      swap1\n      pop\n      jump\t// out\n        /* \"#utility.yul\":11457:11876   */\n    tag_131:\n        /* \"#utility.yul\":11623:11627   */\n      0x00\n        /* \"#utility.yul\":11661:11663   */\n      0x20\n        /* \"#utility.yul\":11650:11659   */\n      dup3\n        /* \"#utility.yul\":11646:11664   */\n      add\n        /* \"#utility.yul\":11638:11664   */\n      swap1\n      pop\n        /* \"#utility.yul\":11710:11719   */\n      dup2\n        /* \"#utility.yul\":11704:11708   */\n      dup2\n        /* \"#utility.yul\":11700:11720   */\n      sub\n        /* \"#utility.yul\":11696:11697   */\n      0x00\n        /* \"#utility.yul\":11685:11694   */\n      dup4\n        /* \"#utility.yul\":11681:11698   */\n      add\n        /* \"#utility.yul\":11674:11721   */\n      mstore\n        /* \"#utility.yul\":11738:11869   */\n      tag_257\n        /* \"#utility.yul\":11864:11868   */\n      dup2\n        /* \"#utility.yul\":11738:11869   */\n      tag_219\n      jump\t// in\n    tag_257:\n        /* \"#utility.yul\":11730:11869   */\n      swap1\n      pop\n        /* \"#utility.yul\":11457:11876   */\n      swap2\n      swap1\n      pop\n      jump\t// out\n        /* \"#utility.yul\":11882:12104   */\n    tag_29:\n        /* \"#utility.yul\":11975:11979   */\n      0x00\n        /* \"#utility.yul\":12013:12015   */\n      0x20\n        /* \"#utility.yul\":12002:12011   */\n      dup3\n        /* \"#utility.yul\":11998:12016   */\n      add\n        /* \"#utility.yul\":11990:12016   */\n      swap1\n      pop\n        /* \"#utility.yul\":12026:12097   */\n      tag_259\n        /* \"#utility.yul\":12094:12095   */\n      0x00\n        /* \"#utility.yul\":12083:12092   */\n      dup4\n        /* \"#utility.yul\":12079:12096   */\n      add\n        /* \"#utility.yul\":12070:12076   */\n      dup5\n        /* \"#utility.yul\":12026:12097   */\n      tag_224\n      jump\t// in\n    tag_259:\n        /* \"#utility.yul\":11882:12104   */\n      swap3\n      swap2\n      pop\n      pop\n      jump\t// out\n        /* \"#utility.yul\":12191:12360   */\n    tag_166:\n        /* \"#utility.yul\":12275:12286   */\n      0x00\n        /* \"#utility.yul\":12309:12315   */\n      dup3\n        /* \"#utility.yul\":12304:12307   */\n      dup3\n        /* \"#utility.yul\":12297:12316   */\n      mstore\n        /* \"#utility.yul\":12349:12353   */\n      0x20\n        /* \"#utility.yul\":12344:12347   */\n      dup3\n        /* \"#utility.yul\":12340:12354   */\n      add\n        /* \"#utility.yul\":12325:12354   */\n      swap1\n      pop\n        /* \"#utility.yul\":12191:12360   */\n      swap3\n      swap2\n      pop\n      pop\n      jump\t// out\n        /* \"#utility.yul\":12366:12671   */\n    tag_94:\n        /* \"#utility.yul\":12406:12409   */\n      0x00\n        /* \"#utility.yul\":12425:12445   */\n      tag_264\n        /* \"#utility.yul\":12443:12444   */\n      dup3\n        /* \"#utility.yul\":12425:12445   */\n      tag_227\n      jump\t// in\n    tag_264:\n        /* \"#utility.yul\":12420:12445   */\n      swap2\n      pop\n        /* \"#utility.yul\":12459:12479   */\n      tag_265\n        /* \"#utility.yul\":12477:12478   */\n      dup4\n        /* \"#utility.yul\":12459:12479   */\n      tag_227\n      jump\t// in\n    tag_265:\n        /* \"#utility.yul\":12454:12479   */\n      swap3\n      pop\n        /* \"#utility.yul\":12613:12614   */\n      dup3\n        /* \"#utility.yul\":12545:12611   */\n      0xffffffffffffffffffffffffffffffffffffffffffffffffffffffffffffffff\n        /* \"#utility.yul\":12541:12615   */\n      sub\n        /* \"#utility.yul\":12538:12539   */\n      dup3\n        /* \"#utility.yul\":12535:12616   */\n      gt\n        /* \"#utility.yul\":12532:12639   */\n      iszero\n      tag_266\n      jumpi\n        /* \"#utility.yul\":12619:12637   */\n      tag_267\n      tag_268\n      jump\t// in\n    tag_267:\n        /* \"#utility.yul\":12532:12639   */\n    tag_266:\n        /* \"#utility.yul\":12663:12664   */\n      dup3\n        /* \"#utility.yul\":12660:12661   */\n      dup3\n        /* \"#utility.yul\":12656:12665   */\n      add\n        /* \"#utility.yul\":12649:12665   */\n      swap1\n      pop\n        /* \"#utility.yul\":12366:12671   */\n      swap3\n      swap2\n      pop\n      pop\n      jump\t// out\n        /* \"#utility.yul\":12677:12862   */\n    tag_123:\n        /* \"#utility.yul\":12717:12718   */\n      0x00\n        /* \"#utility.yul\":12734:12754   */\n      tag_270\n        /* \"#utility.yul\":12752:12753   */\n      dup3\n        /* \"#utility.yul\":12734:12754   */\n      tag_227\n      jump\t// in\n    tag_270:\n        /* \"#utility.yul\":12729:12754   */\n      swap2\n      pop\n        /* \"#utility.yul\":12768:12788   */\n      tag_271\n        /* \"#utility.yul\":12786:12787   */\n      dup4\n        /* \"#utility.yul\":12768:12788   */\n      tag_227\n      jump\t// in\n    tag_271:\n        /* \"#utility.yul\":12763:12788   */\n      swap3\n      pop\n        /* \"#utility.yul\":12807:12808   */\n      dup3\n        /* \"#utility.yul\":12797:12832   */\n      tag_272\n      jumpi\n        /* \"#utility.yul\":12812:12830   */\n      tag_273\n      tag_274\n      jump\t// in\n    tag_273:\n        /* \"#utility.yul\":12797:12832   */\n    tag_272:\n        /* \"#utility.yul\":12854:12855   */\n      dup3\n        /* \"#utility.yul\":12851:12852   */\n      dup3\n        /* \"#utility.yul\":12847:12856   */\n      div\n        /* \"#utility.yul\":12842:12856   */\n      swap1\n      pop\n        /* \"#utility.yul\":12677:12862   */\n      swap3\n      swap2\n      pop\n      pop\n      jump\t// out\n        /* \"#utility.yul\":12868:13216   */\n    tag_126:\n        /* \"#utility.yul\":12908:12915   */\n      0x00\n        /* \"#utility.yul\":12931:12951   */\n      tag_276\n        /* \"#utility.yul\":12949:12950   */\n      dup3\n        /* \"#utility.yul\":12931:12951   */\n      tag_227\n      jump\t// in\n    tag_276:\n        /* \"#utility.yul\":12926:12951   */\n      swap2\n      pop\n        /* \"#utility.yul\":12965:12985   */\n      tag_277\n        /* \"#utility.yul\":12983:12984   */\n      dup4\n        /* \"#utility.yul\":12965:12985   */\n      tag_227\n      jump\t// in\n    tag_277:\n        /* \"#utility.yul\":12960:12985   */\n      swap3\n      pop\n        /* \"#utility.yul\":13153:13154   */\n      dup2\n        /* \"#utility.yul\":13085:13151   */\n      0xffffffffffffffffffffffffffffffffffffffffffffffffffffffffffffffff\n        /* \"#utility.yul\":13081:13155   */\n      div\n        /* \"#utility.yul\":13078:13079   */\n      dup4\n        /* \"#utility.yul\":13075:13156   */\n      gt\n        /* \"#utility.yul\":13070:13071   */\n      dup3\n        /* \"#utility.yul\":13063:13072   */\n      iszero\n        /* \"#utility.yul\":13056:13073   */\n      iszero\n        /* \"#utility.yul\":13052:13157   */\n      and\n        /* \"#utility.yul\":13049:13180   */\n      iszero\n      tag_278\n      jumpi\n        /* \"#utility.yul\":13160:13178   */\n      tag_279\n      tag_268\n      jump\t// in\n    tag_279:\n        /* \"#utility.yul\":13049:13180   */\n    tag_278:\n        /* \"#utility.yul\":13208:13209   */\n      dup3\n        /* \"#utility.yul\":13205:13206   */\n      dup3\n        /* \"#utility.yul\":13201:13210   */\n      mul\n        /* \"#utility.yul\":13190:13210   */\n      swap1\n      pop\n        /* \"#utility.yul\":12868:13216   */\n      swap3\n      swap2\n      pop\n      pop\n      jump\t// out\n        /* \"#utility.yul\":13222:13413   */\n    tag_84:\n        /* \"#utility.yul\":13262:13266   */\n      0x00\n        /* \"#utility.yul\":13282:13302   */\n      tag_281\n        /* \"#utility.yul\":13300:13301   */\n      dup3\n        /* \"#utility.yul\":13282:13302   */\n      tag_227\n      jump\t// in\n    tag_281:\n        /* \"#utility.yul\":13277:13302   */\n      swap2\n      pop\n        /* \"#utility.yul\":13316:13336   */\n      tag_282\n        /* \"#utility.yul\":13334:13335   */\n      dup4\n        /* \"#utility.yul\":13316:13336   */\n      tag_227\n      jump\t// in\n    tag_282:\n        /* \"#utility.yul\":13311:13336   */\n      swap3\n      pop\n        /* \"#utility.yul\":13355:13356   */\n      dup3\n        /* \"#utility.yul\":13352:13353   */\n      dup3\n        /* \"#utility.yul\":13349:13357   */\n      lt\n        /* \"#utility.yul\":13346:13380   */\n      iszero\n      tag_283\n      jumpi\n        /* \"#utility.yul\":13360:13378   */\n      tag_284\n      tag_268\n      jump\t// in\n    tag_284:\n        /* \"#utility.yul\":13346:13380   */\n    tag_283:\n        /* \"#utility.yul\":13405:13406   */\n      dup3\n        /* \"#utility.yul\":13402:13403   */\n      dup3\n        /* \"#utility.yul\":13398:13407   */\n      sub\n        /* \"#utility.yul\":13390:13407   */\n      swap1\n      pop\n        /* \"#utility.yul\":13222:13413   */\n      swap3\n      swap2\n      pop\n      pop\n      jump\t// out\n        /* \"#utility.yul\":13419:13515   */\n    tag_158:\n        /* \"#utility.yul\":13456:13463   */\n      0x00\n        /* \"#utility.yul\":13485:13509   */\n      tag_286\n        /* \"#utility.yul\":13503:13508   */\n      dup3\n        /* \"#utility.yul\":13485:13509   */\n      tag_287\n      jump\t// in\n    tag_286:\n        /* \"#utility.yul\":13474:13509   */\n      swap1\n      pop\n        /* \"#utility.yul\":13419:13515   */\n      swap2\n      swap1\n      pop\n      jump\t// out\n        /* \"#utility.yul\":13521:13625   */\n    tag_154:\n        /* \"#utility.yul\":13566:13573   */\n      0x00\n        /* \"#utility.yul\":13595:13619   */\n      tag_289\n        /* \"#utility.yul\":13613:13618   */\n      dup3\n        /* \"#utility.yul\":13595:13619   */\n      tag_287\n      jump\t// in\n    tag_289:\n        /* \"#utility.yul\":13584:13619   */\n      swap1\n      pop\n        /* \"#utility.yul\":13521:13625   */\n      swap2\n      swap1\n      pop\n      jump\t// out\n        /* \"#utility.yul\":13631:13721   */\n    tag_162:\n        /* \"#utility.yul\":13665:13672   */\n      0x00\n        /* \"#utility.yul\":13708:13713   */\n      dup2\n        /* \"#utility.yul\":13701:13714   */\n      iszero\n        /* \"#utility.yul\":13694:13715   */\n      iszero\n        /* \"#utility.yul\":13683:13715   */\n      swap1\n      pop\n        /* \"#utility.yul\":13631:13721   */\n      swap2\n      swap1\n      pop\n      jump\t// out\n        /* \"#utility.yul\":13727:13853   */\n    tag_287:\n        /* \"#utility.yul\":13764:13771   */\n      0x00\n        /* \"#utility.yul\":13804:13846   */\n      0xffffffffffffffffffffffffffffffffffffffff\n        /* \"#utility.yul\":13797:13802   */\n      dup3\n        /* \"#utility.yul\":13793:13847   */\n      and\n        /* \"#utility.yul\":13782:13847   */\n      swap1\n      pop\n        /* \"#utility.yul\":13727:13853   */\n      swap2\n      swap1\n      pop\n      jump\t// out\n        /* \"#utility.yul\":13859:13936   */\n    tag_227:\n        /* \"#utility.yul\":13896:13903   */\n      0x00\n        /* \"#utility.yul\":13925:13930   */\n      dup2\n        /* \"#utility.yul\":13914:13930   */\n      swap1\n      pop\n        /* \"#utility.yul\":13859:13936   */\n      swap2\n      swap1\n      pop\n      jump\t// out\n        /* \"#utility.yul\":13942:14122   */\n    tag_268:\n        /* \"#utility.yul\":13990:14067   */\n      0x4e487b7100000000000000000000000000000000000000000000000000000000\n        /* \"#utility.yul\":13987:13988   */\n      0x00\n        /* \"#utility.yul\":13980:14068   */\n      mstore\n        /* \"#utility.yul\":14087:14091   */\n      0x11\n        /* \"#utility.yul\":14084:14085   */\n      0x04\n        /* \"#utility.yul\":14077:14092   */\n      mstore\n        /* \"#utility.yul\":14111:14115   */\n      0x24\n        /* \"#utility.yul\":14108:14109   */\n      0x00\n        /* \"#utility.yul\":14101:14116   */\n      revert\n        /* \"#utility.yul\":14128:14308   */\n    tag_274:\n        /* \"#utility.yul\":14176:14253   */\n      0x4e487b7100000000000000000000000000000000000000000000000000000000\n        /* \"#utility.yul\":14173:14174   */\n      0x00\n        /* \"#utility.yul\":14166:14254   */\n      mstore\n        /* \"#utility.yul\":14273:14277   */\n      0x12\n        /* \"#utility.yul\":14270:14271   */\n      0x04\n        /* \"#utility.yul\":14263:14278   */\n      mstore\n        /* \"#utility.yul\":14297:14301   */\n      0x24\n        /* \"#utility.yul\":14294:14295   */\n      0x00\n        /* \"#utility.yul\":14287:14302   */\n      revert\n        /* \"#utility.yul\":14437:14554   */\n    tag_144:\n        /* \"#utility.yul\":14546:14547   */\n      0x00\n        /* \"#utility.yul\":14543:14544   */\n      dup1\n        /* \"#utility.yul\":14536:14548   */\n      revert\n        /* \"#utility.yul\":14560:14729   */\n    tag_168:\n        /* \"#utility.yul\":14700:14721   */\n      0x4d6f6e6579207769746864726177656e20746f00000000000000000000000000\n        /* \"#utility.yul\":14696:14697   */\n      0x00\n        /* \"#utility.yul\":14688:14694   */\n      dup3\n        /* \"#utility.yul\":14684:14698   */\n      add\n        /* \"#utility.yul\":14677:14722   */\n      mstore\n        /* \"#utility.yul\":14560:14729   */\n      pop\n      jump\t// out\n        /* \"#utility.yul\":14735:14917   */\n    tag_173:\n        /* \"#utility.yul\":14875:14909   */\n      0x596f7520646f6e2774206861766520616e79206d6f6e657920696e2068657265\n        /* \"#utility.yul\":14871:14872   */\n      0x00\n        /* \"#utility.yul\":14863:14869   */\n      dup3\n        /* \"#utility.yul\":14859:14873   */\n      add\n        /* \"#utility.yul\":14852:14910   */\n      mstore\n        /* \"#utility.yul\":14735:14917   */\n      pop\n      jump\t// out\n        /* \"#utility.yul\":14923:15097   */\n    tag_178:\n        /* \"#utility.yul\":15063:15089   */\n      0x4d696e696d756d20312045746865722052657175697265640000000000000000\n        /* \"#utility.yul\":15059:15060   */\n      0x00\n        /* \"#utility.yul\":15051:15057   */\n      dup3\n        /* \"#utility.yul\":15047:15061   */\n      add\n        /* \"#utility.yul\":15040:15090   */\n      mstore\n        /* \"#utility.yul\":14923:15097   */\n      pop\n      jump\t// out\n        /* \"#utility.yul\":15103:15326   */\n    tag_183:\n        /* \"#utility.yul\":15243:15277   */\n      0x596f7520646f6e27742068617665206e6f2070656e64696e6720776974686472\n        /* \"#utility.yul\":15239:15240   */\n      0x00\n        /* \"#utility.yul\":15231:15237   */\n      dup3\n        /* \"#utility.yul\":15227:15241   */\n      add\n        /* \"#utility.yul\":15220:15278   */\n      mstore\n        /* \"#utility.yul\":15312:15318   */\n      0x61776c7300000000000000000000000000000000000000000000000000000000\n        /* \"#utility.yul\":15307:15309   */\n      0x20\n        /* \"#utility.yul\":15299:15305   */\n      dup3\n        /* \"#utility.yul\":15295:15310   */\n      add\n        /* \"#utility.yul\":15288:15319   */\n      mstore\n        /* \"#utility.yul\":15103:15326   */\n      pop\n      jump\t// out\n        /* \"#utility.yul\":15332:15488   */\n    tag_188:\n        /* \"#utility.yul\":15472:15480   */\n      0x7374616b65640000000000000000000000000000000000000000000000000000\n        /* \"#utility.yul\":15468:15469   */\n      0x00\n        /* \"#utility.yul\":15460:15466   */\n      dup3\n        /* \"#utility.yul\":15456:15470   */\n      add\n        /* \"#utility.yul\":15449:15481   */\n      mstore\n        /* \"#utility.yul\":15332:15488   */\n      pop\n      jump\t// out\n        /* \"#utility.yul\":15494:15662   */\n    tag_193:\n        /* \"#utility.yul\":15634:15654   */\n      0x537562737472616374696f6e206661696c640000000000000000000000000000\n        /* \"#utility.yul\":15630:15631   */\n      0x00\n        /* \"#utility.yul\":15622:15628   */\n      dup3\n        /* \"#utility.yul\":15618:15632   */\n      add\n        /* \"#utility.yul\":15611:15655   */\n      mstore\n        /* \"#utility.yul\":15494:15662   */\n      pop\n      jump\t// out\n        /* \"#utility.yul\":15668:15833   */\n    tag_198:\n        /* \"#utility.yul\":15808:15825   */\n      0x4164646974696f6e206661696c65640000000000000000000000000000000000\n        /* \"#utility.yul\":15804:15805   */\n      0x00\n        /* \"#utility.yul\":15796:15802   */\n      dup3\n        /* \"#utility.yul\":15792:15806   */\n      add\n        /* \"#utility.yul\":15785:15826   */\n      mstore\n        /* \"#utility.yul\":15668:15833   */\n      pop\n      jump\t// out\n        /* \"#utility.yul\":15839:16062   */\n    tag_203:\n        /* \"#utility.yul\":15979:16013   */\n      0x596f752073686f756c642061746c65617374207374616b6520666f722061206d\n        /* \"#utility.yul\":15975:15976   */\n      0x00\n        /* \"#utility.yul\":15967:15973   */\n      dup3\n        /* \"#utility.yul\":15963:15977   */\n      add\n        /* \"#utility.yul\":15956:16014   */\n      mstore\n        /* \"#utility.yul\":16048:16054   */\n      0x6f6e747900000000000000000000000000000000000000000000000000000000\n        /* \"#utility.yul\":16043:16045   */\n      0x20\n        /* \"#utility.yul\":16035:16041   */\n      dup3\n        /* \"#utility.yul\":16031:16046   */\n      add\n        /* \"#utility.yul\":16024:16055   */\n      mstore\n        /* \"#utility.yul\":15839:16062   */\n      pop\n      jump\t// out\n        /* \"#utility.yul\":16068:16232   */\n    tag_208:\n        /* \"#utility.yul\":16208:16224   */\n      0x4469766973696f6e206661696c64000000000000000000000000000000000000\n        /* \"#utility.yul\":16204:16205   */\n      0x00\n        /* \"#utility.yul\":16196:16202   */\n      dup3\n        /* \"#utility.yul\":16192:16206   */\n      add\n        /* \"#utility.yul\":16185:16225   */\n      mstore\n        /* \"#utility.yul\":16068:16232   */\n      pop\n      jump\t// out\n        /* \"#utility.yul\":16238:16464   */\n    tag_213:\n        /* \"#utility.yul\":16378:16412   */\n      0x446f65736e2774206861766520656e6f7567682062616c616e636520696e2074\n        /* \"#utility.yul\":16374:16375   */\n      0x00\n        /* \"#utility.yul\":16366:16372   */\n      dup3\n        /* \"#utility.yul\":16362:16376   */\n      add\n        /* \"#utility.yul\":16355:16413   */\n      mstore\n        /* \"#utility.yul\":16447:16456   */\n      0x68652062616e6b00000000000000000000000000000000000000000000000000\n        /* \"#utility.yul\":16442:16444   */\n      0x20\n        /* \"#utility.yul\":16434:16440   */\n      dup3\n        /* \"#utility.yul\":16430:16445   */\n      add\n        /* \"#utility.yul\":16423:16457   */\n      mstore\n        /* \"#utility.yul\":16238:16464   */\n      pop\n      jump\t// out\n        /* \"#utility.yul\":16470:16707   */\n    tag_218:\n        /* \"#utility.yul\":16610:16644   */\n      0x536f72727920776520646f6e2774206861766520656e6f756768206d6f6e6579\n        /* \"#utility.yul\":16606:16607   */\n      0x00\n        /* \"#utility.yul\":16598:16604   */\n      dup3\n        /* \"#utility.yul\":16594:16608   */\n      add\n        /* \"#utility.yul\":16587:16645   */\n      mstore\n        /* \"#utility.yul\":16679:16699   */\n      0x20736f20636f6d656261636b206c617465720000000000000000000000000000\n        /* \"#utility.yul\":16674:16676   */\n      0x20\n        /* \"#utility.yul\":16666:16672   */\n      dup3\n        /* \"#utility.yul\":16662:16677   */\n      add\n        /* \"#utility.yul\":16655:16700   */\n      mstore\n        /* \"#utility.yul\":16470:16707   */\n      pop\n      jump\t// out\n        /* \"#utility.yul\":16713:16883   */\n    tag_223:\n        /* \"#utility.yul\":16853:16875   */\n      0x4d756c7469706c69636174696f6e206661696c64000000000000000000000000\n        /* \"#utility.yul\":16849:16850   */\n      0x00\n        /* \"#utility.yul\":16841:16847   */\n      dup3\n        /* \"#utility.yul\":16837:16851   */\n      add\n        /* \"#utility.yul\":16830:16876   */\n      mstore\n        /* \"#utility.yul\":16713:16883   */\n      pop\n      jump\t// out\n        /* \"#utility.yul\":16889:17011   */\n    tag_136:\n        /* \"#utility.yul\":16962:16986   */\n      tag_311\n        /* \"#utility.yul\":16980:16985   */\n      dup2\n        /* \"#utility.yul\":16962:16986   */\n      tag_158\n      jump\t// in\n    tag_311:\n        /* \"#utility.yul\":16955:16960   */\n      dup2\n        /* \"#utility.yul\":16952:16987   */\n      eq\n        /* \"#utility.yul\":16942:17005   */\n      tag_312\n      jumpi\n        /* \"#utility.yul\":17001:17002   */\n      0x00\n        /* \"#utility.yul\":16998:16999   */\n      dup1\n        /* \"#utility.yul\":16991:17003   */\n      revert\n        /* \"#utility.yul\":16942:17005   */\n    tag_312:\n        /* \"#utility.yul\":16889:17011   */\n      pop\n      jump\t// out\n        /* \"#utility.yul\":17017:17139   */\n    tag_140:\n        /* \"#utility.yul\":17090:17114   */\n      tag_314\n        /* \"#utility.yul\":17108:17113   */\n      dup2\n        /* \"#utility.yul\":17090:17114   */\n      tag_227\n      jump\t// in\n    tag_314:\n        /* \"#utility.yul\":17083:17088   */\n      dup2\n        /* \"#utility.yul\":17080:17115   */\n      eq\n        /* \"#utility.yul\":17070:17133   */\n      tag_315\n      jumpi\n        /* \"#utility.yul\":17129:17130   */\n      0x00\n        /* \"#utility.yul\":17126:17127   */\n      dup1\n        /* \"#utility.yul\":17119:17131   */\n      revert\n        /* \"#utility.yul\":17070:17133   */\n    tag_315:\n        /* \"#utility.yul\":17017:17139   */\n      pop\n      jump\t// out\n\n    auxdata: 0xa2646970667358221220f75d0e158b6549e86e4fe4f107504195d2981acefdbb56111d9097b77294b79864736f6c63430008070033\n}\n",
				"bytecode": {
					"linkReferences": {},
					"object": "6080604052670de0b6b3a76400006000553480156200001d57600080fd5b5033600160006101000a81548173ffffffffffffffffffffffffffffffffffffffff021916908373ffffffffffffffffffffffffffffffffffffffff1602179055507ff67e7992d539193fc243c42fe89f8fab49013e8e4fb18cfa891dc51adcaccc8033604051620000909190620000d6565b60405180910390a162000176565b620000a98162000119565b82525050565b6000620000be60148362000108565b9150620000cb826200014d565b602082019050919050565b60006040820190508181036000830152620000f181620000af565b90506200010260208301846200009e565b92915050565b600082825260208201905092915050565b600062000126826200012d565b9050919050565b600073ffffffffffffffffffffffffffffffffffffffff82169050919050565b7f4c656e64696e6720706f6f6c2063726561746564000000000000000000000000600082015250565b61145780620001866000396000f3fe6080604052600436106100955760003560e01c80638da5cb5b116100595780638da5cb5b14610150578063aeae177c1461017b578063c02b2092146101b8578063d0e30db0146101f5578063f9931855146101ff5761009c565b80633607999b1461009e57806356852391146100ba578063650fad76146100d15780636e0e0da2146100fc5780636e1dc66e146101135761009c565b3661009c57005b005b6100b860048036038101906100b39190610b7f565b61023c565b005b3480156100c657600080fd5b506100cf61036c565b005b3480156100dd57600080fd5b506100e66104c1565b6040516100f39190610f71565b60405180910390f35b34801561010857600080fd5b506101116104c7565b005b34801561011f57600080fd5b5061013a60048036038101906101359190610b52565b6107b0565b6040516101479190610f71565b60405180910390f35b34801561015c57600080fd5b506101656107c8565b6040516101729190610d9f565b60405180910390f35b34801561018757600080fd5b506101a2600480360381019061019d9190610b52565b6107ee565b6040516101af9190610f71565b60405180910390f35b3480156101c457600080fd5b506101df60048036038101906101da9190610b52565b610806565b6040516101ec9190610dba565b60405180910390f35b6101fd610826565b005b34801561020b57600080fd5b5061022660048036038101906102219190610b52565b610998565b6040516102339190610f71565b60405180910390f35b600254821115610281576040517f08c379a000000000000000000000000000000000000000000000000000000000815260040161027890610f11565b60405180910390fd5b610296826002546109b090919063ffffffff16565b6002819055506102ee82600660008473ffffffffffffffffffffffffffffffffffffffff1673ffffffffffffffffffffffffffffffffffffffff16815260200190815260200160002054610a0990919063ffffffff16565b600660008373ffffffffffffffffffffffffffffffffffffffff1673ffffffffffffffffffffffffffffffffffffffff168152602001908152602001600020819055507ff67e7992d539193fc243c42fe89f8fab49013e8e4fb18cfa891dc51adcaccc80816040516103609190610dd5565b60405180910390a15050565b6000600660003373ffffffffffffffffffffffffffffffffffffffff1673ffffffffffffffffffffffffffffffffffffffff16815260200190815260200160002054116103ee576040517f08c379a00000000000000000000000000000000000000000000000000000000081526004016103e590610e43565b60405180910390fd5b6000600660003373ffffffffffffffffffffffffffffffffffffffff1673ffffffffffffffffffffffffffffffffffffffff1681526020019081526020016000205490506000600660003373ffffffffffffffffffffffffffffffffffffffff1673ffffffffffffffffffffffffffffffffffffffff168152602001908152602001600020819055503373ffffffffffffffffffffffffffffffffffffffff166108fc829081150290604051600060405180830381858888f193505050501580156104bd573d6000803e3d6000fd5b5050565b60005481565b6000600560003373ffffffffffffffffffffffffffffffffffffffff1673ffffffffffffffffffffffffffffffffffffffff1681526020019081526020016000205411610549576040517f08c379a000000000000000000000000000000000000000000000000000000000815260040161054090610e03565b60405180910390fd5b60006105ab6201518042600460003373ffffffffffffffffffffffffffffffffffffffff1673ffffffffffffffffffffffffffffffffffffffff1681526020019081526020016000205461059d919061107e565b610a6290919063ffffffff16565b905062278d0081116105f2576040517f08c379a00000000000000000000000000000000000000000000000000000000081526004016105e990610ed1565b60405180910390fd5b600061066c606461065e600560003373ffffffffffffffffffffffffffffffffffffffff1673ffffffffffffffffffffffffffffffffffffffff16815260200190815260200160002054610650600587610aba90919063ffffffff16565b610aba90919063ffffffff16565b610a6290919063ffffffff16565b600560003373ffffffffffffffffffffffffffffffffffffffff1673ffffffffffffffffffffffffffffffffffffffff168152602001908152602001600020546106b69190610f9d565b905060025481106106fc576040517f08c379a00000000000000000000000000000000000000000000000000000000081526004016106f390610f31565b60405180910390fd5b610711816002546109b090919063ffffffff16565b60028190555061076981600660003373ffffffffffffffffffffffffffffffffffffffff1673ffffffffffffffffffffffffffffffffffffffff16815260200190815260200160002054610a0990919063ffffffff16565b600660003373ffffffffffffffffffffffffffffffffffffffff1673ffffffffffffffffffffffffffffffffffffffff168152602001908152602001600020819055505050565b60046020528060005260406000206000915090505481565b600160009054906101000a900473ffffffffffffffffffffffffffffffffffffffff1681565b60066020528060005260406000206000915090505481565b60076020528060005260406000206000915054906101000a900460ff1681565b60005434101561086b576040517f08c379a000000000000000000000000000000000000000000000000000000000815260040161086290610e23565b60405180910390fd5b42600460003373ffffffffffffffffffffffffffffffffffffffff1673ffffffffffffffffffffffffffffffffffffffff1681526020019081526020016000208190555061090134600560003373ffffffffffffffffffffffffffffffffffffffff1673ffffffffffffffffffffffffffffffffffffffff16815260200190815260200160002054610a0990919063ffffffff16565b600560003373ffffffffffffffffffffffffffffffffffffffff1673ffffffffffffffffffffffffffffffffffffffff1681526020019081526020016000208190555061095934600254610a0990919063ffffffff16565b6002819055507ff67e7992d539193fc243c42fe89f8fab49013e8e4fb18cfa891dc51adcaccc803360405161098e9190610e63565b60405180910390a1565b60056020528060005260406000206000915090505481565b6000828211156109f5576040517f08c379a00000000000000000000000000000000000000000000000000000000081526004016109ec90610e91565b60405180910390fd5b8183610a01919061107e565b905092915050565b60008183610a179190610f9d565b905082811015610a5c576040517f08c379a0000000000000000000000000000000000000000000000000000000008152600401610a5390610eb1565b60405180910390fd5b92915050565b6000808211610aa6576040517f08c379a0000000000000000000000000000000000000000000000000000000008152600401610a9d90610ef1565b60405180910390fd5b8183610ab29190610ff3565b905092915050565b60008183610ac89190611024565b90506000831480610ae35750818382610ae19190610ff3565b145b610b22576040517f08c379a0000000000000000000000000000000000000000000000000000000008152600401610b1990610f51565b60405180910390fd5b92915050565b600081359050610b37816113f3565b92915050565b600081359050610b4c8161140a565b92915050565b600060208284031215610b6857610b6761116a565b5b6000610b7684828501610b28565b91505092915050565b60008060408385031215610b9657610b9561116a565b5b6000610ba485828601610b3d565b9250506020610bb585828601610b28565b9150509250929050565b610bc8816110c4565b82525050565b610bd7816110b2565b82525050565b610be6816110d6565b82525050565b6000610bf9601383610f8c565b9150610c048261116f565b602082019050919050565b6000610c1c602083610f8c565b9150610c2782611198565b602082019050919050565b6000610c3f601883610f8c565b9150610c4a826111c1565b602082019050919050565b6000610c62602483610f8c565b9150610c6d826111ea565b604082019050919050565b6000610c85600683610f8c565b9150610c9082611239565b602082019050919050565b6000610ca8601283610f8c565b9150610cb382611262565b602082019050919050565b6000610ccb600f83610f8c565b9150610cd68261128b565b602082019050919050565b6000610cee602483610f8c565b9150610cf9826112b4565b604082019050919050565b6000610d11600e83610f8c565b9150610d1c82611303565b602082019050919050565b6000610d34602783610f8c565b9150610d3f8261132c565b604082019050919050565b6000610d57603283610f8c565b9150610d628261137b565b604082019050919050565b6000610d7a601483610f8c565b9150610d85826113ca565b602082019050919050565b610d9981611102565b82525050565b6000602082019050610db46000830184610bbf565b92915050565b6000602082019050610dcf6000830184610bdd565b92915050565b60006040820190508181036000830152610dee81610bec565b9050610dfd6020830184610bce565b92915050565b60006020820190508181036000830152610e1c81610c0f565b9050919050565b60006020820190508181036000830152610e3c81610c32565b9050919050565b60006020820190508181036000830152610e5c81610c55565b9050919050565b60006040820190508181036000830152610e7c81610c78565b9050610e8b6020830184610bce565b92915050565b60006020820190508181036000830152610eaa81610c9b565b9050919050565b60006020820190508181036000830152610eca81610cbe565b9050919050565b60006020820190508181036000830152610eea81610ce1565b9050919050565b60006020820190508181036000830152610f0a81610d04565b9050919050565b60006020820190508181036000830152610f2a81610d27565b9050919050565b60006020820190508181036000830152610f4a81610d4a565b9050919050565b60006020820190508181036000830152610f6a81610d6d565b9050919050565b6000602082019050610f866000830184610d90565b92915050565b600082825260208201905092915050565b6000610fa882611102565b9150610fb383611102565b9250827fffffffffffffffffffffffffffffffffffffffffffffffffffffffffffffffff03821115610fe857610fe761110c565b5b828201905092915050565b6000610ffe82611102565b915061100983611102565b9250826110195761101861113b565b5b828204905092915050565b600061102f82611102565b915061103a83611102565b9250817fffffffffffffffffffffffffffffffffffffffffffffffffffffffffffffffff04831182151516156110735761107261110c565b5b828202905092915050565b600061108982611102565b915061109483611102565b9250828210156110a7576110a661110c565b5b828203905092915050565b60006110bd826110e2565b9050919050565b60006110cf826110e2565b9050919050565b60008115159050919050565b600073ffffffffffffffffffffffffffffffffffffffff82169050919050565b6000819050919050565b7f4e487b7100000000000000000000000000000000000000000000000000000000600052601160045260246000fd5b7f4e487b7100000000000000000000000000000000000000000000000000000000600052601260045260246000fd5b600080fd5b7f4d6f6e6579207769746864726177656e20746f00000000000000000000000000600082015250565b7f596f7520646f6e2774206861766520616e79206d6f6e657920696e2068657265600082015250565b7f4d696e696d756d20312045746865722052657175697265640000000000000000600082015250565b7f596f7520646f6e27742068617665206e6f2070656e64696e672077697468647260008201527f61776c7300000000000000000000000000000000000000000000000000000000602082015250565b7f7374616b65640000000000000000000000000000000000000000000000000000600082015250565b7f537562737472616374696f6e206661696c640000000000000000000000000000600082015250565b7f4164646974696f6e206661696c65640000000000000000000000000000000000600082015250565b7f596f752073686f756c642061746c65617374207374616b6520666f722061206d60008201527f6f6e747900000000000000000000000000000000000000000000000000000000602082015250565b7f4469766973696f6e206661696c64000000000000000000000000000000000000600082015250565b7f446f65736e2774206861766520656e6f7567682062616c616e636520696e207460008201527f68652062616e6b00000000000000000000000000000000000000000000000000602082015250565b7f536f72727920776520646f6e2774206861766520656e6f756768206d6f6e657960008201527f20736f20636f6d656261636b206c617465720000000000000000000000000000602082015250565b7f4d756c7469706c69636174696f6e206661696c64000000000000000000000000600082015250565b6113fc816110b2565b811461140757600080fd5b50565b61141381611102565b811461141e57600080fd5b5056fea2646970667358221220f75d0e158b6549e86e4fe4f107504195d2981acefdbb56111d9097b77294b79864736f6c63430008070033",
					"opcodes": "PUSH1 0x80 PUSH1 0x40 MSTORE PUSH8 0xDE0B6B3A7640000 PUSH1 0x0 SSTORE CALLVALUE DUP1 ISZERO PUSH3 0x1D JUMPI PUSH1 0x0 DUP1 REVERT JUMPDEST POP CALLER PUSH1 0x1 PUSH1 0x0 PUSH2 0x100 EXP DUP2 SLOAD DUP2 PUSH20 0xFFFFFFFFFFFFFFFFFFFFFFFFFFFFFFFFFFFFFFFF MUL NOT AND SWAP1 DUP4 PUSH20 0xFFFFFFFFFFFFFFFFFFFFFFFFFFFFFFFFFFFFFFFF AND MUL OR SWAP1 SSTORE POP PUSH32 0xF67E7992D539193FC243C42FE89F8FAB49013E8E4FB18CFA891DC51ADCACCC80 CALLER PUSH1 0x40 MLOAD PUSH3 0x90 SWAP2 SWAP1 PUSH3 0xD6 JUMP JUMPDEST PUSH1 0x40 MLOAD DUP1 SWAP2 SUB SWAP1 LOG1 PUSH3 0x176 JUMP JUMPDEST PUSH3 0xA9 DUP2 PUSH3 0x119 JUMP JUMPDEST DUP3 MSTORE POP POP JUMP JUMPDEST PUSH1 0x0 PUSH3 0xBE PUSH1 0x14 DUP4 PUSH3 0x108 JUMP JUMPDEST SWAP2 POP PUSH3 0xCB DUP3 PUSH3 0x14D JUMP JUMPDEST PUSH1 0x20 DUP3 ADD SWAP1 POP SWAP2 SWAP1 POP JUMP JUMPDEST PUSH1 0x0 PUSH1 0x40 DUP3 ADD SWAP1 POP DUP2 DUP2 SUB PUSH1 0x0 DUP4 ADD MSTORE PUSH3 0xF1 DUP2 PUSH3 0xAF JUMP JUMPDEST SWAP1 POP PUSH3 0x102 PUSH1 0x20 DUP4 ADD DUP5 PUSH3 0x9E JUMP JUMPDEST SWAP3 SWAP2 POP POP JUMP JUMPDEST PUSH1 0x0 DUP3 DUP3 MSTORE PUSH1 0x20 DUP3 ADD SWAP1 POP SWAP3 SWAP2 POP POP JUMP JUMPDEST PUSH1 0x0 PUSH3 0x126 DUP3 PUSH3 0x12D JUMP JUMPDEST SWAP1 POP SWAP2 SWAP1 POP JUMP JUMPDEST PUSH1 0x0 PUSH20 0xFFFFFFFFFFFFFFFFFFFFFFFFFFFFFFFFFFFFFFFF DUP3 AND SWAP1 POP SWAP2 SWAP1 POP JUMP JUMPDEST PUSH32 0x4C656E64696E6720706F6F6C2063726561746564000000000000000000000000 PUSH1 0x0 DUP3 ADD MSTORE POP JUMP JUMPDEST PUSH2 0x1457 DUP1 PUSH3 0x186 PUSH1 0x0 CODECOPY PUSH1 0x0 RETURN INVALID PUSH1 0x80 PUSH1 0x40 MSTORE PUSH1 0x4 CALLDATASIZE LT PUSH2 0x95 JUMPI PUSH1 0x0 CALLDATALOAD PUSH1 0xE0 SHR DUP1 PUSH4 0x8DA5CB5B GT PUSH2 0x59 JUMPI DUP1 PUSH4 0x8DA5CB5B EQ PUSH2 0x150 JUMPI DUP1 PUSH4 0xAEAE177C EQ PUSH2 0x17B JUMPI DUP1 PUSH4 0xC02B2092 EQ PUSH2 0x1B8 JUMPI DUP1 PUSH4 0xD0E30DB0 EQ PUSH2 0x1F5 JUMPI DUP1 PUSH4 0xF9931855 EQ PUSH2 0x1FF JUMPI PUSH2 0x9C JUMP JUMPDEST DUP1 PUSH4 0x3607999B EQ PUSH2 0x9E JUMPI DUP1 PUSH4 0x56852391 EQ PUSH2 0xBA JUMPI DUP1 PUSH4 0x650FAD76 EQ PUSH2 0xD1 JUMPI DUP1 PUSH4 0x6E0E0DA2 EQ PUSH2 0xFC JUMPI DUP1 PUSH4 0x6E1DC66E EQ PUSH2 0x113 JUMPI PUSH2 0x9C JUMP JUMPDEST CALLDATASIZE PUSH2 0x9C JUMPI STOP JUMPDEST STOP JUMPDEST PUSH2 0xB8 PUSH1 0x4 DUP1 CALLDATASIZE SUB DUP2 ADD SWAP1 PUSH2 0xB3 SWAP2 SWAP1 PUSH2 0xB7F JUMP JUMPDEST PUSH2 0x23C JUMP JUMPDEST STOP JUMPDEST CALLVALUE DUP1 ISZERO PUSH2 0xC6 JUMPI PUSH1 0x0 DUP1 REVERT JUMPDEST POP PUSH2 0xCF PUSH2 0x36C JUMP JUMPDEST STOP JUMPDEST CALLVALUE DUP1 ISZERO PUSH2 0xDD JUMPI PUSH1 0x0 DUP1 REVERT JUMPDEST POP PUSH2 0xE6 PUSH2 0x4C1 JUMP JUMPDEST PUSH1 0x40 MLOAD PUSH2 0xF3 SWAP2 SWAP1 PUSH2 0xF71 JUMP JUMPDEST PUSH1 0x40 MLOAD DUP1 SWAP2 SUB SWAP1 RETURN JUMPDEST CALLVALUE DUP1 ISZERO PUSH2 0x108 JUMPI PUSH1 0x0 DUP1 REVERT JUMPDEST POP PUSH2 0x111 PUSH2 0x4C7 JUMP JUMPDEST STOP JUMPDEST CALLVALUE DUP1 ISZERO PUSH2 0x11F JUMPI PUSH1 0x0 DUP1 REVERT JUMPDEST POP PUSH2 0x13A PUSH1 0x4 DUP1 CALLDATASIZE SUB DUP2 ADD SWAP1 PUSH2 0x135 SWAP2 SWAP1 PUSH2 0xB52 JUMP JUMPDEST PUSH2 0x7B0 JUMP JUMPDEST PUSH1 0x40 MLOAD PUSH2 0x147 SWAP2 SWAP1 PUSH2 0xF71 JUMP JUMPDEST PUSH1 0x40 MLOAD DUP1 SWAP2 SUB SWAP1 RETURN JUMPDEST CALLVALUE DUP1 ISZERO PUSH2 0x15C JUMPI PUSH1 0x0 DUP1 REVERT JUMPDEST POP PUSH2 0x165 PUSH2 0x7C8 JUMP JUMPDEST PUSH1 0x40 MLOAD PUSH2 0x172 SWAP2 SWAP1 PUSH2 0xD9F JUMP JUMPDEST PUSH1 0x40 MLOAD DUP1 SWAP2 SUB SWAP1 RETURN JUMPDEST CALLVALUE DUP1 ISZERO PUSH2 0x187 JUMPI PUSH1 0x0 DUP1 REVERT JUMPDEST POP PUSH2 0x1A2 PUSH1 0x4 DUP1 CALLDATASIZE SUB DUP2 ADD SWAP1 PUSH2 0x19D SWAP2 SWAP1 PUSH2 0xB52 JUMP JUMPDEST PUSH2 0x7EE JUMP JUMPDEST PUSH1 0x40 MLOAD PUSH2 0x1AF SWAP2 SWAP1 PUSH2 0xF71 JUMP JUMPDEST PUSH1 0x40 MLOAD DUP1 SWAP2 SUB SWAP1 RETURN JUMPDEST CALLVALUE DUP1 ISZERO PUSH2 0x1C4 JUMPI PUSH1 0x0 DUP1 REVERT JUMPDEST POP PUSH2 0x1DF PUSH1 0x4 DUP1 CALLDATASIZE SUB DUP2 ADD SWAP1 PUSH2 0x1DA SWAP2 SWAP1 PUSH2 0xB52 JUMP JUMPDEST PUSH2 0x806 JUMP JUMPDEST PUSH1 0x40 MLOAD PUSH2 0x1EC SWAP2 SWAP1 PUSH2 0xDBA JUMP JUMPDEST PUSH1 0x40 MLOAD DUP1 SWAP2 SUB SWAP1 RETURN JUMPDEST PUSH2 0x1FD PUSH2 0x826 JUMP JUMPDEST STOP JUMPDEST CALLVALUE DUP1 ISZERO PUSH2 0x20B JUMPI PUSH1 0x0 DUP1 REVERT JUMPDEST POP PUSH2 0x226 PUSH1 0x4 DUP1 CALLDATASIZE SUB DUP2 ADD SWAP1 PUSH2 0x221 SWAP2 SWAP1 PUSH2 0xB52 JUMP JUMPDEST PUSH2 0x998 JUMP JUMPDEST PUSH1 0x40 MLOAD PUSH2 0x233 SWAP2 SWAP1 PUSH2 0xF71 JUMP JUMPDEST PUSH1 0x40 MLOAD DUP1 SWAP2 SUB SWAP1 RETURN JUMPDEST PUSH1 0x2 SLOAD DUP3 GT ISZERO PUSH2 0x281 JUMPI PUSH1 0x40 MLOAD PUSH32 0x8C379A000000000000000000000000000000000000000000000000000000000 DUP2 MSTORE PUSH1 0x4 ADD PUSH2 0x278 SWAP1 PUSH2 0xF11 JUMP JUMPDEST PUSH1 0x40 MLOAD DUP1 SWAP2 SUB SWAP1 REVERT JUMPDEST PUSH2 0x296 DUP3 PUSH1 0x2 SLOAD PUSH2 0x9B0 SWAP1 SWAP2 SWAP1 PUSH4 0xFFFFFFFF AND JUMP JUMPDEST PUSH1 0x2 DUP2 SWAP1 SSTORE POP PUSH2 0x2EE DUP3 PUSH1 0x6 PUSH1 0x0 DUP5 PUSH20 0xFFFFFFFFFFFFFFFFFFFFFFFFFFFFFFFFFFFFFFFF AND PUSH20 0xFFFFFFFFFFFFFFFFFFFFFFFFFFFFFFFFFFFFFFFF AND DUP2 MSTORE PUSH1 0x20 ADD SWAP1 DUP2 MSTORE PUSH1 0x20 ADD PUSH1 0x0 KECCAK256 SLOAD PUSH2 0xA09 SWAP1 SWAP2 SWAP1 PUSH4 0xFFFFFFFF AND JUMP JUMPDEST PUSH1 0x6 PUSH1 0x0 DUP4 PUSH20 0xFFFFFFFFFFFFFFFFFFFFFFFFFFFFFFFFFFFFFFFF AND PUSH20 0xFFFFFFFFFFFFFFFFFFFFFFFFFFFFFFFFFFFFFFFF AND DUP2 MSTORE PUSH1 0x20 ADD SWAP1 DUP2 MSTORE PUSH1 0x20 ADD PUSH1 0x0 KECCAK256 DUP2 SWAP1 SSTORE POP PUSH32 0xF67E7992D539193FC243C42FE89F8FAB49013E8E4FB18CFA891DC51ADCACCC80 DUP2 PUSH1 0x40 MLOAD PUSH2 0x360 SWAP2 SWAP1 PUSH2 0xDD5 JUMP JUMPDEST PUSH1 0x40 MLOAD DUP1 SWAP2 SUB SWAP1 LOG1 POP POP JUMP JUMPDEST PUSH1 0x0 PUSH1 0x6 PUSH1 0x0 CALLER PUSH20 0xFFFFFFFFFFFFFFFFFFFFFFFFFFFFFFFFFFFFFFFF AND PUSH20 0xFFFFFFFFFFFFFFFFFFFFFFFFFFFFFFFFFFFFFFFF AND DUP2 MSTORE PUSH1 0x20 ADD SWAP1 DUP2 MSTORE PUSH1 0x20 ADD PUSH1 0x0 KECCAK256 SLOAD GT PUSH2 0x3EE JUMPI PUSH1 0x40 MLOAD PUSH32 0x8C379A000000000000000000000000000000000000000000000000000000000 DUP2 MSTORE PUSH1 0x4 ADD PUSH2 0x3E5 SWAP1 PUSH2 0xE43 JUMP JUMPDEST PUSH1 0x40 MLOAD DUP1 SWAP2 SUB SWAP1 REVERT JUMPDEST PUSH1 0x0 PUSH1 0x6 PUSH1 0x0 CALLER PUSH20 0xFFFFFFFFFFFFFFFFFFFFFFFFFFFFFFFFFFFFFFFF AND PUSH20 0xFFFFFFFFFFFFFFFFFFFFFFFFFFFFFFFFFFFFFFFF AND DUP2 MSTORE PUSH1 0x20 ADD SWAP1 DUP2 MSTORE PUSH1 0x20 ADD PUSH1 0x0 KECCAK256 SLOAD SWAP1 POP PUSH1 0x0 PUSH1 0x6 PUSH1 0x0 CALLER PUSH20 0xFFFFFFFFFFFFFFFFFFFFFFFFFFFFFFFFFFFFFFFF AND PUSH20 0xFFFFFFFFFFFFFFFFFFFFFFFFFFFFFFFFFFFFFFFF AND DUP2 MSTORE PUSH1 0x20 ADD SWAP1 DUP2 MSTORE PUSH1 0x20 ADD PUSH1 0x0 KECCAK256 DUP2 SWAP1 SSTORE POP CALLER PUSH20 0xFFFFFFFFFFFFFFFFFFFFFFFFFFFFFFFFFFFFFFFF AND PUSH2 0x8FC DUP3 SWAP1 DUP2 ISZERO MUL SWAP1 PUSH1 0x40 MLOAD PUSH1 0x0 PUSH1 0x40 MLOAD DUP1 DUP4 SUB DUP2 DUP6 DUP9 DUP9 CALL SWAP4 POP POP POP POP ISZERO DUP1 ISZERO PUSH2 0x4BD JUMPI RETURNDATASIZE PUSH1 0x0 DUP1 RETURNDATACOPY RETURNDATASIZE PUSH1 0x0 REVERT JUMPDEST POP POP JUMP JUMPDEST PUSH1 0x0 SLOAD DUP2 JUMP JUMPDEST PUSH1 0x0 PUSH1 0x5 PUSH1 0x0 CALLER PUSH20 0xFFFFFFFFFFFFFFFFFFFFFFFFFFFFFFFFFFFFFFFF AND PUSH20 0xFFFFFFFFFFFFFFFFFFFFFFFFFFFFFFFFFFFFFFFF AND DUP2 MSTORE PUSH1 0x20 ADD SWAP1 DUP2 MSTORE PUSH1 0x20 ADD PUSH1 0x0 KECCAK256 SLOAD GT PUSH2 0x549 JUMPI PUSH1 0x40 MLOAD PUSH32 0x8C379A000000000000000000000000000000000000000000000000000000000 DUP2 MSTORE PUSH1 0x4 ADD PUSH2 0x540 SWAP1 PUSH2 0xE03 JUMP JUMPDEST PUSH1 0x40 MLOAD DUP1 SWAP2 SUB SWAP1 REVERT JUMPDEST PUSH1 0x0 PUSH2 0x5AB PUSH3 0x15180 TIMESTAMP PUSH1 0x4 PUSH1 0x0 CALLER PUSH20 0xFFFFFFFFFFFFFFFFFFFFFFFFFFFFFFFFFFFFFFFF AND PUSH20 0xFFFFFFFFFFFFFFFFFFFFFFFFFFFFFFFFFFFFFFFF AND DUP2 MSTORE PUSH1 0x20 ADD SWAP1 DUP2 MSTORE PUSH1 0x20 ADD PUSH1 0x0 KECCAK256 SLOAD PUSH2 0x59D SWAP2 SWAP1 PUSH2 0x107E JUMP JUMPDEST PUSH2 0xA62 SWAP1 SWAP2 SWAP1 PUSH4 0xFFFFFFFF AND JUMP JUMPDEST SWAP1 POP PUSH3 0x278D00 DUP2 GT PUSH2 0x5F2 JUMPI PUSH1 0x40 MLOAD PUSH32 0x8C379A000000000000000000000000000000000000000000000000000000000 DUP2 MSTORE PUSH1 0x4 ADD PUSH2 0x5E9 SWAP1 PUSH2 0xED1 JUMP JUMPDEST PUSH1 0x40 MLOAD DUP1 SWAP2 SUB SWAP1 REVERT JUMPDEST PUSH1 0x0 PUSH2 0x66C PUSH1 0x64 PUSH2 0x65E PUSH1 0x5 PUSH1 0x0 CALLER PUSH20 0xFFFFFFFFFFFFFFFFFFFFFFFFFFFFFFFFFFFFFFFF AND PUSH20 0xFFFFFFFFFFFFFFFFFFFFFFFFFFFFFFFFFFFFFFFF AND DUP2 MSTORE PUSH1 0x20 ADD SWAP1 DUP2 MSTORE PUSH1 0x20 ADD PUSH1 0x0 KECCAK256 SLOAD PUSH2 0x650 PUSH1 0x5 DUP8 PUSH2 0xABA SWAP1 SWAP2 SWAP1 PUSH4 0xFFFFFFFF AND JUMP JUMPDEST PUSH2 0xABA SWAP1 SWAP2 SWAP1 PUSH4 0xFFFFFFFF AND JUMP JUMPDEST PUSH2 0xA62 SWAP1 SWAP2 SWAP1 PUSH4 0xFFFFFFFF AND JUMP JUMPDEST PUSH1 0x5 PUSH1 0x0 CALLER PUSH20 0xFFFFFFFFFFFFFFFFFFFFFFFFFFFFFFFFFFFFFFFF AND PUSH20 0xFFFFFFFFFFFFFFFFFFFFFFFFFFFFFFFFFFFFFFFF AND DUP2 MSTORE PUSH1 0x20 ADD SWAP1 DUP2 MSTORE PUSH1 0x20 ADD PUSH1 0x0 KECCAK256 SLOAD PUSH2 0x6B6 SWAP2 SWAP1 PUSH2 0xF9D JUMP JUMPDEST SWAP1 POP PUSH1 0x2 SLOAD DUP2 LT PUSH2 0x6FC JUMPI PUSH1 0x40 MLOAD PUSH32 0x8C379A000000000000000000000000000000000000000000000000000000000 DUP2 MSTORE PUSH1 0x4 ADD PUSH2 0x6F3 SWAP1 PUSH2 0xF31 JUMP JUMPDEST PUSH1 0x40 MLOAD DUP1 SWAP2 SUB SWAP1 REVERT JUMPDEST PUSH2 0x711 DUP2 PUSH1 0x2 SLOAD PUSH2 0x9B0 SWAP1 SWAP2 SWAP1 PUSH4 0xFFFFFFFF AND JUMP JUMPDEST PUSH1 0x2 DUP2 SWAP1 SSTORE POP PUSH2 0x769 DUP2 PUSH1 0x6 PUSH1 0x0 CALLER PUSH20 0xFFFFFFFFFFFFFFFFFFFFFFFFFFFFFFFFFFFFFFFF AND PUSH20 0xFFFFFFFFFFFFFFFFFFFFFFFFFFFFFFFFFFFFFFFF AND DUP2 MSTORE PUSH1 0x20 ADD SWAP1 DUP2 MSTORE PUSH1 0x20 ADD PUSH1 0x0 KECCAK256 SLOAD PUSH2 0xA09 SWAP1 SWAP2 SWAP1 PUSH4 0xFFFFFFFF AND JUMP JUMPDEST PUSH1 0x6 PUSH1 0x0 CALLER PUSH20 0xFFFFFFFFFFFFFFFFFFFFFFFFFFFFFFFFFFFFFFFF AND PUSH20 0xFFFFFFFFFFFFFFFFFFFFFFFFFFFFFFFFFFFFFFFF AND DUP2 MSTORE PUSH1 0x20 ADD SWAP1 DUP2 MSTORE PUSH1 0x20 ADD PUSH1 0x0 KECCAK256 DUP2 SWAP1 SSTORE POP POP POP JUMP JUMPDEST PUSH1 0x4 PUSH1 0x20 MSTORE DUP1 PUSH1 0x0 MSTORE PUSH1 0x40 PUSH1 0x0 KECCAK256 PUSH1 0x0 SWAP2 POP SWAP1 POP SLOAD DUP2 JUMP JUMPDEST PUSH1 0x1 PUSH1 0x0 SWAP1 SLOAD SWAP1 PUSH2 0x100 EXP SWAP1 DIV PUSH20 0xFFFFFFFFFFFFFFFFFFFFFFFFFFFFFFFFFFFFFFFF AND DUP2 JUMP JUMPDEST PUSH1 0x6 PUSH1 0x20 MSTORE DUP1 PUSH1 0x0 MSTORE PUSH1 0x40 PUSH1 0x0 KECCAK256 PUSH1 0x0 SWAP2 POP SWAP1 POP SLOAD DUP2 JUMP JUMPDEST PUSH1 0x7 PUSH1 0x20 MSTORE DUP1 PUSH1 0x0 MSTORE PUSH1 0x40 PUSH1 0x0 KECCAK256 PUSH1 0x0 SWAP2 POP SLOAD SWAP1 PUSH2 0x100 EXP SWAP1 DIV PUSH1 0xFF AND DUP2 JUMP JUMPDEST PUSH1 0x0 SLOAD CALLVALUE LT ISZERO PUSH2 0x86B JUMPI PUSH1 0x40 MLOAD PUSH32 0x8C379A000000000000000000000000000000000000000000000000000000000 DUP2 MSTORE PUSH1 0x4 ADD PUSH2 0x862 SWAP1 PUSH2 0xE23 JUMP JUMPDEST PUSH1 0x40 MLOAD DUP1 SWAP2 SUB SWAP1 REVERT JUMPDEST TIMESTAMP PUSH1 0x4 PUSH1 0x0 CALLER PUSH20 0xFFFFFFFFFFFFFFFFFFFFFFFFFFFFFFFFFFFFFFFF AND PUSH20 0xFFFFFFFFFFFFFFFFFFFFFFFFFFFFFFFFFFFFFFFF AND DUP2 MSTORE PUSH1 0x20 ADD SWAP1 DUP2 MSTORE PUSH1 0x20 ADD PUSH1 0x0 KECCAK256 DUP2 SWAP1 SSTORE POP PUSH2 0x901 CALLVALUE PUSH1 0x5 PUSH1 0x0 CALLER PUSH20 0xFFFFFFFFFFFFFFFFFFFFFFFFFFFFFFFFFFFFFFFF AND PUSH20 0xFFFFFFFFFFFFFFFFFFFFFFFFFFFFFFFFFFFFFFFF AND DUP2 MSTORE PUSH1 0x20 ADD SWAP1 DUP2 MSTORE PUSH1 0x20 ADD PUSH1 0x0 KECCAK256 SLOAD PUSH2 0xA09 SWAP1 SWAP2 SWAP1 PUSH4 0xFFFFFFFF AND JUMP JUMPDEST PUSH1 0x5 PUSH1 0x0 CALLER PUSH20 0xFFFFFFFFFFFFFFFFFFFFFFFFFFFFFFFFFFFFFFFF AND PUSH20 0xFFFFFFFFFFFFFFFFFFFFFFFFFFFFFFFFFFFFFFFF AND DUP2 MSTORE PUSH1 0x20 ADD SWAP1 DUP2 MSTORE PUSH1 0x20 ADD PUSH1 0x0 KECCAK256 DUP2 SWAP1 SSTORE POP PUSH2 0x959 CALLVALUE PUSH1 0x2 SLOAD PUSH2 0xA09 SWAP1 SWAP2 SWAP1 PUSH4 0xFFFFFFFF AND JUMP JUMPDEST PUSH1 0x2 DUP2 SWAP1 SSTORE POP PUSH32 0xF67E7992D539193FC243C42FE89F8FAB49013E8E4FB18CFA891DC51ADCACCC80 CALLER PUSH1 0x40 MLOAD PUSH2 0x98E SWAP2 SWAP1 PUSH2 0xE63 JUMP JUMPDEST PUSH1 0x40 MLOAD DUP1 SWAP2 SUB SWAP1 LOG1 JUMP JUMPDEST PUSH1 0x5 PUSH1 0x20 MSTORE DUP1 PUSH1 0x0 MSTORE PUSH1 0x40 PUSH1 0x0 KECCAK256 PUSH1 0x0 SWAP2 POP SWAP1 POP SLOAD DUP2 JUMP JUMPDEST PUSH1 0x0 DUP3 DUP3 GT ISZERO PUSH2 0x9F5 JUMPI PUSH1 0x40 MLOAD PUSH32 0x8C379A000000000000000000000000000000000000000000000000000000000 DUP2 MSTORE PUSH1 0x4 ADD PUSH2 0x9EC SWAP1 PUSH2 0xE91 JUMP JUMPDEST PUSH1 0x40 MLOAD DUP1 SWAP2 SUB SWAP1 REVERT JUMPDEST DUP2 DUP4 PUSH2 0xA01 SWAP2 SWAP1 PUSH2 0x107E JUMP JUMPDEST SWAP1 POP SWAP3 SWAP2 POP POP JUMP JUMPDEST PUSH1 0x0 DUP2 DUP4 PUSH2 0xA17 SWAP2 SWAP1 PUSH2 0xF9D JUMP JUMPDEST SWAP1 POP DUP3 DUP2 LT ISZERO PUSH2 0xA5C JUMPI PUSH1 0x40 MLOAD PUSH32 0x8C379A000000000000000000000000000000000000000000000000000000000 DUP2 MSTORE PUSH1 0x4 ADD PUSH2 0xA53 SWAP1 PUSH2 0xEB1 JUMP JUMPDEST PUSH1 0x40 MLOAD DUP1 SWAP2 SUB SWAP1 REVERT JUMPDEST SWAP3 SWAP2 POP POP JUMP JUMPDEST PUSH1 0x0 DUP1 DUP3 GT PUSH2 0xAA6 JUMPI PUSH1 0x40 MLOAD PUSH32 0x8C379A000000000000000000000000000000000000000000000000000000000 DUP2 MSTORE PUSH1 0x4 ADD PUSH2 0xA9D SWAP1 PUSH2 0xEF1 JUMP JUMPDEST PUSH1 0x40 MLOAD DUP1 SWAP2 SUB SWAP1 REVERT JUMPDEST DUP2 DUP4 PUSH2 0xAB2 SWAP2 SWAP1 PUSH2 0xFF3 JUMP JUMPDEST SWAP1 POP SWAP3 SWAP2 POP POP JUMP JUMPDEST PUSH1 0x0 DUP2 DUP4 PUSH2 0xAC8 SWAP2 SWAP1 PUSH2 0x1024 JUMP JUMPDEST SWAP1 POP PUSH1 0x0 DUP4 EQ DUP1 PUSH2 0xAE3 JUMPI POP DUP2 DUP4 DUP3 PUSH2 0xAE1 SWAP2 SWAP1 PUSH2 0xFF3 JUMP JUMPDEST EQ JUMPDEST PUSH2 0xB22 JUMPI PUSH1 0x40 MLOAD PUSH32 0x8C379A000000000000000000000000000000000000000000000000000000000 DUP2 MSTORE PUSH1 0x4 ADD PUSH2 0xB19 SWAP1 PUSH2 0xF51 JUMP JUMPDEST PUSH1 0x40 MLOAD DUP1 SWAP2 SUB SWAP1 REVERT JUMPDEST SWAP3 SWAP2 POP POP JUMP JUMPDEST PUSH1 0x0 DUP2 CALLDATALOAD SWAP1 POP PUSH2 0xB37 DUP2 PUSH2 0x13F3 JUMP JUMPDEST SWAP3 SWAP2 POP POP JUMP JUMPDEST PUSH1 0x0 DUP2 CALLDATALOAD SWAP1 POP PUSH2 0xB4C DUP2 PUSH2 0x140A JUMP JUMPDEST SWAP3 SWAP2 POP POP JUMP JUMPDEST PUSH1 0x0 PUSH1 0x20 DUP3 DUP5 SUB SLT ISZERO PUSH2 0xB68 JUMPI PUSH2 0xB67 PUSH2 0x116A JUMP JUMPDEST JUMPDEST PUSH1 0x0 PUSH2 0xB76 DUP5 DUP3 DUP6 ADD PUSH2 0xB28 JUMP JUMPDEST SWAP2 POP POP SWAP3 SWAP2 POP POP JUMP JUMPDEST PUSH1 0x0 DUP1 PUSH1 0x40 DUP4 DUP6 SUB SLT ISZERO PUSH2 0xB96 JUMPI PUSH2 0xB95 PUSH2 0x116A JUMP JUMPDEST JUMPDEST PUSH1 0x0 PUSH2 0xBA4 DUP6 DUP3 DUP7 ADD PUSH2 0xB3D JUMP JUMPDEST SWAP3 POP POP PUSH1 0x20 PUSH2 0xBB5 DUP6 DUP3 DUP7 ADD PUSH2 0xB28 JUMP JUMPDEST SWAP2 POP POP SWAP3 POP SWAP3 SWAP1 POP JUMP JUMPDEST PUSH2 0xBC8 DUP2 PUSH2 0x10C4 JUMP JUMPDEST DUP3 MSTORE POP POP JUMP JUMPDEST PUSH2 0xBD7 DUP2 PUSH2 0x10B2 JUMP JUMPDEST DUP3 MSTORE POP POP JUMP JUMPDEST PUSH2 0xBE6 DUP2 PUSH2 0x10D6 JUMP JUMPDEST DUP3 MSTORE POP POP JUMP JUMPDEST PUSH1 0x0 PUSH2 0xBF9 PUSH1 0x13 DUP4 PUSH2 0xF8C JUMP JUMPDEST SWAP2 POP PUSH2 0xC04 DUP3 PUSH2 0x116F JUMP JUMPDEST PUSH1 0x20 DUP3 ADD SWAP1 POP SWAP2 SWAP1 POP JUMP JUMPDEST PUSH1 0x0 PUSH2 0xC1C PUSH1 0x20 DUP4 PUSH2 0xF8C JUMP JUMPDEST SWAP2 POP PUSH2 0xC27 DUP3 PUSH2 0x1198 JUMP JUMPDEST PUSH1 0x20 DUP3 ADD SWAP1 POP SWAP2 SWAP1 POP JUMP JUMPDEST PUSH1 0x0 PUSH2 0xC3F PUSH1 0x18 DUP4 PUSH2 0xF8C JUMP JUMPDEST SWAP2 POP PUSH2 0xC4A DUP3 PUSH2 0x11C1 JUMP JUMPDEST PUSH1 0x20 DUP3 ADD SWAP1 POP SWAP2 SWAP1 POP JUMP JUMPDEST PUSH1 0x0 PUSH2 0xC62 PUSH1 0x24 DUP4 PUSH2 0xF8C JUMP JUMPDEST SWAP2 POP PUSH2 0xC6D DUP3 PUSH2 0x11EA JUMP JUMPDEST PUSH1 0x40 DUP3 ADD SWAP1 POP SWAP2 SWAP1 POP JUMP JUMPDEST PUSH1 0x0 PUSH2 0xC85 PUSH1 0x6 DUP4 PUSH2 0xF8C JUMP JUMPDEST SWAP2 POP PUSH2 0xC90 DUP3 PUSH2 0x1239 JUMP JUMPDEST PUSH1 0x20 DUP3 ADD SWAP1 POP SWAP2 SWAP1 POP JUMP JUMPDEST PUSH1 0x0 PUSH2 0xCA8 PUSH1 0x12 DUP4 PUSH2 0xF8C JUMP JUMPDEST SWAP2 POP PUSH2 0xCB3 DUP3 PUSH2 0x1262 JUMP JUMPDEST PUSH1 0x20 DUP3 ADD SWAP1 POP SWAP2 SWAP1 POP JUMP JUMPDEST PUSH1 0x0 PUSH2 0xCCB PUSH1 0xF DUP4 PUSH2 0xF8C JUMP JUMPDEST SWAP2 POP PUSH2 0xCD6 DUP3 PUSH2 0x128B JUMP JUMPDEST PUSH1 0x20 DUP3 ADD SWAP1 POP SWAP2 SWAP1 POP JUMP JUMPDEST PUSH1 0x0 PUSH2 0xCEE PUSH1 0x24 DUP4 PUSH2 0xF8C JUMP JUMPDEST SWAP2 POP PUSH2 0xCF9 DUP3 PUSH2 0x12B4 JUMP JUMPDEST PUSH1 0x40 DUP3 ADD SWAP1 POP SWAP2 SWAP1 POP JUMP JUMPDEST PUSH1 0x0 PUSH2 0xD11 PUSH1 0xE DUP4 PUSH2 0xF8C JUMP JUMPDEST SWAP2 POP PUSH2 0xD1C DUP3 PUSH2 0x1303 JUMP JUMPDEST PUSH1 0x20 DUP3 ADD SWAP1 POP SWAP2 SWAP1 POP JUMP JUMPDEST PUSH1 0x0 PUSH2 0xD34 PUSH1 0x27 DUP4 PUSH2 0xF8C JUMP JUMPDEST SWAP2 POP PUSH2 0xD3F DUP3 PUSH2 0x132C JUMP JUMPDEST PUSH1 0x40 DUP3 ADD SWAP1 POP SWAP2 SWAP1 POP JUMP JUMPDEST PUSH1 0x0 PUSH2 0xD57 PUSH1 0x32 DUP4 PUSH2 0xF8C JUMP JUMPDEST SWAP2 POP PUSH2 0xD62 DUP3 PUSH2 0x137B JUMP JUMPDEST PUSH1 0x40 DUP3 ADD SWAP1 POP SWAP2 SWAP1 POP JUMP JUMPDEST PUSH1 0x0 PUSH2 0xD7A PUSH1 0x14 DUP4 PUSH2 0xF8C JUMP JUMPDEST SWAP2 POP PUSH2 0xD85 DUP3 PUSH2 0x13CA JUMP JUMPDEST PUSH1 0x20 DUP3 ADD SWAP1 POP SWAP2 SWAP1 POP JUMP JUMPDEST PUSH2 0xD99 DUP2 PUSH2 0x1102 JUMP JUMPDEST DUP3 MSTORE POP POP JUMP JUMPDEST PUSH1 0x0 PUSH1 0x20 DUP3 ADD SWAP1 POP PUSH2 0xDB4 PUSH1 0x0 DUP4 ADD DUP5 PUSH2 0xBBF JUMP JUMPDEST SWAP3 SWAP2 POP POP JUMP JUMPDEST PUSH1 0x0 PUSH1 0x20 DUP3 ADD SWAP1 POP PUSH2 0xDCF PUSH1 0x0 DUP4 ADD DUP5 PUSH2 0xBDD JUMP JUMPDEST SWAP3 SWAP2 POP POP JUMP JUMPDEST PUSH1 0x0 PUSH1 0x40 DUP3 ADD SWAP1 POP DUP2 DUP2 SUB PUSH1 0x0 DUP4 ADD MSTORE PUSH2 0xDEE DUP2 PUSH2 0xBEC JUMP JUMPDEST SWAP1 POP PUSH2 0xDFD PUSH1 0x20 DUP4 ADD DUP5 PUSH2 0xBCE JUMP JUMPDEST SWAP3 SWAP2 POP POP JUMP JUMPDEST PUSH1 0x0 PUSH1 0x20 DUP3 ADD SWAP1 POP DUP2 DUP2 SUB PUSH1 0x0 DUP4 ADD MSTORE PUSH2 0xE1C DUP2 PUSH2 0xC0F JUMP JUMPDEST SWAP1 POP SWAP2 SWAP1 POP JUMP JUMPDEST PUSH1 0x0 PUSH1 0x20 DUP3 ADD SWAP1 POP DUP2 DUP2 SUB PUSH1 0x0 DUP4 ADD MSTORE PUSH2 0xE3C DUP2 PUSH2 0xC32 JUMP JUMPDEST SWAP1 POP SWAP2 SWAP1 POP JUMP JUMPDEST PUSH1 0x0 PUSH1 0x20 DUP3 ADD SWAP1 POP DUP2 DUP2 SUB PUSH1 0x0 DUP4 ADD MSTORE PUSH2 0xE5C DUP2 PUSH2 0xC55 JUMP JUMPDEST SWAP1 POP SWAP2 SWAP1 POP JUMP JUMPDEST PUSH1 0x0 PUSH1 0x40 DUP3 ADD SWAP1 POP DUP2 DUP2 SUB PUSH1 0x0 DUP4 ADD MSTORE PUSH2 0xE7C DUP2 PUSH2 0xC78 JUMP JUMPDEST SWAP1 POP PUSH2 0xE8B PUSH1 0x20 DUP4 ADD DUP5 PUSH2 0xBCE JUMP JUMPDEST SWAP3 SWAP2 POP POP JUMP JUMPDEST PUSH1 0x0 PUSH1 0x20 DUP3 ADD SWAP1 POP DUP2 DUP2 SUB PUSH1 0x0 DUP4 ADD MSTORE PUSH2 0xEAA DUP2 PUSH2 0xC9B JUMP JUMPDEST SWAP1 POP SWAP2 SWAP1 POP JUMP JUMPDEST PUSH1 0x0 PUSH1 0x20 DUP3 ADD SWAP1 POP DUP2 DUP2 SUB PUSH1 0x0 DUP4 ADD MSTORE PUSH2 0xECA DUP2 PUSH2 0xCBE JUMP JUMPDEST SWAP1 POP SWAP2 SWAP1 POP JUMP JUMPDEST PUSH1 0x0 PUSH1 0x20 DUP3 ADD SWAP1 POP DUP2 DUP2 SUB PUSH1 0x0 DUP4 ADD MSTORE PUSH2 0xEEA DUP2 PUSH2 0xCE1 JUMP JUMPDEST SWAP1 POP SWAP2 SWAP1 POP JUMP JUMPDEST PUSH1 0x0 PUSH1 0x20 DUP3 ADD SWAP1 POP DUP2 DUP2 SUB PUSH1 0x0 DUP4 ADD MSTORE PUSH2 0xF0A DUP2 PUSH2 0xD04 JUMP JUMPDEST SWAP1 POP SWAP2 SWAP1 POP JUMP JUMPDEST PUSH1 0x0 PUSH1 0x20 DUP3 ADD SWAP1 POP DUP2 DUP2 SUB PUSH1 0x0 DUP4 ADD MSTORE PUSH2 0xF2A DUP2 PUSH2 0xD27 JUMP JUMPDEST SWAP1 POP SWAP2 SWAP1 POP JUMP JUMPDEST PUSH1 0x0 PUSH1 0x20 DUP3 ADD SWAP1 POP DUP2 DUP2 SUB PUSH1 0x0 DUP4 ADD MSTORE PUSH2 0xF4A DUP2 PUSH2 0xD4A JUMP JUMPDEST SWAP1 POP SWAP2 SWAP1 POP JUMP JUMPDEST PUSH1 0x0 PUSH1 0x20 DUP3 ADD SWAP1 POP DUP2 DUP2 SUB PUSH1 0x0 DUP4 ADD MSTORE PUSH2 0xF6A DUP2 PUSH2 0xD6D JUMP JUMPDEST SWAP1 POP SWAP2 SWAP1 POP JUMP JUMPDEST PUSH1 0x0 PUSH1 0x20 DUP3 ADD SWAP1 POP PUSH2 0xF86 PUSH1 0x0 DUP4 ADD DUP5 PUSH2 0xD90 JUMP JUMPDEST SWAP3 SWAP2 POP POP JUMP JUMPDEST PUSH1 0x0 DUP3 DUP3 MSTORE PUSH1 0x20 DUP3 ADD SWAP1 POP SWAP3 SWAP2 POP POP JUMP JUMPDEST PUSH1 0x0 PUSH2 0xFA8 DUP3 PUSH2 0x1102 JUMP JUMPDEST SWAP2 POP PUSH2 0xFB3 DUP4 PUSH2 0x1102 JUMP JUMPDEST SWAP3 POP DUP3 PUSH32 0xFFFFFFFFFFFFFFFFFFFFFFFFFFFFFFFFFFFFFFFFFFFFFFFFFFFFFFFFFFFFFFFF SUB DUP3 GT ISZERO PUSH2 0xFE8 JUMPI PUSH2 0xFE7 PUSH2 0x110C JUMP JUMPDEST JUMPDEST DUP3 DUP3 ADD SWAP1 POP SWAP3 SWAP2 POP POP JUMP JUMPDEST PUSH1 0x0 PUSH2 0xFFE DUP3 PUSH2 0x1102 JUMP JUMPDEST SWAP2 POP PUSH2 0x1009 DUP4 PUSH2 0x1102 JUMP JUMPDEST SWAP3 POP DUP3 PUSH2 0x1019 JUMPI PUSH2 0x1018 PUSH2 0x113B JUMP JUMPDEST JUMPDEST DUP3 DUP3 DIV SWAP1 POP SWAP3 SWAP2 POP POP JUMP JUMPDEST PUSH1 0x0 PUSH2 0x102F DUP3 PUSH2 0x1102 JUMP JUMPDEST SWAP2 POP PUSH2 0x103A DUP4 PUSH2 0x1102 JUMP JUMPDEST SWAP3 POP DUP2 PUSH32 0xFFFFFFFFFFFFFFFFFFFFFFFFFFFFFFFFFFFFFFFFFFFFFFFFFFFFFFFFFFFFFFFF DIV DUP4 GT DUP3 ISZERO ISZERO AND ISZERO PUSH2 0x1073 JUMPI PUSH2 0x1072 PUSH2 0x110C JUMP JUMPDEST JUMPDEST DUP3 DUP3 MUL SWAP1 POP SWAP3 SWAP2 POP POP JUMP JUMPDEST PUSH1 0x0 PUSH2 0x1089 DUP3 PUSH2 0x1102 JUMP JUMPDEST SWAP2 POP PUSH2 0x1094 DUP4 PUSH2 0x1102 JUMP JUMPDEST SWAP3 POP DUP3 DUP3 LT ISZERO PUSH2 0x10A7 JUMPI PUSH2 0x10A6 PUSH2 0x110C JUMP JUMPDEST JUMPDEST DUP3 DUP3 SUB SWAP1 POP SWAP3 SWAP2 POP POP JUMP JUMPDEST PUSH1 0x0 PUSH2 0x10BD DUP3 PUSH2 0x10E2 JUMP JUMPDEST SWAP1 POP SWAP2 SWAP1 POP JUMP JUMPDEST PUSH1 0x0 PUSH2 0x10CF DUP3 PUSH2 0x10E2 JUMP JUMPDEST SWAP1 POP SWAP2 SWAP1 POP JUMP JUMPDEST PUSH1 0x0 DUP2 ISZERO ISZERO SWAP1 POP SWAP2 SWAP1 POP JUMP JUMPDEST PUSH1 0x0 PUSH20 0xFFFFFFFFFFFFFFFFFFFFFFFFFFFFFFFFFFFFFFFF DUP3 AND SWAP1 POP SWAP2 SWAP1 POP JUMP JUMPDEST PUSH1 0x0 DUP2 SWAP1 POP SWAP2 SWAP1 POP JUMP JUMPDEST PUSH32 0x4E487B7100000000000000000000000000000000000000000000000000000000 PUSH1 0x0 MSTORE PUSH1 0x11 PUSH1 0x4 MSTORE PUSH1 0x24 PUSH1 0x0 REVERT JUMPDEST PUSH32 0x4E487B7100000000000000000000000000000000000000000000000000000000 PUSH1 0x0 MSTORE PUSH1 0x12 PUSH1 0x4 MSTORE PUSH1 0x24 PUSH1 0x0 REVERT JUMPDEST PUSH1 0x0 DUP1 REVERT JUMPDEST PUSH32 0x4D6F6E6579207769746864726177656E20746F00000000000000000000000000 PUSH1 0x0 DUP3 ADD MSTORE POP JUMP JUMPDEST PUSH32 0x596F7520646F6E2774206861766520616E79206D6F6E657920696E2068657265 PUSH1 0x0 DUP3 ADD MSTORE POP JUMP JUMPDEST PUSH32 0x4D696E696D756D20312045746865722052657175697265640000000000000000 PUSH1 0x0 DUP3 ADD MSTORE POP JUMP JUMPDEST PUSH32 0x596F7520646F6E27742068617665206E6F2070656E64696E6720776974686472 PUSH1 0x0 DUP3 ADD MSTORE PUSH32 0x61776C7300000000000000000000000000000000000000000000000000000000 PUSH1 0x20 DUP3 ADD MSTORE POP JUMP JUMPDEST PUSH32 0x7374616B65640000000000000000000000000000000000000000000000000000 PUSH1 0x0 DUP3 ADD MSTORE POP JUMP JUMPDEST PUSH32 0x537562737472616374696F6E206661696C640000000000000000000000000000 PUSH1 0x0 DUP3 ADD MSTORE POP JUMP JUMPDEST PUSH32 0x4164646974696F6E206661696C65640000000000000000000000000000000000 PUSH1 0x0 DUP3 ADD MSTORE POP JUMP JUMPDEST PUSH32 0x596F752073686F756C642061746C65617374207374616B6520666F722061206D PUSH1 0x0 DUP3 ADD MSTORE PUSH32 0x6F6E747900000000000000000000000000000000000000000000000000000000 PUSH1 0x20 DUP3 ADD MSTORE POP JUMP JUMPDEST PUSH32 0x4469766973696F6E206661696C64000000000000000000000000000000000000 PUSH1 0x0 DUP3 ADD MSTORE POP JUMP JUMPDEST PUSH32 0x446F65736E2774206861766520656E6F7567682062616C616E636520696E2074 PUSH1 0x0 DUP3 ADD MSTORE PUSH32 0x68652062616E6B00000000000000000000000000000000000000000000000000 PUSH1 0x20 DUP3 ADD MSTORE POP JUMP JUMPDEST PUSH32 0x536F72727920776520646F6E2774206861766520656E6F756768206D6F6E6579 PUSH1 0x0 DUP3 ADD MSTORE PUSH32 0x20736F20636F6D656261636B206C617465720000000000000000000000000000 PUSH1 0x20 DUP3 ADD MSTORE POP JUMP JUMPDEST PUSH32 0x4D756C7469706C69636174696F6E206661696C64000000000000000000000000 PUSH1 0x0 DUP3 ADD MSTORE POP JUMP JUMPDEST PUSH2 0x13FC DUP2 PUSH2 0x10B2 JUMP JUMPDEST DUP2 EQ PUSH2 0x1407 JUMPI PUSH1 0x0 DUP1 REVERT JUMPDEST POP JUMP JUMPDEST PUSH2 0x1413 DUP2 PUSH2 0x1102 JUMP JUMPDEST DUP2 EQ PUSH2 0x141E JUMPI PUSH1 0x0 DUP1 REVERT JUMPDEST POP JUMP INVALID LOG2 PUSH5 0x6970667358 0x22 SLT KECCAK256 0xF7 0x5D 0xE ISZERO DUP12 PUSH6 0x49E86E4FE4F1 SMOD POP COINBASE SWAP6 0xD2 SWAP9 BYTE 0xCE REVERT 0xBB JUMP GT SAR SWAP1 SWAP8 0xB7 PUSH19 0x94B79864736F6C634300080700330000000000 "
				},
				"gasEstimates": {
					"creation": {
						"codeDepositCost": "1041400",
						"executionCost": "49658",
						"totalCost": "1091058"
					},
					"external": {
						"": "196",
						"allowed_pools(address)": "2889",
						"deposit()": "infinite",
						"depositWithdraw()": "infinite",
						"gateWithdrawl()": "infinite",
						"lendingWithdraw(uint256,address)": "infinite",
						"minimumAmt()": "2474",
						"owner()": "2514",
						"pendingPayment(address)": "2836",
						"stakedAmount(address)": "2902",
						"startTime(address)": "2903"
					}
				},
				"methodIdentifiers": {
					"allowed_pools(address)": "c02b2092",
					"deposit()": "d0e30db0",
					"depositWithdraw()": "6e0e0da2",
					"gateWithdrawl()": "56852391",
					"lendingWithdraw(uint256,address)": "3607999b",
					"minimumAmt()": "650fad76",
					"owner()": "8da5cb5b",
					"pendingPayment(address)": "aeae177c",
					"stakedAmount(address)": "f9931855",
					"startTime(address)": "6e1dc66e"
				}
			},
			"userdoc": {
				"kind": "user",
				"methods": {
					"deposit()": {
						"notice": "lenders can deposit money to lending pool"
					},
					"depositWithdraw()": {
						"notice": "notice Stakers can use this function to take out thier money"
					}
				},
				"notice": "Lending pool for Swip3",
				"version": 1
			}
		}
	}
}