{
	"contracts/LendingPool.sol": {
		"LendingPool": {
			"abi": [
				{
					"inputs": [],
					"stateMutability": "nonpayable",
					"type": "constructor"
				},
				{
					"anonymous": false,
					"inputs": [
						{
							"indexed": false,
							"internalType": "string",
							"name": "message",
							"type": "string"
						},
						{
							"indexed": false,
							"internalType": "address",
							"name": "from",
							"type": "address"
						}
					],
					"name": "LendingPoolMessage",
					"type": "event"
				},
				{
					"stateMutability": "payable",
					"type": "fallback"
				},
				{
					"inputs": [
						{
							"internalType": "address",
							"name": "",
							"type": "address"
						}
					],
					"name": "allowed_pools",
					"outputs": [
						{
							"internalType": "bool",
							"name": "",
							"type": "bool"
						}
					],
					"stateMutability": "view",
					"type": "function"
				},
				{
					"inputs": [],
					"name": "deposit",
					"outputs": [],
					"stateMutability": "payable",
					"type": "function"
				},
				{
					"inputs": [],
					"name": "depositWithdraw",
					"outputs": [],
					"stateMutability": "nonpayable",
					"type": "function"
				},
				{
					"inputs": [],
					"name": "editor",
					"outputs": [
						{
							"internalType": "address",
							"name": "",
							"type": "address"
						}
					],
					"stateMutability": "view",
					"type": "function"
				},
				{
					"inputs": [],
					"name": "gateWithdrawl",
					"outputs": [],
					"stateMutability": "nonpayable",
					"type": "function"
				},
				{
					"inputs": [
						{
							"internalType": "uint256",
							"name": "amount",
							"type": "uint256"
						},
						{
							"internalType": "address",
							"name": "to",
							"type": "address"
						}
					],
					"name": "lendingWithdraw",
					"outputs": [],
					"stateMutability": "payable",
					"type": "function"
				},
				{
					"inputs": [],
					"name": "minimumAmt",
					"outputs": [
						{
							"internalType": "uint256",
							"name": "",
							"type": "uint256"
						}
					],
					"stateMutability": "view",
					"type": "function"
				},
				{
					"inputs": [],
					"name": "owner",
					"outputs": [
						{
							"internalType": "address payable",
							"name": "",
							"type": "address"
						}
					],
					"stateMutability": "view",
					"type": "function"
				},
				{
					"inputs": [
						{
							"internalType": "address",
							"name": "",
							"type": "address"
						}
					],
					"name": "pendingPayment",
					"outputs": [
						{
							"internalType": "uint256",
							"name": "",
							"type": "uint256"
						}
					],
					"stateMutability": "view",
					"type": "function"
				},
				{
					"inputs": [
						{
							"internalType": "address",
							"name": "",
							"type": "address"
						}
					],
					"name": "stakedAmount",
					"outputs": [
						{
							"internalType": "uint256",
							"name": "",
							"type": "uint256"
						}
					],
					"stateMutability": "view",
					"type": "function"
				},
				{
					"inputs": [
						{
							"internalType": "address",
							"name": "",
							"type": "address"
						}
					],
					"name": "startTime",
					"outputs": [
						{
							"internalType": "uint256",
							"name": "",
							"type": "uint256"
						}
					],
					"stateMutability": "view",
					"type": "function"
				},
				{
					"stateMutability": "payable",
					"type": "receive"
				}
			],
			"devdoc": {
				"author": "Hileamlak Yitayew, Matt Tengtrakool",
				"details": "need help review ",
				"kind": "dev",
				"methods": {},
				"title": "LendingPool ",
				"version": 1
			},
			"evm": {
				"assembly": "    /* \"contracts/LendingPool.sol\":219:3215  contract LendingPool  {... */\n  mstore(0x40, 0x80)\n    /* \"contracts/LendingPool.sol\":309:316  1 ether */\n  0x0de0b6b3a7640000\n    /* \"contracts/LendingPool.sol\":281:316  uint256 public minimumAmt = 1 ether */\n  0x00\n  sstore\n    /* \"contracts/LendingPool.sol\":748:875  constructor() {... */\n  callvalue\n  dup1\n  iszero\n  tag_1\n  jumpi\n  0x00\n  dup1\n  revert\ntag_1:\n  pop\n    /* \"contracts/LendingPool.sol\":788:798  msg.sender */\n  caller\n    /* \"contracts/LendingPool.sol\":772:777  owner */\n  0x01\n  0x00\n    /* \"contracts/LendingPool.sol\":772:799  owner = payable(msg.sender) */\n  0x0100\n  exp\n  dup2\n  sload\n  dup2\n  0xffffffffffffffffffffffffffffffffffffffff\n  mul\n  not\n  and\n  swap1\n  dup4\n  0xffffffffffffffffffffffffffffffffffffffff\n  and\n  mul\n  or\n  swap1\n  sstore\n  pop\n    /* \"contracts/LendingPool.sol\":814:868  LendingPoolMessage(\"Lending pool created\", msg.sender) */\n  0xf67e7992d539193fc243c42fe89f8fab49013e8e4fb18cfa891dc51adcaccc80\n    /* \"contracts/LendingPool.sol\":857:867  msg.sender */\n  caller\n    /* \"contracts/LendingPool.sol\":814:868  LendingPoolMessage(\"Lending pool created\", msg.sender) */\n  mload(0x40)\n  tag_4\n  swap2\n  swap1\n  tag_5\n  jump\t// in\ntag_4:\n  mload(0x40)\n  dup1\n  swap2\n  sub\n  swap1\n  log1\n    /* \"contracts/LendingPool.sol\":219:3215  contract LendingPool  {... */\n  jump(tag_6)\n    /* \"#utility.yul\":7:125   */\ntag_8:\n    /* \"#utility.yul\":94:118   */\n  tag_10\n    /* \"#utility.yul\":112:117   */\n  dup2\n    /* \"#utility.yul\":94:118   */\n  tag_11\n  jump\t// in\ntag_10:\n    /* \"#utility.yul\":89:92   */\n  dup3\n    /* \"#utility.yul\":82:119   */\n  mstore\n    /* \"#utility.yul\":7:125   */\n  pop\n  pop\n  jump\t// out\n    /* \"#utility.yul\":131:497   */\ntag_12:\n    /* \"#utility.yul\":273:276   */\n  0x00\n    /* \"#utility.yul\":294:361   */\n  tag_14\n    /* \"#utility.yul\":358:360   */\n  0x14\n    /* \"#utility.yul\":353:356   */\n  dup4\n    /* \"#utility.yul\":294:361   */\n  tag_15\n  jump\t// in\ntag_14:\n    /* \"#utility.yul\":287:361   */\n  swap2\n  pop\n    /* \"#utility.yul\":370:463   */\n  tag_16\n    /* \"#utility.yul\":459:462   */\n  dup3\n    /* \"#utility.yul\":370:463   */\n  tag_17\n  jump\t// in\ntag_16:\n    /* \"#utility.yul\":488:490   */\n  0x20\n    /* \"#utility.yul\":483:486   */\n  dup3\n    /* \"#utility.yul\":479:491   */\n  add\n    /* \"#utility.yul\":472:491   */\n  swap1\n  pop\n    /* \"#utility.yul\":131:497   */\n  swap2\n  swap1\n  pop\n  jump\t// out\n    /* \"#utility.yul\":503:1032   */\ntag_5:\n    /* \"#utility.yul\":697:701   */\n  0x00\n    /* \"#utility.yul\":735:737   */\n  0x40\n    /* \"#utility.yul\":724:733   */\n  dup3\n    /* \"#utility.yul\":720:738   */\n  add\n    /* \"#utility.yul\":712:738   */\n  swap1\n  pop\n    /* \"#utility.yul\":784:793   */\n  dup2\n    /* \"#utility.yul\":778:782   */\n  dup2\n    /* \"#utility.yul\":774:794   */\n  sub\n    /* \"#utility.yul\":770:771   */\n  0x00\n    /* \"#utility.yul\":759:768   */\n  dup4\n    /* \"#utility.yul\":755:772   */\n  add\n    /* \"#utility.yul\":748:795   */\n  mstore\n    /* \"#utility.yul\":812:943   */\n  tag_19\n    /* \"#utility.yul\":938:942   */\n  dup2\n    /* \"#utility.yul\":812:943   */\n  tag_12\n  jump\t// in\ntag_19:\n    /* \"#utility.yul\":804:943   */\n  swap1\n  pop\n    /* \"#utility.yul\":953:1025   */\n  tag_20\n    /* \"#utility.yul\":1021:1023   */\n  0x20\n    /* \"#utility.yul\":1010:1019   */\n  dup4\n    /* \"#utility.yul\":1006:1024   */\n  add\n    /* \"#utility.yul\":997:1003   */\n  dup5\n    /* \"#utility.yul\":953:1025   */\n  tag_8\n  jump\t// in\ntag_20:\n    /* \"#utility.yul\":503:1032   */\n  swap3\n  swap2\n  pop\n  pop\n  jump\t// out\n    /* \"#utility.yul\":1038:1207   */\ntag_15:\n    /* \"#utility.yul\":1122:1133   */\n  0x00\n    /* \"#utility.yul\":1156:1162   */\n  dup3\n    /* \"#utility.yul\":1151:1154   */\n  dup3\n    /* \"#utility.yul\":1144:1163   */\n  mstore\n    /* \"#utility.yul\":1196:1200   */\n  0x20\n    /* \"#utility.yul\":1191:1194   */\n  dup3\n    /* \"#utility.yul\":1187:1201   */\n  add\n    /* \"#utility.yul\":1172:1201   */\n  swap1\n  pop\n    /* \"#utility.yul\":1038:1207   */\n  swap3\n  swap2\n  pop\n  pop\n  jump\t// out\n    /* \"#utility.yul\":1213:1309   */\ntag_11:\n    /* \"#utility.yul\":1250:1257   */\n  0x00\n    /* \"#utility.yul\":1279:1303   */\n  tag_23\n    /* \"#utility.yul\":1297:1302   */\n  dup3\n    /* \"#utility.yul\":1279:1303   */\n  tag_24\n  jump\t// in\ntag_23:\n    /* \"#utility.yul\":1268:1303   */\n  swap1\n  pop\n    /* \"#utility.yul\":1213:1309   */\n  swap2\n  swap1\n  pop\n  jump\t// out\n    /* \"#utility.yul\":1315:1441   */\ntag_24:\n    /* \"#utility.yul\":1352:1359   */\n  0x00\n    /* \"#utility.yul\":1392:1434   */\n  0xffffffffffffffffffffffffffffffffffffffff\n    /* \"#utility.yul\":1385:1390   */\n  dup3\n    /* \"#utility.yul\":1381:1435   */\n  and\n    /* \"#utility.yul\":1370:1435   */\n  swap1\n  pop\n    /* \"#utility.yul\":1315:1441   */\n  swap2\n  swap1\n  pop\n  jump\t// out\n    /* \"#utility.yul\":1447:1617   */\ntag_17:\n    /* \"#utility.yul\":1587:1609   */\n  0x4c656e64696e6720706f6f6c2063726561746564000000000000000000000000\n    /* \"#utility.yul\":1583:1584   */\n  0x00\n    /* \"#utility.yul\":1575:1581   */\n  dup3\n    /* \"#utility.yul\":1571:1585   */\n  add\n    /* \"#utility.yul\":1564:1610   */\n  mstore\n    /* \"#utility.yul\":1447:1617   */\n  pop\n  jump\t// out\n    /* \"contracts/LendingPool.sol\":219:3215  contract LendingPool  {... */\ntag_6:\n  dataSize(sub_0)\n  dup1\n  dataOffset(sub_0)\n  0x00\n  codecopy\n  0x00\n  return\nstop\n\nsub_0: assembly {\n        /* \"contracts/LendingPool.sol\":219:3215  contract LendingPool  {... */\n      mstore(0x40, 0x80)\n      jumpi(tag_1, lt(calldatasize, 0x04))\n      shr(0xe0, calldataload(0x00))\n      dup1\n      0x8da5cb5b\n      gt\n      tag_14\n      jumpi\n      dup1\n      0x8da5cb5b\n      eq\n      tag_8\n      jumpi\n      dup1\n      0xa464d265\n      eq\n      tag_9\n      jumpi\n      dup1\n      0xaeae177c\n      eq\n      tag_10\n      jumpi\n      dup1\n      0xc02b2092\n      eq\n      tag_11\n      jumpi\n      dup1\n      0xd0e30db0\n      eq\n      tag_12\n      jumpi\n      dup1\n      0xf9931855\n      eq\n      tag_13\n      jumpi\n      jump(tag_2)\n    tag_14:\n      dup1\n      0x3607999b\n      eq\n      tag_3\n      jumpi\n      dup1\n      0x56852391\n      eq\n      tag_4\n      jumpi\n      dup1\n      0x650fad76\n      eq\n      tag_5\n      jumpi\n      dup1\n      0x6e0e0da2\n      eq\n      tag_6\n      jumpi\n      dup1\n      0x6e1dc66e\n      eq\n      tag_7\n      jumpi\n      jump(tag_2)\n    tag_1:\n      jumpi(tag_2, calldatasize)\n      stop\n    tag_2:\n      stop\n        /* \"contracts/LendingPool.sol\":1742:2087  function lendingWithdraw(uint256 amount, address to) public payable {... */\n    tag_3:\n      tag_19\n      0x04\n      dup1\n      calldatasize\n      sub\n      dup2\n      add\n      swap1\n      tag_20\n      swap2\n      swap1\n      tag_21\n      jump\t// in\n    tag_20:\n      tag_22\n      jump\t// in\n    tag_19:\n      stop\n        /* \"contracts/LendingPool.sol\":2861:3133  function gateWithdrawl() public {... */\n    tag_4:\n      callvalue\n      dup1\n      iszero\n      tag_23\n      jumpi\n      0x00\n      dup1\n      revert\n    tag_23:\n      pop\n      tag_24\n      tag_25\n      jump\t// in\n    tag_24:\n      stop\n        /* \"contracts/LendingPool.sol\":281:316  uint256 public minimumAmt = 1 ether */\n    tag_5:\n      callvalue\n      dup1\n      iszero\n      tag_26\n      jumpi\n      0x00\n      dup1\n      revert\n    tag_26:\n      pop\n      tag_27\n      tag_28\n      jump\t// in\n    tag_27:\n      mload(0x40)\n      tag_29\n      swap2\n      swap1\n      tag_30\n      jump\t// in\n    tag_29:\n      mload(0x40)\n      dup1\n      swap2\n      sub\n      swap1\n      return\n        /* \"contracts/LendingPool.sol\":2161:2785  function depositWithdraw() public{... */\n    tag_6:\n      callvalue\n      dup1\n      iszero\n      tag_31\n      jumpi\n      0x00\n      dup1\n      revert\n    tag_31:\n      pop\n      tag_32\n      tag_33\n      jump\t// in\n    tag_32:\n      stop\n        /* \"contracts/LendingPool.sol\":477:521  mapping(address => uint256) public startTime */\n    tag_7:\n      callvalue\n      dup1\n      iszero\n      tag_34\n      jumpi\n      0x00\n      dup1\n      revert\n    tag_34:\n      pop\n      tag_35\n      0x04\n      dup1\n      calldatasize\n      sub\n      dup2\n      add\n      swap1\n      tag_36\n      swap2\n      swap1\n      tag_37\n      jump\t// in\n    tag_36:\n      tag_38\n      jump\t// in\n    tag_35:\n      mload(0x40)\n      tag_39\n      swap2\n      swap1\n      tag_30\n      jump\t// in\n    tag_39:\n      mload(0x40)\n      dup1\n      swap2\n      sub\n      swap1\n      return\n        /* \"contracts/LendingPool.sol\":322:350  address payable public owner */\n    tag_8:\n      callvalue\n      dup1\n      iszero\n      tag_40\n      jumpi\n      0x00\n      dup1\n      revert\n    tag_40:\n      pop\n      tag_41\n      tag_42\n      jump\t// in\n    tag_41:\n      mload(0x40)\n      tag_43\n      swap2\n      swap1\n      tag_44\n      jump\t// in\n    tag_43:\n      mload(0x40)\n      dup1\n      swap2\n      sub\n      swap1\n      return\n        /* \"contracts/LendingPool.sol\":392:413  address public editor */\n    tag_9:\n      callvalue\n      dup1\n      iszero\n      tag_45\n      jumpi\n      0x00\n      dup1\n      revert\n    tag_45:\n      pop\n      tag_46\n      tag_47\n      jump\t// in\n    tag_46:\n      mload(0x40)\n      tag_48\n      swap2\n      swap1\n      tag_49\n      jump\t// in\n    tag_48:\n      mload(0x40)\n      dup1\n      swap2\n      sub\n      swap1\n      return\n        /* \"contracts/LendingPool.sol\":580:629  mapping(address => uint256) public pendingPayment */\n    tag_10:\n      callvalue\n      dup1\n      iszero\n      tag_50\n      jumpi\n      0x00\n      dup1\n      revert\n    tag_50:\n      pop\n      tag_51\n      0x04\n      dup1\n      calldatasize\n      sub\n      dup2\n      add\n      swap1\n      tag_52\n      swap2\n      swap1\n      tag_37\n      jump\t// in\n    tag_52:\n      tag_53\n      jump\t// in\n    tag_51:\n      mload(0x40)\n      tag_54\n      swap2\n      swap1\n      tag_30\n      jump\t// in\n    tag_54:\n      mload(0x40)\n      dup1\n      swap2\n      sub\n      swap1\n      return\n        /* \"contracts/LendingPool.sol\":635:680  mapping(address => bool) public allowed_pools */\n    tag_11:\n      callvalue\n      dup1\n      iszero\n      tag_55\n      jumpi\n      0x00\n      dup1\n      revert\n    tag_55:\n      pop\n      tag_56\n      0x04\n      dup1\n      calldatasize\n      sub\n      dup2\n      add\n      swap1\n      tag_57\n      swap2\n      swap1\n      tag_37\n      jump\t// in\n    tag_57:\n      tag_58\n      jump\t// in\n    tag_56:\n      mload(0x40)\n      tag_59\n      swap2\n      swap1\n      tag_60\n      jump\t// in\n    tag_59:\n      mload(0x40)\n      dup1\n      swap2\n      sub\n      swap1\n      return\n        /* \"contracts/LendingPool.sol\":1333:1736  function deposit() public payable {... */\n    tag_12:\n      tag_61\n      tag_62\n      jump\t// in\n    tag_61:\n      stop\n        /* \"contracts/LendingPool.sol\":527:574  mapping(address => uint256) public stakedAmount */\n    tag_13:\n      callvalue\n      dup1\n      iszero\n      tag_63\n      jumpi\n      0x00\n      dup1\n      revert\n    tag_63:\n      pop\n      tag_64\n      0x04\n      dup1\n      calldatasize\n      sub\n      dup2\n      add\n      swap1\n      tag_65\n      swap2\n      swap1\n      tag_37\n      jump\t// in\n    tag_65:\n      tag_66\n      jump\t// in\n    tag_64:\n      mload(0x40)\n      tag_67\n      swap2\n      swap1\n      tag_30\n      jump\t// in\n    tag_67:\n      mload(0x40)\n      dup1\n      swap2\n      sub\n      swap1\n      return\n        /* \"contracts/LendingPool.sol\":1742:2087  function lendingWithdraw(uint256 amount, address to) public payable {... */\n    tag_22:\n        /* \"contracts/LendingPool.sol\":1847:1861  totalDeposited */\n      sload(0x02)\n        /* \"contracts/LendingPool.sol\":1837:1843  amount */\n      dup3\n        /* \"contracts/LendingPool.sol\":1837:1861  amount <= totalDeposited */\n      gt\n      iszero\n        /* \"contracts/LendingPool.sol\":1829:1905  require(amount <= totalDeposited, \"Doesn't have enough balance in the bank\") */\n      tag_69\n      jumpi\n      mload(0x40)\n      0x08c379a000000000000000000000000000000000000000000000000000000000\n      dup2\n      mstore\n      0x04\n      add\n      tag_70\n      swap1\n      tag_71\n      jump\t// in\n    tag_70:\n      mload(0x40)\n      dup1\n      swap2\n      sub\n      swap1\n      revert\n    tag_69:\n        /* \"contracts/LendingPool.sol\":1932:1958  totalDeposited.sub(amount) */\n      tag_72\n        /* \"contracts/LendingPool.sol\":1951:1957  amount */\n      dup3\n        /* \"contracts/LendingPool.sol\":1932:1946  totalDeposited */\n      sload(0x02)\n        /* \"contracts/LendingPool.sol\":1932:1950  totalDeposited.sub */\n      tag_73\n      swap1\n        /* \"contracts/LendingPool.sol\":1932:1958  totalDeposited.sub(amount) */\n      swap2\n      swap1\n      0xffffffff\n      and\n      jump\t// in\n    tag_72:\n        /* \"contracts/LendingPool.sol\":1915:1929  totalDeposited */\n      0x02\n        /* \"contracts/LendingPool.sol\":1915:1958  totalDeposited = totalDeposited.sub(amount) */\n      dup2\n      swap1\n      sstore\n      pop\n        /* \"contracts/LendingPool.sol\":1989:2019  pendingPayment[to].add(amount) */\n      tag_74\n        /* \"contracts/LendingPool.sol\":2012:2018  amount */\n      dup3\n        /* \"contracts/LendingPool.sol\":1989:2003  pendingPayment */\n      0x07\n        /* \"contracts/LendingPool.sol\":1989:2007  pendingPayment[to] */\n      0x00\n        /* \"contracts/LendingPool.sol\":2004:2006  to */\n      dup5\n        /* \"contracts/LendingPool.sol\":1989:2007  pendingPayment[to] */\n      0xffffffffffffffffffffffffffffffffffffffff\n      and\n      0xffffffffffffffffffffffffffffffffffffffff\n      and\n      dup2\n      mstore\n      0x20\n      add\n      swap1\n      dup2\n      mstore\n      0x20\n      add\n      0x00\n      keccak256\n      sload\n        /* \"contracts/LendingPool.sol\":1989:2011  pendingPayment[to].add */\n      tag_75\n      swap1\n        /* \"contracts/LendingPool.sol\":1989:2019  pendingPayment[to].add(amount) */\n      swap2\n      swap1\n      0xffffffff\n      and\n      jump\t// in\n    tag_74:\n        /* \"contracts/LendingPool.sol\":1968:1982  pendingPayment */\n      0x07\n        /* \"contracts/LendingPool.sol\":1968:1986  pendingPayment[to] */\n      0x00\n        /* \"contracts/LendingPool.sol\":1983:1985  to */\n      dup4\n        /* \"contracts/LendingPool.sol\":1968:1986  pendingPayment[to] */\n      0xffffffffffffffffffffffffffffffffffffffff\n      and\n      0xffffffffffffffffffffffffffffffffffffffff\n      and\n      dup2\n      mstore\n      0x20\n      add\n      swap1\n      dup2\n      mstore\n      0x20\n      add\n      0x00\n      keccak256\n        /* \"contracts/LendingPool.sol\":1968:2019  pendingPayment[to] = pendingPayment[to].add(amount) */\n      dup2\n      swap1\n      sstore\n      pop\n        /* \"contracts/LendingPool.sol\":2034:2079  LendingPoolMessage(\"Money withdrawen to\", to) */\n      0xf67e7992d539193fc243c42fe89f8fab49013e8e4fb18cfa891dc51adcaccc80\n        /* \"contracts/LendingPool.sol\":2076:2078  to */\n      dup2\n        /* \"contracts/LendingPool.sol\":2034:2079  LendingPoolMessage(\"Money withdrawen to\", to) */\n      mload(0x40)\n      tag_76\n      swap2\n      swap1\n      tag_77\n      jump\t// in\n    tag_76:\n      mload(0x40)\n      dup1\n      swap2\n      sub\n      swap1\n      log1\n        /* \"contracts/LendingPool.sol\":1742:2087  function lendingWithdraw(uint256 amount, address to) public payable {... */\n      pop\n      pop\n      jump\t// out\n        /* \"contracts/LendingPool.sol\":2861:3133  function gateWithdrawl() public {... */\n    tag_25:\n        /* \"contracts/LendingPool.sol\":2940:2941  0 */\n      0x00\n        /* \"contracts/LendingPool.sol\":2911:2925  pendingPayment */\n      0x07\n        /* \"contracts/LendingPool.sol\":2911:2937  pendingPayment[msg.sender] */\n      0x00\n        /* \"contracts/LendingPool.sol\":2926:2936  msg.sender */\n      caller\n        /* \"contracts/LendingPool.sol\":2911:2937  pendingPayment[msg.sender] */\n      0xffffffffffffffffffffffffffffffffffffffff\n      and\n      0xffffffffffffffffffffffffffffffffffffffff\n      and\n      dup2\n      mstore\n      0x20\n      add\n      swap1\n      dup2\n      mstore\n      0x20\n      add\n      0x00\n      keccak256\n      sload\n        /* \"contracts/LendingPool.sol\":2911:2941  pendingPayment[msg.sender] > 0 */\n      gt\n        /* \"contracts/LendingPool.sol\":2903:2982  require(pendingPayment[msg.sender] > 0, \"You don't have no pending withdrawls\") */\n      tag_79\n      jumpi\n      mload(0x40)\n      0x08c379a000000000000000000000000000000000000000000000000000000000\n      dup2\n      mstore\n      0x04\n      add\n      tag_80\n      swap1\n      tag_81\n      jump\t// in\n    tag_80:\n      mload(0x40)\n      dup1\n      swap2\n      sub\n      swap1\n      revert\n    tag_79:\n        /* \"contracts/LendingPool.sol\":2992:3006  uint256 amount */\n      0x00\n        /* \"contracts/LendingPool.sol\":3009:3023  pendingPayment */\n      0x07\n        /* \"contracts/LendingPool.sol\":3009:3035  pendingPayment[msg.sender] */\n      0x00\n        /* \"contracts/LendingPool.sol\":3024:3034  msg.sender */\n      caller\n        /* \"contracts/LendingPool.sol\":3009:3035  pendingPayment[msg.sender] */\n      0xffffffffffffffffffffffffffffffffffffffff\n      and\n      0xffffffffffffffffffffffffffffffffffffffff\n      and\n      dup2\n      mstore\n      0x20\n      add\n      swap1\n      dup2\n      mstore\n      0x20\n      add\n      0x00\n      keccak256\n      sload\n        /* \"contracts/LendingPool.sol\":2992:3035  uint256 amount = pendingPayment[msg.sender] */\n      swap1\n      pop\n        /* \"contracts/LendingPool.sol\":3075:3076  0 */\n      0x00\n        /* \"contracts/LendingPool.sol\":3045:3059  pendingPayment */\n      0x07\n        /* \"contracts/LendingPool.sol\":3045:3071  pendingPayment[msg.sender] */\n      0x00\n        /* \"contracts/LendingPool.sol\":3060:3070  msg.sender */\n      caller\n        /* \"contracts/LendingPool.sol\":3045:3071  pendingPayment[msg.sender] */\n      0xffffffffffffffffffffffffffffffffffffffff\n      and\n      0xffffffffffffffffffffffffffffffffffffffff\n      and\n      dup2\n      mstore\n      0x20\n      add\n      swap1\n      dup2\n      mstore\n      0x20\n      add\n      0x00\n      keccak256\n        /* \"contracts/LendingPool.sol\":3045:3076  pendingPayment[msg.sender] =  0 */\n      dup2\n      swap1\n      sstore\n      pop\n        /* \"contracts/LendingPool.sol\":3098:3108  msg.sender */\n      caller\n        /* \"contracts/LendingPool.sol\":3090:3118  payable(msg.sender).transfer */\n      0xffffffffffffffffffffffffffffffffffffffff\n      and\n        /* \"contracts/LendingPool.sol\":3090:3126  payable(msg.sender).transfer(amount) */\n      0x08fc\n        /* \"contracts/LendingPool.sol\":3119:3125  amount */\n      dup3\n        /* \"contracts/LendingPool.sol\":3090:3126  payable(msg.sender).transfer(amount) */\n      swap1\n      dup2\n      iszero\n      mul\n      swap1\n      mload(0x40)\n      0x00\n      mload(0x40)\n      dup1\n      dup4\n      sub\n      dup2\n      dup6\n      dup9\n      dup9\n      call\n      swap4\n      pop\n      pop\n      pop\n      pop\n      iszero\n      dup1\n      iszero\n      tag_83\n      jumpi\n      returndatasize\n      0x00\n      dup1\n      returndatacopy\n      revert(0x00, returndatasize)\n    tag_83:\n      pop\n        /* \"contracts/LendingPool.sol\":2893:3133  {... */\n      pop\n        /* \"contracts/LendingPool.sol\":2861:3133  function gateWithdrawl() public {... */\n      jump\t// out\n        /* \"contracts/LendingPool.sol\":281:316  uint256 public minimumAmt = 1 ether */\n    tag_28:\n      sload(0x00)\n      dup2\n      jump\t// out\n        /* \"contracts/LendingPool.sol\":2161:2785  function depositWithdraw() public{... */\n    tag_33:\n        /* \"contracts/LendingPool.sol\":2239:2240  0 */\n      0x00\n        /* \"contracts/LendingPool.sol\":2212:2224  stakedAmount */\n      0x06\n        /* \"contracts/LendingPool.sol\":2212:2236  stakedAmount[msg.sender] */\n      0x00\n        /* \"contracts/LendingPool.sol\":2225:2235  msg.sender */\n      caller\n        /* \"contracts/LendingPool.sol\":2212:2236  stakedAmount[msg.sender] */\n      0xffffffffffffffffffffffffffffffffffffffff\n      and\n      0xffffffffffffffffffffffffffffffffffffffff\n      and\n      dup2\n      mstore\n      0x20\n      add\n      swap1\n      dup2\n      mstore\n      0x20\n      add\n      0x00\n      keccak256\n      sload\n        /* \"contracts/LendingPool.sol\":2212:2240  stakedAmount[msg.sender] > 0 */\n      gt\n        /* \"contracts/LendingPool.sol\":2204:2277  require(stakedAmount[msg.sender] > 0, \"You don't have any money in here\") */\n      tag_85\n      jumpi\n      mload(0x40)\n      0x08c379a000000000000000000000000000000000000000000000000000000000\n      dup2\n      mstore\n      0x04\n      add\n      tag_86\n      swap1\n      tag_87\n      jump\t// in\n    tag_86:\n      mload(0x40)\n      dup1\n      swap2\n      sub\n      swap1\n      revert\n    tag_85:\n        /* \"contracts/LendingPool.sol\":2287:2306  uint256 time_staked */\n      0x00\n        /* \"contracts/LendingPool.sol\":2309:2362  (startTime[msg.sender] -  block.timestamp).div(86400) */\n      tag_88\n        /* \"contracts/LendingPool.sol\":2356:2361  86400 */\n      0x015180\n        /* \"contracts/LendingPool.sol\":2335:2350  block.timestamp */\n      timestamp\n        /* \"contracts/LendingPool.sol\":2310:2319  startTime */\n      0x05\n        /* \"contracts/LendingPool.sol\":2310:2331  startTime[msg.sender] */\n      0x00\n        /* \"contracts/LendingPool.sol\":2320:2330  msg.sender */\n      caller\n        /* \"contracts/LendingPool.sol\":2310:2331  startTime[msg.sender] */\n      0xffffffffffffffffffffffffffffffffffffffff\n      and\n      0xffffffffffffffffffffffffffffffffffffffff\n      and\n      dup2\n      mstore\n      0x20\n      add\n      swap1\n      dup2\n      mstore\n      0x20\n      add\n      0x00\n      keccak256\n      sload\n        /* \"contracts/LendingPool.sol\":2310:2350  startTime[msg.sender] -  block.timestamp */\n      tag_89\n      swap2\n      swap1\n      tag_90\n      jump\t// in\n    tag_89:\n        /* \"contracts/LendingPool.sol\":2309:2355  (startTime[msg.sender] -  block.timestamp).div */\n      tag_91\n      swap1\n        /* \"contracts/LendingPool.sol\":2309:2362  (startTime[msg.sender] -  block.timestamp).div(86400) */\n      swap2\n      swap1\n      0xffffffff\n      and\n      jump\t// in\n    tag_88:\n        /* \"contracts/LendingPool.sol\":2287:2362  uint256 time_staked = (startTime[msg.sender] -  block.timestamp).div(86400) */\n      swap1\n      pop\n        /* \"contracts/LendingPool.sol\":2394:2404  30 * 86400 */\n      0x278d00\n        /* \"contracts/LendingPool.sol\":2380:2391  time_staked */\n      dup2\n        /* \"contracts/LendingPool.sol\":2380:2404  time_staked > 30 * 86400 */\n      gt\n        /* \"contracts/LendingPool.sol\":2372:2445  require(time_staked > 30 * 86400, \"You should atleast stake for a monty\") */\n      tag_92\n      jumpi\n      mload(0x40)\n      0x08c379a000000000000000000000000000000000000000000000000000000000\n      dup2\n      mstore\n      0x04\n      add\n      tag_93\n      swap1\n      tag_94\n      jump\t// in\n    tag_93:\n      mload(0x40)\n      dup1\n      swap2\n      sub\n      swap1\n      revert\n    tag_92:\n        /* \"contracts/LendingPool.sol\":2455:2468  uint256 yield */\n      0x00\n        /* \"contracts/LendingPool.sol\":2498:2555  time_staked.mul(5).mul(stakedAmount[msg.sender]).div(100) */\n      tag_95\n        /* \"contracts/LendingPool.sol\":2551:2554  100 */\n      0x64\n        /* \"contracts/LendingPool.sol\":2498:2546  time_staked.mul(5).mul(stakedAmount[msg.sender]) */\n      tag_96\n        /* \"contracts/LendingPool.sol\":2521:2533  stakedAmount */\n      0x06\n        /* \"contracts/LendingPool.sol\":2521:2545  stakedAmount[msg.sender] */\n      0x00\n        /* \"contracts/LendingPool.sol\":2534:2544  msg.sender */\n      caller\n        /* \"contracts/LendingPool.sol\":2521:2545  stakedAmount[msg.sender] */\n      0xffffffffffffffffffffffffffffffffffffffff\n      and\n      0xffffffffffffffffffffffffffffffffffffffff\n      and\n      dup2\n      mstore\n      0x20\n      add\n      swap1\n      dup2\n      mstore\n      0x20\n      add\n      0x00\n      keccak256\n      sload\n        /* \"contracts/LendingPool.sol\":2498:2516  time_staked.mul(5) */\n      tag_97\n        /* \"contracts/LendingPool.sol\":2514:2515  5 */\n      0x05\n        /* \"contracts/LendingPool.sol\":2498:2509  time_staked */\n      dup8\n        /* \"contracts/LendingPool.sol\":2498:2513  time_staked.mul */\n      tag_98\n      swap1\n        /* \"contracts/LendingPool.sol\":2498:2516  time_staked.mul(5) */\n      swap2\n      swap1\n      0xffffffff\n      and\n      jump\t// in\n    tag_97:\n        /* \"contracts/LendingPool.sol\":2498:2520  time_staked.mul(5).mul */\n      tag_98\n      swap1\n        /* \"contracts/LendingPool.sol\":2498:2546  time_staked.mul(5).mul(stakedAmount[msg.sender]) */\n      swap2\n      swap1\n      0xffffffff\n      and\n      jump\t// in\n    tag_96:\n        /* \"contracts/LendingPool.sol\":2498:2550  time_staked.mul(5).mul(stakedAmount[msg.sender]).div */\n      tag_91\n      swap1\n        /* \"contracts/LendingPool.sol\":2498:2555  time_staked.mul(5).mul(stakedAmount[msg.sender]).div(100) */\n      swap2\n      swap1\n      0xffffffff\n      and\n      jump\t// in\n    tag_95:\n        /* \"contracts/LendingPool.sol\":2471:2483  stakedAmount */\n      0x06\n        /* \"contracts/LendingPool.sol\":2471:2495  stakedAmount[msg.sender] */\n      0x00\n        /* \"contracts/LendingPool.sol\":2484:2494  msg.sender */\n      caller\n        /* \"contracts/LendingPool.sol\":2471:2495  stakedAmount[msg.sender] */\n      0xffffffffffffffffffffffffffffffffffffffff\n      and\n      0xffffffffffffffffffffffffffffffffffffffff\n      and\n      dup2\n      mstore\n      0x20\n      add\n      swap1\n      dup2\n      mstore\n      0x20\n      add\n      0x00\n      keccak256\n      sload\n        /* \"contracts/LendingPool.sol\":2471:2555  stakedAmount[msg.sender] + time_staked.mul(5).mul(stakedAmount[msg.sender]).div(100) */\n      tag_99\n      swap2\n      swap1\n      tag_100\n      jump\t// in\n    tag_99:\n        /* \"contracts/LendingPool.sol\":2455:2555  uint256 yield = stakedAmount[msg.sender] + time_staked.mul(5).mul(stakedAmount[msg.sender]).div(100) */\n      swap1\n      pop\n        /* \"contracts/LendingPool.sol\":2581:2595  totalDeposited */\n      sload(0x02)\n        /* \"contracts/LendingPool.sol\":2573:2578  yield */\n      dup2\n        /* \"contracts/LendingPool.sol\":2573:2595  yield < totalDeposited */\n      lt\n        /* \"contracts/LendingPool.sol\":2565:2650  require(yield < totalDeposited, \"Sorry we don't have enough money so comeback later\") */\n      tag_101\n      jumpi\n      mload(0x40)\n      0x08c379a000000000000000000000000000000000000000000000000000000000\n      dup2\n      mstore\n      0x04\n      add\n      tag_102\n      swap1\n      tag_103\n      jump\t// in\n    tag_102:\n      mload(0x40)\n      dup1\n      swap2\n      sub\n      swap1\n      revert\n    tag_101:\n        /* \"contracts/LendingPool.sol\":2677:2702  totalDeposited.sub(yield) */\n      tag_104\n        /* \"contracts/LendingPool.sol\":2696:2701  yield */\n      dup2\n        /* \"contracts/LendingPool.sol\":2677:2691  totalDeposited */\n      sload(0x02)\n        /* \"contracts/LendingPool.sol\":2677:2695  totalDeposited.sub */\n      tag_73\n      swap1\n        /* \"contracts/LendingPool.sol\":2677:2702  totalDeposited.sub(yield) */\n      swap2\n      swap1\n      0xffffffff\n      and\n      jump\t// in\n    tag_104:\n        /* \"contracts/LendingPool.sol\":2660:2674  totalDeposited */\n      0x02\n        /* \"contracts/LendingPool.sol\":2660:2702  totalDeposited = totalDeposited.sub(yield) */\n      dup2\n      swap1\n      sstore\n      pop\n        /* \"contracts/LendingPool.sol\":2741:2778  pendingPayment[msg.sender].add(yield) */\n      tag_105\n        /* \"contracts/LendingPool.sol\":2772:2777  yield */\n      dup2\n        /* \"contracts/LendingPool.sol\":2741:2755  pendingPayment */\n      0x07\n        /* \"contracts/LendingPool.sol\":2741:2767  pendingPayment[msg.sender] */\n      0x00\n        /* \"contracts/LendingPool.sol\":2756:2766  msg.sender */\n      caller\n        /* \"contracts/LendingPool.sol\":2741:2767  pendingPayment[msg.sender] */\n      0xffffffffffffffffffffffffffffffffffffffff\n      and\n      0xffffffffffffffffffffffffffffffffffffffff\n      and\n      dup2\n      mstore\n      0x20\n      add\n      swap1\n      dup2\n      mstore\n      0x20\n      add\n      0x00\n      keccak256\n      sload\n        /* \"contracts/LendingPool.sol\":2741:2771  pendingPayment[msg.sender].add */\n      tag_75\n      swap1\n        /* \"contracts/LendingPool.sol\":2741:2778  pendingPayment[msg.sender].add(yield) */\n      swap2\n      swap1\n      0xffffffff\n      and\n      jump\t// in\n    tag_105:\n        /* \"contracts/LendingPool.sol\":2712:2726  pendingPayment */\n      0x07\n        /* \"contracts/LendingPool.sol\":2712:2738  pendingPayment[msg.sender] */\n      0x00\n        /* \"contracts/LendingPool.sol\":2727:2737  msg.sender */\n      caller\n        /* \"contracts/LendingPool.sol\":2712:2738  pendingPayment[msg.sender] */\n      0xffffffffffffffffffffffffffffffffffffffff\n      and\n      0xffffffffffffffffffffffffffffffffffffffff\n      and\n      dup2\n      mstore\n      0x20\n      add\n      swap1\n      dup2\n      mstore\n      0x20\n      add\n      0x00\n      keccak256\n        /* \"contracts/LendingPool.sol\":2712:2778  pendingPayment[msg.sender] = pendingPayment[msg.sender].add(yield) */\n      dup2\n      swap1\n      sstore\n      pop\n        /* \"contracts/LendingPool.sol\":2194:2785  {... */\n      pop\n      pop\n        /* \"contracts/LendingPool.sol\":2161:2785  function depositWithdraw() public{... */\n      jump\t// out\n        /* \"contracts/LendingPool.sol\":477:521  mapping(address => uint256) public startTime */\n    tag_38:\n      mstore(0x20, 0x05)\n      dup1\n      0x00\n      mstore\n      keccak256(0x00, 0x40)\n      0x00\n      swap2\n      pop\n      swap1\n      pop\n      sload\n      dup2\n      jump\t// out\n        /* \"contracts/LendingPool.sol\":322:350  address payable public owner */\n    tag_42:\n      0x01\n      0x00\n      swap1\n      sload\n      swap1\n      0x0100\n      exp\n      swap1\n      div\n      0xffffffffffffffffffffffffffffffffffffffff\n      and\n      dup2\n      jump\t// out\n        /* \"contracts/LendingPool.sol\":392:413  address public editor */\n    tag_47:\n      0x03\n      0x00\n      swap1\n      sload\n      swap1\n      0x0100\n      exp\n      swap1\n      div\n      0xffffffffffffffffffffffffffffffffffffffff\n      and\n      dup2\n      jump\t// out\n        /* \"contracts/LendingPool.sol\":580:629  mapping(address => uint256) public pendingPayment */\n    tag_53:\n      mstore(0x20, 0x07)\n      dup1\n      0x00\n      mstore\n      keccak256(0x00, 0x40)\n      0x00\n      swap2\n      pop\n      swap1\n      pop\n      sload\n      dup2\n      jump\t// out\n        /* \"contracts/LendingPool.sol\":635:680  mapping(address => bool) public allowed_pools */\n    tag_58:\n      mstore(0x20, 0x08)\n      dup1\n      0x00\n      mstore\n      keccak256(0x00, 0x40)\n      0x00\n      swap2\n      pop\n      sload\n      swap1\n      0x0100\n      exp\n      swap1\n      div\n      0xff\n      and\n      dup2\n      jump\t// out\n        /* \"contracts/LendingPool.sol\":1333:1736  function deposit() public payable {... */\n    tag_62:\n        /* \"contracts/LendingPool.sol\":1398:1408  minimumAmt */\n      sload(0x00)\n        /* \"contracts/LendingPool.sol\":1385:1394  msg.value */\n      callvalue\n        /* \"contracts/LendingPool.sol\":1385:1408  msg.value >= minimumAmt */\n      lt\n      iszero\n        /* \"contracts/LendingPool.sol\":1377:1437  require(msg.value >= minimumAmt, \"Minimum 1 Ether Required\") */\n      tag_107\n      jumpi\n      mload(0x40)\n      0x08c379a000000000000000000000000000000000000000000000000000000000\n      dup2\n      mstore\n      0x04\n      add\n      tag_108\n      swap1\n      tag_109\n      jump\t// in\n    tag_108:\n      mload(0x40)\n      dup1\n      swap2\n      sub\n      swap1\n      revert\n    tag_107:\n        /* \"contracts/LendingPool.sol\":1527:1542  block.timestamp */\n      timestamp\n        /* \"contracts/LendingPool.sol\":1503:1512  startTime */\n      0x05\n        /* \"contracts/LendingPool.sol\":1503:1524  startTime[msg.sender] */\n      0x00\n        /* \"contracts/LendingPool.sol\":1513:1523  msg.sender */\n      caller\n        /* \"contracts/LendingPool.sol\":1503:1524  startTime[msg.sender] */\n      0xffffffffffffffffffffffffffffffffffffffff\n      and\n      0xffffffffffffffffffffffffffffffffffffffff\n      and\n      dup2\n      mstore\n      0x20\n      add\n      swap1\n      dup2\n      mstore\n      0x20\n      add\n      0x00\n      keccak256\n        /* \"contracts/LendingPool.sol\":1503:1542  startTime[msg.sender] = block.timestamp */\n      dup2\n      swap1\n      sstore\n      pop\n        /* \"contracts/LendingPool.sol\":1579:1618  stakedAmount[msg.sender].add(msg.value) */\n      tag_110\n        /* \"contracts/LendingPool.sol\":1608:1617  msg.value */\n      callvalue\n        /* \"contracts/LendingPool.sol\":1579:1591  stakedAmount */\n      0x06\n        /* \"contracts/LendingPool.sol\":1579:1603  stakedAmount[msg.sender] */\n      0x00\n        /* \"contracts/LendingPool.sol\":1592:1602  msg.sender */\n      caller\n        /* \"contracts/LendingPool.sol\":1579:1603  stakedAmount[msg.sender] */\n      0xffffffffffffffffffffffffffffffffffffffff\n      and\n      0xffffffffffffffffffffffffffffffffffffffff\n      and\n      dup2\n      mstore\n      0x20\n      add\n      swap1\n      dup2\n      mstore\n      0x20\n      add\n      0x00\n      keccak256\n      sload\n        /* \"contracts/LendingPool.sol\":1579:1607  stakedAmount[msg.sender].add */\n      tag_75\n      swap1\n        /* \"contracts/LendingPool.sol\":1579:1618  stakedAmount[msg.sender].add(msg.value) */\n      swap2\n      swap1\n      0xffffffff\n      and\n      jump\t// in\n    tag_110:\n        /* \"contracts/LendingPool.sol\":1552:1564  stakedAmount */\n      0x06\n        /* \"contracts/LendingPool.sol\":1552:1576  stakedAmount[msg.sender] */\n      0x00\n        /* \"contracts/LendingPool.sol\":1565:1575  msg.sender */\n      caller\n        /* \"contracts/LendingPool.sol\":1552:1576  stakedAmount[msg.sender] */\n      0xffffffffffffffffffffffffffffffffffffffff\n      and\n      0xffffffffffffffffffffffffffffffffffffffff\n      and\n      dup2\n      mstore\n      0x20\n      add\n      swap1\n      dup2\n      mstore\n      0x20\n      add\n      0x00\n      keccak256\n        /* \"contracts/LendingPool.sol\":1552:1618  stakedAmount[msg.sender] = stakedAmount[msg.sender].add(msg.value) */\n      dup2\n      swap1\n      sstore\n      pop\n        /* \"contracts/LendingPool.sol\":1645:1674  totalDeposited.add(msg.value) */\n      tag_111\n        /* \"contracts/LendingPool.sol\":1664:1673  msg.value */\n      callvalue\n        /* \"contracts/LendingPool.sol\":1645:1659  totalDeposited */\n      sload(0x02)\n        /* \"contracts/LendingPool.sol\":1645:1663  totalDeposited.add */\n      tag_75\n      swap1\n        /* \"contracts/LendingPool.sol\":1645:1674  totalDeposited.add(msg.value) */\n      swap2\n      swap1\n      0xffffffff\n      and\n      jump\t// in\n    tag_111:\n        /* \"contracts/LendingPool.sol\":1628:1642  totalDeposited */\n      0x02\n        /* \"contracts/LendingPool.sol\":1628:1674  totalDeposited = totalDeposited.add(msg.value) */\n      dup2\n      swap1\n      sstore\n      pop\n        /* \"contracts/LendingPool.sol\":1689:1729  LendingPoolMessage(\"staked\", msg.sender) */\n      0xf67e7992d539193fc243c42fe89f8fab49013e8e4fb18cfa891dc51adcaccc80\n        /* \"contracts/LendingPool.sol\":1718:1728  msg.sender */\n      caller\n        /* \"contracts/LendingPool.sol\":1689:1729  LendingPoolMessage(\"staked\", msg.sender) */\n      mload(0x40)\n      tag_112\n      swap2\n      swap1\n      tag_113\n      jump\t// in\n    tag_112:\n      mload(0x40)\n      dup1\n      swap2\n      sub\n      swap1\n      log1\n        /* \"contracts/LendingPool.sol\":1333:1736  function deposit() public payable {... */\n      jump\t// out\n        /* \"contracts/LendingPool.sol\":527:574  mapping(address => uint256) public stakedAmount */\n    tag_66:\n      mstore(0x20, 0x06)\n      dup1\n      0x00\n      mstore\n      keccak256(0x00, 0x40)\n      0x00\n      swap2\n      pop\n      swap1\n      pop\n      sload\n      dup2\n      jump\t// out\n        /* \"contracts/SafeMath.sol\":245:405  function sub(uint256 a, uint256 b) internal pure returns (uint256 c) {... */\n    tag_73:\n        /* \"contracts/SafeMath.sol\":303:312  uint256 c */\n      0x00\n        /* \"contracts/SafeMath.sol\":337:338  a */\n      dup3\n        /* \"contracts/SafeMath.sol\":332:333  b */\n      dup3\n        /* \"contracts/SafeMath.sol\":332:338  b <= a */\n      gt\n      iszero\n        /* \"contracts/SafeMath.sol\":324:361  require(b <= a, \"Substraction faild\") */\n      tag_115\n      jumpi\n      mload(0x40)\n      0x08c379a000000000000000000000000000000000000000000000000000000000\n      dup2\n      mstore\n      0x04\n      add\n      tag_116\n      swap1\n      tag_117\n      jump\t// in\n    tag_116:\n      mload(0x40)\n      dup1\n      swap2\n      sub\n      swap1\n      revert\n    tag_115:\n        /* \"contracts/SafeMath.sol\":379:380  b */\n      dup2\n        /* \"contracts/SafeMath.sol\":375:376  a */\n      dup4\n        /* \"contracts/SafeMath.sol\":375:380  a - b */\n      tag_118\n      swap2\n      swap1\n      tag_90\n      jump\t// in\n    tag_118:\n        /* \"contracts/SafeMath.sol\":371:380  c = a - b */\n      swap1\n      pop\n        /* \"contracts/SafeMath.sol\":245:405  function sub(uint256 a, uint256 b) internal pure returns (uint256 c) {... */\n      swap3\n      swap2\n      pop\n      pop\n      jump\t// out\n        /* \"contracts/SafeMath.sol\":82:239  function add(uint256 a, uint256 b) internal pure returns (uint256 c) {... */\n    tag_75:\n        /* \"contracts/SafeMath.sol\":140:149  uint256 c */\n      0x00\n        /* \"contracts/SafeMath.sol\":169:170  b */\n      dup2\n        /* \"contracts/SafeMath.sol\":165:166  a */\n      dup4\n        /* \"contracts/SafeMath.sol\":165:170  a + b */\n      tag_120\n      swap2\n      swap1\n      tag_100\n      jump\t// in\n    tag_120:\n        /* \"contracts/SafeMath.sol\":161:170  c = a + b */\n      swap1\n      pop\n        /* \"contracts/SafeMath.sol\":193:194  a */\n      dup3\n        /* \"contracts/SafeMath.sol\":188:189  c */\n      dup2\n        /* \"contracts/SafeMath.sol\":188:194  c >= a */\n      lt\n      iszero\n        /* \"contracts/SafeMath.sol\":180:214  require(c >= a, \"Addition failed\") */\n      tag_121\n      jumpi\n      mload(0x40)\n      0x08c379a000000000000000000000000000000000000000000000000000000000\n      dup2\n      mstore\n      0x04\n      add\n      tag_122\n      swap1\n      tag_123\n      jump\t// in\n    tag_122:\n      mload(0x40)\n      dup1\n      swap2\n      sub\n      swap1\n      revert\n    tag_121:\n        /* \"contracts/SafeMath.sol\":82:239  function add(uint256 a, uint256 b) internal pure returns (uint256 c) {... */\n      swap3\n      swap2\n      pop\n      pop\n      jump\t// out\n        /* \"contracts/SafeMath.sol\":593:748  function div(uint256 a, uint256 b) internal pure returns (uint256 c) {... */\n    tag_91:\n        /* \"contracts/SafeMath.sol\":651:660  uint256 c */\n      0x00\n        /* \"contracts/SafeMath.sol\":684:685  0 */\n      dup1\n        /* \"contracts/SafeMath.sol\":680:681  b */\n      dup3\n        /* \"contracts/SafeMath.sol\":680:685  b > 0 */\n      gt\n        /* \"contracts/SafeMath.sol\":672:704  require(b > 0, \"Division faild\") */\n      tag_125\n      jumpi\n      mload(0x40)\n      0x08c379a000000000000000000000000000000000000000000000000000000000\n      dup2\n      mstore\n      0x04\n      add\n      tag_126\n      swap1\n      tag_127\n      jump\t// in\n    tag_126:\n      mload(0x40)\n      dup1\n      swap2\n      sub\n      swap1\n      revert\n    tag_125:\n        /* \"contracts/SafeMath.sol\":722:723  b */\n      dup2\n        /* \"contracts/SafeMath.sol\":718:719  a */\n      dup4\n        /* \"contracts/SafeMath.sol\":718:723  a / b */\n      tag_128\n      swap2\n      swap1\n      tag_129\n      jump\t// in\n    tag_128:\n        /* \"contracts/SafeMath.sol\":714:723  c = a / b */\n      swap1\n      pop\n        /* \"contracts/SafeMath.sol\":593:748  function div(uint256 a, uint256 b) internal pure returns (uint256 c) {... */\n      swap3\n      swap2\n      pop\n      pop\n      jump\t// out\n        /* \"contracts/SafeMath.sol\":411:587  function mul(uint256 a, uint256 b) internal pure returns (uint256 c) {... */\n    tag_98:\n        /* \"contracts/SafeMath.sol\":469:478  uint256 c */\n      0x00\n        /* \"contracts/SafeMath.sol\":498:499  b */\n      dup2\n        /* \"contracts/SafeMath.sol\":494:495  a */\n      dup4\n        /* \"contracts/SafeMath.sol\":494:499  a * b */\n      tag_131\n      swap2\n      swap1\n      tag_132\n      jump\t// in\n    tag_131:\n        /* \"contracts/SafeMath.sol\":490:499  c = a * b */\n      swap1\n      pop\n        /* \"contracts/SafeMath.sol\":522:523  0 */\n      0x00\n        /* \"contracts/SafeMath.sol\":517:518  a */\n      dup4\n        /* \"contracts/SafeMath.sol\":517:523  a == 0 */\n      eq\n        /* \"contracts/SafeMath.sol\":517:537  a == 0 || c / a == b */\n      dup1\n      tag_133\n      jumpi\n      pop\n        /* \"contracts/SafeMath.sol\":536:537  b */\n      dup2\n        /* \"contracts/SafeMath.sol\":531:532  a */\n      dup4\n        /* \"contracts/SafeMath.sol\":527:528  c */\n      dup3\n        /* \"contracts/SafeMath.sol\":527:532  c / a */\n      tag_134\n      swap2\n      swap1\n      tag_129\n      jump\t// in\n    tag_134:\n        /* \"contracts/SafeMath.sol\":527:537  c / a == b */\n      eq\n        /* \"contracts/SafeMath.sol\":517:537  a == 0 || c / a == b */\n    tag_133:\n        /* \"contracts/SafeMath.sol\":509:562  require(a == 0 || c / a == b, \"Multiplication faild\") */\n      tag_135\n      jumpi\n      mload(0x40)\n      0x08c379a000000000000000000000000000000000000000000000000000000000\n      dup2\n      mstore\n      0x04\n      add\n      tag_136\n      swap1\n      tag_137\n      jump\t// in\n    tag_136:\n      mload(0x40)\n      dup1\n      swap2\n      sub\n      swap1\n      revert\n    tag_135:\n        /* \"contracts/SafeMath.sol\":411:587  function mul(uint256 a, uint256 b) internal pure returns (uint256 c) {... */\n      swap3\n      swap2\n      pop\n      pop\n      jump\t// out\n        /* \"#utility.yul\":7:146   */\n    tag_139:\n        /* \"#utility.yul\":53:58   */\n      0x00\n        /* \"#utility.yul\":91:97   */\n      dup2\n        /* \"#utility.yul\":78:98   */\n      calldataload\n        /* \"#utility.yul\":69:98   */\n      swap1\n      pop\n        /* \"#utility.yul\":107:140   */\n      tag_141\n        /* \"#utility.yul\":134:139   */\n      dup2\n        /* \"#utility.yul\":107:140   */\n      tag_142\n      jump\t// in\n    tag_141:\n        /* \"#utility.yul\":7:146   */\n      swap3\n      swap2\n      pop\n      pop\n      jump\t// out\n        /* \"#utility.yul\":152:291   */\n    tag_143:\n        /* \"#utility.yul\":198:203   */\n      0x00\n        /* \"#utility.yul\":236:242   */\n      dup2\n        /* \"#utility.yul\":223:243   */\n      calldataload\n        /* \"#utility.yul\":214:243   */\n      swap1\n      pop\n        /* \"#utility.yul\":252:285   */\n      tag_145\n        /* \"#utility.yul\":279:284   */\n      dup2\n        /* \"#utility.yul\":252:285   */\n      tag_146\n      jump\t// in\n    tag_145:\n        /* \"#utility.yul\":152:291   */\n      swap3\n      swap2\n      pop\n      pop\n      jump\t// out\n        /* \"#utility.yul\":297:626   */\n    tag_37:\n        /* \"#utility.yul\":356:362   */\n      0x00\n        /* \"#utility.yul\":405:407   */\n      0x20\n        /* \"#utility.yul\":393:402   */\n      dup3\n        /* \"#utility.yul\":384:391   */\n      dup5\n        /* \"#utility.yul\":380:403   */\n      sub\n        /* \"#utility.yul\":376:408   */\n      slt\n        /* \"#utility.yul\":373:492   */\n      iszero\n      tag_148\n      jumpi\n        /* \"#utility.yul\":411:490   */\n      tag_149\n      tag_150\n      jump\t// in\n    tag_149:\n        /* \"#utility.yul\":373:492   */\n    tag_148:\n        /* \"#utility.yul\":531:532   */\n      0x00\n        /* \"#utility.yul\":556:609   */\n      tag_151\n        /* \"#utility.yul\":601:608   */\n      dup5\n        /* \"#utility.yul\":592:598   */\n      dup3\n        /* \"#utility.yul\":581:590   */\n      dup6\n        /* \"#utility.yul\":577:599   */\n      add\n        /* \"#utility.yul\":556:609   */\n      tag_139\n      jump\t// in\n    tag_151:\n        /* \"#utility.yul\":546:609   */\n      swap2\n      pop\n        /* \"#utility.yul\":502:619   */\n      pop\n        /* \"#utility.yul\":297:626   */\n      swap3\n      swap2\n      pop\n      pop\n      jump\t// out\n        /* \"#utility.yul\":632:1106   */\n    tag_21:\n        /* \"#utility.yul\":700:706   */\n      0x00\n        /* \"#utility.yul\":708:714   */\n      dup1\n        /* \"#utility.yul\":757:759   */\n      0x40\n        /* \"#utility.yul\":745:754   */\n      dup4\n        /* \"#utility.yul\":736:743   */\n      dup6\n        /* \"#utility.yul\":732:755   */\n      sub\n        /* \"#utility.yul\":728:760   */\n      slt\n        /* \"#utility.yul\":725:844   */\n      iszero\n      tag_153\n      jumpi\n        /* \"#utility.yul\":763:842   */\n      tag_154\n      tag_150\n      jump\t// in\n    tag_154:\n        /* \"#utility.yul\":725:844   */\n    tag_153:\n        /* \"#utility.yul\":883:884   */\n      0x00\n        /* \"#utility.yul\":908:961   */\n      tag_155\n        /* \"#utility.yul\":953:960   */\n      dup6\n        /* \"#utility.yul\":944:950   */\n      dup3\n        /* \"#utility.yul\":933:942   */\n      dup7\n        /* \"#utility.yul\":929:951   */\n      add\n        /* \"#utility.yul\":908:961   */\n      tag_143\n      jump\t// in\n    tag_155:\n        /* \"#utility.yul\":898:961   */\n      swap3\n      pop\n        /* \"#utility.yul\":854:971   */\n      pop\n        /* \"#utility.yul\":1010:1012   */\n      0x20\n        /* \"#utility.yul\":1036:1089   */\n      tag_156\n        /* \"#utility.yul\":1081:1088   */\n      dup6\n        /* \"#utility.yul\":1072:1078   */\n      dup3\n        /* \"#utility.yul\":1061:1070   */\n      dup7\n        /* \"#utility.yul\":1057:1079   */\n      add\n        /* \"#utility.yul\":1036:1089   */\n      tag_139\n      jump\t// in\n    tag_156:\n        /* \"#utility.yul\":1026:1089   */\n      swap2\n      pop\n        /* \"#utility.yul\":981:1099   */\n      pop\n        /* \"#utility.yul\":632:1106   */\n      swap3\n      pop\n      swap3\n      swap1\n      pop\n      jump\t// out\n        /* \"#utility.yul\":1112:1254   */\n    tag_157:\n        /* \"#utility.yul\":1215:1247   */\n      tag_159\n        /* \"#utility.yul\":1241:1246   */\n      dup2\n        /* \"#utility.yul\":1215:1247   */\n      tag_160\n      jump\t// in\n    tag_159:\n        /* \"#utility.yul\":1210:1213   */\n      dup3\n        /* \"#utility.yul\":1203:1248   */\n      mstore\n        /* \"#utility.yul\":1112:1254   */\n      pop\n      pop\n      jump\t// out\n        /* \"#utility.yul\":1260:1378   */\n    tag_161:\n        /* \"#utility.yul\":1347:1371   */\n      tag_163\n        /* \"#utility.yul\":1365:1370   */\n      dup2\n        /* \"#utility.yul\":1347:1371   */\n      tag_164\n      jump\t// in\n    tag_163:\n        /* \"#utility.yul\":1342:1345   */\n      dup3\n        /* \"#utility.yul\":1335:1372   */\n      mstore\n        /* \"#utility.yul\":1260:1378   */\n      pop\n      pop\n      jump\t// out\n        /* \"#utility.yul\":1384:1493   */\n    tag_165:\n        /* \"#utility.yul\":1465:1486   */\n      tag_167\n        /* \"#utility.yul\":1480:1485   */\n      dup2\n        /* \"#utility.yul\":1465:1486   */\n      tag_168\n      jump\t// in\n    tag_167:\n        /* \"#utility.yul\":1460:1463   */\n      dup3\n        /* \"#utility.yul\":1453:1487   */\n      mstore\n        /* \"#utility.yul\":1384:1493   */\n      pop\n      pop\n      jump\t// out\n        /* \"#utility.yul\":1499:1865   */\n    tag_169:\n        /* \"#utility.yul\":1641:1644   */\n      0x00\n        /* \"#utility.yul\":1662:1729   */\n      tag_171\n        /* \"#utility.yul\":1726:1728   */\n      0x13\n        /* \"#utility.yul\":1721:1724   */\n      dup4\n        /* \"#utility.yul\":1662:1729   */\n      tag_172\n      jump\t// in\n    tag_171:\n        /* \"#utility.yul\":1655:1729   */\n      swap2\n      pop\n        /* \"#utility.yul\":1738:1831   */\n      tag_173\n        /* \"#utility.yul\":1827:1830   */\n      dup3\n        /* \"#utility.yul\":1738:1831   */\n      tag_174\n      jump\t// in\n    tag_173:\n        /* \"#utility.yul\":1856:1858   */\n      0x20\n        /* \"#utility.yul\":1851:1854   */\n      dup3\n        /* \"#utility.yul\":1847:1859   */\n      add\n        /* \"#utility.yul\":1840:1859   */\n      swap1\n      pop\n        /* \"#utility.yul\":1499:1865   */\n      swap2\n      swap1\n      pop\n      jump\t// out\n        /* \"#utility.yul\":1871:2237   */\n    tag_175:\n        /* \"#utility.yul\":2013:2016   */\n      0x00\n        /* \"#utility.yul\":2034:2101   */\n      tag_177\n        /* \"#utility.yul\":2098:2100   */\n      0x20\n        /* \"#utility.yul\":2093:2096   */\n      dup4\n        /* \"#utility.yul\":2034:2101   */\n      tag_172\n      jump\t// in\n    tag_177:\n        /* \"#utility.yul\":2027:2101   */\n      swap2\n      pop\n        /* \"#utility.yul\":2110:2203   */\n      tag_178\n        /* \"#utility.yul\":2199:2202   */\n      dup3\n        /* \"#utility.yul\":2110:2203   */\n      tag_179\n      jump\t// in\n    tag_178:\n        /* \"#utility.yul\":2228:2230   */\n      0x20\n        /* \"#utility.yul\":2223:2226   */\n      dup3\n        /* \"#utility.yul\":2219:2231   */\n      add\n        /* \"#utility.yul\":2212:2231   */\n      swap1\n      pop\n        /* \"#utility.yul\":1871:2237   */\n      swap2\n      swap1\n      pop\n      jump\t// out\n        /* \"#utility.yul\":2243:2609   */\n    tag_180:\n        /* \"#utility.yul\":2385:2388   */\n      0x00\n        /* \"#utility.yul\":2406:2473   */\n      tag_182\n        /* \"#utility.yul\":2470:2472   */\n      0x18\n        /* \"#utility.yul\":2465:2468   */\n      dup4\n        /* \"#utility.yul\":2406:2473   */\n      tag_172\n      jump\t// in\n    tag_182:\n        /* \"#utility.yul\":2399:2473   */\n      swap2\n      pop\n        /* \"#utility.yul\":2482:2575   */\n      tag_183\n        /* \"#utility.yul\":2571:2574   */\n      dup3\n        /* \"#utility.yul\":2482:2575   */\n      tag_184\n      jump\t// in\n    tag_183:\n        /* \"#utility.yul\":2600:2602   */\n      0x20\n        /* \"#utility.yul\":2595:2598   */\n      dup3\n        /* \"#utility.yul\":2591:2603   */\n      add\n        /* \"#utility.yul\":2584:2603   */\n      swap1\n      pop\n        /* \"#utility.yul\":2243:2609   */\n      swap2\n      swap1\n      pop\n      jump\t// out\n        /* \"#utility.yul\":2615:2981   */\n    tag_185:\n        /* \"#utility.yul\":2757:2760   */\n      0x00\n        /* \"#utility.yul\":2778:2845   */\n      tag_187\n        /* \"#utility.yul\":2842:2844   */\n      0x24\n        /* \"#utility.yul\":2837:2840   */\n      dup4\n        /* \"#utility.yul\":2778:2845   */\n      tag_172\n      jump\t// in\n    tag_187:\n        /* \"#utility.yul\":2771:2845   */\n      swap2\n      pop\n        /* \"#utility.yul\":2854:2947   */\n      tag_188\n        /* \"#utility.yul\":2943:2946   */\n      dup3\n        /* \"#utility.yul\":2854:2947   */\n      tag_189\n      jump\t// in\n    tag_188:\n        /* \"#utility.yul\":2972:2974   */\n      0x40\n        /* \"#utility.yul\":2967:2970   */\n      dup3\n        /* \"#utility.yul\":2963:2975   */\n      add\n        /* \"#utility.yul\":2956:2975   */\n      swap1\n      pop\n        /* \"#utility.yul\":2615:2981   */\n      swap2\n      swap1\n      pop\n      jump\t// out\n        /* \"#utility.yul\":2987:3352   */\n    tag_190:\n        /* \"#utility.yul\":3129:3132   */\n      0x00\n        /* \"#utility.yul\":3150:3216   */\n      tag_192\n        /* \"#utility.yul\":3214:3215   */\n      0x06\n        /* \"#utility.yul\":3209:3212   */\n      dup4\n        /* \"#utility.yul\":3150:3216   */\n      tag_172\n      jump\t// in\n    tag_192:\n        /* \"#utility.yul\":3143:3216   */\n      swap2\n      pop\n        /* \"#utility.yul\":3225:3318   */\n      tag_193\n        /* \"#utility.yul\":3314:3317   */\n      dup3\n        /* \"#utility.yul\":3225:3318   */\n      tag_194\n      jump\t// in\n    tag_193:\n        /* \"#utility.yul\":3343:3345   */\n      0x20\n        /* \"#utility.yul\":3338:3341   */\n      dup3\n        /* \"#utility.yul\":3334:3346   */\n      add\n        /* \"#utility.yul\":3327:3346   */\n      swap1\n      pop\n        /* \"#utility.yul\":2987:3352   */\n      swap2\n      swap1\n      pop\n      jump\t// out\n        /* \"#utility.yul\":3358:3724   */\n    tag_195:\n        /* \"#utility.yul\":3500:3503   */\n      0x00\n        /* \"#utility.yul\":3521:3588   */\n      tag_197\n        /* \"#utility.yul\":3585:3587   */\n      0x12\n        /* \"#utility.yul\":3580:3583   */\n      dup4\n        /* \"#utility.yul\":3521:3588   */\n      tag_172\n      jump\t// in\n    tag_197:\n        /* \"#utility.yul\":3514:3588   */\n      swap2\n      pop\n        /* \"#utility.yul\":3597:3690   */\n      tag_198\n        /* \"#utility.yul\":3686:3689   */\n      dup3\n        /* \"#utility.yul\":3597:3690   */\n      tag_199\n      jump\t// in\n    tag_198:\n        /* \"#utility.yul\":3715:3717   */\n      0x20\n        /* \"#utility.yul\":3710:3713   */\n      dup3\n        /* \"#utility.yul\":3706:3718   */\n      add\n        /* \"#utility.yul\":3699:3718   */\n      swap1\n      pop\n        /* \"#utility.yul\":3358:3724   */\n      swap2\n      swap1\n      pop\n      jump\t// out\n        /* \"#utility.yul\":3730:4096   */\n    tag_200:\n        /* \"#utility.yul\":3872:3875   */\n      0x00\n        /* \"#utility.yul\":3893:3960   */\n      tag_202\n        /* \"#utility.yul\":3957:3959   */\n      0x0f\n        /* \"#utility.yul\":3952:3955   */\n      dup4\n        /* \"#utility.yul\":3893:3960   */\n      tag_172\n      jump\t// in\n    tag_202:\n        /* \"#utility.yul\":3886:3960   */\n      swap2\n      pop\n        /* \"#utility.yul\":3969:4062   */\n      tag_203\n        /* \"#utility.yul\":4058:4061   */\n      dup3\n        /* \"#utility.yul\":3969:4062   */\n      tag_204\n      jump\t// in\n    tag_203:\n        /* \"#utility.yul\":4087:4089   */\n      0x20\n        /* \"#utility.yul\":4082:4085   */\n      dup3\n        /* \"#utility.yul\":4078:4090   */\n      add\n        /* \"#utility.yul\":4071:4090   */\n      swap1\n      pop\n        /* \"#utility.yul\":3730:4096   */\n      swap2\n      swap1\n      pop\n      jump\t// out\n        /* \"#utility.yul\":4102:4468   */\n    tag_205:\n        /* \"#utility.yul\":4244:4247   */\n      0x00\n        /* \"#utility.yul\":4265:4332   */\n      tag_207\n        /* \"#utility.yul\":4329:4331   */\n      0x24\n        /* \"#utility.yul\":4324:4327   */\n      dup4\n        /* \"#utility.yul\":4265:4332   */\n      tag_172\n      jump\t// in\n    tag_207:\n        /* \"#utility.yul\":4258:4332   */\n      swap2\n      pop\n        /* \"#utility.yul\":4341:4434   */\n      tag_208\n        /* \"#utility.yul\":4430:4433   */\n      dup3\n        /* \"#utility.yul\":4341:4434   */\n      tag_209\n      jump\t// in\n    tag_208:\n        /* \"#utility.yul\":4459:4461   */\n      0x40\n        /* \"#utility.yul\":4454:4457   */\n      dup3\n        /* \"#utility.yul\":4450:4462   */\n      add\n        /* \"#utility.yul\":4443:4462   */\n      swap1\n      pop\n        /* \"#utility.yul\":4102:4468   */\n      swap2\n      swap1\n      pop\n      jump\t// out\n        /* \"#utility.yul\":4474:4840   */\n    tag_210:\n        /* \"#utility.yul\":4616:4619   */\n      0x00\n        /* \"#utility.yul\":4637:4704   */\n      tag_212\n        /* \"#utility.yul\":4701:4703   */\n      0x0e\n        /* \"#utility.yul\":4696:4699   */\n      dup4\n        /* \"#utility.yul\":4637:4704   */\n      tag_172\n      jump\t// in\n    tag_212:\n        /* \"#utility.yul\":4630:4704   */\n      swap2\n      pop\n        /* \"#utility.yul\":4713:4806   */\n      tag_213\n        /* \"#utility.yul\":4802:4805   */\n      dup3\n        /* \"#utility.yul\":4713:4806   */\n      tag_214\n      jump\t// in\n    tag_213:\n        /* \"#utility.yul\":4831:4833   */\n      0x20\n        /* \"#utility.yul\":4826:4829   */\n      dup3\n        /* \"#utility.yul\":4822:4834   */\n      add\n        /* \"#utility.yul\":4815:4834   */\n      swap1\n      pop\n        /* \"#utility.yul\":4474:4840   */\n      swap2\n      swap1\n      pop\n      jump\t// out\n        /* \"#utility.yul\":4846:5212   */\n    tag_215:\n        /* \"#utility.yul\":4988:4991   */\n      0x00\n        /* \"#utility.yul\":5009:5076   */\n      tag_217\n        /* \"#utility.yul\":5073:5075   */\n      0x27\n        /* \"#utility.yul\":5068:5071   */\n      dup4\n        /* \"#utility.yul\":5009:5076   */\n      tag_172\n      jump\t// in\n    tag_217:\n        /* \"#utility.yul\":5002:5076   */\n      swap2\n      pop\n        /* \"#utility.yul\":5085:5178   */\n      tag_218\n        /* \"#utility.yul\":5174:5177   */\n      dup3\n        /* \"#utility.yul\":5085:5178   */\n      tag_219\n      jump\t// in\n    tag_218:\n        /* \"#utility.yul\":5203:5205   */\n      0x40\n        /* \"#utility.yul\":5198:5201   */\n      dup3\n        /* \"#utility.yul\":5194:5206   */\n      add\n        /* \"#utility.yul\":5187:5206   */\n      swap1\n      pop\n        /* \"#utility.yul\":4846:5212   */\n      swap2\n      swap1\n      pop\n      jump\t// out\n        /* \"#utility.yul\":5218:5584   */\n    tag_220:\n        /* \"#utility.yul\":5360:5363   */\n      0x00\n        /* \"#utility.yul\":5381:5448   */\n      tag_222\n        /* \"#utility.yul\":5445:5447   */\n      0x32\n        /* \"#utility.yul\":5440:5443   */\n      dup4\n        /* \"#utility.yul\":5381:5448   */\n      tag_172\n      jump\t// in\n    tag_222:\n        /* \"#utility.yul\":5374:5448   */\n      swap2\n      pop\n        /* \"#utility.yul\":5457:5550   */\n      tag_223\n        /* \"#utility.yul\":5546:5549   */\n      dup3\n        /* \"#utility.yul\":5457:5550   */\n      tag_224\n      jump\t// in\n    tag_223:\n        /* \"#utility.yul\":5575:5577   */\n      0x40\n        /* \"#utility.yul\":5570:5573   */\n      dup3\n        /* \"#utility.yul\":5566:5578   */\n      add\n        /* \"#utility.yul\":5559:5578   */\n      swap1\n      pop\n        /* \"#utility.yul\":5218:5584   */\n      swap2\n      swap1\n      pop\n      jump\t// out\n        /* \"#utility.yul\":5590:5956   */\n    tag_225:\n        /* \"#utility.yul\":5732:5735   */\n      0x00\n        /* \"#utility.yul\":5753:5820   */\n      tag_227\n        /* \"#utility.yul\":5817:5819   */\n      0x14\n        /* \"#utility.yul\":5812:5815   */\n      dup4\n        /* \"#utility.yul\":5753:5820   */\n      tag_172\n      jump\t// in\n    tag_227:\n        /* \"#utility.yul\":5746:5820   */\n      swap2\n      pop\n        /* \"#utility.yul\":5829:5922   */\n      tag_228\n        /* \"#utility.yul\":5918:5921   */\n      dup3\n        /* \"#utility.yul\":5829:5922   */\n      tag_229\n      jump\t// in\n    tag_228:\n        /* \"#utility.yul\":5947:5949   */\n      0x20\n        /* \"#utility.yul\":5942:5945   */\n      dup3\n        /* \"#utility.yul\":5938:5950   */\n      add\n        /* \"#utility.yul\":5931:5950   */\n      swap1\n      pop\n        /* \"#utility.yul\":5590:5956   */\n      swap2\n      swap1\n      pop\n      jump\t// out\n        /* \"#utility.yul\":5962:6080   */\n    tag_230:\n        /* \"#utility.yul\":6049:6073   */\n      tag_232\n        /* \"#utility.yul\":6067:6072   */\n      dup2\n        /* \"#utility.yul\":6049:6073   */\n      tag_233\n      jump\t// in\n    tag_232:\n        /* \"#utility.yul\":6044:6047   */\n      dup3\n        /* \"#utility.yul\":6037:6074   */\n      mstore\n        /* \"#utility.yul\":5962:6080   */\n      pop\n      pop\n      jump\t// out\n        /* \"#utility.yul\":6086:6308   */\n    tag_49:\n        /* \"#utility.yul\":6179:6183   */\n      0x00\n        /* \"#utility.yul\":6217:6219   */\n      0x20\n        /* \"#utility.yul\":6206:6215   */\n      dup3\n        /* \"#utility.yul\":6202:6220   */\n      add\n        /* \"#utility.yul\":6194:6220   */\n      swap1\n      pop\n        /* \"#utility.yul\":6230:6301   */\n      tag_235\n        /* \"#utility.yul\":6298:6299   */\n      0x00\n        /* \"#utility.yul\":6287:6296   */\n      dup4\n        /* \"#utility.yul\":6283:6300   */\n      add\n        /* \"#utility.yul\":6274:6280   */\n      dup5\n        /* \"#utility.yul\":6230:6301   */\n      tag_161\n      jump\t// in\n    tag_235:\n        /* \"#utility.yul\":6086:6308   */\n      swap3\n      swap2\n      pop\n      pop\n      jump\t// out\n        /* \"#utility.yul\":6314:6568   */\n    tag_44:\n        /* \"#utility.yul\":6423:6427   */\n      0x00\n        /* \"#utility.yul\":6461:6463   */\n      0x20\n        /* \"#utility.yul\":6450:6459   */\n      dup3\n        /* \"#utility.yul\":6446:6464   */\n      add\n        /* \"#utility.yul\":6438:6464   */\n      swap1\n      pop\n        /* \"#utility.yul\":6474:6561   */\n      tag_237\n        /* \"#utility.yul\":6558:6559   */\n      0x00\n        /* \"#utility.yul\":6547:6556   */\n      dup4\n        /* \"#utility.yul\":6543:6560   */\n      add\n        /* \"#utility.yul\":6534:6540   */\n      dup5\n        /* \"#utility.yul\":6474:6561   */\n      tag_157\n      jump\t// in\n    tag_237:\n        /* \"#utility.yul\":6314:6568   */\n      swap3\n      swap2\n      pop\n      pop\n      jump\t// out\n        /* \"#utility.yul\":6574:6784   */\n    tag_60:\n        /* \"#utility.yul\":6661:6665   */\n      0x00\n        /* \"#utility.yul\":6699:6701   */\n      0x20\n        /* \"#utility.yul\":6688:6697   */\n      dup3\n        /* \"#utility.yul\":6684:6702   */\n      add\n        /* \"#utility.yul\":6676:6702   */\n      swap1\n      pop\n        /* \"#utility.yul\":6712:6777   */\n      tag_239\n        /* \"#utility.yul\":6774:6775   */\n      0x00\n        /* \"#utility.yul\":6763:6772   */\n      dup4\n        /* \"#utility.yul\":6759:6776   */\n      add\n        /* \"#utility.yul\":6750:6756   */\n      dup5\n        /* \"#utility.yul\":6712:6777   */\n      tag_165\n      jump\t// in\n    tag_239:\n        /* \"#utility.yul\":6574:6784   */\n      swap3\n      swap2\n      pop\n      pop\n      jump\t// out\n        /* \"#utility.yul\":6790:7319   */\n    tag_77:\n        /* \"#utility.yul\":6984:6988   */\n      0x00\n        /* \"#utility.yul\":7022:7024   */\n      0x40\n        /* \"#utility.yul\":7011:7020   */\n      dup3\n        /* \"#utility.yul\":7007:7025   */\n      add\n        /* \"#utility.yul\":6999:7025   */\n      swap1\n      pop\n        /* \"#utility.yul\":7071:7080   */\n      dup2\n        /* \"#utility.yul\":7065:7069   */\n      dup2\n        /* \"#utility.yul\":7061:7081   */\n      sub\n        /* \"#utility.yul\":7057:7058   */\n      0x00\n        /* \"#utility.yul\":7046:7055   */\n      dup4\n        /* \"#utility.yul\":7042:7059   */\n      add\n        /* \"#utility.yul\":7035:7082   */\n      mstore\n        /* \"#utility.yul\":7099:7230   */\n      tag_241\n        /* \"#utility.yul\":7225:7229   */\n      dup2\n        /* \"#utility.yul\":7099:7230   */\n      tag_169\n      jump\t// in\n    tag_241:\n        /* \"#utility.yul\":7091:7230   */\n      swap1\n      pop\n        /* \"#utility.yul\":7240:7312   */\n      tag_242\n        /* \"#utility.yul\":7308:7310   */\n      0x20\n        /* \"#utility.yul\":7297:7306   */\n      dup4\n        /* \"#utility.yul\":7293:7311   */\n      add\n        /* \"#utility.yul\":7284:7290   */\n      dup5\n        /* \"#utility.yul\":7240:7312   */\n      tag_161\n      jump\t// in\n    tag_242:\n        /* \"#utility.yul\":6790:7319   */\n      swap3\n      swap2\n      pop\n      pop\n      jump\t// out\n        /* \"#utility.yul\":7325:7744   */\n    tag_87:\n        /* \"#utility.yul\":7491:7495   */\n      0x00\n        /* \"#utility.yul\":7529:7531   */\n      0x20\n        /* \"#utility.yul\":7518:7527   */\n      dup3\n        /* \"#utility.yul\":7514:7532   */\n      add\n        /* \"#utility.yul\":7506:7532   */\n      swap1\n      pop\n        /* \"#utility.yul\":7578:7587   */\n      dup2\n        /* \"#utility.yul\":7572:7576   */\n      dup2\n        /* \"#utility.yul\":7568:7588   */\n      sub\n        /* \"#utility.yul\":7564:7565   */\n      0x00\n        /* \"#utility.yul\":7553:7562   */\n      dup4\n        /* \"#utility.yul\":7549:7566   */\n      add\n        /* \"#utility.yul\":7542:7589   */\n      mstore\n        /* \"#utility.yul\":7606:7737   */\n      tag_244\n        /* \"#utility.yul\":7732:7736   */\n      dup2\n        /* \"#utility.yul\":7606:7737   */\n      tag_175\n      jump\t// in\n    tag_244:\n        /* \"#utility.yul\":7598:7737   */\n      swap1\n      pop\n        /* \"#utility.yul\":7325:7744   */\n      swap2\n      swap1\n      pop\n      jump\t// out\n        /* \"#utility.yul\":7750:8169   */\n    tag_109:\n        /* \"#utility.yul\":7916:7920   */\n      0x00\n        /* \"#utility.yul\":7954:7956   */\n      0x20\n        /* \"#utility.yul\":7943:7952   */\n      dup3\n        /* \"#utility.yul\":7939:7957   */\n      add\n        /* \"#utility.yul\":7931:7957   */\n      swap1\n      pop\n        /* \"#utility.yul\":8003:8012   */\n      dup2\n        /* \"#utility.yul\":7997:8001   */\n      dup2\n        /* \"#utility.yul\":7993:8013   */\n      sub\n        /* \"#utility.yul\":7989:7990   */\n      0x00\n        /* \"#utility.yul\":7978:7987   */\n      dup4\n        /* \"#utility.yul\":7974:7991   */\n      add\n        /* \"#utility.yul\":7967:8014   */\n      mstore\n        /* \"#utility.yul\":8031:8162   */\n      tag_246\n        /* \"#utility.yul\":8157:8161   */\n      dup2\n        /* \"#utility.yul\":8031:8162   */\n      tag_180\n      jump\t// in\n    tag_246:\n        /* \"#utility.yul\":8023:8162   */\n      swap1\n      pop\n        /* \"#utility.yul\":7750:8169   */\n      swap2\n      swap1\n      pop\n      jump\t// out\n        /* \"#utility.yul\":8175:8594   */\n    tag_81:\n        /* \"#utility.yul\":8341:8345   */\n      0x00\n        /* \"#utility.yul\":8379:8381   */\n      0x20\n        /* \"#utility.yul\":8368:8377   */\n      dup3\n        /* \"#utility.yul\":8364:8382   */\n      add\n        /* \"#utility.yul\":8356:8382   */\n      swap1\n      pop\n        /* \"#utility.yul\":8428:8437   */\n      dup2\n        /* \"#utility.yul\":8422:8426   */\n      dup2\n        /* \"#utility.yul\":8418:8438   */\n      sub\n        /* \"#utility.yul\":8414:8415   */\n      0x00\n        /* \"#utility.yul\":8403:8412   */\n      dup4\n        /* \"#utility.yul\":8399:8416   */\n      add\n        /* \"#utility.yul\":8392:8439   */\n      mstore\n        /* \"#utility.yul\":8456:8587   */\n      tag_248\n        /* \"#utility.yul\":8582:8586   */\n      dup2\n        /* \"#utility.yul\":8456:8587   */\n      tag_185\n      jump\t// in\n    tag_248:\n        /* \"#utility.yul\":8448:8587   */\n      swap1\n      pop\n        /* \"#utility.yul\":8175:8594   */\n      swap2\n      swap1\n      pop\n      jump\t// out\n        /* \"#utility.yul\":8600:9129   */\n    tag_113:\n        /* \"#utility.yul\":8794:8798   */\n      0x00\n        /* \"#utility.yul\":8832:8834   */\n      0x40\n        /* \"#utility.yul\":8821:8830   */\n      dup3\n        /* \"#utility.yul\":8817:8835   */\n      add\n        /* \"#utility.yul\":8809:8835   */\n      swap1\n      pop\n        /* \"#utility.yul\":8881:8890   */\n      dup2\n        /* \"#utility.yul\":8875:8879   */\n      dup2\n        /* \"#utility.yul\":8871:8891   */\n      sub\n        /* \"#utility.yul\":8867:8868   */\n      0x00\n        /* \"#utility.yul\":8856:8865   */\n      dup4\n        /* \"#utility.yul\":8852:8869   */\n      add\n        /* \"#utility.yul\":8845:8892   */\n      mstore\n        /* \"#utility.yul\":8909:9040   */\n      tag_250\n        /* \"#utility.yul\":9035:9039   */\n      dup2\n        /* \"#utility.yul\":8909:9040   */\n      tag_190\n      jump\t// in\n    tag_250:\n        /* \"#utility.yul\":8901:9040   */\n      swap1\n      pop\n        /* \"#utility.yul\":9050:9122   */\n      tag_251\n        /* \"#utility.yul\":9118:9120   */\n      0x20\n        /* \"#utility.yul\":9107:9116   */\n      dup4\n        /* \"#utility.yul\":9103:9121   */\n      add\n        /* \"#utility.yul\":9094:9100   */\n      dup5\n        /* \"#utility.yul\":9050:9122   */\n      tag_161\n      jump\t// in\n    tag_251:\n        /* \"#utility.yul\":8600:9129   */\n      swap3\n      swap2\n      pop\n      pop\n      jump\t// out\n        /* \"#utility.yul\":9135:9554   */\n    tag_117:\n        /* \"#utility.yul\":9301:9305   */\n      0x00\n        /* \"#utility.yul\":9339:9341   */\n      0x20\n        /* \"#utility.yul\":9328:9337   */\n      dup3\n        /* \"#utility.yul\":9324:9342   */\n      add\n        /* \"#utility.yul\":9316:9342   */\n      swap1\n      pop\n        /* \"#utility.yul\":9388:9397   */\n      dup2\n        /* \"#utility.yul\":9382:9386   */\n      dup2\n        /* \"#utility.yul\":9378:9398   */\n      sub\n        /* \"#utility.yul\":9374:9375   */\n      0x00\n        /* \"#utility.yul\":9363:9372   */\n      dup4\n        /* \"#utility.yul\":9359:9376   */\n      add\n        /* \"#utility.yul\":9352:9399   */\n      mstore\n        /* \"#utility.yul\":9416:9547   */\n      tag_253\n        /* \"#utility.yul\":9542:9546   */\n      dup2\n        /* \"#utility.yul\":9416:9547   */\n      tag_195\n      jump\t// in\n    tag_253:\n        /* \"#utility.yul\":9408:9547   */\n      swap1\n      pop\n        /* \"#utility.yul\":9135:9554   */\n      swap2\n      swap1\n      pop\n      jump\t// out\n        /* \"#utility.yul\":9560:9979   */\n    tag_123:\n        /* \"#utility.yul\":9726:9730   */\n      0x00\n        /* \"#utility.yul\":9764:9766   */\n      0x20\n        /* \"#utility.yul\":9753:9762   */\n      dup3\n        /* \"#utility.yul\":9749:9767   */\n      add\n        /* \"#utility.yul\":9741:9767   */\n      swap1\n      pop\n        /* \"#utility.yul\":9813:9822   */\n      dup2\n        /* \"#utility.yul\":9807:9811   */\n      dup2\n        /* \"#utility.yul\":9803:9823   */\n      sub\n        /* \"#utility.yul\":9799:9800   */\n      0x00\n        /* \"#utility.yul\":9788:9797   */\n      dup4\n        /* \"#utility.yul\":9784:9801   */\n      add\n        /* \"#utility.yul\":9777:9824   */\n      mstore\n        /* \"#utility.yul\":9841:9972   */\n      tag_255\n        /* \"#utility.yul\":9967:9971   */\n      dup2\n        /* \"#utility.yul\":9841:9972   */\n      tag_200\n      jump\t// in\n    tag_255:\n        /* \"#utility.yul\":9833:9972   */\n      swap1\n      pop\n        /* \"#utility.yul\":9560:9979   */\n      swap2\n      swap1\n      pop\n      jump\t// out\n        /* \"#utility.yul\":9985:10404   */\n    tag_94:\n        /* \"#utility.yul\":10151:10155   */\n      0x00\n        /* \"#utility.yul\":10189:10191   */\n      0x20\n        /* \"#utility.yul\":10178:10187   */\n      dup3\n        /* \"#utility.yul\":10174:10192   */\n      add\n        /* \"#utility.yul\":10166:10192   */\n      swap1\n      pop\n        /* \"#utility.yul\":10238:10247   */\n      dup2\n        /* \"#utility.yul\":10232:10236   */\n      dup2\n        /* \"#utility.yul\":10228:10248   */\n      sub\n        /* \"#utility.yul\":10224:10225   */\n      0x00\n        /* \"#utility.yul\":10213:10222   */\n      dup4\n        /* \"#utility.yul\":10209:10226   */\n      add\n        /* \"#utility.yul\":10202:10249   */\n      mstore\n        /* \"#utility.yul\":10266:10397   */\n      tag_257\n        /* \"#utility.yul\":10392:10396   */\n      dup2\n        /* \"#utility.yul\":10266:10397   */\n      tag_205\n      jump\t// in\n    tag_257:\n        /* \"#utility.yul\":10258:10397   */\n      swap1\n      pop\n        /* \"#utility.yul\":9985:10404   */\n      swap2\n      swap1\n      pop\n      jump\t// out\n        /* \"#utility.yul\":10410:10829   */\n    tag_127:\n        /* \"#utility.yul\":10576:10580   */\n      0x00\n        /* \"#utility.yul\":10614:10616   */\n      0x20\n        /* \"#utility.yul\":10603:10612   */\n      dup3\n        /* \"#utility.yul\":10599:10617   */\n      add\n        /* \"#utility.yul\":10591:10617   */\n      swap1\n      pop\n        /* \"#utility.yul\":10663:10672   */\n      dup2\n        /* \"#utility.yul\":10657:10661   */\n      dup2\n        /* \"#utility.yul\":10653:10673   */\n      sub\n        /* \"#utility.yul\":10649:10650   */\n      0x00\n        /* \"#utility.yul\":10638:10647   */\n      dup4\n        /* \"#utility.yul\":10634:10651   */\n      add\n        /* \"#utility.yul\":10627:10674   */\n      mstore\n        /* \"#utility.yul\":10691:10822   */\n      tag_259\n        /* \"#utility.yul\":10817:10821   */\n      dup2\n        /* \"#utility.yul\":10691:10822   */\n      tag_210\n      jump\t// in\n    tag_259:\n        /* \"#utility.yul\":10683:10822   */\n      swap1\n      pop\n        /* \"#utility.yul\":10410:10829   */\n      swap2\n      swap1\n      pop\n      jump\t// out\n        /* \"#utility.yul\":10835:11254   */\n    tag_71:\n        /* \"#utility.yul\":11001:11005   */\n      0x00\n        /* \"#utility.yul\":11039:11041   */\n      0x20\n        /* \"#utility.yul\":11028:11037   */\n      dup3\n        /* \"#utility.yul\":11024:11042   */\n      add\n        /* \"#utility.yul\":11016:11042   */\n      swap1\n      pop\n        /* \"#utility.yul\":11088:11097   */\n      dup2\n        /* \"#utility.yul\":11082:11086   */\n      dup2\n        /* \"#utility.yul\":11078:11098   */\n      sub\n        /* \"#utility.yul\":11074:11075   */\n      0x00\n        /* \"#utility.yul\":11063:11072   */\n      dup4\n        /* \"#utility.yul\":11059:11076   */\n      add\n        /* \"#utility.yul\":11052:11099   */\n      mstore\n        /* \"#utility.yul\":11116:11247   */\n      tag_261\n        /* \"#utility.yul\":11242:11246   */\n      dup2\n        /* \"#utility.yul\":11116:11247   */\n      tag_215\n      jump\t// in\n    tag_261:\n        /* \"#utility.yul\":11108:11247   */\n      swap1\n      pop\n        /* \"#utility.yul\":10835:11254   */\n      swap2\n      swap1\n      pop\n      jump\t// out\n        /* \"#utility.yul\":11260:11679   */\n    tag_103:\n        /* \"#utility.yul\":11426:11430   */\n      0x00\n        /* \"#utility.yul\":11464:11466   */\n      0x20\n        /* \"#utility.yul\":11453:11462   */\n      dup3\n        /* \"#utility.yul\":11449:11467   */\n      add\n        /* \"#utility.yul\":11441:11467   */\n      swap1\n      pop\n        /* \"#utility.yul\":11513:11522   */\n      dup2\n        /* \"#utility.yul\":11507:11511   */\n      dup2\n        /* \"#utility.yul\":11503:11523   */\n      sub\n        /* \"#utility.yul\":11499:11500   */\n      0x00\n        /* \"#utility.yul\":11488:11497   */\n      dup4\n        /* \"#utility.yul\":11484:11501   */\n      add\n        /* \"#utility.yul\":11477:11524   */\n      mstore\n        /* \"#utility.yul\":11541:11672   */\n      tag_263\n        /* \"#utility.yul\":11667:11671   */\n      dup2\n        /* \"#utility.yul\":11541:11672   */\n      tag_220\n      jump\t// in\n    tag_263:\n        /* \"#utility.yul\":11533:11672   */\n      swap1\n      pop\n        /* \"#utility.yul\":11260:11679   */\n      swap2\n      swap1\n      pop\n      jump\t// out\n        /* \"#utility.yul\":11685:12104   */\n    tag_137:\n        /* \"#utility.yul\":11851:11855   */\n      0x00\n        /* \"#utility.yul\":11889:11891   */\n      0x20\n        /* \"#utility.yul\":11878:11887   */\n      dup3\n        /* \"#utility.yul\":11874:11892   */\n      add\n        /* \"#utility.yul\":11866:11892   */\n      swap1\n      pop\n        /* \"#utility.yul\":11938:11947   */\n      dup2\n        /* \"#utility.yul\":11932:11936   */\n      dup2\n        /* \"#utility.yul\":11928:11948   */\n      sub\n        /* \"#utility.yul\":11924:11925   */\n      0x00\n        /* \"#utility.yul\":11913:11922   */\n      dup4\n        /* \"#utility.yul\":11909:11926   */\n      add\n        /* \"#utility.yul\":11902:11949   */\n      mstore\n        /* \"#utility.yul\":11966:12097   */\n      tag_265\n        /* \"#utility.yul\":12092:12096   */\n      dup2\n        /* \"#utility.yul\":11966:12097   */\n      tag_225\n      jump\t// in\n    tag_265:\n        /* \"#utility.yul\":11958:12097   */\n      swap1\n      pop\n        /* \"#utility.yul\":11685:12104   */\n      swap2\n      swap1\n      pop\n      jump\t// out\n        /* \"#utility.yul\":12110:12332   */\n    tag_30:\n        /* \"#utility.yul\":12203:12207   */\n      0x00\n        /* \"#utility.yul\":12241:12243   */\n      0x20\n        /* \"#utility.yul\":12230:12239   */\n      dup3\n        /* \"#utility.yul\":12226:12244   */\n      add\n        /* \"#utility.yul\":12218:12244   */\n      swap1\n      pop\n        /* \"#utility.yul\":12254:12325   */\n      tag_267\n        /* \"#utility.yul\":12322:12323   */\n      0x00\n        /* \"#utility.yul\":12311:12320   */\n      dup4\n        /* \"#utility.yul\":12307:12324   */\n      add\n        /* \"#utility.yul\":12298:12304   */\n      dup5\n        /* \"#utility.yul\":12254:12325   */\n      tag_230\n      jump\t// in\n    tag_267:\n        /* \"#utility.yul\":12110:12332   */\n      swap3\n      swap2\n      pop\n      pop\n      jump\t// out\n        /* \"#utility.yul\":12419:12588   */\n    tag_172:\n        /* \"#utility.yul\":12503:12514   */\n      0x00\n        /* \"#utility.yul\":12537:12543   */\n      dup3\n        /* \"#utility.yul\":12532:12535   */\n      dup3\n        /* \"#utility.yul\":12525:12544   */\n      mstore\n        /* \"#utility.yul\":12577:12581   */\n      0x20\n        /* \"#utility.yul\":12572:12575   */\n      dup3\n        /* \"#utility.yul\":12568:12582   */\n      add\n        /* \"#utility.yul\":12553:12582   */\n      swap1\n      pop\n        /* \"#utility.yul\":12419:12588   */\n      swap3\n      swap2\n      pop\n      pop\n      jump\t// out\n        /* \"#utility.yul\":12594:12899   */\n    tag_100:\n        /* \"#utility.yul\":12634:12637   */\n      0x00\n        /* \"#utility.yul\":12653:12673   */\n      tag_272\n        /* \"#utility.yul\":12671:12672   */\n      dup3\n        /* \"#utility.yul\":12653:12673   */\n      tag_233\n      jump\t// in\n    tag_272:\n        /* \"#utility.yul\":12648:12673   */\n      swap2\n      pop\n        /* \"#utility.yul\":12687:12707   */\n      tag_273\n        /* \"#utility.yul\":12705:12706   */\n      dup4\n        /* \"#utility.yul\":12687:12707   */\n      tag_233\n      jump\t// in\n    tag_273:\n        /* \"#utility.yul\":12682:12707   */\n      swap3\n      pop\n        /* \"#utility.yul\":12841:12842   */\n      dup3\n        /* \"#utility.yul\":12773:12839   */\n      0xffffffffffffffffffffffffffffffffffffffffffffffffffffffffffffffff\n        /* \"#utility.yul\":12769:12843   */\n      sub\n        /* \"#utility.yul\":12766:12767   */\n      dup3\n        /* \"#utility.yul\":12763:12844   */\n      gt\n        /* \"#utility.yul\":12760:12867   */\n      iszero\n      tag_274\n      jumpi\n        /* \"#utility.yul\":12847:12865   */\n      tag_275\n      tag_276\n      jump\t// in\n    tag_275:\n        /* \"#utility.yul\":12760:12867   */\n    tag_274:\n        /* \"#utility.yul\":12891:12892   */\n      dup3\n        /* \"#utility.yul\":12888:12889   */\n      dup3\n        /* \"#utility.yul\":12884:12893   */\n      add\n        /* \"#utility.yul\":12877:12893   */\n      swap1\n      pop\n        /* \"#utility.yul\":12594:12899   */\n      swap3\n      swap2\n      pop\n      pop\n      jump\t// out\n        /* \"#utility.yul\":12905:13090   */\n    tag_129:\n        /* \"#utility.yul\":12945:12946   */\n      0x00\n        /* \"#utility.yul\":12962:12982   */\n      tag_278\n        /* \"#utility.yul\":12980:12981   */\n      dup3\n        /* \"#utility.yul\":12962:12982   */\n      tag_233\n      jump\t// in\n    tag_278:\n        /* \"#utility.yul\":12957:12982   */\n      swap2\n      pop\n        /* \"#utility.yul\":12996:13016   */\n      tag_279\n        /* \"#utility.yul\":13014:13015   */\n      dup4\n        /* \"#utility.yul\":12996:13016   */\n      tag_233\n      jump\t// in\n    tag_279:\n        /* \"#utility.yul\":12991:13016   */\n      swap3\n      pop\n        /* \"#utility.yul\":13035:13036   */\n      dup3\n        /* \"#utility.yul\":13025:13060   */\n      tag_280\n      jumpi\n        /* \"#utility.yul\":13040:13058   */\n      tag_281\n      tag_282\n      jump\t// in\n    tag_281:\n        /* \"#utility.yul\":13025:13060   */\n    tag_280:\n        /* \"#utility.yul\":13082:13083   */\n      dup3\n        /* \"#utility.yul\":13079:13080   */\n      dup3\n        /* \"#utility.yul\":13075:13084   */\n      div\n        /* \"#utility.yul\":13070:13084   */\n      swap1\n      pop\n        /* \"#utility.yul\":12905:13090   */\n      swap3\n      swap2\n      pop\n      pop\n      jump\t// out\n        /* \"#utility.yul\":13096:13444   */\n    tag_132:\n        /* \"#utility.yul\":13136:13143   */\n      0x00\n        /* \"#utility.yul\":13159:13179   */\n      tag_284\n        /* \"#utility.yul\":13177:13178   */\n      dup3\n        /* \"#utility.yul\":13159:13179   */\n      tag_233\n      jump\t// in\n    tag_284:\n        /* \"#utility.yul\":13154:13179   */\n      swap2\n      pop\n        /* \"#utility.yul\":13193:13213   */\n      tag_285\n        /* \"#utility.yul\":13211:13212   */\n      dup4\n        /* \"#utility.yul\":13193:13213   */\n      tag_233\n      jump\t// in\n    tag_285:\n        /* \"#utility.yul\":13188:13213   */\n      swap3\n      pop\n        /* \"#utility.yul\":13381:13382   */\n      dup2\n        /* \"#utility.yul\":13313:13379   */\n      0xffffffffffffffffffffffffffffffffffffffffffffffffffffffffffffffff\n        /* \"#utility.yul\":13309:13383   */\n      div\n        /* \"#utility.yul\":13306:13307   */\n      dup4\n        /* \"#utility.yul\":13303:13384   */\n      gt\n        /* \"#utility.yul\":13298:13299   */\n      dup3\n        /* \"#utility.yul\":13291:13300   */\n      iszero\n        /* \"#utility.yul\":13284:13301   */\n      iszero\n        /* \"#utility.yul\":13280:13385   */\n      and\n        /* \"#utility.yul\":13277:13408   */\n      iszero\n      tag_286\n      jumpi\n        /* \"#utility.yul\":13388:13406   */\n      tag_287\n      tag_276\n      jump\t// in\n    tag_287:\n        /* \"#utility.yul\":13277:13408   */\n    tag_286:\n        /* \"#utility.yul\":13436:13437   */\n      dup3\n        /* \"#utility.yul\":13433:13434   */\n      dup3\n        /* \"#utility.yul\":13429:13438   */\n      mul\n        /* \"#utility.yul\":13418:13438   */\n      swap1\n      pop\n        /* \"#utility.yul\":13096:13444   */\n      swap3\n      swap2\n      pop\n      pop\n      jump\t// out\n        /* \"#utility.yul\":13450:13641   */\n    tag_90:\n        /* \"#utility.yul\":13490:13494   */\n      0x00\n        /* \"#utility.yul\":13510:13530   */\n      tag_289\n        /* \"#utility.yul\":13528:13529   */\n      dup3\n        /* \"#utility.yul\":13510:13530   */\n      tag_233\n      jump\t// in\n    tag_289:\n        /* \"#utility.yul\":13505:13530   */\n      swap2\n      pop\n        /* \"#utility.yul\":13544:13564   */\n      tag_290\n        /* \"#utility.yul\":13562:13563   */\n      dup4\n        /* \"#utility.yul\":13544:13564   */\n      tag_233\n      jump\t// in\n    tag_290:\n        /* \"#utility.yul\":13539:13564   */\n      swap3\n      pop\n        /* \"#utility.yul\":13583:13584   */\n      dup3\n        /* \"#utility.yul\":13580:13581   */\n      dup3\n        /* \"#utility.yul\":13577:13585   */\n      lt\n        /* \"#utility.yul\":13574:13608   */\n      iszero\n      tag_291\n      jumpi\n        /* \"#utility.yul\":13588:13606   */\n      tag_292\n      tag_276\n      jump\t// in\n    tag_292:\n        /* \"#utility.yul\":13574:13608   */\n    tag_291:\n        /* \"#utility.yul\":13633:13634   */\n      dup3\n        /* \"#utility.yul\":13630:13631   */\n      dup3\n        /* \"#utility.yul\":13626:13635   */\n      sub\n        /* \"#utility.yul\":13618:13635   */\n      swap1\n      pop\n        /* \"#utility.yul\":13450:13641   */\n      swap3\n      swap2\n      pop\n      pop\n      jump\t// out\n        /* \"#utility.yul\":13647:13743   */\n    tag_164:\n        /* \"#utility.yul\":13684:13691   */\n      0x00\n        /* \"#utility.yul\":13713:13737   */\n      tag_294\n        /* \"#utility.yul\":13731:13736   */\n      dup3\n        /* \"#utility.yul\":13713:13737   */\n      tag_295\n      jump\t// in\n    tag_294:\n        /* \"#utility.yul\":13702:13737   */\n      swap1\n      pop\n        /* \"#utility.yul\":13647:13743   */\n      swap2\n      swap1\n      pop\n      jump\t// out\n        /* \"#utility.yul\":13749:13853   */\n    tag_160:\n        /* \"#utility.yul\":13794:13801   */\n      0x00\n        /* \"#utility.yul\":13823:13847   */\n      tag_297\n        /* \"#utility.yul\":13841:13846   */\n      dup3\n        /* \"#utility.yul\":13823:13847   */\n      tag_295\n      jump\t// in\n    tag_297:\n        /* \"#utility.yul\":13812:13847   */\n      swap1\n      pop\n        /* \"#utility.yul\":13749:13853   */\n      swap2\n      swap1\n      pop\n      jump\t// out\n        /* \"#utility.yul\":13859:13949   */\n    tag_168:\n        /* \"#utility.yul\":13893:13900   */\n      0x00\n        /* \"#utility.yul\":13936:13941   */\n      dup2\n        /* \"#utility.yul\":13929:13942   */\n      iszero\n        /* \"#utility.yul\":13922:13943   */\n      iszero\n        /* \"#utility.yul\":13911:13943   */\n      swap1\n      pop\n        /* \"#utility.yul\":13859:13949   */\n      swap2\n      swap1\n      pop\n      jump\t// out\n        /* \"#utility.yul\":13955:14081   */\n    tag_295:\n        /* \"#utility.yul\":13992:13999   */\n      0x00\n        /* \"#utility.yul\":14032:14074   */\n      0xffffffffffffffffffffffffffffffffffffffff\n        /* \"#utility.yul\":14025:14030   */\n      dup3\n        /* \"#utility.yul\":14021:14075   */\n      and\n        /* \"#utility.yul\":14010:14075   */\n      swap1\n      pop\n        /* \"#utility.yul\":13955:14081   */\n      swap2\n      swap1\n      pop\n      jump\t// out\n        /* \"#utility.yul\":14087:14164   */\n    tag_233:\n        /* \"#utility.yul\":14124:14131   */\n      0x00\n        /* \"#utility.yul\":14153:14158   */\n      dup2\n        /* \"#utility.yul\":14142:14158   */\n      swap1\n      pop\n        /* \"#utility.yul\":14087:14164   */\n      swap2\n      swap1\n      pop\n      jump\t// out\n        /* \"#utility.yul\":14170:14350   */\n    tag_276:\n        /* \"#utility.yul\":14218:14295   */\n      0x4e487b7100000000000000000000000000000000000000000000000000000000\n        /* \"#utility.yul\":14215:14216   */\n      0x00\n        /* \"#utility.yul\":14208:14296   */\n      mstore\n        /* \"#utility.yul\":14315:14319   */\n      0x11\n        /* \"#utility.yul\":14312:14313   */\n      0x04\n        /* \"#utility.yul\":14305:14320   */\n      mstore\n        /* \"#utility.yul\":14339:14343   */\n      0x24\n        /* \"#utility.yul\":14336:14337   */\n      0x00\n        /* \"#utility.yul\":14329:14344   */\n      revert\n        /* \"#utility.yul\":14356:14536   */\n    tag_282:\n        /* \"#utility.yul\":14404:14481   */\n      0x4e487b7100000000000000000000000000000000000000000000000000000000\n        /* \"#utility.yul\":14401:14402   */\n      0x00\n        /* \"#utility.yul\":14394:14482   */\n      mstore\n        /* \"#utility.yul\":14501:14505   */\n      0x12\n        /* \"#utility.yul\":14498:14499   */\n      0x04\n        /* \"#utility.yul\":14491:14506   */\n      mstore\n        /* \"#utility.yul\":14525:14529   */\n      0x24\n        /* \"#utility.yul\":14522:14523   */\n      0x00\n        /* \"#utility.yul\":14515:14530   */\n      revert\n        /* \"#utility.yul\":14665:14782   */\n    tag_150:\n        /* \"#utility.yul\":14774:14775   */\n      0x00\n        /* \"#utility.yul\":14771:14772   */\n      dup1\n        /* \"#utility.yul\":14764:14776   */\n      revert\n        /* \"#utility.yul\":14788:14957   */\n    tag_174:\n        /* \"#utility.yul\":14928:14949   */\n      0x4d6f6e6579207769746864726177656e20746f00000000000000000000000000\n        /* \"#utility.yul\":14924:14925   */\n      0x00\n        /* \"#utility.yul\":14916:14922   */\n      dup3\n        /* \"#utility.yul\":14912:14926   */\n      add\n        /* \"#utility.yul\":14905:14950   */\n      mstore\n        /* \"#utility.yul\":14788:14957   */\n      pop\n      jump\t// out\n        /* \"#utility.yul\":14963:15145   */\n    tag_179:\n        /* \"#utility.yul\":15103:15137   */\n      0x596f7520646f6e2774206861766520616e79206d6f6e657920696e2068657265\n        /* \"#utility.yul\":15099:15100   */\n      0x00\n        /* \"#utility.yul\":15091:15097   */\n      dup3\n        /* \"#utility.yul\":15087:15101   */\n      add\n        /* \"#utility.yul\":15080:15138   */\n      mstore\n        /* \"#utility.yul\":14963:15145   */\n      pop\n      jump\t// out\n        /* \"#utility.yul\":15151:15325   */\n    tag_184:\n        /* \"#utility.yul\":15291:15317   */\n      0x4d696e696d756d20312045746865722052657175697265640000000000000000\n        /* \"#utility.yul\":15287:15288   */\n      0x00\n        /* \"#utility.yul\":15279:15285   */\n      dup3\n        /* \"#utility.yul\":15275:15289   */\n      add\n        /* \"#utility.yul\":15268:15318   */\n      mstore\n        /* \"#utility.yul\":15151:15325   */\n      pop\n      jump\t// out\n        /* \"#utility.yul\":15331:15554   */\n    tag_189:\n        /* \"#utility.yul\":15471:15505   */\n      0x596f7520646f6e27742068617665206e6f2070656e64696e6720776974686472\n        /* \"#utility.yul\":15467:15468   */\n      0x00\n        /* \"#utility.yul\":15459:15465   */\n      dup3\n        /* \"#utility.yul\":15455:15469   */\n      add\n        /* \"#utility.yul\":15448:15506   */\n      mstore\n        /* \"#utility.yul\":15540:15546   */\n      0x61776c7300000000000000000000000000000000000000000000000000000000\n        /* \"#utility.yul\":15535:15537   */\n      0x20\n        /* \"#utility.yul\":15527:15533   */\n      dup3\n        /* \"#utility.yul\":15523:15538   */\n      add\n        /* \"#utility.yul\":15516:15547   */\n      mstore\n        /* \"#utility.yul\":15331:15554   */\n      pop\n      jump\t// out\n        /* \"#utility.yul\":15560:15716   */\n    tag_194:\n        /* \"#utility.yul\":15700:15708   */\n      0x7374616b65640000000000000000000000000000000000000000000000000000\n        /* \"#utility.yul\":15696:15697   */\n      0x00\n        /* \"#utility.yul\":15688:15694   */\n      dup3\n        /* \"#utility.yul\":15684:15698   */\n      add\n        /* \"#utility.yul\":15677:15709   */\n      mstore\n        /* \"#utility.yul\":15560:15716   */\n      pop\n      jump\t// out\n        /* \"#utility.yul\":15722:15890   */\n    tag_199:\n        /* \"#utility.yul\":15862:15882   */\n      0x537562737472616374696f6e206661696c640000000000000000000000000000\n        /* \"#utility.yul\":15858:15859   */\n      0x00\n        /* \"#utility.yul\":15850:15856   */\n      dup3\n        /* \"#utility.yul\":15846:15860   */\n      add\n        /* \"#utility.yul\":15839:15883   */\n      mstore\n        /* \"#utility.yul\":15722:15890   */\n      pop\n      jump\t// out\n        /* \"#utility.yul\":15896:16061   */\n    tag_204:\n        /* \"#utility.yul\":16036:16053   */\n      0x4164646974696f6e206661696c65640000000000000000000000000000000000\n        /* \"#utility.yul\":16032:16033   */\n      0x00\n        /* \"#utility.yul\":16024:16030   */\n      dup3\n        /* \"#utility.yul\":16020:16034   */\n      add\n        /* \"#utility.yul\":16013:16054   */\n      mstore\n        /* \"#utility.yul\":15896:16061   */\n      pop\n      jump\t// out\n        /* \"#utility.yul\":16067:16290   */\n    tag_209:\n        /* \"#utility.yul\":16207:16241   */\n      0x596f752073686f756c642061746c65617374207374616b6520666f722061206d\n        /* \"#utility.yul\":16203:16204   */\n      0x00\n        /* \"#utility.yul\":16195:16201   */\n      dup3\n        /* \"#utility.yul\":16191:16205   */\n      add\n        /* \"#utility.yul\":16184:16242   */\n      mstore\n        /* \"#utility.yul\":16276:16282   */\n      0x6f6e747900000000000000000000000000000000000000000000000000000000\n        /* \"#utility.yul\":16271:16273   */\n      0x20\n        /* \"#utility.yul\":16263:16269   */\n      dup3\n        /* \"#utility.yul\":16259:16274   */\n      add\n        /* \"#utility.yul\":16252:16283   */\n      mstore\n        /* \"#utility.yul\":16067:16290   */\n      pop\n      jump\t// out\n        /* \"#utility.yul\":16296:16460   */\n    tag_214:\n        /* \"#utility.yul\":16436:16452   */\n      0x4469766973696f6e206661696c64000000000000000000000000000000000000\n        /* \"#utility.yul\":16432:16433   */\n      0x00\n        /* \"#utility.yul\":16424:16430   */\n      dup3\n        /* \"#utility.yul\":16420:16434   */\n      add\n        /* \"#utility.yul\":16413:16453   */\n      mstore\n        /* \"#utility.yul\":16296:16460   */\n      pop\n      jump\t// out\n        /* \"#utility.yul\":16466:16692   */\n    tag_219:\n        /* \"#utility.yul\":16606:16640   */\n      0x446f65736e2774206861766520656e6f7567682062616c616e636520696e2074\n        /* \"#utility.yul\":16602:16603   */\n      0x00\n        /* \"#utility.yul\":16594:16600   */\n      dup3\n        /* \"#utility.yul\":16590:16604   */\n      add\n        /* \"#utility.yul\":16583:16641   */\n      mstore\n        /* \"#utility.yul\":16675:16684   */\n      0x68652062616e6b00000000000000000000000000000000000000000000000000\n        /* \"#utility.yul\":16670:16672   */\n      0x20\n        /* \"#utility.yul\":16662:16668   */\n      dup3\n        /* \"#utility.yul\":16658:16673   */\n      add\n        /* \"#utility.yul\":16651:16685   */\n      mstore\n        /* \"#utility.yul\":16466:16692   */\n      pop\n      jump\t// out\n        /* \"#utility.yul\":16698:16935   */\n    tag_224:\n        /* \"#utility.yul\":16838:16872   */\n      0x536f72727920776520646f6e2774206861766520656e6f756768206d6f6e6579\n        /* \"#utility.yul\":16834:16835   */\n      0x00\n        /* \"#utility.yul\":16826:16832   */\n      dup3\n        /* \"#utility.yul\":16822:16836   */\n      add\n        /* \"#utility.yul\":16815:16873   */\n      mstore\n        /* \"#utility.yul\":16907:16927   */\n      0x20736f20636f6d656261636b206c617465720000000000000000000000000000\n        /* \"#utility.yul\":16902:16904   */\n      0x20\n        /* \"#utility.yul\":16894:16900   */\n      dup3\n        /* \"#utility.yul\":16890:16905   */\n      add\n        /* \"#utility.yul\":16883:16928   */\n      mstore\n        /* \"#utility.yul\":16698:16935   */\n      pop\n      jump\t// out\n        /* \"#utility.yul\":16941:17111   */\n    tag_229:\n        /* \"#utility.yul\":17081:17103   */\n      0x4d756c7469706c69636174696f6e206661696c64000000000000000000000000\n        /* \"#utility.yul\":17077:17078   */\n      0x00\n        /* \"#utility.yul\":17069:17075   */\n      dup3\n        /* \"#utility.yul\":17065:17079   */\n      add\n        /* \"#utility.yul\":17058:17104   */\n      mstore\n        /* \"#utility.yul\":16941:17111   */\n      pop\n      jump\t// out\n        /* \"#utility.yul\":17117:17239   */\n    tag_142:\n        /* \"#utility.yul\":17190:17214   */\n      tag_319\n        /* \"#utility.yul\":17208:17213   */\n      dup2\n        /* \"#utility.yul\":17190:17214   */\n      tag_164\n      jump\t// in\n    tag_319:\n        /* \"#utility.yul\":17183:17188   */\n      dup2\n        /* \"#utility.yul\":17180:17215   */\n      eq\n        /* \"#utility.yul\":17170:17233   */\n      tag_320\n      jumpi\n        /* \"#utility.yul\":17229:17230   */\n      0x00\n        /* \"#utility.yul\":17226:17227   */\n      dup1\n        /* \"#utility.yul\":17219:17231   */\n      revert\n        /* \"#utility.yul\":17170:17233   */\n    tag_320:\n        /* \"#utility.yul\":17117:17239   */\n      pop\n      jump\t// out\n        /* \"#utility.yul\":17245:17367   */\n    tag_146:\n        /* \"#utility.yul\":17318:17342   */\n      tag_322\n        /* \"#utility.yul\":17336:17341   */\n      dup2\n        /* \"#utility.yul\":17318:17342   */\n      tag_233\n      jump\t// in\n    tag_322:\n        /* \"#utility.yul\":17311:17316   */\n      dup2\n        /* \"#utility.yul\":17308:17343   */\n      eq\n        /* \"#utility.yul\":17298:17361   */\n      tag_323\n      jumpi\n        /* \"#utility.yul\":17357:17358   */\n      0x00\n        /* \"#utility.yul\":17354:17355   */\n      dup1\n        /* \"#utility.yul\":17347:17359   */\n      revert\n        /* \"#utility.yul\":17298:17361   */\n    tag_323:\n        /* \"#utility.yul\":17245:17367   */\n      pop\n      jump\t// out\n\n    auxdata: 0xa2646970667358221220dde1122587be15baf72867fb86b3fea76a5a5af769b9e072fa08291b65a707e664736f6c63430008070033\n}\n",
				"bytecode": {
					"linkReferences": {},
					"object": "6080604052670de0b6b3a76400006000553480156200001d57600080fd5b5033600160006101000a81548173ffffffffffffffffffffffffffffffffffffffff021916908373ffffffffffffffffffffffffffffffffffffffff1602179055507ff67e7992d539193fc243c42fe89f8fab49013e8e4fb18cfa891dc51adcaccc8033604051620000909190620000d6565b60405180910390a162000176565b620000a98162000119565b82525050565b6000620000be60148362000108565b9150620000cb826200014d565b602082019050919050565b60006040820190508181036000830152620000f181620000af565b90506200010260208301846200009e565b92915050565b600082825260208201905092915050565b600062000126826200012d565b9050919050565b600073ffffffffffffffffffffffffffffffffffffffff82169050919050565b7f4c656e64696e6720706f6f6c2063726561746564000000000000000000000000600082015250565b6114ce80620001866000396000f3fe6080604052600436106100a05760003560e01c80638da5cb5b116100645780638da5cb5b1461015b578063a464d26514610186578063aeae177c146101b1578063c02b2092146101ee578063d0e30db01461022b578063f993185514610235576100a7565b80633607999b146100a957806356852391146100c5578063650fad76146100dc5780636e0e0da2146101075780636e1dc66e1461011e576100a7565b366100a757005b005b6100c360048036038101906100be9190610bdb565b610272565b005b3480156100d157600080fd5b506100da6103a2565b005b3480156100e857600080fd5b506100f16104f7565b6040516100fe9190610fe8565b60405180910390f35b34801561011357600080fd5b5061011c6104fd565b005b34801561012a57600080fd5b5061014560048036038101906101409190610bae565b6107e6565b6040516101529190610fe8565b60405180910390f35b34801561016757600080fd5b506101706107fe565b60405161017d9190610e16565b60405180910390f35b34801561019257600080fd5b5061019b610824565b6040516101a89190610dfb565b60405180910390f35b3480156101bd57600080fd5b506101d860048036038101906101d39190610bae565b61084a565b6040516101e59190610fe8565b60405180910390f35b3480156101fa57600080fd5b5061021560048036038101906102109190610bae565b610862565b6040516102229190610e31565b60405180910390f35b610233610882565b005b34801561024157600080fd5b5061025c60048036038101906102579190610bae565b6109f4565b6040516102699190610fe8565b60405180910390f35b6002548211156102b7576040517f08c379a00000000000000000000000000000000000000000000000000000000081526004016102ae90610f88565b60405180910390fd5b6102cc82600254610a0c90919063ffffffff16565b60028190555061032482600760008473ffffffffffffffffffffffffffffffffffffffff1673ffffffffffffffffffffffffffffffffffffffff16815260200190815260200160002054610a6590919063ffffffff16565b600760008373ffffffffffffffffffffffffffffffffffffffff1673ffffffffffffffffffffffffffffffffffffffff168152602001908152602001600020819055507ff67e7992d539193fc243c42fe89f8fab49013e8e4fb18cfa891dc51adcaccc80816040516103969190610e4c565b60405180910390a15050565b6000600760003373ffffffffffffffffffffffffffffffffffffffff1673ffffffffffffffffffffffffffffffffffffffff1681526020019081526020016000205411610424576040517f08c379a000000000000000000000000000000000000000000000000000000000815260040161041b90610eba565b60405180910390fd5b6000600760003373ffffffffffffffffffffffffffffffffffffffff1673ffffffffffffffffffffffffffffffffffffffff1681526020019081526020016000205490506000600760003373ffffffffffffffffffffffffffffffffffffffff1673ffffffffffffffffffffffffffffffffffffffff168152602001908152602001600020819055503373ffffffffffffffffffffffffffffffffffffffff166108fc829081150290604051600060405180830381858888f193505050501580156104f3573d6000803e3d6000fd5b5050565b60005481565b6000600660003373ffffffffffffffffffffffffffffffffffffffff1673ffffffffffffffffffffffffffffffffffffffff168152602001908152602001600020541161057f576040517f08c379a000000000000000000000000000000000000000000000000000000000815260040161057690610e7a565b60405180910390fd5b60006105e16201518042600560003373ffffffffffffffffffffffffffffffffffffffff1673ffffffffffffffffffffffffffffffffffffffff168152602001908152602001600020546105d391906110f5565b610abe90919063ffffffff16565b905062278d008111610628576040517f08c379a000000000000000000000000000000000000000000000000000000000815260040161061f90610f48565b60405180910390fd5b60006106a26064610694600660003373ffffffffffffffffffffffffffffffffffffffff1673ffffffffffffffffffffffffffffffffffffffff16815260200190815260200160002054610686600587610b1690919063ffffffff16565b610b1690919063ffffffff16565b610abe90919063ffffffff16565b600660003373ffffffffffffffffffffffffffffffffffffffff1673ffffffffffffffffffffffffffffffffffffffff168152602001908152602001600020546106ec9190611014565b90506002548110610732576040517f08c379a000000000000000000000000000000000000000000000000000000000815260040161072990610fa8565b60405180910390fd5b61074781600254610a0c90919063ffffffff16565b60028190555061079f81600760003373ffffffffffffffffffffffffffffffffffffffff1673ffffffffffffffffffffffffffffffffffffffff16815260200190815260200160002054610a6590919063ffffffff16565b600760003373ffffffffffffffffffffffffffffffffffffffff1673ffffffffffffffffffffffffffffffffffffffff168152602001908152602001600020819055505050565b60056020528060005260406000206000915090505481565b600160009054906101000a900473ffffffffffffffffffffffffffffffffffffffff1681565b600360009054906101000a900473ffffffffffffffffffffffffffffffffffffffff1681565b60076020528060005260406000206000915090505481565b60086020528060005260406000206000915054906101000a900460ff1681565b6000543410156108c7576040517f08c379a00000000000000000000000000000000000000000000000000000000081526004016108be90610e9a565b60405180910390fd5b42600560003373ffffffffffffffffffffffffffffffffffffffff1673ffffffffffffffffffffffffffffffffffffffff1681526020019081526020016000208190555061095d34600660003373ffffffffffffffffffffffffffffffffffffffff1673ffffffffffffffffffffffffffffffffffffffff16815260200190815260200160002054610a6590919063ffffffff16565b600660003373ffffffffffffffffffffffffffffffffffffffff1673ffffffffffffffffffffffffffffffffffffffff168152602001908152602001600020819055506109b534600254610a6590919063ffffffff16565b6002819055507ff67e7992d539193fc243c42fe89f8fab49013e8e4fb18cfa891dc51adcaccc80336040516109ea9190610eda565b60405180910390a1565b60066020528060005260406000206000915090505481565b600082821115610a51576040517f08c379a0000000000000000000000000000000000000000000000000000000008152600401610a4890610f08565b60405180910390fd5b8183610a5d91906110f5565b905092915050565b60008183610a739190611014565b905082811015610ab8576040517f08c379a0000000000000000000000000000000000000000000000000000000008152600401610aaf90610f28565b60405180910390fd5b92915050565b6000808211610b02576040517f08c379a0000000000000000000000000000000000000000000000000000000008152600401610af990610f68565b60405180910390fd5b8183610b0e919061106a565b905092915050565b60008183610b24919061109b565b90506000831480610b3f5750818382610b3d919061106a565b145b610b7e576040517f08c379a0000000000000000000000000000000000000000000000000000000008152600401610b7590610fc8565b60405180910390fd5b92915050565b600081359050610b938161146a565b92915050565b600081359050610ba881611481565b92915050565b600060208284031215610bc457610bc36111e1565b5b6000610bd284828501610b84565b91505092915050565b60008060408385031215610bf257610bf16111e1565b5b6000610c0085828601610b99565b9250506020610c1185828601610b84565b9150509250929050565b610c248161113b565b82525050565b610c3381611129565b82525050565b610c428161114d565b82525050565b6000610c55601383611003565b9150610c60826111e6565b602082019050919050565b6000610c78602083611003565b9150610c838261120f565b602082019050919050565b6000610c9b601883611003565b9150610ca682611238565b602082019050919050565b6000610cbe602483611003565b9150610cc982611261565b604082019050919050565b6000610ce1600683611003565b9150610cec826112b0565b602082019050919050565b6000610d04601283611003565b9150610d0f826112d9565b602082019050919050565b6000610d27600f83611003565b9150610d3282611302565b602082019050919050565b6000610d4a602483611003565b9150610d558261132b565b604082019050919050565b6000610d6d600e83611003565b9150610d788261137a565b602082019050919050565b6000610d90602783611003565b9150610d9b826113a3565b604082019050919050565b6000610db3603283611003565b9150610dbe826113f2565b604082019050919050565b6000610dd6601483611003565b9150610de182611441565b602082019050919050565b610df581611179565b82525050565b6000602082019050610e106000830184610c2a565b92915050565b6000602082019050610e2b6000830184610c1b565b92915050565b6000602082019050610e466000830184610c39565b92915050565b60006040820190508181036000830152610e6581610c48565b9050610e746020830184610c2a565b92915050565b60006020820190508181036000830152610e9381610c6b565b9050919050565b60006020820190508181036000830152610eb381610c8e565b9050919050565b60006020820190508181036000830152610ed381610cb1565b9050919050565b60006040820190508181036000830152610ef381610cd4565b9050610f026020830184610c2a565b92915050565b60006020820190508181036000830152610f2181610cf7565b9050919050565b60006020820190508181036000830152610f4181610d1a565b9050919050565b60006020820190508181036000830152610f6181610d3d565b9050919050565b60006020820190508181036000830152610f8181610d60565b9050919050565b60006020820190508181036000830152610fa181610d83565b9050919050565b60006020820190508181036000830152610fc181610da6565b9050919050565b60006020820190508181036000830152610fe181610dc9565b9050919050565b6000602082019050610ffd6000830184610dec565b92915050565b600082825260208201905092915050565b600061101f82611179565b915061102a83611179565b9250827fffffffffffffffffffffffffffffffffffffffffffffffffffffffffffffffff0382111561105f5761105e611183565b5b828201905092915050565b600061107582611179565b915061108083611179565b9250826110905761108f6111b2565b5b828204905092915050565b60006110a682611179565b91506110b183611179565b9250817fffffffffffffffffffffffffffffffffffffffffffffffffffffffffffffffff04831182151516156110ea576110e9611183565b5b828202905092915050565b600061110082611179565b915061110b83611179565b92508282101561111e5761111d611183565b5b828203905092915050565b600061113482611159565b9050919050565b600061114682611159565b9050919050565b60008115159050919050565b600073ffffffffffffffffffffffffffffffffffffffff82169050919050565b6000819050919050565b7f4e487b7100000000000000000000000000000000000000000000000000000000600052601160045260246000fd5b7f4e487b7100000000000000000000000000000000000000000000000000000000600052601260045260246000fd5b600080fd5b7f4d6f6e6579207769746864726177656e20746f00000000000000000000000000600082015250565b7f596f7520646f6e2774206861766520616e79206d6f6e657920696e2068657265600082015250565b7f4d696e696d756d20312045746865722052657175697265640000000000000000600082015250565b7f596f7520646f6e27742068617665206e6f2070656e64696e672077697468647260008201527f61776c7300000000000000000000000000000000000000000000000000000000602082015250565b7f7374616b65640000000000000000000000000000000000000000000000000000600082015250565b7f537562737472616374696f6e206661696c640000000000000000000000000000600082015250565b7f4164646974696f6e206661696c65640000000000000000000000000000000000600082015250565b7f596f752073686f756c642061746c65617374207374616b6520666f722061206d60008201527f6f6e747900000000000000000000000000000000000000000000000000000000602082015250565b7f4469766973696f6e206661696c64000000000000000000000000000000000000600082015250565b7f446f65736e2774206861766520656e6f7567682062616c616e636520696e207460008201527f68652062616e6b00000000000000000000000000000000000000000000000000602082015250565b7f536f72727920776520646f6e2774206861766520656e6f756768206d6f6e657960008201527f20736f20636f6d656261636b206c617465720000000000000000000000000000602082015250565b7f4d756c7469706c69636174696f6e206661696c64000000000000000000000000600082015250565b61147381611129565b811461147e57600080fd5b50565b61148a81611179565b811461149557600080fd5b5056fea2646970667358221220dde1122587be15baf72867fb86b3fea76a5a5af769b9e072fa08291b65a707e664736f6c63430008070033",
					"opcodes": "PUSH1 0x80 PUSH1 0x40 MSTORE PUSH8 0xDE0B6B3A7640000 PUSH1 0x0 SSTORE CALLVALUE DUP1 ISZERO PUSH3 0x1D JUMPI PUSH1 0x0 DUP1 REVERT JUMPDEST POP CALLER PUSH1 0x1 PUSH1 0x0 PUSH2 0x100 EXP DUP2 SLOAD DUP2 PUSH20 0xFFFFFFFFFFFFFFFFFFFFFFFFFFFFFFFFFFFFFFFF MUL NOT AND SWAP1 DUP4 PUSH20 0xFFFFFFFFFFFFFFFFFFFFFFFFFFFFFFFFFFFFFFFF AND MUL OR SWAP1 SSTORE POP PUSH32 0xF67E7992D539193FC243C42FE89F8FAB49013E8E4FB18CFA891DC51ADCACCC80 CALLER PUSH1 0x40 MLOAD PUSH3 0x90 SWAP2 SWAP1 PUSH3 0xD6 JUMP JUMPDEST PUSH1 0x40 MLOAD DUP1 SWAP2 SUB SWAP1 LOG1 PUSH3 0x176 JUMP JUMPDEST PUSH3 0xA9 DUP2 PUSH3 0x119 JUMP JUMPDEST DUP3 MSTORE POP POP JUMP JUMPDEST PUSH1 0x0 PUSH3 0xBE PUSH1 0x14 DUP4 PUSH3 0x108 JUMP JUMPDEST SWAP2 POP PUSH3 0xCB DUP3 PUSH3 0x14D JUMP JUMPDEST PUSH1 0x20 DUP3 ADD SWAP1 POP SWAP2 SWAP1 POP JUMP JUMPDEST PUSH1 0x0 PUSH1 0x40 DUP3 ADD SWAP1 POP DUP2 DUP2 SUB PUSH1 0x0 DUP4 ADD MSTORE PUSH3 0xF1 DUP2 PUSH3 0xAF JUMP JUMPDEST SWAP1 POP PUSH3 0x102 PUSH1 0x20 DUP4 ADD DUP5 PUSH3 0x9E JUMP JUMPDEST SWAP3 SWAP2 POP POP JUMP JUMPDEST PUSH1 0x0 DUP3 DUP3 MSTORE PUSH1 0x20 DUP3 ADD SWAP1 POP SWAP3 SWAP2 POP POP JUMP JUMPDEST PUSH1 0x0 PUSH3 0x126 DUP3 PUSH3 0x12D JUMP JUMPDEST SWAP1 POP SWAP2 SWAP1 POP JUMP JUMPDEST PUSH1 0x0 PUSH20 0xFFFFFFFFFFFFFFFFFFFFFFFFFFFFFFFFFFFFFFFF DUP3 AND SWAP1 POP SWAP2 SWAP1 POP JUMP JUMPDEST PUSH32 0x4C656E64696E6720706F6F6C2063726561746564000000000000000000000000 PUSH1 0x0 DUP3 ADD MSTORE POP JUMP JUMPDEST PUSH2 0x14CE DUP1 PUSH3 0x186 PUSH1 0x0 CODECOPY PUSH1 0x0 RETURN INVALID PUSH1 0x80 PUSH1 0x40 MSTORE PUSH1 0x4 CALLDATASIZE LT PUSH2 0xA0 JUMPI PUSH1 0x0 CALLDATALOAD PUSH1 0xE0 SHR DUP1 PUSH4 0x8DA5CB5B GT PUSH2 0x64 JUMPI DUP1 PUSH4 0x8DA5CB5B EQ PUSH2 0x15B JUMPI DUP1 PUSH4 0xA464D265 EQ PUSH2 0x186 JUMPI DUP1 PUSH4 0xAEAE177C EQ PUSH2 0x1B1 JUMPI DUP1 PUSH4 0xC02B2092 EQ PUSH2 0x1EE JUMPI DUP1 PUSH4 0xD0E30DB0 EQ PUSH2 0x22B JUMPI DUP1 PUSH4 0xF9931855 EQ PUSH2 0x235 JUMPI PUSH2 0xA7 JUMP JUMPDEST DUP1 PUSH4 0x3607999B EQ PUSH2 0xA9 JUMPI DUP1 PUSH4 0x56852391 EQ PUSH2 0xC5 JUMPI DUP1 PUSH4 0x650FAD76 EQ PUSH2 0xDC JUMPI DUP1 PUSH4 0x6E0E0DA2 EQ PUSH2 0x107 JUMPI DUP1 PUSH4 0x6E1DC66E EQ PUSH2 0x11E JUMPI PUSH2 0xA7 JUMP JUMPDEST CALLDATASIZE PUSH2 0xA7 JUMPI STOP JUMPDEST STOP JUMPDEST PUSH2 0xC3 PUSH1 0x4 DUP1 CALLDATASIZE SUB DUP2 ADD SWAP1 PUSH2 0xBE SWAP2 SWAP1 PUSH2 0xBDB JUMP JUMPDEST PUSH2 0x272 JUMP JUMPDEST STOP JUMPDEST CALLVALUE DUP1 ISZERO PUSH2 0xD1 JUMPI PUSH1 0x0 DUP1 REVERT JUMPDEST POP PUSH2 0xDA PUSH2 0x3A2 JUMP JUMPDEST STOP JUMPDEST CALLVALUE DUP1 ISZERO PUSH2 0xE8 JUMPI PUSH1 0x0 DUP1 REVERT JUMPDEST POP PUSH2 0xF1 PUSH2 0x4F7 JUMP JUMPDEST PUSH1 0x40 MLOAD PUSH2 0xFE SWAP2 SWAP1 PUSH2 0xFE8 JUMP JUMPDEST PUSH1 0x40 MLOAD DUP1 SWAP2 SUB SWAP1 RETURN JUMPDEST CALLVALUE DUP1 ISZERO PUSH2 0x113 JUMPI PUSH1 0x0 DUP1 REVERT JUMPDEST POP PUSH2 0x11C PUSH2 0x4FD JUMP JUMPDEST STOP JUMPDEST CALLVALUE DUP1 ISZERO PUSH2 0x12A JUMPI PUSH1 0x0 DUP1 REVERT JUMPDEST POP PUSH2 0x145 PUSH1 0x4 DUP1 CALLDATASIZE SUB DUP2 ADD SWAP1 PUSH2 0x140 SWAP2 SWAP1 PUSH2 0xBAE JUMP JUMPDEST PUSH2 0x7E6 JUMP JUMPDEST PUSH1 0x40 MLOAD PUSH2 0x152 SWAP2 SWAP1 PUSH2 0xFE8 JUMP JUMPDEST PUSH1 0x40 MLOAD DUP1 SWAP2 SUB SWAP1 RETURN JUMPDEST CALLVALUE DUP1 ISZERO PUSH2 0x167 JUMPI PUSH1 0x0 DUP1 REVERT JUMPDEST POP PUSH2 0x170 PUSH2 0x7FE JUMP JUMPDEST PUSH1 0x40 MLOAD PUSH2 0x17D SWAP2 SWAP1 PUSH2 0xE16 JUMP JUMPDEST PUSH1 0x40 MLOAD DUP1 SWAP2 SUB SWAP1 RETURN JUMPDEST CALLVALUE DUP1 ISZERO PUSH2 0x192 JUMPI PUSH1 0x0 DUP1 REVERT JUMPDEST POP PUSH2 0x19B PUSH2 0x824 JUMP JUMPDEST PUSH1 0x40 MLOAD PUSH2 0x1A8 SWAP2 SWAP1 PUSH2 0xDFB JUMP JUMPDEST PUSH1 0x40 MLOAD DUP1 SWAP2 SUB SWAP1 RETURN JUMPDEST CALLVALUE DUP1 ISZERO PUSH2 0x1BD JUMPI PUSH1 0x0 DUP1 REVERT JUMPDEST POP PUSH2 0x1D8 PUSH1 0x4 DUP1 CALLDATASIZE SUB DUP2 ADD SWAP1 PUSH2 0x1D3 SWAP2 SWAP1 PUSH2 0xBAE JUMP JUMPDEST PUSH2 0x84A JUMP JUMPDEST PUSH1 0x40 MLOAD PUSH2 0x1E5 SWAP2 SWAP1 PUSH2 0xFE8 JUMP JUMPDEST PUSH1 0x40 MLOAD DUP1 SWAP2 SUB SWAP1 RETURN JUMPDEST CALLVALUE DUP1 ISZERO PUSH2 0x1FA JUMPI PUSH1 0x0 DUP1 REVERT JUMPDEST POP PUSH2 0x215 PUSH1 0x4 DUP1 CALLDATASIZE SUB DUP2 ADD SWAP1 PUSH2 0x210 SWAP2 SWAP1 PUSH2 0xBAE JUMP JUMPDEST PUSH2 0x862 JUMP JUMPDEST PUSH1 0x40 MLOAD PUSH2 0x222 SWAP2 SWAP1 PUSH2 0xE31 JUMP JUMPDEST PUSH1 0x40 MLOAD DUP1 SWAP2 SUB SWAP1 RETURN JUMPDEST PUSH2 0x233 PUSH2 0x882 JUMP JUMPDEST STOP JUMPDEST CALLVALUE DUP1 ISZERO PUSH2 0x241 JUMPI PUSH1 0x0 DUP1 REVERT JUMPDEST POP PUSH2 0x25C PUSH1 0x4 DUP1 CALLDATASIZE SUB DUP2 ADD SWAP1 PUSH2 0x257 SWAP2 SWAP1 PUSH2 0xBAE JUMP JUMPDEST PUSH2 0x9F4 JUMP JUMPDEST PUSH1 0x40 MLOAD PUSH2 0x269 SWAP2 SWAP1 PUSH2 0xFE8 JUMP JUMPDEST PUSH1 0x40 MLOAD DUP1 SWAP2 SUB SWAP1 RETURN JUMPDEST PUSH1 0x2 SLOAD DUP3 GT ISZERO PUSH2 0x2B7 JUMPI PUSH1 0x40 MLOAD PUSH32 0x8C379A000000000000000000000000000000000000000000000000000000000 DUP2 MSTORE PUSH1 0x4 ADD PUSH2 0x2AE SWAP1 PUSH2 0xF88 JUMP JUMPDEST PUSH1 0x40 MLOAD DUP1 SWAP2 SUB SWAP1 REVERT JUMPDEST PUSH2 0x2CC DUP3 PUSH1 0x2 SLOAD PUSH2 0xA0C SWAP1 SWAP2 SWAP1 PUSH4 0xFFFFFFFF AND JUMP JUMPDEST PUSH1 0x2 DUP2 SWAP1 SSTORE POP PUSH2 0x324 DUP3 PUSH1 0x7 PUSH1 0x0 DUP5 PUSH20 0xFFFFFFFFFFFFFFFFFFFFFFFFFFFFFFFFFFFFFFFF AND PUSH20 0xFFFFFFFFFFFFFFFFFFFFFFFFFFFFFFFFFFFFFFFF AND DUP2 MSTORE PUSH1 0x20 ADD SWAP1 DUP2 MSTORE PUSH1 0x20 ADD PUSH1 0x0 KECCAK256 SLOAD PUSH2 0xA65 SWAP1 SWAP2 SWAP1 PUSH4 0xFFFFFFFF AND JUMP JUMPDEST PUSH1 0x7 PUSH1 0x0 DUP4 PUSH20 0xFFFFFFFFFFFFFFFFFFFFFFFFFFFFFFFFFFFFFFFF AND PUSH20 0xFFFFFFFFFFFFFFFFFFFFFFFFFFFFFFFFFFFFFFFF AND DUP2 MSTORE PUSH1 0x20 ADD SWAP1 DUP2 MSTORE PUSH1 0x20 ADD PUSH1 0x0 KECCAK256 DUP2 SWAP1 SSTORE POP PUSH32 0xF67E7992D539193FC243C42FE89F8FAB49013E8E4FB18CFA891DC51ADCACCC80 DUP2 PUSH1 0x40 MLOAD PUSH2 0x396 SWAP2 SWAP1 PUSH2 0xE4C JUMP JUMPDEST PUSH1 0x40 MLOAD DUP1 SWAP2 SUB SWAP1 LOG1 POP POP JUMP JUMPDEST PUSH1 0x0 PUSH1 0x7 PUSH1 0x0 CALLER PUSH20 0xFFFFFFFFFFFFFFFFFFFFFFFFFFFFFFFFFFFFFFFF AND PUSH20 0xFFFFFFFFFFFFFFFFFFFFFFFFFFFFFFFFFFFFFFFF AND DUP2 MSTORE PUSH1 0x20 ADD SWAP1 DUP2 MSTORE PUSH1 0x20 ADD PUSH1 0x0 KECCAK256 SLOAD GT PUSH2 0x424 JUMPI PUSH1 0x40 MLOAD PUSH32 0x8C379A000000000000000000000000000000000000000000000000000000000 DUP2 MSTORE PUSH1 0x4 ADD PUSH2 0x41B SWAP1 PUSH2 0xEBA JUMP JUMPDEST PUSH1 0x40 MLOAD DUP1 SWAP2 SUB SWAP1 REVERT JUMPDEST PUSH1 0x0 PUSH1 0x7 PUSH1 0x0 CALLER PUSH20 0xFFFFFFFFFFFFFFFFFFFFFFFFFFFFFFFFFFFFFFFF AND PUSH20 0xFFFFFFFFFFFFFFFFFFFFFFFFFFFFFFFFFFFFFFFF AND DUP2 MSTORE PUSH1 0x20 ADD SWAP1 DUP2 MSTORE PUSH1 0x20 ADD PUSH1 0x0 KECCAK256 SLOAD SWAP1 POP PUSH1 0x0 PUSH1 0x7 PUSH1 0x0 CALLER PUSH20 0xFFFFFFFFFFFFFFFFFFFFFFFFFFFFFFFFFFFFFFFF AND PUSH20 0xFFFFFFFFFFFFFFFFFFFFFFFFFFFFFFFFFFFFFFFF AND DUP2 MSTORE PUSH1 0x20 ADD SWAP1 DUP2 MSTORE PUSH1 0x20 ADD PUSH1 0x0 KECCAK256 DUP2 SWAP1 SSTORE POP CALLER PUSH20 0xFFFFFFFFFFFFFFFFFFFFFFFFFFFFFFFFFFFFFFFF AND PUSH2 0x8FC DUP3 SWAP1 DUP2 ISZERO MUL SWAP1 PUSH1 0x40 MLOAD PUSH1 0x0 PUSH1 0x40 MLOAD DUP1 DUP4 SUB DUP2 DUP6 DUP9 DUP9 CALL SWAP4 POP POP POP POP ISZERO DUP1 ISZERO PUSH2 0x4F3 JUMPI RETURNDATASIZE PUSH1 0x0 DUP1 RETURNDATACOPY RETURNDATASIZE PUSH1 0x0 REVERT JUMPDEST POP POP JUMP JUMPDEST PUSH1 0x0 SLOAD DUP2 JUMP JUMPDEST PUSH1 0x0 PUSH1 0x6 PUSH1 0x0 CALLER PUSH20 0xFFFFFFFFFFFFFFFFFFFFFFFFFFFFFFFFFFFFFFFF AND PUSH20 0xFFFFFFFFFFFFFFFFFFFFFFFFFFFFFFFFFFFFFFFF AND DUP2 MSTORE PUSH1 0x20 ADD SWAP1 DUP2 MSTORE PUSH1 0x20 ADD PUSH1 0x0 KECCAK256 SLOAD GT PUSH2 0x57F JUMPI PUSH1 0x40 MLOAD PUSH32 0x8C379A000000000000000000000000000000000000000000000000000000000 DUP2 MSTORE PUSH1 0x4 ADD PUSH2 0x576 SWAP1 PUSH2 0xE7A JUMP JUMPDEST PUSH1 0x40 MLOAD DUP1 SWAP2 SUB SWAP1 REVERT JUMPDEST PUSH1 0x0 PUSH2 0x5E1 PUSH3 0x15180 TIMESTAMP PUSH1 0x5 PUSH1 0x0 CALLER PUSH20 0xFFFFFFFFFFFFFFFFFFFFFFFFFFFFFFFFFFFFFFFF AND PUSH20 0xFFFFFFFFFFFFFFFFFFFFFFFFFFFFFFFFFFFFFFFF AND DUP2 MSTORE PUSH1 0x20 ADD SWAP1 DUP2 MSTORE PUSH1 0x20 ADD PUSH1 0x0 KECCAK256 SLOAD PUSH2 0x5D3 SWAP2 SWAP1 PUSH2 0x10F5 JUMP JUMPDEST PUSH2 0xABE SWAP1 SWAP2 SWAP1 PUSH4 0xFFFFFFFF AND JUMP JUMPDEST SWAP1 POP PUSH3 0x278D00 DUP2 GT PUSH2 0x628 JUMPI PUSH1 0x40 MLOAD PUSH32 0x8C379A000000000000000000000000000000000000000000000000000000000 DUP2 MSTORE PUSH1 0x4 ADD PUSH2 0x61F SWAP1 PUSH2 0xF48 JUMP JUMPDEST PUSH1 0x40 MLOAD DUP1 SWAP2 SUB SWAP1 REVERT JUMPDEST PUSH1 0x0 PUSH2 0x6A2 PUSH1 0x64 PUSH2 0x694 PUSH1 0x6 PUSH1 0x0 CALLER PUSH20 0xFFFFFFFFFFFFFFFFFFFFFFFFFFFFFFFFFFFFFFFF AND PUSH20 0xFFFFFFFFFFFFFFFFFFFFFFFFFFFFFFFFFFFFFFFF AND DUP2 MSTORE PUSH1 0x20 ADD SWAP1 DUP2 MSTORE PUSH1 0x20 ADD PUSH1 0x0 KECCAK256 SLOAD PUSH2 0x686 PUSH1 0x5 DUP8 PUSH2 0xB16 SWAP1 SWAP2 SWAP1 PUSH4 0xFFFFFFFF AND JUMP JUMPDEST PUSH2 0xB16 SWAP1 SWAP2 SWAP1 PUSH4 0xFFFFFFFF AND JUMP JUMPDEST PUSH2 0xABE SWAP1 SWAP2 SWAP1 PUSH4 0xFFFFFFFF AND JUMP JUMPDEST PUSH1 0x6 PUSH1 0x0 CALLER PUSH20 0xFFFFFFFFFFFFFFFFFFFFFFFFFFFFFFFFFFFFFFFF AND PUSH20 0xFFFFFFFFFFFFFFFFFFFFFFFFFFFFFFFFFFFFFFFF AND DUP2 MSTORE PUSH1 0x20 ADD SWAP1 DUP2 MSTORE PUSH1 0x20 ADD PUSH1 0x0 KECCAK256 SLOAD PUSH2 0x6EC SWAP2 SWAP1 PUSH2 0x1014 JUMP JUMPDEST SWAP1 POP PUSH1 0x2 SLOAD DUP2 LT PUSH2 0x732 JUMPI PUSH1 0x40 MLOAD PUSH32 0x8C379A000000000000000000000000000000000000000000000000000000000 DUP2 MSTORE PUSH1 0x4 ADD PUSH2 0x729 SWAP1 PUSH2 0xFA8 JUMP JUMPDEST PUSH1 0x40 MLOAD DUP1 SWAP2 SUB SWAP1 REVERT JUMPDEST PUSH2 0x747 DUP2 PUSH1 0x2 SLOAD PUSH2 0xA0C SWAP1 SWAP2 SWAP1 PUSH4 0xFFFFFFFF AND JUMP JUMPDEST PUSH1 0x2 DUP2 SWAP1 SSTORE POP PUSH2 0x79F DUP2 PUSH1 0x7 PUSH1 0x0 CALLER PUSH20 0xFFFFFFFFFFFFFFFFFFFFFFFFFFFFFFFFFFFFFFFF AND PUSH20 0xFFFFFFFFFFFFFFFFFFFFFFFFFFFFFFFFFFFFFFFF AND DUP2 MSTORE PUSH1 0x20 ADD SWAP1 DUP2 MSTORE PUSH1 0x20 ADD PUSH1 0x0 KECCAK256 SLOAD PUSH2 0xA65 SWAP1 SWAP2 SWAP1 PUSH4 0xFFFFFFFF AND JUMP JUMPDEST PUSH1 0x7 PUSH1 0x0 CALLER PUSH20 0xFFFFFFFFFFFFFFFFFFFFFFFFFFFFFFFFFFFFFFFF AND PUSH20 0xFFFFFFFFFFFFFFFFFFFFFFFFFFFFFFFFFFFFFFFF AND DUP2 MSTORE PUSH1 0x20 ADD SWAP1 DUP2 MSTORE PUSH1 0x20 ADD PUSH1 0x0 KECCAK256 DUP2 SWAP1 SSTORE POP POP POP JUMP JUMPDEST PUSH1 0x5 PUSH1 0x20 MSTORE DUP1 PUSH1 0x0 MSTORE PUSH1 0x40 PUSH1 0x0 KECCAK256 PUSH1 0x0 SWAP2 POP SWAP1 POP SLOAD DUP2 JUMP JUMPDEST PUSH1 0x1 PUSH1 0x0 SWAP1 SLOAD SWAP1 PUSH2 0x100 EXP SWAP1 DIV PUSH20 0xFFFFFFFFFFFFFFFFFFFFFFFFFFFFFFFFFFFFFFFF AND DUP2 JUMP JUMPDEST PUSH1 0x3 PUSH1 0x0 SWAP1 SLOAD SWAP1 PUSH2 0x100 EXP SWAP1 DIV PUSH20 0xFFFFFFFFFFFFFFFFFFFFFFFFFFFFFFFFFFFFFFFF AND DUP2 JUMP JUMPDEST PUSH1 0x7 PUSH1 0x20 MSTORE DUP1 PUSH1 0x0 MSTORE PUSH1 0x40 PUSH1 0x0 KECCAK256 PUSH1 0x0 SWAP2 POP SWAP1 POP SLOAD DUP2 JUMP JUMPDEST PUSH1 0x8 PUSH1 0x20 MSTORE DUP1 PUSH1 0x0 MSTORE PUSH1 0x40 PUSH1 0x0 KECCAK256 PUSH1 0x0 SWAP2 POP SLOAD SWAP1 PUSH2 0x100 EXP SWAP1 DIV PUSH1 0xFF AND DUP2 JUMP JUMPDEST PUSH1 0x0 SLOAD CALLVALUE LT ISZERO PUSH2 0x8C7 JUMPI PUSH1 0x40 MLOAD PUSH32 0x8C379A000000000000000000000000000000000000000000000000000000000 DUP2 MSTORE PUSH1 0x4 ADD PUSH2 0x8BE SWAP1 PUSH2 0xE9A JUMP JUMPDEST PUSH1 0x40 MLOAD DUP1 SWAP2 SUB SWAP1 REVERT JUMPDEST TIMESTAMP PUSH1 0x5 PUSH1 0x0 CALLER PUSH20 0xFFFFFFFFFFFFFFFFFFFFFFFFFFFFFFFFFFFFFFFF AND PUSH20 0xFFFFFFFFFFFFFFFFFFFFFFFFFFFFFFFFFFFFFFFF AND DUP2 MSTORE PUSH1 0x20 ADD SWAP1 DUP2 MSTORE PUSH1 0x20 ADD PUSH1 0x0 KECCAK256 DUP2 SWAP1 SSTORE POP PUSH2 0x95D CALLVALUE PUSH1 0x6 PUSH1 0x0 CALLER PUSH20 0xFFFFFFFFFFFFFFFFFFFFFFFFFFFFFFFFFFFFFFFF AND PUSH20 0xFFFFFFFFFFFFFFFFFFFFFFFFFFFFFFFFFFFFFFFF AND DUP2 MSTORE PUSH1 0x20 ADD SWAP1 DUP2 MSTORE PUSH1 0x20 ADD PUSH1 0x0 KECCAK256 SLOAD PUSH2 0xA65 SWAP1 SWAP2 SWAP1 PUSH4 0xFFFFFFFF AND JUMP JUMPDEST PUSH1 0x6 PUSH1 0x0 CALLER PUSH20 0xFFFFFFFFFFFFFFFFFFFFFFFFFFFFFFFFFFFFFFFF AND PUSH20 0xFFFFFFFFFFFFFFFFFFFFFFFFFFFFFFFFFFFFFFFF AND DUP2 MSTORE PUSH1 0x20 ADD SWAP1 DUP2 MSTORE PUSH1 0x20 ADD PUSH1 0x0 KECCAK256 DUP2 SWAP1 SSTORE POP PUSH2 0x9B5 CALLVALUE PUSH1 0x2 SLOAD PUSH2 0xA65 SWAP1 SWAP2 SWAP1 PUSH4 0xFFFFFFFF AND JUMP JUMPDEST PUSH1 0x2 DUP2 SWAP1 SSTORE POP PUSH32 0xF67E7992D539193FC243C42FE89F8FAB49013E8E4FB18CFA891DC51ADCACCC80 CALLER PUSH1 0x40 MLOAD PUSH2 0x9EA SWAP2 SWAP1 PUSH2 0xEDA JUMP JUMPDEST PUSH1 0x40 MLOAD DUP1 SWAP2 SUB SWAP1 LOG1 JUMP JUMPDEST PUSH1 0x6 PUSH1 0x20 MSTORE DUP1 PUSH1 0x0 MSTORE PUSH1 0x40 PUSH1 0x0 KECCAK256 PUSH1 0x0 SWAP2 POP SWAP1 POP SLOAD DUP2 JUMP JUMPDEST PUSH1 0x0 DUP3 DUP3 GT ISZERO PUSH2 0xA51 JUMPI PUSH1 0x40 MLOAD PUSH32 0x8C379A000000000000000000000000000000000000000000000000000000000 DUP2 MSTORE PUSH1 0x4 ADD PUSH2 0xA48 SWAP1 PUSH2 0xF08 JUMP JUMPDEST PUSH1 0x40 MLOAD DUP1 SWAP2 SUB SWAP1 REVERT JUMPDEST DUP2 DUP4 PUSH2 0xA5D SWAP2 SWAP1 PUSH2 0x10F5 JUMP JUMPDEST SWAP1 POP SWAP3 SWAP2 POP POP JUMP JUMPDEST PUSH1 0x0 DUP2 DUP4 PUSH2 0xA73 SWAP2 SWAP1 PUSH2 0x1014 JUMP JUMPDEST SWAP1 POP DUP3 DUP2 LT ISZERO PUSH2 0xAB8 JUMPI PUSH1 0x40 MLOAD PUSH32 0x8C379A000000000000000000000000000000000000000000000000000000000 DUP2 MSTORE PUSH1 0x4 ADD PUSH2 0xAAF SWAP1 PUSH2 0xF28 JUMP JUMPDEST PUSH1 0x40 MLOAD DUP1 SWAP2 SUB SWAP1 REVERT JUMPDEST SWAP3 SWAP2 POP POP JUMP JUMPDEST PUSH1 0x0 DUP1 DUP3 GT PUSH2 0xB02 JUMPI PUSH1 0x40 MLOAD PUSH32 0x8C379A000000000000000000000000000000000000000000000000000000000 DUP2 MSTORE PUSH1 0x4 ADD PUSH2 0xAF9 SWAP1 PUSH2 0xF68 JUMP JUMPDEST PUSH1 0x40 MLOAD DUP1 SWAP2 SUB SWAP1 REVERT JUMPDEST DUP2 DUP4 PUSH2 0xB0E SWAP2 SWAP1 PUSH2 0x106A JUMP JUMPDEST SWAP1 POP SWAP3 SWAP2 POP POP JUMP JUMPDEST PUSH1 0x0 DUP2 DUP4 PUSH2 0xB24 SWAP2 SWAP1 PUSH2 0x109B JUMP JUMPDEST SWAP1 POP PUSH1 0x0 DUP4 EQ DUP1 PUSH2 0xB3F JUMPI POP DUP2 DUP4 DUP3 PUSH2 0xB3D SWAP2 SWAP1 PUSH2 0x106A JUMP JUMPDEST EQ JUMPDEST PUSH2 0xB7E JUMPI PUSH1 0x40 MLOAD PUSH32 0x8C379A000000000000000000000000000000000000000000000000000000000 DUP2 MSTORE PUSH1 0x4 ADD PUSH2 0xB75 SWAP1 PUSH2 0xFC8 JUMP JUMPDEST PUSH1 0x40 MLOAD DUP1 SWAP2 SUB SWAP1 REVERT JUMPDEST SWAP3 SWAP2 POP POP JUMP JUMPDEST PUSH1 0x0 DUP2 CALLDATALOAD SWAP1 POP PUSH2 0xB93 DUP2 PUSH2 0x146A JUMP JUMPDEST SWAP3 SWAP2 POP POP JUMP JUMPDEST PUSH1 0x0 DUP2 CALLDATALOAD SWAP1 POP PUSH2 0xBA8 DUP2 PUSH2 0x1481 JUMP JUMPDEST SWAP3 SWAP2 POP POP JUMP JUMPDEST PUSH1 0x0 PUSH1 0x20 DUP3 DUP5 SUB SLT ISZERO PUSH2 0xBC4 JUMPI PUSH2 0xBC3 PUSH2 0x11E1 JUMP JUMPDEST JUMPDEST PUSH1 0x0 PUSH2 0xBD2 DUP5 DUP3 DUP6 ADD PUSH2 0xB84 JUMP JUMPDEST SWAP2 POP POP SWAP3 SWAP2 POP POP JUMP JUMPDEST PUSH1 0x0 DUP1 PUSH1 0x40 DUP4 DUP6 SUB SLT ISZERO PUSH2 0xBF2 JUMPI PUSH2 0xBF1 PUSH2 0x11E1 JUMP JUMPDEST JUMPDEST PUSH1 0x0 PUSH2 0xC00 DUP6 DUP3 DUP7 ADD PUSH2 0xB99 JUMP JUMPDEST SWAP3 POP POP PUSH1 0x20 PUSH2 0xC11 DUP6 DUP3 DUP7 ADD PUSH2 0xB84 JUMP JUMPDEST SWAP2 POP POP SWAP3 POP SWAP3 SWAP1 POP JUMP JUMPDEST PUSH2 0xC24 DUP2 PUSH2 0x113B JUMP JUMPDEST DUP3 MSTORE POP POP JUMP JUMPDEST PUSH2 0xC33 DUP2 PUSH2 0x1129 JUMP JUMPDEST DUP3 MSTORE POP POP JUMP JUMPDEST PUSH2 0xC42 DUP2 PUSH2 0x114D JUMP JUMPDEST DUP3 MSTORE POP POP JUMP JUMPDEST PUSH1 0x0 PUSH2 0xC55 PUSH1 0x13 DUP4 PUSH2 0x1003 JUMP JUMPDEST SWAP2 POP PUSH2 0xC60 DUP3 PUSH2 0x11E6 JUMP JUMPDEST PUSH1 0x20 DUP3 ADD SWAP1 POP SWAP2 SWAP1 POP JUMP JUMPDEST PUSH1 0x0 PUSH2 0xC78 PUSH1 0x20 DUP4 PUSH2 0x1003 JUMP JUMPDEST SWAP2 POP PUSH2 0xC83 DUP3 PUSH2 0x120F JUMP JUMPDEST PUSH1 0x20 DUP3 ADD SWAP1 POP SWAP2 SWAP1 POP JUMP JUMPDEST PUSH1 0x0 PUSH2 0xC9B PUSH1 0x18 DUP4 PUSH2 0x1003 JUMP JUMPDEST SWAP2 POP PUSH2 0xCA6 DUP3 PUSH2 0x1238 JUMP JUMPDEST PUSH1 0x20 DUP3 ADD SWAP1 POP SWAP2 SWAP1 POP JUMP JUMPDEST PUSH1 0x0 PUSH2 0xCBE PUSH1 0x24 DUP4 PUSH2 0x1003 JUMP JUMPDEST SWAP2 POP PUSH2 0xCC9 DUP3 PUSH2 0x1261 JUMP JUMPDEST PUSH1 0x40 DUP3 ADD SWAP1 POP SWAP2 SWAP1 POP JUMP JUMPDEST PUSH1 0x0 PUSH2 0xCE1 PUSH1 0x6 DUP4 PUSH2 0x1003 JUMP JUMPDEST SWAP2 POP PUSH2 0xCEC DUP3 PUSH2 0x12B0 JUMP JUMPDEST PUSH1 0x20 DUP3 ADD SWAP1 POP SWAP2 SWAP1 POP JUMP JUMPDEST PUSH1 0x0 PUSH2 0xD04 PUSH1 0x12 DUP4 PUSH2 0x1003 JUMP JUMPDEST SWAP2 POP PUSH2 0xD0F DUP3 PUSH2 0x12D9 JUMP JUMPDEST PUSH1 0x20 DUP3 ADD SWAP1 POP SWAP2 SWAP1 POP JUMP JUMPDEST PUSH1 0x0 PUSH2 0xD27 PUSH1 0xF DUP4 PUSH2 0x1003 JUMP JUMPDEST SWAP2 POP PUSH2 0xD32 DUP3 PUSH2 0x1302 JUMP JUMPDEST PUSH1 0x20 DUP3 ADD SWAP1 POP SWAP2 SWAP1 POP JUMP JUMPDEST PUSH1 0x0 PUSH2 0xD4A PUSH1 0x24 DUP4 PUSH2 0x1003 JUMP JUMPDEST SWAP2 POP PUSH2 0xD55 DUP3 PUSH2 0x132B JUMP JUMPDEST PUSH1 0x40 DUP3 ADD SWAP1 POP SWAP2 SWAP1 POP JUMP JUMPDEST PUSH1 0x0 PUSH2 0xD6D PUSH1 0xE DUP4 PUSH2 0x1003 JUMP JUMPDEST SWAP2 POP PUSH2 0xD78 DUP3 PUSH2 0x137A JUMP JUMPDEST PUSH1 0x20 DUP3 ADD SWAP1 POP SWAP2 SWAP1 POP JUMP JUMPDEST PUSH1 0x0 PUSH2 0xD90 PUSH1 0x27 DUP4 PUSH2 0x1003 JUMP JUMPDEST SWAP2 POP PUSH2 0xD9B DUP3 PUSH2 0x13A3 JUMP JUMPDEST PUSH1 0x40 DUP3 ADD SWAP1 POP SWAP2 SWAP1 POP JUMP JUMPDEST PUSH1 0x0 PUSH2 0xDB3 PUSH1 0x32 DUP4 PUSH2 0x1003 JUMP JUMPDEST SWAP2 POP PUSH2 0xDBE DUP3 PUSH2 0x13F2 JUMP JUMPDEST PUSH1 0x40 DUP3 ADD SWAP1 POP SWAP2 SWAP1 POP JUMP JUMPDEST PUSH1 0x0 PUSH2 0xDD6 PUSH1 0x14 DUP4 PUSH2 0x1003 JUMP JUMPDEST SWAP2 POP PUSH2 0xDE1 DUP3 PUSH2 0x1441 JUMP JUMPDEST PUSH1 0x20 DUP3 ADD SWAP1 POP SWAP2 SWAP1 POP JUMP JUMPDEST PUSH2 0xDF5 DUP2 PUSH2 0x1179 JUMP JUMPDEST DUP3 MSTORE POP POP JUMP JUMPDEST PUSH1 0x0 PUSH1 0x20 DUP3 ADD SWAP1 POP PUSH2 0xE10 PUSH1 0x0 DUP4 ADD DUP5 PUSH2 0xC2A JUMP JUMPDEST SWAP3 SWAP2 POP POP JUMP JUMPDEST PUSH1 0x0 PUSH1 0x20 DUP3 ADD SWAP1 POP PUSH2 0xE2B PUSH1 0x0 DUP4 ADD DUP5 PUSH2 0xC1B JUMP JUMPDEST SWAP3 SWAP2 POP POP JUMP JUMPDEST PUSH1 0x0 PUSH1 0x20 DUP3 ADD SWAP1 POP PUSH2 0xE46 PUSH1 0x0 DUP4 ADD DUP5 PUSH2 0xC39 JUMP JUMPDEST SWAP3 SWAP2 POP POP JUMP JUMPDEST PUSH1 0x0 PUSH1 0x40 DUP3 ADD SWAP1 POP DUP2 DUP2 SUB PUSH1 0x0 DUP4 ADD MSTORE PUSH2 0xE65 DUP2 PUSH2 0xC48 JUMP JUMPDEST SWAP1 POP PUSH2 0xE74 PUSH1 0x20 DUP4 ADD DUP5 PUSH2 0xC2A JUMP JUMPDEST SWAP3 SWAP2 POP POP JUMP JUMPDEST PUSH1 0x0 PUSH1 0x20 DUP3 ADD SWAP1 POP DUP2 DUP2 SUB PUSH1 0x0 DUP4 ADD MSTORE PUSH2 0xE93 DUP2 PUSH2 0xC6B JUMP JUMPDEST SWAP1 POP SWAP2 SWAP1 POP JUMP JUMPDEST PUSH1 0x0 PUSH1 0x20 DUP3 ADD SWAP1 POP DUP2 DUP2 SUB PUSH1 0x0 DUP4 ADD MSTORE PUSH2 0xEB3 DUP2 PUSH2 0xC8E JUMP JUMPDEST SWAP1 POP SWAP2 SWAP1 POP JUMP JUMPDEST PUSH1 0x0 PUSH1 0x20 DUP3 ADD SWAP1 POP DUP2 DUP2 SUB PUSH1 0x0 DUP4 ADD MSTORE PUSH2 0xED3 DUP2 PUSH2 0xCB1 JUMP JUMPDEST SWAP1 POP SWAP2 SWAP1 POP JUMP JUMPDEST PUSH1 0x0 PUSH1 0x40 DUP3 ADD SWAP1 POP DUP2 DUP2 SUB PUSH1 0x0 DUP4 ADD MSTORE PUSH2 0xEF3 DUP2 PUSH2 0xCD4 JUMP JUMPDEST SWAP1 POP PUSH2 0xF02 PUSH1 0x20 DUP4 ADD DUP5 PUSH2 0xC2A JUMP JUMPDEST SWAP3 SWAP2 POP POP JUMP JUMPDEST PUSH1 0x0 PUSH1 0x20 DUP3 ADD SWAP1 POP DUP2 DUP2 SUB PUSH1 0x0 DUP4 ADD MSTORE PUSH2 0xF21 DUP2 PUSH2 0xCF7 JUMP JUMPDEST SWAP1 POP SWAP2 SWAP1 POP JUMP JUMPDEST PUSH1 0x0 PUSH1 0x20 DUP3 ADD SWAP1 POP DUP2 DUP2 SUB PUSH1 0x0 DUP4 ADD MSTORE PUSH2 0xF41 DUP2 PUSH2 0xD1A JUMP JUMPDEST SWAP1 POP SWAP2 SWAP1 POP JUMP JUMPDEST PUSH1 0x0 PUSH1 0x20 DUP3 ADD SWAP1 POP DUP2 DUP2 SUB PUSH1 0x0 DUP4 ADD MSTORE PUSH2 0xF61 DUP2 PUSH2 0xD3D JUMP JUMPDEST SWAP1 POP SWAP2 SWAP1 POP JUMP JUMPDEST PUSH1 0x0 PUSH1 0x20 DUP3 ADD SWAP1 POP DUP2 DUP2 SUB PUSH1 0x0 DUP4 ADD MSTORE PUSH2 0xF81 DUP2 PUSH2 0xD60 JUMP JUMPDEST SWAP1 POP SWAP2 SWAP1 POP JUMP JUMPDEST PUSH1 0x0 PUSH1 0x20 DUP3 ADD SWAP1 POP DUP2 DUP2 SUB PUSH1 0x0 DUP4 ADD MSTORE PUSH2 0xFA1 DUP2 PUSH2 0xD83 JUMP JUMPDEST SWAP1 POP SWAP2 SWAP1 POP JUMP JUMPDEST PUSH1 0x0 PUSH1 0x20 DUP3 ADD SWAP1 POP DUP2 DUP2 SUB PUSH1 0x0 DUP4 ADD MSTORE PUSH2 0xFC1 DUP2 PUSH2 0xDA6 JUMP JUMPDEST SWAP1 POP SWAP2 SWAP1 POP JUMP JUMPDEST PUSH1 0x0 PUSH1 0x20 DUP3 ADD SWAP1 POP DUP2 DUP2 SUB PUSH1 0x0 DUP4 ADD MSTORE PUSH2 0xFE1 DUP2 PUSH2 0xDC9 JUMP JUMPDEST SWAP1 POP SWAP2 SWAP1 POP JUMP JUMPDEST PUSH1 0x0 PUSH1 0x20 DUP3 ADD SWAP1 POP PUSH2 0xFFD PUSH1 0x0 DUP4 ADD DUP5 PUSH2 0xDEC JUMP JUMPDEST SWAP3 SWAP2 POP POP JUMP JUMPDEST PUSH1 0x0 DUP3 DUP3 MSTORE PUSH1 0x20 DUP3 ADD SWAP1 POP SWAP3 SWAP2 POP POP JUMP JUMPDEST PUSH1 0x0 PUSH2 0x101F DUP3 PUSH2 0x1179 JUMP JUMPDEST SWAP2 POP PUSH2 0x102A DUP4 PUSH2 0x1179 JUMP JUMPDEST SWAP3 POP DUP3 PUSH32 0xFFFFFFFFFFFFFFFFFFFFFFFFFFFFFFFFFFFFFFFFFFFFFFFFFFFFFFFFFFFFFFFF SUB DUP3 GT ISZERO PUSH2 0x105F JUMPI PUSH2 0x105E PUSH2 0x1183 JUMP JUMPDEST JUMPDEST DUP3 DUP3 ADD SWAP1 POP SWAP3 SWAP2 POP POP JUMP JUMPDEST PUSH1 0x0 PUSH2 0x1075 DUP3 PUSH2 0x1179 JUMP JUMPDEST SWAP2 POP PUSH2 0x1080 DUP4 PUSH2 0x1179 JUMP JUMPDEST SWAP3 POP DUP3 PUSH2 0x1090 JUMPI PUSH2 0x108F PUSH2 0x11B2 JUMP JUMPDEST JUMPDEST DUP3 DUP3 DIV SWAP1 POP SWAP3 SWAP2 POP POP JUMP JUMPDEST PUSH1 0x0 PUSH2 0x10A6 DUP3 PUSH2 0x1179 JUMP JUMPDEST SWAP2 POP PUSH2 0x10B1 DUP4 PUSH2 0x1179 JUMP JUMPDEST SWAP3 POP DUP2 PUSH32 0xFFFFFFFFFFFFFFFFFFFFFFFFFFFFFFFFFFFFFFFFFFFFFFFFFFFFFFFFFFFFFFFF DIV DUP4 GT DUP3 ISZERO ISZERO AND ISZERO PUSH2 0x10EA JUMPI PUSH2 0x10E9 PUSH2 0x1183 JUMP JUMPDEST JUMPDEST DUP3 DUP3 MUL SWAP1 POP SWAP3 SWAP2 POP POP JUMP JUMPDEST PUSH1 0x0 PUSH2 0x1100 DUP3 PUSH2 0x1179 JUMP JUMPDEST SWAP2 POP PUSH2 0x110B DUP4 PUSH2 0x1179 JUMP JUMPDEST SWAP3 POP DUP3 DUP3 LT ISZERO PUSH2 0x111E JUMPI PUSH2 0x111D PUSH2 0x1183 JUMP JUMPDEST JUMPDEST DUP3 DUP3 SUB SWAP1 POP SWAP3 SWAP2 POP POP JUMP JUMPDEST PUSH1 0x0 PUSH2 0x1134 DUP3 PUSH2 0x1159 JUMP JUMPDEST SWAP1 POP SWAP2 SWAP1 POP JUMP JUMPDEST PUSH1 0x0 PUSH2 0x1146 DUP3 PUSH2 0x1159 JUMP JUMPDEST SWAP1 POP SWAP2 SWAP1 POP JUMP JUMPDEST PUSH1 0x0 DUP2 ISZERO ISZERO SWAP1 POP SWAP2 SWAP1 POP JUMP JUMPDEST PUSH1 0x0 PUSH20 0xFFFFFFFFFFFFFFFFFFFFFFFFFFFFFFFFFFFFFFFF DUP3 AND SWAP1 POP SWAP2 SWAP1 POP JUMP JUMPDEST PUSH1 0x0 DUP2 SWAP1 POP SWAP2 SWAP1 POP JUMP JUMPDEST PUSH32 0x4E487B7100000000000000000000000000000000000000000000000000000000 PUSH1 0x0 MSTORE PUSH1 0x11 PUSH1 0x4 MSTORE PUSH1 0x24 PUSH1 0x0 REVERT JUMPDEST PUSH32 0x4E487B7100000000000000000000000000000000000000000000000000000000 PUSH1 0x0 MSTORE PUSH1 0x12 PUSH1 0x4 MSTORE PUSH1 0x24 PUSH1 0x0 REVERT JUMPDEST PUSH1 0x0 DUP1 REVERT JUMPDEST PUSH32 0x4D6F6E6579207769746864726177656E20746F00000000000000000000000000 PUSH1 0x0 DUP3 ADD MSTORE POP JUMP JUMPDEST PUSH32 0x596F7520646F6E2774206861766520616E79206D6F6E657920696E2068657265 PUSH1 0x0 DUP3 ADD MSTORE POP JUMP JUMPDEST PUSH32 0x4D696E696D756D20312045746865722052657175697265640000000000000000 PUSH1 0x0 DUP3 ADD MSTORE POP JUMP JUMPDEST PUSH32 0x596F7520646F6E27742068617665206E6F2070656E64696E6720776974686472 PUSH1 0x0 DUP3 ADD MSTORE PUSH32 0x61776C7300000000000000000000000000000000000000000000000000000000 PUSH1 0x20 DUP3 ADD MSTORE POP JUMP JUMPDEST PUSH32 0x7374616B65640000000000000000000000000000000000000000000000000000 PUSH1 0x0 DUP3 ADD MSTORE POP JUMP JUMPDEST PUSH32 0x537562737472616374696F6E206661696C640000000000000000000000000000 PUSH1 0x0 DUP3 ADD MSTORE POP JUMP JUMPDEST PUSH32 0x4164646974696F6E206661696C65640000000000000000000000000000000000 PUSH1 0x0 DUP3 ADD MSTORE POP JUMP JUMPDEST PUSH32 0x596F752073686F756C642061746C65617374207374616B6520666F722061206D PUSH1 0x0 DUP3 ADD MSTORE PUSH32 0x6F6E747900000000000000000000000000000000000000000000000000000000 PUSH1 0x20 DUP3 ADD MSTORE POP JUMP JUMPDEST PUSH32 0x4469766973696F6E206661696C64000000000000000000000000000000000000 PUSH1 0x0 DUP3 ADD MSTORE POP JUMP JUMPDEST PUSH32 0x446F65736E2774206861766520656E6F7567682062616C616E636520696E2074 PUSH1 0x0 DUP3 ADD MSTORE PUSH32 0x68652062616E6B00000000000000000000000000000000000000000000000000 PUSH1 0x20 DUP3 ADD MSTORE POP JUMP JUMPDEST PUSH32 0x536F72727920776520646F6E2774206861766520656E6F756768206D6F6E6579 PUSH1 0x0 DUP3 ADD MSTORE PUSH32 0x20736F20636F6D656261636B206C617465720000000000000000000000000000 PUSH1 0x20 DUP3 ADD MSTORE POP JUMP JUMPDEST PUSH32 0x4D756C7469706C69636174696F6E206661696C64000000000000000000000000 PUSH1 0x0 DUP3 ADD MSTORE POP JUMP JUMPDEST PUSH2 0x1473 DUP2 PUSH2 0x1129 JUMP JUMPDEST DUP2 EQ PUSH2 0x147E JUMPI PUSH1 0x0 DUP1 REVERT JUMPDEST POP JUMP JUMPDEST PUSH2 0x148A DUP2 PUSH2 0x1179 JUMP JUMPDEST DUP2 EQ PUSH2 0x1495 JUMPI PUSH1 0x0 DUP1 REVERT JUMPDEST POP JUMP INVALID LOG2 PUSH5 0x6970667358 0x22 SLT KECCAK256 0xDD 0xE1 SLT 0x25 DUP8 0xBE ISZERO 0xBA 0xF7 0x28 PUSH8 0xFB86B3FEA76A5A5A 0xF7 PUSH10 0xB9E072FA08291B65A707 0xE6 PUSH5 0x736F6C6343 STOP ADDMOD SMOD STOP CALLER "
				},
				"gasEstimates": {
					"creation": {
						"codeDepositCost": "1065200",
						"executionCost": "49685",
						"totalCost": "1114885"
					},
					"external": {
						"": "196",
						"allowed_pools(address)": "2911",
						"deposit()": "infinite",
						"depositWithdraw()": "infinite",
						"editor()": "2536",
						"gateWithdrawl()": "infinite",
						"lendingWithdraw(uint256,address)": "infinite",
						"minimumAmt()": "2474",
						"owner()": "2514",
						"pendingPayment(address)": "2858",
						"stakedAmount(address)": "2924",
						"startTime(address)": "2903"
					}
				},
				"methodIdentifiers": {
					"allowed_pools(address)": "c02b2092",
					"deposit()": "d0e30db0",
					"depositWithdraw()": "6e0e0da2",
					"editor()": "a464d265",
					"gateWithdrawl()": "56852391",
					"lendingWithdraw(uint256,address)": "3607999b",
					"minimumAmt()": "650fad76",
					"owner()": "8da5cb5b",
					"pendingPayment(address)": "aeae177c",
					"stakedAmount(address)": "f9931855",
					"startTime(address)": "6e1dc66e"
				}
			},
			"userdoc": {
				"kind": "user",
				"methods": {
					"deposit()": {
						"notice": "lenders can deposit money to lending pool"
					},
					"depositWithdraw()": {
						"notice": "notice Stakers can use this function to take out thier money"
					}
				},
				"notice": "Lending pool for Swip3",
				"version": 1
			}
		}
	}
}