{
	"contracts/LendingPool.sol": {
		"LendingPool": {
			"abi": [
				{
					"inputs": [],
					"stateMutability": "nonpayable",
					"type": "constructor"
				},
				{
					"anonymous": false,
					"inputs": [
						{
							"indexed": false,
							"internalType": "string",
							"name": "message",
							"type": "string"
						},
						{
							"indexed": false,
							"internalType": "address",
							"name": "from",
							"type": "address"
						}
					],
					"name": "LendingPoolMessage",
					"type": "event"
				},
				{
					"stateMutability": "payable",
					"type": "fallback"
				},
				{
					"inputs": [
						{
							"internalType": "address",
							"name": "",
							"type": "address"
						}
					],
					"name": "allowed_pools",
					"outputs": [
						{
							"internalType": "bool",
							"name": "",
							"type": "bool"
						}
					],
					"stateMutability": "view",
					"type": "function"
				},
				{
					"inputs": [],
					"name": "deposit",
					"outputs": [],
					"stateMutability": "payable",
					"type": "function"
				},
				{
					"inputs": [],
					"name": "depositWithdraw",
					"outputs": [],
					"stateMutability": "nonpayable",
					"type": "function"
				},
				{
					"inputs": [],
					"name": "editor",
					"outputs": [
						{
							"internalType": "address",
							"name": "",
							"type": "address"
						}
					],
					"stateMutability": "view",
					"type": "function"
				},
				{
					"inputs": [],
					"name": "gateWithdrawl",
					"outputs": [],
					"stateMutability": "nonpayable",
					"type": "function"
				},
				{
					"inputs": [
						{
							"internalType": "uint256",
							"name": "amount",
							"type": "uint256"
						},
						{
							"internalType": "address",
							"name": "to",
							"type": "address"
						}
					],
					"name": "lendingWithdraw",
					"outputs": [],
					"stateMutability": "payable",
					"type": "function"
				},
				{
					"inputs": [],
					"name": "minimumAmt",
					"outputs": [
						{
							"internalType": "uint256",
							"name": "",
							"type": "uint256"
						}
					],
					"stateMutability": "view",
					"type": "function"
				},
				{
					"inputs": [],
					"name": "owner",
					"outputs": [
						{
							"internalType": "address payable",
							"name": "",
							"type": "address"
						}
					],
					"stateMutability": "view",
					"type": "function"
				},
				{
					"inputs": [
						{
							"internalType": "address",
							"name": "",
							"type": "address"
						}
					],
					"name": "pendingPayment",
					"outputs": [
						{
							"internalType": "uint256",
							"name": "",
							"type": "uint256"
						}
					],
					"stateMutability": "view",
					"type": "function"
				},
				{
					"inputs": [
						{
							"internalType": "address",
							"name": "",
							"type": "address"
						}
					],
					"name": "stakedAmount",
					"outputs": [
						{
							"internalType": "uint256",
							"name": "",
							"type": "uint256"
						}
					],
					"stateMutability": "view",
					"type": "function"
				},
				{
					"inputs": [
						{
							"internalType": "address",
							"name": "",
							"type": "address"
						}
					],
					"name": "startTime",
					"outputs": [
						{
							"internalType": "uint256",
							"name": "",
							"type": "uint256"
						}
					],
					"stateMutability": "view",
					"type": "function"
				},
				{
					"inputs": [
						{
							"internalType": "address",
							"name": "new_editor",
							"type": "address"
						}
					],
					"name": "updateEditor",
					"outputs": [],
					"stateMutability": "nonpayable",
					"type": "function"
				},
				{
					"stateMutability": "payable",
					"type": "receive"
				}
			],
			"devdoc": {
				"author": "Hileamlak Yitayew, Matt Tengtrakool",
				"details": "need help review ",
				"kind": "dev",
				"methods": {},
				"title": "LendingPool ",
				"version": 1
			},
			"evm": {
				"assembly": "    /* \"contracts/LendingPool.sol\":219:3331  contract LendingPool  {... */\n  mstore(0x40, 0x80)\n    /* \"contracts/LendingPool.sol\":309:316  1 ether */\n  0x0de0b6b3a7640000\n    /* \"contracts/LendingPool.sol\":281:316  uint256 public minimumAmt = 1 ether */\n  0x00\n  sstore\n    /* \"contracts/LendingPool.sol\":748:875  constructor() {... */\n  callvalue\n  dup1\n  iszero\n  tag_1\n  jumpi\n  0x00\n  dup1\n  revert\ntag_1:\n  pop\n    /* \"contracts/LendingPool.sol\":788:798  msg.sender */\n  caller\n    /* \"contracts/LendingPool.sol\":772:777  owner */\n  0x01\n  0x00\n    /* \"contracts/LendingPool.sol\":772:799  owner = payable(msg.sender) */\n  0x0100\n  exp\n  dup2\n  sload\n  dup2\n  0xffffffffffffffffffffffffffffffffffffffff\n  mul\n  not\n  and\n  swap1\n  dup4\n  0xffffffffffffffffffffffffffffffffffffffff\n  and\n  mul\n  or\n  swap1\n  sstore\n  pop\n    /* \"contracts/LendingPool.sol\":814:868  LendingPoolMessage(\"Lending pool created\", msg.sender) */\n  0xf67e7992d539193fc243c42fe89f8fab49013e8e4fb18cfa891dc51adcaccc80\n    /* \"contracts/LendingPool.sol\":857:867  msg.sender */\n  caller\n    /* \"contracts/LendingPool.sol\":814:868  LendingPoolMessage(\"Lending pool created\", msg.sender) */\n  mload(0x40)\n  tag_4\n  swap2\n  swap1\n  tag_5\n  jump\t// in\ntag_4:\n  mload(0x40)\n  dup1\n  swap2\n  sub\n  swap1\n  log1\n    /* \"contracts/LendingPool.sol\":219:3331  contract LendingPool  {... */\n  jump(tag_6)\n    /* \"#utility.yul\":7:125   */\ntag_8:\n    /* \"#utility.yul\":94:118   */\n  tag_10\n    /* \"#utility.yul\":112:117   */\n  dup2\n    /* \"#utility.yul\":94:118   */\n  tag_11\n  jump\t// in\ntag_10:\n    /* \"#utility.yul\":89:92   */\n  dup3\n    /* \"#utility.yul\":82:119   */\n  mstore\n    /* \"#utility.yul\":7:125   */\n  pop\n  pop\n  jump\t// out\n    /* \"#utility.yul\":131:497   */\ntag_12:\n    /* \"#utility.yul\":273:276   */\n  0x00\n    /* \"#utility.yul\":294:361   */\n  tag_14\n    /* \"#utility.yul\":358:360   */\n  0x14\n    /* \"#utility.yul\":353:356   */\n  dup4\n    /* \"#utility.yul\":294:361   */\n  tag_15\n  jump\t// in\ntag_14:\n    /* \"#utility.yul\":287:361   */\n  swap2\n  pop\n    /* \"#utility.yul\":370:463   */\n  tag_16\n    /* \"#utility.yul\":459:462   */\n  dup3\n    /* \"#utility.yul\":370:463   */\n  tag_17\n  jump\t// in\ntag_16:\n    /* \"#utility.yul\":488:490   */\n  0x20\n    /* \"#utility.yul\":483:486   */\n  dup3\n    /* \"#utility.yul\":479:491   */\n  add\n    /* \"#utility.yul\":472:491   */\n  swap1\n  pop\n    /* \"#utility.yul\":131:497   */\n  swap2\n  swap1\n  pop\n  jump\t// out\n    /* \"#utility.yul\":503:1032   */\ntag_5:\n    /* \"#utility.yul\":697:701   */\n  0x00\n    /* \"#utility.yul\":735:737   */\n  0x40\n    /* \"#utility.yul\":724:733   */\n  dup3\n    /* \"#utility.yul\":720:738   */\n  add\n    /* \"#utility.yul\":712:738   */\n  swap1\n  pop\n    /* \"#utility.yul\":784:793   */\n  dup2\n    /* \"#utility.yul\":778:782   */\n  dup2\n    /* \"#utility.yul\":774:794   */\n  sub\n    /* \"#utility.yul\":770:771   */\n  0x00\n    /* \"#utility.yul\":759:768   */\n  dup4\n    /* \"#utility.yul\":755:772   */\n  add\n    /* \"#utility.yul\":748:795   */\n  mstore\n    /* \"#utility.yul\":812:943   */\n  tag_19\n    /* \"#utility.yul\":938:942   */\n  dup2\n    /* \"#utility.yul\":812:943   */\n  tag_12\n  jump\t// in\ntag_19:\n    /* \"#utility.yul\":804:943   */\n  swap1\n  pop\n    /* \"#utility.yul\":953:1025   */\n  tag_20\n    /* \"#utility.yul\":1021:1023   */\n  0x20\n    /* \"#utility.yul\":1010:1019   */\n  dup4\n    /* \"#utility.yul\":1006:1024   */\n  add\n    /* \"#utility.yul\":997:1003   */\n  dup5\n    /* \"#utility.yul\":953:1025   */\n  tag_8\n  jump\t// in\ntag_20:\n    /* \"#utility.yul\":503:1032   */\n  swap3\n  swap2\n  pop\n  pop\n  jump\t// out\n    /* \"#utility.yul\":1038:1207   */\ntag_15:\n    /* \"#utility.yul\":1122:1133   */\n  0x00\n    /* \"#utility.yul\":1156:1162   */\n  dup3\n    /* \"#utility.yul\":1151:1154   */\n  dup3\n    /* \"#utility.yul\":1144:1163   */\n  mstore\n    /* \"#utility.yul\":1196:1200   */\n  0x20\n    /* \"#utility.yul\":1191:1194   */\n  dup3\n    /* \"#utility.yul\":1187:1201   */\n  add\n    /* \"#utility.yul\":1172:1201   */\n  swap1\n  pop\n    /* \"#utility.yul\":1038:1207   */\n  swap3\n  swap2\n  pop\n  pop\n  jump\t// out\n    /* \"#utility.yul\":1213:1309   */\ntag_11:\n    /* \"#utility.yul\":1250:1257   */\n  0x00\n    /* \"#utility.yul\":1279:1303   */\n  tag_23\n    /* \"#utility.yul\":1297:1302   */\n  dup3\n    /* \"#utility.yul\":1279:1303   */\n  tag_24\n  jump\t// in\ntag_23:\n    /* \"#utility.yul\":1268:1303   */\n  swap1\n  pop\n    /* \"#utility.yul\":1213:1309   */\n  swap2\n  swap1\n  pop\n  jump\t// out\n    /* \"#utility.yul\":1315:1441   */\ntag_24:\n    /* \"#utility.yul\":1352:1359   */\n  0x00\n    /* \"#utility.yul\":1392:1434   */\n  0xffffffffffffffffffffffffffffffffffffffff\n    /* \"#utility.yul\":1385:1390   */\n  dup3\n    /* \"#utility.yul\":1381:1435   */\n  and\n    /* \"#utility.yul\":1370:1435   */\n  swap1\n  pop\n    /* \"#utility.yul\":1315:1441   */\n  swap2\n  swap1\n  pop\n  jump\t// out\n    /* \"#utility.yul\":1447:1617   */\ntag_17:\n    /* \"#utility.yul\":1587:1609   */\n  0x4c656e64696e6720706f6f6c2063726561746564000000000000000000000000\n    /* \"#utility.yul\":1583:1584   */\n  0x00\n    /* \"#utility.yul\":1575:1581   */\n  dup3\n    /* \"#utility.yul\":1571:1585   */\n  add\n    /* \"#utility.yul\":1564:1610   */\n  mstore\n    /* \"#utility.yul\":1447:1617   */\n  pop\n  jump\t// out\n    /* \"contracts/LendingPool.sol\":219:3331  contract LendingPool  {... */\ntag_6:\n  dataSize(sub_0)\n  dup1\n  dataOffset(sub_0)\n  0x00\n  codecopy\n  0x00\n  return\nstop\n\nsub_0: assembly {\n        /* \"contracts/LendingPool.sol\":219:3331  contract LendingPool  {... */\n      mstore(0x40, 0x80)\n      jumpi(tag_1, lt(calldatasize, 0x04))\n      shr(0xe0, calldataload(0x00))\n      dup1\n      0x8da5cb5b\n      gt\n      tag_15\n      jumpi\n      dup1\n      0x8da5cb5b\n      eq\n      tag_9\n      jumpi\n      dup1\n      0xa464d265\n      eq\n      tag_10\n      jumpi\n      dup1\n      0xaeae177c\n      eq\n      tag_11\n      jumpi\n      dup1\n      0xc02b2092\n      eq\n      tag_12\n      jumpi\n      dup1\n      0xd0e30db0\n      eq\n      tag_13\n      jumpi\n      dup1\n      0xf9931855\n      eq\n      tag_14\n      jumpi\n      jump(tag_2)\n    tag_15:\n      dup1\n      0x166d7b48\n      eq\n      tag_3\n      jumpi\n      dup1\n      0x3607999b\n      eq\n      tag_4\n      jumpi\n      dup1\n      0x56852391\n      eq\n      tag_5\n      jumpi\n      dup1\n      0x650fad76\n      eq\n      tag_6\n      jumpi\n      dup1\n      0x6e0e0da2\n      eq\n      tag_7\n      jumpi\n      dup1\n      0x6e1dc66e\n      eq\n      tag_8\n      jumpi\n      jump(tag_2)\n    tag_1:\n      jumpi(tag_2, calldatasize)\n      stop\n    tag_2:\n      stop\n        /* \"contracts/LendingPool.sol\":1274:1369  function updateEditor(address new_editor) public onlyOwner{... */\n    tag_3:\n      callvalue\n      dup1\n      iszero\n      tag_20\n      jumpi\n      0x00\n      dup1\n      revert\n    tag_20:\n      pop\n      tag_21\n      0x04\n      dup1\n      calldatasize\n      sub\n      dup2\n      add\n      swap1\n      tag_22\n      swap2\n      swap1\n      tag_23\n      jump\t// in\n    tag_22:\n      tag_24\n      jump\t// in\n    tag_21:\n      stop\n        /* \"contracts/LendingPool.sol\":1842:2203  function lendingWithdraw(uint256 amount, address to) public payable onlyAllowedGate {... */\n    tag_4:\n      tag_25\n      0x04\n      dup1\n      calldatasize\n      sub\n      dup2\n      add\n      swap1\n      tag_26\n      swap2\n      swap1\n      tag_27\n      jump\t// in\n    tag_26:\n      tag_28\n      jump\t// in\n    tag_25:\n      stop\n        /* \"contracts/LendingPool.sol\":2977:3249  function gateWithdrawl() public {... */\n    tag_5:\n      callvalue\n      dup1\n      iszero\n      tag_29\n      jumpi\n      0x00\n      dup1\n      revert\n    tag_29:\n      pop\n      tag_30\n      tag_31\n      jump\t// in\n    tag_30:\n      stop\n        /* \"contracts/LendingPool.sol\":281:316  uint256 public minimumAmt = 1 ether */\n    tag_6:\n      callvalue\n      dup1\n      iszero\n      tag_32\n      jumpi\n      0x00\n      dup1\n      revert\n    tag_32:\n      pop\n      tag_33\n      tag_34\n      jump\t// in\n    tag_33:\n      mload(0x40)\n      tag_35\n      swap2\n      swap1\n      tag_36\n      jump\t// in\n    tag_35:\n      mload(0x40)\n      dup1\n      swap2\n      sub\n      swap1\n      return\n        /* \"contracts/LendingPool.sol\":2277:2901  function depositWithdraw() public{... */\n    tag_7:\n      callvalue\n      dup1\n      iszero\n      tag_37\n      jumpi\n      0x00\n      dup1\n      revert\n    tag_37:\n      pop\n      tag_38\n      tag_39\n      jump\t// in\n    tag_38:\n      stop\n        /* \"contracts/LendingPool.sol\":477:521  mapping(address => uint256) public startTime */\n    tag_8:\n      callvalue\n      dup1\n      iszero\n      tag_40\n      jumpi\n      0x00\n      dup1\n      revert\n    tag_40:\n      pop\n      tag_41\n      0x04\n      dup1\n      calldatasize\n      sub\n      dup2\n      add\n      swap1\n      tag_42\n      swap2\n      swap1\n      tag_23\n      jump\t// in\n    tag_42:\n      tag_43\n      jump\t// in\n    tag_41:\n      mload(0x40)\n      tag_44\n      swap2\n      swap1\n      tag_36\n      jump\t// in\n    tag_44:\n      mload(0x40)\n      dup1\n      swap2\n      sub\n      swap1\n      return\n        /* \"contracts/LendingPool.sol\":322:350  address payable public owner */\n    tag_9:\n      callvalue\n      dup1\n      iszero\n      tag_45\n      jumpi\n      0x00\n      dup1\n      revert\n    tag_45:\n      pop\n      tag_46\n      tag_47\n      jump\t// in\n    tag_46:\n      mload(0x40)\n      tag_48\n      swap2\n      swap1\n      tag_49\n      jump\t// in\n    tag_48:\n      mload(0x40)\n      dup1\n      swap2\n      sub\n      swap1\n      return\n        /* \"contracts/LendingPool.sol\":392:413  address public editor */\n    tag_10:\n      callvalue\n      dup1\n      iszero\n      tag_50\n      jumpi\n      0x00\n      dup1\n      revert\n    tag_50:\n      pop\n      tag_51\n      tag_52\n      jump\t// in\n    tag_51:\n      mload(0x40)\n      tag_53\n      swap2\n      swap1\n      tag_54\n      jump\t// in\n    tag_53:\n      mload(0x40)\n      dup1\n      swap2\n      sub\n      swap1\n      return\n        /* \"contracts/LendingPool.sol\":580:629  mapping(address => uint256) public pendingPayment */\n    tag_11:\n      callvalue\n      dup1\n      iszero\n      tag_55\n      jumpi\n      0x00\n      dup1\n      revert\n    tag_55:\n      pop\n      tag_56\n      0x04\n      dup1\n      calldatasize\n      sub\n      dup2\n      add\n      swap1\n      tag_57\n      swap2\n      swap1\n      tag_23\n      jump\t// in\n    tag_57:\n      tag_58\n      jump\t// in\n    tag_56:\n      mload(0x40)\n      tag_59\n      swap2\n      swap1\n      tag_36\n      jump\t// in\n    tag_59:\n      mload(0x40)\n      dup1\n      swap2\n      sub\n      swap1\n      return\n        /* \"contracts/LendingPool.sol\":635:680  mapping(address => bool) public allowed_pools */\n    tag_12:\n      callvalue\n      dup1\n      iszero\n      tag_60\n      jumpi\n      0x00\n      dup1\n      revert\n    tag_60:\n      pop\n      tag_61\n      0x04\n      dup1\n      calldatasize\n      sub\n      dup2\n      add\n      swap1\n      tag_62\n      swap2\n      swap1\n      tag_23\n      jump\t// in\n    tag_62:\n      tag_63\n      jump\t// in\n    tag_61:\n      mload(0x40)\n      tag_64\n      swap2\n      swap1\n      tag_65\n      jump\t// in\n    tag_64:\n      mload(0x40)\n      dup1\n      swap2\n      sub\n      swap1\n      return\n        /* \"contracts/LendingPool.sol\":1433:1836  function deposit() public payable {... */\n    tag_13:\n      tag_66\n      tag_67\n      jump\t// in\n    tag_66:\n      stop\n        /* \"contracts/LendingPool.sol\":527:574  mapping(address => uint256) public stakedAmount */\n    tag_14:\n      callvalue\n      dup1\n      iszero\n      tag_68\n      jumpi\n      0x00\n      dup1\n      revert\n    tag_68:\n      pop\n      tag_69\n      0x04\n      dup1\n      calldatasize\n      sub\n      dup2\n      add\n      swap1\n      tag_70\n      swap2\n      swap1\n      tag_23\n      jump\t// in\n    tag_70:\n      tag_71\n      jump\t// in\n    tag_69:\n      mload(0x40)\n      tag_72\n      swap2\n      swap1\n      tag_36\n      jump\t// in\n    tag_72:\n      mload(0x40)\n      dup1\n      swap2\n      sub\n      swap1\n      return\n        /* \"contracts/LendingPool.sol\":1274:1369  function updateEditor(address new_editor) public onlyOwner{... */\n    tag_24:\n        /* \"contracts/LendingPool.sol\":934:939  owner */\n      0x01\n      0x00\n      swap1\n      sload\n      swap1\n      0x0100\n      exp\n      swap1\n      div\n      0xffffffffffffffffffffffffffffffffffffffff\n      and\n        /* \"contracts/LendingPool.sol\":920:939  msg.sender == owner */\n      0xffffffffffffffffffffffffffffffffffffffff\n      and\n        /* \"contracts/LendingPool.sol\":920:930  msg.sender */\n      caller\n        /* \"contracts/LendingPool.sol\":920:939  msg.sender == owner */\n      0xffffffffffffffffffffffffffffffffffffffff\n      and\n      eq\n        /* \"contracts/LendingPool.sol\":912:988  require(msg.sender == owner, \"Only initial uploader can access this method\") */\n      tag_74\n      jumpi\n      mload(0x40)\n      0x08c379a000000000000000000000000000000000000000000000000000000000\n      dup2\n      mstore\n      0x04\n      add\n      tag_75\n      swap1\n      tag_76\n      jump\t// in\n    tag_75:\n      mload(0x40)\n      dup1\n      swap2\n      sub\n      swap1\n      revert\n    tag_74:\n        /* \"contracts/LendingPool.sol\":1351:1361  new_editor */\n      dup1\n        /* \"contracts/LendingPool.sol\":1342:1348  editor */\n      0x03\n      0x00\n        /* \"contracts/LendingPool.sol\":1342:1361  editor = new_editor */\n      0x0100\n      exp\n      dup2\n      sload\n      dup2\n      0xffffffffffffffffffffffffffffffffffffffff\n      mul\n      not\n      and\n      swap1\n      dup4\n      0xffffffffffffffffffffffffffffffffffffffff\n      and\n      mul\n      or\n      swap1\n      sstore\n      pop\n        /* \"contracts/LendingPool.sol\":1274:1369  function updateEditor(address new_editor) public onlyOwner{... */\n      pop\n      jump\t// out\n        /* \"contracts/LendingPool.sol\":1842:2203  function lendingWithdraw(uint256 amount, address to) public payable onlyAllowedGate {... */\n    tag_28:\n        /* \"contracts/LendingPool.sol\":1179:1192  allowed_pools */\n      0x08\n        /* \"contracts/LendingPool.sol\":1179:1204  allowed_pools[msg.sender] */\n      0x00\n        /* \"contracts/LendingPool.sol\":1193:1203  msg.sender */\n      caller\n        /* \"contracts/LendingPool.sol\":1179:1204  allowed_pools[msg.sender] */\n      0xffffffffffffffffffffffffffffffffffffffff\n      and\n      0xffffffffffffffffffffffffffffffffffffffff\n      and\n      dup2\n      mstore\n      0x20\n      add\n      swap1\n      dup2\n      mstore\n      0x20\n      add\n      0x00\n      keccak256\n      0x00\n      swap1\n      sload\n      swap1\n      0x0100\n      exp\n      swap1\n      div\n      0xff\n      and\n        /* \"contracts/LendingPool.sol\":1171:1250  require(allowed_pools[msg.sender], \"Only allowed gates can access this method\") */\n      tag_79\n      jumpi\n      mload(0x40)\n      0x08c379a000000000000000000000000000000000000000000000000000000000\n      dup2\n      mstore\n      0x04\n      add\n      tag_80\n      swap1\n      tag_81\n      jump\t// in\n    tag_80:\n      mload(0x40)\n      dup1\n      swap2\n      sub\n      swap1\n      revert\n    tag_79:\n        /* \"contracts/LendingPool.sol\":1963:1977  totalDeposited */\n      sload(0x02)\n        /* \"contracts/LendingPool.sol\":1953:1959  amount */\n      dup3\n        /* \"contracts/LendingPool.sol\":1953:1977  amount <= totalDeposited */\n      gt\n      iszero\n        /* \"contracts/LendingPool.sol\":1945:2021  require(amount <= totalDeposited, \"Doesn't have enough balance in the bank\") */\n      tag_83\n      jumpi\n      mload(0x40)\n      0x08c379a000000000000000000000000000000000000000000000000000000000\n      dup2\n      mstore\n      0x04\n      add\n      tag_84\n      swap1\n      tag_85\n      jump\t// in\n    tag_84:\n      mload(0x40)\n      dup1\n      swap2\n      sub\n      swap1\n      revert\n    tag_83:\n        /* \"contracts/LendingPool.sol\":2048:2074  totalDeposited.sub(amount) */\n      tag_86\n        /* \"contracts/LendingPool.sol\":2067:2073  amount */\n      dup3\n        /* \"contracts/LendingPool.sol\":2048:2062  totalDeposited */\n      sload(0x02)\n        /* \"contracts/LendingPool.sol\":2048:2066  totalDeposited.sub */\n      tag_87\n      swap1\n        /* \"contracts/LendingPool.sol\":2048:2074  totalDeposited.sub(amount) */\n      swap2\n      swap1\n      0xffffffff\n      and\n      jump\t// in\n    tag_86:\n        /* \"contracts/LendingPool.sol\":2031:2045  totalDeposited */\n      0x02\n        /* \"contracts/LendingPool.sol\":2031:2074  totalDeposited = totalDeposited.sub(amount) */\n      dup2\n      swap1\n      sstore\n      pop\n        /* \"contracts/LendingPool.sol\":2105:2135  pendingPayment[to].add(amount) */\n      tag_88\n        /* \"contracts/LendingPool.sol\":2128:2134  amount */\n      dup3\n        /* \"contracts/LendingPool.sol\":2105:2119  pendingPayment */\n      0x07\n        /* \"contracts/LendingPool.sol\":2105:2123  pendingPayment[to] */\n      0x00\n        /* \"contracts/LendingPool.sol\":2120:2122  to */\n      dup5\n        /* \"contracts/LendingPool.sol\":2105:2123  pendingPayment[to] */\n      0xffffffffffffffffffffffffffffffffffffffff\n      and\n      0xffffffffffffffffffffffffffffffffffffffff\n      and\n      dup2\n      mstore\n      0x20\n      add\n      swap1\n      dup2\n      mstore\n      0x20\n      add\n      0x00\n      keccak256\n      sload\n        /* \"contracts/LendingPool.sol\":2105:2127  pendingPayment[to].add */\n      tag_89\n      swap1\n        /* \"contracts/LendingPool.sol\":2105:2135  pendingPayment[to].add(amount) */\n      swap2\n      swap1\n      0xffffffff\n      and\n      jump\t// in\n    tag_88:\n        /* \"contracts/LendingPool.sol\":2084:2098  pendingPayment */\n      0x07\n        /* \"contracts/LendingPool.sol\":2084:2102  pendingPayment[to] */\n      0x00\n        /* \"contracts/LendingPool.sol\":2099:2101  to */\n      dup4\n        /* \"contracts/LendingPool.sol\":2084:2102  pendingPayment[to] */\n      0xffffffffffffffffffffffffffffffffffffffff\n      and\n      0xffffffffffffffffffffffffffffffffffffffff\n      and\n      dup2\n      mstore\n      0x20\n      add\n      swap1\n      dup2\n      mstore\n      0x20\n      add\n      0x00\n      keccak256\n        /* \"contracts/LendingPool.sol\":2084:2135  pendingPayment[to] = pendingPayment[to].add(amount) */\n      dup2\n      swap1\n      sstore\n      pop\n        /* \"contracts/LendingPool.sol\":2150:2195  LendingPoolMessage(\"Money withdrawen to\", to) */\n      0xf67e7992d539193fc243c42fe89f8fab49013e8e4fb18cfa891dc51adcaccc80\n        /* \"contracts/LendingPool.sol\":2192:2194  to */\n      dup2\n        /* \"contracts/LendingPool.sol\":2150:2195  LendingPoolMessage(\"Money withdrawen to\", to) */\n      mload(0x40)\n      tag_90\n      swap2\n      swap1\n      tag_91\n      jump\t// in\n    tag_90:\n      mload(0x40)\n      dup1\n      swap2\n      sub\n      swap1\n      log1\n        /* \"contracts/LendingPool.sol\":1842:2203  function lendingWithdraw(uint256 amount, address to) public payable onlyAllowedGate {... */\n      pop\n      pop\n      jump\t// out\n        /* \"contracts/LendingPool.sol\":2977:3249  function gateWithdrawl() public {... */\n    tag_31:\n        /* \"contracts/LendingPool.sol\":3056:3057  0 */\n      0x00\n        /* \"contracts/LendingPool.sol\":3027:3041  pendingPayment */\n      0x07\n        /* \"contracts/LendingPool.sol\":3027:3053  pendingPayment[msg.sender] */\n      0x00\n        /* \"contracts/LendingPool.sol\":3042:3052  msg.sender */\n      caller\n        /* \"contracts/LendingPool.sol\":3027:3053  pendingPayment[msg.sender] */\n      0xffffffffffffffffffffffffffffffffffffffff\n      and\n      0xffffffffffffffffffffffffffffffffffffffff\n      and\n      dup2\n      mstore\n      0x20\n      add\n      swap1\n      dup2\n      mstore\n      0x20\n      add\n      0x00\n      keccak256\n      sload\n        /* \"contracts/LendingPool.sol\":3027:3057  pendingPayment[msg.sender] > 0 */\n      gt\n        /* \"contracts/LendingPool.sol\":3019:3098  require(pendingPayment[msg.sender] > 0, \"You don't have no pending withdrawls\") */\n      tag_93\n      jumpi\n      mload(0x40)\n      0x08c379a000000000000000000000000000000000000000000000000000000000\n      dup2\n      mstore\n      0x04\n      add\n      tag_94\n      swap1\n      tag_95\n      jump\t// in\n    tag_94:\n      mload(0x40)\n      dup1\n      swap2\n      sub\n      swap1\n      revert\n    tag_93:\n        /* \"contracts/LendingPool.sol\":3108:3122  uint256 amount */\n      0x00\n        /* \"contracts/LendingPool.sol\":3125:3139  pendingPayment */\n      0x07\n        /* \"contracts/LendingPool.sol\":3125:3151  pendingPayment[msg.sender] */\n      0x00\n        /* \"contracts/LendingPool.sol\":3140:3150  msg.sender */\n      caller\n        /* \"contracts/LendingPool.sol\":3125:3151  pendingPayment[msg.sender] */\n      0xffffffffffffffffffffffffffffffffffffffff\n      and\n      0xffffffffffffffffffffffffffffffffffffffff\n      and\n      dup2\n      mstore\n      0x20\n      add\n      swap1\n      dup2\n      mstore\n      0x20\n      add\n      0x00\n      keccak256\n      sload\n        /* \"contracts/LendingPool.sol\":3108:3151  uint256 amount = pendingPayment[msg.sender] */\n      swap1\n      pop\n        /* \"contracts/LendingPool.sol\":3191:3192  0 */\n      0x00\n        /* \"contracts/LendingPool.sol\":3161:3175  pendingPayment */\n      0x07\n        /* \"contracts/LendingPool.sol\":3161:3187  pendingPayment[msg.sender] */\n      0x00\n        /* \"contracts/LendingPool.sol\":3176:3186  msg.sender */\n      caller\n        /* \"contracts/LendingPool.sol\":3161:3187  pendingPayment[msg.sender] */\n      0xffffffffffffffffffffffffffffffffffffffff\n      and\n      0xffffffffffffffffffffffffffffffffffffffff\n      and\n      dup2\n      mstore\n      0x20\n      add\n      swap1\n      dup2\n      mstore\n      0x20\n      add\n      0x00\n      keccak256\n        /* \"contracts/LendingPool.sol\":3161:3192  pendingPayment[msg.sender] =  0 */\n      dup2\n      swap1\n      sstore\n      pop\n        /* \"contracts/LendingPool.sol\":3214:3224  msg.sender */\n      caller\n        /* \"contracts/LendingPool.sol\":3206:3234  payable(msg.sender).transfer */\n      0xffffffffffffffffffffffffffffffffffffffff\n      and\n        /* \"contracts/LendingPool.sol\":3206:3242  payable(msg.sender).transfer(amount) */\n      0x08fc\n        /* \"contracts/LendingPool.sol\":3235:3241  amount */\n      dup3\n        /* \"contracts/LendingPool.sol\":3206:3242  payable(msg.sender).transfer(amount) */\n      swap1\n      dup2\n      iszero\n      mul\n      swap1\n      mload(0x40)\n      0x00\n      mload(0x40)\n      dup1\n      dup4\n      sub\n      dup2\n      dup6\n      dup9\n      dup9\n      call\n      swap4\n      pop\n      pop\n      pop\n      pop\n      iszero\n      dup1\n      iszero\n      tag_97\n      jumpi\n      returndatasize\n      0x00\n      dup1\n      returndatacopy\n      revert(0x00, returndatasize)\n    tag_97:\n      pop\n        /* \"contracts/LendingPool.sol\":3009:3249  {... */\n      pop\n        /* \"contracts/LendingPool.sol\":2977:3249  function gateWithdrawl() public {... */\n      jump\t// out\n        /* \"contracts/LendingPool.sol\":281:316  uint256 public minimumAmt = 1 ether */\n    tag_34:\n      sload(0x00)\n      dup2\n      jump\t// out\n        /* \"contracts/LendingPool.sol\":2277:2901  function depositWithdraw() public{... */\n    tag_39:\n        /* \"contracts/LendingPool.sol\":2355:2356  0 */\n      0x00\n        /* \"contracts/LendingPool.sol\":2328:2340  stakedAmount */\n      0x06\n        /* \"contracts/LendingPool.sol\":2328:2352  stakedAmount[msg.sender] */\n      0x00\n        /* \"contracts/LendingPool.sol\":2341:2351  msg.sender */\n      caller\n        /* \"contracts/LendingPool.sol\":2328:2352  stakedAmount[msg.sender] */\n      0xffffffffffffffffffffffffffffffffffffffff\n      and\n      0xffffffffffffffffffffffffffffffffffffffff\n      and\n      dup2\n      mstore\n      0x20\n      add\n      swap1\n      dup2\n      mstore\n      0x20\n      add\n      0x00\n      keccak256\n      sload\n        /* \"contracts/LendingPool.sol\":2328:2356  stakedAmount[msg.sender] > 0 */\n      gt\n        /* \"contracts/LendingPool.sol\":2320:2393  require(stakedAmount[msg.sender] > 0, \"You don't have any money in here\") */\n      tag_99\n      jumpi\n      mload(0x40)\n      0x08c379a000000000000000000000000000000000000000000000000000000000\n      dup2\n      mstore\n      0x04\n      add\n      tag_100\n      swap1\n      tag_101\n      jump\t// in\n    tag_100:\n      mload(0x40)\n      dup1\n      swap2\n      sub\n      swap1\n      revert\n    tag_99:\n        /* \"contracts/LendingPool.sol\":2403:2422  uint256 time_staked */\n      0x00\n        /* \"contracts/LendingPool.sol\":2425:2478  (startTime[msg.sender] -  block.timestamp).div(86400) */\n      tag_102\n        /* \"contracts/LendingPool.sol\":2472:2477  86400 */\n      0x015180\n        /* \"contracts/LendingPool.sol\":2451:2466  block.timestamp */\n      timestamp\n        /* \"contracts/LendingPool.sol\":2426:2435  startTime */\n      0x05\n        /* \"contracts/LendingPool.sol\":2426:2447  startTime[msg.sender] */\n      0x00\n        /* \"contracts/LendingPool.sol\":2436:2446  msg.sender */\n      caller\n        /* \"contracts/LendingPool.sol\":2426:2447  startTime[msg.sender] */\n      0xffffffffffffffffffffffffffffffffffffffff\n      and\n      0xffffffffffffffffffffffffffffffffffffffff\n      and\n      dup2\n      mstore\n      0x20\n      add\n      swap1\n      dup2\n      mstore\n      0x20\n      add\n      0x00\n      keccak256\n      sload\n        /* \"contracts/LendingPool.sol\":2426:2466  startTime[msg.sender] -  block.timestamp */\n      tag_103\n      swap2\n      swap1\n      tag_104\n      jump\t// in\n    tag_103:\n        /* \"contracts/LendingPool.sol\":2425:2471  (startTime[msg.sender] -  block.timestamp).div */\n      tag_105\n      swap1\n        /* \"contracts/LendingPool.sol\":2425:2478  (startTime[msg.sender] -  block.timestamp).div(86400) */\n      swap2\n      swap1\n      0xffffffff\n      and\n      jump\t// in\n    tag_102:\n        /* \"contracts/LendingPool.sol\":2403:2478  uint256 time_staked = (startTime[msg.sender] -  block.timestamp).div(86400) */\n      swap1\n      pop\n        /* \"contracts/LendingPool.sol\":2510:2520  30 * 86400 */\n      0x278d00\n        /* \"contracts/LendingPool.sol\":2496:2507  time_staked */\n      dup2\n        /* \"contracts/LendingPool.sol\":2496:2520  time_staked > 30 * 86400 */\n      gt\n        /* \"contracts/LendingPool.sol\":2488:2561  require(time_staked > 30 * 86400, \"You should atleast stake for a monty\") */\n      tag_106\n      jumpi\n      mload(0x40)\n      0x08c379a000000000000000000000000000000000000000000000000000000000\n      dup2\n      mstore\n      0x04\n      add\n      tag_107\n      swap1\n      tag_108\n      jump\t// in\n    tag_107:\n      mload(0x40)\n      dup1\n      swap2\n      sub\n      swap1\n      revert\n    tag_106:\n        /* \"contracts/LendingPool.sol\":2571:2584  uint256 yield */\n      0x00\n        /* \"contracts/LendingPool.sol\":2614:2671  time_staked.mul(5).mul(stakedAmount[msg.sender]).div(100) */\n      tag_109\n        /* \"contracts/LendingPool.sol\":2667:2670  100 */\n      0x64\n        /* \"contracts/LendingPool.sol\":2614:2662  time_staked.mul(5).mul(stakedAmount[msg.sender]) */\n      tag_110\n        /* \"contracts/LendingPool.sol\":2637:2649  stakedAmount */\n      0x06\n        /* \"contracts/LendingPool.sol\":2637:2661  stakedAmount[msg.sender] */\n      0x00\n        /* \"contracts/LendingPool.sol\":2650:2660  msg.sender */\n      caller\n        /* \"contracts/LendingPool.sol\":2637:2661  stakedAmount[msg.sender] */\n      0xffffffffffffffffffffffffffffffffffffffff\n      and\n      0xffffffffffffffffffffffffffffffffffffffff\n      and\n      dup2\n      mstore\n      0x20\n      add\n      swap1\n      dup2\n      mstore\n      0x20\n      add\n      0x00\n      keccak256\n      sload\n        /* \"contracts/LendingPool.sol\":2614:2632  time_staked.mul(5) */\n      tag_111\n        /* \"contracts/LendingPool.sol\":2630:2631  5 */\n      0x05\n        /* \"contracts/LendingPool.sol\":2614:2625  time_staked */\n      dup8\n        /* \"contracts/LendingPool.sol\":2614:2629  time_staked.mul */\n      tag_112\n      swap1\n        /* \"contracts/LendingPool.sol\":2614:2632  time_staked.mul(5) */\n      swap2\n      swap1\n      0xffffffff\n      and\n      jump\t// in\n    tag_111:\n        /* \"contracts/LendingPool.sol\":2614:2636  time_staked.mul(5).mul */\n      tag_112\n      swap1\n        /* \"contracts/LendingPool.sol\":2614:2662  time_staked.mul(5).mul(stakedAmount[msg.sender]) */\n      swap2\n      swap1\n      0xffffffff\n      and\n      jump\t// in\n    tag_110:\n        /* \"contracts/LendingPool.sol\":2614:2666  time_staked.mul(5).mul(stakedAmount[msg.sender]).div */\n      tag_105\n      swap1\n        /* \"contracts/LendingPool.sol\":2614:2671  time_staked.mul(5).mul(stakedAmount[msg.sender]).div(100) */\n      swap2\n      swap1\n      0xffffffff\n      and\n      jump\t// in\n    tag_109:\n        /* \"contracts/LendingPool.sol\":2587:2599  stakedAmount */\n      0x06\n        /* \"contracts/LendingPool.sol\":2587:2611  stakedAmount[msg.sender] */\n      0x00\n        /* \"contracts/LendingPool.sol\":2600:2610  msg.sender */\n      caller\n        /* \"contracts/LendingPool.sol\":2587:2611  stakedAmount[msg.sender] */\n      0xffffffffffffffffffffffffffffffffffffffff\n      and\n      0xffffffffffffffffffffffffffffffffffffffff\n      and\n      dup2\n      mstore\n      0x20\n      add\n      swap1\n      dup2\n      mstore\n      0x20\n      add\n      0x00\n      keccak256\n      sload\n        /* \"contracts/LendingPool.sol\":2587:2671  stakedAmount[msg.sender] + time_staked.mul(5).mul(stakedAmount[msg.sender]).div(100) */\n      tag_113\n      swap2\n      swap1\n      tag_114\n      jump\t// in\n    tag_113:\n        /* \"contracts/LendingPool.sol\":2571:2671  uint256 yield = stakedAmount[msg.sender] + time_staked.mul(5).mul(stakedAmount[msg.sender]).div(100) */\n      swap1\n      pop\n        /* \"contracts/LendingPool.sol\":2697:2711  totalDeposited */\n      sload(0x02)\n        /* \"contracts/LendingPool.sol\":2689:2694  yield */\n      dup2\n        /* \"contracts/LendingPool.sol\":2689:2711  yield < totalDeposited */\n      lt\n        /* \"contracts/LendingPool.sol\":2681:2766  require(yield < totalDeposited, \"Sorry we don't have enough money so comeback later\") */\n      tag_115\n      jumpi\n      mload(0x40)\n      0x08c379a000000000000000000000000000000000000000000000000000000000\n      dup2\n      mstore\n      0x04\n      add\n      tag_116\n      swap1\n      tag_117\n      jump\t// in\n    tag_116:\n      mload(0x40)\n      dup1\n      swap2\n      sub\n      swap1\n      revert\n    tag_115:\n        /* \"contracts/LendingPool.sol\":2793:2818  totalDeposited.sub(yield) */\n      tag_118\n        /* \"contracts/LendingPool.sol\":2812:2817  yield */\n      dup2\n        /* \"contracts/LendingPool.sol\":2793:2807  totalDeposited */\n      sload(0x02)\n        /* \"contracts/LendingPool.sol\":2793:2811  totalDeposited.sub */\n      tag_87\n      swap1\n        /* \"contracts/LendingPool.sol\":2793:2818  totalDeposited.sub(yield) */\n      swap2\n      swap1\n      0xffffffff\n      and\n      jump\t// in\n    tag_118:\n        /* \"contracts/LendingPool.sol\":2776:2790  totalDeposited */\n      0x02\n        /* \"contracts/LendingPool.sol\":2776:2818  totalDeposited = totalDeposited.sub(yield) */\n      dup2\n      swap1\n      sstore\n      pop\n        /* \"contracts/LendingPool.sol\":2857:2894  pendingPayment[msg.sender].add(yield) */\n      tag_119\n        /* \"contracts/LendingPool.sol\":2888:2893  yield */\n      dup2\n        /* \"contracts/LendingPool.sol\":2857:2871  pendingPayment */\n      0x07\n        /* \"contracts/LendingPool.sol\":2857:2883  pendingPayment[msg.sender] */\n      0x00\n        /* \"contracts/LendingPool.sol\":2872:2882  msg.sender */\n      caller\n        /* \"contracts/LendingPool.sol\":2857:2883  pendingPayment[msg.sender] */\n      0xffffffffffffffffffffffffffffffffffffffff\n      and\n      0xffffffffffffffffffffffffffffffffffffffff\n      and\n      dup2\n      mstore\n      0x20\n      add\n      swap1\n      dup2\n      mstore\n      0x20\n      add\n      0x00\n      keccak256\n      sload\n        /* \"contracts/LendingPool.sol\":2857:2887  pendingPayment[msg.sender].add */\n      tag_89\n      swap1\n        /* \"contracts/LendingPool.sol\":2857:2894  pendingPayment[msg.sender].add(yield) */\n      swap2\n      swap1\n      0xffffffff\n      and\n      jump\t// in\n    tag_119:\n        /* \"contracts/LendingPool.sol\":2828:2842  pendingPayment */\n      0x07\n        /* \"contracts/LendingPool.sol\":2828:2854  pendingPayment[msg.sender] */\n      0x00\n        /* \"contracts/LendingPool.sol\":2843:2853  msg.sender */\n      caller\n        /* \"contracts/LendingPool.sol\":2828:2854  pendingPayment[msg.sender] */\n      0xffffffffffffffffffffffffffffffffffffffff\n      and\n      0xffffffffffffffffffffffffffffffffffffffff\n      and\n      dup2\n      mstore\n      0x20\n      add\n      swap1\n      dup2\n      mstore\n      0x20\n      add\n      0x00\n      keccak256\n        /* \"contracts/LendingPool.sol\":2828:2894  pendingPayment[msg.sender] = pendingPayment[msg.sender].add(yield) */\n      dup2\n      swap1\n      sstore\n      pop\n        /* \"contracts/LendingPool.sol\":2310:2901  {... */\n      pop\n      pop\n        /* \"contracts/LendingPool.sol\":2277:2901  function depositWithdraw() public{... */\n      jump\t// out\n        /* \"contracts/LendingPool.sol\":477:521  mapping(address => uint256) public startTime */\n    tag_43:\n      mstore(0x20, 0x05)\n      dup1\n      0x00\n      mstore\n      keccak256(0x00, 0x40)\n      0x00\n      swap2\n      pop\n      swap1\n      pop\n      sload\n      dup2\n      jump\t// out\n        /* \"contracts/LendingPool.sol\":322:350  address payable public owner */\n    tag_47:\n      0x01\n      0x00\n      swap1\n      sload\n      swap1\n      0x0100\n      exp\n      swap1\n      div\n      0xffffffffffffffffffffffffffffffffffffffff\n      and\n      dup2\n      jump\t// out\n        /* \"contracts/LendingPool.sol\":392:413  address public editor */\n    tag_52:\n      0x03\n      0x00\n      swap1\n      sload\n      swap1\n      0x0100\n      exp\n      swap1\n      div\n      0xffffffffffffffffffffffffffffffffffffffff\n      and\n      dup2\n      jump\t// out\n        /* \"contracts/LendingPool.sol\":580:629  mapping(address => uint256) public pendingPayment */\n    tag_58:\n      mstore(0x20, 0x07)\n      dup1\n      0x00\n      mstore\n      keccak256(0x00, 0x40)\n      0x00\n      swap2\n      pop\n      swap1\n      pop\n      sload\n      dup2\n      jump\t// out\n        /* \"contracts/LendingPool.sol\":635:680  mapping(address => bool) public allowed_pools */\n    tag_63:\n      mstore(0x20, 0x08)\n      dup1\n      0x00\n      mstore\n      keccak256(0x00, 0x40)\n      0x00\n      swap2\n      pop\n      sload\n      swap1\n      0x0100\n      exp\n      swap1\n      div\n      0xff\n      and\n      dup2\n      jump\t// out\n        /* \"contracts/LendingPool.sol\":1433:1836  function deposit() public payable {... */\n    tag_67:\n        /* \"contracts/LendingPool.sol\":1498:1508  minimumAmt */\n      sload(0x00)\n        /* \"contracts/LendingPool.sol\":1485:1494  msg.value */\n      callvalue\n        /* \"contracts/LendingPool.sol\":1485:1508  msg.value >= minimumAmt */\n      lt\n      iszero\n        /* \"contracts/LendingPool.sol\":1477:1537  require(msg.value >= minimumAmt, \"Minimum 1 Ether Required\") */\n      tag_121\n      jumpi\n      mload(0x40)\n      0x08c379a000000000000000000000000000000000000000000000000000000000\n      dup2\n      mstore\n      0x04\n      add\n      tag_122\n      swap1\n      tag_123\n      jump\t// in\n    tag_122:\n      mload(0x40)\n      dup1\n      swap2\n      sub\n      swap1\n      revert\n    tag_121:\n        /* \"contracts/LendingPool.sol\":1627:1642  block.timestamp */\n      timestamp\n        /* \"contracts/LendingPool.sol\":1603:1612  startTime */\n      0x05\n        /* \"contracts/LendingPool.sol\":1603:1624  startTime[msg.sender] */\n      0x00\n        /* \"contracts/LendingPool.sol\":1613:1623  msg.sender */\n      caller\n        /* \"contracts/LendingPool.sol\":1603:1624  startTime[msg.sender] */\n      0xffffffffffffffffffffffffffffffffffffffff\n      and\n      0xffffffffffffffffffffffffffffffffffffffff\n      and\n      dup2\n      mstore\n      0x20\n      add\n      swap1\n      dup2\n      mstore\n      0x20\n      add\n      0x00\n      keccak256\n        /* \"contracts/LendingPool.sol\":1603:1642  startTime[msg.sender] = block.timestamp */\n      dup2\n      swap1\n      sstore\n      pop\n        /* \"contracts/LendingPool.sol\":1679:1718  stakedAmount[msg.sender].add(msg.value) */\n      tag_124\n        /* \"contracts/LendingPool.sol\":1708:1717  msg.value */\n      callvalue\n        /* \"contracts/LendingPool.sol\":1679:1691  stakedAmount */\n      0x06\n        /* \"contracts/LendingPool.sol\":1679:1703  stakedAmount[msg.sender] */\n      0x00\n        /* \"contracts/LendingPool.sol\":1692:1702  msg.sender */\n      caller\n        /* \"contracts/LendingPool.sol\":1679:1703  stakedAmount[msg.sender] */\n      0xffffffffffffffffffffffffffffffffffffffff\n      and\n      0xffffffffffffffffffffffffffffffffffffffff\n      and\n      dup2\n      mstore\n      0x20\n      add\n      swap1\n      dup2\n      mstore\n      0x20\n      add\n      0x00\n      keccak256\n      sload\n        /* \"contracts/LendingPool.sol\":1679:1707  stakedAmount[msg.sender].add */\n      tag_89\n      swap1\n        /* \"contracts/LendingPool.sol\":1679:1718  stakedAmount[msg.sender].add(msg.value) */\n      swap2\n      swap1\n      0xffffffff\n      and\n      jump\t// in\n    tag_124:\n        /* \"contracts/LendingPool.sol\":1652:1664  stakedAmount */\n      0x06\n        /* \"contracts/LendingPool.sol\":1652:1676  stakedAmount[msg.sender] */\n      0x00\n        /* \"contracts/LendingPool.sol\":1665:1675  msg.sender */\n      caller\n        /* \"contracts/LendingPool.sol\":1652:1676  stakedAmount[msg.sender] */\n      0xffffffffffffffffffffffffffffffffffffffff\n      and\n      0xffffffffffffffffffffffffffffffffffffffff\n      and\n      dup2\n      mstore\n      0x20\n      add\n      swap1\n      dup2\n      mstore\n      0x20\n      add\n      0x00\n      keccak256\n        /* \"contracts/LendingPool.sol\":1652:1718  stakedAmount[msg.sender] = stakedAmount[msg.sender].add(msg.value) */\n      dup2\n      swap1\n      sstore\n      pop\n        /* \"contracts/LendingPool.sol\":1745:1774  totalDeposited.add(msg.value) */\n      tag_125\n        /* \"contracts/LendingPool.sol\":1764:1773  msg.value */\n      callvalue\n        /* \"contracts/LendingPool.sol\":1745:1759  totalDeposited */\n      sload(0x02)\n        /* \"contracts/LendingPool.sol\":1745:1763  totalDeposited.add */\n      tag_89\n      swap1\n        /* \"contracts/LendingPool.sol\":1745:1774  totalDeposited.add(msg.value) */\n      swap2\n      swap1\n      0xffffffff\n      and\n      jump\t// in\n    tag_125:\n        /* \"contracts/LendingPool.sol\":1728:1742  totalDeposited */\n      0x02\n        /* \"contracts/LendingPool.sol\":1728:1774  totalDeposited = totalDeposited.add(msg.value) */\n      dup2\n      swap1\n      sstore\n      pop\n        /* \"contracts/LendingPool.sol\":1789:1829  LendingPoolMessage(\"staked\", msg.sender) */\n      0xf67e7992d539193fc243c42fe89f8fab49013e8e4fb18cfa891dc51adcaccc80\n        /* \"contracts/LendingPool.sol\":1818:1828  msg.sender */\n      caller\n        /* \"contracts/LendingPool.sol\":1789:1829  LendingPoolMessage(\"staked\", msg.sender) */\n      mload(0x40)\n      tag_126\n      swap2\n      swap1\n      tag_127\n      jump\t// in\n    tag_126:\n      mload(0x40)\n      dup1\n      swap2\n      sub\n      swap1\n      log1\n        /* \"contracts/LendingPool.sol\":1433:1836  function deposit() public payable {... */\n      jump\t// out\n        /* \"contracts/LendingPool.sol\":527:574  mapping(address => uint256) public stakedAmount */\n    tag_71:\n      mstore(0x20, 0x06)\n      dup1\n      0x00\n      mstore\n      keccak256(0x00, 0x40)\n      0x00\n      swap2\n      pop\n      swap1\n      pop\n      sload\n      dup2\n      jump\t// out\n        /* \"contracts/SafeMath.sol\":245:405  function sub(uint256 a, uint256 b) internal pure returns (uint256 c) {... */\n    tag_87:\n        /* \"contracts/SafeMath.sol\":303:312  uint256 c */\n      0x00\n        /* \"contracts/SafeMath.sol\":337:338  a */\n      dup3\n        /* \"contracts/SafeMath.sol\":332:333  b */\n      dup3\n        /* \"contracts/SafeMath.sol\":332:338  b <= a */\n      gt\n      iszero\n        /* \"contracts/SafeMath.sol\":324:361  require(b <= a, \"Substraction faild\") */\n      tag_129\n      jumpi\n      mload(0x40)\n      0x08c379a000000000000000000000000000000000000000000000000000000000\n      dup2\n      mstore\n      0x04\n      add\n      tag_130\n      swap1\n      tag_131\n      jump\t// in\n    tag_130:\n      mload(0x40)\n      dup1\n      swap2\n      sub\n      swap1\n      revert\n    tag_129:\n        /* \"contracts/SafeMath.sol\":379:380  b */\n      dup2\n        /* \"contracts/SafeMath.sol\":375:376  a */\n      dup4\n        /* \"contracts/SafeMath.sol\":375:380  a - b */\n      tag_132\n      swap2\n      swap1\n      tag_104\n      jump\t// in\n    tag_132:\n        /* \"contracts/SafeMath.sol\":371:380  c = a - b */\n      swap1\n      pop\n        /* \"contracts/SafeMath.sol\":245:405  function sub(uint256 a, uint256 b) internal pure returns (uint256 c) {... */\n      swap3\n      swap2\n      pop\n      pop\n      jump\t// out\n        /* \"contracts/SafeMath.sol\":82:239  function add(uint256 a, uint256 b) internal pure returns (uint256 c) {... */\n    tag_89:\n        /* \"contracts/SafeMath.sol\":140:149  uint256 c */\n      0x00\n        /* \"contracts/SafeMath.sol\":169:170  b */\n      dup2\n        /* \"contracts/SafeMath.sol\":165:166  a */\n      dup4\n        /* \"contracts/SafeMath.sol\":165:170  a + b */\n      tag_134\n      swap2\n      swap1\n      tag_114\n      jump\t// in\n    tag_134:\n        /* \"contracts/SafeMath.sol\":161:170  c = a + b */\n      swap1\n      pop\n        /* \"contracts/SafeMath.sol\":193:194  a */\n      dup3\n        /* \"contracts/SafeMath.sol\":188:189  c */\n      dup2\n        /* \"contracts/SafeMath.sol\":188:194  c >= a */\n      lt\n      iszero\n        /* \"contracts/SafeMath.sol\":180:214  require(c >= a, \"Addition failed\") */\n      tag_135\n      jumpi\n      mload(0x40)\n      0x08c379a000000000000000000000000000000000000000000000000000000000\n      dup2\n      mstore\n      0x04\n      add\n      tag_136\n      swap1\n      tag_137\n      jump\t// in\n    tag_136:\n      mload(0x40)\n      dup1\n      swap2\n      sub\n      swap1\n      revert\n    tag_135:\n        /* \"contracts/SafeMath.sol\":82:239  function add(uint256 a, uint256 b) internal pure returns (uint256 c) {... */\n      swap3\n      swap2\n      pop\n      pop\n      jump\t// out\n        /* \"contracts/SafeMath.sol\":593:748  function div(uint256 a, uint256 b) internal pure returns (uint256 c) {... */\n    tag_105:\n        /* \"contracts/SafeMath.sol\":651:660  uint256 c */\n      0x00\n        /* \"contracts/SafeMath.sol\":684:685  0 */\n      dup1\n        /* \"contracts/SafeMath.sol\":680:681  b */\n      dup3\n        /* \"contracts/SafeMath.sol\":680:685  b > 0 */\n      gt\n        /* \"contracts/SafeMath.sol\":672:704  require(b > 0, \"Division faild\") */\n      tag_139\n      jumpi\n      mload(0x40)\n      0x08c379a000000000000000000000000000000000000000000000000000000000\n      dup2\n      mstore\n      0x04\n      add\n      tag_140\n      swap1\n      tag_141\n      jump\t// in\n    tag_140:\n      mload(0x40)\n      dup1\n      swap2\n      sub\n      swap1\n      revert\n    tag_139:\n        /* \"contracts/SafeMath.sol\":722:723  b */\n      dup2\n        /* \"contracts/SafeMath.sol\":718:719  a */\n      dup4\n        /* \"contracts/SafeMath.sol\":718:723  a / b */\n      tag_142\n      swap2\n      swap1\n      tag_143\n      jump\t// in\n    tag_142:\n        /* \"contracts/SafeMath.sol\":714:723  c = a / b */\n      swap1\n      pop\n        /* \"contracts/SafeMath.sol\":593:748  function div(uint256 a, uint256 b) internal pure returns (uint256 c) {... */\n      swap3\n      swap2\n      pop\n      pop\n      jump\t// out\n        /* \"contracts/SafeMath.sol\":411:587  function mul(uint256 a, uint256 b) internal pure returns (uint256 c) {... */\n    tag_112:\n        /* \"contracts/SafeMath.sol\":469:478  uint256 c */\n      0x00\n        /* \"contracts/SafeMath.sol\":498:499  b */\n      dup2\n        /* \"contracts/SafeMath.sol\":494:495  a */\n      dup4\n        /* \"contracts/SafeMath.sol\":494:499  a * b */\n      tag_145\n      swap2\n      swap1\n      tag_146\n      jump\t// in\n    tag_145:\n        /* \"contracts/SafeMath.sol\":490:499  c = a * b */\n      swap1\n      pop\n        /* \"contracts/SafeMath.sol\":522:523  0 */\n      0x00\n        /* \"contracts/SafeMath.sol\":517:518  a */\n      dup4\n        /* \"contracts/SafeMath.sol\":517:523  a == 0 */\n      eq\n        /* \"contracts/SafeMath.sol\":517:537  a == 0 || c / a == b */\n      dup1\n      tag_147\n      jumpi\n      pop\n        /* \"contracts/SafeMath.sol\":536:537  b */\n      dup2\n        /* \"contracts/SafeMath.sol\":531:532  a */\n      dup4\n        /* \"contracts/SafeMath.sol\":527:528  c */\n      dup3\n        /* \"contracts/SafeMath.sol\":527:532  c / a */\n      tag_148\n      swap2\n      swap1\n      tag_143\n      jump\t// in\n    tag_148:\n        /* \"contracts/SafeMath.sol\":527:537  c / a == b */\n      eq\n        /* \"contracts/SafeMath.sol\":517:537  a == 0 || c / a == b */\n    tag_147:\n        /* \"contracts/SafeMath.sol\":509:562  require(a == 0 || c / a == b, \"Multiplication faild\") */\n      tag_149\n      jumpi\n      mload(0x40)\n      0x08c379a000000000000000000000000000000000000000000000000000000000\n      dup2\n      mstore\n      0x04\n      add\n      tag_150\n      swap1\n      tag_151\n      jump\t// in\n    tag_150:\n      mload(0x40)\n      dup1\n      swap2\n      sub\n      swap1\n      revert\n    tag_149:\n        /* \"contracts/SafeMath.sol\":411:587  function mul(uint256 a, uint256 b) internal pure returns (uint256 c) {... */\n      swap3\n      swap2\n      pop\n      pop\n      jump\t// out\n        /* \"#utility.yul\":7:146   */\n    tag_153:\n        /* \"#utility.yul\":53:58   */\n      0x00\n        /* \"#utility.yul\":91:97   */\n      dup2\n        /* \"#utility.yul\":78:98   */\n      calldataload\n        /* \"#utility.yul\":69:98   */\n      swap1\n      pop\n        /* \"#utility.yul\":107:140   */\n      tag_155\n        /* \"#utility.yul\":134:139   */\n      dup2\n        /* \"#utility.yul\":107:140   */\n      tag_156\n      jump\t// in\n    tag_155:\n        /* \"#utility.yul\":7:146   */\n      swap3\n      swap2\n      pop\n      pop\n      jump\t// out\n        /* \"#utility.yul\":152:291   */\n    tag_157:\n        /* \"#utility.yul\":198:203   */\n      0x00\n        /* \"#utility.yul\":236:242   */\n      dup2\n        /* \"#utility.yul\":223:243   */\n      calldataload\n        /* \"#utility.yul\":214:243   */\n      swap1\n      pop\n        /* \"#utility.yul\":252:285   */\n      tag_159\n        /* \"#utility.yul\":279:284   */\n      dup2\n        /* \"#utility.yul\":252:285   */\n      tag_160\n      jump\t// in\n    tag_159:\n        /* \"#utility.yul\":152:291   */\n      swap3\n      swap2\n      pop\n      pop\n      jump\t// out\n        /* \"#utility.yul\":297:626   */\n    tag_23:\n        /* \"#utility.yul\":356:362   */\n      0x00\n        /* \"#utility.yul\":405:407   */\n      0x20\n        /* \"#utility.yul\":393:402   */\n      dup3\n        /* \"#utility.yul\":384:391   */\n      dup5\n        /* \"#utility.yul\":380:403   */\n      sub\n        /* \"#utility.yul\":376:408   */\n      slt\n        /* \"#utility.yul\":373:492   */\n      iszero\n      tag_162\n      jumpi\n        /* \"#utility.yul\":411:490   */\n      tag_163\n      tag_164\n      jump\t// in\n    tag_163:\n        /* \"#utility.yul\":373:492   */\n    tag_162:\n        /* \"#utility.yul\":531:532   */\n      0x00\n        /* \"#utility.yul\":556:609   */\n      tag_165\n        /* \"#utility.yul\":601:608   */\n      dup5\n        /* \"#utility.yul\":592:598   */\n      dup3\n        /* \"#utility.yul\":581:590   */\n      dup6\n        /* \"#utility.yul\":577:599   */\n      add\n        /* \"#utility.yul\":556:609   */\n      tag_153\n      jump\t// in\n    tag_165:\n        /* \"#utility.yul\":546:609   */\n      swap2\n      pop\n        /* \"#utility.yul\":502:619   */\n      pop\n        /* \"#utility.yul\":297:626   */\n      swap3\n      swap2\n      pop\n      pop\n      jump\t// out\n        /* \"#utility.yul\":632:1106   */\n    tag_27:\n        /* \"#utility.yul\":700:706   */\n      0x00\n        /* \"#utility.yul\":708:714   */\n      dup1\n        /* \"#utility.yul\":757:759   */\n      0x40\n        /* \"#utility.yul\":745:754   */\n      dup4\n        /* \"#utility.yul\":736:743   */\n      dup6\n        /* \"#utility.yul\":732:755   */\n      sub\n        /* \"#utility.yul\":728:760   */\n      slt\n        /* \"#utility.yul\":725:844   */\n      iszero\n      tag_167\n      jumpi\n        /* \"#utility.yul\":763:842   */\n      tag_168\n      tag_164\n      jump\t// in\n    tag_168:\n        /* \"#utility.yul\":725:844   */\n    tag_167:\n        /* \"#utility.yul\":883:884   */\n      0x00\n        /* \"#utility.yul\":908:961   */\n      tag_169\n        /* \"#utility.yul\":953:960   */\n      dup6\n        /* \"#utility.yul\":944:950   */\n      dup3\n        /* \"#utility.yul\":933:942   */\n      dup7\n        /* \"#utility.yul\":929:951   */\n      add\n        /* \"#utility.yul\":908:961   */\n      tag_157\n      jump\t// in\n    tag_169:\n        /* \"#utility.yul\":898:961   */\n      swap3\n      pop\n        /* \"#utility.yul\":854:971   */\n      pop\n        /* \"#utility.yul\":1010:1012   */\n      0x20\n        /* \"#utility.yul\":1036:1089   */\n      tag_170\n        /* \"#utility.yul\":1081:1088   */\n      dup6\n        /* \"#utility.yul\":1072:1078   */\n      dup3\n        /* \"#utility.yul\":1061:1070   */\n      dup7\n        /* \"#utility.yul\":1057:1079   */\n      add\n        /* \"#utility.yul\":1036:1089   */\n      tag_153\n      jump\t// in\n    tag_170:\n        /* \"#utility.yul\":1026:1089   */\n      swap2\n      pop\n        /* \"#utility.yul\":981:1099   */\n      pop\n        /* \"#utility.yul\":632:1106   */\n      swap3\n      pop\n      swap3\n      swap1\n      pop\n      jump\t// out\n        /* \"#utility.yul\":1112:1254   */\n    tag_171:\n        /* \"#utility.yul\":1215:1247   */\n      tag_173\n        /* \"#utility.yul\":1241:1246   */\n      dup2\n        /* \"#utility.yul\":1215:1247   */\n      tag_174\n      jump\t// in\n    tag_173:\n        /* \"#utility.yul\":1210:1213   */\n      dup3\n        /* \"#utility.yul\":1203:1248   */\n      mstore\n        /* \"#utility.yul\":1112:1254   */\n      pop\n      pop\n      jump\t// out\n        /* \"#utility.yul\":1260:1378   */\n    tag_175:\n        /* \"#utility.yul\":1347:1371   */\n      tag_177\n        /* \"#utility.yul\":1365:1370   */\n      dup2\n        /* \"#utility.yul\":1347:1371   */\n      tag_178\n      jump\t// in\n    tag_177:\n        /* \"#utility.yul\":1342:1345   */\n      dup3\n        /* \"#utility.yul\":1335:1372   */\n      mstore\n        /* \"#utility.yul\":1260:1378   */\n      pop\n      pop\n      jump\t// out\n        /* \"#utility.yul\":1384:1493   */\n    tag_179:\n        /* \"#utility.yul\":1465:1486   */\n      tag_181\n        /* \"#utility.yul\":1480:1485   */\n      dup2\n        /* \"#utility.yul\":1465:1486   */\n      tag_182\n      jump\t// in\n    tag_181:\n        /* \"#utility.yul\":1460:1463   */\n      dup3\n        /* \"#utility.yul\":1453:1487   */\n      mstore\n        /* \"#utility.yul\":1384:1493   */\n      pop\n      pop\n      jump\t// out\n        /* \"#utility.yul\":1499:1865   */\n    tag_183:\n        /* \"#utility.yul\":1641:1644   */\n      0x00\n        /* \"#utility.yul\":1662:1729   */\n      tag_185\n        /* \"#utility.yul\":1726:1728   */\n      0x13\n        /* \"#utility.yul\":1721:1724   */\n      dup4\n        /* \"#utility.yul\":1662:1729   */\n      tag_186\n      jump\t// in\n    tag_185:\n        /* \"#utility.yul\":1655:1729   */\n      swap2\n      pop\n        /* \"#utility.yul\":1738:1831   */\n      tag_187\n        /* \"#utility.yul\":1827:1830   */\n      dup3\n        /* \"#utility.yul\":1738:1831   */\n      tag_188\n      jump\t// in\n    tag_187:\n        /* \"#utility.yul\":1856:1858   */\n      0x20\n        /* \"#utility.yul\":1851:1854   */\n      dup3\n        /* \"#utility.yul\":1847:1859   */\n      add\n        /* \"#utility.yul\":1840:1859   */\n      swap1\n      pop\n        /* \"#utility.yul\":1499:1865   */\n      swap2\n      swap1\n      pop\n      jump\t// out\n        /* \"#utility.yul\":1871:2237   */\n    tag_189:\n        /* \"#utility.yul\":2013:2016   */\n      0x00\n        /* \"#utility.yul\":2034:2101   */\n      tag_191\n        /* \"#utility.yul\":2098:2100   */\n      0x29\n        /* \"#utility.yul\":2093:2096   */\n      dup4\n        /* \"#utility.yul\":2034:2101   */\n      tag_186\n      jump\t// in\n    tag_191:\n        /* \"#utility.yul\":2027:2101   */\n      swap2\n      pop\n        /* \"#utility.yul\":2110:2203   */\n      tag_192\n        /* \"#utility.yul\":2199:2202   */\n      dup3\n        /* \"#utility.yul\":2110:2203   */\n      tag_193\n      jump\t// in\n    tag_192:\n        /* \"#utility.yul\":2228:2230   */\n      0x40\n        /* \"#utility.yul\":2223:2226   */\n      dup3\n        /* \"#utility.yul\":2219:2231   */\n      add\n        /* \"#utility.yul\":2212:2231   */\n      swap1\n      pop\n        /* \"#utility.yul\":1871:2237   */\n      swap2\n      swap1\n      pop\n      jump\t// out\n        /* \"#utility.yul\":2243:2609   */\n    tag_194:\n        /* \"#utility.yul\":2385:2388   */\n      0x00\n        /* \"#utility.yul\":2406:2473   */\n      tag_196\n        /* \"#utility.yul\":2470:2472   */\n      0x20\n        /* \"#utility.yul\":2465:2468   */\n      dup4\n        /* \"#utility.yul\":2406:2473   */\n      tag_186\n      jump\t// in\n    tag_196:\n        /* \"#utility.yul\":2399:2473   */\n      swap2\n      pop\n        /* \"#utility.yul\":2482:2575   */\n      tag_197\n        /* \"#utility.yul\":2571:2574   */\n      dup3\n        /* \"#utility.yul\":2482:2575   */\n      tag_198\n      jump\t// in\n    tag_197:\n        /* \"#utility.yul\":2600:2602   */\n      0x20\n        /* \"#utility.yul\":2595:2598   */\n      dup3\n        /* \"#utility.yul\":2591:2603   */\n      add\n        /* \"#utility.yul\":2584:2603   */\n      swap1\n      pop\n        /* \"#utility.yul\":2243:2609   */\n      swap2\n      swap1\n      pop\n      jump\t// out\n        /* \"#utility.yul\":2615:2981   */\n    tag_199:\n        /* \"#utility.yul\":2757:2760   */\n      0x00\n        /* \"#utility.yul\":2778:2845   */\n      tag_201\n        /* \"#utility.yul\":2842:2844   */\n      0x18\n        /* \"#utility.yul\":2837:2840   */\n      dup4\n        /* \"#utility.yul\":2778:2845   */\n      tag_186\n      jump\t// in\n    tag_201:\n        /* \"#utility.yul\":2771:2845   */\n      swap2\n      pop\n        /* \"#utility.yul\":2854:2947   */\n      tag_202\n        /* \"#utility.yul\":2943:2946   */\n      dup3\n        /* \"#utility.yul\":2854:2947   */\n      tag_203\n      jump\t// in\n    tag_202:\n        /* \"#utility.yul\":2972:2974   */\n      0x20\n        /* \"#utility.yul\":2967:2970   */\n      dup3\n        /* \"#utility.yul\":2963:2975   */\n      add\n        /* \"#utility.yul\":2956:2975   */\n      swap1\n      pop\n        /* \"#utility.yul\":2615:2981   */\n      swap2\n      swap1\n      pop\n      jump\t// out\n        /* \"#utility.yul\":2987:3353   */\n    tag_204:\n        /* \"#utility.yul\":3129:3132   */\n      0x00\n        /* \"#utility.yul\":3150:3217   */\n      tag_206\n        /* \"#utility.yul\":3214:3216   */\n      0x24\n        /* \"#utility.yul\":3209:3212   */\n      dup4\n        /* \"#utility.yul\":3150:3217   */\n      tag_186\n      jump\t// in\n    tag_206:\n        /* \"#utility.yul\":3143:3217   */\n      swap2\n      pop\n        /* \"#utility.yul\":3226:3319   */\n      tag_207\n        /* \"#utility.yul\":3315:3318   */\n      dup3\n        /* \"#utility.yul\":3226:3319   */\n      tag_208\n      jump\t// in\n    tag_207:\n        /* \"#utility.yul\":3344:3346   */\n      0x40\n        /* \"#utility.yul\":3339:3342   */\n      dup3\n        /* \"#utility.yul\":3335:3347   */\n      add\n        /* \"#utility.yul\":3328:3347   */\n      swap1\n      pop\n        /* \"#utility.yul\":2987:3353   */\n      swap2\n      swap1\n      pop\n      jump\t// out\n        /* \"#utility.yul\":3359:3724   */\n    tag_209:\n        /* \"#utility.yul\":3501:3504   */\n      0x00\n        /* \"#utility.yul\":3522:3588   */\n      tag_211\n        /* \"#utility.yul\":3586:3587   */\n      0x06\n        /* \"#utility.yul\":3581:3584   */\n      dup4\n        /* \"#utility.yul\":3522:3588   */\n      tag_186\n      jump\t// in\n    tag_211:\n        /* \"#utility.yul\":3515:3588   */\n      swap2\n      pop\n        /* \"#utility.yul\":3597:3690   */\n      tag_212\n        /* \"#utility.yul\":3686:3689   */\n      dup3\n        /* \"#utility.yul\":3597:3690   */\n      tag_213\n      jump\t// in\n    tag_212:\n        /* \"#utility.yul\":3715:3717   */\n      0x20\n        /* \"#utility.yul\":3710:3713   */\n      dup3\n        /* \"#utility.yul\":3706:3718   */\n      add\n        /* \"#utility.yul\":3699:3718   */\n      swap1\n      pop\n        /* \"#utility.yul\":3359:3724   */\n      swap2\n      swap1\n      pop\n      jump\t// out\n        /* \"#utility.yul\":3730:4096   */\n    tag_214:\n        /* \"#utility.yul\":3872:3875   */\n      0x00\n        /* \"#utility.yul\":3893:3960   */\n      tag_216\n        /* \"#utility.yul\":3957:3959   */\n      0x12\n        /* \"#utility.yul\":3952:3955   */\n      dup4\n        /* \"#utility.yul\":3893:3960   */\n      tag_186\n      jump\t// in\n    tag_216:\n        /* \"#utility.yul\":3886:3960   */\n      swap2\n      pop\n        /* \"#utility.yul\":3969:4062   */\n      tag_217\n        /* \"#utility.yul\":4058:4061   */\n      dup3\n        /* \"#utility.yul\":3969:4062   */\n      tag_218\n      jump\t// in\n    tag_217:\n        /* \"#utility.yul\":4087:4089   */\n      0x20\n        /* \"#utility.yul\":4082:4085   */\n      dup3\n        /* \"#utility.yul\":4078:4090   */\n      add\n        /* \"#utility.yul\":4071:4090   */\n      swap1\n      pop\n        /* \"#utility.yul\":3730:4096   */\n      swap2\n      swap1\n      pop\n      jump\t// out\n        /* \"#utility.yul\":4102:4468   */\n    tag_219:\n        /* \"#utility.yul\":4244:4247   */\n      0x00\n        /* \"#utility.yul\":4265:4332   */\n      tag_221\n        /* \"#utility.yul\":4329:4331   */\n      0x0f\n        /* \"#utility.yul\":4324:4327   */\n      dup4\n        /* \"#utility.yul\":4265:4332   */\n      tag_186\n      jump\t// in\n    tag_221:\n        /* \"#utility.yul\":4258:4332   */\n      swap2\n      pop\n        /* \"#utility.yul\":4341:4434   */\n      tag_222\n        /* \"#utility.yul\":4430:4433   */\n      dup3\n        /* \"#utility.yul\":4341:4434   */\n      tag_223\n      jump\t// in\n    tag_222:\n        /* \"#utility.yul\":4459:4461   */\n      0x20\n        /* \"#utility.yul\":4454:4457   */\n      dup3\n        /* \"#utility.yul\":4450:4462   */\n      add\n        /* \"#utility.yul\":4443:4462   */\n      swap1\n      pop\n        /* \"#utility.yul\":4102:4468   */\n      swap2\n      swap1\n      pop\n      jump\t// out\n        /* \"#utility.yul\":4474:4840   */\n    tag_224:\n        /* \"#utility.yul\":4616:4619   */\n      0x00\n        /* \"#utility.yul\":4637:4704   */\n      tag_226\n        /* \"#utility.yul\":4701:4703   */\n      0x24\n        /* \"#utility.yul\":4696:4699   */\n      dup4\n        /* \"#utility.yul\":4637:4704   */\n      tag_186\n      jump\t// in\n    tag_226:\n        /* \"#utility.yul\":4630:4704   */\n      swap2\n      pop\n        /* \"#utility.yul\":4713:4806   */\n      tag_227\n        /* \"#utility.yul\":4802:4805   */\n      dup3\n        /* \"#utility.yul\":4713:4806   */\n      tag_228\n      jump\t// in\n    tag_227:\n        /* \"#utility.yul\":4831:4833   */\n      0x40\n        /* \"#utility.yul\":4826:4829   */\n      dup3\n        /* \"#utility.yul\":4822:4834   */\n      add\n        /* \"#utility.yul\":4815:4834   */\n      swap1\n      pop\n        /* \"#utility.yul\":4474:4840   */\n      swap2\n      swap1\n      pop\n      jump\t// out\n        /* \"#utility.yul\":4846:5212   */\n    tag_229:\n        /* \"#utility.yul\":4988:4991   */\n      0x00\n        /* \"#utility.yul\":5009:5076   */\n      tag_231\n        /* \"#utility.yul\":5073:5075   */\n      0x2c\n        /* \"#utility.yul\":5068:5071   */\n      dup4\n        /* \"#utility.yul\":5009:5076   */\n      tag_186\n      jump\t// in\n    tag_231:\n        /* \"#utility.yul\":5002:5076   */\n      swap2\n      pop\n        /* \"#utility.yul\":5085:5178   */\n      tag_232\n        /* \"#utility.yul\":5174:5177   */\n      dup3\n        /* \"#utility.yul\":5085:5178   */\n      tag_233\n      jump\t// in\n    tag_232:\n        /* \"#utility.yul\":5203:5205   */\n      0x40\n        /* \"#utility.yul\":5198:5201   */\n      dup3\n        /* \"#utility.yul\":5194:5206   */\n      add\n        /* \"#utility.yul\":5187:5206   */\n      swap1\n      pop\n        /* \"#utility.yul\":4846:5212   */\n      swap2\n      swap1\n      pop\n      jump\t// out\n        /* \"#utility.yul\":5218:5584   */\n    tag_234:\n        /* \"#utility.yul\":5360:5363   */\n      0x00\n        /* \"#utility.yul\":5381:5448   */\n      tag_236\n        /* \"#utility.yul\":5445:5447   */\n      0x0e\n        /* \"#utility.yul\":5440:5443   */\n      dup4\n        /* \"#utility.yul\":5381:5448   */\n      tag_186\n      jump\t// in\n    tag_236:\n        /* \"#utility.yul\":5374:5448   */\n      swap2\n      pop\n        /* \"#utility.yul\":5457:5550   */\n      tag_237\n        /* \"#utility.yul\":5546:5549   */\n      dup3\n        /* \"#utility.yul\":5457:5550   */\n      tag_238\n      jump\t// in\n    tag_237:\n        /* \"#utility.yul\":5575:5577   */\n      0x20\n        /* \"#utility.yul\":5570:5573   */\n      dup3\n        /* \"#utility.yul\":5566:5578   */\n      add\n        /* \"#utility.yul\":5559:5578   */\n      swap1\n      pop\n        /* \"#utility.yul\":5218:5584   */\n      swap2\n      swap1\n      pop\n      jump\t// out\n        /* \"#utility.yul\":5590:5956   */\n    tag_239:\n        /* \"#utility.yul\":5732:5735   */\n      0x00\n        /* \"#utility.yul\":5753:5820   */\n      tag_241\n        /* \"#utility.yul\":5817:5819   */\n      0x27\n        /* \"#utility.yul\":5812:5815   */\n      dup4\n        /* \"#utility.yul\":5753:5820   */\n      tag_186\n      jump\t// in\n    tag_241:\n        /* \"#utility.yul\":5746:5820   */\n      swap2\n      pop\n        /* \"#utility.yul\":5829:5922   */\n      tag_242\n        /* \"#utility.yul\":5918:5921   */\n      dup3\n        /* \"#utility.yul\":5829:5922   */\n      tag_243\n      jump\t// in\n    tag_242:\n        /* \"#utility.yul\":5947:5949   */\n      0x40\n        /* \"#utility.yul\":5942:5945   */\n      dup3\n        /* \"#utility.yul\":5938:5950   */\n      add\n        /* \"#utility.yul\":5931:5950   */\n      swap1\n      pop\n        /* \"#utility.yul\":5590:5956   */\n      swap2\n      swap1\n      pop\n      jump\t// out\n        /* \"#utility.yul\":5962:6328   */\n    tag_244:\n        /* \"#utility.yul\":6104:6107   */\n      0x00\n        /* \"#utility.yul\":6125:6192   */\n      tag_246\n        /* \"#utility.yul\":6189:6191   */\n      0x32\n        /* \"#utility.yul\":6184:6187   */\n      dup4\n        /* \"#utility.yul\":6125:6192   */\n      tag_186\n      jump\t// in\n    tag_246:\n        /* \"#utility.yul\":6118:6192   */\n      swap2\n      pop\n        /* \"#utility.yul\":6201:6294   */\n      tag_247\n        /* \"#utility.yul\":6290:6293   */\n      dup3\n        /* \"#utility.yul\":6201:6294   */\n      tag_248\n      jump\t// in\n    tag_247:\n        /* \"#utility.yul\":6319:6321   */\n      0x40\n        /* \"#utility.yul\":6314:6317   */\n      dup3\n        /* \"#utility.yul\":6310:6322   */\n      add\n        /* \"#utility.yul\":6303:6322   */\n      swap1\n      pop\n        /* \"#utility.yul\":5962:6328   */\n      swap2\n      swap1\n      pop\n      jump\t// out\n        /* \"#utility.yul\":6334:6700   */\n    tag_249:\n        /* \"#utility.yul\":6476:6479   */\n      0x00\n        /* \"#utility.yul\":6497:6564   */\n      tag_251\n        /* \"#utility.yul\":6561:6563   */\n      0x14\n        /* \"#utility.yul\":6556:6559   */\n      dup4\n        /* \"#utility.yul\":6497:6564   */\n      tag_186\n      jump\t// in\n    tag_251:\n        /* \"#utility.yul\":6490:6564   */\n      swap2\n      pop\n        /* \"#utility.yul\":6573:6666   */\n      tag_252\n        /* \"#utility.yul\":6662:6665   */\n      dup3\n        /* \"#utility.yul\":6573:6666   */\n      tag_253\n      jump\t// in\n    tag_252:\n        /* \"#utility.yul\":6691:6693   */\n      0x20\n        /* \"#utility.yul\":6686:6689   */\n      dup3\n        /* \"#utility.yul\":6682:6694   */\n      add\n        /* \"#utility.yul\":6675:6694   */\n      swap1\n      pop\n        /* \"#utility.yul\":6334:6700   */\n      swap2\n      swap1\n      pop\n      jump\t// out\n        /* \"#utility.yul\":6706:6824   */\n    tag_254:\n        /* \"#utility.yul\":6793:6817   */\n      tag_256\n        /* \"#utility.yul\":6811:6816   */\n      dup2\n        /* \"#utility.yul\":6793:6817   */\n      tag_257\n      jump\t// in\n    tag_256:\n        /* \"#utility.yul\":6788:6791   */\n      dup3\n        /* \"#utility.yul\":6781:6818   */\n      mstore\n        /* \"#utility.yul\":6706:6824   */\n      pop\n      pop\n      jump\t// out\n        /* \"#utility.yul\":6830:7052   */\n    tag_54:\n        /* \"#utility.yul\":6923:6927   */\n      0x00\n        /* \"#utility.yul\":6961:6963   */\n      0x20\n        /* \"#utility.yul\":6950:6959   */\n      dup3\n        /* \"#utility.yul\":6946:6964   */\n      add\n        /* \"#utility.yul\":6938:6964   */\n      swap1\n      pop\n        /* \"#utility.yul\":6974:7045   */\n      tag_259\n        /* \"#utility.yul\":7042:7043   */\n      0x00\n        /* \"#utility.yul\":7031:7040   */\n      dup4\n        /* \"#utility.yul\":7027:7044   */\n      add\n        /* \"#utility.yul\":7018:7024   */\n      dup5\n        /* \"#utility.yul\":6974:7045   */\n      tag_175\n      jump\t// in\n    tag_259:\n        /* \"#utility.yul\":6830:7052   */\n      swap3\n      swap2\n      pop\n      pop\n      jump\t// out\n        /* \"#utility.yul\":7058:7312   */\n    tag_49:\n        /* \"#utility.yul\":7167:7171   */\n      0x00\n        /* \"#utility.yul\":7205:7207   */\n      0x20\n        /* \"#utility.yul\":7194:7203   */\n      dup3\n        /* \"#utility.yul\":7190:7208   */\n      add\n        /* \"#utility.yul\":7182:7208   */\n      swap1\n      pop\n        /* \"#utility.yul\":7218:7305   */\n      tag_261\n        /* \"#utility.yul\":7302:7303   */\n      0x00\n        /* \"#utility.yul\":7291:7300   */\n      dup4\n        /* \"#utility.yul\":7287:7304   */\n      add\n        /* \"#utility.yul\":7278:7284   */\n      dup5\n        /* \"#utility.yul\":7218:7305   */\n      tag_171\n      jump\t// in\n    tag_261:\n        /* \"#utility.yul\":7058:7312   */\n      swap3\n      swap2\n      pop\n      pop\n      jump\t// out\n        /* \"#utility.yul\":7318:7528   */\n    tag_65:\n        /* \"#utility.yul\":7405:7409   */\n      0x00\n        /* \"#utility.yul\":7443:7445   */\n      0x20\n        /* \"#utility.yul\":7432:7441   */\n      dup3\n        /* \"#utility.yul\":7428:7446   */\n      add\n        /* \"#utility.yul\":7420:7446   */\n      swap1\n      pop\n        /* \"#utility.yul\":7456:7521   */\n      tag_263\n        /* \"#utility.yul\":7518:7519   */\n      0x00\n        /* \"#utility.yul\":7507:7516   */\n      dup4\n        /* \"#utility.yul\":7503:7520   */\n      add\n        /* \"#utility.yul\":7494:7500   */\n      dup5\n        /* \"#utility.yul\":7456:7521   */\n      tag_179\n      jump\t// in\n    tag_263:\n        /* \"#utility.yul\":7318:7528   */\n      swap3\n      swap2\n      pop\n      pop\n      jump\t// out\n        /* \"#utility.yul\":7534:8063   */\n    tag_91:\n        /* \"#utility.yul\":7728:7732   */\n      0x00\n        /* \"#utility.yul\":7766:7768   */\n      0x40\n        /* \"#utility.yul\":7755:7764   */\n      dup3\n        /* \"#utility.yul\":7751:7769   */\n      add\n        /* \"#utility.yul\":7743:7769   */\n      swap1\n      pop\n        /* \"#utility.yul\":7815:7824   */\n      dup2\n        /* \"#utility.yul\":7809:7813   */\n      dup2\n        /* \"#utility.yul\":7805:7825   */\n      sub\n        /* \"#utility.yul\":7801:7802   */\n      0x00\n        /* \"#utility.yul\":7790:7799   */\n      dup4\n        /* \"#utility.yul\":7786:7803   */\n      add\n        /* \"#utility.yul\":7779:7826   */\n      mstore\n        /* \"#utility.yul\":7843:7974   */\n      tag_265\n        /* \"#utility.yul\":7969:7973   */\n      dup2\n        /* \"#utility.yul\":7843:7974   */\n      tag_183\n      jump\t// in\n    tag_265:\n        /* \"#utility.yul\":7835:7974   */\n      swap1\n      pop\n        /* \"#utility.yul\":7984:8056   */\n      tag_266\n        /* \"#utility.yul\":8052:8054   */\n      0x20\n        /* \"#utility.yul\":8041:8050   */\n      dup4\n        /* \"#utility.yul\":8037:8055   */\n      add\n        /* \"#utility.yul\":8028:8034   */\n      dup5\n        /* \"#utility.yul\":7984:8056   */\n      tag_175\n      jump\t// in\n    tag_266:\n        /* \"#utility.yul\":7534:8063   */\n      swap3\n      swap2\n      pop\n      pop\n      jump\t// out\n        /* \"#utility.yul\":8069:8488   */\n    tag_81:\n        /* \"#utility.yul\":8235:8239   */\n      0x00\n        /* \"#utility.yul\":8273:8275   */\n      0x20\n        /* \"#utility.yul\":8262:8271   */\n      dup3\n        /* \"#utility.yul\":8258:8276   */\n      add\n        /* \"#utility.yul\":8250:8276   */\n      swap1\n      pop\n        /* \"#utility.yul\":8322:8331   */\n      dup2\n        /* \"#utility.yul\":8316:8320   */\n      dup2\n        /* \"#utility.yul\":8312:8332   */\n      sub\n        /* \"#utility.yul\":8308:8309   */\n      0x00\n        /* \"#utility.yul\":8297:8306   */\n      dup4\n        /* \"#utility.yul\":8293:8310   */\n      add\n        /* \"#utility.yul\":8286:8333   */\n      mstore\n        /* \"#utility.yul\":8350:8481   */\n      tag_268\n        /* \"#utility.yul\":8476:8480   */\n      dup2\n        /* \"#utility.yul\":8350:8481   */\n      tag_189\n      jump\t// in\n    tag_268:\n        /* \"#utility.yul\":8342:8481   */\n      swap1\n      pop\n        /* \"#utility.yul\":8069:8488   */\n      swap2\n      swap1\n      pop\n      jump\t// out\n        /* \"#utility.yul\":8494:8913   */\n    tag_101:\n        /* \"#utility.yul\":8660:8664   */\n      0x00\n        /* \"#utility.yul\":8698:8700   */\n      0x20\n        /* \"#utility.yul\":8687:8696   */\n      dup3\n        /* \"#utility.yul\":8683:8701   */\n      add\n        /* \"#utility.yul\":8675:8701   */\n      swap1\n      pop\n        /* \"#utility.yul\":8747:8756   */\n      dup2\n        /* \"#utility.yul\":8741:8745   */\n      dup2\n        /* \"#utility.yul\":8737:8757   */\n      sub\n        /* \"#utility.yul\":8733:8734   */\n      0x00\n        /* \"#utility.yul\":8722:8731   */\n      dup4\n        /* \"#utility.yul\":8718:8735   */\n      add\n        /* \"#utility.yul\":8711:8758   */\n      mstore\n        /* \"#utility.yul\":8775:8906   */\n      tag_270\n        /* \"#utility.yul\":8901:8905   */\n      dup2\n        /* \"#utility.yul\":8775:8906   */\n      tag_194\n      jump\t// in\n    tag_270:\n        /* \"#utility.yul\":8767:8906   */\n      swap1\n      pop\n        /* \"#utility.yul\":8494:8913   */\n      swap2\n      swap1\n      pop\n      jump\t// out\n        /* \"#utility.yul\":8919:9338   */\n    tag_123:\n        /* \"#utility.yul\":9085:9089   */\n      0x00\n        /* \"#utility.yul\":9123:9125   */\n      0x20\n        /* \"#utility.yul\":9112:9121   */\n      dup3\n        /* \"#utility.yul\":9108:9126   */\n      add\n        /* \"#utility.yul\":9100:9126   */\n      swap1\n      pop\n        /* \"#utility.yul\":9172:9181   */\n      dup2\n        /* \"#utility.yul\":9166:9170   */\n      dup2\n        /* \"#utility.yul\":9162:9182   */\n      sub\n        /* \"#utility.yul\":9158:9159   */\n      0x00\n        /* \"#utility.yul\":9147:9156   */\n      dup4\n        /* \"#utility.yul\":9143:9160   */\n      add\n        /* \"#utility.yul\":9136:9183   */\n      mstore\n        /* \"#utility.yul\":9200:9331   */\n      tag_272\n        /* \"#utility.yul\":9326:9330   */\n      dup2\n        /* \"#utility.yul\":9200:9331   */\n      tag_199\n      jump\t// in\n    tag_272:\n        /* \"#utility.yul\":9192:9331   */\n      swap1\n      pop\n        /* \"#utility.yul\":8919:9338   */\n      swap2\n      swap1\n      pop\n      jump\t// out\n        /* \"#utility.yul\":9344:9763   */\n    tag_95:\n        /* \"#utility.yul\":9510:9514   */\n      0x00\n        /* \"#utility.yul\":9548:9550   */\n      0x20\n        /* \"#utility.yul\":9537:9546   */\n      dup3\n        /* \"#utility.yul\":9533:9551   */\n      add\n        /* \"#utility.yul\":9525:9551   */\n      swap1\n      pop\n        /* \"#utility.yul\":9597:9606   */\n      dup2\n        /* \"#utility.yul\":9591:9595   */\n      dup2\n        /* \"#utility.yul\":9587:9607   */\n      sub\n        /* \"#utility.yul\":9583:9584   */\n      0x00\n        /* \"#utility.yul\":9572:9581   */\n      dup4\n        /* \"#utility.yul\":9568:9585   */\n      add\n        /* \"#utility.yul\":9561:9608   */\n      mstore\n        /* \"#utility.yul\":9625:9756   */\n      tag_274\n        /* \"#utility.yul\":9751:9755   */\n      dup2\n        /* \"#utility.yul\":9625:9756   */\n      tag_204\n      jump\t// in\n    tag_274:\n        /* \"#utility.yul\":9617:9756   */\n      swap1\n      pop\n        /* \"#utility.yul\":9344:9763   */\n      swap2\n      swap1\n      pop\n      jump\t// out\n        /* \"#utility.yul\":9769:10298   */\n    tag_127:\n        /* \"#utility.yul\":9963:9967   */\n      0x00\n        /* \"#utility.yul\":10001:10003   */\n      0x40\n        /* \"#utility.yul\":9990:9999   */\n      dup3\n        /* \"#utility.yul\":9986:10004   */\n      add\n        /* \"#utility.yul\":9978:10004   */\n      swap1\n      pop\n        /* \"#utility.yul\":10050:10059   */\n      dup2\n        /* \"#utility.yul\":10044:10048   */\n      dup2\n        /* \"#utility.yul\":10040:10060   */\n      sub\n        /* \"#utility.yul\":10036:10037   */\n      0x00\n        /* \"#utility.yul\":10025:10034   */\n      dup4\n        /* \"#utility.yul\":10021:10038   */\n      add\n        /* \"#utility.yul\":10014:10061   */\n      mstore\n        /* \"#utility.yul\":10078:10209   */\n      tag_276\n        /* \"#utility.yul\":10204:10208   */\n      dup2\n        /* \"#utility.yul\":10078:10209   */\n      tag_209\n      jump\t// in\n    tag_276:\n        /* \"#utility.yul\":10070:10209   */\n      swap1\n      pop\n        /* \"#utility.yul\":10219:10291   */\n      tag_277\n        /* \"#utility.yul\":10287:10289   */\n      0x20\n        /* \"#utility.yul\":10276:10285   */\n      dup4\n        /* \"#utility.yul\":10272:10290   */\n      add\n        /* \"#utility.yul\":10263:10269   */\n      dup5\n        /* \"#utility.yul\":10219:10291   */\n      tag_175\n      jump\t// in\n    tag_277:\n        /* \"#utility.yul\":9769:10298   */\n      swap3\n      swap2\n      pop\n      pop\n      jump\t// out\n        /* \"#utility.yul\":10304:10723   */\n    tag_131:\n        /* \"#utility.yul\":10470:10474   */\n      0x00\n        /* \"#utility.yul\":10508:10510   */\n      0x20\n        /* \"#utility.yul\":10497:10506   */\n      dup3\n        /* \"#utility.yul\":10493:10511   */\n      add\n        /* \"#utility.yul\":10485:10511   */\n      swap1\n      pop\n        /* \"#utility.yul\":10557:10566   */\n      dup2\n        /* \"#utility.yul\":10551:10555   */\n      dup2\n        /* \"#utility.yul\":10547:10567   */\n      sub\n        /* \"#utility.yul\":10543:10544   */\n      0x00\n        /* \"#utility.yul\":10532:10541   */\n      dup4\n        /* \"#utility.yul\":10528:10545   */\n      add\n        /* \"#utility.yul\":10521:10568   */\n      mstore\n        /* \"#utility.yul\":10585:10716   */\n      tag_279\n        /* \"#utility.yul\":10711:10715   */\n      dup2\n        /* \"#utility.yul\":10585:10716   */\n      tag_214\n      jump\t// in\n    tag_279:\n        /* \"#utility.yul\":10577:10716   */\n      swap1\n      pop\n        /* \"#utility.yul\":10304:10723   */\n      swap2\n      swap1\n      pop\n      jump\t// out\n        /* \"#utility.yul\":10729:11148   */\n    tag_137:\n        /* \"#utility.yul\":10895:10899   */\n      0x00\n        /* \"#utility.yul\":10933:10935   */\n      0x20\n        /* \"#utility.yul\":10922:10931   */\n      dup3\n        /* \"#utility.yul\":10918:10936   */\n      add\n        /* \"#utility.yul\":10910:10936   */\n      swap1\n      pop\n        /* \"#utility.yul\":10982:10991   */\n      dup2\n        /* \"#utility.yul\":10976:10980   */\n      dup2\n        /* \"#utility.yul\":10972:10992   */\n      sub\n        /* \"#utility.yul\":10968:10969   */\n      0x00\n        /* \"#utility.yul\":10957:10966   */\n      dup4\n        /* \"#utility.yul\":10953:10970   */\n      add\n        /* \"#utility.yul\":10946:10993   */\n      mstore\n        /* \"#utility.yul\":11010:11141   */\n      tag_281\n        /* \"#utility.yul\":11136:11140   */\n      dup2\n        /* \"#utility.yul\":11010:11141   */\n      tag_219\n      jump\t// in\n    tag_281:\n        /* \"#utility.yul\":11002:11141   */\n      swap1\n      pop\n        /* \"#utility.yul\":10729:11148   */\n      swap2\n      swap1\n      pop\n      jump\t// out\n        /* \"#utility.yul\":11154:11573   */\n    tag_108:\n        /* \"#utility.yul\":11320:11324   */\n      0x00\n        /* \"#utility.yul\":11358:11360   */\n      0x20\n        /* \"#utility.yul\":11347:11356   */\n      dup3\n        /* \"#utility.yul\":11343:11361   */\n      add\n        /* \"#utility.yul\":11335:11361   */\n      swap1\n      pop\n        /* \"#utility.yul\":11407:11416   */\n      dup2\n        /* \"#utility.yul\":11401:11405   */\n      dup2\n        /* \"#utility.yul\":11397:11417   */\n      sub\n        /* \"#utility.yul\":11393:11394   */\n      0x00\n        /* \"#utility.yul\":11382:11391   */\n      dup4\n        /* \"#utility.yul\":11378:11395   */\n      add\n        /* \"#utility.yul\":11371:11418   */\n      mstore\n        /* \"#utility.yul\":11435:11566   */\n      tag_283\n        /* \"#utility.yul\":11561:11565   */\n      dup2\n        /* \"#utility.yul\":11435:11566   */\n      tag_224\n      jump\t// in\n    tag_283:\n        /* \"#utility.yul\":11427:11566   */\n      swap1\n      pop\n        /* \"#utility.yul\":11154:11573   */\n      swap2\n      swap1\n      pop\n      jump\t// out\n        /* \"#utility.yul\":11579:11998   */\n    tag_76:\n        /* \"#utility.yul\":11745:11749   */\n      0x00\n        /* \"#utility.yul\":11783:11785   */\n      0x20\n        /* \"#utility.yul\":11772:11781   */\n      dup3\n        /* \"#utility.yul\":11768:11786   */\n      add\n        /* \"#utility.yul\":11760:11786   */\n      swap1\n      pop\n        /* \"#utility.yul\":11832:11841   */\n      dup2\n        /* \"#utility.yul\":11826:11830   */\n      dup2\n        /* \"#utility.yul\":11822:11842   */\n      sub\n        /* \"#utility.yul\":11818:11819   */\n      0x00\n        /* \"#utility.yul\":11807:11816   */\n      dup4\n        /* \"#utility.yul\":11803:11820   */\n      add\n        /* \"#utility.yul\":11796:11843   */\n      mstore\n        /* \"#utility.yul\":11860:11991   */\n      tag_285\n        /* \"#utility.yul\":11986:11990   */\n      dup2\n        /* \"#utility.yul\":11860:11991   */\n      tag_229\n      jump\t// in\n    tag_285:\n        /* \"#utility.yul\":11852:11991   */\n      swap1\n      pop\n        /* \"#utility.yul\":11579:11998   */\n      swap2\n      swap1\n      pop\n      jump\t// out\n        /* \"#utility.yul\":12004:12423   */\n    tag_141:\n        /* \"#utility.yul\":12170:12174   */\n      0x00\n        /* \"#utility.yul\":12208:12210   */\n      0x20\n        /* \"#utility.yul\":12197:12206   */\n      dup3\n        /* \"#utility.yul\":12193:12211   */\n      add\n        /* \"#utility.yul\":12185:12211   */\n      swap1\n      pop\n        /* \"#utility.yul\":12257:12266   */\n      dup2\n        /* \"#utility.yul\":12251:12255   */\n      dup2\n        /* \"#utility.yul\":12247:12267   */\n      sub\n        /* \"#utility.yul\":12243:12244   */\n      0x00\n        /* \"#utility.yul\":12232:12241   */\n      dup4\n        /* \"#utility.yul\":12228:12245   */\n      add\n        /* \"#utility.yul\":12221:12268   */\n      mstore\n        /* \"#utility.yul\":12285:12416   */\n      tag_287\n        /* \"#utility.yul\":12411:12415   */\n      dup2\n        /* \"#utility.yul\":12285:12416   */\n      tag_234\n      jump\t// in\n    tag_287:\n        /* \"#utility.yul\":12277:12416   */\n      swap1\n      pop\n        /* \"#utility.yul\":12004:12423   */\n      swap2\n      swap1\n      pop\n      jump\t// out\n        /* \"#utility.yul\":12429:12848   */\n    tag_85:\n        /* \"#utility.yul\":12595:12599   */\n      0x00\n        /* \"#utility.yul\":12633:12635   */\n      0x20\n        /* \"#utility.yul\":12622:12631   */\n      dup3\n        /* \"#utility.yul\":12618:12636   */\n      add\n        /* \"#utility.yul\":12610:12636   */\n      swap1\n      pop\n        /* \"#utility.yul\":12682:12691   */\n      dup2\n        /* \"#utility.yul\":12676:12680   */\n      dup2\n        /* \"#utility.yul\":12672:12692   */\n      sub\n        /* \"#utility.yul\":12668:12669   */\n      0x00\n        /* \"#utility.yul\":12657:12666   */\n      dup4\n        /* \"#utility.yul\":12653:12670   */\n      add\n        /* \"#utility.yul\":12646:12693   */\n      mstore\n        /* \"#utility.yul\":12710:12841   */\n      tag_289\n        /* \"#utility.yul\":12836:12840   */\n      dup2\n        /* \"#utility.yul\":12710:12841   */\n      tag_239\n      jump\t// in\n    tag_289:\n        /* \"#utility.yul\":12702:12841   */\n      swap1\n      pop\n        /* \"#utility.yul\":12429:12848   */\n      swap2\n      swap1\n      pop\n      jump\t// out\n        /* \"#utility.yul\":12854:13273   */\n    tag_117:\n        /* \"#utility.yul\":13020:13024   */\n      0x00\n        /* \"#utility.yul\":13058:13060   */\n      0x20\n        /* \"#utility.yul\":13047:13056   */\n      dup3\n        /* \"#utility.yul\":13043:13061   */\n      add\n        /* \"#utility.yul\":13035:13061   */\n      swap1\n      pop\n        /* \"#utility.yul\":13107:13116   */\n      dup2\n        /* \"#utility.yul\":13101:13105   */\n      dup2\n        /* \"#utility.yul\":13097:13117   */\n      sub\n        /* \"#utility.yul\":13093:13094   */\n      0x00\n        /* \"#utility.yul\":13082:13091   */\n      dup4\n        /* \"#utility.yul\":13078:13095   */\n      add\n        /* \"#utility.yul\":13071:13118   */\n      mstore\n        /* \"#utility.yul\":13135:13266   */\n      tag_291\n        /* \"#utility.yul\":13261:13265   */\n      dup2\n        /* \"#utility.yul\":13135:13266   */\n      tag_244\n      jump\t// in\n    tag_291:\n        /* \"#utility.yul\":13127:13266   */\n      swap1\n      pop\n        /* \"#utility.yul\":12854:13273   */\n      swap2\n      swap1\n      pop\n      jump\t// out\n        /* \"#utility.yul\":13279:13698   */\n    tag_151:\n        /* \"#utility.yul\":13445:13449   */\n      0x00\n        /* \"#utility.yul\":13483:13485   */\n      0x20\n        /* \"#utility.yul\":13472:13481   */\n      dup3\n        /* \"#utility.yul\":13468:13486   */\n      add\n        /* \"#utility.yul\":13460:13486   */\n      swap1\n      pop\n        /* \"#utility.yul\":13532:13541   */\n      dup2\n        /* \"#utility.yul\":13526:13530   */\n      dup2\n        /* \"#utility.yul\":13522:13542   */\n      sub\n        /* \"#utility.yul\":13518:13519   */\n      0x00\n        /* \"#utility.yul\":13507:13516   */\n      dup4\n        /* \"#utility.yul\":13503:13520   */\n      add\n        /* \"#utility.yul\":13496:13543   */\n      mstore\n        /* \"#utility.yul\":13560:13691   */\n      tag_293\n        /* \"#utility.yul\":13686:13690   */\n      dup2\n        /* \"#utility.yul\":13560:13691   */\n      tag_249\n      jump\t// in\n    tag_293:\n        /* \"#utility.yul\":13552:13691   */\n      swap1\n      pop\n        /* \"#utility.yul\":13279:13698   */\n      swap2\n      swap1\n      pop\n      jump\t// out\n        /* \"#utility.yul\":13704:13926   */\n    tag_36:\n        /* \"#utility.yul\":13797:13801   */\n      0x00\n        /* \"#utility.yul\":13835:13837   */\n      0x20\n        /* \"#utility.yul\":13824:13833   */\n      dup3\n        /* \"#utility.yul\":13820:13838   */\n      add\n        /* \"#utility.yul\":13812:13838   */\n      swap1\n      pop\n        /* \"#utility.yul\":13848:13919   */\n      tag_295\n        /* \"#utility.yul\":13916:13917   */\n      0x00\n        /* \"#utility.yul\":13905:13914   */\n      dup4\n        /* \"#utility.yul\":13901:13918   */\n      add\n        /* \"#utility.yul\":13892:13898   */\n      dup5\n        /* \"#utility.yul\":13848:13919   */\n      tag_254\n      jump\t// in\n    tag_295:\n        /* \"#utility.yul\":13704:13926   */\n      swap3\n      swap2\n      pop\n      pop\n      jump\t// out\n        /* \"#utility.yul\":14013:14182   */\n    tag_186:\n        /* \"#utility.yul\":14097:14108   */\n      0x00\n        /* \"#utility.yul\":14131:14137   */\n      dup3\n        /* \"#utility.yul\":14126:14129   */\n      dup3\n        /* \"#utility.yul\":14119:14138   */\n      mstore\n        /* \"#utility.yul\":14171:14175   */\n      0x20\n        /* \"#utility.yul\":14166:14169   */\n      dup3\n        /* \"#utility.yul\":14162:14176   */\n      add\n        /* \"#utility.yul\":14147:14176   */\n      swap1\n      pop\n        /* \"#utility.yul\":14013:14182   */\n      swap3\n      swap2\n      pop\n      pop\n      jump\t// out\n        /* \"#utility.yul\":14188:14493   */\n    tag_114:\n        /* \"#utility.yul\":14228:14231   */\n      0x00\n        /* \"#utility.yul\":14247:14267   */\n      tag_300\n        /* \"#utility.yul\":14265:14266   */\n      dup3\n        /* \"#utility.yul\":14247:14267   */\n      tag_257\n      jump\t// in\n    tag_300:\n        /* \"#utility.yul\":14242:14267   */\n      swap2\n      pop\n        /* \"#utility.yul\":14281:14301   */\n      tag_301\n        /* \"#utility.yul\":14299:14300   */\n      dup4\n        /* \"#utility.yul\":14281:14301   */\n      tag_257\n      jump\t// in\n    tag_301:\n        /* \"#utility.yul\":14276:14301   */\n      swap3\n      pop\n        /* \"#utility.yul\":14435:14436   */\n      dup3\n        /* \"#utility.yul\":14367:14433   */\n      0xffffffffffffffffffffffffffffffffffffffffffffffffffffffffffffffff\n        /* \"#utility.yul\":14363:14437   */\n      sub\n        /* \"#utility.yul\":14360:14361   */\n      dup3\n        /* \"#utility.yul\":14357:14438   */\n      gt\n        /* \"#utility.yul\":14354:14461   */\n      iszero\n      tag_302\n      jumpi\n        /* \"#utility.yul\":14441:14459   */\n      tag_303\n      tag_304\n      jump\t// in\n    tag_303:\n        /* \"#utility.yul\":14354:14461   */\n    tag_302:\n        /* \"#utility.yul\":14485:14486   */\n      dup3\n        /* \"#utility.yul\":14482:14483   */\n      dup3\n        /* \"#utility.yul\":14478:14487   */\n      add\n        /* \"#utility.yul\":14471:14487   */\n      swap1\n      pop\n        /* \"#utility.yul\":14188:14493   */\n      swap3\n      swap2\n      pop\n      pop\n      jump\t// out\n        /* \"#utility.yul\":14499:14684   */\n    tag_143:\n        /* \"#utility.yul\":14539:14540   */\n      0x00\n        /* \"#utility.yul\":14556:14576   */\n      tag_306\n        /* \"#utility.yul\":14574:14575   */\n      dup3\n        /* \"#utility.yul\":14556:14576   */\n      tag_257\n      jump\t// in\n    tag_306:\n        /* \"#utility.yul\":14551:14576   */\n      swap2\n      pop\n        /* \"#utility.yul\":14590:14610   */\n      tag_307\n        /* \"#utility.yul\":14608:14609   */\n      dup4\n        /* \"#utility.yul\":14590:14610   */\n      tag_257\n      jump\t// in\n    tag_307:\n        /* \"#utility.yul\":14585:14610   */\n      swap3\n      pop\n        /* \"#utility.yul\":14629:14630   */\n      dup3\n        /* \"#utility.yul\":14619:14654   */\n      tag_308\n      jumpi\n        /* \"#utility.yul\":14634:14652   */\n      tag_309\n      tag_310\n      jump\t// in\n    tag_309:\n        /* \"#utility.yul\":14619:14654   */\n    tag_308:\n        /* \"#utility.yul\":14676:14677   */\n      dup3\n        /* \"#utility.yul\":14673:14674   */\n      dup3\n        /* \"#utility.yul\":14669:14678   */\n      div\n        /* \"#utility.yul\":14664:14678   */\n      swap1\n      pop\n        /* \"#utility.yul\":14499:14684   */\n      swap3\n      swap2\n      pop\n      pop\n      jump\t// out\n        /* \"#utility.yul\":14690:15038   */\n    tag_146:\n        /* \"#utility.yul\":14730:14737   */\n      0x00\n        /* \"#utility.yul\":14753:14773   */\n      tag_312\n        /* \"#utility.yul\":14771:14772   */\n      dup3\n        /* \"#utility.yul\":14753:14773   */\n      tag_257\n      jump\t// in\n    tag_312:\n        /* \"#utility.yul\":14748:14773   */\n      swap2\n      pop\n        /* \"#utility.yul\":14787:14807   */\n      tag_313\n        /* \"#utility.yul\":14805:14806   */\n      dup4\n        /* \"#utility.yul\":14787:14807   */\n      tag_257\n      jump\t// in\n    tag_313:\n        /* \"#utility.yul\":14782:14807   */\n      swap3\n      pop\n        /* \"#utility.yul\":14975:14976   */\n      dup2\n        /* \"#utility.yul\":14907:14973   */\n      0xffffffffffffffffffffffffffffffffffffffffffffffffffffffffffffffff\n        /* \"#utility.yul\":14903:14977   */\n      div\n        /* \"#utility.yul\":14900:14901   */\n      dup4\n        /* \"#utility.yul\":14897:14978   */\n      gt\n        /* \"#utility.yul\":14892:14893   */\n      dup3\n        /* \"#utility.yul\":14885:14894   */\n      iszero\n        /* \"#utility.yul\":14878:14895   */\n      iszero\n        /* \"#utility.yul\":14874:14979   */\n      and\n        /* \"#utility.yul\":14871:15002   */\n      iszero\n      tag_314\n      jumpi\n        /* \"#utility.yul\":14982:15000   */\n      tag_315\n      tag_304\n      jump\t// in\n    tag_315:\n        /* \"#utility.yul\":14871:15002   */\n    tag_314:\n        /* \"#utility.yul\":15030:15031   */\n      dup3\n        /* \"#utility.yul\":15027:15028   */\n      dup3\n        /* \"#utility.yul\":15023:15032   */\n      mul\n        /* \"#utility.yul\":15012:15032   */\n      swap1\n      pop\n        /* \"#utility.yul\":14690:15038   */\n      swap3\n      swap2\n      pop\n      pop\n      jump\t// out\n        /* \"#utility.yul\":15044:15235   */\n    tag_104:\n        /* \"#utility.yul\":15084:15088   */\n      0x00\n        /* \"#utility.yul\":15104:15124   */\n      tag_317\n        /* \"#utility.yul\":15122:15123   */\n      dup3\n        /* \"#utility.yul\":15104:15124   */\n      tag_257\n      jump\t// in\n    tag_317:\n        /* \"#utility.yul\":15099:15124   */\n      swap2\n      pop\n        /* \"#utility.yul\":15138:15158   */\n      tag_318\n        /* \"#utility.yul\":15156:15157   */\n      dup4\n        /* \"#utility.yul\":15138:15158   */\n      tag_257\n      jump\t// in\n    tag_318:\n        /* \"#utility.yul\":15133:15158   */\n      swap3\n      pop\n        /* \"#utility.yul\":15177:15178   */\n      dup3\n        /* \"#utility.yul\":15174:15175   */\n      dup3\n        /* \"#utility.yul\":15171:15179   */\n      lt\n        /* \"#utility.yul\":15168:15202   */\n      iszero\n      tag_319\n      jumpi\n        /* \"#utility.yul\":15182:15200   */\n      tag_320\n      tag_304\n      jump\t// in\n    tag_320:\n        /* \"#utility.yul\":15168:15202   */\n    tag_319:\n        /* \"#utility.yul\":15227:15228   */\n      dup3\n        /* \"#utility.yul\":15224:15225   */\n      dup3\n        /* \"#utility.yul\":15220:15229   */\n      sub\n        /* \"#utility.yul\":15212:15229   */\n      swap1\n      pop\n        /* \"#utility.yul\":15044:15235   */\n      swap3\n      swap2\n      pop\n      pop\n      jump\t// out\n        /* \"#utility.yul\":15241:15337   */\n    tag_178:\n        /* \"#utility.yul\":15278:15285   */\n      0x00\n        /* \"#utility.yul\":15307:15331   */\n      tag_322\n        /* \"#utility.yul\":15325:15330   */\n      dup3\n        /* \"#utility.yul\":15307:15331   */\n      tag_323\n      jump\t// in\n    tag_322:\n        /* \"#utility.yul\":15296:15331   */\n      swap1\n      pop\n        /* \"#utility.yul\":15241:15337   */\n      swap2\n      swap1\n      pop\n      jump\t// out\n        /* \"#utility.yul\":15343:15447   */\n    tag_174:\n        /* \"#utility.yul\":15388:15395   */\n      0x00\n        /* \"#utility.yul\":15417:15441   */\n      tag_325\n        /* \"#utility.yul\":15435:15440   */\n      dup3\n        /* \"#utility.yul\":15417:15441   */\n      tag_323\n      jump\t// in\n    tag_325:\n        /* \"#utility.yul\":15406:15441   */\n      swap1\n      pop\n        /* \"#utility.yul\":15343:15447   */\n      swap2\n      swap1\n      pop\n      jump\t// out\n        /* \"#utility.yul\":15453:15543   */\n    tag_182:\n        /* \"#utility.yul\":15487:15494   */\n      0x00\n        /* \"#utility.yul\":15530:15535   */\n      dup2\n        /* \"#utility.yul\":15523:15536   */\n      iszero\n        /* \"#utility.yul\":15516:15537   */\n      iszero\n        /* \"#utility.yul\":15505:15537   */\n      swap1\n      pop\n        /* \"#utility.yul\":15453:15543   */\n      swap2\n      swap1\n      pop\n      jump\t// out\n        /* \"#utility.yul\":15549:15675   */\n    tag_323:\n        /* \"#utility.yul\":15586:15593   */\n      0x00\n        /* \"#utility.yul\":15626:15668   */\n      0xffffffffffffffffffffffffffffffffffffffff\n        /* \"#utility.yul\":15619:15624   */\n      dup3\n        /* \"#utility.yul\":15615:15669   */\n      and\n        /* \"#utility.yul\":15604:15669   */\n      swap1\n      pop\n        /* \"#utility.yul\":15549:15675   */\n      swap2\n      swap1\n      pop\n      jump\t// out\n        /* \"#utility.yul\":15681:15758   */\n    tag_257:\n        /* \"#utility.yul\":15718:15725   */\n      0x00\n        /* \"#utility.yul\":15747:15752   */\n      dup2\n        /* \"#utility.yul\":15736:15752   */\n      swap1\n      pop\n        /* \"#utility.yul\":15681:15758   */\n      swap2\n      swap1\n      pop\n      jump\t// out\n        /* \"#utility.yul\":15764:15944   */\n    tag_304:\n        /* \"#utility.yul\":15812:15889   */\n      0x4e487b7100000000000000000000000000000000000000000000000000000000\n        /* \"#utility.yul\":15809:15810   */\n      0x00\n        /* \"#utility.yul\":15802:15890   */\n      mstore\n        /* \"#utility.yul\":15909:15913   */\n      0x11\n        /* \"#utility.yul\":15906:15907   */\n      0x04\n        /* \"#utility.yul\":15899:15914   */\n      mstore\n        /* \"#utility.yul\":15933:15937   */\n      0x24\n        /* \"#utility.yul\":15930:15931   */\n      0x00\n        /* \"#utility.yul\":15923:15938   */\n      revert\n        /* \"#utility.yul\":15950:16130   */\n    tag_310:\n        /* \"#utility.yul\":15998:16075   */\n      0x4e487b7100000000000000000000000000000000000000000000000000000000\n        /* \"#utility.yul\":15995:15996   */\n      0x00\n        /* \"#utility.yul\":15988:16076   */\n      mstore\n        /* \"#utility.yul\":16095:16099   */\n      0x12\n        /* \"#utility.yul\":16092:16093   */\n      0x04\n        /* \"#utility.yul\":16085:16100   */\n      mstore\n        /* \"#utility.yul\":16119:16123   */\n      0x24\n        /* \"#utility.yul\":16116:16117   */\n      0x00\n        /* \"#utility.yul\":16109:16124   */\n      revert\n        /* \"#utility.yul\":16259:16376   */\n    tag_164:\n        /* \"#utility.yul\":16368:16369   */\n      0x00\n        /* \"#utility.yul\":16365:16366   */\n      dup1\n        /* \"#utility.yul\":16358:16370   */\n      revert\n        /* \"#utility.yul\":16382:16551   */\n    tag_188:\n        /* \"#utility.yul\":16522:16543   */\n      0x4d6f6e6579207769746864726177656e20746f00000000000000000000000000\n        /* \"#utility.yul\":16518:16519   */\n      0x00\n        /* \"#utility.yul\":16510:16516   */\n      dup3\n        /* \"#utility.yul\":16506:16520   */\n      add\n        /* \"#utility.yul\":16499:16544   */\n      mstore\n        /* \"#utility.yul\":16382:16551   */\n      pop\n      jump\t// out\n        /* \"#utility.yul\":16557:16785   */\n    tag_193:\n        /* \"#utility.yul\":16697:16731   */\n      0x4f6e6c7920616c6c6f7765642067617465732063616e20616363657373207468\n        /* \"#utility.yul\":16693:16694   */\n      0x00\n        /* \"#utility.yul\":16685:16691   */\n      dup3\n        /* \"#utility.yul\":16681:16695   */\n      add\n        /* \"#utility.yul\":16674:16732   */\n      mstore\n        /* \"#utility.yul\":16766:16777   */\n      0x6973206d6574686f640000000000000000000000000000000000000000000000\n        /* \"#utility.yul\":16761:16763   */\n      0x20\n        /* \"#utility.yul\":16753:16759   */\n      dup3\n        /* \"#utility.yul\":16749:16764   */\n      add\n        /* \"#utility.yul\":16742:16778   */\n      mstore\n        /* \"#utility.yul\":16557:16785   */\n      pop\n      jump\t// out\n        /* \"#utility.yul\":16791:16973   */\n    tag_198:\n        /* \"#utility.yul\":16931:16965   */\n      0x596f7520646f6e2774206861766520616e79206d6f6e657920696e2068657265\n        /* \"#utility.yul\":16927:16928   */\n      0x00\n        /* \"#utility.yul\":16919:16925   */\n      dup3\n        /* \"#utility.yul\":16915:16929   */\n      add\n        /* \"#utility.yul\":16908:16966   */\n      mstore\n        /* \"#utility.yul\":16791:16973   */\n      pop\n      jump\t// out\n        /* \"#utility.yul\":16979:17153   */\n    tag_203:\n        /* \"#utility.yul\":17119:17145   */\n      0x4d696e696d756d20312045746865722052657175697265640000000000000000\n        /* \"#utility.yul\":17115:17116   */\n      0x00\n        /* \"#utility.yul\":17107:17113   */\n      dup3\n        /* \"#utility.yul\":17103:17117   */\n      add\n        /* \"#utility.yul\":17096:17146   */\n      mstore\n        /* \"#utility.yul\":16979:17153   */\n      pop\n      jump\t// out\n        /* \"#utility.yul\":17159:17382   */\n    tag_208:\n        /* \"#utility.yul\":17299:17333   */\n      0x596f7520646f6e27742068617665206e6f2070656e64696e6720776974686472\n        /* \"#utility.yul\":17295:17296   */\n      0x00\n        /* \"#utility.yul\":17287:17293   */\n      dup3\n        /* \"#utility.yul\":17283:17297   */\n      add\n        /* \"#utility.yul\":17276:17334   */\n      mstore\n        /* \"#utility.yul\":17368:17374   */\n      0x61776c7300000000000000000000000000000000000000000000000000000000\n        /* \"#utility.yul\":17363:17365   */\n      0x20\n        /* \"#utility.yul\":17355:17361   */\n      dup3\n        /* \"#utility.yul\":17351:17366   */\n      add\n        /* \"#utility.yul\":17344:17375   */\n      mstore\n        /* \"#utility.yul\":17159:17382   */\n      pop\n      jump\t// out\n        /* \"#utility.yul\":17388:17544   */\n    tag_213:\n        /* \"#utility.yul\":17528:17536   */\n      0x7374616b65640000000000000000000000000000000000000000000000000000\n        /* \"#utility.yul\":17524:17525   */\n      0x00\n        /* \"#utility.yul\":17516:17522   */\n      dup3\n        /* \"#utility.yul\":17512:17526   */\n      add\n        /* \"#utility.yul\":17505:17537   */\n      mstore\n        /* \"#utility.yul\":17388:17544   */\n      pop\n      jump\t// out\n        /* \"#utility.yul\":17550:17718   */\n    tag_218:\n        /* \"#utility.yul\":17690:17710   */\n      0x537562737472616374696f6e206661696c640000000000000000000000000000\n        /* \"#utility.yul\":17686:17687   */\n      0x00\n        /* \"#utility.yul\":17678:17684   */\n      dup3\n        /* \"#utility.yul\":17674:17688   */\n      add\n        /* \"#utility.yul\":17667:17711   */\n      mstore\n        /* \"#utility.yul\":17550:17718   */\n      pop\n      jump\t// out\n        /* \"#utility.yul\":17724:17889   */\n    tag_223:\n        /* \"#utility.yul\":17864:17881   */\n      0x4164646974696f6e206661696c65640000000000000000000000000000000000\n        /* \"#utility.yul\":17860:17861   */\n      0x00\n        /* \"#utility.yul\":17852:17858   */\n      dup3\n        /* \"#utility.yul\":17848:17862   */\n      add\n        /* \"#utility.yul\":17841:17882   */\n      mstore\n        /* \"#utility.yul\":17724:17889   */\n      pop\n      jump\t// out\n        /* \"#utility.yul\":17895:18118   */\n    tag_228:\n        /* \"#utility.yul\":18035:18069   */\n      0x596f752073686f756c642061746c65617374207374616b6520666f722061206d\n        /* \"#utility.yul\":18031:18032   */\n      0x00\n        /* \"#utility.yul\":18023:18029   */\n      dup3\n        /* \"#utility.yul\":18019:18033   */\n      add\n        /* \"#utility.yul\":18012:18070   */\n      mstore\n        /* \"#utility.yul\":18104:18110   */\n      0x6f6e747900000000000000000000000000000000000000000000000000000000\n        /* \"#utility.yul\":18099:18101   */\n      0x20\n        /* \"#utility.yul\":18091:18097   */\n      dup3\n        /* \"#utility.yul\":18087:18102   */\n      add\n        /* \"#utility.yul\":18080:18111   */\n      mstore\n        /* \"#utility.yul\":17895:18118   */\n      pop\n      jump\t// out\n        /* \"#utility.yul\":18124:18355   */\n    tag_233:\n        /* \"#utility.yul\":18264:18298   */\n      0x4f6e6c7920696e697469616c2075706c6f616465722063616e20616363657373\n        /* \"#utility.yul\":18260:18261   */\n      0x00\n        /* \"#utility.yul\":18252:18258   */\n      dup3\n        /* \"#utility.yul\":18248:18262   */\n      add\n        /* \"#utility.yul\":18241:18299   */\n      mstore\n        /* \"#utility.yul\":18333:18347   */\n      0x2074686973206d6574686f640000000000000000000000000000000000000000\n        /* \"#utility.yul\":18328:18330   */\n      0x20\n        /* \"#utility.yul\":18320:18326   */\n      dup3\n        /* \"#utility.yul\":18316:18331   */\n      add\n        /* \"#utility.yul\":18309:18348   */\n      mstore\n        /* \"#utility.yul\":18124:18355   */\n      pop\n      jump\t// out\n        /* \"#utility.yul\":18361:18525   */\n    tag_238:\n        /* \"#utility.yul\":18501:18517   */\n      0x4469766973696f6e206661696c64000000000000000000000000000000000000\n        /* \"#utility.yul\":18497:18498   */\n      0x00\n        /* \"#utility.yul\":18489:18495   */\n      dup3\n        /* \"#utility.yul\":18485:18499   */\n      add\n        /* \"#utility.yul\":18478:18518   */\n      mstore\n        /* \"#utility.yul\":18361:18525   */\n      pop\n      jump\t// out\n        /* \"#utility.yul\":18531:18757   */\n    tag_243:\n        /* \"#utility.yul\":18671:18705   */\n      0x446f65736e2774206861766520656e6f7567682062616c616e636520696e2074\n        /* \"#utility.yul\":18667:18668   */\n      0x00\n        /* \"#utility.yul\":18659:18665   */\n      dup3\n        /* \"#utility.yul\":18655:18669   */\n      add\n        /* \"#utility.yul\":18648:18706   */\n      mstore\n        /* \"#utility.yul\":18740:18749   */\n      0x68652062616e6b00000000000000000000000000000000000000000000000000\n        /* \"#utility.yul\":18735:18737   */\n      0x20\n        /* \"#utility.yul\":18727:18733   */\n      dup3\n        /* \"#utility.yul\":18723:18738   */\n      add\n        /* \"#utility.yul\":18716:18750   */\n      mstore\n        /* \"#utility.yul\":18531:18757   */\n      pop\n      jump\t// out\n        /* \"#utility.yul\":18763:19000   */\n    tag_248:\n        /* \"#utility.yul\":18903:18937   */\n      0x536f72727920776520646f6e2774206861766520656e6f756768206d6f6e6579\n        /* \"#utility.yul\":18899:18900   */\n      0x00\n        /* \"#utility.yul\":18891:18897   */\n      dup3\n        /* \"#utility.yul\":18887:18901   */\n      add\n        /* \"#utility.yul\":18880:18938   */\n      mstore\n        /* \"#utility.yul\":18972:18992   */\n      0x20736f20636f6d656261636b206c617465720000000000000000000000000000\n        /* \"#utility.yul\":18967:18969   */\n      0x20\n        /* \"#utility.yul\":18959:18965   */\n      dup3\n        /* \"#utility.yul\":18955:18970   */\n      add\n        /* \"#utility.yul\":18948:18993   */\n      mstore\n        /* \"#utility.yul\":18763:19000   */\n      pop\n      jump\t// out\n        /* \"#utility.yul\":19006:19176   */\n    tag_253:\n        /* \"#utility.yul\":19146:19168   */\n      0x4d756c7469706c69636174696f6e206661696c64000000000000000000000000\n        /* \"#utility.yul\":19142:19143   */\n      0x00\n        /* \"#utility.yul\":19134:19140   */\n      dup3\n        /* \"#utility.yul\":19130:19144   */\n      add\n        /* \"#utility.yul\":19123:19169   */\n      mstore\n        /* \"#utility.yul\":19006:19176   */\n      pop\n      jump\t// out\n        /* \"#utility.yul\":19182:19304   */\n    tag_156:\n        /* \"#utility.yul\":19255:19279   */\n      tag_349\n        /* \"#utility.yul\":19273:19278   */\n      dup2\n        /* \"#utility.yul\":19255:19279   */\n      tag_178\n      jump\t// in\n    tag_349:\n        /* \"#utility.yul\":19248:19253   */\n      dup2\n        /* \"#utility.yul\":19245:19280   */\n      eq\n        /* \"#utility.yul\":19235:19298   */\n      tag_350\n      jumpi\n        /* \"#utility.yul\":19294:19295   */\n      0x00\n        /* \"#utility.yul\":19291:19292   */\n      dup1\n        /* \"#utility.yul\":19284:19296   */\n      revert\n        /* \"#utility.yul\":19235:19298   */\n    tag_350:\n        /* \"#utility.yul\":19182:19304   */\n      pop\n      jump\t// out\n        /* \"#utility.yul\":19310:19432   */\n    tag_160:\n        /* \"#utility.yul\":19383:19407   */\n      tag_352\n        /* \"#utility.yul\":19401:19406   */\n      dup2\n        /* \"#utility.yul\":19383:19407   */\n      tag_257\n      jump\t// in\n    tag_352:\n        /* \"#utility.yul\":19376:19381   */\n      dup2\n        /* \"#utility.yul\":19373:19408   */\n      eq\n        /* \"#utility.yul\":19363:19426   */\n      tag_353\n      jumpi\n        /* \"#utility.yul\":19422:19423   */\n      0x00\n        /* \"#utility.yul\":19419:19420   */\n      dup1\n        /* \"#utility.yul\":19412:19424   */\n      revert\n        /* \"#utility.yul\":19363:19426   */\n    tag_353:\n        /* \"#utility.yul\":19310:19432   */\n      pop\n      jump\t// out\n\n    auxdata: 0xa2646970667358221220bc54fe4149f6075dc98682db2d32c4a1ea3590b02b51104af3af2553beb98c9b64736f6c63430008070033\n}\n",
				"bytecode": {
					"linkReferences": {},
					"object": "6080604052670de0b6b3a76400006000553480156200001d57600080fd5b5033600160006101000a81548173ffffffffffffffffffffffffffffffffffffffff021916908373ffffffffffffffffffffffffffffffffffffffff1602179055507ff67e7992d539193fc243c42fe89f8fab49013e8e4fb18cfa891dc51adcaccc8033604051620000909190620000d6565b60405180910390a162000176565b620000a98162000119565b82525050565b6000620000be60148362000108565b9150620000cb826200014d565b602082019050919050565b60006040820190508181036000830152620000f181620000af565b90506200010260208301846200009e565b92915050565b600082825260208201905092915050565b600062000126826200012d565b9050919050565b600073ffffffffffffffffffffffffffffffffffffffff82169050919050565b7f4c656e64696e6720706f6f6c2063726561746564000000000000000000000000600082015250565b61178680620001866000396000f3fe6080604052600436106100ab5760003560e01c80638da5cb5b116100645780638da5cb5b1461018f578063a464d265146101ba578063aeae177c146101e5578063c02b209214610222578063d0e30db01461025f578063f993185514610269576100b2565b8063166d7b48146100b45780633607999b146100dd57806356852391146100f9578063650fad76146101105780636e0e0da21461013b5780636e1dc66e14610152576100b2565b366100b257005b005b3480156100c057600080fd5b506100db60048036038101906100d69190610d42565b6102a6565b005b6100f760048036038101906100f29190610d6f565b61037a565b005b34801561010557600080fd5b5061010e610536565b005b34801561011c57600080fd5b5061012561068b565b6040516101329190611202565b60405180910390f35b34801561014757600080fd5b50610150610691565b005b34801561015e57600080fd5b5061017960048036038101906101749190610d42565b61097a565b6040516101869190611202565b60405180910390f35b34801561019b57600080fd5b506101a4610992565b6040516101b19190610ff0565b60405180910390f35b3480156101c657600080fd5b506101cf6109b8565b6040516101dc9190610fd5565b60405180910390f35b3480156101f157600080fd5b5061020c60048036038101906102079190610d42565b6109de565b6040516102199190611202565b60405180910390f35b34801561022e57600080fd5b5061024960048036038101906102449190610d42565b6109f6565b604051610256919061100b565b60405180910390f35b610267610a16565b005b34801561027557600080fd5b50610290600480360381019061028b9190610d42565b610b88565b60405161029d9190611202565b60405180910390f35b600160009054906101000a900473ffffffffffffffffffffffffffffffffffffffff1673ffffffffffffffffffffffffffffffffffffffff163373ffffffffffffffffffffffffffffffffffffffff1614610336576040517f08c379a000000000000000000000000000000000000000000000000000000000815260040161032d90611162565b60405180910390fd5b80600360006101000a81548173ffffffffffffffffffffffffffffffffffffffff021916908373ffffffffffffffffffffffffffffffffffffffff16021790555050565b600860003373ffffffffffffffffffffffffffffffffffffffff1673ffffffffffffffffffffffffffffffffffffffff16815260200190815260200160002060009054906101000a900460ff16610406576040517f08c379a00000000000000000000000000000000000000000000000000000000081526004016103fd90611054565b60405180910390fd5b60025482111561044b576040517f08c379a0000000000000000000000000000000000000000000000000000000008152600401610442906111a2565b60405180910390fd5b61046082600254610ba090919063ffffffff16565b6002819055506104b882600760008473ffffffffffffffffffffffffffffffffffffffff1673ffffffffffffffffffffffffffffffffffffffff16815260200190815260200160002054610bf990919063ffffffff16565b600760008373ffffffffffffffffffffffffffffffffffffffff1673ffffffffffffffffffffffffffffffffffffffff168152602001908152602001600020819055507ff67e7992d539193fc243c42fe89f8fab49013e8e4fb18cfa891dc51adcaccc808160405161052a9190611026565b60405180910390a15050565b6000600760003373ffffffffffffffffffffffffffffffffffffffff1673ffffffffffffffffffffffffffffffffffffffff16815260200190815260200160002054116105b8576040517f08c379a00000000000000000000000000000000000000000000000000000000081526004016105af906110b4565b60405180910390fd5b6000600760003373ffffffffffffffffffffffffffffffffffffffff1673ffffffffffffffffffffffffffffffffffffffff1681526020019081526020016000205490506000600760003373ffffffffffffffffffffffffffffffffffffffff1673ffffffffffffffffffffffffffffffffffffffff168152602001908152602001600020819055503373ffffffffffffffffffffffffffffffffffffffff166108fc829081150290604051600060405180830381858888f19350505050158015610687573d6000803e3d6000fd5b5050565b60005481565b6000600660003373ffffffffffffffffffffffffffffffffffffffff1673ffffffffffffffffffffffffffffffffffffffff1681526020019081526020016000205411610713576040517f08c379a000000000000000000000000000000000000000000000000000000000815260040161070a90611074565b60405180910390fd5b60006107756201518042600560003373ffffffffffffffffffffffffffffffffffffffff1673ffffffffffffffffffffffffffffffffffffffff16815260200190815260200160002054610767919061130f565b610c5290919063ffffffff16565b905062278d0081116107bc576040517f08c379a00000000000000000000000000000000000000000000000000000000081526004016107b390611142565b60405180910390fd5b60006108366064610828600660003373ffffffffffffffffffffffffffffffffffffffff1673ffffffffffffffffffffffffffffffffffffffff1681526020019081526020016000205461081a600587610caa90919063ffffffff16565b610caa90919063ffffffff16565b610c5290919063ffffffff16565b600660003373ffffffffffffffffffffffffffffffffffffffff1673ffffffffffffffffffffffffffffffffffffffff16815260200190815260200160002054610880919061122e565b905060025481106108c6576040517f08c379a00000000000000000000000000000000000000000000000000000000081526004016108bd906111c2565b60405180910390fd5b6108db81600254610ba090919063ffffffff16565b60028190555061093381600760003373ffffffffffffffffffffffffffffffffffffffff1673ffffffffffffffffffffffffffffffffffffffff16815260200190815260200160002054610bf990919063ffffffff16565b600760003373ffffffffffffffffffffffffffffffffffffffff1673ffffffffffffffffffffffffffffffffffffffff168152602001908152602001600020819055505050565b60056020528060005260406000206000915090505481565b600160009054906101000a900473ffffffffffffffffffffffffffffffffffffffff1681565b600360009054906101000a900473ffffffffffffffffffffffffffffffffffffffff1681565b60076020528060005260406000206000915090505481565b60086020528060005260406000206000915054906101000a900460ff1681565b600054341015610a5b576040517f08c379a0000000000000000000000000000000000000000000000000000000008152600401610a5290611094565b60405180910390fd5b42600560003373ffffffffffffffffffffffffffffffffffffffff1673ffffffffffffffffffffffffffffffffffffffff16815260200190815260200160002081905550610af134600660003373ffffffffffffffffffffffffffffffffffffffff1673ffffffffffffffffffffffffffffffffffffffff16815260200190815260200160002054610bf990919063ffffffff16565b600660003373ffffffffffffffffffffffffffffffffffffffff1673ffffffffffffffffffffffffffffffffffffffff16815260200190815260200160002081905550610b4934600254610bf990919063ffffffff16565b6002819055507ff67e7992d539193fc243c42fe89f8fab49013e8e4fb18cfa891dc51adcaccc8033604051610b7e91906110d4565b60405180910390a1565b60066020528060005260406000206000915090505481565b600082821115610be5576040517f08c379a0000000000000000000000000000000000000000000000000000000008152600401610bdc90611102565b60405180910390fd5b8183610bf1919061130f565b905092915050565b60008183610c07919061122e565b905082811015610c4c576040517f08c379a0000000000000000000000000000000000000000000000000000000008152600401610c4390611122565b60405180910390fd5b92915050565b6000808211610c96576040517f08c379a0000000000000000000000000000000000000000000000000000000008152600401610c8d90611182565b60405180910390fd5b8183610ca29190611284565b905092915050565b60008183610cb891906112b5565b90506000831480610cd35750818382610cd19190611284565b145b610d12576040517f08c379a0000000000000000000000000000000000000000000000000000000008152600401610d09906111e2565b60405180910390fd5b92915050565b600081359050610d2781611722565b92915050565b600081359050610d3c81611739565b92915050565b600060208284031215610d5857610d576113fb565b5b6000610d6684828501610d18565b91505092915050565b60008060408385031215610d8657610d856113fb565b5b6000610d9485828601610d2d565b9250506020610da585828601610d18565b9150509250929050565b610db881611355565b82525050565b610dc781611343565b82525050565b610dd681611367565b82525050565b6000610de960138361121d565b9150610df482611400565b602082019050919050565b6000610e0c60298361121d565b9150610e1782611429565b604082019050919050565b6000610e2f60208361121d565b9150610e3a82611478565b602082019050919050565b6000610e5260188361121d565b9150610e5d826114a1565b602082019050919050565b6000610e7560248361121d565b9150610e80826114ca565b604082019050919050565b6000610e9860068361121d565b9150610ea382611519565b602082019050919050565b6000610ebb60128361121d565b9150610ec682611542565b602082019050919050565b6000610ede600f8361121d565b9150610ee98261156b565b602082019050919050565b6000610f0160248361121d565b9150610f0c82611594565b604082019050919050565b6000610f24602c8361121d565b9150610f2f826115e3565b604082019050919050565b6000610f47600e8361121d565b9150610f5282611632565b602082019050919050565b6000610f6a60278361121d565b9150610f758261165b565b604082019050919050565b6000610f8d60328361121d565b9150610f98826116aa565b604082019050919050565b6000610fb060148361121d565b9150610fbb826116f9565b602082019050919050565b610fcf81611393565b82525050565b6000602082019050610fea6000830184610dbe565b92915050565b60006020820190506110056000830184610daf565b92915050565b60006020820190506110206000830184610dcd565b92915050565b6000604082019050818103600083015261103f81610ddc565b905061104e6020830184610dbe565b92915050565b6000602082019050818103600083015261106d81610dff565b9050919050565b6000602082019050818103600083015261108d81610e22565b9050919050565b600060208201905081810360008301526110ad81610e45565b9050919050565b600060208201905081810360008301526110cd81610e68565b9050919050565b600060408201905081810360008301526110ed81610e8b565b90506110fc6020830184610dbe565b92915050565b6000602082019050818103600083015261111b81610eae565b9050919050565b6000602082019050818103600083015261113b81610ed1565b9050919050565b6000602082019050818103600083015261115b81610ef4565b9050919050565b6000602082019050818103600083015261117b81610f17565b9050919050565b6000602082019050818103600083015261119b81610f3a565b9050919050565b600060208201905081810360008301526111bb81610f5d565b9050919050565b600060208201905081810360008301526111db81610f80565b9050919050565b600060208201905081810360008301526111fb81610fa3565b9050919050565b60006020820190506112176000830184610fc6565b92915050565b600082825260208201905092915050565b600061123982611393565b915061124483611393565b9250827fffffffffffffffffffffffffffffffffffffffffffffffffffffffffffffffff038211156112795761127861139d565b5b828201905092915050565b600061128f82611393565b915061129a83611393565b9250826112aa576112a96113cc565b5b828204905092915050565b60006112c082611393565b91506112cb83611393565b9250817fffffffffffffffffffffffffffffffffffffffffffffffffffffffffffffffff04831182151516156113045761130361139d565b5b828202905092915050565b600061131a82611393565b915061132583611393565b9250828210156113385761133761139d565b5b828203905092915050565b600061134e82611373565b9050919050565b600061136082611373565b9050919050565b60008115159050919050565b600073ffffffffffffffffffffffffffffffffffffffff82169050919050565b6000819050919050565b7f4e487b7100000000000000000000000000000000000000000000000000000000600052601160045260246000fd5b7f4e487b7100000000000000000000000000000000000000000000000000000000600052601260045260246000fd5b600080fd5b7f4d6f6e6579207769746864726177656e20746f00000000000000000000000000600082015250565b7f4f6e6c7920616c6c6f7765642067617465732063616e2061636365737320746860008201527f6973206d6574686f640000000000000000000000000000000000000000000000602082015250565b7f596f7520646f6e2774206861766520616e79206d6f6e657920696e2068657265600082015250565b7f4d696e696d756d20312045746865722052657175697265640000000000000000600082015250565b7f596f7520646f6e27742068617665206e6f2070656e64696e672077697468647260008201527f61776c7300000000000000000000000000000000000000000000000000000000602082015250565b7f7374616b65640000000000000000000000000000000000000000000000000000600082015250565b7f537562737472616374696f6e206661696c640000000000000000000000000000600082015250565b7f4164646974696f6e206661696c65640000000000000000000000000000000000600082015250565b7f596f752073686f756c642061746c65617374207374616b6520666f722061206d60008201527f6f6e747900000000000000000000000000000000000000000000000000000000602082015250565b7f4f6e6c7920696e697469616c2075706c6f616465722063616e2061636365737360008201527f2074686973206d6574686f640000000000000000000000000000000000000000602082015250565b7f4469766973696f6e206661696c64000000000000000000000000000000000000600082015250565b7f446f65736e2774206861766520656e6f7567682062616c616e636520696e207460008201527f68652062616e6b00000000000000000000000000000000000000000000000000602082015250565b7f536f72727920776520646f6e2774206861766520656e6f756768206d6f6e657960008201527f20736f20636f6d656261636b206c617465720000000000000000000000000000602082015250565b7f4d756c7469706c69636174696f6e206661696c64000000000000000000000000600082015250565b61172b81611343565b811461173657600080fd5b50565b61174281611393565b811461174d57600080fd5b5056fea2646970667358221220bc54fe4149f6075dc98682db2d32c4a1ea3590b02b51104af3af2553beb98c9b64736f6c63430008070033",
					"opcodes": "PUSH1 0x80 PUSH1 0x40 MSTORE PUSH8 0xDE0B6B3A7640000 PUSH1 0x0 SSTORE CALLVALUE DUP1 ISZERO PUSH3 0x1D JUMPI PUSH1 0x0 DUP1 REVERT JUMPDEST POP CALLER PUSH1 0x1 PUSH1 0x0 PUSH2 0x100 EXP DUP2 SLOAD DUP2 PUSH20 0xFFFFFFFFFFFFFFFFFFFFFFFFFFFFFFFFFFFFFFFF MUL NOT AND SWAP1 DUP4 PUSH20 0xFFFFFFFFFFFFFFFFFFFFFFFFFFFFFFFFFFFFFFFF AND MUL OR SWAP1 SSTORE POP PUSH32 0xF67E7992D539193FC243C42FE89F8FAB49013E8E4FB18CFA891DC51ADCACCC80 CALLER PUSH1 0x40 MLOAD PUSH3 0x90 SWAP2 SWAP1 PUSH3 0xD6 JUMP JUMPDEST PUSH1 0x40 MLOAD DUP1 SWAP2 SUB SWAP1 LOG1 PUSH3 0x176 JUMP JUMPDEST PUSH3 0xA9 DUP2 PUSH3 0x119 JUMP JUMPDEST DUP3 MSTORE POP POP JUMP JUMPDEST PUSH1 0x0 PUSH3 0xBE PUSH1 0x14 DUP4 PUSH3 0x108 JUMP JUMPDEST SWAP2 POP PUSH3 0xCB DUP3 PUSH3 0x14D JUMP JUMPDEST PUSH1 0x20 DUP3 ADD SWAP1 POP SWAP2 SWAP1 POP JUMP JUMPDEST PUSH1 0x0 PUSH1 0x40 DUP3 ADD SWAP1 POP DUP2 DUP2 SUB PUSH1 0x0 DUP4 ADD MSTORE PUSH3 0xF1 DUP2 PUSH3 0xAF JUMP JUMPDEST SWAP1 POP PUSH3 0x102 PUSH1 0x20 DUP4 ADD DUP5 PUSH3 0x9E JUMP JUMPDEST SWAP3 SWAP2 POP POP JUMP JUMPDEST PUSH1 0x0 DUP3 DUP3 MSTORE PUSH1 0x20 DUP3 ADD SWAP1 POP SWAP3 SWAP2 POP POP JUMP JUMPDEST PUSH1 0x0 PUSH3 0x126 DUP3 PUSH3 0x12D JUMP JUMPDEST SWAP1 POP SWAP2 SWAP1 POP JUMP JUMPDEST PUSH1 0x0 PUSH20 0xFFFFFFFFFFFFFFFFFFFFFFFFFFFFFFFFFFFFFFFF DUP3 AND SWAP1 POP SWAP2 SWAP1 POP JUMP JUMPDEST PUSH32 0x4C656E64696E6720706F6F6C2063726561746564000000000000000000000000 PUSH1 0x0 DUP3 ADD MSTORE POP JUMP JUMPDEST PUSH2 0x1786 DUP1 PUSH3 0x186 PUSH1 0x0 CODECOPY PUSH1 0x0 RETURN INVALID PUSH1 0x80 PUSH1 0x40 MSTORE PUSH1 0x4 CALLDATASIZE LT PUSH2 0xAB JUMPI PUSH1 0x0 CALLDATALOAD PUSH1 0xE0 SHR DUP1 PUSH4 0x8DA5CB5B GT PUSH2 0x64 JUMPI DUP1 PUSH4 0x8DA5CB5B EQ PUSH2 0x18F JUMPI DUP1 PUSH4 0xA464D265 EQ PUSH2 0x1BA JUMPI DUP1 PUSH4 0xAEAE177C EQ PUSH2 0x1E5 JUMPI DUP1 PUSH4 0xC02B2092 EQ PUSH2 0x222 JUMPI DUP1 PUSH4 0xD0E30DB0 EQ PUSH2 0x25F JUMPI DUP1 PUSH4 0xF9931855 EQ PUSH2 0x269 JUMPI PUSH2 0xB2 JUMP JUMPDEST DUP1 PUSH4 0x166D7B48 EQ PUSH2 0xB4 JUMPI DUP1 PUSH4 0x3607999B EQ PUSH2 0xDD JUMPI DUP1 PUSH4 0x56852391 EQ PUSH2 0xF9 JUMPI DUP1 PUSH4 0x650FAD76 EQ PUSH2 0x110 JUMPI DUP1 PUSH4 0x6E0E0DA2 EQ PUSH2 0x13B JUMPI DUP1 PUSH4 0x6E1DC66E EQ PUSH2 0x152 JUMPI PUSH2 0xB2 JUMP JUMPDEST CALLDATASIZE PUSH2 0xB2 JUMPI STOP JUMPDEST STOP JUMPDEST CALLVALUE DUP1 ISZERO PUSH2 0xC0 JUMPI PUSH1 0x0 DUP1 REVERT JUMPDEST POP PUSH2 0xDB PUSH1 0x4 DUP1 CALLDATASIZE SUB DUP2 ADD SWAP1 PUSH2 0xD6 SWAP2 SWAP1 PUSH2 0xD42 JUMP JUMPDEST PUSH2 0x2A6 JUMP JUMPDEST STOP JUMPDEST PUSH2 0xF7 PUSH1 0x4 DUP1 CALLDATASIZE SUB DUP2 ADD SWAP1 PUSH2 0xF2 SWAP2 SWAP1 PUSH2 0xD6F JUMP JUMPDEST PUSH2 0x37A JUMP JUMPDEST STOP JUMPDEST CALLVALUE DUP1 ISZERO PUSH2 0x105 JUMPI PUSH1 0x0 DUP1 REVERT JUMPDEST POP PUSH2 0x10E PUSH2 0x536 JUMP JUMPDEST STOP JUMPDEST CALLVALUE DUP1 ISZERO PUSH2 0x11C JUMPI PUSH1 0x0 DUP1 REVERT JUMPDEST POP PUSH2 0x125 PUSH2 0x68B JUMP JUMPDEST PUSH1 0x40 MLOAD PUSH2 0x132 SWAP2 SWAP1 PUSH2 0x1202 JUMP JUMPDEST PUSH1 0x40 MLOAD DUP1 SWAP2 SUB SWAP1 RETURN JUMPDEST CALLVALUE DUP1 ISZERO PUSH2 0x147 JUMPI PUSH1 0x0 DUP1 REVERT JUMPDEST POP PUSH2 0x150 PUSH2 0x691 JUMP JUMPDEST STOP JUMPDEST CALLVALUE DUP1 ISZERO PUSH2 0x15E JUMPI PUSH1 0x0 DUP1 REVERT JUMPDEST POP PUSH2 0x179 PUSH1 0x4 DUP1 CALLDATASIZE SUB DUP2 ADD SWAP1 PUSH2 0x174 SWAP2 SWAP1 PUSH2 0xD42 JUMP JUMPDEST PUSH2 0x97A JUMP JUMPDEST PUSH1 0x40 MLOAD PUSH2 0x186 SWAP2 SWAP1 PUSH2 0x1202 JUMP JUMPDEST PUSH1 0x40 MLOAD DUP1 SWAP2 SUB SWAP1 RETURN JUMPDEST CALLVALUE DUP1 ISZERO PUSH2 0x19B JUMPI PUSH1 0x0 DUP1 REVERT JUMPDEST POP PUSH2 0x1A4 PUSH2 0x992 JUMP JUMPDEST PUSH1 0x40 MLOAD PUSH2 0x1B1 SWAP2 SWAP1 PUSH2 0xFF0 JUMP JUMPDEST PUSH1 0x40 MLOAD DUP1 SWAP2 SUB SWAP1 RETURN JUMPDEST CALLVALUE DUP1 ISZERO PUSH2 0x1C6 JUMPI PUSH1 0x0 DUP1 REVERT JUMPDEST POP PUSH2 0x1CF PUSH2 0x9B8 JUMP JUMPDEST PUSH1 0x40 MLOAD PUSH2 0x1DC SWAP2 SWAP1 PUSH2 0xFD5 JUMP JUMPDEST PUSH1 0x40 MLOAD DUP1 SWAP2 SUB SWAP1 RETURN JUMPDEST CALLVALUE DUP1 ISZERO PUSH2 0x1F1 JUMPI PUSH1 0x0 DUP1 REVERT JUMPDEST POP PUSH2 0x20C PUSH1 0x4 DUP1 CALLDATASIZE SUB DUP2 ADD SWAP1 PUSH2 0x207 SWAP2 SWAP1 PUSH2 0xD42 JUMP JUMPDEST PUSH2 0x9DE JUMP JUMPDEST PUSH1 0x40 MLOAD PUSH2 0x219 SWAP2 SWAP1 PUSH2 0x1202 JUMP JUMPDEST PUSH1 0x40 MLOAD DUP1 SWAP2 SUB SWAP1 RETURN JUMPDEST CALLVALUE DUP1 ISZERO PUSH2 0x22E JUMPI PUSH1 0x0 DUP1 REVERT JUMPDEST POP PUSH2 0x249 PUSH1 0x4 DUP1 CALLDATASIZE SUB DUP2 ADD SWAP1 PUSH2 0x244 SWAP2 SWAP1 PUSH2 0xD42 JUMP JUMPDEST PUSH2 0x9F6 JUMP JUMPDEST PUSH1 0x40 MLOAD PUSH2 0x256 SWAP2 SWAP1 PUSH2 0x100B JUMP JUMPDEST PUSH1 0x40 MLOAD DUP1 SWAP2 SUB SWAP1 RETURN JUMPDEST PUSH2 0x267 PUSH2 0xA16 JUMP JUMPDEST STOP JUMPDEST CALLVALUE DUP1 ISZERO PUSH2 0x275 JUMPI PUSH1 0x0 DUP1 REVERT JUMPDEST POP PUSH2 0x290 PUSH1 0x4 DUP1 CALLDATASIZE SUB DUP2 ADD SWAP1 PUSH2 0x28B SWAP2 SWAP1 PUSH2 0xD42 JUMP JUMPDEST PUSH2 0xB88 JUMP JUMPDEST PUSH1 0x40 MLOAD PUSH2 0x29D SWAP2 SWAP1 PUSH2 0x1202 JUMP JUMPDEST PUSH1 0x40 MLOAD DUP1 SWAP2 SUB SWAP1 RETURN JUMPDEST PUSH1 0x1 PUSH1 0x0 SWAP1 SLOAD SWAP1 PUSH2 0x100 EXP SWAP1 DIV PUSH20 0xFFFFFFFFFFFFFFFFFFFFFFFFFFFFFFFFFFFFFFFF AND PUSH20 0xFFFFFFFFFFFFFFFFFFFFFFFFFFFFFFFFFFFFFFFF AND CALLER PUSH20 0xFFFFFFFFFFFFFFFFFFFFFFFFFFFFFFFFFFFFFFFF AND EQ PUSH2 0x336 JUMPI PUSH1 0x40 MLOAD PUSH32 0x8C379A000000000000000000000000000000000000000000000000000000000 DUP2 MSTORE PUSH1 0x4 ADD PUSH2 0x32D SWAP1 PUSH2 0x1162 JUMP JUMPDEST PUSH1 0x40 MLOAD DUP1 SWAP2 SUB SWAP1 REVERT JUMPDEST DUP1 PUSH1 0x3 PUSH1 0x0 PUSH2 0x100 EXP DUP2 SLOAD DUP2 PUSH20 0xFFFFFFFFFFFFFFFFFFFFFFFFFFFFFFFFFFFFFFFF MUL NOT AND SWAP1 DUP4 PUSH20 0xFFFFFFFFFFFFFFFFFFFFFFFFFFFFFFFFFFFFFFFF AND MUL OR SWAP1 SSTORE POP POP JUMP JUMPDEST PUSH1 0x8 PUSH1 0x0 CALLER PUSH20 0xFFFFFFFFFFFFFFFFFFFFFFFFFFFFFFFFFFFFFFFF AND PUSH20 0xFFFFFFFFFFFFFFFFFFFFFFFFFFFFFFFFFFFFFFFF AND DUP2 MSTORE PUSH1 0x20 ADD SWAP1 DUP2 MSTORE PUSH1 0x20 ADD PUSH1 0x0 KECCAK256 PUSH1 0x0 SWAP1 SLOAD SWAP1 PUSH2 0x100 EXP SWAP1 DIV PUSH1 0xFF AND PUSH2 0x406 JUMPI PUSH1 0x40 MLOAD PUSH32 0x8C379A000000000000000000000000000000000000000000000000000000000 DUP2 MSTORE PUSH1 0x4 ADD PUSH2 0x3FD SWAP1 PUSH2 0x1054 JUMP JUMPDEST PUSH1 0x40 MLOAD DUP1 SWAP2 SUB SWAP1 REVERT JUMPDEST PUSH1 0x2 SLOAD DUP3 GT ISZERO PUSH2 0x44B JUMPI PUSH1 0x40 MLOAD PUSH32 0x8C379A000000000000000000000000000000000000000000000000000000000 DUP2 MSTORE PUSH1 0x4 ADD PUSH2 0x442 SWAP1 PUSH2 0x11A2 JUMP JUMPDEST PUSH1 0x40 MLOAD DUP1 SWAP2 SUB SWAP1 REVERT JUMPDEST PUSH2 0x460 DUP3 PUSH1 0x2 SLOAD PUSH2 0xBA0 SWAP1 SWAP2 SWAP1 PUSH4 0xFFFFFFFF AND JUMP JUMPDEST PUSH1 0x2 DUP2 SWAP1 SSTORE POP PUSH2 0x4B8 DUP3 PUSH1 0x7 PUSH1 0x0 DUP5 PUSH20 0xFFFFFFFFFFFFFFFFFFFFFFFFFFFFFFFFFFFFFFFF AND PUSH20 0xFFFFFFFFFFFFFFFFFFFFFFFFFFFFFFFFFFFFFFFF AND DUP2 MSTORE PUSH1 0x20 ADD SWAP1 DUP2 MSTORE PUSH1 0x20 ADD PUSH1 0x0 KECCAK256 SLOAD PUSH2 0xBF9 SWAP1 SWAP2 SWAP1 PUSH4 0xFFFFFFFF AND JUMP JUMPDEST PUSH1 0x7 PUSH1 0x0 DUP4 PUSH20 0xFFFFFFFFFFFFFFFFFFFFFFFFFFFFFFFFFFFFFFFF AND PUSH20 0xFFFFFFFFFFFFFFFFFFFFFFFFFFFFFFFFFFFFFFFF AND DUP2 MSTORE PUSH1 0x20 ADD SWAP1 DUP2 MSTORE PUSH1 0x20 ADD PUSH1 0x0 KECCAK256 DUP2 SWAP1 SSTORE POP PUSH32 0xF67E7992D539193FC243C42FE89F8FAB49013E8E4FB18CFA891DC51ADCACCC80 DUP2 PUSH1 0x40 MLOAD PUSH2 0x52A SWAP2 SWAP1 PUSH2 0x1026 JUMP JUMPDEST PUSH1 0x40 MLOAD DUP1 SWAP2 SUB SWAP1 LOG1 POP POP JUMP JUMPDEST PUSH1 0x0 PUSH1 0x7 PUSH1 0x0 CALLER PUSH20 0xFFFFFFFFFFFFFFFFFFFFFFFFFFFFFFFFFFFFFFFF AND PUSH20 0xFFFFFFFFFFFFFFFFFFFFFFFFFFFFFFFFFFFFFFFF AND DUP2 MSTORE PUSH1 0x20 ADD SWAP1 DUP2 MSTORE PUSH1 0x20 ADD PUSH1 0x0 KECCAK256 SLOAD GT PUSH2 0x5B8 JUMPI PUSH1 0x40 MLOAD PUSH32 0x8C379A000000000000000000000000000000000000000000000000000000000 DUP2 MSTORE PUSH1 0x4 ADD PUSH2 0x5AF SWAP1 PUSH2 0x10B4 JUMP JUMPDEST PUSH1 0x40 MLOAD DUP1 SWAP2 SUB SWAP1 REVERT JUMPDEST PUSH1 0x0 PUSH1 0x7 PUSH1 0x0 CALLER PUSH20 0xFFFFFFFFFFFFFFFFFFFFFFFFFFFFFFFFFFFFFFFF AND PUSH20 0xFFFFFFFFFFFFFFFFFFFFFFFFFFFFFFFFFFFFFFFF AND DUP2 MSTORE PUSH1 0x20 ADD SWAP1 DUP2 MSTORE PUSH1 0x20 ADD PUSH1 0x0 KECCAK256 SLOAD SWAP1 POP PUSH1 0x0 PUSH1 0x7 PUSH1 0x0 CALLER PUSH20 0xFFFFFFFFFFFFFFFFFFFFFFFFFFFFFFFFFFFFFFFF AND PUSH20 0xFFFFFFFFFFFFFFFFFFFFFFFFFFFFFFFFFFFFFFFF AND DUP2 MSTORE PUSH1 0x20 ADD SWAP1 DUP2 MSTORE PUSH1 0x20 ADD PUSH1 0x0 KECCAK256 DUP2 SWAP1 SSTORE POP CALLER PUSH20 0xFFFFFFFFFFFFFFFFFFFFFFFFFFFFFFFFFFFFFFFF AND PUSH2 0x8FC DUP3 SWAP1 DUP2 ISZERO MUL SWAP1 PUSH1 0x40 MLOAD PUSH1 0x0 PUSH1 0x40 MLOAD DUP1 DUP4 SUB DUP2 DUP6 DUP9 DUP9 CALL SWAP4 POP POP POP POP ISZERO DUP1 ISZERO PUSH2 0x687 JUMPI RETURNDATASIZE PUSH1 0x0 DUP1 RETURNDATACOPY RETURNDATASIZE PUSH1 0x0 REVERT JUMPDEST POP POP JUMP JUMPDEST PUSH1 0x0 SLOAD DUP2 JUMP JUMPDEST PUSH1 0x0 PUSH1 0x6 PUSH1 0x0 CALLER PUSH20 0xFFFFFFFFFFFFFFFFFFFFFFFFFFFFFFFFFFFFFFFF AND PUSH20 0xFFFFFFFFFFFFFFFFFFFFFFFFFFFFFFFFFFFFFFFF AND DUP2 MSTORE PUSH1 0x20 ADD SWAP1 DUP2 MSTORE PUSH1 0x20 ADD PUSH1 0x0 KECCAK256 SLOAD GT PUSH2 0x713 JUMPI PUSH1 0x40 MLOAD PUSH32 0x8C379A000000000000000000000000000000000000000000000000000000000 DUP2 MSTORE PUSH1 0x4 ADD PUSH2 0x70A SWAP1 PUSH2 0x1074 JUMP JUMPDEST PUSH1 0x40 MLOAD DUP1 SWAP2 SUB SWAP1 REVERT JUMPDEST PUSH1 0x0 PUSH2 0x775 PUSH3 0x15180 TIMESTAMP PUSH1 0x5 PUSH1 0x0 CALLER PUSH20 0xFFFFFFFFFFFFFFFFFFFFFFFFFFFFFFFFFFFFFFFF AND PUSH20 0xFFFFFFFFFFFFFFFFFFFFFFFFFFFFFFFFFFFFFFFF AND DUP2 MSTORE PUSH1 0x20 ADD SWAP1 DUP2 MSTORE PUSH1 0x20 ADD PUSH1 0x0 KECCAK256 SLOAD PUSH2 0x767 SWAP2 SWAP1 PUSH2 0x130F JUMP JUMPDEST PUSH2 0xC52 SWAP1 SWAP2 SWAP1 PUSH4 0xFFFFFFFF AND JUMP JUMPDEST SWAP1 POP PUSH3 0x278D00 DUP2 GT PUSH2 0x7BC JUMPI PUSH1 0x40 MLOAD PUSH32 0x8C379A000000000000000000000000000000000000000000000000000000000 DUP2 MSTORE PUSH1 0x4 ADD PUSH2 0x7B3 SWAP1 PUSH2 0x1142 JUMP JUMPDEST PUSH1 0x40 MLOAD DUP1 SWAP2 SUB SWAP1 REVERT JUMPDEST PUSH1 0x0 PUSH2 0x836 PUSH1 0x64 PUSH2 0x828 PUSH1 0x6 PUSH1 0x0 CALLER PUSH20 0xFFFFFFFFFFFFFFFFFFFFFFFFFFFFFFFFFFFFFFFF AND PUSH20 0xFFFFFFFFFFFFFFFFFFFFFFFFFFFFFFFFFFFFFFFF AND DUP2 MSTORE PUSH1 0x20 ADD SWAP1 DUP2 MSTORE PUSH1 0x20 ADD PUSH1 0x0 KECCAK256 SLOAD PUSH2 0x81A PUSH1 0x5 DUP8 PUSH2 0xCAA SWAP1 SWAP2 SWAP1 PUSH4 0xFFFFFFFF AND JUMP JUMPDEST PUSH2 0xCAA SWAP1 SWAP2 SWAP1 PUSH4 0xFFFFFFFF AND JUMP JUMPDEST PUSH2 0xC52 SWAP1 SWAP2 SWAP1 PUSH4 0xFFFFFFFF AND JUMP JUMPDEST PUSH1 0x6 PUSH1 0x0 CALLER PUSH20 0xFFFFFFFFFFFFFFFFFFFFFFFFFFFFFFFFFFFFFFFF AND PUSH20 0xFFFFFFFFFFFFFFFFFFFFFFFFFFFFFFFFFFFFFFFF AND DUP2 MSTORE PUSH1 0x20 ADD SWAP1 DUP2 MSTORE PUSH1 0x20 ADD PUSH1 0x0 KECCAK256 SLOAD PUSH2 0x880 SWAP2 SWAP1 PUSH2 0x122E JUMP JUMPDEST SWAP1 POP PUSH1 0x2 SLOAD DUP2 LT PUSH2 0x8C6 JUMPI PUSH1 0x40 MLOAD PUSH32 0x8C379A000000000000000000000000000000000000000000000000000000000 DUP2 MSTORE PUSH1 0x4 ADD PUSH2 0x8BD SWAP1 PUSH2 0x11C2 JUMP JUMPDEST PUSH1 0x40 MLOAD DUP1 SWAP2 SUB SWAP1 REVERT JUMPDEST PUSH2 0x8DB DUP2 PUSH1 0x2 SLOAD PUSH2 0xBA0 SWAP1 SWAP2 SWAP1 PUSH4 0xFFFFFFFF AND JUMP JUMPDEST PUSH1 0x2 DUP2 SWAP1 SSTORE POP PUSH2 0x933 DUP2 PUSH1 0x7 PUSH1 0x0 CALLER PUSH20 0xFFFFFFFFFFFFFFFFFFFFFFFFFFFFFFFFFFFFFFFF AND PUSH20 0xFFFFFFFFFFFFFFFFFFFFFFFFFFFFFFFFFFFFFFFF AND DUP2 MSTORE PUSH1 0x20 ADD SWAP1 DUP2 MSTORE PUSH1 0x20 ADD PUSH1 0x0 KECCAK256 SLOAD PUSH2 0xBF9 SWAP1 SWAP2 SWAP1 PUSH4 0xFFFFFFFF AND JUMP JUMPDEST PUSH1 0x7 PUSH1 0x0 CALLER PUSH20 0xFFFFFFFFFFFFFFFFFFFFFFFFFFFFFFFFFFFFFFFF AND PUSH20 0xFFFFFFFFFFFFFFFFFFFFFFFFFFFFFFFFFFFFFFFF AND DUP2 MSTORE PUSH1 0x20 ADD SWAP1 DUP2 MSTORE PUSH1 0x20 ADD PUSH1 0x0 KECCAK256 DUP2 SWAP1 SSTORE POP POP POP JUMP JUMPDEST PUSH1 0x5 PUSH1 0x20 MSTORE DUP1 PUSH1 0x0 MSTORE PUSH1 0x40 PUSH1 0x0 KECCAK256 PUSH1 0x0 SWAP2 POP SWAP1 POP SLOAD DUP2 JUMP JUMPDEST PUSH1 0x1 PUSH1 0x0 SWAP1 SLOAD SWAP1 PUSH2 0x100 EXP SWAP1 DIV PUSH20 0xFFFFFFFFFFFFFFFFFFFFFFFFFFFFFFFFFFFFFFFF AND DUP2 JUMP JUMPDEST PUSH1 0x3 PUSH1 0x0 SWAP1 SLOAD SWAP1 PUSH2 0x100 EXP SWAP1 DIV PUSH20 0xFFFFFFFFFFFFFFFFFFFFFFFFFFFFFFFFFFFFFFFF AND DUP2 JUMP JUMPDEST PUSH1 0x7 PUSH1 0x20 MSTORE DUP1 PUSH1 0x0 MSTORE PUSH1 0x40 PUSH1 0x0 KECCAK256 PUSH1 0x0 SWAP2 POP SWAP1 POP SLOAD DUP2 JUMP JUMPDEST PUSH1 0x8 PUSH1 0x20 MSTORE DUP1 PUSH1 0x0 MSTORE PUSH1 0x40 PUSH1 0x0 KECCAK256 PUSH1 0x0 SWAP2 POP SLOAD SWAP1 PUSH2 0x100 EXP SWAP1 DIV PUSH1 0xFF AND DUP2 JUMP JUMPDEST PUSH1 0x0 SLOAD CALLVALUE LT ISZERO PUSH2 0xA5B JUMPI PUSH1 0x40 MLOAD PUSH32 0x8C379A000000000000000000000000000000000000000000000000000000000 DUP2 MSTORE PUSH1 0x4 ADD PUSH2 0xA52 SWAP1 PUSH2 0x1094 JUMP JUMPDEST PUSH1 0x40 MLOAD DUP1 SWAP2 SUB SWAP1 REVERT JUMPDEST TIMESTAMP PUSH1 0x5 PUSH1 0x0 CALLER PUSH20 0xFFFFFFFFFFFFFFFFFFFFFFFFFFFFFFFFFFFFFFFF AND PUSH20 0xFFFFFFFFFFFFFFFFFFFFFFFFFFFFFFFFFFFFFFFF AND DUP2 MSTORE PUSH1 0x20 ADD SWAP1 DUP2 MSTORE PUSH1 0x20 ADD PUSH1 0x0 KECCAK256 DUP2 SWAP1 SSTORE POP PUSH2 0xAF1 CALLVALUE PUSH1 0x6 PUSH1 0x0 CALLER PUSH20 0xFFFFFFFFFFFFFFFFFFFFFFFFFFFFFFFFFFFFFFFF AND PUSH20 0xFFFFFFFFFFFFFFFFFFFFFFFFFFFFFFFFFFFFFFFF AND DUP2 MSTORE PUSH1 0x20 ADD SWAP1 DUP2 MSTORE PUSH1 0x20 ADD PUSH1 0x0 KECCAK256 SLOAD PUSH2 0xBF9 SWAP1 SWAP2 SWAP1 PUSH4 0xFFFFFFFF AND JUMP JUMPDEST PUSH1 0x6 PUSH1 0x0 CALLER PUSH20 0xFFFFFFFFFFFFFFFFFFFFFFFFFFFFFFFFFFFFFFFF AND PUSH20 0xFFFFFFFFFFFFFFFFFFFFFFFFFFFFFFFFFFFFFFFF AND DUP2 MSTORE PUSH1 0x20 ADD SWAP1 DUP2 MSTORE PUSH1 0x20 ADD PUSH1 0x0 KECCAK256 DUP2 SWAP1 SSTORE POP PUSH2 0xB49 CALLVALUE PUSH1 0x2 SLOAD PUSH2 0xBF9 SWAP1 SWAP2 SWAP1 PUSH4 0xFFFFFFFF AND JUMP JUMPDEST PUSH1 0x2 DUP2 SWAP1 SSTORE POP PUSH32 0xF67E7992D539193FC243C42FE89F8FAB49013E8E4FB18CFA891DC51ADCACCC80 CALLER PUSH1 0x40 MLOAD PUSH2 0xB7E SWAP2 SWAP1 PUSH2 0x10D4 JUMP JUMPDEST PUSH1 0x40 MLOAD DUP1 SWAP2 SUB SWAP1 LOG1 JUMP JUMPDEST PUSH1 0x6 PUSH1 0x20 MSTORE DUP1 PUSH1 0x0 MSTORE PUSH1 0x40 PUSH1 0x0 KECCAK256 PUSH1 0x0 SWAP2 POP SWAP1 POP SLOAD DUP2 JUMP JUMPDEST PUSH1 0x0 DUP3 DUP3 GT ISZERO PUSH2 0xBE5 JUMPI PUSH1 0x40 MLOAD PUSH32 0x8C379A000000000000000000000000000000000000000000000000000000000 DUP2 MSTORE PUSH1 0x4 ADD PUSH2 0xBDC SWAP1 PUSH2 0x1102 JUMP JUMPDEST PUSH1 0x40 MLOAD DUP1 SWAP2 SUB SWAP1 REVERT JUMPDEST DUP2 DUP4 PUSH2 0xBF1 SWAP2 SWAP1 PUSH2 0x130F JUMP JUMPDEST SWAP1 POP SWAP3 SWAP2 POP POP JUMP JUMPDEST PUSH1 0x0 DUP2 DUP4 PUSH2 0xC07 SWAP2 SWAP1 PUSH2 0x122E JUMP JUMPDEST SWAP1 POP DUP3 DUP2 LT ISZERO PUSH2 0xC4C JUMPI PUSH1 0x40 MLOAD PUSH32 0x8C379A000000000000000000000000000000000000000000000000000000000 DUP2 MSTORE PUSH1 0x4 ADD PUSH2 0xC43 SWAP1 PUSH2 0x1122 JUMP JUMPDEST PUSH1 0x40 MLOAD DUP1 SWAP2 SUB SWAP1 REVERT JUMPDEST SWAP3 SWAP2 POP POP JUMP JUMPDEST PUSH1 0x0 DUP1 DUP3 GT PUSH2 0xC96 JUMPI PUSH1 0x40 MLOAD PUSH32 0x8C379A000000000000000000000000000000000000000000000000000000000 DUP2 MSTORE PUSH1 0x4 ADD PUSH2 0xC8D SWAP1 PUSH2 0x1182 JUMP JUMPDEST PUSH1 0x40 MLOAD DUP1 SWAP2 SUB SWAP1 REVERT JUMPDEST DUP2 DUP4 PUSH2 0xCA2 SWAP2 SWAP1 PUSH2 0x1284 JUMP JUMPDEST SWAP1 POP SWAP3 SWAP2 POP POP JUMP JUMPDEST PUSH1 0x0 DUP2 DUP4 PUSH2 0xCB8 SWAP2 SWAP1 PUSH2 0x12B5 JUMP JUMPDEST SWAP1 POP PUSH1 0x0 DUP4 EQ DUP1 PUSH2 0xCD3 JUMPI POP DUP2 DUP4 DUP3 PUSH2 0xCD1 SWAP2 SWAP1 PUSH2 0x1284 JUMP JUMPDEST EQ JUMPDEST PUSH2 0xD12 JUMPI PUSH1 0x40 MLOAD PUSH32 0x8C379A000000000000000000000000000000000000000000000000000000000 DUP2 MSTORE PUSH1 0x4 ADD PUSH2 0xD09 SWAP1 PUSH2 0x11E2 JUMP JUMPDEST PUSH1 0x40 MLOAD DUP1 SWAP2 SUB SWAP1 REVERT JUMPDEST SWAP3 SWAP2 POP POP JUMP JUMPDEST PUSH1 0x0 DUP2 CALLDATALOAD SWAP1 POP PUSH2 0xD27 DUP2 PUSH2 0x1722 JUMP JUMPDEST SWAP3 SWAP2 POP POP JUMP JUMPDEST PUSH1 0x0 DUP2 CALLDATALOAD SWAP1 POP PUSH2 0xD3C DUP2 PUSH2 0x1739 JUMP JUMPDEST SWAP3 SWAP2 POP POP JUMP JUMPDEST PUSH1 0x0 PUSH1 0x20 DUP3 DUP5 SUB SLT ISZERO PUSH2 0xD58 JUMPI PUSH2 0xD57 PUSH2 0x13FB JUMP JUMPDEST JUMPDEST PUSH1 0x0 PUSH2 0xD66 DUP5 DUP3 DUP6 ADD PUSH2 0xD18 JUMP JUMPDEST SWAP2 POP POP SWAP3 SWAP2 POP POP JUMP JUMPDEST PUSH1 0x0 DUP1 PUSH1 0x40 DUP4 DUP6 SUB SLT ISZERO PUSH2 0xD86 JUMPI PUSH2 0xD85 PUSH2 0x13FB JUMP JUMPDEST JUMPDEST PUSH1 0x0 PUSH2 0xD94 DUP6 DUP3 DUP7 ADD PUSH2 0xD2D JUMP JUMPDEST SWAP3 POP POP PUSH1 0x20 PUSH2 0xDA5 DUP6 DUP3 DUP7 ADD PUSH2 0xD18 JUMP JUMPDEST SWAP2 POP POP SWAP3 POP SWAP3 SWAP1 POP JUMP JUMPDEST PUSH2 0xDB8 DUP2 PUSH2 0x1355 JUMP JUMPDEST DUP3 MSTORE POP POP JUMP JUMPDEST PUSH2 0xDC7 DUP2 PUSH2 0x1343 JUMP JUMPDEST DUP3 MSTORE POP POP JUMP JUMPDEST PUSH2 0xDD6 DUP2 PUSH2 0x1367 JUMP JUMPDEST DUP3 MSTORE POP POP JUMP JUMPDEST PUSH1 0x0 PUSH2 0xDE9 PUSH1 0x13 DUP4 PUSH2 0x121D JUMP JUMPDEST SWAP2 POP PUSH2 0xDF4 DUP3 PUSH2 0x1400 JUMP JUMPDEST PUSH1 0x20 DUP3 ADD SWAP1 POP SWAP2 SWAP1 POP JUMP JUMPDEST PUSH1 0x0 PUSH2 0xE0C PUSH1 0x29 DUP4 PUSH2 0x121D JUMP JUMPDEST SWAP2 POP PUSH2 0xE17 DUP3 PUSH2 0x1429 JUMP JUMPDEST PUSH1 0x40 DUP3 ADD SWAP1 POP SWAP2 SWAP1 POP JUMP JUMPDEST PUSH1 0x0 PUSH2 0xE2F PUSH1 0x20 DUP4 PUSH2 0x121D JUMP JUMPDEST SWAP2 POP PUSH2 0xE3A DUP3 PUSH2 0x1478 JUMP JUMPDEST PUSH1 0x20 DUP3 ADD SWAP1 POP SWAP2 SWAP1 POP JUMP JUMPDEST PUSH1 0x0 PUSH2 0xE52 PUSH1 0x18 DUP4 PUSH2 0x121D JUMP JUMPDEST SWAP2 POP PUSH2 0xE5D DUP3 PUSH2 0x14A1 JUMP JUMPDEST PUSH1 0x20 DUP3 ADD SWAP1 POP SWAP2 SWAP1 POP JUMP JUMPDEST PUSH1 0x0 PUSH2 0xE75 PUSH1 0x24 DUP4 PUSH2 0x121D JUMP JUMPDEST SWAP2 POP PUSH2 0xE80 DUP3 PUSH2 0x14CA JUMP JUMPDEST PUSH1 0x40 DUP3 ADD SWAP1 POP SWAP2 SWAP1 POP JUMP JUMPDEST PUSH1 0x0 PUSH2 0xE98 PUSH1 0x6 DUP4 PUSH2 0x121D JUMP JUMPDEST SWAP2 POP PUSH2 0xEA3 DUP3 PUSH2 0x1519 JUMP JUMPDEST PUSH1 0x20 DUP3 ADD SWAP1 POP SWAP2 SWAP1 POP JUMP JUMPDEST PUSH1 0x0 PUSH2 0xEBB PUSH1 0x12 DUP4 PUSH2 0x121D JUMP JUMPDEST SWAP2 POP PUSH2 0xEC6 DUP3 PUSH2 0x1542 JUMP JUMPDEST PUSH1 0x20 DUP3 ADD SWAP1 POP SWAP2 SWAP1 POP JUMP JUMPDEST PUSH1 0x0 PUSH2 0xEDE PUSH1 0xF DUP4 PUSH2 0x121D JUMP JUMPDEST SWAP2 POP PUSH2 0xEE9 DUP3 PUSH2 0x156B JUMP JUMPDEST PUSH1 0x20 DUP3 ADD SWAP1 POP SWAP2 SWAP1 POP JUMP JUMPDEST PUSH1 0x0 PUSH2 0xF01 PUSH1 0x24 DUP4 PUSH2 0x121D JUMP JUMPDEST SWAP2 POP PUSH2 0xF0C DUP3 PUSH2 0x1594 JUMP JUMPDEST PUSH1 0x40 DUP3 ADD SWAP1 POP SWAP2 SWAP1 POP JUMP JUMPDEST PUSH1 0x0 PUSH2 0xF24 PUSH1 0x2C DUP4 PUSH2 0x121D JUMP JUMPDEST SWAP2 POP PUSH2 0xF2F DUP3 PUSH2 0x15E3 JUMP JUMPDEST PUSH1 0x40 DUP3 ADD SWAP1 POP SWAP2 SWAP1 POP JUMP JUMPDEST PUSH1 0x0 PUSH2 0xF47 PUSH1 0xE DUP4 PUSH2 0x121D JUMP JUMPDEST SWAP2 POP PUSH2 0xF52 DUP3 PUSH2 0x1632 JUMP JUMPDEST PUSH1 0x20 DUP3 ADD SWAP1 POP SWAP2 SWAP1 POP JUMP JUMPDEST PUSH1 0x0 PUSH2 0xF6A PUSH1 0x27 DUP4 PUSH2 0x121D JUMP JUMPDEST SWAP2 POP PUSH2 0xF75 DUP3 PUSH2 0x165B JUMP JUMPDEST PUSH1 0x40 DUP3 ADD SWAP1 POP SWAP2 SWAP1 POP JUMP JUMPDEST PUSH1 0x0 PUSH2 0xF8D PUSH1 0x32 DUP4 PUSH2 0x121D JUMP JUMPDEST SWAP2 POP PUSH2 0xF98 DUP3 PUSH2 0x16AA JUMP JUMPDEST PUSH1 0x40 DUP3 ADD SWAP1 POP SWAP2 SWAP1 POP JUMP JUMPDEST PUSH1 0x0 PUSH2 0xFB0 PUSH1 0x14 DUP4 PUSH2 0x121D JUMP JUMPDEST SWAP2 POP PUSH2 0xFBB DUP3 PUSH2 0x16F9 JUMP JUMPDEST PUSH1 0x20 DUP3 ADD SWAP1 POP SWAP2 SWAP1 POP JUMP JUMPDEST PUSH2 0xFCF DUP2 PUSH2 0x1393 JUMP JUMPDEST DUP3 MSTORE POP POP JUMP JUMPDEST PUSH1 0x0 PUSH1 0x20 DUP3 ADD SWAP1 POP PUSH2 0xFEA PUSH1 0x0 DUP4 ADD DUP5 PUSH2 0xDBE JUMP JUMPDEST SWAP3 SWAP2 POP POP JUMP JUMPDEST PUSH1 0x0 PUSH1 0x20 DUP3 ADD SWAP1 POP PUSH2 0x1005 PUSH1 0x0 DUP4 ADD DUP5 PUSH2 0xDAF JUMP JUMPDEST SWAP3 SWAP2 POP POP JUMP JUMPDEST PUSH1 0x0 PUSH1 0x20 DUP3 ADD SWAP1 POP PUSH2 0x1020 PUSH1 0x0 DUP4 ADD DUP5 PUSH2 0xDCD JUMP JUMPDEST SWAP3 SWAP2 POP POP JUMP JUMPDEST PUSH1 0x0 PUSH1 0x40 DUP3 ADD SWAP1 POP DUP2 DUP2 SUB PUSH1 0x0 DUP4 ADD MSTORE PUSH2 0x103F DUP2 PUSH2 0xDDC JUMP JUMPDEST SWAP1 POP PUSH2 0x104E PUSH1 0x20 DUP4 ADD DUP5 PUSH2 0xDBE JUMP JUMPDEST SWAP3 SWAP2 POP POP JUMP JUMPDEST PUSH1 0x0 PUSH1 0x20 DUP3 ADD SWAP1 POP DUP2 DUP2 SUB PUSH1 0x0 DUP4 ADD MSTORE PUSH2 0x106D DUP2 PUSH2 0xDFF JUMP JUMPDEST SWAP1 POP SWAP2 SWAP1 POP JUMP JUMPDEST PUSH1 0x0 PUSH1 0x20 DUP3 ADD SWAP1 POP DUP2 DUP2 SUB PUSH1 0x0 DUP4 ADD MSTORE PUSH2 0x108D DUP2 PUSH2 0xE22 JUMP JUMPDEST SWAP1 POP SWAP2 SWAP1 POP JUMP JUMPDEST PUSH1 0x0 PUSH1 0x20 DUP3 ADD SWAP1 POP DUP2 DUP2 SUB PUSH1 0x0 DUP4 ADD MSTORE PUSH2 0x10AD DUP2 PUSH2 0xE45 JUMP JUMPDEST SWAP1 POP SWAP2 SWAP1 POP JUMP JUMPDEST PUSH1 0x0 PUSH1 0x20 DUP3 ADD SWAP1 POP DUP2 DUP2 SUB PUSH1 0x0 DUP4 ADD MSTORE PUSH2 0x10CD DUP2 PUSH2 0xE68 JUMP JUMPDEST SWAP1 POP SWAP2 SWAP1 POP JUMP JUMPDEST PUSH1 0x0 PUSH1 0x40 DUP3 ADD SWAP1 POP DUP2 DUP2 SUB PUSH1 0x0 DUP4 ADD MSTORE PUSH2 0x10ED DUP2 PUSH2 0xE8B JUMP JUMPDEST SWAP1 POP PUSH2 0x10FC PUSH1 0x20 DUP4 ADD DUP5 PUSH2 0xDBE JUMP JUMPDEST SWAP3 SWAP2 POP POP JUMP JUMPDEST PUSH1 0x0 PUSH1 0x20 DUP3 ADD SWAP1 POP DUP2 DUP2 SUB PUSH1 0x0 DUP4 ADD MSTORE PUSH2 0x111B DUP2 PUSH2 0xEAE JUMP JUMPDEST SWAP1 POP SWAP2 SWAP1 POP JUMP JUMPDEST PUSH1 0x0 PUSH1 0x20 DUP3 ADD SWAP1 POP DUP2 DUP2 SUB PUSH1 0x0 DUP4 ADD MSTORE PUSH2 0x113B DUP2 PUSH2 0xED1 JUMP JUMPDEST SWAP1 POP SWAP2 SWAP1 POP JUMP JUMPDEST PUSH1 0x0 PUSH1 0x20 DUP3 ADD SWAP1 POP DUP2 DUP2 SUB PUSH1 0x0 DUP4 ADD MSTORE PUSH2 0x115B DUP2 PUSH2 0xEF4 JUMP JUMPDEST SWAP1 POP SWAP2 SWAP1 POP JUMP JUMPDEST PUSH1 0x0 PUSH1 0x20 DUP3 ADD SWAP1 POP DUP2 DUP2 SUB PUSH1 0x0 DUP4 ADD MSTORE PUSH2 0x117B DUP2 PUSH2 0xF17 JUMP JUMPDEST SWAP1 POP SWAP2 SWAP1 POP JUMP JUMPDEST PUSH1 0x0 PUSH1 0x20 DUP3 ADD SWAP1 POP DUP2 DUP2 SUB PUSH1 0x0 DUP4 ADD MSTORE PUSH2 0x119B DUP2 PUSH2 0xF3A JUMP JUMPDEST SWAP1 POP SWAP2 SWAP1 POP JUMP JUMPDEST PUSH1 0x0 PUSH1 0x20 DUP3 ADD SWAP1 POP DUP2 DUP2 SUB PUSH1 0x0 DUP4 ADD MSTORE PUSH2 0x11BB DUP2 PUSH2 0xF5D JUMP JUMPDEST SWAP1 POP SWAP2 SWAP1 POP JUMP JUMPDEST PUSH1 0x0 PUSH1 0x20 DUP3 ADD SWAP1 POP DUP2 DUP2 SUB PUSH1 0x0 DUP4 ADD MSTORE PUSH2 0x11DB DUP2 PUSH2 0xF80 JUMP JUMPDEST SWAP1 POP SWAP2 SWAP1 POP JUMP JUMPDEST PUSH1 0x0 PUSH1 0x20 DUP3 ADD SWAP1 POP DUP2 DUP2 SUB PUSH1 0x0 DUP4 ADD MSTORE PUSH2 0x11FB DUP2 PUSH2 0xFA3 JUMP JUMPDEST SWAP1 POP SWAP2 SWAP1 POP JUMP JUMPDEST PUSH1 0x0 PUSH1 0x20 DUP3 ADD SWAP1 POP PUSH2 0x1217 PUSH1 0x0 DUP4 ADD DUP5 PUSH2 0xFC6 JUMP JUMPDEST SWAP3 SWAP2 POP POP JUMP JUMPDEST PUSH1 0x0 DUP3 DUP3 MSTORE PUSH1 0x20 DUP3 ADD SWAP1 POP SWAP3 SWAP2 POP POP JUMP JUMPDEST PUSH1 0x0 PUSH2 0x1239 DUP3 PUSH2 0x1393 JUMP JUMPDEST SWAP2 POP PUSH2 0x1244 DUP4 PUSH2 0x1393 JUMP JUMPDEST SWAP3 POP DUP3 PUSH32 0xFFFFFFFFFFFFFFFFFFFFFFFFFFFFFFFFFFFFFFFFFFFFFFFFFFFFFFFFFFFFFFFF SUB DUP3 GT ISZERO PUSH2 0x1279 JUMPI PUSH2 0x1278 PUSH2 0x139D JUMP JUMPDEST JUMPDEST DUP3 DUP3 ADD SWAP1 POP SWAP3 SWAP2 POP POP JUMP JUMPDEST PUSH1 0x0 PUSH2 0x128F DUP3 PUSH2 0x1393 JUMP JUMPDEST SWAP2 POP PUSH2 0x129A DUP4 PUSH2 0x1393 JUMP JUMPDEST SWAP3 POP DUP3 PUSH2 0x12AA JUMPI PUSH2 0x12A9 PUSH2 0x13CC JUMP JUMPDEST JUMPDEST DUP3 DUP3 DIV SWAP1 POP SWAP3 SWAP2 POP POP JUMP JUMPDEST PUSH1 0x0 PUSH2 0x12C0 DUP3 PUSH2 0x1393 JUMP JUMPDEST SWAP2 POP PUSH2 0x12CB DUP4 PUSH2 0x1393 JUMP JUMPDEST SWAP3 POP DUP2 PUSH32 0xFFFFFFFFFFFFFFFFFFFFFFFFFFFFFFFFFFFFFFFFFFFFFFFFFFFFFFFFFFFFFFFF DIV DUP4 GT DUP3 ISZERO ISZERO AND ISZERO PUSH2 0x1304 JUMPI PUSH2 0x1303 PUSH2 0x139D JUMP JUMPDEST JUMPDEST DUP3 DUP3 MUL SWAP1 POP SWAP3 SWAP2 POP POP JUMP JUMPDEST PUSH1 0x0 PUSH2 0x131A DUP3 PUSH2 0x1393 JUMP JUMPDEST SWAP2 POP PUSH2 0x1325 DUP4 PUSH2 0x1393 JUMP JUMPDEST SWAP3 POP DUP3 DUP3 LT ISZERO PUSH2 0x1338 JUMPI PUSH2 0x1337 PUSH2 0x139D JUMP JUMPDEST JUMPDEST DUP3 DUP3 SUB SWAP1 POP SWAP3 SWAP2 POP POP JUMP JUMPDEST PUSH1 0x0 PUSH2 0x134E DUP3 PUSH2 0x1373 JUMP JUMPDEST SWAP1 POP SWAP2 SWAP1 POP JUMP JUMPDEST PUSH1 0x0 PUSH2 0x1360 DUP3 PUSH2 0x1373 JUMP JUMPDEST SWAP1 POP SWAP2 SWAP1 POP JUMP JUMPDEST PUSH1 0x0 DUP2 ISZERO ISZERO SWAP1 POP SWAP2 SWAP1 POP JUMP JUMPDEST PUSH1 0x0 PUSH20 0xFFFFFFFFFFFFFFFFFFFFFFFFFFFFFFFFFFFFFFFF DUP3 AND SWAP1 POP SWAP2 SWAP1 POP JUMP JUMPDEST PUSH1 0x0 DUP2 SWAP1 POP SWAP2 SWAP1 POP JUMP JUMPDEST PUSH32 0x4E487B7100000000000000000000000000000000000000000000000000000000 PUSH1 0x0 MSTORE PUSH1 0x11 PUSH1 0x4 MSTORE PUSH1 0x24 PUSH1 0x0 REVERT JUMPDEST PUSH32 0x4E487B7100000000000000000000000000000000000000000000000000000000 PUSH1 0x0 MSTORE PUSH1 0x12 PUSH1 0x4 MSTORE PUSH1 0x24 PUSH1 0x0 REVERT JUMPDEST PUSH1 0x0 DUP1 REVERT JUMPDEST PUSH32 0x4D6F6E6579207769746864726177656E20746F00000000000000000000000000 PUSH1 0x0 DUP3 ADD MSTORE POP JUMP JUMPDEST PUSH32 0x4F6E6C7920616C6C6F7765642067617465732063616E20616363657373207468 PUSH1 0x0 DUP3 ADD MSTORE PUSH32 0x6973206D6574686F640000000000000000000000000000000000000000000000 PUSH1 0x20 DUP3 ADD MSTORE POP JUMP JUMPDEST PUSH32 0x596F7520646F6E2774206861766520616E79206D6F6E657920696E2068657265 PUSH1 0x0 DUP3 ADD MSTORE POP JUMP JUMPDEST PUSH32 0x4D696E696D756D20312045746865722052657175697265640000000000000000 PUSH1 0x0 DUP3 ADD MSTORE POP JUMP JUMPDEST PUSH32 0x596F7520646F6E27742068617665206E6F2070656E64696E6720776974686472 PUSH1 0x0 DUP3 ADD MSTORE PUSH32 0x61776C7300000000000000000000000000000000000000000000000000000000 PUSH1 0x20 DUP3 ADD MSTORE POP JUMP JUMPDEST PUSH32 0x7374616B65640000000000000000000000000000000000000000000000000000 PUSH1 0x0 DUP3 ADD MSTORE POP JUMP JUMPDEST PUSH32 0x537562737472616374696F6E206661696C640000000000000000000000000000 PUSH1 0x0 DUP3 ADD MSTORE POP JUMP JUMPDEST PUSH32 0x4164646974696F6E206661696C65640000000000000000000000000000000000 PUSH1 0x0 DUP3 ADD MSTORE POP JUMP JUMPDEST PUSH32 0x596F752073686F756C642061746C65617374207374616B6520666F722061206D PUSH1 0x0 DUP3 ADD MSTORE PUSH32 0x6F6E747900000000000000000000000000000000000000000000000000000000 PUSH1 0x20 DUP3 ADD MSTORE POP JUMP JUMPDEST PUSH32 0x4F6E6C7920696E697469616C2075706C6F616465722063616E20616363657373 PUSH1 0x0 DUP3 ADD MSTORE PUSH32 0x2074686973206D6574686F640000000000000000000000000000000000000000 PUSH1 0x20 DUP3 ADD MSTORE POP JUMP JUMPDEST PUSH32 0x4469766973696F6E206661696C64000000000000000000000000000000000000 PUSH1 0x0 DUP3 ADD MSTORE POP JUMP JUMPDEST PUSH32 0x446F65736E2774206861766520656E6F7567682062616C616E636520696E2074 PUSH1 0x0 DUP3 ADD MSTORE PUSH32 0x68652062616E6B00000000000000000000000000000000000000000000000000 PUSH1 0x20 DUP3 ADD MSTORE POP JUMP JUMPDEST PUSH32 0x536F72727920776520646F6E2774206861766520656E6F756768206D6F6E6579 PUSH1 0x0 DUP3 ADD MSTORE PUSH32 0x20736F20636F6D656261636B206C617465720000000000000000000000000000 PUSH1 0x20 DUP3 ADD MSTORE POP JUMP JUMPDEST PUSH32 0x4D756C7469706C69636174696F6E206661696C64000000000000000000000000 PUSH1 0x0 DUP3 ADD MSTORE POP JUMP JUMPDEST PUSH2 0x172B DUP2 PUSH2 0x1343 JUMP JUMPDEST DUP2 EQ PUSH2 0x1736 JUMPI PUSH1 0x0 DUP1 REVERT JUMPDEST POP JUMP JUMPDEST PUSH2 0x1742 DUP2 PUSH2 0x1393 JUMP JUMPDEST DUP2 EQ PUSH2 0x174D JUMPI PUSH1 0x0 DUP1 REVERT JUMPDEST POP JUMP INVALID LOG2 PUSH5 0x6970667358 0x22 SLT KECCAK256 0xBC SLOAD INVALID COINBASE 0x49 0xF6 SMOD 0x5D 0xC9 DUP7 DUP3 0xDB 0x2D ORIGIN 0xC4 LOG1 0xEA CALLDATALOAD SWAP1 0xB0 0x2B MLOAD LT 0x4A RETURN 0xAF 0x25 MSTORE8 0xBE 0xB9 DUP13 SWAP12 PUSH5 0x736F6C6343 STOP ADDMOD SMOD STOP CALLER "
				},
				"gasEstimates": {
					"creation": {
						"codeDepositCost": "1204400",
						"executionCost": "49832",
						"totalCost": "1254232"
					},
					"external": {
						"": "218",
						"allowed_pools(address)": "2911",
						"deposit()": "infinite",
						"depositWithdraw()": "infinite",
						"editor()": "2536",
						"gateWithdrawl()": "infinite",
						"lendingWithdraw(uint256,address)": "infinite",
						"minimumAmt()": "2496",
						"owner()": "2514",
						"pendingPayment(address)": "2858",
						"stakedAmount(address)": "2924",
						"startTime(address)": "2925",
						"updateEditor(address)": "26893"
					}
				},
				"methodIdentifiers": {
					"allowed_pools(address)": "c02b2092",
					"deposit()": "d0e30db0",
					"depositWithdraw()": "6e0e0da2",
					"editor()": "a464d265",
					"gateWithdrawl()": "56852391",
					"lendingWithdraw(uint256,address)": "3607999b",
					"minimumAmt()": "650fad76",
					"owner()": "8da5cb5b",
					"pendingPayment(address)": "aeae177c",
					"stakedAmount(address)": "f9931855",
					"startTime(address)": "6e1dc66e",
					"updateEditor(address)": "166d7b48"
				}
			},
			"userdoc": {
				"kind": "user",
				"methods": {
					"deposit()": {
						"notice": "lenders can deposit money to lending pool"
					},
					"depositWithdraw()": {
						"notice": "notice Stakers can use this function to take out thier money"
					}
				},
				"notice": "Lending pool for Swip3",
				"version": 1
			}
		}
	}
}