{
	"contracts/Swip3Customer.sol": {
		"Swip3Customer": {
			"abi": [
				{
					"inputs": [
						{
							"internalType": "uint256",
							"name": "_expiration_date",
							"type": "uint256"
						},
						{
							"internalType": "address",
							"name": "_smart_contract",
							"type": "address"
						},
						{
							"internalType": "address",
							"name": "_user",
							"type": "address"
						},
						{
							"internalType": "uint256",
							"name": "_credit_limit",
							"type": "uint256"
						},
						{
							"internalType": "uint256",
							"name": "_APR",
							"type": "uint256"
						}
					],
					"stateMutability": "nonpayable",
					"type": "constructor"
				},
				{
					"inputs": [],
					"name": "Expired",
					"type": "error"
				},
				{
					"anonymous": false,
					"inputs": [],
					"name": "ContractTerminated",
					"type": "event"
				},
				{
					"anonymous": false,
					"inputs": [
						{
							"indexed": false,
							"internalType": "string",
							"name": "msg",
							"type": "string"
						}
					],
					"name": "childBorn",
					"type": "event"
				},
				{
					"inputs": [],
					"name": "acceptPayment",
					"outputs": [],
					"stateMutability": "payable",
					"type": "function"
				},
				{
					"inputs": [
						{
							"internalType": "address",
							"name": "_lending_poolGate",
							"type": "address"
						},
						{
							"internalType": "uint256",
							"name": "_lending_poolID",
							"type": "uint256"
						}
					],
					"name": "activate",
					"outputs": [],
					"stateMutability": "nonpayable",
					"type": "function"
				},
				{
					"inputs": [],
					"name": "availableCredit",
					"outputs": [
						{
							"internalType": "uint256",
							"name": "",
							"type": "uint256"
						}
					],
					"stateMutability": "view",
					"type": "function"
				},
				{
					"inputs": [],
					"name": "checkStatus",
					"outputs": [],
					"stateMutability": "nonpayable",
					"type": "function"
				},
				{
					"inputs": [],
					"name": "expiration_date",
					"outputs": [
						{
							"internalType": "uint256",
							"name": "",
							"type": "uint256"
						}
					],
					"stateMutability": "view",
					"type": "function"
				},
				{
					"inputs": [
						{
							"internalType": "address",
							"name": "reciever_address",
							"type": "address"
						},
						{
							"internalType": "uint256",
							"name": "amount",
							"type": "uint256"
						}
					],
					"name": "requestPayment",
					"outputs": [
						{
							"internalType": "bool",
							"name": "",
							"type": "bool"
						}
					],
					"stateMutability": "nonpayable",
					"type": "function"
				},
				{
					"inputs": [],
					"name": "state",
					"outputs": [
						{
							"internalType": "enum Swip3Customer.State",
							"name": "",
							"type": "uint8"
						}
					],
					"stateMutability": "view",
					"type": "function"
				},
				{
					"inputs": [],
					"name": "terminate",
					"outputs": [],
					"stateMutability": "nonpayable",
					"type": "function"
				},
				{
					"inputs": [],
					"name": "updateCredit",
					"outputs": [],
					"stateMutability": "nonpayable",
					"type": "function"
				},
				{
					"inputs": [],
					"name": "updateExpiration",
					"outputs": [],
					"stateMutability": "nonpayable",
					"type": "function"
				},
				{
					"inputs": [],
					"name": "withdrawOverPayed",
					"outputs": [],
					"stateMutability": "nonpayable",
					"type": "function"
				}
			],
			"devdoc": {
				"author": "Hileamlak Yitayew",
				"details": "Except view function only parent contract and user can access this contract ",
				"kind": "dev",
				"methods": {},
				"title": "Swip3Customer - an agreement between the swip3 credit service and customer",
				"version": 1
			},
			"evm": {
				"assembly": "    /* \"contracts/Swip3Customer.sol\":434:5137  contract Swip3Customer {... */\n  mstore(0x40, 0x80)\n    /* \"contracts/Swip3Customer.sol\":1935:2388  constructor (uint _expiration_date, address _smart_contract, ... */\n  callvalue\n  dup1\n  iszero\n  tag_1\n  jumpi\n  0x00\n  dup1\n  revert\ntag_1:\n  pop\n  mload(0x40)\n  sub(codesize, bytecodeSize)\n  dup1\n  bytecodeSize\n  dup4\n  codecopy\n  dup2\n  dup2\n  add\n  0x40\n  mstore\n  dup2\n  add\n  swap1\n  tag_2\n  swap2\n  swap1\n  tag_3\n  jump\t// in\ntag_2:\n    /* \"contracts/Swip3Customer.sol\":2109:2150  childBorn(\"A child just opened its eyes\") */\n  0x33aaa92ade0fe3fafff12ea74532e26e083fa605080da1da64693a9d8af268a3\n  mload(0x40)\n  tag_6\n  swap1\n  tag_7\n  jump\t// in\ntag_6:\n  mload(0x40)\n  dup1\n  swap2\n  sub\n  swap1\n  log1\n    /* \"contracts/Swip3Customer.sol\":2167:2172  _user */\n  dup3\n    /* \"contracts/Swip3Customer.sol\":2160:2164  user */\n  0x00\n  dup1\n    /* \"contracts/Swip3Customer.sol\":2160:2172  user = _user */\n  0x0100\n  exp\n  dup2\n  sload\n  dup2\n  0xffffffffffffffffffffffffffffffffffffffff\n  mul\n  not\n  and\n  swap1\n  dup4\n  0xffffffffffffffffffffffffffffffffffffffff\n  and\n  mul\n  or\n  swap1\n  sstore\n  pop\n    /* \"contracts/Swip3Customer.sol\":2200:2215  _smart_contract */\n  dup4\n    /* \"contracts/Swip3Customer.sol\":2182:2197  parent_contract */\n  0x01\n  0x00\n    /* \"contracts/Swip3Customer.sol\":2182:2215  parent_contract = _smart_contract */\n  0x0100\n  exp\n  dup2\n  sload\n  dup2\n  0xffffffffffffffffffffffffffffffffffffffff\n  mul\n  not\n  and\n  swap1\n  dup4\n  0xffffffffffffffffffffffffffffffffffffffff\n  and\n  mul\n  or\n  swap1\n  sstore\n  pop\n    /* \"contracts/Swip3Customer.sol\":2243:2259  _expiration_date */\n  dup5\n    /* \"contracts/Swip3Customer.sol\":2225:2240  expiration_date */\n  0x02\n    /* \"contracts/Swip3Customer.sol\":2225:2259  expiration_date = _expiration_date */\n  dup2\n  swap1\n  sstore\n  pop\n    /* \"contracts/Swip3Customer.sol\":2278:2292  State.STARTING */\n  0x00\n    /* \"contracts/Swip3Customer.sol\":2270:2275  state */\n  0x05\n  0x00\n    /* \"contracts/Swip3Customer.sol\":2270:2292  state = State.STARTING */\n  0x0100\n  exp\n  dup2\n  sload\n  dup2\n  0xff\n  mul\n  not\n  and\n  swap1\n  dup4\n  0x03\n  dup2\n  gt\n  iszero\n  tag_8\n  jumpi\n  tag_9\n  tag_10\n  jump\t// in\ntag_9:\ntag_8:\n  mul\n  or\n  swap1\n  sstore\n  pop\n    /* \"contracts/Swip3Customer.sol\":2318:2331  _credit_limit */\n  dup2\n    /* \"contracts/Swip3Customer.sol\":2303:2315  credit_limit */\n  0x06\n    /* \"contracts/Swip3Customer.sol\":2303:2331  credit_limit = _credit_limit */\n  dup2\n  swap1\n  sstore\n  pop\n    /* \"contracts/Swip3Customer.sol\":2347:2351  _APR */\n  dup1\n    /* \"contracts/Swip3Customer.sol\":2341:2344  APR */\n  0x0a\n    /* \"contracts/Swip3Customer.sol\":2341:2351  APR = _APR */\n  dup2\n  swap1\n  sstore\n  pop\n    /* \"contracts/Swip3Customer.sol\":2377:2381  true */\n  0x01\n    /* \"contracts/Swip3Customer.sol\":2361:2374  good_standing */\n  0x0c\n  0x00\n    /* \"contracts/Swip3Customer.sol\":2361:2381  good_standing = true */\n  0x0100\n  exp\n  dup2\n  sload\n  dup2\n  0xff\n  mul\n  not\n  and\n  swap1\n  dup4\n  iszero\n  iszero\n  mul\n  or\n  swap1\n  sstore\n  pop\n    /* \"contracts/Swip3Customer.sol\":1935:2388  constructor (uint _expiration_date, address _smart_contract, ... */\n  pop\n  pop\n  pop\n  pop\n  pop\n    /* \"contracts/Swip3Customer.sol\":434:5137  contract Swip3Customer {... */\n  jump(tag_11)\n    /* \"#utility.yul\":7:150   */\ntag_13:\n    /* \"#utility.yul\":64:69   */\n  0x00\n    /* \"#utility.yul\":95:101   */\n  dup2\n    /* \"#utility.yul\":89:102   */\n  mload\n    /* \"#utility.yul\":80:102   */\n  swap1\n  pop\n    /* \"#utility.yul\":111:144   */\n  tag_15\n    /* \"#utility.yul\":138:143   */\n  dup2\n    /* \"#utility.yul\":111:144   */\n  tag_16\n  jump\t// in\ntag_15:\n    /* \"#utility.yul\":7:150   */\n  swap3\n  swap2\n  pop\n  pop\n  jump\t// out\n    /* \"#utility.yul\":156:299   */\ntag_17:\n    /* \"#utility.yul\":213:218   */\n  0x00\n    /* \"#utility.yul\":244:250   */\n  dup2\n    /* \"#utility.yul\":238:251   */\n  mload\n    /* \"#utility.yul\":229:251   */\n  swap1\n  pop\n    /* \"#utility.yul\":260:293   */\n  tag_19\n    /* \"#utility.yul\":287:292   */\n  dup2\n    /* \"#utility.yul\":260:293   */\n  tag_20\n  jump\t// in\ntag_19:\n    /* \"#utility.yul\":156:299   */\n  swap3\n  swap2\n  pop\n  pop\n  jump\t// out\n    /* \"#utility.yul\":305:1282   */\ntag_3:\n    /* \"#utility.yul\":411:417   */\n  0x00\n    /* \"#utility.yul\":419:425   */\n  dup1\n    /* \"#utility.yul\":427:433   */\n  0x00\n    /* \"#utility.yul\":435:441   */\n  dup1\n    /* \"#utility.yul\":443:449   */\n  0x00\n    /* \"#utility.yul\":492:495   */\n  0xa0\n    /* \"#utility.yul\":480:489   */\n  dup7\n    /* \"#utility.yul\":471:478   */\n  dup9\n    /* \"#utility.yul\":467:490   */\n  sub\n    /* \"#utility.yul\":463:496   */\n  slt\n    /* \"#utility.yul\":460:580   */\n  iszero\n  tag_22\n  jumpi\n    /* \"#utility.yul\":499:578   */\n  tag_23\n  tag_24\n  jump\t// in\ntag_23:\n    /* \"#utility.yul\":460:580   */\ntag_22:\n    /* \"#utility.yul\":619:620   */\n  0x00\n    /* \"#utility.yul\":644:708   */\n  tag_25\n    /* \"#utility.yul\":700:707   */\n  dup9\n    /* \"#utility.yul\":691:697   */\n  dup3\n    /* \"#utility.yul\":680:689   */\n  dup10\n    /* \"#utility.yul\":676:698   */\n  add\n    /* \"#utility.yul\":644:708   */\n  tag_17\n  jump\t// in\ntag_25:\n    /* \"#utility.yul\":634:708   */\n  swap6\n  pop\n    /* \"#utility.yul\":590:718   */\n  pop\n    /* \"#utility.yul\":757:759   */\n  0x20\n    /* \"#utility.yul\":783:847   */\n  tag_26\n    /* \"#utility.yul\":839:846   */\n  dup9\n    /* \"#utility.yul\":830:836   */\n  dup3\n    /* \"#utility.yul\":819:828   */\n  dup10\n    /* \"#utility.yul\":815:837   */\n  add\n    /* \"#utility.yul\":783:847   */\n  tag_13\n  jump\t// in\ntag_26:\n    /* \"#utility.yul\":773:847   */\n  swap5\n  pop\n    /* \"#utility.yul\":728:857   */\n  pop\n    /* \"#utility.yul\":896:898   */\n  0x40\n    /* \"#utility.yul\":922:986   */\n  tag_27\n    /* \"#utility.yul\":978:985   */\n  dup9\n    /* \"#utility.yul\":969:975   */\n  dup3\n    /* \"#utility.yul\":958:967   */\n  dup10\n    /* \"#utility.yul\":954:976   */\n  add\n    /* \"#utility.yul\":922:986   */\n  tag_13\n  jump\t// in\ntag_27:\n    /* \"#utility.yul\":912:986   */\n  swap4\n  pop\n    /* \"#utility.yul\":867:996   */\n  pop\n    /* \"#utility.yul\":1035:1037   */\n  0x60\n    /* \"#utility.yul\":1061:1125   */\n  tag_28\n    /* \"#utility.yul\":1117:1124   */\n  dup9\n    /* \"#utility.yul\":1108:1114   */\n  dup3\n    /* \"#utility.yul\":1097:1106   */\n  dup10\n    /* \"#utility.yul\":1093:1115   */\n  add\n    /* \"#utility.yul\":1061:1125   */\n  tag_17\n  jump\t// in\ntag_28:\n    /* \"#utility.yul\":1051:1125   */\n  swap3\n  pop\n    /* \"#utility.yul\":1006:1135   */\n  pop\n    /* \"#utility.yul\":1174:1177   */\n  0x80\n    /* \"#utility.yul\":1201:1265   */\n  tag_29\n    /* \"#utility.yul\":1257:1264   */\n  dup9\n    /* \"#utility.yul\":1248:1254   */\n  dup3\n    /* \"#utility.yul\":1237:1246   */\n  dup10\n    /* \"#utility.yul\":1233:1255   */\n  add\n    /* \"#utility.yul\":1201:1265   */\n  tag_17\n  jump\t// in\ntag_29:\n    /* \"#utility.yul\":1191:1265   */\n  swap2\n  pop\n    /* \"#utility.yul\":1145:1275   */\n  pop\n    /* \"#utility.yul\":305:1282   */\n  swap3\n  swap6\n  pop\n  swap3\n  swap6\n  swap1\n  swap4\n  pop\n  jump\t// out\n    /* \"#utility.yul\":1288:1654   */\ntag_30:\n    /* \"#utility.yul\":1430:1433   */\n  0x00\n    /* \"#utility.yul\":1451:1518   */\n  tag_32\n    /* \"#utility.yul\":1515:1517   */\n  0x1c\n    /* \"#utility.yul\":1510:1513   */\n  dup4\n    /* \"#utility.yul\":1451:1518   */\n  tag_33\n  jump\t// in\ntag_32:\n    /* \"#utility.yul\":1444:1518   */\n  swap2\n  pop\n    /* \"#utility.yul\":1527:1620   */\n  tag_34\n    /* \"#utility.yul\":1616:1619   */\n  dup3\n    /* \"#utility.yul\":1527:1620   */\n  tag_35\n  jump\t// in\ntag_34:\n    /* \"#utility.yul\":1645:1647   */\n  0x20\n    /* \"#utility.yul\":1640:1643   */\n  dup3\n    /* \"#utility.yul\":1636:1648   */\n  add\n    /* \"#utility.yul\":1629:1648   */\n  swap1\n  pop\n    /* \"#utility.yul\":1288:1654   */\n  swap2\n  swap1\n  pop\n  jump\t// out\n    /* \"#utility.yul\":1660:2079   */\ntag_7:\n    /* \"#utility.yul\":1826:1830   */\n  0x00\n    /* \"#utility.yul\":1864:1866   */\n  0x20\n    /* \"#utility.yul\":1853:1862   */\n  dup3\n    /* \"#utility.yul\":1849:1867   */\n  add\n    /* \"#utility.yul\":1841:1867   */\n  swap1\n  pop\n    /* \"#utility.yul\":1913:1922   */\n  dup2\n    /* \"#utility.yul\":1907:1911   */\n  dup2\n    /* \"#utility.yul\":1903:1923   */\n  sub\n    /* \"#utility.yul\":1899:1900   */\n  0x00\n    /* \"#utility.yul\":1888:1897   */\n  dup4\n    /* \"#utility.yul\":1884:1901   */\n  add\n    /* \"#utility.yul\":1877:1924   */\n  mstore\n    /* \"#utility.yul\":1941:2072   */\n  tag_37\n    /* \"#utility.yul\":2067:2071   */\n  dup2\n    /* \"#utility.yul\":1941:2072   */\n  tag_30\n  jump\t// in\ntag_37:\n    /* \"#utility.yul\":1933:2072   */\n  swap1\n  pop\n    /* \"#utility.yul\":1660:2079   */\n  swap2\n  swap1\n  pop\n  jump\t// out\n    /* \"#utility.yul\":2166:2335   */\ntag_33:\n    /* \"#utility.yul\":2250:2261   */\n  0x00\n    /* \"#utility.yul\":2284:2290   */\n  dup3\n    /* \"#utility.yul\":2279:2282   */\n  dup3\n    /* \"#utility.yul\":2272:2291   */\n  mstore\n    /* \"#utility.yul\":2324:2328   */\n  0x20\n    /* \"#utility.yul\":2319:2322   */\n  dup3\n    /* \"#utility.yul\":2315:2329   */\n  add\n    /* \"#utility.yul\":2300:2329   */\n  swap1\n  pop\n    /* \"#utility.yul\":2166:2335   */\n  swap3\n  swap2\n  pop\n  pop\n  jump\t// out\n    /* \"#utility.yul\":2341:2437   */\ntag_41:\n    /* \"#utility.yul\":2378:2385   */\n  0x00\n    /* \"#utility.yul\":2407:2431   */\n  tag_43\n    /* \"#utility.yul\":2425:2430   */\n  dup3\n    /* \"#utility.yul\":2407:2431   */\n  tag_44\n  jump\t// in\ntag_43:\n    /* \"#utility.yul\":2396:2431   */\n  swap1\n  pop\n    /* \"#utility.yul\":2341:2437   */\n  swap2\n  swap1\n  pop\n  jump\t// out\n    /* \"#utility.yul\":2443:2569   */\ntag_44:\n    /* \"#utility.yul\":2480:2487   */\n  0x00\n    /* \"#utility.yul\":2520:2562   */\n  0xffffffffffffffffffffffffffffffffffffffff\n    /* \"#utility.yul\":2513:2518   */\n  dup3\n    /* \"#utility.yul\":2509:2563   */\n  and\n    /* \"#utility.yul\":2498:2563   */\n  swap1\n  pop\n    /* \"#utility.yul\":2443:2569   */\n  swap2\n  swap1\n  pop\n  jump\t// out\n    /* \"#utility.yul\":2575:2652   */\ntag_46:\n    /* \"#utility.yul\":2612:2619   */\n  0x00\n    /* \"#utility.yul\":2641:2646   */\n  dup2\n    /* \"#utility.yul\":2630:2646   */\n  swap1\n  pop\n    /* \"#utility.yul\":2575:2652   */\n  swap2\n  swap1\n  pop\n  jump\t// out\n    /* \"#utility.yul\":2658:2838   */\ntag_10:\n    /* \"#utility.yul\":2706:2783   */\n  0x4e487b7100000000000000000000000000000000000000000000000000000000\n    /* \"#utility.yul\":2703:2704   */\n  0x00\n    /* \"#utility.yul\":2696:2784   */\n  mstore\n    /* \"#utility.yul\":2803:2807   */\n  0x21\n    /* \"#utility.yul\":2800:2801   */\n  0x04\n    /* \"#utility.yul\":2793:2808   */\n  mstore\n    /* \"#utility.yul\":2827:2831   */\n  0x24\n    /* \"#utility.yul\":2824:2825   */\n  0x00\n    /* \"#utility.yul\":2817:2832   */\n  revert\n    /* \"#utility.yul\":2967:3084   */\ntag_24:\n    /* \"#utility.yul\":3076:3077   */\n  0x00\n    /* \"#utility.yul\":3073:3074   */\n  dup1\n    /* \"#utility.yul\":3066:3078   */\n  revert\n    /* \"#utility.yul\":3090:3268   */\ntag_35:\n    /* \"#utility.yul\":3230:3260   */\n  0x41206368696c64206a757374206f70656e656420697473206579657300000000\n    /* \"#utility.yul\":3226:3227   */\n  0x00\n    /* \"#utility.yul\":3218:3224   */\n  dup3\n    /* \"#utility.yul\":3214:3228   */\n  add\n    /* \"#utility.yul\":3207:3261   */\n  mstore\n    /* \"#utility.yul\":3090:3268   */\n  pop\n  jump\t// out\n    /* \"#utility.yul\":3274:3396   */\ntag_16:\n    /* \"#utility.yul\":3347:3371   */\n  tag_54\n    /* \"#utility.yul\":3365:3370   */\n  dup2\n    /* \"#utility.yul\":3347:3371   */\n  tag_41\n  jump\t// in\ntag_54:\n    /* \"#utility.yul\":3340:3345   */\n  dup2\n    /* \"#utility.yul\":3337:3372   */\n  eq\n    /* \"#utility.yul\":3327:3390   */\n  tag_55\n  jumpi\n    /* \"#utility.yul\":3386:3387   */\n  0x00\n    /* \"#utility.yul\":3383:3384   */\n  dup1\n    /* \"#utility.yul\":3376:3388   */\n  revert\n    /* \"#utility.yul\":3327:3390   */\ntag_55:\n    /* \"#utility.yul\":3274:3396   */\n  pop\n  jump\t// out\n    /* \"#utility.yul\":3402:3524   */\ntag_20:\n    /* \"#utility.yul\":3475:3499   */\n  tag_57\n    /* \"#utility.yul\":3493:3498   */\n  dup2\n    /* \"#utility.yul\":3475:3499   */\n  tag_46\n  jump\t// in\ntag_57:\n    /* \"#utility.yul\":3468:3473   */\n  dup2\n    /* \"#utility.yul\":3465:3500   */\n  eq\n    /* \"#utility.yul\":3455:3518   */\n  tag_58\n  jumpi\n    /* \"#utility.yul\":3514:3515   */\n  0x00\n    /* \"#utility.yul\":3511:3512   */\n  dup1\n    /* \"#utility.yul\":3504:3516   */\n  revert\n    /* \"#utility.yul\":3455:3518   */\ntag_58:\n    /* \"#utility.yul\":3402:3524   */\n  pop\n  jump\t// out\n    /* \"contracts/Swip3Customer.sol\":434:5137  contract Swip3Customer {... */\ntag_11:\n  dataSize(sub_0)\n  dup1\n  dataOffset(sub_0)\n  0x00\n  codecopy\n  0x00\n  return\nstop\n\nsub_0: assembly {\n        /* \"contracts/Swip3Customer.sol\":434:5137  contract Swip3Customer {... */\n      mstore(0x40, 0x80)\n      jumpi(tag_1, lt(calldatasize, 0x04))\n      shr(0xe0, calldataload(0x00))\n      dup1\n      0x9f0c592e\n      gt\n      tag_13\n      jumpi\n      dup1\n      0x9f0c592e\n      eq\n      tag_7\n      jumpi\n      dup1\n      0xa6601f2e\n      eq\n      tag_8\n      jumpi\n      dup1\n      0xae0aba8c\n      eq\n      tag_9\n      jumpi\n      dup1\n      0xc19d93fb\n      eq\n      tag_10\n      jumpi\n      dup1\n      0xca11be69\n      eq\n      tag_11\n      jumpi\n      dup1\n      0xd12abd8a\n      eq\n      tag_12\n      jumpi\n      jump(tag_1)\n    tag_13:\n      dup1\n      0x07cc692f\n      eq\n      tag_2\n      jumpi\n      dup1\n      0x0c08bf88\n      eq\n      tag_3\n      jumpi\n      dup1\n      0x3b7104f2\n      eq\n      tag_4\n      jumpi\n      dup1\n      0x78706079\n      eq\n      tag_5\n      jumpi\n      dup1\n      0x804d6b38\n      eq\n      tag_6\n      jumpi\n    tag_1:\n      0x00\n      dup1\n      revert\n        /* \"contracts/Swip3Customer.sol\":3909:4044  function availableCredit() ... */\n    tag_2:\n      callvalue\n      dup1\n      iszero\n      tag_14\n      jumpi\n      0x00\n      dup1\n      revert\n    tag_14:\n      pop\n      tag_15\n      tag_16\n      jump\t// in\n    tag_15:\n      mload(0x40)\n      tag_17\n      swap2\n      swap1\n      tag_18\n      jump\t// in\n    tag_17:\n      mload(0x40)\n      dup1\n      swap2\n      sub\n      swap1\n      return\n        /* \"contracts/Swip3Customer.sol\":4050:4718  function terminate() ... */\n    tag_3:\n      callvalue\n      dup1\n      iszero\n      tag_19\n      jumpi\n      0x00\n      dup1\n      revert\n    tag_19:\n      pop\n      tag_20\n      tag_21\n      jump\t// in\n    tag_20:\n      stop\n        /* \"contracts/Swip3Customer.sol\":5082:5131  function checkStatus() public{... */\n    tag_4:\n      callvalue\n      dup1\n      iszero\n      tag_22\n      jumpi\n      0x00\n      dup1\n      revert\n    tag_22:\n      pop\n      tag_23\n      tag_24\n      jump\t// in\n    tag_23:\n      stop\n        /* \"contracts/Swip3Customer.sol\":560:587  uint public expiration_date */\n    tag_5:\n      callvalue\n      dup1\n      iszero\n      tag_25\n      jumpi\n      0x00\n      dup1\n      revert\n    tag_25:\n      pop\n      tag_26\n      tag_27\n      jump\t// in\n    tag_26:\n      mload(0x40)\n      tag_28\n      swap2\n      swap1\n      tag_18\n      jump\t// in\n    tag_28:\n      mload(0x40)\n      dup1\n      swap2\n      sub\n      swap1\n      return\n        /* \"contracts/Swip3Customer.sol\":4724:4846  function updateCredit() ... */\n    tag_6:\n      callvalue\n      dup1\n      iszero\n      tag_29\n      jumpi\n      0x00\n      dup1\n      revert\n    tag_29:\n      pop\n      tag_30\n      tag_31\n      jump\t// in\n    tag_30:\n      stop\n        /* \"contracts/Swip3Customer.sol\":2709:3419  function requestPayment(address reciever_address, uint256 amount) ... */\n    tag_7:\n      callvalue\n      dup1\n      iszero\n      tag_32\n      jumpi\n      0x00\n      dup1\n      revert\n    tag_32:\n      pop\n      tag_33\n      0x04\n      dup1\n      calldatasize\n      sub\n      dup2\n      add\n      swap1\n      tag_34\n      swap2\n      swap1\n      tag_35\n      jump\t// in\n    tag_34:\n      tag_36\n      jump\t// in\n    tag_33:\n      mload(0x40)\n      tag_37\n      swap2\n      swap1\n      tag_38\n      jump\t// in\n    tag_37:\n      mload(0x40)\n      dup1\n      swap2\n      sub\n      swap1\n      return\n        /* \"contracts/Swip3Customer.sol\":3707:3903  function withdrawOverPayed() ... */\n    tag_8:\n      callvalue\n      dup1\n      iszero\n      tag_39\n      jumpi\n      0x00\n      dup1\n      revert\n    tag_39:\n      pop\n      tag_40\n      tag_41\n      jump\t// in\n    tag_40:\n      stop\n        /* \"contracts/Swip3Customer.sol\":3425:3701  function acceptPayment()... */\n    tag_9:\n      tag_42\n      tag_43\n      jump\t// in\n    tag_42:\n      stop\n        /* \"contracts/Swip3Customer.sol\":723:741  State public state */\n    tag_10:\n      callvalue\n      dup1\n      iszero\n      tag_44\n      jumpi\n      0x00\n      dup1\n      revert\n    tag_44:\n      pop\n      tag_45\n      tag_46\n      jump\t// in\n    tag_45:\n      mload(0x40)\n      tag_47\n      swap2\n      swap1\n      tag_48\n      jump\t// in\n    tag_47:\n      mload(0x40)\n      dup1\n      swap2\n      sub\n      swap1\n      return\n        /* \"contracts/Swip3Customer.sol\":2399:2697  function activate(address _lending_poolGate, uint256 _lending_poolID) ... */\n    tag_11:\n      callvalue\n      dup1\n      iszero\n      tag_49\n      jumpi\n      0x00\n      dup1\n      revert\n    tag_49:\n      pop\n      tag_50\n      0x04\n      dup1\n      calldatasize\n      sub\n      dup2\n      add\n      swap1\n      tag_51\n      swap2\n      swap1\n      tag_35\n      jump\t// in\n    tag_51:\n      tag_52\n      jump\t// in\n    tag_50:\n      stop\n        /* \"contracts/Swip3Customer.sol\":4852:4978  function updateExpiration() ... */\n    tag_12:\n      callvalue\n      dup1\n      iszero\n      tag_53\n      jumpi\n      0x00\n      dup1\n      revert\n    tag_53:\n      pop\n      tag_54\n      tag_55\n      jump\t// in\n    tag_54:\n      stop\n        /* \"contracts/Swip3Customer.sol\":3909:4044  function availableCredit() ... */\n    tag_16:\n        /* \"contracts/Swip3Customer.sol\":3982:3989  uint256 */\n      0x00\n        /* \"contracts/Swip3Customer.sol\":4012:4037  credit_limit.sub(balance) */\n      tag_57\n        /* \"contracts/Swip3Customer.sol\":4029:4036  balance */\n      sload(0x07)\n        /* \"contracts/Swip3Customer.sol\":4012:4024  credit_limit */\n      sload(0x06)\n        /* \"contracts/Swip3Customer.sol\":4012:4028  credit_limit.sub */\n      tag_58\n      swap1\n        /* \"contracts/Swip3Customer.sol\":4012:4037  credit_limit.sub(balance) */\n      swap2\n      swap1\n      0xffffffff\n      and\n      jump\t// in\n    tag_57:\n        /* \"contracts/Swip3Customer.sol\":4005:4037  return credit_limit.sub(balance) */\n      swap1\n      pop\n        /* \"contracts/Swip3Customer.sol\":3909:4044  function availableCredit() ... */\n      swap1\n      jump\t// out\n        /* \"contracts/Swip3Customer.sol\":4050:4718  function terminate() ... */\n    tag_21:\n        /* \"contracts/Swip3Customer.sol\":1643:1647  user */\n      0x00\n      dup1\n      sload\n      swap1\n      0x0100\n      exp\n      swap1\n      div\n      0xffffffffffffffffffffffffffffffffffffffff\n      and\n        /* \"contracts/Swip3Customer.sol\":1629:1647  msg.sender == user */\n      0xffffffffffffffffffffffffffffffffffffffff\n      and\n        /* \"contracts/Swip3Customer.sol\":1629:1639  msg.sender */\n      caller\n        /* \"contracts/Swip3Customer.sol\":1629:1647  msg.sender == user */\n      0xffffffffffffffffffffffffffffffffffffffff\n      and\n      eq\n        /* \"contracts/Swip3Customer.sol\":1629:1680  msg.sender == user || msg.sender == parent_contract */\n      dup1\n      tag_60\n      jumpi\n      pop\n        /* \"contracts/Swip3Customer.sol\":1665:1680  parent_contract */\n      0x01\n      0x00\n      swap1\n      sload\n      swap1\n      0x0100\n      exp\n      swap1\n      div\n      0xffffffffffffffffffffffffffffffffffffffff\n      and\n        /* \"contracts/Swip3Customer.sol\":1651:1680  msg.sender == parent_contract */\n      0xffffffffffffffffffffffffffffffffffffffff\n      and\n        /* \"contracts/Swip3Customer.sol\":1651:1661  msg.sender */\n      caller\n        /* \"contracts/Swip3Customer.sol\":1651:1680  msg.sender == parent_contract */\n      0xffffffffffffffffffffffffffffffffffffffff\n      and\n      eq\n        /* \"contracts/Swip3Customer.sol\":1629:1680  msg.sender == user || msg.sender == parent_contract */\n    tag_60:\n        /* \"contracts/Swip3Customer.sol\":1621:1702  require(msg.sender == user || msg.sender == parent_contract, \"Unauthorized user\") */\n      tag_61\n      jumpi\n      mload(0x40)\n      0x08c379a000000000000000000000000000000000000000000000000000000000\n      dup2\n      mstore\n      0x04\n      add\n      tag_62\n      swap1\n      tag_63\n      jump\t// in\n    tag_62:\n      mload(0x40)\n      dup1\n      swap2\n      sub\n      swap1\n      revert\n    tag_61:\n        /* \"contracts/Swip3Customer.sol\":1770:1783  State.EXPIRED */\n      0x01\n        /* \"contracts/Swip3Customer.sol\":1761:1783  state == State.EXPIRED */\n      0x03\n      dup2\n      gt\n      iszero\n      tag_65\n      jumpi\n      tag_66\n      tag_67\n      jump\t// in\n    tag_66:\n    tag_65:\n        /* \"contracts/Swip3Customer.sol\":1761:1766  state */\n      0x05\n      0x00\n      swap1\n      sload\n      swap1\n      0x0100\n      exp\n      swap1\n      div\n      0xff\n      and\n        /* \"contracts/Swip3Customer.sol\":1761:1783  state == State.EXPIRED */\n      0x03\n      dup2\n      gt\n      iszero\n      tag_68\n      jumpi\n      tag_69\n      tag_67\n      jump\t// in\n    tag_69:\n    tag_68:\n      eq\n        /* \"contracts/Swip3Customer.sol\":1761:1820  state == State.EXPIRED || block.timestamp > expiration_date */\n      dup1\n      tag_70\n      jumpi\n      pop\n        /* \"contracts/Swip3Customer.sol\":1805:1820  expiration_date */\n      sload(0x02)\n        /* \"contracts/Swip3Customer.sol\":1787:1802  block.timestamp */\n      timestamp\n        /* \"contracts/Swip3Customer.sol\":1787:1820  block.timestamp > expiration_date */\n      gt\n        /* \"contracts/Swip3Customer.sol\":1761:1820  state == State.EXPIRED || block.timestamp > expiration_date */\n    tag_70:\n        /* \"contracts/Swip3Customer.sol\":1758:1897  if(state == State.EXPIRED || block.timestamp > expiration_date){... */\n      iszero\n      tag_71\n      jumpi\n        /* \"contracts/Swip3Customer.sol\":1843:1856  State.EXPIRED */\n      0x01\n        /* \"contracts/Swip3Customer.sol\":1835:1840  state */\n      0x05\n      0x00\n        /* \"contracts/Swip3Customer.sol\":1835:1856  state = State.EXPIRED */\n      0x0100\n      exp\n      dup2\n      sload\n      dup2\n      0xff\n      mul\n      not\n      and\n      swap1\n      dup4\n      0x03\n      dup2\n      gt\n      iszero\n      tag_72\n      jumpi\n      tag_73\n      tag_67\n      jump\t// in\n    tag_73:\n    tag_72:\n      mul\n      or\n      swap1\n      sstore\n      pop\n        /* \"contracts/Swip3Customer.sol\":1877:1886  Expired() */\n      mload(0x40)\n      0x203d82d800000000000000000000000000000000000000000000000000000000\n      dup2\n      mstore\n      0x04\n      add\n      mload(0x40)\n      dup1\n      swap2\n      sub\n      swap1\n      revert\n        /* \"contracts/Swip3Customer.sol\":1758:1897  if(state == State.EXPIRED || block.timestamp > expiration_date){... */\n    tag_71:\n        /* \"contracts/Swip3Customer.sol\":1514:1526  State.ACTIVE */\n      0x02\n        /* \"contracts/Swip3Customer.sol\":1505:1526  state == State.ACTIVE */\n      0x03\n      dup2\n      gt\n      iszero\n      tag_75\n      jumpi\n      tag_76\n      tag_67\n      jump\t// in\n    tag_76:\n    tag_75:\n        /* \"contracts/Swip3Customer.sol\":1505:1510  state */\n      0x05\n      0x00\n      swap1\n      sload\n      swap1\n      0x0100\n      exp\n      swap1\n      div\n      0xff\n      and\n        /* \"contracts/Swip3Customer.sol\":1505:1526  state == State.ACTIVE */\n      0x03\n      dup2\n      gt\n      iszero\n      tag_77\n      jumpi\n      tag_78\n      tag_67\n      jump\t// in\n    tag_78:\n    tag_77:\n      eq\n        /* \"contracts/Swip3Customer.sol\":1497:1558  require(state == State.ACTIVE, \"Contract state isn't active\") */\n      tag_79\n      jumpi\n      mload(0x40)\n      0x08c379a000000000000000000000000000000000000000000000000000000000\n      dup2\n      mstore\n      0x04\n      add\n      tag_80\n      swap1\n      tag_81\n      jump\t// in\n    tag_80:\n      mload(0x40)\n      dup1\n      swap2\n      sub\n      swap1\n      revert\n    tag_79:\n        /* \"contracts/Swip3Customer.sol\":4261:4262  0 */\n      0x00\n        /* \"contracts/Swip3Customer.sol\":4250:4257  balance */\n      sload(0x07)\n        /* \"contracts/Swip3Customer.sol\":4250:4262  balance == 0 */\n      eq\n        /* \"contracts/Swip3Customer.sol\":4242:4310  require(balance == 0, \"Balance must be 0 before termianting a deal\") */\n      tag_83\n      jumpi\n      mload(0x40)\n      0x08c379a000000000000000000000000000000000000000000000000000000000\n      dup2\n      mstore\n      0x04\n      add\n      tag_84\n      swap1\n      tag_85\n      jump\t// in\n    tag_84:\n      mload(0x40)\n      dup1\n      swap2\n      sub\n      swap1\n      revert\n    tag_83:\n        /* \"contracts/Swip3Customer.sol\":4342:4343  0 */\n      0x00\n        /* \"contracts/Swip3Customer.sol\":4328:4338  over_payed */\n      sload(0x0b)\n        /* \"contracts/Swip3Customer.sol\":4328:4343  over_payed == 0 */\n      eq\n        /* \"contracts/Swip3Customer.sol\":4320:4396  require(over_payed == 0, \"There is unwithdrawm money. Withdraw your money!\") */\n      tag_86\n      jumpi\n      mload(0x40)\n      0x08c379a000000000000000000000000000000000000000000000000000000000\n      dup2\n      mstore\n      0x04\n      add\n      tag_87\n      swap1\n      tag_88\n      jump\t// in\n    tag_87:\n      mload(0x40)\n      dup1\n      swap2\n      sub\n      swap1\n      revert\n    tag_86:\n        /* \"contracts/Swip3Customer.sol\":4414:4430  State.TERMINATED */\n      0x03\n        /* \"contracts/Swip3Customer.sol\":4406:4411  state */\n      0x05\n      0x00\n        /* \"contracts/Swip3Customer.sol\":4406:4430  state = State.TERMINATED */\n      0x0100\n      exp\n      dup2\n      sload\n      dup2\n      0xff\n      mul\n      not\n      and\n      swap1\n      dup4\n      0x03\n      dup2\n      gt\n      iszero\n      tag_89\n      jumpi\n      tag_90\n      tag_67\n      jump\t// in\n    tag_90:\n    tag_89:\n      mul\n      or\n      swap1\n      sstore\n      pop\n        /* \"contracts/Swip3Customer.sol\":4584:4604  ContractTerminated() */\n      0x6d0d90585834980bd0e5603341ff50b06349c11e0bf9241d03f6d065f12a262b\n      mload(0x40)\n      mload(0x40)\n      dup1\n      swap2\n      sub\n      swap1\n      log1\n        /* \"contracts/Swip3Customer.sol\":4050:4718  function terminate() ... */\n      jump\t// out\n        /* \"contracts/Swip3Customer.sol\":5082:5131  function checkStatus() public{... */\n    tag_24:\n      jump\t// out\n        /* \"contracts/Swip3Customer.sol\":560:587  uint public expiration_date */\n    tag_27:\n      sload(0x02)\n      dup2\n      jump\t// out\n        /* \"contracts/Swip3Customer.sol\":4724:4846  function updateCredit() ... */\n    tag_31:\n        /* \"contracts/Swip3Customer.sol\":1643:1647  user */\n      0x00\n      dup1\n      sload\n      swap1\n      0x0100\n      exp\n      swap1\n      div\n      0xffffffffffffffffffffffffffffffffffffffff\n      and\n        /* \"contracts/Swip3Customer.sol\":1629:1647  msg.sender == user */\n      0xffffffffffffffffffffffffffffffffffffffff\n      and\n        /* \"contracts/Swip3Customer.sol\":1629:1639  msg.sender */\n      caller\n        /* \"contracts/Swip3Customer.sol\":1629:1647  msg.sender == user */\n      0xffffffffffffffffffffffffffffffffffffffff\n      and\n      eq\n        /* \"contracts/Swip3Customer.sol\":1629:1680  msg.sender == user || msg.sender == parent_contract */\n      dup1\n      tag_93\n      jumpi\n      pop\n        /* \"contracts/Swip3Customer.sol\":1665:1680  parent_contract */\n      0x01\n      0x00\n      swap1\n      sload\n      swap1\n      0x0100\n      exp\n      swap1\n      div\n      0xffffffffffffffffffffffffffffffffffffffff\n      and\n        /* \"contracts/Swip3Customer.sol\":1651:1680  msg.sender == parent_contract */\n      0xffffffffffffffffffffffffffffffffffffffff\n      and\n        /* \"contracts/Swip3Customer.sol\":1651:1661  msg.sender */\n      caller\n        /* \"contracts/Swip3Customer.sol\":1651:1680  msg.sender == parent_contract */\n      0xffffffffffffffffffffffffffffffffffffffff\n      and\n      eq\n        /* \"contracts/Swip3Customer.sol\":1629:1680  msg.sender == user || msg.sender == parent_contract */\n    tag_93:\n        /* \"contracts/Swip3Customer.sol\":1621:1702  require(msg.sender == user || msg.sender == parent_contract, \"Unauthorized user\") */\n      tag_94\n      jumpi\n      mload(0x40)\n      0x08c379a000000000000000000000000000000000000000000000000000000000\n      dup2\n      mstore\n      0x04\n      add\n      tag_95\n      swap1\n      tag_63\n      jump\t// in\n    tag_95:\n      mload(0x40)\n      dup1\n      swap2\n      sub\n      swap1\n      revert\n    tag_94:\n        /* \"contracts/Swip3Customer.sol\":1770:1783  State.EXPIRED */\n      0x01\n        /* \"contracts/Swip3Customer.sol\":1761:1783  state == State.EXPIRED */\n      0x03\n      dup2\n      gt\n      iszero\n      tag_97\n      jumpi\n      tag_98\n      tag_67\n      jump\t// in\n    tag_98:\n    tag_97:\n        /* \"contracts/Swip3Customer.sol\":1761:1766  state */\n      0x05\n      0x00\n      swap1\n      sload\n      swap1\n      0x0100\n      exp\n      swap1\n      div\n      0xff\n      and\n        /* \"contracts/Swip3Customer.sol\":1761:1783  state == State.EXPIRED */\n      0x03\n      dup2\n      gt\n      iszero\n      tag_99\n      jumpi\n      tag_100\n      tag_67\n      jump\t// in\n    tag_100:\n    tag_99:\n      eq\n        /* \"contracts/Swip3Customer.sol\":1761:1820  state == State.EXPIRED || block.timestamp > expiration_date */\n      dup1\n      tag_101\n      jumpi\n      pop\n        /* \"contracts/Swip3Customer.sol\":1805:1820  expiration_date */\n      sload(0x02)\n        /* \"contracts/Swip3Customer.sol\":1787:1802  block.timestamp */\n      timestamp\n        /* \"contracts/Swip3Customer.sol\":1787:1820  block.timestamp > expiration_date */\n      gt\n        /* \"contracts/Swip3Customer.sol\":1761:1820  state == State.EXPIRED || block.timestamp > expiration_date */\n    tag_101:\n        /* \"contracts/Swip3Customer.sol\":1758:1897  if(state == State.EXPIRED || block.timestamp > expiration_date){... */\n      iszero\n      tag_102\n      jumpi\n        /* \"contracts/Swip3Customer.sol\":1843:1856  State.EXPIRED */\n      0x01\n        /* \"contracts/Swip3Customer.sol\":1835:1840  state */\n      0x05\n      0x00\n        /* \"contracts/Swip3Customer.sol\":1835:1856  state = State.EXPIRED */\n      0x0100\n      exp\n      dup2\n      sload\n      dup2\n      0xff\n      mul\n      not\n      and\n      swap1\n      dup4\n      0x03\n      dup2\n      gt\n      iszero\n      tag_103\n      jumpi\n      tag_104\n      tag_67\n      jump\t// in\n    tag_104:\n    tag_103:\n      mul\n      or\n      swap1\n      sstore\n      pop\n        /* \"contracts/Swip3Customer.sol\":1877:1886  Expired() */\n      mload(0x40)\n      0x203d82d800000000000000000000000000000000000000000000000000000000\n      dup2\n      mstore\n      0x04\n      add\n      mload(0x40)\n      dup1\n      swap2\n      sub\n      swap1\n      revert\n        /* \"contracts/Swip3Customer.sol\":1758:1897  if(state == State.EXPIRED || block.timestamp > expiration_date){... */\n    tag_102:\n        /* \"contracts/Swip3Customer.sol\":1514:1526  State.ACTIVE */\n      0x02\n        /* \"contracts/Swip3Customer.sol\":1505:1526  state == State.ACTIVE */\n      0x03\n      dup2\n      gt\n      iszero\n      tag_106\n      jumpi\n      tag_107\n      tag_67\n      jump\t// in\n    tag_107:\n    tag_106:\n        /* \"contracts/Swip3Customer.sol\":1505:1510  state */\n      0x05\n      0x00\n      swap1\n      sload\n      swap1\n      0x0100\n      exp\n      swap1\n      div\n      0xff\n      and\n        /* \"contracts/Swip3Customer.sol\":1505:1526  state == State.ACTIVE */\n      0x03\n      dup2\n      gt\n      iszero\n      tag_108\n      jumpi\n      tag_109\n      tag_67\n      jump\t// in\n    tag_109:\n    tag_108:\n      eq\n        /* \"contracts/Swip3Customer.sol\":1497:1558  require(state == State.ACTIVE, \"Contract state isn't active\") */\n      tag_110\n      jumpi\n      mload(0x40)\n      0x08c379a000000000000000000000000000000000000000000000000000000000\n      dup2\n      mstore\n      0x04\n      add\n      tag_111\n      swap1\n      tag_81\n      jump\t// in\n    tag_111:\n      mload(0x40)\n      dup1\n      swap2\n      sub\n      swap1\n      revert\n    tag_110:\n        /* \"contracts/Swip3Customer.sol\":4724:4846  function updateCredit() ... */\n      jump\t// out\n        /* \"contracts/Swip3Customer.sol\":2709:3419  function requestPayment(address reciever_address, uint256 amount) ... */\n    tag_36:\n        /* \"contracts/Swip3Customer.sol\":2876:2880  bool */\n      0x00\n        /* \"contracts/Swip3Customer.sol\":1643:1647  user */\n      dup1\n      0x00\n      swap1\n      sload\n      swap1\n      0x0100\n      exp\n      swap1\n      div\n      0xffffffffffffffffffffffffffffffffffffffff\n      and\n        /* \"contracts/Swip3Customer.sol\":1629:1647  msg.sender == user */\n      0xffffffffffffffffffffffffffffffffffffffff\n      and\n        /* \"contracts/Swip3Customer.sol\":1629:1639  msg.sender */\n      caller\n        /* \"contracts/Swip3Customer.sol\":1629:1647  msg.sender == user */\n      0xffffffffffffffffffffffffffffffffffffffff\n      and\n      eq\n        /* \"contracts/Swip3Customer.sol\":1629:1680  msg.sender == user || msg.sender == parent_contract */\n      dup1\n      tag_114\n      jumpi\n      pop\n        /* \"contracts/Swip3Customer.sol\":1665:1680  parent_contract */\n      0x01\n      0x00\n      swap1\n      sload\n      swap1\n      0x0100\n      exp\n      swap1\n      div\n      0xffffffffffffffffffffffffffffffffffffffff\n      and\n        /* \"contracts/Swip3Customer.sol\":1651:1680  msg.sender == parent_contract */\n      0xffffffffffffffffffffffffffffffffffffffff\n      and\n        /* \"contracts/Swip3Customer.sol\":1651:1661  msg.sender */\n      caller\n        /* \"contracts/Swip3Customer.sol\":1651:1680  msg.sender == parent_contract */\n      0xffffffffffffffffffffffffffffffffffffffff\n      and\n      eq\n        /* \"contracts/Swip3Customer.sol\":1629:1680  msg.sender == user || msg.sender == parent_contract */\n    tag_114:\n        /* \"contracts/Swip3Customer.sol\":1621:1702  require(msg.sender == user || msg.sender == parent_contract, \"Unauthorized user\") */\n      tag_115\n      jumpi\n      mload(0x40)\n      0x08c379a000000000000000000000000000000000000000000000000000000000\n      dup2\n      mstore\n      0x04\n      add\n      tag_116\n      swap1\n      tag_63\n      jump\t// in\n    tag_116:\n      mload(0x40)\n      dup1\n      swap2\n      sub\n      swap1\n      revert\n    tag_115:\n        /* \"contracts/Swip3Customer.sol\":1770:1783  State.EXPIRED */\n      0x01\n        /* \"contracts/Swip3Customer.sol\":1761:1783  state == State.EXPIRED */\n      0x03\n      dup2\n      gt\n      iszero\n      tag_118\n      jumpi\n      tag_119\n      tag_67\n      jump\t// in\n    tag_119:\n    tag_118:\n        /* \"contracts/Swip3Customer.sol\":1761:1766  state */\n      0x05\n      0x00\n      swap1\n      sload\n      swap1\n      0x0100\n      exp\n      swap1\n      div\n      0xff\n      and\n        /* \"contracts/Swip3Customer.sol\":1761:1783  state == State.EXPIRED */\n      0x03\n      dup2\n      gt\n      iszero\n      tag_120\n      jumpi\n      tag_121\n      tag_67\n      jump\t// in\n    tag_121:\n    tag_120:\n      eq\n        /* \"contracts/Swip3Customer.sol\":1761:1820  state == State.EXPIRED || block.timestamp > expiration_date */\n      dup1\n      tag_122\n      jumpi\n      pop\n        /* \"contracts/Swip3Customer.sol\":1805:1820  expiration_date */\n      sload(0x02)\n        /* \"contracts/Swip3Customer.sol\":1787:1802  block.timestamp */\n      timestamp\n        /* \"contracts/Swip3Customer.sol\":1787:1820  block.timestamp > expiration_date */\n      gt\n        /* \"contracts/Swip3Customer.sol\":1761:1820  state == State.EXPIRED || block.timestamp > expiration_date */\n    tag_122:\n        /* \"contracts/Swip3Customer.sol\":1758:1897  if(state == State.EXPIRED || block.timestamp > expiration_date){... */\n      iszero\n      tag_123\n      jumpi\n        /* \"contracts/Swip3Customer.sol\":1843:1856  State.EXPIRED */\n      0x01\n        /* \"contracts/Swip3Customer.sol\":1835:1840  state */\n      0x05\n      0x00\n        /* \"contracts/Swip3Customer.sol\":1835:1856  state = State.EXPIRED */\n      0x0100\n      exp\n      dup2\n      sload\n      dup2\n      0xff\n      mul\n      not\n      and\n      swap1\n      dup4\n      0x03\n      dup2\n      gt\n      iszero\n      tag_124\n      jumpi\n      tag_125\n      tag_67\n      jump\t// in\n    tag_125:\n    tag_124:\n      mul\n      or\n      swap1\n      sstore\n      pop\n        /* \"contracts/Swip3Customer.sol\":1877:1886  Expired() */\n      mload(0x40)\n      0x203d82d800000000000000000000000000000000000000000000000000000000\n      dup2\n      mstore\n      0x04\n      add\n      mload(0x40)\n      dup1\n      swap2\n      sub\n      swap1\n      revert\n        /* \"contracts/Swip3Customer.sol\":1758:1897  if(state == State.EXPIRED || block.timestamp > expiration_date){... */\n    tag_123:\n        /* \"contracts/Swip3Customer.sol\":1514:1526  State.ACTIVE */\n      0x02\n        /* \"contracts/Swip3Customer.sol\":1505:1526  state == State.ACTIVE */\n      0x03\n      dup2\n      gt\n      iszero\n      tag_127\n      jumpi\n      tag_128\n      tag_67\n      jump\t// in\n    tag_128:\n    tag_127:\n        /* \"contracts/Swip3Customer.sol\":1505:1510  state */\n      0x05\n      0x00\n      swap1\n      sload\n      swap1\n      0x0100\n      exp\n      swap1\n      div\n      0xff\n      and\n        /* \"contracts/Swip3Customer.sol\":1505:1526  state == State.ACTIVE */\n      0x03\n      dup2\n      gt\n      iszero\n      tag_129\n      jumpi\n      tag_130\n      tag_67\n      jump\t// in\n    tag_130:\n    tag_129:\n      eq\n        /* \"contracts/Swip3Customer.sol\":1497:1558  require(state == State.ACTIVE, \"Contract state isn't active\") */\n      tag_131\n      jumpi\n      mload(0x40)\n      0x08c379a000000000000000000000000000000000000000000000000000000000\n      dup2\n      mstore\n      0x04\n      add\n      tag_132\n      swap1\n      tag_81\n      jump\t// in\n    tag_132:\n      mload(0x40)\n      dup1\n      swap2\n      sub\n      swap1\n      revert\n    tag_131:\n        /* \"contracts/Swip3Customer.sol\":2900:2913  checkStatus() */\n      tag_134\n        /* \"contracts/Swip3Customer.sol\":2900:2911  checkStatus */\n      tag_24\n        /* \"contracts/Swip3Customer.sol\":2900:2913  checkStatus() */\n      jump\t// in\n    tag_134:\n        /* \"contracts/Swip3Customer.sol\":2941:2958  availableCredit() */\n      tag_135\n        /* \"contracts/Swip3Customer.sol\":2941:2956  availableCredit */\n      tag_16\n        /* \"contracts/Swip3Customer.sol\":2941:2958  availableCredit() */\n      jump\t// in\n    tag_135:\n        /* \"contracts/Swip3Customer.sol\":2931:2937  amount */\n      dup3\n        /* \"contracts/Swip3Customer.sol\":2931:2958  amount <= availableCredit() */\n      gt\n      iszero\n        /* \"contracts/Swip3Customer.sol\":2923:2997  require(amount <= availableCredit(), \"No available credit for this cycle\") */\n      tag_136\n      jumpi\n      mload(0x40)\n      0x08c379a000000000000000000000000000000000000000000000000000000000\n      dup2\n      mstore\n      0x04\n      add\n      tag_137\n      swap1\n      tag_138\n      jump\t// in\n    tag_137:\n      mload(0x40)\n      dup1\n      swap2\n      sub\n      swap1\n      revert\n    tag_136:\n        /* \"contracts/Swip3Customer.sol\":3238:3248  bool payed */\n      0x00\n        /* \"contracts/Swip3Customer.sol\":3251:3267  lending_poolGate */\n      0x03\n      0x00\n      swap1\n      sload\n      swap1\n      0x0100\n      exp\n      swap1\n      div\n      0xffffffffffffffffffffffffffffffffffffffff\n      and\n        /* \"contracts/Swip3Customer.sol\":3251:3275  lending_poolGate.payDapp */\n      0xffffffffffffffffffffffffffffffffffffffff\n      and\n      0xbc134ae3\n        /* \"contracts/Swip3Customer.sol\":3276:3290  lending_poolID */\n      sload(0x04)\n        /* \"contracts/Swip3Customer.sol\":3292:3308  reciever_address */\n      dup7\n        /* \"contracts/Swip3Customer.sol\":3310:3316  amount */\n      dup7\n        /* \"contracts/Swip3Customer.sol\":3251:3317  lending_poolGate.payDapp(lending_poolID, reciever_address, amount) */\n      mload(0x40)\n      dup5\n      0xffffffff\n      and\n      0xe0\n      shl\n      dup2\n      mstore\n      0x04\n      add\n      tag_139\n      swap4\n      swap3\n      swap2\n      swap1\n      tag_140\n      jump\t// in\n    tag_139:\n      0x20\n      mload(0x40)\n      dup1\n      dup4\n      sub\n      dup2\n      0x00\n      dup8\n      dup1\n      extcodesize\n      iszero\n      dup1\n      iszero\n      tag_141\n      jumpi\n      0x00\n      dup1\n      revert\n    tag_141:\n      pop\n      gas\n      call\n      iszero\n      dup1\n      iszero\n      tag_143\n      jumpi\n      returndatasize\n      0x00\n      dup1\n      returndatacopy\n      revert(0x00, returndatasize)\n    tag_143:\n      pop\n      pop\n      pop\n      pop\n      mload(0x40)\n      returndatasize\n      not(0x1f)\n      0x1f\n      dup3\n      add\n      and\n      dup3\n      add\n      dup1\n      0x40\n      mstore\n      pop\n      dup2\n      add\n      swap1\n      tag_144\n      swap2\n      swap1\n      tag_145\n      jump\t// in\n    tag_144:\n        /* \"contracts/Swip3Customer.sol\":3238:3317  bool payed = lending_poolGate.payDapp(lending_poolID, reciever_address, amount) */\n      swap1\n      pop\n        /* \"contracts/Swip3Customer.sol\":3331:3336  payed */\n      dup1\n        /* \"contracts/Swip3Customer.sol\":3327:3391  if (payed){... */\n      iszero\n      tag_146\n      jumpi\n        /* \"contracts/Swip3Customer.sol\":3361:3380  balance.add(amount) */\n      tag_147\n        /* \"contracts/Swip3Customer.sol\":3373:3379  amount */\n      dup4\n        /* \"contracts/Swip3Customer.sol\":3361:3368  balance */\n      sload(0x07)\n        /* \"contracts/Swip3Customer.sol\":3361:3372  balance.add */\n      tag_148\n      swap1\n        /* \"contracts/Swip3Customer.sol\":3361:3380  balance.add(amount) */\n      swap2\n      swap1\n      0xffffffff\n      and\n      jump\t// in\n    tag_147:\n        /* \"contracts/Swip3Customer.sol\":3351:3358  balance */\n      0x07\n        /* \"contracts/Swip3Customer.sol\":3351:3380  balance = balance.add(amount) */\n      dup2\n      swap1\n      sstore\n      pop\n        /* \"contracts/Swip3Customer.sol\":3327:3391  if (payed){... */\n    tag_146:\n        /* \"contracts/Swip3Customer.sol\":3407:3412  payed */\n      dup1\n        /* \"contracts/Swip3Customer.sol\":3400:3412  return payed */\n      swap2\n      pop\n      pop\n        /* \"contracts/Swip3Customer.sol\":2709:3419  function requestPayment(address reciever_address, uint256 amount) ... */\n      swap3\n      swap2\n      pop\n      pop\n      jump\t// out\n        /* \"contracts/Swip3Customer.sol\":3707:3903  function withdrawOverPayed() ... */\n    tag_41:\n        /* \"contracts/Swip3Customer.sol\":1271:1275  user */\n      0x00\n      dup1\n      sload\n      swap1\n      0x0100\n      exp\n      swap1\n      div\n      0xffffffffffffffffffffffffffffffffffffffff\n      and\n        /* \"contracts/Swip3Customer.sol\":1257:1275  msg.sender == user */\n      0xffffffffffffffffffffffffffffffffffffffff\n      and\n        /* \"contracts/Swip3Customer.sol\":1257:1267  msg.sender */\n      caller\n        /* \"contracts/Swip3Customer.sol\":1257:1275  msg.sender == user */\n      0xffffffffffffffffffffffffffffffffffffffff\n      and\n      eq\n        /* \"contracts/Swip3Customer.sol\":1249:1312  require(msg.sender == user, \"Only user can access this method\") */\n      tag_150\n      jumpi\n      mload(0x40)\n      0x08c379a000000000000000000000000000000000000000000000000000000000\n      dup2\n      mstore\n      0x04\n      add\n      tag_151\n      swap1\n      tag_152\n      jump\t// in\n    tag_151:\n      mload(0x40)\n      dup1\n      swap2\n      sub\n      swap1\n      revert\n    tag_150:\n        /* \"contracts/Swip3Customer.sol\":1514:1526  State.ACTIVE */\n      0x02\n        /* \"contracts/Swip3Customer.sol\":1505:1526  state == State.ACTIVE */\n      0x03\n      dup2\n      gt\n      iszero\n      tag_154\n      jumpi\n      tag_155\n      tag_67\n      jump\t// in\n    tag_155:\n    tag_154:\n        /* \"contracts/Swip3Customer.sol\":1505:1510  state */\n      0x05\n      0x00\n      swap1\n      sload\n      swap1\n      0x0100\n      exp\n      swap1\n      div\n      0xff\n      and\n        /* \"contracts/Swip3Customer.sol\":1505:1526  state == State.ACTIVE */\n      0x03\n      dup2\n      gt\n      iszero\n      tag_156\n      jumpi\n      tag_157\n      tag_67\n      jump\t// in\n    tag_157:\n    tag_156:\n      eq\n        /* \"contracts/Swip3Customer.sol\":1497:1558  require(state == State.ACTIVE, \"Contract state isn't active\") */\n      tag_158\n      jumpi\n      mload(0x40)\n      0x08c379a000000000000000000000000000000000000000000000000000000000\n      dup2\n      mstore\n      0x04\n      add\n      tag_159\n      swap1\n      tag_81\n      jump\t// in\n    tag_159:\n      mload(0x40)\n      dup1\n      swap2\n      sub\n      swap1\n      revert\n    tag_158:\n        /* \"contracts/Swip3Customer.sol\":3802:3814  uint256 owed */\n      0x00\n        /* \"contracts/Swip3Customer.sol\":3817:3827  over_payed */\n      sload(0x0b)\n        /* \"contracts/Swip3Customer.sol\":3802:3827  uint256 owed = over_payed */\n      swap1\n      pop\n        /* \"contracts/Swip3Customer.sol\":3850:3851  0 */\n      0x00\n        /* \"contracts/Swip3Customer.sol\":3837:3847  over_payed */\n      0x0b\n        /* \"contracts/Swip3Customer.sol\":3837:3851  over_payed = 0 */\n      dup2\n      swap1\n      sstore\n      pop\n        /* \"contracts/Swip3Customer.sol\":3869:3879  msg.sender */\n      caller\n        /* \"contracts/Swip3Customer.sol\":3861:3889  payable(msg.sender).transfer */\n      0xffffffffffffffffffffffffffffffffffffffff\n      and\n        /* \"contracts/Swip3Customer.sol\":3861:3895  payable(msg.sender).transfer(owed) */\n      0x08fc\n        /* \"contracts/Swip3Customer.sol\":3890:3894  owed */\n      dup3\n        /* \"contracts/Swip3Customer.sol\":3861:3895  payable(msg.sender).transfer(owed) */\n      swap1\n      dup2\n      iszero\n      mul\n      swap1\n      mload(0x40)\n      0x00\n      mload(0x40)\n      dup1\n      dup4\n      sub\n      dup2\n      dup6\n      dup9\n      dup9\n      call\n      swap4\n      pop\n      pop\n      pop\n      pop\n      iszero\n      dup1\n      iszero\n      tag_162\n      jumpi\n      returndatasize\n      0x00\n      dup1\n      returndatacopy\n      revert(0x00, returndatasize)\n    tag_162:\n      pop\n        /* \"contracts/Swip3Customer.sol\":3792:3903  {... */\n      pop\n        /* \"contracts/Swip3Customer.sol\":3707:3903  function withdrawOverPayed() ... */\n      jump\t// out\n        /* \"contracts/Swip3Customer.sol\":3425:3701  function acceptPayment()... */\n    tag_43:\n        /* \"contracts/Swip3Customer.sol\":1271:1275  user */\n      0x00\n      dup1\n      sload\n      swap1\n      0x0100\n      exp\n      swap1\n      div\n      0xffffffffffffffffffffffffffffffffffffffff\n      and\n        /* \"contracts/Swip3Customer.sol\":1257:1275  msg.sender == user */\n      0xffffffffffffffffffffffffffffffffffffffff\n      and\n        /* \"contracts/Swip3Customer.sol\":1257:1267  msg.sender */\n      caller\n        /* \"contracts/Swip3Customer.sol\":1257:1275  msg.sender == user */\n      0xffffffffffffffffffffffffffffffffffffffff\n      and\n      eq\n        /* \"contracts/Swip3Customer.sol\":1249:1312  require(msg.sender == user, \"Only user can access this method\") */\n      tag_164\n      jumpi\n      mload(0x40)\n      0x08c379a000000000000000000000000000000000000000000000000000000000\n      dup2\n      mstore\n      0x04\n      add\n      tag_165\n      swap1\n      tag_152\n      jump\t// in\n    tag_165:\n      mload(0x40)\n      dup1\n      swap2\n      sub\n      swap1\n      revert\n    tag_164:\n        /* \"contracts/Swip3Customer.sol\":1514:1526  State.ACTIVE */\n      0x02\n        /* \"contracts/Swip3Customer.sol\":1505:1526  state == State.ACTIVE */\n      0x03\n      dup2\n      gt\n      iszero\n      tag_167\n      jumpi\n      tag_168\n      tag_67\n      jump\t// in\n    tag_168:\n    tag_167:\n        /* \"contracts/Swip3Customer.sol\":1505:1510  state */\n      0x05\n      0x00\n      swap1\n      sload\n      swap1\n      0x0100\n      exp\n      swap1\n      div\n      0xff\n      and\n        /* \"contracts/Swip3Customer.sol\":1505:1526  state == State.ACTIVE */\n      0x03\n      dup2\n      gt\n      iszero\n      tag_169\n      jumpi\n      tag_170\n      tag_67\n      jump\t// in\n    tag_170:\n    tag_169:\n      eq\n        /* \"contracts/Swip3Customer.sol\":1497:1558  require(state == State.ACTIVE, \"Contract state isn't active\") */\n      tag_171\n      jumpi\n      mload(0x40)\n      0x08c379a000000000000000000000000000000000000000000000000000000000\n      dup2\n      mstore\n      0x04\n      add\n      tag_172\n      swap1\n      tag_81\n      jump\t// in\n    tag_172:\n      mload(0x40)\n      dup1\n      swap2\n      sub\n      swap1\n      revert\n    tag_171:\n        /* \"contracts/Swip3Customer.sol\":3531:3538  balance */\n      sload(0x07)\n        /* \"contracts/Swip3Customer.sol\":3519:3528  msg.value */\n      callvalue\n        /* \"contracts/Swip3Customer.sol\":3519:3538  msg.value > balance */\n      gt\n        /* \"contracts/Swip3Customer.sol\":3515:3694  if (msg.value > balance){... */\n      iszero\n      tag_174\n      jumpi\n        /* \"contracts/Swip3Customer.sol\":3566:3588  msg.value.sub(balance) */\n      tag_175\n        /* \"contracts/Swip3Customer.sol\":3580:3587  balance */\n      sload(0x07)\n        /* \"contracts/Swip3Customer.sol\":3566:3575  msg.value */\n      callvalue\n        /* \"contracts/Swip3Customer.sol\":3566:3579  msg.value.sub */\n      tag_58\n      swap1\n        /* \"contracts/Swip3Customer.sol\":3566:3588  msg.value.sub(balance) */\n      swap2\n      swap1\n      0xffffffff\n      and\n      jump\t// in\n    tag_175:\n        /* \"contracts/Swip3Customer.sol\":3553:3563  over_payed */\n      0x0b\n        /* \"contracts/Swip3Customer.sol\":3553:3588  over_payed = msg.value.sub(balance) */\n      dup2\n      swap1\n      sstore\n      pop\n        /* \"contracts/Swip3Customer.sol\":3612:3613  0 */\n      0x00\n        /* \"contracts/Swip3Customer.sol\":3602:3609  balance */\n      0x07\n        /* \"contracts/Swip3Customer.sol\":3602:3613  balance = 0 */\n      dup2\n      swap1\n      sstore\n      pop\n        /* \"contracts/Swip3Customer.sol\":3515:3694  if (msg.value > balance){... */\n      jump(tag_176)\n    tag_174:\n        /* \"contracts/Swip3Customer.sol\":3661:3683  balance.sub(msg.value) */\n      tag_177\n        /* \"contracts/Swip3Customer.sol\":3673:3682  msg.value */\n      callvalue\n        /* \"contracts/Swip3Customer.sol\":3661:3668  balance */\n      sload(0x07)\n        /* \"contracts/Swip3Customer.sol\":3661:3672  balance.sub */\n      tag_58\n      swap1\n        /* \"contracts/Swip3Customer.sol\":3661:3683  balance.sub(msg.value) */\n      swap2\n      swap1\n      0xffffffff\n      and\n      jump\t// in\n    tag_177:\n        /* \"contracts/Swip3Customer.sol\":3651:3658  balance */\n      0x07\n        /* \"contracts/Swip3Customer.sol\":3651:3683  balance = balance.sub(msg.value) */\n      dup2\n      swap1\n      sstore\n      pop\n        /* \"contracts/Swip3Customer.sol\":3515:3694  if (msg.value > balance){... */\n    tag_176:\n        /* \"contracts/Swip3Customer.sol\":3425:3701  function acceptPayment()... */\n      jump\t// out\n        /* \"contracts/Swip3Customer.sol\":723:741  State public state */\n    tag_46:\n      0x05\n      0x00\n      swap1\n      sload\n      swap1\n      0x0100\n      exp\n      swap1\n      div\n      0xff\n      and\n      dup2\n      jump\t// out\n        /* \"contracts/Swip3Customer.sol\":2399:2697  function activate(address _lending_poolGate, uint256 _lending_poolID) ... */\n    tag_52:\n        /* \"contracts/Swip3Customer.sol\":1388:1403  parent_contract */\n      0x01\n      0x00\n      swap1\n      sload\n      swap1\n      0x0100\n      exp\n      swap1\n      div\n      0xffffffffffffffffffffffffffffffffffffffff\n      and\n        /* \"contracts/Swip3Customer.sol\":1374:1403  msg.sender == parent_contract */\n      0xffffffffffffffffffffffffffffffffffffffff\n      and\n        /* \"contracts/Swip3Customer.sol\":1374:1384  msg.sender */\n      caller\n        /* \"contracts/Swip3Customer.sol\":1374:1403  msg.sender == parent_contract */\n      0xffffffffffffffffffffffffffffffffffffffff\n      and\n      eq\n        /* \"contracts/Swip3Customer.sol\":1366:1442  require(msg.sender == parent_contract, \"Only parent can access this method\") */\n      tag_179\n      jumpi\n      mload(0x40)\n      0x08c379a000000000000000000000000000000000000000000000000000000000\n      dup2\n      mstore\n      0x04\n      add\n      tag_180\n      swap1\n      tag_181\n      jump\t// in\n    tag_180:\n      mload(0x40)\n      dup1\n      swap2\n      sub\n      swap1\n      revert\n    tag_179:\n        /* \"contracts/Swip3Customer.sol\":2554:2571  _lending_poolGate */\n      dup2\n        /* \"contracts/Swip3Customer.sol\":2519:2535  lending_poolGate */\n      0x03\n      0x00\n        /* \"contracts/Swip3Customer.sol\":2519:2572  lending_poolGate = LendingPoolGate(_lending_poolGate) */\n      0x0100\n      exp\n      dup2\n      sload\n      dup2\n      0xffffffffffffffffffffffffffffffffffffffff\n      mul\n      not\n      and\n      swap1\n      dup4\n      0xffffffffffffffffffffffffffffffffffffffff\n      and\n      mul\n      or\n      swap1\n      sstore\n      pop\n        /* \"contracts/Swip3Customer.sol\":2599:2614  _lending_poolID */\n      dup1\n        /* \"contracts/Swip3Customer.sol\":2582:2596  lending_poolID */\n      0x04\n        /* \"contracts/Swip3Customer.sol\":2582:2614  lending_poolID = _lending_poolID */\n      dup2\n      swap1\n      sstore\n      pop\n        /* \"contracts/Swip3Customer.sol\":2632:2644  State.ACTIVE */\n      0x02\n        /* \"contracts/Swip3Customer.sol\":2624:2629  state */\n      0x05\n      0x00\n        /* \"contracts/Swip3Customer.sol\":2624:2644  state = State.ACTIVE */\n      0x0100\n      exp\n      dup2\n      sload\n      dup2\n      0xff\n      mul\n      not\n      and\n      swap1\n      dup4\n      0x03\n      dup2\n      gt\n      iszero\n      tag_183\n      jumpi\n      tag_184\n      tag_67\n      jump\t// in\n    tag_184:\n    tag_183:\n      mul\n      or\n      swap1\n      sstore\n      pop\n        /* \"contracts/Swip3Customer.sol\":2659:2690  childBorn(\"I am now activated\") */\n      0x33aaa92ade0fe3fafff12ea74532e26e083fa605080da1da64693a9d8af268a3\n      mload(0x40)\n      tag_185\n      swap1\n      tag_186\n      jump\t// in\n    tag_185:\n      mload(0x40)\n      dup1\n      swap2\n      sub\n      swap1\n      log1\n        /* \"contracts/Swip3Customer.sol\":2399:2697  function activate(address _lending_poolGate, uint256 _lending_poolID) ... */\n      pop\n      pop\n      jump\t// out\n        /* \"contracts/Swip3Customer.sol\":4852:4978  function updateExpiration() ... */\n    tag_55:\n        /* \"contracts/Swip3Customer.sol\":1643:1647  user */\n      0x00\n      dup1\n      sload\n      swap1\n      0x0100\n      exp\n      swap1\n      div\n      0xffffffffffffffffffffffffffffffffffffffff\n      and\n        /* \"contracts/Swip3Customer.sol\":1629:1647  msg.sender == user */\n      0xffffffffffffffffffffffffffffffffffffffff\n      and\n        /* \"contracts/Swip3Customer.sol\":1629:1639  msg.sender */\n      caller\n        /* \"contracts/Swip3Customer.sol\":1629:1647  msg.sender == user */\n      0xffffffffffffffffffffffffffffffffffffffff\n      and\n      eq\n        /* \"contracts/Swip3Customer.sol\":1629:1680  msg.sender == user || msg.sender == parent_contract */\n      dup1\n      tag_188\n      jumpi\n      pop\n        /* \"contracts/Swip3Customer.sol\":1665:1680  parent_contract */\n      0x01\n      0x00\n      swap1\n      sload\n      swap1\n      0x0100\n      exp\n      swap1\n      div\n      0xffffffffffffffffffffffffffffffffffffffff\n      and\n        /* \"contracts/Swip3Customer.sol\":1651:1680  msg.sender == parent_contract */\n      0xffffffffffffffffffffffffffffffffffffffff\n      and\n        /* \"contracts/Swip3Customer.sol\":1651:1661  msg.sender */\n      caller\n        /* \"contracts/Swip3Customer.sol\":1651:1680  msg.sender == parent_contract */\n      0xffffffffffffffffffffffffffffffffffffffff\n      and\n      eq\n        /* \"contracts/Swip3Customer.sol\":1629:1680  msg.sender == user || msg.sender == parent_contract */\n    tag_188:\n        /* \"contracts/Swip3Customer.sol\":1621:1702  require(msg.sender == user || msg.sender == parent_contract, \"Unauthorized user\") */\n      tag_189\n      jumpi\n      mload(0x40)\n      0x08c379a000000000000000000000000000000000000000000000000000000000\n      dup2\n      mstore\n      0x04\n      add\n      tag_190\n      swap1\n      tag_63\n      jump\t// in\n    tag_190:\n      mload(0x40)\n      dup1\n      swap2\n      sub\n      swap1\n      revert\n    tag_189:\n        /* \"contracts/Swip3Customer.sol\":1770:1783  State.EXPIRED */\n      0x01\n        /* \"contracts/Swip3Customer.sol\":1761:1783  state == State.EXPIRED */\n      0x03\n      dup2\n      gt\n      iszero\n      tag_192\n      jumpi\n      tag_193\n      tag_67\n      jump\t// in\n    tag_193:\n    tag_192:\n        /* \"contracts/Swip3Customer.sol\":1761:1766  state */\n      0x05\n      0x00\n      swap1\n      sload\n      swap1\n      0x0100\n      exp\n      swap1\n      div\n      0xff\n      and\n        /* \"contracts/Swip3Customer.sol\":1761:1783  state == State.EXPIRED */\n      0x03\n      dup2\n      gt\n      iszero\n      tag_194\n      jumpi\n      tag_195\n      tag_67\n      jump\t// in\n    tag_195:\n    tag_194:\n      eq\n        /* \"contracts/Swip3Customer.sol\":1761:1820  state == State.EXPIRED || block.timestamp > expiration_date */\n      dup1\n      tag_196\n      jumpi\n      pop\n        /* \"contracts/Swip3Customer.sol\":1805:1820  expiration_date */\n      sload(0x02)\n        /* \"contracts/Swip3Customer.sol\":1787:1802  block.timestamp */\n      timestamp\n        /* \"contracts/Swip3Customer.sol\":1787:1820  block.timestamp > expiration_date */\n      gt\n        /* \"contracts/Swip3Customer.sol\":1761:1820  state == State.EXPIRED || block.timestamp > expiration_date */\n    tag_196:\n        /* \"contracts/Swip3Customer.sol\":1758:1897  if(state == State.EXPIRED || block.timestamp > expiration_date){... */\n      iszero\n      tag_197\n      jumpi\n        /* \"contracts/Swip3Customer.sol\":1843:1856  State.EXPIRED */\n      0x01\n        /* \"contracts/Swip3Customer.sol\":1835:1840  state */\n      0x05\n      0x00\n        /* \"contracts/Swip3Customer.sol\":1835:1856  state = State.EXPIRED */\n      0x0100\n      exp\n      dup2\n      sload\n      dup2\n      0xff\n      mul\n      not\n      and\n      swap1\n      dup4\n      0x03\n      dup2\n      gt\n      iszero\n      tag_198\n      jumpi\n      tag_199\n      tag_67\n      jump\t// in\n    tag_199:\n    tag_198:\n      mul\n      or\n      swap1\n      sstore\n      pop\n        /* \"contracts/Swip3Customer.sol\":1877:1886  Expired() */\n      mload(0x40)\n      0x203d82d800000000000000000000000000000000000000000000000000000000\n      dup2\n      mstore\n      0x04\n      add\n      mload(0x40)\n      dup1\n      swap2\n      sub\n      swap1\n      revert\n        /* \"contracts/Swip3Customer.sol\":1758:1897  if(state == State.EXPIRED || block.timestamp > expiration_date){... */\n    tag_197:\n        /* \"contracts/Swip3Customer.sol\":1514:1526  State.ACTIVE */\n      0x02\n        /* \"contracts/Swip3Customer.sol\":1505:1526  state == State.ACTIVE */\n      0x03\n      dup2\n      gt\n      iszero\n      tag_201\n      jumpi\n      tag_202\n      tag_67\n      jump\t// in\n    tag_202:\n    tag_201:\n        /* \"contracts/Swip3Customer.sol\":1505:1510  state */\n      0x05\n      0x00\n      swap1\n      sload\n      swap1\n      0x0100\n      exp\n      swap1\n      div\n      0xff\n      and\n        /* \"contracts/Swip3Customer.sol\":1505:1526  state == State.ACTIVE */\n      0x03\n      dup2\n      gt\n      iszero\n      tag_203\n      jumpi\n      tag_204\n      tag_67\n      jump\t// in\n    tag_204:\n    tag_203:\n      eq\n        /* \"contracts/Swip3Customer.sol\":1497:1558  require(state == State.ACTIVE, \"Contract state isn't active\") */\n      tag_205\n      jumpi\n      mload(0x40)\n      0x08c379a000000000000000000000000000000000000000000000000000000000\n      dup2\n      mstore\n      0x04\n      add\n      tag_206\n      swap1\n      tag_81\n      jump\t// in\n    tag_206:\n      mload(0x40)\n      dup1\n      swap2\n      sub\n      swap1\n      revert\n    tag_205:\n        /* \"contracts/Swip3Customer.sol\":4852:4978  function updateExpiration() ... */\n      jump\t// out\n        /* \"contracts/SafeMath.sol\":226:364  function sub(uint256 a, uint256 b) internal pure returns (uint256 c) {... */\n    tag_58:\n        /* \"contracts/SafeMath.sol\":284:293  uint256 c */\n      0x00\n        /* \"contracts/SafeMath.sol\":318:319  a */\n      dup3\n        /* \"contracts/SafeMath.sol\":313:314  b */\n      dup3\n        /* \"contracts/SafeMath.sol\":313:319  b <= a */\n      gt\n      iszero\n        /* \"contracts/SafeMath.sol\":305:320  require(b <= a) */\n      tag_209\n      jumpi\n      0x00\n      dup1\n      revert\n    tag_209:\n        /* \"contracts/SafeMath.sol\":338:339  b */\n      dup2\n        /* \"contracts/SafeMath.sol\":334:335  a */\n      dup4\n        /* \"contracts/SafeMath.sol\":334:339  a - b */\n      tag_210\n      swap2\n      swap1\n      tag_211\n      jump\t// in\n    tag_210:\n        /* \"contracts/SafeMath.sol\":330:339  c = a - b */\n      swap1\n      pop\n        /* \"contracts/SafeMath.sol\":226:364  function sub(uint256 a, uint256 b) internal pure returns (uint256 c) {... */\n      swap3\n      swap2\n      pop\n      pop\n      jump\t// out\n        /* \"contracts/SafeMath.sol\":82:220  function add(uint256 a, uint256 b) internal pure returns (uint256 c) {... */\n    tag_148:\n        /* \"contracts/SafeMath.sol\":140:149  uint256 c */\n      0x00\n        /* \"contracts/SafeMath.sol\":169:170  b */\n      dup2\n        /* \"contracts/SafeMath.sol\":165:166  a */\n      dup4\n        /* \"contracts/SafeMath.sol\":165:170  a + b */\n      tag_213\n      swap2\n      swap1\n      tag_214\n      jump\t// in\n    tag_213:\n        /* \"contracts/SafeMath.sol\":161:170  c = a + b */\n      swap1\n      pop\n        /* \"contracts/SafeMath.sol\":193:194  a */\n      dup3\n        /* \"contracts/SafeMath.sol\":188:189  c */\n      dup2\n        /* \"contracts/SafeMath.sol\":188:194  c >= a */\n      lt\n      iszero\n        /* \"contracts/SafeMath.sol\":180:195  require(c >= a) */\n      tag_215\n      jumpi\n      0x00\n      dup1\n      revert\n    tag_215:\n        /* \"contracts/SafeMath.sol\":82:220  function add(uint256 a, uint256 b) internal pure returns (uint256 c) {... */\n      swap3\n      swap2\n      pop\n      pop\n      jump\t// out\n        /* \"#utility.yul\":7:146   */\n    tag_217:\n        /* \"#utility.yul\":53:58   */\n      0x00\n        /* \"#utility.yul\":91:97   */\n      dup2\n        /* \"#utility.yul\":78:98   */\n      calldataload\n        /* \"#utility.yul\":69:98   */\n      swap1\n      pop\n        /* \"#utility.yul\":107:140   */\n      tag_219\n        /* \"#utility.yul\":134:139   */\n      dup2\n        /* \"#utility.yul\":107:140   */\n      tag_220\n      jump\t// in\n    tag_219:\n        /* \"#utility.yul\":7:146   */\n      swap3\n      swap2\n      pop\n      pop\n      jump\t// out\n        /* \"#utility.yul\":152:289   */\n    tag_221:\n        /* \"#utility.yul\":206:211   */\n      0x00\n        /* \"#utility.yul\":237:243   */\n      dup2\n        /* \"#utility.yul\":231:244   */\n      mload\n        /* \"#utility.yul\":222:244   */\n      swap1\n      pop\n        /* \"#utility.yul\":253:283   */\n      tag_223\n        /* \"#utility.yul\":277:282   */\n      dup2\n        /* \"#utility.yul\":253:283   */\n      tag_224\n      jump\t// in\n    tag_223:\n        /* \"#utility.yul\":152:289   */\n      swap3\n      swap2\n      pop\n      pop\n      jump\t// out\n        /* \"#utility.yul\":295:434   */\n    tag_225:\n        /* \"#utility.yul\":341:346   */\n      0x00\n        /* \"#utility.yul\":379:385   */\n      dup2\n        /* \"#utility.yul\":366:386   */\n      calldataload\n        /* \"#utility.yul\":357:386   */\n      swap1\n      pop\n        /* \"#utility.yul\":395:428   */\n      tag_227\n        /* \"#utility.yul\":422:427   */\n      dup2\n        /* \"#utility.yul\":395:428   */\n      tag_228\n      jump\t// in\n    tag_227:\n        /* \"#utility.yul\":295:434   */\n      swap3\n      swap2\n      pop\n      pop\n      jump\t// out\n        /* \"#utility.yul\":440:914   */\n    tag_35:\n        /* \"#utility.yul\":508:514   */\n      0x00\n        /* \"#utility.yul\":516:522   */\n      dup1\n        /* \"#utility.yul\":565:567   */\n      0x40\n        /* \"#utility.yul\":553:562   */\n      dup4\n        /* \"#utility.yul\":544:551   */\n      dup6\n        /* \"#utility.yul\":540:563   */\n      sub\n        /* \"#utility.yul\":536:568   */\n      slt\n        /* \"#utility.yul\":533:652   */\n      iszero\n      tag_230\n      jumpi\n        /* \"#utility.yul\":571:650   */\n      tag_231\n      tag_232\n      jump\t// in\n    tag_231:\n        /* \"#utility.yul\":533:652   */\n    tag_230:\n        /* \"#utility.yul\":691:692   */\n      0x00\n        /* \"#utility.yul\":716:769   */\n      tag_233\n        /* \"#utility.yul\":761:768   */\n      dup6\n        /* \"#utility.yul\":752:758   */\n      dup3\n        /* \"#utility.yul\":741:750   */\n      dup7\n        /* \"#utility.yul\":737:759   */\n      add\n        /* \"#utility.yul\":716:769   */\n      tag_217\n      jump\t// in\n    tag_233:\n        /* \"#utility.yul\":706:769   */\n      swap3\n      pop\n        /* \"#utility.yul\":662:779   */\n      pop\n        /* \"#utility.yul\":818:820   */\n      0x20\n        /* \"#utility.yul\":844:897   */\n      tag_234\n        /* \"#utility.yul\":889:896   */\n      dup6\n        /* \"#utility.yul\":880:886   */\n      dup3\n        /* \"#utility.yul\":869:878   */\n      dup7\n        /* \"#utility.yul\":865:887   */\n      add\n        /* \"#utility.yul\":844:897   */\n      tag_225\n      jump\t// in\n    tag_234:\n        /* \"#utility.yul\":834:897   */\n      swap2\n      pop\n        /* \"#utility.yul\":789:907   */\n      pop\n        /* \"#utility.yul\":440:914   */\n      swap3\n      pop\n      swap3\n      swap1\n      pop\n      jump\t// out\n        /* \"#utility.yul\":920:1265   */\n    tag_145:\n        /* \"#utility.yul\":987:993   */\n      0x00\n        /* \"#utility.yul\":1036:1038   */\n      0x20\n        /* \"#utility.yul\":1024:1033   */\n      dup3\n        /* \"#utility.yul\":1015:1022   */\n      dup5\n        /* \"#utility.yul\":1011:1034   */\n      sub\n        /* \"#utility.yul\":1007:1039   */\n      slt\n        /* \"#utility.yul\":1004:1123   */\n      iszero\n      tag_236\n      jumpi\n        /* \"#utility.yul\":1042:1121   */\n      tag_237\n      tag_232\n      jump\t// in\n    tag_237:\n        /* \"#utility.yul\":1004:1123   */\n    tag_236:\n        /* \"#utility.yul\":1162:1163   */\n      0x00\n        /* \"#utility.yul\":1187:1248   */\n      tag_238\n        /* \"#utility.yul\":1240:1247   */\n      dup5\n        /* \"#utility.yul\":1231:1237   */\n      dup3\n        /* \"#utility.yul\":1220:1229   */\n      dup6\n        /* \"#utility.yul\":1216:1238   */\n      add\n        /* \"#utility.yul\":1187:1248   */\n      tag_221\n      jump\t// in\n    tag_238:\n        /* \"#utility.yul\":1177:1248   */\n      swap2\n      pop\n        /* \"#utility.yul\":1133:1258   */\n      pop\n        /* \"#utility.yul\":920:1265   */\n      swap3\n      swap2\n      pop\n      pop\n      jump\t// out\n        /* \"#utility.yul\":1271:1389   */\n    tag_239:\n        /* \"#utility.yul\":1358:1382   */\n      tag_241\n        /* \"#utility.yul\":1376:1381   */\n      dup2\n        /* \"#utility.yul\":1358:1382   */\n      tag_242\n      jump\t// in\n    tag_241:\n        /* \"#utility.yul\":1353:1356   */\n      dup3\n        /* \"#utility.yul\":1346:1383   */\n      mstore\n        /* \"#utility.yul\":1271:1389   */\n      pop\n      pop\n      jump\t// out\n        /* \"#utility.yul\":1395:1504   */\n    tag_243:\n        /* \"#utility.yul\":1476:1497   */\n      tag_245\n        /* \"#utility.yul\":1491:1496   */\n      dup2\n        /* \"#utility.yul\":1476:1497   */\n      tag_246\n      jump\t// in\n    tag_245:\n        /* \"#utility.yul\":1471:1474   */\n      dup3\n        /* \"#utility.yul\":1464:1498   */\n      mstore\n        /* \"#utility.yul\":1395:1504   */\n      pop\n      pop\n      jump\t// out\n        /* \"#utility.yul\":1510:1655   */\n    tag_247:\n        /* \"#utility.yul\":1604:1648   */\n      tag_249\n        /* \"#utility.yul\":1642:1647   */\n      dup2\n        /* \"#utility.yul\":1604:1648   */\n      tag_250\n      jump\t// in\n    tag_249:\n        /* \"#utility.yul\":1599:1602   */\n      dup3\n        /* \"#utility.yul\":1592:1649   */\n      mstore\n        /* \"#utility.yul\":1510:1655   */\n      pop\n      pop\n      jump\t// out\n        /* \"#utility.yul\":1661:2027   */\n    tag_251:\n        /* \"#utility.yul\":1803:1806   */\n      0x00\n        /* \"#utility.yul\":1824:1891   */\n      tag_253\n        /* \"#utility.yul\":1888:1890   */\n      0x1b\n        /* \"#utility.yul\":1883:1886   */\n      dup4\n        /* \"#utility.yul\":1824:1891   */\n      tag_254\n      jump\t// in\n    tag_253:\n        /* \"#utility.yul\":1817:1891   */\n      swap2\n      pop\n        /* \"#utility.yul\":1900:1993   */\n      tag_255\n        /* \"#utility.yul\":1989:1992   */\n      dup3\n        /* \"#utility.yul\":1900:1993   */\n      tag_256\n      jump\t// in\n    tag_255:\n        /* \"#utility.yul\":2018:2020   */\n      0x20\n        /* \"#utility.yul\":2013:2016   */\n      dup3\n        /* \"#utility.yul\":2009:2021   */\n      add\n        /* \"#utility.yul\":2002:2021   */\n      swap1\n      pop\n        /* \"#utility.yul\":1661:2027   */\n      swap2\n      swap1\n      pop\n      jump\t// out\n        /* \"#utility.yul\":2033:2399   */\n    tag_257:\n        /* \"#utility.yul\":2175:2178   */\n      0x00\n        /* \"#utility.yul\":2196:2263   */\n      tag_259\n        /* \"#utility.yul\":2260:2262   */\n      0x11\n        /* \"#utility.yul\":2255:2258   */\n      dup4\n        /* \"#utility.yul\":2196:2263   */\n      tag_254\n      jump\t// in\n    tag_259:\n        /* \"#utility.yul\":2189:2263   */\n      swap2\n      pop\n        /* \"#utility.yul\":2272:2365   */\n      tag_260\n        /* \"#utility.yul\":2361:2364   */\n      dup3\n        /* \"#utility.yul\":2272:2365   */\n      tag_261\n      jump\t// in\n    tag_260:\n        /* \"#utility.yul\":2390:2392   */\n      0x20\n        /* \"#utility.yul\":2385:2388   */\n      dup3\n        /* \"#utility.yul\":2381:2393   */\n      add\n        /* \"#utility.yul\":2374:2393   */\n      swap1\n      pop\n        /* \"#utility.yul\":2033:2399   */\n      swap2\n      swap1\n      pop\n      jump\t// out\n        /* \"#utility.yul\":2405:2771   */\n    tag_262:\n        /* \"#utility.yul\":2547:2550   */\n      0x00\n        /* \"#utility.yul\":2568:2635   */\n      tag_264\n        /* \"#utility.yul\":2632:2634   */\n      0x22\n        /* \"#utility.yul\":2627:2630   */\n      dup4\n        /* \"#utility.yul\":2568:2635   */\n      tag_254\n      jump\t// in\n    tag_264:\n        /* \"#utility.yul\":2561:2635   */\n      swap2\n      pop\n        /* \"#utility.yul\":2644:2737   */\n      tag_265\n        /* \"#utility.yul\":2733:2736   */\n      dup3\n        /* \"#utility.yul\":2644:2737   */\n      tag_266\n      jump\t// in\n    tag_265:\n        /* \"#utility.yul\":2762:2764   */\n      0x40\n        /* \"#utility.yul\":2757:2760   */\n      dup3\n        /* \"#utility.yul\":2753:2765   */\n      add\n        /* \"#utility.yul\":2746:2765   */\n      swap1\n      pop\n        /* \"#utility.yul\":2405:2771   */\n      swap2\n      swap1\n      pop\n      jump\t// out\n        /* \"#utility.yul\":2777:3143   */\n    tag_267:\n        /* \"#utility.yul\":2919:2922   */\n      0x00\n        /* \"#utility.yul\":2940:3007   */\n      tag_269\n        /* \"#utility.yul\":3004:3006   */\n      0x2b\n        /* \"#utility.yul\":2999:3002   */\n      dup4\n        /* \"#utility.yul\":2940:3007   */\n      tag_254\n      jump\t// in\n    tag_269:\n        /* \"#utility.yul\":2933:3007   */\n      swap2\n      pop\n        /* \"#utility.yul\":3016:3109   */\n      tag_270\n        /* \"#utility.yul\":3105:3108   */\n      dup3\n        /* \"#utility.yul\":3016:3109   */\n      tag_271\n      jump\t// in\n    tag_270:\n        /* \"#utility.yul\":3134:3136   */\n      0x40\n        /* \"#utility.yul\":3129:3132   */\n      dup3\n        /* \"#utility.yul\":3125:3137   */\n      add\n        /* \"#utility.yul\":3118:3137   */\n      swap1\n      pop\n        /* \"#utility.yul\":2777:3143   */\n      swap2\n      swap1\n      pop\n      jump\t// out\n        /* \"#utility.yul\":3149:3515   */\n    tag_272:\n        /* \"#utility.yul\":3291:3294   */\n      0x00\n        /* \"#utility.yul\":3312:3379   */\n      tag_274\n        /* \"#utility.yul\":3376:3378   */\n      0x30\n        /* \"#utility.yul\":3371:3374   */\n      dup4\n        /* \"#utility.yul\":3312:3379   */\n      tag_254\n      jump\t// in\n    tag_274:\n        /* \"#utility.yul\":3305:3379   */\n      swap2\n      pop\n        /* \"#utility.yul\":3388:3481   */\n      tag_275\n        /* \"#utility.yul\":3477:3480   */\n      dup3\n        /* \"#utility.yul\":3388:3481   */\n      tag_276\n      jump\t// in\n    tag_275:\n        /* \"#utility.yul\":3506:3508   */\n      0x40\n        /* \"#utility.yul\":3501:3504   */\n      dup3\n        /* \"#utility.yul\":3497:3509   */\n      add\n        /* \"#utility.yul\":3490:3509   */\n      swap1\n      pop\n        /* \"#utility.yul\":3149:3515   */\n      swap2\n      swap1\n      pop\n      jump\t// out\n        /* \"#utility.yul\":3521:3887   */\n    tag_277:\n        /* \"#utility.yul\":3663:3666   */\n      0x00\n        /* \"#utility.yul\":3684:3751   */\n      tag_279\n        /* \"#utility.yul\":3748:3750   */\n      0x12\n        /* \"#utility.yul\":3743:3746   */\n      dup4\n        /* \"#utility.yul\":3684:3751   */\n      tag_254\n      jump\t// in\n    tag_279:\n        /* \"#utility.yul\":3677:3751   */\n      swap2\n      pop\n        /* \"#utility.yul\":3760:3853   */\n      tag_280\n        /* \"#utility.yul\":3849:3852   */\n      dup3\n        /* \"#utility.yul\":3760:3853   */\n      tag_281\n      jump\t// in\n    tag_280:\n        /* \"#utility.yul\":3878:3880   */\n      0x20\n        /* \"#utility.yul\":3873:3876   */\n      dup3\n        /* \"#utility.yul\":3869:3881   */\n      add\n        /* \"#utility.yul\":3862:3881   */\n      swap1\n      pop\n        /* \"#utility.yul\":3521:3887   */\n      swap2\n      swap1\n      pop\n      jump\t// out\n        /* \"#utility.yul\":3893:4259   */\n    tag_282:\n        /* \"#utility.yul\":4035:4038   */\n      0x00\n        /* \"#utility.yul\":4056:4123   */\n      tag_284\n        /* \"#utility.yul\":4120:4122   */\n      0x20\n        /* \"#utility.yul\":4115:4118   */\n      dup4\n        /* \"#utility.yul\":4056:4123   */\n      tag_254\n      jump\t// in\n    tag_284:\n        /* \"#utility.yul\":4049:4123   */\n      swap2\n      pop\n        /* \"#utility.yul\":4132:4225   */\n      tag_285\n        /* \"#utility.yul\":4221:4224   */\n      dup3\n        /* \"#utility.yul\":4132:4225   */\n      tag_286\n      jump\t// in\n    tag_285:\n        /* \"#utility.yul\":4250:4252   */\n      0x20\n        /* \"#utility.yul\":4245:4248   */\n      dup3\n        /* \"#utility.yul\":4241:4253   */\n      add\n        /* \"#utility.yul\":4234:4253   */\n      swap1\n      pop\n        /* \"#utility.yul\":3893:4259   */\n      swap2\n      swap1\n      pop\n      jump\t// out\n        /* \"#utility.yul\":4265:4631   */\n    tag_287:\n        /* \"#utility.yul\":4407:4410   */\n      0x00\n        /* \"#utility.yul\":4428:4495   */\n      tag_289\n        /* \"#utility.yul\":4492:4494   */\n      0x22\n        /* \"#utility.yul\":4487:4490   */\n      dup4\n        /* \"#utility.yul\":4428:4495   */\n      tag_254\n      jump\t// in\n    tag_289:\n        /* \"#utility.yul\":4421:4495   */\n      swap2\n      pop\n        /* \"#utility.yul\":4504:4597   */\n      tag_290\n        /* \"#utility.yul\":4593:4596   */\n      dup3\n        /* \"#utility.yul\":4504:4597   */\n      tag_291\n      jump\t// in\n    tag_290:\n        /* \"#utility.yul\":4622:4624   */\n      0x40\n        /* \"#utility.yul\":4617:4620   */\n      dup3\n        /* \"#utility.yul\":4613:4625   */\n      add\n        /* \"#utility.yul\":4606:4625   */\n      swap1\n      pop\n        /* \"#utility.yul\":4265:4631   */\n      swap2\n      swap1\n      pop\n      jump\t// out\n        /* \"#utility.yul\":4637:4755   */\n    tag_292:\n        /* \"#utility.yul\":4724:4748   */\n      tag_294\n        /* \"#utility.yul\":4742:4747   */\n      dup2\n        /* \"#utility.yul\":4724:4748   */\n      tag_295\n      jump\t// in\n    tag_294:\n        /* \"#utility.yul\":4719:4722   */\n      dup3\n        /* \"#utility.yul\":4712:4749   */\n      mstore\n        /* \"#utility.yul\":4637:4755   */\n      pop\n      pop\n      jump\t// out\n        /* \"#utility.yul\":4761:4971   */\n    tag_38:\n        /* \"#utility.yul\":4848:4852   */\n      0x00\n        /* \"#utility.yul\":4886:4888   */\n      0x20\n        /* \"#utility.yul\":4875:4884   */\n      dup3\n        /* \"#utility.yul\":4871:4889   */\n      add\n        /* \"#utility.yul\":4863:4889   */\n      swap1\n      pop\n        /* \"#utility.yul\":4899:4964   */\n      tag_297\n        /* \"#utility.yul\":4961:4962   */\n      0x00\n        /* \"#utility.yul\":4950:4959   */\n      dup4\n        /* \"#utility.yul\":4946:4963   */\n      add\n        /* \"#utility.yul\":4937:4943   */\n      dup5\n        /* \"#utility.yul\":4899:4964   */\n      tag_243\n      jump\t// in\n    tag_297:\n        /* \"#utility.yul\":4761:4971   */\n      swap3\n      swap2\n      pop\n      pop\n      jump\t// out\n        /* \"#utility.yul\":4977:5213   */\n    tag_48:\n        /* \"#utility.yul\":5077:5081   */\n      0x00\n        /* \"#utility.yul\":5115:5117   */\n      0x20\n        /* \"#utility.yul\":5104:5113   */\n      dup3\n        /* \"#utility.yul\":5100:5118   */\n      add\n        /* \"#utility.yul\":5092:5118   */\n      swap1\n      pop\n        /* \"#utility.yul\":5128:5206   */\n      tag_299\n        /* \"#utility.yul\":5203:5204   */\n      0x00\n        /* \"#utility.yul\":5192:5201   */\n      dup4\n        /* \"#utility.yul\":5188:5205   */\n      add\n        /* \"#utility.yul\":5179:5185   */\n      dup5\n        /* \"#utility.yul\":5128:5206   */\n      tag_247\n      jump\t// in\n    tag_299:\n        /* \"#utility.yul\":4977:5213   */\n      swap3\n      swap2\n      pop\n      pop\n      jump\t// out\n        /* \"#utility.yul\":5219:5638   */\n    tag_81:\n        /* \"#utility.yul\":5385:5389   */\n      0x00\n        /* \"#utility.yul\":5423:5425   */\n      0x20\n        /* \"#utility.yul\":5412:5421   */\n      dup3\n        /* \"#utility.yul\":5408:5426   */\n      add\n        /* \"#utility.yul\":5400:5426   */\n      swap1\n      pop\n        /* \"#utility.yul\":5472:5481   */\n      dup2\n        /* \"#utility.yul\":5466:5470   */\n      dup2\n        /* \"#utility.yul\":5462:5482   */\n      sub\n        /* \"#utility.yul\":5458:5459   */\n      0x00\n        /* \"#utility.yul\":5447:5456   */\n      dup4\n        /* \"#utility.yul\":5443:5460   */\n      add\n        /* \"#utility.yul\":5436:5483   */\n      mstore\n        /* \"#utility.yul\":5500:5631   */\n      tag_301\n        /* \"#utility.yul\":5626:5630   */\n      dup2\n        /* \"#utility.yul\":5500:5631   */\n      tag_251\n      jump\t// in\n    tag_301:\n        /* \"#utility.yul\":5492:5631   */\n      swap1\n      pop\n        /* \"#utility.yul\":5219:5638   */\n      swap2\n      swap1\n      pop\n      jump\t// out\n        /* \"#utility.yul\":5644:6063   */\n    tag_63:\n        /* \"#utility.yul\":5810:5814   */\n      0x00\n        /* \"#utility.yul\":5848:5850   */\n      0x20\n        /* \"#utility.yul\":5837:5846   */\n      dup3\n        /* \"#utility.yul\":5833:5851   */\n      add\n        /* \"#utility.yul\":5825:5851   */\n      swap1\n      pop\n        /* \"#utility.yul\":5897:5906   */\n      dup2\n        /* \"#utility.yul\":5891:5895   */\n      dup2\n        /* \"#utility.yul\":5887:5907   */\n      sub\n        /* \"#utility.yul\":5883:5884   */\n      0x00\n        /* \"#utility.yul\":5872:5881   */\n      dup4\n        /* \"#utility.yul\":5868:5885   */\n      add\n        /* \"#utility.yul\":5861:5908   */\n      mstore\n        /* \"#utility.yul\":5925:6056   */\n      tag_303\n        /* \"#utility.yul\":6051:6055   */\n      dup2\n        /* \"#utility.yul\":5925:6056   */\n      tag_257\n      jump\t// in\n    tag_303:\n        /* \"#utility.yul\":5917:6056   */\n      swap1\n      pop\n        /* \"#utility.yul\":5644:6063   */\n      swap2\n      swap1\n      pop\n      jump\t// out\n        /* \"#utility.yul\":6069:6488   */\n    tag_181:\n        /* \"#utility.yul\":6235:6239   */\n      0x00\n        /* \"#utility.yul\":6273:6275   */\n      0x20\n        /* \"#utility.yul\":6262:6271   */\n      dup3\n        /* \"#utility.yul\":6258:6276   */\n      add\n        /* \"#utility.yul\":6250:6276   */\n      swap1\n      pop\n        /* \"#utility.yul\":6322:6331   */\n      dup2\n        /* \"#utility.yul\":6316:6320   */\n      dup2\n        /* \"#utility.yul\":6312:6332   */\n      sub\n        /* \"#utility.yul\":6308:6309   */\n      0x00\n        /* \"#utility.yul\":6297:6306   */\n      dup4\n        /* \"#utility.yul\":6293:6310   */\n      add\n        /* \"#utility.yul\":6286:6333   */\n      mstore\n        /* \"#utility.yul\":6350:6481   */\n      tag_305\n        /* \"#utility.yul\":6476:6480   */\n      dup2\n        /* \"#utility.yul\":6350:6481   */\n      tag_262\n      jump\t// in\n    tag_305:\n        /* \"#utility.yul\":6342:6481   */\n      swap1\n      pop\n        /* \"#utility.yul\":6069:6488   */\n      swap2\n      swap1\n      pop\n      jump\t// out\n        /* \"#utility.yul\":6494:6913   */\n    tag_85:\n        /* \"#utility.yul\":6660:6664   */\n      0x00\n        /* \"#utility.yul\":6698:6700   */\n      0x20\n        /* \"#utility.yul\":6687:6696   */\n      dup3\n        /* \"#utility.yul\":6683:6701   */\n      add\n        /* \"#utility.yul\":6675:6701   */\n      swap1\n      pop\n        /* \"#utility.yul\":6747:6756   */\n      dup2\n        /* \"#utility.yul\":6741:6745   */\n      dup2\n        /* \"#utility.yul\":6737:6757   */\n      sub\n        /* \"#utility.yul\":6733:6734   */\n      0x00\n        /* \"#utility.yul\":6722:6731   */\n      dup4\n        /* \"#utility.yul\":6718:6735   */\n      add\n        /* \"#utility.yul\":6711:6758   */\n      mstore\n        /* \"#utility.yul\":6775:6906   */\n      tag_307\n        /* \"#utility.yul\":6901:6905   */\n      dup2\n        /* \"#utility.yul\":6775:6906   */\n      tag_267\n      jump\t// in\n    tag_307:\n        /* \"#utility.yul\":6767:6906   */\n      swap1\n      pop\n        /* \"#utility.yul\":6494:6913   */\n      swap2\n      swap1\n      pop\n      jump\t// out\n        /* \"#utility.yul\":6919:7338   */\n    tag_88:\n        /* \"#utility.yul\":7085:7089   */\n      0x00\n        /* \"#utility.yul\":7123:7125   */\n      0x20\n        /* \"#utility.yul\":7112:7121   */\n      dup3\n        /* \"#utility.yul\":7108:7126   */\n      add\n        /* \"#utility.yul\":7100:7126   */\n      swap1\n      pop\n        /* \"#utility.yul\":7172:7181   */\n      dup2\n        /* \"#utility.yul\":7166:7170   */\n      dup2\n        /* \"#utility.yul\":7162:7182   */\n      sub\n        /* \"#utility.yul\":7158:7159   */\n      0x00\n        /* \"#utility.yul\":7147:7156   */\n      dup4\n        /* \"#utility.yul\":7143:7160   */\n      add\n        /* \"#utility.yul\":7136:7183   */\n      mstore\n        /* \"#utility.yul\":7200:7331   */\n      tag_309\n        /* \"#utility.yul\":7326:7330   */\n      dup2\n        /* \"#utility.yul\":7200:7331   */\n      tag_272\n      jump\t// in\n    tag_309:\n        /* \"#utility.yul\":7192:7331   */\n      swap1\n      pop\n        /* \"#utility.yul\":6919:7338   */\n      swap2\n      swap1\n      pop\n      jump\t// out\n        /* \"#utility.yul\":7344:7763   */\n    tag_186:\n        /* \"#utility.yul\":7510:7514   */\n      0x00\n        /* \"#utility.yul\":7548:7550   */\n      0x20\n        /* \"#utility.yul\":7537:7546   */\n      dup3\n        /* \"#utility.yul\":7533:7551   */\n      add\n        /* \"#utility.yul\":7525:7551   */\n      swap1\n      pop\n        /* \"#utility.yul\":7597:7606   */\n      dup2\n        /* \"#utility.yul\":7591:7595   */\n      dup2\n        /* \"#utility.yul\":7587:7607   */\n      sub\n        /* \"#utility.yul\":7583:7584   */\n      0x00\n        /* \"#utility.yul\":7572:7581   */\n      dup4\n        /* \"#utility.yul\":7568:7585   */\n      add\n        /* \"#utility.yul\":7561:7608   */\n      mstore\n        /* \"#utility.yul\":7625:7756   */\n      tag_311\n        /* \"#utility.yul\":7751:7755   */\n      dup2\n        /* \"#utility.yul\":7625:7756   */\n      tag_277\n      jump\t// in\n    tag_311:\n        /* \"#utility.yul\":7617:7756   */\n      swap1\n      pop\n        /* \"#utility.yul\":7344:7763   */\n      swap2\n      swap1\n      pop\n      jump\t// out\n        /* \"#utility.yul\":7769:8188   */\n    tag_152:\n        /* \"#utility.yul\":7935:7939   */\n      0x00\n        /* \"#utility.yul\":7973:7975   */\n      0x20\n        /* \"#utility.yul\":7962:7971   */\n      dup3\n        /* \"#utility.yul\":7958:7976   */\n      add\n        /* \"#utility.yul\":7950:7976   */\n      swap1\n      pop\n        /* \"#utility.yul\":8022:8031   */\n      dup2\n        /* \"#utility.yul\":8016:8020   */\n      dup2\n        /* \"#utility.yul\":8012:8032   */\n      sub\n        /* \"#utility.yul\":8008:8009   */\n      0x00\n        /* \"#utility.yul\":7997:8006   */\n      dup4\n        /* \"#utility.yul\":7993:8010   */\n      add\n        /* \"#utility.yul\":7986:8033   */\n      mstore\n        /* \"#utility.yul\":8050:8181   */\n      tag_313\n        /* \"#utility.yul\":8176:8180   */\n      dup2\n        /* \"#utility.yul\":8050:8181   */\n      tag_282\n      jump\t// in\n    tag_313:\n        /* \"#utility.yul\":8042:8181   */\n      swap1\n      pop\n        /* \"#utility.yul\":7769:8188   */\n      swap2\n      swap1\n      pop\n      jump\t// out\n        /* \"#utility.yul\":8194:8613   */\n    tag_138:\n        /* \"#utility.yul\":8360:8364   */\n      0x00\n        /* \"#utility.yul\":8398:8400   */\n      0x20\n        /* \"#utility.yul\":8387:8396   */\n      dup3\n        /* \"#utility.yul\":8383:8401   */\n      add\n        /* \"#utility.yul\":8375:8401   */\n      swap1\n      pop\n        /* \"#utility.yul\":8447:8456   */\n      dup2\n        /* \"#utility.yul\":8441:8445   */\n      dup2\n        /* \"#utility.yul\":8437:8457   */\n      sub\n        /* \"#utility.yul\":8433:8434   */\n      0x00\n        /* \"#utility.yul\":8422:8431   */\n      dup4\n        /* \"#utility.yul\":8418:8435   */\n      add\n        /* \"#utility.yul\":8411:8458   */\n      mstore\n        /* \"#utility.yul\":8475:8606   */\n      tag_315\n        /* \"#utility.yul\":8601:8605   */\n      dup2\n        /* \"#utility.yul\":8475:8606   */\n      tag_287\n      jump\t// in\n    tag_315:\n        /* \"#utility.yul\":8467:8606   */\n      swap1\n      pop\n        /* \"#utility.yul\":8194:8613   */\n      swap2\n      swap1\n      pop\n      jump\t// out\n        /* \"#utility.yul\":8619:8841   */\n    tag_18:\n        /* \"#utility.yul\":8712:8716   */\n      0x00\n        /* \"#utility.yul\":8750:8752   */\n      0x20\n        /* \"#utility.yul\":8739:8748   */\n      dup3\n        /* \"#utility.yul\":8735:8753   */\n      add\n        /* \"#utility.yul\":8727:8753   */\n      swap1\n      pop\n        /* \"#utility.yul\":8763:8834   */\n      tag_317\n        /* \"#utility.yul\":8831:8832   */\n      0x00\n        /* \"#utility.yul\":8820:8829   */\n      dup4\n        /* \"#utility.yul\":8816:8833   */\n      add\n        /* \"#utility.yul\":8807:8813   */\n      dup5\n        /* \"#utility.yul\":8763:8834   */\n      tag_292\n      jump\t// in\n    tag_317:\n        /* \"#utility.yul\":8619:8841   */\n      swap3\n      swap2\n      pop\n      pop\n      jump\t// out\n        /* \"#utility.yul\":8847:9289   */\n    tag_140:\n        /* \"#utility.yul\":8996:9000   */\n      0x00\n        /* \"#utility.yul\":9034:9036   */\n      0x60\n        /* \"#utility.yul\":9023:9032   */\n      dup3\n        /* \"#utility.yul\":9019:9037   */\n      add\n        /* \"#utility.yul\":9011:9037   */\n      swap1\n      pop\n        /* \"#utility.yul\":9047:9118   */\n      tag_319\n        /* \"#utility.yul\":9115:9116   */\n      0x00\n        /* \"#utility.yul\":9104:9113   */\n      dup4\n        /* \"#utility.yul\":9100:9117   */\n      add\n        /* \"#utility.yul\":9091:9097   */\n      dup7\n        /* \"#utility.yul\":9047:9118   */\n      tag_292\n      jump\t// in\n    tag_319:\n        /* \"#utility.yul\":9128:9200   */\n      tag_320\n        /* \"#utility.yul\":9196:9198   */\n      0x20\n        /* \"#utility.yul\":9185:9194   */\n      dup4\n        /* \"#utility.yul\":9181:9199   */\n      add\n        /* \"#utility.yul\":9172:9178   */\n      dup6\n        /* \"#utility.yul\":9128:9200   */\n      tag_239\n      jump\t// in\n    tag_320:\n        /* \"#utility.yul\":9210:9282   */\n      tag_321\n        /* \"#utility.yul\":9278:9280   */\n      0x40\n        /* \"#utility.yul\":9267:9276   */\n      dup4\n        /* \"#utility.yul\":9263:9281   */\n      add\n        /* \"#utility.yul\":9254:9260   */\n      dup5\n        /* \"#utility.yul\":9210:9282   */\n      tag_292\n      jump\t// in\n    tag_321:\n        /* \"#utility.yul\":8847:9289   */\n      swap5\n      swap4\n      pop\n      pop\n      pop\n      pop\n      jump\t// out\n        /* \"#utility.yul\":9376:9545   */\n    tag_254:\n        /* \"#utility.yul\":9460:9471   */\n      0x00\n        /* \"#utility.yul\":9494:9500   */\n      dup3\n        /* \"#utility.yul\":9489:9492   */\n      dup3\n        /* \"#utility.yul\":9482:9501   */\n      mstore\n        /* \"#utility.yul\":9534:9538   */\n      0x20\n        /* \"#utility.yul\":9529:9532   */\n      dup3\n        /* \"#utility.yul\":9525:9539   */\n      add\n        /* \"#utility.yul\":9510:9539   */\n      swap1\n      pop\n        /* \"#utility.yul\":9376:9545   */\n      swap3\n      swap2\n      pop\n      pop\n      jump\t// out\n        /* \"#utility.yul\":9551:9856   */\n    tag_214:\n        /* \"#utility.yul\":9591:9594   */\n      0x00\n        /* \"#utility.yul\":9610:9630   */\n      tag_326\n        /* \"#utility.yul\":9628:9629   */\n      dup3\n        /* \"#utility.yul\":9610:9630   */\n      tag_295\n      jump\t// in\n    tag_326:\n        /* \"#utility.yul\":9605:9630   */\n      swap2\n      pop\n        /* \"#utility.yul\":9644:9664   */\n      tag_327\n        /* \"#utility.yul\":9662:9663   */\n      dup4\n        /* \"#utility.yul\":9644:9664   */\n      tag_295\n      jump\t// in\n    tag_327:\n        /* \"#utility.yul\":9639:9664   */\n      swap3\n      pop\n        /* \"#utility.yul\":9798:9799   */\n      dup3\n        /* \"#utility.yul\":9730:9796   */\n      0xffffffffffffffffffffffffffffffffffffffffffffffffffffffffffffffff\n        /* \"#utility.yul\":9726:9800   */\n      sub\n        /* \"#utility.yul\":9723:9724   */\n      dup3\n        /* \"#utility.yul\":9720:9801   */\n      gt\n        /* \"#utility.yul\":9717:9824   */\n      iszero\n      tag_328\n      jumpi\n        /* \"#utility.yul\":9804:9822   */\n      tag_329\n      tag_330\n      jump\t// in\n    tag_329:\n        /* \"#utility.yul\":9717:9824   */\n    tag_328:\n        /* \"#utility.yul\":9848:9849   */\n      dup3\n        /* \"#utility.yul\":9845:9846   */\n      dup3\n        /* \"#utility.yul\":9841:9850   */\n      add\n        /* \"#utility.yul\":9834:9850   */\n      swap1\n      pop\n        /* \"#utility.yul\":9551:9856   */\n      swap3\n      swap2\n      pop\n      pop\n      jump\t// out\n        /* \"#utility.yul\":9862:10053   */\n    tag_211:\n        /* \"#utility.yul\":9902:9906   */\n      0x00\n        /* \"#utility.yul\":9922:9942   */\n      tag_332\n        /* \"#utility.yul\":9940:9941   */\n      dup3\n        /* \"#utility.yul\":9922:9942   */\n      tag_295\n      jump\t// in\n    tag_332:\n        /* \"#utility.yul\":9917:9942   */\n      swap2\n      pop\n        /* \"#utility.yul\":9956:9976   */\n      tag_333\n        /* \"#utility.yul\":9974:9975   */\n      dup4\n        /* \"#utility.yul\":9956:9976   */\n      tag_295\n      jump\t// in\n    tag_333:\n        /* \"#utility.yul\":9951:9976   */\n      swap3\n      pop\n        /* \"#utility.yul\":9995:9996   */\n      dup3\n        /* \"#utility.yul\":9992:9993   */\n      dup3\n        /* \"#utility.yul\":9989:9997   */\n      lt\n        /* \"#utility.yul\":9986:10020   */\n      iszero\n      tag_334\n      jumpi\n        /* \"#utility.yul\":10000:10018   */\n      tag_335\n      tag_330\n      jump\t// in\n    tag_335:\n        /* \"#utility.yul\":9986:10020   */\n    tag_334:\n        /* \"#utility.yul\":10045:10046   */\n      dup3\n        /* \"#utility.yul\":10042:10043   */\n      dup3\n        /* \"#utility.yul\":10038:10047   */\n      sub\n        /* \"#utility.yul\":10030:10047   */\n      swap1\n      pop\n        /* \"#utility.yul\":9862:10053   */\n      swap3\n      swap2\n      pop\n      pop\n      jump\t// out\n        /* \"#utility.yul\":10059:10155   */\n    tag_242:\n        /* \"#utility.yul\":10096:10103   */\n      0x00\n        /* \"#utility.yul\":10125:10149   */\n      tag_337\n        /* \"#utility.yul\":10143:10148   */\n      dup3\n        /* \"#utility.yul\":10125:10149   */\n      tag_338\n      jump\t// in\n    tag_337:\n        /* \"#utility.yul\":10114:10149   */\n      swap1\n      pop\n        /* \"#utility.yul\":10059:10155   */\n      swap2\n      swap1\n      pop\n      jump\t// out\n        /* \"#utility.yul\":10161:10251   */\n    tag_246:\n        /* \"#utility.yul\":10195:10202   */\n      0x00\n        /* \"#utility.yul\":10238:10243   */\n      dup2\n        /* \"#utility.yul\":10231:10244   */\n      iszero\n        /* \"#utility.yul\":10224:10245   */\n      iszero\n        /* \"#utility.yul\":10213:10245   */\n      swap1\n      pop\n        /* \"#utility.yul\":10161:10251   */\n      swap2\n      swap1\n      pop\n      jump\t// out\n        /* \"#utility.yul\":10257:10386   */\n    tag_340:\n        /* \"#utility.yul\":10303:10310   */\n      0x00\n        /* \"#utility.yul\":10332:10337   */\n      dup2\n        /* \"#utility.yul\":10321:10337   */\n      swap1\n      pop\n        /* \"#utility.yul\":10338:10380   */\n      tag_342\n        /* \"#utility.yul\":10374:10379   */\n      dup3\n        /* \"#utility.yul\":10338:10380   */\n      tag_343\n      jump\t// in\n    tag_342:\n        /* \"#utility.yul\":10257:10386   */\n      swap2\n      swap1\n      pop\n      jump\t// out\n        /* \"#utility.yul\":10392:10518   */\n    tag_338:\n        /* \"#utility.yul\":10429:10436   */\n      0x00\n        /* \"#utility.yul\":10469:10511   */\n      0xffffffffffffffffffffffffffffffffffffffff\n        /* \"#utility.yul\":10462:10467   */\n      dup3\n        /* \"#utility.yul\":10458:10512   */\n      and\n        /* \"#utility.yul\":10447:10512   */\n      swap1\n      pop\n        /* \"#utility.yul\":10392:10518   */\n      swap2\n      swap1\n      pop\n      jump\t// out\n        /* \"#utility.yul\":10524:10601   */\n    tag_295:\n        /* \"#utility.yul\":10561:10568   */\n      0x00\n        /* \"#utility.yul\":10590:10595   */\n      dup2\n        /* \"#utility.yul\":10579:10595   */\n      swap1\n      pop\n        /* \"#utility.yul\":10524:10601   */\n      swap2\n      swap1\n      pop\n      jump\t// out\n        /* \"#utility.yul\":10607:10736   */\n    tag_250:\n        /* \"#utility.yul\":10664:10673   */\n      0x00\n        /* \"#utility.yul\":10697:10730   */\n      tag_347\n        /* \"#utility.yul\":10724:10729   */\n      dup3\n        /* \"#utility.yul\":10697:10730   */\n      tag_340\n      jump\t// in\n    tag_347:\n        /* \"#utility.yul\":10684:10730   */\n      swap1\n      pop\n        /* \"#utility.yul\":10607:10736   */\n      swap2\n      swap1\n      pop\n      jump\t// out\n        /* \"#utility.yul\":10742:10922   */\n    tag_330:\n        /* \"#utility.yul\":10790:10867   */\n      0x4e487b7100000000000000000000000000000000000000000000000000000000\n        /* \"#utility.yul\":10787:10788   */\n      0x00\n        /* \"#utility.yul\":10780:10868   */\n      mstore\n        /* \"#utility.yul\":10887:10891   */\n      0x11\n        /* \"#utility.yul\":10884:10885   */\n      0x04\n        /* \"#utility.yul\":10877:10892   */\n      mstore\n        /* \"#utility.yul\":10911:10915   */\n      0x24\n        /* \"#utility.yul\":10908:10909   */\n      0x00\n        /* \"#utility.yul\":10901:10916   */\n      revert\n        /* \"#utility.yul\":10928:11108   */\n    tag_67:\n        /* \"#utility.yul\":10976:11053   */\n      0x4e487b7100000000000000000000000000000000000000000000000000000000\n        /* \"#utility.yul\":10973:10974   */\n      0x00\n        /* \"#utility.yul\":10966:11054   */\n      mstore\n        /* \"#utility.yul\":11073:11077   */\n      0x21\n        /* \"#utility.yul\":11070:11071   */\n      0x04\n        /* \"#utility.yul\":11063:11078   */\n      mstore\n        /* \"#utility.yul\":11097:11101   */\n      0x24\n        /* \"#utility.yul\":11094:11095   */\n      0x00\n        /* \"#utility.yul\":11087:11102   */\n      revert\n        /* \"#utility.yul\":11237:11354   */\n    tag_232:\n        /* \"#utility.yul\":11346:11347   */\n      0x00\n        /* \"#utility.yul\":11343:11344   */\n      dup1\n        /* \"#utility.yul\":11336:11348   */\n      revert\n        /* \"#utility.yul\":11360:11537   */\n    tag_256:\n        /* \"#utility.yul\":11500:11529   */\n      0x436f6e74726163742073746174652069736e2774206163746976650000000000\n        /* \"#utility.yul\":11496:11497   */\n      0x00\n        /* \"#utility.yul\":11488:11494   */\n      dup3\n        /* \"#utility.yul\":11484:11498   */\n      add\n        /* \"#utility.yul\":11477:11530   */\n      mstore\n        /* \"#utility.yul\":11360:11537   */\n      pop\n      jump\t// out\n        /* \"#utility.yul\":11543:11710   */\n    tag_261:\n        /* \"#utility.yul\":11683:11702   */\n      0x556e617574686f72697a65642075736572000000000000000000000000000000\n        /* \"#utility.yul\":11679:11680   */\n      0x00\n        /* \"#utility.yul\":11671:11677   */\n      dup3\n        /* \"#utility.yul\":11667:11681   */\n      add\n        /* \"#utility.yul\":11660:11703   */\n      mstore\n        /* \"#utility.yul\":11543:11710   */\n      pop\n      jump\t// out\n        /* \"#utility.yul\":11716:11937   */\n    tag_266:\n        /* \"#utility.yul\":11856:11890   */\n      0x4f6e6c7920706172656e742063616e206163636573732074686973206d657468\n        /* \"#utility.yul\":11852:11853   */\n      0x00\n        /* \"#utility.yul\":11844:11850   */\n      dup3\n        /* \"#utility.yul\":11840:11854   */\n      add\n        /* \"#utility.yul\":11833:11891   */\n      mstore\n        /* \"#utility.yul\":11925:11929   */\n      0x6f64000000000000000000000000000000000000000000000000000000000000\n        /* \"#utility.yul\":11920:11922   */\n      0x20\n        /* \"#utility.yul\":11912:11918   */\n      dup3\n        /* \"#utility.yul\":11908:11923   */\n      add\n        /* \"#utility.yul\":11901:11930   */\n      mstore\n        /* \"#utility.yul\":11716:11937   */\n      pop\n      jump\t// out\n        /* \"#utility.yul\":11943:12173   */\n    tag_271:\n        /* \"#utility.yul\":12083:12117   */\n      0x42616c616e6365206d7573742062652030206265666f7265207465726d69616e\n        /* \"#utility.yul\":12079:12080   */\n      0x00\n        /* \"#utility.yul\":12071:12077   */\n      dup3\n        /* \"#utility.yul\":12067:12081   */\n      add\n        /* \"#utility.yul\":12060:12118   */\n      mstore\n        /* \"#utility.yul\":12152:12165   */\n      0x74696e672061206465616c000000000000000000000000000000000000000000\n        /* \"#utility.yul\":12147:12149   */\n      0x20\n        /* \"#utility.yul\":12139:12145   */\n      dup3\n        /* \"#utility.yul\":12135:12150   */\n      add\n        /* \"#utility.yul\":12128:12166   */\n      mstore\n        /* \"#utility.yul\":11943:12173   */\n      pop\n      jump\t// out\n        /* \"#utility.yul\":12179:12414   */\n    tag_276:\n        /* \"#utility.yul\":12319:12353   */\n      0x546865726520697320756e77697468647261776d206d6f6e65792e2057697468\n        /* \"#utility.yul\":12315:12316   */\n      0x00\n        /* \"#utility.yul\":12307:12313   */\n      dup3\n        /* \"#utility.yul\":12303:12317   */\n      add\n        /* \"#utility.yul\":12296:12354   */\n      mstore\n        /* \"#utility.yul\":12388:12406   */\n      0x6472617720796f7572206d6f6e65792100000000000000000000000000000000\n        /* \"#utility.yul\":12383:12385   */\n      0x20\n        /* \"#utility.yul\":12375:12381   */\n      dup3\n        /* \"#utility.yul\":12371:12386   */\n      add\n        /* \"#utility.yul\":12364:12407   */\n      mstore\n        /* \"#utility.yul\":12179:12414   */\n      pop\n      jump\t// out\n        /* \"#utility.yul\":12420:12588   */\n    tag_281:\n        /* \"#utility.yul\":12560:12580   */\n      0x4920616d206e6f77206163746976617465640000000000000000000000000000\n        /* \"#utility.yul\":12556:12557   */\n      0x00\n        /* \"#utility.yul\":12548:12554   */\n      dup3\n        /* \"#utility.yul\":12544:12558   */\n      add\n        /* \"#utility.yul\":12537:12581   */\n      mstore\n        /* \"#utility.yul\":12420:12588   */\n      pop\n      jump\t// out\n        /* \"#utility.yul\":12594:12776   */\n    tag_286:\n        /* \"#utility.yul\":12734:12768   */\n      0x4f6e6c7920757365722063616e206163636573732074686973206d6574686f64\n        /* \"#utility.yul\":12730:12731   */\n      0x00\n        /* \"#utility.yul\":12722:12728   */\n      dup3\n        /* \"#utility.yul\":12718:12732   */\n      add\n        /* \"#utility.yul\":12711:12769   */\n      mstore\n        /* \"#utility.yul\":12594:12776   */\n      pop\n      jump\t// out\n        /* \"#utility.yul\":12782:13003   */\n    tag_291:\n        /* \"#utility.yul\":12922:12956   */\n      0x4e6f20617661696c61626c652063726564697420666f72207468697320637963\n        /* \"#utility.yul\":12918:12919   */\n      0x00\n        /* \"#utility.yul\":12910:12916   */\n      dup3\n        /* \"#utility.yul\":12906:12920   */\n      add\n        /* \"#utility.yul\":12899:12957   */\n      mstore\n        /* \"#utility.yul\":12991:12995   */\n      0x6c65000000000000000000000000000000000000000000000000000000000000\n        /* \"#utility.yul\":12986:12988   */\n      0x20\n        /* \"#utility.yul\":12978:12984   */\n      dup3\n        /* \"#utility.yul\":12974:12989   */\n      add\n        /* \"#utility.yul\":12967:12996   */\n      mstore\n        /* \"#utility.yul\":12782:13003   */\n      pop\n      jump\t// out\n        /* \"#utility.yul\":13009:13123   */\n    tag_343:\n        /* \"#utility.yul\":13091:13092   */\n      0x04\n        /* \"#utility.yul\":13084:13089   */\n      dup2\n        /* \"#utility.yul\":13081:13093   */\n      lt\n        /* \"#utility.yul\":13071:13117   */\n      tag_362\n      jumpi\n        /* \"#utility.yul\":13097:13115   */\n      tag_363\n      tag_67\n      jump\t// in\n    tag_363:\n        /* \"#utility.yul\":13071:13117   */\n    tag_362:\n        /* \"#utility.yul\":13009:13123   */\n      pop\n      jump\t// out\n        /* \"#utility.yul\":13129:13251   */\n    tag_220:\n        /* \"#utility.yul\":13202:13226   */\n      tag_365\n        /* \"#utility.yul\":13220:13225   */\n      dup2\n        /* \"#utility.yul\":13202:13226   */\n      tag_242\n      jump\t// in\n    tag_365:\n        /* \"#utility.yul\":13195:13200   */\n      dup2\n        /* \"#utility.yul\":13192:13227   */\n      eq\n        /* \"#utility.yul\":13182:13245   */\n      tag_366\n      jumpi\n        /* \"#utility.yul\":13241:13242   */\n      0x00\n        /* \"#utility.yul\":13238:13239   */\n      dup1\n        /* \"#utility.yul\":13231:13243   */\n      revert\n        /* \"#utility.yul\":13182:13245   */\n    tag_366:\n        /* \"#utility.yul\":13129:13251   */\n      pop\n      jump\t// out\n        /* \"#utility.yul\":13257:13373   */\n    tag_224:\n        /* \"#utility.yul\":13327:13348   */\n      tag_368\n        /* \"#utility.yul\":13342:13347   */\n      dup2\n        /* \"#utility.yul\":13327:13348   */\n      tag_246\n      jump\t// in\n    tag_368:\n        /* \"#utility.yul\":13320:13325   */\n      dup2\n        /* \"#utility.yul\":13317:13349   */\n      eq\n        /* \"#utility.yul\":13307:13367   */\n      tag_369\n      jumpi\n        /* \"#utility.yul\":13363:13364   */\n      0x00\n        /* \"#utility.yul\":13360:13361   */\n      dup1\n        /* \"#utility.yul\":13353:13365   */\n      revert\n        /* \"#utility.yul\":13307:13367   */\n    tag_369:\n        /* \"#utility.yul\":13257:13373   */\n      pop\n      jump\t// out\n        /* \"#utility.yul\":13379:13501   */\n    tag_228:\n        /* \"#utility.yul\":13452:13476   */\n      tag_371\n        /* \"#utility.yul\":13470:13475   */\n      dup2\n        /* \"#utility.yul\":13452:13476   */\n      tag_295\n      jump\t// in\n    tag_371:\n        /* \"#utility.yul\":13445:13450   */\n      dup2\n        /* \"#utility.yul\":13442:13477   */\n      eq\n        /* \"#utility.yul\":13432:13495   */\n      tag_372\n      jumpi\n        /* \"#utility.yul\":13491:13492   */\n      0x00\n        /* \"#utility.yul\":13488:13489   */\n      dup1\n        /* \"#utility.yul\":13481:13493   */\n      revert\n        /* \"#utility.yul\":13432:13495   */\n    tag_372:\n        /* \"#utility.yul\":13379:13501   */\n      pop\n      jump\t// out\n\n    auxdata: 0xa2646970667358221220d31219b07543b25a5483c9ac2e520c7a8ea1fb7b1a028176b00359916a59586964736f6c63430008070033\n}\n",
				"bytecode": {
					"linkReferences": {},
					"object": "60806040523480156200001157600080fd5b5060405162001b3d38038062001b3d833981810160405281019062000037919062000186565b7f33aaa92ade0fe3fafff12ea74532e26e083fa605080da1da64693a9d8af268a3604051620000669062000235565b60405180910390a1826000806101000a81548173ffffffffffffffffffffffffffffffffffffffff021916908373ffffffffffffffffffffffffffffffffffffffff16021790555083600160006101000a81548173ffffffffffffffffffffffffffffffffffffffff021916908373ffffffffffffffffffffffffffffffffffffffff160217905550846002819055506000600560006101000a81548160ff021916908360038111156200011f576200011e620002a6565b5b02179055508160068190555080600a819055506001600c60006101000a81548160ff021916908315150217905550505050505062000337565b600081519050620001698162000303565b92915050565b60008151905062000180816200031d565b92915050565b600080600080600060a08688031215620001a557620001a4620002d5565b5b6000620001b5888289016200016f565b9550506020620001c88882890162000158565b9450506040620001db8882890162000158565b9350506060620001ee888289016200016f565b925050608062000201888289016200016f565b9150509295509295909350565b60006200021d601c8362000257565b91506200022a82620002da565b602082019050919050565b6000602082019050818103600083015262000250816200020e565b9050919050565b600082825260208201905092915050565b600062000275826200027c565b9050919050565b600073ffffffffffffffffffffffffffffffffffffffff82169050919050565b6000819050919050565b7f4e487b7100000000000000000000000000000000000000000000000000000000600052602160045260246000fd5b600080fd5b7f41206368696c64206a757374206f70656e656420697473206579657300000000600082015250565b6200030e8162000268565b81146200031a57600080fd5b50565b62000328816200029c565b81146200033457600080fd5b50565b6117f680620003476000396000f3fe60806040526004361061009c5760003560e01c80639f0c592e116100645780639f0c592e1461013c578063a6601f2e14610179578063ae0aba8c14610190578063c19d93fb1461019a578063ca11be69146101c5578063d12abd8a146101ee5761009c565b806307cc692f146100a15780630c08bf88146100cc5780633b7104f2146100e357806378706079146100fa578063804d6b3814610125575b600080fd5b3480156100ad57600080fd5b506100b6610205565b6040516100c391906113ca565b60405180910390f35b3480156100d857600080fd5b506100e1610223565b005b3480156100ef57600080fd5b506100f8610507565b005b34801561010657600080fd5b5061010f610509565b60405161011c91906113ca565b60405180910390f35b34801561013157600080fd5b5061013a61050f565b005b34801561014857600080fd5b50610163600480360381019061015e91906110d3565b610712565b6040516101709190611294565b60405180910390f35b34801561018557600080fd5b5061018e610a4b565b005b610198610ba8565b005b3480156101a657600080fd5b506101af610cfc565b6040516101bc91906112af565b60405180910390f35b3480156101d157600080fd5b506101ec60048036038101906101e791906110d3565b610d0f565b005b3480156101fa57600080fd5b50610203610e4b565b005b600061021e60075460065461104e90919063ffffffff16565b905090565b60008054906101000a900473ffffffffffffffffffffffffffffffffffffffff1673ffffffffffffffffffffffffffffffffffffffff163373ffffffffffffffffffffffffffffffffffffffff1614806102ca5750600160009054906101000a900473ffffffffffffffffffffffffffffffffffffffff1673ffffffffffffffffffffffffffffffffffffffff163373ffffffffffffffffffffffffffffffffffffffff16145b610309576040517f08c379a0000000000000000000000000000000000000000000000000000000008152600401610300906112ea565b60405180910390fd5b6001600381111561031d5761031c611553565b5b600560009054906101000a900460ff16600381111561033f5761033e611553565b5b148061034c575060025442115b156103ae576001600560006101000a81548160ff0219169083600381111561037757610376611553565b5b02179055506040517f203d82d800000000000000000000000000000000000000000000000000000000815260040160405180910390fd5b600260038111156103c2576103c1611553565b5b600560009054906101000a900460ff1660038111156103e4576103e3611553565b5b14610424576040517f08c379a000000000000000000000000000000000000000000000000000000000815260040161041b906112ca565b60405180910390fd5b600060075414610469576040517f08c379a00000000000000000000000000000000000000000000000000000000081526004016104609061132a565b60405180910390fd5b6000600b54146104ae576040517f08c379a00000000000000000000000000000000000000000000000000000000081526004016104a59061134a565b60405180910390fd5b6003600560006101000a81548160ff021916908360038111156104d4576104d3611553565b5b02179055507f6d0d90585834980bd0e5603341ff50b06349c11e0bf9241d03f6d065f12a262b60405160405180910390a1565b565b60025481565b60008054906101000a900473ffffffffffffffffffffffffffffffffffffffff1673ffffffffffffffffffffffffffffffffffffffff163373ffffffffffffffffffffffffffffffffffffffff1614806105b65750600160009054906101000a900473ffffffffffffffffffffffffffffffffffffffff1673ffffffffffffffffffffffffffffffffffffffff163373ffffffffffffffffffffffffffffffffffffffff16145b6105f5576040517f08c379a00000000000000000000000000000000000000000000000000000000081526004016105ec906112ea565b60405180910390fd5b6001600381111561060957610608611553565b5b600560009054906101000a900460ff16600381111561062b5761062a611553565b5b1480610638575060025442115b1561069a576001600560006101000a81548160ff0219169083600381111561066357610662611553565b5b02179055506040517f203d82d800000000000000000000000000000000000000000000000000000000815260040160405180910390fd5b600260038111156106ae576106ad611553565b5b600560009054906101000a900460ff1660038111156106d0576106cf611553565b5b14610710576040517f08c379a0000000000000000000000000000000000000000000000000000000008152600401610707906112ca565b60405180910390fd5b565b60008060009054906101000a900473ffffffffffffffffffffffffffffffffffffffff1673ffffffffffffffffffffffffffffffffffffffff163373ffffffffffffffffffffffffffffffffffffffff1614806107bc5750600160009054906101000a900473ffffffffffffffffffffffffffffffffffffffff1673ffffffffffffffffffffffffffffffffffffffff163373ffffffffffffffffffffffffffffffffffffffff16145b6107fb576040517f08c379a00000000000000000000000000000000000000000000000000000000081526004016107f2906112ea565b60405180910390fd5b6001600381111561080f5761080e611553565b5b600560009054906101000a900460ff16600381111561083157610830611553565b5b148061083e575060025442115b156108a0576001600560006101000a81548160ff0219169083600381111561086957610868611553565b5b02179055506040517f203d82d800000000000000000000000000000000000000000000000000000000815260040160405180910390fd5b600260038111156108b4576108b3611553565b5b600560009054906101000a900460ff1660038111156108d6576108d5611553565b5b14610916576040517f08c379a000000000000000000000000000000000000000000000000000000000815260040161090d906112ca565b60405180910390fd5b61091e610507565b610926610205565b821115610968576040517f08c379a000000000000000000000000000000000000000000000000000000000815260040161095f906113aa565b60405180910390fd5b6000600360009054906101000a900473ffffffffffffffffffffffffffffffffffffffff1673ffffffffffffffffffffffffffffffffffffffff1663bc134ae360045486866040518463ffffffff1660e01b81526004016109cb939291906113e5565b602060405180830381600087803b1580156109e557600080fd5b505af11580156109f9573d6000803e3d6000fd5b505050506040513d601f19601f82011682018060405250810190610a1d9190611113565b90508015610a4157610a3a8360075461107190919063ffffffff16565b6007819055505b8091505092915050565b60008054906101000a900473ffffffffffffffffffffffffffffffffffffffff1673ffffffffffffffffffffffffffffffffffffffff163373ffffffffffffffffffffffffffffffffffffffff1614610ad9576040517f08c379a0000000000000000000000000000000000000000000000000000000008152600401610ad09061138a565b60405180910390fd5b60026003811115610aed57610aec611553565b5b600560009054906101000a900460ff166003811115610b0f57610b0e611553565b5b14610b4f576040517f08c379a0000000000000000000000000000000000000000000000000000000008152600401610b46906112ca565b60405180910390fd5b6000600b5490506000600b819055503373ffffffffffffffffffffffffffffffffffffffff166108fc829081150290604051600060405180830381858888f19350505050158015610ba4573d6000803e3d6000fd5b5050565b60008054906101000a900473ffffffffffffffffffffffffffffffffffffffff1673ffffffffffffffffffffffffffffffffffffffff163373ffffffffffffffffffffffffffffffffffffffff1614610c36576040517f08c379a0000000000000000000000000000000000000000000000000000000008152600401610c2d9061138a565b60405180910390fd5b60026003811115610c4a57610c49611553565b5b600560009054906101000a900460ff166003811115610c6c57610c6b611553565b5b14610cac576040517f08c379a0000000000000000000000000000000000000000000000000000000008152600401610ca3906112ca565b60405180910390fd5b600754341115610cde57610ccb6007543461104e90919063ffffffff16565b600b819055506000600781905550610cfa565b610cf33460075461104e90919063ffffffff16565b6007819055505b565b600560009054906101000a900460ff1681565b600160009054906101000a900473ffffffffffffffffffffffffffffffffffffffff1673ffffffffffffffffffffffffffffffffffffffff163373ffffffffffffffffffffffffffffffffffffffff1614610d9f576040517f08c379a0000000000000000000000000000000000000000000000000000000008152600401610d969061130a565b60405180910390fd5b81600360006101000a81548173ffffffffffffffffffffffffffffffffffffffff021916908373ffffffffffffffffffffffffffffffffffffffff160217905550806004819055506002600560006101000a81548160ff02191690836003811115610e0d57610e0c611553565b5b02179055507f33aaa92ade0fe3fafff12ea74532e26e083fa605080da1da64693a9d8af268a3604051610e3f9061136a565b60405180910390a15050565b60008054906101000a900473ffffffffffffffffffffffffffffffffffffffff1673ffffffffffffffffffffffffffffffffffffffff163373ffffffffffffffffffffffffffffffffffffffff161480610ef25750600160009054906101000a900473ffffffffffffffffffffffffffffffffffffffff1673ffffffffffffffffffffffffffffffffffffffff163373ffffffffffffffffffffffffffffffffffffffff16145b610f31576040517f08c379a0000000000000000000000000000000000000000000000000000000008152600401610f28906112ea565b60405180910390fd5b60016003811115610f4557610f44611553565b5b600560009054906101000a900460ff166003811115610f6757610f66611553565b5b1480610f74575060025442115b15610fd6576001600560006101000a81548160ff02191690836003811115610f9f57610f9e611553565b5b02179055506040517f203d82d800000000000000000000000000000000000000000000000000000000815260040160405180910390fd5b60026003811115610fea57610fe9611553565b5b600560009054906101000a900460ff16600381111561100c5761100b611553565b5b1461104c576040517f08c379a0000000000000000000000000000000000000000000000000000000008152600401611043906112ca565b60405180910390fd5b565b60008282111561105d57600080fd5b81836110699190611483565b905092915050565b6000818361107f919061142d565b90508281101561108e57600080fd5b92915050565b6000813590506110a38161177b565b92915050565b6000815190506110b881611792565b92915050565b6000813590506110cd816117a9565b92915050565b600080604083850312156110ea576110e9611582565b5b60006110f885828601611094565b9250506020611109858286016110be565b9150509250929050565b60006020828403121561112957611128611582565b5b6000611137848285016110a9565b91505092915050565b611149816114b7565b82525050565b611158816114c9565b82525050565b61116781611512565b82525050565b600061117a601b8361141c565b915061118582611587565b602082019050919050565b600061119d60118361141c565b91506111a8826115b0565b602082019050919050565b60006111c060228361141c565b91506111cb826115d9565b604082019050919050565b60006111e3602b8361141c565b91506111ee82611628565b604082019050919050565b600061120660308361141c565b915061121182611677565b604082019050919050565b600061122960128361141c565b9150611234826116c6565b602082019050919050565b600061124c60208361141c565b9150611257826116ef565b602082019050919050565b600061126f60228361141c565b915061127a82611718565b604082019050919050565b61128e81611508565b82525050565b60006020820190506112a9600083018461114f565b92915050565b60006020820190506112c4600083018461115e565b92915050565b600060208201905081810360008301526112e38161116d565b9050919050565b6000602082019050818103600083015261130381611190565b9050919050565b60006020820190508181036000830152611323816111b3565b9050919050565b60006020820190508181036000830152611343816111d6565b9050919050565b60006020820190508181036000830152611363816111f9565b9050919050565b600060208201905081810360008301526113838161121c565b9050919050565b600060208201905081810360008301526113a38161123f565b9050919050565b600060208201905081810360008301526113c381611262565b9050919050565b60006020820190506113df6000830184611285565b92915050565b60006060820190506113fa6000830186611285565b6114076020830185611140565b6114146040830184611285565b949350505050565b600082825260208201905092915050565b600061143882611508565b915061144383611508565b9250827fffffffffffffffffffffffffffffffffffffffffffffffffffffffffffffffff0382111561147857611477611524565b5b828201905092915050565b600061148e82611508565b915061149983611508565b9250828210156114ac576114ab611524565b5b828203905092915050565b60006114c2826114e8565b9050919050565b60008115159050919050565b60008190506114e382611767565b919050565b600073ffffffffffffffffffffffffffffffffffffffff82169050919050565b6000819050919050565b600061151d826114d5565b9050919050565b7f4e487b7100000000000000000000000000000000000000000000000000000000600052601160045260246000fd5b7f4e487b7100000000000000000000000000000000000000000000000000000000600052602160045260246000fd5b600080fd5b7f436f6e74726163742073746174652069736e2774206163746976650000000000600082015250565b7f556e617574686f72697a65642075736572000000000000000000000000000000600082015250565b7f4f6e6c7920706172656e742063616e206163636573732074686973206d65746860008201527f6f64000000000000000000000000000000000000000000000000000000000000602082015250565b7f42616c616e6365206d7573742062652030206265666f7265207465726d69616e60008201527f74696e672061206465616c000000000000000000000000000000000000000000602082015250565b7f546865726520697320756e77697468647261776d206d6f6e65792e205769746860008201527f6472617720796f7572206d6f6e65792100000000000000000000000000000000602082015250565b7f4920616d206e6f77206163746976617465640000000000000000000000000000600082015250565b7f4f6e6c7920757365722063616e206163636573732074686973206d6574686f64600082015250565b7f4e6f20617661696c61626c652063726564697420666f7220746869732063796360008201527f6c65000000000000000000000000000000000000000000000000000000000000602082015250565b6004811061177857611777611553565b5b50565b611784816114b7565b811461178f57600080fd5b50565b61179b816114c9565b81146117a657600080fd5b50565b6117b281611508565b81146117bd57600080fd5b5056fea2646970667358221220d31219b07543b25a5483c9ac2e520c7a8ea1fb7b1a028176b00359916a59586964736f6c63430008070033",
					"opcodes": "PUSH1 0x80 PUSH1 0x40 MSTORE CALLVALUE DUP1 ISZERO PUSH3 0x11 JUMPI PUSH1 0x0 DUP1 REVERT JUMPDEST POP PUSH1 0x40 MLOAD PUSH3 0x1B3D CODESIZE SUB DUP1 PUSH3 0x1B3D DUP4 CODECOPY DUP2 DUP2 ADD PUSH1 0x40 MSTORE DUP2 ADD SWAP1 PUSH3 0x37 SWAP2 SWAP1 PUSH3 0x186 JUMP JUMPDEST PUSH32 0x33AAA92ADE0FE3FAFFF12EA74532E26E083FA605080DA1DA64693A9D8AF268A3 PUSH1 0x40 MLOAD PUSH3 0x66 SWAP1 PUSH3 0x235 JUMP JUMPDEST PUSH1 0x40 MLOAD DUP1 SWAP2 SUB SWAP1 LOG1 DUP3 PUSH1 0x0 DUP1 PUSH2 0x100 EXP DUP2 SLOAD DUP2 PUSH20 0xFFFFFFFFFFFFFFFFFFFFFFFFFFFFFFFFFFFFFFFF MUL NOT AND SWAP1 DUP4 PUSH20 0xFFFFFFFFFFFFFFFFFFFFFFFFFFFFFFFFFFFFFFFF AND MUL OR SWAP1 SSTORE POP DUP4 PUSH1 0x1 PUSH1 0x0 PUSH2 0x100 EXP DUP2 SLOAD DUP2 PUSH20 0xFFFFFFFFFFFFFFFFFFFFFFFFFFFFFFFFFFFFFFFF MUL NOT AND SWAP1 DUP4 PUSH20 0xFFFFFFFFFFFFFFFFFFFFFFFFFFFFFFFFFFFFFFFF AND MUL OR SWAP1 SSTORE POP DUP5 PUSH1 0x2 DUP2 SWAP1 SSTORE POP PUSH1 0x0 PUSH1 0x5 PUSH1 0x0 PUSH2 0x100 EXP DUP2 SLOAD DUP2 PUSH1 0xFF MUL NOT AND SWAP1 DUP4 PUSH1 0x3 DUP2 GT ISZERO PUSH3 0x11F JUMPI PUSH3 0x11E PUSH3 0x2A6 JUMP JUMPDEST JUMPDEST MUL OR SWAP1 SSTORE POP DUP2 PUSH1 0x6 DUP2 SWAP1 SSTORE POP DUP1 PUSH1 0xA DUP2 SWAP1 SSTORE POP PUSH1 0x1 PUSH1 0xC PUSH1 0x0 PUSH2 0x100 EXP DUP2 SLOAD DUP2 PUSH1 0xFF MUL NOT AND SWAP1 DUP4 ISZERO ISZERO MUL OR SWAP1 SSTORE POP POP POP POP POP POP PUSH3 0x337 JUMP JUMPDEST PUSH1 0x0 DUP2 MLOAD SWAP1 POP PUSH3 0x169 DUP2 PUSH3 0x303 JUMP JUMPDEST SWAP3 SWAP2 POP POP JUMP JUMPDEST PUSH1 0x0 DUP2 MLOAD SWAP1 POP PUSH3 0x180 DUP2 PUSH3 0x31D JUMP JUMPDEST SWAP3 SWAP2 POP POP JUMP JUMPDEST PUSH1 0x0 DUP1 PUSH1 0x0 DUP1 PUSH1 0x0 PUSH1 0xA0 DUP7 DUP9 SUB SLT ISZERO PUSH3 0x1A5 JUMPI PUSH3 0x1A4 PUSH3 0x2D5 JUMP JUMPDEST JUMPDEST PUSH1 0x0 PUSH3 0x1B5 DUP9 DUP3 DUP10 ADD PUSH3 0x16F JUMP JUMPDEST SWAP6 POP POP PUSH1 0x20 PUSH3 0x1C8 DUP9 DUP3 DUP10 ADD PUSH3 0x158 JUMP JUMPDEST SWAP5 POP POP PUSH1 0x40 PUSH3 0x1DB DUP9 DUP3 DUP10 ADD PUSH3 0x158 JUMP JUMPDEST SWAP4 POP POP PUSH1 0x60 PUSH3 0x1EE DUP9 DUP3 DUP10 ADD PUSH3 0x16F JUMP JUMPDEST SWAP3 POP POP PUSH1 0x80 PUSH3 0x201 DUP9 DUP3 DUP10 ADD PUSH3 0x16F JUMP JUMPDEST SWAP2 POP POP SWAP3 SWAP6 POP SWAP3 SWAP6 SWAP1 SWAP4 POP JUMP JUMPDEST PUSH1 0x0 PUSH3 0x21D PUSH1 0x1C DUP4 PUSH3 0x257 JUMP JUMPDEST SWAP2 POP PUSH3 0x22A DUP3 PUSH3 0x2DA JUMP JUMPDEST PUSH1 0x20 DUP3 ADD SWAP1 POP SWAP2 SWAP1 POP JUMP JUMPDEST PUSH1 0x0 PUSH1 0x20 DUP3 ADD SWAP1 POP DUP2 DUP2 SUB PUSH1 0x0 DUP4 ADD MSTORE PUSH3 0x250 DUP2 PUSH3 0x20E JUMP JUMPDEST SWAP1 POP SWAP2 SWAP1 POP JUMP JUMPDEST PUSH1 0x0 DUP3 DUP3 MSTORE PUSH1 0x20 DUP3 ADD SWAP1 POP SWAP3 SWAP2 POP POP JUMP JUMPDEST PUSH1 0x0 PUSH3 0x275 DUP3 PUSH3 0x27C JUMP JUMPDEST SWAP1 POP SWAP2 SWAP1 POP JUMP JUMPDEST PUSH1 0x0 PUSH20 0xFFFFFFFFFFFFFFFFFFFFFFFFFFFFFFFFFFFFFFFF DUP3 AND SWAP1 POP SWAP2 SWAP1 POP JUMP JUMPDEST PUSH1 0x0 DUP2 SWAP1 POP SWAP2 SWAP1 POP JUMP JUMPDEST PUSH32 0x4E487B7100000000000000000000000000000000000000000000000000000000 PUSH1 0x0 MSTORE PUSH1 0x21 PUSH1 0x4 MSTORE PUSH1 0x24 PUSH1 0x0 REVERT JUMPDEST PUSH1 0x0 DUP1 REVERT JUMPDEST PUSH32 0x41206368696C64206A757374206F70656E656420697473206579657300000000 PUSH1 0x0 DUP3 ADD MSTORE POP JUMP JUMPDEST PUSH3 0x30E DUP2 PUSH3 0x268 JUMP JUMPDEST DUP2 EQ PUSH3 0x31A JUMPI PUSH1 0x0 DUP1 REVERT JUMPDEST POP JUMP JUMPDEST PUSH3 0x328 DUP2 PUSH3 0x29C JUMP JUMPDEST DUP2 EQ PUSH3 0x334 JUMPI PUSH1 0x0 DUP1 REVERT JUMPDEST POP JUMP JUMPDEST PUSH2 0x17F6 DUP1 PUSH3 0x347 PUSH1 0x0 CODECOPY PUSH1 0x0 RETURN INVALID PUSH1 0x80 PUSH1 0x40 MSTORE PUSH1 0x4 CALLDATASIZE LT PUSH2 0x9C JUMPI PUSH1 0x0 CALLDATALOAD PUSH1 0xE0 SHR DUP1 PUSH4 0x9F0C592E GT PUSH2 0x64 JUMPI DUP1 PUSH4 0x9F0C592E EQ PUSH2 0x13C JUMPI DUP1 PUSH4 0xA6601F2E EQ PUSH2 0x179 JUMPI DUP1 PUSH4 0xAE0ABA8C EQ PUSH2 0x190 JUMPI DUP1 PUSH4 0xC19D93FB EQ PUSH2 0x19A JUMPI DUP1 PUSH4 0xCA11BE69 EQ PUSH2 0x1C5 JUMPI DUP1 PUSH4 0xD12ABD8A EQ PUSH2 0x1EE JUMPI PUSH2 0x9C JUMP JUMPDEST DUP1 PUSH4 0x7CC692F EQ PUSH2 0xA1 JUMPI DUP1 PUSH4 0xC08BF88 EQ PUSH2 0xCC JUMPI DUP1 PUSH4 0x3B7104F2 EQ PUSH2 0xE3 JUMPI DUP1 PUSH4 0x78706079 EQ PUSH2 0xFA JUMPI DUP1 PUSH4 0x804D6B38 EQ PUSH2 0x125 JUMPI JUMPDEST PUSH1 0x0 DUP1 REVERT JUMPDEST CALLVALUE DUP1 ISZERO PUSH2 0xAD JUMPI PUSH1 0x0 DUP1 REVERT JUMPDEST POP PUSH2 0xB6 PUSH2 0x205 JUMP JUMPDEST PUSH1 0x40 MLOAD PUSH2 0xC3 SWAP2 SWAP1 PUSH2 0x13CA JUMP JUMPDEST PUSH1 0x40 MLOAD DUP1 SWAP2 SUB SWAP1 RETURN JUMPDEST CALLVALUE DUP1 ISZERO PUSH2 0xD8 JUMPI PUSH1 0x0 DUP1 REVERT JUMPDEST POP PUSH2 0xE1 PUSH2 0x223 JUMP JUMPDEST STOP JUMPDEST CALLVALUE DUP1 ISZERO PUSH2 0xEF JUMPI PUSH1 0x0 DUP1 REVERT JUMPDEST POP PUSH2 0xF8 PUSH2 0x507 JUMP JUMPDEST STOP JUMPDEST CALLVALUE DUP1 ISZERO PUSH2 0x106 JUMPI PUSH1 0x0 DUP1 REVERT JUMPDEST POP PUSH2 0x10F PUSH2 0x509 JUMP JUMPDEST PUSH1 0x40 MLOAD PUSH2 0x11C SWAP2 SWAP1 PUSH2 0x13CA JUMP JUMPDEST PUSH1 0x40 MLOAD DUP1 SWAP2 SUB SWAP1 RETURN JUMPDEST CALLVALUE DUP1 ISZERO PUSH2 0x131 JUMPI PUSH1 0x0 DUP1 REVERT JUMPDEST POP PUSH2 0x13A PUSH2 0x50F JUMP JUMPDEST STOP JUMPDEST CALLVALUE DUP1 ISZERO PUSH2 0x148 JUMPI PUSH1 0x0 DUP1 REVERT JUMPDEST POP PUSH2 0x163 PUSH1 0x4 DUP1 CALLDATASIZE SUB DUP2 ADD SWAP1 PUSH2 0x15E SWAP2 SWAP1 PUSH2 0x10D3 JUMP JUMPDEST PUSH2 0x712 JUMP JUMPDEST PUSH1 0x40 MLOAD PUSH2 0x170 SWAP2 SWAP1 PUSH2 0x1294 JUMP JUMPDEST PUSH1 0x40 MLOAD DUP1 SWAP2 SUB SWAP1 RETURN JUMPDEST CALLVALUE DUP1 ISZERO PUSH2 0x185 JUMPI PUSH1 0x0 DUP1 REVERT JUMPDEST POP PUSH2 0x18E PUSH2 0xA4B JUMP JUMPDEST STOP JUMPDEST PUSH2 0x198 PUSH2 0xBA8 JUMP JUMPDEST STOP JUMPDEST CALLVALUE DUP1 ISZERO PUSH2 0x1A6 JUMPI PUSH1 0x0 DUP1 REVERT JUMPDEST POP PUSH2 0x1AF PUSH2 0xCFC JUMP JUMPDEST PUSH1 0x40 MLOAD PUSH2 0x1BC SWAP2 SWAP1 PUSH2 0x12AF JUMP JUMPDEST PUSH1 0x40 MLOAD DUP1 SWAP2 SUB SWAP1 RETURN JUMPDEST CALLVALUE DUP1 ISZERO PUSH2 0x1D1 JUMPI PUSH1 0x0 DUP1 REVERT JUMPDEST POP PUSH2 0x1EC PUSH1 0x4 DUP1 CALLDATASIZE SUB DUP2 ADD SWAP1 PUSH2 0x1E7 SWAP2 SWAP1 PUSH2 0x10D3 JUMP JUMPDEST PUSH2 0xD0F JUMP JUMPDEST STOP JUMPDEST CALLVALUE DUP1 ISZERO PUSH2 0x1FA JUMPI PUSH1 0x0 DUP1 REVERT JUMPDEST POP PUSH2 0x203 PUSH2 0xE4B JUMP JUMPDEST STOP JUMPDEST PUSH1 0x0 PUSH2 0x21E PUSH1 0x7 SLOAD PUSH1 0x6 SLOAD PUSH2 0x104E SWAP1 SWAP2 SWAP1 PUSH4 0xFFFFFFFF AND JUMP JUMPDEST SWAP1 POP SWAP1 JUMP JUMPDEST PUSH1 0x0 DUP1 SLOAD SWAP1 PUSH2 0x100 EXP SWAP1 DIV PUSH20 0xFFFFFFFFFFFFFFFFFFFFFFFFFFFFFFFFFFFFFFFF AND PUSH20 0xFFFFFFFFFFFFFFFFFFFFFFFFFFFFFFFFFFFFFFFF AND CALLER PUSH20 0xFFFFFFFFFFFFFFFFFFFFFFFFFFFFFFFFFFFFFFFF AND EQ DUP1 PUSH2 0x2CA JUMPI POP PUSH1 0x1 PUSH1 0x0 SWAP1 SLOAD SWAP1 PUSH2 0x100 EXP SWAP1 DIV PUSH20 0xFFFFFFFFFFFFFFFFFFFFFFFFFFFFFFFFFFFFFFFF AND PUSH20 0xFFFFFFFFFFFFFFFFFFFFFFFFFFFFFFFFFFFFFFFF AND CALLER PUSH20 0xFFFFFFFFFFFFFFFFFFFFFFFFFFFFFFFFFFFFFFFF AND EQ JUMPDEST PUSH2 0x309 JUMPI PUSH1 0x40 MLOAD PUSH32 0x8C379A000000000000000000000000000000000000000000000000000000000 DUP2 MSTORE PUSH1 0x4 ADD PUSH2 0x300 SWAP1 PUSH2 0x12EA JUMP JUMPDEST PUSH1 0x40 MLOAD DUP1 SWAP2 SUB SWAP1 REVERT JUMPDEST PUSH1 0x1 PUSH1 0x3 DUP2 GT ISZERO PUSH2 0x31D JUMPI PUSH2 0x31C PUSH2 0x1553 JUMP JUMPDEST JUMPDEST PUSH1 0x5 PUSH1 0x0 SWAP1 SLOAD SWAP1 PUSH2 0x100 EXP SWAP1 DIV PUSH1 0xFF AND PUSH1 0x3 DUP2 GT ISZERO PUSH2 0x33F JUMPI PUSH2 0x33E PUSH2 0x1553 JUMP JUMPDEST JUMPDEST EQ DUP1 PUSH2 0x34C JUMPI POP PUSH1 0x2 SLOAD TIMESTAMP GT JUMPDEST ISZERO PUSH2 0x3AE JUMPI PUSH1 0x1 PUSH1 0x5 PUSH1 0x0 PUSH2 0x100 EXP DUP2 SLOAD DUP2 PUSH1 0xFF MUL NOT AND SWAP1 DUP4 PUSH1 0x3 DUP2 GT ISZERO PUSH2 0x377 JUMPI PUSH2 0x376 PUSH2 0x1553 JUMP JUMPDEST JUMPDEST MUL OR SWAP1 SSTORE POP PUSH1 0x40 MLOAD PUSH32 0x203D82D800000000000000000000000000000000000000000000000000000000 DUP2 MSTORE PUSH1 0x4 ADD PUSH1 0x40 MLOAD DUP1 SWAP2 SUB SWAP1 REVERT JUMPDEST PUSH1 0x2 PUSH1 0x3 DUP2 GT ISZERO PUSH2 0x3C2 JUMPI PUSH2 0x3C1 PUSH2 0x1553 JUMP JUMPDEST JUMPDEST PUSH1 0x5 PUSH1 0x0 SWAP1 SLOAD SWAP1 PUSH2 0x100 EXP SWAP1 DIV PUSH1 0xFF AND PUSH1 0x3 DUP2 GT ISZERO PUSH2 0x3E4 JUMPI PUSH2 0x3E3 PUSH2 0x1553 JUMP JUMPDEST JUMPDEST EQ PUSH2 0x424 JUMPI PUSH1 0x40 MLOAD PUSH32 0x8C379A000000000000000000000000000000000000000000000000000000000 DUP2 MSTORE PUSH1 0x4 ADD PUSH2 0x41B SWAP1 PUSH2 0x12CA JUMP JUMPDEST PUSH1 0x40 MLOAD DUP1 SWAP2 SUB SWAP1 REVERT JUMPDEST PUSH1 0x0 PUSH1 0x7 SLOAD EQ PUSH2 0x469 JUMPI PUSH1 0x40 MLOAD PUSH32 0x8C379A000000000000000000000000000000000000000000000000000000000 DUP2 MSTORE PUSH1 0x4 ADD PUSH2 0x460 SWAP1 PUSH2 0x132A JUMP JUMPDEST PUSH1 0x40 MLOAD DUP1 SWAP2 SUB SWAP1 REVERT JUMPDEST PUSH1 0x0 PUSH1 0xB SLOAD EQ PUSH2 0x4AE JUMPI PUSH1 0x40 MLOAD PUSH32 0x8C379A000000000000000000000000000000000000000000000000000000000 DUP2 MSTORE PUSH1 0x4 ADD PUSH2 0x4A5 SWAP1 PUSH2 0x134A JUMP JUMPDEST PUSH1 0x40 MLOAD DUP1 SWAP2 SUB SWAP1 REVERT JUMPDEST PUSH1 0x3 PUSH1 0x5 PUSH1 0x0 PUSH2 0x100 EXP DUP2 SLOAD DUP2 PUSH1 0xFF MUL NOT AND SWAP1 DUP4 PUSH1 0x3 DUP2 GT ISZERO PUSH2 0x4D4 JUMPI PUSH2 0x4D3 PUSH2 0x1553 JUMP JUMPDEST JUMPDEST MUL OR SWAP1 SSTORE POP PUSH32 0x6D0D90585834980BD0E5603341FF50B06349C11E0BF9241D03F6D065F12A262B PUSH1 0x40 MLOAD PUSH1 0x40 MLOAD DUP1 SWAP2 SUB SWAP1 LOG1 JUMP JUMPDEST JUMP JUMPDEST PUSH1 0x2 SLOAD DUP2 JUMP JUMPDEST PUSH1 0x0 DUP1 SLOAD SWAP1 PUSH2 0x100 EXP SWAP1 DIV PUSH20 0xFFFFFFFFFFFFFFFFFFFFFFFFFFFFFFFFFFFFFFFF AND PUSH20 0xFFFFFFFFFFFFFFFFFFFFFFFFFFFFFFFFFFFFFFFF AND CALLER PUSH20 0xFFFFFFFFFFFFFFFFFFFFFFFFFFFFFFFFFFFFFFFF AND EQ DUP1 PUSH2 0x5B6 JUMPI POP PUSH1 0x1 PUSH1 0x0 SWAP1 SLOAD SWAP1 PUSH2 0x100 EXP SWAP1 DIV PUSH20 0xFFFFFFFFFFFFFFFFFFFFFFFFFFFFFFFFFFFFFFFF AND PUSH20 0xFFFFFFFFFFFFFFFFFFFFFFFFFFFFFFFFFFFFFFFF AND CALLER PUSH20 0xFFFFFFFFFFFFFFFFFFFFFFFFFFFFFFFFFFFFFFFF AND EQ JUMPDEST PUSH2 0x5F5 JUMPI PUSH1 0x40 MLOAD PUSH32 0x8C379A000000000000000000000000000000000000000000000000000000000 DUP2 MSTORE PUSH1 0x4 ADD PUSH2 0x5EC SWAP1 PUSH2 0x12EA JUMP JUMPDEST PUSH1 0x40 MLOAD DUP1 SWAP2 SUB SWAP1 REVERT JUMPDEST PUSH1 0x1 PUSH1 0x3 DUP2 GT ISZERO PUSH2 0x609 JUMPI PUSH2 0x608 PUSH2 0x1553 JUMP JUMPDEST JUMPDEST PUSH1 0x5 PUSH1 0x0 SWAP1 SLOAD SWAP1 PUSH2 0x100 EXP SWAP1 DIV PUSH1 0xFF AND PUSH1 0x3 DUP2 GT ISZERO PUSH2 0x62B JUMPI PUSH2 0x62A PUSH2 0x1553 JUMP JUMPDEST JUMPDEST EQ DUP1 PUSH2 0x638 JUMPI POP PUSH1 0x2 SLOAD TIMESTAMP GT JUMPDEST ISZERO PUSH2 0x69A JUMPI PUSH1 0x1 PUSH1 0x5 PUSH1 0x0 PUSH2 0x100 EXP DUP2 SLOAD DUP2 PUSH1 0xFF MUL NOT AND SWAP1 DUP4 PUSH1 0x3 DUP2 GT ISZERO PUSH2 0x663 JUMPI PUSH2 0x662 PUSH2 0x1553 JUMP JUMPDEST JUMPDEST MUL OR SWAP1 SSTORE POP PUSH1 0x40 MLOAD PUSH32 0x203D82D800000000000000000000000000000000000000000000000000000000 DUP2 MSTORE PUSH1 0x4 ADD PUSH1 0x40 MLOAD DUP1 SWAP2 SUB SWAP1 REVERT JUMPDEST PUSH1 0x2 PUSH1 0x3 DUP2 GT ISZERO PUSH2 0x6AE JUMPI PUSH2 0x6AD PUSH2 0x1553 JUMP JUMPDEST JUMPDEST PUSH1 0x5 PUSH1 0x0 SWAP1 SLOAD SWAP1 PUSH2 0x100 EXP SWAP1 DIV PUSH1 0xFF AND PUSH1 0x3 DUP2 GT ISZERO PUSH2 0x6D0 JUMPI PUSH2 0x6CF PUSH2 0x1553 JUMP JUMPDEST JUMPDEST EQ PUSH2 0x710 JUMPI PUSH1 0x40 MLOAD PUSH32 0x8C379A000000000000000000000000000000000000000000000000000000000 DUP2 MSTORE PUSH1 0x4 ADD PUSH2 0x707 SWAP1 PUSH2 0x12CA JUMP JUMPDEST PUSH1 0x40 MLOAD DUP1 SWAP2 SUB SWAP1 REVERT JUMPDEST JUMP JUMPDEST PUSH1 0x0 DUP1 PUSH1 0x0 SWAP1 SLOAD SWAP1 PUSH2 0x100 EXP SWAP1 DIV PUSH20 0xFFFFFFFFFFFFFFFFFFFFFFFFFFFFFFFFFFFFFFFF AND PUSH20 0xFFFFFFFFFFFFFFFFFFFFFFFFFFFFFFFFFFFFFFFF AND CALLER PUSH20 0xFFFFFFFFFFFFFFFFFFFFFFFFFFFFFFFFFFFFFFFF AND EQ DUP1 PUSH2 0x7BC JUMPI POP PUSH1 0x1 PUSH1 0x0 SWAP1 SLOAD SWAP1 PUSH2 0x100 EXP SWAP1 DIV PUSH20 0xFFFFFFFFFFFFFFFFFFFFFFFFFFFFFFFFFFFFFFFF AND PUSH20 0xFFFFFFFFFFFFFFFFFFFFFFFFFFFFFFFFFFFFFFFF AND CALLER PUSH20 0xFFFFFFFFFFFFFFFFFFFFFFFFFFFFFFFFFFFFFFFF AND EQ JUMPDEST PUSH2 0x7FB JUMPI PUSH1 0x40 MLOAD PUSH32 0x8C379A000000000000000000000000000000000000000000000000000000000 DUP2 MSTORE PUSH1 0x4 ADD PUSH2 0x7F2 SWAP1 PUSH2 0x12EA JUMP JUMPDEST PUSH1 0x40 MLOAD DUP1 SWAP2 SUB SWAP1 REVERT JUMPDEST PUSH1 0x1 PUSH1 0x3 DUP2 GT ISZERO PUSH2 0x80F JUMPI PUSH2 0x80E PUSH2 0x1553 JUMP JUMPDEST JUMPDEST PUSH1 0x5 PUSH1 0x0 SWAP1 SLOAD SWAP1 PUSH2 0x100 EXP SWAP1 DIV PUSH1 0xFF AND PUSH1 0x3 DUP2 GT ISZERO PUSH2 0x831 JUMPI PUSH2 0x830 PUSH2 0x1553 JUMP JUMPDEST JUMPDEST EQ DUP1 PUSH2 0x83E JUMPI POP PUSH1 0x2 SLOAD TIMESTAMP GT JUMPDEST ISZERO PUSH2 0x8A0 JUMPI PUSH1 0x1 PUSH1 0x5 PUSH1 0x0 PUSH2 0x100 EXP DUP2 SLOAD DUP2 PUSH1 0xFF MUL NOT AND SWAP1 DUP4 PUSH1 0x3 DUP2 GT ISZERO PUSH2 0x869 JUMPI PUSH2 0x868 PUSH2 0x1553 JUMP JUMPDEST JUMPDEST MUL OR SWAP1 SSTORE POP PUSH1 0x40 MLOAD PUSH32 0x203D82D800000000000000000000000000000000000000000000000000000000 DUP2 MSTORE PUSH1 0x4 ADD PUSH1 0x40 MLOAD DUP1 SWAP2 SUB SWAP1 REVERT JUMPDEST PUSH1 0x2 PUSH1 0x3 DUP2 GT ISZERO PUSH2 0x8B4 JUMPI PUSH2 0x8B3 PUSH2 0x1553 JUMP JUMPDEST JUMPDEST PUSH1 0x5 PUSH1 0x0 SWAP1 SLOAD SWAP1 PUSH2 0x100 EXP SWAP1 DIV PUSH1 0xFF AND PUSH1 0x3 DUP2 GT ISZERO PUSH2 0x8D6 JUMPI PUSH2 0x8D5 PUSH2 0x1553 JUMP JUMPDEST JUMPDEST EQ PUSH2 0x916 JUMPI PUSH1 0x40 MLOAD PUSH32 0x8C379A000000000000000000000000000000000000000000000000000000000 DUP2 MSTORE PUSH1 0x4 ADD PUSH2 0x90D SWAP1 PUSH2 0x12CA JUMP JUMPDEST PUSH1 0x40 MLOAD DUP1 SWAP2 SUB SWAP1 REVERT JUMPDEST PUSH2 0x91E PUSH2 0x507 JUMP JUMPDEST PUSH2 0x926 PUSH2 0x205 JUMP JUMPDEST DUP3 GT ISZERO PUSH2 0x968 JUMPI PUSH1 0x40 MLOAD PUSH32 0x8C379A000000000000000000000000000000000000000000000000000000000 DUP2 MSTORE PUSH1 0x4 ADD PUSH2 0x95F SWAP1 PUSH2 0x13AA JUMP JUMPDEST PUSH1 0x40 MLOAD DUP1 SWAP2 SUB SWAP1 REVERT JUMPDEST PUSH1 0x0 PUSH1 0x3 PUSH1 0x0 SWAP1 SLOAD SWAP1 PUSH2 0x100 EXP SWAP1 DIV PUSH20 0xFFFFFFFFFFFFFFFFFFFFFFFFFFFFFFFFFFFFFFFF AND PUSH20 0xFFFFFFFFFFFFFFFFFFFFFFFFFFFFFFFFFFFFFFFF AND PUSH4 0xBC134AE3 PUSH1 0x4 SLOAD DUP7 DUP7 PUSH1 0x40 MLOAD DUP5 PUSH4 0xFFFFFFFF AND PUSH1 0xE0 SHL DUP2 MSTORE PUSH1 0x4 ADD PUSH2 0x9CB SWAP4 SWAP3 SWAP2 SWAP1 PUSH2 0x13E5 JUMP JUMPDEST PUSH1 0x20 PUSH1 0x40 MLOAD DUP1 DUP4 SUB DUP2 PUSH1 0x0 DUP8 DUP1 EXTCODESIZE ISZERO DUP1 ISZERO PUSH2 0x9E5 JUMPI PUSH1 0x0 DUP1 REVERT JUMPDEST POP GAS CALL ISZERO DUP1 ISZERO PUSH2 0x9F9 JUMPI RETURNDATASIZE PUSH1 0x0 DUP1 RETURNDATACOPY RETURNDATASIZE PUSH1 0x0 REVERT JUMPDEST POP POP POP POP PUSH1 0x40 MLOAD RETURNDATASIZE PUSH1 0x1F NOT PUSH1 0x1F DUP3 ADD AND DUP3 ADD DUP1 PUSH1 0x40 MSTORE POP DUP2 ADD SWAP1 PUSH2 0xA1D SWAP2 SWAP1 PUSH2 0x1113 JUMP JUMPDEST SWAP1 POP DUP1 ISZERO PUSH2 0xA41 JUMPI PUSH2 0xA3A DUP4 PUSH1 0x7 SLOAD PUSH2 0x1071 SWAP1 SWAP2 SWAP1 PUSH4 0xFFFFFFFF AND JUMP JUMPDEST PUSH1 0x7 DUP2 SWAP1 SSTORE POP JUMPDEST DUP1 SWAP2 POP POP SWAP3 SWAP2 POP POP JUMP JUMPDEST PUSH1 0x0 DUP1 SLOAD SWAP1 PUSH2 0x100 EXP SWAP1 DIV PUSH20 0xFFFFFFFFFFFFFFFFFFFFFFFFFFFFFFFFFFFFFFFF AND PUSH20 0xFFFFFFFFFFFFFFFFFFFFFFFFFFFFFFFFFFFFFFFF AND CALLER PUSH20 0xFFFFFFFFFFFFFFFFFFFFFFFFFFFFFFFFFFFFFFFF AND EQ PUSH2 0xAD9 JUMPI PUSH1 0x40 MLOAD PUSH32 0x8C379A000000000000000000000000000000000000000000000000000000000 DUP2 MSTORE PUSH1 0x4 ADD PUSH2 0xAD0 SWAP1 PUSH2 0x138A JUMP JUMPDEST PUSH1 0x40 MLOAD DUP1 SWAP2 SUB SWAP1 REVERT JUMPDEST PUSH1 0x2 PUSH1 0x3 DUP2 GT ISZERO PUSH2 0xAED JUMPI PUSH2 0xAEC PUSH2 0x1553 JUMP JUMPDEST JUMPDEST PUSH1 0x5 PUSH1 0x0 SWAP1 SLOAD SWAP1 PUSH2 0x100 EXP SWAP1 DIV PUSH1 0xFF AND PUSH1 0x3 DUP2 GT ISZERO PUSH2 0xB0F JUMPI PUSH2 0xB0E PUSH2 0x1553 JUMP JUMPDEST JUMPDEST EQ PUSH2 0xB4F JUMPI PUSH1 0x40 MLOAD PUSH32 0x8C379A000000000000000000000000000000000000000000000000000000000 DUP2 MSTORE PUSH1 0x4 ADD PUSH2 0xB46 SWAP1 PUSH2 0x12CA JUMP JUMPDEST PUSH1 0x40 MLOAD DUP1 SWAP2 SUB SWAP1 REVERT JUMPDEST PUSH1 0x0 PUSH1 0xB SLOAD SWAP1 POP PUSH1 0x0 PUSH1 0xB DUP2 SWAP1 SSTORE POP CALLER PUSH20 0xFFFFFFFFFFFFFFFFFFFFFFFFFFFFFFFFFFFFFFFF AND PUSH2 0x8FC DUP3 SWAP1 DUP2 ISZERO MUL SWAP1 PUSH1 0x40 MLOAD PUSH1 0x0 PUSH1 0x40 MLOAD DUP1 DUP4 SUB DUP2 DUP6 DUP9 DUP9 CALL SWAP4 POP POP POP POP ISZERO DUP1 ISZERO PUSH2 0xBA4 JUMPI RETURNDATASIZE PUSH1 0x0 DUP1 RETURNDATACOPY RETURNDATASIZE PUSH1 0x0 REVERT JUMPDEST POP POP JUMP JUMPDEST PUSH1 0x0 DUP1 SLOAD SWAP1 PUSH2 0x100 EXP SWAP1 DIV PUSH20 0xFFFFFFFFFFFFFFFFFFFFFFFFFFFFFFFFFFFFFFFF AND PUSH20 0xFFFFFFFFFFFFFFFFFFFFFFFFFFFFFFFFFFFFFFFF AND CALLER PUSH20 0xFFFFFFFFFFFFFFFFFFFFFFFFFFFFFFFFFFFFFFFF AND EQ PUSH2 0xC36 JUMPI PUSH1 0x40 MLOAD PUSH32 0x8C379A000000000000000000000000000000000000000000000000000000000 DUP2 MSTORE PUSH1 0x4 ADD PUSH2 0xC2D SWAP1 PUSH2 0x138A JUMP JUMPDEST PUSH1 0x40 MLOAD DUP1 SWAP2 SUB SWAP1 REVERT JUMPDEST PUSH1 0x2 PUSH1 0x3 DUP2 GT ISZERO PUSH2 0xC4A JUMPI PUSH2 0xC49 PUSH2 0x1553 JUMP JUMPDEST JUMPDEST PUSH1 0x5 PUSH1 0x0 SWAP1 SLOAD SWAP1 PUSH2 0x100 EXP SWAP1 DIV PUSH1 0xFF AND PUSH1 0x3 DUP2 GT ISZERO PUSH2 0xC6C JUMPI PUSH2 0xC6B PUSH2 0x1553 JUMP JUMPDEST JUMPDEST EQ PUSH2 0xCAC JUMPI PUSH1 0x40 MLOAD PUSH32 0x8C379A000000000000000000000000000000000000000000000000000000000 DUP2 MSTORE PUSH1 0x4 ADD PUSH2 0xCA3 SWAP1 PUSH2 0x12CA JUMP JUMPDEST PUSH1 0x40 MLOAD DUP1 SWAP2 SUB SWAP1 REVERT JUMPDEST PUSH1 0x7 SLOAD CALLVALUE GT ISZERO PUSH2 0xCDE JUMPI PUSH2 0xCCB PUSH1 0x7 SLOAD CALLVALUE PUSH2 0x104E SWAP1 SWAP2 SWAP1 PUSH4 0xFFFFFFFF AND JUMP JUMPDEST PUSH1 0xB DUP2 SWAP1 SSTORE POP PUSH1 0x0 PUSH1 0x7 DUP2 SWAP1 SSTORE POP PUSH2 0xCFA JUMP JUMPDEST PUSH2 0xCF3 CALLVALUE PUSH1 0x7 SLOAD PUSH2 0x104E SWAP1 SWAP2 SWAP1 PUSH4 0xFFFFFFFF AND JUMP JUMPDEST PUSH1 0x7 DUP2 SWAP1 SSTORE POP JUMPDEST JUMP JUMPDEST PUSH1 0x5 PUSH1 0x0 SWAP1 SLOAD SWAP1 PUSH2 0x100 EXP SWAP1 DIV PUSH1 0xFF AND DUP2 JUMP JUMPDEST PUSH1 0x1 PUSH1 0x0 SWAP1 SLOAD SWAP1 PUSH2 0x100 EXP SWAP1 DIV PUSH20 0xFFFFFFFFFFFFFFFFFFFFFFFFFFFFFFFFFFFFFFFF AND PUSH20 0xFFFFFFFFFFFFFFFFFFFFFFFFFFFFFFFFFFFFFFFF AND CALLER PUSH20 0xFFFFFFFFFFFFFFFFFFFFFFFFFFFFFFFFFFFFFFFF AND EQ PUSH2 0xD9F JUMPI PUSH1 0x40 MLOAD PUSH32 0x8C379A000000000000000000000000000000000000000000000000000000000 DUP2 MSTORE PUSH1 0x4 ADD PUSH2 0xD96 SWAP1 PUSH2 0x130A JUMP JUMPDEST PUSH1 0x40 MLOAD DUP1 SWAP2 SUB SWAP1 REVERT JUMPDEST DUP2 PUSH1 0x3 PUSH1 0x0 PUSH2 0x100 EXP DUP2 SLOAD DUP2 PUSH20 0xFFFFFFFFFFFFFFFFFFFFFFFFFFFFFFFFFFFFFFFF MUL NOT AND SWAP1 DUP4 PUSH20 0xFFFFFFFFFFFFFFFFFFFFFFFFFFFFFFFFFFFFFFFF AND MUL OR SWAP1 SSTORE POP DUP1 PUSH1 0x4 DUP2 SWAP1 SSTORE POP PUSH1 0x2 PUSH1 0x5 PUSH1 0x0 PUSH2 0x100 EXP DUP2 SLOAD DUP2 PUSH1 0xFF MUL NOT AND SWAP1 DUP4 PUSH1 0x3 DUP2 GT ISZERO PUSH2 0xE0D JUMPI PUSH2 0xE0C PUSH2 0x1553 JUMP JUMPDEST JUMPDEST MUL OR SWAP1 SSTORE POP PUSH32 0x33AAA92ADE0FE3FAFFF12EA74532E26E083FA605080DA1DA64693A9D8AF268A3 PUSH1 0x40 MLOAD PUSH2 0xE3F SWAP1 PUSH2 0x136A JUMP JUMPDEST PUSH1 0x40 MLOAD DUP1 SWAP2 SUB SWAP1 LOG1 POP POP JUMP JUMPDEST PUSH1 0x0 DUP1 SLOAD SWAP1 PUSH2 0x100 EXP SWAP1 DIV PUSH20 0xFFFFFFFFFFFFFFFFFFFFFFFFFFFFFFFFFFFFFFFF AND PUSH20 0xFFFFFFFFFFFFFFFFFFFFFFFFFFFFFFFFFFFFFFFF AND CALLER PUSH20 0xFFFFFFFFFFFFFFFFFFFFFFFFFFFFFFFFFFFFFFFF AND EQ DUP1 PUSH2 0xEF2 JUMPI POP PUSH1 0x1 PUSH1 0x0 SWAP1 SLOAD SWAP1 PUSH2 0x100 EXP SWAP1 DIV PUSH20 0xFFFFFFFFFFFFFFFFFFFFFFFFFFFFFFFFFFFFFFFF AND PUSH20 0xFFFFFFFFFFFFFFFFFFFFFFFFFFFFFFFFFFFFFFFF AND CALLER PUSH20 0xFFFFFFFFFFFFFFFFFFFFFFFFFFFFFFFFFFFFFFFF AND EQ JUMPDEST PUSH2 0xF31 JUMPI PUSH1 0x40 MLOAD PUSH32 0x8C379A000000000000000000000000000000000000000000000000000000000 DUP2 MSTORE PUSH1 0x4 ADD PUSH2 0xF28 SWAP1 PUSH2 0x12EA JUMP JUMPDEST PUSH1 0x40 MLOAD DUP1 SWAP2 SUB SWAP1 REVERT JUMPDEST PUSH1 0x1 PUSH1 0x3 DUP2 GT ISZERO PUSH2 0xF45 JUMPI PUSH2 0xF44 PUSH2 0x1553 JUMP JUMPDEST JUMPDEST PUSH1 0x5 PUSH1 0x0 SWAP1 SLOAD SWAP1 PUSH2 0x100 EXP SWAP1 DIV PUSH1 0xFF AND PUSH1 0x3 DUP2 GT ISZERO PUSH2 0xF67 JUMPI PUSH2 0xF66 PUSH2 0x1553 JUMP JUMPDEST JUMPDEST EQ DUP1 PUSH2 0xF74 JUMPI POP PUSH1 0x2 SLOAD TIMESTAMP GT JUMPDEST ISZERO PUSH2 0xFD6 JUMPI PUSH1 0x1 PUSH1 0x5 PUSH1 0x0 PUSH2 0x100 EXP DUP2 SLOAD DUP2 PUSH1 0xFF MUL NOT AND SWAP1 DUP4 PUSH1 0x3 DUP2 GT ISZERO PUSH2 0xF9F JUMPI PUSH2 0xF9E PUSH2 0x1553 JUMP JUMPDEST JUMPDEST MUL OR SWAP1 SSTORE POP PUSH1 0x40 MLOAD PUSH32 0x203D82D800000000000000000000000000000000000000000000000000000000 DUP2 MSTORE PUSH1 0x4 ADD PUSH1 0x40 MLOAD DUP1 SWAP2 SUB SWAP1 REVERT JUMPDEST PUSH1 0x2 PUSH1 0x3 DUP2 GT ISZERO PUSH2 0xFEA JUMPI PUSH2 0xFE9 PUSH2 0x1553 JUMP JUMPDEST JUMPDEST PUSH1 0x5 PUSH1 0x0 SWAP1 SLOAD SWAP1 PUSH2 0x100 EXP SWAP1 DIV PUSH1 0xFF AND PUSH1 0x3 DUP2 GT ISZERO PUSH2 0x100C JUMPI PUSH2 0x100B PUSH2 0x1553 JUMP JUMPDEST JUMPDEST EQ PUSH2 0x104C JUMPI PUSH1 0x40 MLOAD PUSH32 0x8C379A000000000000000000000000000000000000000000000000000000000 DUP2 MSTORE PUSH1 0x4 ADD PUSH2 0x1043 SWAP1 PUSH2 0x12CA JUMP JUMPDEST PUSH1 0x40 MLOAD DUP1 SWAP2 SUB SWAP1 REVERT JUMPDEST JUMP JUMPDEST PUSH1 0x0 DUP3 DUP3 GT ISZERO PUSH2 0x105D JUMPI PUSH1 0x0 DUP1 REVERT JUMPDEST DUP2 DUP4 PUSH2 0x1069 SWAP2 SWAP1 PUSH2 0x1483 JUMP JUMPDEST SWAP1 POP SWAP3 SWAP2 POP POP JUMP JUMPDEST PUSH1 0x0 DUP2 DUP4 PUSH2 0x107F SWAP2 SWAP1 PUSH2 0x142D JUMP JUMPDEST SWAP1 POP DUP3 DUP2 LT ISZERO PUSH2 0x108E JUMPI PUSH1 0x0 DUP1 REVERT JUMPDEST SWAP3 SWAP2 POP POP JUMP JUMPDEST PUSH1 0x0 DUP2 CALLDATALOAD SWAP1 POP PUSH2 0x10A3 DUP2 PUSH2 0x177B JUMP JUMPDEST SWAP3 SWAP2 POP POP JUMP JUMPDEST PUSH1 0x0 DUP2 MLOAD SWAP1 POP PUSH2 0x10B8 DUP2 PUSH2 0x1792 JUMP JUMPDEST SWAP3 SWAP2 POP POP JUMP JUMPDEST PUSH1 0x0 DUP2 CALLDATALOAD SWAP1 POP PUSH2 0x10CD DUP2 PUSH2 0x17A9 JUMP JUMPDEST SWAP3 SWAP2 POP POP JUMP JUMPDEST PUSH1 0x0 DUP1 PUSH1 0x40 DUP4 DUP6 SUB SLT ISZERO PUSH2 0x10EA JUMPI PUSH2 0x10E9 PUSH2 0x1582 JUMP JUMPDEST JUMPDEST PUSH1 0x0 PUSH2 0x10F8 DUP6 DUP3 DUP7 ADD PUSH2 0x1094 JUMP JUMPDEST SWAP3 POP POP PUSH1 0x20 PUSH2 0x1109 DUP6 DUP3 DUP7 ADD PUSH2 0x10BE JUMP JUMPDEST SWAP2 POP POP SWAP3 POP SWAP3 SWAP1 POP JUMP JUMPDEST PUSH1 0x0 PUSH1 0x20 DUP3 DUP5 SUB SLT ISZERO PUSH2 0x1129 JUMPI PUSH2 0x1128 PUSH2 0x1582 JUMP JUMPDEST JUMPDEST PUSH1 0x0 PUSH2 0x1137 DUP5 DUP3 DUP6 ADD PUSH2 0x10A9 JUMP JUMPDEST SWAP2 POP POP SWAP3 SWAP2 POP POP JUMP JUMPDEST PUSH2 0x1149 DUP2 PUSH2 0x14B7 JUMP JUMPDEST DUP3 MSTORE POP POP JUMP JUMPDEST PUSH2 0x1158 DUP2 PUSH2 0x14C9 JUMP JUMPDEST DUP3 MSTORE POP POP JUMP JUMPDEST PUSH2 0x1167 DUP2 PUSH2 0x1512 JUMP JUMPDEST DUP3 MSTORE POP POP JUMP JUMPDEST PUSH1 0x0 PUSH2 0x117A PUSH1 0x1B DUP4 PUSH2 0x141C JUMP JUMPDEST SWAP2 POP PUSH2 0x1185 DUP3 PUSH2 0x1587 JUMP JUMPDEST PUSH1 0x20 DUP3 ADD SWAP1 POP SWAP2 SWAP1 POP JUMP JUMPDEST PUSH1 0x0 PUSH2 0x119D PUSH1 0x11 DUP4 PUSH2 0x141C JUMP JUMPDEST SWAP2 POP PUSH2 0x11A8 DUP3 PUSH2 0x15B0 JUMP JUMPDEST PUSH1 0x20 DUP3 ADD SWAP1 POP SWAP2 SWAP1 POP JUMP JUMPDEST PUSH1 0x0 PUSH2 0x11C0 PUSH1 0x22 DUP4 PUSH2 0x141C JUMP JUMPDEST SWAP2 POP PUSH2 0x11CB DUP3 PUSH2 0x15D9 JUMP JUMPDEST PUSH1 0x40 DUP3 ADD SWAP1 POP SWAP2 SWAP1 POP JUMP JUMPDEST PUSH1 0x0 PUSH2 0x11E3 PUSH1 0x2B DUP4 PUSH2 0x141C JUMP JUMPDEST SWAP2 POP PUSH2 0x11EE DUP3 PUSH2 0x1628 JUMP JUMPDEST PUSH1 0x40 DUP3 ADD SWAP1 POP SWAP2 SWAP1 POP JUMP JUMPDEST PUSH1 0x0 PUSH2 0x1206 PUSH1 0x30 DUP4 PUSH2 0x141C JUMP JUMPDEST SWAP2 POP PUSH2 0x1211 DUP3 PUSH2 0x1677 JUMP JUMPDEST PUSH1 0x40 DUP3 ADD SWAP1 POP SWAP2 SWAP1 POP JUMP JUMPDEST PUSH1 0x0 PUSH2 0x1229 PUSH1 0x12 DUP4 PUSH2 0x141C JUMP JUMPDEST SWAP2 POP PUSH2 0x1234 DUP3 PUSH2 0x16C6 JUMP JUMPDEST PUSH1 0x20 DUP3 ADD SWAP1 POP SWAP2 SWAP1 POP JUMP JUMPDEST PUSH1 0x0 PUSH2 0x124C PUSH1 0x20 DUP4 PUSH2 0x141C JUMP JUMPDEST SWAP2 POP PUSH2 0x1257 DUP3 PUSH2 0x16EF JUMP JUMPDEST PUSH1 0x20 DUP3 ADD SWAP1 POP SWAP2 SWAP1 POP JUMP JUMPDEST PUSH1 0x0 PUSH2 0x126F PUSH1 0x22 DUP4 PUSH2 0x141C JUMP JUMPDEST SWAP2 POP PUSH2 0x127A DUP3 PUSH2 0x1718 JUMP JUMPDEST PUSH1 0x40 DUP3 ADD SWAP1 POP SWAP2 SWAP1 POP JUMP JUMPDEST PUSH2 0x128E DUP2 PUSH2 0x1508 JUMP JUMPDEST DUP3 MSTORE POP POP JUMP JUMPDEST PUSH1 0x0 PUSH1 0x20 DUP3 ADD SWAP1 POP PUSH2 0x12A9 PUSH1 0x0 DUP4 ADD DUP5 PUSH2 0x114F JUMP JUMPDEST SWAP3 SWAP2 POP POP JUMP JUMPDEST PUSH1 0x0 PUSH1 0x20 DUP3 ADD SWAP1 POP PUSH2 0x12C4 PUSH1 0x0 DUP4 ADD DUP5 PUSH2 0x115E JUMP JUMPDEST SWAP3 SWAP2 POP POP JUMP JUMPDEST PUSH1 0x0 PUSH1 0x20 DUP3 ADD SWAP1 POP DUP2 DUP2 SUB PUSH1 0x0 DUP4 ADD MSTORE PUSH2 0x12E3 DUP2 PUSH2 0x116D JUMP JUMPDEST SWAP1 POP SWAP2 SWAP1 POP JUMP JUMPDEST PUSH1 0x0 PUSH1 0x20 DUP3 ADD SWAP1 POP DUP2 DUP2 SUB PUSH1 0x0 DUP4 ADD MSTORE PUSH2 0x1303 DUP2 PUSH2 0x1190 JUMP JUMPDEST SWAP1 POP SWAP2 SWAP1 POP JUMP JUMPDEST PUSH1 0x0 PUSH1 0x20 DUP3 ADD SWAP1 POP DUP2 DUP2 SUB PUSH1 0x0 DUP4 ADD MSTORE PUSH2 0x1323 DUP2 PUSH2 0x11B3 JUMP JUMPDEST SWAP1 POP SWAP2 SWAP1 POP JUMP JUMPDEST PUSH1 0x0 PUSH1 0x20 DUP3 ADD SWAP1 POP DUP2 DUP2 SUB PUSH1 0x0 DUP4 ADD MSTORE PUSH2 0x1343 DUP2 PUSH2 0x11D6 JUMP JUMPDEST SWAP1 POP SWAP2 SWAP1 POP JUMP JUMPDEST PUSH1 0x0 PUSH1 0x20 DUP3 ADD SWAP1 POP DUP2 DUP2 SUB PUSH1 0x0 DUP4 ADD MSTORE PUSH2 0x1363 DUP2 PUSH2 0x11F9 JUMP JUMPDEST SWAP1 POP SWAP2 SWAP1 POP JUMP JUMPDEST PUSH1 0x0 PUSH1 0x20 DUP3 ADD SWAP1 POP DUP2 DUP2 SUB PUSH1 0x0 DUP4 ADD MSTORE PUSH2 0x1383 DUP2 PUSH2 0x121C JUMP JUMPDEST SWAP1 POP SWAP2 SWAP1 POP JUMP JUMPDEST PUSH1 0x0 PUSH1 0x20 DUP3 ADD SWAP1 POP DUP2 DUP2 SUB PUSH1 0x0 DUP4 ADD MSTORE PUSH2 0x13A3 DUP2 PUSH2 0x123F JUMP JUMPDEST SWAP1 POP SWAP2 SWAP1 POP JUMP JUMPDEST PUSH1 0x0 PUSH1 0x20 DUP3 ADD SWAP1 POP DUP2 DUP2 SUB PUSH1 0x0 DUP4 ADD MSTORE PUSH2 0x13C3 DUP2 PUSH2 0x1262 JUMP JUMPDEST SWAP1 POP SWAP2 SWAP1 POP JUMP JUMPDEST PUSH1 0x0 PUSH1 0x20 DUP3 ADD SWAP1 POP PUSH2 0x13DF PUSH1 0x0 DUP4 ADD DUP5 PUSH2 0x1285 JUMP JUMPDEST SWAP3 SWAP2 POP POP JUMP JUMPDEST PUSH1 0x0 PUSH1 0x60 DUP3 ADD SWAP1 POP PUSH2 0x13FA PUSH1 0x0 DUP4 ADD DUP7 PUSH2 0x1285 JUMP JUMPDEST PUSH2 0x1407 PUSH1 0x20 DUP4 ADD DUP6 PUSH2 0x1140 JUMP JUMPDEST PUSH2 0x1414 PUSH1 0x40 DUP4 ADD DUP5 PUSH2 0x1285 JUMP JUMPDEST SWAP5 SWAP4 POP POP POP POP JUMP JUMPDEST PUSH1 0x0 DUP3 DUP3 MSTORE PUSH1 0x20 DUP3 ADD SWAP1 POP SWAP3 SWAP2 POP POP JUMP JUMPDEST PUSH1 0x0 PUSH2 0x1438 DUP3 PUSH2 0x1508 JUMP JUMPDEST SWAP2 POP PUSH2 0x1443 DUP4 PUSH2 0x1508 JUMP JUMPDEST SWAP3 POP DUP3 PUSH32 0xFFFFFFFFFFFFFFFFFFFFFFFFFFFFFFFFFFFFFFFFFFFFFFFFFFFFFFFFFFFFFFFF SUB DUP3 GT ISZERO PUSH2 0x1478 JUMPI PUSH2 0x1477 PUSH2 0x1524 JUMP JUMPDEST JUMPDEST DUP3 DUP3 ADD SWAP1 POP SWAP3 SWAP2 POP POP JUMP JUMPDEST PUSH1 0x0 PUSH2 0x148E DUP3 PUSH2 0x1508 JUMP JUMPDEST SWAP2 POP PUSH2 0x1499 DUP4 PUSH2 0x1508 JUMP JUMPDEST SWAP3 POP DUP3 DUP3 LT ISZERO PUSH2 0x14AC JUMPI PUSH2 0x14AB PUSH2 0x1524 JUMP JUMPDEST JUMPDEST DUP3 DUP3 SUB SWAP1 POP SWAP3 SWAP2 POP POP JUMP JUMPDEST PUSH1 0x0 PUSH2 0x14C2 DUP3 PUSH2 0x14E8 JUMP JUMPDEST SWAP1 POP SWAP2 SWAP1 POP JUMP JUMPDEST PUSH1 0x0 DUP2 ISZERO ISZERO SWAP1 POP SWAP2 SWAP1 POP JUMP JUMPDEST PUSH1 0x0 DUP2 SWAP1 POP PUSH2 0x14E3 DUP3 PUSH2 0x1767 JUMP JUMPDEST SWAP2 SWAP1 POP JUMP JUMPDEST PUSH1 0x0 PUSH20 0xFFFFFFFFFFFFFFFFFFFFFFFFFFFFFFFFFFFFFFFF DUP3 AND SWAP1 POP SWAP2 SWAP1 POP JUMP JUMPDEST PUSH1 0x0 DUP2 SWAP1 POP SWAP2 SWAP1 POP JUMP JUMPDEST PUSH1 0x0 PUSH2 0x151D DUP3 PUSH2 0x14D5 JUMP JUMPDEST SWAP1 POP SWAP2 SWAP1 POP JUMP JUMPDEST PUSH32 0x4E487B7100000000000000000000000000000000000000000000000000000000 PUSH1 0x0 MSTORE PUSH1 0x11 PUSH1 0x4 MSTORE PUSH1 0x24 PUSH1 0x0 REVERT JUMPDEST PUSH32 0x4E487B7100000000000000000000000000000000000000000000000000000000 PUSH1 0x0 MSTORE PUSH1 0x21 PUSH1 0x4 MSTORE PUSH1 0x24 PUSH1 0x0 REVERT JUMPDEST PUSH1 0x0 DUP1 REVERT JUMPDEST PUSH32 0x436F6E74726163742073746174652069736E2774206163746976650000000000 PUSH1 0x0 DUP3 ADD MSTORE POP JUMP JUMPDEST PUSH32 0x556E617574686F72697A65642075736572000000000000000000000000000000 PUSH1 0x0 DUP3 ADD MSTORE POP JUMP JUMPDEST PUSH32 0x4F6E6C7920706172656E742063616E206163636573732074686973206D657468 PUSH1 0x0 DUP3 ADD MSTORE PUSH32 0x6F64000000000000000000000000000000000000000000000000000000000000 PUSH1 0x20 DUP3 ADD MSTORE POP JUMP JUMPDEST PUSH32 0x42616C616E6365206D7573742062652030206265666F7265207465726D69616E PUSH1 0x0 DUP3 ADD MSTORE PUSH32 0x74696E672061206465616C000000000000000000000000000000000000000000 PUSH1 0x20 DUP3 ADD MSTORE POP JUMP JUMPDEST PUSH32 0x546865726520697320756E77697468647261776D206D6F6E65792E2057697468 PUSH1 0x0 DUP3 ADD MSTORE PUSH32 0x6472617720796F7572206D6F6E65792100000000000000000000000000000000 PUSH1 0x20 DUP3 ADD MSTORE POP JUMP JUMPDEST PUSH32 0x4920616D206E6F77206163746976617465640000000000000000000000000000 PUSH1 0x0 DUP3 ADD MSTORE POP JUMP JUMPDEST PUSH32 0x4F6E6C7920757365722063616E206163636573732074686973206D6574686F64 PUSH1 0x0 DUP3 ADD MSTORE POP JUMP JUMPDEST PUSH32 0x4E6F20617661696C61626C652063726564697420666F72207468697320637963 PUSH1 0x0 DUP3 ADD MSTORE PUSH32 0x6C65000000000000000000000000000000000000000000000000000000000000 PUSH1 0x20 DUP3 ADD MSTORE POP JUMP JUMPDEST PUSH1 0x4 DUP2 LT PUSH2 0x1778 JUMPI PUSH2 0x1777 PUSH2 0x1553 JUMP JUMPDEST JUMPDEST POP JUMP JUMPDEST PUSH2 0x1784 DUP2 PUSH2 0x14B7 JUMP JUMPDEST DUP2 EQ PUSH2 0x178F JUMPI PUSH1 0x0 DUP1 REVERT JUMPDEST POP JUMP JUMPDEST PUSH2 0x179B DUP2 PUSH2 0x14C9 JUMP JUMPDEST DUP2 EQ PUSH2 0x17A6 JUMPI PUSH1 0x0 DUP1 REVERT JUMPDEST POP JUMP JUMPDEST PUSH2 0x17B2 DUP2 PUSH2 0x1508 JUMP JUMPDEST DUP2 EQ PUSH2 0x17BD JUMPI PUSH1 0x0 DUP1 REVERT JUMPDEST POP JUMP INVALID LOG2 PUSH5 0x6970667358 0x22 SLT KECCAK256 0xD3 SLT NOT 0xB0 PUSH22 0x43B25A5483C9AC2E520C7A8EA1FB7B1A028176B00359 SWAP2 PUSH11 0x59586964736F6C63430008 SMOD STOP CALLER "
				},
				"gasEstimates": {
					"creation": {
						"codeDepositCost": "1226800",
						"executionCost": "infinite",
						"totalCost": "infinite"
					},
					"external": {
						"acceptPayment()": "infinite",
						"activate(address,uint256)": "75356",
						"availableCredit()": "infinite",
						"checkStatus()": "189",
						"expiration_date()": "2496",
						"requestPayment(address,uint256)": "infinite",
						"state()": "2626",
						"terminate()": "40371",
						"updateCredit()": "33238",
						"updateExpiration()": "33259",
						"withdrawOverPayed()": "infinite"
					},
					"internal": {
						"calculateInterest()": "infinite",
						"isInGoodStandin()": "infinite"
					}
				},
				"methodIdentifiers": {
					"acceptPayment()": "ae0aba8c",
					"activate(address,uint256)": "ca11be69",
					"availableCredit()": "07cc692f",
					"checkStatus()": "3b7104f2",
					"expiration_date()": "78706079",
					"requestPayment(address,uint256)": "9f0c592e",
					"state()": "c19d93fb",
					"terminate()": "0c08bf88",
					"updateCredit()": "804d6b38",
					"updateExpiration()": "d12abd8a",
					"withdrawOverPayed()": "a6601f2e"
				}
			},
			"userdoc": {
				"errors": {
					"Expired()": [
						{
							"notice": "Contract has expired"
						}
					]
				},
				"events": {
					"ContractTerminated()": {
						"notice": "Contract has been terminated"
					}
				},
				"kind": "user",
				"methods": {},
				"notice": "The terms of this contract will dictate the transfer of credit ",
				"version": 1
			}
		}
	}
}