{
	"contracts/LendingPoolGate.sol": {
		"LendingPoolGate": {
			"abi": [
				{
					"inputs": [
						{
							"internalType": "uint256",
							"name": "total_users",
							"type": "uint256"
						}
					],
					"stateMutability": "nonpayable",
					"type": "constructor"
				},
				{
					"anonymous": false,
					"inputs": [
						{
							"indexed": false,
							"internalType": "string",
							"name": "msg",
							"type": "string"
						},
						{
							"indexed": false,
							"internalType": "address",
							"name": "related",
							"type": "address"
						}
					],
					"name": "LendingPoolGateMessage",
					"type": "event"
				},
				{
					"inputs": [
						{
							"internalType": "address",
							"name": "contract_address",
							"type": "address"
						}
					],
					"name": "append2WhiteList",
					"outputs": [
						{
							"internalType": "uint256",
							"name": "",
							"type": "uint256"
						},
						{
							"internalType": "bool",
							"name": "",
							"type": "bool"
						}
					],
					"stateMutability": "nonpayable",
					"type": "function"
				},
				{
					"inputs": [
						{
							"internalType": "uint256",
							"name": "id",
							"type": "uint256"
						}
					],
					"name": "deleteFromWhiteList",
					"outputs": [],
					"stateMutability": "nonpayable",
					"type": "function"
				},
				{
					"inputs": [],
					"name": "max_nuser",
					"outputs": [
						{
							"internalType": "uint256",
							"name": "",
							"type": "uint256"
						}
					],
					"stateMutability": "view",
					"type": "function"
				},
				{
					"inputs": [],
					"name": "parent_contract",
					"outputs": [
						{
							"internalType": "address",
							"name": "",
							"type": "address"
						}
					],
					"stateMutability": "view",
					"type": "function"
				},
				{
					"inputs": [
						{
							"internalType": "uint256",
							"name": "requester_id",
							"type": "uint256"
						},
						{
							"internalType": "address",
							"name": "reciever_address",
							"type": "address"
						},
						{
							"internalType": "uint256",
							"name": "amount",
							"type": "uint256"
						}
					],
					"name": "payDapp",
					"outputs": [
						{
							"internalType": "bool",
							"name": "",
							"type": "bool"
						}
					],
					"stateMutability": "nonpayable",
					"type": "function"
				},
				{
					"inputs": [],
					"name": "withdrawMoney",
					"outputs": [],
					"stateMutability": "nonpayable",
					"type": "function"
				}
			],
			"devdoc": {
				"author": "Hileamlak Yitayew, Matt Tengtrakool",
				"details": "Only whitelisted smart contracts can ask to withdraw money form lending       pools and only the smart contract contract that created this contract     can update the whitelist",
				"kind": "dev",
				"methods": {
					"append2WhiteList(address)": {
						"details": "Only parent smart contract could make this request",
						"params": {
							"contract_address": "Address to add to the whitelist"
						},
						"returns": {
							"_0": "id returns the id contract_address should use to withdraw_money, and the status of the white list             true meaning free space is available and false meaning the opposite"
						}
					},
					"deleteFromWhiteList(uint256)": {
						"details": "Only creator smart contract can delete element from a whitelist",
						"params": {
							"id": "Id of smart contract to be deleted, must be already in whitelist"
						}
					},
					"payDapp(uint256,address,uint256)": {
						"details": "Only whitlisted smart contract can access this function",
						"params": {
							"amount": "amount of money to be transferred",
							"reciever_address": "Adress money is to be transfered to",
							"requester_id": "Whitlist id of smart contract provided during creation"
						},
						"returns": {
							"_0": "sucess true if payment was successfull or false if it fails."
						}
					}
				},
				"title": "LendingPoolGate  ",
				"version": 1
			},
			"evm": {
				"assembly": "    /* \"contracts/LendingPoolGate.sol\":423:4851  contract LendingPoolGate {... */\n  mstore(0x40, 0x80)\n    /* \"contracts/LendingPoolGate.sol\":1272:1392  constructor(uint256 total_users){... */\n  callvalue\n  dup1\n  iszero\n  tag_1\n  jumpi\n  0x00\n  dup1\n  revert\ntag_1:\n  pop\n  mload(0x40)\n  sub(codesize, bytecodeSize)\n  dup1\n  bytecodeSize\n  dup4\n  codecopy\n  dup2\n  dup2\n  add\n  0x40\n  mstore\n  dup2\n  add\n  swap1\n  tag_2\n  swap2\n  swap1\n  tag_3\n  jump\t// in\ntag_2:\n    /* \"contracts/LendingPoolGate.sol\":1332:1342  msg.sender */\n  caller\n    /* \"contracts/LendingPoolGate.sol\":1314:1329  parent_contract */\n  0x00\n  dup1\n    /* \"contracts/LendingPoolGate.sol\":1314:1342  parent_contract = msg.sender */\n  0x0100\n  exp\n  dup2\n  sload\n  dup2\n  0xffffffffffffffffffffffffffffffffffffffff\n  mul\n  not\n  and\n  swap1\n  dup4\n  0xffffffffffffffffffffffffffffffffffffffff\n  and\n  mul\n  or\n  swap1\n  sstore\n  pop\n    /* \"contracts/LendingPoolGate.sol\":1364:1375  total_users */\n  dup1\n    /* \"contracts/LendingPoolGate.sol\":1352:1361  max_nuser */\n  0x03\n    /* \"contracts/LendingPoolGate.sol\":1352:1375  max_nuser = total_users */\n  dup2\n  swap1\n  sstore\n  pop\n    /* \"contracts/LendingPoolGate.sol\":1272:1392  constructor(uint256 total_users){... */\n  pop\n    /* \"contracts/LendingPoolGate.sol\":423:4851  contract LendingPoolGate {... */\n  jump(tag_6)\n    /* \"#utility.yul\":7:150   */\ntag_8:\n    /* \"#utility.yul\":64:69   */\n  0x00\n    /* \"#utility.yul\":95:101   */\n  dup2\n    /* \"#utility.yul\":89:102   */\n  mload\n    /* \"#utility.yul\":80:102   */\n  swap1\n  pop\n    /* \"#utility.yul\":111:144   */\n  tag_10\n    /* \"#utility.yul\":138:143   */\n  dup2\n    /* \"#utility.yul\":111:144   */\n  tag_11\n  jump\t// in\ntag_10:\n    /* \"#utility.yul\":7:150   */\n  swap3\n  swap2\n  pop\n  pop\n  jump\t// out\n    /* \"#utility.yul\":156:507   */\ntag_3:\n    /* \"#utility.yul\":226:232   */\n  0x00\n    /* \"#utility.yul\":275:277   */\n  0x20\n    /* \"#utility.yul\":263:272   */\n  dup3\n    /* \"#utility.yul\":254:261   */\n  dup5\n    /* \"#utility.yul\":250:273   */\n  sub\n    /* \"#utility.yul\":246:278   */\n  slt\n    /* \"#utility.yul\":243:362   */\n  iszero\n  tag_13\n  jumpi\n    /* \"#utility.yul\":281:360   */\n  tag_14\n  tag_15\n  jump\t// in\ntag_14:\n    /* \"#utility.yul\":243:362   */\ntag_13:\n    /* \"#utility.yul\":401:402   */\n  0x00\n    /* \"#utility.yul\":426:490   */\n  tag_16\n    /* \"#utility.yul\":482:489   */\n  dup5\n    /* \"#utility.yul\":473:479   */\n  dup3\n    /* \"#utility.yul\":462:471   */\n  dup6\n    /* \"#utility.yul\":458:480   */\n  add\n    /* \"#utility.yul\":426:490   */\n  tag_8\n  jump\t// in\ntag_16:\n    /* \"#utility.yul\":416:490   */\n  swap2\n  pop\n    /* \"#utility.yul\":372:500   */\n  pop\n    /* \"#utility.yul\":156:507   */\n  swap3\n  swap2\n  pop\n  pop\n  jump\t// out\n    /* \"#utility.yul\":594:671   */\ntag_19:\n    /* \"#utility.yul\":631:638   */\n  0x00\n    /* \"#utility.yul\":660:665   */\n  dup2\n    /* \"#utility.yul\":649:665   */\n  swap1\n  pop\n    /* \"#utility.yul\":594:671   */\n  swap2\n  swap1\n  pop\n  jump\t// out\n    /* \"#utility.yul\":800:917   */\ntag_15:\n    /* \"#utility.yul\":909:910   */\n  0x00\n    /* \"#utility.yul\":906:907   */\n  dup1\n    /* \"#utility.yul\":899:911   */\n  revert\n    /* \"#utility.yul\":923:1045   */\ntag_11:\n    /* \"#utility.yul\":996:1020   */\n  tag_25\n    /* \"#utility.yul\":1014:1019   */\n  dup2\n    /* \"#utility.yul\":996:1020   */\n  tag_19\n  jump\t// in\ntag_25:\n    /* \"#utility.yul\":989:994   */\n  dup2\n    /* \"#utility.yul\":986:1021   */\n  eq\n    /* \"#utility.yul\":976:1039   */\n  tag_26\n  jumpi\n    /* \"#utility.yul\":1035:1036   */\n  0x00\n    /* \"#utility.yul\":1032:1033   */\n  dup1\n    /* \"#utility.yul\":1025:1037   */\n  revert\n    /* \"#utility.yul\":976:1039   */\ntag_26:\n    /* \"#utility.yul\":923:1045   */\n  pop\n  jump\t// out\n    /* \"contracts/LendingPoolGate.sol\":423:4851  contract LendingPoolGate {... */\ntag_6:\n  dataSize(sub_0)\n  dup1\n  dataOffset(sub_0)\n  0x00\n  codecopy\n  0x00\n  return\nstop\n\nsub_0: assembly {\n        /* \"contracts/LendingPoolGate.sol\":423:4851  contract LendingPoolGate {... */\n      mstore(0x40, 0x80)\n      callvalue\n      dup1\n      iszero\n      tag_1\n      jumpi\n      0x00\n      dup1\n      revert\n    tag_1:\n      pop\n      jumpi(tag_2, lt(calldatasize, 0x04))\n      shr(0xe0, calldataload(0x00))\n      dup1\n      0x317549f2\n      eq\n      tag_3\n      jumpi\n      dup1\n      0x89f78c8e\n      eq\n      tag_4\n      jumpi\n      dup1\n      0x9dc61d4f\n      eq\n      tag_5\n      jumpi\n      dup1\n      0xac446002\n      eq\n      tag_6\n      jumpi\n      dup1\n      0xbc134ae3\n      eq\n      tag_7\n      jumpi\n      dup1\n      0xcbc20f30\n      eq\n      tag_8\n      jumpi\n    tag_2:\n      0x00\n      dup1\n      revert\n        /* \"contracts/LendingPoolGate.sol\":1785:2520  function append2WhiteList(address contract_address) ... */\n    tag_3:\n      tag_9\n      0x04\n      dup1\n      calldatasize\n      sub\n      dup2\n      add\n      swap1\n      tag_10\n      swap2\n      swap1\n      tag_11\n      jump\t// in\n    tag_10:\n      tag_12\n      jump\t// in\n    tag_9:\n      mload(0x40)\n      tag_13\n      swap3\n      swap2\n      swap1\n      tag_14\n      jump\t// in\n    tag_13:\n      mload(0x40)\n      dup1\n      swap2\n      sub\n      swap1\n      return\n        /* \"contracts/LendingPoolGate.sol\":593:617  uint256 public max_nuser */\n    tag_4:\n      tag_15\n      tag_16\n      jump\t// in\n    tag_15:\n      mload(0x40)\n      tag_17\n      swap2\n      swap1\n      tag_18\n      jump\t// in\n    tag_17:\n      mload(0x40)\n      dup1\n      swap2\n      sub\n      swap1\n      return\n        /* \"contracts/LendingPoolGate.sol\":488:518  address public parent_contract */\n    tag_5:\n      tag_19\n      tag_20\n      jump\t// in\n    tag_19:\n      mload(0x40)\n      tag_21\n      swap2\n      swap1\n      tag_22\n      jump\t// in\n    tag_21:\n      mload(0x40)\n      dup1\n      swap2\n      sub\n      swap1\n      return\n        /* \"contracts/LendingPoolGate.sol\":4095:4395  function withdrawMoney() public{... */\n    tag_6:\n      tag_23\n      tag_24\n      jump\t// in\n    tag_23:\n      stop\n        /* \"contracts/LendingPoolGate.sol\":3474:4089  function payDapp(uint256 requester_id, ... */\n    tag_7:\n      tag_25\n      0x04\n      dup1\n      calldatasize\n      sub\n      dup2\n      add\n      swap1\n      tag_26\n      swap2\n      swap1\n      tag_27\n      jump\t// in\n    tag_26:\n      tag_28\n      jump\t// in\n    tag_25:\n      mload(0x40)\n      tag_29\n      swap2\n      swap1\n      tag_30\n      jump\t// in\n    tag_29:\n      mload(0x40)\n      dup1\n      swap2\n      sub\n      swap1\n      return\n        /* \"contracts/LendingPoolGate.sol\":2740:3034  function deleteFromWhiteList(uint256 id) ... */\n    tag_8:\n      tag_31\n      0x04\n      dup1\n      calldatasize\n      sub\n      dup2\n      add\n      swap1\n      tag_32\n      swap2\n      swap1\n      tag_33\n      jump\t// in\n    tag_32:\n      tag_34\n      jump\t// in\n    tag_31:\n      stop\n        /* \"contracts/LendingPoolGate.sol\":1785:2520  function append2WhiteList(address contract_address) ... */\n    tag_12:\n        /* \"contracts/LendingPoolGate.sol\":1889:1896  uint256 */\n      0x00\n        /* \"contracts/LendingPoolGate.sol\":1898:1902  bool */\n      dup1\n        /* \"contracts/LendingPoolGate.sol\":1183:1198  parent_contract */\n      0x00\n      dup1\n      sload\n      swap1\n      0x0100\n      exp\n      swap1\n      div\n      0xffffffffffffffffffffffffffffffffffffffff\n      and\n        /* \"contracts/LendingPoolGate.sol\":1169:1198  msg.sender == parent_contract */\n      0xffffffffffffffffffffffffffffffffffffffff\n      and\n        /* \"contracts/LendingPoolGate.sol\":1169:1179  msg.sender */\n      caller\n        /* \"contracts/LendingPoolGate.sol\":1169:1198  msg.sender == parent_contract */\n      0xffffffffffffffffffffffffffffffffffffffff\n      and\n      eq\n        /* \"contracts/LendingPoolGate.sol\":1161:1248  require(msg.sender == parent_contract, \"Only creating contract can call this function\") */\n      tag_36\n      jumpi\n      mload(0x40)\n      0x08c379a000000000000000000000000000000000000000000000000000000000\n      dup2\n      mstore\n      0x04\n      add\n      tag_37\n      swap1\n      tag_38\n      jump\t// in\n    tag_37:\n      mload(0x40)\n      dup1\n      swap2\n      sub\n      swap1\n      revert\n    tag_36:\n        /* \"contracts/LendingPoolGate.sol\":1954:1963  max_nuser */\n      sload(0x03)\n        /* \"contracts/LendingPoolGate.sol\":1934:1944  users_list */\n      0x01\n        /* \"contracts/LendingPoolGate.sol\":1934:1951  users_list.length */\n      dup1\n      sload\n      swap1\n      pop\n        /* \"contracts/LendingPoolGate.sol\":1934:1963  users_list.length < max_nuser */\n      lt\n        /* \"contracts/LendingPoolGate.sol\":1934:1990  users_list.length < max_nuser || freed_index.length != 0 */\n      dup1\n      tag_40\n      jumpi\n      pop\n        /* \"contracts/LendingPoolGate.sol\":1989:1990  0 */\n      0x00\n        /* \"contracts/LendingPoolGate.sol\":1967:1978  freed_index */\n      0x02\n        /* \"contracts/LendingPoolGate.sol\":1967:1985  freed_index.length */\n      dup1\n      sload\n      swap1\n      pop\n        /* \"contracts/LendingPoolGate.sol\":1967:1990  freed_index.length != 0 */\n      eq\n      iszero\n        /* \"contracts/LendingPoolGate.sol\":1934:1990  users_list.length < max_nuser || freed_index.length != 0 */\n    tag_40:\n        /* \"contracts/LendingPoolGate.sol\":1926:2013  require(users_list.length < max_nuser || freed_index.length != 0, \"White list is full\") */\n      tag_41\n      jumpi\n      mload(0x40)\n      0x08c379a000000000000000000000000000000000000000000000000000000000\n      dup2\n      mstore\n      0x04\n      add\n      tag_42\n      swap1\n      tag_43\n      jump\t// in\n    tag_42:\n      mload(0x40)\n      dup1\n      swap2\n      sub\n      swap1\n      revert\n    tag_41:\n        /* \"contracts/LendingPoolGate.sol\":2049:2050  0 */\n      0x00\n        /* \"contracts/LendingPoolGate.sol\":2027:2038  freed_index */\n      0x02\n        /* \"contracts/LendingPoolGate.sol\":2027:2045  freed_index.length */\n      dup1\n      sload\n      swap1\n      pop\n        /* \"contracts/LendingPoolGate.sol\":2027:2050  freed_index.length != 0 */\n      eq\n        /* \"contracts/LendingPoolGate.sol\":2023:2504  if (freed_index.length != 0){... */\n      tag_44\n      jumpi\n        /* \"contracts/LendingPoolGate.sol\":2065:2075  uint256 id */\n      0x00\n        /* \"contracts/LendingPoolGate.sol\":2078:2089  freed_index */\n      0x02\n        /* \"contracts/LendingPoolGate.sol\":2090:2115  freed_index.length.sub(1) */\n      tag_45\n        /* \"contracts/LendingPoolGate.sol\":2113:2114  1 */\n      0x01\n        /* \"contracts/LendingPoolGate.sol\":2090:2101  freed_index */\n      0x02\n        /* \"contracts/LendingPoolGate.sol\":2090:2108  freed_index.length */\n      dup1\n      sload\n      swap1\n      pop\n        /* \"contracts/LendingPoolGate.sol\":2090:2112  freed_index.length.sub */\n      tag_46\n      swap1\n        /* \"contracts/LendingPoolGate.sol\":2090:2115  freed_index.length.sub(1) */\n      swap2\n      swap1\n      0xffffffff\n      and\n      jump\t// in\n    tag_45:\n        /* \"contracts/LendingPoolGate.sol\":2078:2116  freed_index[freed_index.length.sub(1)] */\n      dup2\n      sload\n      dup2\n      lt\n      tag_47\n      jumpi\n      tag_48\n      tag_49\n      jump\t// in\n    tag_48:\n    tag_47:\n      swap1\n      0x00\n      mstore\n      keccak256(0x00, 0x20)\n      add\n      sload\n        /* \"contracts/LendingPoolGate.sol\":2065:2116  uint256 id = freed_index[freed_index.length.sub(1)] */\n      swap1\n      pop\n        /* \"contracts/LendingPoolGate.sol\":2147:2163  contract_address */\n      dup4\n        /* \"contracts/LendingPoolGate.sol\":2130:2140  users_list */\n      0x01\n        /* \"contracts/LendingPoolGate.sol\":2141:2143  id */\n      dup3\n        /* \"contracts/LendingPoolGate.sol\":2130:2144  users_list[id] */\n      dup2\n      sload\n      dup2\n      lt\n      tag_51\n      jumpi\n      tag_52\n      tag_49\n      jump\t// in\n    tag_52:\n    tag_51:\n      swap1\n      0x00\n      mstore\n      keccak256(0x00, 0x20)\n      add\n      0x00\n        /* \"contracts/LendingPoolGate.sol\":2130:2163  users_list[id] = contract_address */\n      0x0100\n      exp\n      dup2\n      sload\n      dup2\n      0xffffffffffffffffffffffffffffffffffffffff\n      mul\n      not\n      and\n      swap1\n      dup4\n      0xffffffffffffffffffffffffffffffffffffffff\n      and\n      mul\n      or\n      swap1\n      sstore\n      pop\n        /* \"contracts/LendingPoolGate.sol\":2177:2188  freed_index */\n      0x02\n        /* \"contracts/LendingPoolGate.sol\":2177:2194  freed_index.pop() */\n      dup1\n      sload\n      dup1\n      tag_54\n      jumpi\n      tag_55\n      tag_56\n      jump\t// in\n    tag_55:\n    tag_54:\n      0x01\n      swap1\n      sub\n      dup2\n      dup2\n      swap1\n      0x00\n      mstore\n      keccak256(0x00, 0x20)\n      add\n      0x00\n      swap1\n      sstore\n      swap1\n      sstore\n        /* \"contracts/LendingPoolGate.sol\":2216:2218  id */\n      dup1\n        /* \"contracts/LendingPoolGate.sol\":2240:2249  max_nuser */\n      sload(0x03)\n        /* \"contracts/LendingPoolGate.sol\":2220:2230  users_list */\n      0x01\n        /* \"contracts/LendingPoolGate.sol\":2220:2237  users_list.length */\n      dup1\n      sload\n      swap1\n      pop\n        /* \"contracts/LendingPoolGate.sol\":2220:2249  users_list.length < max_nuser */\n      lt\n        /* \"contracts/LendingPoolGate.sol\":2220:2276  users_list.length < max_nuser || freed_index.length != 0 */\n      dup1\n      tag_58\n      jumpi\n      pop\n        /* \"contracts/LendingPoolGate.sol\":2275:2276  0 */\n      0x00\n        /* \"contracts/LendingPoolGate.sol\":2253:2264  freed_index */\n      0x02\n        /* \"contracts/LendingPoolGate.sol\":2253:2271  freed_index.length */\n      dup1\n      sload\n      swap1\n      pop\n        /* \"contracts/LendingPoolGate.sol\":2253:2276  freed_index.length != 0 */\n      eq\n      iszero\n        /* \"contracts/LendingPoolGate.sol\":2220:2276  users_list.length < max_nuser || freed_index.length != 0 */\n    tag_58:\n        /* \"contracts/LendingPoolGate.sol\":2208:2277  return (id, users_list.length < max_nuser || freed_index.length != 0) */\n      swap3\n      pop\n      swap3\n      pop\n      pop\n      jump(tag_39)\n        /* \"contracts/LendingPoolGate.sol\":2023:2504  if (freed_index.length != 0){... */\n    tag_44:\n        /* \"contracts/LendingPoolGate.sol\":2355:2365  users_list */\n      0x01\n        /* \"contracts/LendingPoolGate.sol\":2371:2387  contract_address */\n      dup4\n        /* \"contracts/LendingPoolGate.sol\":2355:2388  users_list.push(contract_address) */\n      swap1\n      dup1\n      0x01\n      dup2\n      sload\n      add\n      dup1\n      dup3\n      sstore\n      dup1\n      swap2\n      pop\n      pop\n      0x01\n      swap1\n      sub\n      swap1\n      0x00\n      mstore\n      keccak256(0x00, 0x20)\n      add\n      0x00\n      swap1\n      swap2\n      swap1\n      swap2\n      swap1\n      swap2\n      0x0100\n      exp\n      dup2\n      sload\n      dup2\n      0xffffffffffffffffffffffffffffffffffffffff\n      mul\n      not\n      and\n      swap1\n      dup4\n      0xffffffffffffffffffffffffffffffffffffffff\n      and\n      mul\n      or\n      swap1\n      sstore\n      pop\n        /* \"contracts/LendingPoolGate.sol\":2410:2434  users_list.length.sub(1) */\n      tag_61\n        /* \"contracts/LendingPoolGate.sol\":2432:2433  1 */\n      0x01\n        /* \"contracts/LendingPoolGate.sol\":2410:2420  users_list */\n      dup1\n        /* \"contracts/LendingPoolGate.sol\":2410:2427  users_list.length */\n      dup1\n      sload\n      swap1\n      pop\n        /* \"contracts/LendingPoolGate.sol\":2410:2431  users_list.length.sub */\n      tag_46\n      swap1\n        /* \"contracts/LendingPoolGate.sol\":2410:2434  users_list.length.sub(1) */\n      swap2\n      swap1\n      0xffffffff\n      and\n      jump\t// in\n    tag_61:\n        /* \"contracts/LendingPoolGate.sol\":2456:2465  max_nuser */\n      sload(0x03)\n        /* \"contracts/LendingPoolGate.sol\":2436:2446  users_list */\n      0x01\n        /* \"contracts/LendingPoolGate.sol\":2436:2453  users_list.length */\n      dup1\n      sload\n      swap1\n      pop\n        /* \"contracts/LendingPoolGate.sol\":2436:2465  users_list.length < max_nuser */\n      lt\n        /* \"contracts/LendingPoolGate.sol\":2436:2492  users_list.length < max_nuser || freed_index.length != 0 */\n      dup1\n      tag_62\n      jumpi\n      pop\n        /* \"contracts/LendingPoolGate.sol\":2491:2492  0 */\n      0x00\n        /* \"contracts/LendingPoolGate.sol\":2469:2480  freed_index */\n      0x02\n        /* \"contracts/LendingPoolGate.sol\":2469:2487  freed_index.length */\n      dup1\n      sload\n      swap1\n      pop\n        /* \"contracts/LendingPoolGate.sol\":2469:2492  freed_index.length != 0 */\n      eq\n      iszero\n        /* \"contracts/LendingPoolGate.sol\":2436:2492  users_list.length < max_nuser || freed_index.length != 0 */\n    tag_62:\n        /* \"contracts/LendingPoolGate.sol\":2402:2493  return (users_list.length.sub(1), users_list.length < max_nuser || freed_index.length != 0) */\n      swap2\n      pop\n      swap2\n      pop\n        /* \"contracts/LendingPoolGate.sol\":1258:1259  _ */\n    tag_39:\n        /* \"contracts/LendingPoolGate.sol\":1785:2520  function append2WhiteList(address contract_address) ... */\n      swap2\n      pop\n      swap2\n      jump\t// out\n        /* \"contracts/LendingPoolGate.sol\":593:617  uint256 public max_nuser */\n    tag_16:\n      sload(0x03)\n      dup2\n      jump\t// out\n        /* \"contracts/LendingPoolGate.sol\":488:518  address public parent_contract */\n    tag_20:\n      0x00\n      dup1\n      sload\n      swap1\n      0x0100\n      exp\n      swap1\n      div\n      0xffffffffffffffffffffffffffffffffffffffff\n      and\n      dup2\n      jump\t// out\n        /* \"contracts/LendingPoolGate.sol\":4095:4395  function withdrawMoney() public{... */\n    tag_24:\n        /* \"contracts/LendingPoolGate.sol\":4136:4150  uint256 amount */\n      0x00\n        /* \"contracts/LendingPoolGate.sol\":4153:4171  pendingWithdrawals */\n      0x04\n        /* \"contracts/LendingPoolGate.sol\":4153:4183  pendingWithdrawals[msg.sender] */\n      0x00\n        /* \"contracts/LendingPoolGate.sol\":4172:4182  msg.sender */\n      caller\n        /* \"contracts/LendingPoolGate.sol\":4153:4183  pendingWithdrawals[msg.sender] */\n      0xffffffffffffffffffffffffffffffffffffffff\n      and\n      0xffffffffffffffffffffffffffffffffffffffff\n      and\n      dup2\n      mstore\n      0x20\n      add\n      swap1\n      dup2\n      mstore\n      0x20\n      add\n      0x00\n      keccak256\n      sload\n        /* \"contracts/LendingPoolGate.sol\":4136:4183  uint256 amount = pendingWithdrawals[msg.sender] */\n      swap1\n      pop\n        /* \"contracts/LendingPoolGate.sol\":4330:4331  0 */\n      0x00\n        /* \"contracts/LendingPoolGate.sol\":4297:4315  pendingWithdrawals */\n      0x04\n        /* \"contracts/LendingPoolGate.sol\":4297:4327  pendingWithdrawals[msg.sender] */\n      0x00\n        /* \"contracts/LendingPoolGate.sol\":4316:4326  msg.sender */\n      caller\n        /* \"contracts/LendingPoolGate.sol\":4297:4327  pendingWithdrawals[msg.sender] */\n      0xffffffffffffffffffffffffffffffffffffffff\n      and\n      0xffffffffffffffffffffffffffffffffffffffff\n      and\n      dup2\n      mstore\n      0x20\n      add\n      swap1\n      dup2\n      mstore\n      0x20\n      add\n      0x00\n      keccak256\n        /* \"contracts/LendingPoolGate.sol\":4297:4331  pendingWithdrawals[msg.sender] = 0 */\n      dup2\n      swap1\n      sstore\n      pop\n        /* \"contracts/LendingPoolGate.sol\":4349:4359  msg.sender */\n      caller\n        /* \"contracts/LendingPoolGate.sol\":4341:4369  payable(msg.sender).transfer */\n      0xffffffffffffffffffffffffffffffffffffffff\n      and\n        /* \"contracts/LendingPoolGate.sol\":4341:4377  payable(msg.sender).transfer(amount) */\n      0x08fc\n        /* \"contracts/LendingPoolGate.sol\":4370:4376  amount */\n      dup3\n        /* \"contracts/LendingPoolGate.sol\":4341:4377  payable(msg.sender).transfer(amount) */\n      swap1\n      dup2\n      iszero\n      mul\n      swap1\n      mload(0x40)\n      0x00\n      mload(0x40)\n      dup1\n      dup4\n      sub\n      dup2\n      dup6\n      dup9\n      dup9\n      call\n      swap4\n      pop\n      pop\n      pop\n      pop\n      iszero\n      dup1\n      iszero\n      tag_65\n      jumpi\n      returndatasize\n      0x00\n      dup1\n      returndatacopy\n      revert(0x00, returndatasize)\n    tag_65:\n      pop\n        /* \"contracts/LendingPoolGate.sol\":4126:4395  {... */\n      pop\n        /* \"contracts/LendingPoolGate.sol\":4095:4395  function withdrawMoney() public{... */\n      jump\t// out\n        /* \"contracts/LendingPoolGate.sol\":3474:4089  function payDapp(uint256 requester_id, ... */\n    tag_28:\n        /* \"contracts/LendingPoolGate.sol\":3634:3638  bool */\n      0x00\n        /* \"contracts/LendingPoolGate.sol\":3589:3601  requester_id */\n      dup4\n        /* \"contracts/LendingPoolGate.sol\":884:894  users_list */\n      0x01\n        /* \"contracts/LendingPoolGate.sol\":884:901  users_list.length */\n      dup1\n      sload\n      swap1\n      pop\n        /* \"contracts/LendingPoolGate.sol\":869:881  requester_id */\n      dup2\n        /* \"contracts/LendingPoolGate.sol\":869:901  requester_id < users_list.length */\n      lt\n        /* \"contracts/LendingPoolGate.sol\":861:902  require(requester_id < users_list.length) */\n      tag_67\n      jumpi\n      0x00\n      dup1\n      revert\n    tag_67:\n        /* \"contracts/LendingPoolGate.sol\":956:959  0x0 */\n      0x00\n        /* \"contracts/LendingPoolGate.sol\":920:960  users_list[requester_id] != address(0x0) */\n      0xffffffffffffffffffffffffffffffffffffffff\n      and\n        /* \"contracts/LendingPoolGate.sol\":920:930  users_list */\n      0x01\n        /* \"contracts/LendingPoolGate.sol\":931:943  requester_id */\n      dup3\n        /* \"contracts/LendingPoolGate.sol\":920:944  users_list[requester_id] */\n      dup2\n      sload\n      dup2\n      lt\n      tag_68\n      jumpi\n      tag_69\n      tag_49\n      jump\t// in\n    tag_69:\n    tag_68:\n      swap1\n      0x00\n      mstore\n      keccak256(0x00, 0x20)\n      add\n      0x00\n      swap1\n      sload\n      swap1\n      0x0100\n      exp\n      swap1\n      div\n      0xffffffffffffffffffffffffffffffffffffffff\n      and\n        /* \"contracts/LendingPoolGate.sol\":920:960  users_list[requester_id] != address(0x0) */\n      0xffffffffffffffffffffffffffffffffffffffff\n      and\n      eq\n      iszero\n        /* \"contracts/LendingPoolGate.sol\":912:981  require(users_list[requester_id] != address(0x0), \"Deleted Contract\") */\n      tag_71\n      jumpi\n      mload(0x40)\n      0x08c379a000000000000000000000000000000000000000000000000000000000\n      dup2\n      mstore\n      0x04\n      add\n      tag_72\n      swap1\n      tag_73\n      jump\t// in\n    tag_72:\n      mload(0x40)\n      dup1\n      swap2\n      sub\n      swap1\n      revert\n    tag_71:\n        /* \"contracts/LendingPoolGate.sol\":1013:1023  users_list */\n      0x01\n        /* \"contracts/LendingPoolGate.sol\":1024:1036  requester_id */\n      dup2\n        /* \"contracts/LendingPoolGate.sol\":1013:1037  users_list[requester_id] */\n      dup2\n      sload\n      dup2\n      lt\n      tag_74\n      jumpi\n      tag_75\n      tag_49\n      jump\t// in\n    tag_75:\n    tag_74:\n      swap1\n      0x00\n      mstore\n      keccak256(0x00, 0x20)\n      add\n      0x00\n      swap1\n      sload\n      swap1\n      0x0100\n      exp\n      swap1\n      div\n      0xffffffffffffffffffffffffffffffffffffffff\n      and\n        /* \"contracts/LendingPoolGate.sol\":999:1037  msg.sender == users_list[requester_id] */\n      0xffffffffffffffffffffffffffffffffffffffff\n      and\n        /* \"contracts/LendingPoolGate.sol\":999:1009  msg.sender */\n      caller\n        /* \"contracts/LendingPoolGate.sol\":999:1037  msg.sender == users_list[requester_id] */\n      0xffffffffffffffffffffffffffffffffffffffff\n      and\n      eq\n        /* \"contracts/LendingPoolGate.sol\":991:1105  require(msg.sender == users_list[requester_id], \"Smart contract not allowed to withdraw money throught this gate\") */\n      tag_77\n      jumpi\n      mload(0x40)\n      0x08c379a000000000000000000000000000000000000000000000000000000000\n      dup2\n      mstore\n      0x04\n      add\n      tag_78\n      swap1\n      tag_79\n      jump\t// in\n    tag_78:\n      mload(0x40)\n      dup1\n      swap2\n      sub\n      swap1\n      revert\n    tag_77:\n        /* \"contracts/LendingPoolGate.sol\":3979:3997  withdrawFromPool() */\n      tag_81\n        /* \"contracts/LendingPoolGate.sol\":3979:3995  withdrawFromPool */\n      tag_82\n        /* \"contracts/LendingPoolGate.sol\":3979:3997  withdrawFromPool() */\n      jump\t// in\n    tag_81:\n        /* \"contracts/LendingPoolGate.sol\":4046:4052  amount */\n      dup3\n        /* \"contracts/LendingPoolGate.sol\":4007:4025  pendingWithdrawals */\n      0x04\n        /* \"contracts/LendingPoolGate.sol\":4007:4043  pendingWithdrawals[reciever_address] */\n      0x00\n        /* \"contracts/LendingPoolGate.sol\":4026:4042  reciever_address */\n      dup7\n        /* \"contracts/LendingPoolGate.sol\":4007:4043  pendingWithdrawals[reciever_address] */\n      0xffffffffffffffffffffffffffffffffffffffff\n      and\n      0xffffffffffffffffffffffffffffffffffffffff\n      and\n      dup2\n      mstore\n      0x20\n      add\n      swap1\n      dup2\n      mstore\n      0x20\n      add\n      0x00\n      keccak256\n        /* \"contracts/LendingPoolGate.sol\":4007:4052  pendingWithdrawals[reciever_address] = amount */\n      dup2\n      swap1\n      sstore\n      pop\n        /* \"contracts/LendingPoolGate.sol\":4078:4082  true */\n      0x01\n        /* \"contracts/LendingPoolGate.sol\":4071:4082  return true */\n      swap2\n      pop\n        /* \"contracts/LendingPoolGate.sol\":3474:4089  function payDapp(uint256 requester_id, ... */\n      pop\n      swap4\n      swap3\n      pop\n      pop\n      pop\n      jump\t// out\n        /* \"contracts/LendingPoolGate.sol\":2740:3034  function deleteFromWhiteList(uint256 id) ... */\n    tag_34:\n        /* \"contracts/LendingPoolGate.sol\":1183:1198  parent_contract */\n      0x00\n      dup1\n      sload\n      swap1\n      0x0100\n      exp\n      swap1\n      div\n      0xffffffffffffffffffffffffffffffffffffffff\n      and\n        /* \"contracts/LendingPoolGate.sol\":1169:1198  msg.sender == parent_contract */\n      0xffffffffffffffffffffffffffffffffffffffff\n      and\n        /* \"contracts/LendingPoolGate.sol\":1169:1179  msg.sender */\n      caller\n        /* \"contracts/LendingPoolGate.sol\":1169:1198  msg.sender == parent_contract */\n      0xffffffffffffffffffffffffffffffffffffffff\n      and\n      eq\n        /* \"contracts/LendingPoolGate.sol\":1161:1248  require(msg.sender == parent_contract, \"Only creating contract can call this function\") */\n      tag_84\n      jumpi\n      mload(0x40)\n      0x08c379a000000000000000000000000000000000000000000000000000000000\n      dup2\n      mstore\n      0x04\n      add\n      tag_85\n      swap1\n      tag_38\n      jump\t// in\n    tag_85:\n      mload(0x40)\n      dup1\n      swap2\n      sub\n      swap1\n      revert\n    tag_84:\n        /* \"contracts/LendingPoolGate.sol\":2843:2853  users_list */\n      0x01\n        /* \"contracts/LendingPoolGate.sol\":2843:2860  users_list.length */\n      dup1\n      sload\n      swap1\n      pop\n        /* \"contracts/LendingPoolGate.sol\":2838:2840  id */\n      dup2\n        /* \"contracts/LendingPoolGate.sol\":2838:2860  id < users_list.length */\n      lt\n        /* \"contracts/LendingPoolGate.sol\":2830:2882  require(id < users_list.length, 'Token not created') */\n      tag_87\n      jumpi\n      mload(0x40)\n      0x08c379a000000000000000000000000000000000000000000000000000000000\n      dup2\n      mstore\n      0x04\n      add\n      tag_88\n      swap1\n      tag_89\n      jump\t// in\n    tag_88:\n      mload(0x40)\n      dup1\n      swap2\n      sub\n      swap1\n      revert\n    tag_87:\n        /* \"contracts/LendingPoolGate.sol\":2926:2929  0x0 */\n      0x00\n        /* \"contracts/LendingPoolGate.sol\":2900:2930  users_list[id] != address(0x0) */\n      0xffffffffffffffffffffffffffffffffffffffff\n      and\n        /* \"contracts/LendingPoolGate.sol\":2900:2910  users_list */\n      0x01\n        /* \"contracts/LendingPoolGate.sol\":2911:2913  id */\n      dup3\n        /* \"contracts/LendingPoolGate.sol\":2900:2914  users_list[id] */\n      dup2\n      sload\n      dup2\n      lt\n      tag_90\n      jumpi\n      tag_91\n      tag_49\n      jump\t// in\n    tag_91:\n    tag_90:\n      swap1\n      0x00\n      mstore\n      keccak256(0x00, 0x20)\n      add\n      0x00\n      swap1\n      sload\n      swap1\n      0x0100\n      exp\n      swap1\n      div\n      0xffffffffffffffffffffffffffffffffffffffff\n      and\n        /* \"contracts/LendingPoolGate.sol\":2900:2930  users_list[id] != address(0x0) */\n      0xffffffffffffffffffffffffffffffffffffffff\n      and\n      eq\n      iszero\n        /* \"contracts/LendingPoolGate.sol\":2892:2958  require(users_list[id] != address(0x0), \"account already deleted\") */\n      tag_93\n      jumpi\n      mload(0x40)\n      0x08c379a000000000000000000000000000000000000000000000000000000000\n      dup2\n      mstore\n      0x04\n      add\n      tag_94\n      swap1\n      tag_95\n      jump\t// in\n    tag_94:\n      mload(0x40)\n      dup1\n      swap2\n      sub\n      swap1\n      revert\n    tag_93:\n        /* \"contracts/LendingPoolGate.sol\":2993:2996  0x0 */\n      0x00\n        /* \"contracts/LendingPoolGate.sol\":2968:2978  users_list */\n      0x01\n        /* \"contracts/LendingPoolGate.sol\":2979:2981  id */\n      dup3\n        /* \"contracts/LendingPoolGate.sol\":2968:2982  users_list[id] */\n      dup2\n      sload\n      dup2\n      lt\n      tag_96\n      jumpi\n      tag_97\n      tag_49\n      jump\t// in\n    tag_97:\n    tag_96:\n      swap1\n      0x00\n      mstore\n      keccak256(0x00, 0x20)\n      add\n      0x00\n        /* \"contracts/LendingPoolGate.sol\":2968:2997  users_list[id] = address(0x0) */\n      0x0100\n      exp\n      dup2\n      sload\n      dup2\n      0xffffffffffffffffffffffffffffffffffffffff\n      mul\n      not\n      and\n      swap1\n      dup4\n      0xffffffffffffffffffffffffffffffffffffffff\n      and\n      mul\n      or\n      swap1\n      sstore\n      pop\n        /* \"contracts/LendingPoolGate.sol\":3007:3018  freed_index */\n      0x02\n        /* \"contracts/LendingPoolGate.sol\":3024:3026  id */\n      dup2\n        /* \"contracts/LendingPoolGate.sol\":3007:3027  freed_index.push(id) */\n      swap1\n      dup1\n      0x01\n      dup2\n      sload\n      add\n      dup1\n      dup3\n      sstore\n      dup1\n      swap2\n      pop\n      pop\n      0x01\n      swap1\n      sub\n      swap1\n      0x00\n      mstore\n      keccak256(0x00, 0x20)\n      add\n      0x00\n      swap1\n      swap2\n      swap1\n      swap2\n      swap1\n      swap2\n      pop\n      sstore\n        /* \"contracts/LendingPoolGate.sol\":2740:3034  function deleteFromWhiteList(uint256 id) ... */\n      pop\n      jump\t// out\n        /* \"contracts/SafeMath.sol\":226:364  function sub(uint256 a, uint256 b) internal pure returns (uint256 c) {... */\n    tag_46:\n        /* \"contracts/SafeMath.sol\":284:293  uint256 c */\n      0x00\n        /* \"contracts/SafeMath.sol\":318:319  a */\n      dup3\n        /* \"contracts/SafeMath.sol\":313:314  b */\n      dup3\n        /* \"contracts/SafeMath.sol\":313:319  b <= a */\n      gt\n      iszero\n        /* \"contracts/SafeMath.sol\":305:320  require(b <= a) */\n      tag_101\n      jumpi\n      0x00\n      dup1\n      revert\n    tag_101:\n        /* \"contracts/SafeMath.sol\":338:339  b */\n      dup2\n        /* \"contracts/SafeMath.sol\":334:335  a */\n      dup4\n        /* \"contracts/SafeMath.sol\":334:339  a - b */\n      tag_102\n      swap2\n      swap1\n      tag_103\n      jump\t// in\n    tag_102:\n        /* \"contracts/SafeMath.sol\":330:339  c = a - b */\n      swap1\n      pop\n        /* \"contracts/SafeMath.sol\":226:364  function sub(uint256 a, uint256 b) internal pure returns (uint256 c) {... */\n      swap3\n      swap2\n      pop\n      pop\n      jump\t// out\n        /* \"contracts/LendingPoolGate.sol\":4401:4722  function withdrawFromPool() private{... */\n    tag_82:\n      jump\t// out\n        /* \"#utility.yul\":7:146   */\n    tag_106:\n        /* \"#utility.yul\":53:58   */\n      0x00\n        /* \"#utility.yul\":91:97   */\n      dup2\n        /* \"#utility.yul\":78:98   */\n      calldataload\n        /* \"#utility.yul\":69:98   */\n      swap1\n      pop\n        /* \"#utility.yul\":107:140   */\n      tag_108\n        /* \"#utility.yul\":134:139   */\n      dup2\n        /* \"#utility.yul\":107:140   */\n      tag_109\n      jump\t// in\n    tag_108:\n        /* \"#utility.yul\":7:146   */\n      swap3\n      swap2\n      pop\n      pop\n      jump\t// out\n        /* \"#utility.yul\":152:291   */\n    tag_110:\n        /* \"#utility.yul\":198:203   */\n      0x00\n        /* \"#utility.yul\":236:242   */\n      dup2\n        /* \"#utility.yul\":223:243   */\n      calldataload\n        /* \"#utility.yul\":214:243   */\n      swap1\n      pop\n        /* \"#utility.yul\":252:285   */\n      tag_112\n        /* \"#utility.yul\":279:284   */\n      dup2\n        /* \"#utility.yul\":252:285   */\n      tag_113\n      jump\t// in\n    tag_112:\n        /* \"#utility.yul\":152:291   */\n      swap3\n      swap2\n      pop\n      pop\n      jump\t// out\n        /* \"#utility.yul\":297:626   */\n    tag_11:\n        /* \"#utility.yul\":356:362   */\n      0x00\n        /* \"#utility.yul\":405:407   */\n      0x20\n        /* \"#utility.yul\":393:402   */\n      dup3\n        /* \"#utility.yul\":384:391   */\n      dup5\n        /* \"#utility.yul\":380:403   */\n      sub\n        /* \"#utility.yul\":376:408   */\n      slt\n        /* \"#utility.yul\":373:492   */\n      iszero\n      tag_115\n      jumpi\n        /* \"#utility.yul\":411:490   */\n      tag_116\n      tag_117\n      jump\t// in\n    tag_116:\n        /* \"#utility.yul\":373:492   */\n    tag_115:\n        /* \"#utility.yul\":531:532   */\n      0x00\n        /* \"#utility.yul\":556:609   */\n      tag_118\n        /* \"#utility.yul\":601:608   */\n      dup5\n        /* \"#utility.yul\":592:598   */\n      dup3\n        /* \"#utility.yul\":581:590   */\n      dup6\n        /* \"#utility.yul\":577:599   */\n      add\n        /* \"#utility.yul\":556:609   */\n      tag_106\n      jump\t// in\n    tag_118:\n        /* \"#utility.yul\":546:609   */\n      swap2\n      pop\n        /* \"#utility.yul\":502:619   */\n      pop\n        /* \"#utility.yul\":297:626   */\n      swap3\n      swap2\n      pop\n      pop\n      jump\t// out\n        /* \"#utility.yul\":632:961   */\n    tag_33:\n        /* \"#utility.yul\":691:697   */\n      0x00\n        /* \"#utility.yul\":740:742   */\n      0x20\n        /* \"#utility.yul\":728:737   */\n      dup3\n        /* \"#utility.yul\":719:726   */\n      dup5\n        /* \"#utility.yul\":715:738   */\n      sub\n        /* \"#utility.yul\":711:743   */\n      slt\n        /* \"#utility.yul\":708:827   */\n      iszero\n      tag_120\n      jumpi\n        /* \"#utility.yul\":746:825   */\n      tag_121\n      tag_117\n      jump\t// in\n    tag_121:\n        /* \"#utility.yul\":708:827   */\n    tag_120:\n        /* \"#utility.yul\":866:867   */\n      0x00\n        /* \"#utility.yul\":891:944   */\n      tag_122\n        /* \"#utility.yul\":936:943   */\n      dup5\n        /* \"#utility.yul\":927:933   */\n      dup3\n        /* \"#utility.yul\":916:925   */\n      dup6\n        /* \"#utility.yul\":912:934   */\n      add\n        /* \"#utility.yul\":891:944   */\n      tag_110\n      jump\t// in\n    tag_122:\n        /* \"#utility.yul\":881:944   */\n      swap2\n      pop\n        /* \"#utility.yul\":837:954   */\n      pop\n        /* \"#utility.yul\":632:961   */\n      swap3\n      swap2\n      pop\n      pop\n      jump\t// out\n        /* \"#utility.yul\":967:1586   */\n    tag_27:\n        /* \"#utility.yul\":1044:1050   */\n      0x00\n        /* \"#utility.yul\":1052:1058   */\n      dup1\n        /* \"#utility.yul\":1060:1066   */\n      0x00\n        /* \"#utility.yul\":1109:1111   */\n      0x60\n        /* \"#utility.yul\":1097:1106   */\n      dup5\n        /* \"#utility.yul\":1088:1095   */\n      dup7\n        /* \"#utility.yul\":1084:1107   */\n      sub\n        /* \"#utility.yul\":1080:1112   */\n      slt\n        /* \"#utility.yul\":1077:1196   */\n      iszero\n      tag_124\n      jumpi\n        /* \"#utility.yul\":1115:1194   */\n      tag_125\n      tag_117\n      jump\t// in\n    tag_125:\n        /* \"#utility.yul\":1077:1196   */\n    tag_124:\n        /* \"#utility.yul\":1235:1236   */\n      0x00\n        /* \"#utility.yul\":1260:1313   */\n      tag_126\n        /* \"#utility.yul\":1305:1312   */\n      dup7\n        /* \"#utility.yul\":1296:1302   */\n      dup3\n        /* \"#utility.yul\":1285:1294   */\n      dup8\n        /* \"#utility.yul\":1281:1303   */\n      add\n        /* \"#utility.yul\":1260:1313   */\n      tag_110\n      jump\t// in\n    tag_126:\n        /* \"#utility.yul\":1250:1313   */\n      swap4\n      pop\n        /* \"#utility.yul\":1206:1323   */\n      pop\n        /* \"#utility.yul\":1362:1364   */\n      0x20\n        /* \"#utility.yul\":1388:1441   */\n      tag_127\n        /* \"#utility.yul\":1433:1440   */\n      dup7\n        /* \"#utility.yul\":1424:1430   */\n      dup3\n        /* \"#utility.yul\":1413:1422   */\n      dup8\n        /* \"#utility.yul\":1409:1431   */\n      add\n        /* \"#utility.yul\":1388:1441   */\n      tag_106\n      jump\t// in\n    tag_127:\n        /* \"#utility.yul\":1378:1441   */\n      swap3\n      pop\n        /* \"#utility.yul\":1333:1451   */\n      pop\n        /* \"#utility.yul\":1490:1492   */\n      0x40\n        /* \"#utility.yul\":1516:1569   */\n      tag_128\n        /* \"#utility.yul\":1561:1568   */\n      dup7\n        /* \"#utility.yul\":1552:1558   */\n      dup3\n        /* \"#utility.yul\":1541:1550   */\n      dup8\n        /* \"#utility.yul\":1537:1559   */\n      add\n        /* \"#utility.yul\":1516:1569   */\n      tag_110\n      jump\t// in\n    tag_128:\n        /* \"#utility.yul\":1506:1569   */\n      swap2\n      pop\n        /* \"#utility.yul\":1461:1579   */\n      pop\n        /* \"#utility.yul\":967:1586   */\n      swap3\n      pop\n      swap3\n      pop\n      swap3\n      jump\t// out\n        /* \"#utility.yul\":1592:1710   */\n    tag_129:\n        /* \"#utility.yul\":1679:1703   */\n      tag_131\n        /* \"#utility.yul\":1697:1702   */\n      dup2\n        /* \"#utility.yul\":1679:1703   */\n      tag_132\n      jump\t// in\n    tag_131:\n        /* \"#utility.yul\":1674:1677   */\n      dup3\n        /* \"#utility.yul\":1667:1704   */\n      mstore\n        /* \"#utility.yul\":1592:1710   */\n      pop\n      pop\n      jump\t// out\n        /* \"#utility.yul\":1716:1825   */\n    tag_133:\n        /* \"#utility.yul\":1797:1818   */\n      tag_135\n        /* \"#utility.yul\":1812:1817   */\n      dup2\n        /* \"#utility.yul\":1797:1818   */\n      tag_136\n      jump\t// in\n    tag_135:\n        /* \"#utility.yul\":1792:1795   */\n      dup3\n        /* \"#utility.yul\":1785:1819   */\n      mstore\n        /* \"#utility.yul\":1716:1825   */\n      pop\n      pop\n      jump\t// out\n        /* \"#utility.yul\":1831:2197   */\n    tag_137:\n        /* \"#utility.yul\":1973:1976   */\n      0x00\n        /* \"#utility.yul\":1994:2061   */\n      tag_139\n        /* \"#utility.yul\":2058:2060   */\n      0x2d\n        /* \"#utility.yul\":2053:2056   */\n      dup4\n        /* \"#utility.yul\":1994:2061   */\n      tag_140\n      jump\t// in\n    tag_139:\n        /* \"#utility.yul\":1987:2061   */\n      swap2\n      pop\n        /* \"#utility.yul\":2070:2163   */\n      tag_141\n        /* \"#utility.yul\":2159:2162   */\n      dup3\n        /* \"#utility.yul\":2070:2163   */\n      tag_142\n      jump\t// in\n    tag_141:\n        /* \"#utility.yul\":2188:2190   */\n      0x40\n        /* \"#utility.yul\":2183:2186   */\n      dup3\n        /* \"#utility.yul\":2179:2191   */\n      add\n        /* \"#utility.yul\":2172:2191   */\n      swap1\n      pop\n        /* \"#utility.yul\":1831:2197   */\n      swap2\n      swap1\n      pop\n      jump\t// out\n        /* \"#utility.yul\":2203:2569   */\n    tag_143:\n        /* \"#utility.yul\":2345:2348   */\n      0x00\n        /* \"#utility.yul\":2366:2433   */\n      tag_145\n        /* \"#utility.yul\":2430:2432   */\n      0x17\n        /* \"#utility.yul\":2425:2428   */\n      dup4\n        /* \"#utility.yul\":2366:2433   */\n      tag_140\n      jump\t// in\n    tag_145:\n        /* \"#utility.yul\":2359:2433   */\n      swap2\n      pop\n        /* \"#utility.yul\":2442:2535   */\n      tag_146\n        /* \"#utility.yul\":2531:2534   */\n      dup3\n        /* \"#utility.yul\":2442:2535   */\n      tag_147\n      jump\t// in\n    tag_146:\n        /* \"#utility.yul\":2560:2562   */\n      0x20\n        /* \"#utility.yul\":2555:2558   */\n      dup3\n        /* \"#utility.yul\":2551:2563   */\n      add\n        /* \"#utility.yul\":2544:2563   */\n      swap1\n      pop\n        /* \"#utility.yul\":2203:2569   */\n      swap2\n      swap1\n      pop\n      jump\t// out\n        /* \"#utility.yul\":2575:2941   */\n    tag_148:\n        /* \"#utility.yul\":2717:2720   */\n      0x00\n        /* \"#utility.yul\":2738:2805   */\n      tag_150\n        /* \"#utility.yul\":2802:2804   */\n      0x12\n        /* \"#utility.yul\":2797:2800   */\n      dup4\n        /* \"#utility.yul\":2738:2805   */\n      tag_140\n      jump\t// in\n    tag_150:\n        /* \"#utility.yul\":2731:2805   */\n      swap2\n      pop\n        /* \"#utility.yul\":2814:2907   */\n      tag_151\n        /* \"#utility.yul\":2903:2906   */\n      dup3\n        /* \"#utility.yul\":2814:2907   */\n      tag_152\n      jump\t// in\n    tag_151:\n        /* \"#utility.yul\":2932:2934   */\n      0x20\n        /* \"#utility.yul\":2927:2930   */\n      dup3\n        /* \"#utility.yul\":2923:2935   */\n      add\n        /* \"#utility.yul\":2916:2935   */\n      swap1\n      pop\n        /* \"#utility.yul\":2575:2941   */\n      swap2\n      swap1\n      pop\n      jump\t// out\n        /* \"#utility.yul\":2947:3313   */\n    tag_153:\n        /* \"#utility.yul\":3089:3092   */\n      0x00\n        /* \"#utility.yul\":3110:3177   */\n      tag_155\n        /* \"#utility.yul\":3174:3176   */\n      0x3f\n        /* \"#utility.yul\":3169:3172   */\n      dup4\n        /* \"#utility.yul\":3110:3177   */\n      tag_140\n      jump\t// in\n    tag_155:\n        /* \"#utility.yul\":3103:3177   */\n      swap2\n      pop\n        /* \"#utility.yul\":3186:3279   */\n      tag_156\n        /* \"#utility.yul\":3275:3278   */\n      dup3\n        /* \"#utility.yul\":3186:3279   */\n      tag_157\n      jump\t// in\n    tag_156:\n        /* \"#utility.yul\":3304:3306   */\n      0x40\n        /* \"#utility.yul\":3299:3302   */\n      dup3\n        /* \"#utility.yul\":3295:3307   */\n      add\n        /* \"#utility.yul\":3288:3307   */\n      swap1\n      pop\n        /* \"#utility.yul\":2947:3313   */\n      swap2\n      swap1\n      pop\n      jump\t// out\n        /* \"#utility.yul\":3319:3685   */\n    tag_158:\n        /* \"#utility.yul\":3461:3464   */\n      0x00\n        /* \"#utility.yul\":3482:3549   */\n      tag_160\n        /* \"#utility.yul\":3546:3548   */\n      0x11\n        /* \"#utility.yul\":3541:3544   */\n      dup4\n        /* \"#utility.yul\":3482:3549   */\n      tag_140\n      jump\t// in\n    tag_160:\n        /* \"#utility.yul\":3475:3549   */\n      swap2\n      pop\n        /* \"#utility.yul\":3558:3651   */\n      tag_161\n        /* \"#utility.yul\":3647:3650   */\n      dup3\n        /* \"#utility.yul\":3558:3651   */\n      tag_162\n      jump\t// in\n    tag_161:\n        /* \"#utility.yul\":3676:3678   */\n      0x20\n        /* \"#utility.yul\":3671:3674   */\n      dup3\n        /* \"#utility.yul\":3667:3679   */\n      add\n        /* \"#utility.yul\":3660:3679   */\n      swap1\n      pop\n        /* \"#utility.yul\":3319:3685   */\n      swap2\n      swap1\n      pop\n      jump\t// out\n        /* \"#utility.yul\":3691:4057   */\n    tag_163:\n        /* \"#utility.yul\":3833:3836   */\n      0x00\n        /* \"#utility.yul\":3854:3921   */\n      tag_165\n        /* \"#utility.yul\":3918:3920   */\n      0x10\n        /* \"#utility.yul\":3913:3916   */\n      dup4\n        /* \"#utility.yul\":3854:3921   */\n      tag_140\n      jump\t// in\n    tag_165:\n        /* \"#utility.yul\":3847:3921   */\n      swap2\n      pop\n        /* \"#utility.yul\":3930:4023   */\n      tag_166\n        /* \"#utility.yul\":4019:4022   */\n      dup3\n        /* \"#utility.yul\":3930:4023   */\n      tag_167\n      jump\t// in\n    tag_166:\n        /* \"#utility.yul\":4048:4050   */\n      0x20\n        /* \"#utility.yul\":4043:4046   */\n      dup3\n        /* \"#utility.yul\":4039:4051   */\n      add\n        /* \"#utility.yul\":4032:4051   */\n      swap1\n      pop\n        /* \"#utility.yul\":3691:4057   */\n      swap2\n      swap1\n      pop\n      jump\t// out\n        /* \"#utility.yul\":4063:4181   */\n    tag_168:\n        /* \"#utility.yul\":4150:4174   */\n      tag_170\n        /* \"#utility.yul\":4168:4173   */\n      dup2\n        /* \"#utility.yul\":4150:4174   */\n      tag_171\n      jump\t// in\n    tag_170:\n        /* \"#utility.yul\":4145:4148   */\n      dup3\n        /* \"#utility.yul\":4138:4175   */\n      mstore\n        /* \"#utility.yul\":4063:4181   */\n      pop\n      pop\n      jump\t// out\n        /* \"#utility.yul\":4187:4409   */\n    tag_22:\n        /* \"#utility.yul\":4280:4284   */\n      0x00\n        /* \"#utility.yul\":4318:4320   */\n      0x20\n        /* \"#utility.yul\":4307:4316   */\n      dup3\n        /* \"#utility.yul\":4303:4321   */\n      add\n        /* \"#utility.yul\":4295:4321   */\n      swap1\n      pop\n        /* \"#utility.yul\":4331:4402   */\n      tag_173\n        /* \"#utility.yul\":4399:4400   */\n      0x00\n        /* \"#utility.yul\":4388:4397   */\n      dup4\n        /* \"#utility.yul\":4384:4401   */\n      add\n        /* \"#utility.yul\":4375:4381   */\n      dup5\n        /* \"#utility.yul\":4331:4402   */\n      tag_129\n      jump\t// in\n    tag_173:\n        /* \"#utility.yul\":4187:4409   */\n      swap3\n      swap2\n      pop\n      pop\n      jump\t// out\n        /* \"#utility.yul\":4415:4625   */\n    tag_30:\n        /* \"#utility.yul\":4502:4506   */\n      0x00\n        /* \"#utility.yul\":4540:4542   */\n      0x20\n        /* \"#utility.yul\":4529:4538   */\n      dup3\n        /* \"#utility.yul\":4525:4543   */\n      add\n        /* \"#utility.yul\":4517:4543   */\n      swap1\n      pop\n        /* \"#utility.yul\":4553:4618   */\n      tag_175\n        /* \"#utility.yul\":4615:4616   */\n      0x00\n        /* \"#utility.yul\":4604:4613   */\n      dup4\n        /* \"#utility.yul\":4600:4617   */\n      add\n        /* \"#utility.yul\":4591:4597   */\n      dup5\n        /* \"#utility.yul\":4553:4618   */\n      tag_133\n      jump\t// in\n    tag_175:\n        /* \"#utility.yul\":4415:4625   */\n      swap3\n      swap2\n      pop\n      pop\n      jump\t// out\n        /* \"#utility.yul\":4631:5050   */\n    tag_38:\n        /* \"#utility.yul\":4797:4801   */\n      0x00\n        /* \"#utility.yul\":4835:4837   */\n      0x20\n        /* \"#utility.yul\":4824:4833   */\n      dup3\n        /* \"#utility.yul\":4820:4838   */\n      add\n        /* \"#utility.yul\":4812:4838   */\n      swap1\n      pop\n        /* \"#utility.yul\":4884:4893   */\n      dup2\n        /* \"#utility.yul\":4878:4882   */\n      dup2\n        /* \"#utility.yul\":4874:4894   */\n      sub\n        /* \"#utility.yul\":4870:4871   */\n      0x00\n        /* \"#utility.yul\":4859:4868   */\n      dup4\n        /* \"#utility.yul\":4855:4872   */\n      add\n        /* \"#utility.yul\":4848:4895   */\n      mstore\n        /* \"#utility.yul\":4912:5043   */\n      tag_177\n        /* \"#utility.yul\":5038:5042   */\n      dup2\n        /* \"#utility.yul\":4912:5043   */\n      tag_137\n      jump\t// in\n    tag_177:\n        /* \"#utility.yul\":4904:5043   */\n      swap1\n      pop\n        /* \"#utility.yul\":4631:5050   */\n      swap2\n      swap1\n      pop\n      jump\t// out\n        /* \"#utility.yul\":5056:5475   */\n    tag_95:\n        /* \"#utility.yul\":5222:5226   */\n      0x00\n        /* \"#utility.yul\":5260:5262   */\n      0x20\n        /* \"#utility.yul\":5249:5258   */\n      dup3\n        /* \"#utility.yul\":5245:5263   */\n      add\n        /* \"#utility.yul\":5237:5263   */\n      swap1\n      pop\n        /* \"#utility.yul\":5309:5318   */\n      dup2\n        /* \"#utility.yul\":5303:5307   */\n      dup2\n        /* \"#utility.yul\":5299:5319   */\n      sub\n        /* \"#utility.yul\":5295:5296   */\n      0x00\n        /* \"#utility.yul\":5284:5293   */\n      dup4\n        /* \"#utility.yul\":5280:5297   */\n      add\n        /* \"#utility.yul\":5273:5320   */\n      mstore\n        /* \"#utility.yul\":5337:5468   */\n      tag_179\n        /* \"#utility.yul\":5463:5467   */\n      dup2\n        /* \"#utility.yul\":5337:5468   */\n      tag_143\n      jump\t// in\n    tag_179:\n        /* \"#utility.yul\":5329:5468   */\n      swap1\n      pop\n        /* \"#utility.yul\":5056:5475   */\n      swap2\n      swap1\n      pop\n      jump\t// out\n        /* \"#utility.yul\":5481:5900   */\n    tag_43:\n        /* \"#utility.yul\":5647:5651   */\n      0x00\n        /* \"#utility.yul\":5685:5687   */\n      0x20\n        /* \"#utility.yul\":5674:5683   */\n      dup3\n        /* \"#utility.yul\":5670:5688   */\n      add\n        /* \"#utility.yul\":5662:5688   */\n      swap1\n      pop\n        /* \"#utility.yul\":5734:5743   */\n      dup2\n        /* \"#utility.yul\":5728:5732   */\n      dup2\n        /* \"#utility.yul\":5724:5744   */\n      sub\n        /* \"#utility.yul\":5720:5721   */\n      0x00\n        /* \"#utility.yul\":5709:5718   */\n      dup4\n        /* \"#utility.yul\":5705:5722   */\n      add\n        /* \"#utility.yul\":5698:5745   */\n      mstore\n        /* \"#utility.yul\":5762:5893   */\n      tag_181\n        /* \"#utility.yul\":5888:5892   */\n      dup2\n        /* \"#utility.yul\":5762:5893   */\n      tag_148\n      jump\t// in\n    tag_181:\n        /* \"#utility.yul\":5754:5893   */\n      swap1\n      pop\n        /* \"#utility.yul\":5481:5900   */\n      swap2\n      swap1\n      pop\n      jump\t// out\n        /* \"#utility.yul\":5906:6325   */\n    tag_79:\n        /* \"#utility.yul\":6072:6076   */\n      0x00\n        /* \"#utility.yul\":6110:6112   */\n      0x20\n        /* \"#utility.yul\":6099:6108   */\n      dup3\n        /* \"#utility.yul\":6095:6113   */\n      add\n        /* \"#utility.yul\":6087:6113   */\n      swap1\n      pop\n        /* \"#utility.yul\":6159:6168   */\n      dup2\n        /* \"#utility.yul\":6153:6157   */\n      dup2\n        /* \"#utility.yul\":6149:6169   */\n      sub\n        /* \"#utility.yul\":6145:6146   */\n      0x00\n        /* \"#utility.yul\":6134:6143   */\n      dup4\n        /* \"#utility.yul\":6130:6147   */\n      add\n        /* \"#utility.yul\":6123:6170   */\n      mstore\n        /* \"#utility.yul\":6187:6318   */\n      tag_183\n        /* \"#utility.yul\":6313:6317   */\n      dup2\n        /* \"#utility.yul\":6187:6318   */\n      tag_153\n      jump\t// in\n    tag_183:\n        /* \"#utility.yul\":6179:6318   */\n      swap1\n      pop\n        /* \"#utility.yul\":5906:6325   */\n      swap2\n      swap1\n      pop\n      jump\t// out\n        /* \"#utility.yul\":6331:6750   */\n    tag_89:\n        /* \"#utility.yul\":6497:6501   */\n      0x00\n        /* \"#utility.yul\":6535:6537   */\n      0x20\n        /* \"#utility.yul\":6524:6533   */\n      dup3\n        /* \"#utility.yul\":6520:6538   */\n      add\n        /* \"#utility.yul\":6512:6538   */\n      swap1\n      pop\n        /* \"#utility.yul\":6584:6593   */\n      dup2\n        /* \"#utility.yul\":6578:6582   */\n      dup2\n        /* \"#utility.yul\":6574:6594   */\n      sub\n        /* \"#utility.yul\":6570:6571   */\n      0x00\n        /* \"#utility.yul\":6559:6568   */\n      dup4\n        /* \"#utility.yul\":6555:6572   */\n      add\n        /* \"#utility.yul\":6548:6595   */\n      mstore\n        /* \"#utility.yul\":6612:6743   */\n      tag_185\n        /* \"#utility.yul\":6738:6742   */\n      dup2\n        /* \"#utility.yul\":6612:6743   */\n      tag_158\n      jump\t// in\n    tag_185:\n        /* \"#utility.yul\":6604:6743   */\n      swap1\n      pop\n        /* \"#utility.yul\":6331:6750   */\n      swap2\n      swap1\n      pop\n      jump\t// out\n        /* \"#utility.yul\":6756:7175   */\n    tag_73:\n        /* \"#utility.yul\":6922:6926   */\n      0x00\n        /* \"#utility.yul\":6960:6962   */\n      0x20\n        /* \"#utility.yul\":6949:6958   */\n      dup3\n        /* \"#utility.yul\":6945:6963   */\n      add\n        /* \"#utility.yul\":6937:6963   */\n      swap1\n      pop\n        /* \"#utility.yul\":7009:7018   */\n      dup2\n        /* \"#utility.yul\":7003:7007   */\n      dup2\n        /* \"#utility.yul\":6999:7019   */\n      sub\n        /* \"#utility.yul\":6995:6996   */\n      0x00\n        /* \"#utility.yul\":6984:6993   */\n      dup4\n        /* \"#utility.yul\":6980:6997   */\n      add\n        /* \"#utility.yul\":6973:7020   */\n      mstore\n        /* \"#utility.yul\":7037:7168   */\n      tag_187\n        /* \"#utility.yul\":7163:7167   */\n      dup2\n        /* \"#utility.yul\":7037:7168   */\n      tag_163\n      jump\t// in\n    tag_187:\n        /* \"#utility.yul\":7029:7168   */\n      swap1\n      pop\n        /* \"#utility.yul\":6756:7175   */\n      swap2\n      swap1\n      pop\n      jump\t// out\n        /* \"#utility.yul\":7181:7403   */\n    tag_18:\n        /* \"#utility.yul\":7274:7278   */\n      0x00\n        /* \"#utility.yul\":7312:7314   */\n      0x20\n        /* \"#utility.yul\":7301:7310   */\n      dup3\n        /* \"#utility.yul\":7297:7315   */\n      add\n        /* \"#utility.yul\":7289:7315   */\n      swap1\n      pop\n        /* \"#utility.yul\":7325:7396   */\n      tag_189\n        /* \"#utility.yul\":7393:7394   */\n      0x00\n        /* \"#utility.yul\":7382:7391   */\n      dup4\n        /* \"#utility.yul\":7378:7395   */\n      add\n        /* \"#utility.yul\":7369:7375   */\n      dup5\n        /* \"#utility.yul\":7325:7396   */\n      tag_168\n      jump\t// in\n    tag_189:\n        /* \"#utility.yul\":7181:7403   */\n      swap3\n      swap2\n      pop\n      pop\n      jump\t// out\n        /* \"#utility.yul\":7409:7729   */\n    tag_14:\n        /* \"#utility.yul\":7524:7528   */\n      0x00\n        /* \"#utility.yul\":7562:7564   */\n      0x40\n        /* \"#utility.yul\":7551:7560   */\n      dup3\n        /* \"#utility.yul\":7547:7565   */\n      add\n        /* \"#utility.yul\":7539:7565   */\n      swap1\n      pop\n        /* \"#utility.yul\":7575:7646   */\n      tag_191\n        /* \"#utility.yul\":7643:7644   */\n      0x00\n        /* \"#utility.yul\":7632:7641   */\n      dup4\n        /* \"#utility.yul\":7628:7645   */\n      add\n        /* \"#utility.yul\":7619:7625   */\n      dup6\n        /* \"#utility.yul\":7575:7646   */\n      tag_168\n      jump\t// in\n    tag_191:\n        /* \"#utility.yul\":7656:7722   */\n      tag_192\n        /* \"#utility.yul\":7718:7720   */\n      0x20\n        /* \"#utility.yul\":7707:7716   */\n      dup4\n        /* \"#utility.yul\":7703:7721   */\n      add\n        /* \"#utility.yul\":7694:7700   */\n      dup5\n        /* \"#utility.yul\":7656:7722   */\n      tag_133\n      jump\t// in\n    tag_192:\n        /* \"#utility.yul\":7409:7729   */\n      swap4\n      swap3\n      pop\n      pop\n      pop\n      jump\t// out\n        /* \"#utility.yul\":7816:7985   */\n    tag_140:\n        /* \"#utility.yul\":7900:7911   */\n      0x00\n        /* \"#utility.yul\":7934:7940   */\n      dup3\n        /* \"#utility.yul\":7929:7932   */\n      dup3\n        /* \"#utility.yul\":7922:7941   */\n      mstore\n        /* \"#utility.yul\":7974:7978   */\n      0x20\n        /* \"#utility.yul\":7969:7972   */\n      dup3\n        /* \"#utility.yul\":7965:7979   */\n      add\n        /* \"#utility.yul\":7950:7979   */\n      swap1\n      pop\n        /* \"#utility.yul\":7816:7985   */\n      swap3\n      swap2\n      pop\n      pop\n      jump\t// out\n        /* \"#utility.yul\":7991:8182   */\n    tag_103:\n        /* \"#utility.yul\":8031:8035   */\n      0x00\n        /* \"#utility.yul\":8051:8071   */\n      tag_197\n        /* \"#utility.yul\":8069:8070   */\n      dup3\n        /* \"#utility.yul\":8051:8071   */\n      tag_171\n      jump\t// in\n    tag_197:\n        /* \"#utility.yul\":8046:8071   */\n      swap2\n      pop\n        /* \"#utility.yul\":8085:8105   */\n      tag_198\n        /* \"#utility.yul\":8103:8104   */\n      dup4\n        /* \"#utility.yul\":8085:8105   */\n      tag_171\n      jump\t// in\n    tag_198:\n        /* \"#utility.yul\":8080:8105   */\n      swap3\n      pop\n        /* \"#utility.yul\":8124:8125   */\n      dup3\n        /* \"#utility.yul\":8121:8122   */\n      dup3\n        /* \"#utility.yul\":8118:8126   */\n      lt\n        /* \"#utility.yul\":8115:8149   */\n      iszero\n      tag_199\n      jumpi\n        /* \"#utility.yul\":8129:8147   */\n      tag_200\n      tag_201\n      jump\t// in\n    tag_200:\n        /* \"#utility.yul\":8115:8149   */\n    tag_199:\n        /* \"#utility.yul\":8174:8175   */\n      dup3\n        /* \"#utility.yul\":8171:8172   */\n      dup3\n        /* \"#utility.yul\":8167:8176   */\n      sub\n        /* \"#utility.yul\":8159:8176   */\n      swap1\n      pop\n        /* \"#utility.yul\":7991:8182   */\n      swap3\n      swap2\n      pop\n      pop\n      jump\t// out\n        /* \"#utility.yul\":8188:8284   */\n    tag_132:\n        /* \"#utility.yul\":8225:8232   */\n      0x00\n        /* \"#utility.yul\":8254:8278   */\n      tag_203\n        /* \"#utility.yul\":8272:8277   */\n      dup3\n        /* \"#utility.yul\":8254:8278   */\n      tag_204\n      jump\t// in\n    tag_203:\n        /* \"#utility.yul\":8243:8278   */\n      swap1\n      pop\n        /* \"#utility.yul\":8188:8284   */\n      swap2\n      swap1\n      pop\n      jump\t// out\n        /* \"#utility.yul\":8290:8380   */\n    tag_136:\n        /* \"#utility.yul\":8324:8331   */\n      0x00\n        /* \"#utility.yul\":8367:8372   */\n      dup2\n        /* \"#utility.yul\":8360:8373   */\n      iszero\n        /* \"#utility.yul\":8353:8374   */\n      iszero\n        /* \"#utility.yul\":8342:8374   */\n      swap1\n      pop\n        /* \"#utility.yul\":8290:8380   */\n      swap2\n      swap1\n      pop\n      jump\t// out\n        /* \"#utility.yul\":8386:8512   */\n    tag_204:\n        /* \"#utility.yul\":8423:8430   */\n      0x00\n        /* \"#utility.yul\":8463:8505   */\n      0xffffffffffffffffffffffffffffffffffffffff\n        /* \"#utility.yul\":8456:8461   */\n      dup3\n        /* \"#utility.yul\":8452:8506   */\n      and\n        /* \"#utility.yul\":8441:8506   */\n      swap1\n      pop\n        /* \"#utility.yul\":8386:8512   */\n      swap2\n      swap1\n      pop\n      jump\t// out\n        /* \"#utility.yul\":8518:8595   */\n    tag_171:\n        /* \"#utility.yul\":8555:8562   */\n      0x00\n        /* \"#utility.yul\":8584:8589   */\n      dup2\n        /* \"#utility.yul\":8573:8589   */\n      swap1\n      pop\n        /* \"#utility.yul\":8518:8595   */\n      swap2\n      swap1\n      pop\n      jump\t// out\n        /* \"#utility.yul\":8601:8781   */\n    tag_201:\n        /* \"#utility.yul\":8649:8726   */\n      0x4e487b7100000000000000000000000000000000000000000000000000000000\n        /* \"#utility.yul\":8646:8647   */\n      0x00\n        /* \"#utility.yul\":8639:8727   */\n      mstore\n        /* \"#utility.yul\":8746:8750   */\n      0x11\n        /* \"#utility.yul\":8743:8744   */\n      0x04\n        /* \"#utility.yul\":8736:8751   */\n      mstore\n        /* \"#utility.yul\":8770:8774   */\n      0x24\n        /* \"#utility.yul\":8767:8768   */\n      0x00\n        /* \"#utility.yul\":8760:8775   */\n      revert\n        /* \"#utility.yul\":8787:8967   */\n    tag_56:\n        /* \"#utility.yul\":8835:8912   */\n      0x4e487b7100000000000000000000000000000000000000000000000000000000\n        /* \"#utility.yul\":8832:8833   */\n      0x00\n        /* \"#utility.yul\":8825:8913   */\n      mstore\n        /* \"#utility.yul\":8932:8936   */\n      0x31\n        /* \"#utility.yul\":8929:8930   */\n      0x04\n        /* \"#utility.yul\":8922:8937   */\n      mstore\n        /* \"#utility.yul\":8956:8960   */\n      0x24\n        /* \"#utility.yul\":8953:8954   */\n      0x00\n        /* \"#utility.yul\":8946:8961   */\n      revert\n        /* \"#utility.yul\":8973:9153   */\n    tag_49:\n        /* \"#utility.yul\":9021:9098   */\n      0x4e487b7100000000000000000000000000000000000000000000000000000000\n        /* \"#utility.yul\":9018:9019   */\n      0x00\n        /* \"#utility.yul\":9011:9099   */\n      mstore\n        /* \"#utility.yul\":9118:9122   */\n      0x32\n        /* \"#utility.yul\":9115:9116   */\n      0x04\n        /* \"#utility.yul\":9108:9123   */\n      mstore\n        /* \"#utility.yul\":9142:9146   */\n      0x24\n        /* \"#utility.yul\":9139:9140   */\n      0x00\n        /* \"#utility.yul\":9132:9147   */\n      revert\n        /* \"#utility.yul\":9282:9399   */\n    tag_117:\n        /* \"#utility.yul\":9391:9392   */\n      0x00\n        /* \"#utility.yul\":9388:9389   */\n      dup1\n        /* \"#utility.yul\":9381:9393   */\n      revert\n        /* \"#utility.yul\":9405:9637   */\n    tag_142:\n        /* \"#utility.yul\":9545:9579   */\n      0x4f6e6c79206372656174696e6720636f6e74726163742063616e2063616c6c20\n        /* \"#utility.yul\":9541:9542   */\n      0x00\n        /* \"#utility.yul\":9533:9539   */\n      dup3\n        /* \"#utility.yul\":9529:9543   */\n      add\n        /* \"#utility.yul\":9522:9580   */\n      mstore\n        /* \"#utility.yul\":9614:9629   */\n      0x746869732066756e6374696f6e00000000000000000000000000000000000000\n        /* \"#utility.yul\":9609:9611   */\n      0x20\n        /* \"#utility.yul\":9601:9607   */\n      dup3\n        /* \"#utility.yul\":9597:9612   */\n      add\n        /* \"#utility.yul\":9590:9630   */\n      mstore\n        /* \"#utility.yul\":9405:9637   */\n      pop\n      jump\t// out\n        /* \"#utility.yul\":9643:9816   */\n    tag_147:\n        /* \"#utility.yul\":9783:9808   */\n      0x6163636f756e7420616c72656164792064656c65746564000000000000000000\n        /* \"#utility.yul\":9779:9780   */\n      0x00\n        /* \"#utility.yul\":9771:9777   */\n      dup3\n        /* \"#utility.yul\":9767:9781   */\n      add\n        /* \"#utility.yul\":9760:9809   */\n      mstore\n        /* \"#utility.yul\":9643:9816   */\n      pop\n      jump\t// out\n        /* \"#utility.yul\":9822:9990   */\n    tag_152:\n        /* \"#utility.yul\":9962:9982   */\n      0x5768697465206c6973742069732066756c6c0000000000000000000000000000\n        /* \"#utility.yul\":9958:9959   */\n      0x00\n        /* \"#utility.yul\":9950:9956   */\n      dup3\n        /* \"#utility.yul\":9946:9960   */\n      add\n        /* \"#utility.yul\":9939:9983   */\n      mstore\n        /* \"#utility.yul\":9822:9990   */\n      pop\n      jump\t// out\n        /* \"#utility.yul\":9996:10246   */\n    tag_157:\n        /* \"#utility.yul\":10136:10170   */\n      0x536d61727420636f6e7472616374206e6f7420616c6c6f77656420746f207769\n        /* \"#utility.yul\":10132:10133   */\n      0x00\n        /* \"#utility.yul\":10124:10130   */\n      dup3\n        /* \"#utility.yul\":10120:10134   */\n      add\n        /* \"#utility.yul\":10113:10171   */\n      mstore\n        /* \"#utility.yul\":10205:10238   */\n      0x746864726177206d6f6e6579207468726f756768742074686973206761746500\n        /* \"#utility.yul\":10200:10202   */\n      0x20\n        /* \"#utility.yul\":10192:10198   */\n      dup3\n        /* \"#utility.yul\":10188:10203   */\n      add\n        /* \"#utility.yul\":10181:10239   */\n      mstore\n        /* \"#utility.yul\":9996:10246   */\n      pop\n      jump\t// out\n        /* \"#utility.yul\":10252:10419   */\n    tag_162:\n        /* \"#utility.yul\":10392:10411   */\n      0x546f6b656e206e6f742063726561746564000000000000000000000000000000\n        /* \"#utility.yul\":10388:10389   */\n      0x00\n        /* \"#utility.yul\":10380:10386   */\n      dup3\n        /* \"#utility.yul\":10376:10390   */\n      add\n        /* \"#utility.yul\":10369:10412   */\n      mstore\n        /* \"#utility.yul\":10252:10419   */\n      pop\n      jump\t// out\n        /* \"#utility.yul\":10425:10591   */\n    tag_167:\n        /* \"#utility.yul\":10565:10583   */\n      0x44656c6574656420436f6e747261637400000000000000000000000000000000\n        /* \"#utility.yul\":10561:10562   */\n      0x00\n        /* \"#utility.yul\":10553:10559   */\n      dup3\n        /* \"#utility.yul\":10549:10563   */\n      add\n        /* \"#utility.yul\":10542:10584   */\n      mstore\n        /* \"#utility.yul\":10425:10591   */\n      pop\n      jump\t// out\n        /* \"#utility.yul\":10597:10719   */\n    tag_109:\n        /* \"#utility.yul\":10670:10694   */\n      tag_221\n        /* \"#utility.yul\":10688:10693   */\n      dup2\n        /* \"#utility.yul\":10670:10694   */\n      tag_132\n      jump\t// in\n    tag_221:\n        /* \"#utility.yul\":10663:10668   */\n      dup2\n        /* \"#utility.yul\":10660:10695   */\n      eq\n        /* \"#utility.yul\":10650:10713   */\n      tag_222\n      jumpi\n        /* \"#utility.yul\":10709:10710   */\n      0x00\n        /* \"#utility.yul\":10706:10707   */\n      dup1\n        /* \"#utility.yul\":10699:10711   */\n      revert\n        /* \"#utility.yul\":10650:10713   */\n    tag_222:\n        /* \"#utility.yul\":10597:10719   */\n      pop\n      jump\t// out\n        /* \"#utility.yul\":10725:10847   */\n    tag_113:\n        /* \"#utility.yul\":10798:10822   */\n      tag_224\n        /* \"#utility.yul\":10816:10821   */\n      dup2\n        /* \"#utility.yul\":10798:10822   */\n      tag_171\n      jump\t// in\n    tag_224:\n        /* \"#utility.yul\":10791:10796   */\n      dup2\n        /* \"#utility.yul\":10788:10823   */\n      eq\n        /* \"#utility.yul\":10778:10841   */\n      tag_225\n      jumpi\n        /* \"#utility.yul\":10837:10838   */\n      0x00\n        /* \"#utility.yul\":10834:10835   */\n      dup1\n        /* \"#utility.yul\":10827:10839   */\n      revert\n        /* \"#utility.yul\":10778:10841   */\n    tag_225:\n        /* \"#utility.yul\":10725:10847   */\n      pop\n      jump\t// out\n\n    auxdata: 0xa26469706673582212208765d6055d6343e35b3612db6a7a53b6c886e421cbe1710ea6de83e0eca301dd64736f6c63430008070033\n}\n",
				"bytecode": {
					"linkReferences": {},
					"object": "608060405234801561001057600080fd5b50604051610f68380380610f6883398181016040528101906100329190610094565b336000806101000a81548173ffffffffffffffffffffffffffffffffffffffff021916908373ffffffffffffffffffffffffffffffffffffffff16021790555080600381905550506100e7565b60008151905061008e816100d0565b92915050565b6000602082840312156100aa576100a96100cb565b5b60006100b88482850161007f565b91505092915050565b6000819050919050565b600080fd5b6100d9816100c1565b81146100e457600080fd5b50565b610e72806100f66000396000f3fe608060405234801561001057600080fd5b50600436106100625760003560e01c8063317549f21461006757806389f78c8e146100985780639dc61d4f146100b6578063ac446002146100d4578063bc134ae3146100de578063cbc20f301461010e575b600080fd5b610081600480360381019061007c91906108c7565b61012a565b60405161008f929190610b84565b60405180910390f35b6100a06103a8565b6040516100ad9190610b69565b60405180910390f35b6100be6103ae565b6040516100cb9190610a73565b60405180910390f35b6100dc6103d2565b005b6100f860048036038101906100f39190610921565b6104a5565b6040516101059190610a8e565b60405180910390f35b610128600480360381019061012391906108f4565b61066b565b005b60008060008054906101000a900473ffffffffffffffffffffffffffffffffffffffff1673ffffffffffffffffffffffffffffffffffffffff163373ffffffffffffffffffffffffffffffffffffffff16146101bb576040517f08c379a00000000000000000000000000000000000000000000000000000000081526004016101b290610aa9565b60405180910390fd5b60035460018054905010806101d65750600060028054905014155b610215576040517f08c379a000000000000000000000000000000000000000000000000000000000815260040161020c90610ae9565b60405180910390fd5b600060028054905014610308576000600261023f600160028054905061087890919063ffffffff16565b815481106102505761024f610c98565b5b90600052602060002001549050836001828154811061027257610271610c98565b5b9060005260206000200160006101000a81548173ffffffffffffffffffffffffffffffffffffffff021916908373ffffffffffffffffffffffffffffffffffffffff16021790555060028054806102cc576102cb610c69565b5b600190038181906000526020600020016000905590558060035460018054905010806102fe5750600060028054905014155b92509250506103a3565b6001839080600181540180825580915050600190039060005260206000200160009091909190916101000a81548173ffffffffffffffffffffffffffffffffffffffff021916908373ffffffffffffffffffffffffffffffffffffffff1602179055506103836001808054905061087890919063ffffffff16565b600354600180549050108061039e5750600060028054905014155b915091505b915091565b60035481565b60008054906101000a900473ffffffffffffffffffffffffffffffffffffffff1681565b6000600460003373ffffffffffffffffffffffffffffffffffffffff1673ffffffffffffffffffffffffffffffffffffffff1681526020019081526020016000205490506000600460003373ffffffffffffffffffffffffffffffffffffffff1673ffffffffffffffffffffffffffffffffffffffff168152602001908152602001600020819055503373ffffffffffffffffffffffffffffffffffffffff166108fc829081150290604051600060405180830381858888f193505050501580156104a1573d6000803e3d6000fd5b5050565b60008360018054905081106104b957600080fd5b600073ffffffffffffffffffffffffffffffffffffffff16600182815481106104e5576104e4610c98565b5b9060005260206000200160009054906101000a900473ffffffffffffffffffffffffffffffffffffffff1673ffffffffffffffffffffffffffffffffffffffff161415610567576040517f08c379a000000000000000000000000000000000000000000000000000000000815260040161055e90610b49565b60405180910390fd5b6001818154811061057b5761057a610c98565b5b9060005260206000200160009054906101000a900473ffffffffffffffffffffffffffffffffffffffff1673ffffffffffffffffffffffffffffffffffffffff163373ffffffffffffffffffffffffffffffffffffffff1614610613576040517f08c379a000000000000000000000000000000000000000000000000000000000815260040161060a90610b09565b60405180910390fd5b61061b61089b565b82600460008673ffffffffffffffffffffffffffffffffffffffff1673ffffffffffffffffffffffffffffffffffffffff1681526020019081526020016000208190555060019150509392505050565b60008054906101000a900473ffffffffffffffffffffffffffffffffffffffff1673ffffffffffffffffffffffffffffffffffffffff163373ffffffffffffffffffffffffffffffffffffffff16146106f9576040517f08c379a00000000000000000000000000000000000000000000000000000000081526004016106f090610aa9565b60405180910390fd5b6001805490508110610740576040517f08c379a000000000000000000000000000000000000000000000000000000000815260040161073790610b29565b60405180910390fd5b600073ffffffffffffffffffffffffffffffffffffffff166001828154811061076c5761076b610c98565b5b9060005260206000200160009054906101000a900473ffffffffffffffffffffffffffffffffffffffff1673ffffffffffffffffffffffffffffffffffffffff1614156107ee576040517f08c379a00000000000000000000000000000000000000000000000000000000081526004016107e590610ac9565b60405180910390fd5b60006001828154811061080457610803610c98565b5b9060005260206000200160006101000a81548173ffffffffffffffffffffffffffffffffffffffff021916908373ffffffffffffffffffffffffffffffffffffffff160217905550600281908060018154018082558091505060019003906000526020600020016000909190919091505550565b60008282111561088757600080fd5b81836108939190610bbe565b905092915050565b565b6000813590506108ac81610e0e565b92915050565b6000813590506108c181610e25565b92915050565b6000602082840312156108dd576108dc610cc7565b5b60006108eb8482850161089d565b91505092915050565b60006020828403121561090a57610909610cc7565b5b6000610918848285016108b2565b91505092915050565b60008060006060848603121561093a57610939610cc7565b5b6000610948868287016108b2565b93505060206109598682870161089d565b925050604061096a868287016108b2565b9150509250925092565b61097d81610bf2565b82525050565b61098c81610c04565b82525050565b600061099f602d83610bad565b91506109aa82610ccc565b604082019050919050565b60006109c2601783610bad565b91506109cd82610d1b565b602082019050919050565b60006109e5601283610bad565b91506109f082610d44565b602082019050919050565b6000610a08603f83610bad565b9150610a1382610d6d565b604082019050919050565b6000610a2b601183610bad565b9150610a3682610dbc565b602082019050919050565b6000610a4e601083610bad565b9150610a5982610de5565b602082019050919050565b610a6d81610c30565b82525050565b6000602082019050610a886000830184610974565b92915050565b6000602082019050610aa36000830184610983565b92915050565b60006020820190508181036000830152610ac281610992565b9050919050565b60006020820190508181036000830152610ae2816109b5565b9050919050565b60006020820190508181036000830152610b02816109d8565b9050919050565b60006020820190508181036000830152610b22816109fb565b9050919050565b60006020820190508181036000830152610b4281610a1e565b9050919050565b60006020820190508181036000830152610b6281610a41565b9050919050565b6000602082019050610b7e6000830184610a64565b92915050565b6000604082019050610b996000830185610a64565b610ba66020830184610983565b9392505050565b600082825260208201905092915050565b6000610bc982610c30565b9150610bd483610c30565b925082821015610be757610be6610c3a565b5b828203905092915050565b6000610bfd82610c10565b9050919050565b60008115159050919050565b600073ffffffffffffffffffffffffffffffffffffffff82169050919050565b6000819050919050565b7f4e487b7100000000000000000000000000000000000000000000000000000000600052601160045260246000fd5b7f4e487b7100000000000000000000000000000000000000000000000000000000600052603160045260246000fd5b7f4e487b7100000000000000000000000000000000000000000000000000000000600052603260045260246000fd5b600080fd5b7f4f6e6c79206372656174696e6720636f6e74726163742063616e2063616c6c2060008201527f746869732066756e6374696f6e00000000000000000000000000000000000000602082015250565b7f6163636f756e7420616c72656164792064656c65746564000000000000000000600082015250565b7f5768697465206c6973742069732066756c6c0000000000000000000000000000600082015250565b7f536d61727420636f6e7472616374206e6f7420616c6c6f77656420746f20776960008201527f746864726177206d6f6e6579207468726f756768742074686973206761746500602082015250565b7f546f6b656e206e6f742063726561746564000000000000000000000000000000600082015250565b7f44656c6574656420436f6e747261637400000000000000000000000000000000600082015250565b610e1781610bf2565b8114610e2257600080fd5b50565b610e2e81610c30565b8114610e3957600080fd5b5056fea26469706673582212208765d6055d6343e35b3612db6a7a53b6c886e421cbe1710ea6de83e0eca301dd64736f6c63430008070033",
					"opcodes": "PUSH1 0x80 PUSH1 0x40 MSTORE CALLVALUE DUP1 ISZERO PUSH2 0x10 JUMPI PUSH1 0x0 DUP1 REVERT JUMPDEST POP PUSH1 0x40 MLOAD PUSH2 0xF68 CODESIZE SUB DUP1 PUSH2 0xF68 DUP4 CODECOPY DUP2 DUP2 ADD PUSH1 0x40 MSTORE DUP2 ADD SWAP1 PUSH2 0x32 SWAP2 SWAP1 PUSH2 0x94 JUMP JUMPDEST CALLER PUSH1 0x0 DUP1 PUSH2 0x100 EXP DUP2 SLOAD DUP2 PUSH20 0xFFFFFFFFFFFFFFFFFFFFFFFFFFFFFFFFFFFFFFFF MUL NOT AND SWAP1 DUP4 PUSH20 0xFFFFFFFFFFFFFFFFFFFFFFFFFFFFFFFFFFFFFFFF AND MUL OR SWAP1 SSTORE POP DUP1 PUSH1 0x3 DUP2 SWAP1 SSTORE POP POP PUSH2 0xE7 JUMP JUMPDEST PUSH1 0x0 DUP2 MLOAD SWAP1 POP PUSH2 0x8E DUP2 PUSH2 0xD0 JUMP JUMPDEST SWAP3 SWAP2 POP POP JUMP JUMPDEST PUSH1 0x0 PUSH1 0x20 DUP3 DUP5 SUB SLT ISZERO PUSH2 0xAA JUMPI PUSH2 0xA9 PUSH2 0xCB JUMP JUMPDEST JUMPDEST PUSH1 0x0 PUSH2 0xB8 DUP5 DUP3 DUP6 ADD PUSH2 0x7F JUMP JUMPDEST SWAP2 POP POP SWAP3 SWAP2 POP POP JUMP JUMPDEST PUSH1 0x0 DUP2 SWAP1 POP SWAP2 SWAP1 POP JUMP JUMPDEST PUSH1 0x0 DUP1 REVERT JUMPDEST PUSH2 0xD9 DUP2 PUSH2 0xC1 JUMP JUMPDEST DUP2 EQ PUSH2 0xE4 JUMPI PUSH1 0x0 DUP1 REVERT JUMPDEST POP JUMP JUMPDEST PUSH2 0xE72 DUP1 PUSH2 0xF6 PUSH1 0x0 CODECOPY PUSH1 0x0 RETURN INVALID PUSH1 0x80 PUSH1 0x40 MSTORE CALLVALUE DUP1 ISZERO PUSH2 0x10 JUMPI PUSH1 0x0 DUP1 REVERT JUMPDEST POP PUSH1 0x4 CALLDATASIZE LT PUSH2 0x62 JUMPI PUSH1 0x0 CALLDATALOAD PUSH1 0xE0 SHR DUP1 PUSH4 0x317549F2 EQ PUSH2 0x67 JUMPI DUP1 PUSH4 0x89F78C8E EQ PUSH2 0x98 JUMPI DUP1 PUSH4 0x9DC61D4F EQ PUSH2 0xB6 JUMPI DUP1 PUSH4 0xAC446002 EQ PUSH2 0xD4 JUMPI DUP1 PUSH4 0xBC134AE3 EQ PUSH2 0xDE JUMPI DUP1 PUSH4 0xCBC20F30 EQ PUSH2 0x10E JUMPI JUMPDEST PUSH1 0x0 DUP1 REVERT JUMPDEST PUSH2 0x81 PUSH1 0x4 DUP1 CALLDATASIZE SUB DUP2 ADD SWAP1 PUSH2 0x7C SWAP2 SWAP1 PUSH2 0x8C7 JUMP JUMPDEST PUSH2 0x12A JUMP JUMPDEST PUSH1 0x40 MLOAD PUSH2 0x8F SWAP3 SWAP2 SWAP1 PUSH2 0xB84 JUMP JUMPDEST PUSH1 0x40 MLOAD DUP1 SWAP2 SUB SWAP1 RETURN JUMPDEST PUSH2 0xA0 PUSH2 0x3A8 JUMP JUMPDEST PUSH1 0x40 MLOAD PUSH2 0xAD SWAP2 SWAP1 PUSH2 0xB69 JUMP JUMPDEST PUSH1 0x40 MLOAD DUP1 SWAP2 SUB SWAP1 RETURN JUMPDEST PUSH2 0xBE PUSH2 0x3AE JUMP JUMPDEST PUSH1 0x40 MLOAD PUSH2 0xCB SWAP2 SWAP1 PUSH2 0xA73 JUMP JUMPDEST PUSH1 0x40 MLOAD DUP1 SWAP2 SUB SWAP1 RETURN JUMPDEST PUSH2 0xDC PUSH2 0x3D2 JUMP JUMPDEST STOP JUMPDEST PUSH2 0xF8 PUSH1 0x4 DUP1 CALLDATASIZE SUB DUP2 ADD SWAP1 PUSH2 0xF3 SWAP2 SWAP1 PUSH2 0x921 JUMP JUMPDEST PUSH2 0x4A5 JUMP JUMPDEST PUSH1 0x40 MLOAD PUSH2 0x105 SWAP2 SWAP1 PUSH2 0xA8E JUMP JUMPDEST PUSH1 0x40 MLOAD DUP1 SWAP2 SUB SWAP1 RETURN JUMPDEST PUSH2 0x128 PUSH1 0x4 DUP1 CALLDATASIZE SUB DUP2 ADD SWAP1 PUSH2 0x123 SWAP2 SWAP1 PUSH2 0x8F4 JUMP JUMPDEST PUSH2 0x66B JUMP JUMPDEST STOP JUMPDEST PUSH1 0x0 DUP1 PUSH1 0x0 DUP1 SLOAD SWAP1 PUSH2 0x100 EXP SWAP1 DIV PUSH20 0xFFFFFFFFFFFFFFFFFFFFFFFFFFFFFFFFFFFFFFFF AND PUSH20 0xFFFFFFFFFFFFFFFFFFFFFFFFFFFFFFFFFFFFFFFF AND CALLER PUSH20 0xFFFFFFFFFFFFFFFFFFFFFFFFFFFFFFFFFFFFFFFF AND EQ PUSH2 0x1BB JUMPI PUSH1 0x40 MLOAD PUSH32 0x8C379A000000000000000000000000000000000000000000000000000000000 DUP2 MSTORE PUSH1 0x4 ADD PUSH2 0x1B2 SWAP1 PUSH2 0xAA9 JUMP JUMPDEST PUSH1 0x40 MLOAD DUP1 SWAP2 SUB SWAP1 REVERT JUMPDEST PUSH1 0x3 SLOAD PUSH1 0x1 DUP1 SLOAD SWAP1 POP LT DUP1 PUSH2 0x1D6 JUMPI POP PUSH1 0x0 PUSH1 0x2 DUP1 SLOAD SWAP1 POP EQ ISZERO JUMPDEST PUSH2 0x215 JUMPI PUSH1 0x40 MLOAD PUSH32 0x8C379A000000000000000000000000000000000000000000000000000000000 DUP2 MSTORE PUSH1 0x4 ADD PUSH2 0x20C SWAP1 PUSH2 0xAE9 JUMP JUMPDEST PUSH1 0x40 MLOAD DUP1 SWAP2 SUB SWAP1 REVERT JUMPDEST PUSH1 0x0 PUSH1 0x2 DUP1 SLOAD SWAP1 POP EQ PUSH2 0x308 JUMPI PUSH1 0x0 PUSH1 0x2 PUSH2 0x23F PUSH1 0x1 PUSH1 0x2 DUP1 SLOAD SWAP1 POP PUSH2 0x878 SWAP1 SWAP2 SWAP1 PUSH4 0xFFFFFFFF AND JUMP JUMPDEST DUP2 SLOAD DUP2 LT PUSH2 0x250 JUMPI PUSH2 0x24F PUSH2 0xC98 JUMP JUMPDEST JUMPDEST SWAP1 PUSH1 0x0 MSTORE PUSH1 0x20 PUSH1 0x0 KECCAK256 ADD SLOAD SWAP1 POP DUP4 PUSH1 0x1 DUP3 DUP2 SLOAD DUP2 LT PUSH2 0x272 JUMPI PUSH2 0x271 PUSH2 0xC98 JUMP JUMPDEST JUMPDEST SWAP1 PUSH1 0x0 MSTORE PUSH1 0x20 PUSH1 0x0 KECCAK256 ADD PUSH1 0x0 PUSH2 0x100 EXP DUP2 SLOAD DUP2 PUSH20 0xFFFFFFFFFFFFFFFFFFFFFFFFFFFFFFFFFFFFFFFF MUL NOT AND SWAP1 DUP4 PUSH20 0xFFFFFFFFFFFFFFFFFFFFFFFFFFFFFFFFFFFFFFFF AND MUL OR SWAP1 SSTORE POP PUSH1 0x2 DUP1 SLOAD DUP1 PUSH2 0x2CC JUMPI PUSH2 0x2CB PUSH2 0xC69 JUMP JUMPDEST JUMPDEST PUSH1 0x1 SWAP1 SUB DUP2 DUP2 SWAP1 PUSH1 0x0 MSTORE PUSH1 0x20 PUSH1 0x0 KECCAK256 ADD PUSH1 0x0 SWAP1 SSTORE SWAP1 SSTORE DUP1 PUSH1 0x3 SLOAD PUSH1 0x1 DUP1 SLOAD SWAP1 POP LT DUP1 PUSH2 0x2FE JUMPI POP PUSH1 0x0 PUSH1 0x2 DUP1 SLOAD SWAP1 POP EQ ISZERO JUMPDEST SWAP3 POP SWAP3 POP POP PUSH2 0x3A3 JUMP JUMPDEST PUSH1 0x1 DUP4 SWAP1 DUP1 PUSH1 0x1 DUP2 SLOAD ADD DUP1 DUP3 SSTORE DUP1 SWAP2 POP POP PUSH1 0x1 SWAP1 SUB SWAP1 PUSH1 0x0 MSTORE PUSH1 0x20 PUSH1 0x0 KECCAK256 ADD PUSH1 0x0 SWAP1 SWAP2 SWAP1 SWAP2 SWAP1 SWAP2 PUSH2 0x100 EXP DUP2 SLOAD DUP2 PUSH20 0xFFFFFFFFFFFFFFFFFFFFFFFFFFFFFFFFFFFFFFFF MUL NOT AND SWAP1 DUP4 PUSH20 0xFFFFFFFFFFFFFFFFFFFFFFFFFFFFFFFFFFFFFFFF AND MUL OR SWAP1 SSTORE POP PUSH2 0x383 PUSH1 0x1 DUP1 DUP1 SLOAD SWAP1 POP PUSH2 0x878 SWAP1 SWAP2 SWAP1 PUSH4 0xFFFFFFFF AND JUMP JUMPDEST PUSH1 0x3 SLOAD PUSH1 0x1 DUP1 SLOAD SWAP1 POP LT DUP1 PUSH2 0x39E JUMPI POP PUSH1 0x0 PUSH1 0x2 DUP1 SLOAD SWAP1 POP EQ ISZERO JUMPDEST SWAP2 POP SWAP2 POP JUMPDEST SWAP2 POP SWAP2 JUMP JUMPDEST PUSH1 0x3 SLOAD DUP2 JUMP JUMPDEST PUSH1 0x0 DUP1 SLOAD SWAP1 PUSH2 0x100 EXP SWAP1 DIV PUSH20 0xFFFFFFFFFFFFFFFFFFFFFFFFFFFFFFFFFFFFFFFF AND DUP2 JUMP JUMPDEST PUSH1 0x0 PUSH1 0x4 PUSH1 0x0 CALLER PUSH20 0xFFFFFFFFFFFFFFFFFFFFFFFFFFFFFFFFFFFFFFFF AND PUSH20 0xFFFFFFFFFFFFFFFFFFFFFFFFFFFFFFFFFFFFFFFF AND DUP2 MSTORE PUSH1 0x20 ADD SWAP1 DUP2 MSTORE PUSH1 0x20 ADD PUSH1 0x0 KECCAK256 SLOAD SWAP1 POP PUSH1 0x0 PUSH1 0x4 PUSH1 0x0 CALLER PUSH20 0xFFFFFFFFFFFFFFFFFFFFFFFFFFFFFFFFFFFFFFFF AND PUSH20 0xFFFFFFFFFFFFFFFFFFFFFFFFFFFFFFFFFFFFFFFF AND DUP2 MSTORE PUSH1 0x20 ADD SWAP1 DUP2 MSTORE PUSH1 0x20 ADD PUSH1 0x0 KECCAK256 DUP2 SWAP1 SSTORE POP CALLER PUSH20 0xFFFFFFFFFFFFFFFFFFFFFFFFFFFFFFFFFFFFFFFF AND PUSH2 0x8FC DUP3 SWAP1 DUP2 ISZERO MUL SWAP1 PUSH1 0x40 MLOAD PUSH1 0x0 PUSH1 0x40 MLOAD DUP1 DUP4 SUB DUP2 DUP6 DUP9 DUP9 CALL SWAP4 POP POP POP POP ISZERO DUP1 ISZERO PUSH2 0x4A1 JUMPI RETURNDATASIZE PUSH1 0x0 DUP1 RETURNDATACOPY RETURNDATASIZE PUSH1 0x0 REVERT JUMPDEST POP POP JUMP JUMPDEST PUSH1 0x0 DUP4 PUSH1 0x1 DUP1 SLOAD SWAP1 POP DUP2 LT PUSH2 0x4B9 JUMPI PUSH1 0x0 DUP1 REVERT JUMPDEST PUSH1 0x0 PUSH20 0xFFFFFFFFFFFFFFFFFFFFFFFFFFFFFFFFFFFFFFFF AND PUSH1 0x1 DUP3 DUP2 SLOAD DUP2 LT PUSH2 0x4E5 JUMPI PUSH2 0x4E4 PUSH2 0xC98 JUMP JUMPDEST JUMPDEST SWAP1 PUSH1 0x0 MSTORE PUSH1 0x20 PUSH1 0x0 KECCAK256 ADD PUSH1 0x0 SWAP1 SLOAD SWAP1 PUSH2 0x100 EXP SWAP1 DIV PUSH20 0xFFFFFFFFFFFFFFFFFFFFFFFFFFFFFFFFFFFFFFFF AND PUSH20 0xFFFFFFFFFFFFFFFFFFFFFFFFFFFFFFFFFFFFFFFF AND EQ ISZERO PUSH2 0x567 JUMPI PUSH1 0x40 MLOAD PUSH32 0x8C379A000000000000000000000000000000000000000000000000000000000 DUP2 MSTORE PUSH1 0x4 ADD PUSH2 0x55E SWAP1 PUSH2 0xB49 JUMP JUMPDEST PUSH1 0x40 MLOAD DUP1 SWAP2 SUB SWAP1 REVERT JUMPDEST PUSH1 0x1 DUP2 DUP2 SLOAD DUP2 LT PUSH2 0x57B JUMPI PUSH2 0x57A PUSH2 0xC98 JUMP JUMPDEST JUMPDEST SWAP1 PUSH1 0x0 MSTORE PUSH1 0x20 PUSH1 0x0 KECCAK256 ADD PUSH1 0x0 SWAP1 SLOAD SWAP1 PUSH2 0x100 EXP SWAP1 DIV PUSH20 0xFFFFFFFFFFFFFFFFFFFFFFFFFFFFFFFFFFFFFFFF AND PUSH20 0xFFFFFFFFFFFFFFFFFFFFFFFFFFFFFFFFFFFFFFFF AND CALLER PUSH20 0xFFFFFFFFFFFFFFFFFFFFFFFFFFFFFFFFFFFFFFFF AND EQ PUSH2 0x613 JUMPI PUSH1 0x40 MLOAD PUSH32 0x8C379A000000000000000000000000000000000000000000000000000000000 DUP2 MSTORE PUSH1 0x4 ADD PUSH2 0x60A SWAP1 PUSH2 0xB09 JUMP JUMPDEST PUSH1 0x40 MLOAD DUP1 SWAP2 SUB SWAP1 REVERT JUMPDEST PUSH2 0x61B PUSH2 0x89B JUMP JUMPDEST DUP3 PUSH1 0x4 PUSH1 0x0 DUP7 PUSH20 0xFFFFFFFFFFFFFFFFFFFFFFFFFFFFFFFFFFFFFFFF AND PUSH20 0xFFFFFFFFFFFFFFFFFFFFFFFFFFFFFFFFFFFFFFFF AND DUP2 MSTORE PUSH1 0x20 ADD SWAP1 DUP2 MSTORE PUSH1 0x20 ADD PUSH1 0x0 KECCAK256 DUP2 SWAP1 SSTORE POP PUSH1 0x1 SWAP2 POP POP SWAP4 SWAP3 POP POP POP JUMP JUMPDEST PUSH1 0x0 DUP1 SLOAD SWAP1 PUSH2 0x100 EXP SWAP1 DIV PUSH20 0xFFFFFFFFFFFFFFFFFFFFFFFFFFFFFFFFFFFFFFFF AND PUSH20 0xFFFFFFFFFFFFFFFFFFFFFFFFFFFFFFFFFFFFFFFF AND CALLER PUSH20 0xFFFFFFFFFFFFFFFFFFFFFFFFFFFFFFFFFFFFFFFF AND EQ PUSH2 0x6F9 JUMPI PUSH1 0x40 MLOAD PUSH32 0x8C379A000000000000000000000000000000000000000000000000000000000 DUP2 MSTORE PUSH1 0x4 ADD PUSH2 0x6F0 SWAP1 PUSH2 0xAA9 JUMP JUMPDEST PUSH1 0x40 MLOAD DUP1 SWAP2 SUB SWAP1 REVERT JUMPDEST PUSH1 0x1 DUP1 SLOAD SWAP1 POP DUP2 LT PUSH2 0x740 JUMPI PUSH1 0x40 MLOAD PUSH32 0x8C379A000000000000000000000000000000000000000000000000000000000 DUP2 MSTORE PUSH1 0x4 ADD PUSH2 0x737 SWAP1 PUSH2 0xB29 JUMP JUMPDEST PUSH1 0x40 MLOAD DUP1 SWAP2 SUB SWAP1 REVERT JUMPDEST PUSH1 0x0 PUSH20 0xFFFFFFFFFFFFFFFFFFFFFFFFFFFFFFFFFFFFFFFF AND PUSH1 0x1 DUP3 DUP2 SLOAD DUP2 LT PUSH2 0x76C JUMPI PUSH2 0x76B PUSH2 0xC98 JUMP JUMPDEST JUMPDEST SWAP1 PUSH1 0x0 MSTORE PUSH1 0x20 PUSH1 0x0 KECCAK256 ADD PUSH1 0x0 SWAP1 SLOAD SWAP1 PUSH2 0x100 EXP SWAP1 DIV PUSH20 0xFFFFFFFFFFFFFFFFFFFFFFFFFFFFFFFFFFFFFFFF AND PUSH20 0xFFFFFFFFFFFFFFFFFFFFFFFFFFFFFFFFFFFFFFFF AND EQ ISZERO PUSH2 0x7EE JUMPI PUSH1 0x40 MLOAD PUSH32 0x8C379A000000000000000000000000000000000000000000000000000000000 DUP2 MSTORE PUSH1 0x4 ADD PUSH2 0x7E5 SWAP1 PUSH2 0xAC9 JUMP JUMPDEST PUSH1 0x40 MLOAD DUP1 SWAP2 SUB SWAP1 REVERT JUMPDEST PUSH1 0x0 PUSH1 0x1 DUP3 DUP2 SLOAD DUP2 LT PUSH2 0x804 JUMPI PUSH2 0x803 PUSH2 0xC98 JUMP JUMPDEST JUMPDEST SWAP1 PUSH1 0x0 MSTORE PUSH1 0x20 PUSH1 0x0 KECCAK256 ADD PUSH1 0x0 PUSH2 0x100 EXP DUP2 SLOAD DUP2 PUSH20 0xFFFFFFFFFFFFFFFFFFFFFFFFFFFFFFFFFFFFFFFF MUL NOT AND SWAP1 DUP4 PUSH20 0xFFFFFFFFFFFFFFFFFFFFFFFFFFFFFFFFFFFFFFFF AND MUL OR SWAP1 SSTORE POP PUSH1 0x2 DUP2 SWAP1 DUP1 PUSH1 0x1 DUP2 SLOAD ADD DUP1 DUP3 SSTORE DUP1 SWAP2 POP POP PUSH1 0x1 SWAP1 SUB SWAP1 PUSH1 0x0 MSTORE PUSH1 0x20 PUSH1 0x0 KECCAK256 ADD PUSH1 0x0 SWAP1 SWAP2 SWAP1 SWAP2 SWAP1 SWAP2 POP SSTORE POP JUMP JUMPDEST PUSH1 0x0 DUP3 DUP3 GT ISZERO PUSH2 0x887 JUMPI PUSH1 0x0 DUP1 REVERT JUMPDEST DUP2 DUP4 PUSH2 0x893 SWAP2 SWAP1 PUSH2 0xBBE JUMP JUMPDEST SWAP1 POP SWAP3 SWAP2 POP POP JUMP JUMPDEST JUMP JUMPDEST PUSH1 0x0 DUP2 CALLDATALOAD SWAP1 POP PUSH2 0x8AC DUP2 PUSH2 0xE0E JUMP JUMPDEST SWAP3 SWAP2 POP POP JUMP JUMPDEST PUSH1 0x0 DUP2 CALLDATALOAD SWAP1 POP PUSH2 0x8C1 DUP2 PUSH2 0xE25 JUMP JUMPDEST SWAP3 SWAP2 POP POP JUMP JUMPDEST PUSH1 0x0 PUSH1 0x20 DUP3 DUP5 SUB SLT ISZERO PUSH2 0x8DD JUMPI PUSH2 0x8DC PUSH2 0xCC7 JUMP JUMPDEST JUMPDEST PUSH1 0x0 PUSH2 0x8EB DUP5 DUP3 DUP6 ADD PUSH2 0x89D JUMP JUMPDEST SWAP2 POP POP SWAP3 SWAP2 POP POP JUMP JUMPDEST PUSH1 0x0 PUSH1 0x20 DUP3 DUP5 SUB SLT ISZERO PUSH2 0x90A JUMPI PUSH2 0x909 PUSH2 0xCC7 JUMP JUMPDEST JUMPDEST PUSH1 0x0 PUSH2 0x918 DUP5 DUP3 DUP6 ADD PUSH2 0x8B2 JUMP JUMPDEST SWAP2 POP POP SWAP3 SWAP2 POP POP JUMP JUMPDEST PUSH1 0x0 DUP1 PUSH1 0x0 PUSH1 0x60 DUP5 DUP7 SUB SLT ISZERO PUSH2 0x93A JUMPI PUSH2 0x939 PUSH2 0xCC7 JUMP JUMPDEST JUMPDEST PUSH1 0x0 PUSH2 0x948 DUP7 DUP3 DUP8 ADD PUSH2 0x8B2 JUMP JUMPDEST SWAP4 POP POP PUSH1 0x20 PUSH2 0x959 DUP7 DUP3 DUP8 ADD PUSH2 0x89D JUMP JUMPDEST SWAP3 POP POP PUSH1 0x40 PUSH2 0x96A DUP7 DUP3 DUP8 ADD PUSH2 0x8B2 JUMP JUMPDEST SWAP2 POP POP SWAP3 POP SWAP3 POP SWAP3 JUMP JUMPDEST PUSH2 0x97D DUP2 PUSH2 0xBF2 JUMP JUMPDEST DUP3 MSTORE POP POP JUMP JUMPDEST PUSH2 0x98C DUP2 PUSH2 0xC04 JUMP JUMPDEST DUP3 MSTORE POP POP JUMP JUMPDEST PUSH1 0x0 PUSH2 0x99F PUSH1 0x2D DUP4 PUSH2 0xBAD JUMP JUMPDEST SWAP2 POP PUSH2 0x9AA DUP3 PUSH2 0xCCC JUMP JUMPDEST PUSH1 0x40 DUP3 ADD SWAP1 POP SWAP2 SWAP1 POP JUMP JUMPDEST PUSH1 0x0 PUSH2 0x9C2 PUSH1 0x17 DUP4 PUSH2 0xBAD JUMP JUMPDEST SWAP2 POP PUSH2 0x9CD DUP3 PUSH2 0xD1B JUMP JUMPDEST PUSH1 0x20 DUP3 ADD SWAP1 POP SWAP2 SWAP1 POP JUMP JUMPDEST PUSH1 0x0 PUSH2 0x9E5 PUSH1 0x12 DUP4 PUSH2 0xBAD JUMP JUMPDEST SWAP2 POP PUSH2 0x9F0 DUP3 PUSH2 0xD44 JUMP JUMPDEST PUSH1 0x20 DUP3 ADD SWAP1 POP SWAP2 SWAP1 POP JUMP JUMPDEST PUSH1 0x0 PUSH2 0xA08 PUSH1 0x3F DUP4 PUSH2 0xBAD JUMP JUMPDEST SWAP2 POP PUSH2 0xA13 DUP3 PUSH2 0xD6D JUMP JUMPDEST PUSH1 0x40 DUP3 ADD SWAP1 POP SWAP2 SWAP1 POP JUMP JUMPDEST PUSH1 0x0 PUSH2 0xA2B PUSH1 0x11 DUP4 PUSH2 0xBAD JUMP JUMPDEST SWAP2 POP PUSH2 0xA36 DUP3 PUSH2 0xDBC JUMP JUMPDEST PUSH1 0x20 DUP3 ADD SWAP1 POP SWAP2 SWAP1 POP JUMP JUMPDEST PUSH1 0x0 PUSH2 0xA4E PUSH1 0x10 DUP4 PUSH2 0xBAD JUMP JUMPDEST SWAP2 POP PUSH2 0xA59 DUP3 PUSH2 0xDE5 JUMP JUMPDEST PUSH1 0x20 DUP3 ADD SWAP1 POP SWAP2 SWAP1 POP JUMP JUMPDEST PUSH2 0xA6D DUP2 PUSH2 0xC30 JUMP JUMPDEST DUP3 MSTORE POP POP JUMP JUMPDEST PUSH1 0x0 PUSH1 0x20 DUP3 ADD SWAP1 POP PUSH2 0xA88 PUSH1 0x0 DUP4 ADD DUP5 PUSH2 0x974 JUMP JUMPDEST SWAP3 SWAP2 POP POP JUMP JUMPDEST PUSH1 0x0 PUSH1 0x20 DUP3 ADD SWAP1 POP PUSH2 0xAA3 PUSH1 0x0 DUP4 ADD DUP5 PUSH2 0x983 JUMP JUMPDEST SWAP3 SWAP2 POP POP JUMP JUMPDEST PUSH1 0x0 PUSH1 0x20 DUP3 ADD SWAP1 POP DUP2 DUP2 SUB PUSH1 0x0 DUP4 ADD MSTORE PUSH2 0xAC2 DUP2 PUSH2 0x992 JUMP JUMPDEST SWAP1 POP SWAP2 SWAP1 POP JUMP JUMPDEST PUSH1 0x0 PUSH1 0x20 DUP3 ADD SWAP1 POP DUP2 DUP2 SUB PUSH1 0x0 DUP4 ADD MSTORE PUSH2 0xAE2 DUP2 PUSH2 0x9B5 JUMP JUMPDEST SWAP1 POP SWAP2 SWAP1 POP JUMP JUMPDEST PUSH1 0x0 PUSH1 0x20 DUP3 ADD SWAP1 POP DUP2 DUP2 SUB PUSH1 0x0 DUP4 ADD MSTORE PUSH2 0xB02 DUP2 PUSH2 0x9D8 JUMP JUMPDEST SWAP1 POP SWAP2 SWAP1 POP JUMP JUMPDEST PUSH1 0x0 PUSH1 0x20 DUP3 ADD SWAP1 POP DUP2 DUP2 SUB PUSH1 0x0 DUP4 ADD MSTORE PUSH2 0xB22 DUP2 PUSH2 0x9FB JUMP JUMPDEST SWAP1 POP SWAP2 SWAP1 POP JUMP JUMPDEST PUSH1 0x0 PUSH1 0x20 DUP3 ADD SWAP1 POP DUP2 DUP2 SUB PUSH1 0x0 DUP4 ADD MSTORE PUSH2 0xB42 DUP2 PUSH2 0xA1E JUMP JUMPDEST SWAP1 POP SWAP2 SWAP1 POP JUMP JUMPDEST PUSH1 0x0 PUSH1 0x20 DUP3 ADD SWAP1 POP DUP2 DUP2 SUB PUSH1 0x0 DUP4 ADD MSTORE PUSH2 0xB62 DUP2 PUSH2 0xA41 JUMP JUMPDEST SWAP1 POP SWAP2 SWAP1 POP JUMP JUMPDEST PUSH1 0x0 PUSH1 0x20 DUP3 ADD SWAP1 POP PUSH2 0xB7E PUSH1 0x0 DUP4 ADD DUP5 PUSH2 0xA64 JUMP JUMPDEST SWAP3 SWAP2 POP POP JUMP JUMPDEST PUSH1 0x0 PUSH1 0x40 DUP3 ADD SWAP1 POP PUSH2 0xB99 PUSH1 0x0 DUP4 ADD DUP6 PUSH2 0xA64 JUMP JUMPDEST PUSH2 0xBA6 PUSH1 0x20 DUP4 ADD DUP5 PUSH2 0x983 JUMP JUMPDEST SWAP4 SWAP3 POP POP POP JUMP JUMPDEST PUSH1 0x0 DUP3 DUP3 MSTORE PUSH1 0x20 DUP3 ADD SWAP1 POP SWAP3 SWAP2 POP POP JUMP JUMPDEST PUSH1 0x0 PUSH2 0xBC9 DUP3 PUSH2 0xC30 JUMP JUMPDEST SWAP2 POP PUSH2 0xBD4 DUP4 PUSH2 0xC30 JUMP JUMPDEST SWAP3 POP DUP3 DUP3 LT ISZERO PUSH2 0xBE7 JUMPI PUSH2 0xBE6 PUSH2 0xC3A JUMP JUMPDEST JUMPDEST DUP3 DUP3 SUB SWAP1 POP SWAP3 SWAP2 POP POP JUMP JUMPDEST PUSH1 0x0 PUSH2 0xBFD DUP3 PUSH2 0xC10 JUMP JUMPDEST SWAP1 POP SWAP2 SWAP1 POP JUMP JUMPDEST PUSH1 0x0 DUP2 ISZERO ISZERO SWAP1 POP SWAP2 SWAP1 POP JUMP JUMPDEST PUSH1 0x0 PUSH20 0xFFFFFFFFFFFFFFFFFFFFFFFFFFFFFFFFFFFFFFFF DUP3 AND SWAP1 POP SWAP2 SWAP1 POP JUMP JUMPDEST PUSH1 0x0 DUP2 SWAP1 POP SWAP2 SWAP1 POP JUMP JUMPDEST PUSH32 0x4E487B7100000000000000000000000000000000000000000000000000000000 PUSH1 0x0 MSTORE PUSH1 0x11 PUSH1 0x4 MSTORE PUSH1 0x24 PUSH1 0x0 REVERT JUMPDEST PUSH32 0x4E487B7100000000000000000000000000000000000000000000000000000000 PUSH1 0x0 MSTORE PUSH1 0x31 PUSH1 0x4 MSTORE PUSH1 0x24 PUSH1 0x0 REVERT JUMPDEST PUSH32 0x4E487B7100000000000000000000000000000000000000000000000000000000 PUSH1 0x0 MSTORE PUSH1 0x32 PUSH1 0x4 MSTORE PUSH1 0x24 PUSH1 0x0 REVERT JUMPDEST PUSH1 0x0 DUP1 REVERT JUMPDEST PUSH32 0x4F6E6C79206372656174696E6720636F6E74726163742063616E2063616C6C20 PUSH1 0x0 DUP3 ADD MSTORE PUSH32 0x746869732066756E6374696F6E00000000000000000000000000000000000000 PUSH1 0x20 DUP3 ADD MSTORE POP JUMP JUMPDEST PUSH32 0x6163636F756E7420616C72656164792064656C65746564000000000000000000 PUSH1 0x0 DUP3 ADD MSTORE POP JUMP JUMPDEST PUSH32 0x5768697465206C6973742069732066756C6C0000000000000000000000000000 PUSH1 0x0 DUP3 ADD MSTORE POP JUMP JUMPDEST PUSH32 0x536D61727420636F6E7472616374206E6F7420616C6C6F77656420746F207769 PUSH1 0x0 DUP3 ADD MSTORE PUSH32 0x746864726177206D6F6E6579207468726F756768742074686973206761746500 PUSH1 0x20 DUP3 ADD MSTORE POP JUMP JUMPDEST PUSH32 0x546F6B656E206E6F742063726561746564000000000000000000000000000000 PUSH1 0x0 DUP3 ADD MSTORE POP JUMP JUMPDEST PUSH32 0x44656C6574656420436F6E747261637400000000000000000000000000000000 PUSH1 0x0 DUP3 ADD MSTORE POP JUMP JUMPDEST PUSH2 0xE17 DUP2 PUSH2 0xBF2 JUMP JUMPDEST DUP2 EQ PUSH2 0xE22 JUMPI PUSH1 0x0 DUP1 REVERT JUMPDEST POP JUMP JUMPDEST PUSH2 0xE2E DUP2 PUSH2 0xC30 JUMP JUMPDEST DUP2 EQ PUSH2 0xE39 JUMPI PUSH1 0x0 DUP1 REVERT JUMPDEST POP JUMP INVALID LOG2 PUSH5 0x6970667358 0x22 SLT KECCAK256 DUP8 PUSH6 0xD6055D6343E3 JUMPDEST CALLDATASIZE SLT 0xDB PUSH11 0x7A53B6C886E421CBE1710E 0xA6 0xDE DUP4 0xE0 0xEC LOG3 ADD 0xDD PUSH5 0x736F6C6343 STOP ADDMOD SMOD STOP CALLER "
				},
				"gasEstimates": {
					"creation": {
						"codeDepositCost": "739600",
						"executionCost": "infinite",
						"totalCost": "infinite"
					},
					"external": {
						"append2WhiteList(address)": "infinite",
						"deleteFromWhiteList(uint256)": "82016",
						"max_nuser()": "2429",
						"parent_contract()": "2533",
						"payDapp(uint256,address,uint256)": "infinite",
						"withdrawMoney()": "infinite"
					},
					"internal": {
						"informParent()": "infinite",
						"withdrawFromPool()": "9"
					}
				},
				"methodIdentifiers": {
					"append2WhiteList(address)": "317549f2",
					"deleteFromWhiteList(uint256)": "cbc20f30",
					"max_nuser()": "89f78c8e",
					"parent_contract()": "9dc61d4f",
					"payDapp(uint256,address,uint256)": "bc134ae3",
					"withdrawMoney()": "ac446002"
				}
			},
			"userdoc": {
				"kind": "user",
				"methods": {
					"append2WhiteList(address)": {
						"notice": "Adds a new smart contract to a whitelist"
					},
					"deleteFromWhiteList(uint256)": {
						"notice": "Delete an account from the whitelist"
					},
					"payDapp(uint256,address,uint256)": {
						"notice": "Withdraws money from a lending pool and pays to a requested user"
					}
				},
				"notice": "Transfers money from lending pool to preffered address",
				"version": 1
			}
		}
	}
}