{
	"contracts/LendingPool.sol": {
		"LendingPool": {
			"abi": [
				{
					"inputs": [],
					"stateMutability": "nonpayable",
					"type": "constructor"
				},
				{
					"anonymous": false,
					"inputs": [
						{
							"indexed": false,
							"internalType": "string",
							"name": "message",
							"type": "string"
						},
						{
							"indexed": false,
							"internalType": "address",
							"name": "from",
							"type": "address"
						}
					],
					"name": "LendingPoolMessage",
					"type": "event"
				},
				{
					"stateMutability": "payable",
					"type": "fallback"
				},
				{
					"inputs": [
						{
							"internalType": "address",
							"name": "",
							"type": "address"
						}
					],
					"name": "allowed_pools",
					"outputs": [
						{
							"internalType": "bool",
							"name": "",
							"type": "bool"
						}
					],
					"stateMutability": "view",
					"type": "function"
				},
				{
					"inputs": [],
					"name": "deposit",
					"outputs": [],
					"stateMutability": "payable",
					"type": "function"
				},
				{
					"inputs": [],
					"name": "depositWithdraw",
					"outputs": [],
					"stateMutability": "nonpayable",
					"type": "function"
				},
				{
					"inputs": [],
					"name": "editor",
					"outputs": [
						{
							"internalType": "address",
							"name": "",
							"type": "address"
						}
					],
					"stateMutability": "view",
					"type": "function"
				},
				{
					"inputs": [],
					"name": "gateWithdrawl",
					"outputs": [],
					"stateMutability": "nonpayable",
					"type": "function"
				},
				{
					"inputs": [
						{
							"internalType": "uint256",
							"name": "amount",
							"type": "uint256"
						},
						{
							"internalType": "address",
							"name": "to",
							"type": "address"
						}
					],
					"name": "lendingWithdraw",
					"outputs": [],
					"stateMutability": "payable",
					"type": "function"
				},
				{
					"inputs": [],
					"name": "minimumAmt",
					"outputs": [
						{
							"internalType": "uint256",
							"name": "",
							"type": "uint256"
						}
					],
					"stateMutability": "view",
					"type": "function"
				},
				{
					"inputs": [],
					"name": "owner",
					"outputs": [
						{
							"internalType": "address payable",
							"name": "",
							"type": "address"
						}
					],
					"stateMutability": "view",
					"type": "function"
				},
				{
					"inputs": [
						{
							"internalType": "address",
							"name": "",
							"type": "address"
						}
					],
					"name": "pendingPayment",
					"outputs": [
						{
							"internalType": "uint256",
							"name": "",
							"type": "uint256"
						}
					],
					"stateMutability": "view",
					"type": "function"
				},
				{
					"inputs": [
						{
							"internalType": "address",
							"name": "",
							"type": "address"
						}
					],
					"name": "stakedAmount",
					"outputs": [
						{
							"internalType": "uint256",
							"name": "",
							"type": "uint256"
						}
					],
					"stateMutability": "view",
					"type": "function"
				},
				{
					"inputs": [
						{
							"internalType": "address",
							"name": "",
							"type": "address"
						}
					],
					"name": "startTime",
					"outputs": [
						{
							"internalType": "uint256",
							"name": "",
							"type": "uint256"
						}
					],
					"stateMutability": "view",
					"type": "function"
				},
				{
					"stateMutability": "payable",
					"type": "receive"
				}
			],
			"devdoc": {
				"author": "Hileamlak Yitayew, Matt Tengtrakool",
				"details": "need help review ",
				"kind": "dev",
				"methods": {},
				"title": "LendingPool ",
				"version": 1
			},
			"evm": {
				"assembly": "    /* \"contracts/LendingPool.sol\":219:3231  contract LendingPool  {... */\n  mstore(0x40, 0x80)\n    /* \"contracts/LendingPool.sol\":309:316  1 ether */\n  0x0de0b6b3a7640000\n    /* \"contracts/LendingPool.sol\":281:316  uint256 public minimumAmt = 1 ether */\n  0x00\n  sstore\n    /* \"contracts/LendingPool.sol\":748:875  constructor() {... */\n  callvalue\n  dup1\n  iszero\n  tag_1\n  jumpi\n  0x00\n  dup1\n  revert\ntag_1:\n  pop\n    /* \"contracts/LendingPool.sol\":788:798  msg.sender */\n  caller\n    /* \"contracts/LendingPool.sol\":772:777  owner */\n  0x01\n  0x00\n    /* \"contracts/LendingPool.sol\":772:799  owner = payable(msg.sender) */\n  0x0100\n  exp\n  dup2\n  sload\n  dup2\n  0xffffffffffffffffffffffffffffffffffffffff\n  mul\n  not\n  and\n  swap1\n  dup4\n  0xffffffffffffffffffffffffffffffffffffffff\n  and\n  mul\n  or\n  swap1\n  sstore\n  pop\n    /* \"contracts/LendingPool.sol\":814:868  LendingPoolMessage(\"Lending pool created\", msg.sender) */\n  0xf67e7992d539193fc243c42fe89f8fab49013e8e4fb18cfa891dc51adcaccc80\n    /* \"contracts/LendingPool.sol\":857:867  msg.sender */\n  caller\n    /* \"contracts/LendingPool.sol\":814:868  LendingPoolMessage(\"Lending pool created\", msg.sender) */\n  mload(0x40)\n  tag_4\n  swap2\n  swap1\n  tag_5\n  jump\t// in\ntag_4:\n  mload(0x40)\n  dup1\n  swap2\n  sub\n  swap1\n  log1\n    /* \"contracts/LendingPool.sol\":219:3231  contract LendingPool  {... */\n  jump(tag_6)\n    /* \"#utility.yul\":7:125   */\ntag_8:\n    /* \"#utility.yul\":94:118   */\n  tag_10\n    /* \"#utility.yul\":112:117   */\n  dup2\n    /* \"#utility.yul\":94:118   */\n  tag_11\n  jump\t// in\ntag_10:\n    /* \"#utility.yul\":89:92   */\n  dup3\n    /* \"#utility.yul\":82:119   */\n  mstore\n    /* \"#utility.yul\":7:125   */\n  pop\n  pop\n  jump\t// out\n    /* \"#utility.yul\":131:497   */\ntag_12:\n    /* \"#utility.yul\":273:276   */\n  0x00\n    /* \"#utility.yul\":294:361   */\n  tag_14\n    /* \"#utility.yul\":358:360   */\n  0x14\n    /* \"#utility.yul\":353:356   */\n  dup4\n    /* \"#utility.yul\":294:361   */\n  tag_15\n  jump\t// in\ntag_14:\n    /* \"#utility.yul\":287:361   */\n  swap2\n  pop\n    /* \"#utility.yul\":370:463   */\n  tag_16\n    /* \"#utility.yul\":459:462   */\n  dup3\n    /* \"#utility.yul\":370:463   */\n  tag_17\n  jump\t// in\ntag_16:\n    /* \"#utility.yul\":488:490   */\n  0x20\n    /* \"#utility.yul\":483:486   */\n  dup3\n    /* \"#utility.yul\":479:491   */\n  add\n    /* \"#utility.yul\":472:491   */\n  swap1\n  pop\n    /* \"#utility.yul\":131:497   */\n  swap2\n  swap1\n  pop\n  jump\t// out\n    /* \"#utility.yul\":503:1032   */\ntag_5:\n    /* \"#utility.yul\":697:701   */\n  0x00\n    /* \"#utility.yul\":735:737   */\n  0x40\n    /* \"#utility.yul\":724:733   */\n  dup3\n    /* \"#utility.yul\":720:738   */\n  add\n    /* \"#utility.yul\":712:738   */\n  swap1\n  pop\n    /* \"#utility.yul\":784:793   */\n  dup2\n    /* \"#utility.yul\":778:782   */\n  dup2\n    /* \"#utility.yul\":774:794   */\n  sub\n    /* \"#utility.yul\":770:771   */\n  0x00\n    /* \"#utility.yul\":759:768   */\n  dup4\n    /* \"#utility.yul\":755:772   */\n  add\n    /* \"#utility.yul\":748:795   */\n  mstore\n    /* \"#utility.yul\":812:943   */\n  tag_19\n    /* \"#utility.yul\":938:942   */\n  dup2\n    /* \"#utility.yul\":812:943   */\n  tag_12\n  jump\t// in\ntag_19:\n    /* \"#utility.yul\":804:943   */\n  swap1\n  pop\n    /* \"#utility.yul\":953:1025   */\n  tag_20\n    /* \"#utility.yul\":1021:1023   */\n  0x20\n    /* \"#utility.yul\":1010:1019   */\n  dup4\n    /* \"#utility.yul\":1006:1024   */\n  add\n    /* \"#utility.yul\":997:1003   */\n  dup5\n    /* \"#utility.yul\":953:1025   */\n  tag_8\n  jump\t// in\ntag_20:\n    /* \"#utility.yul\":503:1032   */\n  swap3\n  swap2\n  pop\n  pop\n  jump\t// out\n    /* \"#utility.yul\":1038:1207   */\ntag_15:\n    /* \"#utility.yul\":1122:1133   */\n  0x00\n    /* \"#utility.yul\":1156:1162   */\n  dup3\n    /* \"#utility.yul\":1151:1154   */\n  dup3\n    /* \"#utility.yul\":1144:1163   */\n  mstore\n    /* \"#utility.yul\":1196:1200   */\n  0x20\n    /* \"#utility.yul\":1191:1194   */\n  dup3\n    /* \"#utility.yul\":1187:1201   */\n  add\n    /* \"#utility.yul\":1172:1201   */\n  swap1\n  pop\n    /* \"#utility.yul\":1038:1207   */\n  swap3\n  swap2\n  pop\n  pop\n  jump\t// out\n    /* \"#utility.yul\":1213:1309   */\ntag_11:\n    /* \"#utility.yul\":1250:1257   */\n  0x00\n    /* \"#utility.yul\":1279:1303   */\n  tag_23\n    /* \"#utility.yul\":1297:1302   */\n  dup3\n    /* \"#utility.yul\":1279:1303   */\n  tag_24\n  jump\t// in\ntag_23:\n    /* \"#utility.yul\":1268:1303   */\n  swap1\n  pop\n    /* \"#utility.yul\":1213:1309   */\n  swap2\n  swap1\n  pop\n  jump\t// out\n    /* \"#utility.yul\":1315:1441   */\ntag_24:\n    /* \"#utility.yul\":1352:1359   */\n  0x00\n    /* \"#utility.yul\":1392:1434   */\n  0xffffffffffffffffffffffffffffffffffffffff\n    /* \"#utility.yul\":1385:1390   */\n  dup3\n    /* \"#utility.yul\":1381:1435   */\n  and\n    /* \"#utility.yul\":1370:1435   */\n  swap1\n  pop\n    /* \"#utility.yul\":1315:1441   */\n  swap2\n  swap1\n  pop\n  jump\t// out\n    /* \"#utility.yul\":1447:1617   */\ntag_17:\n    /* \"#utility.yul\":1587:1609   */\n  0x4c656e64696e6720706f6f6c2063726561746564000000000000000000000000\n    /* \"#utility.yul\":1583:1584   */\n  0x00\n    /* \"#utility.yul\":1575:1581   */\n  dup3\n    /* \"#utility.yul\":1571:1585   */\n  add\n    /* \"#utility.yul\":1564:1610   */\n  mstore\n    /* \"#utility.yul\":1447:1617   */\n  pop\n  jump\t// out\n    /* \"contracts/LendingPool.sol\":219:3231  contract LendingPool  {... */\ntag_6:\n  dataSize(sub_0)\n  dup1\n  dataOffset(sub_0)\n  0x00\n  codecopy\n  0x00\n  return\nstop\n\nsub_0: assembly {\n        /* \"contracts/LendingPool.sol\":219:3231  contract LendingPool  {... */\n      mstore(0x40, 0x80)\n      jumpi(tag_1, lt(calldatasize, 0x04))\n      shr(0xe0, calldataload(0x00))\n      dup1\n      0x8da5cb5b\n      gt\n      tag_14\n      jumpi\n      dup1\n      0x8da5cb5b\n      eq\n      tag_8\n      jumpi\n      dup1\n      0xa464d265\n      eq\n      tag_9\n      jumpi\n      dup1\n      0xaeae177c\n      eq\n      tag_10\n      jumpi\n      dup1\n      0xc02b2092\n      eq\n      tag_11\n      jumpi\n      dup1\n      0xd0e30db0\n      eq\n      tag_12\n      jumpi\n      dup1\n      0xf9931855\n      eq\n      tag_13\n      jumpi\n      jump(tag_2)\n    tag_14:\n      dup1\n      0x3607999b\n      eq\n      tag_3\n      jumpi\n      dup1\n      0x56852391\n      eq\n      tag_4\n      jumpi\n      dup1\n      0x650fad76\n      eq\n      tag_5\n      jumpi\n      dup1\n      0x6e0e0da2\n      eq\n      tag_6\n      jumpi\n      dup1\n      0x6e1dc66e\n      eq\n      tag_7\n      jumpi\n      jump(tag_2)\n    tag_1:\n      jumpi(tag_2, calldatasize)\n      stop\n    tag_2:\n      stop\n        /* \"contracts/LendingPool.sol\":1742:2103  function lendingWithdraw(uint256 amount, address to) public payable onlyAllowedGate {... */\n    tag_3:\n      tag_19\n      0x04\n      dup1\n      calldatasize\n      sub\n      dup2\n      add\n      swap1\n      tag_20\n      swap2\n      swap1\n      tag_21\n      jump\t// in\n    tag_20:\n      tag_22\n      jump\t// in\n    tag_19:\n      stop\n        /* \"contracts/LendingPool.sol\":2877:3149  function gateWithdrawl() public {... */\n    tag_4:\n      callvalue\n      dup1\n      iszero\n      tag_23\n      jumpi\n      0x00\n      dup1\n      revert\n    tag_23:\n      pop\n      tag_24\n      tag_25\n      jump\t// in\n    tag_24:\n      stop\n        /* \"contracts/LendingPool.sol\":281:316  uint256 public minimumAmt = 1 ether */\n    tag_5:\n      callvalue\n      dup1\n      iszero\n      tag_26\n      jumpi\n      0x00\n      dup1\n      revert\n    tag_26:\n      pop\n      tag_27\n      tag_28\n      jump\t// in\n    tag_27:\n      mload(0x40)\n      tag_29\n      swap2\n      swap1\n      tag_30\n      jump\t// in\n    tag_29:\n      mload(0x40)\n      dup1\n      swap2\n      sub\n      swap1\n      return\n        /* \"contracts/LendingPool.sol\":2177:2801  function depositWithdraw() public{... */\n    tag_6:\n      callvalue\n      dup1\n      iszero\n      tag_31\n      jumpi\n      0x00\n      dup1\n      revert\n    tag_31:\n      pop\n      tag_32\n      tag_33\n      jump\t// in\n    tag_32:\n      stop\n        /* \"contracts/LendingPool.sol\":477:521  mapping(address => uint256) public startTime */\n    tag_7:\n      callvalue\n      dup1\n      iszero\n      tag_34\n      jumpi\n      0x00\n      dup1\n      revert\n    tag_34:\n      pop\n      tag_35\n      0x04\n      dup1\n      calldatasize\n      sub\n      dup2\n      add\n      swap1\n      tag_36\n      swap2\n      swap1\n      tag_37\n      jump\t// in\n    tag_36:\n      tag_38\n      jump\t// in\n    tag_35:\n      mload(0x40)\n      tag_39\n      swap2\n      swap1\n      tag_30\n      jump\t// in\n    tag_39:\n      mload(0x40)\n      dup1\n      swap2\n      sub\n      swap1\n      return\n        /* \"contracts/LendingPool.sol\":322:350  address payable public owner */\n    tag_8:\n      callvalue\n      dup1\n      iszero\n      tag_40\n      jumpi\n      0x00\n      dup1\n      revert\n    tag_40:\n      pop\n      tag_41\n      tag_42\n      jump\t// in\n    tag_41:\n      mload(0x40)\n      tag_43\n      swap2\n      swap1\n      tag_44\n      jump\t// in\n    tag_43:\n      mload(0x40)\n      dup1\n      swap2\n      sub\n      swap1\n      return\n        /* \"contracts/LendingPool.sol\":392:413  address public editor */\n    tag_9:\n      callvalue\n      dup1\n      iszero\n      tag_45\n      jumpi\n      0x00\n      dup1\n      revert\n    tag_45:\n      pop\n      tag_46\n      tag_47\n      jump\t// in\n    tag_46:\n      mload(0x40)\n      tag_48\n      swap2\n      swap1\n      tag_49\n      jump\t// in\n    tag_48:\n      mload(0x40)\n      dup1\n      swap2\n      sub\n      swap1\n      return\n        /* \"contracts/LendingPool.sol\":580:629  mapping(address => uint256) public pendingPayment */\n    tag_10:\n      callvalue\n      dup1\n      iszero\n      tag_50\n      jumpi\n      0x00\n      dup1\n      revert\n    tag_50:\n      pop\n      tag_51\n      0x04\n      dup1\n      calldatasize\n      sub\n      dup2\n      add\n      swap1\n      tag_52\n      swap2\n      swap1\n      tag_37\n      jump\t// in\n    tag_52:\n      tag_53\n      jump\t// in\n    tag_51:\n      mload(0x40)\n      tag_54\n      swap2\n      swap1\n      tag_30\n      jump\t// in\n    tag_54:\n      mload(0x40)\n      dup1\n      swap2\n      sub\n      swap1\n      return\n        /* \"contracts/LendingPool.sol\":635:680  mapping(address => bool) public allowed_pools */\n    tag_11:\n      callvalue\n      dup1\n      iszero\n      tag_55\n      jumpi\n      0x00\n      dup1\n      revert\n    tag_55:\n      pop\n      tag_56\n      0x04\n      dup1\n      calldatasize\n      sub\n      dup2\n      add\n      swap1\n      tag_57\n      swap2\n      swap1\n      tag_37\n      jump\t// in\n    tag_57:\n      tag_58\n      jump\t// in\n    tag_56:\n      mload(0x40)\n      tag_59\n      swap2\n      swap1\n      tag_60\n      jump\t// in\n    tag_59:\n      mload(0x40)\n      dup1\n      swap2\n      sub\n      swap1\n      return\n        /* \"contracts/LendingPool.sol\":1333:1736  function deposit() public payable {... */\n    tag_12:\n      tag_61\n      tag_62\n      jump\t// in\n    tag_61:\n      stop\n        /* \"contracts/LendingPool.sol\":527:574  mapping(address => uint256) public stakedAmount */\n    tag_13:\n      callvalue\n      dup1\n      iszero\n      tag_63\n      jumpi\n      0x00\n      dup1\n      revert\n    tag_63:\n      pop\n      tag_64\n      0x04\n      dup1\n      calldatasize\n      sub\n      dup2\n      add\n      swap1\n      tag_65\n      swap2\n      swap1\n      tag_37\n      jump\t// in\n    tag_65:\n      tag_66\n      jump\t// in\n    tag_64:\n      mload(0x40)\n      tag_67\n      swap2\n      swap1\n      tag_30\n      jump\t// in\n    tag_67:\n      mload(0x40)\n      dup1\n      swap2\n      sub\n      swap1\n      return\n        /* \"contracts/LendingPool.sol\":1742:2103  function lendingWithdraw(uint256 amount, address to) public payable onlyAllowedGate {... */\n    tag_22:\n        /* \"contracts/LendingPool.sol\":1179:1192  allowed_pools */\n      0x08\n        /* \"contracts/LendingPool.sol\":1179:1204  allowed_pools[msg.sender] */\n      0x00\n        /* \"contracts/LendingPool.sol\":1193:1203  msg.sender */\n      caller\n        /* \"contracts/LendingPool.sol\":1179:1204  allowed_pools[msg.sender] */\n      0xffffffffffffffffffffffffffffffffffffffff\n      and\n      0xffffffffffffffffffffffffffffffffffffffff\n      and\n      dup2\n      mstore\n      0x20\n      add\n      swap1\n      dup2\n      mstore\n      0x20\n      add\n      0x00\n      keccak256\n      0x00\n      swap1\n      sload\n      swap1\n      0x0100\n      exp\n      swap1\n      div\n      0xff\n      and\n        /* \"contracts/LendingPool.sol\":1171:1250  require(allowed_pools[msg.sender], \"Only allowed gates can access this method\") */\n      tag_69\n      jumpi\n      mload(0x40)\n      0x08c379a000000000000000000000000000000000000000000000000000000000\n      dup2\n      mstore\n      0x04\n      add\n      tag_70\n      swap1\n      tag_71\n      jump\t// in\n    tag_70:\n      mload(0x40)\n      dup1\n      swap2\n      sub\n      swap1\n      revert\n    tag_69:\n        /* \"contracts/LendingPool.sol\":1863:1877  totalDeposited */\n      sload(0x02)\n        /* \"contracts/LendingPool.sol\":1853:1859  amount */\n      dup3\n        /* \"contracts/LendingPool.sol\":1853:1877  amount <= totalDeposited */\n      gt\n      iszero\n        /* \"contracts/LendingPool.sol\":1845:1921  require(amount <= totalDeposited, \"Doesn't have enough balance in the bank\") */\n      tag_73\n      jumpi\n      mload(0x40)\n      0x08c379a000000000000000000000000000000000000000000000000000000000\n      dup2\n      mstore\n      0x04\n      add\n      tag_74\n      swap1\n      tag_75\n      jump\t// in\n    tag_74:\n      mload(0x40)\n      dup1\n      swap2\n      sub\n      swap1\n      revert\n    tag_73:\n        /* \"contracts/LendingPool.sol\":1948:1974  totalDeposited.sub(amount) */\n      tag_76\n        /* \"contracts/LendingPool.sol\":1967:1973  amount */\n      dup3\n        /* \"contracts/LendingPool.sol\":1948:1962  totalDeposited */\n      sload(0x02)\n        /* \"contracts/LendingPool.sol\":1948:1966  totalDeposited.sub */\n      tag_77\n      swap1\n        /* \"contracts/LendingPool.sol\":1948:1974  totalDeposited.sub(amount) */\n      swap2\n      swap1\n      0xffffffff\n      and\n      jump\t// in\n    tag_76:\n        /* \"contracts/LendingPool.sol\":1931:1945  totalDeposited */\n      0x02\n        /* \"contracts/LendingPool.sol\":1931:1974  totalDeposited = totalDeposited.sub(amount) */\n      dup2\n      swap1\n      sstore\n      pop\n        /* \"contracts/LendingPool.sol\":2005:2035  pendingPayment[to].add(amount) */\n      tag_78\n        /* \"contracts/LendingPool.sol\":2028:2034  amount */\n      dup3\n        /* \"contracts/LendingPool.sol\":2005:2019  pendingPayment */\n      0x07\n        /* \"contracts/LendingPool.sol\":2005:2023  pendingPayment[to] */\n      0x00\n        /* \"contracts/LendingPool.sol\":2020:2022  to */\n      dup5\n        /* \"contracts/LendingPool.sol\":2005:2023  pendingPayment[to] */\n      0xffffffffffffffffffffffffffffffffffffffff\n      and\n      0xffffffffffffffffffffffffffffffffffffffff\n      and\n      dup2\n      mstore\n      0x20\n      add\n      swap1\n      dup2\n      mstore\n      0x20\n      add\n      0x00\n      keccak256\n      sload\n        /* \"contracts/LendingPool.sol\":2005:2027  pendingPayment[to].add */\n      tag_79\n      swap1\n        /* \"contracts/LendingPool.sol\":2005:2035  pendingPayment[to].add(amount) */\n      swap2\n      swap1\n      0xffffffff\n      and\n      jump\t// in\n    tag_78:\n        /* \"contracts/LendingPool.sol\":1984:1998  pendingPayment */\n      0x07\n        /* \"contracts/LendingPool.sol\":1984:2002  pendingPayment[to] */\n      0x00\n        /* \"contracts/LendingPool.sol\":1999:2001  to */\n      dup4\n        /* \"contracts/LendingPool.sol\":1984:2002  pendingPayment[to] */\n      0xffffffffffffffffffffffffffffffffffffffff\n      and\n      0xffffffffffffffffffffffffffffffffffffffff\n      and\n      dup2\n      mstore\n      0x20\n      add\n      swap1\n      dup2\n      mstore\n      0x20\n      add\n      0x00\n      keccak256\n        /* \"contracts/LendingPool.sol\":1984:2035  pendingPayment[to] = pendingPayment[to].add(amount) */\n      dup2\n      swap1\n      sstore\n      pop\n        /* \"contracts/LendingPool.sol\":2050:2095  LendingPoolMessage(\"Money withdrawen to\", to) */\n      0xf67e7992d539193fc243c42fe89f8fab49013e8e4fb18cfa891dc51adcaccc80\n        /* \"contracts/LendingPool.sol\":2092:2094  to */\n      dup2\n        /* \"contracts/LendingPool.sol\":2050:2095  LendingPoolMessage(\"Money withdrawen to\", to) */\n      mload(0x40)\n      tag_80\n      swap2\n      swap1\n      tag_81\n      jump\t// in\n    tag_80:\n      mload(0x40)\n      dup1\n      swap2\n      sub\n      swap1\n      log1\n        /* \"contracts/LendingPool.sol\":1742:2103  function lendingWithdraw(uint256 amount, address to) public payable onlyAllowedGate {... */\n      pop\n      pop\n      jump\t// out\n        /* \"contracts/LendingPool.sol\":2877:3149  function gateWithdrawl() public {... */\n    tag_25:\n        /* \"contracts/LendingPool.sol\":2956:2957  0 */\n      0x00\n        /* \"contracts/LendingPool.sol\":2927:2941  pendingPayment */\n      0x07\n        /* \"contracts/LendingPool.sol\":2927:2953  pendingPayment[msg.sender] */\n      0x00\n        /* \"contracts/LendingPool.sol\":2942:2952  msg.sender */\n      caller\n        /* \"contracts/LendingPool.sol\":2927:2953  pendingPayment[msg.sender] */\n      0xffffffffffffffffffffffffffffffffffffffff\n      and\n      0xffffffffffffffffffffffffffffffffffffffff\n      and\n      dup2\n      mstore\n      0x20\n      add\n      swap1\n      dup2\n      mstore\n      0x20\n      add\n      0x00\n      keccak256\n      sload\n        /* \"contracts/LendingPool.sol\":2927:2957  pendingPayment[msg.sender] > 0 */\n      gt\n        /* \"contracts/LendingPool.sol\":2919:2998  require(pendingPayment[msg.sender] > 0, \"You don't have no pending withdrawls\") */\n      tag_83\n      jumpi\n      mload(0x40)\n      0x08c379a000000000000000000000000000000000000000000000000000000000\n      dup2\n      mstore\n      0x04\n      add\n      tag_84\n      swap1\n      tag_85\n      jump\t// in\n    tag_84:\n      mload(0x40)\n      dup1\n      swap2\n      sub\n      swap1\n      revert\n    tag_83:\n        /* \"contracts/LendingPool.sol\":3008:3022  uint256 amount */\n      0x00\n        /* \"contracts/LendingPool.sol\":3025:3039  pendingPayment */\n      0x07\n        /* \"contracts/LendingPool.sol\":3025:3051  pendingPayment[msg.sender] */\n      0x00\n        /* \"contracts/LendingPool.sol\":3040:3050  msg.sender */\n      caller\n        /* \"contracts/LendingPool.sol\":3025:3051  pendingPayment[msg.sender] */\n      0xffffffffffffffffffffffffffffffffffffffff\n      and\n      0xffffffffffffffffffffffffffffffffffffffff\n      and\n      dup2\n      mstore\n      0x20\n      add\n      swap1\n      dup2\n      mstore\n      0x20\n      add\n      0x00\n      keccak256\n      sload\n        /* \"contracts/LendingPool.sol\":3008:3051  uint256 amount = pendingPayment[msg.sender] */\n      swap1\n      pop\n        /* \"contracts/LendingPool.sol\":3091:3092  0 */\n      0x00\n        /* \"contracts/LendingPool.sol\":3061:3075  pendingPayment */\n      0x07\n        /* \"contracts/LendingPool.sol\":3061:3087  pendingPayment[msg.sender] */\n      0x00\n        /* \"contracts/LendingPool.sol\":3076:3086  msg.sender */\n      caller\n        /* \"contracts/LendingPool.sol\":3061:3087  pendingPayment[msg.sender] */\n      0xffffffffffffffffffffffffffffffffffffffff\n      and\n      0xffffffffffffffffffffffffffffffffffffffff\n      and\n      dup2\n      mstore\n      0x20\n      add\n      swap1\n      dup2\n      mstore\n      0x20\n      add\n      0x00\n      keccak256\n        /* \"contracts/LendingPool.sol\":3061:3092  pendingPayment[msg.sender] =  0 */\n      dup2\n      swap1\n      sstore\n      pop\n        /* \"contracts/LendingPool.sol\":3114:3124  msg.sender */\n      caller\n        /* \"contracts/LendingPool.sol\":3106:3134  payable(msg.sender).transfer */\n      0xffffffffffffffffffffffffffffffffffffffff\n      and\n        /* \"contracts/LendingPool.sol\":3106:3142  payable(msg.sender).transfer(amount) */\n      0x08fc\n        /* \"contracts/LendingPool.sol\":3135:3141  amount */\n      dup3\n        /* \"contracts/LendingPool.sol\":3106:3142  payable(msg.sender).transfer(amount) */\n      swap1\n      dup2\n      iszero\n      mul\n      swap1\n      mload(0x40)\n      0x00\n      mload(0x40)\n      dup1\n      dup4\n      sub\n      dup2\n      dup6\n      dup9\n      dup9\n      call\n      swap4\n      pop\n      pop\n      pop\n      pop\n      iszero\n      dup1\n      iszero\n      tag_87\n      jumpi\n      returndatasize\n      0x00\n      dup1\n      returndatacopy\n      revert(0x00, returndatasize)\n    tag_87:\n      pop\n        /* \"contracts/LendingPool.sol\":2909:3149  {... */\n      pop\n        /* \"contracts/LendingPool.sol\":2877:3149  function gateWithdrawl() public {... */\n      jump\t// out\n        /* \"contracts/LendingPool.sol\":281:316  uint256 public minimumAmt = 1 ether */\n    tag_28:\n      sload(0x00)\n      dup2\n      jump\t// out\n        /* \"contracts/LendingPool.sol\":2177:2801  function depositWithdraw() public{... */\n    tag_33:\n        /* \"contracts/LendingPool.sol\":2255:2256  0 */\n      0x00\n        /* \"contracts/LendingPool.sol\":2228:2240  stakedAmount */\n      0x06\n        /* \"contracts/LendingPool.sol\":2228:2252  stakedAmount[msg.sender] */\n      0x00\n        /* \"contracts/LendingPool.sol\":2241:2251  msg.sender */\n      caller\n        /* \"contracts/LendingPool.sol\":2228:2252  stakedAmount[msg.sender] */\n      0xffffffffffffffffffffffffffffffffffffffff\n      and\n      0xffffffffffffffffffffffffffffffffffffffff\n      and\n      dup2\n      mstore\n      0x20\n      add\n      swap1\n      dup2\n      mstore\n      0x20\n      add\n      0x00\n      keccak256\n      sload\n        /* \"contracts/LendingPool.sol\":2228:2256  stakedAmount[msg.sender] > 0 */\n      gt\n        /* \"contracts/LendingPool.sol\":2220:2293  require(stakedAmount[msg.sender] > 0, \"You don't have any money in here\") */\n      tag_89\n      jumpi\n      mload(0x40)\n      0x08c379a000000000000000000000000000000000000000000000000000000000\n      dup2\n      mstore\n      0x04\n      add\n      tag_90\n      swap1\n      tag_91\n      jump\t// in\n    tag_90:\n      mload(0x40)\n      dup1\n      swap2\n      sub\n      swap1\n      revert\n    tag_89:\n        /* \"contracts/LendingPool.sol\":2303:2322  uint256 time_staked */\n      0x00\n        /* \"contracts/LendingPool.sol\":2325:2378  (startTime[msg.sender] -  block.timestamp).div(86400) */\n      tag_92\n        /* \"contracts/LendingPool.sol\":2372:2377  86400 */\n      0x015180\n        /* \"contracts/LendingPool.sol\":2351:2366  block.timestamp */\n      timestamp\n        /* \"contracts/LendingPool.sol\":2326:2335  startTime */\n      0x05\n        /* \"contracts/LendingPool.sol\":2326:2347  startTime[msg.sender] */\n      0x00\n        /* \"contracts/LendingPool.sol\":2336:2346  msg.sender */\n      caller\n        /* \"contracts/LendingPool.sol\":2326:2347  startTime[msg.sender] */\n      0xffffffffffffffffffffffffffffffffffffffff\n      and\n      0xffffffffffffffffffffffffffffffffffffffff\n      and\n      dup2\n      mstore\n      0x20\n      add\n      swap1\n      dup2\n      mstore\n      0x20\n      add\n      0x00\n      keccak256\n      sload\n        /* \"contracts/LendingPool.sol\":2326:2366  startTime[msg.sender] -  block.timestamp */\n      tag_93\n      swap2\n      swap1\n      tag_94\n      jump\t// in\n    tag_93:\n        /* \"contracts/LendingPool.sol\":2325:2371  (startTime[msg.sender] -  block.timestamp).div */\n      tag_95\n      swap1\n        /* \"contracts/LendingPool.sol\":2325:2378  (startTime[msg.sender] -  block.timestamp).div(86400) */\n      swap2\n      swap1\n      0xffffffff\n      and\n      jump\t// in\n    tag_92:\n        /* \"contracts/LendingPool.sol\":2303:2378  uint256 time_staked = (startTime[msg.sender] -  block.timestamp).div(86400) */\n      swap1\n      pop\n        /* \"contracts/LendingPool.sol\":2410:2420  30 * 86400 */\n      0x278d00\n        /* \"contracts/LendingPool.sol\":2396:2407  time_staked */\n      dup2\n        /* \"contracts/LendingPool.sol\":2396:2420  time_staked > 30 * 86400 */\n      gt\n        /* \"contracts/LendingPool.sol\":2388:2461  require(time_staked > 30 * 86400, \"You should atleast stake for a monty\") */\n      tag_96\n      jumpi\n      mload(0x40)\n      0x08c379a000000000000000000000000000000000000000000000000000000000\n      dup2\n      mstore\n      0x04\n      add\n      tag_97\n      swap1\n      tag_98\n      jump\t// in\n    tag_97:\n      mload(0x40)\n      dup1\n      swap2\n      sub\n      swap1\n      revert\n    tag_96:\n        /* \"contracts/LendingPool.sol\":2471:2484  uint256 yield */\n      0x00\n        /* \"contracts/LendingPool.sol\":2514:2571  time_staked.mul(5).mul(stakedAmount[msg.sender]).div(100) */\n      tag_99\n        /* \"contracts/LendingPool.sol\":2567:2570  100 */\n      0x64\n        /* \"contracts/LendingPool.sol\":2514:2562  time_staked.mul(5).mul(stakedAmount[msg.sender]) */\n      tag_100\n        /* \"contracts/LendingPool.sol\":2537:2549  stakedAmount */\n      0x06\n        /* \"contracts/LendingPool.sol\":2537:2561  stakedAmount[msg.sender] */\n      0x00\n        /* \"contracts/LendingPool.sol\":2550:2560  msg.sender */\n      caller\n        /* \"contracts/LendingPool.sol\":2537:2561  stakedAmount[msg.sender] */\n      0xffffffffffffffffffffffffffffffffffffffff\n      and\n      0xffffffffffffffffffffffffffffffffffffffff\n      and\n      dup2\n      mstore\n      0x20\n      add\n      swap1\n      dup2\n      mstore\n      0x20\n      add\n      0x00\n      keccak256\n      sload\n        /* \"contracts/LendingPool.sol\":2514:2532  time_staked.mul(5) */\n      tag_101\n        /* \"contracts/LendingPool.sol\":2530:2531  5 */\n      0x05\n        /* \"contracts/LendingPool.sol\":2514:2525  time_staked */\n      dup8\n        /* \"contracts/LendingPool.sol\":2514:2529  time_staked.mul */\n      tag_102\n      swap1\n        /* \"contracts/LendingPool.sol\":2514:2532  time_staked.mul(5) */\n      swap2\n      swap1\n      0xffffffff\n      and\n      jump\t// in\n    tag_101:\n        /* \"contracts/LendingPool.sol\":2514:2536  time_staked.mul(5).mul */\n      tag_102\n      swap1\n        /* \"contracts/LendingPool.sol\":2514:2562  time_staked.mul(5).mul(stakedAmount[msg.sender]) */\n      swap2\n      swap1\n      0xffffffff\n      and\n      jump\t// in\n    tag_100:\n        /* \"contracts/LendingPool.sol\":2514:2566  time_staked.mul(5).mul(stakedAmount[msg.sender]).div */\n      tag_95\n      swap1\n        /* \"contracts/LendingPool.sol\":2514:2571  time_staked.mul(5).mul(stakedAmount[msg.sender]).div(100) */\n      swap2\n      swap1\n      0xffffffff\n      and\n      jump\t// in\n    tag_99:\n        /* \"contracts/LendingPool.sol\":2487:2499  stakedAmount */\n      0x06\n        /* \"contracts/LendingPool.sol\":2487:2511  stakedAmount[msg.sender] */\n      0x00\n        /* \"contracts/LendingPool.sol\":2500:2510  msg.sender */\n      caller\n        /* \"contracts/LendingPool.sol\":2487:2511  stakedAmount[msg.sender] */\n      0xffffffffffffffffffffffffffffffffffffffff\n      and\n      0xffffffffffffffffffffffffffffffffffffffff\n      and\n      dup2\n      mstore\n      0x20\n      add\n      swap1\n      dup2\n      mstore\n      0x20\n      add\n      0x00\n      keccak256\n      sload\n        /* \"contracts/LendingPool.sol\":2487:2571  stakedAmount[msg.sender] + time_staked.mul(5).mul(stakedAmount[msg.sender]).div(100) */\n      tag_103\n      swap2\n      swap1\n      tag_104\n      jump\t// in\n    tag_103:\n        /* \"contracts/LendingPool.sol\":2471:2571  uint256 yield = stakedAmount[msg.sender] + time_staked.mul(5).mul(stakedAmount[msg.sender]).div(100) */\n      swap1\n      pop\n        /* \"contracts/LendingPool.sol\":2597:2611  totalDeposited */\n      sload(0x02)\n        /* \"contracts/LendingPool.sol\":2589:2594  yield */\n      dup2\n        /* \"contracts/LendingPool.sol\":2589:2611  yield < totalDeposited */\n      lt\n        /* \"contracts/LendingPool.sol\":2581:2666  require(yield < totalDeposited, \"Sorry we don't have enough money so comeback later\") */\n      tag_105\n      jumpi\n      mload(0x40)\n      0x08c379a000000000000000000000000000000000000000000000000000000000\n      dup2\n      mstore\n      0x04\n      add\n      tag_106\n      swap1\n      tag_107\n      jump\t// in\n    tag_106:\n      mload(0x40)\n      dup1\n      swap2\n      sub\n      swap1\n      revert\n    tag_105:\n        /* \"contracts/LendingPool.sol\":2693:2718  totalDeposited.sub(yield) */\n      tag_108\n        /* \"contracts/LendingPool.sol\":2712:2717  yield */\n      dup2\n        /* \"contracts/LendingPool.sol\":2693:2707  totalDeposited */\n      sload(0x02)\n        /* \"contracts/LendingPool.sol\":2693:2711  totalDeposited.sub */\n      tag_77\n      swap1\n        /* \"contracts/LendingPool.sol\":2693:2718  totalDeposited.sub(yield) */\n      swap2\n      swap1\n      0xffffffff\n      and\n      jump\t// in\n    tag_108:\n        /* \"contracts/LendingPool.sol\":2676:2690  totalDeposited */\n      0x02\n        /* \"contracts/LendingPool.sol\":2676:2718  totalDeposited = totalDeposited.sub(yield) */\n      dup2\n      swap1\n      sstore\n      pop\n        /* \"contracts/LendingPool.sol\":2757:2794  pendingPayment[msg.sender].add(yield) */\n      tag_109\n        /* \"contracts/LendingPool.sol\":2788:2793  yield */\n      dup2\n        /* \"contracts/LendingPool.sol\":2757:2771  pendingPayment */\n      0x07\n        /* \"contracts/LendingPool.sol\":2757:2783  pendingPayment[msg.sender] */\n      0x00\n        /* \"contracts/LendingPool.sol\":2772:2782  msg.sender */\n      caller\n        /* \"contracts/LendingPool.sol\":2757:2783  pendingPayment[msg.sender] */\n      0xffffffffffffffffffffffffffffffffffffffff\n      and\n      0xffffffffffffffffffffffffffffffffffffffff\n      and\n      dup2\n      mstore\n      0x20\n      add\n      swap1\n      dup2\n      mstore\n      0x20\n      add\n      0x00\n      keccak256\n      sload\n        /* \"contracts/LendingPool.sol\":2757:2787  pendingPayment[msg.sender].add */\n      tag_79\n      swap1\n        /* \"contracts/LendingPool.sol\":2757:2794  pendingPayment[msg.sender].add(yield) */\n      swap2\n      swap1\n      0xffffffff\n      and\n      jump\t// in\n    tag_109:\n        /* \"contracts/LendingPool.sol\":2728:2742  pendingPayment */\n      0x07\n        /* \"contracts/LendingPool.sol\":2728:2754  pendingPayment[msg.sender] */\n      0x00\n        /* \"contracts/LendingPool.sol\":2743:2753  msg.sender */\n      caller\n        /* \"contracts/LendingPool.sol\":2728:2754  pendingPayment[msg.sender] */\n      0xffffffffffffffffffffffffffffffffffffffff\n      and\n      0xffffffffffffffffffffffffffffffffffffffff\n      and\n      dup2\n      mstore\n      0x20\n      add\n      swap1\n      dup2\n      mstore\n      0x20\n      add\n      0x00\n      keccak256\n        /* \"contracts/LendingPool.sol\":2728:2794  pendingPayment[msg.sender] = pendingPayment[msg.sender].add(yield) */\n      dup2\n      swap1\n      sstore\n      pop\n        /* \"contracts/LendingPool.sol\":2210:2801  {... */\n      pop\n      pop\n        /* \"contracts/LendingPool.sol\":2177:2801  function depositWithdraw() public{... */\n      jump\t// out\n        /* \"contracts/LendingPool.sol\":477:521  mapping(address => uint256) public startTime */\n    tag_38:\n      mstore(0x20, 0x05)\n      dup1\n      0x00\n      mstore\n      keccak256(0x00, 0x40)\n      0x00\n      swap2\n      pop\n      swap1\n      pop\n      sload\n      dup2\n      jump\t// out\n        /* \"contracts/LendingPool.sol\":322:350  address payable public owner */\n    tag_42:\n      0x01\n      0x00\n      swap1\n      sload\n      swap1\n      0x0100\n      exp\n      swap1\n      div\n      0xffffffffffffffffffffffffffffffffffffffff\n      and\n      dup2\n      jump\t// out\n        /* \"contracts/LendingPool.sol\":392:413  address public editor */\n    tag_47:\n      0x03\n      0x00\n      swap1\n      sload\n      swap1\n      0x0100\n      exp\n      swap1\n      div\n      0xffffffffffffffffffffffffffffffffffffffff\n      and\n      dup2\n      jump\t// out\n        /* \"contracts/LendingPool.sol\":580:629  mapping(address => uint256) public pendingPayment */\n    tag_53:\n      mstore(0x20, 0x07)\n      dup1\n      0x00\n      mstore\n      keccak256(0x00, 0x40)\n      0x00\n      swap2\n      pop\n      swap1\n      pop\n      sload\n      dup2\n      jump\t// out\n        /* \"contracts/LendingPool.sol\":635:680  mapping(address => bool) public allowed_pools */\n    tag_58:\n      mstore(0x20, 0x08)\n      dup1\n      0x00\n      mstore\n      keccak256(0x00, 0x40)\n      0x00\n      swap2\n      pop\n      sload\n      swap1\n      0x0100\n      exp\n      swap1\n      div\n      0xff\n      and\n      dup2\n      jump\t// out\n        /* \"contracts/LendingPool.sol\":1333:1736  function deposit() public payable {... */\n    tag_62:\n        /* \"contracts/LendingPool.sol\":1398:1408  minimumAmt */\n      sload(0x00)\n        /* \"contracts/LendingPool.sol\":1385:1394  msg.value */\n      callvalue\n        /* \"contracts/LendingPool.sol\":1385:1408  msg.value >= minimumAmt */\n      lt\n      iszero\n        /* \"contracts/LendingPool.sol\":1377:1437  require(msg.value >= minimumAmt, \"Minimum 1 Ether Required\") */\n      tag_111\n      jumpi\n      mload(0x40)\n      0x08c379a000000000000000000000000000000000000000000000000000000000\n      dup2\n      mstore\n      0x04\n      add\n      tag_112\n      swap1\n      tag_113\n      jump\t// in\n    tag_112:\n      mload(0x40)\n      dup1\n      swap2\n      sub\n      swap1\n      revert\n    tag_111:\n        /* \"contracts/LendingPool.sol\":1527:1542  block.timestamp */\n      timestamp\n        /* \"contracts/LendingPool.sol\":1503:1512  startTime */\n      0x05\n        /* \"contracts/LendingPool.sol\":1503:1524  startTime[msg.sender] */\n      0x00\n        /* \"contracts/LendingPool.sol\":1513:1523  msg.sender */\n      caller\n        /* \"contracts/LendingPool.sol\":1503:1524  startTime[msg.sender] */\n      0xffffffffffffffffffffffffffffffffffffffff\n      and\n      0xffffffffffffffffffffffffffffffffffffffff\n      and\n      dup2\n      mstore\n      0x20\n      add\n      swap1\n      dup2\n      mstore\n      0x20\n      add\n      0x00\n      keccak256\n        /* \"contracts/LendingPool.sol\":1503:1542  startTime[msg.sender] = block.timestamp */\n      dup2\n      swap1\n      sstore\n      pop\n        /* \"contracts/LendingPool.sol\":1579:1618  stakedAmount[msg.sender].add(msg.value) */\n      tag_114\n        /* \"contracts/LendingPool.sol\":1608:1617  msg.value */\n      callvalue\n        /* \"contracts/LendingPool.sol\":1579:1591  stakedAmount */\n      0x06\n        /* \"contracts/LendingPool.sol\":1579:1603  stakedAmount[msg.sender] */\n      0x00\n        /* \"contracts/LendingPool.sol\":1592:1602  msg.sender */\n      caller\n        /* \"contracts/LendingPool.sol\":1579:1603  stakedAmount[msg.sender] */\n      0xffffffffffffffffffffffffffffffffffffffff\n      and\n      0xffffffffffffffffffffffffffffffffffffffff\n      and\n      dup2\n      mstore\n      0x20\n      add\n      swap1\n      dup2\n      mstore\n      0x20\n      add\n      0x00\n      keccak256\n      sload\n        /* \"contracts/LendingPool.sol\":1579:1607  stakedAmount[msg.sender].add */\n      tag_79\n      swap1\n        /* \"contracts/LendingPool.sol\":1579:1618  stakedAmount[msg.sender].add(msg.value) */\n      swap2\n      swap1\n      0xffffffff\n      and\n      jump\t// in\n    tag_114:\n        /* \"contracts/LendingPool.sol\":1552:1564  stakedAmount */\n      0x06\n        /* \"contracts/LendingPool.sol\":1552:1576  stakedAmount[msg.sender] */\n      0x00\n        /* \"contracts/LendingPool.sol\":1565:1575  msg.sender */\n      caller\n        /* \"contracts/LendingPool.sol\":1552:1576  stakedAmount[msg.sender] */\n      0xffffffffffffffffffffffffffffffffffffffff\n      and\n      0xffffffffffffffffffffffffffffffffffffffff\n      and\n      dup2\n      mstore\n      0x20\n      add\n      swap1\n      dup2\n      mstore\n      0x20\n      add\n      0x00\n      keccak256\n        /* \"contracts/LendingPool.sol\":1552:1618  stakedAmount[msg.sender] = stakedAmount[msg.sender].add(msg.value) */\n      dup2\n      swap1\n      sstore\n      pop\n        /* \"contracts/LendingPool.sol\":1645:1674  totalDeposited.add(msg.value) */\n      tag_115\n        /* \"contracts/LendingPool.sol\":1664:1673  msg.value */\n      callvalue\n        /* \"contracts/LendingPool.sol\":1645:1659  totalDeposited */\n      sload(0x02)\n        /* \"contracts/LendingPool.sol\":1645:1663  totalDeposited.add */\n      tag_79\n      swap1\n        /* \"contracts/LendingPool.sol\":1645:1674  totalDeposited.add(msg.value) */\n      swap2\n      swap1\n      0xffffffff\n      and\n      jump\t// in\n    tag_115:\n        /* \"contracts/LendingPool.sol\":1628:1642  totalDeposited */\n      0x02\n        /* \"contracts/LendingPool.sol\":1628:1674  totalDeposited = totalDeposited.add(msg.value) */\n      dup2\n      swap1\n      sstore\n      pop\n        /* \"contracts/LendingPool.sol\":1689:1729  LendingPoolMessage(\"staked\", msg.sender) */\n      0xf67e7992d539193fc243c42fe89f8fab49013e8e4fb18cfa891dc51adcaccc80\n        /* \"contracts/LendingPool.sol\":1718:1728  msg.sender */\n      caller\n        /* \"contracts/LendingPool.sol\":1689:1729  LendingPoolMessage(\"staked\", msg.sender) */\n      mload(0x40)\n      tag_116\n      swap2\n      swap1\n      tag_117\n      jump\t// in\n    tag_116:\n      mload(0x40)\n      dup1\n      swap2\n      sub\n      swap1\n      log1\n        /* \"contracts/LendingPool.sol\":1333:1736  function deposit() public payable {... */\n      jump\t// out\n        /* \"contracts/LendingPool.sol\":527:574  mapping(address => uint256) public stakedAmount */\n    tag_66:\n      mstore(0x20, 0x06)\n      dup1\n      0x00\n      mstore\n      keccak256(0x00, 0x40)\n      0x00\n      swap2\n      pop\n      swap1\n      pop\n      sload\n      dup2\n      jump\t// out\n        /* \"contracts/SafeMath.sol\":245:405  function sub(uint256 a, uint256 b) internal pure returns (uint256 c) {... */\n    tag_77:\n        /* \"contracts/SafeMath.sol\":303:312  uint256 c */\n      0x00\n        /* \"contracts/SafeMath.sol\":337:338  a */\n      dup3\n        /* \"contracts/SafeMath.sol\":332:333  b */\n      dup3\n        /* \"contracts/SafeMath.sol\":332:338  b <= a */\n      gt\n      iszero\n        /* \"contracts/SafeMath.sol\":324:361  require(b <= a, \"Substraction faild\") */\n      tag_119\n      jumpi\n      mload(0x40)\n      0x08c379a000000000000000000000000000000000000000000000000000000000\n      dup2\n      mstore\n      0x04\n      add\n      tag_120\n      swap1\n      tag_121\n      jump\t// in\n    tag_120:\n      mload(0x40)\n      dup1\n      swap2\n      sub\n      swap1\n      revert\n    tag_119:\n        /* \"contracts/SafeMath.sol\":379:380  b */\n      dup2\n        /* \"contracts/SafeMath.sol\":375:376  a */\n      dup4\n        /* \"contracts/SafeMath.sol\":375:380  a - b */\n      tag_122\n      swap2\n      swap1\n      tag_94\n      jump\t// in\n    tag_122:\n        /* \"contracts/SafeMath.sol\":371:380  c = a - b */\n      swap1\n      pop\n        /* \"contracts/SafeMath.sol\":245:405  function sub(uint256 a, uint256 b) internal pure returns (uint256 c) {... */\n      swap3\n      swap2\n      pop\n      pop\n      jump\t// out\n        /* \"contracts/SafeMath.sol\":82:239  function add(uint256 a, uint256 b) internal pure returns (uint256 c) {... */\n    tag_79:\n        /* \"contracts/SafeMath.sol\":140:149  uint256 c */\n      0x00\n        /* \"contracts/SafeMath.sol\":169:170  b */\n      dup2\n        /* \"contracts/SafeMath.sol\":165:166  a */\n      dup4\n        /* \"contracts/SafeMath.sol\":165:170  a + b */\n      tag_124\n      swap2\n      swap1\n      tag_104\n      jump\t// in\n    tag_124:\n        /* \"contracts/SafeMath.sol\":161:170  c = a + b */\n      swap1\n      pop\n        /* \"contracts/SafeMath.sol\":193:194  a */\n      dup3\n        /* \"contracts/SafeMath.sol\":188:189  c */\n      dup2\n        /* \"contracts/SafeMath.sol\":188:194  c >= a */\n      lt\n      iszero\n        /* \"contracts/SafeMath.sol\":180:214  require(c >= a, \"Addition failed\") */\n      tag_125\n      jumpi\n      mload(0x40)\n      0x08c379a000000000000000000000000000000000000000000000000000000000\n      dup2\n      mstore\n      0x04\n      add\n      tag_126\n      swap1\n      tag_127\n      jump\t// in\n    tag_126:\n      mload(0x40)\n      dup1\n      swap2\n      sub\n      swap1\n      revert\n    tag_125:\n        /* \"contracts/SafeMath.sol\":82:239  function add(uint256 a, uint256 b) internal pure returns (uint256 c) {... */\n      swap3\n      swap2\n      pop\n      pop\n      jump\t// out\n        /* \"contracts/SafeMath.sol\":593:748  function div(uint256 a, uint256 b) internal pure returns (uint256 c) {... */\n    tag_95:\n        /* \"contracts/SafeMath.sol\":651:660  uint256 c */\n      0x00\n        /* \"contracts/SafeMath.sol\":684:685  0 */\n      dup1\n        /* \"contracts/SafeMath.sol\":680:681  b */\n      dup3\n        /* \"contracts/SafeMath.sol\":680:685  b > 0 */\n      gt\n        /* \"contracts/SafeMath.sol\":672:704  require(b > 0, \"Division faild\") */\n      tag_129\n      jumpi\n      mload(0x40)\n      0x08c379a000000000000000000000000000000000000000000000000000000000\n      dup2\n      mstore\n      0x04\n      add\n      tag_130\n      swap1\n      tag_131\n      jump\t// in\n    tag_130:\n      mload(0x40)\n      dup1\n      swap2\n      sub\n      swap1\n      revert\n    tag_129:\n        /* \"contracts/SafeMath.sol\":722:723  b */\n      dup2\n        /* \"contracts/SafeMath.sol\":718:719  a */\n      dup4\n        /* \"contracts/SafeMath.sol\":718:723  a / b */\n      tag_132\n      swap2\n      swap1\n      tag_133\n      jump\t// in\n    tag_132:\n        /* \"contracts/SafeMath.sol\":714:723  c = a / b */\n      swap1\n      pop\n        /* \"contracts/SafeMath.sol\":593:748  function div(uint256 a, uint256 b) internal pure returns (uint256 c) {... */\n      swap3\n      swap2\n      pop\n      pop\n      jump\t// out\n        /* \"contracts/SafeMath.sol\":411:587  function mul(uint256 a, uint256 b) internal pure returns (uint256 c) {... */\n    tag_102:\n        /* \"contracts/SafeMath.sol\":469:478  uint256 c */\n      0x00\n        /* \"contracts/SafeMath.sol\":498:499  b */\n      dup2\n        /* \"contracts/SafeMath.sol\":494:495  a */\n      dup4\n        /* \"contracts/SafeMath.sol\":494:499  a * b */\n      tag_135\n      swap2\n      swap1\n      tag_136\n      jump\t// in\n    tag_135:\n        /* \"contracts/SafeMath.sol\":490:499  c = a * b */\n      swap1\n      pop\n        /* \"contracts/SafeMath.sol\":522:523  0 */\n      0x00\n        /* \"contracts/SafeMath.sol\":517:518  a */\n      dup4\n        /* \"contracts/SafeMath.sol\":517:523  a == 0 */\n      eq\n        /* \"contracts/SafeMath.sol\":517:537  a == 0 || c / a == b */\n      dup1\n      tag_137\n      jumpi\n      pop\n        /* \"contracts/SafeMath.sol\":536:537  b */\n      dup2\n        /* \"contracts/SafeMath.sol\":531:532  a */\n      dup4\n        /* \"contracts/SafeMath.sol\":527:528  c */\n      dup3\n        /* \"contracts/SafeMath.sol\":527:532  c / a */\n      tag_138\n      swap2\n      swap1\n      tag_133\n      jump\t// in\n    tag_138:\n        /* \"contracts/SafeMath.sol\":527:537  c / a == b */\n      eq\n        /* \"contracts/SafeMath.sol\":517:537  a == 0 || c / a == b */\n    tag_137:\n        /* \"contracts/SafeMath.sol\":509:562  require(a == 0 || c / a == b, \"Multiplication faild\") */\n      tag_139\n      jumpi\n      mload(0x40)\n      0x08c379a000000000000000000000000000000000000000000000000000000000\n      dup2\n      mstore\n      0x04\n      add\n      tag_140\n      swap1\n      tag_141\n      jump\t// in\n    tag_140:\n      mload(0x40)\n      dup1\n      swap2\n      sub\n      swap1\n      revert\n    tag_139:\n        /* \"contracts/SafeMath.sol\":411:587  function mul(uint256 a, uint256 b) internal pure returns (uint256 c) {... */\n      swap3\n      swap2\n      pop\n      pop\n      jump\t// out\n        /* \"#utility.yul\":7:146   */\n    tag_143:\n        /* \"#utility.yul\":53:58   */\n      0x00\n        /* \"#utility.yul\":91:97   */\n      dup2\n        /* \"#utility.yul\":78:98   */\n      calldataload\n        /* \"#utility.yul\":69:98   */\n      swap1\n      pop\n        /* \"#utility.yul\":107:140   */\n      tag_145\n        /* \"#utility.yul\":134:139   */\n      dup2\n        /* \"#utility.yul\":107:140   */\n      tag_146\n      jump\t// in\n    tag_145:\n        /* \"#utility.yul\":7:146   */\n      swap3\n      swap2\n      pop\n      pop\n      jump\t// out\n        /* \"#utility.yul\":152:291   */\n    tag_147:\n        /* \"#utility.yul\":198:203   */\n      0x00\n        /* \"#utility.yul\":236:242   */\n      dup2\n        /* \"#utility.yul\":223:243   */\n      calldataload\n        /* \"#utility.yul\":214:243   */\n      swap1\n      pop\n        /* \"#utility.yul\":252:285   */\n      tag_149\n        /* \"#utility.yul\":279:284   */\n      dup2\n        /* \"#utility.yul\":252:285   */\n      tag_150\n      jump\t// in\n    tag_149:\n        /* \"#utility.yul\":152:291   */\n      swap3\n      swap2\n      pop\n      pop\n      jump\t// out\n        /* \"#utility.yul\":297:626   */\n    tag_37:\n        /* \"#utility.yul\":356:362   */\n      0x00\n        /* \"#utility.yul\":405:407   */\n      0x20\n        /* \"#utility.yul\":393:402   */\n      dup3\n        /* \"#utility.yul\":384:391   */\n      dup5\n        /* \"#utility.yul\":380:403   */\n      sub\n        /* \"#utility.yul\":376:408   */\n      slt\n        /* \"#utility.yul\":373:492   */\n      iszero\n      tag_152\n      jumpi\n        /* \"#utility.yul\":411:490   */\n      tag_153\n      tag_154\n      jump\t// in\n    tag_153:\n        /* \"#utility.yul\":373:492   */\n    tag_152:\n        /* \"#utility.yul\":531:532   */\n      0x00\n        /* \"#utility.yul\":556:609   */\n      tag_155\n        /* \"#utility.yul\":601:608   */\n      dup5\n        /* \"#utility.yul\":592:598   */\n      dup3\n        /* \"#utility.yul\":581:590   */\n      dup6\n        /* \"#utility.yul\":577:599   */\n      add\n        /* \"#utility.yul\":556:609   */\n      tag_143\n      jump\t// in\n    tag_155:\n        /* \"#utility.yul\":546:609   */\n      swap2\n      pop\n        /* \"#utility.yul\":502:619   */\n      pop\n        /* \"#utility.yul\":297:626   */\n      swap3\n      swap2\n      pop\n      pop\n      jump\t// out\n        /* \"#utility.yul\":632:1106   */\n    tag_21:\n        /* \"#utility.yul\":700:706   */\n      0x00\n        /* \"#utility.yul\":708:714   */\n      dup1\n        /* \"#utility.yul\":757:759   */\n      0x40\n        /* \"#utility.yul\":745:754   */\n      dup4\n        /* \"#utility.yul\":736:743   */\n      dup6\n        /* \"#utility.yul\":732:755   */\n      sub\n        /* \"#utility.yul\":728:760   */\n      slt\n        /* \"#utility.yul\":725:844   */\n      iszero\n      tag_157\n      jumpi\n        /* \"#utility.yul\":763:842   */\n      tag_158\n      tag_154\n      jump\t// in\n    tag_158:\n        /* \"#utility.yul\":725:844   */\n    tag_157:\n        /* \"#utility.yul\":883:884   */\n      0x00\n        /* \"#utility.yul\":908:961   */\n      tag_159\n        /* \"#utility.yul\":953:960   */\n      dup6\n        /* \"#utility.yul\":944:950   */\n      dup3\n        /* \"#utility.yul\":933:942   */\n      dup7\n        /* \"#utility.yul\":929:951   */\n      add\n        /* \"#utility.yul\":908:961   */\n      tag_147\n      jump\t// in\n    tag_159:\n        /* \"#utility.yul\":898:961   */\n      swap3\n      pop\n        /* \"#utility.yul\":854:971   */\n      pop\n        /* \"#utility.yul\":1010:1012   */\n      0x20\n        /* \"#utility.yul\":1036:1089   */\n      tag_160\n        /* \"#utility.yul\":1081:1088   */\n      dup6\n        /* \"#utility.yul\":1072:1078   */\n      dup3\n        /* \"#utility.yul\":1061:1070   */\n      dup7\n        /* \"#utility.yul\":1057:1079   */\n      add\n        /* \"#utility.yul\":1036:1089   */\n      tag_143\n      jump\t// in\n    tag_160:\n        /* \"#utility.yul\":1026:1089   */\n      swap2\n      pop\n        /* \"#utility.yul\":981:1099   */\n      pop\n        /* \"#utility.yul\":632:1106   */\n      swap3\n      pop\n      swap3\n      swap1\n      pop\n      jump\t// out\n        /* \"#utility.yul\":1112:1254   */\n    tag_161:\n        /* \"#utility.yul\":1215:1247   */\n      tag_163\n        /* \"#utility.yul\":1241:1246   */\n      dup2\n        /* \"#utility.yul\":1215:1247   */\n      tag_164\n      jump\t// in\n    tag_163:\n        /* \"#utility.yul\":1210:1213   */\n      dup3\n        /* \"#utility.yul\":1203:1248   */\n      mstore\n        /* \"#utility.yul\":1112:1254   */\n      pop\n      pop\n      jump\t// out\n        /* \"#utility.yul\":1260:1378   */\n    tag_165:\n        /* \"#utility.yul\":1347:1371   */\n      tag_167\n        /* \"#utility.yul\":1365:1370   */\n      dup2\n        /* \"#utility.yul\":1347:1371   */\n      tag_168\n      jump\t// in\n    tag_167:\n        /* \"#utility.yul\":1342:1345   */\n      dup3\n        /* \"#utility.yul\":1335:1372   */\n      mstore\n        /* \"#utility.yul\":1260:1378   */\n      pop\n      pop\n      jump\t// out\n        /* \"#utility.yul\":1384:1493   */\n    tag_169:\n        /* \"#utility.yul\":1465:1486   */\n      tag_171\n        /* \"#utility.yul\":1480:1485   */\n      dup2\n        /* \"#utility.yul\":1465:1486   */\n      tag_172\n      jump\t// in\n    tag_171:\n        /* \"#utility.yul\":1460:1463   */\n      dup3\n        /* \"#utility.yul\":1453:1487   */\n      mstore\n        /* \"#utility.yul\":1384:1493   */\n      pop\n      pop\n      jump\t// out\n        /* \"#utility.yul\":1499:1865   */\n    tag_173:\n        /* \"#utility.yul\":1641:1644   */\n      0x00\n        /* \"#utility.yul\":1662:1729   */\n      tag_175\n        /* \"#utility.yul\":1726:1728   */\n      0x13\n        /* \"#utility.yul\":1721:1724   */\n      dup4\n        /* \"#utility.yul\":1662:1729   */\n      tag_176\n      jump\t// in\n    tag_175:\n        /* \"#utility.yul\":1655:1729   */\n      swap2\n      pop\n        /* \"#utility.yul\":1738:1831   */\n      tag_177\n        /* \"#utility.yul\":1827:1830   */\n      dup3\n        /* \"#utility.yul\":1738:1831   */\n      tag_178\n      jump\t// in\n    tag_177:\n        /* \"#utility.yul\":1856:1858   */\n      0x20\n        /* \"#utility.yul\":1851:1854   */\n      dup3\n        /* \"#utility.yul\":1847:1859   */\n      add\n        /* \"#utility.yul\":1840:1859   */\n      swap1\n      pop\n        /* \"#utility.yul\":1499:1865   */\n      swap2\n      swap1\n      pop\n      jump\t// out\n        /* \"#utility.yul\":1871:2237   */\n    tag_179:\n        /* \"#utility.yul\":2013:2016   */\n      0x00\n        /* \"#utility.yul\":2034:2101   */\n      tag_181\n        /* \"#utility.yul\":2098:2100   */\n      0x29\n        /* \"#utility.yul\":2093:2096   */\n      dup4\n        /* \"#utility.yul\":2034:2101   */\n      tag_176\n      jump\t// in\n    tag_181:\n        /* \"#utility.yul\":2027:2101   */\n      swap2\n      pop\n        /* \"#utility.yul\":2110:2203   */\n      tag_182\n        /* \"#utility.yul\":2199:2202   */\n      dup3\n        /* \"#utility.yul\":2110:2203   */\n      tag_183\n      jump\t// in\n    tag_182:\n        /* \"#utility.yul\":2228:2230   */\n      0x40\n        /* \"#utility.yul\":2223:2226   */\n      dup3\n        /* \"#utility.yul\":2219:2231   */\n      add\n        /* \"#utility.yul\":2212:2231   */\n      swap1\n      pop\n        /* \"#utility.yul\":1871:2237   */\n      swap2\n      swap1\n      pop\n      jump\t// out\n        /* \"#utility.yul\":2243:2609   */\n    tag_184:\n        /* \"#utility.yul\":2385:2388   */\n      0x00\n        /* \"#utility.yul\":2406:2473   */\n      tag_186\n        /* \"#utility.yul\":2470:2472   */\n      0x20\n        /* \"#utility.yul\":2465:2468   */\n      dup4\n        /* \"#utility.yul\":2406:2473   */\n      tag_176\n      jump\t// in\n    tag_186:\n        /* \"#utility.yul\":2399:2473   */\n      swap2\n      pop\n        /* \"#utility.yul\":2482:2575   */\n      tag_187\n        /* \"#utility.yul\":2571:2574   */\n      dup3\n        /* \"#utility.yul\":2482:2575   */\n      tag_188\n      jump\t// in\n    tag_187:\n        /* \"#utility.yul\":2600:2602   */\n      0x20\n        /* \"#utility.yul\":2595:2598   */\n      dup3\n        /* \"#utility.yul\":2591:2603   */\n      add\n        /* \"#utility.yul\":2584:2603   */\n      swap1\n      pop\n        /* \"#utility.yul\":2243:2609   */\n      swap2\n      swap1\n      pop\n      jump\t// out\n        /* \"#utility.yul\":2615:2981   */\n    tag_189:\n        /* \"#utility.yul\":2757:2760   */\n      0x00\n        /* \"#utility.yul\":2778:2845   */\n      tag_191\n        /* \"#utility.yul\":2842:2844   */\n      0x18\n        /* \"#utility.yul\":2837:2840   */\n      dup4\n        /* \"#utility.yul\":2778:2845   */\n      tag_176\n      jump\t// in\n    tag_191:\n        /* \"#utility.yul\":2771:2845   */\n      swap2\n      pop\n        /* \"#utility.yul\":2854:2947   */\n      tag_192\n        /* \"#utility.yul\":2943:2946   */\n      dup3\n        /* \"#utility.yul\":2854:2947   */\n      tag_193\n      jump\t// in\n    tag_192:\n        /* \"#utility.yul\":2972:2974   */\n      0x20\n        /* \"#utility.yul\":2967:2970   */\n      dup3\n        /* \"#utility.yul\":2963:2975   */\n      add\n        /* \"#utility.yul\":2956:2975   */\n      swap1\n      pop\n        /* \"#utility.yul\":2615:2981   */\n      swap2\n      swap1\n      pop\n      jump\t// out\n        /* \"#utility.yul\":2987:3353   */\n    tag_194:\n        /* \"#utility.yul\":3129:3132   */\n      0x00\n        /* \"#utility.yul\":3150:3217   */\n      tag_196\n        /* \"#utility.yul\":3214:3216   */\n      0x24\n        /* \"#utility.yul\":3209:3212   */\n      dup4\n        /* \"#utility.yul\":3150:3217   */\n      tag_176\n      jump\t// in\n    tag_196:\n        /* \"#utility.yul\":3143:3217   */\n      swap2\n      pop\n        /* \"#utility.yul\":3226:3319   */\n      tag_197\n        /* \"#utility.yul\":3315:3318   */\n      dup3\n        /* \"#utility.yul\":3226:3319   */\n      tag_198\n      jump\t// in\n    tag_197:\n        /* \"#utility.yul\":3344:3346   */\n      0x40\n        /* \"#utility.yul\":3339:3342   */\n      dup3\n        /* \"#utility.yul\":3335:3347   */\n      add\n        /* \"#utility.yul\":3328:3347   */\n      swap1\n      pop\n        /* \"#utility.yul\":2987:3353   */\n      swap2\n      swap1\n      pop\n      jump\t// out\n        /* \"#utility.yul\":3359:3724   */\n    tag_199:\n        /* \"#utility.yul\":3501:3504   */\n      0x00\n        /* \"#utility.yul\":3522:3588   */\n      tag_201\n        /* \"#utility.yul\":3586:3587   */\n      0x06\n        /* \"#utility.yul\":3581:3584   */\n      dup4\n        /* \"#utility.yul\":3522:3588   */\n      tag_176\n      jump\t// in\n    tag_201:\n        /* \"#utility.yul\":3515:3588   */\n      swap2\n      pop\n        /* \"#utility.yul\":3597:3690   */\n      tag_202\n        /* \"#utility.yul\":3686:3689   */\n      dup3\n        /* \"#utility.yul\":3597:3690   */\n      tag_203\n      jump\t// in\n    tag_202:\n        /* \"#utility.yul\":3715:3717   */\n      0x20\n        /* \"#utility.yul\":3710:3713   */\n      dup3\n        /* \"#utility.yul\":3706:3718   */\n      add\n        /* \"#utility.yul\":3699:3718   */\n      swap1\n      pop\n        /* \"#utility.yul\":3359:3724   */\n      swap2\n      swap1\n      pop\n      jump\t// out\n        /* \"#utility.yul\":3730:4096   */\n    tag_204:\n        /* \"#utility.yul\":3872:3875   */\n      0x00\n        /* \"#utility.yul\":3893:3960   */\n      tag_206\n        /* \"#utility.yul\":3957:3959   */\n      0x12\n        /* \"#utility.yul\":3952:3955   */\n      dup4\n        /* \"#utility.yul\":3893:3960   */\n      tag_176\n      jump\t// in\n    tag_206:\n        /* \"#utility.yul\":3886:3960   */\n      swap2\n      pop\n        /* \"#utility.yul\":3969:4062   */\n      tag_207\n        /* \"#utility.yul\":4058:4061   */\n      dup3\n        /* \"#utility.yul\":3969:4062   */\n      tag_208\n      jump\t// in\n    tag_207:\n        /* \"#utility.yul\":4087:4089   */\n      0x20\n        /* \"#utility.yul\":4082:4085   */\n      dup3\n        /* \"#utility.yul\":4078:4090   */\n      add\n        /* \"#utility.yul\":4071:4090   */\n      swap1\n      pop\n        /* \"#utility.yul\":3730:4096   */\n      swap2\n      swap1\n      pop\n      jump\t// out\n        /* \"#utility.yul\":4102:4468   */\n    tag_209:\n        /* \"#utility.yul\":4244:4247   */\n      0x00\n        /* \"#utility.yul\":4265:4332   */\n      tag_211\n        /* \"#utility.yul\":4329:4331   */\n      0x0f\n        /* \"#utility.yul\":4324:4327   */\n      dup4\n        /* \"#utility.yul\":4265:4332   */\n      tag_176\n      jump\t// in\n    tag_211:\n        /* \"#utility.yul\":4258:4332   */\n      swap2\n      pop\n        /* \"#utility.yul\":4341:4434   */\n      tag_212\n        /* \"#utility.yul\":4430:4433   */\n      dup3\n        /* \"#utility.yul\":4341:4434   */\n      tag_213\n      jump\t// in\n    tag_212:\n        /* \"#utility.yul\":4459:4461   */\n      0x20\n        /* \"#utility.yul\":4454:4457   */\n      dup3\n        /* \"#utility.yul\":4450:4462   */\n      add\n        /* \"#utility.yul\":4443:4462   */\n      swap1\n      pop\n        /* \"#utility.yul\":4102:4468   */\n      swap2\n      swap1\n      pop\n      jump\t// out\n        /* \"#utility.yul\":4474:4840   */\n    tag_214:\n        /* \"#utility.yul\":4616:4619   */\n      0x00\n        /* \"#utility.yul\":4637:4704   */\n      tag_216\n        /* \"#utility.yul\":4701:4703   */\n      0x24\n        /* \"#utility.yul\":4696:4699   */\n      dup4\n        /* \"#utility.yul\":4637:4704   */\n      tag_176\n      jump\t// in\n    tag_216:\n        /* \"#utility.yul\":4630:4704   */\n      swap2\n      pop\n        /* \"#utility.yul\":4713:4806   */\n      tag_217\n        /* \"#utility.yul\":4802:4805   */\n      dup3\n        /* \"#utility.yul\":4713:4806   */\n      tag_218\n      jump\t// in\n    tag_217:\n        /* \"#utility.yul\":4831:4833   */\n      0x40\n        /* \"#utility.yul\":4826:4829   */\n      dup3\n        /* \"#utility.yul\":4822:4834   */\n      add\n        /* \"#utility.yul\":4815:4834   */\n      swap1\n      pop\n        /* \"#utility.yul\":4474:4840   */\n      swap2\n      swap1\n      pop\n      jump\t// out\n        /* \"#utility.yul\":4846:5212   */\n    tag_219:\n        /* \"#utility.yul\":4988:4991   */\n      0x00\n        /* \"#utility.yul\":5009:5076   */\n      tag_221\n        /* \"#utility.yul\":5073:5075   */\n      0x0e\n        /* \"#utility.yul\":5068:5071   */\n      dup4\n        /* \"#utility.yul\":5009:5076   */\n      tag_176\n      jump\t// in\n    tag_221:\n        /* \"#utility.yul\":5002:5076   */\n      swap2\n      pop\n        /* \"#utility.yul\":5085:5178   */\n      tag_222\n        /* \"#utility.yul\":5174:5177   */\n      dup3\n        /* \"#utility.yul\":5085:5178   */\n      tag_223\n      jump\t// in\n    tag_222:\n        /* \"#utility.yul\":5203:5205   */\n      0x20\n        /* \"#utility.yul\":5198:5201   */\n      dup3\n        /* \"#utility.yul\":5194:5206   */\n      add\n        /* \"#utility.yul\":5187:5206   */\n      swap1\n      pop\n        /* \"#utility.yul\":4846:5212   */\n      swap2\n      swap1\n      pop\n      jump\t// out\n        /* \"#utility.yul\":5218:5584   */\n    tag_224:\n        /* \"#utility.yul\":5360:5363   */\n      0x00\n        /* \"#utility.yul\":5381:5448   */\n      tag_226\n        /* \"#utility.yul\":5445:5447   */\n      0x27\n        /* \"#utility.yul\":5440:5443   */\n      dup4\n        /* \"#utility.yul\":5381:5448   */\n      tag_176\n      jump\t// in\n    tag_226:\n        /* \"#utility.yul\":5374:5448   */\n      swap2\n      pop\n        /* \"#utility.yul\":5457:5550   */\n      tag_227\n        /* \"#utility.yul\":5546:5549   */\n      dup3\n        /* \"#utility.yul\":5457:5550   */\n      tag_228\n      jump\t// in\n    tag_227:\n        /* \"#utility.yul\":5575:5577   */\n      0x40\n        /* \"#utility.yul\":5570:5573   */\n      dup3\n        /* \"#utility.yul\":5566:5578   */\n      add\n        /* \"#utility.yul\":5559:5578   */\n      swap1\n      pop\n        /* \"#utility.yul\":5218:5584   */\n      swap2\n      swap1\n      pop\n      jump\t// out\n        /* \"#utility.yul\":5590:5956   */\n    tag_229:\n        /* \"#utility.yul\":5732:5735   */\n      0x00\n        /* \"#utility.yul\":5753:5820   */\n      tag_231\n        /* \"#utility.yul\":5817:5819   */\n      0x32\n        /* \"#utility.yul\":5812:5815   */\n      dup4\n        /* \"#utility.yul\":5753:5820   */\n      tag_176\n      jump\t// in\n    tag_231:\n        /* \"#utility.yul\":5746:5820   */\n      swap2\n      pop\n        /* \"#utility.yul\":5829:5922   */\n      tag_232\n        /* \"#utility.yul\":5918:5921   */\n      dup3\n        /* \"#utility.yul\":5829:5922   */\n      tag_233\n      jump\t// in\n    tag_232:\n        /* \"#utility.yul\":5947:5949   */\n      0x40\n        /* \"#utility.yul\":5942:5945   */\n      dup3\n        /* \"#utility.yul\":5938:5950   */\n      add\n        /* \"#utility.yul\":5931:5950   */\n      swap1\n      pop\n        /* \"#utility.yul\":5590:5956   */\n      swap2\n      swap1\n      pop\n      jump\t// out\n        /* \"#utility.yul\":5962:6328   */\n    tag_234:\n        /* \"#utility.yul\":6104:6107   */\n      0x00\n        /* \"#utility.yul\":6125:6192   */\n      tag_236\n        /* \"#utility.yul\":6189:6191   */\n      0x14\n        /* \"#utility.yul\":6184:6187   */\n      dup4\n        /* \"#utility.yul\":6125:6192   */\n      tag_176\n      jump\t// in\n    tag_236:\n        /* \"#utility.yul\":6118:6192   */\n      swap2\n      pop\n        /* \"#utility.yul\":6201:6294   */\n      tag_237\n        /* \"#utility.yul\":6290:6293   */\n      dup3\n        /* \"#utility.yul\":6201:6294   */\n      tag_238\n      jump\t// in\n    tag_237:\n        /* \"#utility.yul\":6319:6321   */\n      0x20\n        /* \"#utility.yul\":6314:6317   */\n      dup3\n        /* \"#utility.yul\":6310:6322   */\n      add\n        /* \"#utility.yul\":6303:6322   */\n      swap1\n      pop\n        /* \"#utility.yul\":5962:6328   */\n      swap2\n      swap1\n      pop\n      jump\t// out\n        /* \"#utility.yul\":6334:6452   */\n    tag_239:\n        /* \"#utility.yul\":6421:6445   */\n      tag_241\n        /* \"#utility.yul\":6439:6444   */\n      dup2\n        /* \"#utility.yul\":6421:6445   */\n      tag_242\n      jump\t// in\n    tag_241:\n        /* \"#utility.yul\":6416:6419   */\n      dup3\n        /* \"#utility.yul\":6409:6446   */\n      mstore\n        /* \"#utility.yul\":6334:6452   */\n      pop\n      pop\n      jump\t// out\n        /* \"#utility.yul\":6458:6680   */\n    tag_49:\n        /* \"#utility.yul\":6551:6555   */\n      0x00\n        /* \"#utility.yul\":6589:6591   */\n      0x20\n        /* \"#utility.yul\":6578:6587   */\n      dup3\n        /* \"#utility.yul\":6574:6592   */\n      add\n        /* \"#utility.yul\":6566:6592   */\n      swap1\n      pop\n        /* \"#utility.yul\":6602:6673   */\n      tag_244\n        /* \"#utility.yul\":6670:6671   */\n      0x00\n        /* \"#utility.yul\":6659:6668   */\n      dup4\n        /* \"#utility.yul\":6655:6672   */\n      add\n        /* \"#utility.yul\":6646:6652   */\n      dup5\n        /* \"#utility.yul\":6602:6673   */\n      tag_165\n      jump\t// in\n    tag_244:\n        /* \"#utility.yul\":6458:6680   */\n      swap3\n      swap2\n      pop\n      pop\n      jump\t// out\n        /* \"#utility.yul\":6686:6940   */\n    tag_44:\n        /* \"#utility.yul\":6795:6799   */\n      0x00\n        /* \"#utility.yul\":6833:6835   */\n      0x20\n        /* \"#utility.yul\":6822:6831   */\n      dup3\n        /* \"#utility.yul\":6818:6836   */\n      add\n        /* \"#utility.yul\":6810:6836   */\n      swap1\n      pop\n        /* \"#utility.yul\":6846:6933   */\n      tag_246\n        /* \"#utility.yul\":6930:6931   */\n      0x00\n        /* \"#utility.yul\":6919:6928   */\n      dup4\n        /* \"#utility.yul\":6915:6932   */\n      add\n        /* \"#utility.yul\":6906:6912   */\n      dup5\n        /* \"#utility.yul\":6846:6933   */\n      tag_161\n      jump\t// in\n    tag_246:\n        /* \"#utility.yul\":6686:6940   */\n      swap3\n      swap2\n      pop\n      pop\n      jump\t// out\n        /* \"#utility.yul\":6946:7156   */\n    tag_60:\n        /* \"#utility.yul\":7033:7037   */\n      0x00\n        /* \"#utility.yul\":7071:7073   */\n      0x20\n        /* \"#utility.yul\":7060:7069   */\n      dup3\n        /* \"#utility.yul\":7056:7074   */\n      add\n        /* \"#utility.yul\":7048:7074   */\n      swap1\n      pop\n        /* \"#utility.yul\":7084:7149   */\n      tag_248\n        /* \"#utility.yul\":7146:7147   */\n      0x00\n        /* \"#utility.yul\":7135:7144   */\n      dup4\n        /* \"#utility.yul\":7131:7148   */\n      add\n        /* \"#utility.yul\":7122:7128   */\n      dup5\n        /* \"#utility.yul\":7084:7149   */\n      tag_169\n      jump\t// in\n    tag_248:\n        /* \"#utility.yul\":6946:7156   */\n      swap3\n      swap2\n      pop\n      pop\n      jump\t// out\n        /* \"#utility.yul\":7162:7691   */\n    tag_81:\n        /* \"#utility.yul\":7356:7360   */\n      0x00\n        /* \"#utility.yul\":7394:7396   */\n      0x40\n        /* \"#utility.yul\":7383:7392   */\n      dup3\n        /* \"#utility.yul\":7379:7397   */\n      add\n        /* \"#utility.yul\":7371:7397   */\n      swap1\n      pop\n        /* \"#utility.yul\":7443:7452   */\n      dup2\n        /* \"#utility.yul\":7437:7441   */\n      dup2\n        /* \"#utility.yul\":7433:7453   */\n      sub\n        /* \"#utility.yul\":7429:7430   */\n      0x00\n        /* \"#utility.yul\":7418:7427   */\n      dup4\n        /* \"#utility.yul\":7414:7431   */\n      add\n        /* \"#utility.yul\":7407:7454   */\n      mstore\n        /* \"#utility.yul\":7471:7602   */\n      tag_250\n        /* \"#utility.yul\":7597:7601   */\n      dup2\n        /* \"#utility.yul\":7471:7602   */\n      tag_173\n      jump\t// in\n    tag_250:\n        /* \"#utility.yul\":7463:7602   */\n      swap1\n      pop\n        /* \"#utility.yul\":7612:7684   */\n      tag_251\n        /* \"#utility.yul\":7680:7682   */\n      0x20\n        /* \"#utility.yul\":7669:7678   */\n      dup4\n        /* \"#utility.yul\":7665:7683   */\n      add\n        /* \"#utility.yul\":7656:7662   */\n      dup5\n        /* \"#utility.yul\":7612:7684   */\n      tag_165\n      jump\t// in\n    tag_251:\n        /* \"#utility.yul\":7162:7691   */\n      swap3\n      swap2\n      pop\n      pop\n      jump\t// out\n        /* \"#utility.yul\":7697:8116   */\n    tag_71:\n        /* \"#utility.yul\":7863:7867   */\n      0x00\n        /* \"#utility.yul\":7901:7903   */\n      0x20\n        /* \"#utility.yul\":7890:7899   */\n      dup3\n        /* \"#utility.yul\":7886:7904   */\n      add\n        /* \"#utility.yul\":7878:7904   */\n      swap1\n      pop\n        /* \"#utility.yul\":7950:7959   */\n      dup2\n        /* \"#utility.yul\":7944:7948   */\n      dup2\n        /* \"#utility.yul\":7940:7960   */\n      sub\n        /* \"#utility.yul\":7936:7937   */\n      0x00\n        /* \"#utility.yul\":7925:7934   */\n      dup4\n        /* \"#utility.yul\":7921:7938   */\n      add\n        /* \"#utility.yul\":7914:7961   */\n      mstore\n        /* \"#utility.yul\":7978:8109   */\n      tag_253\n        /* \"#utility.yul\":8104:8108   */\n      dup2\n        /* \"#utility.yul\":7978:8109   */\n      tag_179\n      jump\t// in\n    tag_253:\n        /* \"#utility.yul\":7970:8109   */\n      swap1\n      pop\n        /* \"#utility.yul\":7697:8116   */\n      swap2\n      swap1\n      pop\n      jump\t// out\n        /* \"#utility.yul\":8122:8541   */\n    tag_91:\n        /* \"#utility.yul\":8288:8292   */\n      0x00\n        /* \"#utility.yul\":8326:8328   */\n      0x20\n        /* \"#utility.yul\":8315:8324   */\n      dup3\n        /* \"#utility.yul\":8311:8329   */\n      add\n        /* \"#utility.yul\":8303:8329   */\n      swap1\n      pop\n        /* \"#utility.yul\":8375:8384   */\n      dup2\n        /* \"#utility.yul\":8369:8373   */\n      dup2\n        /* \"#utility.yul\":8365:8385   */\n      sub\n        /* \"#utility.yul\":8361:8362   */\n      0x00\n        /* \"#utility.yul\":8350:8359   */\n      dup4\n        /* \"#utility.yul\":8346:8363   */\n      add\n        /* \"#utility.yul\":8339:8386   */\n      mstore\n        /* \"#utility.yul\":8403:8534   */\n      tag_255\n        /* \"#utility.yul\":8529:8533   */\n      dup2\n        /* \"#utility.yul\":8403:8534   */\n      tag_184\n      jump\t// in\n    tag_255:\n        /* \"#utility.yul\":8395:8534   */\n      swap1\n      pop\n        /* \"#utility.yul\":8122:8541   */\n      swap2\n      swap1\n      pop\n      jump\t// out\n        /* \"#utility.yul\":8547:8966   */\n    tag_113:\n        /* \"#utility.yul\":8713:8717   */\n      0x00\n        /* \"#utility.yul\":8751:8753   */\n      0x20\n        /* \"#utility.yul\":8740:8749   */\n      dup3\n        /* \"#utility.yul\":8736:8754   */\n      add\n        /* \"#utility.yul\":8728:8754   */\n      swap1\n      pop\n        /* \"#utility.yul\":8800:8809   */\n      dup2\n        /* \"#utility.yul\":8794:8798   */\n      dup2\n        /* \"#utility.yul\":8790:8810   */\n      sub\n        /* \"#utility.yul\":8786:8787   */\n      0x00\n        /* \"#utility.yul\":8775:8784   */\n      dup4\n        /* \"#utility.yul\":8771:8788   */\n      add\n        /* \"#utility.yul\":8764:8811   */\n      mstore\n        /* \"#utility.yul\":8828:8959   */\n      tag_257\n        /* \"#utility.yul\":8954:8958   */\n      dup2\n        /* \"#utility.yul\":8828:8959   */\n      tag_189\n      jump\t// in\n    tag_257:\n        /* \"#utility.yul\":8820:8959   */\n      swap1\n      pop\n        /* \"#utility.yul\":8547:8966   */\n      swap2\n      swap1\n      pop\n      jump\t// out\n        /* \"#utility.yul\":8972:9391   */\n    tag_85:\n        /* \"#utility.yul\":9138:9142   */\n      0x00\n        /* \"#utility.yul\":9176:9178   */\n      0x20\n        /* \"#utility.yul\":9165:9174   */\n      dup3\n        /* \"#utility.yul\":9161:9179   */\n      add\n        /* \"#utility.yul\":9153:9179   */\n      swap1\n      pop\n        /* \"#utility.yul\":9225:9234   */\n      dup2\n        /* \"#utility.yul\":9219:9223   */\n      dup2\n        /* \"#utility.yul\":9215:9235   */\n      sub\n        /* \"#utility.yul\":9211:9212   */\n      0x00\n        /* \"#utility.yul\":9200:9209   */\n      dup4\n        /* \"#utility.yul\":9196:9213   */\n      add\n        /* \"#utility.yul\":9189:9236   */\n      mstore\n        /* \"#utility.yul\":9253:9384   */\n      tag_259\n        /* \"#utility.yul\":9379:9383   */\n      dup2\n        /* \"#utility.yul\":9253:9384   */\n      tag_194\n      jump\t// in\n    tag_259:\n        /* \"#utility.yul\":9245:9384   */\n      swap1\n      pop\n        /* \"#utility.yul\":8972:9391   */\n      swap2\n      swap1\n      pop\n      jump\t// out\n        /* \"#utility.yul\":9397:9926   */\n    tag_117:\n        /* \"#utility.yul\":9591:9595   */\n      0x00\n        /* \"#utility.yul\":9629:9631   */\n      0x40\n        /* \"#utility.yul\":9618:9627   */\n      dup3\n        /* \"#utility.yul\":9614:9632   */\n      add\n        /* \"#utility.yul\":9606:9632   */\n      swap1\n      pop\n        /* \"#utility.yul\":9678:9687   */\n      dup2\n        /* \"#utility.yul\":9672:9676   */\n      dup2\n        /* \"#utility.yul\":9668:9688   */\n      sub\n        /* \"#utility.yul\":9664:9665   */\n      0x00\n        /* \"#utility.yul\":9653:9662   */\n      dup4\n        /* \"#utility.yul\":9649:9666   */\n      add\n        /* \"#utility.yul\":9642:9689   */\n      mstore\n        /* \"#utility.yul\":9706:9837   */\n      tag_261\n        /* \"#utility.yul\":9832:9836   */\n      dup2\n        /* \"#utility.yul\":9706:9837   */\n      tag_199\n      jump\t// in\n    tag_261:\n        /* \"#utility.yul\":9698:9837   */\n      swap1\n      pop\n        /* \"#utility.yul\":9847:9919   */\n      tag_262\n        /* \"#utility.yul\":9915:9917   */\n      0x20\n        /* \"#utility.yul\":9904:9913   */\n      dup4\n        /* \"#utility.yul\":9900:9918   */\n      add\n        /* \"#utility.yul\":9891:9897   */\n      dup5\n        /* \"#utility.yul\":9847:9919   */\n      tag_165\n      jump\t// in\n    tag_262:\n        /* \"#utility.yul\":9397:9926   */\n      swap3\n      swap2\n      pop\n      pop\n      jump\t// out\n        /* \"#utility.yul\":9932:10351   */\n    tag_121:\n        /* \"#utility.yul\":10098:10102   */\n      0x00\n        /* \"#utility.yul\":10136:10138   */\n      0x20\n        /* \"#utility.yul\":10125:10134   */\n      dup3\n        /* \"#utility.yul\":10121:10139   */\n      add\n        /* \"#utility.yul\":10113:10139   */\n      swap1\n      pop\n        /* \"#utility.yul\":10185:10194   */\n      dup2\n        /* \"#utility.yul\":10179:10183   */\n      dup2\n        /* \"#utility.yul\":10175:10195   */\n      sub\n        /* \"#utility.yul\":10171:10172   */\n      0x00\n        /* \"#utility.yul\":10160:10169   */\n      dup4\n        /* \"#utility.yul\":10156:10173   */\n      add\n        /* \"#utility.yul\":10149:10196   */\n      mstore\n        /* \"#utility.yul\":10213:10344   */\n      tag_264\n        /* \"#utility.yul\":10339:10343   */\n      dup2\n        /* \"#utility.yul\":10213:10344   */\n      tag_204\n      jump\t// in\n    tag_264:\n        /* \"#utility.yul\":10205:10344   */\n      swap1\n      pop\n        /* \"#utility.yul\":9932:10351   */\n      swap2\n      swap1\n      pop\n      jump\t// out\n        /* \"#utility.yul\":10357:10776   */\n    tag_127:\n        /* \"#utility.yul\":10523:10527   */\n      0x00\n        /* \"#utility.yul\":10561:10563   */\n      0x20\n        /* \"#utility.yul\":10550:10559   */\n      dup3\n        /* \"#utility.yul\":10546:10564   */\n      add\n        /* \"#utility.yul\":10538:10564   */\n      swap1\n      pop\n        /* \"#utility.yul\":10610:10619   */\n      dup2\n        /* \"#utility.yul\":10604:10608   */\n      dup2\n        /* \"#utility.yul\":10600:10620   */\n      sub\n        /* \"#utility.yul\":10596:10597   */\n      0x00\n        /* \"#utility.yul\":10585:10594   */\n      dup4\n        /* \"#utility.yul\":10581:10598   */\n      add\n        /* \"#utility.yul\":10574:10621   */\n      mstore\n        /* \"#utility.yul\":10638:10769   */\n      tag_266\n        /* \"#utility.yul\":10764:10768   */\n      dup2\n        /* \"#utility.yul\":10638:10769   */\n      tag_209\n      jump\t// in\n    tag_266:\n        /* \"#utility.yul\":10630:10769   */\n      swap1\n      pop\n        /* \"#utility.yul\":10357:10776   */\n      swap2\n      swap1\n      pop\n      jump\t// out\n        /* \"#utility.yul\":10782:11201   */\n    tag_98:\n        /* \"#utility.yul\":10948:10952   */\n      0x00\n        /* \"#utility.yul\":10986:10988   */\n      0x20\n        /* \"#utility.yul\":10975:10984   */\n      dup3\n        /* \"#utility.yul\":10971:10989   */\n      add\n        /* \"#utility.yul\":10963:10989   */\n      swap1\n      pop\n        /* \"#utility.yul\":11035:11044   */\n      dup2\n        /* \"#utility.yul\":11029:11033   */\n      dup2\n        /* \"#utility.yul\":11025:11045   */\n      sub\n        /* \"#utility.yul\":11021:11022   */\n      0x00\n        /* \"#utility.yul\":11010:11019   */\n      dup4\n        /* \"#utility.yul\":11006:11023   */\n      add\n        /* \"#utility.yul\":10999:11046   */\n      mstore\n        /* \"#utility.yul\":11063:11194   */\n      tag_268\n        /* \"#utility.yul\":11189:11193   */\n      dup2\n        /* \"#utility.yul\":11063:11194   */\n      tag_214\n      jump\t// in\n    tag_268:\n        /* \"#utility.yul\":11055:11194   */\n      swap1\n      pop\n        /* \"#utility.yul\":10782:11201   */\n      swap2\n      swap1\n      pop\n      jump\t// out\n        /* \"#utility.yul\":11207:11626   */\n    tag_131:\n        /* \"#utility.yul\":11373:11377   */\n      0x00\n        /* \"#utility.yul\":11411:11413   */\n      0x20\n        /* \"#utility.yul\":11400:11409   */\n      dup3\n        /* \"#utility.yul\":11396:11414   */\n      add\n        /* \"#utility.yul\":11388:11414   */\n      swap1\n      pop\n        /* \"#utility.yul\":11460:11469   */\n      dup2\n        /* \"#utility.yul\":11454:11458   */\n      dup2\n        /* \"#utility.yul\":11450:11470   */\n      sub\n        /* \"#utility.yul\":11446:11447   */\n      0x00\n        /* \"#utility.yul\":11435:11444   */\n      dup4\n        /* \"#utility.yul\":11431:11448   */\n      add\n        /* \"#utility.yul\":11424:11471   */\n      mstore\n        /* \"#utility.yul\":11488:11619   */\n      tag_270\n        /* \"#utility.yul\":11614:11618   */\n      dup2\n        /* \"#utility.yul\":11488:11619   */\n      tag_219\n      jump\t// in\n    tag_270:\n        /* \"#utility.yul\":11480:11619   */\n      swap1\n      pop\n        /* \"#utility.yul\":11207:11626   */\n      swap2\n      swap1\n      pop\n      jump\t// out\n        /* \"#utility.yul\":11632:12051   */\n    tag_75:\n        /* \"#utility.yul\":11798:11802   */\n      0x00\n        /* \"#utility.yul\":11836:11838   */\n      0x20\n        /* \"#utility.yul\":11825:11834   */\n      dup3\n        /* \"#utility.yul\":11821:11839   */\n      add\n        /* \"#utility.yul\":11813:11839   */\n      swap1\n      pop\n        /* \"#utility.yul\":11885:11894   */\n      dup2\n        /* \"#utility.yul\":11879:11883   */\n      dup2\n        /* \"#utility.yul\":11875:11895   */\n      sub\n        /* \"#utility.yul\":11871:11872   */\n      0x00\n        /* \"#utility.yul\":11860:11869   */\n      dup4\n        /* \"#utility.yul\":11856:11873   */\n      add\n        /* \"#utility.yul\":11849:11896   */\n      mstore\n        /* \"#utility.yul\":11913:12044   */\n      tag_272\n        /* \"#utility.yul\":12039:12043   */\n      dup2\n        /* \"#utility.yul\":11913:12044   */\n      tag_224\n      jump\t// in\n    tag_272:\n        /* \"#utility.yul\":11905:12044   */\n      swap1\n      pop\n        /* \"#utility.yul\":11632:12051   */\n      swap2\n      swap1\n      pop\n      jump\t// out\n        /* \"#utility.yul\":12057:12476   */\n    tag_107:\n        /* \"#utility.yul\":12223:12227   */\n      0x00\n        /* \"#utility.yul\":12261:12263   */\n      0x20\n        /* \"#utility.yul\":12250:12259   */\n      dup3\n        /* \"#utility.yul\":12246:12264   */\n      add\n        /* \"#utility.yul\":12238:12264   */\n      swap1\n      pop\n        /* \"#utility.yul\":12310:12319   */\n      dup2\n        /* \"#utility.yul\":12304:12308   */\n      dup2\n        /* \"#utility.yul\":12300:12320   */\n      sub\n        /* \"#utility.yul\":12296:12297   */\n      0x00\n        /* \"#utility.yul\":12285:12294   */\n      dup4\n        /* \"#utility.yul\":12281:12298   */\n      add\n        /* \"#utility.yul\":12274:12321   */\n      mstore\n        /* \"#utility.yul\":12338:12469   */\n      tag_274\n        /* \"#utility.yul\":12464:12468   */\n      dup2\n        /* \"#utility.yul\":12338:12469   */\n      tag_229\n      jump\t// in\n    tag_274:\n        /* \"#utility.yul\":12330:12469   */\n      swap1\n      pop\n        /* \"#utility.yul\":12057:12476   */\n      swap2\n      swap1\n      pop\n      jump\t// out\n        /* \"#utility.yul\":12482:12901   */\n    tag_141:\n        /* \"#utility.yul\":12648:12652   */\n      0x00\n        /* \"#utility.yul\":12686:12688   */\n      0x20\n        /* \"#utility.yul\":12675:12684   */\n      dup3\n        /* \"#utility.yul\":12671:12689   */\n      add\n        /* \"#utility.yul\":12663:12689   */\n      swap1\n      pop\n        /* \"#utility.yul\":12735:12744   */\n      dup2\n        /* \"#utility.yul\":12729:12733   */\n      dup2\n        /* \"#utility.yul\":12725:12745   */\n      sub\n        /* \"#utility.yul\":12721:12722   */\n      0x00\n        /* \"#utility.yul\":12710:12719   */\n      dup4\n        /* \"#utility.yul\":12706:12723   */\n      add\n        /* \"#utility.yul\":12699:12746   */\n      mstore\n        /* \"#utility.yul\":12763:12894   */\n      tag_276\n        /* \"#utility.yul\":12889:12893   */\n      dup2\n        /* \"#utility.yul\":12763:12894   */\n      tag_234\n      jump\t// in\n    tag_276:\n        /* \"#utility.yul\":12755:12894   */\n      swap1\n      pop\n        /* \"#utility.yul\":12482:12901   */\n      swap2\n      swap1\n      pop\n      jump\t// out\n        /* \"#utility.yul\":12907:13129   */\n    tag_30:\n        /* \"#utility.yul\":13000:13004   */\n      0x00\n        /* \"#utility.yul\":13038:13040   */\n      0x20\n        /* \"#utility.yul\":13027:13036   */\n      dup3\n        /* \"#utility.yul\":13023:13041   */\n      add\n        /* \"#utility.yul\":13015:13041   */\n      swap1\n      pop\n        /* \"#utility.yul\":13051:13122   */\n      tag_278\n        /* \"#utility.yul\":13119:13120   */\n      0x00\n        /* \"#utility.yul\":13108:13117   */\n      dup4\n        /* \"#utility.yul\":13104:13121   */\n      add\n        /* \"#utility.yul\":13095:13101   */\n      dup5\n        /* \"#utility.yul\":13051:13122   */\n      tag_239\n      jump\t// in\n    tag_278:\n        /* \"#utility.yul\":12907:13129   */\n      swap3\n      swap2\n      pop\n      pop\n      jump\t// out\n        /* \"#utility.yul\":13216:13385   */\n    tag_176:\n        /* \"#utility.yul\":13300:13311   */\n      0x00\n        /* \"#utility.yul\":13334:13340   */\n      dup3\n        /* \"#utility.yul\":13329:13332   */\n      dup3\n        /* \"#utility.yul\":13322:13341   */\n      mstore\n        /* \"#utility.yul\":13374:13378   */\n      0x20\n        /* \"#utility.yul\":13369:13372   */\n      dup3\n        /* \"#utility.yul\":13365:13379   */\n      add\n        /* \"#utility.yul\":13350:13379   */\n      swap1\n      pop\n        /* \"#utility.yul\":13216:13385   */\n      swap3\n      swap2\n      pop\n      pop\n      jump\t// out\n        /* \"#utility.yul\":13391:13696   */\n    tag_104:\n        /* \"#utility.yul\":13431:13434   */\n      0x00\n        /* \"#utility.yul\":13450:13470   */\n      tag_283\n        /* \"#utility.yul\":13468:13469   */\n      dup3\n        /* \"#utility.yul\":13450:13470   */\n      tag_242\n      jump\t// in\n    tag_283:\n        /* \"#utility.yul\":13445:13470   */\n      swap2\n      pop\n        /* \"#utility.yul\":13484:13504   */\n      tag_284\n        /* \"#utility.yul\":13502:13503   */\n      dup4\n        /* \"#utility.yul\":13484:13504   */\n      tag_242\n      jump\t// in\n    tag_284:\n        /* \"#utility.yul\":13479:13504   */\n      swap3\n      pop\n        /* \"#utility.yul\":13638:13639   */\n      dup3\n        /* \"#utility.yul\":13570:13636   */\n      0xffffffffffffffffffffffffffffffffffffffffffffffffffffffffffffffff\n        /* \"#utility.yul\":13566:13640   */\n      sub\n        /* \"#utility.yul\":13563:13564   */\n      dup3\n        /* \"#utility.yul\":13560:13641   */\n      gt\n        /* \"#utility.yul\":13557:13664   */\n      iszero\n      tag_285\n      jumpi\n        /* \"#utility.yul\":13644:13662   */\n      tag_286\n      tag_287\n      jump\t// in\n    tag_286:\n        /* \"#utility.yul\":13557:13664   */\n    tag_285:\n        /* \"#utility.yul\":13688:13689   */\n      dup3\n        /* \"#utility.yul\":13685:13686   */\n      dup3\n        /* \"#utility.yul\":13681:13690   */\n      add\n        /* \"#utility.yul\":13674:13690   */\n      swap1\n      pop\n        /* \"#utility.yul\":13391:13696   */\n      swap3\n      swap2\n      pop\n      pop\n      jump\t// out\n        /* \"#utility.yul\":13702:13887   */\n    tag_133:\n        /* \"#utility.yul\":13742:13743   */\n      0x00\n        /* \"#utility.yul\":13759:13779   */\n      tag_289\n        /* \"#utility.yul\":13777:13778   */\n      dup3\n        /* \"#utility.yul\":13759:13779   */\n      tag_242\n      jump\t// in\n    tag_289:\n        /* \"#utility.yul\":13754:13779   */\n      swap2\n      pop\n        /* \"#utility.yul\":13793:13813   */\n      tag_290\n        /* \"#utility.yul\":13811:13812   */\n      dup4\n        /* \"#utility.yul\":13793:13813   */\n      tag_242\n      jump\t// in\n    tag_290:\n        /* \"#utility.yul\":13788:13813   */\n      swap3\n      pop\n        /* \"#utility.yul\":13832:13833   */\n      dup3\n        /* \"#utility.yul\":13822:13857   */\n      tag_291\n      jumpi\n        /* \"#utility.yul\":13837:13855   */\n      tag_292\n      tag_293\n      jump\t// in\n    tag_292:\n        /* \"#utility.yul\":13822:13857   */\n    tag_291:\n        /* \"#utility.yul\":13879:13880   */\n      dup3\n        /* \"#utility.yul\":13876:13877   */\n      dup3\n        /* \"#utility.yul\":13872:13881   */\n      div\n        /* \"#utility.yul\":13867:13881   */\n      swap1\n      pop\n        /* \"#utility.yul\":13702:13887   */\n      swap3\n      swap2\n      pop\n      pop\n      jump\t// out\n        /* \"#utility.yul\":13893:14241   */\n    tag_136:\n        /* \"#utility.yul\":13933:13940   */\n      0x00\n        /* \"#utility.yul\":13956:13976   */\n      tag_295\n        /* \"#utility.yul\":13974:13975   */\n      dup3\n        /* \"#utility.yul\":13956:13976   */\n      tag_242\n      jump\t// in\n    tag_295:\n        /* \"#utility.yul\":13951:13976   */\n      swap2\n      pop\n        /* \"#utility.yul\":13990:14010   */\n      tag_296\n        /* \"#utility.yul\":14008:14009   */\n      dup4\n        /* \"#utility.yul\":13990:14010   */\n      tag_242\n      jump\t// in\n    tag_296:\n        /* \"#utility.yul\":13985:14010   */\n      swap3\n      pop\n        /* \"#utility.yul\":14178:14179   */\n      dup2\n        /* \"#utility.yul\":14110:14176   */\n      0xffffffffffffffffffffffffffffffffffffffffffffffffffffffffffffffff\n        /* \"#utility.yul\":14106:14180   */\n      div\n        /* \"#utility.yul\":14103:14104   */\n      dup4\n        /* \"#utility.yul\":14100:14181   */\n      gt\n        /* \"#utility.yul\":14095:14096   */\n      dup3\n        /* \"#utility.yul\":14088:14097   */\n      iszero\n        /* \"#utility.yul\":14081:14098   */\n      iszero\n        /* \"#utility.yul\":14077:14182   */\n      and\n        /* \"#utility.yul\":14074:14205   */\n      iszero\n      tag_297\n      jumpi\n        /* \"#utility.yul\":14185:14203   */\n      tag_298\n      tag_287\n      jump\t// in\n    tag_298:\n        /* \"#utility.yul\":14074:14205   */\n    tag_297:\n        /* \"#utility.yul\":14233:14234   */\n      dup3\n        /* \"#utility.yul\":14230:14231   */\n      dup3\n        /* \"#utility.yul\":14226:14235   */\n      mul\n        /* \"#utility.yul\":14215:14235   */\n      swap1\n      pop\n        /* \"#utility.yul\":13893:14241   */\n      swap3\n      swap2\n      pop\n      pop\n      jump\t// out\n        /* \"#utility.yul\":14247:14438   */\n    tag_94:\n        /* \"#utility.yul\":14287:14291   */\n      0x00\n        /* \"#utility.yul\":14307:14327   */\n      tag_300\n        /* \"#utility.yul\":14325:14326   */\n      dup3\n        /* \"#utility.yul\":14307:14327   */\n      tag_242\n      jump\t// in\n    tag_300:\n        /* \"#utility.yul\":14302:14327   */\n      swap2\n      pop\n        /* \"#utility.yul\":14341:14361   */\n      tag_301\n        /* \"#utility.yul\":14359:14360   */\n      dup4\n        /* \"#utility.yul\":14341:14361   */\n      tag_242\n      jump\t// in\n    tag_301:\n        /* \"#utility.yul\":14336:14361   */\n      swap3\n      pop\n        /* \"#utility.yul\":14380:14381   */\n      dup3\n        /* \"#utility.yul\":14377:14378   */\n      dup3\n        /* \"#utility.yul\":14374:14382   */\n      lt\n        /* \"#utility.yul\":14371:14405   */\n      iszero\n      tag_302\n      jumpi\n        /* \"#utility.yul\":14385:14403   */\n      tag_303\n      tag_287\n      jump\t// in\n    tag_303:\n        /* \"#utility.yul\":14371:14405   */\n    tag_302:\n        /* \"#utility.yul\":14430:14431   */\n      dup3\n        /* \"#utility.yul\":14427:14428   */\n      dup3\n        /* \"#utility.yul\":14423:14432   */\n      sub\n        /* \"#utility.yul\":14415:14432   */\n      swap1\n      pop\n        /* \"#utility.yul\":14247:14438   */\n      swap3\n      swap2\n      pop\n      pop\n      jump\t// out\n        /* \"#utility.yul\":14444:14540   */\n    tag_168:\n        /* \"#utility.yul\":14481:14488   */\n      0x00\n        /* \"#utility.yul\":14510:14534   */\n      tag_305\n        /* \"#utility.yul\":14528:14533   */\n      dup3\n        /* \"#utility.yul\":14510:14534   */\n      tag_306\n      jump\t// in\n    tag_305:\n        /* \"#utility.yul\":14499:14534   */\n      swap1\n      pop\n        /* \"#utility.yul\":14444:14540   */\n      swap2\n      swap1\n      pop\n      jump\t// out\n        /* \"#utility.yul\":14546:14650   */\n    tag_164:\n        /* \"#utility.yul\":14591:14598   */\n      0x00\n        /* \"#utility.yul\":14620:14644   */\n      tag_308\n        /* \"#utility.yul\":14638:14643   */\n      dup3\n        /* \"#utility.yul\":14620:14644   */\n      tag_306\n      jump\t// in\n    tag_308:\n        /* \"#utility.yul\":14609:14644   */\n      swap1\n      pop\n        /* \"#utility.yul\":14546:14650   */\n      swap2\n      swap1\n      pop\n      jump\t// out\n        /* \"#utility.yul\":14656:14746   */\n    tag_172:\n        /* \"#utility.yul\":14690:14697   */\n      0x00\n        /* \"#utility.yul\":14733:14738   */\n      dup2\n        /* \"#utility.yul\":14726:14739   */\n      iszero\n        /* \"#utility.yul\":14719:14740   */\n      iszero\n        /* \"#utility.yul\":14708:14740   */\n      swap1\n      pop\n        /* \"#utility.yul\":14656:14746   */\n      swap2\n      swap1\n      pop\n      jump\t// out\n        /* \"#utility.yul\":14752:14878   */\n    tag_306:\n        /* \"#utility.yul\":14789:14796   */\n      0x00\n        /* \"#utility.yul\":14829:14871   */\n      0xffffffffffffffffffffffffffffffffffffffff\n        /* \"#utility.yul\":14822:14827   */\n      dup3\n        /* \"#utility.yul\":14818:14872   */\n      and\n        /* \"#utility.yul\":14807:14872   */\n      swap1\n      pop\n        /* \"#utility.yul\":14752:14878   */\n      swap2\n      swap1\n      pop\n      jump\t// out\n        /* \"#utility.yul\":14884:14961   */\n    tag_242:\n        /* \"#utility.yul\":14921:14928   */\n      0x00\n        /* \"#utility.yul\":14950:14955   */\n      dup2\n        /* \"#utility.yul\":14939:14955   */\n      swap1\n      pop\n        /* \"#utility.yul\":14884:14961   */\n      swap2\n      swap1\n      pop\n      jump\t// out\n        /* \"#utility.yul\":14967:15147   */\n    tag_287:\n        /* \"#utility.yul\":15015:15092   */\n      0x4e487b7100000000000000000000000000000000000000000000000000000000\n        /* \"#utility.yul\":15012:15013   */\n      0x00\n        /* \"#utility.yul\":15005:15093   */\n      mstore\n        /* \"#utility.yul\":15112:15116   */\n      0x11\n        /* \"#utility.yul\":15109:15110   */\n      0x04\n        /* \"#utility.yul\":15102:15117   */\n      mstore\n        /* \"#utility.yul\":15136:15140   */\n      0x24\n        /* \"#utility.yul\":15133:15134   */\n      0x00\n        /* \"#utility.yul\":15126:15141   */\n      revert\n        /* \"#utility.yul\":15153:15333   */\n    tag_293:\n        /* \"#utility.yul\":15201:15278   */\n      0x4e487b7100000000000000000000000000000000000000000000000000000000\n        /* \"#utility.yul\":15198:15199   */\n      0x00\n        /* \"#utility.yul\":15191:15279   */\n      mstore\n        /* \"#utility.yul\":15298:15302   */\n      0x12\n        /* \"#utility.yul\":15295:15296   */\n      0x04\n        /* \"#utility.yul\":15288:15303   */\n      mstore\n        /* \"#utility.yul\":15322:15326   */\n      0x24\n        /* \"#utility.yul\":15319:15320   */\n      0x00\n        /* \"#utility.yul\":15312:15327   */\n      revert\n        /* \"#utility.yul\":15462:15579   */\n    tag_154:\n        /* \"#utility.yul\":15571:15572   */\n      0x00\n        /* \"#utility.yul\":15568:15569   */\n      dup1\n        /* \"#utility.yul\":15561:15573   */\n      revert\n        /* \"#utility.yul\":15585:15754   */\n    tag_178:\n        /* \"#utility.yul\":15725:15746   */\n      0x4d6f6e6579207769746864726177656e20746f00000000000000000000000000\n        /* \"#utility.yul\":15721:15722   */\n      0x00\n        /* \"#utility.yul\":15713:15719   */\n      dup3\n        /* \"#utility.yul\":15709:15723   */\n      add\n        /* \"#utility.yul\":15702:15747   */\n      mstore\n        /* \"#utility.yul\":15585:15754   */\n      pop\n      jump\t// out\n        /* \"#utility.yul\":15760:15988   */\n    tag_183:\n        /* \"#utility.yul\":15900:15934   */\n      0x4f6e6c7920616c6c6f7765642067617465732063616e20616363657373207468\n        /* \"#utility.yul\":15896:15897   */\n      0x00\n        /* \"#utility.yul\":15888:15894   */\n      dup3\n        /* \"#utility.yul\":15884:15898   */\n      add\n        /* \"#utility.yul\":15877:15935   */\n      mstore\n        /* \"#utility.yul\":15969:15980   */\n      0x6973206d6574686f640000000000000000000000000000000000000000000000\n        /* \"#utility.yul\":15964:15966   */\n      0x20\n        /* \"#utility.yul\":15956:15962   */\n      dup3\n        /* \"#utility.yul\":15952:15967   */\n      add\n        /* \"#utility.yul\":15945:15981   */\n      mstore\n        /* \"#utility.yul\":15760:15988   */\n      pop\n      jump\t// out\n        /* \"#utility.yul\":15994:16176   */\n    tag_188:\n        /* \"#utility.yul\":16134:16168   */\n      0x596f7520646f6e2774206861766520616e79206d6f6e657920696e2068657265\n        /* \"#utility.yul\":16130:16131   */\n      0x00\n        /* \"#utility.yul\":16122:16128   */\n      dup3\n        /* \"#utility.yul\":16118:16132   */\n      add\n        /* \"#utility.yul\":16111:16169   */\n      mstore\n        /* \"#utility.yul\":15994:16176   */\n      pop\n      jump\t// out\n        /* \"#utility.yul\":16182:16356   */\n    tag_193:\n        /* \"#utility.yul\":16322:16348   */\n      0x4d696e696d756d20312045746865722052657175697265640000000000000000\n        /* \"#utility.yul\":16318:16319   */\n      0x00\n        /* \"#utility.yul\":16310:16316   */\n      dup3\n        /* \"#utility.yul\":16306:16320   */\n      add\n        /* \"#utility.yul\":16299:16349   */\n      mstore\n        /* \"#utility.yul\":16182:16356   */\n      pop\n      jump\t// out\n        /* \"#utility.yul\":16362:16585   */\n    tag_198:\n        /* \"#utility.yul\":16502:16536   */\n      0x596f7520646f6e27742068617665206e6f2070656e64696e6720776974686472\n        /* \"#utility.yul\":16498:16499   */\n      0x00\n        /* \"#utility.yul\":16490:16496   */\n      dup3\n        /* \"#utility.yul\":16486:16500   */\n      add\n        /* \"#utility.yul\":16479:16537   */\n      mstore\n        /* \"#utility.yul\":16571:16577   */\n      0x61776c7300000000000000000000000000000000000000000000000000000000\n        /* \"#utility.yul\":16566:16568   */\n      0x20\n        /* \"#utility.yul\":16558:16564   */\n      dup3\n        /* \"#utility.yul\":16554:16569   */\n      add\n        /* \"#utility.yul\":16547:16578   */\n      mstore\n        /* \"#utility.yul\":16362:16585   */\n      pop\n      jump\t// out\n        /* \"#utility.yul\":16591:16747   */\n    tag_203:\n        /* \"#utility.yul\":16731:16739   */\n      0x7374616b65640000000000000000000000000000000000000000000000000000\n        /* \"#utility.yul\":16727:16728   */\n      0x00\n        /* \"#utility.yul\":16719:16725   */\n      dup3\n        /* \"#utility.yul\":16715:16729   */\n      add\n        /* \"#utility.yul\":16708:16740   */\n      mstore\n        /* \"#utility.yul\":16591:16747   */\n      pop\n      jump\t// out\n        /* \"#utility.yul\":16753:16921   */\n    tag_208:\n        /* \"#utility.yul\":16893:16913   */\n      0x537562737472616374696f6e206661696c640000000000000000000000000000\n        /* \"#utility.yul\":16889:16890   */\n      0x00\n        /* \"#utility.yul\":16881:16887   */\n      dup3\n        /* \"#utility.yul\":16877:16891   */\n      add\n        /* \"#utility.yul\":16870:16914   */\n      mstore\n        /* \"#utility.yul\":16753:16921   */\n      pop\n      jump\t// out\n        /* \"#utility.yul\":16927:17092   */\n    tag_213:\n        /* \"#utility.yul\":17067:17084   */\n      0x4164646974696f6e206661696c65640000000000000000000000000000000000\n        /* \"#utility.yul\":17063:17064   */\n      0x00\n        /* \"#utility.yul\":17055:17061   */\n      dup3\n        /* \"#utility.yul\":17051:17065   */\n      add\n        /* \"#utility.yul\":17044:17085   */\n      mstore\n        /* \"#utility.yul\":16927:17092   */\n      pop\n      jump\t// out\n        /* \"#utility.yul\":17098:17321   */\n    tag_218:\n        /* \"#utility.yul\":17238:17272   */\n      0x596f752073686f756c642061746c65617374207374616b6520666f722061206d\n        /* \"#utility.yul\":17234:17235   */\n      0x00\n        /* \"#utility.yul\":17226:17232   */\n      dup3\n        /* \"#utility.yul\":17222:17236   */\n      add\n        /* \"#utility.yul\":17215:17273   */\n      mstore\n        /* \"#utility.yul\":17307:17313   */\n      0x6f6e747900000000000000000000000000000000000000000000000000000000\n        /* \"#utility.yul\":17302:17304   */\n      0x20\n        /* \"#utility.yul\":17294:17300   */\n      dup3\n        /* \"#utility.yul\":17290:17305   */\n      add\n        /* \"#utility.yul\":17283:17314   */\n      mstore\n        /* \"#utility.yul\":17098:17321   */\n      pop\n      jump\t// out\n        /* \"#utility.yul\":17327:17491   */\n    tag_223:\n        /* \"#utility.yul\":17467:17483   */\n      0x4469766973696f6e206661696c64000000000000000000000000000000000000\n        /* \"#utility.yul\":17463:17464   */\n      0x00\n        /* \"#utility.yul\":17455:17461   */\n      dup3\n        /* \"#utility.yul\":17451:17465   */\n      add\n        /* \"#utility.yul\":17444:17484   */\n      mstore\n        /* \"#utility.yul\":17327:17491   */\n      pop\n      jump\t// out\n        /* \"#utility.yul\":17497:17723   */\n    tag_228:\n        /* \"#utility.yul\":17637:17671   */\n      0x446f65736e2774206861766520656e6f7567682062616c616e636520696e2074\n        /* \"#utility.yul\":17633:17634   */\n      0x00\n        /* \"#utility.yul\":17625:17631   */\n      dup3\n        /* \"#utility.yul\":17621:17635   */\n      add\n        /* \"#utility.yul\":17614:17672   */\n      mstore\n        /* \"#utility.yul\":17706:17715   */\n      0x68652062616e6b00000000000000000000000000000000000000000000000000\n        /* \"#utility.yul\":17701:17703   */\n      0x20\n        /* \"#utility.yul\":17693:17699   */\n      dup3\n        /* \"#utility.yul\":17689:17704   */\n      add\n        /* \"#utility.yul\":17682:17716   */\n      mstore\n        /* \"#utility.yul\":17497:17723   */\n      pop\n      jump\t// out\n        /* \"#utility.yul\":17729:17966   */\n    tag_233:\n        /* \"#utility.yul\":17869:17903   */\n      0x536f72727920776520646f6e2774206861766520656e6f756768206d6f6e6579\n        /* \"#utility.yul\":17865:17866   */\n      0x00\n        /* \"#utility.yul\":17857:17863   */\n      dup3\n        /* \"#utility.yul\":17853:17867   */\n      add\n        /* \"#utility.yul\":17846:17904   */\n      mstore\n        /* \"#utility.yul\":17938:17958   */\n      0x20736f20636f6d656261636b206c617465720000000000000000000000000000\n        /* \"#utility.yul\":17933:17935   */\n      0x20\n        /* \"#utility.yul\":17925:17931   */\n      dup3\n        /* \"#utility.yul\":17921:17936   */\n      add\n        /* \"#utility.yul\":17914:17959   */\n      mstore\n        /* \"#utility.yul\":17729:17966   */\n      pop\n      jump\t// out\n        /* \"#utility.yul\":17972:18142   */\n    tag_238:\n        /* \"#utility.yul\":18112:18134   */\n      0x4d756c7469706c69636174696f6e206661696c64000000000000000000000000\n        /* \"#utility.yul\":18108:18109   */\n      0x00\n        /* \"#utility.yul\":18100:18106   */\n      dup3\n        /* \"#utility.yul\":18096:18110   */\n      add\n        /* \"#utility.yul\":18089:18135   */\n      mstore\n        /* \"#utility.yul\":17972:18142   */\n      pop\n      jump\t// out\n        /* \"#utility.yul\":18148:18270   */\n    tag_146:\n        /* \"#utility.yul\":18221:18245   */\n      tag_331\n        /* \"#utility.yul\":18239:18244   */\n      dup2\n        /* \"#utility.yul\":18221:18245   */\n      tag_168\n      jump\t// in\n    tag_331:\n        /* \"#utility.yul\":18214:18219   */\n      dup2\n        /* \"#utility.yul\":18211:18246   */\n      eq\n        /* \"#utility.yul\":18201:18264   */\n      tag_332\n      jumpi\n        /* \"#utility.yul\":18260:18261   */\n      0x00\n        /* \"#utility.yul\":18257:18258   */\n      dup1\n        /* \"#utility.yul\":18250:18262   */\n      revert\n        /* \"#utility.yul\":18201:18264   */\n    tag_332:\n        /* \"#utility.yul\":18148:18270   */\n      pop\n      jump\t// out\n        /* \"#utility.yul\":18276:18398   */\n    tag_150:\n        /* \"#utility.yul\":18349:18373   */\n      tag_334\n        /* \"#utility.yul\":18367:18372   */\n      dup2\n        /* \"#utility.yul\":18349:18373   */\n      tag_242\n      jump\t// in\n    tag_334:\n        /* \"#utility.yul\":18342:18347   */\n      dup2\n        /* \"#utility.yul\":18339:18374   */\n      eq\n        /* \"#utility.yul\":18329:18392   */\n      tag_335\n      jumpi\n        /* \"#utility.yul\":18388:18389   */\n      0x00\n        /* \"#utility.yul\":18385:18386   */\n      dup1\n        /* \"#utility.yul\":18378:18390   */\n      revert\n        /* \"#utility.yul\":18329:18392   */\n    tag_335:\n        /* \"#utility.yul\":18276:18398   */\n      pop\n      jump\t// out\n\n    auxdata: 0xa26469706673582212209967e24e149f062e98b6da30aa30f0bbb30cecef6fc3727bb76d55e4619c788d64736f6c63430008070033\n}\n",
				"bytecode": {
					"linkReferences": {},
					"object": "6080604052670de0b6b3a76400006000553480156200001d57600080fd5b5033600160006101000a81548173ffffffffffffffffffffffffffffffffffffffff021916908373ffffffffffffffffffffffffffffffffffffffff1602179055507ff67e7992d539193fc243c42fe89f8fab49013e8e4fb18cfa891dc51adcaccc8033604051620000909190620000d6565b60405180910390a162000176565b620000a98162000119565b82525050565b6000620000be60148362000108565b9150620000cb826200014d565b602082019050919050565b60006040820190508181036000830152620000f181620000af565b90506200010260208301846200009e565b92915050565b600082825260208201905092915050565b600062000126826200012d565b9050919050565b600073ffffffffffffffffffffffffffffffffffffffff82169050919050565b7f4c656e64696e6720706f6f6c2063726561746564000000000000000000000000600082015250565b6115ec80620001866000396000f3fe6080604052600436106100a05760003560e01c80638da5cb5b116100645780638da5cb5b1461015b578063a464d26514610186578063aeae177c146101b1578063c02b2092146101ee578063d0e30db01461022b578063f993185514610235576100a7565b80633607999b146100a957806356852391146100c5578063650fad76146100dc5780636e0e0da2146101075780636e1dc66e1461011e576100a7565b366100a757005b005b6100c360048036038101906100be9190610c67565b610272565b005b3480156100d157600080fd5b506100da61042e565b005b3480156100e857600080fd5b506100f1610583565b6040516100fe91906110b7565b60405180910390f35b34801561011357600080fd5b5061011c610589565b005b34801561012a57600080fd5b5061014560048036038101906101409190610c3a565b610872565b60405161015291906110b7565b60405180910390f35b34801561016757600080fd5b5061017061088a565b60405161017d9190610ec5565b60405180910390f35b34801561019257600080fd5b5061019b6108b0565b6040516101a89190610eaa565b60405180910390f35b3480156101bd57600080fd5b506101d860048036038101906101d39190610c3a565b6108d6565b6040516101e591906110b7565b60405180910390f35b3480156101fa57600080fd5b5061021560048036038101906102109190610c3a565b6108ee565b6040516102229190610ee0565b60405180910390f35b61023361090e565b005b34801561024157600080fd5b5061025c60048036038101906102579190610c3a565b610a80565b60405161026991906110b7565b60405180910390f35b600860003373ffffffffffffffffffffffffffffffffffffffff1673ffffffffffffffffffffffffffffffffffffffff16815260200190815260200160002060009054906101000a900460ff166102fe576040517f08c379a00000000000000000000000000000000000000000000000000000000081526004016102f590610f29565b60405180910390fd5b600254821115610343576040517f08c379a000000000000000000000000000000000000000000000000000000000815260040161033a90611057565b60405180910390fd5b61035882600254610a9890919063ffffffff16565b6002819055506103b082600760008473ffffffffffffffffffffffffffffffffffffffff1673ffffffffffffffffffffffffffffffffffffffff16815260200190815260200160002054610af190919063ffffffff16565b600760008373ffffffffffffffffffffffffffffffffffffffff1673ffffffffffffffffffffffffffffffffffffffff168152602001908152602001600020819055507ff67e7992d539193fc243c42fe89f8fab49013e8e4fb18cfa891dc51adcaccc80816040516104229190610efb565b60405180910390a15050565b6000600760003373ffffffffffffffffffffffffffffffffffffffff1673ffffffffffffffffffffffffffffffffffffffff16815260200190815260200160002054116104b0576040517f08c379a00000000000000000000000000000000000000000000000000000000081526004016104a790610f89565b60405180910390fd5b6000600760003373ffffffffffffffffffffffffffffffffffffffff1673ffffffffffffffffffffffffffffffffffffffff1681526020019081526020016000205490506000600760003373ffffffffffffffffffffffffffffffffffffffff1673ffffffffffffffffffffffffffffffffffffffff168152602001908152602001600020819055503373ffffffffffffffffffffffffffffffffffffffff166108fc829081150290604051600060405180830381858888f1935050505015801561057f573d6000803e3d6000fd5b5050565b60005481565b6000600660003373ffffffffffffffffffffffffffffffffffffffff1673ffffffffffffffffffffffffffffffffffffffff168152602001908152602001600020541161060b576040517f08c379a000000000000000000000000000000000000000000000000000000000815260040161060290610f49565b60405180910390fd5b600061066d6201518042600560003373ffffffffffffffffffffffffffffffffffffffff1673ffffffffffffffffffffffffffffffffffffffff1681526020019081526020016000205461065f91906111c4565b610b4a90919063ffffffff16565b905062278d0081116106b4576040517f08c379a00000000000000000000000000000000000000000000000000000000081526004016106ab90611017565b60405180910390fd5b600061072e6064610720600660003373ffffffffffffffffffffffffffffffffffffffff1673ffffffffffffffffffffffffffffffffffffffff16815260200190815260200160002054610712600587610ba290919063ffffffff16565b610ba290919063ffffffff16565b610b4a90919063ffffffff16565b600660003373ffffffffffffffffffffffffffffffffffffffff1673ffffffffffffffffffffffffffffffffffffffff1681526020019081526020016000205461077891906110e3565b905060025481106107be576040517f08c379a00000000000000000000000000000000000000000000000000000000081526004016107b590611077565b60405180910390fd5b6107d381600254610a9890919063ffffffff16565b60028190555061082b81600760003373ffffffffffffffffffffffffffffffffffffffff1673ffffffffffffffffffffffffffffffffffffffff16815260200190815260200160002054610af190919063ffffffff16565b600760003373ffffffffffffffffffffffffffffffffffffffff1673ffffffffffffffffffffffffffffffffffffffff168152602001908152602001600020819055505050565b60056020528060005260406000206000915090505481565b600160009054906101000a900473ffffffffffffffffffffffffffffffffffffffff1681565b600360009054906101000a900473ffffffffffffffffffffffffffffffffffffffff1681565b60076020528060005260406000206000915090505481565b60086020528060005260406000206000915054906101000a900460ff1681565b600054341015610953576040517f08c379a000000000000000000000000000000000000000000000000000000000815260040161094a90610f69565b60405180910390fd5b42600560003373ffffffffffffffffffffffffffffffffffffffff1673ffffffffffffffffffffffffffffffffffffffff168152602001908152602001600020819055506109e934600660003373ffffffffffffffffffffffffffffffffffffffff1673ffffffffffffffffffffffffffffffffffffffff16815260200190815260200160002054610af190919063ffffffff16565b600660003373ffffffffffffffffffffffffffffffffffffffff1673ffffffffffffffffffffffffffffffffffffffff16815260200190815260200160002081905550610a4134600254610af190919063ffffffff16565b6002819055507ff67e7992d539193fc243c42fe89f8fab49013e8e4fb18cfa891dc51adcaccc8033604051610a769190610fa9565b60405180910390a1565b60066020528060005260406000206000915090505481565b600082821115610add576040517f08c379a0000000000000000000000000000000000000000000000000000000008152600401610ad490610fd7565b60405180910390fd5b8183610ae991906111c4565b905092915050565b60008183610aff91906110e3565b905082811015610b44576040517f08c379a0000000000000000000000000000000000000000000000000000000008152600401610b3b90610ff7565b60405180910390fd5b92915050565b6000808211610b8e576040517f08c379a0000000000000000000000000000000000000000000000000000000008152600401610b8590611037565b60405180910390fd5b8183610b9a9190611139565b905092915050565b60008183610bb0919061116a565b90506000831480610bcb5750818382610bc99190611139565b145b610c0a576040517f08c379a0000000000000000000000000000000000000000000000000000000008152600401610c0190611097565b60405180910390fd5b92915050565b600081359050610c1f81611588565b92915050565b600081359050610c348161159f565b92915050565b600060208284031215610c5057610c4f6112b0565b5b6000610c5e84828501610c10565b91505092915050565b60008060408385031215610c7e57610c7d6112b0565b5b6000610c8c85828601610c25565b9250506020610c9d85828601610c10565b9150509250929050565b610cb08161120a565b82525050565b610cbf816111f8565b82525050565b610cce8161121c565b82525050565b6000610ce16013836110d2565b9150610cec826112b5565b602082019050919050565b6000610d046029836110d2565b9150610d0f826112de565b604082019050919050565b6000610d276020836110d2565b9150610d328261132d565b602082019050919050565b6000610d4a6018836110d2565b9150610d5582611356565b602082019050919050565b6000610d6d6024836110d2565b9150610d788261137f565b604082019050919050565b6000610d906006836110d2565b9150610d9b826113ce565b602082019050919050565b6000610db36012836110d2565b9150610dbe826113f7565b602082019050919050565b6000610dd6600f836110d2565b9150610de182611420565b602082019050919050565b6000610df96024836110d2565b9150610e0482611449565b604082019050919050565b6000610e1c600e836110d2565b9150610e2782611498565b602082019050919050565b6000610e3f6027836110d2565b9150610e4a826114c1565b604082019050919050565b6000610e626032836110d2565b9150610e6d82611510565b604082019050919050565b6000610e856014836110d2565b9150610e908261155f565b602082019050919050565b610ea481611248565b82525050565b6000602082019050610ebf6000830184610cb6565b92915050565b6000602082019050610eda6000830184610ca7565b92915050565b6000602082019050610ef56000830184610cc5565b92915050565b60006040820190508181036000830152610f1481610cd4565b9050610f236020830184610cb6565b92915050565b60006020820190508181036000830152610f4281610cf7565b9050919050565b60006020820190508181036000830152610f6281610d1a565b9050919050565b60006020820190508181036000830152610f8281610d3d565b9050919050565b60006020820190508181036000830152610fa281610d60565b9050919050565b60006040820190508181036000830152610fc281610d83565b9050610fd16020830184610cb6565b92915050565b60006020820190508181036000830152610ff081610da6565b9050919050565b6000602082019050818103600083015261101081610dc9565b9050919050565b6000602082019050818103600083015261103081610dec565b9050919050565b6000602082019050818103600083015261105081610e0f565b9050919050565b6000602082019050818103600083015261107081610e32565b9050919050565b6000602082019050818103600083015261109081610e55565b9050919050565b600060208201905081810360008301526110b081610e78565b9050919050565b60006020820190506110cc6000830184610e9b565b92915050565b600082825260208201905092915050565b60006110ee82611248565b91506110f983611248565b9250827fffffffffffffffffffffffffffffffffffffffffffffffffffffffffffffffff0382111561112e5761112d611252565b5b828201905092915050565b600061114482611248565b915061114f83611248565b92508261115f5761115e611281565b5b828204905092915050565b600061117582611248565b915061118083611248565b9250817fffffffffffffffffffffffffffffffffffffffffffffffffffffffffffffffff04831182151516156111b9576111b8611252565b5b828202905092915050565b60006111cf82611248565b91506111da83611248565b9250828210156111ed576111ec611252565b5b828203905092915050565b600061120382611228565b9050919050565b600061121582611228565b9050919050565b60008115159050919050565b600073ffffffffffffffffffffffffffffffffffffffff82169050919050565b6000819050919050565b7f4e487b7100000000000000000000000000000000000000000000000000000000600052601160045260246000fd5b7f4e487b7100000000000000000000000000000000000000000000000000000000600052601260045260246000fd5b600080fd5b7f4d6f6e6579207769746864726177656e20746f00000000000000000000000000600082015250565b7f4f6e6c7920616c6c6f7765642067617465732063616e2061636365737320746860008201527f6973206d6574686f640000000000000000000000000000000000000000000000602082015250565b7f596f7520646f6e2774206861766520616e79206d6f6e657920696e2068657265600082015250565b7f4d696e696d756d20312045746865722052657175697265640000000000000000600082015250565b7f596f7520646f6e27742068617665206e6f2070656e64696e672077697468647260008201527f61776c7300000000000000000000000000000000000000000000000000000000602082015250565b7f7374616b65640000000000000000000000000000000000000000000000000000600082015250565b7f537562737472616374696f6e206661696c640000000000000000000000000000600082015250565b7f4164646974696f6e206661696c65640000000000000000000000000000000000600082015250565b7f596f752073686f756c642061746c65617374207374616b6520666f722061206d60008201527f6f6e747900000000000000000000000000000000000000000000000000000000602082015250565b7f4469766973696f6e206661696c64000000000000000000000000000000000000600082015250565b7f446f65736e2774206861766520656e6f7567682062616c616e636520696e207460008201527f68652062616e6b00000000000000000000000000000000000000000000000000602082015250565b7f536f72727920776520646f6e2774206861766520656e6f756768206d6f6e657960008201527f20736f20636f6d656261636b206c617465720000000000000000000000000000602082015250565b7f4d756c7469706c69636174696f6e206661696c64000000000000000000000000600082015250565b611591816111f8565b811461159c57600080fd5b50565b6115a881611248565b81146115b357600080fd5b5056fea26469706673582212209967e24e149f062e98b6da30aa30f0bbb30cecef6fc3727bb76d55e4619c788d64736f6c63430008070033",
					"opcodes": "PUSH1 0x80 PUSH1 0x40 MSTORE PUSH8 0xDE0B6B3A7640000 PUSH1 0x0 SSTORE CALLVALUE DUP1 ISZERO PUSH3 0x1D JUMPI PUSH1 0x0 DUP1 REVERT JUMPDEST POP CALLER PUSH1 0x1 PUSH1 0x0 PUSH2 0x100 EXP DUP2 SLOAD DUP2 PUSH20 0xFFFFFFFFFFFFFFFFFFFFFFFFFFFFFFFFFFFFFFFF MUL NOT AND SWAP1 DUP4 PUSH20 0xFFFFFFFFFFFFFFFFFFFFFFFFFFFFFFFFFFFFFFFF AND MUL OR SWAP1 SSTORE POP PUSH32 0xF67E7992D539193FC243C42FE89F8FAB49013E8E4FB18CFA891DC51ADCACCC80 CALLER PUSH1 0x40 MLOAD PUSH3 0x90 SWAP2 SWAP1 PUSH3 0xD6 JUMP JUMPDEST PUSH1 0x40 MLOAD DUP1 SWAP2 SUB SWAP1 LOG1 PUSH3 0x176 JUMP JUMPDEST PUSH3 0xA9 DUP2 PUSH3 0x119 JUMP JUMPDEST DUP3 MSTORE POP POP JUMP JUMPDEST PUSH1 0x0 PUSH3 0xBE PUSH1 0x14 DUP4 PUSH3 0x108 JUMP JUMPDEST SWAP2 POP PUSH3 0xCB DUP3 PUSH3 0x14D JUMP JUMPDEST PUSH1 0x20 DUP3 ADD SWAP1 POP SWAP2 SWAP1 POP JUMP JUMPDEST PUSH1 0x0 PUSH1 0x40 DUP3 ADD SWAP1 POP DUP2 DUP2 SUB PUSH1 0x0 DUP4 ADD MSTORE PUSH3 0xF1 DUP2 PUSH3 0xAF JUMP JUMPDEST SWAP1 POP PUSH3 0x102 PUSH1 0x20 DUP4 ADD DUP5 PUSH3 0x9E JUMP JUMPDEST SWAP3 SWAP2 POP POP JUMP JUMPDEST PUSH1 0x0 DUP3 DUP3 MSTORE PUSH1 0x20 DUP3 ADD SWAP1 POP SWAP3 SWAP2 POP POP JUMP JUMPDEST PUSH1 0x0 PUSH3 0x126 DUP3 PUSH3 0x12D JUMP JUMPDEST SWAP1 POP SWAP2 SWAP1 POP JUMP JUMPDEST PUSH1 0x0 PUSH20 0xFFFFFFFFFFFFFFFFFFFFFFFFFFFFFFFFFFFFFFFF DUP3 AND SWAP1 POP SWAP2 SWAP1 POP JUMP JUMPDEST PUSH32 0x4C656E64696E6720706F6F6C2063726561746564000000000000000000000000 PUSH1 0x0 DUP3 ADD MSTORE POP JUMP JUMPDEST PUSH2 0x15EC DUP1 PUSH3 0x186 PUSH1 0x0 CODECOPY PUSH1 0x0 RETURN INVALID PUSH1 0x80 PUSH1 0x40 MSTORE PUSH1 0x4 CALLDATASIZE LT PUSH2 0xA0 JUMPI PUSH1 0x0 CALLDATALOAD PUSH1 0xE0 SHR DUP1 PUSH4 0x8DA5CB5B GT PUSH2 0x64 JUMPI DUP1 PUSH4 0x8DA5CB5B EQ PUSH2 0x15B JUMPI DUP1 PUSH4 0xA464D265 EQ PUSH2 0x186 JUMPI DUP1 PUSH4 0xAEAE177C EQ PUSH2 0x1B1 JUMPI DUP1 PUSH4 0xC02B2092 EQ PUSH2 0x1EE JUMPI DUP1 PUSH4 0xD0E30DB0 EQ PUSH2 0x22B JUMPI DUP1 PUSH4 0xF9931855 EQ PUSH2 0x235 JUMPI PUSH2 0xA7 JUMP JUMPDEST DUP1 PUSH4 0x3607999B EQ PUSH2 0xA9 JUMPI DUP1 PUSH4 0x56852391 EQ PUSH2 0xC5 JUMPI DUP1 PUSH4 0x650FAD76 EQ PUSH2 0xDC JUMPI DUP1 PUSH4 0x6E0E0DA2 EQ PUSH2 0x107 JUMPI DUP1 PUSH4 0x6E1DC66E EQ PUSH2 0x11E JUMPI PUSH2 0xA7 JUMP JUMPDEST CALLDATASIZE PUSH2 0xA7 JUMPI STOP JUMPDEST STOP JUMPDEST PUSH2 0xC3 PUSH1 0x4 DUP1 CALLDATASIZE SUB DUP2 ADD SWAP1 PUSH2 0xBE SWAP2 SWAP1 PUSH2 0xC67 JUMP JUMPDEST PUSH2 0x272 JUMP JUMPDEST STOP JUMPDEST CALLVALUE DUP1 ISZERO PUSH2 0xD1 JUMPI PUSH1 0x0 DUP1 REVERT JUMPDEST POP PUSH2 0xDA PUSH2 0x42E JUMP JUMPDEST STOP JUMPDEST CALLVALUE DUP1 ISZERO PUSH2 0xE8 JUMPI PUSH1 0x0 DUP1 REVERT JUMPDEST POP PUSH2 0xF1 PUSH2 0x583 JUMP JUMPDEST PUSH1 0x40 MLOAD PUSH2 0xFE SWAP2 SWAP1 PUSH2 0x10B7 JUMP JUMPDEST PUSH1 0x40 MLOAD DUP1 SWAP2 SUB SWAP1 RETURN JUMPDEST CALLVALUE DUP1 ISZERO PUSH2 0x113 JUMPI PUSH1 0x0 DUP1 REVERT JUMPDEST POP PUSH2 0x11C PUSH2 0x589 JUMP JUMPDEST STOP JUMPDEST CALLVALUE DUP1 ISZERO PUSH2 0x12A JUMPI PUSH1 0x0 DUP1 REVERT JUMPDEST POP PUSH2 0x145 PUSH1 0x4 DUP1 CALLDATASIZE SUB DUP2 ADD SWAP1 PUSH2 0x140 SWAP2 SWAP1 PUSH2 0xC3A JUMP JUMPDEST PUSH2 0x872 JUMP JUMPDEST PUSH1 0x40 MLOAD PUSH2 0x152 SWAP2 SWAP1 PUSH2 0x10B7 JUMP JUMPDEST PUSH1 0x40 MLOAD DUP1 SWAP2 SUB SWAP1 RETURN JUMPDEST CALLVALUE DUP1 ISZERO PUSH2 0x167 JUMPI PUSH1 0x0 DUP1 REVERT JUMPDEST POP PUSH2 0x170 PUSH2 0x88A JUMP JUMPDEST PUSH1 0x40 MLOAD PUSH2 0x17D SWAP2 SWAP1 PUSH2 0xEC5 JUMP JUMPDEST PUSH1 0x40 MLOAD DUP1 SWAP2 SUB SWAP1 RETURN JUMPDEST CALLVALUE DUP1 ISZERO PUSH2 0x192 JUMPI PUSH1 0x0 DUP1 REVERT JUMPDEST POP PUSH2 0x19B PUSH2 0x8B0 JUMP JUMPDEST PUSH1 0x40 MLOAD PUSH2 0x1A8 SWAP2 SWAP1 PUSH2 0xEAA JUMP JUMPDEST PUSH1 0x40 MLOAD DUP1 SWAP2 SUB SWAP1 RETURN JUMPDEST CALLVALUE DUP1 ISZERO PUSH2 0x1BD JUMPI PUSH1 0x0 DUP1 REVERT JUMPDEST POP PUSH2 0x1D8 PUSH1 0x4 DUP1 CALLDATASIZE SUB DUP2 ADD SWAP1 PUSH2 0x1D3 SWAP2 SWAP1 PUSH2 0xC3A JUMP JUMPDEST PUSH2 0x8D6 JUMP JUMPDEST PUSH1 0x40 MLOAD PUSH2 0x1E5 SWAP2 SWAP1 PUSH2 0x10B7 JUMP JUMPDEST PUSH1 0x40 MLOAD DUP1 SWAP2 SUB SWAP1 RETURN JUMPDEST CALLVALUE DUP1 ISZERO PUSH2 0x1FA JUMPI PUSH1 0x0 DUP1 REVERT JUMPDEST POP PUSH2 0x215 PUSH1 0x4 DUP1 CALLDATASIZE SUB DUP2 ADD SWAP1 PUSH2 0x210 SWAP2 SWAP1 PUSH2 0xC3A JUMP JUMPDEST PUSH2 0x8EE JUMP JUMPDEST PUSH1 0x40 MLOAD PUSH2 0x222 SWAP2 SWAP1 PUSH2 0xEE0 JUMP JUMPDEST PUSH1 0x40 MLOAD DUP1 SWAP2 SUB SWAP1 RETURN JUMPDEST PUSH2 0x233 PUSH2 0x90E JUMP JUMPDEST STOP JUMPDEST CALLVALUE DUP1 ISZERO PUSH2 0x241 JUMPI PUSH1 0x0 DUP1 REVERT JUMPDEST POP PUSH2 0x25C PUSH1 0x4 DUP1 CALLDATASIZE SUB DUP2 ADD SWAP1 PUSH2 0x257 SWAP2 SWAP1 PUSH2 0xC3A JUMP JUMPDEST PUSH2 0xA80 JUMP JUMPDEST PUSH1 0x40 MLOAD PUSH2 0x269 SWAP2 SWAP1 PUSH2 0x10B7 JUMP JUMPDEST PUSH1 0x40 MLOAD DUP1 SWAP2 SUB SWAP1 RETURN JUMPDEST PUSH1 0x8 PUSH1 0x0 CALLER PUSH20 0xFFFFFFFFFFFFFFFFFFFFFFFFFFFFFFFFFFFFFFFF AND PUSH20 0xFFFFFFFFFFFFFFFFFFFFFFFFFFFFFFFFFFFFFFFF AND DUP2 MSTORE PUSH1 0x20 ADD SWAP1 DUP2 MSTORE PUSH1 0x20 ADD PUSH1 0x0 KECCAK256 PUSH1 0x0 SWAP1 SLOAD SWAP1 PUSH2 0x100 EXP SWAP1 DIV PUSH1 0xFF AND PUSH2 0x2FE JUMPI PUSH1 0x40 MLOAD PUSH32 0x8C379A000000000000000000000000000000000000000000000000000000000 DUP2 MSTORE PUSH1 0x4 ADD PUSH2 0x2F5 SWAP1 PUSH2 0xF29 JUMP JUMPDEST PUSH1 0x40 MLOAD DUP1 SWAP2 SUB SWAP1 REVERT JUMPDEST PUSH1 0x2 SLOAD DUP3 GT ISZERO PUSH2 0x343 JUMPI PUSH1 0x40 MLOAD PUSH32 0x8C379A000000000000000000000000000000000000000000000000000000000 DUP2 MSTORE PUSH1 0x4 ADD PUSH2 0x33A SWAP1 PUSH2 0x1057 JUMP JUMPDEST PUSH1 0x40 MLOAD DUP1 SWAP2 SUB SWAP1 REVERT JUMPDEST PUSH2 0x358 DUP3 PUSH1 0x2 SLOAD PUSH2 0xA98 SWAP1 SWAP2 SWAP1 PUSH4 0xFFFFFFFF AND JUMP JUMPDEST PUSH1 0x2 DUP2 SWAP1 SSTORE POP PUSH2 0x3B0 DUP3 PUSH1 0x7 PUSH1 0x0 DUP5 PUSH20 0xFFFFFFFFFFFFFFFFFFFFFFFFFFFFFFFFFFFFFFFF AND PUSH20 0xFFFFFFFFFFFFFFFFFFFFFFFFFFFFFFFFFFFFFFFF AND DUP2 MSTORE PUSH1 0x20 ADD SWAP1 DUP2 MSTORE PUSH1 0x20 ADD PUSH1 0x0 KECCAK256 SLOAD PUSH2 0xAF1 SWAP1 SWAP2 SWAP1 PUSH4 0xFFFFFFFF AND JUMP JUMPDEST PUSH1 0x7 PUSH1 0x0 DUP4 PUSH20 0xFFFFFFFFFFFFFFFFFFFFFFFFFFFFFFFFFFFFFFFF AND PUSH20 0xFFFFFFFFFFFFFFFFFFFFFFFFFFFFFFFFFFFFFFFF AND DUP2 MSTORE PUSH1 0x20 ADD SWAP1 DUP2 MSTORE PUSH1 0x20 ADD PUSH1 0x0 KECCAK256 DUP2 SWAP1 SSTORE POP PUSH32 0xF67E7992D539193FC243C42FE89F8FAB49013E8E4FB18CFA891DC51ADCACCC80 DUP2 PUSH1 0x40 MLOAD PUSH2 0x422 SWAP2 SWAP1 PUSH2 0xEFB JUMP JUMPDEST PUSH1 0x40 MLOAD DUP1 SWAP2 SUB SWAP1 LOG1 POP POP JUMP JUMPDEST PUSH1 0x0 PUSH1 0x7 PUSH1 0x0 CALLER PUSH20 0xFFFFFFFFFFFFFFFFFFFFFFFFFFFFFFFFFFFFFFFF AND PUSH20 0xFFFFFFFFFFFFFFFFFFFFFFFFFFFFFFFFFFFFFFFF AND DUP2 MSTORE PUSH1 0x20 ADD SWAP1 DUP2 MSTORE PUSH1 0x20 ADD PUSH1 0x0 KECCAK256 SLOAD GT PUSH2 0x4B0 JUMPI PUSH1 0x40 MLOAD PUSH32 0x8C379A000000000000000000000000000000000000000000000000000000000 DUP2 MSTORE PUSH1 0x4 ADD PUSH2 0x4A7 SWAP1 PUSH2 0xF89 JUMP JUMPDEST PUSH1 0x40 MLOAD DUP1 SWAP2 SUB SWAP1 REVERT JUMPDEST PUSH1 0x0 PUSH1 0x7 PUSH1 0x0 CALLER PUSH20 0xFFFFFFFFFFFFFFFFFFFFFFFFFFFFFFFFFFFFFFFF AND PUSH20 0xFFFFFFFFFFFFFFFFFFFFFFFFFFFFFFFFFFFFFFFF AND DUP2 MSTORE PUSH1 0x20 ADD SWAP1 DUP2 MSTORE PUSH1 0x20 ADD PUSH1 0x0 KECCAK256 SLOAD SWAP1 POP PUSH1 0x0 PUSH1 0x7 PUSH1 0x0 CALLER PUSH20 0xFFFFFFFFFFFFFFFFFFFFFFFFFFFFFFFFFFFFFFFF AND PUSH20 0xFFFFFFFFFFFFFFFFFFFFFFFFFFFFFFFFFFFFFFFF AND DUP2 MSTORE PUSH1 0x20 ADD SWAP1 DUP2 MSTORE PUSH1 0x20 ADD PUSH1 0x0 KECCAK256 DUP2 SWAP1 SSTORE POP CALLER PUSH20 0xFFFFFFFFFFFFFFFFFFFFFFFFFFFFFFFFFFFFFFFF AND PUSH2 0x8FC DUP3 SWAP1 DUP2 ISZERO MUL SWAP1 PUSH1 0x40 MLOAD PUSH1 0x0 PUSH1 0x40 MLOAD DUP1 DUP4 SUB DUP2 DUP6 DUP9 DUP9 CALL SWAP4 POP POP POP POP ISZERO DUP1 ISZERO PUSH2 0x57F JUMPI RETURNDATASIZE PUSH1 0x0 DUP1 RETURNDATACOPY RETURNDATASIZE PUSH1 0x0 REVERT JUMPDEST POP POP JUMP JUMPDEST PUSH1 0x0 SLOAD DUP2 JUMP JUMPDEST PUSH1 0x0 PUSH1 0x6 PUSH1 0x0 CALLER PUSH20 0xFFFFFFFFFFFFFFFFFFFFFFFFFFFFFFFFFFFFFFFF AND PUSH20 0xFFFFFFFFFFFFFFFFFFFFFFFFFFFFFFFFFFFFFFFF AND DUP2 MSTORE PUSH1 0x20 ADD SWAP1 DUP2 MSTORE PUSH1 0x20 ADD PUSH1 0x0 KECCAK256 SLOAD GT PUSH2 0x60B JUMPI PUSH1 0x40 MLOAD PUSH32 0x8C379A000000000000000000000000000000000000000000000000000000000 DUP2 MSTORE PUSH1 0x4 ADD PUSH2 0x602 SWAP1 PUSH2 0xF49 JUMP JUMPDEST PUSH1 0x40 MLOAD DUP1 SWAP2 SUB SWAP1 REVERT JUMPDEST PUSH1 0x0 PUSH2 0x66D PUSH3 0x15180 TIMESTAMP PUSH1 0x5 PUSH1 0x0 CALLER PUSH20 0xFFFFFFFFFFFFFFFFFFFFFFFFFFFFFFFFFFFFFFFF AND PUSH20 0xFFFFFFFFFFFFFFFFFFFFFFFFFFFFFFFFFFFFFFFF AND DUP2 MSTORE PUSH1 0x20 ADD SWAP1 DUP2 MSTORE PUSH1 0x20 ADD PUSH1 0x0 KECCAK256 SLOAD PUSH2 0x65F SWAP2 SWAP1 PUSH2 0x11C4 JUMP JUMPDEST PUSH2 0xB4A SWAP1 SWAP2 SWAP1 PUSH4 0xFFFFFFFF AND JUMP JUMPDEST SWAP1 POP PUSH3 0x278D00 DUP2 GT PUSH2 0x6B4 JUMPI PUSH1 0x40 MLOAD PUSH32 0x8C379A000000000000000000000000000000000000000000000000000000000 DUP2 MSTORE PUSH1 0x4 ADD PUSH2 0x6AB SWAP1 PUSH2 0x1017 JUMP JUMPDEST PUSH1 0x40 MLOAD DUP1 SWAP2 SUB SWAP1 REVERT JUMPDEST PUSH1 0x0 PUSH2 0x72E PUSH1 0x64 PUSH2 0x720 PUSH1 0x6 PUSH1 0x0 CALLER PUSH20 0xFFFFFFFFFFFFFFFFFFFFFFFFFFFFFFFFFFFFFFFF AND PUSH20 0xFFFFFFFFFFFFFFFFFFFFFFFFFFFFFFFFFFFFFFFF AND DUP2 MSTORE PUSH1 0x20 ADD SWAP1 DUP2 MSTORE PUSH1 0x20 ADD PUSH1 0x0 KECCAK256 SLOAD PUSH2 0x712 PUSH1 0x5 DUP8 PUSH2 0xBA2 SWAP1 SWAP2 SWAP1 PUSH4 0xFFFFFFFF AND JUMP JUMPDEST PUSH2 0xBA2 SWAP1 SWAP2 SWAP1 PUSH4 0xFFFFFFFF AND JUMP JUMPDEST PUSH2 0xB4A SWAP1 SWAP2 SWAP1 PUSH4 0xFFFFFFFF AND JUMP JUMPDEST PUSH1 0x6 PUSH1 0x0 CALLER PUSH20 0xFFFFFFFFFFFFFFFFFFFFFFFFFFFFFFFFFFFFFFFF AND PUSH20 0xFFFFFFFFFFFFFFFFFFFFFFFFFFFFFFFFFFFFFFFF AND DUP2 MSTORE PUSH1 0x20 ADD SWAP1 DUP2 MSTORE PUSH1 0x20 ADD PUSH1 0x0 KECCAK256 SLOAD PUSH2 0x778 SWAP2 SWAP1 PUSH2 0x10E3 JUMP JUMPDEST SWAP1 POP PUSH1 0x2 SLOAD DUP2 LT PUSH2 0x7BE JUMPI PUSH1 0x40 MLOAD PUSH32 0x8C379A000000000000000000000000000000000000000000000000000000000 DUP2 MSTORE PUSH1 0x4 ADD PUSH2 0x7B5 SWAP1 PUSH2 0x1077 JUMP JUMPDEST PUSH1 0x40 MLOAD DUP1 SWAP2 SUB SWAP1 REVERT JUMPDEST PUSH2 0x7D3 DUP2 PUSH1 0x2 SLOAD PUSH2 0xA98 SWAP1 SWAP2 SWAP1 PUSH4 0xFFFFFFFF AND JUMP JUMPDEST PUSH1 0x2 DUP2 SWAP1 SSTORE POP PUSH2 0x82B DUP2 PUSH1 0x7 PUSH1 0x0 CALLER PUSH20 0xFFFFFFFFFFFFFFFFFFFFFFFFFFFFFFFFFFFFFFFF AND PUSH20 0xFFFFFFFFFFFFFFFFFFFFFFFFFFFFFFFFFFFFFFFF AND DUP2 MSTORE PUSH1 0x20 ADD SWAP1 DUP2 MSTORE PUSH1 0x20 ADD PUSH1 0x0 KECCAK256 SLOAD PUSH2 0xAF1 SWAP1 SWAP2 SWAP1 PUSH4 0xFFFFFFFF AND JUMP JUMPDEST PUSH1 0x7 PUSH1 0x0 CALLER PUSH20 0xFFFFFFFFFFFFFFFFFFFFFFFFFFFFFFFFFFFFFFFF AND PUSH20 0xFFFFFFFFFFFFFFFFFFFFFFFFFFFFFFFFFFFFFFFF AND DUP2 MSTORE PUSH1 0x20 ADD SWAP1 DUP2 MSTORE PUSH1 0x20 ADD PUSH1 0x0 KECCAK256 DUP2 SWAP1 SSTORE POP POP POP JUMP JUMPDEST PUSH1 0x5 PUSH1 0x20 MSTORE DUP1 PUSH1 0x0 MSTORE PUSH1 0x40 PUSH1 0x0 KECCAK256 PUSH1 0x0 SWAP2 POP SWAP1 POP SLOAD DUP2 JUMP JUMPDEST PUSH1 0x1 PUSH1 0x0 SWAP1 SLOAD SWAP1 PUSH2 0x100 EXP SWAP1 DIV PUSH20 0xFFFFFFFFFFFFFFFFFFFFFFFFFFFFFFFFFFFFFFFF AND DUP2 JUMP JUMPDEST PUSH1 0x3 PUSH1 0x0 SWAP1 SLOAD SWAP1 PUSH2 0x100 EXP SWAP1 DIV PUSH20 0xFFFFFFFFFFFFFFFFFFFFFFFFFFFFFFFFFFFFFFFF AND DUP2 JUMP JUMPDEST PUSH1 0x7 PUSH1 0x20 MSTORE DUP1 PUSH1 0x0 MSTORE PUSH1 0x40 PUSH1 0x0 KECCAK256 PUSH1 0x0 SWAP2 POP SWAP1 POP SLOAD DUP2 JUMP JUMPDEST PUSH1 0x8 PUSH1 0x20 MSTORE DUP1 PUSH1 0x0 MSTORE PUSH1 0x40 PUSH1 0x0 KECCAK256 PUSH1 0x0 SWAP2 POP SLOAD SWAP1 PUSH2 0x100 EXP SWAP1 DIV PUSH1 0xFF AND DUP2 JUMP JUMPDEST PUSH1 0x0 SLOAD CALLVALUE LT ISZERO PUSH2 0x953 JUMPI PUSH1 0x40 MLOAD PUSH32 0x8C379A000000000000000000000000000000000000000000000000000000000 DUP2 MSTORE PUSH1 0x4 ADD PUSH2 0x94A SWAP1 PUSH2 0xF69 JUMP JUMPDEST PUSH1 0x40 MLOAD DUP1 SWAP2 SUB SWAP1 REVERT JUMPDEST TIMESTAMP PUSH1 0x5 PUSH1 0x0 CALLER PUSH20 0xFFFFFFFFFFFFFFFFFFFFFFFFFFFFFFFFFFFFFFFF AND PUSH20 0xFFFFFFFFFFFFFFFFFFFFFFFFFFFFFFFFFFFFFFFF AND DUP2 MSTORE PUSH1 0x20 ADD SWAP1 DUP2 MSTORE PUSH1 0x20 ADD PUSH1 0x0 KECCAK256 DUP2 SWAP1 SSTORE POP PUSH2 0x9E9 CALLVALUE PUSH1 0x6 PUSH1 0x0 CALLER PUSH20 0xFFFFFFFFFFFFFFFFFFFFFFFFFFFFFFFFFFFFFFFF AND PUSH20 0xFFFFFFFFFFFFFFFFFFFFFFFFFFFFFFFFFFFFFFFF AND DUP2 MSTORE PUSH1 0x20 ADD SWAP1 DUP2 MSTORE PUSH1 0x20 ADD PUSH1 0x0 KECCAK256 SLOAD PUSH2 0xAF1 SWAP1 SWAP2 SWAP1 PUSH4 0xFFFFFFFF AND JUMP JUMPDEST PUSH1 0x6 PUSH1 0x0 CALLER PUSH20 0xFFFFFFFFFFFFFFFFFFFFFFFFFFFFFFFFFFFFFFFF AND PUSH20 0xFFFFFFFFFFFFFFFFFFFFFFFFFFFFFFFFFFFFFFFF AND DUP2 MSTORE PUSH1 0x20 ADD SWAP1 DUP2 MSTORE PUSH1 0x20 ADD PUSH1 0x0 KECCAK256 DUP2 SWAP1 SSTORE POP PUSH2 0xA41 CALLVALUE PUSH1 0x2 SLOAD PUSH2 0xAF1 SWAP1 SWAP2 SWAP1 PUSH4 0xFFFFFFFF AND JUMP JUMPDEST PUSH1 0x2 DUP2 SWAP1 SSTORE POP PUSH32 0xF67E7992D539193FC243C42FE89F8FAB49013E8E4FB18CFA891DC51ADCACCC80 CALLER PUSH1 0x40 MLOAD PUSH2 0xA76 SWAP2 SWAP1 PUSH2 0xFA9 JUMP JUMPDEST PUSH1 0x40 MLOAD DUP1 SWAP2 SUB SWAP1 LOG1 JUMP JUMPDEST PUSH1 0x6 PUSH1 0x20 MSTORE DUP1 PUSH1 0x0 MSTORE PUSH1 0x40 PUSH1 0x0 KECCAK256 PUSH1 0x0 SWAP2 POP SWAP1 POP SLOAD DUP2 JUMP JUMPDEST PUSH1 0x0 DUP3 DUP3 GT ISZERO PUSH2 0xADD JUMPI PUSH1 0x40 MLOAD PUSH32 0x8C379A000000000000000000000000000000000000000000000000000000000 DUP2 MSTORE PUSH1 0x4 ADD PUSH2 0xAD4 SWAP1 PUSH2 0xFD7 JUMP JUMPDEST PUSH1 0x40 MLOAD DUP1 SWAP2 SUB SWAP1 REVERT JUMPDEST DUP2 DUP4 PUSH2 0xAE9 SWAP2 SWAP1 PUSH2 0x11C4 JUMP JUMPDEST SWAP1 POP SWAP3 SWAP2 POP POP JUMP JUMPDEST PUSH1 0x0 DUP2 DUP4 PUSH2 0xAFF SWAP2 SWAP1 PUSH2 0x10E3 JUMP JUMPDEST SWAP1 POP DUP3 DUP2 LT ISZERO PUSH2 0xB44 JUMPI PUSH1 0x40 MLOAD PUSH32 0x8C379A000000000000000000000000000000000000000000000000000000000 DUP2 MSTORE PUSH1 0x4 ADD PUSH2 0xB3B SWAP1 PUSH2 0xFF7 JUMP JUMPDEST PUSH1 0x40 MLOAD DUP1 SWAP2 SUB SWAP1 REVERT JUMPDEST SWAP3 SWAP2 POP POP JUMP JUMPDEST PUSH1 0x0 DUP1 DUP3 GT PUSH2 0xB8E JUMPI PUSH1 0x40 MLOAD PUSH32 0x8C379A000000000000000000000000000000000000000000000000000000000 DUP2 MSTORE PUSH1 0x4 ADD PUSH2 0xB85 SWAP1 PUSH2 0x1037 JUMP JUMPDEST PUSH1 0x40 MLOAD DUP1 SWAP2 SUB SWAP1 REVERT JUMPDEST DUP2 DUP4 PUSH2 0xB9A SWAP2 SWAP1 PUSH2 0x1139 JUMP JUMPDEST SWAP1 POP SWAP3 SWAP2 POP POP JUMP JUMPDEST PUSH1 0x0 DUP2 DUP4 PUSH2 0xBB0 SWAP2 SWAP1 PUSH2 0x116A JUMP JUMPDEST SWAP1 POP PUSH1 0x0 DUP4 EQ DUP1 PUSH2 0xBCB JUMPI POP DUP2 DUP4 DUP3 PUSH2 0xBC9 SWAP2 SWAP1 PUSH2 0x1139 JUMP JUMPDEST EQ JUMPDEST PUSH2 0xC0A JUMPI PUSH1 0x40 MLOAD PUSH32 0x8C379A000000000000000000000000000000000000000000000000000000000 DUP2 MSTORE PUSH1 0x4 ADD PUSH2 0xC01 SWAP1 PUSH2 0x1097 JUMP JUMPDEST PUSH1 0x40 MLOAD DUP1 SWAP2 SUB SWAP1 REVERT JUMPDEST SWAP3 SWAP2 POP POP JUMP JUMPDEST PUSH1 0x0 DUP2 CALLDATALOAD SWAP1 POP PUSH2 0xC1F DUP2 PUSH2 0x1588 JUMP JUMPDEST SWAP3 SWAP2 POP POP JUMP JUMPDEST PUSH1 0x0 DUP2 CALLDATALOAD SWAP1 POP PUSH2 0xC34 DUP2 PUSH2 0x159F JUMP JUMPDEST SWAP3 SWAP2 POP POP JUMP JUMPDEST PUSH1 0x0 PUSH1 0x20 DUP3 DUP5 SUB SLT ISZERO PUSH2 0xC50 JUMPI PUSH2 0xC4F PUSH2 0x12B0 JUMP JUMPDEST JUMPDEST PUSH1 0x0 PUSH2 0xC5E DUP5 DUP3 DUP6 ADD PUSH2 0xC10 JUMP JUMPDEST SWAP2 POP POP SWAP3 SWAP2 POP POP JUMP JUMPDEST PUSH1 0x0 DUP1 PUSH1 0x40 DUP4 DUP6 SUB SLT ISZERO PUSH2 0xC7E JUMPI PUSH2 0xC7D PUSH2 0x12B0 JUMP JUMPDEST JUMPDEST PUSH1 0x0 PUSH2 0xC8C DUP6 DUP3 DUP7 ADD PUSH2 0xC25 JUMP JUMPDEST SWAP3 POP POP PUSH1 0x20 PUSH2 0xC9D DUP6 DUP3 DUP7 ADD PUSH2 0xC10 JUMP JUMPDEST SWAP2 POP POP SWAP3 POP SWAP3 SWAP1 POP JUMP JUMPDEST PUSH2 0xCB0 DUP2 PUSH2 0x120A JUMP JUMPDEST DUP3 MSTORE POP POP JUMP JUMPDEST PUSH2 0xCBF DUP2 PUSH2 0x11F8 JUMP JUMPDEST DUP3 MSTORE POP POP JUMP JUMPDEST PUSH2 0xCCE DUP2 PUSH2 0x121C JUMP JUMPDEST DUP3 MSTORE POP POP JUMP JUMPDEST PUSH1 0x0 PUSH2 0xCE1 PUSH1 0x13 DUP4 PUSH2 0x10D2 JUMP JUMPDEST SWAP2 POP PUSH2 0xCEC DUP3 PUSH2 0x12B5 JUMP JUMPDEST PUSH1 0x20 DUP3 ADD SWAP1 POP SWAP2 SWAP1 POP JUMP JUMPDEST PUSH1 0x0 PUSH2 0xD04 PUSH1 0x29 DUP4 PUSH2 0x10D2 JUMP JUMPDEST SWAP2 POP PUSH2 0xD0F DUP3 PUSH2 0x12DE JUMP JUMPDEST PUSH1 0x40 DUP3 ADD SWAP1 POP SWAP2 SWAP1 POP JUMP JUMPDEST PUSH1 0x0 PUSH2 0xD27 PUSH1 0x20 DUP4 PUSH2 0x10D2 JUMP JUMPDEST SWAP2 POP PUSH2 0xD32 DUP3 PUSH2 0x132D JUMP JUMPDEST PUSH1 0x20 DUP3 ADD SWAP1 POP SWAP2 SWAP1 POP JUMP JUMPDEST PUSH1 0x0 PUSH2 0xD4A PUSH1 0x18 DUP4 PUSH2 0x10D2 JUMP JUMPDEST SWAP2 POP PUSH2 0xD55 DUP3 PUSH2 0x1356 JUMP JUMPDEST PUSH1 0x20 DUP3 ADD SWAP1 POP SWAP2 SWAP1 POP JUMP JUMPDEST PUSH1 0x0 PUSH2 0xD6D PUSH1 0x24 DUP4 PUSH2 0x10D2 JUMP JUMPDEST SWAP2 POP PUSH2 0xD78 DUP3 PUSH2 0x137F JUMP JUMPDEST PUSH1 0x40 DUP3 ADD SWAP1 POP SWAP2 SWAP1 POP JUMP JUMPDEST PUSH1 0x0 PUSH2 0xD90 PUSH1 0x6 DUP4 PUSH2 0x10D2 JUMP JUMPDEST SWAP2 POP PUSH2 0xD9B DUP3 PUSH2 0x13CE JUMP JUMPDEST PUSH1 0x20 DUP3 ADD SWAP1 POP SWAP2 SWAP1 POP JUMP JUMPDEST PUSH1 0x0 PUSH2 0xDB3 PUSH1 0x12 DUP4 PUSH2 0x10D2 JUMP JUMPDEST SWAP2 POP PUSH2 0xDBE DUP3 PUSH2 0x13F7 JUMP JUMPDEST PUSH1 0x20 DUP3 ADD SWAP1 POP SWAP2 SWAP1 POP JUMP JUMPDEST PUSH1 0x0 PUSH2 0xDD6 PUSH1 0xF DUP4 PUSH2 0x10D2 JUMP JUMPDEST SWAP2 POP PUSH2 0xDE1 DUP3 PUSH2 0x1420 JUMP JUMPDEST PUSH1 0x20 DUP3 ADD SWAP1 POP SWAP2 SWAP1 POP JUMP JUMPDEST PUSH1 0x0 PUSH2 0xDF9 PUSH1 0x24 DUP4 PUSH2 0x10D2 JUMP JUMPDEST SWAP2 POP PUSH2 0xE04 DUP3 PUSH2 0x1449 JUMP JUMPDEST PUSH1 0x40 DUP3 ADD SWAP1 POP SWAP2 SWAP1 POP JUMP JUMPDEST PUSH1 0x0 PUSH2 0xE1C PUSH1 0xE DUP4 PUSH2 0x10D2 JUMP JUMPDEST SWAP2 POP PUSH2 0xE27 DUP3 PUSH2 0x1498 JUMP JUMPDEST PUSH1 0x20 DUP3 ADD SWAP1 POP SWAP2 SWAP1 POP JUMP JUMPDEST PUSH1 0x0 PUSH2 0xE3F PUSH1 0x27 DUP4 PUSH2 0x10D2 JUMP JUMPDEST SWAP2 POP PUSH2 0xE4A DUP3 PUSH2 0x14C1 JUMP JUMPDEST PUSH1 0x40 DUP3 ADD SWAP1 POP SWAP2 SWAP1 POP JUMP JUMPDEST PUSH1 0x0 PUSH2 0xE62 PUSH1 0x32 DUP4 PUSH2 0x10D2 JUMP JUMPDEST SWAP2 POP PUSH2 0xE6D DUP3 PUSH2 0x1510 JUMP JUMPDEST PUSH1 0x40 DUP3 ADD SWAP1 POP SWAP2 SWAP1 POP JUMP JUMPDEST PUSH1 0x0 PUSH2 0xE85 PUSH1 0x14 DUP4 PUSH2 0x10D2 JUMP JUMPDEST SWAP2 POP PUSH2 0xE90 DUP3 PUSH2 0x155F JUMP JUMPDEST PUSH1 0x20 DUP3 ADD SWAP1 POP SWAP2 SWAP1 POP JUMP JUMPDEST PUSH2 0xEA4 DUP2 PUSH2 0x1248 JUMP JUMPDEST DUP3 MSTORE POP POP JUMP JUMPDEST PUSH1 0x0 PUSH1 0x20 DUP3 ADD SWAP1 POP PUSH2 0xEBF PUSH1 0x0 DUP4 ADD DUP5 PUSH2 0xCB6 JUMP JUMPDEST SWAP3 SWAP2 POP POP JUMP JUMPDEST PUSH1 0x0 PUSH1 0x20 DUP3 ADD SWAP1 POP PUSH2 0xEDA PUSH1 0x0 DUP4 ADD DUP5 PUSH2 0xCA7 JUMP JUMPDEST SWAP3 SWAP2 POP POP JUMP JUMPDEST PUSH1 0x0 PUSH1 0x20 DUP3 ADD SWAP1 POP PUSH2 0xEF5 PUSH1 0x0 DUP4 ADD DUP5 PUSH2 0xCC5 JUMP JUMPDEST SWAP3 SWAP2 POP POP JUMP JUMPDEST PUSH1 0x0 PUSH1 0x40 DUP3 ADD SWAP1 POP DUP2 DUP2 SUB PUSH1 0x0 DUP4 ADD MSTORE PUSH2 0xF14 DUP2 PUSH2 0xCD4 JUMP JUMPDEST SWAP1 POP PUSH2 0xF23 PUSH1 0x20 DUP4 ADD DUP5 PUSH2 0xCB6 JUMP JUMPDEST SWAP3 SWAP2 POP POP JUMP JUMPDEST PUSH1 0x0 PUSH1 0x20 DUP3 ADD SWAP1 POP DUP2 DUP2 SUB PUSH1 0x0 DUP4 ADD MSTORE PUSH2 0xF42 DUP2 PUSH2 0xCF7 JUMP JUMPDEST SWAP1 POP SWAP2 SWAP1 POP JUMP JUMPDEST PUSH1 0x0 PUSH1 0x20 DUP3 ADD SWAP1 POP DUP2 DUP2 SUB PUSH1 0x0 DUP4 ADD MSTORE PUSH2 0xF62 DUP2 PUSH2 0xD1A JUMP JUMPDEST SWAP1 POP SWAP2 SWAP1 POP JUMP JUMPDEST PUSH1 0x0 PUSH1 0x20 DUP3 ADD SWAP1 POP DUP2 DUP2 SUB PUSH1 0x0 DUP4 ADD MSTORE PUSH2 0xF82 DUP2 PUSH2 0xD3D JUMP JUMPDEST SWAP1 POP SWAP2 SWAP1 POP JUMP JUMPDEST PUSH1 0x0 PUSH1 0x20 DUP3 ADD SWAP1 POP DUP2 DUP2 SUB PUSH1 0x0 DUP4 ADD MSTORE PUSH2 0xFA2 DUP2 PUSH2 0xD60 JUMP JUMPDEST SWAP1 POP SWAP2 SWAP1 POP JUMP JUMPDEST PUSH1 0x0 PUSH1 0x40 DUP3 ADD SWAP1 POP DUP2 DUP2 SUB PUSH1 0x0 DUP4 ADD MSTORE PUSH2 0xFC2 DUP2 PUSH2 0xD83 JUMP JUMPDEST SWAP1 POP PUSH2 0xFD1 PUSH1 0x20 DUP4 ADD DUP5 PUSH2 0xCB6 JUMP JUMPDEST SWAP3 SWAP2 POP POP JUMP JUMPDEST PUSH1 0x0 PUSH1 0x20 DUP3 ADD SWAP1 POP DUP2 DUP2 SUB PUSH1 0x0 DUP4 ADD MSTORE PUSH2 0xFF0 DUP2 PUSH2 0xDA6 JUMP JUMPDEST SWAP1 POP SWAP2 SWAP1 POP JUMP JUMPDEST PUSH1 0x0 PUSH1 0x20 DUP3 ADD SWAP1 POP DUP2 DUP2 SUB PUSH1 0x0 DUP4 ADD MSTORE PUSH2 0x1010 DUP2 PUSH2 0xDC9 JUMP JUMPDEST SWAP1 POP SWAP2 SWAP1 POP JUMP JUMPDEST PUSH1 0x0 PUSH1 0x20 DUP3 ADD SWAP1 POP DUP2 DUP2 SUB PUSH1 0x0 DUP4 ADD MSTORE PUSH2 0x1030 DUP2 PUSH2 0xDEC JUMP JUMPDEST SWAP1 POP SWAP2 SWAP1 POP JUMP JUMPDEST PUSH1 0x0 PUSH1 0x20 DUP3 ADD SWAP1 POP DUP2 DUP2 SUB PUSH1 0x0 DUP4 ADD MSTORE PUSH2 0x1050 DUP2 PUSH2 0xE0F JUMP JUMPDEST SWAP1 POP SWAP2 SWAP1 POP JUMP JUMPDEST PUSH1 0x0 PUSH1 0x20 DUP3 ADD SWAP1 POP DUP2 DUP2 SUB PUSH1 0x0 DUP4 ADD MSTORE PUSH2 0x1070 DUP2 PUSH2 0xE32 JUMP JUMPDEST SWAP1 POP SWAP2 SWAP1 POP JUMP JUMPDEST PUSH1 0x0 PUSH1 0x20 DUP3 ADD SWAP1 POP DUP2 DUP2 SUB PUSH1 0x0 DUP4 ADD MSTORE PUSH2 0x1090 DUP2 PUSH2 0xE55 JUMP JUMPDEST SWAP1 POP SWAP2 SWAP1 POP JUMP JUMPDEST PUSH1 0x0 PUSH1 0x20 DUP3 ADD SWAP1 POP DUP2 DUP2 SUB PUSH1 0x0 DUP4 ADD MSTORE PUSH2 0x10B0 DUP2 PUSH2 0xE78 JUMP JUMPDEST SWAP1 POP SWAP2 SWAP1 POP JUMP JUMPDEST PUSH1 0x0 PUSH1 0x20 DUP3 ADD SWAP1 POP PUSH2 0x10CC PUSH1 0x0 DUP4 ADD DUP5 PUSH2 0xE9B JUMP JUMPDEST SWAP3 SWAP2 POP POP JUMP JUMPDEST PUSH1 0x0 DUP3 DUP3 MSTORE PUSH1 0x20 DUP3 ADD SWAP1 POP SWAP3 SWAP2 POP POP JUMP JUMPDEST PUSH1 0x0 PUSH2 0x10EE DUP3 PUSH2 0x1248 JUMP JUMPDEST SWAP2 POP PUSH2 0x10F9 DUP4 PUSH2 0x1248 JUMP JUMPDEST SWAP3 POP DUP3 PUSH32 0xFFFFFFFFFFFFFFFFFFFFFFFFFFFFFFFFFFFFFFFFFFFFFFFFFFFFFFFFFFFFFFFF SUB DUP3 GT ISZERO PUSH2 0x112E JUMPI PUSH2 0x112D PUSH2 0x1252 JUMP JUMPDEST JUMPDEST DUP3 DUP3 ADD SWAP1 POP SWAP3 SWAP2 POP POP JUMP JUMPDEST PUSH1 0x0 PUSH2 0x1144 DUP3 PUSH2 0x1248 JUMP JUMPDEST SWAP2 POP PUSH2 0x114F DUP4 PUSH2 0x1248 JUMP JUMPDEST SWAP3 POP DUP3 PUSH2 0x115F JUMPI PUSH2 0x115E PUSH2 0x1281 JUMP JUMPDEST JUMPDEST DUP3 DUP3 DIV SWAP1 POP SWAP3 SWAP2 POP POP JUMP JUMPDEST PUSH1 0x0 PUSH2 0x1175 DUP3 PUSH2 0x1248 JUMP JUMPDEST SWAP2 POP PUSH2 0x1180 DUP4 PUSH2 0x1248 JUMP JUMPDEST SWAP3 POP DUP2 PUSH32 0xFFFFFFFFFFFFFFFFFFFFFFFFFFFFFFFFFFFFFFFFFFFFFFFFFFFFFFFFFFFFFFFF DIV DUP4 GT DUP3 ISZERO ISZERO AND ISZERO PUSH2 0x11B9 JUMPI PUSH2 0x11B8 PUSH2 0x1252 JUMP JUMPDEST JUMPDEST DUP3 DUP3 MUL SWAP1 POP SWAP3 SWAP2 POP POP JUMP JUMPDEST PUSH1 0x0 PUSH2 0x11CF DUP3 PUSH2 0x1248 JUMP JUMPDEST SWAP2 POP PUSH2 0x11DA DUP4 PUSH2 0x1248 JUMP JUMPDEST SWAP3 POP DUP3 DUP3 LT ISZERO PUSH2 0x11ED JUMPI PUSH2 0x11EC PUSH2 0x1252 JUMP JUMPDEST JUMPDEST DUP3 DUP3 SUB SWAP1 POP SWAP3 SWAP2 POP POP JUMP JUMPDEST PUSH1 0x0 PUSH2 0x1203 DUP3 PUSH2 0x1228 JUMP JUMPDEST SWAP1 POP SWAP2 SWAP1 POP JUMP JUMPDEST PUSH1 0x0 PUSH2 0x1215 DUP3 PUSH2 0x1228 JUMP JUMPDEST SWAP1 POP SWAP2 SWAP1 POP JUMP JUMPDEST PUSH1 0x0 DUP2 ISZERO ISZERO SWAP1 POP SWAP2 SWAP1 POP JUMP JUMPDEST PUSH1 0x0 PUSH20 0xFFFFFFFFFFFFFFFFFFFFFFFFFFFFFFFFFFFFFFFF DUP3 AND SWAP1 POP SWAP2 SWAP1 POP JUMP JUMPDEST PUSH1 0x0 DUP2 SWAP1 POP SWAP2 SWAP1 POP JUMP JUMPDEST PUSH32 0x4E487B7100000000000000000000000000000000000000000000000000000000 PUSH1 0x0 MSTORE PUSH1 0x11 PUSH1 0x4 MSTORE PUSH1 0x24 PUSH1 0x0 REVERT JUMPDEST PUSH32 0x4E487B7100000000000000000000000000000000000000000000000000000000 PUSH1 0x0 MSTORE PUSH1 0x12 PUSH1 0x4 MSTORE PUSH1 0x24 PUSH1 0x0 REVERT JUMPDEST PUSH1 0x0 DUP1 REVERT JUMPDEST PUSH32 0x4D6F6E6579207769746864726177656E20746F00000000000000000000000000 PUSH1 0x0 DUP3 ADD MSTORE POP JUMP JUMPDEST PUSH32 0x4F6E6C7920616C6C6F7765642067617465732063616E20616363657373207468 PUSH1 0x0 DUP3 ADD MSTORE PUSH32 0x6973206D6574686F640000000000000000000000000000000000000000000000 PUSH1 0x20 DUP3 ADD MSTORE POP JUMP JUMPDEST PUSH32 0x596F7520646F6E2774206861766520616E79206D6F6E657920696E2068657265 PUSH1 0x0 DUP3 ADD MSTORE POP JUMP JUMPDEST PUSH32 0x4D696E696D756D20312045746865722052657175697265640000000000000000 PUSH1 0x0 DUP3 ADD MSTORE POP JUMP JUMPDEST PUSH32 0x596F7520646F6E27742068617665206E6F2070656E64696E6720776974686472 PUSH1 0x0 DUP3 ADD MSTORE PUSH32 0x61776C7300000000000000000000000000000000000000000000000000000000 PUSH1 0x20 DUP3 ADD MSTORE POP JUMP JUMPDEST PUSH32 0x7374616B65640000000000000000000000000000000000000000000000000000 PUSH1 0x0 DUP3 ADD MSTORE POP JUMP JUMPDEST PUSH32 0x537562737472616374696F6E206661696C640000000000000000000000000000 PUSH1 0x0 DUP3 ADD MSTORE POP JUMP JUMPDEST PUSH32 0x4164646974696F6E206661696C65640000000000000000000000000000000000 PUSH1 0x0 DUP3 ADD MSTORE POP JUMP JUMPDEST PUSH32 0x596F752073686F756C642061746C65617374207374616B6520666F722061206D PUSH1 0x0 DUP3 ADD MSTORE PUSH32 0x6F6E747900000000000000000000000000000000000000000000000000000000 PUSH1 0x20 DUP3 ADD MSTORE POP JUMP JUMPDEST PUSH32 0x4469766973696F6E206661696C64000000000000000000000000000000000000 PUSH1 0x0 DUP3 ADD MSTORE POP JUMP JUMPDEST PUSH32 0x446F65736E2774206861766520656E6F7567682062616C616E636520696E2074 PUSH1 0x0 DUP3 ADD MSTORE PUSH32 0x68652062616E6B00000000000000000000000000000000000000000000000000 PUSH1 0x20 DUP3 ADD MSTORE POP JUMP JUMPDEST PUSH32 0x536F72727920776520646F6E2774206861766520656E6F756768206D6F6E6579 PUSH1 0x0 DUP3 ADD MSTORE PUSH32 0x20736F20636F6D656261636B206C617465720000000000000000000000000000 PUSH1 0x20 DUP3 ADD MSTORE POP JUMP JUMPDEST PUSH32 0x4D756C7469706C69636174696F6E206661696C64000000000000000000000000 PUSH1 0x0 DUP3 ADD MSTORE POP JUMP JUMPDEST PUSH2 0x1591 DUP2 PUSH2 0x11F8 JUMP JUMPDEST DUP2 EQ PUSH2 0x159C JUMPI PUSH1 0x0 DUP1 REVERT JUMPDEST POP JUMP JUMPDEST PUSH2 0x15A8 DUP2 PUSH2 0x1248 JUMP JUMPDEST DUP2 EQ PUSH2 0x15B3 JUMPI PUSH1 0x0 DUP1 REVERT JUMPDEST POP JUMP INVALID LOG2 PUSH5 0x6970667358 0x22 SLT KECCAK256 SWAP10 PUSH8 0xE24E149F062E98B6 0xDA ADDRESS 0xAA ADDRESS CREATE 0xBB 0xB3 0xC 0xEC 0xEF PUSH16 0xC3727BB76D55E4619C788D64736F6C63 NUMBER STOP ADDMOD SMOD STOP CALLER "
				},
				"gasEstimates": {
					"creation": {
						"codeDepositCost": "1122400",
						"executionCost": "49745",
						"totalCost": "1172145"
					},
					"external": {
						"": "196",
						"allowed_pools(address)": "2911",
						"deposit()": "infinite",
						"depositWithdraw()": "infinite",
						"editor()": "2536",
						"gateWithdrawl()": "infinite",
						"lendingWithdraw(uint256,address)": "infinite",
						"minimumAmt()": "2474",
						"owner()": "2514",
						"pendingPayment(address)": "2858",
						"stakedAmount(address)": "2924",
						"startTime(address)": "2903"
					}
				},
				"methodIdentifiers": {
					"allowed_pools(address)": "c02b2092",
					"deposit()": "d0e30db0",
					"depositWithdraw()": "6e0e0da2",
					"editor()": "a464d265",
					"gateWithdrawl()": "56852391",
					"lendingWithdraw(uint256,address)": "3607999b",
					"minimumAmt()": "650fad76",
					"owner()": "8da5cb5b",
					"pendingPayment(address)": "aeae177c",
					"stakedAmount(address)": "f9931855",
					"startTime(address)": "6e1dc66e"
				}
			},
			"userdoc": {
				"kind": "user",
				"methods": {
					"deposit()": {
						"notice": "lenders can deposit money to lending pool"
					},
					"depositWithdraw()": {
						"notice": "notice Stakers can use this function to take out thier money"
					}
				},
				"notice": "Lending pool for Swip3",
				"version": 1
			}
		}
	}
}