{
	"contracts/LendingPool.sol": {
		"LendingPool": {
			"abi": [
				{
					"inputs": [],
					"stateMutability": "nonpayable",
					"type": "constructor"
				},
				{
					"anonymous": false,
					"inputs": [
						{
							"indexed": false,
							"internalType": "string",
							"name": "message",
							"type": "string"
						},
						{
							"indexed": false,
							"internalType": "address",
							"name": "from",
							"type": "address"
						}
					],
					"name": "LendingPoolMessage",
					"type": "event"
				},
				{
					"stateMutability": "payable",
					"type": "fallback"
				},
				{
					"inputs": [],
					"name": "deposit",
					"outputs": [],
					"stateMutability": "payable",
					"type": "function"
				},
				{
					"inputs": [],
					"name": "depositWithdraw",
					"outputs": [],
					"stateMutability": "nonpayable",
					"type": "function"
				},
				{
					"inputs": [],
					"name": "gateWithdrawl",
					"outputs": [],
					"stateMutability": "nonpayable",
					"type": "function"
				},
				{
					"inputs": [
						{
							"internalType": "uint256",
							"name": "amount",
							"type": "uint256"
						},
						{
							"internalType": "address",
							"name": "to",
							"type": "address"
						}
					],
					"name": "lendingWithdraw",
					"outputs": [],
					"stateMutability": "payable",
					"type": "function"
				},
				{
					"inputs": [],
					"name": "minimumAmt",
					"outputs": [
						{
							"internalType": "uint256",
							"name": "",
							"type": "uint256"
						}
					],
					"stateMutability": "view",
					"type": "function"
				},
				{
					"inputs": [],
					"name": "owner",
					"outputs": [
						{
							"internalType": "address payable",
							"name": "",
							"type": "address"
						}
					],
					"stateMutability": "view",
					"type": "function"
				},
				{
					"inputs": [
						{
							"internalType": "address",
							"name": "",
							"type": "address"
						}
					],
					"name": "pendingPayment",
					"outputs": [
						{
							"internalType": "uint256",
							"name": "",
							"type": "uint256"
						}
					],
					"stateMutability": "view",
					"type": "function"
				},
				{
					"inputs": [
						{
							"internalType": "address",
							"name": "",
							"type": "address"
						}
					],
					"name": "stakedAmount",
					"outputs": [
						{
							"internalType": "uint256",
							"name": "",
							"type": "uint256"
						}
					],
					"stateMutability": "view",
					"type": "function"
				},
				{
					"inputs": [
						{
							"internalType": "address",
							"name": "",
							"type": "address"
						}
					],
					"name": "startTime",
					"outputs": [
						{
							"internalType": "uint256",
							"name": "",
							"type": "uint256"
						}
					],
					"stateMutability": "view",
					"type": "function"
				},
				{
					"stateMutability": "payable",
					"type": "receive"
				}
			],
			"devdoc": {
				"author": "Hileamlak Yitayew, Matt Tengtrakool",
				"details": "need help review ",
				"kind": "dev",
				"methods": {},
				"title": "LendingPool ",
				"version": 1
			},
			"evm": {
				"assembly": "    /* \"contracts/LendingPool.sol\":219:2832  contract LendingPool  {... */\n  mstore(0x40, 0x80)\n    /* \"contracts/LendingPool.sol\":309:316  1 ether */\n  0x0de0b6b3a7640000\n    /* \"contracts/LendingPool.sol\":281:316  uint256 public minimumAmt = 1 ether */\n  0x00\n  sstore\n    /* \"contracts/LendingPool.sol\":668:795  constructor() {... */\n  callvalue\n  dup1\n  iszero\n  tag_1\n  jumpi\n  0x00\n  dup1\n  revert\ntag_1:\n  pop\n    /* \"contracts/LendingPool.sol\":708:718  msg.sender */\n  caller\n    /* \"contracts/LendingPool.sol\":692:697  owner */\n  0x01\n  0x00\n    /* \"contracts/LendingPool.sol\":692:719  owner = payable(msg.sender) */\n  0x0100\n  exp\n  dup2\n  sload\n  dup2\n  0xffffffffffffffffffffffffffffffffffffffff\n  mul\n  not\n  and\n  swap1\n  dup4\n  0xffffffffffffffffffffffffffffffffffffffff\n  and\n  mul\n  or\n  swap1\n  sstore\n  pop\n    /* \"contracts/LendingPool.sol\":734:788  LendingPoolMessage(\"Lending pool created\", msg.sender) */\n  0xf67e7992d539193fc243c42fe89f8fab49013e8e4fb18cfa891dc51adcaccc80\n    /* \"contracts/LendingPool.sol\":777:787  msg.sender */\n  caller\n    /* \"contracts/LendingPool.sol\":734:788  LendingPoolMessage(\"Lending pool created\", msg.sender) */\n  mload(0x40)\n  tag_4\n  swap2\n  swap1\n  tag_5\n  jump\t// in\ntag_4:\n  mload(0x40)\n  dup1\n  swap2\n  sub\n  swap1\n  log1\n    /* \"contracts/LendingPool.sol\":219:2832  contract LendingPool  {... */\n  jump(tag_6)\n    /* \"#utility.yul\":7:125   */\ntag_8:\n    /* \"#utility.yul\":94:118   */\n  tag_10\n    /* \"#utility.yul\":112:117   */\n  dup2\n    /* \"#utility.yul\":94:118   */\n  tag_11\n  jump\t// in\ntag_10:\n    /* \"#utility.yul\":89:92   */\n  dup3\n    /* \"#utility.yul\":82:119   */\n  mstore\n    /* \"#utility.yul\":7:125   */\n  pop\n  pop\n  jump\t// out\n    /* \"#utility.yul\":131:497   */\ntag_12:\n    /* \"#utility.yul\":273:276   */\n  0x00\n    /* \"#utility.yul\":294:361   */\n  tag_14\n    /* \"#utility.yul\":358:360   */\n  0x14\n    /* \"#utility.yul\":353:356   */\n  dup4\n    /* \"#utility.yul\":294:361   */\n  tag_15\n  jump\t// in\ntag_14:\n    /* \"#utility.yul\":287:361   */\n  swap2\n  pop\n    /* \"#utility.yul\":370:463   */\n  tag_16\n    /* \"#utility.yul\":459:462   */\n  dup3\n    /* \"#utility.yul\":370:463   */\n  tag_17\n  jump\t// in\ntag_16:\n    /* \"#utility.yul\":488:490   */\n  0x20\n    /* \"#utility.yul\":483:486   */\n  dup3\n    /* \"#utility.yul\":479:491   */\n  add\n    /* \"#utility.yul\":472:491   */\n  swap1\n  pop\n    /* \"#utility.yul\":131:497   */\n  swap2\n  swap1\n  pop\n  jump\t// out\n    /* \"#utility.yul\":503:1032   */\ntag_5:\n    /* \"#utility.yul\":697:701   */\n  0x00\n    /* \"#utility.yul\":735:737   */\n  0x40\n    /* \"#utility.yul\":724:733   */\n  dup3\n    /* \"#utility.yul\":720:738   */\n  add\n    /* \"#utility.yul\":712:738   */\n  swap1\n  pop\n    /* \"#utility.yul\":784:793   */\n  dup2\n    /* \"#utility.yul\":778:782   */\n  dup2\n    /* \"#utility.yul\":774:794   */\n  sub\n    /* \"#utility.yul\":770:771   */\n  0x00\n    /* \"#utility.yul\":759:768   */\n  dup4\n    /* \"#utility.yul\":755:772   */\n  add\n    /* \"#utility.yul\":748:795   */\n  mstore\n    /* \"#utility.yul\":812:943   */\n  tag_19\n    /* \"#utility.yul\":938:942   */\n  dup2\n    /* \"#utility.yul\":812:943   */\n  tag_12\n  jump\t// in\ntag_19:\n    /* \"#utility.yul\":804:943   */\n  swap1\n  pop\n    /* \"#utility.yul\":953:1025   */\n  tag_20\n    /* \"#utility.yul\":1021:1023   */\n  0x20\n    /* \"#utility.yul\":1010:1019   */\n  dup4\n    /* \"#utility.yul\":1006:1024   */\n  add\n    /* \"#utility.yul\":997:1003   */\n  dup5\n    /* \"#utility.yul\":953:1025   */\n  tag_8\n  jump\t// in\ntag_20:\n    /* \"#utility.yul\":503:1032   */\n  swap3\n  swap2\n  pop\n  pop\n  jump\t// out\n    /* \"#utility.yul\":1038:1207   */\ntag_15:\n    /* \"#utility.yul\":1122:1133   */\n  0x00\n    /* \"#utility.yul\":1156:1162   */\n  dup3\n    /* \"#utility.yul\":1151:1154   */\n  dup3\n    /* \"#utility.yul\":1144:1163   */\n  mstore\n    /* \"#utility.yul\":1196:1200   */\n  0x20\n    /* \"#utility.yul\":1191:1194   */\n  dup3\n    /* \"#utility.yul\":1187:1201   */\n  add\n    /* \"#utility.yul\":1172:1201   */\n  swap1\n  pop\n    /* \"#utility.yul\":1038:1207   */\n  swap3\n  swap2\n  pop\n  pop\n  jump\t// out\n    /* \"#utility.yul\":1213:1309   */\ntag_11:\n    /* \"#utility.yul\":1250:1257   */\n  0x00\n    /* \"#utility.yul\":1279:1303   */\n  tag_23\n    /* \"#utility.yul\":1297:1302   */\n  dup3\n    /* \"#utility.yul\":1279:1303   */\n  tag_24\n  jump\t// in\ntag_23:\n    /* \"#utility.yul\":1268:1303   */\n  swap1\n  pop\n    /* \"#utility.yul\":1213:1309   */\n  swap2\n  swap1\n  pop\n  jump\t// out\n    /* \"#utility.yul\":1315:1441   */\ntag_24:\n    /* \"#utility.yul\":1352:1359   */\n  0x00\n    /* \"#utility.yul\":1392:1434   */\n  0xffffffffffffffffffffffffffffffffffffffff\n    /* \"#utility.yul\":1385:1390   */\n  dup3\n    /* \"#utility.yul\":1381:1435   */\n  and\n    /* \"#utility.yul\":1370:1435   */\n  swap1\n  pop\n    /* \"#utility.yul\":1315:1441   */\n  swap2\n  swap1\n  pop\n  jump\t// out\n    /* \"#utility.yul\":1447:1617   */\ntag_17:\n    /* \"#utility.yul\":1587:1609   */\n  0x4c656e64696e6720706f6f6c2063726561746564000000000000000000000000\n    /* \"#utility.yul\":1583:1584   */\n  0x00\n    /* \"#utility.yul\":1575:1581   */\n  dup3\n    /* \"#utility.yul\":1571:1585   */\n  add\n    /* \"#utility.yul\":1564:1610   */\n  mstore\n    /* \"#utility.yul\":1447:1617   */\n  pop\n  jump\t// out\n    /* \"contracts/LendingPool.sol\":219:2832  contract LendingPool  {... */\ntag_6:\n  dataSize(sub_0)\n  dup1\n  dataOffset(sub_0)\n  0x00\n  codecopy\n  0x00\n  return\nstop\n\nsub_0: assembly {\n        /* \"contracts/LendingPool.sol\":219:2832  contract LendingPool  {... */\n      mstore(0x40, 0x80)\n      jumpi(tag_1, lt(calldatasize, 0x04))\n      shr(0xe0, calldataload(0x00))\n      dup1\n      0x6e1dc66e\n      gt\n      tag_12\n      jumpi\n      dup1\n      0x6e1dc66e\n      eq\n      tag_7\n      jumpi\n      dup1\n      0x8da5cb5b\n      eq\n      tag_8\n      jumpi\n      dup1\n      0xaeae177c\n      eq\n      tag_9\n      jumpi\n      dup1\n      0xd0e30db0\n      eq\n      tag_10\n      jumpi\n      dup1\n      0xf9931855\n      eq\n      tag_11\n      jumpi\n      jump(tag_2)\n    tag_12:\n      dup1\n      0x3607999b\n      eq\n      tag_3\n      jumpi\n      dup1\n      0x56852391\n      eq\n      tag_4\n      jumpi\n      dup1\n      0x650fad76\n      eq\n      tag_5\n      jumpi\n      dup1\n      0x6e0e0da2\n      eq\n      tag_6\n      jumpi\n      jump(tag_2)\n    tag_1:\n      jumpi(tag_2, calldatasize)\n      stop\n    tag_2:\n      stop\n        /* \"contracts/LendingPool.sol\":1353:1704  function lendingWithdraw(uint256 amount, address to) public payable {... */\n    tag_3:\n      tag_17\n      0x04\n      dup1\n      calldatasize\n      sub\n      dup2\n      add\n      swap1\n      tag_18\n      swap2\n      swap1\n      tag_19\n      jump\t// in\n    tag_18:\n      tag_20\n      jump\t// in\n    tag_17:\n      stop\n        /* \"contracts/LendingPool.sol\":2478:2750  function gateWithdrawl() public {... */\n    tag_4:\n      callvalue\n      dup1\n      iszero\n      tag_21\n      jumpi\n      0x00\n      dup1\n      revert\n    tag_21:\n      pop\n      tag_22\n      tag_23\n      jump\t// in\n    tag_22:\n      stop\n        /* \"contracts/LendingPool.sol\":281:316  uint256 public minimumAmt = 1 ether */\n    tag_5:\n      callvalue\n      dup1\n      iszero\n      tag_24\n      jumpi\n      0x00\n      dup1\n      revert\n    tag_24:\n      pop\n      tag_25\n      tag_26\n      jump\t// in\n    tag_25:\n      mload(0x40)\n      tag_27\n      swap2\n      swap1\n      tag_28\n      jump\t// in\n    tag_27:\n      mload(0x40)\n      dup1\n      swap2\n      sub\n      swap1\n      return\n        /* \"contracts/LendingPool.sol\":1778:2402  function depositWithdraw() public{... */\n    tag_6:\n      callvalue\n      dup1\n      iszero\n      tag_29\n      jumpi\n      0x00\n      dup1\n      revert\n    tag_29:\n      pop\n      tag_30\n      tag_31\n      jump\t// in\n    tag_30:\n      stop\n        /* \"contracts/LendingPool.sol\":448:492  mapping(address => uint256) public startTime */\n    tag_7:\n      callvalue\n      dup1\n      iszero\n      tag_32\n      jumpi\n      0x00\n      dup1\n      revert\n    tag_32:\n      pop\n      tag_33\n      0x04\n      dup1\n      calldatasize\n      sub\n      dup2\n      add\n      swap1\n      tag_34\n      swap2\n      swap1\n      tag_35\n      jump\t// in\n    tag_34:\n      tag_36\n      jump\t// in\n    tag_33:\n      mload(0x40)\n      tag_37\n      swap2\n      swap1\n      tag_28\n      jump\t// in\n    tag_37:\n      mload(0x40)\n      dup1\n      swap2\n      sub\n      swap1\n      return\n        /* \"contracts/LendingPool.sol\":323:351  address payable public owner */\n    tag_8:\n      callvalue\n      dup1\n      iszero\n      tag_38\n      jumpi\n      0x00\n      dup1\n      revert\n    tag_38:\n      pop\n      tag_39\n      tag_40\n      jump\t// in\n    tag_39:\n      mload(0x40)\n      tag_41\n      swap2\n      swap1\n      tag_42\n      jump\t// in\n    tag_41:\n      mload(0x40)\n      dup1\n      swap2\n      sub\n      swap1\n      return\n        /* \"contracts/LendingPool.sol\":551:600  mapping(address => uint256) public pendingPayment */\n    tag_9:\n      callvalue\n      dup1\n      iszero\n      tag_43\n      jumpi\n      0x00\n      dup1\n      revert\n    tag_43:\n      pop\n      tag_44\n      0x04\n      dup1\n      calldatasize\n      sub\n      dup2\n      add\n      swap1\n      tag_45\n      swap2\n      swap1\n      tag_35\n      jump\t// in\n    tag_45:\n      tag_46\n      jump\t// in\n    tag_44:\n      mload(0x40)\n      tag_47\n      swap2\n      swap1\n      tag_28\n      jump\t// in\n    tag_47:\n      mload(0x40)\n      dup1\n      swap2\n      sub\n      swap1\n      return\n        /* \"contracts/LendingPool.sol\":944:1347  function deposit() public payable {... */\n    tag_10:\n      tag_48\n      tag_49\n      jump\t// in\n    tag_48:\n      stop\n        /* \"contracts/LendingPool.sol\":498:545  mapping(address => uint256) public stakedAmount */\n    tag_11:\n      callvalue\n      dup1\n      iszero\n      tag_50\n      jumpi\n      0x00\n      dup1\n      revert\n    tag_50:\n      pop\n      tag_51\n      0x04\n      dup1\n      calldatasize\n      sub\n      dup2\n      add\n      swap1\n      tag_52\n      swap2\n      swap1\n      tag_35\n      jump\t// in\n    tag_52:\n      tag_53\n      jump\t// in\n    tag_51:\n      mload(0x40)\n      tag_54\n      swap2\n      swap1\n      tag_28\n      jump\t// in\n    tag_54:\n      mload(0x40)\n      dup1\n      swap2\n      sub\n      swap1\n      return\n        /* \"contracts/LendingPool.sol\":1353:1704  function lendingWithdraw(uint256 amount, address to) public payable {... */\n    tag_20:\n        /* \"contracts/LendingPool.sol\":1458:1472  totalDeposited */\n      sload(0x02)\n        /* \"contracts/LendingPool.sol\":1448:1454  amount */\n      dup3\n        /* \"contracts/LendingPool.sol\":1448:1472  amount <= totalDeposited */\n      gt\n      iszero\n        /* \"contracts/LendingPool.sol\":1440:1516  require(amount <= totalDeposited, \"Doesn't have enough balance in the bank\") */\n      tag_56\n      jumpi\n      mload(0x40)\n      0x08c379a000000000000000000000000000000000000000000000000000000000\n      dup2\n      mstore\n      0x04\n      add\n      tag_57\n      swap1\n      tag_58\n      jump\t// in\n    tag_57:\n      mload(0x40)\n      dup1\n      swap2\n      sub\n      swap1\n      revert\n    tag_56:\n        /* \"contracts/LendingPool.sol\":1543:1569  totalDeposited.sub(amount) */\n      tag_59\n        /* \"contracts/LendingPool.sol\":1562:1568  amount */\n      dup3\n        /* \"contracts/LendingPool.sol\":1543:1557  totalDeposited */\n      sload(0x02)\n        /* \"contracts/LendingPool.sol\":1543:1561  totalDeposited.sub */\n      tag_60\n      swap1\n        /* \"contracts/LendingPool.sol\":1543:1569  totalDeposited.sub(amount) */\n      swap2\n      swap1\n      0xffffffff\n      and\n      jump\t// in\n    tag_59:\n        /* \"contracts/LendingPool.sol\":1526:1540  totalDeposited */\n      0x02\n        /* \"contracts/LendingPool.sol\":1526:1569  totalDeposited = totalDeposited.sub(amount) */\n      dup2\n      swap1\n      sstore\n      pop\n        /* \"contracts/LendingPool.sol\":1353:1704  function lendingWithdraw(uint256 amount, address to) public payable {... */\n      pop\n      pop\n      jump\t// out\n        /* \"contracts/LendingPool.sol\":2478:2750  function gateWithdrawl() public {... */\n    tag_23:\n        /* \"contracts/LendingPool.sol\":2557:2558  0 */\n      0x00\n        /* \"contracts/LendingPool.sol\":2528:2542  pendingPayment */\n      0x06\n        /* \"contracts/LendingPool.sol\":2528:2554  pendingPayment[msg.sender] */\n      0x00\n        /* \"contracts/LendingPool.sol\":2543:2553  msg.sender */\n      caller\n        /* \"contracts/LendingPool.sol\":2528:2554  pendingPayment[msg.sender] */\n      0xffffffffffffffffffffffffffffffffffffffff\n      and\n      0xffffffffffffffffffffffffffffffffffffffff\n      and\n      dup2\n      mstore\n      0x20\n      add\n      swap1\n      dup2\n      mstore\n      0x20\n      add\n      0x00\n      keccak256\n      sload\n        /* \"contracts/LendingPool.sol\":2528:2558  pendingPayment[msg.sender] > 0 */\n      gt\n        /* \"contracts/LendingPool.sol\":2520:2599  require(pendingPayment[msg.sender] > 0, \"You don't have no pending withdrawls\") */\n      tag_62\n      jumpi\n      mload(0x40)\n      0x08c379a000000000000000000000000000000000000000000000000000000000\n      dup2\n      mstore\n      0x04\n      add\n      tag_63\n      swap1\n      tag_64\n      jump\t// in\n    tag_63:\n      mload(0x40)\n      dup1\n      swap2\n      sub\n      swap1\n      revert\n    tag_62:\n        /* \"contracts/LendingPool.sol\":2609:2623  uint256 amount */\n      0x00\n        /* \"contracts/LendingPool.sol\":2626:2640  pendingPayment */\n      0x06\n        /* \"contracts/LendingPool.sol\":2626:2652  pendingPayment[msg.sender] */\n      0x00\n        /* \"contracts/LendingPool.sol\":2641:2651  msg.sender */\n      caller\n        /* \"contracts/LendingPool.sol\":2626:2652  pendingPayment[msg.sender] */\n      0xffffffffffffffffffffffffffffffffffffffff\n      and\n      0xffffffffffffffffffffffffffffffffffffffff\n      and\n      dup2\n      mstore\n      0x20\n      add\n      swap1\n      dup2\n      mstore\n      0x20\n      add\n      0x00\n      keccak256\n      sload\n        /* \"contracts/LendingPool.sol\":2609:2652  uint256 amount = pendingPayment[msg.sender] */\n      swap1\n      pop\n        /* \"contracts/LendingPool.sol\":2692:2693  0 */\n      0x00\n        /* \"contracts/LendingPool.sol\":2662:2676  pendingPayment */\n      0x06\n        /* \"contracts/LendingPool.sol\":2662:2688  pendingPayment[msg.sender] */\n      0x00\n        /* \"contracts/LendingPool.sol\":2677:2687  msg.sender */\n      caller\n        /* \"contracts/LendingPool.sol\":2662:2688  pendingPayment[msg.sender] */\n      0xffffffffffffffffffffffffffffffffffffffff\n      and\n      0xffffffffffffffffffffffffffffffffffffffff\n      and\n      dup2\n      mstore\n      0x20\n      add\n      swap1\n      dup2\n      mstore\n      0x20\n      add\n      0x00\n      keccak256\n        /* \"contracts/LendingPool.sol\":2662:2693  pendingPayment[msg.sender] =  0 */\n      dup2\n      swap1\n      sstore\n      pop\n        /* \"contracts/LendingPool.sol\":2715:2725  msg.sender */\n      caller\n        /* \"contracts/LendingPool.sol\":2707:2735  payable(msg.sender).transfer */\n      0xffffffffffffffffffffffffffffffffffffffff\n      and\n        /* \"contracts/LendingPool.sol\":2707:2743  payable(msg.sender).transfer(amount) */\n      0x08fc\n        /* \"contracts/LendingPool.sol\":2736:2742  amount */\n      dup3\n        /* \"contracts/LendingPool.sol\":2707:2743  payable(msg.sender).transfer(amount) */\n      swap1\n      dup2\n      iszero\n      mul\n      swap1\n      mload(0x40)\n      0x00\n      mload(0x40)\n      dup1\n      dup4\n      sub\n      dup2\n      dup6\n      dup9\n      dup9\n      call\n      swap4\n      pop\n      pop\n      pop\n      pop\n      iszero\n      dup1\n      iszero\n      tag_66\n      jumpi\n      returndatasize\n      0x00\n      dup1\n      returndatacopy\n      revert(0x00, returndatasize)\n    tag_66:\n      pop\n        /* \"contracts/LendingPool.sol\":2510:2750  {... */\n      pop\n        /* \"contracts/LendingPool.sol\":2478:2750  function gateWithdrawl() public {... */\n      jump\t// out\n        /* \"contracts/LendingPool.sol\":281:316  uint256 public minimumAmt = 1 ether */\n    tag_26:\n      sload(0x00)\n      dup2\n      jump\t// out\n        /* \"contracts/LendingPool.sol\":1778:2402  function depositWithdraw() public{... */\n    tag_31:\n        /* \"contracts/LendingPool.sol\":1856:1857  0 */\n      0x00\n        /* \"contracts/LendingPool.sol\":1829:1841  stakedAmount */\n      0x05\n        /* \"contracts/LendingPool.sol\":1829:1853  stakedAmount[msg.sender] */\n      0x00\n        /* \"contracts/LendingPool.sol\":1842:1852  msg.sender */\n      caller\n        /* \"contracts/LendingPool.sol\":1829:1853  stakedAmount[msg.sender] */\n      0xffffffffffffffffffffffffffffffffffffffff\n      and\n      0xffffffffffffffffffffffffffffffffffffffff\n      and\n      dup2\n      mstore\n      0x20\n      add\n      swap1\n      dup2\n      mstore\n      0x20\n      add\n      0x00\n      keccak256\n      sload\n        /* \"contracts/LendingPool.sol\":1829:1857  stakedAmount[msg.sender] > 0 */\n      gt\n        /* \"contracts/LendingPool.sol\":1821:1894  require(stakedAmount[msg.sender] > 0, \"You don't have any money in here\") */\n      tag_68\n      jumpi\n      mload(0x40)\n      0x08c379a000000000000000000000000000000000000000000000000000000000\n      dup2\n      mstore\n      0x04\n      add\n      tag_69\n      swap1\n      tag_70\n      jump\t// in\n    tag_69:\n      mload(0x40)\n      dup1\n      swap2\n      sub\n      swap1\n      revert\n    tag_68:\n        /* \"contracts/LendingPool.sol\":1904:1923  uint256 time_staked */\n      0x00\n        /* \"contracts/LendingPool.sol\":1926:1979  (startTime[msg.sender] -  block.timestamp).div(86400) */\n      tag_71\n        /* \"contracts/LendingPool.sol\":1973:1978  86400 */\n      0x015180\n        /* \"contracts/LendingPool.sol\":1952:1967  block.timestamp */\n      timestamp\n        /* \"contracts/LendingPool.sol\":1927:1936  startTime */\n      0x04\n        /* \"contracts/LendingPool.sol\":1927:1948  startTime[msg.sender] */\n      0x00\n        /* \"contracts/LendingPool.sol\":1937:1947  msg.sender */\n      caller\n        /* \"contracts/LendingPool.sol\":1927:1948  startTime[msg.sender] */\n      0xffffffffffffffffffffffffffffffffffffffff\n      and\n      0xffffffffffffffffffffffffffffffffffffffff\n      and\n      dup2\n      mstore\n      0x20\n      add\n      swap1\n      dup2\n      mstore\n      0x20\n      add\n      0x00\n      keccak256\n      sload\n        /* \"contracts/LendingPool.sol\":1927:1967  startTime[msg.sender] -  block.timestamp */\n      tag_72\n      swap2\n      swap1\n      tag_73\n      jump\t// in\n    tag_72:\n        /* \"contracts/LendingPool.sol\":1926:1972  (startTime[msg.sender] -  block.timestamp).div */\n      tag_74\n      swap1\n        /* \"contracts/LendingPool.sol\":1926:1979  (startTime[msg.sender] -  block.timestamp).div(86400) */\n      swap2\n      swap1\n      0xffffffff\n      and\n      jump\t// in\n    tag_71:\n        /* \"contracts/LendingPool.sol\":1904:1979  uint256 time_staked = (startTime[msg.sender] -  block.timestamp).div(86400) */\n      swap1\n      pop\n        /* \"contracts/LendingPool.sol\":2011:2021  30 * 86400 */\n      0x278d00\n        /* \"contracts/LendingPool.sol\":1997:2008  time_staked */\n      dup2\n        /* \"contracts/LendingPool.sol\":1997:2021  time_staked > 30 * 86400 */\n      gt\n        /* \"contracts/LendingPool.sol\":1989:2062  require(time_staked > 30 * 86400, \"You should atleast stake for a monty\") */\n      tag_75\n      jumpi\n      mload(0x40)\n      0x08c379a000000000000000000000000000000000000000000000000000000000\n      dup2\n      mstore\n      0x04\n      add\n      tag_76\n      swap1\n      tag_77\n      jump\t// in\n    tag_76:\n      mload(0x40)\n      dup1\n      swap2\n      sub\n      swap1\n      revert\n    tag_75:\n        /* \"contracts/LendingPool.sol\":2072:2085  uint256 yield */\n      0x00\n        /* \"contracts/LendingPool.sol\":2115:2172  time_staked.mul(5).mul(stakedAmount[msg.sender]).div(100) */\n      tag_78\n        /* \"contracts/LendingPool.sol\":2168:2171  100 */\n      0x64\n        /* \"contracts/LendingPool.sol\":2115:2163  time_staked.mul(5).mul(stakedAmount[msg.sender]) */\n      tag_79\n        /* \"contracts/LendingPool.sol\":2138:2150  stakedAmount */\n      0x05\n        /* \"contracts/LendingPool.sol\":2138:2162  stakedAmount[msg.sender] */\n      0x00\n        /* \"contracts/LendingPool.sol\":2151:2161  msg.sender */\n      caller\n        /* \"contracts/LendingPool.sol\":2138:2162  stakedAmount[msg.sender] */\n      0xffffffffffffffffffffffffffffffffffffffff\n      and\n      0xffffffffffffffffffffffffffffffffffffffff\n      and\n      dup2\n      mstore\n      0x20\n      add\n      swap1\n      dup2\n      mstore\n      0x20\n      add\n      0x00\n      keccak256\n      sload\n        /* \"contracts/LendingPool.sol\":2115:2133  time_staked.mul(5) */\n      tag_80\n        /* \"contracts/LendingPool.sol\":2131:2132  5 */\n      0x05\n        /* \"contracts/LendingPool.sol\":2115:2126  time_staked */\n      dup8\n        /* \"contracts/LendingPool.sol\":2115:2130  time_staked.mul */\n      tag_81\n      swap1\n        /* \"contracts/LendingPool.sol\":2115:2133  time_staked.mul(5) */\n      swap2\n      swap1\n      0xffffffff\n      and\n      jump\t// in\n    tag_80:\n        /* \"contracts/LendingPool.sol\":2115:2137  time_staked.mul(5).mul */\n      tag_81\n      swap1\n        /* \"contracts/LendingPool.sol\":2115:2163  time_staked.mul(5).mul(stakedAmount[msg.sender]) */\n      swap2\n      swap1\n      0xffffffff\n      and\n      jump\t// in\n    tag_79:\n        /* \"contracts/LendingPool.sol\":2115:2167  time_staked.mul(5).mul(stakedAmount[msg.sender]).div */\n      tag_74\n      swap1\n        /* \"contracts/LendingPool.sol\":2115:2172  time_staked.mul(5).mul(stakedAmount[msg.sender]).div(100) */\n      swap2\n      swap1\n      0xffffffff\n      and\n      jump\t// in\n    tag_78:\n        /* \"contracts/LendingPool.sol\":2088:2100  stakedAmount */\n      0x05\n        /* \"contracts/LendingPool.sol\":2088:2112  stakedAmount[msg.sender] */\n      0x00\n        /* \"contracts/LendingPool.sol\":2101:2111  msg.sender */\n      caller\n        /* \"contracts/LendingPool.sol\":2088:2112  stakedAmount[msg.sender] */\n      0xffffffffffffffffffffffffffffffffffffffff\n      and\n      0xffffffffffffffffffffffffffffffffffffffff\n      and\n      dup2\n      mstore\n      0x20\n      add\n      swap1\n      dup2\n      mstore\n      0x20\n      add\n      0x00\n      keccak256\n      sload\n        /* \"contracts/LendingPool.sol\":2088:2172  stakedAmount[msg.sender] + time_staked.mul(5).mul(stakedAmount[msg.sender]).div(100) */\n      tag_82\n      swap2\n      swap1\n      tag_83\n      jump\t// in\n    tag_82:\n        /* \"contracts/LendingPool.sol\":2072:2172  uint256 yield = stakedAmount[msg.sender] + time_staked.mul(5).mul(stakedAmount[msg.sender]).div(100) */\n      swap1\n      pop\n        /* \"contracts/LendingPool.sol\":2198:2212  totalDeposited */\n      sload(0x02)\n        /* \"contracts/LendingPool.sol\":2190:2195  yield */\n      dup2\n        /* \"contracts/LendingPool.sol\":2190:2212  yield < totalDeposited */\n      lt\n        /* \"contracts/LendingPool.sol\":2182:2267  require(yield < totalDeposited, \"Sorry we don't have enough money so comeback later\") */\n      tag_84\n      jumpi\n      mload(0x40)\n      0x08c379a000000000000000000000000000000000000000000000000000000000\n      dup2\n      mstore\n      0x04\n      add\n      tag_85\n      swap1\n      tag_86\n      jump\t// in\n    tag_85:\n      mload(0x40)\n      dup1\n      swap2\n      sub\n      swap1\n      revert\n    tag_84:\n        /* \"contracts/LendingPool.sol\":2294:2319  totalDeposited.sub(yield) */\n      tag_87\n        /* \"contracts/LendingPool.sol\":2313:2318  yield */\n      dup2\n        /* \"contracts/LendingPool.sol\":2294:2308  totalDeposited */\n      sload(0x02)\n        /* \"contracts/LendingPool.sol\":2294:2312  totalDeposited.sub */\n      tag_60\n      swap1\n        /* \"contracts/LendingPool.sol\":2294:2319  totalDeposited.sub(yield) */\n      swap2\n      swap1\n      0xffffffff\n      and\n      jump\t// in\n    tag_87:\n        /* \"contracts/LendingPool.sol\":2277:2291  totalDeposited */\n      0x02\n        /* \"contracts/LendingPool.sol\":2277:2319  totalDeposited = totalDeposited.sub(yield) */\n      dup2\n      swap1\n      sstore\n      pop\n        /* \"contracts/LendingPool.sol\":2358:2395  pendingPayment[msg.sender].add(yield) */\n      tag_88\n        /* \"contracts/LendingPool.sol\":2389:2394  yield */\n      dup2\n        /* \"contracts/LendingPool.sol\":2358:2372  pendingPayment */\n      0x06\n        /* \"contracts/LendingPool.sol\":2358:2384  pendingPayment[msg.sender] */\n      0x00\n        /* \"contracts/LendingPool.sol\":2373:2383  msg.sender */\n      caller\n        /* \"contracts/LendingPool.sol\":2358:2384  pendingPayment[msg.sender] */\n      0xffffffffffffffffffffffffffffffffffffffff\n      and\n      0xffffffffffffffffffffffffffffffffffffffff\n      and\n      dup2\n      mstore\n      0x20\n      add\n      swap1\n      dup2\n      mstore\n      0x20\n      add\n      0x00\n      keccak256\n      sload\n        /* \"contracts/LendingPool.sol\":2358:2388  pendingPayment[msg.sender].add */\n      tag_89\n      swap1\n        /* \"contracts/LendingPool.sol\":2358:2395  pendingPayment[msg.sender].add(yield) */\n      swap2\n      swap1\n      0xffffffff\n      and\n      jump\t// in\n    tag_88:\n        /* \"contracts/LendingPool.sol\":2329:2343  pendingPayment */\n      0x06\n        /* \"contracts/LendingPool.sol\":2329:2355  pendingPayment[msg.sender] */\n      0x00\n        /* \"contracts/LendingPool.sol\":2344:2354  msg.sender */\n      caller\n        /* \"contracts/LendingPool.sol\":2329:2355  pendingPayment[msg.sender] */\n      0xffffffffffffffffffffffffffffffffffffffff\n      and\n      0xffffffffffffffffffffffffffffffffffffffff\n      and\n      dup2\n      mstore\n      0x20\n      add\n      swap1\n      dup2\n      mstore\n      0x20\n      add\n      0x00\n      keccak256\n        /* \"contracts/LendingPool.sol\":2329:2395  pendingPayment[msg.sender] = pendingPayment[msg.sender].add(yield) */\n      dup2\n      swap1\n      sstore\n      pop\n        /* \"contracts/LendingPool.sol\":1811:2402  {... */\n      pop\n      pop\n        /* \"contracts/LendingPool.sol\":1778:2402  function depositWithdraw() public{... */\n      jump\t// out\n        /* \"contracts/LendingPool.sol\":448:492  mapping(address => uint256) public startTime */\n    tag_36:\n      mstore(0x20, 0x04)\n      dup1\n      0x00\n      mstore\n      keccak256(0x00, 0x40)\n      0x00\n      swap2\n      pop\n      swap1\n      pop\n      sload\n      dup2\n      jump\t// out\n        /* \"contracts/LendingPool.sol\":323:351  address payable public owner */\n    tag_40:\n      0x01\n      0x00\n      swap1\n      sload\n      swap1\n      0x0100\n      exp\n      swap1\n      div\n      0xffffffffffffffffffffffffffffffffffffffff\n      and\n      dup2\n      jump\t// out\n        /* \"contracts/LendingPool.sol\":551:600  mapping(address => uint256) public pendingPayment */\n    tag_46:\n      mstore(0x20, 0x06)\n      dup1\n      0x00\n      mstore\n      keccak256(0x00, 0x40)\n      0x00\n      swap2\n      pop\n      swap1\n      pop\n      sload\n      dup2\n      jump\t// out\n        /* \"contracts/LendingPool.sol\":944:1347  function deposit() public payable {... */\n    tag_49:\n        /* \"contracts/LendingPool.sol\":1009:1019  minimumAmt */\n      sload(0x00)\n        /* \"contracts/LendingPool.sol\":996:1005  msg.value */\n      callvalue\n        /* \"contracts/LendingPool.sol\":996:1019  msg.value >= minimumAmt */\n      lt\n      iszero\n        /* \"contracts/LendingPool.sol\":988:1048  require(msg.value >= minimumAmt, \"Minimum 1 Ether Required\") */\n      tag_91\n      jumpi\n      mload(0x40)\n      0x08c379a000000000000000000000000000000000000000000000000000000000\n      dup2\n      mstore\n      0x04\n      add\n      tag_92\n      swap1\n      tag_93\n      jump\t// in\n    tag_92:\n      mload(0x40)\n      dup1\n      swap2\n      sub\n      swap1\n      revert\n    tag_91:\n        /* \"contracts/LendingPool.sol\":1138:1153  block.timestamp */\n      timestamp\n        /* \"contracts/LendingPool.sol\":1114:1123  startTime */\n      0x04\n        /* \"contracts/LendingPool.sol\":1114:1135  startTime[msg.sender] */\n      0x00\n        /* \"contracts/LendingPool.sol\":1124:1134  msg.sender */\n      caller\n        /* \"contracts/LendingPool.sol\":1114:1135  startTime[msg.sender] */\n      0xffffffffffffffffffffffffffffffffffffffff\n      and\n      0xffffffffffffffffffffffffffffffffffffffff\n      and\n      dup2\n      mstore\n      0x20\n      add\n      swap1\n      dup2\n      mstore\n      0x20\n      add\n      0x00\n      keccak256\n        /* \"contracts/LendingPool.sol\":1114:1153  startTime[msg.sender] = block.timestamp */\n      dup2\n      swap1\n      sstore\n      pop\n        /* \"contracts/LendingPool.sol\":1190:1229  stakedAmount[msg.sender].add(msg.value) */\n      tag_94\n        /* \"contracts/LendingPool.sol\":1219:1228  msg.value */\n      callvalue\n        /* \"contracts/LendingPool.sol\":1190:1202  stakedAmount */\n      0x05\n        /* \"contracts/LendingPool.sol\":1190:1214  stakedAmount[msg.sender] */\n      0x00\n        /* \"contracts/LendingPool.sol\":1203:1213  msg.sender */\n      caller\n        /* \"contracts/LendingPool.sol\":1190:1214  stakedAmount[msg.sender] */\n      0xffffffffffffffffffffffffffffffffffffffff\n      and\n      0xffffffffffffffffffffffffffffffffffffffff\n      and\n      dup2\n      mstore\n      0x20\n      add\n      swap1\n      dup2\n      mstore\n      0x20\n      add\n      0x00\n      keccak256\n      sload\n        /* \"contracts/LendingPool.sol\":1190:1218  stakedAmount[msg.sender].add */\n      tag_89\n      swap1\n        /* \"contracts/LendingPool.sol\":1190:1229  stakedAmount[msg.sender].add(msg.value) */\n      swap2\n      swap1\n      0xffffffff\n      and\n      jump\t// in\n    tag_94:\n        /* \"contracts/LendingPool.sol\":1163:1175  stakedAmount */\n      0x05\n        /* \"contracts/LendingPool.sol\":1163:1187  stakedAmount[msg.sender] */\n      0x00\n        /* \"contracts/LendingPool.sol\":1176:1186  msg.sender */\n      caller\n        /* \"contracts/LendingPool.sol\":1163:1187  stakedAmount[msg.sender] */\n      0xffffffffffffffffffffffffffffffffffffffff\n      and\n      0xffffffffffffffffffffffffffffffffffffffff\n      and\n      dup2\n      mstore\n      0x20\n      add\n      swap1\n      dup2\n      mstore\n      0x20\n      add\n      0x00\n      keccak256\n        /* \"contracts/LendingPool.sol\":1163:1229  stakedAmount[msg.sender] = stakedAmount[msg.sender].add(msg.value) */\n      dup2\n      swap1\n      sstore\n      pop\n        /* \"contracts/LendingPool.sol\":1256:1285  totalDeposited.add(msg.value) */\n      tag_95\n        /* \"contracts/LendingPool.sol\":1275:1284  msg.value */\n      callvalue\n        /* \"contracts/LendingPool.sol\":1256:1270  totalDeposited */\n      sload(0x02)\n        /* \"contracts/LendingPool.sol\":1256:1274  totalDeposited.add */\n      tag_89\n      swap1\n        /* \"contracts/LendingPool.sol\":1256:1285  totalDeposited.add(msg.value) */\n      swap2\n      swap1\n      0xffffffff\n      and\n      jump\t// in\n    tag_95:\n        /* \"contracts/LendingPool.sol\":1239:1253  totalDeposited */\n      0x02\n        /* \"contracts/LendingPool.sol\":1239:1285  totalDeposited = totalDeposited.add(msg.value) */\n      dup2\n      swap1\n      sstore\n      pop\n        /* \"contracts/LendingPool.sol\":1300:1340  LendingPoolMessage(\"staked\", msg.sender) */\n      0xf67e7992d539193fc243c42fe89f8fab49013e8e4fb18cfa891dc51adcaccc80\n        /* \"contracts/LendingPool.sol\":1329:1339  msg.sender */\n      caller\n        /* \"contracts/LendingPool.sol\":1300:1340  LendingPoolMessage(\"staked\", msg.sender) */\n      mload(0x40)\n      tag_96\n      swap2\n      swap1\n      tag_97\n      jump\t// in\n    tag_96:\n      mload(0x40)\n      dup1\n      swap2\n      sub\n      swap1\n      log1\n        /* \"contracts/LendingPool.sol\":944:1347  function deposit() public payable {... */\n      jump\t// out\n        /* \"contracts/LendingPool.sol\":498:545  mapping(address => uint256) public stakedAmount */\n    tag_53:\n      mstore(0x20, 0x05)\n      dup1\n      0x00\n      mstore\n      keccak256(0x00, 0x40)\n      0x00\n      swap2\n      pop\n      swap1\n      pop\n      sload\n      dup2\n      jump\t// out\n        /* \"contracts/SafeMath.sol\":245:405  function sub(uint256 a, uint256 b) internal pure returns (uint256 c) {... */\n    tag_60:\n        /* \"contracts/SafeMath.sol\":303:312  uint256 c */\n      0x00\n        /* \"contracts/SafeMath.sol\":337:338  a */\n      dup3\n        /* \"contracts/SafeMath.sol\":332:333  b */\n      dup3\n        /* \"contracts/SafeMath.sol\":332:338  b <= a */\n      gt\n      iszero\n        /* \"contracts/SafeMath.sol\":324:361  require(b <= a, \"Substraction faild\") */\n      tag_99\n      jumpi\n      mload(0x40)\n      0x08c379a000000000000000000000000000000000000000000000000000000000\n      dup2\n      mstore\n      0x04\n      add\n      tag_100\n      swap1\n      tag_101\n      jump\t// in\n    tag_100:\n      mload(0x40)\n      dup1\n      swap2\n      sub\n      swap1\n      revert\n    tag_99:\n        /* \"contracts/SafeMath.sol\":379:380  b */\n      dup2\n        /* \"contracts/SafeMath.sol\":375:376  a */\n      dup4\n        /* \"contracts/SafeMath.sol\":375:380  a - b */\n      tag_102\n      swap2\n      swap1\n      tag_73\n      jump\t// in\n    tag_102:\n        /* \"contracts/SafeMath.sol\":371:380  c = a - b */\n      swap1\n      pop\n        /* \"contracts/SafeMath.sol\":245:405  function sub(uint256 a, uint256 b) internal pure returns (uint256 c) {... */\n      swap3\n      swap2\n      pop\n      pop\n      jump\t// out\n        /* \"contracts/SafeMath.sol\":593:748  function div(uint256 a, uint256 b) internal pure returns (uint256 c) {... */\n    tag_74:\n        /* \"contracts/SafeMath.sol\":651:660  uint256 c */\n      0x00\n        /* \"contracts/SafeMath.sol\":684:685  0 */\n      dup1\n        /* \"contracts/SafeMath.sol\":680:681  b */\n      dup3\n        /* \"contracts/SafeMath.sol\":680:685  b > 0 */\n      gt\n        /* \"contracts/SafeMath.sol\":672:704  require(b > 0, \"Division faild\") */\n      tag_104\n      jumpi\n      mload(0x40)\n      0x08c379a000000000000000000000000000000000000000000000000000000000\n      dup2\n      mstore\n      0x04\n      add\n      tag_105\n      swap1\n      tag_106\n      jump\t// in\n    tag_105:\n      mload(0x40)\n      dup1\n      swap2\n      sub\n      swap1\n      revert\n    tag_104:\n        /* \"contracts/SafeMath.sol\":722:723  b */\n      dup2\n        /* \"contracts/SafeMath.sol\":718:719  a */\n      dup4\n        /* \"contracts/SafeMath.sol\":718:723  a / b */\n      tag_107\n      swap2\n      swap1\n      tag_108\n      jump\t// in\n    tag_107:\n        /* \"contracts/SafeMath.sol\":714:723  c = a / b */\n      swap1\n      pop\n        /* \"contracts/SafeMath.sol\":593:748  function div(uint256 a, uint256 b) internal pure returns (uint256 c) {... */\n      swap3\n      swap2\n      pop\n      pop\n      jump\t// out\n        /* \"contracts/SafeMath.sol\":411:587  function mul(uint256 a, uint256 b) internal pure returns (uint256 c) {... */\n    tag_81:\n        /* \"contracts/SafeMath.sol\":469:478  uint256 c */\n      0x00\n        /* \"contracts/SafeMath.sol\":498:499  b */\n      dup2\n        /* \"contracts/SafeMath.sol\":494:495  a */\n      dup4\n        /* \"contracts/SafeMath.sol\":494:499  a * b */\n      tag_110\n      swap2\n      swap1\n      tag_111\n      jump\t// in\n    tag_110:\n        /* \"contracts/SafeMath.sol\":490:499  c = a * b */\n      swap1\n      pop\n        /* \"contracts/SafeMath.sol\":522:523  0 */\n      0x00\n        /* \"contracts/SafeMath.sol\":517:518  a */\n      dup4\n        /* \"contracts/SafeMath.sol\":517:523  a == 0 */\n      eq\n        /* \"contracts/SafeMath.sol\":517:537  a == 0 || c / a == b */\n      dup1\n      tag_112\n      jumpi\n      pop\n        /* \"contracts/SafeMath.sol\":536:537  b */\n      dup2\n        /* \"contracts/SafeMath.sol\":531:532  a */\n      dup4\n        /* \"contracts/SafeMath.sol\":527:528  c */\n      dup3\n        /* \"contracts/SafeMath.sol\":527:532  c / a */\n      tag_113\n      swap2\n      swap1\n      tag_108\n      jump\t// in\n    tag_113:\n        /* \"contracts/SafeMath.sol\":527:537  c / a == b */\n      eq\n        /* \"contracts/SafeMath.sol\":517:537  a == 0 || c / a == b */\n    tag_112:\n        /* \"contracts/SafeMath.sol\":509:562  require(a == 0 || c / a == b, \"Multiplication faild\") */\n      tag_114\n      jumpi\n      mload(0x40)\n      0x08c379a000000000000000000000000000000000000000000000000000000000\n      dup2\n      mstore\n      0x04\n      add\n      tag_115\n      swap1\n      tag_116\n      jump\t// in\n    tag_115:\n      mload(0x40)\n      dup1\n      swap2\n      sub\n      swap1\n      revert\n    tag_114:\n        /* \"contracts/SafeMath.sol\":411:587  function mul(uint256 a, uint256 b) internal pure returns (uint256 c) {... */\n      swap3\n      swap2\n      pop\n      pop\n      jump\t// out\n        /* \"contracts/SafeMath.sol\":82:239  function add(uint256 a, uint256 b) internal pure returns (uint256 c) {... */\n    tag_89:\n        /* \"contracts/SafeMath.sol\":140:149  uint256 c */\n      0x00\n        /* \"contracts/SafeMath.sol\":169:170  b */\n      dup2\n        /* \"contracts/SafeMath.sol\":165:166  a */\n      dup4\n        /* \"contracts/SafeMath.sol\":165:170  a + b */\n      tag_118\n      swap2\n      swap1\n      tag_83\n      jump\t// in\n    tag_118:\n        /* \"contracts/SafeMath.sol\":161:170  c = a + b */\n      swap1\n      pop\n        /* \"contracts/SafeMath.sol\":193:194  a */\n      dup3\n        /* \"contracts/SafeMath.sol\":188:189  c */\n      dup2\n        /* \"contracts/SafeMath.sol\":188:194  c >= a */\n      lt\n      iszero\n        /* \"contracts/SafeMath.sol\":180:214  require(c >= a, \"Addition failed\") */\n      tag_119\n      jumpi\n      mload(0x40)\n      0x08c379a000000000000000000000000000000000000000000000000000000000\n      dup2\n      mstore\n      0x04\n      add\n      tag_120\n      swap1\n      tag_121\n      jump\t// in\n    tag_120:\n      mload(0x40)\n      dup1\n      swap2\n      sub\n      swap1\n      revert\n    tag_119:\n        /* \"contracts/SafeMath.sol\":82:239  function add(uint256 a, uint256 b) internal pure returns (uint256 c) {... */\n      swap3\n      swap2\n      pop\n      pop\n      jump\t// out\n        /* \"#utility.yul\":7:146   */\n    tag_123:\n        /* \"#utility.yul\":53:58   */\n      0x00\n        /* \"#utility.yul\":91:97   */\n      dup2\n        /* \"#utility.yul\":78:98   */\n      calldataload\n        /* \"#utility.yul\":69:98   */\n      swap1\n      pop\n        /* \"#utility.yul\":107:140   */\n      tag_125\n        /* \"#utility.yul\":134:139   */\n      dup2\n        /* \"#utility.yul\":107:140   */\n      tag_126\n      jump\t// in\n    tag_125:\n        /* \"#utility.yul\":7:146   */\n      swap3\n      swap2\n      pop\n      pop\n      jump\t// out\n        /* \"#utility.yul\":152:291   */\n    tag_127:\n        /* \"#utility.yul\":198:203   */\n      0x00\n        /* \"#utility.yul\":236:242   */\n      dup2\n        /* \"#utility.yul\":223:243   */\n      calldataload\n        /* \"#utility.yul\":214:243   */\n      swap1\n      pop\n        /* \"#utility.yul\":252:285   */\n      tag_129\n        /* \"#utility.yul\":279:284   */\n      dup2\n        /* \"#utility.yul\":252:285   */\n      tag_130\n      jump\t// in\n    tag_129:\n        /* \"#utility.yul\":152:291   */\n      swap3\n      swap2\n      pop\n      pop\n      jump\t// out\n        /* \"#utility.yul\":297:626   */\n    tag_35:\n        /* \"#utility.yul\":356:362   */\n      0x00\n        /* \"#utility.yul\":405:407   */\n      0x20\n        /* \"#utility.yul\":393:402   */\n      dup3\n        /* \"#utility.yul\":384:391   */\n      dup5\n        /* \"#utility.yul\":380:403   */\n      sub\n        /* \"#utility.yul\":376:408   */\n      slt\n        /* \"#utility.yul\":373:492   */\n      iszero\n      tag_132\n      jumpi\n        /* \"#utility.yul\":411:490   */\n      tag_133\n      tag_134\n      jump\t// in\n    tag_133:\n        /* \"#utility.yul\":373:492   */\n    tag_132:\n        /* \"#utility.yul\":531:532   */\n      0x00\n        /* \"#utility.yul\":556:609   */\n      tag_135\n        /* \"#utility.yul\":601:608   */\n      dup5\n        /* \"#utility.yul\":592:598   */\n      dup3\n        /* \"#utility.yul\":581:590   */\n      dup6\n        /* \"#utility.yul\":577:599   */\n      add\n        /* \"#utility.yul\":556:609   */\n      tag_123\n      jump\t// in\n    tag_135:\n        /* \"#utility.yul\":546:609   */\n      swap2\n      pop\n        /* \"#utility.yul\":502:619   */\n      pop\n        /* \"#utility.yul\":297:626   */\n      swap3\n      swap2\n      pop\n      pop\n      jump\t// out\n        /* \"#utility.yul\":632:1106   */\n    tag_19:\n        /* \"#utility.yul\":700:706   */\n      0x00\n        /* \"#utility.yul\":708:714   */\n      dup1\n        /* \"#utility.yul\":757:759   */\n      0x40\n        /* \"#utility.yul\":745:754   */\n      dup4\n        /* \"#utility.yul\":736:743   */\n      dup6\n        /* \"#utility.yul\":732:755   */\n      sub\n        /* \"#utility.yul\":728:760   */\n      slt\n        /* \"#utility.yul\":725:844   */\n      iszero\n      tag_137\n      jumpi\n        /* \"#utility.yul\":763:842   */\n      tag_138\n      tag_134\n      jump\t// in\n    tag_138:\n        /* \"#utility.yul\":725:844   */\n    tag_137:\n        /* \"#utility.yul\":883:884   */\n      0x00\n        /* \"#utility.yul\":908:961   */\n      tag_139\n        /* \"#utility.yul\":953:960   */\n      dup6\n        /* \"#utility.yul\":944:950   */\n      dup3\n        /* \"#utility.yul\":933:942   */\n      dup7\n        /* \"#utility.yul\":929:951   */\n      add\n        /* \"#utility.yul\":908:961   */\n      tag_127\n      jump\t// in\n    tag_139:\n        /* \"#utility.yul\":898:961   */\n      swap3\n      pop\n        /* \"#utility.yul\":854:971   */\n      pop\n        /* \"#utility.yul\":1010:1012   */\n      0x20\n        /* \"#utility.yul\":1036:1089   */\n      tag_140\n        /* \"#utility.yul\":1081:1088   */\n      dup6\n        /* \"#utility.yul\":1072:1078   */\n      dup3\n        /* \"#utility.yul\":1061:1070   */\n      dup7\n        /* \"#utility.yul\":1057:1079   */\n      add\n        /* \"#utility.yul\":1036:1089   */\n      tag_123\n      jump\t// in\n    tag_140:\n        /* \"#utility.yul\":1026:1089   */\n      swap2\n      pop\n        /* \"#utility.yul\":981:1099   */\n      pop\n        /* \"#utility.yul\":632:1106   */\n      swap3\n      pop\n      swap3\n      swap1\n      pop\n      jump\t// out\n        /* \"#utility.yul\":1112:1254   */\n    tag_141:\n        /* \"#utility.yul\":1215:1247   */\n      tag_143\n        /* \"#utility.yul\":1241:1246   */\n      dup2\n        /* \"#utility.yul\":1215:1247   */\n      tag_144\n      jump\t// in\n    tag_143:\n        /* \"#utility.yul\":1210:1213   */\n      dup3\n        /* \"#utility.yul\":1203:1248   */\n      mstore\n        /* \"#utility.yul\":1112:1254   */\n      pop\n      pop\n      jump\t// out\n        /* \"#utility.yul\":1260:1378   */\n    tag_145:\n        /* \"#utility.yul\":1347:1371   */\n      tag_147\n        /* \"#utility.yul\":1365:1370   */\n      dup2\n        /* \"#utility.yul\":1347:1371   */\n      tag_148\n      jump\t// in\n    tag_147:\n        /* \"#utility.yul\":1342:1345   */\n      dup3\n        /* \"#utility.yul\":1335:1372   */\n      mstore\n        /* \"#utility.yul\":1260:1378   */\n      pop\n      pop\n      jump\t// out\n        /* \"#utility.yul\":1384:1750   */\n    tag_149:\n        /* \"#utility.yul\":1526:1529   */\n      0x00\n        /* \"#utility.yul\":1547:1614   */\n      tag_151\n        /* \"#utility.yul\":1611:1613   */\n      0x20\n        /* \"#utility.yul\":1606:1609   */\n      dup4\n        /* \"#utility.yul\":1547:1614   */\n      tag_152\n      jump\t// in\n    tag_151:\n        /* \"#utility.yul\":1540:1614   */\n      swap2\n      pop\n        /* \"#utility.yul\":1623:1716   */\n      tag_153\n        /* \"#utility.yul\":1712:1715   */\n      dup3\n        /* \"#utility.yul\":1623:1716   */\n      tag_154\n      jump\t// in\n    tag_153:\n        /* \"#utility.yul\":1741:1743   */\n      0x20\n        /* \"#utility.yul\":1736:1739   */\n      dup3\n        /* \"#utility.yul\":1732:1744   */\n      add\n        /* \"#utility.yul\":1725:1744   */\n      swap1\n      pop\n        /* \"#utility.yul\":1384:1750   */\n      swap2\n      swap1\n      pop\n      jump\t// out\n        /* \"#utility.yul\":1756:2122   */\n    tag_155:\n        /* \"#utility.yul\":1898:1901   */\n      0x00\n        /* \"#utility.yul\":1919:1986   */\n      tag_157\n        /* \"#utility.yul\":1983:1985   */\n      0x18\n        /* \"#utility.yul\":1978:1981   */\n      dup4\n        /* \"#utility.yul\":1919:1986   */\n      tag_152\n      jump\t// in\n    tag_157:\n        /* \"#utility.yul\":1912:1986   */\n      swap2\n      pop\n        /* \"#utility.yul\":1995:2088   */\n      tag_158\n        /* \"#utility.yul\":2084:2087   */\n      dup3\n        /* \"#utility.yul\":1995:2088   */\n      tag_159\n      jump\t// in\n    tag_158:\n        /* \"#utility.yul\":2113:2115   */\n      0x20\n        /* \"#utility.yul\":2108:2111   */\n      dup3\n        /* \"#utility.yul\":2104:2116   */\n      add\n        /* \"#utility.yul\":2097:2116   */\n      swap1\n      pop\n        /* \"#utility.yul\":1756:2122   */\n      swap2\n      swap1\n      pop\n      jump\t// out\n        /* \"#utility.yul\":2128:2494   */\n    tag_160:\n        /* \"#utility.yul\":2270:2273   */\n      0x00\n        /* \"#utility.yul\":2291:2358   */\n      tag_162\n        /* \"#utility.yul\":2355:2357   */\n      0x24\n        /* \"#utility.yul\":2350:2353   */\n      dup4\n        /* \"#utility.yul\":2291:2358   */\n      tag_152\n      jump\t// in\n    tag_162:\n        /* \"#utility.yul\":2284:2358   */\n      swap2\n      pop\n        /* \"#utility.yul\":2367:2460   */\n      tag_163\n        /* \"#utility.yul\":2456:2459   */\n      dup3\n        /* \"#utility.yul\":2367:2460   */\n      tag_164\n      jump\t// in\n    tag_163:\n        /* \"#utility.yul\":2485:2487   */\n      0x40\n        /* \"#utility.yul\":2480:2483   */\n      dup3\n        /* \"#utility.yul\":2476:2488   */\n      add\n        /* \"#utility.yul\":2469:2488   */\n      swap1\n      pop\n        /* \"#utility.yul\":2128:2494   */\n      swap2\n      swap1\n      pop\n      jump\t// out\n        /* \"#utility.yul\":2500:2865   */\n    tag_165:\n        /* \"#utility.yul\":2642:2645   */\n      0x00\n        /* \"#utility.yul\":2663:2729   */\n      tag_167\n        /* \"#utility.yul\":2727:2728   */\n      0x06\n        /* \"#utility.yul\":2722:2725   */\n      dup4\n        /* \"#utility.yul\":2663:2729   */\n      tag_152\n      jump\t// in\n    tag_167:\n        /* \"#utility.yul\":2656:2729   */\n      swap2\n      pop\n        /* \"#utility.yul\":2738:2831   */\n      tag_168\n        /* \"#utility.yul\":2827:2830   */\n      dup3\n        /* \"#utility.yul\":2738:2831   */\n      tag_169\n      jump\t// in\n    tag_168:\n        /* \"#utility.yul\":2856:2858   */\n      0x20\n        /* \"#utility.yul\":2851:2854   */\n      dup3\n        /* \"#utility.yul\":2847:2859   */\n      add\n        /* \"#utility.yul\":2840:2859   */\n      swap1\n      pop\n        /* \"#utility.yul\":2500:2865   */\n      swap2\n      swap1\n      pop\n      jump\t// out\n        /* \"#utility.yul\":2871:3237   */\n    tag_170:\n        /* \"#utility.yul\":3013:3016   */\n      0x00\n        /* \"#utility.yul\":3034:3101   */\n      tag_172\n        /* \"#utility.yul\":3098:3100   */\n      0x12\n        /* \"#utility.yul\":3093:3096   */\n      dup4\n        /* \"#utility.yul\":3034:3101   */\n      tag_152\n      jump\t// in\n    tag_172:\n        /* \"#utility.yul\":3027:3101   */\n      swap2\n      pop\n        /* \"#utility.yul\":3110:3203   */\n      tag_173\n        /* \"#utility.yul\":3199:3202   */\n      dup3\n        /* \"#utility.yul\":3110:3203   */\n      tag_174\n      jump\t// in\n    tag_173:\n        /* \"#utility.yul\":3228:3230   */\n      0x20\n        /* \"#utility.yul\":3223:3226   */\n      dup3\n        /* \"#utility.yul\":3219:3231   */\n      add\n        /* \"#utility.yul\":3212:3231   */\n      swap1\n      pop\n        /* \"#utility.yul\":2871:3237   */\n      swap2\n      swap1\n      pop\n      jump\t// out\n        /* \"#utility.yul\":3243:3609   */\n    tag_175:\n        /* \"#utility.yul\":3385:3388   */\n      0x00\n        /* \"#utility.yul\":3406:3473   */\n      tag_177\n        /* \"#utility.yul\":3470:3472   */\n      0x0f\n        /* \"#utility.yul\":3465:3468   */\n      dup4\n        /* \"#utility.yul\":3406:3473   */\n      tag_152\n      jump\t// in\n    tag_177:\n        /* \"#utility.yul\":3399:3473   */\n      swap2\n      pop\n        /* \"#utility.yul\":3482:3575   */\n      tag_178\n        /* \"#utility.yul\":3571:3574   */\n      dup3\n        /* \"#utility.yul\":3482:3575   */\n      tag_179\n      jump\t// in\n    tag_178:\n        /* \"#utility.yul\":3600:3602   */\n      0x20\n        /* \"#utility.yul\":3595:3598   */\n      dup3\n        /* \"#utility.yul\":3591:3603   */\n      add\n        /* \"#utility.yul\":3584:3603   */\n      swap1\n      pop\n        /* \"#utility.yul\":3243:3609   */\n      swap2\n      swap1\n      pop\n      jump\t// out\n        /* \"#utility.yul\":3615:3981   */\n    tag_180:\n        /* \"#utility.yul\":3757:3760   */\n      0x00\n        /* \"#utility.yul\":3778:3845   */\n      tag_182\n        /* \"#utility.yul\":3842:3844   */\n      0x24\n        /* \"#utility.yul\":3837:3840   */\n      dup4\n        /* \"#utility.yul\":3778:3845   */\n      tag_152\n      jump\t// in\n    tag_182:\n        /* \"#utility.yul\":3771:3845   */\n      swap2\n      pop\n        /* \"#utility.yul\":3854:3947   */\n      tag_183\n        /* \"#utility.yul\":3943:3946   */\n      dup3\n        /* \"#utility.yul\":3854:3947   */\n      tag_184\n      jump\t// in\n    tag_183:\n        /* \"#utility.yul\":3972:3974   */\n      0x40\n        /* \"#utility.yul\":3967:3970   */\n      dup3\n        /* \"#utility.yul\":3963:3975   */\n      add\n        /* \"#utility.yul\":3956:3975   */\n      swap1\n      pop\n        /* \"#utility.yul\":3615:3981   */\n      swap2\n      swap1\n      pop\n      jump\t// out\n        /* \"#utility.yul\":3987:4353   */\n    tag_185:\n        /* \"#utility.yul\":4129:4132   */\n      0x00\n        /* \"#utility.yul\":4150:4217   */\n      tag_187\n        /* \"#utility.yul\":4214:4216   */\n      0x0e\n        /* \"#utility.yul\":4209:4212   */\n      dup4\n        /* \"#utility.yul\":4150:4217   */\n      tag_152\n      jump\t// in\n    tag_187:\n        /* \"#utility.yul\":4143:4217   */\n      swap2\n      pop\n        /* \"#utility.yul\":4226:4319   */\n      tag_188\n        /* \"#utility.yul\":4315:4318   */\n      dup3\n        /* \"#utility.yul\":4226:4319   */\n      tag_189\n      jump\t// in\n    tag_188:\n        /* \"#utility.yul\":4344:4346   */\n      0x20\n        /* \"#utility.yul\":4339:4342   */\n      dup3\n        /* \"#utility.yul\":4335:4347   */\n      add\n        /* \"#utility.yul\":4328:4347   */\n      swap1\n      pop\n        /* \"#utility.yul\":3987:4353   */\n      swap2\n      swap1\n      pop\n      jump\t// out\n        /* \"#utility.yul\":4359:4725   */\n    tag_190:\n        /* \"#utility.yul\":4501:4504   */\n      0x00\n        /* \"#utility.yul\":4522:4589   */\n      tag_192\n        /* \"#utility.yul\":4586:4588   */\n      0x27\n        /* \"#utility.yul\":4581:4584   */\n      dup4\n        /* \"#utility.yul\":4522:4589   */\n      tag_152\n      jump\t// in\n    tag_192:\n        /* \"#utility.yul\":4515:4589   */\n      swap2\n      pop\n        /* \"#utility.yul\":4598:4691   */\n      tag_193\n        /* \"#utility.yul\":4687:4690   */\n      dup3\n        /* \"#utility.yul\":4598:4691   */\n      tag_194\n      jump\t// in\n    tag_193:\n        /* \"#utility.yul\":4716:4718   */\n      0x40\n        /* \"#utility.yul\":4711:4714   */\n      dup3\n        /* \"#utility.yul\":4707:4719   */\n      add\n        /* \"#utility.yul\":4700:4719   */\n      swap1\n      pop\n        /* \"#utility.yul\":4359:4725   */\n      swap2\n      swap1\n      pop\n      jump\t// out\n        /* \"#utility.yul\":4731:5097   */\n    tag_195:\n        /* \"#utility.yul\":4873:4876   */\n      0x00\n        /* \"#utility.yul\":4894:4961   */\n      tag_197\n        /* \"#utility.yul\":4958:4960   */\n      0x32\n        /* \"#utility.yul\":4953:4956   */\n      dup4\n        /* \"#utility.yul\":4894:4961   */\n      tag_152\n      jump\t// in\n    tag_197:\n        /* \"#utility.yul\":4887:4961   */\n      swap2\n      pop\n        /* \"#utility.yul\":4970:5063   */\n      tag_198\n        /* \"#utility.yul\":5059:5062   */\n      dup3\n        /* \"#utility.yul\":4970:5063   */\n      tag_199\n      jump\t// in\n    tag_198:\n        /* \"#utility.yul\":5088:5090   */\n      0x40\n        /* \"#utility.yul\":5083:5086   */\n      dup3\n        /* \"#utility.yul\":5079:5091   */\n      add\n        /* \"#utility.yul\":5072:5091   */\n      swap1\n      pop\n        /* \"#utility.yul\":4731:5097   */\n      swap2\n      swap1\n      pop\n      jump\t// out\n        /* \"#utility.yul\":5103:5469   */\n    tag_200:\n        /* \"#utility.yul\":5245:5248   */\n      0x00\n        /* \"#utility.yul\":5266:5333   */\n      tag_202\n        /* \"#utility.yul\":5330:5332   */\n      0x14\n        /* \"#utility.yul\":5325:5328   */\n      dup4\n        /* \"#utility.yul\":5266:5333   */\n      tag_152\n      jump\t// in\n    tag_202:\n        /* \"#utility.yul\":5259:5333   */\n      swap2\n      pop\n        /* \"#utility.yul\":5342:5435   */\n      tag_203\n        /* \"#utility.yul\":5431:5434   */\n      dup3\n        /* \"#utility.yul\":5342:5435   */\n      tag_204\n      jump\t// in\n    tag_203:\n        /* \"#utility.yul\":5460:5462   */\n      0x20\n        /* \"#utility.yul\":5455:5458   */\n      dup3\n        /* \"#utility.yul\":5451:5463   */\n      add\n        /* \"#utility.yul\":5444:5463   */\n      swap1\n      pop\n        /* \"#utility.yul\":5103:5469   */\n      swap2\n      swap1\n      pop\n      jump\t// out\n        /* \"#utility.yul\":5475:5593   */\n    tag_205:\n        /* \"#utility.yul\":5562:5586   */\n      tag_207\n        /* \"#utility.yul\":5580:5585   */\n      dup2\n        /* \"#utility.yul\":5562:5586   */\n      tag_208\n      jump\t// in\n    tag_207:\n        /* \"#utility.yul\":5557:5560   */\n      dup3\n        /* \"#utility.yul\":5550:5587   */\n      mstore\n        /* \"#utility.yul\":5475:5593   */\n      pop\n      pop\n      jump\t// out\n        /* \"#utility.yul\":5599:5853   */\n    tag_42:\n        /* \"#utility.yul\":5708:5712   */\n      0x00\n        /* \"#utility.yul\":5746:5748   */\n      0x20\n        /* \"#utility.yul\":5735:5744   */\n      dup3\n        /* \"#utility.yul\":5731:5749   */\n      add\n        /* \"#utility.yul\":5723:5749   */\n      swap1\n      pop\n        /* \"#utility.yul\":5759:5846   */\n      tag_210\n        /* \"#utility.yul\":5843:5844   */\n      0x00\n        /* \"#utility.yul\":5832:5841   */\n      dup4\n        /* \"#utility.yul\":5828:5845   */\n      add\n        /* \"#utility.yul\":5819:5825   */\n      dup5\n        /* \"#utility.yul\":5759:5846   */\n      tag_141\n      jump\t// in\n    tag_210:\n        /* \"#utility.yul\":5599:5853   */\n      swap3\n      swap2\n      pop\n      pop\n      jump\t// out\n        /* \"#utility.yul\":5859:6278   */\n    tag_70:\n        /* \"#utility.yul\":6025:6029   */\n      0x00\n        /* \"#utility.yul\":6063:6065   */\n      0x20\n        /* \"#utility.yul\":6052:6061   */\n      dup3\n        /* \"#utility.yul\":6048:6066   */\n      add\n        /* \"#utility.yul\":6040:6066   */\n      swap1\n      pop\n        /* \"#utility.yul\":6112:6121   */\n      dup2\n        /* \"#utility.yul\":6106:6110   */\n      dup2\n        /* \"#utility.yul\":6102:6122   */\n      sub\n        /* \"#utility.yul\":6098:6099   */\n      0x00\n        /* \"#utility.yul\":6087:6096   */\n      dup4\n        /* \"#utility.yul\":6083:6100   */\n      add\n        /* \"#utility.yul\":6076:6123   */\n      mstore\n        /* \"#utility.yul\":6140:6271   */\n      tag_212\n        /* \"#utility.yul\":6266:6270   */\n      dup2\n        /* \"#utility.yul\":6140:6271   */\n      tag_149\n      jump\t// in\n    tag_212:\n        /* \"#utility.yul\":6132:6271   */\n      swap1\n      pop\n        /* \"#utility.yul\":5859:6278   */\n      swap2\n      swap1\n      pop\n      jump\t// out\n        /* \"#utility.yul\":6284:6703   */\n    tag_93:\n        /* \"#utility.yul\":6450:6454   */\n      0x00\n        /* \"#utility.yul\":6488:6490   */\n      0x20\n        /* \"#utility.yul\":6477:6486   */\n      dup3\n        /* \"#utility.yul\":6473:6491   */\n      add\n        /* \"#utility.yul\":6465:6491   */\n      swap1\n      pop\n        /* \"#utility.yul\":6537:6546   */\n      dup2\n        /* \"#utility.yul\":6531:6535   */\n      dup2\n        /* \"#utility.yul\":6527:6547   */\n      sub\n        /* \"#utility.yul\":6523:6524   */\n      0x00\n        /* \"#utility.yul\":6512:6521   */\n      dup4\n        /* \"#utility.yul\":6508:6525   */\n      add\n        /* \"#utility.yul\":6501:6548   */\n      mstore\n        /* \"#utility.yul\":6565:6696   */\n      tag_214\n        /* \"#utility.yul\":6691:6695   */\n      dup2\n        /* \"#utility.yul\":6565:6696   */\n      tag_155\n      jump\t// in\n    tag_214:\n        /* \"#utility.yul\":6557:6696   */\n      swap1\n      pop\n        /* \"#utility.yul\":6284:6703   */\n      swap2\n      swap1\n      pop\n      jump\t// out\n        /* \"#utility.yul\":6709:7128   */\n    tag_64:\n        /* \"#utility.yul\":6875:6879   */\n      0x00\n        /* \"#utility.yul\":6913:6915   */\n      0x20\n        /* \"#utility.yul\":6902:6911   */\n      dup3\n        /* \"#utility.yul\":6898:6916   */\n      add\n        /* \"#utility.yul\":6890:6916   */\n      swap1\n      pop\n        /* \"#utility.yul\":6962:6971   */\n      dup2\n        /* \"#utility.yul\":6956:6960   */\n      dup2\n        /* \"#utility.yul\":6952:6972   */\n      sub\n        /* \"#utility.yul\":6948:6949   */\n      0x00\n        /* \"#utility.yul\":6937:6946   */\n      dup4\n        /* \"#utility.yul\":6933:6950   */\n      add\n        /* \"#utility.yul\":6926:6973   */\n      mstore\n        /* \"#utility.yul\":6990:7121   */\n      tag_216\n        /* \"#utility.yul\":7116:7120   */\n      dup2\n        /* \"#utility.yul\":6990:7121   */\n      tag_160\n      jump\t// in\n    tag_216:\n        /* \"#utility.yul\":6982:7121   */\n      swap1\n      pop\n        /* \"#utility.yul\":6709:7128   */\n      swap2\n      swap1\n      pop\n      jump\t// out\n        /* \"#utility.yul\":7134:7663   */\n    tag_97:\n        /* \"#utility.yul\":7328:7332   */\n      0x00\n        /* \"#utility.yul\":7366:7368   */\n      0x40\n        /* \"#utility.yul\":7355:7364   */\n      dup3\n        /* \"#utility.yul\":7351:7369   */\n      add\n        /* \"#utility.yul\":7343:7369   */\n      swap1\n      pop\n        /* \"#utility.yul\":7415:7424   */\n      dup2\n        /* \"#utility.yul\":7409:7413   */\n      dup2\n        /* \"#utility.yul\":7405:7425   */\n      sub\n        /* \"#utility.yul\":7401:7402   */\n      0x00\n        /* \"#utility.yul\":7390:7399   */\n      dup4\n        /* \"#utility.yul\":7386:7403   */\n      add\n        /* \"#utility.yul\":7379:7426   */\n      mstore\n        /* \"#utility.yul\":7443:7574   */\n      tag_218\n        /* \"#utility.yul\":7569:7573   */\n      dup2\n        /* \"#utility.yul\":7443:7574   */\n      tag_165\n      jump\t// in\n    tag_218:\n        /* \"#utility.yul\":7435:7574   */\n      swap1\n      pop\n        /* \"#utility.yul\":7584:7656   */\n      tag_219\n        /* \"#utility.yul\":7652:7654   */\n      0x20\n        /* \"#utility.yul\":7641:7650   */\n      dup4\n        /* \"#utility.yul\":7637:7655   */\n      add\n        /* \"#utility.yul\":7628:7634   */\n      dup5\n        /* \"#utility.yul\":7584:7656   */\n      tag_145\n      jump\t// in\n    tag_219:\n        /* \"#utility.yul\":7134:7663   */\n      swap3\n      swap2\n      pop\n      pop\n      jump\t// out\n        /* \"#utility.yul\":7669:8088   */\n    tag_101:\n        /* \"#utility.yul\":7835:7839   */\n      0x00\n        /* \"#utility.yul\":7873:7875   */\n      0x20\n        /* \"#utility.yul\":7862:7871   */\n      dup3\n        /* \"#utility.yul\":7858:7876   */\n      add\n        /* \"#utility.yul\":7850:7876   */\n      swap1\n      pop\n        /* \"#utility.yul\":7922:7931   */\n      dup2\n        /* \"#utility.yul\":7916:7920   */\n      dup2\n        /* \"#utility.yul\":7912:7932   */\n      sub\n        /* \"#utility.yul\":7908:7909   */\n      0x00\n        /* \"#utility.yul\":7897:7906   */\n      dup4\n        /* \"#utility.yul\":7893:7910   */\n      add\n        /* \"#utility.yul\":7886:7933   */\n      mstore\n        /* \"#utility.yul\":7950:8081   */\n      tag_221\n        /* \"#utility.yul\":8076:8080   */\n      dup2\n        /* \"#utility.yul\":7950:8081   */\n      tag_170\n      jump\t// in\n    tag_221:\n        /* \"#utility.yul\":7942:8081   */\n      swap1\n      pop\n        /* \"#utility.yul\":7669:8088   */\n      swap2\n      swap1\n      pop\n      jump\t// out\n        /* \"#utility.yul\":8094:8513   */\n    tag_121:\n        /* \"#utility.yul\":8260:8264   */\n      0x00\n        /* \"#utility.yul\":8298:8300   */\n      0x20\n        /* \"#utility.yul\":8287:8296   */\n      dup3\n        /* \"#utility.yul\":8283:8301   */\n      add\n        /* \"#utility.yul\":8275:8301   */\n      swap1\n      pop\n        /* \"#utility.yul\":8347:8356   */\n      dup2\n        /* \"#utility.yul\":8341:8345   */\n      dup2\n        /* \"#utility.yul\":8337:8357   */\n      sub\n        /* \"#utility.yul\":8333:8334   */\n      0x00\n        /* \"#utility.yul\":8322:8331   */\n      dup4\n        /* \"#utility.yul\":8318:8335   */\n      add\n        /* \"#utility.yul\":8311:8358   */\n      mstore\n        /* \"#utility.yul\":8375:8506   */\n      tag_223\n        /* \"#utility.yul\":8501:8505   */\n      dup2\n        /* \"#utility.yul\":8375:8506   */\n      tag_175\n      jump\t// in\n    tag_223:\n        /* \"#utility.yul\":8367:8506   */\n      swap1\n      pop\n        /* \"#utility.yul\":8094:8513   */\n      swap2\n      swap1\n      pop\n      jump\t// out\n        /* \"#utility.yul\":8519:8938   */\n    tag_77:\n        /* \"#utility.yul\":8685:8689   */\n      0x00\n        /* \"#utility.yul\":8723:8725   */\n      0x20\n        /* \"#utility.yul\":8712:8721   */\n      dup3\n        /* \"#utility.yul\":8708:8726   */\n      add\n        /* \"#utility.yul\":8700:8726   */\n      swap1\n      pop\n        /* \"#utility.yul\":8772:8781   */\n      dup2\n        /* \"#utility.yul\":8766:8770   */\n      dup2\n        /* \"#utility.yul\":8762:8782   */\n      sub\n        /* \"#utility.yul\":8758:8759   */\n      0x00\n        /* \"#utility.yul\":8747:8756   */\n      dup4\n        /* \"#utility.yul\":8743:8760   */\n      add\n        /* \"#utility.yul\":8736:8783   */\n      mstore\n        /* \"#utility.yul\":8800:8931   */\n      tag_225\n        /* \"#utility.yul\":8926:8930   */\n      dup2\n        /* \"#utility.yul\":8800:8931   */\n      tag_180\n      jump\t// in\n    tag_225:\n        /* \"#utility.yul\":8792:8931   */\n      swap1\n      pop\n        /* \"#utility.yul\":8519:8938   */\n      swap2\n      swap1\n      pop\n      jump\t// out\n        /* \"#utility.yul\":8944:9363   */\n    tag_106:\n        /* \"#utility.yul\":9110:9114   */\n      0x00\n        /* \"#utility.yul\":9148:9150   */\n      0x20\n        /* \"#utility.yul\":9137:9146   */\n      dup3\n        /* \"#utility.yul\":9133:9151   */\n      add\n        /* \"#utility.yul\":9125:9151   */\n      swap1\n      pop\n        /* \"#utility.yul\":9197:9206   */\n      dup2\n        /* \"#utility.yul\":9191:9195   */\n      dup2\n        /* \"#utility.yul\":9187:9207   */\n      sub\n        /* \"#utility.yul\":9183:9184   */\n      0x00\n        /* \"#utility.yul\":9172:9181   */\n      dup4\n        /* \"#utility.yul\":9168:9185   */\n      add\n        /* \"#utility.yul\":9161:9208   */\n      mstore\n        /* \"#utility.yul\":9225:9356   */\n      tag_227\n        /* \"#utility.yul\":9351:9355   */\n      dup2\n        /* \"#utility.yul\":9225:9356   */\n      tag_185\n      jump\t// in\n    tag_227:\n        /* \"#utility.yul\":9217:9356   */\n      swap1\n      pop\n        /* \"#utility.yul\":8944:9363   */\n      swap2\n      swap1\n      pop\n      jump\t// out\n        /* \"#utility.yul\":9369:9788   */\n    tag_58:\n        /* \"#utility.yul\":9535:9539   */\n      0x00\n        /* \"#utility.yul\":9573:9575   */\n      0x20\n        /* \"#utility.yul\":9562:9571   */\n      dup3\n        /* \"#utility.yul\":9558:9576   */\n      add\n        /* \"#utility.yul\":9550:9576   */\n      swap1\n      pop\n        /* \"#utility.yul\":9622:9631   */\n      dup2\n        /* \"#utility.yul\":9616:9620   */\n      dup2\n        /* \"#utility.yul\":9612:9632   */\n      sub\n        /* \"#utility.yul\":9608:9609   */\n      0x00\n        /* \"#utility.yul\":9597:9606   */\n      dup4\n        /* \"#utility.yul\":9593:9610   */\n      add\n        /* \"#utility.yul\":9586:9633   */\n      mstore\n        /* \"#utility.yul\":9650:9781   */\n      tag_229\n        /* \"#utility.yul\":9776:9780   */\n      dup2\n        /* \"#utility.yul\":9650:9781   */\n      tag_190\n      jump\t// in\n    tag_229:\n        /* \"#utility.yul\":9642:9781   */\n      swap1\n      pop\n        /* \"#utility.yul\":9369:9788   */\n      swap2\n      swap1\n      pop\n      jump\t// out\n        /* \"#utility.yul\":9794:10213   */\n    tag_86:\n        /* \"#utility.yul\":9960:9964   */\n      0x00\n        /* \"#utility.yul\":9998:10000   */\n      0x20\n        /* \"#utility.yul\":9987:9996   */\n      dup3\n        /* \"#utility.yul\":9983:10001   */\n      add\n        /* \"#utility.yul\":9975:10001   */\n      swap1\n      pop\n        /* \"#utility.yul\":10047:10056   */\n      dup2\n        /* \"#utility.yul\":10041:10045   */\n      dup2\n        /* \"#utility.yul\":10037:10057   */\n      sub\n        /* \"#utility.yul\":10033:10034   */\n      0x00\n        /* \"#utility.yul\":10022:10031   */\n      dup4\n        /* \"#utility.yul\":10018:10035   */\n      add\n        /* \"#utility.yul\":10011:10058   */\n      mstore\n        /* \"#utility.yul\":10075:10206   */\n      tag_231\n        /* \"#utility.yul\":10201:10205   */\n      dup2\n        /* \"#utility.yul\":10075:10206   */\n      tag_195\n      jump\t// in\n    tag_231:\n        /* \"#utility.yul\":10067:10206   */\n      swap1\n      pop\n        /* \"#utility.yul\":9794:10213   */\n      swap2\n      swap1\n      pop\n      jump\t// out\n        /* \"#utility.yul\":10219:10638   */\n    tag_116:\n        /* \"#utility.yul\":10385:10389   */\n      0x00\n        /* \"#utility.yul\":10423:10425   */\n      0x20\n        /* \"#utility.yul\":10412:10421   */\n      dup3\n        /* \"#utility.yul\":10408:10426   */\n      add\n        /* \"#utility.yul\":10400:10426   */\n      swap1\n      pop\n        /* \"#utility.yul\":10472:10481   */\n      dup2\n        /* \"#utility.yul\":10466:10470   */\n      dup2\n        /* \"#utility.yul\":10462:10482   */\n      sub\n        /* \"#utility.yul\":10458:10459   */\n      0x00\n        /* \"#utility.yul\":10447:10456   */\n      dup4\n        /* \"#utility.yul\":10443:10460   */\n      add\n        /* \"#utility.yul\":10436:10483   */\n      mstore\n        /* \"#utility.yul\":10500:10631   */\n      tag_233\n        /* \"#utility.yul\":10626:10630   */\n      dup2\n        /* \"#utility.yul\":10500:10631   */\n      tag_200\n      jump\t// in\n    tag_233:\n        /* \"#utility.yul\":10492:10631   */\n      swap1\n      pop\n        /* \"#utility.yul\":10219:10638   */\n      swap2\n      swap1\n      pop\n      jump\t// out\n        /* \"#utility.yul\":10644:10866   */\n    tag_28:\n        /* \"#utility.yul\":10737:10741   */\n      0x00\n        /* \"#utility.yul\":10775:10777   */\n      0x20\n        /* \"#utility.yul\":10764:10773   */\n      dup3\n        /* \"#utility.yul\":10760:10778   */\n      add\n        /* \"#utility.yul\":10752:10778   */\n      swap1\n      pop\n        /* \"#utility.yul\":10788:10859   */\n      tag_235\n        /* \"#utility.yul\":10856:10857   */\n      0x00\n        /* \"#utility.yul\":10845:10854   */\n      dup4\n        /* \"#utility.yul\":10841:10858   */\n      add\n        /* \"#utility.yul\":10832:10838   */\n      dup5\n        /* \"#utility.yul\":10788:10859   */\n      tag_205\n      jump\t// in\n    tag_235:\n        /* \"#utility.yul\":10644:10866   */\n      swap3\n      swap2\n      pop\n      pop\n      jump\t// out\n        /* \"#utility.yul\":10953:11122   */\n    tag_152:\n        /* \"#utility.yul\":11037:11048   */\n      0x00\n        /* \"#utility.yul\":11071:11077   */\n      dup3\n        /* \"#utility.yul\":11066:11069   */\n      dup3\n        /* \"#utility.yul\":11059:11078   */\n      mstore\n        /* \"#utility.yul\":11111:11115   */\n      0x20\n        /* \"#utility.yul\":11106:11109   */\n      dup3\n        /* \"#utility.yul\":11102:11116   */\n      add\n        /* \"#utility.yul\":11087:11116   */\n      swap1\n      pop\n        /* \"#utility.yul\":10953:11122   */\n      swap3\n      swap2\n      pop\n      pop\n      jump\t// out\n        /* \"#utility.yul\":11128:11433   */\n    tag_83:\n        /* \"#utility.yul\":11168:11171   */\n      0x00\n        /* \"#utility.yul\":11187:11207   */\n      tag_240\n        /* \"#utility.yul\":11205:11206   */\n      dup3\n        /* \"#utility.yul\":11187:11207   */\n      tag_208\n      jump\t// in\n    tag_240:\n        /* \"#utility.yul\":11182:11207   */\n      swap2\n      pop\n        /* \"#utility.yul\":11221:11241   */\n      tag_241\n        /* \"#utility.yul\":11239:11240   */\n      dup4\n        /* \"#utility.yul\":11221:11241   */\n      tag_208\n      jump\t// in\n    tag_241:\n        /* \"#utility.yul\":11216:11241   */\n      swap3\n      pop\n        /* \"#utility.yul\":11375:11376   */\n      dup3\n        /* \"#utility.yul\":11307:11373   */\n      0xffffffffffffffffffffffffffffffffffffffffffffffffffffffffffffffff\n        /* \"#utility.yul\":11303:11377   */\n      sub\n        /* \"#utility.yul\":11300:11301   */\n      dup3\n        /* \"#utility.yul\":11297:11378   */\n      gt\n        /* \"#utility.yul\":11294:11401   */\n      iszero\n      tag_242\n      jumpi\n        /* \"#utility.yul\":11381:11399   */\n      tag_243\n      tag_244\n      jump\t// in\n    tag_243:\n        /* \"#utility.yul\":11294:11401   */\n    tag_242:\n        /* \"#utility.yul\":11425:11426   */\n      dup3\n        /* \"#utility.yul\":11422:11423   */\n      dup3\n        /* \"#utility.yul\":11418:11427   */\n      add\n        /* \"#utility.yul\":11411:11427   */\n      swap1\n      pop\n        /* \"#utility.yul\":11128:11433   */\n      swap3\n      swap2\n      pop\n      pop\n      jump\t// out\n        /* \"#utility.yul\":11439:11624   */\n    tag_108:\n        /* \"#utility.yul\":11479:11480   */\n      0x00\n        /* \"#utility.yul\":11496:11516   */\n      tag_246\n        /* \"#utility.yul\":11514:11515   */\n      dup3\n        /* \"#utility.yul\":11496:11516   */\n      tag_208\n      jump\t// in\n    tag_246:\n        /* \"#utility.yul\":11491:11516   */\n      swap2\n      pop\n        /* \"#utility.yul\":11530:11550   */\n      tag_247\n        /* \"#utility.yul\":11548:11549   */\n      dup4\n        /* \"#utility.yul\":11530:11550   */\n      tag_208\n      jump\t// in\n    tag_247:\n        /* \"#utility.yul\":11525:11550   */\n      swap3\n      pop\n        /* \"#utility.yul\":11569:11570   */\n      dup3\n        /* \"#utility.yul\":11559:11594   */\n      tag_248\n      jumpi\n        /* \"#utility.yul\":11574:11592   */\n      tag_249\n      tag_250\n      jump\t// in\n    tag_249:\n        /* \"#utility.yul\":11559:11594   */\n    tag_248:\n        /* \"#utility.yul\":11616:11617   */\n      dup3\n        /* \"#utility.yul\":11613:11614   */\n      dup3\n        /* \"#utility.yul\":11609:11618   */\n      div\n        /* \"#utility.yul\":11604:11618   */\n      swap1\n      pop\n        /* \"#utility.yul\":11439:11624   */\n      swap3\n      swap2\n      pop\n      pop\n      jump\t// out\n        /* \"#utility.yul\":11630:11978   */\n    tag_111:\n        /* \"#utility.yul\":11670:11677   */\n      0x00\n        /* \"#utility.yul\":11693:11713   */\n      tag_252\n        /* \"#utility.yul\":11711:11712   */\n      dup3\n        /* \"#utility.yul\":11693:11713   */\n      tag_208\n      jump\t// in\n    tag_252:\n        /* \"#utility.yul\":11688:11713   */\n      swap2\n      pop\n        /* \"#utility.yul\":11727:11747   */\n      tag_253\n        /* \"#utility.yul\":11745:11746   */\n      dup4\n        /* \"#utility.yul\":11727:11747   */\n      tag_208\n      jump\t// in\n    tag_253:\n        /* \"#utility.yul\":11722:11747   */\n      swap3\n      pop\n        /* \"#utility.yul\":11915:11916   */\n      dup2\n        /* \"#utility.yul\":11847:11913   */\n      0xffffffffffffffffffffffffffffffffffffffffffffffffffffffffffffffff\n        /* \"#utility.yul\":11843:11917   */\n      div\n        /* \"#utility.yul\":11840:11841   */\n      dup4\n        /* \"#utility.yul\":11837:11918   */\n      gt\n        /* \"#utility.yul\":11832:11833   */\n      dup3\n        /* \"#utility.yul\":11825:11834   */\n      iszero\n        /* \"#utility.yul\":11818:11835   */\n      iszero\n        /* \"#utility.yul\":11814:11919   */\n      and\n        /* \"#utility.yul\":11811:11942   */\n      iszero\n      tag_254\n      jumpi\n        /* \"#utility.yul\":11922:11940   */\n      tag_255\n      tag_244\n      jump\t// in\n    tag_255:\n        /* \"#utility.yul\":11811:11942   */\n    tag_254:\n        /* \"#utility.yul\":11970:11971   */\n      dup3\n        /* \"#utility.yul\":11967:11968   */\n      dup3\n        /* \"#utility.yul\":11963:11972   */\n      mul\n        /* \"#utility.yul\":11952:11972   */\n      swap1\n      pop\n        /* \"#utility.yul\":11630:11978   */\n      swap3\n      swap2\n      pop\n      pop\n      jump\t// out\n        /* \"#utility.yul\":11984:12175   */\n    tag_73:\n        /* \"#utility.yul\":12024:12028   */\n      0x00\n        /* \"#utility.yul\":12044:12064   */\n      tag_257\n        /* \"#utility.yul\":12062:12063   */\n      dup3\n        /* \"#utility.yul\":12044:12064   */\n      tag_208\n      jump\t// in\n    tag_257:\n        /* \"#utility.yul\":12039:12064   */\n      swap2\n      pop\n        /* \"#utility.yul\":12078:12098   */\n      tag_258\n        /* \"#utility.yul\":12096:12097   */\n      dup4\n        /* \"#utility.yul\":12078:12098   */\n      tag_208\n      jump\t// in\n    tag_258:\n        /* \"#utility.yul\":12073:12098   */\n      swap3\n      pop\n        /* \"#utility.yul\":12117:12118   */\n      dup3\n        /* \"#utility.yul\":12114:12115   */\n      dup3\n        /* \"#utility.yul\":12111:12119   */\n      lt\n        /* \"#utility.yul\":12108:12142   */\n      iszero\n      tag_259\n      jumpi\n        /* \"#utility.yul\":12122:12140   */\n      tag_260\n      tag_244\n      jump\t// in\n    tag_260:\n        /* \"#utility.yul\":12108:12142   */\n    tag_259:\n        /* \"#utility.yul\":12167:12168   */\n      dup3\n        /* \"#utility.yul\":12164:12165   */\n      dup3\n        /* \"#utility.yul\":12160:12169   */\n      sub\n        /* \"#utility.yul\":12152:12169   */\n      swap1\n      pop\n        /* \"#utility.yul\":11984:12175   */\n      swap3\n      swap2\n      pop\n      pop\n      jump\t// out\n        /* \"#utility.yul\":12181:12277   */\n    tag_148:\n        /* \"#utility.yul\":12218:12225   */\n      0x00\n        /* \"#utility.yul\":12247:12271   */\n      tag_262\n        /* \"#utility.yul\":12265:12270   */\n      dup3\n        /* \"#utility.yul\":12247:12271   */\n      tag_263\n      jump\t// in\n    tag_262:\n        /* \"#utility.yul\":12236:12271   */\n      swap1\n      pop\n        /* \"#utility.yul\":12181:12277   */\n      swap2\n      swap1\n      pop\n      jump\t// out\n        /* \"#utility.yul\":12283:12387   */\n    tag_144:\n        /* \"#utility.yul\":12328:12335   */\n      0x00\n        /* \"#utility.yul\":12357:12381   */\n      tag_265\n        /* \"#utility.yul\":12375:12380   */\n      dup3\n        /* \"#utility.yul\":12357:12381   */\n      tag_263\n      jump\t// in\n    tag_265:\n        /* \"#utility.yul\":12346:12381   */\n      swap1\n      pop\n        /* \"#utility.yul\":12283:12387   */\n      swap2\n      swap1\n      pop\n      jump\t// out\n        /* \"#utility.yul\":12393:12519   */\n    tag_263:\n        /* \"#utility.yul\":12430:12437   */\n      0x00\n        /* \"#utility.yul\":12470:12512   */\n      0xffffffffffffffffffffffffffffffffffffffff\n        /* \"#utility.yul\":12463:12468   */\n      dup3\n        /* \"#utility.yul\":12459:12513   */\n      and\n        /* \"#utility.yul\":12448:12513   */\n      swap1\n      pop\n        /* \"#utility.yul\":12393:12519   */\n      swap2\n      swap1\n      pop\n      jump\t// out\n        /* \"#utility.yul\":12525:12602   */\n    tag_208:\n        /* \"#utility.yul\":12562:12569   */\n      0x00\n        /* \"#utility.yul\":12591:12596   */\n      dup2\n        /* \"#utility.yul\":12580:12596   */\n      swap1\n      pop\n        /* \"#utility.yul\":12525:12602   */\n      swap2\n      swap1\n      pop\n      jump\t// out\n        /* \"#utility.yul\":12608:12788   */\n    tag_244:\n        /* \"#utility.yul\":12656:12733   */\n      0x4e487b7100000000000000000000000000000000000000000000000000000000\n        /* \"#utility.yul\":12653:12654   */\n      0x00\n        /* \"#utility.yul\":12646:12734   */\n      mstore\n        /* \"#utility.yul\":12753:12757   */\n      0x11\n        /* \"#utility.yul\":12750:12751   */\n      0x04\n        /* \"#utility.yul\":12743:12758   */\n      mstore\n        /* \"#utility.yul\":12777:12781   */\n      0x24\n        /* \"#utility.yul\":12774:12775   */\n      0x00\n        /* \"#utility.yul\":12767:12782   */\n      revert\n        /* \"#utility.yul\":12794:12974   */\n    tag_250:\n        /* \"#utility.yul\":12842:12919   */\n      0x4e487b7100000000000000000000000000000000000000000000000000000000\n        /* \"#utility.yul\":12839:12840   */\n      0x00\n        /* \"#utility.yul\":12832:12920   */\n      mstore\n        /* \"#utility.yul\":12939:12943   */\n      0x12\n        /* \"#utility.yul\":12936:12937   */\n      0x04\n        /* \"#utility.yul\":12929:12944   */\n      mstore\n        /* \"#utility.yul\":12963:12967   */\n      0x24\n        /* \"#utility.yul\":12960:12961   */\n      0x00\n        /* \"#utility.yul\":12953:12968   */\n      revert\n        /* \"#utility.yul\":13103:13220   */\n    tag_134:\n        /* \"#utility.yul\":13212:13213   */\n      0x00\n        /* \"#utility.yul\":13209:13210   */\n      dup1\n        /* \"#utility.yul\":13202:13214   */\n      revert\n        /* \"#utility.yul\":13226:13408   */\n    tag_154:\n        /* \"#utility.yul\":13366:13400   */\n      0x596f7520646f6e2774206861766520616e79206d6f6e657920696e2068657265\n        /* \"#utility.yul\":13362:13363   */\n      0x00\n        /* \"#utility.yul\":13354:13360   */\n      dup3\n        /* \"#utility.yul\":13350:13364   */\n      add\n        /* \"#utility.yul\":13343:13401   */\n      mstore\n        /* \"#utility.yul\":13226:13408   */\n      pop\n      jump\t// out\n        /* \"#utility.yul\":13414:13588   */\n    tag_159:\n        /* \"#utility.yul\":13554:13580   */\n      0x4d696e696d756d20312045746865722052657175697265640000000000000000\n        /* \"#utility.yul\":13550:13551   */\n      0x00\n        /* \"#utility.yul\":13542:13548   */\n      dup3\n        /* \"#utility.yul\":13538:13552   */\n      add\n        /* \"#utility.yul\":13531:13581   */\n      mstore\n        /* \"#utility.yul\":13414:13588   */\n      pop\n      jump\t// out\n        /* \"#utility.yul\":13594:13817   */\n    tag_164:\n        /* \"#utility.yul\":13734:13768   */\n      0x596f7520646f6e27742068617665206e6f2070656e64696e6720776974686472\n        /* \"#utility.yul\":13730:13731   */\n      0x00\n        /* \"#utility.yul\":13722:13728   */\n      dup3\n        /* \"#utility.yul\":13718:13732   */\n      add\n        /* \"#utility.yul\":13711:13769   */\n      mstore\n        /* \"#utility.yul\":13803:13809   */\n      0x61776c7300000000000000000000000000000000000000000000000000000000\n        /* \"#utility.yul\":13798:13800   */\n      0x20\n        /* \"#utility.yul\":13790:13796   */\n      dup3\n        /* \"#utility.yul\":13786:13801   */\n      add\n        /* \"#utility.yul\":13779:13810   */\n      mstore\n        /* \"#utility.yul\":13594:13817   */\n      pop\n      jump\t// out\n        /* \"#utility.yul\":13823:13979   */\n    tag_169:\n        /* \"#utility.yul\":13963:13971   */\n      0x7374616b65640000000000000000000000000000000000000000000000000000\n        /* \"#utility.yul\":13959:13960   */\n      0x00\n        /* \"#utility.yul\":13951:13957   */\n      dup3\n        /* \"#utility.yul\":13947:13961   */\n      add\n        /* \"#utility.yul\":13940:13972   */\n      mstore\n        /* \"#utility.yul\":13823:13979   */\n      pop\n      jump\t// out\n        /* \"#utility.yul\":13985:14153   */\n    tag_174:\n        /* \"#utility.yul\":14125:14145   */\n      0x537562737472616374696f6e206661696c640000000000000000000000000000\n        /* \"#utility.yul\":14121:14122   */\n      0x00\n        /* \"#utility.yul\":14113:14119   */\n      dup3\n        /* \"#utility.yul\":14109:14123   */\n      add\n        /* \"#utility.yul\":14102:14146   */\n      mstore\n        /* \"#utility.yul\":13985:14153   */\n      pop\n      jump\t// out\n        /* \"#utility.yul\":14159:14324   */\n    tag_179:\n        /* \"#utility.yul\":14299:14316   */\n      0x4164646974696f6e206661696c65640000000000000000000000000000000000\n        /* \"#utility.yul\":14295:14296   */\n      0x00\n        /* \"#utility.yul\":14287:14293   */\n      dup3\n        /* \"#utility.yul\":14283:14297   */\n      add\n        /* \"#utility.yul\":14276:14317   */\n      mstore\n        /* \"#utility.yul\":14159:14324   */\n      pop\n      jump\t// out\n        /* \"#utility.yul\":14330:14553   */\n    tag_184:\n        /* \"#utility.yul\":14470:14504   */\n      0x596f752073686f756c642061746c65617374207374616b6520666f722061206d\n        /* \"#utility.yul\":14466:14467   */\n      0x00\n        /* \"#utility.yul\":14458:14464   */\n      dup3\n        /* \"#utility.yul\":14454:14468   */\n      add\n        /* \"#utility.yul\":14447:14505   */\n      mstore\n        /* \"#utility.yul\":14539:14545   */\n      0x6f6e747900000000000000000000000000000000000000000000000000000000\n        /* \"#utility.yul\":14534:14536   */\n      0x20\n        /* \"#utility.yul\":14526:14532   */\n      dup3\n        /* \"#utility.yul\":14522:14537   */\n      add\n        /* \"#utility.yul\":14515:14546   */\n      mstore\n        /* \"#utility.yul\":14330:14553   */\n      pop\n      jump\t// out\n        /* \"#utility.yul\":14559:14723   */\n    tag_189:\n        /* \"#utility.yul\":14699:14715   */\n      0x4469766973696f6e206661696c64000000000000000000000000000000000000\n        /* \"#utility.yul\":14695:14696   */\n      0x00\n        /* \"#utility.yul\":14687:14693   */\n      dup3\n        /* \"#utility.yul\":14683:14697   */\n      add\n        /* \"#utility.yul\":14676:14716   */\n      mstore\n        /* \"#utility.yul\":14559:14723   */\n      pop\n      jump\t// out\n        /* \"#utility.yul\":14729:14955   */\n    tag_194:\n        /* \"#utility.yul\":14869:14903   */\n      0x446f65736e2774206861766520656e6f7567682062616c616e636520696e2074\n        /* \"#utility.yul\":14865:14866   */\n      0x00\n        /* \"#utility.yul\":14857:14863   */\n      dup3\n        /* \"#utility.yul\":14853:14867   */\n      add\n        /* \"#utility.yul\":14846:14904   */\n      mstore\n        /* \"#utility.yul\":14938:14947   */\n      0x68652062616e6b00000000000000000000000000000000000000000000000000\n        /* \"#utility.yul\":14933:14935   */\n      0x20\n        /* \"#utility.yul\":14925:14931   */\n      dup3\n        /* \"#utility.yul\":14921:14936   */\n      add\n        /* \"#utility.yul\":14914:14948   */\n      mstore\n        /* \"#utility.yul\":14729:14955   */\n      pop\n      jump\t// out\n        /* \"#utility.yul\":14961:15198   */\n    tag_199:\n        /* \"#utility.yul\":15101:15135   */\n      0x536f72727920776520646f6e2774206861766520656e6f756768206d6f6e6579\n        /* \"#utility.yul\":15097:15098   */\n      0x00\n        /* \"#utility.yul\":15089:15095   */\n      dup3\n        /* \"#utility.yul\":15085:15099   */\n      add\n        /* \"#utility.yul\":15078:15136   */\n      mstore\n        /* \"#utility.yul\":15170:15190   */\n      0x20736f20636f6d656261636b206c617465720000000000000000000000000000\n        /* \"#utility.yul\":15165:15167   */\n      0x20\n        /* \"#utility.yul\":15157:15163   */\n      dup3\n        /* \"#utility.yul\":15153:15168   */\n      add\n        /* \"#utility.yul\":15146:15191   */\n      mstore\n        /* \"#utility.yul\":14961:15198   */\n      pop\n      jump\t// out\n        /* \"#utility.yul\":15204:15374   */\n    tag_204:\n        /* \"#utility.yul\":15344:15366   */\n      0x4d756c7469706c69636174696f6e206661696c64000000000000000000000000\n        /* \"#utility.yul\":15340:15341   */\n      0x00\n        /* \"#utility.yul\":15332:15338   */\n      dup3\n        /* \"#utility.yul\":15328:15342   */\n      add\n        /* \"#utility.yul\":15321:15367   */\n      mstore\n        /* \"#utility.yul\":15204:15374   */\n      pop\n      jump\t// out\n        /* \"#utility.yul\":15380:15502   */\n    tag_126:\n        /* \"#utility.yul\":15453:15477   */\n      tag_285\n        /* \"#utility.yul\":15471:15476   */\n      dup2\n        /* \"#utility.yul\":15453:15477   */\n      tag_148\n      jump\t// in\n    tag_285:\n        /* \"#utility.yul\":15446:15451   */\n      dup2\n        /* \"#utility.yul\":15443:15478   */\n      eq\n        /* \"#utility.yul\":15433:15496   */\n      tag_286\n      jumpi\n        /* \"#utility.yul\":15492:15493   */\n      0x00\n        /* \"#utility.yul\":15489:15490   */\n      dup1\n        /* \"#utility.yul\":15482:15494   */\n      revert\n        /* \"#utility.yul\":15433:15496   */\n    tag_286:\n        /* \"#utility.yul\":15380:15502   */\n      pop\n      jump\t// out\n        /* \"#utility.yul\":15508:15630   */\n    tag_130:\n        /* \"#utility.yul\":15581:15605   */\n      tag_288\n        /* \"#utility.yul\":15599:15604   */\n      dup2\n        /* \"#utility.yul\":15581:15605   */\n      tag_208\n      jump\t// in\n    tag_288:\n        /* \"#utility.yul\":15574:15579   */\n      dup2\n        /* \"#utility.yul\":15571:15606   */\n      eq\n        /* \"#utility.yul\":15561:15624   */\n      tag_289\n      jumpi\n        /* \"#utility.yul\":15620:15621   */\n      0x00\n        /* \"#utility.yul\":15617:15618   */\n      dup1\n        /* \"#utility.yul\":15610:15622   */\n      revert\n        /* \"#utility.yul\":15561:15624   */\n    tag_289:\n        /* \"#utility.yul\":15508:15630   */\n      pop\n      jump\t// out\n\n    auxdata: 0xa2646970667358221220d44bed3c68ec0d77df03811efb0b38327bcb5ed72f5e075306ebee8b94fbba1d64736f6c63430008070033\n}\n",
				"bytecode": {
					"linkReferences": {},
					"object": "6080604052670de0b6b3a76400006000553480156200001d57600080fd5b5033600160006101000a81548173ffffffffffffffffffffffffffffffffffffffff021916908373ffffffffffffffffffffffffffffffffffffffff1602179055507ff67e7992d539193fc243c42fe89f8fab49013e8e4fb18cfa891dc51adcaccc8033604051620000909190620000d6565b60405180910390a162000176565b620000a98162000119565b82525050565b6000620000be60148362000108565b9150620000cb826200014d565b602082019050919050565b60006040820190508181036000830152620000f181620000af565b90506200010260208301846200009e565b92915050565b600082825260208201905092915050565b600062000126826200012d565b9050919050565b600073ffffffffffffffffffffffffffffffffffffffff82169050919050565b7f4c656e64696e6720706f6f6c2063726561746564000000000000000000000000600082015250565b61127380620001866000396000f3fe60806040526004361061008a5760003560e01c80636e1dc66e116100595780636e1dc66e146101085780638da5cb5b14610145578063aeae177c14610170578063d0e30db0146101ad578063f9931855146101b757610091565b80633607999b1461009357806356852391146100af578063650fad76146100c65780636e0e0da2146100f157610091565b3661009157005b005b6100ad60048036038101906100a89190610a4b565b6101f4565b005b3480156100bb57600080fd5b506100c4610258565b005b3480156100d257600080fd5b506100db6103ad565b6040516100e89190610dc2565b60405180910390f35b3480156100fd57600080fd5b506101066103b3565b005b34801561011457600080fd5b5061012f600480360381019061012a9190610a1e565b61069c565b60405161013c9190610dc2565b60405180910390f35b34801561015157600080fd5b5061015a6106b4565b6040516101679190610c39565b60405180910390f35b34801561017c57600080fd5b5061019760048036038101906101929190610a1e565b6106da565b6040516101a49190610dc2565b60405180910390f35b6101b56106f2565b005b3480156101c357600080fd5b506101de60048036038101906101d99190610a1e565b610864565b6040516101eb9190610dc2565b60405180910390f35b600254821115610239576040517f08c379a000000000000000000000000000000000000000000000000000000000815260040161023090610d62565b60405180910390fd5b61024e8260025461087c90919063ffffffff16565b6002819055505050565b6000600660003373ffffffffffffffffffffffffffffffffffffffff1673ffffffffffffffffffffffffffffffffffffffff16815260200190815260200160002054116102da576040517f08c379a00000000000000000000000000000000000000000000000000000000081526004016102d190610c94565b60405180910390fd5b6000600660003373ffffffffffffffffffffffffffffffffffffffff1673ffffffffffffffffffffffffffffffffffffffff1681526020019081526020016000205490506000600660003373ffffffffffffffffffffffffffffffffffffffff1673ffffffffffffffffffffffffffffffffffffffff168152602001908152602001600020819055503373ffffffffffffffffffffffffffffffffffffffff166108fc829081150290604051600060405180830381858888f193505050501580156103a9573d6000803e3d6000fd5b5050565b60005481565b6000600560003373ffffffffffffffffffffffffffffffffffffffff1673ffffffffffffffffffffffffffffffffffffffff1681526020019081526020016000205411610435576040517f08c379a000000000000000000000000000000000000000000000000000000000815260040161042c90610c54565b60405180910390fd5b60006104976201518042600460003373ffffffffffffffffffffffffffffffffffffffff1673ffffffffffffffffffffffffffffffffffffffff168152602001908152602001600020546104899190610ecf565b6108d590919063ffffffff16565b905062278d0081116104de576040517f08c379a00000000000000000000000000000000000000000000000000000000081526004016104d590610d22565b60405180910390fd5b6000610558606461054a600560003373ffffffffffffffffffffffffffffffffffffffff1673ffffffffffffffffffffffffffffffffffffffff1681526020019081526020016000205461053c60058761092d90919063ffffffff16565b61092d90919063ffffffff16565b6108d590919063ffffffff16565b600560003373ffffffffffffffffffffffffffffffffffffffff1673ffffffffffffffffffffffffffffffffffffffff168152602001908152602001600020546105a29190610dee565b905060025481106105e8576040517f08c379a00000000000000000000000000000000000000000000000000000000081526004016105df90610d82565b60405180910390fd5b6105fd8160025461087c90919063ffffffff16565b60028190555061065581600660003373ffffffffffffffffffffffffffffffffffffffff1673ffffffffffffffffffffffffffffffffffffffff1681526020019081526020016000205461099b90919063ffffffff16565b600660003373ffffffffffffffffffffffffffffffffffffffff1673ffffffffffffffffffffffffffffffffffffffff168152602001908152602001600020819055505050565b60046020528060005260406000206000915090505481565b600160009054906101000a900473ffffffffffffffffffffffffffffffffffffffff1681565b60066020528060005260406000206000915090505481565b600054341015610737576040517f08c379a000000000000000000000000000000000000000000000000000000000815260040161072e90610c74565b60405180910390fd5b42600460003373ffffffffffffffffffffffffffffffffffffffff1673ffffffffffffffffffffffffffffffffffffffff168152602001908152602001600020819055506107cd34600560003373ffffffffffffffffffffffffffffffffffffffff1673ffffffffffffffffffffffffffffffffffffffff1681526020019081526020016000205461099b90919063ffffffff16565b600560003373ffffffffffffffffffffffffffffffffffffffff1673ffffffffffffffffffffffffffffffffffffffff168152602001908152602001600020819055506108253460025461099b90919063ffffffff16565b6002819055507ff67e7992d539193fc243c42fe89f8fab49013e8e4fb18cfa891dc51adcaccc803360405161085a9190610cb4565b60405180910390a1565b60056020528060005260406000206000915090505481565b6000828211156108c1576040517f08c379a00000000000000000000000000000000000000000000000000000000081526004016108b890610ce2565b60405180910390fd5b81836108cd9190610ecf565b905092915050565b6000808211610919576040517f08c379a000000000000000000000000000000000000000000000000000000000815260040161091090610d42565b60405180910390fd5b81836109259190610e44565b905092915050565b6000818361093b9190610e75565b9050600083148061095657508183826109549190610e44565b145b610995576040517f08c379a000000000000000000000000000000000000000000000000000000000815260040161098c90610da2565b60405180910390fd5b92915050565b600081836109a99190610dee565b9050828110156109ee576040517f08c379a00000000000000000000000000000000000000000000000000000000081526004016109e590610d02565b60405180910390fd5b92915050565b600081359050610a038161120f565b92915050565b600081359050610a1881611226565b92915050565b600060208284031215610a3457610a33610faf565b5b6000610a42848285016109f4565b91505092915050565b60008060408385031215610a6257610a61610faf565b5b6000610a7085828601610a09565b9250506020610a81858286016109f4565b9150509250929050565b610a9481610f15565b82525050565b610aa381610f03565b82525050565b6000610ab6602083610ddd565b9150610ac182610fb4565b602082019050919050565b6000610ad9601883610ddd565b9150610ae482610fdd565b602082019050919050565b6000610afc602483610ddd565b9150610b0782611006565b604082019050919050565b6000610b1f600683610ddd565b9150610b2a82611055565b602082019050919050565b6000610b42601283610ddd565b9150610b4d8261107e565b602082019050919050565b6000610b65600f83610ddd565b9150610b70826110a7565b602082019050919050565b6000610b88602483610ddd565b9150610b93826110d0565b604082019050919050565b6000610bab600e83610ddd565b9150610bb68261111f565b602082019050919050565b6000610bce602783610ddd565b9150610bd982611148565b604082019050919050565b6000610bf1603283610ddd565b9150610bfc82611197565b604082019050919050565b6000610c14601483610ddd565b9150610c1f826111e6565b602082019050919050565b610c3381610f47565b82525050565b6000602082019050610c4e6000830184610a8b565b92915050565b60006020820190508181036000830152610c6d81610aa9565b9050919050565b60006020820190508181036000830152610c8d81610acc565b9050919050565b60006020820190508181036000830152610cad81610aef565b9050919050565b60006040820190508181036000830152610ccd81610b12565b9050610cdc6020830184610a9a565b92915050565b60006020820190508181036000830152610cfb81610b35565b9050919050565b60006020820190508181036000830152610d1b81610b58565b9050919050565b60006020820190508181036000830152610d3b81610b7b565b9050919050565b60006020820190508181036000830152610d5b81610b9e565b9050919050565b60006020820190508181036000830152610d7b81610bc1565b9050919050565b60006020820190508181036000830152610d9b81610be4565b9050919050565b60006020820190508181036000830152610dbb81610c07565b9050919050565b6000602082019050610dd76000830184610c2a565b92915050565b600082825260208201905092915050565b6000610df982610f47565b9150610e0483610f47565b9250827fffffffffffffffffffffffffffffffffffffffffffffffffffffffffffffffff03821115610e3957610e38610f51565b5b828201905092915050565b6000610e4f82610f47565b9150610e5a83610f47565b925082610e6a57610e69610f80565b5b828204905092915050565b6000610e8082610f47565b9150610e8b83610f47565b9250817fffffffffffffffffffffffffffffffffffffffffffffffffffffffffffffffff0483118215151615610ec457610ec3610f51565b5b828202905092915050565b6000610eda82610f47565b9150610ee583610f47565b925082821015610ef857610ef7610f51565b5b828203905092915050565b6000610f0e82610f27565b9050919050565b6000610f2082610f27565b9050919050565b600073ffffffffffffffffffffffffffffffffffffffff82169050919050565b6000819050919050565b7f4e487b7100000000000000000000000000000000000000000000000000000000600052601160045260246000fd5b7f4e487b7100000000000000000000000000000000000000000000000000000000600052601260045260246000fd5b600080fd5b7f596f7520646f6e2774206861766520616e79206d6f6e657920696e2068657265600082015250565b7f4d696e696d756d20312045746865722052657175697265640000000000000000600082015250565b7f596f7520646f6e27742068617665206e6f2070656e64696e672077697468647260008201527f61776c7300000000000000000000000000000000000000000000000000000000602082015250565b7f7374616b65640000000000000000000000000000000000000000000000000000600082015250565b7f537562737472616374696f6e206661696c640000000000000000000000000000600082015250565b7f4164646974696f6e206661696c65640000000000000000000000000000000000600082015250565b7f596f752073686f756c642061746c65617374207374616b6520666f722061206d60008201527f6f6e747900000000000000000000000000000000000000000000000000000000602082015250565b7f4469766973696f6e206661696c64000000000000000000000000000000000000600082015250565b7f446f65736e2774206861766520656e6f7567682062616c616e636520696e207460008201527f68652062616e6b00000000000000000000000000000000000000000000000000602082015250565b7f536f72727920776520646f6e2774206861766520656e6f756768206d6f6e657960008201527f20736f20636f6d656261636b206c617465720000000000000000000000000000602082015250565b7f4d756c7469706c69636174696f6e206661696c64000000000000000000000000600082015250565b61121881610f03565b811461122357600080fd5b50565b61122f81610f47565b811461123a57600080fd5b5056fea2646970667358221220d44bed3c68ec0d77df03811efb0b38327bcb5ed72f5e075306ebee8b94fbba1d64736f6c63430008070033",
					"opcodes": "PUSH1 0x80 PUSH1 0x40 MSTORE PUSH8 0xDE0B6B3A7640000 PUSH1 0x0 SSTORE CALLVALUE DUP1 ISZERO PUSH3 0x1D JUMPI PUSH1 0x0 DUP1 REVERT JUMPDEST POP CALLER PUSH1 0x1 PUSH1 0x0 PUSH2 0x100 EXP DUP2 SLOAD DUP2 PUSH20 0xFFFFFFFFFFFFFFFFFFFFFFFFFFFFFFFFFFFFFFFF MUL NOT AND SWAP1 DUP4 PUSH20 0xFFFFFFFFFFFFFFFFFFFFFFFFFFFFFFFFFFFFFFFF AND MUL OR SWAP1 SSTORE POP PUSH32 0xF67E7992D539193FC243C42FE89F8FAB49013E8E4FB18CFA891DC51ADCACCC80 CALLER PUSH1 0x40 MLOAD PUSH3 0x90 SWAP2 SWAP1 PUSH3 0xD6 JUMP JUMPDEST PUSH1 0x40 MLOAD DUP1 SWAP2 SUB SWAP1 LOG1 PUSH3 0x176 JUMP JUMPDEST PUSH3 0xA9 DUP2 PUSH3 0x119 JUMP JUMPDEST DUP3 MSTORE POP POP JUMP JUMPDEST PUSH1 0x0 PUSH3 0xBE PUSH1 0x14 DUP4 PUSH3 0x108 JUMP JUMPDEST SWAP2 POP PUSH3 0xCB DUP3 PUSH3 0x14D JUMP JUMPDEST PUSH1 0x20 DUP3 ADD SWAP1 POP SWAP2 SWAP1 POP JUMP JUMPDEST PUSH1 0x0 PUSH1 0x40 DUP3 ADD SWAP1 POP DUP2 DUP2 SUB PUSH1 0x0 DUP4 ADD MSTORE PUSH3 0xF1 DUP2 PUSH3 0xAF JUMP JUMPDEST SWAP1 POP PUSH3 0x102 PUSH1 0x20 DUP4 ADD DUP5 PUSH3 0x9E JUMP JUMPDEST SWAP3 SWAP2 POP POP JUMP JUMPDEST PUSH1 0x0 DUP3 DUP3 MSTORE PUSH1 0x20 DUP3 ADD SWAP1 POP SWAP3 SWAP2 POP POP JUMP JUMPDEST PUSH1 0x0 PUSH3 0x126 DUP3 PUSH3 0x12D JUMP JUMPDEST SWAP1 POP SWAP2 SWAP1 POP JUMP JUMPDEST PUSH1 0x0 PUSH20 0xFFFFFFFFFFFFFFFFFFFFFFFFFFFFFFFFFFFFFFFF DUP3 AND SWAP1 POP SWAP2 SWAP1 POP JUMP JUMPDEST PUSH32 0x4C656E64696E6720706F6F6C2063726561746564000000000000000000000000 PUSH1 0x0 DUP3 ADD MSTORE POP JUMP JUMPDEST PUSH2 0x1273 DUP1 PUSH3 0x186 PUSH1 0x0 CODECOPY PUSH1 0x0 RETURN INVALID PUSH1 0x80 PUSH1 0x40 MSTORE PUSH1 0x4 CALLDATASIZE LT PUSH2 0x8A JUMPI PUSH1 0x0 CALLDATALOAD PUSH1 0xE0 SHR DUP1 PUSH4 0x6E1DC66E GT PUSH2 0x59 JUMPI DUP1 PUSH4 0x6E1DC66E EQ PUSH2 0x108 JUMPI DUP1 PUSH4 0x8DA5CB5B EQ PUSH2 0x145 JUMPI DUP1 PUSH4 0xAEAE177C EQ PUSH2 0x170 JUMPI DUP1 PUSH4 0xD0E30DB0 EQ PUSH2 0x1AD JUMPI DUP1 PUSH4 0xF9931855 EQ PUSH2 0x1B7 JUMPI PUSH2 0x91 JUMP JUMPDEST DUP1 PUSH4 0x3607999B EQ PUSH2 0x93 JUMPI DUP1 PUSH4 0x56852391 EQ PUSH2 0xAF JUMPI DUP1 PUSH4 0x650FAD76 EQ PUSH2 0xC6 JUMPI DUP1 PUSH4 0x6E0E0DA2 EQ PUSH2 0xF1 JUMPI PUSH2 0x91 JUMP JUMPDEST CALLDATASIZE PUSH2 0x91 JUMPI STOP JUMPDEST STOP JUMPDEST PUSH2 0xAD PUSH1 0x4 DUP1 CALLDATASIZE SUB DUP2 ADD SWAP1 PUSH2 0xA8 SWAP2 SWAP1 PUSH2 0xA4B JUMP JUMPDEST PUSH2 0x1F4 JUMP JUMPDEST STOP JUMPDEST CALLVALUE DUP1 ISZERO PUSH2 0xBB JUMPI PUSH1 0x0 DUP1 REVERT JUMPDEST POP PUSH2 0xC4 PUSH2 0x258 JUMP JUMPDEST STOP JUMPDEST CALLVALUE DUP1 ISZERO PUSH2 0xD2 JUMPI PUSH1 0x0 DUP1 REVERT JUMPDEST POP PUSH2 0xDB PUSH2 0x3AD JUMP JUMPDEST PUSH1 0x40 MLOAD PUSH2 0xE8 SWAP2 SWAP1 PUSH2 0xDC2 JUMP JUMPDEST PUSH1 0x40 MLOAD DUP1 SWAP2 SUB SWAP1 RETURN JUMPDEST CALLVALUE DUP1 ISZERO PUSH2 0xFD JUMPI PUSH1 0x0 DUP1 REVERT JUMPDEST POP PUSH2 0x106 PUSH2 0x3B3 JUMP JUMPDEST STOP JUMPDEST CALLVALUE DUP1 ISZERO PUSH2 0x114 JUMPI PUSH1 0x0 DUP1 REVERT JUMPDEST POP PUSH2 0x12F PUSH1 0x4 DUP1 CALLDATASIZE SUB DUP2 ADD SWAP1 PUSH2 0x12A SWAP2 SWAP1 PUSH2 0xA1E JUMP JUMPDEST PUSH2 0x69C JUMP JUMPDEST PUSH1 0x40 MLOAD PUSH2 0x13C SWAP2 SWAP1 PUSH2 0xDC2 JUMP JUMPDEST PUSH1 0x40 MLOAD DUP1 SWAP2 SUB SWAP1 RETURN JUMPDEST CALLVALUE DUP1 ISZERO PUSH2 0x151 JUMPI PUSH1 0x0 DUP1 REVERT JUMPDEST POP PUSH2 0x15A PUSH2 0x6B4 JUMP JUMPDEST PUSH1 0x40 MLOAD PUSH2 0x167 SWAP2 SWAP1 PUSH2 0xC39 JUMP JUMPDEST PUSH1 0x40 MLOAD DUP1 SWAP2 SUB SWAP1 RETURN JUMPDEST CALLVALUE DUP1 ISZERO PUSH2 0x17C JUMPI PUSH1 0x0 DUP1 REVERT JUMPDEST POP PUSH2 0x197 PUSH1 0x4 DUP1 CALLDATASIZE SUB DUP2 ADD SWAP1 PUSH2 0x192 SWAP2 SWAP1 PUSH2 0xA1E JUMP JUMPDEST PUSH2 0x6DA JUMP JUMPDEST PUSH1 0x40 MLOAD PUSH2 0x1A4 SWAP2 SWAP1 PUSH2 0xDC2 JUMP JUMPDEST PUSH1 0x40 MLOAD DUP1 SWAP2 SUB SWAP1 RETURN JUMPDEST PUSH2 0x1B5 PUSH2 0x6F2 JUMP JUMPDEST STOP JUMPDEST CALLVALUE DUP1 ISZERO PUSH2 0x1C3 JUMPI PUSH1 0x0 DUP1 REVERT JUMPDEST POP PUSH2 0x1DE PUSH1 0x4 DUP1 CALLDATASIZE SUB DUP2 ADD SWAP1 PUSH2 0x1D9 SWAP2 SWAP1 PUSH2 0xA1E JUMP JUMPDEST PUSH2 0x864 JUMP JUMPDEST PUSH1 0x40 MLOAD PUSH2 0x1EB SWAP2 SWAP1 PUSH2 0xDC2 JUMP JUMPDEST PUSH1 0x40 MLOAD DUP1 SWAP2 SUB SWAP1 RETURN JUMPDEST PUSH1 0x2 SLOAD DUP3 GT ISZERO PUSH2 0x239 JUMPI PUSH1 0x40 MLOAD PUSH32 0x8C379A000000000000000000000000000000000000000000000000000000000 DUP2 MSTORE PUSH1 0x4 ADD PUSH2 0x230 SWAP1 PUSH2 0xD62 JUMP JUMPDEST PUSH1 0x40 MLOAD DUP1 SWAP2 SUB SWAP1 REVERT JUMPDEST PUSH2 0x24E DUP3 PUSH1 0x2 SLOAD PUSH2 0x87C SWAP1 SWAP2 SWAP1 PUSH4 0xFFFFFFFF AND JUMP JUMPDEST PUSH1 0x2 DUP2 SWAP1 SSTORE POP POP POP JUMP JUMPDEST PUSH1 0x0 PUSH1 0x6 PUSH1 0x0 CALLER PUSH20 0xFFFFFFFFFFFFFFFFFFFFFFFFFFFFFFFFFFFFFFFF AND PUSH20 0xFFFFFFFFFFFFFFFFFFFFFFFFFFFFFFFFFFFFFFFF AND DUP2 MSTORE PUSH1 0x20 ADD SWAP1 DUP2 MSTORE PUSH1 0x20 ADD PUSH1 0x0 KECCAK256 SLOAD GT PUSH2 0x2DA JUMPI PUSH1 0x40 MLOAD PUSH32 0x8C379A000000000000000000000000000000000000000000000000000000000 DUP2 MSTORE PUSH1 0x4 ADD PUSH2 0x2D1 SWAP1 PUSH2 0xC94 JUMP JUMPDEST PUSH1 0x40 MLOAD DUP1 SWAP2 SUB SWAP1 REVERT JUMPDEST PUSH1 0x0 PUSH1 0x6 PUSH1 0x0 CALLER PUSH20 0xFFFFFFFFFFFFFFFFFFFFFFFFFFFFFFFFFFFFFFFF AND PUSH20 0xFFFFFFFFFFFFFFFFFFFFFFFFFFFFFFFFFFFFFFFF AND DUP2 MSTORE PUSH1 0x20 ADD SWAP1 DUP2 MSTORE PUSH1 0x20 ADD PUSH1 0x0 KECCAK256 SLOAD SWAP1 POP PUSH1 0x0 PUSH1 0x6 PUSH1 0x0 CALLER PUSH20 0xFFFFFFFFFFFFFFFFFFFFFFFFFFFFFFFFFFFFFFFF AND PUSH20 0xFFFFFFFFFFFFFFFFFFFFFFFFFFFFFFFFFFFFFFFF AND DUP2 MSTORE PUSH1 0x20 ADD SWAP1 DUP2 MSTORE PUSH1 0x20 ADD PUSH1 0x0 KECCAK256 DUP2 SWAP1 SSTORE POP CALLER PUSH20 0xFFFFFFFFFFFFFFFFFFFFFFFFFFFFFFFFFFFFFFFF AND PUSH2 0x8FC DUP3 SWAP1 DUP2 ISZERO MUL SWAP1 PUSH1 0x40 MLOAD PUSH1 0x0 PUSH1 0x40 MLOAD DUP1 DUP4 SUB DUP2 DUP6 DUP9 DUP9 CALL SWAP4 POP POP POP POP ISZERO DUP1 ISZERO PUSH2 0x3A9 JUMPI RETURNDATASIZE PUSH1 0x0 DUP1 RETURNDATACOPY RETURNDATASIZE PUSH1 0x0 REVERT JUMPDEST POP POP JUMP JUMPDEST PUSH1 0x0 SLOAD DUP2 JUMP JUMPDEST PUSH1 0x0 PUSH1 0x5 PUSH1 0x0 CALLER PUSH20 0xFFFFFFFFFFFFFFFFFFFFFFFFFFFFFFFFFFFFFFFF AND PUSH20 0xFFFFFFFFFFFFFFFFFFFFFFFFFFFFFFFFFFFFFFFF AND DUP2 MSTORE PUSH1 0x20 ADD SWAP1 DUP2 MSTORE PUSH1 0x20 ADD PUSH1 0x0 KECCAK256 SLOAD GT PUSH2 0x435 JUMPI PUSH1 0x40 MLOAD PUSH32 0x8C379A000000000000000000000000000000000000000000000000000000000 DUP2 MSTORE PUSH1 0x4 ADD PUSH2 0x42C SWAP1 PUSH2 0xC54 JUMP JUMPDEST PUSH1 0x40 MLOAD DUP1 SWAP2 SUB SWAP1 REVERT JUMPDEST PUSH1 0x0 PUSH2 0x497 PUSH3 0x15180 TIMESTAMP PUSH1 0x4 PUSH1 0x0 CALLER PUSH20 0xFFFFFFFFFFFFFFFFFFFFFFFFFFFFFFFFFFFFFFFF AND PUSH20 0xFFFFFFFFFFFFFFFFFFFFFFFFFFFFFFFFFFFFFFFF AND DUP2 MSTORE PUSH1 0x20 ADD SWAP1 DUP2 MSTORE PUSH1 0x20 ADD PUSH1 0x0 KECCAK256 SLOAD PUSH2 0x489 SWAP2 SWAP1 PUSH2 0xECF JUMP JUMPDEST PUSH2 0x8D5 SWAP1 SWAP2 SWAP1 PUSH4 0xFFFFFFFF AND JUMP JUMPDEST SWAP1 POP PUSH3 0x278D00 DUP2 GT PUSH2 0x4DE JUMPI PUSH1 0x40 MLOAD PUSH32 0x8C379A000000000000000000000000000000000000000000000000000000000 DUP2 MSTORE PUSH1 0x4 ADD PUSH2 0x4D5 SWAP1 PUSH2 0xD22 JUMP JUMPDEST PUSH1 0x40 MLOAD DUP1 SWAP2 SUB SWAP1 REVERT JUMPDEST PUSH1 0x0 PUSH2 0x558 PUSH1 0x64 PUSH2 0x54A PUSH1 0x5 PUSH1 0x0 CALLER PUSH20 0xFFFFFFFFFFFFFFFFFFFFFFFFFFFFFFFFFFFFFFFF AND PUSH20 0xFFFFFFFFFFFFFFFFFFFFFFFFFFFFFFFFFFFFFFFF AND DUP2 MSTORE PUSH1 0x20 ADD SWAP1 DUP2 MSTORE PUSH1 0x20 ADD PUSH1 0x0 KECCAK256 SLOAD PUSH2 0x53C PUSH1 0x5 DUP8 PUSH2 0x92D SWAP1 SWAP2 SWAP1 PUSH4 0xFFFFFFFF AND JUMP JUMPDEST PUSH2 0x92D SWAP1 SWAP2 SWAP1 PUSH4 0xFFFFFFFF AND JUMP JUMPDEST PUSH2 0x8D5 SWAP1 SWAP2 SWAP1 PUSH4 0xFFFFFFFF AND JUMP JUMPDEST PUSH1 0x5 PUSH1 0x0 CALLER PUSH20 0xFFFFFFFFFFFFFFFFFFFFFFFFFFFFFFFFFFFFFFFF AND PUSH20 0xFFFFFFFFFFFFFFFFFFFFFFFFFFFFFFFFFFFFFFFF AND DUP2 MSTORE PUSH1 0x20 ADD SWAP1 DUP2 MSTORE PUSH1 0x20 ADD PUSH1 0x0 KECCAK256 SLOAD PUSH2 0x5A2 SWAP2 SWAP1 PUSH2 0xDEE JUMP JUMPDEST SWAP1 POP PUSH1 0x2 SLOAD DUP2 LT PUSH2 0x5E8 JUMPI PUSH1 0x40 MLOAD PUSH32 0x8C379A000000000000000000000000000000000000000000000000000000000 DUP2 MSTORE PUSH1 0x4 ADD PUSH2 0x5DF SWAP1 PUSH2 0xD82 JUMP JUMPDEST PUSH1 0x40 MLOAD DUP1 SWAP2 SUB SWAP1 REVERT JUMPDEST PUSH2 0x5FD DUP2 PUSH1 0x2 SLOAD PUSH2 0x87C SWAP1 SWAP2 SWAP1 PUSH4 0xFFFFFFFF AND JUMP JUMPDEST PUSH1 0x2 DUP2 SWAP1 SSTORE POP PUSH2 0x655 DUP2 PUSH1 0x6 PUSH1 0x0 CALLER PUSH20 0xFFFFFFFFFFFFFFFFFFFFFFFFFFFFFFFFFFFFFFFF AND PUSH20 0xFFFFFFFFFFFFFFFFFFFFFFFFFFFFFFFFFFFFFFFF AND DUP2 MSTORE PUSH1 0x20 ADD SWAP1 DUP2 MSTORE PUSH1 0x20 ADD PUSH1 0x0 KECCAK256 SLOAD PUSH2 0x99B SWAP1 SWAP2 SWAP1 PUSH4 0xFFFFFFFF AND JUMP JUMPDEST PUSH1 0x6 PUSH1 0x0 CALLER PUSH20 0xFFFFFFFFFFFFFFFFFFFFFFFFFFFFFFFFFFFFFFFF AND PUSH20 0xFFFFFFFFFFFFFFFFFFFFFFFFFFFFFFFFFFFFFFFF AND DUP2 MSTORE PUSH1 0x20 ADD SWAP1 DUP2 MSTORE PUSH1 0x20 ADD PUSH1 0x0 KECCAK256 DUP2 SWAP1 SSTORE POP POP POP JUMP JUMPDEST PUSH1 0x4 PUSH1 0x20 MSTORE DUP1 PUSH1 0x0 MSTORE PUSH1 0x40 PUSH1 0x0 KECCAK256 PUSH1 0x0 SWAP2 POP SWAP1 POP SLOAD DUP2 JUMP JUMPDEST PUSH1 0x1 PUSH1 0x0 SWAP1 SLOAD SWAP1 PUSH2 0x100 EXP SWAP1 DIV PUSH20 0xFFFFFFFFFFFFFFFFFFFFFFFFFFFFFFFFFFFFFFFF AND DUP2 JUMP JUMPDEST PUSH1 0x6 PUSH1 0x20 MSTORE DUP1 PUSH1 0x0 MSTORE PUSH1 0x40 PUSH1 0x0 KECCAK256 PUSH1 0x0 SWAP2 POP SWAP1 POP SLOAD DUP2 JUMP JUMPDEST PUSH1 0x0 SLOAD CALLVALUE LT ISZERO PUSH2 0x737 JUMPI PUSH1 0x40 MLOAD PUSH32 0x8C379A000000000000000000000000000000000000000000000000000000000 DUP2 MSTORE PUSH1 0x4 ADD PUSH2 0x72E SWAP1 PUSH2 0xC74 JUMP JUMPDEST PUSH1 0x40 MLOAD DUP1 SWAP2 SUB SWAP1 REVERT JUMPDEST TIMESTAMP PUSH1 0x4 PUSH1 0x0 CALLER PUSH20 0xFFFFFFFFFFFFFFFFFFFFFFFFFFFFFFFFFFFFFFFF AND PUSH20 0xFFFFFFFFFFFFFFFFFFFFFFFFFFFFFFFFFFFFFFFF AND DUP2 MSTORE PUSH1 0x20 ADD SWAP1 DUP2 MSTORE PUSH1 0x20 ADD PUSH1 0x0 KECCAK256 DUP2 SWAP1 SSTORE POP PUSH2 0x7CD CALLVALUE PUSH1 0x5 PUSH1 0x0 CALLER PUSH20 0xFFFFFFFFFFFFFFFFFFFFFFFFFFFFFFFFFFFFFFFF AND PUSH20 0xFFFFFFFFFFFFFFFFFFFFFFFFFFFFFFFFFFFFFFFF AND DUP2 MSTORE PUSH1 0x20 ADD SWAP1 DUP2 MSTORE PUSH1 0x20 ADD PUSH1 0x0 KECCAK256 SLOAD PUSH2 0x99B SWAP1 SWAP2 SWAP1 PUSH4 0xFFFFFFFF AND JUMP JUMPDEST PUSH1 0x5 PUSH1 0x0 CALLER PUSH20 0xFFFFFFFFFFFFFFFFFFFFFFFFFFFFFFFFFFFFFFFF AND PUSH20 0xFFFFFFFFFFFFFFFFFFFFFFFFFFFFFFFFFFFFFFFF AND DUP2 MSTORE PUSH1 0x20 ADD SWAP1 DUP2 MSTORE PUSH1 0x20 ADD PUSH1 0x0 KECCAK256 DUP2 SWAP1 SSTORE POP PUSH2 0x825 CALLVALUE PUSH1 0x2 SLOAD PUSH2 0x99B SWAP1 SWAP2 SWAP1 PUSH4 0xFFFFFFFF AND JUMP JUMPDEST PUSH1 0x2 DUP2 SWAP1 SSTORE POP PUSH32 0xF67E7992D539193FC243C42FE89F8FAB49013E8E4FB18CFA891DC51ADCACCC80 CALLER PUSH1 0x40 MLOAD PUSH2 0x85A SWAP2 SWAP1 PUSH2 0xCB4 JUMP JUMPDEST PUSH1 0x40 MLOAD DUP1 SWAP2 SUB SWAP1 LOG1 JUMP JUMPDEST PUSH1 0x5 PUSH1 0x20 MSTORE DUP1 PUSH1 0x0 MSTORE PUSH1 0x40 PUSH1 0x0 KECCAK256 PUSH1 0x0 SWAP2 POP SWAP1 POP SLOAD DUP2 JUMP JUMPDEST PUSH1 0x0 DUP3 DUP3 GT ISZERO PUSH2 0x8C1 JUMPI PUSH1 0x40 MLOAD PUSH32 0x8C379A000000000000000000000000000000000000000000000000000000000 DUP2 MSTORE PUSH1 0x4 ADD PUSH2 0x8B8 SWAP1 PUSH2 0xCE2 JUMP JUMPDEST PUSH1 0x40 MLOAD DUP1 SWAP2 SUB SWAP1 REVERT JUMPDEST DUP2 DUP4 PUSH2 0x8CD SWAP2 SWAP1 PUSH2 0xECF JUMP JUMPDEST SWAP1 POP SWAP3 SWAP2 POP POP JUMP JUMPDEST PUSH1 0x0 DUP1 DUP3 GT PUSH2 0x919 JUMPI PUSH1 0x40 MLOAD PUSH32 0x8C379A000000000000000000000000000000000000000000000000000000000 DUP2 MSTORE PUSH1 0x4 ADD PUSH2 0x910 SWAP1 PUSH2 0xD42 JUMP JUMPDEST PUSH1 0x40 MLOAD DUP1 SWAP2 SUB SWAP1 REVERT JUMPDEST DUP2 DUP4 PUSH2 0x925 SWAP2 SWAP1 PUSH2 0xE44 JUMP JUMPDEST SWAP1 POP SWAP3 SWAP2 POP POP JUMP JUMPDEST PUSH1 0x0 DUP2 DUP4 PUSH2 0x93B SWAP2 SWAP1 PUSH2 0xE75 JUMP JUMPDEST SWAP1 POP PUSH1 0x0 DUP4 EQ DUP1 PUSH2 0x956 JUMPI POP DUP2 DUP4 DUP3 PUSH2 0x954 SWAP2 SWAP1 PUSH2 0xE44 JUMP JUMPDEST EQ JUMPDEST PUSH2 0x995 JUMPI PUSH1 0x40 MLOAD PUSH32 0x8C379A000000000000000000000000000000000000000000000000000000000 DUP2 MSTORE PUSH1 0x4 ADD PUSH2 0x98C SWAP1 PUSH2 0xDA2 JUMP JUMPDEST PUSH1 0x40 MLOAD DUP1 SWAP2 SUB SWAP1 REVERT JUMPDEST SWAP3 SWAP2 POP POP JUMP JUMPDEST PUSH1 0x0 DUP2 DUP4 PUSH2 0x9A9 SWAP2 SWAP1 PUSH2 0xDEE JUMP JUMPDEST SWAP1 POP DUP3 DUP2 LT ISZERO PUSH2 0x9EE JUMPI PUSH1 0x40 MLOAD PUSH32 0x8C379A000000000000000000000000000000000000000000000000000000000 DUP2 MSTORE PUSH1 0x4 ADD PUSH2 0x9E5 SWAP1 PUSH2 0xD02 JUMP JUMPDEST PUSH1 0x40 MLOAD DUP1 SWAP2 SUB SWAP1 REVERT JUMPDEST SWAP3 SWAP2 POP POP JUMP JUMPDEST PUSH1 0x0 DUP2 CALLDATALOAD SWAP1 POP PUSH2 0xA03 DUP2 PUSH2 0x120F JUMP JUMPDEST SWAP3 SWAP2 POP POP JUMP JUMPDEST PUSH1 0x0 DUP2 CALLDATALOAD SWAP1 POP PUSH2 0xA18 DUP2 PUSH2 0x1226 JUMP JUMPDEST SWAP3 SWAP2 POP POP JUMP JUMPDEST PUSH1 0x0 PUSH1 0x20 DUP3 DUP5 SUB SLT ISZERO PUSH2 0xA34 JUMPI PUSH2 0xA33 PUSH2 0xFAF JUMP JUMPDEST JUMPDEST PUSH1 0x0 PUSH2 0xA42 DUP5 DUP3 DUP6 ADD PUSH2 0x9F4 JUMP JUMPDEST SWAP2 POP POP SWAP3 SWAP2 POP POP JUMP JUMPDEST PUSH1 0x0 DUP1 PUSH1 0x40 DUP4 DUP6 SUB SLT ISZERO PUSH2 0xA62 JUMPI PUSH2 0xA61 PUSH2 0xFAF JUMP JUMPDEST JUMPDEST PUSH1 0x0 PUSH2 0xA70 DUP6 DUP3 DUP7 ADD PUSH2 0xA09 JUMP JUMPDEST SWAP3 POP POP PUSH1 0x20 PUSH2 0xA81 DUP6 DUP3 DUP7 ADD PUSH2 0x9F4 JUMP JUMPDEST SWAP2 POP POP SWAP3 POP SWAP3 SWAP1 POP JUMP JUMPDEST PUSH2 0xA94 DUP2 PUSH2 0xF15 JUMP JUMPDEST DUP3 MSTORE POP POP JUMP JUMPDEST PUSH2 0xAA3 DUP2 PUSH2 0xF03 JUMP JUMPDEST DUP3 MSTORE POP POP JUMP JUMPDEST PUSH1 0x0 PUSH2 0xAB6 PUSH1 0x20 DUP4 PUSH2 0xDDD JUMP JUMPDEST SWAP2 POP PUSH2 0xAC1 DUP3 PUSH2 0xFB4 JUMP JUMPDEST PUSH1 0x20 DUP3 ADD SWAP1 POP SWAP2 SWAP1 POP JUMP JUMPDEST PUSH1 0x0 PUSH2 0xAD9 PUSH1 0x18 DUP4 PUSH2 0xDDD JUMP JUMPDEST SWAP2 POP PUSH2 0xAE4 DUP3 PUSH2 0xFDD JUMP JUMPDEST PUSH1 0x20 DUP3 ADD SWAP1 POP SWAP2 SWAP1 POP JUMP JUMPDEST PUSH1 0x0 PUSH2 0xAFC PUSH1 0x24 DUP4 PUSH2 0xDDD JUMP JUMPDEST SWAP2 POP PUSH2 0xB07 DUP3 PUSH2 0x1006 JUMP JUMPDEST PUSH1 0x40 DUP3 ADD SWAP1 POP SWAP2 SWAP1 POP JUMP JUMPDEST PUSH1 0x0 PUSH2 0xB1F PUSH1 0x6 DUP4 PUSH2 0xDDD JUMP JUMPDEST SWAP2 POP PUSH2 0xB2A DUP3 PUSH2 0x1055 JUMP JUMPDEST PUSH1 0x20 DUP3 ADD SWAP1 POP SWAP2 SWAP1 POP JUMP JUMPDEST PUSH1 0x0 PUSH2 0xB42 PUSH1 0x12 DUP4 PUSH2 0xDDD JUMP JUMPDEST SWAP2 POP PUSH2 0xB4D DUP3 PUSH2 0x107E JUMP JUMPDEST PUSH1 0x20 DUP3 ADD SWAP1 POP SWAP2 SWAP1 POP JUMP JUMPDEST PUSH1 0x0 PUSH2 0xB65 PUSH1 0xF DUP4 PUSH2 0xDDD JUMP JUMPDEST SWAP2 POP PUSH2 0xB70 DUP3 PUSH2 0x10A7 JUMP JUMPDEST PUSH1 0x20 DUP3 ADD SWAP1 POP SWAP2 SWAP1 POP JUMP JUMPDEST PUSH1 0x0 PUSH2 0xB88 PUSH1 0x24 DUP4 PUSH2 0xDDD JUMP JUMPDEST SWAP2 POP PUSH2 0xB93 DUP3 PUSH2 0x10D0 JUMP JUMPDEST PUSH1 0x40 DUP3 ADD SWAP1 POP SWAP2 SWAP1 POP JUMP JUMPDEST PUSH1 0x0 PUSH2 0xBAB PUSH1 0xE DUP4 PUSH2 0xDDD JUMP JUMPDEST SWAP2 POP PUSH2 0xBB6 DUP3 PUSH2 0x111F JUMP JUMPDEST PUSH1 0x20 DUP3 ADD SWAP1 POP SWAP2 SWAP1 POP JUMP JUMPDEST PUSH1 0x0 PUSH2 0xBCE PUSH1 0x27 DUP4 PUSH2 0xDDD JUMP JUMPDEST SWAP2 POP PUSH2 0xBD9 DUP3 PUSH2 0x1148 JUMP JUMPDEST PUSH1 0x40 DUP3 ADD SWAP1 POP SWAP2 SWAP1 POP JUMP JUMPDEST PUSH1 0x0 PUSH2 0xBF1 PUSH1 0x32 DUP4 PUSH2 0xDDD JUMP JUMPDEST SWAP2 POP PUSH2 0xBFC DUP3 PUSH2 0x1197 JUMP JUMPDEST PUSH1 0x40 DUP3 ADD SWAP1 POP SWAP2 SWAP1 POP JUMP JUMPDEST PUSH1 0x0 PUSH2 0xC14 PUSH1 0x14 DUP4 PUSH2 0xDDD JUMP JUMPDEST SWAP2 POP PUSH2 0xC1F DUP3 PUSH2 0x11E6 JUMP JUMPDEST PUSH1 0x20 DUP3 ADD SWAP1 POP SWAP2 SWAP1 POP JUMP JUMPDEST PUSH2 0xC33 DUP2 PUSH2 0xF47 JUMP JUMPDEST DUP3 MSTORE POP POP JUMP JUMPDEST PUSH1 0x0 PUSH1 0x20 DUP3 ADD SWAP1 POP PUSH2 0xC4E PUSH1 0x0 DUP4 ADD DUP5 PUSH2 0xA8B JUMP JUMPDEST SWAP3 SWAP2 POP POP JUMP JUMPDEST PUSH1 0x0 PUSH1 0x20 DUP3 ADD SWAP1 POP DUP2 DUP2 SUB PUSH1 0x0 DUP4 ADD MSTORE PUSH2 0xC6D DUP2 PUSH2 0xAA9 JUMP JUMPDEST SWAP1 POP SWAP2 SWAP1 POP JUMP JUMPDEST PUSH1 0x0 PUSH1 0x20 DUP3 ADD SWAP1 POP DUP2 DUP2 SUB PUSH1 0x0 DUP4 ADD MSTORE PUSH2 0xC8D DUP2 PUSH2 0xACC JUMP JUMPDEST SWAP1 POP SWAP2 SWAP1 POP JUMP JUMPDEST PUSH1 0x0 PUSH1 0x20 DUP3 ADD SWAP1 POP DUP2 DUP2 SUB PUSH1 0x0 DUP4 ADD MSTORE PUSH2 0xCAD DUP2 PUSH2 0xAEF JUMP JUMPDEST SWAP1 POP SWAP2 SWAP1 POP JUMP JUMPDEST PUSH1 0x0 PUSH1 0x40 DUP3 ADD SWAP1 POP DUP2 DUP2 SUB PUSH1 0x0 DUP4 ADD MSTORE PUSH2 0xCCD DUP2 PUSH2 0xB12 JUMP JUMPDEST SWAP1 POP PUSH2 0xCDC PUSH1 0x20 DUP4 ADD DUP5 PUSH2 0xA9A JUMP JUMPDEST SWAP3 SWAP2 POP POP JUMP JUMPDEST PUSH1 0x0 PUSH1 0x20 DUP3 ADD SWAP1 POP DUP2 DUP2 SUB PUSH1 0x0 DUP4 ADD MSTORE PUSH2 0xCFB DUP2 PUSH2 0xB35 JUMP JUMPDEST SWAP1 POP SWAP2 SWAP1 POP JUMP JUMPDEST PUSH1 0x0 PUSH1 0x20 DUP3 ADD SWAP1 POP DUP2 DUP2 SUB PUSH1 0x0 DUP4 ADD MSTORE PUSH2 0xD1B DUP2 PUSH2 0xB58 JUMP JUMPDEST SWAP1 POP SWAP2 SWAP1 POP JUMP JUMPDEST PUSH1 0x0 PUSH1 0x20 DUP3 ADD SWAP1 POP DUP2 DUP2 SUB PUSH1 0x0 DUP4 ADD MSTORE PUSH2 0xD3B DUP2 PUSH2 0xB7B JUMP JUMPDEST SWAP1 POP SWAP2 SWAP1 POP JUMP JUMPDEST PUSH1 0x0 PUSH1 0x20 DUP3 ADD SWAP1 POP DUP2 DUP2 SUB PUSH1 0x0 DUP4 ADD MSTORE PUSH2 0xD5B DUP2 PUSH2 0xB9E JUMP JUMPDEST SWAP1 POP SWAP2 SWAP1 POP JUMP JUMPDEST PUSH1 0x0 PUSH1 0x20 DUP3 ADD SWAP1 POP DUP2 DUP2 SUB PUSH1 0x0 DUP4 ADD MSTORE PUSH2 0xD7B DUP2 PUSH2 0xBC1 JUMP JUMPDEST SWAP1 POP SWAP2 SWAP1 POP JUMP JUMPDEST PUSH1 0x0 PUSH1 0x20 DUP3 ADD SWAP1 POP DUP2 DUP2 SUB PUSH1 0x0 DUP4 ADD MSTORE PUSH2 0xD9B DUP2 PUSH2 0xBE4 JUMP JUMPDEST SWAP1 POP SWAP2 SWAP1 POP JUMP JUMPDEST PUSH1 0x0 PUSH1 0x20 DUP3 ADD SWAP1 POP DUP2 DUP2 SUB PUSH1 0x0 DUP4 ADD MSTORE PUSH2 0xDBB DUP2 PUSH2 0xC07 JUMP JUMPDEST SWAP1 POP SWAP2 SWAP1 POP JUMP JUMPDEST PUSH1 0x0 PUSH1 0x20 DUP3 ADD SWAP1 POP PUSH2 0xDD7 PUSH1 0x0 DUP4 ADD DUP5 PUSH2 0xC2A JUMP JUMPDEST SWAP3 SWAP2 POP POP JUMP JUMPDEST PUSH1 0x0 DUP3 DUP3 MSTORE PUSH1 0x20 DUP3 ADD SWAP1 POP SWAP3 SWAP2 POP POP JUMP JUMPDEST PUSH1 0x0 PUSH2 0xDF9 DUP3 PUSH2 0xF47 JUMP JUMPDEST SWAP2 POP PUSH2 0xE04 DUP4 PUSH2 0xF47 JUMP JUMPDEST SWAP3 POP DUP3 PUSH32 0xFFFFFFFFFFFFFFFFFFFFFFFFFFFFFFFFFFFFFFFFFFFFFFFFFFFFFFFFFFFFFFFF SUB DUP3 GT ISZERO PUSH2 0xE39 JUMPI PUSH2 0xE38 PUSH2 0xF51 JUMP JUMPDEST JUMPDEST DUP3 DUP3 ADD SWAP1 POP SWAP3 SWAP2 POP POP JUMP JUMPDEST PUSH1 0x0 PUSH2 0xE4F DUP3 PUSH2 0xF47 JUMP JUMPDEST SWAP2 POP PUSH2 0xE5A DUP4 PUSH2 0xF47 JUMP JUMPDEST SWAP3 POP DUP3 PUSH2 0xE6A JUMPI PUSH2 0xE69 PUSH2 0xF80 JUMP JUMPDEST JUMPDEST DUP3 DUP3 DIV SWAP1 POP SWAP3 SWAP2 POP POP JUMP JUMPDEST PUSH1 0x0 PUSH2 0xE80 DUP3 PUSH2 0xF47 JUMP JUMPDEST SWAP2 POP PUSH2 0xE8B DUP4 PUSH2 0xF47 JUMP JUMPDEST SWAP3 POP DUP2 PUSH32 0xFFFFFFFFFFFFFFFFFFFFFFFFFFFFFFFFFFFFFFFFFFFFFFFFFFFFFFFFFFFFFFFF DIV DUP4 GT DUP3 ISZERO ISZERO AND ISZERO PUSH2 0xEC4 JUMPI PUSH2 0xEC3 PUSH2 0xF51 JUMP JUMPDEST JUMPDEST DUP3 DUP3 MUL SWAP1 POP SWAP3 SWAP2 POP POP JUMP JUMPDEST PUSH1 0x0 PUSH2 0xEDA DUP3 PUSH2 0xF47 JUMP JUMPDEST SWAP2 POP PUSH2 0xEE5 DUP4 PUSH2 0xF47 JUMP JUMPDEST SWAP3 POP DUP3 DUP3 LT ISZERO PUSH2 0xEF8 JUMPI PUSH2 0xEF7 PUSH2 0xF51 JUMP JUMPDEST JUMPDEST DUP3 DUP3 SUB SWAP1 POP SWAP3 SWAP2 POP POP JUMP JUMPDEST PUSH1 0x0 PUSH2 0xF0E DUP3 PUSH2 0xF27 JUMP JUMPDEST SWAP1 POP SWAP2 SWAP1 POP JUMP JUMPDEST PUSH1 0x0 PUSH2 0xF20 DUP3 PUSH2 0xF27 JUMP JUMPDEST SWAP1 POP SWAP2 SWAP1 POP JUMP JUMPDEST PUSH1 0x0 PUSH20 0xFFFFFFFFFFFFFFFFFFFFFFFFFFFFFFFFFFFFFFFF DUP3 AND SWAP1 POP SWAP2 SWAP1 POP JUMP JUMPDEST PUSH1 0x0 DUP2 SWAP1 POP SWAP2 SWAP1 POP JUMP JUMPDEST PUSH32 0x4E487B7100000000000000000000000000000000000000000000000000000000 PUSH1 0x0 MSTORE PUSH1 0x11 PUSH1 0x4 MSTORE PUSH1 0x24 PUSH1 0x0 REVERT JUMPDEST PUSH32 0x4E487B7100000000000000000000000000000000000000000000000000000000 PUSH1 0x0 MSTORE PUSH1 0x12 PUSH1 0x4 MSTORE PUSH1 0x24 PUSH1 0x0 REVERT JUMPDEST PUSH1 0x0 DUP1 REVERT JUMPDEST PUSH32 0x596F7520646F6E2774206861766520616E79206D6F6E657920696E2068657265 PUSH1 0x0 DUP3 ADD MSTORE POP JUMP JUMPDEST PUSH32 0x4D696E696D756D20312045746865722052657175697265640000000000000000 PUSH1 0x0 DUP3 ADD MSTORE POP JUMP JUMPDEST PUSH32 0x596F7520646F6E27742068617665206E6F2070656E64696E6720776974686472 PUSH1 0x0 DUP3 ADD MSTORE PUSH32 0x61776C7300000000000000000000000000000000000000000000000000000000 PUSH1 0x20 DUP3 ADD MSTORE POP JUMP JUMPDEST PUSH32 0x7374616B65640000000000000000000000000000000000000000000000000000 PUSH1 0x0 DUP3 ADD MSTORE POP JUMP JUMPDEST PUSH32 0x537562737472616374696F6E206661696C640000000000000000000000000000 PUSH1 0x0 DUP3 ADD MSTORE POP JUMP JUMPDEST PUSH32 0x4164646974696F6E206661696C65640000000000000000000000000000000000 PUSH1 0x0 DUP3 ADD MSTORE POP JUMP JUMPDEST PUSH32 0x596F752073686F756C642061746C65617374207374616B6520666F722061206D PUSH1 0x0 DUP3 ADD MSTORE PUSH32 0x6F6E747900000000000000000000000000000000000000000000000000000000 PUSH1 0x20 DUP3 ADD MSTORE POP JUMP JUMPDEST PUSH32 0x4469766973696F6E206661696C64000000000000000000000000000000000000 PUSH1 0x0 DUP3 ADD MSTORE POP JUMP JUMPDEST PUSH32 0x446F65736E2774206861766520656E6F7567682062616C616E636520696E2074 PUSH1 0x0 DUP3 ADD MSTORE PUSH32 0x68652062616E6B00000000000000000000000000000000000000000000000000 PUSH1 0x20 DUP3 ADD MSTORE POP JUMP JUMPDEST PUSH32 0x536F72727920776520646F6E2774206861766520656E6F756768206D6F6E6579 PUSH1 0x0 DUP3 ADD MSTORE PUSH32 0x20736F20636F6D656261636B206C617465720000000000000000000000000000 PUSH1 0x20 DUP3 ADD MSTORE POP JUMP JUMPDEST PUSH32 0x4D756C7469706C69636174696F6E206661696C64000000000000000000000000 PUSH1 0x0 DUP3 ADD MSTORE POP JUMP JUMPDEST PUSH2 0x1218 DUP2 PUSH2 0xF03 JUMP JUMPDEST DUP2 EQ PUSH2 0x1223 JUMPI PUSH1 0x0 DUP1 REVERT JUMPDEST POP JUMP JUMPDEST PUSH2 0x122F DUP2 PUSH2 0xF47 JUMP JUMPDEST DUP2 EQ PUSH2 0x123A JUMPI PUSH1 0x0 DUP1 REVERT JUMPDEST POP JUMP INVALID LOG2 PUSH5 0x6970667358 0x22 SLT KECCAK256 0xD4 0x4B 0xED EXTCODECOPY PUSH9 0xEC0D77DF03811EFB0B CODESIZE ORIGIN PUSH28 0xCB5ED72F5E075306EBEE8B94FBBA1D64736F6C634300080700330000 "
				},
				"gasEstimates": {
					"creation": {
						"codeDepositCost": "944600",
						"executionCost": "49559",
						"totalCost": "994159"
					},
					"external": {
						"": "174",
						"deposit()": "infinite",
						"depositWithdraw()": "infinite",
						"gateWithdrawl()": "infinite",
						"lendingWithdraw(uint256,address)": "infinite",
						"minimumAmt()": "2474",
						"owner()": "2536",
						"pendingPayment(address)": "2858",
						"stakedAmount(address)": "2902",
						"startTime(address)": "2814"
					}
				},
				"methodIdentifiers": {
					"deposit()": "d0e30db0",
					"depositWithdraw()": "6e0e0da2",
					"gateWithdrawl()": "56852391",
					"lendingWithdraw(uint256,address)": "3607999b",
					"minimumAmt()": "650fad76",
					"owner()": "8da5cb5b",
					"pendingPayment(address)": "aeae177c",
					"stakedAmount(address)": "f9931855",
					"startTime(address)": "6e1dc66e"
				}
			},
			"userdoc": {
				"kind": "user",
				"methods": {
					"deposit()": {
						"notice": "lenders can deposit money to lending pool"
					},
					"depositWithdraw()": {
						"notice": "notice Stakers can use this function to take out thier money"
					}
				},
				"notice": "Lending pool for Swip3",
				"version": 1
			}
		}
	}
}