{
	"contracts/LendingPool.sol": {
		"LendingPool": {
			"abi": [
				{
					"inputs": [],
					"stateMutability": "nonpayable",
					"type": "constructor"
				},
				{
					"anonymous": false,
					"inputs": [
						{
							"indexed": false,
							"internalType": "string",
							"name": "message",
							"type": "string"
						},
						{
							"indexed": false,
							"internalType": "address",
							"name": "from",
							"type": "address"
						}
					],
					"name": "LendingPoolMessage",
					"type": "event"
				},
				{
					"stateMutability": "payable",
					"type": "fallback"
				},
				{
					"inputs": [
						{
							"internalType": "address",
							"name": "pool_address",
							"type": "address"
						}
					],
					"name": "addGate",
					"outputs": [],
					"stateMutability": "nonpayable",
					"type": "function"
				},
				{
					"inputs": [
						{
							"internalType": "address",
							"name": "",
							"type": "address"
						}
					],
					"name": "allowed_pools",
					"outputs": [
						{
							"internalType": "bool",
							"name": "",
							"type": "bool"
						}
					],
					"stateMutability": "view",
					"type": "function"
				},
				{
					"inputs": [],
					"name": "deposit",
					"outputs": [],
					"stateMutability": "payable",
					"type": "function"
				},
				{
					"inputs": [],
					"name": "depositWithdraw",
					"outputs": [],
					"stateMutability": "nonpayable",
					"type": "function"
				},
				{
					"inputs": [],
					"name": "editor",
					"outputs": [
						{
							"internalType": "address",
							"name": "",
							"type": "address"
						}
					],
					"stateMutability": "view",
					"type": "function"
				},
				{
					"inputs": [],
					"name": "gateWithdrawl",
					"outputs": [],
					"stateMutability": "nonpayable",
					"type": "function"
				},
				{
					"inputs": [
						{
							"internalType": "uint256",
							"name": "amount",
							"type": "uint256"
						},
						{
							"internalType": "address",
							"name": "to",
							"type": "address"
						}
					],
					"name": "lendingWithdraw",
					"outputs": [],
					"stateMutability": "payable",
					"type": "function"
				},
				{
					"inputs": [],
					"name": "minimumAmt",
					"outputs": [
						{
							"internalType": "uint256",
							"name": "",
							"type": "uint256"
						}
					],
					"stateMutability": "view",
					"type": "function"
				},
				{
					"inputs": [],
					"name": "owner",
					"outputs": [
						{
							"internalType": "address payable",
							"name": "",
							"type": "address"
						}
					],
					"stateMutability": "view",
					"type": "function"
				},
				{
					"inputs": [
						{
							"internalType": "address",
							"name": "",
							"type": "address"
						}
					],
					"name": "pendingPayment",
					"outputs": [
						{
							"internalType": "uint256",
							"name": "",
							"type": "uint256"
						}
					],
					"stateMutability": "view",
					"type": "function"
				},
				{
					"inputs": [
						{
							"internalType": "address",
							"name": "",
							"type": "address"
						}
					],
					"name": "stakedAmount",
					"outputs": [
						{
							"internalType": "uint256",
							"name": "",
							"type": "uint256"
						}
					],
					"stateMutability": "view",
					"type": "function"
				},
				{
					"inputs": [
						{
							"internalType": "address",
							"name": "",
							"type": "address"
						}
					],
					"name": "startTime",
					"outputs": [
						{
							"internalType": "uint256",
							"name": "",
							"type": "uint256"
						}
					],
					"stateMutability": "view",
					"type": "function"
				},
				{
					"inputs": [
						{
							"internalType": "address",
							"name": "new_editor",
							"type": "address"
						}
					],
					"name": "updateEditor",
					"outputs": [],
					"stateMutability": "nonpayable",
					"type": "function"
				},
				{
					"stateMutability": "payable",
					"type": "receive"
				}
			],
			"devdoc": {
				"author": "Hileamlak Yitayew, Matt Tengtrakool",
				"details": "need help review ",
				"kind": "dev",
				"methods": {},
				"title": "LendingPool ",
				"version": 1
			},
			"evm": {
				"assembly": "    /* \"contracts/LendingPool.sol\":219:3520  contract LendingPool  {... */\n  mstore(0x40, 0x80)\n    /* \"contracts/LendingPool.sol\":309:316  1 ether */\n  0x0de0b6b3a7640000\n    /* \"contracts/LendingPool.sol\":281:316  uint256 public minimumAmt = 1 ether */\n  0x00\n  sstore\n    /* \"contracts/LendingPool.sol\":748:875  constructor() {... */\n  callvalue\n  dup1\n  iszero\n  tag_1\n  jumpi\n  0x00\n  dup1\n  revert\ntag_1:\n  pop\n    /* \"contracts/LendingPool.sol\":788:798  msg.sender */\n  caller\n    /* \"contracts/LendingPool.sol\":772:777  owner */\n  0x01\n  0x00\n    /* \"contracts/LendingPool.sol\":772:799  owner = payable(msg.sender) */\n  0x0100\n  exp\n  dup2\n  sload\n  dup2\n  0xffffffffffffffffffffffffffffffffffffffff\n  mul\n  not\n  and\n  swap1\n  dup4\n  0xffffffffffffffffffffffffffffffffffffffff\n  and\n  mul\n  or\n  swap1\n  sstore\n  pop\n    /* \"contracts/LendingPool.sol\":814:868  LendingPoolMessage(\"Lending pool created\", msg.sender) */\n  0xf67e7992d539193fc243c42fe89f8fab49013e8e4fb18cfa891dc51adcaccc80\n    /* \"contracts/LendingPool.sol\":857:867  msg.sender */\n  caller\n    /* \"contracts/LendingPool.sol\":814:868  LendingPoolMessage(\"Lending pool created\", msg.sender) */\n  mload(0x40)\n  tag_4\n  swap2\n  swap1\n  tag_5\n  jump\t// in\ntag_4:\n  mload(0x40)\n  dup1\n  swap2\n  sub\n  swap1\n  log1\n    /* \"contracts/LendingPool.sol\":219:3520  contract LendingPool  {... */\n  jump(tag_6)\n    /* \"#utility.yul\":7:125   */\ntag_8:\n    /* \"#utility.yul\":94:118   */\n  tag_10\n    /* \"#utility.yul\":112:117   */\n  dup2\n    /* \"#utility.yul\":94:118   */\n  tag_11\n  jump\t// in\ntag_10:\n    /* \"#utility.yul\":89:92   */\n  dup3\n    /* \"#utility.yul\":82:119   */\n  mstore\n    /* \"#utility.yul\":7:125   */\n  pop\n  pop\n  jump\t// out\n    /* \"#utility.yul\":131:497   */\ntag_12:\n    /* \"#utility.yul\":273:276   */\n  0x00\n    /* \"#utility.yul\":294:361   */\n  tag_14\n    /* \"#utility.yul\":358:360   */\n  0x14\n    /* \"#utility.yul\":353:356   */\n  dup4\n    /* \"#utility.yul\":294:361   */\n  tag_15\n  jump\t// in\ntag_14:\n    /* \"#utility.yul\":287:361   */\n  swap2\n  pop\n    /* \"#utility.yul\":370:463   */\n  tag_16\n    /* \"#utility.yul\":459:462   */\n  dup3\n    /* \"#utility.yul\":370:463   */\n  tag_17\n  jump\t// in\ntag_16:\n    /* \"#utility.yul\":488:490   */\n  0x20\n    /* \"#utility.yul\":483:486   */\n  dup3\n    /* \"#utility.yul\":479:491   */\n  add\n    /* \"#utility.yul\":472:491   */\n  swap1\n  pop\n    /* \"#utility.yul\":131:497   */\n  swap2\n  swap1\n  pop\n  jump\t// out\n    /* \"#utility.yul\":503:1032   */\ntag_5:\n    /* \"#utility.yul\":697:701   */\n  0x00\n    /* \"#utility.yul\":735:737   */\n  0x40\n    /* \"#utility.yul\":724:733   */\n  dup3\n    /* \"#utility.yul\":720:738   */\n  add\n    /* \"#utility.yul\":712:738   */\n  swap1\n  pop\n    /* \"#utility.yul\":784:793   */\n  dup2\n    /* \"#utility.yul\":778:782   */\n  dup2\n    /* \"#utility.yul\":774:794   */\n  sub\n    /* \"#utility.yul\":770:771   */\n  0x00\n    /* \"#utility.yul\":759:768   */\n  dup4\n    /* \"#utility.yul\":755:772   */\n  add\n    /* \"#utility.yul\":748:795   */\n  mstore\n    /* \"#utility.yul\":812:943   */\n  tag_19\n    /* \"#utility.yul\":938:942   */\n  dup2\n    /* \"#utility.yul\":812:943   */\n  tag_12\n  jump\t// in\ntag_19:\n    /* \"#utility.yul\":804:943   */\n  swap1\n  pop\n    /* \"#utility.yul\":953:1025   */\n  tag_20\n    /* \"#utility.yul\":1021:1023   */\n  0x20\n    /* \"#utility.yul\":1010:1019   */\n  dup4\n    /* \"#utility.yul\":1006:1024   */\n  add\n    /* \"#utility.yul\":997:1003   */\n  dup5\n    /* \"#utility.yul\":953:1025   */\n  tag_8\n  jump\t// in\ntag_20:\n    /* \"#utility.yul\":503:1032   */\n  swap3\n  swap2\n  pop\n  pop\n  jump\t// out\n    /* \"#utility.yul\":1038:1207   */\ntag_15:\n    /* \"#utility.yul\":1122:1133   */\n  0x00\n    /* \"#utility.yul\":1156:1162   */\n  dup3\n    /* \"#utility.yul\":1151:1154   */\n  dup3\n    /* \"#utility.yul\":1144:1163   */\n  mstore\n    /* \"#utility.yul\":1196:1200   */\n  0x20\n    /* \"#utility.yul\":1191:1194   */\n  dup3\n    /* \"#utility.yul\":1187:1201   */\n  add\n    /* \"#utility.yul\":1172:1201   */\n  swap1\n  pop\n    /* \"#utility.yul\":1038:1207   */\n  swap3\n  swap2\n  pop\n  pop\n  jump\t// out\n    /* \"#utility.yul\":1213:1309   */\ntag_11:\n    /* \"#utility.yul\":1250:1257   */\n  0x00\n    /* \"#utility.yul\":1279:1303   */\n  tag_23\n    /* \"#utility.yul\":1297:1302   */\n  dup3\n    /* \"#utility.yul\":1279:1303   */\n  tag_24\n  jump\t// in\ntag_23:\n    /* \"#utility.yul\":1268:1303   */\n  swap1\n  pop\n    /* \"#utility.yul\":1213:1309   */\n  swap2\n  swap1\n  pop\n  jump\t// out\n    /* \"#utility.yul\":1315:1441   */\ntag_24:\n    /* \"#utility.yul\":1352:1359   */\n  0x00\n    /* \"#utility.yul\":1392:1434   */\n  0xffffffffffffffffffffffffffffffffffffffff\n    /* \"#utility.yul\":1385:1390   */\n  dup3\n    /* \"#utility.yul\":1381:1435   */\n  and\n    /* \"#utility.yul\":1370:1435   */\n  swap1\n  pop\n    /* \"#utility.yul\":1315:1441   */\n  swap2\n  swap1\n  pop\n  jump\t// out\n    /* \"#utility.yul\":1447:1617   */\ntag_17:\n    /* \"#utility.yul\":1587:1609   */\n  0x4c656e64696e6720706f6f6c2063726561746564000000000000000000000000\n    /* \"#utility.yul\":1583:1584   */\n  0x00\n    /* \"#utility.yul\":1575:1581   */\n  dup3\n    /* \"#utility.yul\":1571:1585   */\n  add\n    /* \"#utility.yul\":1564:1610   */\n  mstore\n    /* \"#utility.yul\":1447:1617   */\n  pop\n  jump\t// out\n    /* \"contracts/LendingPool.sol\":219:3520  contract LendingPool  {... */\ntag_6:\n  dataSize(sub_0)\n  dup1\n  dataOffset(sub_0)\n  0x00\n  codecopy\n  0x00\n  return\nstop\n\nsub_0: assembly {\n        /* \"contracts/LendingPool.sol\":219:3520  contract LendingPool  {... */\n      mstore(0x40, 0x80)\n      jumpi(tag_1, lt(calldatasize, 0x04))\n      shr(0xe0, calldataload(0x00))\n      dup1\n      0x6e1dc66e\n      gt\n      tag_16\n      jumpi\n      dup1\n      0xaeae177c\n      gt\n      tag_17\n      jumpi\n      dup1\n      0xaeae177c\n      eq\n      tag_12\n      jumpi\n      dup1\n      0xc02b2092\n      eq\n      tag_13\n      jumpi\n      dup1\n      0xd0e30db0\n      eq\n      tag_14\n      jumpi\n      dup1\n      0xf9931855\n      eq\n      tag_15\n      jumpi\n      jump(tag_2)\n    tag_17:\n      dup1\n      0x6e1dc66e\n      eq\n      tag_9\n      jumpi\n      dup1\n      0x8da5cb5b\n      eq\n      tag_10\n      jumpi\n      dup1\n      0xa464d265\n      eq\n      tag_11\n      jumpi\n      jump(tag_2)\n    tag_16:\n      dup1\n      0x166d7b48\n      eq\n      tag_3\n      jumpi\n      dup1\n      0x1e23271d\n      eq\n      tag_4\n      jumpi\n      dup1\n      0x3607999b\n      eq\n      tag_5\n      jumpi\n      dup1\n      0x56852391\n      eq\n      tag_6\n      jumpi\n      dup1\n      0x650fad76\n      eq\n      tag_7\n      jumpi\n      dup1\n      0x6e0e0da2\n      eq\n      tag_8\n      jumpi\n      jump(tag_2)\n    tag_1:\n      jumpi(tag_2, calldatasize)\n      stop\n    tag_2:\n      stop\n        /* \"contracts/LendingPool.sol\":1274:1435  function updateEditor(address new_editor) public onlyOwner{... */\n    tag_3:\n      callvalue\n      dup1\n      iszero\n      tag_22\n      jumpi\n      0x00\n      dup1\n      revert\n    tag_22:\n      pop\n      tag_23\n      0x04\n      dup1\n      calldatasize\n      sub\n      dup2\n      add\n      swap1\n      tag_24\n      swap2\n      swap1\n      tag_25\n      jump\t// in\n    tag_24:\n      tag_26\n      jump\t// in\n    tag_23:\n      stop\n        /* \"contracts/LendingPool.sol\":1441:1558  function addGate (address pool_address) public onlyEditor{... */\n    tag_4:\n      callvalue\n      dup1\n      iszero\n      tag_27\n      jumpi\n      0x00\n      dup1\n      revert\n    tag_27:\n      pop\n      tag_28\n      0x04\n      dup1\n      calldatasize\n      sub\n      dup2\n      add\n      swap1\n      tag_29\n      swap2\n      swap1\n      tag_25\n      jump\t// in\n    tag_29:\n      tag_30\n      jump\t// in\n    tag_28:\n      stop\n        /* \"contracts/LendingPool.sol\":2031:2392  function lendingWithdraw(uint256 amount, address to) public payable onlyAllowedGate {... */\n    tag_5:\n      tag_31\n      0x04\n      dup1\n      calldatasize\n      sub\n      dup2\n      add\n      swap1\n      tag_32\n      swap2\n      swap1\n      tag_33\n      jump\t// in\n    tag_32:\n      tag_34\n      jump\t// in\n    tag_31:\n      stop\n        /* \"contracts/LendingPool.sol\":3166:3438  function gateWithdrawl() public {... */\n    tag_6:\n      callvalue\n      dup1\n      iszero\n      tag_35\n      jumpi\n      0x00\n      dup1\n      revert\n    tag_35:\n      pop\n      tag_36\n      tag_37\n      jump\t// in\n    tag_36:\n      stop\n        /* \"contracts/LendingPool.sol\":281:316  uint256 public minimumAmt = 1 ether */\n    tag_7:\n      callvalue\n      dup1\n      iszero\n      tag_38\n      jumpi\n      0x00\n      dup1\n      revert\n    tag_38:\n      pop\n      tag_39\n      tag_40\n      jump\t// in\n    tag_39:\n      mload(0x40)\n      tag_41\n      swap2\n      swap1\n      tag_42\n      jump\t// in\n    tag_41:\n      mload(0x40)\n      dup1\n      swap2\n      sub\n      swap1\n      return\n        /* \"contracts/LendingPool.sol\":2466:3090  function depositWithdraw() public{... */\n    tag_8:\n      callvalue\n      dup1\n      iszero\n      tag_43\n      jumpi\n      0x00\n      dup1\n      revert\n    tag_43:\n      pop\n      tag_44\n      tag_45\n      jump\t// in\n    tag_44:\n      stop\n        /* \"contracts/LendingPool.sol\":477:521  mapping(address => uint256) public startTime */\n    tag_9:\n      callvalue\n      dup1\n      iszero\n      tag_46\n      jumpi\n      0x00\n      dup1\n      revert\n    tag_46:\n      pop\n      tag_47\n      0x04\n      dup1\n      calldatasize\n      sub\n      dup2\n      add\n      swap1\n      tag_48\n      swap2\n      swap1\n      tag_25\n      jump\t// in\n    tag_48:\n      tag_49\n      jump\t// in\n    tag_47:\n      mload(0x40)\n      tag_50\n      swap2\n      swap1\n      tag_42\n      jump\t// in\n    tag_50:\n      mload(0x40)\n      dup1\n      swap2\n      sub\n      swap1\n      return\n        /* \"contracts/LendingPool.sol\":322:350  address payable public owner */\n    tag_10:\n      callvalue\n      dup1\n      iszero\n      tag_51\n      jumpi\n      0x00\n      dup1\n      revert\n    tag_51:\n      pop\n      tag_52\n      tag_53\n      jump\t// in\n    tag_52:\n      mload(0x40)\n      tag_54\n      swap2\n      swap1\n      tag_55\n      jump\t// in\n    tag_54:\n      mload(0x40)\n      dup1\n      swap2\n      sub\n      swap1\n      return\n        /* \"contracts/LendingPool.sol\":392:413  address public editor */\n    tag_11:\n      callvalue\n      dup1\n      iszero\n      tag_56\n      jumpi\n      0x00\n      dup1\n      revert\n    tag_56:\n      pop\n      tag_57\n      tag_58\n      jump\t// in\n    tag_57:\n      mload(0x40)\n      tag_59\n      swap2\n      swap1\n      tag_60\n      jump\t// in\n    tag_59:\n      mload(0x40)\n      dup1\n      swap2\n      sub\n      swap1\n      return\n        /* \"contracts/LendingPool.sol\":580:629  mapping(address => uint256) public pendingPayment */\n    tag_12:\n      callvalue\n      dup1\n      iszero\n      tag_61\n      jumpi\n      0x00\n      dup1\n      revert\n    tag_61:\n      pop\n      tag_62\n      0x04\n      dup1\n      calldatasize\n      sub\n      dup2\n      add\n      swap1\n      tag_63\n      swap2\n      swap1\n      tag_25\n      jump\t// in\n    tag_63:\n      tag_64\n      jump\t// in\n    tag_62:\n      mload(0x40)\n      tag_65\n      swap2\n      swap1\n      tag_42\n      jump\t// in\n    tag_65:\n      mload(0x40)\n      dup1\n      swap2\n      sub\n      swap1\n      return\n        /* \"contracts/LendingPool.sol\":635:680  mapping(address => bool) public allowed_pools */\n    tag_13:\n      callvalue\n      dup1\n      iszero\n      tag_66\n      jumpi\n      0x00\n      dup1\n      revert\n    tag_66:\n      pop\n      tag_67\n      0x04\n      dup1\n      calldatasize\n      sub\n      dup2\n      add\n      swap1\n      tag_68\n      swap2\n      swap1\n      tag_25\n      jump\t// in\n    tag_68:\n      tag_69\n      jump\t// in\n    tag_67:\n      mload(0x40)\n      tag_70\n      swap2\n      swap1\n      tag_71\n      jump\t// in\n    tag_70:\n      mload(0x40)\n      dup1\n      swap2\n      sub\n      swap1\n      return\n        /* \"contracts/LendingPool.sol\":1622:2025  function deposit() public payable {... */\n    tag_14:\n      tag_72\n      tag_73\n      jump\t// in\n    tag_72:\n      stop\n        /* \"contracts/LendingPool.sol\":527:574  mapping(address => uint256) public stakedAmount */\n    tag_15:\n      callvalue\n      dup1\n      iszero\n      tag_74\n      jumpi\n      0x00\n      dup1\n      revert\n    tag_74:\n      pop\n      tag_75\n      0x04\n      dup1\n      calldatasize\n      sub\n      dup2\n      add\n      swap1\n      tag_76\n      swap2\n      swap1\n      tag_25\n      jump\t// in\n    tag_76:\n      tag_77\n      jump\t// in\n    tag_75:\n      mload(0x40)\n      tag_78\n      swap2\n      swap1\n      tag_42\n      jump\t// in\n    tag_78:\n      mload(0x40)\n      dup1\n      swap2\n      sub\n      swap1\n      return\n        /* \"contracts/LendingPool.sol\":1274:1435  function updateEditor(address new_editor) public onlyOwner{... */\n    tag_26:\n        /* \"contracts/LendingPool.sol\":934:939  owner */\n      0x01\n      0x00\n      swap1\n      sload\n      swap1\n      0x0100\n      exp\n      swap1\n      div\n      0xffffffffffffffffffffffffffffffffffffffff\n      and\n        /* \"contracts/LendingPool.sol\":920:939  msg.sender == owner */\n      0xffffffffffffffffffffffffffffffffffffffff\n      and\n        /* \"contracts/LendingPool.sol\":920:930  msg.sender */\n      caller\n        /* \"contracts/LendingPool.sol\":920:939  msg.sender == owner */\n      0xffffffffffffffffffffffffffffffffffffffff\n      and\n      eq\n        /* \"contracts/LendingPool.sol\":912:988  require(msg.sender == owner, \"Only initial uploader can access this method\") */\n      tag_80\n      jumpi\n      mload(0x40)\n      0x08c379a000000000000000000000000000000000000000000000000000000000\n      dup2\n      mstore\n      0x04\n      add\n      tag_81\n      swap1\n      tag_82\n      jump\t// in\n    tag_81:\n      mload(0x40)\n      dup1\n      swap2\n      sub\n      swap1\n      revert\n    tag_80:\n        /* \"contracts/LendingPool.sol\":1351:1361  new_editor */\n      dup1\n        /* \"contracts/LendingPool.sol\":1342:1348  editor */\n      0x03\n      0x00\n        /* \"contracts/LendingPool.sol\":1342:1361  editor = new_editor */\n      0x0100\n      exp\n      dup2\n      sload\n      dup2\n      0xffffffffffffffffffffffffffffffffffffffff\n      mul\n      not\n      and\n      swap1\n      dup4\n      0xffffffffffffffffffffffffffffffffffffffff\n      and\n      mul\n      or\n      swap1\n      sstore\n      pop\n        /* \"contracts/LendingPool.sol\":1376:1427  LendingPoolMessage(\"Editor updated to\", new_editor) */\n      0xf67e7992d539193fc243c42fe89f8fab49013e8e4fb18cfa891dc51adcaccc80\n        /* \"contracts/LendingPool.sol\":1416:1426  new_editor */\n      dup2\n        /* \"contracts/LendingPool.sol\":1376:1427  LendingPoolMessage(\"Editor updated to\", new_editor) */\n      mload(0x40)\n      tag_84\n      swap2\n      swap1\n      tag_85\n      jump\t// in\n    tag_84:\n      mload(0x40)\n      dup1\n      swap2\n      sub\n      swap1\n      log1\n        /* \"contracts/LendingPool.sol\":1274:1435  function updateEditor(address new_editor) public onlyOwner{... */\n      pop\n      jump\t// out\n        /* \"contracts/LendingPool.sol\":1441:1558  function addGate (address pool_address) public onlyEditor{... */\n    tag_30:\n        /* \"contracts/LendingPool.sol\":1066:1072  editor */\n      0x03\n      0x00\n      swap1\n      sload\n      swap1\n      0x0100\n      exp\n      swap1\n      div\n      0xffffffffffffffffffffffffffffffffffffffff\n      and\n        /* \"contracts/LendingPool.sol\":1052:1072  msg.sender == editor */\n      0xffffffffffffffffffffffffffffffffffffffff\n      and\n        /* \"contracts/LendingPool.sol\":1052:1062  msg.sender */\n      caller\n        /* \"contracts/LendingPool.sol\":1052:1072  msg.sender == editor */\n      0xffffffffffffffffffffffffffffffffffffffff\n      and\n      eq\n        /* \"contracts/LendingPool.sol\":1044:1111  require(msg.sender == editor, \"Only editor can access this method\") */\n      tag_87\n      jumpi\n      mload(0x40)\n      0x08c379a000000000000000000000000000000000000000000000000000000000\n      dup2\n      mstore\n      0x04\n      add\n      tag_88\n      swap1\n      tag_89\n      jump\t// in\n    tag_88:\n      mload(0x40)\n      dup1\n      swap2\n      sub\n      swap1\n      revert\n    tag_87:\n        /* \"contracts/LendingPool.sol\":1538:1542  true */\n      0x01\n        /* \"contracts/LendingPool.sol\":1508:1521  allowed_pools */\n      0x08\n        /* \"contracts/LendingPool.sol\":1508:1535  allowed_pools[pool_address] */\n      0x00\n        /* \"contracts/LendingPool.sol\":1522:1534  pool_address */\n      dup4\n        /* \"contracts/LendingPool.sol\":1508:1535  allowed_pools[pool_address] */\n      0xffffffffffffffffffffffffffffffffffffffff\n      and\n      0xffffffffffffffffffffffffffffffffffffffff\n      and\n      dup2\n      mstore\n      0x20\n      add\n      swap1\n      dup2\n      mstore\n      0x20\n      add\n      0x00\n      keccak256\n      0x00\n        /* \"contracts/LendingPool.sol\":1508:1542  allowed_pools[pool_address] = true */\n      0x0100\n      exp\n      dup2\n      sload\n      dup2\n      0xff\n      mul\n      not\n      and\n      swap1\n      dup4\n      iszero\n      iszero\n      mul\n      or\n      swap1\n      sstore\n      pop\n        /* \"contracts/LendingPool.sol\":1441:1558  function addGate (address pool_address) public onlyEditor{... */\n      pop\n      jump\t// out\n        /* \"contracts/LendingPool.sol\":2031:2392  function lendingWithdraw(uint256 amount, address to) public payable onlyAllowedGate {... */\n    tag_34:\n        /* \"contracts/LendingPool.sol\":1179:1192  allowed_pools */\n      0x08\n        /* \"contracts/LendingPool.sol\":1179:1204  allowed_pools[msg.sender] */\n      0x00\n        /* \"contracts/LendingPool.sol\":1193:1203  msg.sender */\n      caller\n        /* \"contracts/LendingPool.sol\":1179:1204  allowed_pools[msg.sender] */\n      0xffffffffffffffffffffffffffffffffffffffff\n      and\n      0xffffffffffffffffffffffffffffffffffffffff\n      and\n      dup2\n      mstore\n      0x20\n      add\n      swap1\n      dup2\n      mstore\n      0x20\n      add\n      0x00\n      keccak256\n      0x00\n      swap1\n      sload\n      swap1\n      0x0100\n      exp\n      swap1\n      div\n      0xff\n      and\n        /* \"contracts/LendingPool.sol\":1171:1250  require(allowed_pools[msg.sender], \"Only allowed gates can access this method\") */\n      tag_92\n      jumpi\n      mload(0x40)\n      0x08c379a000000000000000000000000000000000000000000000000000000000\n      dup2\n      mstore\n      0x04\n      add\n      tag_93\n      swap1\n      tag_94\n      jump\t// in\n    tag_93:\n      mload(0x40)\n      dup1\n      swap2\n      sub\n      swap1\n      revert\n    tag_92:\n        /* \"contracts/LendingPool.sol\":2152:2166  totalDeposited */\n      sload(0x02)\n        /* \"contracts/LendingPool.sol\":2142:2148  amount */\n      dup3\n        /* \"contracts/LendingPool.sol\":2142:2166  amount <= totalDeposited */\n      gt\n      iszero\n        /* \"contracts/LendingPool.sol\":2134:2210  require(amount <= totalDeposited, \"Doesn't have enough balance in the bank\") */\n      tag_96\n      jumpi\n      mload(0x40)\n      0x08c379a000000000000000000000000000000000000000000000000000000000\n      dup2\n      mstore\n      0x04\n      add\n      tag_97\n      swap1\n      tag_98\n      jump\t// in\n    tag_97:\n      mload(0x40)\n      dup1\n      swap2\n      sub\n      swap1\n      revert\n    tag_96:\n        /* \"contracts/LendingPool.sol\":2237:2263  totalDeposited.sub(amount) */\n      tag_99\n        /* \"contracts/LendingPool.sol\":2256:2262  amount */\n      dup3\n        /* \"contracts/LendingPool.sol\":2237:2251  totalDeposited */\n      sload(0x02)\n        /* \"contracts/LendingPool.sol\":2237:2255  totalDeposited.sub */\n      tag_100\n      swap1\n        /* \"contracts/LendingPool.sol\":2237:2263  totalDeposited.sub(amount) */\n      swap2\n      swap1\n      0xffffffff\n      and\n      jump\t// in\n    tag_99:\n        /* \"contracts/LendingPool.sol\":2220:2234  totalDeposited */\n      0x02\n        /* \"contracts/LendingPool.sol\":2220:2263  totalDeposited = totalDeposited.sub(amount) */\n      dup2\n      swap1\n      sstore\n      pop\n        /* \"contracts/LendingPool.sol\":2294:2324  pendingPayment[to].add(amount) */\n      tag_101\n        /* \"contracts/LendingPool.sol\":2317:2323  amount */\n      dup3\n        /* \"contracts/LendingPool.sol\":2294:2308  pendingPayment */\n      0x07\n        /* \"contracts/LendingPool.sol\":2294:2312  pendingPayment[to] */\n      0x00\n        /* \"contracts/LendingPool.sol\":2309:2311  to */\n      dup5\n        /* \"contracts/LendingPool.sol\":2294:2312  pendingPayment[to] */\n      0xffffffffffffffffffffffffffffffffffffffff\n      and\n      0xffffffffffffffffffffffffffffffffffffffff\n      and\n      dup2\n      mstore\n      0x20\n      add\n      swap1\n      dup2\n      mstore\n      0x20\n      add\n      0x00\n      keccak256\n      sload\n        /* \"contracts/LendingPool.sol\":2294:2316  pendingPayment[to].add */\n      tag_102\n      swap1\n        /* \"contracts/LendingPool.sol\":2294:2324  pendingPayment[to].add(amount) */\n      swap2\n      swap1\n      0xffffffff\n      and\n      jump\t// in\n    tag_101:\n        /* \"contracts/LendingPool.sol\":2273:2287  pendingPayment */\n      0x07\n        /* \"contracts/LendingPool.sol\":2273:2291  pendingPayment[to] */\n      0x00\n        /* \"contracts/LendingPool.sol\":2288:2290  to */\n      dup4\n        /* \"contracts/LendingPool.sol\":2273:2291  pendingPayment[to] */\n      0xffffffffffffffffffffffffffffffffffffffff\n      and\n      0xffffffffffffffffffffffffffffffffffffffff\n      and\n      dup2\n      mstore\n      0x20\n      add\n      swap1\n      dup2\n      mstore\n      0x20\n      add\n      0x00\n      keccak256\n        /* \"contracts/LendingPool.sol\":2273:2324  pendingPayment[to] = pendingPayment[to].add(amount) */\n      dup2\n      swap1\n      sstore\n      pop\n        /* \"contracts/LendingPool.sol\":2339:2384  LendingPoolMessage(\"Money withdrawen to\", to) */\n      0xf67e7992d539193fc243c42fe89f8fab49013e8e4fb18cfa891dc51adcaccc80\n        /* \"contracts/LendingPool.sol\":2381:2383  to */\n      dup2\n        /* \"contracts/LendingPool.sol\":2339:2384  LendingPoolMessage(\"Money withdrawen to\", to) */\n      mload(0x40)\n      tag_103\n      swap2\n      swap1\n      tag_104\n      jump\t// in\n    tag_103:\n      mload(0x40)\n      dup1\n      swap2\n      sub\n      swap1\n      log1\n        /* \"contracts/LendingPool.sol\":2031:2392  function lendingWithdraw(uint256 amount, address to) public payable onlyAllowedGate {... */\n      pop\n      pop\n      jump\t// out\n        /* \"contracts/LendingPool.sol\":3166:3438  function gateWithdrawl() public {... */\n    tag_37:\n        /* \"contracts/LendingPool.sol\":3245:3246  0 */\n      0x00\n        /* \"contracts/LendingPool.sol\":3216:3230  pendingPayment */\n      0x07\n        /* \"contracts/LendingPool.sol\":3216:3242  pendingPayment[msg.sender] */\n      0x00\n        /* \"contracts/LendingPool.sol\":3231:3241  msg.sender */\n      caller\n        /* \"contracts/LendingPool.sol\":3216:3242  pendingPayment[msg.sender] */\n      0xffffffffffffffffffffffffffffffffffffffff\n      and\n      0xffffffffffffffffffffffffffffffffffffffff\n      and\n      dup2\n      mstore\n      0x20\n      add\n      swap1\n      dup2\n      mstore\n      0x20\n      add\n      0x00\n      keccak256\n      sload\n        /* \"contracts/LendingPool.sol\":3216:3246  pendingPayment[msg.sender] > 0 */\n      gt\n        /* \"contracts/LendingPool.sol\":3208:3287  require(pendingPayment[msg.sender] > 0, \"You don't have no pending withdrawls\") */\n      tag_106\n      jumpi\n      mload(0x40)\n      0x08c379a000000000000000000000000000000000000000000000000000000000\n      dup2\n      mstore\n      0x04\n      add\n      tag_107\n      swap1\n      tag_108\n      jump\t// in\n    tag_107:\n      mload(0x40)\n      dup1\n      swap2\n      sub\n      swap1\n      revert\n    tag_106:\n        /* \"contracts/LendingPool.sol\":3297:3311  uint256 amount */\n      0x00\n        /* \"contracts/LendingPool.sol\":3314:3328  pendingPayment */\n      0x07\n        /* \"contracts/LendingPool.sol\":3314:3340  pendingPayment[msg.sender] */\n      0x00\n        /* \"contracts/LendingPool.sol\":3329:3339  msg.sender */\n      caller\n        /* \"contracts/LendingPool.sol\":3314:3340  pendingPayment[msg.sender] */\n      0xffffffffffffffffffffffffffffffffffffffff\n      and\n      0xffffffffffffffffffffffffffffffffffffffff\n      and\n      dup2\n      mstore\n      0x20\n      add\n      swap1\n      dup2\n      mstore\n      0x20\n      add\n      0x00\n      keccak256\n      sload\n        /* \"contracts/LendingPool.sol\":3297:3340  uint256 amount = pendingPayment[msg.sender] */\n      swap1\n      pop\n        /* \"contracts/LendingPool.sol\":3380:3381  0 */\n      0x00\n        /* \"contracts/LendingPool.sol\":3350:3364  pendingPayment */\n      0x07\n        /* \"contracts/LendingPool.sol\":3350:3376  pendingPayment[msg.sender] */\n      0x00\n        /* \"contracts/LendingPool.sol\":3365:3375  msg.sender */\n      caller\n        /* \"contracts/LendingPool.sol\":3350:3376  pendingPayment[msg.sender] */\n      0xffffffffffffffffffffffffffffffffffffffff\n      and\n      0xffffffffffffffffffffffffffffffffffffffff\n      and\n      dup2\n      mstore\n      0x20\n      add\n      swap1\n      dup2\n      mstore\n      0x20\n      add\n      0x00\n      keccak256\n        /* \"contracts/LendingPool.sol\":3350:3381  pendingPayment[msg.sender] =  0 */\n      dup2\n      swap1\n      sstore\n      pop\n        /* \"contracts/LendingPool.sol\":3403:3413  msg.sender */\n      caller\n        /* \"contracts/LendingPool.sol\":3395:3423  payable(msg.sender).transfer */\n      0xffffffffffffffffffffffffffffffffffffffff\n      and\n        /* \"contracts/LendingPool.sol\":3395:3431  payable(msg.sender).transfer(amount) */\n      0x08fc\n        /* \"contracts/LendingPool.sol\":3424:3430  amount */\n      dup3\n        /* \"contracts/LendingPool.sol\":3395:3431  payable(msg.sender).transfer(amount) */\n      swap1\n      dup2\n      iszero\n      mul\n      swap1\n      mload(0x40)\n      0x00\n      mload(0x40)\n      dup1\n      dup4\n      sub\n      dup2\n      dup6\n      dup9\n      dup9\n      call\n      swap4\n      pop\n      pop\n      pop\n      pop\n      iszero\n      dup1\n      iszero\n      tag_110\n      jumpi\n      returndatasize\n      0x00\n      dup1\n      returndatacopy\n      revert(0x00, returndatasize)\n    tag_110:\n      pop\n        /* \"contracts/LendingPool.sol\":3198:3438  {... */\n      pop\n        /* \"contracts/LendingPool.sol\":3166:3438  function gateWithdrawl() public {... */\n      jump\t// out\n        /* \"contracts/LendingPool.sol\":281:316  uint256 public minimumAmt = 1 ether */\n    tag_40:\n      sload(0x00)\n      dup2\n      jump\t// out\n        /* \"contracts/LendingPool.sol\":2466:3090  function depositWithdraw() public{... */\n    tag_45:\n        /* \"contracts/LendingPool.sol\":2544:2545  0 */\n      0x00\n        /* \"contracts/LendingPool.sol\":2517:2529  stakedAmount */\n      0x06\n        /* \"contracts/LendingPool.sol\":2517:2541  stakedAmount[msg.sender] */\n      0x00\n        /* \"contracts/LendingPool.sol\":2530:2540  msg.sender */\n      caller\n        /* \"contracts/LendingPool.sol\":2517:2541  stakedAmount[msg.sender] */\n      0xffffffffffffffffffffffffffffffffffffffff\n      and\n      0xffffffffffffffffffffffffffffffffffffffff\n      and\n      dup2\n      mstore\n      0x20\n      add\n      swap1\n      dup2\n      mstore\n      0x20\n      add\n      0x00\n      keccak256\n      sload\n        /* \"contracts/LendingPool.sol\":2517:2545  stakedAmount[msg.sender] > 0 */\n      gt\n        /* \"contracts/LendingPool.sol\":2509:2582  require(stakedAmount[msg.sender] > 0, \"You don't have any money in here\") */\n      tag_112\n      jumpi\n      mload(0x40)\n      0x08c379a000000000000000000000000000000000000000000000000000000000\n      dup2\n      mstore\n      0x04\n      add\n      tag_113\n      swap1\n      tag_114\n      jump\t// in\n    tag_113:\n      mload(0x40)\n      dup1\n      swap2\n      sub\n      swap1\n      revert\n    tag_112:\n        /* \"contracts/LendingPool.sol\":2592:2611  uint256 time_staked */\n      0x00\n        /* \"contracts/LendingPool.sol\":2614:2667  (startTime[msg.sender] -  block.timestamp).div(86400) */\n      tag_115\n        /* \"contracts/LendingPool.sol\":2661:2666  86400 */\n      0x015180\n        /* \"contracts/LendingPool.sol\":2640:2655  block.timestamp */\n      timestamp\n        /* \"contracts/LendingPool.sol\":2615:2624  startTime */\n      0x05\n        /* \"contracts/LendingPool.sol\":2615:2636  startTime[msg.sender] */\n      0x00\n        /* \"contracts/LendingPool.sol\":2625:2635  msg.sender */\n      caller\n        /* \"contracts/LendingPool.sol\":2615:2636  startTime[msg.sender] */\n      0xffffffffffffffffffffffffffffffffffffffff\n      and\n      0xffffffffffffffffffffffffffffffffffffffff\n      and\n      dup2\n      mstore\n      0x20\n      add\n      swap1\n      dup2\n      mstore\n      0x20\n      add\n      0x00\n      keccak256\n      sload\n        /* \"contracts/LendingPool.sol\":2615:2655  startTime[msg.sender] -  block.timestamp */\n      tag_116\n      swap2\n      swap1\n      tag_117\n      jump\t// in\n    tag_116:\n        /* \"contracts/LendingPool.sol\":2614:2660  (startTime[msg.sender] -  block.timestamp).div */\n      tag_118\n      swap1\n        /* \"contracts/LendingPool.sol\":2614:2667  (startTime[msg.sender] -  block.timestamp).div(86400) */\n      swap2\n      swap1\n      0xffffffff\n      and\n      jump\t// in\n    tag_115:\n        /* \"contracts/LendingPool.sol\":2592:2667  uint256 time_staked = (startTime[msg.sender] -  block.timestamp).div(86400) */\n      swap1\n      pop\n        /* \"contracts/LendingPool.sol\":2699:2709  30 * 86400 */\n      0x278d00\n        /* \"contracts/LendingPool.sol\":2685:2696  time_staked */\n      dup2\n        /* \"contracts/LendingPool.sol\":2685:2709  time_staked > 30 * 86400 */\n      gt\n        /* \"contracts/LendingPool.sol\":2677:2750  require(time_staked > 30 * 86400, \"You should atleast stake for a monty\") */\n      tag_119\n      jumpi\n      mload(0x40)\n      0x08c379a000000000000000000000000000000000000000000000000000000000\n      dup2\n      mstore\n      0x04\n      add\n      tag_120\n      swap1\n      tag_121\n      jump\t// in\n    tag_120:\n      mload(0x40)\n      dup1\n      swap2\n      sub\n      swap1\n      revert\n    tag_119:\n        /* \"contracts/LendingPool.sol\":2760:2773  uint256 yield */\n      0x00\n        /* \"contracts/LendingPool.sol\":2803:2860  time_staked.mul(5).mul(stakedAmount[msg.sender]).div(100) */\n      tag_122\n        /* \"contracts/LendingPool.sol\":2856:2859  100 */\n      0x64\n        /* \"contracts/LendingPool.sol\":2803:2851  time_staked.mul(5).mul(stakedAmount[msg.sender]) */\n      tag_123\n        /* \"contracts/LendingPool.sol\":2826:2838  stakedAmount */\n      0x06\n        /* \"contracts/LendingPool.sol\":2826:2850  stakedAmount[msg.sender] */\n      0x00\n        /* \"contracts/LendingPool.sol\":2839:2849  msg.sender */\n      caller\n        /* \"contracts/LendingPool.sol\":2826:2850  stakedAmount[msg.sender] */\n      0xffffffffffffffffffffffffffffffffffffffff\n      and\n      0xffffffffffffffffffffffffffffffffffffffff\n      and\n      dup2\n      mstore\n      0x20\n      add\n      swap1\n      dup2\n      mstore\n      0x20\n      add\n      0x00\n      keccak256\n      sload\n        /* \"contracts/LendingPool.sol\":2803:2821  time_staked.mul(5) */\n      tag_124\n        /* \"contracts/LendingPool.sol\":2819:2820  5 */\n      0x05\n        /* \"contracts/LendingPool.sol\":2803:2814  time_staked */\n      dup8\n        /* \"contracts/LendingPool.sol\":2803:2818  time_staked.mul */\n      tag_125\n      swap1\n        /* \"contracts/LendingPool.sol\":2803:2821  time_staked.mul(5) */\n      swap2\n      swap1\n      0xffffffff\n      and\n      jump\t// in\n    tag_124:\n        /* \"contracts/LendingPool.sol\":2803:2825  time_staked.mul(5).mul */\n      tag_125\n      swap1\n        /* \"contracts/LendingPool.sol\":2803:2851  time_staked.mul(5).mul(stakedAmount[msg.sender]) */\n      swap2\n      swap1\n      0xffffffff\n      and\n      jump\t// in\n    tag_123:\n        /* \"contracts/LendingPool.sol\":2803:2855  time_staked.mul(5).mul(stakedAmount[msg.sender]).div */\n      tag_118\n      swap1\n        /* \"contracts/LendingPool.sol\":2803:2860  time_staked.mul(5).mul(stakedAmount[msg.sender]).div(100) */\n      swap2\n      swap1\n      0xffffffff\n      and\n      jump\t// in\n    tag_122:\n        /* \"contracts/LendingPool.sol\":2776:2788  stakedAmount */\n      0x06\n        /* \"contracts/LendingPool.sol\":2776:2800  stakedAmount[msg.sender] */\n      0x00\n        /* \"contracts/LendingPool.sol\":2789:2799  msg.sender */\n      caller\n        /* \"contracts/LendingPool.sol\":2776:2800  stakedAmount[msg.sender] */\n      0xffffffffffffffffffffffffffffffffffffffff\n      and\n      0xffffffffffffffffffffffffffffffffffffffff\n      and\n      dup2\n      mstore\n      0x20\n      add\n      swap1\n      dup2\n      mstore\n      0x20\n      add\n      0x00\n      keccak256\n      sload\n        /* \"contracts/LendingPool.sol\":2776:2860  stakedAmount[msg.sender] + time_staked.mul(5).mul(stakedAmount[msg.sender]).div(100) */\n      tag_126\n      swap2\n      swap1\n      tag_127\n      jump\t// in\n    tag_126:\n        /* \"contracts/LendingPool.sol\":2760:2860  uint256 yield = stakedAmount[msg.sender] + time_staked.mul(5).mul(stakedAmount[msg.sender]).div(100) */\n      swap1\n      pop\n        /* \"contracts/LendingPool.sol\":2886:2900  totalDeposited */\n      sload(0x02)\n        /* \"contracts/LendingPool.sol\":2878:2883  yield */\n      dup2\n        /* \"contracts/LendingPool.sol\":2878:2900  yield < totalDeposited */\n      lt\n        /* \"contracts/LendingPool.sol\":2870:2955  require(yield < totalDeposited, \"Sorry we don't have enough money so comeback later\") */\n      tag_128\n      jumpi\n      mload(0x40)\n      0x08c379a000000000000000000000000000000000000000000000000000000000\n      dup2\n      mstore\n      0x04\n      add\n      tag_129\n      swap1\n      tag_130\n      jump\t// in\n    tag_129:\n      mload(0x40)\n      dup1\n      swap2\n      sub\n      swap1\n      revert\n    tag_128:\n        /* \"contracts/LendingPool.sol\":2982:3007  totalDeposited.sub(yield) */\n      tag_131\n        /* \"contracts/LendingPool.sol\":3001:3006  yield */\n      dup2\n        /* \"contracts/LendingPool.sol\":2982:2996  totalDeposited */\n      sload(0x02)\n        /* \"contracts/LendingPool.sol\":2982:3000  totalDeposited.sub */\n      tag_100\n      swap1\n        /* \"contracts/LendingPool.sol\":2982:3007  totalDeposited.sub(yield) */\n      swap2\n      swap1\n      0xffffffff\n      and\n      jump\t// in\n    tag_131:\n        /* \"contracts/LendingPool.sol\":2965:2979  totalDeposited */\n      0x02\n        /* \"contracts/LendingPool.sol\":2965:3007  totalDeposited = totalDeposited.sub(yield) */\n      dup2\n      swap1\n      sstore\n      pop\n        /* \"contracts/LendingPool.sol\":3046:3083  pendingPayment[msg.sender].add(yield) */\n      tag_132\n        /* \"contracts/LendingPool.sol\":3077:3082  yield */\n      dup2\n        /* \"contracts/LendingPool.sol\":3046:3060  pendingPayment */\n      0x07\n        /* \"contracts/LendingPool.sol\":3046:3072  pendingPayment[msg.sender] */\n      0x00\n        /* \"contracts/LendingPool.sol\":3061:3071  msg.sender */\n      caller\n        /* \"contracts/LendingPool.sol\":3046:3072  pendingPayment[msg.sender] */\n      0xffffffffffffffffffffffffffffffffffffffff\n      and\n      0xffffffffffffffffffffffffffffffffffffffff\n      and\n      dup2\n      mstore\n      0x20\n      add\n      swap1\n      dup2\n      mstore\n      0x20\n      add\n      0x00\n      keccak256\n      sload\n        /* \"contracts/LendingPool.sol\":3046:3076  pendingPayment[msg.sender].add */\n      tag_102\n      swap1\n        /* \"contracts/LendingPool.sol\":3046:3083  pendingPayment[msg.sender].add(yield) */\n      swap2\n      swap1\n      0xffffffff\n      and\n      jump\t// in\n    tag_132:\n        /* \"contracts/LendingPool.sol\":3017:3031  pendingPayment */\n      0x07\n        /* \"contracts/LendingPool.sol\":3017:3043  pendingPayment[msg.sender] */\n      0x00\n        /* \"contracts/LendingPool.sol\":3032:3042  msg.sender */\n      caller\n        /* \"contracts/LendingPool.sol\":3017:3043  pendingPayment[msg.sender] */\n      0xffffffffffffffffffffffffffffffffffffffff\n      and\n      0xffffffffffffffffffffffffffffffffffffffff\n      and\n      dup2\n      mstore\n      0x20\n      add\n      swap1\n      dup2\n      mstore\n      0x20\n      add\n      0x00\n      keccak256\n        /* \"contracts/LendingPool.sol\":3017:3083  pendingPayment[msg.sender] = pendingPayment[msg.sender].add(yield) */\n      dup2\n      swap1\n      sstore\n      pop\n        /* \"contracts/LendingPool.sol\":2499:3090  {... */\n      pop\n      pop\n        /* \"contracts/LendingPool.sol\":2466:3090  function depositWithdraw() public{... */\n      jump\t// out\n        /* \"contracts/LendingPool.sol\":477:521  mapping(address => uint256) public startTime */\n    tag_49:\n      mstore(0x20, 0x05)\n      dup1\n      0x00\n      mstore\n      keccak256(0x00, 0x40)\n      0x00\n      swap2\n      pop\n      swap1\n      pop\n      sload\n      dup2\n      jump\t// out\n        /* \"contracts/LendingPool.sol\":322:350  address payable public owner */\n    tag_53:\n      0x01\n      0x00\n      swap1\n      sload\n      swap1\n      0x0100\n      exp\n      swap1\n      div\n      0xffffffffffffffffffffffffffffffffffffffff\n      and\n      dup2\n      jump\t// out\n        /* \"contracts/LendingPool.sol\":392:413  address public editor */\n    tag_58:\n      0x03\n      0x00\n      swap1\n      sload\n      swap1\n      0x0100\n      exp\n      swap1\n      div\n      0xffffffffffffffffffffffffffffffffffffffff\n      and\n      dup2\n      jump\t// out\n        /* \"contracts/LendingPool.sol\":580:629  mapping(address => uint256) public pendingPayment */\n    tag_64:\n      mstore(0x20, 0x07)\n      dup1\n      0x00\n      mstore\n      keccak256(0x00, 0x40)\n      0x00\n      swap2\n      pop\n      swap1\n      pop\n      sload\n      dup2\n      jump\t// out\n        /* \"contracts/LendingPool.sol\":635:680  mapping(address => bool) public allowed_pools */\n    tag_69:\n      mstore(0x20, 0x08)\n      dup1\n      0x00\n      mstore\n      keccak256(0x00, 0x40)\n      0x00\n      swap2\n      pop\n      sload\n      swap1\n      0x0100\n      exp\n      swap1\n      div\n      0xff\n      and\n      dup2\n      jump\t// out\n        /* \"contracts/LendingPool.sol\":1622:2025  function deposit() public payable {... */\n    tag_73:\n        /* \"contracts/LendingPool.sol\":1687:1697  minimumAmt */\n      sload(0x00)\n        /* \"contracts/LendingPool.sol\":1674:1683  msg.value */\n      callvalue\n        /* \"contracts/LendingPool.sol\":1674:1697  msg.value >= minimumAmt */\n      lt\n      iszero\n        /* \"contracts/LendingPool.sol\":1666:1726  require(msg.value >= minimumAmt, \"Minimum 1 Ether Required\") */\n      tag_134\n      jumpi\n      mload(0x40)\n      0x08c379a000000000000000000000000000000000000000000000000000000000\n      dup2\n      mstore\n      0x04\n      add\n      tag_135\n      swap1\n      tag_136\n      jump\t// in\n    tag_135:\n      mload(0x40)\n      dup1\n      swap2\n      sub\n      swap1\n      revert\n    tag_134:\n        /* \"contracts/LendingPool.sol\":1816:1831  block.timestamp */\n      timestamp\n        /* \"contracts/LendingPool.sol\":1792:1801  startTime */\n      0x05\n        /* \"contracts/LendingPool.sol\":1792:1813  startTime[msg.sender] */\n      0x00\n        /* \"contracts/LendingPool.sol\":1802:1812  msg.sender */\n      caller\n        /* \"contracts/LendingPool.sol\":1792:1813  startTime[msg.sender] */\n      0xffffffffffffffffffffffffffffffffffffffff\n      and\n      0xffffffffffffffffffffffffffffffffffffffff\n      and\n      dup2\n      mstore\n      0x20\n      add\n      swap1\n      dup2\n      mstore\n      0x20\n      add\n      0x00\n      keccak256\n        /* \"contracts/LendingPool.sol\":1792:1831  startTime[msg.sender] = block.timestamp */\n      dup2\n      swap1\n      sstore\n      pop\n        /* \"contracts/LendingPool.sol\":1868:1907  stakedAmount[msg.sender].add(msg.value) */\n      tag_137\n        /* \"contracts/LendingPool.sol\":1897:1906  msg.value */\n      callvalue\n        /* \"contracts/LendingPool.sol\":1868:1880  stakedAmount */\n      0x06\n        /* \"contracts/LendingPool.sol\":1868:1892  stakedAmount[msg.sender] */\n      0x00\n        /* \"contracts/LendingPool.sol\":1881:1891  msg.sender */\n      caller\n        /* \"contracts/LendingPool.sol\":1868:1892  stakedAmount[msg.sender] */\n      0xffffffffffffffffffffffffffffffffffffffff\n      and\n      0xffffffffffffffffffffffffffffffffffffffff\n      and\n      dup2\n      mstore\n      0x20\n      add\n      swap1\n      dup2\n      mstore\n      0x20\n      add\n      0x00\n      keccak256\n      sload\n        /* \"contracts/LendingPool.sol\":1868:1896  stakedAmount[msg.sender].add */\n      tag_102\n      swap1\n        /* \"contracts/LendingPool.sol\":1868:1907  stakedAmount[msg.sender].add(msg.value) */\n      swap2\n      swap1\n      0xffffffff\n      and\n      jump\t// in\n    tag_137:\n        /* \"contracts/LendingPool.sol\":1841:1853  stakedAmount */\n      0x06\n        /* \"contracts/LendingPool.sol\":1841:1865  stakedAmount[msg.sender] */\n      0x00\n        /* \"contracts/LendingPool.sol\":1854:1864  msg.sender */\n      caller\n        /* \"contracts/LendingPool.sol\":1841:1865  stakedAmount[msg.sender] */\n      0xffffffffffffffffffffffffffffffffffffffff\n      and\n      0xffffffffffffffffffffffffffffffffffffffff\n      and\n      dup2\n      mstore\n      0x20\n      add\n      swap1\n      dup2\n      mstore\n      0x20\n      add\n      0x00\n      keccak256\n        /* \"contracts/LendingPool.sol\":1841:1907  stakedAmount[msg.sender] = stakedAmount[msg.sender].add(msg.value) */\n      dup2\n      swap1\n      sstore\n      pop\n        /* \"contracts/LendingPool.sol\":1934:1963  totalDeposited.add(msg.value) */\n      tag_138\n        /* \"contracts/LendingPool.sol\":1953:1962  msg.value */\n      callvalue\n        /* \"contracts/LendingPool.sol\":1934:1948  totalDeposited */\n      sload(0x02)\n        /* \"contracts/LendingPool.sol\":1934:1952  totalDeposited.add */\n      tag_102\n      swap1\n        /* \"contracts/LendingPool.sol\":1934:1963  totalDeposited.add(msg.value) */\n      swap2\n      swap1\n      0xffffffff\n      and\n      jump\t// in\n    tag_138:\n        /* \"contracts/LendingPool.sol\":1917:1931  totalDeposited */\n      0x02\n        /* \"contracts/LendingPool.sol\":1917:1963  totalDeposited = totalDeposited.add(msg.value) */\n      dup2\n      swap1\n      sstore\n      pop\n        /* \"contracts/LendingPool.sol\":1978:2018  LendingPoolMessage(\"staked\", msg.sender) */\n      0xf67e7992d539193fc243c42fe89f8fab49013e8e4fb18cfa891dc51adcaccc80\n        /* \"contracts/LendingPool.sol\":2007:2017  msg.sender */\n      caller\n        /* \"contracts/LendingPool.sol\":1978:2018  LendingPoolMessage(\"staked\", msg.sender) */\n      mload(0x40)\n      tag_139\n      swap2\n      swap1\n      tag_140\n      jump\t// in\n    tag_139:\n      mload(0x40)\n      dup1\n      swap2\n      sub\n      swap1\n      log1\n        /* \"contracts/LendingPool.sol\":1622:2025  function deposit() public payable {... */\n      jump\t// out\n        /* \"contracts/LendingPool.sol\":527:574  mapping(address => uint256) public stakedAmount */\n    tag_77:\n      mstore(0x20, 0x06)\n      dup1\n      0x00\n      mstore\n      keccak256(0x00, 0x40)\n      0x00\n      swap2\n      pop\n      swap1\n      pop\n      sload\n      dup2\n      jump\t// out\n        /* \"contracts/SafeMath.sol\":245:405  function sub(uint256 a, uint256 b) internal pure returns (uint256 c) {... */\n    tag_100:\n        /* \"contracts/SafeMath.sol\":303:312  uint256 c */\n      0x00\n        /* \"contracts/SafeMath.sol\":337:338  a */\n      dup3\n        /* \"contracts/SafeMath.sol\":332:333  b */\n      dup3\n        /* \"contracts/SafeMath.sol\":332:338  b <= a */\n      gt\n      iszero\n        /* \"contracts/SafeMath.sol\":324:361  require(b <= a, \"Substraction faild\") */\n      tag_142\n      jumpi\n      mload(0x40)\n      0x08c379a000000000000000000000000000000000000000000000000000000000\n      dup2\n      mstore\n      0x04\n      add\n      tag_143\n      swap1\n      tag_144\n      jump\t// in\n    tag_143:\n      mload(0x40)\n      dup1\n      swap2\n      sub\n      swap1\n      revert\n    tag_142:\n        /* \"contracts/SafeMath.sol\":379:380  b */\n      dup2\n        /* \"contracts/SafeMath.sol\":375:376  a */\n      dup4\n        /* \"contracts/SafeMath.sol\":375:380  a - b */\n      tag_145\n      swap2\n      swap1\n      tag_117\n      jump\t// in\n    tag_145:\n        /* \"contracts/SafeMath.sol\":371:380  c = a - b */\n      swap1\n      pop\n        /* \"contracts/SafeMath.sol\":245:405  function sub(uint256 a, uint256 b) internal pure returns (uint256 c) {... */\n      swap3\n      swap2\n      pop\n      pop\n      jump\t// out\n        /* \"contracts/SafeMath.sol\":82:239  function add(uint256 a, uint256 b) internal pure returns (uint256 c) {... */\n    tag_102:\n        /* \"contracts/SafeMath.sol\":140:149  uint256 c */\n      0x00\n        /* \"contracts/SafeMath.sol\":169:170  b */\n      dup2\n        /* \"contracts/SafeMath.sol\":165:166  a */\n      dup4\n        /* \"contracts/SafeMath.sol\":165:170  a + b */\n      tag_147\n      swap2\n      swap1\n      tag_127\n      jump\t// in\n    tag_147:\n        /* \"contracts/SafeMath.sol\":161:170  c = a + b */\n      swap1\n      pop\n        /* \"contracts/SafeMath.sol\":193:194  a */\n      dup3\n        /* \"contracts/SafeMath.sol\":188:189  c */\n      dup2\n        /* \"contracts/SafeMath.sol\":188:194  c >= a */\n      lt\n      iszero\n        /* \"contracts/SafeMath.sol\":180:214  require(c >= a, \"Addition failed\") */\n      tag_148\n      jumpi\n      mload(0x40)\n      0x08c379a000000000000000000000000000000000000000000000000000000000\n      dup2\n      mstore\n      0x04\n      add\n      tag_149\n      swap1\n      tag_150\n      jump\t// in\n    tag_149:\n      mload(0x40)\n      dup1\n      swap2\n      sub\n      swap1\n      revert\n    tag_148:\n        /* \"contracts/SafeMath.sol\":82:239  function add(uint256 a, uint256 b) internal pure returns (uint256 c) {... */\n      swap3\n      swap2\n      pop\n      pop\n      jump\t// out\n        /* \"contracts/SafeMath.sol\":593:748  function div(uint256 a, uint256 b) internal pure returns (uint256 c) {... */\n    tag_118:\n        /* \"contracts/SafeMath.sol\":651:660  uint256 c */\n      0x00\n        /* \"contracts/SafeMath.sol\":684:685  0 */\n      dup1\n        /* \"contracts/SafeMath.sol\":680:681  b */\n      dup3\n        /* \"contracts/SafeMath.sol\":680:685  b > 0 */\n      gt\n        /* \"contracts/SafeMath.sol\":672:704  require(b > 0, \"Division faild\") */\n      tag_152\n      jumpi\n      mload(0x40)\n      0x08c379a000000000000000000000000000000000000000000000000000000000\n      dup2\n      mstore\n      0x04\n      add\n      tag_153\n      swap1\n      tag_154\n      jump\t// in\n    tag_153:\n      mload(0x40)\n      dup1\n      swap2\n      sub\n      swap1\n      revert\n    tag_152:\n        /* \"contracts/SafeMath.sol\":722:723  b */\n      dup2\n        /* \"contracts/SafeMath.sol\":718:719  a */\n      dup4\n        /* \"contracts/SafeMath.sol\":718:723  a / b */\n      tag_155\n      swap2\n      swap1\n      tag_156\n      jump\t// in\n    tag_155:\n        /* \"contracts/SafeMath.sol\":714:723  c = a / b */\n      swap1\n      pop\n        /* \"contracts/SafeMath.sol\":593:748  function div(uint256 a, uint256 b) internal pure returns (uint256 c) {... */\n      swap3\n      swap2\n      pop\n      pop\n      jump\t// out\n        /* \"contracts/SafeMath.sol\":411:587  function mul(uint256 a, uint256 b) internal pure returns (uint256 c) {... */\n    tag_125:\n        /* \"contracts/SafeMath.sol\":469:478  uint256 c */\n      0x00\n        /* \"contracts/SafeMath.sol\":498:499  b */\n      dup2\n        /* \"contracts/SafeMath.sol\":494:495  a */\n      dup4\n        /* \"contracts/SafeMath.sol\":494:499  a * b */\n      tag_158\n      swap2\n      swap1\n      tag_159\n      jump\t// in\n    tag_158:\n        /* \"contracts/SafeMath.sol\":490:499  c = a * b */\n      swap1\n      pop\n        /* \"contracts/SafeMath.sol\":522:523  0 */\n      0x00\n        /* \"contracts/SafeMath.sol\":517:518  a */\n      dup4\n        /* \"contracts/SafeMath.sol\":517:523  a == 0 */\n      eq\n        /* \"contracts/SafeMath.sol\":517:537  a == 0 || c / a == b */\n      dup1\n      tag_160\n      jumpi\n      pop\n        /* \"contracts/SafeMath.sol\":536:537  b */\n      dup2\n        /* \"contracts/SafeMath.sol\":531:532  a */\n      dup4\n        /* \"contracts/SafeMath.sol\":527:528  c */\n      dup3\n        /* \"contracts/SafeMath.sol\":527:532  c / a */\n      tag_161\n      swap2\n      swap1\n      tag_156\n      jump\t// in\n    tag_161:\n        /* \"contracts/SafeMath.sol\":527:537  c / a == b */\n      eq\n        /* \"contracts/SafeMath.sol\":517:537  a == 0 || c / a == b */\n    tag_160:\n        /* \"contracts/SafeMath.sol\":509:562  require(a == 0 || c / a == b, \"Multiplication faild\") */\n      tag_162\n      jumpi\n      mload(0x40)\n      0x08c379a000000000000000000000000000000000000000000000000000000000\n      dup2\n      mstore\n      0x04\n      add\n      tag_163\n      swap1\n      tag_164\n      jump\t// in\n    tag_163:\n      mload(0x40)\n      dup1\n      swap2\n      sub\n      swap1\n      revert\n    tag_162:\n        /* \"contracts/SafeMath.sol\":411:587  function mul(uint256 a, uint256 b) internal pure returns (uint256 c) {... */\n      swap3\n      swap2\n      pop\n      pop\n      jump\t// out\n        /* \"#utility.yul\":7:146   */\n    tag_166:\n        /* \"#utility.yul\":53:58   */\n      0x00\n        /* \"#utility.yul\":91:97   */\n      dup2\n        /* \"#utility.yul\":78:98   */\n      calldataload\n        /* \"#utility.yul\":69:98   */\n      swap1\n      pop\n        /* \"#utility.yul\":107:140   */\n      tag_168\n        /* \"#utility.yul\":134:139   */\n      dup2\n        /* \"#utility.yul\":107:140   */\n      tag_169\n      jump\t// in\n    tag_168:\n        /* \"#utility.yul\":7:146   */\n      swap3\n      swap2\n      pop\n      pop\n      jump\t// out\n        /* \"#utility.yul\":152:291   */\n    tag_170:\n        /* \"#utility.yul\":198:203   */\n      0x00\n        /* \"#utility.yul\":236:242   */\n      dup2\n        /* \"#utility.yul\":223:243   */\n      calldataload\n        /* \"#utility.yul\":214:243   */\n      swap1\n      pop\n        /* \"#utility.yul\":252:285   */\n      tag_172\n        /* \"#utility.yul\":279:284   */\n      dup2\n        /* \"#utility.yul\":252:285   */\n      tag_173\n      jump\t// in\n    tag_172:\n        /* \"#utility.yul\":152:291   */\n      swap3\n      swap2\n      pop\n      pop\n      jump\t// out\n        /* \"#utility.yul\":297:626   */\n    tag_25:\n        /* \"#utility.yul\":356:362   */\n      0x00\n        /* \"#utility.yul\":405:407   */\n      0x20\n        /* \"#utility.yul\":393:402   */\n      dup3\n        /* \"#utility.yul\":384:391   */\n      dup5\n        /* \"#utility.yul\":380:403   */\n      sub\n        /* \"#utility.yul\":376:408   */\n      slt\n        /* \"#utility.yul\":373:492   */\n      iszero\n      tag_175\n      jumpi\n        /* \"#utility.yul\":411:490   */\n      tag_176\n      tag_177\n      jump\t// in\n    tag_176:\n        /* \"#utility.yul\":373:492   */\n    tag_175:\n        /* \"#utility.yul\":531:532   */\n      0x00\n        /* \"#utility.yul\":556:609   */\n      tag_178\n        /* \"#utility.yul\":601:608   */\n      dup5\n        /* \"#utility.yul\":592:598   */\n      dup3\n        /* \"#utility.yul\":581:590   */\n      dup6\n        /* \"#utility.yul\":577:599   */\n      add\n        /* \"#utility.yul\":556:609   */\n      tag_166\n      jump\t// in\n    tag_178:\n        /* \"#utility.yul\":546:609   */\n      swap2\n      pop\n        /* \"#utility.yul\":502:619   */\n      pop\n        /* \"#utility.yul\":297:626   */\n      swap3\n      swap2\n      pop\n      pop\n      jump\t// out\n        /* \"#utility.yul\":632:1106   */\n    tag_33:\n        /* \"#utility.yul\":700:706   */\n      0x00\n        /* \"#utility.yul\":708:714   */\n      dup1\n        /* \"#utility.yul\":757:759   */\n      0x40\n        /* \"#utility.yul\":745:754   */\n      dup4\n        /* \"#utility.yul\":736:743   */\n      dup6\n        /* \"#utility.yul\":732:755   */\n      sub\n        /* \"#utility.yul\":728:760   */\n      slt\n        /* \"#utility.yul\":725:844   */\n      iszero\n      tag_180\n      jumpi\n        /* \"#utility.yul\":763:842   */\n      tag_181\n      tag_177\n      jump\t// in\n    tag_181:\n        /* \"#utility.yul\":725:844   */\n    tag_180:\n        /* \"#utility.yul\":883:884   */\n      0x00\n        /* \"#utility.yul\":908:961   */\n      tag_182\n        /* \"#utility.yul\":953:960   */\n      dup6\n        /* \"#utility.yul\":944:950   */\n      dup3\n        /* \"#utility.yul\":933:942   */\n      dup7\n        /* \"#utility.yul\":929:951   */\n      add\n        /* \"#utility.yul\":908:961   */\n      tag_170\n      jump\t// in\n    tag_182:\n        /* \"#utility.yul\":898:961   */\n      swap3\n      pop\n        /* \"#utility.yul\":854:971   */\n      pop\n        /* \"#utility.yul\":1010:1012   */\n      0x20\n        /* \"#utility.yul\":1036:1089   */\n      tag_183\n        /* \"#utility.yul\":1081:1088   */\n      dup6\n        /* \"#utility.yul\":1072:1078   */\n      dup3\n        /* \"#utility.yul\":1061:1070   */\n      dup7\n        /* \"#utility.yul\":1057:1079   */\n      add\n        /* \"#utility.yul\":1036:1089   */\n      tag_166\n      jump\t// in\n    tag_183:\n        /* \"#utility.yul\":1026:1089   */\n      swap2\n      pop\n        /* \"#utility.yul\":981:1099   */\n      pop\n        /* \"#utility.yul\":632:1106   */\n      swap3\n      pop\n      swap3\n      swap1\n      pop\n      jump\t// out\n        /* \"#utility.yul\":1112:1254   */\n    tag_184:\n        /* \"#utility.yul\":1215:1247   */\n      tag_186\n        /* \"#utility.yul\":1241:1246   */\n      dup2\n        /* \"#utility.yul\":1215:1247   */\n      tag_187\n      jump\t// in\n    tag_186:\n        /* \"#utility.yul\":1210:1213   */\n      dup3\n        /* \"#utility.yul\":1203:1248   */\n      mstore\n        /* \"#utility.yul\":1112:1254   */\n      pop\n      pop\n      jump\t// out\n        /* \"#utility.yul\":1260:1378   */\n    tag_188:\n        /* \"#utility.yul\":1347:1371   */\n      tag_190\n        /* \"#utility.yul\":1365:1370   */\n      dup2\n        /* \"#utility.yul\":1347:1371   */\n      tag_191\n      jump\t// in\n    tag_190:\n        /* \"#utility.yul\":1342:1345   */\n      dup3\n        /* \"#utility.yul\":1335:1372   */\n      mstore\n        /* \"#utility.yul\":1260:1378   */\n      pop\n      pop\n      jump\t// out\n        /* \"#utility.yul\":1384:1493   */\n    tag_192:\n        /* \"#utility.yul\":1465:1486   */\n      tag_194\n        /* \"#utility.yul\":1480:1485   */\n      dup2\n        /* \"#utility.yul\":1465:1486   */\n      tag_195\n      jump\t// in\n    tag_194:\n        /* \"#utility.yul\":1460:1463   */\n      dup3\n        /* \"#utility.yul\":1453:1487   */\n      mstore\n        /* \"#utility.yul\":1384:1493   */\n      pop\n      pop\n      jump\t// out\n        /* \"#utility.yul\":1499:1865   */\n    tag_196:\n        /* \"#utility.yul\":1641:1644   */\n      0x00\n        /* \"#utility.yul\":1662:1729   */\n      tag_198\n        /* \"#utility.yul\":1726:1728   */\n      0x13\n        /* \"#utility.yul\":1721:1724   */\n      dup4\n        /* \"#utility.yul\":1662:1729   */\n      tag_199\n      jump\t// in\n    tag_198:\n        /* \"#utility.yul\":1655:1729   */\n      swap2\n      pop\n        /* \"#utility.yul\":1738:1831   */\n      tag_200\n        /* \"#utility.yul\":1827:1830   */\n      dup3\n        /* \"#utility.yul\":1738:1831   */\n      tag_201\n      jump\t// in\n    tag_200:\n        /* \"#utility.yul\":1856:1858   */\n      0x20\n        /* \"#utility.yul\":1851:1854   */\n      dup3\n        /* \"#utility.yul\":1847:1859   */\n      add\n        /* \"#utility.yul\":1840:1859   */\n      swap1\n      pop\n        /* \"#utility.yul\":1499:1865   */\n      swap2\n      swap1\n      pop\n      jump\t// out\n        /* \"#utility.yul\":1871:2237   */\n    tag_202:\n        /* \"#utility.yul\":2013:2016   */\n      0x00\n        /* \"#utility.yul\":2034:2101   */\n      tag_204\n        /* \"#utility.yul\":2098:2100   */\n      0x11\n        /* \"#utility.yul\":2093:2096   */\n      dup4\n        /* \"#utility.yul\":2034:2101   */\n      tag_199\n      jump\t// in\n    tag_204:\n        /* \"#utility.yul\":2027:2101   */\n      swap2\n      pop\n        /* \"#utility.yul\":2110:2203   */\n      tag_205\n        /* \"#utility.yul\":2199:2202   */\n      dup3\n        /* \"#utility.yul\":2110:2203   */\n      tag_206\n      jump\t// in\n    tag_205:\n        /* \"#utility.yul\":2228:2230   */\n      0x20\n        /* \"#utility.yul\":2223:2226   */\n      dup3\n        /* \"#utility.yul\":2219:2231   */\n      add\n        /* \"#utility.yul\":2212:2231   */\n      swap1\n      pop\n        /* \"#utility.yul\":1871:2237   */\n      swap2\n      swap1\n      pop\n      jump\t// out\n        /* \"#utility.yul\":2243:2609   */\n    tag_207:\n        /* \"#utility.yul\":2385:2388   */\n      0x00\n        /* \"#utility.yul\":2406:2473   */\n      tag_209\n        /* \"#utility.yul\":2470:2472   */\n      0x29\n        /* \"#utility.yul\":2465:2468   */\n      dup4\n        /* \"#utility.yul\":2406:2473   */\n      tag_199\n      jump\t// in\n    tag_209:\n        /* \"#utility.yul\":2399:2473   */\n      swap2\n      pop\n        /* \"#utility.yul\":2482:2575   */\n      tag_210\n        /* \"#utility.yul\":2571:2574   */\n      dup3\n        /* \"#utility.yul\":2482:2575   */\n      tag_211\n      jump\t// in\n    tag_210:\n        /* \"#utility.yul\":2600:2602   */\n      0x40\n        /* \"#utility.yul\":2595:2598   */\n      dup3\n        /* \"#utility.yul\":2591:2603   */\n      add\n        /* \"#utility.yul\":2584:2603   */\n      swap1\n      pop\n        /* \"#utility.yul\":2243:2609   */\n      swap2\n      swap1\n      pop\n      jump\t// out\n        /* \"#utility.yul\":2615:2981   */\n    tag_212:\n        /* \"#utility.yul\":2757:2760   */\n      0x00\n        /* \"#utility.yul\":2778:2845   */\n      tag_214\n        /* \"#utility.yul\":2842:2844   */\n      0x20\n        /* \"#utility.yul\":2837:2840   */\n      dup4\n        /* \"#utility.yul\":2778:2845   */\n      tag_199\n      jump\t// in\n    tag_214:\n        /* \"#utility.yul\":2771:2845   */\n      swap2\n      pop\n        /* \"#utility.yul\":2854:2947   */\n      tag_215\n        /* \"#utility.yul\":2943:2946   */\n      dup3\n        /* \"#utility.yul\":2854:2947   */\n      tag_216\n      jump\t// in\n    tag_215:\n        /* \"#utility.yul\":2972:2974   */\n      0x20\n        /* \"#utility.yul\":2967:2970   */\n      dup3\n        /* \"#utility.yul\":2963:2975   */\n      add\n        /* \"#utility.yul\":2956:2975   */\n      swap1\n      pop\n        /* \"#utility.yul\":2615:2981   */\n      swap2\n      swap1\n      pop\n      jump\t// out\n        /* \"#utility.yul\":2987:3353   */\n    tag_217:\n        /* \"#utility.yul\":3129:3132   */\n      0x00\n        /* \"#utility.yul\":3150:3217   */\n      tag_219\n        /* \"#utility.yul\":3214:3216   */\n      0x18\n        /* \"#utility.yul\":3209:3212   */\n      dup4\n        /* \"#utility.yul\":3150:3217   */\n      tag_199\n      jump\t// in\n    tag_219:\n        /* \"#utility.yul\":3143:3217   */\n      swap2\n      pop\n        /* \"#utility.yul\":3226:3319   */\n      tag_220\n        /* \"#utility.yul\":3315:3318   */\n      dup3\n        /* \"#utility.yul\":3226:3319   */\n      tag_221\n      jump\t// in\n    tag_220:\n        /* \"#utility.yul\":3344:3346   */\n      0x20\n        /* \"#utility.yul\":3339:3342   */\n      dup3\n        /* \"#utility.yul\":3335:3347   */\n      add\n        /* \"#utility.yul\":3328:3347   */\n      swap1\n      pop\n        /* \"#utility.yul\":2987:3353   */\n      swap2\n      swap1\n      pop\n      jump\t// out\n        /* \"#utility.yul\":3359:3725   */\n    tag_222:\n        /* \"#utility.yul\":3501:3504   */\n      0x00\n        /* \"#utility.yul\":3522:3589   */\n      tag_224\n        /* \"#utility.yul\":3586:3588   */\n      0x24\n        /* \"#utility.yul\":3581:3584   */\n      dup4\n        /* \"#utility.yul\":3522:3589   */\n      tag_199\n      jump\t// in\n    tag_224:\n        /* \"#utility.yul\":3515:3589   */\n      swap2\n      pop\n        /* \"#utility.yul\":3598:3691   */\n      tag_225\n        /* \"#utility.yul\":3687:3690   */\n      dup3\n        /* \"#utility.yul\":3598:3691   */\n      tag_226\n      jump\t// in\n    tag_225:\n        /* \"#utility.yul\":3716:3718   */\n      0x40\n        /* \"#utility.yul\":3711:3714   */\n      dup3\n        /* \"#utility.yul\":3707:3719   */\n      add\n        /* \"#utility.yul\":3700:3719   */\n      swap1\n      pop\n        /* \"#utility.yul\":3359:3725   */\n      swap2\n      swap1\n      pop\n      jump\t// out\n        /* \"#utility.yul\":3731:4097   */\n    tag_227:\n        /* \"#utility.yul\":3873:3876   */\n      0x00\n        /* \"#utility.yul\":3894:3961   */\n      tag_229\n        /* \"#utility.yul\":3958:3960   */\n      0x22\n        /* \"#utility.yul\":3953:3956   */\n      dup4\n        /* \"#utility.yul\":3894:3961   */\n      tag_199\n      jump\t// in\n    tag_229:\n        /* \"#utility.yul\":3887:3961   */\n      swap2\n      pop\n        /* \"#utility.yul\":3970:4063   */\n      tag_230\n        /* \"#utility.yul\":4059:4062   */\n      dup3\n        /* \"#utility.yul\":3970:4063   */\n      tag_231\n      jump\t// in\n    tag_230:\n        /* \"#utility.yul\":4088:4090   */\n      0x40\n        /* \"#utility.yul\":4083:4086   */\n      dup3\n        /* \"#utility.yul\":4079:4091   */\n      add\n        /* \"#utility.yul\":4072:4091   */\n      swap1\n      pop\n        /* \"#utility.yul\":3731:4097   */\n      swap2\n      swap1\n      pop\n      jump\t// out\n        /* \"#utility.yul\":4103:4468   */\n    tag_232:\n        /* \"#utility.yul\":4245:4248   */\n      0x00\n        /* \"#utility.yul\":4266:4332   */\n      tag_234\n        /* \"#utility.yul\":4330:4331   */\n      0x06\n        /* \"#utility.yul\":4325:4328   */\n      dup4\n        /* \"#utility.yul\":4266:4332   */\n      tag_199\n      jump\t// in\n    tag_234:\n        /* \"#utility.yul\":4259:4332   */\n      swap2\n      pop\n        /* \"#utility.yul\":4341:4434   */\n      tag_235\n        /* \"#utility.yul\":4430:4433   */\n      dup3\n        /* \"#utility.yul\":4341:4434   */\n      tag_236\n      jump\t// in\n    tag_235:\n        /* \"#utility.yul\":4459:4461   */\n      0x20\n        /* \"#utility.yul\":4454:4457   */\n      dup3\n        /* \"#utility.yul\":4450:4462   */\n      add\n        /* \"#utility.yul\":4443:4462   */\n      swap1\n      pop\n        /* \"#utility.yul\":4103:4468   */\n      swap2\n      swap1\n      pop\n      jump\t// out\n        /* \"#utility.yul\":4474:4840   */\n    tag_237:\n        /* \"#utility.yul\":4616:4619   */\n      0x00\n        /* \"#utility.yul\":4637:4704   */\n      tag_239\n        /* \"#utility.yul\":4701:4703   */\n      0x12\n        /* \"#utility.yul\":4696:4699   */\n      dup4\n        /* \"#utility.yul\":4637:4704   */\n      tag_199\n      jump\t// in\n    tag_239:\n        /* \"#utility.yul\":4630:4704   */\n      swap2\n      pop\n        /* \"#utility.yul\":4713:4806   */\n      tag_240\n        /* \"#utility.yul\":4802:4805   */\n      dup3\n        /* \"#utility.yul\":4713:4806   */\n      tag_241\n      jump\t// in\n    tag_240:\n        /* \"#utility.yul\":4831:4833   */\n      0x20\n        /* \"#utility.yul\":4826:4829   */\n      dup3\n        /* \"#utility.yul\":4822:4834   */\n      add\n        /* \"#utility.yul\":4815:4834   */\n      swap1\n      pop\n        /* \"#utility.yul\":4474:4840   */\n      swap2\n      swap1\n      pop\n      jump\t// out\n        /* \"#utility.yul\":4846:5212   */\n    tag_242:\n        /* \"#utility.yul\":4988:4991   */\n      0x00\n        /* \"#utility.yul\":5009:5076   */\n      tag_244\n        /* \"#utility.yul\":5073:5075   */\n      0x0f\n        /* \"#utility.yul\":5068:5071   */\n      dup4\n        /* \"#utility.yul\":5009:5076   */\n      tag_199\n      jump\t// in\n    tag_244:\n        /* \"#utility.yul\":5002:5076   */\n      swap2\n      pop\n        /* \"#utility.yul\":5085:5178   */\n      tag_245\n        /* \"#utility.yul\":5174:5177   */\n      dup3\n        /* \"#utility.yul\":5085:5178   */\n      tag_246\n      jump\t// in\n    tag_245:\n        /* \"#utility.yul\":5203:5205   */\n      0x20\n        /* \"#utility.yul\":5198:5201   */\n      dup3\n        /* \"#utility.yul\":5194:5206   */\n      add\n        /* \"#utility.yul\":5187:5206   */\n      swap1\n      pop\n        /* \"#utility.yul\":4846:5212   */\n      swap2\n      swap1\n      pop\n      jump\t// out\n        /* \"#utility.yul\":5218:5584   */\n    tag_247:\n        /* \"#utility.yul\":5360:5363   */\n      0x00\n        /* \"#utility.yul\":5381:5448   */\n      tag_249\n        /* \"#utility.yul\":5445:5447   */\n      0x24\n        /* \"#utility.yul\":5440:5443   */\n      dup4\n        /* \"#utility.yul\":5381:5448   */\n      tag_199\n      jump\t// in\n    tag_249:\n        /* \"#utility.yul\":5374:5448   */\n      swap2\n      pop\n        /* \"#utility.yul\":5457:5550   */\n      tag_250\n        /* \"#utility.yul\":5546:5549   */\n      dup3\n        /* \"#utility.yul\":5457:5550   */\n      tag_251\n      jump\t// in\n    tag_250:\n        /* \"#utility.yul\":5575:5577   */\n      0x40\n        /* \"#utility.yul\":5570:5573   */\n      dup3\n        /* \"#utility.yul\":5566:5578   */\n      add\n        /* \"#utility.yul\":5559:5578   */\n      swap1\n      pop\n        /* \"#utility.yul\":5218:5584   */\n      swap2\n      swap1\n      pop\n      jump\t// out\n        /* \"#utility.yul\":5590:5956   */\n    tag_252:\n        /* \"#utility.yul\":5732:5735   */\n      0x00\n        /* \"#utility.yul\":5753:5820   */\n      tag_254\n        /* \"#utility.yul\":5817:5819   */\n      0x2c\n        /* \"#utility.yul\":5812:5815   */\n      dup4\n        /* \"#utility.yul\":5753:5820   */\n      tag_199\n      jump\t// in\n    tag_254:\n        /* \"#utility.yul\":5746:5820   */\n      swap2\n      pop\n        /* \"#utility.yul\":5829:5922   */\n      tag_255\n        /* \"#utility.yul\":5918:5921   */\n      dup3\n        /* \"#utility.yul\":5829:5922   */\n      tag_256\n      jump\t// in\n    tag_255:\n        /* \"#utility.yul\":5947:5949   */\n      0x40\n        /* \"#utility.yul\":5942:5945   */\n      dup3\n        /* \"#utility.yul\":5938:5950   */\n      add\n        /* \"#utility.yul\":5931:5950   */\n      swap1\n      pop\n        /* \"#utility.yul\":5590:5956   */\n      swap2\n      swap1\n      pop\n      jump\t// out\n        /* \"#utility.yul\":5962:6328   */\n    tag_257:\n        /* \"#utility.yul\":6104:6107   */\n      0x00\n        /* \"#utility.yul\":6125:6192   */\n      tag_259\n        /* \"#utility.yul\":6189:6191   */\n      0x0e\n        /* \"#utility.yul\":6184:6187   */\n      dup4\n        /* \"#utility.yul\":6125:6192   */\n      tag_199\n      jump\t// in\n    tag_259:\n        /* \"#utility.yul\":6118:6192   */\n      swap2\n      pop\n        /* \"#utility.yul\":6201:6294   */\n      tag_260\n        /* \"#utility.yul\":6290:6293   */\n      dup3\n        /* \"#utility.yul\":6201:6294   */\n      tag_261\n      jump\t// in\n    tag_260:\n        /* \"#utility.yul\":6319:6321   */\n      0x20\n        /* \"#utility.yul\":6314:6317   */\n      dup3\n        /* \"#utility.yul\":6310:6322   */\n      add\n        /* \"#utility.yul\":6303:6322   */\n      swap1\n      pop\n        /* \"#utility.yul\":5962:6328   */\n      swap2\n      swap1\n      pop\n      jump\t// out\n        /* \"#utility.yul\":6334:6700   */\n    tag_262:\n        /* \"#utility.yul\":6476:6479   */\n      0x00\n        /* \"#utility.yul\":6497:6564   */\n      tag_264\n        /* \"#utility.yul\":6561:6563   */\n      0x27\n        /* \"#utility.yul\":6556:6559   */\n      dup4\n        /* \"#utility.yul\":6497:6564   */\n      tag_199\n      jump\t// in\n    tag_264:\n        /* \"#utility.yul\":6490:6564   */\n      swap2\n      pop\n        /* \"#utility.yul\":6573:6666   */\n      tag_265\n        /* \"#utility.yul\":6662:6665   */\n      dup3\n        /* \"#utility.yul\":6573:6666   */\n      tag_266\n      jump\t// in\n    tag_265:\n        /* \"#utility.yul\":6691:6693   */\n      0x40\n        /* \"#utility.yul\":6686:6689   */\n      dup3\n        /* \"#utility.yul\":6682:6694   */\n      add\n        /* \"#utility.yul\":6675:6694   */\n      swap1\n      pop\n        /* \"#utility.yul\":6334:6700   */\n      swap2\n      swap1\n      pop\n      jump\t// out\n        /* \"#utility.yul\":6706:7072   */\n    tag_267:\n        /* \"#utility.yul\":6848:6851   */\n      0x00\n        /* \"#utility.yul\":6869:6936   */\n      tag_269\n        /* \"#utility.yul\":6933:6935   */\n      0x32\n        /* \"#utility.yul\":6928:6931   */\n      dup4\n        /* \"#utility.yul\":6869:6936   */\n      tag_199\n      jump\t// in\n    tag_269:\n        /* \"#utility.yul\":6862:6936   */\n      swap2\n      pop\n        /* \"#utility.yul\":6945:7038   */\n      tag_270\n        /* \"#utility.yul\":7034:7037   */\n      dup3\n        /* \"#utility.yul\":6945:7038   */\n      tag_271\n      jump\t// in\n    tag_270:\n        /* \"#utility.yul\":7063:7065   */\n      0x40\n        /* \"#utility.yul\":7058:7061   */\n      dup3\n        /* \"#utility.yul\":7054:7066   */\n      add\n        /* \"#utility.yul\":7047:7066   */\n      swap1\n      pop\n        /* \"#utility.yul\":6706:7072   */\n      swap2\n      swap1\n      pop\n      jump\t// out\n        /* \"#utility.yul\":7078:7444   */\n    tag_272:\n        /* \"#utility.yul\":7220:7223   */\n      0x00\n        /* \"#utility.yul\":7241:7308   */\n      tag_274\n        /* \"#utility.yul\":7305:7307   */\n      0x14\n        /* \"#utility.yul\":7300:7303   */\n      dup4\n        /* \"#utility.yul\":7241:7308   */\n      tag_199\n      jump\t// in\n    tag_274:\n        /* \"#utility.yul\":7234:7308   */\n      swap2\n      pop\n        /* \"#utility.yul\":7317:7410   */\n      tag_275\n        /* \"#utility.yul\":7406:7409   */\n      dup3\n        /* \"#utility.yul\":7317:7410   */\n      tag_276\n      jump\t// in\n    tag_275:\n        /* \"#utility.yul\":7435:7437   */\n      0x20\n        /* \"#utility.yul\":7430:7433   */\n      dup3\n        /* \"#utility.yul\":7426:7438   */\n      add\n        /* \"#utility.yul\":7419:7438   */\n      swap1\n      pop\n        /* \"#utility.yul\":7078:7444   */\n      swap2\n      swap1\n      pop\n      jump\t// out\n        /* \"#utility.yul\":7450:7568   */\n    tag_277:\n        /* \"#utility.yul\":7537:7561   */\n      tag_279\n        /* \"#utility.yul\":7555:7560   */\n      dup2\n        /* \"#utility.yul\":7537:7561   */\n      tag_280\n      jump\t// in\n    tag_279:\n        /* \"#utility.yul\":7532:7535   */\n      dup3\n        /* \"#utility.yul\":7525:7562   */\n      mstore\n        /* \"#utility.yul\":7450:7568   */\n      pop\n      pop\n      jump\t// out\n        /* \"#utility.yul\":7574:7796   */\n    tag_60:\n        /* \"#utility.yul\":7667:7671   */\n      0x00\n        /* \"#utility.yul\":7705:7707   */\n      0x20\n        /* \"#utility.yul\":7694:7703   */\n      dup3\n        /* \"#utility.yul\":7690:7708   */\n      add\n        /* \"#utility.yul\":7682:7708   */\n      swap1\n      pop\n        /* \"#utility.yul\":7718:7789   */\n      tag_282\n        /* \"#utility.yul\":7786:7787   */\n      0x00\n        /* \"#utility.yul\":7775:7784   */\n      dup4\n        /* \"#utility.yul\":7771:7788   */\n      add\n        /* \"#utility.yul\":7762:7768   */\n      dup5\n        /* \"#utility.yul\":7718:7789   */\n      tag_188\n      jump\t// in\n    tag_282:\n        /* \"#utility.yul\":7574:7796   */\n      swap3\n      swap2\n      pop\n      pop\n      jump\t// out\n        /* \"#utility.yul\":7802:8056   */\n    tag_55:\n        /* \"#utility.yul\":7911:7915   */\n      0x00\n        /* \"#utility.yul\":7949:7951   */\n      0x20\n        /* \"#utility.yul\":7938:7947   */\n      dup3\n        /* \"#utility.yul\":7934:7952   */\n      add\n        /* \"#utility.yul\":7926:7952   */\n      swap1\n      pop\n        /* \"#utility.yul\":7962:8049   */\n      tag_284\n        /* \"#utility.yul\":8046:8047   */\n      0x00\n        /* \"#utility.yul\":8035:8044   */\n      dup4\n        /* \"#utility.yul\":8031:8048   */\n      add\n        /* \"#utility.yul\":8022:8028   */\n      dup5\n        /* \"#utility.yul\":7962:8049   */\n      tag_184\n      jump\t// in\n    tag_284:\n        /* \"#utility.yul\":7802:8056   */\n      swap3\n      swap2\n      pop\n      pop\n      jump\t// out\n        /* \"#utility.yul\":8062:8272   */\n    tag_71:\n        /* \"#utility.yul\":8149:8153   */\n      0x00\n        /* \"#utility.yul\":8187:8189   */\n      0x20\n        /* \"#utility.yul\":8176:8185   */\n      dup3\n        /* \"#utility.yul\":8172:8190   */\n      add\n        /* \"#utility.yul\":8164:8190   */\n      swap1\n      pop\n        /* \"#utility.yul\":8200:8265   */\n      tag_286\n        /* \"#utility.yul\":8262:8263   */\n      0x00\n        /* \"#utility.yul\":8251:8260   */\n      dup4\n        /* \"#utility.yul\":8247:8264   */\n      add\n        /* \"#utility.yul\":8238:8244   */\n      dup5\n        /* \"#utility.yul\":8200:8265   */\n      tag_192\n      jump\t// in\n    tag_286:\n        /* \"#utility.yul\":8062:8272   */\n      swap3\n      swap2\n      pop\n      pop\n      jump\t// out\n        /* \"#utility.yul\":8278:8807   */\n    tag_104:\n        /* \"#utility.yul\":8472:8476   */\n      0x00\n        /* \"#utility.yul\":8510:8512   */\n      0x40\n        /* \"#utility.yul\":8499:8508   */\n      dup3\n        /* \"#utility.yul\":8495:8513   */\n      add\n        /* \"#utility.yul\":8487:8513   */\n      swap1\n      pop\n        /* \"#utility.yul\":8559:8568   */\n      dup2\n        /* \"#utility.yul\":8553:8557   */\n      dup2\n        /* \"#utility.yul\":8549:8569   */\n      sub\n        /* \"#utility.yul\":8545:8546   */\n      0x00\n        /* \"#utility.yul\":8534:8543   */\n      dup4\n        /* \"#utility.yul\":8530:8547   */\n      add\n        /* \"#utility.yul\":8523:8570   */\n      mstore\n        /* \"#utility.yul\":8587:8718   */\n      tag_288\n        /* \"#utility.yul\":8713:8717   */\n      dup2\n        /* \"#utility.yul\":8587:8718   */\n      tag_196\n      jump\t// in\n    tag_288:\n        /* \"#utility.yul\":8579:8718   */\n      swap1\n      pop\n        /* \"#utility.yul\":8728:8800   */\n      tag_289\n        /* \"#utility.yul\":8796:8798   */\n      0x20\n        /* \"#utility.yul\":8785:8794   */\n      dup4\n        /* \"#utility.yul\":8781:8799   */\n      add\n        /* \"#utility.yul\":8772:8778   */\n      dup5\n        /* \"#utility.yul\":8728:8800   */\n      tag_188\n      jump\t// in\n    tag_289:\n        /* \"#utility.yul\":8278:8807   */\n      swap3\n      swap2\n      pop\n      pop\n      jump\t// out\n        /* \"#utility.yul\":8813:9342   */\n    tag_85:\n        /* \"#utility.yul\":9007:9011   */\n      0x00\n        /* \"#utility.yul\":9045:9047   */\n      0x40\n        /* \"#utility.yul\":9034:9043   */\n      dup3\n        /* \"#utility.yul\":9030:9048   */\n      add\n        /* \"#utility.yul\":9022:9048   */\n      swap1\n      pop\n        /* \"#utility.yul\":9094:9103   */\n      dup2\n        /* \"#utility.yul\":9088:9092   */\n      dup2\n        /* \"#utility.yul\":9084:9104   */\n      sub\n        /* \"#utility.yul\":9080:9081   */\n      0x00\n        /* \"#utility.yul\":9069:9078   */\n      dup4\n        /* \"#utility.yul\":9065:9082   */\n      add\n        /* \"#utility.yul\":9058:9105   */\n      mstore\n        /* \"#utility.yul\":9122:9253   */\n      tag_291\n        /* \"#utility.yul\":9248:9252   */\n      dup2\n        /* \"#utility.yul\":9122:9253   */\n      tag_202\n      jump\t// in\n    tag_291:\n        /* \"#utility.yul\":9114:9253   */\n      swap1\n      pop\n        /* \"#utility.yul\":9263:9335   */\n      tag_292\n        /* \"#utility.yul\":9331:9333   */\n      0x20\n        /* \"#utility.yul\":9320:9329   */\n      dup4\n        /* \"#utility.yul\":9316:9334   */\n      add\n        /* \"#utility.yul\":9307:9313   */\n      dup5\n        /* \"#utility.yul\":9263:9335   */\n      tag_188\n      jump\t// in\n    tag_292:\n        /* \"#utility.yul\":8813:9342   */\n      swap3\n      swap2\n      pop\n      pop\n      jump\t// out\n        /* \"#utility.yul\":9348:9767   */\n    tag_94:\n        /* \"#utility.yul\":9514:9518   */\n      0x00\n        /* \"#utility.yul\":9552:9554   */\n      0x20\n        /* \"#utility.yul\":9541:9550   */\n      dup3\n        /* \"#utility.yul\":9537:9555   */\n      add\n        /* \"#utility.yul\":9529:9555   */\n      swap1\n      pop\n        /* \"#utility.yul\":9601:9610   */\n      dup2\n        /* \"#utility.yul\":9595:9599   */\n      dup2\n        /* \"#utility.yul\":9591:9611   */\n      sub\n        /* \"#utility.yul\":9587:9588   */\n      0x00\n        /* \"#utility.yul\":9576:9585   */\n      dup4\n        /* \"#utility.yul\":9572:9589   */\n      add\n        /* \"#utility.yul\":9565:9612   */\n      mstore\n        /* \"#utility.yul\":9629:9760   */\n      tag_294\n        /* \"#utility.yul\":9755:9759   */\n      dup2\n        /* \"#utility.yul\":9629:9760   */\n      tag_207\n      jump\t// in\n    tag_294:\n        /* \"#utility.yul\":9621:9760   */\n      swap1\n      pop\n        /* \"#utility.yul\":9348:9767   */\n      swap2\n      swap1\n      pop\n      jump\t// out\n        /* \"#utility.yul\":9773:10192   */\n    tag_114:\n        /* \"#utility.yul\":9939:9943   */\n      0x00\n        /* \"#utility.yul\":9977:9979   */\n      0x20\n        /* \"#utility.yul\":9966:9975   */\n      dup3\n        /* \"#utility.yul\":9962:9980   */\n      add\n        /* \"#utility.yul\":9954:9980   */\n      swap1\n      pop\n        /* \"#utility.yul\":10026:10035   */\n      dup2\n        /* \"#utility.yul\":10020:10024   */\n      dup2\n        /* \"#utility.yul\":10016:10036   */\n      sub\n        /* \"#utility.yul\":10012:10013   */\n      0x00\n        /* \"#utility.yul\":10001:10010   */\n      dup4\n        /* \"#utility.yul\":9997:10014   */\n      add\n        /* \"#utility.yul\":9990:10037   */\n      mstore\n        /* \"#utility.yul\":10054:10185   */\n      tag_296\n        /* \"#utility.yul\":10180:10184   */\n      dup2\n        /* \"#utility.yul\":10054:10185   */\n      tag_212\n      jump\t// in\n    tag_296:\n        /* \"#utility.yul\":10046:10185   */\n      swap1\n      pop\n        /* \"#utility.yul\":9773:10192   */\n      swap2\n      swap1\n      pop\n      jump\t// out\n        /* \"#utility.yul\":10198:10617   */\n    tag_136:\n        /* \"#utility.yul\":10364:10368   */\n      0x00\n        /* \"#utility.yul\":10402:10404   */\n      0x20\n        /* \"#utility.yul\":10391:10400   */\n      dup3\n        /* \"#utility.yul\":10387:10405   */\n      add\n        /* \"#utility.yul\":10379:10405   */\n      swap1\n      pop\n        /* \"#utility.yul\":10451:10460   */\n      dup2\n        /* \"#utility.yul\":10445:10449   */\n      dup2\n        /* \"#utility.yul\":10441:10461   */\n      sub\n        /* \"#utility.yul\":10437:10438   */\n      0x00\n        /* \"#utility.yul\":10426:10435   */\n      dup4\n        /* \"#utility.yul\":10422:10439   */\n      add\n        /* \"#utility.yul\":10415:10462   */\n      mstore\n        /* \"#utility.yul\":10479:10610   */\n      tag_298\n        /* \"#utility.yul\":10605:10609   */\n      dup2\n        /* \"#utility.yul\":10479:10610   */\n      tag_217\n      jump\t// in\n    tag_298:\n        /* \"#utility.yul\":10471:10610   */\n      swap1\n      pop\n        /* \"#utility.yul\":10198:10617   */\n      swap2\n      swap1\n      pop\n      jump\t// out\n        /* \"#utility.yul\":10623:11042   */\n    tag_108:\n        /* \"#utility.yul\":10789:10793   */\n      0x00\n        /* \"#utility.yul\":10827:10829   */\n      0x20\n        /* \"#utility.yul\":10816:10825   */\n      dup3\n        /* \"#utility.yul\":10812:10830   */\n      add\n        /* \"#utility.yul\":10804:10830   */\n      swap1\n      pop\n        /* \"#utility.yul\":10876:10885   */\n      dup2\n        /* \"#utility.yul\":10870:10874   */\n      dup2\n        /* \"#utility.yul\":10866:10886   */\n      sub\n        /* \"#utility.yul\":10862:10863   */\n      0x00\n        /* \"#utility.yul\":10851:10860   */\n      dup4\n        /* \"#utility.yul\":10847:10864   */\n      add\n        /* \"#utility.yul\":10840:10887   */\n      mstore\n        /* \"#utility.yul\":10904:11035   */\n      tag_300\n        /* \"#utility.yul\":11030:11034   */\n      dup2\n        /* \"#utility.yul\":10904:11035   */\n      tag_222\n      jump\t// in\n    tag_300:\n        /* \"#utility.yul\":10896:11035   */\n      swap1\n      pop\n        /* \"#utility.yul\":10623:11042   */\n      swap2\n      swap1\n      pop\n      jump\t// out\n        /* \"#utility.yul\":11048:11467   */\n    tag_89:\n        /* \"#utility.yul\":11214:11218   */\n      0x00\n        /* \"#utility.yul\":11252:11254   */\n      0x20\n        /* \"#utility.yul\":11241:11250   */\n      dup3\n        /* \"#utility.yul\":11237:11255   */\n      add\n        /* \"#utility.yul\":11229:11255   */\n      swap1\n      pop\n        /* \"#utility.yul\":11301:11310   */\n      dup2\n        /* \"#utility.yul\":11295:11299   */\n      dup2\n        /* \"#utility.yul\":11291:11311   */\n      sub\n        /* \"#utility.yul\":11287:11288   */\n      0x00\n        /* \"#utility.yul\":11276:11285   */\n      dup4\n        /* \"#utility.yul\":11272:11289   */\n      add\n        /* \"#utility.yul\":11265:11312   */\n      mstore\n        /* \"#utility.yul\":11329:11460   */\n      tag_302\n        /* \"#utility.yul\":11455:11459   */\n      dup2\n        /* \"#utility.yul\":11329:11460   */\n      tag_227\n      jump\t// in\n    tag_302:\n        /* \"#utility.yul\":11321:11460   */\n      swap1\n      pop\n        /* \"#utility.yul\":11048:11467   */\n      swap2\n      swap1\n      pop\n      jump\t// out\n        /* \"#utility.yul\":11473:12002   */\n    tag_140:\n        /* \"#utility.yul\":11667:11671   */\n      0x00\n        /* \"#utility.yul\":11705:11707   */\n      0x40\n        /* \"#utility.yul\":11694:11703   */\n      dup3\n        /* \"#utility.yul\":11690:11708   */\n      add\n        /* \"#utility.yul\":11682:11708   */\n      swap1\n      pop\n        /* \"#utility.yul\":11754:11763   */\n      dup2\n        /* \"#utility.yul\":11748:11752   */\n      dup2\n        /* \"#utility.yul\":11744:11764   */\n      sub\n        /* \"#utility.yul\":11740:11741   */\n      0x00\n        /* \"#utility.yul\":11729:11738   */\n      dup4\n        /* \"#utility.yul\":11725:11742   */\n      add\n        /* \"#utility.yul\":11718:11765   */\n      mstore\n        /* \"#utility.yul\":11782:11913   */\n      tag_304\n        /* \"#utility.yul\":11908:11912   */\n      dup2\n        /* \"#utility.yul\":11782:11913   */\n      tag_232\n      jump\t// in\n    tag_304:\n        /* \"#utility.yul\":11774:11913   */\n      swap1\n      pop\n        /* \"#utility.yul\":11923:11995   */\n      tag_305\n        /* \"#utility.yul\":11991:11993   */\n      0x20\n        /* \"#utility.yul\":11980:11989   */\n      dup4\n        /* \"#utility.yul\":11976:11994   */\n      add\n        /* \"#utility.yul\":11967:11973   */\n      dup5\n        /* \"#utility.yul\":11923:11995   */\n      tag_188\n      jump\t// in\n    tag_305:\n        /* \"#utility.yul\":11473:12002   */\n      swap3\n      swap2\n      pop\n      pop\n      jump\t// out\n        /* \"#utility.yul\":12008:12427   */\n    tag_144:\n        /* \"#utility.yul\":12174:12178   */\n      0x00\n        /* \"#utility.yul\":12212:12214   */\n      0x20\n        /* \"#utility.yul\":12201:12210   */\n      dup3\n        /* \"#utility.yul\":12197:12215   */\n      add\n        /* \"#utility.yul\":12189:12215   */\n      swap1\n      pop\n        /* \"#utility.yul\":12261:12270   */\n      dup2\n        /* \"#utility.yul\":12255:12259   */\n      dup2\n        /* \"#utility.yul\":12251:12271   */\n      sub\n        /* \"#utility.yul\":12247:12248   */\n      0x00\n        /* \"#utility.yul\":12236:12245   */\n      dup4\n        /* \"#utility.yul\":12232:12249   */\n      add\n        /* \"#utility.yul\":12225:12272   */\n      mstore\n        /* \"#utility.yul\":12289:12420   */\n      tag_307\n        /* \"#utility.yul\":12415:12419   */\n      dup2\n        /* \"#utility.yul\":12289:12420   */\n      tag_237\n      jump\t// in\n    tag_307:\n        /* \"#utility.yul\":12281:12420   */\n      swap1\n      pop\n        /* \"#utility.yul\":12008:12427   */\n      swap2\n      swap1\n      pop\n      jump\t// out\n        /* \"#utility.yul\":12433:12852   */\n    tag_150:\n        /* \"#utility.yul\":12599:12603   */\n      0x00\n        /* \"#utility.yul\":12637:12639   */\n      0x20\n        /* \"#utility.yul\":12626:12635   */\n      dup3\n        /* \"#utility.yul\":12622:12640   */\n      add\n        /* \"#utility.yul\":12614:12640   */\n      swap1\n      pop\n        /* \"#utility.yul\":12686:12695   */\n      dup2\n        /* \"#utility.yul\":12680:12684   */\n      dup2\n        /* \"#utility.yul\":12676:12696   */\n      sub\n        /* \"#utility.yul\":12672:12673   */\n      0x00\n        /* \"#utility.yul\":12661:12670   */\n      dup4\n        /* \"#utility.yul\":12657:12674   */\n      add\n        /* \"#utility.yul\":12650:12697   */\n      mstore\n        /* \"#utility.yul\":12714:12845   */\n      tag_309\n        /* \"#utility.yul\":12840:12844   */\n      dup2\n        /* \"#utility.yul\":12714:12845   */\n      tag_242\n      jump\t// in\n    tag_309:\n        /* \"#utility.yul\":12706:12845   */\n      swap1\n      pop\n        /* \"#utility.yul\":12433:12852   */\n      swap2\n      swap1\n      pop\n      jump\t// out\n        /* \"#utility.yul\":12858:13277   */\n    tag_121:\n        /* \"#utility.yul\":13024:13028   */\n      0x00\n        /* \"#utility.yul\":13062:13064   */\n      0x20\n        /* \"#utility.yul\":13051:13060   */\n      dup3\n        /* \"#utility.yul\":13047:13065   */\n      add\n        /* \"#utility.yul\":13039:13065   */\n      swap1\n      pop\n        /* \"#utility.yul\":13111:13120   */\n      dup2\n        /* \"#utility.yul\":13105:13109   */\n      dup2\n        /* \"#utility.yul\":13101:13121   */\n      sub\n        /* \"#utility.yul\":13097:13098   */\n      0x00\n        /* \"#utility.yul\":13086:13095   */\n      dup4\n        /* \"#utility.yul\":13082:13099   */\n      add\n        /* \"#utility.yul\":13075:13122   */\n      mstore\n        /* \"#utility.yul\":13139:13270   */\n      tag_311\n        /* \"#utility.yul\":13265:13269   */\n      dup2\n        /* \"#utility.yul\":13139:13270   */\n      tag_247\n      jump\t// in\n    tag_311:\n        /* \"#utility.yul\":13131:13270   */\n      swap1\n      pop\n        /* \"#utility.yul\":12858:13277   */\n      swap2\n      swap1\n      pop\n      jump\t// out\n        /* \"#utility.yul\":13283:13702   */\n    tag_82:\n        /* \"#utility.yul\":13449:13453   */\n      0x00\n        /* \"#utility.yul\":13487:13489   */\n      0x20\n        /* \"#utility.yul\":13476:13485   */\n      dup3\n        /* \"#utility.yul\":13472:13490   */\n      add\n        /* \"#utility.yul\":13464:13490   */\n      swap1\n      pop\n        /* \"#utility.yul\":13536:13545   */\n      dup2\n        /* \"#utility.yul\":13530:13534   */\n      dup2\n        /* \"#utility.yul\":13526:13546   */\n      sub\n        /* \"#utility.yul\":13522:13523   */\n      0x00\n        /* \"#utility.yul\":13511:13520   */\n      dup4\n        /* \"#utility.yul\":13507:13524   */\n      add\n        /* \"#utility.yul\":13500:13547   */\n      mstore\n        /* \"#utility.yul\":13564:13695   */\n      tag_313\n        /* \"#utility.yul\":13690:13694   */\n      dup2\n        /* \"#utility.yul\":13564:13695   */\n      tag_252\n      jump\t// in\n    tag_313:\n        /* \"#utility.yul\":13556:13695   */\n      swap1\n      pop\n        /* \"#utility.yul\":13283:13702   */\n      swap2\n      swap1\n      pop\n      jump\t// out\n        /* \"#utility.yul\":13708:14127   */\n    tag_154:\n        /* \"#utility.yul\":13874:13878   */\n      0x00\n        /* \"#utility.yul\":13912:13914   */\n      0x20\n        /* \"#utility.yul\":13901:13910   */\n      dup3\n        /* \"#utility.yul\":13897:13915   */\n      add\n        /* \"#utility.yul\":13889:13915   */\n      swap1\n      pop\n        /* \"#utility.yul\":13961:13970   */\n      dup2\n        /* \"#utility.yul\":13955:13959   */\n      dup2\n        /* \"#utility.yul\":13951:13971   */\n      sub\n        /* \"#utility.yul\":13947:13948   */\n      0x00\n        /* \"#utility.yul\":13936:13945   */\n      dup4\n        /* \"#utility.yul\":13932:13949   */\n      add\n        /* \"#utility.yul\":13925:13972   */\n      mstore\n        /* \"#utility.yul\":13989:14120   */\n      tag_315\n        /* \"#utility.yul\":14115:14119   */\n      dup2\n        /* \"#utility.yul\":13989:14120   */\n      tag_257\n      jump\t// in\n    tag_315:\n        /* \"#utility.yul\":13981:14120   */\n      swap1\n      pop\n        /* \"#utility.yul\":13708:14127   */\n      swap2\n      swap1\n      pop\n      jump\t// out\n        /* \"#utility.yul\":14133:14552   */\n    tag_98:\n        /* \"#utility.yul\":14299:14303   */\n      0x00\n        /* \"#utility.yul\":14337:14339   */\n      0x20\n        /* \"#utility.yul\":14326:14335   */\n      dup3\n        /* \"#utility.yul\":14322:14340   */\n      add\n        /* \"#utility.yul\":14314:14340   */\n      swap1\n      pop\n        /* \"#utility.yul\":14386:14395   */\n      dup2\n        /* \"#utility.yul\":14380:14384   */\n      dup2\n        /* \"#utility.yul\":14376:14396   */\n      sub\n        /* \"#utility.yul\":14372:14373   */\n      0x00\n        /* \"#utility.yul\":14361:14370   */\n      dup4\n        /* \"#utility.yul\":14357:14374   */\n      add\n        /* \"#utility.yul\":14350:14397   */\n      mstore\n        /* \"#utility.yul\":14414:14545   */\n      tag_317\n        /* \"#utility.yul\":14540:14544   */\n      dup2\n        /* \"#utility.yul\":14414:14545   */\n      tag_262\n      jump\t// in\n    tag_317:\n        /* \"#utility.yul\":14406:14545   */\n      swap1\n      pop\n        /* \"#utility.yul\":14133:14552   */\n      swap2\n      swap1\n      pop\n      jump\t// out\n        /* \"#utility.yul\":14558:14977   */\n    tag_130:\n        /* \"#utility.yul\":14724:14728   */\n      0x00\n        /* \"#utility.yul\":14762:14764   */\n      0x20\n        /* \"#utility.yul\":14751:14760   */\n      dup3\n        /* \"#utility.yul\":14747:14765   */\n      add\n        /* \"#utility.yul\":14739:14765   */\n      swap1\n      pop\n        /* \"#utility.yul\":14811:14820   */\n      dup2\n        /* \"#utility.yul\":14805:14809   */\n      dup2\n        /* \"#utility.yul\":14801:14821   */\n      sub\n        /* \"#utility.yul\":14797:14798   */\n      0x00\n        /* \"#utility.yul\":14786:14795   */\n      dup4\n        /* \"#utility.yul\":14782:14799   */\n      add\n        /* \"#utility.yul\":14775:14822   */\n      mstore\n        /* \"#utility.yul\":14839:14970   */\n      tag_319\n        /* \"#utility.yul\":14965:14969   */\n      dup2\n        /* \"#utility.yul\":14839:14970   */\n      tag_267\n      jump\t// in\n    tag_319:\n        /* \"#utility.yul\":14831:14970   */\n      swap1\n      pop\n        /* \"#utility.yul\":14558:14977   */\n      swap2\n      swap1\n      pop\n      jump\t// out\n        /* \"#utility.yul\":14983:15402   */\n    tag_164:\n        /* \"#utility.yul\":15149:15153   */\n      0x00\n        /* \"#utility.yul\":15187:15189   */\n      0x20\n        /* \"#utility.yul\":15176:15185   */\n      dup3\n        /* \"#utility.yul\":15172:15190   */\n      add\n        /* \"#utility.yul\":15164:15190   */\n      swap1\n      pop\n        /* \"#utility.yul\":15236:15245   */\n      dup2\n        /* \"#utility.yul\":15230:15234   */\n      dup2\n        /* \"#utility.yul\":15226:15246   */\n      sub\n        /* \"#utility.yul\":15222:15223   */\n      0x00\n        /* \"#utility.yul\":15211:15220   */\n      dup4\n        /* \"#utility.yul\":15207:15224   */\n      add\n        /* \"#utility.yul\":15200:15247   */\n      mstore\n        /* \"#utility.yul\":15264:15395   */\n      tag_321\n        /* \"#utility.yul\":15390:15394   */\n      dup2\n        /* \"#utility.yul\":15264:15395   */\n      tag_272\n      jump\t// in\n    tag_321:\n        /* \"#utility.yul\":15256:15395   */\n      swap1\n      pop\n        /* \"#utility.yul\":14983:15402   */\n      swap2\n      swap1\n      pop\n      jump\t// out\n        /* \"#utility.yul\":15408:15630   */\n    tag_42:\n        /* \"#utility.yul\":15501:15505   */\n      0x00\n        /* \"#utility.yul\":15539:15541   */\n      0x20\n        /* \"#utility.yul\":15528:15537   */\n      dup3\n        /* \"#utility.yul\":15524:15542   */\n      add\n        /* \"#utility.yul\":15516:15542   */\n      swap1\n      pop\n        /* \"#utility.yul\":15552:15623   */\n      tag_323\n        /* \"#utility.yul\":15620:15621   */\n      0x00\n        /* \"#utility.yul\":15609:15618   */\n      dup4\n        /* \"#utility.yul\":15605:15622   */\n      add\n        /* \"#utility.yul\":15596:15602   */\n      dup5\n        /* \"#utility.yul\":15552:15623   */\n      tag_277\n      jump\t// in\n    tag_323:\n        /* \"#utility.yul\":15408:15630   */\n      swap3\n      swap2\n      pop\n      pop\n      jump\t// out\n        /* \"#utility.yul\":15717:15886   */\n    tag_199:\n        /* \"#utility.yul\":15801:15812   */\n      0x00\n        /* \"#utility.yul\":15835:15841   */\n      dup3\n        /* \"#utility.yul\":15830:15833   */\n      dup3\n        /* \"#utility.yul\":15823:15842   */\n      mstore\n        /* \"#utility.yul\":15875:15879   */\n      0x20\n        /* \"#utility.yul\":15870:15873   */\n      dup3\n        /* \"#utility.yul\":15866:15880   */\n      add\n        /* \"#utility.yul\":15851:15880   */\n      swap1\n      pop\n        /* \"#utility.yul\":15717:15886   */\n      swap3\n      swap2\n      pop\n      pop\n      jump\t// out\n        /* \"#utility.yul\":15892:16197   */\n    tag_127:\n        /* \"#utility.yul\":15932:15935   */\n      0x00\n        /* \"#utility.yul\":15951:15971   */\n      tag_328\n        /* \"#utility.yul\":15969:15970   */\n      dup3\n        /* \"#utility.yul\":15951:15971   */\n      tag_280\n      jump\t// in\n    tag_328:\n        /* \"#utility.yul\":15946:15971   */\n      swap2\n      pop\n        /* \"#utility.yul\":15985:16005   */\n      tag_329\n        /* \"#utility.yul\":16003:16004   */\n      dup4\n        /* \"#utility.yul\":15985:16005   */\n      tag_280\n      jump\t// in\n    tag_329:\n        /* \"#utility.yul\":15980:16005   */\n      swap3\n      pop\n        /* \"#utility.yul\":16139:16140   */\n      dup3\n        /* \"#utility.yul\":16071:16137   */\n      0xffffffffffffffffffffffffffffffffffffffffffffffffffffffffffffffff\n        /* \"#utility.yul\":16067:16141   */\n      sub\n        /* \"#utility.yul\":16064:16065   */\n      dup3\n        /* \"#utility.yul\":16061:16142   */\n      gt\n        /* \"#utility.yul\":16058:16165   */\n      iszero\n      tag_330\n      jumpi\n        /* \"#utility.yul\":16145:16163   */\n      tag_331\n      tag_332\n      jump\t// in\n    tag_331:\n        /* \"#utility.yul\":16058:16165   */\n    tag_330:\n        /* \"#utility.yul\":16189:16190   */\n      dup3\n        /* \"#utility.yul\":16186:16187   */\n      dup3\n        /* \"#utility.yul\":16182:16191   */\n      add\n        /* \"#utility.yul\":16175:16191   */\n      swap1\n      pop\n        /* \"#utility.yul\":15892:16197   */\n      swap3\n      swap2\n      pop\n      pop\n      jump\t// out\n        /* \"#utility.yul\":16203:16388   */\n    tag_156:\n        /* \"#utility.yul\":16243:16244   */\n      0x00\n        /* \"#utility.yul\":16260:16280   */\n      tag_334\n        /* \"#utility.yul\":16278:16279   */\n      dup3\n        /* \"#utility.yul\":16260:16280   */\n      tag_280\n      jump\t// in\n    tag_334:\n        /* \"#utility.yul\":16255:16280   */\n      swap2\n      pop\n        /* \"#utility.yul\":16294:16314   */\n      tag_335\n        /* \"#utility.yul\":16312:16313   */\n      dup4\n        /* \"#utility.yul\":16294:16314   */\n      tag_280\n      jump\t// in\n    tag_335:\n        /* \"#utility.yul\":16289:16314   */\n      swap3\n      pop\n        /* \"#utility.yul\":16333:16334   */\n      dup3\n        /* \"#utility.yul\":16323:16358   */\n      tag_336\n      jumpi\n        /* \"#utility.yul\":16338:16356   */\n      tag_337\n      tag_338\n      jump\t// in\n    tag_337:\n        /* \"#utility.yul\":16323:16358   */\n    tag_336:\n        /* \"#utility.yul\":16380:16381   */\n      dup3\n        /* \"#utility.yul\":16377:16378   */\n      dup3\n        /* \"#utility.yul\":16373:16382   */\n      div\n        /* \"#utility.yul\":16368:16382   */\n      swap1\n      pop\n        /* \"#utility.yul\":16203:16388   */\n      swap3\n      swap2\n      pop\n      pop\n      jump\t// out\n        /* \"#utility.yul\":16394:16742   */\n    tag_159:\n        /* \"#utility.yul\":16434:16441   */\n      0x00\n        /* \"#utility.yul\":16457:16477   */\n      tag_340\n        /* \"#utility.yul\":16475:16476   */\n      dup3\n        /* \"#utility.yul\":16457:16477   */\n      tag_280\n      jump\t// in\n    tag_340:\n        /* \"#utility.yul\":16452:16477   */\n      swap2\n      pop\n        /* \"#utility.yul\":16491:16511   */\n      tag_341\n        /* \"#utility.yul\":16509:16510   */\n      dup4\n        /* \"#utility.yul\":16491:16511   */\n      tag_280\n      jump\t// in\n    tag_341:\n        /* \"#utility.yul\":16486:16511   */\n      swap3\n      pop\n        /* \"#utility.yul\":16679:16680   */\n      dup2\n        /* \"#utility.yul\":16611:16677   */\n      0xffffffffffffffffffffffffffffffffffffffffffffffffffffffffffffffff\n        /* \"#utility.yul\":16607:16681   */\n      div\n        /* \"#utility.yul\":16604:16605   */\n      dup4\n        /* \"#utility.yul\":16601:16682   */\n      gt\n        /* \"#utility.yul\":16596:16597   */\n      dup3\n        /* \"#utility.yul\":16589:16598   */\n      iszero\n        /* \"#utility.yul\":16582:16599   */\n      iszero\n        /* \"#utility.yul\":16578:16683   */\n      and\n        /* \"#utility.yul\":16575:16706   */\n      iszero\n      tag_342\n      jumpi\n        /* \"#utility.yul\":16686:16704   */\n      tag_343\n      tag_332\n      jump\t// in\n    tag_343:\n        /* \"#utility.yul\":16575:16706   */\n    tag_342:\n        /* \"#utility.yul\":16734:16735   */\n      dup3\n        /* \"#utility.yul\":16731:16732   */\n      dup3\n        /* \"#utility.yul\":16727:16736   */\n      mul\n        /* \"#utility.yul\":16716:16736   */\n      swap1\n      pop\n        /* \"#utility.yul\":16394:16742   */\n      swap3\n      swap2\n      pop\n      pop\n      jump\t// out\n        /* \"#utility.yul\":16748:16939   */\n    tag_117:\n        /* \"#utility.yul\":16788:16792   */\n      0x00\n        /* \"#utility.yul\":16808:16828   */\n      tag_345\n        /* \"#utility.yul\":16826:16827   */\n      dup3\n        /* \"#utility.yul\":16808:16828   */\n      tag_280\n      jump\t// in\n    tag_345:\n        /* \"#utility.yul\":16803:16828   */\n      swap2\n      pop\n        /* \"#utility.yul\":16842:16862   */\n      tag_346\n        /* \"#utility.yul\":16860:16861   */\n      dup4\n        /* \"#utility.yul\":16842:16862   */\n      tag_280\n      jump\t// in\n    tag_346:\n        /* \"#utility.yul\":16837:16862   */\n      swap3\n      pop\n        /* \"#utility.yul\":16881:16882   */\n      dup3\n        /* \"#utility.yul\":16878:16879   */\n      dup3\n        /* \"#utility.yul\":16875:16883   */\n      lt\n        /* \"#utility.yul\":16872:16906   */\n      iszero\n      tag_347\n      jumpi\n        /* \"#utility.yul\":16886:16904   */\n      tag_348\n      tag_332\n      jump\t// in\n    tag_348:\n        /* \"#utility.yul\":16872:16906   */\n    tag_347:\n        /* \"#utility.yul\":16931:16932   */\n      dup3\n        /* \"#utility.yul\":16928:16929   */\n      dup3\n        /* \"#utility.yul\":16924:16933   */\n      sub\n        /* \"#utility.yul\":16916:16933   */\n      swap1\n      pop\n        /* \"#utility.yul\":16748:16939   */\n      swap3\n      swap2\n      pop\n      pop\n      jump\t// out\n        /* \"#utility.yul\":16945:17041   */\n    tag_191:\n        /* \"#utility.yul\":16982:16989   */\n      0x00\n        /* \"#utility.yul\":17011:17035   */\n      tag_350\n        /* \"#utility.yul\":17029:17034   */\n      dup3\n        /* \"#utility.yul\":17011:17035   */\n      tag_351\n      jump\t// in\n    tag_350:\n        /* \"#utility.yul\":17000:17035   */\n      swap1\n      pop\n        /* \"#utility.yul\":16945:17041   */\n      swap2\n      swap1\n      pop\n      jump\t// out\n        /* \"#utility.yul\":17047:17151   */\n    tag_187:\n        /* \"#utility.yul\":17092:17099   */\n      0x00\n        /* \"#utility.yul\":17121:17145   */\n      tag_353\n        /* \"#utility.yul\":17139:17144   */\n      dup3\n        /* \"#utility.yul\":17121:17145   */\n      tag_351\n      jump\t// in\n    tag_353:\n        /* \"#utility.yul\":17110:17145   */\n      swap1\n      pop\n        /* \"#utility.yul\":17047:17151   */\n      swap2\n      swap1\n      pop\n      jump\t// out\n        /* \"#utility.yul\":17157:17247   */\n    tag_195:\n        /* \"#utility.yul\":17191:17198   */\n      0x00\n        /* \"#utility.yul\":17234:17239   */\n      dup2\n        /* \"#utility.yul\":17227:17240   */\n      iszero\n        /* \"#utility.yul\":17220:17241   */\n      iszero\n        /* \"#utility.yul\":17209:17241   */\n      swap1\n      pop\n        /* \"#utility.yul\":17157:17247   */\n      swap2\n      swap1\n      pop\n      jump\t// out\n        /* \"#utility.yul\":17253:17379   */\n    tag_351:\n        /* \"#utility.yul\":17290:17297   */\n      0x00\n        /* \"#utility.yul\":17330:17372   */\n      0xffffffffffffffffffffffffffffffffffffffff\n        /* \"#utility.yul\":17323:17328   */\n      dup3\n        /* \"#utility.yul\":17319:17373   */\n      and\n        /* \"#utility.yul\":17308:17373   */\n      swap1\n      pop\n        /* \"#utility.yul\":17253:17379   */\n      swap2\n      swap1\n      pop\n      jump\t// out\n        /* \"#utility.yul\":17385:17462   */\n    tag_280:\n        /* \"#utility.yul\":17422:17429   */\n      0x00\n        /* \"#utility.yul\":17451:17456   */\n      dup2\n        /* \"#utility.yul\":17440:17456   */\n      swap1\n      pop\n        /* \"#utility.yul\":17385:17462   */\n      swap2\n      swap1\n      pop\n      jump\t// out\n        /* \"#utility.yul\":17468:17648   */\n    tag_332:\n        /* \"#utility.yul\":17516:17593   */\n      0x4e487b7100000000000000000000000000000000000000000000000000000000\n        /* \"#utility.yul\":17513:17514   */\n      0x00\n        /* \"#utility.yul\":17506:17594   */\n      mstore\n        /* \"#utility.yul\":17613:17617   */\n      0x11\n        /* \"#utility.yul\":17610:17611   */\n      0x04\n        /* \"#utility.yul\":17603:17618   */\n      mstore\n        /* \"#utility.yul\":17637:17641   */\n      0x24\n        /* \"#utility.yul\":17634:17635   */\n      0x00\n        /* \"#utility.yul\":17627:17642   */\n      revert\n        /* \"#utility.yul\":17654:17834   */\n    tag_338:\n        /* \"#utility.yul\":17702:17779   */\n      0x4e487b7100000000000000000000000000000000000000000000000000000000\n        /* \"#utility.yul\":17699:17700   */\n      0x00\n        /* \"#utility.yul\":17692:17780   */\n      mstore\n        /* \"#utility.yul\":17799:17803   */\n      0x12\n        /* \"#utility.yul\":17796:17797   */\n      0x04\n        /* \"#utility.yul\":17789:17804   */\n      mstore\n        /* \"#utility.yul\":17823:17827   */\n      0x24\n        /* \"#utility.yul\":17820:17821   */\n      0x00\n        /* \"#utility.yul\":17813:17828   */\n      revert\n        /* \"#utility.yul\":17963:18080   */\n    tag_177:\n        /* \"#utility.yul\":18072:18073   */\n      0x00\n        /* \"#utility.yul\":18069:18070   */\n      dup1\n        /* \"#utility.yul\":18062:18074   */\n      revert\n        /* \"#utility.yul\":18086:18255   */\n    tag_201:\n        /* \"#utility.yul\":18226:18247   */\n      0x4d6f6e6579207769746864726177656e20746f00000000000000000000000000\n        /* \"#utility.yul\":18222:18223   */\n      0x00\n        /* \"#utility.yul\":18214:18220   */\n      dup3\n        /* \"#utility.yul\":18210:18224   */\n      add\n        /* \"#utility.yul\":18203:18248   */\n      mstore\n        /* \"#utility.yul\":18086:18255   */\n      pop\n      jump\t// out\n        /* \"#utility.yul\":18261:18428   */\n    tag_206:\n        /* \"#utility.yul\":18401:18420   */\n      0x456469746f72207570646174656420746f000000000000000000000000000000\n        /* \"#utility.yul\":18397:18398   */\n      0x00\n        /* \"#utility.yul\":18389:18395   */\n      dup3\n        /* \"#utility.yul\":18385:18399   */\n      add\n        /* \"#utility.yul\":18378:18421   */\n      mstore\n        /* \"#utility.yul\":18261:18428   */\n      pop\n      jump\t// out\n        /* \"#utility.yul\":18434:18662   */\n    tag_211:\n        /* \"#utility.yul\":18574:18608   */\n      0x4f6e6c7920616c6c6f7765642067617465732063616e20616363657373207468\n        /* \"#utility.yul\":18570:18571   */\n      0x00\n        /* \"#utility.yul\":18562:18568   */\n      dup3\n        /* \"#utility.yul\":18558:18572   */\n      add\n        /* \"#utility.yul\":18551:18609   */\n      mstore\n        /* \"#utility.yul\":18643:18654   */\n      0x6973206d6574686f640000000000000000000000000000000000000000000000\n        /* \"#utility.yul\":18638:18640   */\n      0x20\n        /* \"#utility.yul\":18630:18636   */\n      dup3\n        /* \"#utility.yul\":18626:18641   */\n      add\n        /* \"#utility.yul\":18619:18655   */\n      mstore\n        /* \"#utility.yul\":18434:18662   */\n      pop\n      jump\t// out\n        /* \"#utility.yul\":18668:18850   */\n    tag_216:\n        /* \"#utility.yul\":18808:18842   */\n      0x596f7520646f6e2774206861766520616e79206d6f6e657920696e2068657265\n        /* \"#utility.yul\":18804:18805   */\n      0x00\n        /* \"#utility.yul\":18796:18802   */\n      dup3\n        /* \"#utility.yul\":18792:18806   */\n      add\n        /* \"#utility.yul\":18785:18843   */\n      mstore\n        /* \"#utility.yul\":18668:18850   */\n      pop\n      jump\t// out\n        /* \"#utility.yul\":18856:19030   */\n    tag_221:\n        /* \"#utility.yul\":18996:19022   */\n      0x4d696e696d756d20312045746865722052657175697265640000000000000000\n        /* \"#utility.yul\":18992:18993   */\n      0x00\n        /* \"#utility.yul\":18984:18990   */\n      dup3\n        /* \"#utility.yul\":18980:18994   */\n      add\n        /* \"#utility.yul\":18973:19023   */\n      mstore\n        /* \"#utility.yul\":18856:19030   */\n      pop\n      jump\t// out\n        /* \"#utility.yul\":19036:19259   */\n    tag_226:\n        /* \"#utility.yul\":19176:19210   */\n      0x596f7520646f6e27742068617665206e6f2070656e64696e6720776974686472\n        /* \"#utility.yul\":19172:19173   */\n      0x00\n        /* \"#utility.yul\":19164:19170   */\n      dup3\n        /* \"#utility.yul\":19160:19174   */\n      add\n        /* \"#utility.yul\":19153:19211   */\n      mstore\n        /* \"#utility.yul\":19245:19251   */\n      0x61776c7300000000000000000000000000000000000000000000000000000000\n        /* \"#utility.yul\":19240:19242   */\n      0x20\n        /* \"#utility.yul\":19232:19238   */\n      dup3\n        /* \"#utility.yul\":19228:19243   */\n      add\n        /* \"#utility.yul\":19221:19252   */\n      mstore\n        /* \"#utility.yul\":19036:19259   */\n      pop\n      jump\t// out\n        /* \"#utility.yul\":19265:19486   */\n    tag_231:\n        /* \"#utility.yul\":19405:19439   */\n      0x4f6e6c7920656469746f722063616e206163636573732074686973206d657468\n        /* \"#utility.yul\":19401:19402   */\n      0x00\n        /* \"#utility.yul\":19393:19399   */\n      dup3\n        /* \"#utility.yul\":19389:19403   */\n      add\n        /* \"#utility.yul\":19382:19440   */\n      mstore\n        /* \"#utility.yul\":19474:19478   */\n      0x6f64000000000000000000000000000000000000000000000000000000000000\n        /* \"#utility.yul\":19469:19471   */\n      0x20\n        /* \"#utility.yul\":19461:19467   */\n      dup3\n        /* \"#utility.yul\":19457:19472   */\n      add\n        /* \"#utility.yul\":19450:19479   */\n      mstore\n        /* \"#utility.yul\":19265:19486   */\n      pop\n      jump\t// out\n        /* \"#utility.yul\":19492:19648   */\n    tag_236:\n        /* \"#utility.yul\":19632:19640   */\n      0x7374616b65640000000000000000000000000000000000000000000000000000\n        /* \"#utility.yul\":19628:19629   */\n      0x00\n        /* \"#utility.yul\":19620:19626   */\n      dup3\n        /* \"#utility.yul\":19616:19630   */\n      add\n        /* \"#utility.yul\":19609:19641   */\n      mstore\n        /* \"#utility.yul\":19492:19648   */\n      pop\n      jump\t// out\n        /* \"#utility.yul\":19654:19822   */\n    tag_241:\n        /* \"#utility.yul\":19794:19814   */\n      0x537562737472616374696f6e206661696c640000000000000000000000000000\n        /* \"#utility.yul\":19790:19791   */\n      0x00\n        /* \"#utility.yul\":19782:19788   */\n      dup3\n        /* \"#utility.yul\":19778:19792   */\n      add\n        /* \"#utility.yul\":19771:19815   */\n      mstore\n        /* \"#utility.yul\":19654:19822   */\n      pop\n      jump\t// out\n        /* \"#utility.yul\":19828:19993   */\n    tag_246:\n        /* \"#utility.yul\":19968:19985   */\n      0x4164646974696f6e206661696c65640000000000000000000000000000000000\n        /* \"#utility.yul\":19964:19965   */\n      0x00\n        /* \"#utility.yul\":19956:19962   */\n      dup3\n        /* \"#utility.yul\":19952:19966   */\n      add\n        /* \"#utility.yul\":19945:19986   */\n      mstore\n        /* \"#utility.yul\":19828:19993   */\n      pop\n      jump\t// out\n        /* \"#utility.yul\":19999:20222   */\n    tag_251:\n        /* \"#utility.yul\":20139:20173   */\n      0x596f752073686f756c642061746c65617374207374616b6520666f722061206d\n        /* \"#utility.yul\":20135:20136   */\n      0x00\n        /* \"#utility.yul\":20127:20133   */\n      dup3\n        /* \"#utility.yul\":20123:20137   */\n      add\n        /* \"#utility.yul\":20116:20174   */\n      mstore\n        /* \"#utility.yul\":20208:20214   */\n      0x6f6e747900000000000000000000000000000000000000000000000000000000\n        /* \"#utility.yul\":20203:20205   */\n      0x20\n        /* \"#utility.yul\":20195:20201   */\n      dup3\n        /* \"#utility.yul\":20191:20206   */\n      add\n        /* \"#utility.yul\":20184:20215   */\n      mstore\n        /* \"#utility.yul\":19999:20222   */\n      pop\n      jump\t// out\n        /* \"#utility.yul\":20228:20459   */\n    tag_256:\n        /* \"#utility.yul\":20368:20402   */\n      0x4f6e6c7920696e697469616c2075706c6f616465722063616e20616363657373\n        /* \"#utility.yul\":20364:20365   */\n      0x00\n        /* \"#utility.yul\":20356:20362   */\n      dup3\n        /* \"#utility.yul\":20352:20366   */\n      add\n        /* \"#utility.yul\":20345:20403   */\n      mstore\n        /* \"#utility.yul\":20437:20451   */\n      0x2074686973206d6574686f640000000000000000000000000000000000000000\n        /* \"#utility.yul\":20432:20434   */\n      0x20\n        /* \"#utility.yul\":20424:20430   */\n      dup3\n        /* \"#utility.yul\":20420:20435   */\n      add\n        /* \"#utility.yul\":20413:20452   */\n      mstore\n        /* \"#utility.yul\":20228:20459   */\n      pop\n      jump\t// out\n        /* \"#utility.yul\":20465:20629   */\n    tag_261:\n        /* \"#utility.yul\":20605:20621   */\n      0x4469766973696f6e206661696c64000000000000000000000000000000000000\n        /* \"#utility.yul\":20601:20602   */\n      0x00\n        /* \"#utility.yul\":20593:20599   */\n      dup3\n        /* \"#utility.yul\":20589:20603   */\n      add\n        /* \"#utility.yul\":20582:20622   */\n      mstore\n        /* \"#utility.yul\":20465:20629   */\n      pop\n      jump\t// out\n        /* \"#utility.yul\":20635:20861   */\n    tag_266:\n        /* \"#utility.yul\":20775:20809   */\n      0x446f65736e2774206861766520656e6f7567682062616c616e636520696e2074\n        /* \"#utility.yul\":20771:20772   */\n      0x00\n        /* \"#utility.yul\":20763:20769   */\n      dup3\n        /* \"#utility.yul\":20759:20773   */\n      add\n        /* \"#utility.yul\":20752:20810   */\n      mstore\n        /* \"#utility.yul\":20844:20853   */\n      0x68652062616e6b00000000000000000000000000000000000000000000000000\n        /* \"#utility.yul\":20839:20841   */\n      0x20\n        /* \"#utility.yul\":20831:20837   */\n      dup3\n        /* \"#utility.yul\":20827:20842   */\n      add\n        /* \"#utility.yul\":20820:20854   */\n      mstore\n        /* \"#utility.yul\":20635:20861   */\n      pop\n      jump\t// out\n        /* \"#utility.yul\":20867:21104   */\n    tag_271:\n        /* \"#utility.yul\":21007:21041   */\n      0x536f72727920776520646f6e2774206861766520656e6f756768206d6f6e6579\n        /* \"#utility.yul\":21003:21004   */\n      0x00\n        /* \"#utility.yul\":20995:21001   */\n      dup3\n        /* \"#utility.yul\":20991:21005   */\n      add\n        /* \"#utility.yul\":20984:21042   */\n      mstore\n        /* \"#utility.yul\":21076:21096   */\n      0x20736f20636f6d656261636b206c617465720000000000000000000000000000\n        /* \"#utility.yul\":21071:21073   */\n      0x20\n        /* \"#utility.yul\":21063:21069   */\n      dup3\n        /* \"#utility.yul\":21059:21074   */\n      add\n        /* \"#utility.yul\":21052:21097   */\n      mstore\n        /* \"#utility.yul\":20867:21104   */\n      pop\n      jump\t// out\n        /* \"#utility.yul\":21110:21280   */\n    tag_276:\n        /* \"#utility.yul\":21250:21272   */\n      0x4d756c7469706c69636174696f6e206661696c64000000000000000000000000\n        /* \"#utility.yul\":21246:21247   */\n      0x00\n        /* \"#utility.yul\":21238:21244   */\n      dup3\n        /* \"#utility.yul\":21234:21248   */\n      add\n        /* \"#utility.yul\":21227:21273   */\n      mstore\n        /* \"#utility.yul\":21110:21280   */\n      pop\n      jump\t// out\n        /* \"#utility.yul\":21286:21408   */\n    tag_169:\n        /* \"#utility.yul\":21359:21383   */\n      tag_379\n        /* \"#utility.yul\":21377:21382   */\n      dup2\n        /* \"#utility.yul\":21359:21383   */\n      tag_191\n      jump\t// in\n    tag_379:\n        /* \"#utility.yul\":21352:21357   */\n      dup2\n        /* \"#utility.yul\":21349:21384   */\n      eq\n        /* \"#utility.yul\":21339:21402   */\n      tag_380\n      jumpi\n        /* \"#utility.yul\":21398:21399   */\n      0x00\n        /* \"#utility.yul\":21395:21396   */\n      dup1\n        /* \"#utility.yul\":21388:21400   */\n      revert\n        /* \"#utility.yul\":21339:21402   */\n    tag_380:\n        /* \"#utility.yul\":21286:21408   */\n      pop\n      jump\t// out\n        /* \"#utility.yul\":21414:21536   */\n    tag_173:\n        /* \"#utility.yul\":21487:21511   */\n      tag_382\n        /* \"#utility.yul\":21505:21510   */\n      dup2\n        /* \"#utility.yul\":21487:21511   */\n      tag_280\n      jump\t// in\n    tag_382:\n        /* \"#utility.yul\":21480:21485   */\n      dup2\n        /* \"#utility.yul\":21477:21512   */\n      eq\n        /* \"#utility.yul\":21467:21530   */\n      tag_383\n      jumpi\n        /* \"#utility.yul\":21526:21527   */\n      0x00\n        /* \"#utility.yul\":21523:21524   */\n      dup1\n        /* \"#utility.yul\":21516:21528   */\n      revert\n        /* \"#utility.yul\":21467:21530   */\n    tag_383:\n        /* \"#utility.yul\":21414:21536   */\n      pop\n      jump\t// out\n\n    auxdata: 0xa2646970667358221220a7abb5fe163fea549dd6fa60af430a81fbc5266e95ca27aa9530ad8eaf28d5c264736f6c63430008070033\n}\n",
				"bytecode": {
					"linkReferences": {},
					"object": "6080604052670de0b6b3a76400006000553480156200001d57600080fd5b5033600160006101000a81548173ffffffffffffffffffffffffffffffffffffffff021916908373ffffffffffffffffffffffffffffffffffffffff1602179055507ff67e7992d539193fc243c42fe89f8fab49013e8e4fb18cfa891dc51adcaccc8033604051620000909190620000d6565b60405180910390a162000176565b620000a98162000119565b82525050565b6000620000be60148362000108565b9150620000cb826200014d565b602082019050919050565b60006040820190508181036000830152620000f181620000af565b90506200010260208301846200009e565b92915050565b600082825260208201905092915050565b600062000126826200012d565b9050919050565b600073ffffffffffffffffffffffffffffffffffffffff82169050919050565b7f4c656e64696e6720706f6f6c2063726561746564000000000000000000000000600082015250565b6119f880620001866000396000f3fe6080604052600436106100c65760003560e01c80636e1dc66e1161007f578063aeae177c11610059578063aeae177c14610229578063c02b209214610266578063d0e30db0146102a3578063f9931855146102ad576100cd565b80636e1dc66e146101965780638da5cb5b146101d3578063a464d265146101fe576100cd565b8063166d7b48146100cf5780631e23271d146100f85780633607999b14610121578063568523911461013d578063650fad76146101545780636e0e0da21461017f576100cd565b366100cd57005b005b3480156100db57600080fd5b506100f660048036038101906100f19190610ea8565b6102ea565b005b34801561010457600080fd5b5061011f600480360381019061011a9190610ea8565b6103f5565b005b61013b60048036038101906101369190610ed5565b6104e0565b005b34801561014957600080fd5b5061015261069c565b005b34801561016057600080fd5b506101696107f1565b60405161017691906113fc565b60405180910390f35b34801561018b57600080fd5b506101946107f7565b005b3480156101a257600080fd5b506101bd60048036038101906101b89190610ea8565b610ae0565b6040516101ca91906113fc565b60405180910390f35b3480156101df57600080fd5b506101e8610af8565b6040516101f5919061119c565b60405180910390f35b34801561020a57600080fd5b50610213610b1e565b6040516102209190611181565b60405180910390f35b34801561023557600080fd5b50610250600480360381019061024b9190610ea8565b610b44565b60405161025d91906113fc565b60405180910390f35b34801561027257600080fd5b5061028d60048036038101906102889190610ea8565b610b5c565b60405161029a91906111b7565b60405180910390f35b6102ab610b7c565b005b3480156102b957600080fd5b506102d460048036038101906102cf9190610ea8565b610cee565b6040516102e191906113fc565b60405180910390f35b600160009054906101000a900473ffffffffffffffffffffffffffffffffffffffff1673ffffffffffffffffffffffffffffffffffffffff163373ffffffffffffffffffffffffffffffffffffffff161461037a576040517f08c379a00000000000000000000000000000000000000000000000000000000081526004016103719061135c565b60405180910390fd5b80600360006101000a81548173ffffffffffffffffffffffffffffffffffffffff021916908373ffffffffffffffffffffffffffffffffffffffff1602179055507ff67e7992d539193fc243c42fe89f8fab49013e8e4fb18cfa891dc51adcaccc80816040516103ea9190611200565b60405180910390a150565b600360009054906101000a900473ffffffffffffffffffffffffffffffffffffffff1673ffffffffffffffffffffffffffffffffffffffff163373ffffffffffffffffffffffffffffffffffffffff1614610485576040517f08c379a000000000000000000000000000000000000000000000000000000000815260040161047c906112ae565b60405180910390fd5b6001600860008373ffffffffffffffffffffffffffffffffffffffff1673ffffffffffffffffffffffffffffffffffffffff16815260200190815260200160002060006101000a81548160ff02191690831515021790555050565b600860003373ffffffffffffffffffffffffffffffffffffffff1673ffffffffffffffffffffffffffffffffffffffff16815260200190815260200160002060009054906101000a900460ff1661056c576040517f08c379a00000000000000000000000000000000000000000000000000000000081526004016105639061122e565b60405180910390fd5b6002548211156105b1576040517f08c379a00000000000000000000000000000000000000000000000000000000081526004016105a89061139c565b60405180910390fd5b6105c682600254610d0690919063ffffffff16565b60028190555061061e82600760008473ffffffffffffffffffffffffffffffffffffffff1673ffffffffffffffffffffffffffffffffffffffff16815260200190815260200160002054610d5f90919063ffffffff16565b600760008373ffffffffffffffffffffffffffffffffffffffff1673ffffffffffffffffffffffffffffffffffffffff168152602001908152602001600020819055507ff67e7992d539193fc243c42fe89f8fab49013e8e4fb18cfa891dc51adcaccc808160405161069091906111d2565b60405180910390a15050565b6000600760003373ffffffffffffffffffffffffffffffffffffffff1673ffffffffffffffffffffffffffffffffffffffff168152602001908152602001600020541161071e576040517f08c379a00000000000000000000000000000000000000000000000000000000081526004016107159061128e565b60405180910390fd5b6000600760003373ffffffffffffffffffffffffffffffffffffffff1673ffffffffffffffffffffffffffffffffffffffff1681526020019081526020016000205490506000600760003373ffffffffffffffffffffffffffffffffffffffff1673ffffffffffffffffffffffffffffffffffffffff168152602001908152602001600020819055503373ffffffffffffffffffffffffffffffffffffffff166108fc829081150290604051600060405180830381858888f193505050501580156107ed573d6000803e3d6000fd5b5050565b60005481565b6000600660003373ffffffffffffffffffffffffffffffffffffffff1673ffffffffffffffffffffffffffffffffffffffff1681526020019081526020016000205411610879576040517f08c379a00000000000000000000000000000000000000000000000000000000081526004016108709061124e565b60405180910390fd5b60006108db6201518042600560003373ffffffffffffffffffffffffffffffffffffffff1673ffffffffffffffffffffffffffffffffffffffff168152602001908152602001600020546108cd9190611509565b610db890919063ffffffff16565b905062278d008111610922576040517f08c379a00000000000000000000000000000000000000000000000000000000081526004016109199061133c565b60405180910390fd5b600061099c606461098e600660003373ffffffffffffffffffffffffffffffffffffffff1673ffffffffffffffffffffffffffffffffffffffff16815260200190815260200160002054610980600587610e1090919063ffffffff16565b610e1090919063ffffffff16565b610db890919063ffffffff16565b600660003373ffffffffffffffffffffffffffffffffffffffff1673ffffffffffffffffffffffffffffffffffffffff168152602001908152602001600020546109e69190611428565b90506002548110610a2c576040517f08c379a0000000000000000000000000000000000000000000000000000000008152600401610a23906113bc565b60405180910390fd5b610a4181600254610d0690919063ffffffff16565b600281905550610a9981600760003373ffffffffffffffffffffffffffffffffffffffff1673ffffffffffffffffffffffffffffffffffffffff16815260200190815260200160002054610d5f90919063ffffffff16565b600760003373ffffffffffffffffffffffffffffffffffffffff1673ffffffffffffffffffffffffffffffffffffffff168152602001908152602001600020819055505050565b60056020528060005260406000206000915090505481565b600160009054906101000a900473ffffffffffffffffffffffffffffffffffffffff1681565b600360009054906101000a900473ffffffffffffffffffffffffffffffffffffffff1681565b60076020528060005260406000206000915090505481565b60086020528060005260406000206000915054906101000a900460ff1681565b600054341015610bc1576040517f08c379a0000000000000000000000000000000000000000000000000000000008152600401610bb89061126e565b60405180910390fd5b42600560003373ffffffffffffffffffffffffffffffffffffffff1673ffffffffffffffffffffffffffffffffffffffff16815260200190815260200160002081905550610c5734600660003373ffffffffffffffffffffffffffffffffffffffff1673ffffffffffffffffffffffffffffffffffffffff16815260200190815260200160002054610d5f90919063ffffffff16565b600660003373ffffffffffffffffffffffffffffffffffffffff1673ffffffffffffffffffffffffffffffffffffffff16815260200190815260200160002081905550610caf34600254610d5f90919063ffffffff16565b6002819055507ff67e7992d539193fc243c42fe89f8fab49013e8e4fb18cfa891dc51adcaccc8033604051610ce491906112ce565b60405180910390a1565b60066020528060005260406000206000915090505481565b600082821115610d4b576040517f08c379a0000000000000000000000000000000000000000000000000000000008152600401610d42906112fc565b60405180910390fd5b8183610d579190611509565b905092915050565b60008183610d6d9190611428565b905082811015610db2576040517f08c379a0000000000000000000000000000000000000000000000000000000008152600401610da99061131c565b60405180910390fd5b92915050565b6000808211610dfc576040517f08c379a0000000000000000000000000000000000000000000000000000000008152600401610df39061137c565b60405180910390fd5b8183610e08919061147e565b905092915050565b60008183610e1e91906114af565b90506000831480610e395750818382610e37919061147e565b145b610e78576040517f08c379a0000000000000000000000000000000000000000000000000000000008152600401610e6f906113dc565b60405180910390fd5b92915050565b600081359050610e8d81611994565b92915050565b600081359050610ea2816119ab565b92915050565b600060208284031215610ebe57610ebd6115f5565b5b6000610ecc84828501610e7e565b91505092915050565b60008060408385031215610eec57610eeb6115f5565b5b6000610efa85828601610e93565b9250506020610f0b85828601610e7e565b9150509250929050565b610f1e8161154f565b82525050565b610f2d8161153d565b82525050565b610f3c81611561565b82525050565b6000610f4f601383611417565b9150610f5a826115fa565b602082019050919050565b6000610f72601183611417565b9150610f7d82611623565b602082019050919050565b6000610f95602983611417565b9150610fa08261164c565b604082019050919050565b6000610fb8602083611417565b9150610fc38261169b565b602082019050919050565b6000610fdb601883611417565b9150610fe6826116c4565b602082019050919050565b6000610ffe602483611417565b9150611009826116ed565b604082019050919050565b6000611021602283611417565b915061102c8261173c565b604082019050919050565b6000611044600683611417565b915061104f8261178b565b602082019050919050565b6000611067601283611417565b9150611072826117b4565b602082019050919050565b600061108a600f83611417565b9150611095826117dd565b602082019050919050565b60006110ad602483611417565b91506110b882611806565b604082019050919050565b60006110d0602c83611417565b91506110db82611855565b604082019050919050565b60006110f3600e83611417565b91506110fe826118a4565b602082019050919050565b6000611116602783611417565b9150611121826118cd565b604082019050919050565b6000611139603283611417565b91506111448261191c565b604082019050919050565b600061115c601483611417565b91506111678261196b565b602082019050919050565b61117b8161158d565b82525050565b60006020820190506111966000830184610f24565b92915050565b60006020820190506111b16000830184610f15565b92915050565b60006020820190506111cc6000830184610f33565b92915050565b600060408201905081810360008301526111eb81610f42565b90506111fa6020830184610f24565b92915050565b6000604082019050818103600083015261121981610f65565b90506112286020830184610f24565b92915050565b6000602082019050818103600083015261124781610f88565b9050919050565b6000602082019050818103600083015261126781610fab565b9050919050565b6000602082019050818103600083015261128781610fce565b9050919050565b600060208201905081810360008301526112a781610ff1565b9050919050565b600060208201905081810360008301526112c781611014565b9050919050565b600060408201905081810360008301526112e781611037565b90506112f66020830184610f24565b92915050565b600060208201905081810360008301526113158161105a565b9050919050565b600060208201905081810360008301526113358161107d565b9050919050565b60006020820190508181036000830152611355816110a0565b9050919050565b60006020820190508181036000830152611375816110c3565b9050919050565b60006020820190508181036000830152611395816110e6565b9050919050565b600060208201905081810360008301526113b581611109565b9050919050565b600060208201905081810360008301526113d58161112c565b9050919050565b600060208201905081810360008301526113f58161114f565b9050919050565b60006020820190506114116000830184611172565b92915050565b600082825260208201905092915050565b60006114338261158d565b915061143e8361158d565b9250827fffffffffffffffffffffffffffffffffffffffffffffffffffffffffffffffff0382111561147357611472611597565b5b828201905092915050565b60006114898261158d565b91506114948361158d565b9250826114a4576114a36115c6565b5b828204905092915050565b60006114ba8261158d565b91506114c58361158d565b9250817fffffffffffffffffffffffffffffffffffffffffffffffffffffffffffffffff04831182151516156114fe576114fd611597565b5b828202905092915050565b60006115148261158d565b915061151f8361158d565b92508282101561153257611531611597565b5b828203905092915050565b60006115488261156d565b9050919050565b600061155a8261156d565b9050919050565b60008115159050919050565b600073ffffffffffffffffffffffffffffffffffffffff82169050919050565b6000819050919050565b7f4e487b7100000000000000000000000000000000000000000000000000000000600052601160045260246000fd5b7f4e487b7100000000000000000000000000000000000000000000000000000000600052601260045260246000fd5b600080fd5b7f4d6f6e6579207769746864726177656e20746f00000000000000000000000000600082015250565b7f456469746f72207570646174656420746f000000000000000000000000000000600082015250565b7f4f6e6c7920616c6c6f7765642067617465732063616e2061636365737320746860008201527f6973206d6574686f640000000000000000000000000000000000000000000000602082015250565b7f596f7520646f6e2774206861766520616e79206d6f6e657920696e2068657265600082015250565b7f4d696e696d756d20312045746865722052657175697265640000000000000000600082015250565b7f596f7520646f6e27742068617665206e6f2070656e64696e672077697468647260008201527f61776c7300000000000000000000000000000000000000000000000000000000602082015250565b7f4f6e6c7920656469746f722063616e206163636573732074686973206d65746860008201527f6f64000000000000000000000000000000000000000000000000000000000000602082015250565b7f7374616b65640000000000000000000000000000000000000000000000000000600082015250565b7f537562737472616374696f6e206661696c640000000000000000000000000000600082015250565b7f4164646974696f6e206661696c65640000000000000000000000000000000000600082015250565b7f596f752073686f756c642061746c65617374207374616b6520666f722061206d60008201527f6f6e747900000000000000000000000000000000000000000000000000000000602082015250565b7f4f6e6c7920696e697469616c2075706c6f616465722063616e2061636365737360008201527f2074686973206d6574686f640000000000000000000000000000000000000000602082015250565b7f4469766973696f6e206661696c64000000000000000000000000000000000000600082015250565b7f446f65736e2774206861766520656e6f7567682062616c616e636520696e207460008201527f68652062616e6b00000000000000000000000000000000000000000000000000602082015250565b7f536f72727920776520646f6e2774206861766520656e6f756768206d6f6e657960008201527f20736f20636f6d656261636b206c617465720000000000000000000000000000602082015250565b7f4d756c7469706c69636174696f6e206661696c64000000000000000000000000600082015250565b61199d8161153d565b81146119a857600080fd5b50565b6119b48161158d565b81146119bf57600080fd5b5056fea2646970667358221220a7abb5fe163fea549dd6fa60af430a81fbc5266e95ca27aa9530ad8eaf28d5c264736f6c63430008070033",
					"opcodes": "PUSH1 0x80 PUSH1 0x40 MSTORE PUSH8 0xDE0B6B3A7640000 PUSH1 0x0 SSTORE CALLVALUE DUP1 ISZERO PUSH3 0x1D JUMPI PUSH1 0x0 DUP1 REVERT JUMPDEST POP CALLER PUSH1 0x1 PUSH1 0x0 PUSH2 0x100 EXP DUP2 SLOAD DUP2 PUSH20 0xFFFFFFFFFFFFFFFFFFFFFFFFFFFFFFFFFFFFFFFF MUL NOT AND SWAP1 DUP4 PUSH20 0xFFFFFFFFFFFFFFFFFFFFFFFFFFFFFFFFFFFFFFFF AND MUL OR SWAP1 SSTORE POP PUSH32 0xF67E7992D539193FC243C42FE89F8FAB49013E8E4FB18CFA891DC51ADCACCC80 CALLER PUSH1 0x40 MLOAD PUSH3 0x90 SWAP2 SWAP1 PUSH3 0xD6 JUMP JUMPDEST PUSH1 0x40 MLOAD DUP1 SWAP2 SUB SWAP1 LOG1 PUSH3 0x176 JUMP JUMPDEST PUSH3 0xA9 DUP2 PUSH3 0x119 JUMP JUMPDEST DUP3 MSTORE POP POP JUMP JUMPDEST PUSH1 0x0 PUSH3 0xBE PUSH1 0x14 DUP4 PUSH3 0x108 JUMP JUMPDEST SWAP2 POP PUSH3 0xCB DUP3 PUSH3 0x14D JUMP JUMPDEST PUSH1 0x20 DUP3 ADD SWAP1 POP SWAP2 SWAP1 POP JUMP JUMPDEST PUSH1 0x0 PUSH1 0x40 DUP3 ADD SWAP1 POP DUP2 DUP2 SUB PUSH1 0x0 DUP4 ADD MSTORE PUSH3 0xF1 DUP2 PUSH3 0xAF JUMP JUMPDEST SWAP1 POP PUSH3 0x102 PUSH1 0x20 DUP4 ADD DUP5 PUSH3 0x9E JUMP JUMPDEST SWAP3 SWAP2 POP POP JUMP JUMPDEST PUSH1 0x0 DUP3 DUP3 MSTORE PUSH1 0x20 DUP3 ADD SWAP1 POP SWAP3 SWAP2 POP POP JUMP JUMPDEST PUSH1 0x0 PUSH3 0x126 DUP3 PUSH3 0x12D JUMP JUMPDEST SWAP1 POP SWAP2 SWAP1 POP JUMP JUMPDEST PUSH1 0x0 PUSH20 0xFFFFFFFFFFFFFFFFFFFFFFFFFFFFFFFFFFFFFFFF DUP3 AND SWAP1 POP SWAP2 SWAP1 POP JUMP JUMPDEST PUSH32 0x4C656E64696E6720706F6F6C2063726561746564000000000000000000000000 PUSH1 0x0 DUP3 ADD MSTORE POP JUMP JUMPDEST PUSH2 0x19F8 DUP1 PUSH3 0x186 PUSH1 0x0 CODECOPY PUSH1 0x0 RETURN INVALID PUSH1 0x80 PUSH1 0x40 MSTORE PUSH1 0x4 CALLDATASIZE LT PUSH2 0xC6 JUMPI PUSH1 0x0 CALLDATALOAD PUSH1 0xE0 SHR DUP1 PUSH4 0x6E1DC66E GT PUSH2 0x7F JUMPI DUP1 PUSH4 0xAEAE177C GT PUSH2 0x59 JUMPI DUP1 PUSH4 0xAEAE177C EQ PUSH2 0x229 JUMPI DUP1 PUSH4 0xC02B2092 EQ PUSH2 0x266 JUMPI DUP1 PUSH4 0xD0E30DB0 EQ PUSH2 0x2A3 JUMPI DUP1 PUSH4 0xF9931855 EQ PUSH2 0x2AD JUMPI PUSH2 0xCD JUMP JUMPDEST DUP1 PUSH4 0x6E1DC66E EQ PUSH2 0x196 JUMPI DUP1 PUSH4 0x8DA5CB5B EQ PUSH2 0x1D3 JUMPI DUP1 PUSH4 0xA464D265 EQ PUSH2 0x1FE JUMPI PUSH2 0xCD JUMP JUMPDEST DUP1 PUSH4 0x166D7B48 EQ PUSH2 0xCF JUMPI DUP1 PUSH4 0x1E23271D EQ PUSH2 0xF8 JUMPI DUP1 PUSH4 0x3607999B EQ PUSH2 0x121 JUMPI DUP1 PUSH4 0x56852391 EQ PUSH2 0x13D JUMPI DUP1 PUSH4 0x650FAD76 EQ PUSH2 0x154 JUMPI DUP1 PUSH4 0x6E0E0DA2 EQ PUSH2 0x17F JUMPI PUSH2 0xCD JUMP JUMPDEST CALLDATASIZE PUSH2 0xCD JUMPI STOP JUMPDEST STOP JUMPDEST CALLVALUE DUP1 ISZERO PUSH2 0xDB JUMPI PUSH1 0x0 DUP1 REVERT JUMPDEST POP PUSH2 0xF6 PUSH1 0x4 DUP1 CALLDATASIZE SUB DUP2 ADD SWAP1 PUSH2 0xF1 SWAP2 SWAP1 PUSH2 0xEA8 JUMP JUMPDEST PUSH2 0x2EA JUMP JUMPDEST STOP JUMPDEST CALLVALUE DUP1 ISZERO PUSH2 0x104 JUMPI PUSH1 0x0 DUP1 REVERT JUMPDEST POP PUSH2 0x11F PUSH1 0x4 DUP1 CALLDATASIZE SUB DUP2 ADD SWAP1 PUSH2 0x11A SWAP2 SWAP1 PUSH2 0xEA8 JUMP JUMPDEST PUSH2 0x3F5 JUMP JUMPDEST STOP JUMPDEST PUSH2 0x13B PUSH1 0x4 DUP1 CALLDATASIZE SUB DUP2 ADD SWAP1 PUSH2 0x136 SWAP2 SWAP1 PUSH2 0xED5 JUMP JUMPDEST PUSH2 0x4E0 JUMP JUMPDEST STOP JUMPDEST CALLVALUE DUP1 ISZERO PUSH2 0x149 JUMPI PUSH1 0x0 DUP1 REVERT JUMPDEST POP PUSH2 0x152 PUSH2 0x69C JUMP JUMPDEST STOP JUMPDEST CALLVALUE DUP1 ISZERO PUSH2 0x160 JUMPI PUSH1 0x0 DUP1 REVERT JUMPDEST POP PUSH2 0x169 PUSH2 0x7F1 JUMP JUMPDEST PUSH1 0x40 MLOAD PUSH2 0x176 SWAP2 SWAP1 PUSH2 0x13FC JUMP JUMPDEST PUSH1 0x40 MLOAD DUP1 SWAP2 SUB SWAP1 RETURN JUMPDEST CALLVALUE DUP1 ISZERO PUSH2 0x18B JUMPI PUSH1 0x0 DUP1 REVERT JUMPDEST POP PUSH2 0x194 PUSH2 0x7F7 JUMP JUMPDEST STOP JUMPDEST CALLVALUE DUP1 ISZERO PUSH2 0x1A2 JUMPI PUSH1 0x0 DUP1 REVERT JUMPDEST POP PUSH2 0x1BD PUSH1 0x4 DUP1 CALLDATASIZE SUB DUP2 ADD SWAP1 PUSH2 0x1B8 SWAP2 SWAP1 PUSH2 0xEA8 JUMP JUMPDEST PUSH2 0xAE0 JUMP JUMPDEST PUSH1 0x40 MLOAD PUSH2 0x1CA SWAP2 SWAP1 PUSH2 0x13FC JUMP JUMPDEST PUSH1 0x40 MLOAD DUP1 SWAP2 SUB SWAP1 RETURN JUMPDEST CALLVALUE DUP1 ISZERO PUSH2 0x1DF JUMPI PUSH1 0x0 DUP1 REVERT JUMPDEST POP PUSH2 0x1E8 PUSH2 0xAF8 JUMP JUMPDEST PUSH1 0x40 MLOAD PUSH2 0x1F5 SWAP2 SWAP1 PUSH2 0x119C JUMP JUMPDEST PUSH1 0x40 MLOAD DUP1 SWAP2 SUB SWAP1 RETURN JUMPDEST CALLVALUE DUP1 ISZERO PUSH2 0x20A JUMPI PUSH1 0x0 DUP1 REVERT JUMPDEST POP PUSH2 0x213 PUSH2 0xB1E JUMP JUMPDEST PUSH1 0x40 MLOAD PUSH2 0x220 SWAP2 SWAP1 PUSH2 0x1181 JUMP JUMPDEST PUSH1 0x40 MLOAD DUP1 SWAP2 SUB SWAP1 RETURN JUMPDEST CALLVALUE DUP1 ISZERO PUSH2 0x235 JUMPI PUSH1 0x0 DUP1 REVERT JUMPDEST POP PUSH2 0x250 PUSH1 0x4 DUP1 CALLDATASIZE SUB DUP2 ADD SWAP1 PUSH2 0x24B SWAP2 SWAP1 PUSH2 0xEA8 JUMP JUMPDEST PUSH2 0xB44 JUMP JUMPDEST PUSH1 0x40 MLOAD PUSH2 0x25D SWAP2 SWAP1 PUSH2 0x13FC JUMP JUMPDEST PUSH1 0x40 MLOAD DUP1 SWAP2 SUB SWAP1 RETURN JUMPDEST CALLVALUE DUP1 ISZERO PUSH2 0x272 JUMPI PUSH1 0x0 DUP1 REVERT JUMPDEST POP PUSH2 0x28D PUSH1 0x4 DUP1 CALLDATASIZE SUB DUP2 ADD SWAP1 PUSH2 0x288 SWAP2 SWAP1 PUSH2 0xEA8 JUMP JUMPDEST PUSH2 0xB5C JUMP JUMPDEST PUSH1 0x40 MLOAD PUSH2 0x29A SWAP2 SWAP1 PUSH2 0x11B7 JUMP JUMPDEST PUSH1 0x40 MLOAD DUP1 SWAP2 SUB SWAP1 RETURN JUMPDEST PUSH2 0x2AB PUSH2 0xB7C JUMP JUMPDEST STOP JUMPDEST CALLVALUE DUP1 ISZERO PUSH2 0x2B9 JUMPI PUSH1 0x0 DUP1 REVERT JUMPDEST POP PUSH2 0x2D4 PUSH1 0x4 DUP1 CALLDATASIZE SUB DUP2 ADD SWAP1 PUSH2 0x2CF SWAP2 SWAP1 PUSH2 0xEA8 JUMP JUMPDEST PUSH2 0xCEE JUMP JUMPDEST PUSH1 0x40 MLOAD PUSH2 0x2E1 SWAP2 SWAP1 PUSH2 0x13FC JUMP JUMPDEST PUSH1 0x40 MLOAD DUP1 SWAP2 SUB SWAP1 RETURN JUMPDEST PUSH1 0x1 PUSH1 0x0 SWAP1 SLOAD SWAP1 PUSH2 0x100 EXP SWAP1 DIV PUSH20 0xFFFFFFFFFFFFFFFFFFFFFFFFFFFFFFFFFFFFFFFF AND PUSH20 0xFFFFFFFFFFFFFFFFFFFFFFFFFFFFFFFFFFFFFFFF AND CALLER PUSH20 0xFFFFFFFFFFFFFFFFFFFFFFFFFFFFFFFFFFFFFFFF AND EQ PUSH2 0x37A JUMPI PUSH1 0x40 MLOAD PUSH32 0x8C379A000000000000000000000000000000000000000000000000000000000 DUP2 MSTORE PUSH1 0x4 ADD PUSH2 0x371 SWAP1 PUSH2 0x135C JUMP JUMPDEST PUSH1 0x40 MLOAD DUP1 SWAP2 SUB SWAP1 REVERT JUMPDEST DUP1 PUSH1 0x3 PUSH1 0x0 PUSH2 0x100 EXP DUP2 SLOAD DUP2 PUSH20 0xFFFFFFFFFFFFFFFFFFFFFFFFFFFFFFFFFFFFFFFF MUL NOT AND SWAP1 DUP4 PUSH20 0xFFFFFFFFFFFFFFFFFFFFFFFFFFFFFFFFFFFFFFFF AND MUL OR SWAP1 SSTORE POP PUSH32 0xF67E7992D539193FC243C42FE89F8FAB49013E8E4FB18CFA891DC51ADCACCC80 DUP2 PUSH1 0x40 MLOAD PUSH2 0x3EA SWAP2 SWAP1 PUSH2 0x1200 JUMP JUMPDEST PUSH1 0x40 MLOAD DUP1 SWAP2 SUB SWAP1 LOG1 POP JUMP JUMPDEST PUSH1 0x3 PUSH1 0x0 SWAP1 SLOAD SWAP1 PUSH2 0x100 EXP SWAP1 DIV PUSH20 0xFFFFFFFFFFFFFFFFFFFFFFFFFFFFFFFFFFFFFFFF AND PUSH20 0xFFFFFFFFFFFFFFFFFFFFFFFFFFFFFFFFFFFFFFFF AND CALLER PUSH20 0xFFFFFFFFFFFFFFFFFFFFFFFFFFFFFFFFFFFFFFFF AND EQ PUSH2 0x485 JUMPI PUSH1 0x40 MLOAD PUSH32 0x8C379A000000000000000000000000000000000000000000000000000000000 DUP2 MSTORE PUSH1 0x4 ADD PUSH2 0x47C SWAP1 PUSH2 0x12AE JUMP JUMPDEST PUSH1 0x40 MLOAD DUP1 SWAP2 SUB SWAP1 REVERT JUMPDEST PUSH1 0x1 PUSH1 0x8 PUSH1 0x0 DUP4 PUSH20 0xFFFFFFFFFFFFFFFFFFFFFFFFFFFFFFFFFFFFFFFF AND PUSH20 0xFFFFFFFFFFFFFFFFFFFFFFFFFFFFFFFFFFFFFFFF AND DUP2 MSTORE PUSH1 0x20 ADD SWAP1 DUP2 MSTORE PUSH1 0x20 ADD PUSH1 0x0 KECCAK256 PUSH1 0x0 PUSH2 0x100 EXP DUP2 SLOAD DUP2 PUSH1 0xFF MUL NOT AND SWAP1 DUP4 ISZERO ISZERO MUL OR SWAP1 SSTORE POP POP JUMP JUMPDEST PUSH1 0x8 PUSH1 0x0 CALLER PUSH20 0xFFFFFFFFFFFFFFFFFFFFFFFFFFFFFFFFFFFFFFFF AND PUSH20 0xFFFFFFFFFFFFFFFFFFFFFFFFFFFFFFFFFFFFFFFF AND DUP2 MSTORE PUSH1 0x20 ADD SWAP1 DUP2 MSTORE PUSH1 0x20 ADD PUSH1 0x0 KECCAK256 PUSH1 0x0 SWAP1 SLOAD SWAP1 PUSH2 0x100 EXP SWAP1 DIV PUSH1 0xFF AND PUSH2 0x56C JUMPI PUSH1 0x40 MLOAD PUSH32 0x8C379A000000000000000000000000000000000000000000000000000000000 DUP2 MSTORE PUSH1 0x4 ADD PUSH2 0x563 SWAP1 PUSH2 0x122E JUMP JUMPDEST PUSH1 0x40 MLOAD DUP1 SWAP2 SUB SWAP1 REVERT JUMPDEST PUSH1 0x2 SLOAD DUP3 GT ISZERO PUSH2 0x5B1 JUMPI PUSH1 0x40 MLOAD PUSH32 0x8C379A000000000000000000000000000000000000000000000000000000000 DUP2 MSTORE PUSH1 0x4 ADD PUSH2 0x5A8 SWAP1 PUSH2 0x139C JUMP JUMPDEST PUSH1 0x40 MLOAD DUP1 SWAP2 SUB SWAP1 REVERT JUMPDEST PUSH2 0x5C6 DUP3 PUSH1 0x2 SLOAD PUSH2 0xD06 SWAP1 SWAP2 SWAP1 PUSH4 0xFFFFFFFF AND JUMP JUMPDEST PUSH1 0x2 DUP2 SWAP1 SSTORE POP PUSH2 0x61E DUP3 PUSH1 0x7 PUSH1 0x0 DUP5 PUSH20 0xFFFFFFFFFFFFFFFFFFFFFFFFFFFFFFFFFFFFFFFF AND PUSH20 0xFFFFFFFFFFFFFFFFFFFFFFFFFFFFFFFFFFFFFFFF AND DUP2 MSTORE PUSH1 0x20 ADD SWAP1 DUP2 MSTORE PUSH1 0x20 ADD PUSH1 0x0 KECCAK256 SLOAD PUSH2 0xD5F SWAP1 SWAP2 SWAP1 PUSH4 0xFFFFFFFF AND JUMP JUMPDEST PUSH1 0x7 PUSH1 0x0 DUP4 PUSH20 0xFFFFFFFFFFFFFFFFFFFFFFFFFFFFFFFFFFFFFFFF AND PUSH20 0xFFFFFFFFFFFFFFFFFFFFFFFFFFFFFFFFFFFFFFFF AND DUP2 MSTORE PUSH1 0x20 ADD SWAP1 DUP2 MSTORE PUSH1 0x20 ADD PUSH1 0x0 KECCAK256 DUP2 SWAP1 SSTORE POP PUSH32 0xF67E7992D539193FC243C42FE89F8FAB49013E8E4FB18CFA891DC51ADCACCC80 DUP2 PUSH1 0x40 MLOAD PUSH2 0x690 SWAP2 SWAP1 PUSH2 0x11D2 JUMP JUMPDEST PUSH1 0x40 MLOAD DUP1 SWAP2 SUB SWAP1 LOG1 POP POP JUMP JUMPDEST PUSH1 0x0 PUSH1 0x7 PUSH1 0x0 CALLER PUSH20 0xFFFFFFFFFFFFFFFFFFFFFFFFFFFFFFFFFFFFFFFF AND PUSH20 0xFFFFFFFFFFFFFFFFFFFFFFFFFFFFFFFFFFFFFFFF AND DUP2 MSTORE PUSH1 0x20 ADD SWAP1 DUP2 MSTORE PUSH1 0x20 ADD PUSH1 0x0 KECCAK256 SLOAD GT PUSH2 0x71E JUMPI PUSH1 0x40 MLOAD PUSH32 0x8C379A000000000000000000000000000000000000000000000000000000000 DUP2 MSTORE PUSH1 0x4 ADD PUSH2 0x715 SWAP1 PUSH2 0x128E JUMP JUMPDEST PUSH1 0x40 MLOAD DUP1 SWAP2 SUB SWAP1 REVERT JUMPDEST PUSH1 0x0 PUSH1 0x7 PUSH1 0x0 CALLER PUSH20 0xFFFFFFFFFFFFFFFFFFFFFFFFFFFFFFFFFFFFFFFF AND PUSH20 0xFFFFFFFFFFFFFFFFFFFFFFFFFFFFFFFFFFFFFFFF AND DUP2 MSTORE PUSH1 0x20 ADD SWAP1 DUP2 MSTORE PUSH1 0x20 ADD PUSH1 0x0 KECCAK256 SLOAD SWAP1 POP PUSH1 0x0 PUSH1 0x7 PUSH1 0x0 CALLER PUSH20 0xFFFFFFFFFFFFFFFFFFFFFFFFFFFFFFFFFFFFFFFF AND PUSH20 0xFFFFFFFFFFFFFFFFFFFFFFFFFFFFFFFFFFFFFFFF AND DUP2 MSTORE PUSH1 0x20 ADD SWAP1 DUP2 MSTORE PUSH1 0x20 ADD PUSH1 0x0 KECCAK256 DUP2 SWAP1 SSTORE POP CALLER PUSH20 0xFFFFFFFFFFFFFFFFFFFFFFFFFFFFFFFFFFFFFFFF AND PUSH2 0x8FC DUP3 SWAP1 DUP2 ISZERO MUL SWAP1 PUSH1 0x40 MLOAD PUSH1 0x0 PUSH1 0x40 MLOAD DUP1 DUP4 SUB DUP2 DUP6 DUP9 DUP9 CALL SWAP4 POP POP POP POP ISZERO DUP1 ISZERO PUSH2 0x7ED JUMPI RETURNDATASIZE PUSH1 0x0 DUP1 RETURNDATACOPY RETURNDATASIZE PUSH1 0x0 REVERT JUMPDEST POP POP JUMP JUMPDEST PUSH1 0x0 SLOAD DUP2 JUMP JUMPDEST PUSH1 0x0 PUSH1 0x6 PUSH1 0x0 CALLER PUSH20 0xFFFFFFFFFFFFFFFFFFFFFFFFFFFFFFFFFFFFFFFF AND PUSH20 0xFFFFFFFFFFFFFFFFFFFFFFFFFFFFFFFFFFFFFFFF AND DUP2 MSTORE PUSH1 0x20 ADD SWAP1 DUP2 MSTORE PUSH1 0x20 ADD PUSH1 0x0 KECCAK256 SLOAD GT PUSH2 0x879 JUMPI PUSH1 0x40 MLOAD PUSH32 0x8C379A000000000000000000000000000000000000000000000000000000000 DUP2 MSTORE PUSH1 0x4 ADD PUSH2 0x870 SWAP1 PUSH2 0x124E JUMP JUMPDEST PUSH1 0x40 MLOAD DUP1 SWAP2 SUB SWAP1 REVERT JUMPDEST PUSH1 0x0 PUSH2 0x8DB PUSH3 0x15180 TIMESTAMP PUSH1 0x5 PUSH1 0x0 CALLER PUSH20 0xFFFFFFFFFFFFFFFFFFFFFFFFFFFFFFFFFFFFFFFF AND PUSH20 0xFFFFFFFFFFFFFFFFFFFFFFFFFFFFFFFFFFFFFFFF AND DUP2 MSTORE PUSH1 0x20 ADD SWAP1 DUP2 MSTORE PUSH1 0x20 ADD PUSH1 0x0 KECCAK256 SLOAD PUSH2 0x8CD SWAP2 SWAP1 PUSH2 0x1509 JUMP JUMPDEST PUSH2 0xDB8 SWAP1 SWAP2 SWAP1 PUSH4 0xFFFFFFFF AND JUMP JUMPDEST SWAP1 POP PUSH3 0x278D00 DUP2 GT PUSH2 0x922 JUMPI PUSH1 0x40 MLOAD PUSH32 0x8C379A000000000000000000000000000000000000000000000000000000000 DUP2 MSTORE PUSH1 0x4 ADD PUSH2 0x919 SWAP1 PUSH2 0x133C JUMP JUMPDEST PUSH1 0x40 MLOAD DUP1 SWAP2 SUB SWAP1 REVERT JUMPDEST PUSH1 0x0 PUSH2 0x99C PUSH1 0x64 PUSH2 0x98E PUSH1 0x6 PUSH1 0x0 CALLER PUSH20 0xFFFFFFFFFFFFFFFFFFFFFFFFFFFFFFFFFFFFFFFF AND PUSH20 0xFFFFFFFFFFFFFFFFFFFFFFFFFFFFFFFFFFFFFFFF AND DUP2 MSTORE PUSH1 0x20 ADD SWAP1 DUP2 MSTORE PUSH1 0x20 ADD PUSH1 0x0 KECCAK256 SLOAD PUSH2 0x980 PUSH1 0x5 DUP8 PUSH2 0xE10 SWAP1 SWAP2 SWAP1 PUSH4 0xFFFFFFFF AND JUMP JUMPDEST PUSH2 0xE10 SWAP1 SWAP2 SWAP1 PUSH4 0xFFFFFFFF AND JUMP JUMPDEST PUSH2 0xDB8 SWAP1 SWAP2 SWAP1 PUSH4 0xFFFFFFFF AND JUMP JUMPDEST PUSH1 0x6 PUSH1 0x0 CALLER PUSH20 0xFFFFFFFFFFFFFFFFFFFFFFFFFFFFFFFFFFFFFFFF AND PUSH20 0xFFFFFFFFFFFFFFFFFFFFFFFFFFFFFFFFFFFFFFFF AND DUP2 MSTORE PUSH1 0x20 ADD SWAP1 DUP2 MSTORE PUSH1 0x20 ADD PUSH1 0x0 KECCAK256 SLOAD PUSH2 0x9E6 SWAP2 SWAP1 PUSH2 0x1428 JUMP JUMPDEST SWAP1 POP PUSH1 0x2 SLOAD DUP2 LT PUSH2 0xA2C JUMPI PUSH1 0x40 MLOAD PUSH32 0x8C379A000000000000000000000000000000000000000000000000000000000 DUP2 MSTORE PUSH1 0x4 ADD PUSH2 0xA23 SWAP1 PUSH2 0x13BC JUMP JUMPDEST PUSH1 0x40 MLOAD DUP1 SWAP2 SUB SWAP1 REVERT JUMPDEST PUSH2 0xA41 DUP2 PUSH1 0x2 SLOAD PUSH2 0xD06 SWAP1 SWAP2 SWAP1 PUSH4 0xFFFFFFFF AND JUMP JUMPDEST PUSH1 0x2 DUP2 SWAP1 SSTORE POP PUSH2 0xA99 DUP2 PUSH1 0x7 PUSH1 0x0 CALLER PUSH20 0xFFFFFFFFFFFFFFFFFFFFFFFFFFFFFFFFFFFFFFFF AND PUSH20 0xFFFFFFFFFFFFFFFFFFFFFFFFFFFFFFFFFFFFFFFF AND DUP2 MSTORE PUSH1 0x20 ADD SWAP1 DUP2 MSTORE PUSH1 0x20 ADD PUSH1 0x0 KECCAK256 SLOAD PUSH2 0xD5F SWAP1 SWAP2 SWAP1 PUSH4 0xFFFFFFFF AND JUMP JUMPDEST PUSH1 0x7 PUSH1 0x0 CALLER PUSH20 0xFFFFFFFFFFFFFFFFFFFFFFFFFFFFFFFFFFFFFFFF AND PUSH20 0xFFFFFFFFFFFFFFFFFFFFFFFFFFFFFFFFFFFFFFFF AND DUP2 MSTORE PUSH1 0x20 ADD SWAP1 DUP2 MSTORE PUSH1 0x20 ADD PUSH1 0x0 KECCAK256 DUP2 SWAP1 SSTORE POP POP POP JUMP JUMPDEST PUSH1 0x5 PUSH1 0x20 MSTORE DUP1 PUSH1 0x0 MSTORE PUSH1 0x40 PUSH1 0x0 KECCAK256 PUSH1 0x0 SWAP2 POP SWAP1 POP SLOAD DUP2 JUMP JUMPDEST PUSH1 0x1 PUSH1 0x0 SWAP1 SLOAD SWAP1 PUSH2 0x100 EXP SWAP1 DIV PUSH20 0xFFFFFFFFFFFFFFFFFFFFFFFFFFFFFFFFFFFFFFFF AND DUP2 JUMP JUMPDEST PUSH1 0x3 PUSH1 0x0 SWAP1 SLOAD SWAP1 PUSH2 0x100 EXP SWAP1 DIV PUSH20 0xFFFFFFFFFFFFFFFFFFFFFFFFFFFFFFFFFFFFFFFF AND DUP2 JUMP JUMPDEST PUSH1 0x7 PUSH1 0x20 MSTORE DUP1 PUSH1 0x0 MSTORE PUSH1 0x40 PUSH1 0x0 KECCAK256 PUSH1 0x0 SWAP2 POP SWAP1 POP SLOAD DUP2 JUMP JUMPDEST PUSH1 0x8 PUSH1 0x20 MSTORE DUP1 PUSH1 0x0 MSTORE PUSH1 0x40 PUSH1 0x0 KECCAK256 PUSH1 0x0 SWAP2 POP SLOAD SWAP1 PUSH2 0x100 EXP SWAP1 DIV PUSH1 0xFF AND DUP2 JUMP JUMPDEST PUSH1 0x0 SLOAD CALLVALUE LT ISZERO PUSH2 0xBC1 JUMPI PUSH1 0x40 MLOAD PUSH32 0x8C379A000000000000000000000000000000000000000000000000000000000 DUP2 MSTORE PUSH1 0x4 ADD PUSH2 0xBB8 SWAP1 PUSH2 0x126E JUMP JUMPDEST PUSH1 0x40 MLOAD DUP1 SWAP2 SUB SWAP1 REVERT JUMPDEST TIMESTAMP PUSH1 0x5 PUSH1 0x0 CALLER PUSH20 0xFFFFFFFFFFFFFFFFFFFFFFFFFFFFFFFFFFFFFFFF AND PUSH20 0xFFFFFFFFFFFFFFFFFFFFFFFFFFFFFFFFFFFFFFFF AND DUP2 MSTORE PUSH1 0x20 ADD SWAP1 DUP2 MSTORE PUSH1 0x20 ADD PUSH1 0x0 KECCAK256 DUP2 SWAP1 SSTORE POP PUSH2 0xC57 CALLVALUE PUSH1 0x6 PUSH1 0x0 CALLER PUSH20 0xFFFFFFFFFFFFFFFFFFFFFFFFFFFFFFFFFFFFFFFF AND PUSH20 0xFFFFFFFFFFFFFFFFFFFFFFFFFFFFFFFFFFFFFFFF AND DUP2 MSTORE PUSH1 0x20 ADD SWAP1 DUP2 MSTORE PUSH1 0x20 ADD PUSH1 0x0 KECCAK256 SLOAD PUSH2 0xD5F SWAP1 SWAP2 SWAP1 PUSH4 0xFFFFFFFF AND JUMP JUMPDEST PUSH1 0x6 PUSH1 0x0 CALLER PUSH20 0xFFFFFFFFFFFFFFFFFFFFFFFFFFFFFFFFFFFFFFFF AND PUSH20 0xFFFFFFFFFFFFFFFFFFFFFFFFFFFFFFFFFFFFFFFF AND DUP2 MSTORE PUSH1 0x20 ADD SWAP1 DUP2 MSTORE PUSH1 0x20 ADD PUSH1 0x0 KECCAK256 DUP2 SWAP1 SSTORE POP PUSH2 0xCAF CALLVALUE PUSH1 0x2 SLOAD PUSH2 0xD5F SWAP1 SWAP2 SWAP1 PUSH4 0xFFFFFFFF AND JUMP JUMPDEST PUSH1 0x2 DUP2 SWAP1 SSTORE POP PUSH32 0xF67E7992D539193FC243C42FE89F8FAB49013E8E4FB18CFA891DC51ADCACCC80 CALLER PUSH1 0x40 MLOAD PUSH2 0xCE4 SWAP2 SWAP1 PUSH2 0x12CE JUMP JUMPDEST PUSH1 0x40 MLOAD DUP1 SWAP2 SUB SWAP1 LOG1 JUMP JUMPDEST PUSH1 0x6 PUSH1 0x20 MSTORE DUP1 PUSH1 0x0 MSTORE PUSH1 0x40 PUSH1 0x0 KECCAK256 PUSH1 0x0 SWAP2 POP SWAP1 POP SLOAD DUP2 JUMP JUMPDEST PUSH1 0x0 DUP3 DUP3 GT ISZERO PUSH2 0xD4B JUMPI PUSH1 0x40 MLOAD PUSH32 0x8C379A000000000000000000000000000000000000000000000000000000000 DUP2 MSTORE PUSH1 0x4 ADD PUSH2 0xD42 SWAP1 PUSH2 0x12FC JUMP JUMPDEST PUSH1 0x40 MLOAD DUP1 SWAP2 SUB SWAP1 REVERT JUMPDEST DUP2 DUP4 PUSH2 0xD57 SWAP2 SWAP1 PUSH2 0x1509 JUMP JUMPDEST SWAP1 POP SWAP3 SWAP2 POP POP JUMP JUMPDEST PUSH1 0x0 DUP2 DUP4 PUSH2 0xD6D SWAP2 SWAP1 PUSH2 0x1428 JUMP JUMPDEST SWAP1 POP DUP3 DUP2 LT ISZERO PUSH2 0xDB2 JUMPI PUSH1 0x40 MLOAD PUSH32 0x8C379A000000000000000000000000000000000000000000000000000000000 DUP2 MSTORE PUSH1 0x4 ADD PUSH2 0xDA9 SWAP1 PUSH2 0x131C JUMP JUMPDEST PUSH1 0x40 MLOAD DUP1 SWAP2 SUB SWAP1 REVERT JUMPDEST SWAP3 SWAP2 POP POP JUMP JUMPDEST PUSH1 0x0 DUP1 DUP3 GT PUSH2 0xDFC JUMPI PUSH1 0x40 MLOAD PUSH32 0x8C379A000000000000000000000000000000000000000000000000000000000 DUP2 MSTORE PUSH1 0x4 ADD PUSH2 0xDF3 SWAP1 PUSH2 0x137C JUMP JUMPDEST PUSH1 0x40 MLOAD DUP1 SWAP2 SUB SWAP1 REVERT JUMPDEST DUP2 DUP4 PUSH2 0xE08 SWAP2 SWAP1 PUSH2 0x147E JUMP JUMPDEST SWAP1 POP SWAP3 SWAP2 POP POP JUMP JUMPDEST PUSH1 0x0 DUP2 DUP4 PUSH2 0xE1E SWAP2 SWAP1 PUSH2 0x14AF JUMP JUMPDEST SWAP1 POP PUSH1 0x0 DUP4 EQ DUP1 PUSH2 0xE39 JUMPI POP DUP2 DUP4 DUP3 PUSH2 0xE37 SWAP2 SWAP1 PUSH2 0x147E JUMP JUMPDEST EQ JUMPDEST PUSH2 0xE78 JUMPI PUSH1 0x40 MLOAD PUSH32 0x8C379A000000000000000000000000000000000000000000000000000000000 DUP2 MSTORE PUSH1 0x4 ADD PUSH2 0xE6F SWAP1 PUSH2 0x13DC JUMP JUMPDEST PUSH1 0x40 MLOAD DUP1 SWAP2 SUB SWAP1 REVERT JUMPDEST SWAP3 SWAP2 POP POP JUMP JUMPDEST PUSH1 0x0 DUP2 CALLDATALOAD SWAP1 POP PUSH2 0xE8D DUP2 PUSH2 0x1994 JUMP JUMPDEST SWAP3 SWAP2 POP POP JUMP JUMPDEST PUSH1 0x0 DUP2 CALLDATALOAD SWAP1 POP PUSH2 0xEA2 DUP2 PUSH2 0x19AB JUMP JUMPDEST SWAP3 SWAP2 POP POP JUMP JUMPDEST PUSH1 0x0 PUSH1 0x20 DUP3 DUP5 SUB SLT ISZERO PUSH2 0xEBE JUMPI PUSH2 0xEBD PUSH2 0x15F5 JUMP JUMPDEST JUMPDEST PUSH1 0x0 PUSH2 0xECC DUP5 DUP3 DUP6 ADD PUSH2 0xE7E JUMP JUMPDEST SWAP2 POP POP SWAP3 SWAP2 POP POP JUMP JUMPDEST PUSH1 0x0 DUP1 PUSH1 0x40 DUP4 DUP6 SUB SLT ISZERO PUSH2 0xEEC JUMPI PUSH2 0xEEB PUSH2 0x15F5 JUMP JUMPDEST JUMPDEST PUSH1 0x0 PUSH2 0xEFA DUP6 DUP3 DUP7 ADD PUSH2 0xE93 JUMP JUMPDEST SWAP3 POP POP PUSH1 0x20 PUSH2 0xF0B DUP6 DUP3 DUP7 ADD PUSH2 0xE7E JUMP JUMPDEST SWAP2 POP POP SWAP3 POP SWAP3 SWAP1 POP JUMP JUMPDEST PUSH2 0xF1E DUP2 PUSH2 0x154F JUMP JUMPDEST DUP3 MSTORE POP POP JUMP JUMPDEST PUSH2 0xF2D DUP2 PUSH2 0x153D JUMP JUMPDEST DUP3 MSTORE POP POP JUMP JUMPDEST PUSH2 0xF3C DUP2 PUSH2 0x1561 JUMP JUMPDEST DUP3 MSTORE POP POP JUMP JUMPDEST PUSH1 0x0 PUSH2 0xF4F PUSH1 0x13 DUP4 PUSH2 0x1417 JUMP JUMPDEST SWAP2 POP PUSH2 0xF5A DUP3 PUSH2 0x15FA JUMP JUMPDEST PUSH1 0x20 DUP3 ADD SWAP1 POP SWAP2 SWAP1 POP JUMP JUMPDEST PUSH1 0x0 PUSH2 0xF72 PUSH1 0x11 DUP4 PUSH2 0x1417 JUMP JUMPDEST SWAP2 POP PUSH2 0xF7D DUP3 PUSH2 0x1623 JUMP JUMPDEST PUSH1 0x20 DUP3 ADD SWAP1 POP SWAP2 SWAP1 POP JUMP JUMPDEST PUSH1 0x0 PUSH2 0xF95 PUSH1 0x29 DUP4 PUSH2 0x1417 JUMP JUMPDEST SWAP2 POP PUSH2 0xFA0 DUP3 PUSH2 0x164C JUMP JUMPDEST PUSH1 0x40 DUP3 ADD SWAP1 POP SWAP2 SWAP1 POP JUMP JUMPDEST PUSH1 0x0 PUSH2 0xFB8 PUSH1 0x20 DUP4 PUSH2 0x1417 JUMP JUMPDEST SWAP2 POP PUSH2 0xFC3 DUP3 PUSH2 0x169B JUMP JUMPDEST PUSH1 0x20 DUP3 ADD SWAP1 POP SWAP2 SWAP1 POP JUMP JUMPDEST PUSH1 0x0 PUSH2 0xFDB PUSH1 0x18 DUP4 PUSH2 0x1417 JUMP JUMPDEST SWAP2 POP PUSH2 0xFE6 DUP3 PUSH2 0x16C4 JUMP JUMPDEST PUSH1 0x20 DUP3 ADD SWAP1 POP SWAP2 SWAP1 POP JUMP JUMPDEST PUSH1 0x0 PUSH2 0xFFE PUSH1 0x24 DUP4 PUSH2 0x1417 JUMP JUMPDEST SWAP2 POP PUSH2 0x1009 DUP3 PUSH2 0x16ED JUMP JUMPDEST PUSH1 0x40 DUP3 ADD SWAP1 POP SWAP2 SWAP1 POP JUMP JUMPDEST PUSH1 0x0 PUSH2 0x1021 PUSH1 0x22 DUP4 PUSH2 0x1417 JUMP JUMPDEST SWAP2 POP PUSH2 0x102C DUP3 PUSH2 0x173C JUMP JUMPDEST PUSH1 0x40 DUP3 ADD SWAP1 POP SWAP2 SWAP1 POP JUMP JUMPDEST PUSH1 0x0 PUSH2 0x1044 PUSH1 0x6 DUP4 PUSH2 0x1417 JUMP JUMPDEST SWAP2 POP PUSH2 0x104F DUP3 PUSH2 0x178B JUMP JUMPDEST PUSH1 0x20 DUP3 ADD SWAP1 POP SWAP2 SWAP1 POP JUMP JUMPDEST PUSH1 0x0 PUSH2 0x1067 PUSH1 0x12 DUP4 PUSH2 0x1417 JUMP JUMPDEST SWAP2 POP PUSH2 0x1072 DUP3 PUSH2 0x17B4 JUMP JUMPDEST PUSH1 0x20 DUP3 ADD SWAP1 POP SWAP2 SWAP1 POP JUMP JUMPDEST PUSH1 0x0 PUSH2 0x108A PUSH1 0xF DUP4 PUSH2 0x1417 JUMP JUMPDEST SWAP2 POP PUSH2 0x1095 DUP3 PUSH2 0x17DD JUMP JUMPDEST PUSH1 0x20 DUP3 ADD SWAP1 POP SWAP2 SWAP1 POP JUMP JUMPDEST PUSH1 0x0 PUSH2 0x10AD PUSH1 0x24 DUP4 PUSH2 0x1417 JUMP JUMPDEST SWAP2 POP PUSH2 0x10B8 DUP3 PUSH2 0x1806 JUMP JUMPDEST PUSH1 0x40 DUP3 ADD SWAP1 POP SWAP2 SWAP1 POP JUMP JUMPDEST PUSH1 0x0 PUSH2 0x10D0 PUSH1 0x2C DUP4 PUSH2 0x1417 JUMP JUMPDEST SWAP2 POP PUSH2 0x10DB DUP3 PUSH2 0x1855 JUMP JUMPDEST PUSH1 0x40 DUP3 ADD SWAP1 POP SWAP2 SWAP1 POP JUMP JUMPDEST PUSH1 0x0 PUSH2 0x10F3 PUSH1 0xE DUP4 PUSH2 0x1417 JUMP JUMPDEST SWAP2 POP PUSH2 0x10FE DUP3 PUSH2 0x18A4 JUMP JUMPDEST PUSH1 0x20 DUP3 ADD SWAP1 POP SWAP2 SWAP1 POP JUMP JUMPDEST PUSH1 0x0 PUSH2 0x1116 PUSH1 0x27 DUP4 PUSH2 0x1417 JUMP JUMPDEST SWAP2 POP PUSH2 0x1121 DUP3 PUSH2 0x18CD JUMP JUMPDEST PUSH1 0x40 DUP3 ADD SWAP1 POP SWAP2 SWAP1 POP JUMP JUMPDEST PUSH1 0x0 PUSH2 0x1139 PUSH1 0x32 DUP4 PUSH2 0x1417 JUMP JUMPDEST SWAP2 POP PUSH2 0x1144 DUP3 PUSH2 0x191C JUMP JUMPDEST PUSH1 0x40 DUP3 ADD SWAP1 POP SWAP2 SWAP1 POP JUMP JUMPDEST PUSH1 0x0 PUSH2 0x115C PUSH1 0x14 DUP4 PUSH2 0x1417 JUMP JUMPDEST SWAP2 POP PUSH2 0x1167 DUP3 PUSH2 0x196B JUMP JUMPDEST PUSH1 0x20 DUP3 ADD SWAP1 POP SWAP2 SWAP1 POP JUMP JUMPDEST PUSH2 0x117B DUP2 PUSH2 0x158D JUMP JUMPDEST DUP3 MSTORE POP POP JUMP JUMPDEST PUSH1 0x0 PUSH1 0x20 DUP3 ADD SWAP1 POP PUSH2 0x1196 PUSH1 0x0 DUP4 ADD DUP5 PUSH2 0xF24 JUMP JUMPDEST SWAP3 SWAP2 POP POP JUMP JUMPDEST PUSH1 0x0 PUSH1 0x20 DUP3 ADD SWAP1 POP PUSH2 0x11B1 PUSH1 0x0 DUP4 ADD DUP5 PUSH2 0xF15 JUMP JUMPDEST SWAP3 SWAP2 POP POP JUMP JUMPDEST PUSH1 0x0 PUSH1 0x20 DUP3 ADD SWAP1 POP PUSH2 0x11CC PUSH1 0x0 DUP4 ADD DUP5 PUSH2 0xF33 JUMP JUMPDEST SWAP3 SWAP2 POP POP JUMP JUMPDEST PUSH1 0x0 PUSH1 0x40 DUP3 ADD SWAP1 POP DUP2 DUP2 SUB PUSH1 0x0 DUP4 ADD MSTORE PUSH2 0x11EB DUP2 PUSH2 0xF42 JUMP JUMPDEST SWAP1 POP PUSH2 0x11FA PUSH1 0x20 DUP4 ADD DUP5 PUSH2 0xF24 JUMP JUMPDEST SWAP3 SWAP2 POP POP JUMP JUMPDEST PUSH1 0x0 PUSH1 0x40 DUP3 ADD SWAP1 POP DUP2 DUP2 SUB PUSH1 0x0 DUP4 ADD MSTORE PUSH2 0x1219 DUP2 PUSH2 0xF65 JUMP JUMPDEST SWAP1 POP PUSH2 0x1228 PUSH1 0x20 DUP4 ADD DUP5 PUSH2 0xF24 JUMP JUMPDEST SWAP3 SWAP2 POP POP JUMP JUMPDEST PUSH1 0x0 PUSH1 0x20 DUP3 ADD SWAP1 POP DUP2 DUP2 SUB PUSH1 0x0 DUP4 ADD MSTORE PUSH2 0x1247 DUP2 PUSH2 0xF88 JUMP JUMPDEST SWAP1 POP SWAP2 SWAP1 POP JUMP JUMPDEST PUSH1 0x0 PUSH1 0x20 DUP3 ADD SWAP1 POP DUP2 DUP2 SUB PUSH1 0x0 DUP4 ADD MSTORE PUSH2 0x1267 DUP2 PUSH2 0xFAB JUMP JUMPDEST SWAP1 POP SWAP2 SWAP1 POP JUMP JUMPDEST PUSH1 0x0 PUSH1 0x20 DUP3 ADD SWAP1 POP DUP2 DUP2 SUB PUSH1 0x0 DUP4 ADD MSTORE PUSH2 0x1287 DUP2 PUSH2 0xFCE JUMP JUMPDEST SWAP1 POP SWAP2 SWAP1 POP JUMP JUMPDEST PUSH1 0x0 PUSH1 0x20 DUP3 ADD SWAP1 POP DUP2 DUP2 SUB PUSH1 0x0 DUP4 ADD MSTORE PUSH2 0x12A7 DUP2 PUSH2 0xFF1 JUMP JUMPDEST SWAP1 POP SWAP2 SWAP1 POP JUMP JUMPDEST PUSH1 0x0 PUSH1 0x20 DUP3 ADD SWAP1 POP DUP2 DUP2 SUB PUSH1 0x0 DUP4 ADD MSTORE PUSH2 0x12C7 DUP2 PUSH2 0x1014 JUMP JUMPDEST SWAP1 POP SWAP2 SWAP1 POP JUMP JUMPDEST PUSH1 0x0 PUSH1 0x40 DUP3 ADD SWAP1 POP DUP2 DUP2 SUB PUSH1 0x0 DUP4 ADD MSTORE PUSH2 0x12E7 DUP2 PUSH2 0x1037 JUMP JUMPDEST SWAP1 POP PUSH2 0x12F6 PUSH1 0x20 DUP4 ADD DUP5 PUSH2 0xF24 JUMP JUMPDEST SWAP3 SWAP2 POP POP JUMP JUMPDEST PUSH1 0x0 PUSH1 0x20 DUP3 ADD SWAP1 POP DUP2 DUP2 SUB PUSH1 0x0 DUP4 ADD MSTORE PUSH2 0x1315 DUP2 PUSH2 0x105A JUMP JUMPDEST SWAP1 POP SWAP2 SWAP1 POP JUMP JUMPDEST PUSH1 0x0 PUSH1 0x20 DUP3 ADD SWAP1 POP DUP2 DUP2 SUB PUSH1 0x0 DUP4 ADD MSTORE PUSH2 0x1335 DUP2 PUSH2 0x107D JUMP JUMPDEST SWAP1 POP SWAP2 SWAP1 POP JUMP JUMPDEST PUSH1 0x0 PUSH1 0x20 DUP3 ADD SWAP1 POP DUP2 DUP2 SUB PUSH1 0x0 DUP4 ADD MSTORE PUSH2 0x1355 DUP2 PUSH2 0x10A0 JUMP JUMPDEST SWAP1 POP SWAP2 SWAP1 POP JUMP JUMPDEST PUSH1 0x0 PUSH1 0x20 DUP3 ADD SWAP1 POP DUP2 DUP2 SUB PUSH1 0x0 DUP4 ADD MSTORE PUSH2 0x1375 DUP2 PUSH2 0x10C3 JUMP JUMPDEST SWAP1 POP SWAP2 SWAP1 POP JUMP JUMPDEST PUSH1 0x0 PUSH1 0x20 DUP3 ADD SWAP1 POP DUP2 DUP2 SUB PUSH1 0x0 DUP4 ADD MSTORE PUSH2 0x1395 DUP2 PUSH2 0x10E6 JUMP JUMPDEST SWAP1 POP SWAP2 SWAP1 POP JUMP JUMPDEST PUSH1 0x0 PUSH1 0x20 DUP3 ADD SWAP1 POP DUP2 DUP2 SUB PUSH1 0x0 DUP4 ADD MSTORE PUSH2 0x13B5 DUP2 PUSH2 0x1109 JUMP JUMPDEST SWAP1 POP SWAP2 SWAP1 POP JUMP JUMPDEST PUSH1 0x0 PUSH1 0x20 DUP3 ADD SWAP1 POP DUP2 DUP2 SUB PUSH1 0x0 DUP4 ADD MSTORE PUSH2 0x13D5 DUP2 PUSH2 0x112C JUMP JUMPDEST SWAP1 POP SWAP2 SWAP1 POP JUMP JUMPDEST PUSH1 0x0 PUSH1 0x20 DUP3 ADD SWAP1 POP DUP2 DUP2 SUB PUSH1 0x0 DUP4 ADD MSTORE PUSH2 0x13F5 DUP2 PUSH2 0x114F JUMP JUMPDEST SWAP1 POP SWAP2 SWAP1 POP JUMP JUMPDEST PUSH1 0x0 PUSH1 0x20 DUP3 ADD SWAP1 POP PUSH2 0x1411 PUSH1 0x0 DUP4 ADD DUP5 PUSH2 0x1172 JUMP JUMPDEST SWAP3 SWAP2 POP POP JUMP JUMPDEST PUSH1 0x0 DUP3 DUP3 MSTORE PUSH1 0x20 DUP3 ADD SWAP1 POP SWAP3 SWAP2 POP POP JUMP JUMPDEST PUSH1 0x0 PUSH2 0x1433 DUP3 PUSH2 0x158D JUMP JUMPDEST SWAP2 POP PUSH2 0x143E DUP4 PUSH2 0x158D JUMP JUMPDEST SWAP3 POP DUP3 PUSH32 0xFFFFFFFFFFFFFFFFFFFFFFFFFFFFFFFFFFFFFFFFFFFFFFFFFFFFFFFFFFFFFFFF SUB DUP3 GT ISZERO PUSH2 0x1473 JUMPI PUSH2 0x1472 PUSH2 0x1597 JUMP JUMPDEST JUMPDEST DUP3 DUP3 ADD SWAP1 POP SWAP3 SWAP2 POP POP JUMP JUMPDEST PUSH1 0x0 PUSH2 0x1489 DUP3 PUSH2 0x158D JUMP JUMPDEST SWAP2 POP PUSH2 0x1494 DUP4 PUSH2 0x158D JUMP JUMPDEST SWAP3 POP DUP3 PUSH2 0x14A4 JUMPI PUSH2 0x14A3 PUSH2 0x15C6 JUMP JUMPDEST JUMPDEST DUP3 DUP3 DIV SWAP1 POP SWAP3 SWAP2 POP POP JUMP JUMPDEST PUSH1 0x0 PUSH2 0x14BA DUP3 PUSH2 0x158D JUMP JUMPDEST SWAP2 POP PUSH2 0x14C5 DUP4 PUSH2 0x158D JUMP JUMPDEST SWAP3 POP DUP2 PUSH32 0xFFFFFFFFFFFFFFFFFFFFFFFFFFFFFFFFFFFFFFFFFFFFFFFFFFFFFFFFFFFFFFFF DIV DUP4 GT DUP3 ISZERO ISZERO AND ISZERO PUSH2 0x14FE JUMPI PUSH2 0x14FD PUSH2 0x1597 JUMP JUMPDEST JUMPDEST DUP3 DUP3 MUL SWAP1 POP SWAP3 SWAP2 POP POP JUMP JUMPDEST PUSH1 0x0 PUSH2 0x1514 DUP3 PUSH2 0x158D JUMP JUMPDEST SWAP2 POP PUSH2 0x151F DUP4 PUSH2 0x158D JUMP JUMPDEST SWAP3 POP DUP3 DUP3 LT ISZERO PUSH2 0x1532 JUMPI PUSH2 0x1531 PUSH2 0x1597 JUMP JUMPDEST JUMPDEST DUP3 DUP3 SUB SWAP1 POP SWAP3 SWAP2 POP POP JUMP JUMPDEST PUSH1 0x0 PUSH2 0x1548 DUP3 PUSH2 0x156D JUMP JUMPDEST SWAP1 POP SWAP2 SWAP1 POP JUMP JUMPDEST PUSH1 0x0 PUSH2 0x155A DUP3 PUSH2 0x156D JUMP JUMPDEST SWAP1 POP SWAP2 SWAP1 POP JUMP JUMPDEST PUSH1 0x0 DUP2 ISZERO ISZERO SWAP1 POP SWAP2 SWAP1 POP JUMP JUMPDEST PUSH1 0x0 PUSH20 0xFFFFFFFFFFFFFFFFFFFFFFFFFFFFFFFFFFFFFFFF DUP3 AND SWAP1 POP SWAP2 SWAP1 POP JUMP JUMPDEST PUSH1 0x0 DUP2 SWAP1 POP SWAP2 SWAP1 POP JUMP JUMPDEST PUSH32 0x4E487B7100000000000000000000000000000000000000000000000000000000 PUSH1 0x0 MSTORE PUSH1 0x11 PUSH1 0x4 MSTORE PUSH1 0x24 PUSH1 0x0 REVERT JUMPDEST PUSH32 0x4E487B7100000000000000000000000000000000000000000000000000000000 PUSH1 0x0 MSTORE PUSH1 0x12 PUSH1 0x4 MSTORE PUSH1 0x24 PUSH1 0x0 REVERT JUMPDEST PUSH1 0x0 DUP1 REVERT JUMPDEST PUSH32 0x4D6F6E6579207769746864726177656E20746F00000000000000000000000000 PUSH1 0x0 DUP3 ADD MSTORE POP JUMP JUMPDEST PUSH32 0x456469746F72207570646174656420746F000000000000000000000000000000 PUSH1 0x0 DUP3 ADD MSTORE POP JUMP JUMPDEST PUSH32 0x4F6E6C7920616C6C6F7765642067617465732063616E20616363657373207468 PUSH1 0x0 DUP3 ADD MSTORE PUSH32 0x6973206D6574686F640000000000000000000000000000000000000000000000 PUSH1 0x20 DUP3 ADD MSTORE POP JUMP JUMPDEST PUSH32 0x596F7520646F6E2774206861766520616E79206D6F6E657920696E2068657265 PUSH1 0x0 DUP3 ADD MSTORE POP JUMP JUMPDEST PUSH32 0x4D696E696D756D20312045746865722052657175697265640000000000000000 PUSH1 0x0 DUP3 ADD MSTORE POP JUMP JUMPDEST PUSH32 0x596F7520646F6E27742068617665206E6F2070656E64696E6720776974686472 PUSH1 0x0 DUP3 ADD MSTORE PUSH32 0x61776C7300000000000000000000000000000000000000000000000000000000 PUSH1 0x20 DUP3 ADD MSTORE POP JUMP JUMPDEST PUSH32 0x4F6E6C7920656469746F722063616E206163636573732074686973206D657468 PUSH1 0x0 DUP3 ADD MSTORE PUSH32 0x6F64000000000000000000000000000000000000000000000000000000000000 PUSH1 0x20 DUP3 ADD MSTORE POP JUMP JUMPDEST PUSH32 0x7374616B65640000000000000000000000000000000000000000000000000000 PUSH1 0x0 DUP3 ADD MSTORE POP JUMP JUMPDEST PUSH32 0x537562737472616374696F6E206661696C640000000000000000000000000000 PUSH1 0x0 DUP3 ADD MSTORE POP JUMP JUMPDEST PUSH32 0x4164646974696F6E206661696C65640000000000000000000000000000000000 PUSH1 0x0 DUP3 ADD MSTORE POP JUMP JUMPDEST PUSH32 0x596F752073686F756C642061746C65617374207374616B6520666F722061206D PUSH1 0x0 DUP3 ADD MSTORE PUSH32 0x6F6E747900000000000000000000000000000000000000000000000000000000 PUSH1 0x20 DUP3 ADD MSTORE POP JUMP JUMPDEST PUSH32 0x4F6E6C7920696E697469616C2075706C6F616465722063616E20616363657373 PUSH1 0x0 DUP3 ADD MSTORE PUSH32 0x2074686973206D6574686F640000000000000000000000000000000000000000 PUSH1 0x20 DUP3 ADD MSTORE POP JUMP JUMPDEST PUSH32 0x4469766973696F6E206661696C64000000000000000000000000000000000000 PUSH1 0x0 DUP3 ADD MSTORE POP JUMP JUMPDEST PUSH32 0x446F65736E2774206861766520656E6F7567682062616C616E636520696E2074 PUSH1 0x0 DUP3 ADD MSTORE PUSH32 0x68652062616E6B00000000000000000000000000000000000000000000000000 PUSH1 0x20 DUP3 ADD MSTORE POP JUMP JUMPDEST PUSH32 0x536F72727920776520646F6E2774206861766520656E6F756768206D6F6E6579 PUSH1 0x0 DUP3 ADD MSTORE PUSH32 0x20736F20636F6D656261636B206C617465720000000000000000000000000000 PUSH1 0x20 DUP3 ADD MSTORE POP JUMP JUMPDEST PUSH32 0x4D756C7469706C69636174696F6E206661696C64000000000000000000000000 PUSH1 0x0 DUP3 ADD MSTORE POP JUMP JUMPDEST PUSH2 0x199D DUP2 PUSH2 0x153D JUMP JUMPDEST DUP2 EQ PUSH2 0x19A8 JUMPI PUSH1 0x0 DUP1 REVERT JUMPDEST POP JUMP JUMPDEST PUSH2 0x19B4 DUP2 PUSH2 0x158D JUMP JUMPDEST DUP2 EQ PUSH2 0x19BF JUMPI PUSH1 0x0 DUP1 REVERT JUMPDEST POP JUMP INVALID LOG2 PUSH5 0x6970667358 0x22 SLT KECCAK256 0xA7 0xAB 0xB5 INVALID AND EXTCODEHASH 0xEA SLOAD SWAP14 0xD6 STATICCALL PUSH1 0xAF NUMBER EXP DUP2 0xFB 0xC5 0x26 PUSH15 0x95CA27AA9530AD8EAF28D5C264736F PUSH13 0x63430008070033000000000000 "
				},
				"gasEstimates": {
					"creation": {
						"codeDepositCost": "1329600",
						"executionCost": "49961",
						"totalCost": "1379561"
					},
					"external": {
						"": "218",
						"addGate(address)": "27005",
						"allowed_pools(address)": "2889",
						"deposit()": "infinite",
						"depositWithdraw()": "infinite",
						"editor()": "2581",
						"gateWithdrawl()": "infinite",
						"lendingWithdraw(uint256,address)": "infinite",
						"minimumAmt()": "2518",
						"owner()": "2559",
						"pendingPayment(address)": "2836",
						"stakedAmount(address)": "2902",
						"startTime(address)": "2837",
						"updateEditor(address)": "infinite"
					}
				},
				"methodIdentifiers": {
					"addGate(address)": "1e23271d",
					"allowed_pools(address)": "c02b2092",
					"deposit()": "d0e30db0",
					"depositWithdraw()": "6e0e0da2",
					"editor()": "a464d265",
					"gateWithdrawl()": "56852391",
					"lendingWithdraw(uint256,address)": "3607999b",
					"minimumAmt()": "650fad76",
					"owner()": "8da5cb5b",
					"pendingPayment(address)": "aeae177c",
					"stakedAmount(address)": "f9931855",
					"startTime(address)": "6e1dc66e",
					"updateEditor(address)": "166d7b48"
				}
			},
			"userdoc": {
				"kind": "user",
				"methods": {
					"deposit()": {
						"notice": "lenders can deposit money to lending pool"
					},
					"depositWithdraw()": {
						"notice": "notice Stakers can use this function to take out thier money"
					}
				},
				"notice": "Lending pool for Swip3",
				"version": 1
			}
		}
	}
}