{
	"contracts/LendingPoolGate.sol": {
		"LendingPoolGate": {
			"abi": [
				{
					"inputs": [
						{
							"internalType": "uint256",
							"name": "total_users",
							"type": "uint256"
						}
					],
					"stateMutability": "nonpayable",
					"type": "constructor"
				},
				{
					"anonymous": false,
					"inputs": [
						{
							"indexed": false,
							"internalType": "string",
							"name": "msg",
							"type": "string"
						},
						{
							"indexed": false,
							"internalType": "address",
							"name": "related",
							"type": "address"
						},
						{
							"indexed": false,
							"internalType": "uint256",
							"name": "token",
							"type": "uint256"
						}
					],
					"name": "LendingPoolGateMessage",
					"type": "event"
				},
				{
					"inputs": [
						{
							"internalType": "address",
							"name": "contract_address",
							"type": "address"
						}
					],
					"name": "append2WhiteList",
					"outputs": [
						{
							"internalType": "uint256",
							"name": "",
							"type": "uint256"
						},
						{
							"internalType": "bool",
							"name": "",
							"type": "bool"
						}
					],
					"stateMutability": "nonpayable",
					"type": "function"
				},
				{
					"inputs": [
						{
							"internalType": "uint256",
							"name": "id",
							"type": "uint256"
						}
					],
					"name": "deleteFromWhiteList",
					"outputs": [],
					"stateMutability": "nonpayable",
					"type": "function"
				},
				{
					"inputs": [],
					"name": "max_nuser",
					"outputs": [
						{
							"internalType": "uint256",
							"name": "",
							"type": "uint256"
						}
					],
					"stateMutability": "view",
					"type": "function"
				},
				{
					"inputs": [],
					"name": "parent_contract",
					"outputs": [
						{
							"internalType": "address",
							"name": "",
							"type": "address"
						}
					],
					"stateMutability": "view",
					"type": "function"
				},
				{
					"inputs": [
						{
							"internalType": "uint256",
							"name": "requester_id",
							"type": "uint256"
						},
						{
							"internalType": "address",
							"name": "reciever_address",
							"type": "address"
						},
						{
							"internalType": "uint256",
							"name": "amount",
							"type": "uint256"
						}
					],
					"name": "payDapp",
					"outputs": [
						{
							"internalType": "bool",
							"name": "",
							"type": "bool"
						}
					],
					"stateMutability": "nonpayable",
					"type": "function"
				},
				{
					"inputs": [],
					"name": "withdrawMoney",
					"outputs": [],
					"stateMutability": "nonpayable",
					"type": "function"
				}
			],
			"devdoc": {
				"author": "Hileamlak Yitayew, Matt Tengtrakool",
				"details": "Only whitelisted smart contracts can ask to withdraw money form lending       pools and only the smart contract contract that created this contract     can update the whitelist",
				"kind": "dev",
				"methods": {
					"append2WhiteList(address)": {
						"details": "Only parent smart contract could make this request",
						"params": {
							"contract_address": "Address to add to the whitelist"
						},
						"returns": {
							"_0": "id returns the id contract_address should use to withdraw_money, and the status of the white list             true meaning free space is available and false meaning the opposite"
						}
					},
					"deleteFromWhiteList(uint256)": {
						"details": "Only creator smart contract can delete element from a whitelist",
						"params": {
							"id": "Id of smart contract to be deleted, must be already in whitelist"
						}
					},
					"payDapp(uint256,address,uint256)": {
						"details": "Only whitlisted smart contract can access this function",
						"params": {
							"amount": "amount of money to be transferred",
							"reciever_address": "Adress money is to be transfered to",
							"requester_id": "Whitlist id of smart contract provided during creation"
						},
						"returns": {
							"_0": "sucess true if payment was successfull or false if it fails."
						}
					}
				},
				"title": "LendingPoolGate  ",
				"version": 1
			},
			"evm": {
				"assembly": "    /* \"contracts/LendingPoolGate.sol\":423:5140  contract LendingPoolGate {... */\n  mstore(0x40, 0x80)\n    /* \"contracts/LendingPoolGate.sol\":1287:1487  constructor(uint256 total_users){... */\n  callvalue\n  dup1\n  iszero\n  tag_1\n  jumpi\n  0x00\n  dup1\n  revert\ntag_1:\n  pop\n  mload(0x40)\n  sub(codesize, bytecodeSize)\n  dup1\n  bytecodeSize\n  dup4\n  codecopy\n  dup2\n  dup2\n  add\n  0x40\n  mstore\n  dup2\n  add\n  swap1\n  tag_2\n  swap2\n  swap1\n  tag_3\n  jump\t// in\ntag_2:\n    /* \"contracts/LendingPoolGate.sol\":1347:1357  msg.sender */\n  caller\n    /* \"contracts/LendingPoolGate.sol\":1329:1344  parent_contract */\n  0x00\n  dup1\n    /* \"contracts/LendingPoolGate.sol\":1329:1357  parent_contract = msg.sender */\n  0x0100\n  exp\n  dup2\n  sload\n  dup2\n  0xffffffffffffffffffffffffffffffffffffffff\n  mul\n  not\n  and\n  swap1\n  dup4\n  0xffffffffffffffffffffffffffffffffffffffff\n  and\n  mul\n  or\n  swap1\n  sstore\n  pop\n    /* \"contracts/LendingPoolGate.sol\":1379:1390  total_users */\n  dup1\n    /* \"contracts/LendingPoolGate.sol\":1367:1376  max_nuser */\n  0x03\n    /* \"contracts/LendingPoolGate.sol\":1367:1390  max_nuser = total_users */\n  dup2\n  swap1\n  sstore\n  pop\n    /* \"contracts/LendingPoolGate.sol\":1406:1480  LendingPoolGateMessage(\"Lending pool gate created by\", parent_contract, 0) */\n  0x2cce1494b4ef3c5682648d5c4bbf147548f403fc2ac218e41ec797babdb0acb5\n    /* \"contracts/LendingPoolGate.sol\":1461:1476  parent_contract */\n  0x00\n  dup1\n  sload\n  swap1\n  0x0100\n  exp\n  swap1\n  div\n  0xffffffffffffffffffffffffffffffffffffffff\n  and\n    /* \"contracts/LendingPoolGate.sol\":1478:1479  0 */\n  0x00\n    /* \"contracts/LendingPoolGate.sol\":1406:1480  LendingPoolGateMessage(\"Lending pool gate created by\", parent_contract, 0) */\n  mload(0x40)\n  tag_6\n  swap3\n  swap2\n  swap1\n  tag_7\n  jump\t// in\ntag_6:\n  mload(0x40)\n  dup1\n  swap2\n  sub\n  swap1\n  log1\n    /* \"contracts/LendingPoolGate.sol\":1287:1487  constructor(uint256 total_users){... */\n  pop\n    /* \"contracts/LendingPoolGate.sol\":423:5140  contract LendingPoolGate {... */\n  jump(tag_8)\n    /* \"#utility.yul\":7:150   */\ntag_10:\n    /* \"#utility.yul\":64:69   */\n  0x00\n    /* \"#utility.yul\":95:101   */\n  dup2\n    /* \"#utility.yul\":89:102   */\n  mload\n    /* \"#utility.yul\":80:102   */\n  swap1\n  pop\n    /* \"#utility.yul\":111:144   */\n  tag_12\n    /* \"#utility.yul\":138:143   */\n  dup2\n    /* \"#utility.yul\":111:144   */\n  tag_13\n  jump\t// in\ntag_12:\n    /* \"#utility.yul\":7:150   */\n  swap3\n  swap2\n  pop\n  pop\n  jump\t// out\n    /* \"#utility.yul\":156:507   */\ntag_3:\n    /* \"#utility.yul\":226:232   */\n  0x00\n    /* \"#utility.yul\":275:277   */\n  0x20\n    /* \"#utility.yul\":263:272   */\n  dup3\n    /* \"#utility.yul\":254:261   */\n  dup5\n    /* \"#utility.yul\":250:273   */\n  sub\n    /* \"#utility.yul\":246:278   */\n  slt\n    /* \"#utility.yul\":243:362   */\n  iszero\n  tag_15\n  jumpi\n    /* \"#utility.yul\":281:360   */\n  tag_16\n  tag_17\n  jump\t// in\ntag_16:\n    /* \"#utility.yul\":243:362   */\ntag_15:\n    /* \"#utility.yul\":401:402   */\n  0x00\n    /* \"#utility.yul\":426:490   */\n  tag_18\n    /* \"#utility.yul\":482:489   */\n  dup5\n    /* \"#utility.yul\":473:479   */\n  dup3\n    /* \"#utility.yul\":462:471   */\n  dup6\n    /* \"#utility.yul\":458:480   */\n  add\n    /* \"#utility.yul\":426:490   */\n  tag_10\n  jump\t// in\ntag_18:\n    /* \"#utility.yul\":416:490   */\n  swap2\n  pop\n    /* \"#utility.yul\":372:500   */\n  pop\n    /* \"#utility.yul\":156:507   */\n  swap3\n  swap2\n  pop\n  pop\n  jump\t// out\n    /* \"#utility.yul\":513:631   */\ntag_19:\n    /* \"#utility.yul\":600:624   */\n  tag_21\n    /* \"#utility.yul\":618:623   */\n  dup2\n    /* \"#utility.yul\":600:624   */\n  tag_22\n  jump\t// in\ntag_21:\n    /* \"#utility.yul\":595:598   */\n  dup3\n    /* \"#utility.yul\":588:625   */\n  mstore\n    /* \"#utility.yul\":513:631   */\n  pop\n  pop\n  jump\t// out\n    /* \"#utility.yul\":637:784   */\ntag_23:\n    /* \"#utility.yul\":732:777   */\n  tag_25\n    /* \"#utility.yul\":771:776   */\n  dup2\n    /* \"#utility.yul\":732:777   */\n  tag_26\n  jump\t// in\ntag_25:\n    /* \"#utility.yul\":727:730   */\n  dup3\n    /* \"#utility.yul\":720:778   */\n  mstore\n    /* \"#utility.yul\":637:784   */\n  pop\n  pop\n  jump\t// out\n    /* \"#utility.yul\":790:1156   */\ntag_27:\n    /* \"#utility.yul\":932:935   */\n  0x00\n    /* \"#utility.yul\":953:1020   */\n  tag_29\n    /* \"#utility.yul\":1017:1019   */\n  0x1c\n    /* \"#utility.yul\":1012:1015   */\n  dup4\n    /* \"#utility.yul\":953:1020   */\n  tag_30\n  jump\t// in\ntag_29:\n    /* \"#utility.yul\":946:1020   */\n  swap2\n  pop\n    /* \"#utility.yul\":1029:1122   */\n  tag_31\n    /* \"#utility.yul\":1118:1121   */\n  dup3\n    /* \"#utility.yul\":1029:1122   */\n  tag_32\n  jump\t// in\ntag_31:\n    /* \"#utility.yul\":1147:1149   */\n  0x20\n    /* \"#utility.yul\":1142:1145   */\n  dup3\n    /* \"#utility.yul\":1138:1150   */\n  add\n    /* \"#utility.yul\":1131:1150   */\n  swap1\n  pop\n    /* \"#utility.yul\":790:1156   */\n  swap2\n  swap1\n  pop\n  jump\t// out\n    /* \"#utility.yul\":1162:1817   */\ntag_7:\n    /* \"#utility.yul\":1392:1396   */\n  0x00\n    /* \"#utility.yul\":1430:1432   */\n  0x60\n    /* \"#utility.yul\":1419:1428   */\n  dup3\n    /* \"#utility.yul\":1415:1433   */\n  add\n    /* \"#utility.yul\":1407:1433   */\n  swap1\n  pop\n    /* \"#utility.yul\":1479:1488   */\n  dup2\n    /* \"#utility.yul\":1473:1477   */\n  dup2\n    /* \"#utility.yul\":1469:1489   */\n  sub\n    /* \"#utility.yul\":1465:1466   */\n  0x00\n    /* \"#utility.yul\":1454:1463   */\n  dup4\n    /* \"#utility.yul\":1450:1467   */\n  add\n    /* \"#utility.yul\":1443:1490   */\n  mstore\n    /* \"#utility.yul\":1507:1638   */\n  tag_34\n    /* \"#utility.yul\":1633:1637   */\n  dup2\n    /* \"#utility.yul\":1507:1638   */\n  tag_27\n  jump\t// in\ntag_34:\n    /* \"#utility.yul\":1499:1638   */\n  swap1\n  pop\n    /* \"#utility.yul\":1648:1720   */\n  tag_35\n    /* \"#utility.yul\":1716:1718   */\n  0x20\n    /* \"#utility.yul\":1705:1714   */\n  dup4\n    /* \"#utility.yul\":1701:1719   */\n  add\n    /* \"#utility.yul\":1692:1698   */\n  dup6\n    /* \"#utility.yul\":1648:1720   */\n  tag_19\n  jump\t// in\ntag_35:\n    /* \"#utility.yul\":1730:1810   */\n  tag_36\n    /* \"#utility.yul\":1806:1808   */\n  0x40\n    /* \"#utility.yul\":1795:1804   */\n  dup4\n    /* \"#utility.yul\":1791:1809   */\n  add\n    /* \"#utility.yul\":1782:1788   */\n  dup5\n    /* \"#utility.yul\":1730:1810   */\n  tag_23\n  jump\t// in\ntag_36:\n    /* \"#utility.yul\":1162:1817   */\n  swap4\n  swap3\n  pop\n  pop\n  pop\n  jump\t// out\n    /* \"#utility.yul\":1904:2073   */\ntag_30:\n    /* \"#utility.yul\":1988:1999   */\n  0x00\n    /* \"#utility.yul\":2022:2028   */\n  dup3\n    /* \"#utility.yul\":2017:2020   */\n  dup3\n    /* \"#utility.yul\":2010:2029   */\n  mstore\n    /* \"#utility.yul\":2062:2066   */\n  0x20\n    /* \"#utility.yul\":2057:2060   */\n  dup3\n    /* \"#utility.yul\":2053:2067   */\n  add\n    /* \"#utility.yul\":2038:2067   */\n  swap1\n  pop\n    /* \"#utility.yul\":1904:2073   */\n  swap3\n  swap2\n  pop\n  pop\n  jump\t// out\n    /* \"#utility.yul\":2079:2175   */\ntag_22:\n    /* \"#utility.yul\":2116:2123   */\n  0x00\n    /* \"#utility.yul\":2145:2169   */\n  tag_41\n    /* \"#utility.yul\":2163:2168   */\n  dup3\n    /* \"#utility.yul\":2145:2169   */\n  tag_42\n  jump\t// in\ntag_41:\n    /* \"#utility.yul\":2134:2169   */\n  swap1\n  pop\n    /* \"#utility.yul\":2079:2175   */\n  swap2\n  swap1\n  pop\n  jump\t// out\n    /* \"#utility.yul\":2181:2307   */\ntag_42:\n    /* \"#utility.yul\":2218:2225   */\n  0x00\n    /* \"#utility.yul\":2258:2300   */\n  0xffffffffffffffffffffffffffffffffffffffff\n    /* \"#utility.yul\":2251:2256   */\n  dup3\n    /* \"#utility.yul\":2247:2301   */\n  and\n    /* \"#utility.yul\":2236:2301   */\n  swap1\n  pop\n    /* \"#utility.yul\":2181:2307   */\n  swap2\n  swap1\n  pop\n  jump\t// out\n    /* \"#utility.yul\":2313:2390   */\ntag_44:\n    /* \"#utility.yul\":2350:2357   */\n  0x00\n    /* \"#utility.yul\":2379:2384   */\n  dup2\n    /* \"#utility.yul\":2368:2384   */\n  swap1\n  pop\n    /* \"#utility.yul\":2313:2390   */\n  swap2\n  swap1\n  pop\n  jump\t// out\n    /* \"#utility.yul\":2396:2517   */\ntag_26:\n    /* \"#utility.yul\":2454:2463   */\n  0x00\n    /* \"#utility.yul\":2487:2511   */\n  tag_47\n    /* \"#utility.yul\":2505:2510   */\n  dup3\n    /* \"#utility.yul\":2487:2511   */\n  tag_44\n  jump\t// in\ntag_47:\n    /* \"#utility.yul\":2474:2511   */\n  swap1\n  pop\n    /* \"#utility.yul\":2396:2517   */\n  swap2\n  swap1\n  pop\n  jump\t// out\n    /* \"#utility.yul\":2646:2763   */\ntag_17:\n    /* \"#utility.yul\":2755:2756   */\n  0x00\n    /* \"#utility.yul\":2752:2753   */\n  dup1\n    /* \"#utility.yul\":2745:2757   */\n  revert\n    /* \"#utility.yul\":2769:2947   */\ntag_32:\n    /* \"#utility.yul\":2909:2939   */\n  0x4c656e64696e6720706f6f6c2067617465206372656174656420627900000000\n    /* \"#utility.yul\":2905:2906   */\n  0x00\n    /* \"#utility.yul\":2897:2903   */\n  dup3\n    /* \"#utility.yul\":2893:2907   */\n  add\n    /* \"#utility.yul\":2886:2940   */\n  mstore\n    /* \"#utility.yul\":2769:2947   */\n  pop\n  jump\t// out\n    /* \"#utility.yul\":2953:3075   */\ntag_13:\n    /* \"#utility.yul\":3026:3050   */\n  tag_53\n    /* \"#utility.yul\":3044:3049   */\n  dup2\n    /* \"#utility.yul\":3026:3050   */\n  tag_44\n  jump\t// in\ntag_53:\n    /* \"#utility.yul\":3019:3024   */\n  dup2\n    /* \"#utility.yul\":3016:3051   */\n  eq\n    /* \"#utility.yul\":3006:3069   */\n  tag_54\n  jumpi\n    /* \"#utility.yul\":3065:3066   */\n  0x00\n    /* \"#utility.yul\":3062:3063   */\n  dup1\n    /* \"#utility.yul\":3055:3067   */\n  revert\n    /* \"#utility.yul\":3006:3069   */\ntag_54:\n    /* \"#utility.yul\":2953:3075   */\n  pop\n  jump\t// out\n    /* \"contracts/LendingPoolGate.sol\":423:5140  contract LendingPoolGate {... */\ntag_8:\n  dataSize(sub_0)\n  dup1\n  dataOffset(sub_0)\n  0x00\n  codecopy\n  0x00\n  return\nstop\n\nsub_0: assembly {\n        /* \"contracts/LendingPoolGate.sol\":423:5140  contract LendingPoolGate {... */\n      mstore(0x40, 0x80)\n      callvalue\n      dup1\n      iszero\n      tag_1\n      jumpi\n      0x00\n      dup1\n      revert\n    tag_1:\n      pop\n      jumpi(tag_2, lt(calldatasize, 0x04))\n      shr(0xe0, calldataload(0x00))\n      dup1\n      0x317549f2\n      eq\n      tag_3\n      jumpi\n      dup1\n      0x89f78c8e\n      eq\n      tag_4\n      jumpi\n      dup1\n      0x9dc61d4f\n      eq\n      tag_5\n      jumpi\n      dup1\n      0xac446002\n      eq\n      tag_6\n      jumpi\n      dup1\n      0xbc134ae3\n      eq\n      tag_7\n      jumpi\n      dup1\n      0xcbc20f30\n      eq\n      tag_8\n      jumpi\n    tag_2:\n      0x00\n      dup1\n      revert\n        /* \"contracts/LendingPoolGate.sol\":1880:2809  function append2WhiteList(address contract_address) ... */\n    tag_3:\n      tag_9\n      0x04\n      dup1\n      calldatasize\n      sub\n      dup2\n      add\n      swap1\n      tag_10\n      swap2\n      swap1\n      tag_11\n      jump\t// in\n    tag_10:\n      tag_12\n      jump\t// in\n    tag_9:\n      mload(0x40)\n      tag_13\n      swap3\n      swap2\n      swap1\n      tag_14\n      jump\t// in\n    tag_13:\n      mload(0x40)\n      dup1\n      swap2\n      sub\n      swap1\n      return\n        /* \"contracts/LendingPoolGate.sol\":593:617  uint256 public max_nuser */\n    tag_4:\n      tag_15\n      tag_16\n      jump\t// in\n    tag_15:\n      mload(0x40)\n      tag_17\n      swap2\n      swap1\n      tag_18\n      jump\t// in\n    tag_17:\n      mload(0x40)\n      dup1\n      swap2\n      sub\n      swap1\n      return\n        /* \"contracts/LendingPoolGate.sol\":488:518  address public parent_contract */\n    tag_5:\n      tag_19\n      tag_20\n      jump\t// in\n    tag_19:\n      mload(0x40)\n      tag_21\n      swap2\n      swap1\n      tag_22\n      jump\t// in\n    tag_21:\n      mload(0x40)\n      dup1\n      swap2\n      sub\n      swap1\n      return\n        /* \"contracts/LendingPoolGate.sol\":4384:4684  function withdrawMoney() public{... */\n    tag_6:\n      tag_23\n      tag_24\n      jump\t// in\n    tag_23:\n      stop\n        /* \"contracts/LendingPoolGate.sol\":3763:4378  function payDapp(uint256 requester_id, ... */\n    tag_7:\n      tag_25\n      0x04\n      dup1\n      calldatasize\n      sub\n      dup2\n      add\n      swap1\n      tag_26\n      swap2\n      swap1\n      tag_27\n      jump\t// in\n    tag_26:\n      tag_28\n      jump\t// in\n    tag_25:\n      mload(0x40)\n      tag_29\n      swap2\n      swap1\n      tag_30\n      jump\t// in\n    tag_29:\n      mload(0x40)\n      dup1\n      swap2\n      sub\n      swap1\n      return\n        /* \"contracts/LendingPoolGate.sol\":3029:3323  function deleteFromWhiteList(uint256 id) ... */\n    tag_8:\n      tag_31\n      0x04\n      dup1\n      calldatasize\n      sub\n      dup2\n      add\n      swap1\n      tag_32\n      swap2\n      swap1\n      tag_33\n      jump\t// in\n    tag_32:\n      tag_34\n      jump\t// in\n    tag_31:\n      stop\n        /* \"contracts/LendingPoolGate.sol\":1880:2809  function append2WhiteList(address contract_address) ... */\n    tag_12:\n        /* \"contracts/LendingPoolGate.sol\":1984:1991  uint256 */\n      0x00\n        /* \"contracts/LendingPoolGate.sol\":1993:1997  bool */\n      dup1\n        /* \"contracts/LendingPoolGate.sol\":1198:1213  parent_contract */\n      0x00\n      dup1\n      sload\n      swap1\n      0x0100\n      exp\n      swap1\n      div\n      0xffffffffffffffffffffffffffffffffffffffff\n      and\n        /* \"contracts/LendingPoolGate.sol\":1184:1213  msg.sender == parent_contract */\n      0xffffffffffffffffffffffffffffffffffffffff\n      and\n        /* \"contracts/LendingPoolGate.sol\":1184:1194  msg.sender */\n      caller\n        /* \"contracts/LendingPoolGate.sol\":1184:1213  msg.sender == parent_contract */\n      0xffffffffffffffffffffffffffffffffffffffff\n      and\n      eq\n        /* \"contracts/LendingPoolGate.sol\":1176:1263  require(msg.sender == parent_contract, \"Only creating contract can call this function\") */\n      tag_36\n      jumpi\n      mload(0x40)\n      0x08c379a000000000000000000000000000000000000000000000000000000000\n      dup2\n      mstore\n      0x04\n      add\n      tag_37\n      swap1\n      tag_38\n      jump\t// in\n    tag_37:\n      mload(0x40)\n      dup1\n      swap2\n      sub\n      swap1\n      revert\n    tag_36:\n        /* \"contracts/LendingPoolGate.sol\":2049:2058  max_nuser */\n      sload(0x03)\n        /* \"contracts/LendingPoolGate.sol\":2029:2039  users_list */\n      0x01\n        /* \"contracts/LendingPoolGate.sol\":2029:2046  users_list.length */\n      dup1\n      sload\n      swap1\n      pop\n        /* \"contracts/LendingPoolGate.sol\":2029:2058  users_list.length < max_nuser */\n      lt\n        /* \"contracts/LendingPoolGate.sol\":2029:2085  users_list.length < max_nuser || freed_index.length != 0 */\n      dup1\n      tag_40\n      jumpi\n      pop\n        /* \"contracts/LendingPoolGate.sol\":2084:2085  0 */\n      0x00\n        /* \"contracts/LendingPoolGate.sol\":2062:2073  freed_index */\n      0x02\n        /* \"contracts/LendingPoolGate.sol\":2062:2080  freed_index.length */\n      dup1\n      sload\n      swap1\n      pop\n        /* \"contracts/LendingPoolGate.sol\":2062:2085  freed_index.length != 0 */\n      eq\n      iszero\n        /* \"contracts/LendingPoolGate.sol\":2029:2085  users_list.length < max_nuser || freed_index.length != 0 */\n    tag_40:\n        /* \"contracts/LendingPoolGate.sol\":2021:2108  require(users_list.length < max_nuser || freed_index.length != 0, \"White list is full\") */\n      tag_41\n      jumpi\n      mload(0x40)\n      0x08c379a000000000000000000000000000000000000000000000000000000000\n      dup2\n      mstore\n      0x04\n      add\n      tag_42\n      swap1\n      tag_43\n      jump\t// in\n    tag_42:\n      mload(0x40)\n      dup1\n      swap2\n      sub\n      swap1\n      revert\n    tag_41:\n        /* \"contracts/LendingPoolGate.sol\":2144:2145  0 */\n      0x00\n        /* \"contracts/LendingPoolGate.sol\":2122:2133  freed_index */\n      0x02\n        /* \"contracts/LendingPoolGate.sol\":2122:2140  freed_index.length */\n      dup1\n      sload\n      swap1\n      pop\n        /* \"contracts/LendingPoolGate.sol\":2122:2145  freed_index.length != 0 */\n      eq\n        /* \"contracts/LendingPoolGate.sol\":2118:2793  if (freed_index.length != 0){... */\n      tag_44\n      jumpi\n        /* \"contracts/LendingPoolGate.sol\":2160:2170  uint256 id */\n      0x00\n        /* \"contracts/LendingPoolGate.sol\":2173:2184  freed_index */\n      0x02\n        /* \"contracts/LendingPoolGate.sol\":2185:2210  freed_index.length.sub(1) */\n      tag_45\n        /* \"contracts/LendingPoolGate.sol\":2208:2209  1 */\n      0x01\n        /* \"contracts/LendingPoolGate.sol\":2185:2196  freed_index */\n      0x02\n        /* \"contracts/LendingPoolGate.sol\":2185:2203  freed_index.length */\n      dup1\n      sload\n      swap1\n      pop\n        /* \"contracts/LendingPoolGate.sol\":2185:2207  freed_index.length.sub */\n      tag_46\n      swap1\n        /* \"contracts/LendingPoolGate.sol\":2185:2210  freed_index.length.sub(1) */\n      swap2\n      swap1\n      0xffffffff\n      and\n      jump\t// in\n    tag_45:\n        /* \"contracts/LendingPoolGate.sol\":2173:2211  freed_index[freed_index.length.sub(1)] */\n      dup2\n      sload\n      dup2\n      lt\n      tag_47\n      jumpi\n      tag_48\n      tag_49\n      jump\t// in\n    tag_48:\n    tag_47:\n      swap1\n      0x00\n      mstore\n      keccak256(0x00, 0x20)\n      add\n      sload\n        /* \"contracts/LendingPoolGate.sol\":2160:2211  uint256 id = freed_index[freed_index.length.sub(1)] */\n      swap1\n      pop\n        /* \"contracts/LendingPoolGate.sol\":2242:2258  contract_address */\n      dup4\n        /* \"contracts/LendingPoolGate.sol\":2225:2235  users_list */\n      0x01\n        /* \"contracts/LendingPoolGate.sol\":2236:2238  id */\n      dup3\n        /* \"contracts/LendingPoolGate.sol\":2225:2239  users_list[id] */\n      dup2\n      sload\n      dup2\n      lt\n      tag_51\n      jumpi\n      tag_52\n      tag_49\n      jump\t// in\n    tag_52:\n    tag_51:\n      swap1\n      0x00\n      mstore\n      keccak256(0x00, 0x20)\n      add\n      0x00\n        /* \"contracts/LendingPoolGate.sol\":2225:2258  users_list[id] = contract_address */\n      0x0100\n      exp\n      dup2\n      sload\n      dup2\n      0xffffffffffffffffffffffffffffffffffffffff\n      mul\n      not\n      and\n      swap1\n      dup4\n      0xffffffffffffffffffffffffffffffffffffffff\n      and\n      mul\n      or\n      swap1\n      sstore\n      pop\n        /* \"contracts/LendingPoolGate.sol\":2272:2283  freed_index */\n      0x02\n        /* \"contracts/LendingPoolGate.sol\":2272:2289  freed_index.pop() */\n      dup1\n      sload\n      dup1\n      tag_54\n      jumpi\n      tag_55\n      tag_56\n      jump\t// in\n    tag_55:\n    tag_54:\n      0x01\n      swap1\n      sub\n      dup2\n      dup2\n      swap1\n      0x00\n      mstore\n      keccak256(0x00, 0x20)\n      add\n      0x00\n      swap1\n      sstore\n      swap1\n      sstore\n        /* \"contracts/LendingPoolGate.sol\":2308:2375  LendingPoolGateMessage(\"Added to white list\", contract_address, id) */\n      0x2cce1494b4ef3c5682648d5c4bbf147548f403fc2ac218e41ec797babdb0acb5\n        /* \"contracts/LendingPoolGate.sol\":2354:2370  contract_address */\n      dup5\n        /* \"contracts/LendingPoolGate.sol\":2372:2374  id */\n      dup3\n        /* \"contracts/LendingPoolGate.sol\":2308:2375  LendingPoolGateMessage(\"Added to white list\", contract_address, id) */\n      mload(0x40)\n      tag_58\n      swap3\n      swap2\n      swap1\n      tag_59\n      jump\t// in\n    tag_58:\n      mload(0x40)\n      dup1\n      swap2\n      sub\n      swap1\n      log1\n        /* \"contracts/LendingPoolGate.sol\":2397:2399  id */\n      dup1\n        /* \"contracts/LendingPoolGate.sol\":2421:2430  max_nuser */\n      sload(0x03)\n        /* \"contracts/LendingPoolGate.sol\":2401:2411  users_list */\n      0x01\n        /* \"contracts/LendingPoolGate.sol\":2401:2418  users_list.length */\n      dup1\n      sload\n      swap1\n      pop\n        /* \"contracts/LendingPoolGate.sol\":2401:2430  users_list.length < max_nuser */\n      lt\n        /* \"contracts/LendingPoolGate.sol\":2401:2457  users_list.length < max_nuser || freed_index.length != 0 */\n      dup1\n      tag_60\n      jumpi\n      pop\n        /* \"contracts/LendingPoolGate.sol\":2456:2457  0 */\n      0x00\n        /* \"contracts/LendingPoolGate.sol\":2434:2445  freed_index */\n      0x02\n        /* \"contracts/LendingPoolGate.sol\":2434:2452  freed_index.length */\n      dup1\n      sload\n      swap1\n      pop\n        /* \"contracts/LendingPoolGate.sol\":2434:2457  freed_index.length != 0 */\n      eq\n      iszero\n        /* \"contracts/LendingPoolGate.sol\":2401:2457  users_list.length < max_nuser || freed_index.length != 0 */\n    tag_60:\n        /* \"contracts/LendingPoolGate.sol\":2389:2458  return (id, users_list.length < max_nuser || freed_index.length != 0) */\n      swap3\n      pop\n      swap3\n      pop\n      pop\n      jump(tag_39)\n        /* \"contracts/LendingPoolGate.sol\":2118:2793  if (freed_index.length != 0){... */\n    tag_44:\n        /* \"contracts/LendingPoolGate.sol\":2536:2546  users_list */\n      0x01\n        /* \"contracts/LendingPoolGate.sol\":2552:2568  contract_address */\n      dup4\n        /* \"contracts/LendingPoolGate.sol\":2536:2569  users_list.push(contract_address) */\n      swap1\n      dup1\n      0x01\n      dup2\n      sload\n      add\n      dup1\n      dup3\n      sstore\n      dup1\n      swap2\n      pop\n      pop\n      0x01\n      swap1\n      sub\n      swap1\n      0x00\n      mstore\n      keccak256(0x00, 0x20)\n      add\n      0x00\n      swap1\n      swap2\n      swap1\n      swap2\n      swap1\n      swap2\n      0x0100\n      exp\n      dup2\n      sload\n      dup2\n      0xffffffffffffffffffffffffffffffffffffffff\n      mul\n      not\n      and\n      swap1\n      dup4\n      0xffffffffffffffffffffffffffffffffffffffff\n      and\n      mul\n      or\n      swap1\n      sstore\n      pop\n        /* \"contracts/LendingPoolGate.sol\":2588:2677  LendingPoolGateMessage(\"Added to white list\", contract_address, users_list.length.sub(1)) */\n      0x2cce1494b4ef3c5682648d5c4bbf147548f403fc2ac218e41ec797babdb0acb5\n        /* \"contracts/LendingPoolGate.sol\":2634:2650  contract_address */\n      dup4\n        /* \"contracts/LendingPoolGate.sol\":2652:2676  users_list.length.sub(1) */\n      tag_63\n        /* \"contracts/LendingPoolGate.sol\":2674:2675  1 */\n      0x01\n        /* \"contracts/LendingPoolGate.sol\":2652:2662  users_list */\n      dup1\n        /* \"contracts/LendingPoolGate.sol\":2652:2669  users_list.length */\n      dup1\n      sload\n      swap1\n      pop\n        /* \"contracts/LendingPoolGate.sol\":2652:2673  users_list.length.sub */\n      tag_46\n      swap1\n        /* \"contracts/LendingPoolGate.sol\":2652:2676  users_list.length.sub(1) */\n      swap2\n      swap1\n      0xffffffff\n      and\n      jump\t// in\n    tag_63:\n        /* \"contracts/LendingPoolGate.sol\":2588:2677  LendingPoolGateMessage(\"Added to white list\", contract_address, users_list.length.sub(1)) */\n      mload(0x40)\n      tag_64\n      swap3\n      swap2\n      swap1\n      tag_59\n      jump\t// in\n    tag_64:\n      mload(0x40)\n      dup1\n      swap2\n      sub\n      swap1\n      log1\n        /* \"contracts/LendingPoolGate.sol\":2699:2723  users_list.length.sub(1) */\n      tag_65\n        /* \"contracts/LendingPoolGate.sol\":2721:2722  1 */\n      0x01\n        /* \"contracts/LendingPoolGate.sol\":2699:2709  users_list */\n      dup1\n        /* \"contracts/LendingPoolGate.sol\":2699:2716  users_list.length */\n      dup1\n      sload\n      swap1\n      pop\n        /* \"contracts/LendingPoolGate.sol\":2699:2720  users_list.length.sub */\n      tag_46\n      swap1\n        /* \"contracts/LendingPoolGate.sol\":2699:2723  users_list.length.sub(1) */\n      swap2\n      swap1\n      0xffffffff\n      and\n      jump\t// in\n    tag_65:\n        /* \"contracts/LendingPoolGate.sol\":2745:2754  max_nuser */\n      sload(0x03)\n        /* \"contracts/LendingPoolGate.sol\":2725:2735  users_list */\n      0x01\n        /* \"contracts/LendingPoolGate.sol\":2725:2742  users_list.length */\n      dup1\n      sload\n      swap1\n      pop\n        /* \"contracts/LendingPoolGate.sol\":2725:2754  users_list.length < max_nuser */\n      lt\n        /* \"contracts/LendingPoolGate.sol\":2725:2781  users_list.length < max_nuser || freed_index.length != 0 */\n      dup1\n      tag_66\n      jumpi\n      pop\n        /* \"contracts/LendingPoolGate.sol\":2780:2781  0 */\n      0x00\n        /* \"contracts/LendingPoolGate.sol\":2758:2769  freed_index */\n      0x02\n        /* \"contracts/LendingPoolGate.sol\":2758:2776  freed_index.length */\n      dup1\n      sload\n      swap1\n      pop\n        /* \"contracts/LendingPoolGate.sol\":2758:2781  freed_index.length != 0 */\n      eq\n      iszero\n        /* \"contracts/LendingPoolGate.sol\":2725:2781  users_list.length < max_nuser || freed_index.length != 0 */\n    tag_66:\n        /* \"contracts/LendingPoolGate.sol\":2691:2782  return (users_list.length.sub(1), users_list.length < max_nuser || freed_index.length != 0) */\n      swap2\n      pop\n      swap2\n      pop\n        /* \"contracts/LendingPoolGate.sol\":1273:1274  _ */\n    tag_39:\n        /* \"contracts/LendingPoolGate.sol\":1880:2809  function append2WhiteList(address contract_address) ... */\n      swap2\n      pop\n      swap2\n      jump\t// out\n        /* \"contracts/LendingPoolGate.sol\":593:617  uint256 public max_nuser */\n    tag_16:\n      sload(0x03)\n      dup2\n      jump\t// out\n        /* \"contracts/LendingPoolGate.sol\":488:518  address public parent_contract */\n    tag_20:\n      0x00\n      dup1\n      sload\n      swap1\n      0x0100\n      exp\n      swap1\n      div\n      0xffffffffffffffffffffffffffffffffffffffff\n      and\n      dup2\n      jump\t// out\n        /* \"contracts/LendingPoolGate.sol\":4384:4684  function withdrawMoney() public{... */\n    tag_24:\n        /* \"contracts/LendingPoolGate.sol\":4425:4439  uint256 amount */\n      0x00\n        /* \"contracts/LendingPoolGate.sol\":4442:4460  pendingWithdrawals */\n      0x04\n        /* \"contracts/LendingPoolGate.sol\":4442:4472  pendingWithdrawals[msg.sender] */\n      0x00\n        /* \"contracts/LendingPoolGate.sol\":4461:4471  msg.sender */\n      caller\n        /* \"contracts/LendingPoolGate.sol\":4442:4472  pendingWithdrawals[msg.sender] */\n      0xffffffffffffffffffffffffffffffffffffffff\n      and\n      0xffffffffffffffffffffffffffffffffffffffff\n      and\n      dup2\n      mstore\n      0x20\n      add\n      swap1\n      dup2\n      mstore\n      0x20\n      add\n      0x00\n      keccak256\n      sload\n        /* \"contracts/LendingPoolGate.sol\":4425:4472  uint256 amount = pendingWithdrawals[msg.sender] */\n      swap1\n      pop\n        /* \"contracts/LendingPoolGate.sol\":4619:4620  0 */\n      0x00\n        /* \"contracts/LendingPoolGate.sol\":4586:4604  pendingWithdrawals */\n      0x04\n        /* \"contracts/LendingPoolGate.sol\":4586:4616  pendingWithdrawals[msg.sender] */\n      0x00\n        /* \"contracts/LendingPoolGate.sol\":4605:4615  msg.sender */\n      caller\n        /* \"contracts/LendingPoolGate.sol\":4586:4616  pendingWithdrawals[msg.sender] */\n      0xffffffffffffffffffffffffffffffffffffffff\n      and\n      0xffffffffffffffffffffffffffffffffffffffff\n      and\n      dup2\n      mstore\n      0x20\n      add\n      swap1\n      dup2\n      mstore\n      0x20\n      add\n      0x00\n      keccak256\n        /* \"contracts/LendingPoolGate.sol\":4586:4620  pendingWithdrawals[msg.sender] = 0 */\n      dup2\n      swap1\n      sstore\n      pop\n        /* \"contracts/LendingPoolGate.sol\":4638:4648  msg.sender */\n      caller\n        /* \"contracts/LendingPoolGate.sol\":4630:4658  payable(msg.sender).transfer */\n      0xffffffffffffffffffffffffffffffffffffffff\n      and\n        /* \"contracts/LendingPoolGate.sol\":4630:4666  payable(msg.sender).transfer(amount) */\n      0x08fc\n        /* \"contracts/LendingPoolGate.sol\":4659:4665  amount */\n      dup3\n        /* \"contracts/LendingPoolGate.sol\":4630:4666  payable(msg.sender).transfer(amount) */\n      swap1\n      dup2\n      iszero\n      mul\n      swap1\n      mload(0x40)\n      0x00\n      mload(0x40)\n      dup1\n      dup4\n      sub\n      dup2\n      dup6\n      dup9\n      dup9\n      call\n      swap4\n      pop\n      pop\n      pop\n      pop\n      iszero\n      dup1\n      iszero\n      tag_69\n      jumpi\n      returndatasize\n      0x00\n      dup1\n      returndatacopy\n      revert(0x00, returndatasize)\n    tag_69:\n      pop\n        /* \"contracts/LendingPoolGate.sol\":4415:4684  {... */\n      pop\n        /* \"contracts/LendingPoolGate.sol\":4384:4684  function withdrawMoney() public{... */\n      jump\t// out\n        /* \"contracts/LendingPoolGate.sol\":3763:4378  function payDapp(uint256 requester_id, ... */\n    tag_28:\n        /* \"contracts/LendingPoolGate.sol\":3923:3927  bool */\n      0x00\n        /* \"contracts/LendingPoolGate.sol\":3878:3890  requester_id */\n      dup4\n        /* \"contracts/LendingPoolGate.sol\":899:909  users_list */\n      0x01\n        /* \"contracts/LendingPoolGate.sol\":899:916  users_list.length */\n      dup1\n      sload\n      swap1\n      pop\n        /* \"contracts/LendingPoolGate.sol\":884:896  requester_id */\n      dup2\n        /* \"contracts/LendingPoolGate.sol\":884:916  requester_id < users_list.length */\n      lt\n        /* \"contracts/LendingPoolGate.sol\":876:917  require(requester_id < users_list.length) */\n      tag_71\n      jumpi\n      0x00\n      dup1\n      revert\n    tag_71:\n        /* \"contracts/LendingPoolGate.sol\":971:974  0x0 */\n      0x00\n        /* \"contracts/LendingPoolGate.sol\":935:975  users_list[requester_id] != address(0x0) */\n      0xffffffffffffffffffffffffffffffffffffffff\n      and\n        /* \"contracts/LendingPoolGate.sol\":935:945  users_list */\n      0x01\n        /* \"contracts/LendingPoolGate.sol\":946:958  requester_id */\n      dup3\n        /* \"contracts/LendingPoolGate.sol\":935:959  users_list[requester_id] */\n      dup2\n      sload\n      dup2\n      lt\n      tag_72\n      jumpi\n      tag_73\n      tag_49\n      jump\t// in\n    tag_73:\n    tag_72:\n      swap1\n      0x00\n      mstore\n      keccak256(0x00, 0x20)\n      add\n      0x00\n      swap1\n      sload\n      swap1\n      0x0100\n      exp\n      swap1\n      div\n      0xffffffffffffffffffffffffffffffffffffffff\n      and\n        /* \"contracts/LendingPoolGate.sol\":935:975  users_list[requester_id] != address(0x0) */\n      0xffffffffffffffffffffffffffffffffffffffff\n      and\n      eq\n      iszero\n        /* \"contracts/LendingPoolGate.sol\":927:996  require(users_list[requester_id] != address(0x0), \"Deleted Contract\") */\n      tag_75\n      jumpi\n      mload(0x40)\n      0x08c379a000000000000000000000000000000000000000000000000000000000\n      dup2\n      mstore\n      0x04\n      add\n      tag_76\n      swap1\n      tag_77\n      jump\t// in\n    tag_76:\n      mload(0x40)\n      dup1\n      swap2\n      sub\n      swap1\n      revert\n    tag_75:\n        /* \"contracts/LendingPoolGate.sol\":1028:1038  users_list */\n      0x01\n        /* \"contracts/LendingPoolGate.sol\":1039:1051  requester_id */\n      dup2\n        /* \"contracts/LendingPoolGate.sol\":1028:1052  users_list[requester_id] */\n      dup2\n      sload\n      dup2\n      lt\n      tag_78\n      jumpi\n      tag_79\n      tag_49\n      jump\t// in\n    tag_79:\n    tag_78:\n      swap1\n      0x00\n      mstore\n      keccak256(0x00, 0x20)\n      add\n      0x00\n      swap1\n      sload\n      swap1\n      0x0100\n      exp\n      swap1\n      div\n      0xffffffffffffffffffffffffffffffffffffffff\n      and\n        /* \"contracts/LendingPoolGate.sol\":1014:1052  msg.sender == users_list[requester_id] */\n      0xffffffffffffffffffffffffffffffffffffffff\n      and\n        /* \"contracts/LendingPoolGate.sol\":1014:1024  msg.sender */\n      caller\n        /* \"contracts/LendingPoolGate.sol\":1014:1052  msg.sender == users_list[requester_id] */\n      0xffffffffffffffffffffffffffffffffffffffff\n      and\n      eq\n        /* \"contracts/LendingPoolGate.sol\":1006:1120  require(msg.sender == users_list[requester_id], \"Smart contract not allowed to withdraw money throught this gate\") */\n      tag_81\n      jumpi\n      mload(0x40)\n      0x08c379a000000000000000000000000000000000000000000000000000000000\n      dup2\n      mstore\n      0x04\n      add\n      tag_82\n      swap1\n      tag_83\n      jump\t// in\n    tag_82:\n      mload(0x40)\n      dup1\n      swap2\n      sub\n      swap1\n      revert\n    tag_81:\n        /* \"contracts/LendingPoolGate.sol\":4268:4286  withdrawFromPool() */\n      tag_85\n        /* \"contracts/LendingPoolGate.sol\":4268:4284  withdrawFromPool */\n      tag_86\n        /* \"contracts/LendingPoolGate.sol\":4268:4286  withdrawFromPool() */\n      jump\t// in\n    tag_85:\n        /* \"contracts/LendingPoolGate.sol\":4335:4341  amount */\n      dup3\n        /* \"contracts/LendingPoolGate.sol\":4296:4314  pendingWithdrawals */\n      0x04\n        /* \"contracts/LendingPoolGate.sol\":4296:4332  pendingWithdrawals[reciever_address] */\n      0x00\n        /* \"contracts/LendingPoolGate.sol\":4315:4331  reciever_address */\n      dup7\n        /* \"contracts/LendingPoolGate.sol\":4296:4332  pendingWithdrawals[reciever_address] */\n      0xffffffffffffffffffffffffffffffffffffffff\n      and\n      0xffffffffffffffffffffffffffffffffffffffff\n      and\n      dup2\n      mstore\n      0x20\n      add\n      swap1\n      dup2\n      mstore\n      0x20\n      add\n      0x00\n      keccak256\n        /* \"contracts/LendingPoolGate.sol\":4296:4341  pendingWithdrawals[reciever_address] = amount */\n      dup2\n      swap1\n      sstore\n      pop\n        /* \"contracts/LendingPoolGate.sol\":4367:4371  true */\n      0x01\n        /* \"contracts/LendingPoolGate.sol\":4360:4371  return true */\n      swap2\n      pop\n        /* \"contracts/LendingPoolGate.sol\":3763:4378  function payDapp(uint256 requester_id, ... */\n      pop\n      swap4\n      swap3\n      pop\n      pop\n      pop\n      jump\t// out\n        /* \"contracts/LendingPoolGate.sol\":3029:3323  function deleteFromWhiteList(uint256 id) ... */\n    tag_34:\n        /* \"contracts/LendingPoolGate.sol\":1198:1213  parent_contract */\n      0x00\n      dup1\n      sload\n      swap1\n      0x0100\n      exp\n      swap1\n      div\n      0xffffffffffffffffffffffffffffffffffffffff\n      and\n        /* \"contracts/LendingPoolGate.sol\":1184:1213  msg.sender == parent_contract */\n      0xffffffffffffffffffffffffffffffffffffffff\n      and\n        /* \"contracts/LendingPoolGate.sol\":1184:1194  msg.sender */\n      caller\n        /* \"contracts/LendingPoolGate.sol\":1184:1213  msg.sender == parent_contract */\n      0xffffffffffffffffffffffffffffffffffffffff\n      and\n      eq\n        /* \"contracts/LendingPoolGate.sol\":1176:1263  require(msg.sender == parent_contract, \"Only creating contract can call this function\") */\n      tag_88\n      jumpi\n      mload(0x40)\n      0x08c379a000000000000000000000000000000000000000000000000000000000\n      dup2\n      mstore\n      0x04\n      add\n      tag_89\n      swap1\n      tag_38\n      jump\t// in\n    tag_89:\n      mload(0x40)\n      dup1\n      swap2\n      sub\n      swap1\n      revert\n    tag_88:\n        /* \"contracts/LendingPoolGate.sol\":3132:3142  users_list */\n      0x01\n        /* \"contracts/LendingPoolGate.sol\":3132:3149  users_list.length */\n      dup1\n      sload\n      swap1\n      pop\n        /* \"contracts/LendingPoolGate.sol\":3127:3129  id */\n      dup2\n        /* \"contracts/LendingPoolGate.sol\":3127:3149  id < users_list.length */\n      lt\n        /* \"contracts/LendingPoolGate.sol\":3119:3171  require(id < users_list.length, 'Token not created') */\n      tag_91\n      jumpi\n      mload(0x40)\n      0x08c379a000000000000000000000000000000000000000000000000000000000\n      dup2\n      mstore\n      0x04\n      add\n      tag_92\n      swap1\n      tag_93\n      jump\t// in\n    tag_92:\n      mload(0x40)\n      dup1\n      swap2\n      sub\n      swap1\n      revert\n    tag_91:\n        /* \"contracts/LendingPoolGate.sol\":3215:3218  0x0 */\n      0x00\n        /* \"contracts/LendingPoolGate.sol\":3189:3219  users_list[id] != address(0x0) */\n      0xffffffffffffffffffffffffffffffffffffffff\n      and\n        /* \"contracts/LendingPoolGate.sol\":3189:3199  users_list */\n      0x01\n        /* \"contracts/LendingPoolGate.sol\":3200:3202  id */\n      dup3\n        /* \"contracts/LendingPoolGate.sol\":3189:3203  users_list[id] */\n      dup2\n      sload\n      dup2\n      lt\n      tag_94\n      jumpi\n      tag_95\n      tag_49\n      jump\t// in\n    tag_95:\n    tag_94:\n      swap1\n      0x00\n      mstore\n      keccak256(0x00, 0x20)\n      add\n      0x00\n      swap1\n      sload\n      swap1\n      0x0100\n      exp\n      swap1\n      div\n      0xffffffffffffffffffffffffffffffffffffffff\n      and\n        /* \"contracts/LendingPoolGate.sol\":3189:3219  users_list[id] != address(0x0) */\n      0xffffffffffffffffffffffffffffffffffffffff\n      and\n      eq\n      iszero\n        /* \"contracts/LendingPoolGate.sol\":3181:3247  require(users_list[id] != address(0x0), \"account already deleted\") */\n      tag_97\n      jumpi\n      mload(0x40)\n      0x08c379a000000000000000000000000000000000000000000000000000000000\n      dup2\n      mstore\n      0x04\n      add\n      tag_98\n      swap1\n      tag_99\n      jump\t// in\n    tag_98:\n      mload(0x40)\n      dup1\n      swap2\n      sub\n      swap1\n      revert\n    tag_97:\n        /* \"contracts/LendingPoolGate.sol\":3282:3285  0x0 */\n      0x00\n        /* \"contracts/LendingPoolGate.sol\":3257:3267  users_list */\n      0x01\n        /* \"contracts/LendingPoolGate.sol\":3268:3270  id */\n      dup3\n        /* \"contracts/LendingPoolGate.sol\":3257:3271  users_list[id] */\n      dup2\n      sload\n      dup2\n      lt\n      tag_100\n      jumpi\n      tag_101\n      tag_49\n      jump\t// in\n    tag_101:\n    tag_100:\n      swap1\n      0x00\n      mstore\n      keccak256(0x00, 0x20)\n      add\n      0x00\n        /* \"contracts/LendingPoolGate.sol\":3257:3286  users_list[id] = address(0x0) */\n      0x0100\n      exp\n      dup2\n      sload\n      dup2\n      0xffffffffffffffffffffffffffffffffffffffff\n      mul\n      not\n      and\n      swap1\n      dup4\n      0xffffffffffffffffffffffffffffffffffffffff\n      and\n      mul\n      or\n      swap1\n      sstore\n      pop\n        /* \"contracts/LendingPoolGate.sol\":3296:3307  freed_index */\n      0x02\n        /* \"contracts/LendingPoolGate.sol\":3313:3315  id */\n      dup2\n        /* \"contracts/LendingPoolGate.sol\":3296:3316  freed_index.push(id) */\n      swap1\n      dup1\n      0x01\n      dup2\n      sload\n      add\n      dup1\n      dup3\n      sstore\n      dup1\n      swap2\n      pop\n      pop\n      0x01\n      swap1\n      sub\n      swap1\n      0x00\n      mstore\n      keccak256(0x00, 0x20)\n      add\n      0x00\n      swap1\n      swap2\n      swap1\n      swap2\n      swap1\n      swap2\n      pop\n      sstore\n        /* \"contracts/LendingPoolGate.sol\":3029:3323  function deleteFromWhiteList(uint256 id) ... */\n      pop\n      jump\t// out\n        /* \"contracts/SafeMath.sol\":226:364  function sub(uint256 a, uint256 b) internal pure returns (uint256 c) {... */\n    tag_46:\n        /* \"contracts/SafeMath.sol\":284:293  uint256 c */\n      0x00\n        /* \"contracts/SafeMath.sol\":318:319  a */\n      dup3\n        /* \"contracts/SafeMath.sol\":313:314  b */\n      dup3\n        /* \"contracts/SafeMath.sol\":313:319  b <= a */\n      gt\n      iszero\n        /* \"contracts/SafeMath.sol\":305:320  require(b <= a) */\n      tag_105\n      jumpi\n      0x00\n      dup1\n      revert\n    tag_105:\n        /* \"contracts/SafeMath.sol\":338:339  b */\n      dup2\n        /* \"contracts/SafeMath.sol\":334:335  a */\n      dup4\n        /* \"contracts/SafeMath.sol\":334:339  a - b */\n      tag_106\n      swap2\n      swap1\n      tag_107\n      jump\t// in\n    tag_106:\n        /* \"contracts/SafeMath.sol\":330:339  c = a - b */\n      swap1\n      pop\n        /* \"contracts/SafeMath.sol\":226:364  function sub(uint256 a, uint256 b) internal pure returns (uint256 c) {... */\n      swap3\n      swap2\n      pop\n      pop\n      jump\t// out\n        /* \"contracts/LendingPoolGate.sol\":4690:5011  function withdrawFromPool() private{... */\n    tag_86:\n      jump\t// out\n        /* \"#utility.yul\":7:146   */\n    tag_110:\n        /* \"#utility.yul\":53:58   */\n      0x00\n        /* \"#utility.yul\":91:97   */\n      dup2\n        /* \"#utility.yul\":78:98   */\n      calldataload\n        /* \"#utility.yul\":69:98   */\n      swap1\n      pop\n        /* \"#utility.yul\":107:140   */\n      tag_112\n        /* \"#utility.yul\":134:139   */\n      dup2\n        /* \"#utility.yul\":107:140   */\n      tag_113\n      jump\t// in\n    tag_112:\n        /* \"#utility.yul\":7:146   */\n      swap3\n      swap2\n      pop\n      pop\n      jump\t// out\n        /* \"#utility.yul\":152:291   */\n    tag_114:\n        /* \"#utility.yul\":198:203   */\n      0x00\n        /* \"#utility.yul\":236:242   */\n      dup2\n        /* \"#utility.yul\":223:243   */\n      calldataload\n        /* \"#utility.yul\":214:243   */\n      swap1\n      pop\n        /* \"#utility.yul\":252:285   */\n      tag_116\n        /* \"#utility.yul\":279:284   */\n      dup2\n        /* \"#utility.yul\":252:285   */\n      tag_117\n      jump\t// in\n    tag_116:\n        /* \"#utility.yul\":152:291   */\n      swap3\n      swap2\n      pop\n      pop\n      jump\t// out\n        /* \"#utility.yul\":297:626   */\n    tag_11:\n        /* \"#utility.yul\":356:362   */\n      0x00\n        /* \"#utility.yul\":405:407   */\n      0x20\n        /* \"#utility.yul\":393:402   */\n      dup3\n        /* \"#utility.yul\":384:391   */\n      dup5\n        /* \"#utility.yul\":380:403   */\n      sub\n        /* \"#utility.yul\":376:408   */\n      slt\n        /* \"#utility.yul\":373:492   */\n      iszero\n      tag_119\n      jumpi\n        /* \"#utility.yul\":411:490   */\n      tag_120\n      tag_121\n      jump\t// in\n    tag_120:\n        /* \"#utility.yul\":373:492   */\n    tag_119:\n        /* \"#utility.yul\":531:532   */\n      0x00\n        /* \"#utility.yul\":556:609   */\n      tag_122\n        /* \"#utility.yul\":601:608   */\n      dup5\n        /* \"#utility.yul\":592:598   */\n      dup3\n        /* \"#utility.yul\":581:590   */\n      dup6\n        /* \"#utility.yul\":577:599   */\n      add\n        /* \"#utility.yul\":556:609   */\n      tag_110\n      jump\t// in\n    tag_122:\n        /* \"#utility.yul\":546:609   */\n      swap2\n      pop\n        /* \"#utility.yul\":502:619   */\n      pop\n        /* \"#utility.yul\":297:626   */\n      swap3\n      swap2\n      pop\n      pop\n      jump\t// out\n        /* \"#utility.yul\":632:961   */\n    tag_33:\n        /* \"#utility.yul\":691:697   */\n      0x00\n        /* \"#utility.yul\":740:742   */\n      0x20\n        /* \"#utility.yul\":728:737   */\n      dup3\n        /* \"#utility.yul\":719:726   */\n      dup5\n        /* \"#utility.yul\":715:738   */\n      sub\n        /* \"#utility.yul\":711:743   */\n      slt\n        /* \"#utility.yul\":708:827   */\n      iszero\n      tag_124\n      jumpi\n        /* \"#utility.yul\":746:825   */\n      tag_125\n      tag_121\n      jump\t// in\n    tag_125:\n        /* \"#utility.yul\":708:827   */\n    tag_124:\n        /* \"#utility.yul\":866:867   */\n      0x00\n        /* \"#utility.yul\":891:944   */\n      tag_126\n        /* \"#utility.yul\":936:943   */\n      dup5\n        /* \"#utility.yul\":927:933   */\n      dup3\n        /* \"#utility.yul\":916:925   */\n      dup6\n        /* \"#utility.yul\":912:934   */\n      add\n        /* \"#utility.yul\":891:944   */\n      tag_114\n      jump\t// in\n    tag_126:\n        /* \"#utility.yul\":881:944   */\n      swap2\n      pop\n        /* \"#utility.yul\":837:954   */\n      pop\n        /* \"#utility.yul\":632:961   */\n      swap3\n      swap2\n      pop\n      pop\n      jump\t// out\n        /* \"#utility.yul\":967:1586   */\n    tag_27:\n        /* \"#utility.yul\":1044:1050   */\n      0x00\n        /* \"#utility.yul\":1052:1058   */\n      dup1\n        /* \"#utility.yul\":1060:1066   */\n      0x00\n        /* \"#utility.yul\":1109:1111   */\n      0x60\n        /* \"#utility.yul\":1097:1106   */\n      dup5\n        /* \"#utility.yul\":1088:1095   */\n      dup7\n        /* \"#utility.yul\":1084:1107   */\n      sub\n        /* \"#utility.yul\":1080:1112   */\n      slt\n        /* \"#utility.yul\":1077:1196   */\n      iszero\n      tag_128\n      jumpi\n        /* \"#utility.yul\":1115:1194   */\n      tag_129\n      tag_121\n      jump\t// in\n    tag_129:\n        /* \"#utility.yul\":1077:1196   */\n    tag_128:\n        /* \"#utility.yul\":1235:1236   */\n      0x00\n        /* \"#utility.yul\":1260:1313   */\n      tag_130\n        /* \"#utility.yul\":1305:1312   */\n      dup7\n        /* \"#utility.yul\":1296:1302   */\n      dup3\n        /* \"#utility.yul\":1285:1294   */\n      dup8\n        /* \"#utility.yul\":1281:1303   */\n      add\n        /* \"#utility.yul\":1260:1313   */\n      tag_114\n      jump\t// in\n    tag_130:\n        /* \"#utility.yul\":1250:1313   */\n      swap4\n      pop\n        /* \"#utility.yul\":1206:1323   */\n      pop\n        /* \"#utility.yul\":1362:1364   */\n      0x20\n        /* \"#utility.yul\":1388:1441   */\n      tag_131\n        /* \"#utility.yul\":1433:1440   */\n      dup7\n        /* \"#utility.yul\":1424:1430   */\n      dup3\n        /* \"#utility.yul\":1413:1422   */\n      dup8\n        /* \"#utility.yul\":1409:1431   */\n      add\n        /* \"#utility.yul\":1388:1441   */\n      tag_110\n      jump\t// in\n    tag_131:\n        /* \"#utility.yul\":1378:1441   */\n      swap3\n      pop\n        /* \"#utility.yul\":1333:1451   */\n      pop\n        /* \"#utility.yul\":1490:1492   */\n      0x40\n        /* \"#utility.yul\":1516:1569   */\n      tag_132\n        /* \"#utility.yul\":1561:1568   */\n      dup7\n        /* \"#utility.yul\":1552:1558   */\n      dup3\n        /* \"#utility.yul\":1541:1550   */\n      dup8\n        /* \"#utility.yul\":1537:1559   */\n      add\n        /* \"#utility.yul\":1516:1569   */\n      tag_114\n      jump\t// in\n    tag_132:\n        /* \"#utility.yul\":1506:1569   */\n      swap2\n      pop\n        /* \"#utility.yul\":1461:1579   */\n      pop\n        /* \"#utility.yul\":967:1586   */\n      swap3\n      pop\n      swap3\n      pop\n      swap3\n      jump\t// out\n        /* \"#utility.yul\":1592:1710   */\n    tag_133:\n        /* \"#utility.yul\":1679:1703   */\n      tag_135\n        /* \"#utility.yul\":1697:1702   */\n      dup2\n        /* \"#utility.yul\":1679:1703   */\n      tag_136\n      jump\t// in\n    tag_135:\n        /* \"#utility.yul\":1674:1677   */\n      dup3\n        /* \"#utility.yul\":1667:1704   */\n      mstore\n        /* \"#utility.yul\":1592:1710   */\n      pop\n      pop\n      jump\t// out\n        /* \"#utility.yul\":1716:1825   */\n    tag_137:\n        /* \"#utility.yul\":1797:1818   */\n      tag_139\n        /* \"#utility.yul\":1812:1817   */\n      dup2\n        /* \"#utility.yul\":1797:1818   */\n      tag_140\n      jump\t// in\n    tag_139:\n        /* \"#utility.yul\":1792:1795   */\n      dup3\n        /* \"#utility.yul\":1785:1819   */\n      mstore\n        /* \"#utility.yul\":1716:1825   */\n      pop\n      pop\n      jump\t// out\n        /* \"#utility.yul\":1831:2197   */\n    tag_141:\n        /* \"#utility.yul\":1973:1976   */\n      0x00\n        /* \"#utility.yul\":1994:2061   */\n      tag_143\n        /* \"#utility.yul\":2058:2060   */\n      0x2d\n        /* \"#utility.yul\":2053:2056   */\n      dup4\n        /* \"#utility.yul\":1994:2061   */\n      tag_144\n      jump\t// in\n    tag_143:\n        /* \"#utility.yul\":1987:2061   */\n      swap2\n      pop\n        /* \"#utility.yul\":2070:2163   */\n      tag_145\n        /* \"#utility.yul\":2159:2162   */\n      dup3\n        /* \"#utility.yul\":2070:2163   */\n      tag_146\n      jump\t// in\n    tag_145:\n        /* \"#utility.yul\":2188:2190   */\n      0x40\n        /* \"#utility.yul\":2183:2186   */\n      dup3\n        /* \"#utility.yul\":2179:2191   */\n      add\n        /* \"#utility.yul\":2172:2191   */\n      swap1\n      pop\n        /* \"#utility.yul\":1831:2197   */\n      swap2\n      swap1\n      pop\n      jump\t// out\n        /* \"#utility.yul\":2203:2569   */\n    tag_147:\n        /* \"#utility.yul\":2345:2348   */\n      0x00\n        /* \"#utility.yul\":2366:2433   */\n      tag_149\n        /* \"#utility.yul\":2430:2432   */\n      0x17\n        /* \"#utility.yul\":2425:2428   */\n      dup4\n        /* \"#utility.yul\":2366:2433   */\n      tag_144\n      jump\t// in\n    tag_149:\n        /* \"#utility.yul\":2359:2433   */\n      swap2\n      pop\n        /* \"#utility.yul\":2442:2535   */\n      tag_150\n        /* \"#utility.yul\":2531:2534   */\n      dup3\n        /* \"#utility.yul\":2442:2535   */\n      tag_151\n      jump\t// in\n    tag_150:\n        /* \"#utility.yul\":2560:2562   */\n      0x20\n        /* \"#utility.yul\":2555:2558   */\n      dup3\n        /* \"#utility.yul\":2551:2563   */\n      add\n        /* \"#utility.yul\":2544:2563   */\n      swap1\n      pop\n        /* \"#utility.yul\":2203:2569   */\n      swap2\n      swap1\n      pop\n      jump\t// out\n        /* \"#utility.yul\":2575:2941   */\n    tag_152:\n        /* \"#utility.yul\":2717:2720   */\n      0x00\n        /* \"#utility.yul\":2738:2805   */\n      tag_154\n        /* \"#utility.yul\":2802:2804   */\n      0x12\n        /* \"#utility.yul\":2797:2800   */\n      dup4\n        /* \"#utility.yul\":2738:2805   */\n      tag_144\n      jump\t// in\n    tag_154:\n        /* \"#utility.yul\":2731:2805   */\n      swap2\n      pop\n        /* \"#utility.yul\":2814:2907   */\n      tag_155\n        /* \"#utility.yul\":2903:2906   */\n      dup3\n        /* \"#utility.yul\":2814:2907   */\n      tag_156\n      jump\t// in\n    tag_155:\n        /* \"#utility.yul\":2932:2934   */\n      0x20\n        /* \"#utility.yul\":2927:2930   */\n      dup3\n        /* \"#utility.yul\":2923:2935   */\n      add\n        /* \"#utility.yul\":2916:2935   */\n      swap1\n      pop\n        /* \"#utility.yul\":2575:2941   */\n      swap2\n      swap1\n      pop\n      jump\t// out\n        /* \"#utility.yul\":2947:3313   */\n    tag_157:\n        /* \"#utility.yul\":3089:3092   */\n      0x00\n        /* \"#utility.yul\":3110:3177   */\n      tag_159\n        /* \"#utility.yul\":3174:3176   */\n      0x3f\n        /* \"#utility.yul\":3169:3172   */\n      dup4\n        /* \"#utility.yul\":3110:3177   */\n      tag_144\n      jump\t// in\n    tag_159:\n        /* \"#utility.yul\":3103:3177   */\n      swap2\n      pop\n        /* \"#utility.yul\":3186:3279   */\n      tag_160\n        /* \"#utility.yul\":3275:3278   */\n      dup3\n        /* \"#utility.yul\":3186:3279   */\n      tag_161\n      jump\t// in\n    tag_160:\n        /* \"#utility.yul\":3304:3306   */\n      0x40\n        /* \"#utility.yul\":3299:3302   */\n      dup3\n        /* \"#utility.yul\":3295:3307   */\n      add\n        /* \"#utility.yul\":3288:3307   */\n      swap1\n      pop\n        /* \"#utility.yul\":2947:3313   */\n      swap2\n      swap1\n      pop\n      jump\t// out\n        /* \"#utility.yul\":3319:3685   */\n    tag_162:\n        /* \"#utility.yul\":3461:3464   */\n      0x00\n        /* \"#utility.yul\":3482:3549   */\n      tag_164\n        /* \"#utility.yul\":3546:3548   */\n      0x11\n        /* \"#utility.yul\":3541:3544   */\n      dup4\n        /* \"#utility.yul\":3482:3549   */\n      tag_144\n      jump\t// in\n    tag_164:\n        /* \"#utility.yul\":3475:3549   */\n      swap2\n      pop\n        /* \"#utility.yul\":3558:3651   */\n      tag_165\n        /* \"#utility.yul\":3647:3650   */\n      dup3\n        /* \"#utility.yul\":3558:3651   */\n      tag_166\n      jump\t// in\n    tag_165:\n        /* \"#utility.yul\":3676:3678   */\n      0x20\n        /* \"#utility.yul\":3671:3674   */\n      dup3\n        /* \"#utility.yul\":3667:3679   */\n      add\n        /* \"#utility.yul\":3660:3679   */\n      swap1\n      pop\n        /* \"#utility.yul\":3319:3685   */\n      swap2\n      swap1\n      pop\n      jump\t// out\n        /* \"#utility.yul\":3691:4057   */\n    tag_167:\n        /* \"#utility.yul\":3833:3836   */\n      0x00\n        /* \"#utility.yul\":3854:3921   */\n      tag_169\n        /* \"#utility.yul\":3918:3920   */\n      0x13\n        /* \"#utility.yul\":3913:3916   */\n      dup4\n        /* \"#utility.yul\":3854:3921   */\n      tag_144\n      jump\t// in\n    tag_169:\n        /* \"#utility.yul\":3847:3921   */\n      swap2\n      pop\n        /* \"#utility.yul\":3930:4023   */\n      tag_170\n        /* \"#utility.yul\":4019:4022   */\n      dup3\n        /* \"#utility.yul\":3930:4023   */\n      tag_171\n      jump\t// in\n    tag_170:\n        /* \"#utility.yul\":4048:4050   */\n      0x20\n        /* \"#utility.yul\":4043:4046   */\n      dup3\n        /* \"#utility.yul\":4039:4051   */\n      add\n        /* \"#utility.yul\":4032:4051   */\n      swap1\n      pop\n        /* \"#utility.yul\":3691:4057   */\n      swap2\n      swap1\n      pop\n      jump\t// out\n        /* \"#utility.yul\":4063:4429   */\n    tag_172:\n        /* \"#utility.yul\":4205:4208   */\n      0x00\n        /* \"#utility.yul\":4226:4293   */\n      tag_174\n        /* \"#utility.yul\":4290:4292   */\n      0x10\n        /* \"#utility.yul\":4285:4288   */\n      dup4\n        /* \"#utility.yul\":4226:4293   */\n      tag_144\n      jump\t// in\n    tag_174:\n        /* \"#utility.yul\":4219:4293   */\n      swap2\n      pop\n        /* \"#utility.yul\":4302:4395   */\n      tag_175\n        /* \"#utility.yul\":4391:4394   */\n      dup3\n        /* \"#utility.yul\":4302:4395   */\n      tag_176\n      jump\t// in\n    tag_175:\n        /* \"#utility.yul\":4420:4422   */\n      0x20\n        /* \"#utility.yul\":4415:4418   */\n      dup3\n        /* \"#utility.yul\":4411:4423   */\n      add\n        /* \"#utility.yul\":4404:4423   */\n      swap1\n      pop\n        /* \"#utility.yul\":4063:4429   */\n      swap2\n      swap1\n      pop\n      jump\t// out\n        /* \"#utility.yul\":4435:4553   */\n    tag_177:\n        /* \"#utility.yul\":4522:4546   */\n      tag_179\n        /* \"#utility.yul\":4540:4545   */\n      dup2\n        /* \"#utility.yul\":4522:4546   */\n      tag_180\n      jump\t// in\n    tag_179:\n        /* \"#utility.yul\":4517:4520   */\n      dup3\n        /* \"#utility.yul\":4510:4547   */\n      mstore\n        /* \"#utility.yul\":4435:4553   */\n      pop\n      pop\n      jump\t// out\n        /* \"#utility.yul\":4559:4781   */\n    tag_22:\n        /* \"#utility.yul\":4652:4656   */\n      0x00\n        /* \"#utility.yul\":4690:4692   */\n      0x20\n        /* \"#utility.yul\":4679:4688   */\n      dup3\n        /* \"#utility.yul\":4675:4693   */\n      add\n        /* \"#utility.yul\":4667:4693   */\n      swap1\n      pop\n        /* \"#utility.yul\":4703:4774   */\n      tag_182\n        /* \"#utility.yul\":4771:4772   */\n      0x00\n        /* \"#utility.yul\":4760:4769   */\n      dup4\n        /* \"#utility.yul\":4756:4773   */\n      add\n        /* \"#utility.yul\":4747:4753   */\n      dup5\n        /* \"#utility.yul\":4703:4774   */\n      tag_133\n      jump\t// in\n    tag_182:\n        /* \"#utility.yul\":4559:4781   */\n      swap3\n      swap2\n      pop\n      pop\n      jump\t// out\n        /* \"#utility.yul\":4787:4997   */\n    tag_30:\n        /* \"#utility.yul\":4874:4878   */\n      0x00\n        /* \"#utility.yul\":4912:4914   */\n      0x20\n        /* \"#utility.yul\":4901:4910   */\n      dup3\n        /* \"#utility.yul\":4897:4915   */\n      add\n        /* \"#utility.yul\":4889:4915   */\n      swap1\n      pop\n        /* \"#utility.yul\":4925:4990   */\n      tag_184\n        /* \"#utility.yul\":4987:4988   */\n      0x00\n        /* \"#utility.yul\":4976:4985   */\n      dup4\n        /* \"#utility.yul\":4972:4989   */\n      add\n        /* \"#utility.yul\":4963:4969   */\n      dup5\n        /* \"#utility.yul\":4925:4990   */\n      tag_137\n      jump\t// in\n    tag_184:\n        /* \"#utility.yul\":4787:4997   */\n      swap3\n      swap2\n      pop\n      pop\n      jump\t// out\n        /* \"#utility.yul\":5003:5422   */\n    tag_38:\n        /* \"#utility.yul\":5169:5173   */\n      0x00\n        /* \"#utility.yul\":5207:5209   */\n      0x20\n        /* \"#utility.yul\":5196:5205   */\n      dup3\n        /* \"#utility.yul\":5192:5210   */\n      add\n        /* \"#utility.yul\":5184:5210   */\n      swap1\n      pop\n        /* \"#utility.yul\":5256:5265   */\n      dup2\n        /* \"#utility.yul\":5250:5254   */\n      dup2\n        /* \"#utility.yul\":5246:5266   */\n      sub\n        /* \"#utility.yul\":5242:5243   */\n      0x00\n        /* \"#utility.yul\":5231:5240   */\n      dup4\n        /* \"#utility.yul\":5227:5244   */\n      add\n        /* \"#utility.yul\":5220:5267   */\n      mstore\n        /* \"#utility.yul\":5284:5415   */\n      tag_186\n        /* \"#utility.yul\":5410:5414   */\n      dup2\n        /* \"#utility.yul\":5284:5415   */\n      tag_141\n      jump\t// in\n    tag_186:\n        /* \"#utility.yul\":5276:5415   */\n      swap1\n      pop\n        /* \"#utility.yul\":5003:5422   */\n      swap2\n      swap1\n      pop\n      jump\t// out\n        /* \"#utility.yul\":5428:5847   */\n    tag_99:\n        /* \"#utility.yul\":5594:5598   */\n      0x00\n        /* \"#utility.yul\":5632:5634   */\n      0x20\n        /* \"#utility.yul\":5621:5630   */\n      dup3\n        /* \"#utility.yul\":5617:5635   */\n      add\n        /* \"#utility.yul\":5609:5635   */\n      swap1\n      pop\n        /* \"#utility.yul\":5681:5690   */\n      dup2\n        /* \"#utility.yul\":5675:5679   */\n      dup2\n        /* \"#utility.yul\":5671:5691   */\n      sub\n        /* \"#utility.yul\":5667:5668   */\n      0x00\n        /* \"#utility.yul\":5656:5665   */\n      dup4\n        /* \"#utility.yul\":5652:5669   */\n      add\n        /* \"#utility.yul\":5645:5692   */\n      mstore\n        /* \"#utility.yul\":5709:5840   */\n      tag_188\n        /* \"#utility.yul\":5835:5839   */\n      dup2\n        /* \"#utility.yul\":5709:5840   */\n      tag_147\n      jump\t// in\n    tag_188:\n        /* \"#utility.yul\":5701:5840   */\n      swap1\n      pop\n        /* \"#utility.yul\":5428:5847   */\n      swap2\n      swap1\n      pop\n      jump\t// out\n        /* \"#utility.yul\":5853:6272   */\n    tag_43:\n        /* \"#utility.yul\":6019:6023   */\n      0x00\n        /* \"#utility.yul\":6057:6059   */\n      0x20\n        /* \"#utility.yul\":6046:6055   */\n      dup3\n        /* \"#utility.yul\":6042:6060   */\n      add\n        /* \"#utility.yul\":6034:6060   */\n      swap1\n      pop\n        /* \"#utility.yul\":6106:6115   */\n      dup2\n        /* \"#utility.yul\":6100:6104   */\n      dup2\n        /* \"#utility.yul\":6096:6116   */\n      sub\n        /* \"#utility.yul\":6092:6093   */\n      0x00\n        /* \"#utility.yul\":6081:6090   */\n      dup4\n        /* \"#utility.yul\":6077:6094   */\n      add\n        /* \"#utility.yul\":6070:6117   */\n      mstore\n        /* \"#utility.yul\":6134:6265   */\n      tag_190\n        /* \"#utility.yul\":6260:6264   */\n      dup2\n        /* \"#utility.yul\":6134:6265   */\n      tag_152\n      jump\t// in\n    tag_190:\n        /* \"#utility.yul\":6126:6265   */\n      swap1\n      pop\n        /* \"#utility.yul\":5853:6272   */\n      swap2\n      swap1\n      pop\n      jump\t// out\n        /* \"#utility.yul\":6278:6697   */\n    tag_83:\n        /* \"#utility.yul\":6444:6448   */\n      0x00\n        /* \"#utility.yul\":6482:6484   */\n      0x20\n        /* \"#utility.yul\":6471:6480   */\n      dup3\n        /* \"#utility.yul\":6467:6485   */\n      add\n        /* \"#utility.yul\":6459:6485   */\n      swap1\n      pop\n        /* \"#utility.yul\":6531:6540   */\n      dup2\n        /* \"#utility.yul\":6525:6529   */\n      dup2\n        /* \"#utility.yul\":6521:6541   */\n      sub\n        /* \"#utility.yul\":6517:6518   */\n      0x00\n        /* \"#utility.yul\":6506:6515   */\n      dup4\n        /* \"#utility.yul\":6502:6519   */\n      add\n        /* \"#utility.yul\":6495:6542   */\n      mstore\n        /* \"#utility.yul\":6559:6690   */\n      tag_192\n        /* \"#utility.yul\":6685:6689   */\n      dup2\n        /* \"#utility.yul\":6559:6690   */\n      tag_157\n      jump\t// in\n    tag_192:\n        /* \"#utility.yul\":6551:6690   */\n      swap1\n      pop\n        /* \"#utility.yul\":6278:6697   */\n      swap2\n      swap1\n      pop\n      jump\t// out\n        /* \"#utility.yul\":6703:7122   */\n    tag_93:\n        /* \"#utility.yul\":6869:6873   */\n      0x00\n        /* \"#utility.yul\":6907:6909   */\n      0x20\n        /* \"#utility.yul\":6896:6905   */\n      dup3\n        /* \"#utility.yul\":6892:6910   */\n      add\n        /* \"#utility.yul\":6884:6910   */\n      swap1\n      pop\n        /* \"#utility.yul\":6956:6965   */\n      dup2\n        /* \"#utility.yul\":6950:6954   */\n      dup2\n        /* \"#utility.yul\":6946:6966   */\n      sub\n        /* \"#utility.yul\":6942:6943   */\n      0x00\n        /* \"#utility.yul\":6931:6940   */\n      dup4\n        /* \"#utility.yul\":6927:6944   */\n      add\n        /* \"#utility.yul\":6920:6967   */\n      mstore\n        /* \"#utility.yul\":6984:7115   */\n      tag_194\n        /* \"#utility.yul\":7110:7114   */\n      dup2\n        /* \"#utility.yul\":6984:7115   */\n      tag_162\n      jump\t// in\n    tag_194:\n        /* \"#utility.yul\":6976:7115   */\n      swap1\n      pop\n        /* \"#utility.yul\":6703:7122   */\n      swap2\n      swap1\n      pop\n      jump\t// out\n        /* \"#utility.yul\":7128:7767   */\n    tag_59:\n        /* \"#utility.yul\":7350:7354   */\n      0x00\n        /* \"#utility.yul\":7388:7390   */\n      0x60\n        /* \"#utility.yul\":7377:7386   */\n      dup3\n        /* \"#utility.yul\":7373:7391   */\n      add\n        /* \"#utility.yul\":7365:7391   */\n      swap1\n      pop\n        /* \"#utility.yul\":7437:7446   */\n      dup2\n        /* \"#utility.yul\":7431:7435   */\n      dup2\n        /* \"#utility.yul\":7427:7447   */\n      sub\n        /* \"#utility.yul\":7423:7424   */\n      0x00\n        /* \"#utility.yul\":7412:7421   */\n      dup4\n        /* \"#utility.yul\":7408:7425   */\n      add\n        /* \"#utility.yul\":7401:7448   */\n      mstore\n        /* \"#utility.yul\":7465:7596   */\n      tag_196\n        /* \"#utility.yul\":7591:7595   */\n      dup2\n        /* \"#utility.yul\":7465:7596   */\n      tag_167\n      jump\t// in\n    tag_196:\n        /* \"#utility.yul\":7457:7596   */\n      swap1\n      pop\n        /* \"#utility.yul\":7606:7678   */\n      tag_197\n        /* \"#utility.yul\":7674:7676   */\n      0x20\n        /* \"#utility.yul\":7663:7672   */\n      dup4\n        /* \"#utility.yul\":7659:7677   */\n      add\n        /* \"#utility.yul\":7650:7656   */\n      dup6\n        /* \"#utility.yul\":7606:7678   */\n      tag_133\n      jump\t// in\n    tag_197:\n        /* \"#utility.yul\":7688:7760   */\n      tag_198\n        /* \"#utility.yul\":7756:7758   */\n      0x40\n        /* \"#utility.yul\":7745:7754   */\n      dup4\n        /* \"#utility.yul\":7741:7759   */\n      add\n        /* \"#utility.yul\":7732:7738   */\n      dup5\n        /* \"#utility.yul\":7688:7760   */\n      tag_177\n      jump\t// in\n    tag_198:\n        /* \"#utility.yul\":7128:7767   */\n      swap4\n      swap3\n      pop\n      pop\n      pop\n      jump\t// out\n        /* \"#utility.yul\":7773:8192   */\n    tag_77:\n        /* \"#utility.yul\":7939:7943   */\n      0x00\n        /* \"#utility.yul\":7977:7979   */\n      0x20\n        /* \"#utility.yul\":7966:7975   */\n      dup3\n        /* \"#utility.yul\":7962:7980   */\n      add\n        /* \"#utility.yul\":7954:7980   */\n      swap1\n      pop\n        /* \"#utility.yul\":8026:8035   */\n      dup2\n        /* \"#utility.yul\":8020:8024   */\n      dup2\n        /* \"#utility.yul\":8016:8036   */\n      sub\n        /* \"#utility.yul\":8012:8013   */\n      0x00\n        /* \"#utility.yul\":8001:8010   */\n      dup4\n        /* \"#utility.yul\":7997:8014   */\n      add\n        /* \"#utility.yul\":7990:8037   */\n      mstore\n        /* \"#utility.yul\":8054:8185   */\n      tag_200\n        /* \"#utility.yul\":8180:8184   */\n      dup2\n        /* \"#utility.yul\":8054:8185   */\n      tag_172\n      jump\t// in\n    tag_200:\n        /* \"#utility.yul\":8046:8185   */\n      swap1\n      pop\n        /* \"#utility.yul\":7773:8192   */\n      swap2\n      swap1\n      pop\n      jump\t// out\n        /* \"#utility.yul\":8198:8420   */\n    tag_18:\n        /* \"#utility.yul\":8291:8295   */\n      0x00\n        /* \"#utility.yul\":8329:8331   */\n      0x20\n        /* \"#utility.yul\":8318:8327   */\n      dup3\n        /* \"#utility.yul\":8314:8332   */\n      add\n        /* \"#utility.yul\":8306:8332   */\n      swap1\n      pop\n        /* \"#utility.yul\":8342:8413   */\n      tag_202\n        /* \"#utility.yul\":8410:8411   */\n      0x00\n        /* \"#utility.yul\":8399:8408   */\n      dup4\n        /* \"#utility.yul\":8395:8412   */\n      add\n        /* \"#utility.yul\":8386:8392   */\n      dup5\n        /* \"#utility.yul\":8342:8413   */\n      tag_177\n      jump\t// in\n    tag_202:\n        /* \"#utility.yul\":8198:8420   */\n      swap3\n      swap2\n      pop\n      pop\n      jump\t// out\n        /* \"#utility.yul\":8426:8746   */\n    tag_14:\n        /* \"#utility.yul\":8541:8545   */\n      0x00\n        /* \"#utility.yul\":8579:8581   */\n      0x40\n        /* \"#utility.yul\":8568:8577   */\n      dup3\n        /* \"#utility.yul\":8564:8582   */\n      add\n        /* \"#utility.yul\":8556:8582   */\n      swap1\n      pop\n        /* \"#utility.yul\":8592:8663   */\n      tag_204\n        /* \"#utility.yul\":8660:8661   */\n      0x00\n        /* \"#utility.yul\":8649:8658   */\n      dup4\n        /* \"#utility.yul\":8645:8662   */\n      add\n        /* \"#utility.yul\":8636:8642   */\n      dup6\n        /* \"#utility.yul\":8592:8663   */\n      tag_177\n      jump\t// in\n    tag_204:\n        /* \"#utility.yul\":8673:8739   */\n      tag_205\n        /* \"#utility.yul\":8735:8737   */\n      0x20\n        /* \"#utility.yul\":8724:8733   */\n      dup4\n        /* \"#utility.yul\":8720:8738   */\n      add\n        /* \"#utility.yul\":8711:8717   */\n      dup5\n        /* \"#utility.yul\":8673:8739   */\n      tag_137\n      jump\t// in\n    tag_205:\n        /* \"#utility.yul\":8426:8746   */\n      swap4\n      swap3\n      pop\n      pop\n      pop\n      jump\t// out\n        /* \"#utility.yul\":8833:9002   */\n    tag_144:\n        /* \"#utility.yul\":8917:8928   */\n      0x00\n        /* \"#utility.yul\":8951:8957   */\n      dup3\n        /* \"#utility.yul\":8946:8949   */\n      dup3\n        /* \"#utility.yul\":8939:8958   */\n      mstore\n        /* \"#utility.yul\":8991:8995   */\n      0x20\n        /* \"#utility.yul\":8986:8989   */\n      dup3\n        /* \"#utility.yul\":8982:8996   */\n      add\n        /* \"#utility.yul\":8967:8996   */\n      swap1\n      pop\n        /* \"#utility.yul\":8833:9002   */\n      swap3\n      swap2\n      pop\n      pop\n      jump\t// out\n        /* \"#utility.yul\":9008:9199   */\n    tag_107:\n        /* \"#utility.yul\":9048:9052   */\n      0x00\n        /* \"#utility.yul\":9068:9088   */\n      tag_210\n        /* \"#utility.yul\":9086:9087   */\n      dup3\n        /* \"#utility.yul\":9068:9088   */\n      tag_180\n      jump\t// in\n    tag_210:\n        /* \"#utility.yul\":9063:9088   */\n      swap2\n      pop\n        /* \"#utility.yul\":9102:9122   */\n      tag_211\n        /* \"#utility.yul\":9120:9121   */\n      dup4\n        /* \"#utility.yul\":9102:9122   */\n      tag_180\n      jump\t// in\n    tag_211:\n        /* \"#utility.yul\":9097:9122   */\n      swap3\n      pop\n        /* \"#utility.yul\":9141:9142   */\n      dup3\n        /* \"#utility.yul\":9138:9139   */\n      dup3\n        /* \"#utility.yul\":9135:9143   */\n      lt\n        /* \"#utility.yul\":9132:9166   */\n      iszero\n      tag_212\n      jumpi\n        /* \"#utility.yul\":9146:9164   */\n      tag_213\n      tag_214\n      jump\t// in\n    tag_213:\n        /* \"#utility.yul\":9132:9166   */\n    tag_212:\n        /* \"#utility.yul\":9191:9192   */\n      dup3\n        /* \"#utility.yul\":9188:9189   */\n      dup3\n        /* \"#utility.yul\":9184:9193   */\n      sub\n        /* \"#utility.yul\":9176:9193   */\n      swap1\n      pop\n        /* \"#utility.yul\":9008:9199   */\n      swap3\n      swap2\n      pop\n      pop\n      jump\t// out\n        /* \"#utility.yul\":9205:9301   */\n    tag_136:\n        /* \"#utility.yul\":9242:9249   */\n      0x00\n        /* \"#utility.yul\":9271:9295   */\n      tag_216\n        /* \"#utility.yul\":9289:9294   */\n      dup3\n        /* \"#utility.yul\":9271:9295   */\n      tag_217\n      jump\t// in\n    tag_216:\n        /* \"#utility.yul\":9260:9295   */\n      swap1\n      pop\n        /* \"#utility.yul\":9205:9301   */\n      swap2\n      swap1\n      pop\n      jump\t// out\n        /* \"#utility.yul\":9307:9397   */\n    tag_140:\n        /* \"#utility.yul\":9341:9348   */\n      0x00\n        /* \"#utility.yul\":9384:9389   */\n      dup2\n        /* \"#utility.yul\":9377:9390   */\n      iszero\n        /* \"#utility.yul\":9370:9391   */\n      iszero\n        /* \"#utility.yul\":9359:9391   */\n      swap1\n      pop\n        /* \"#utility.yul\":9307:9397   */\n      swap2\n      swap1\n      pop\n      jump\t// out\n        /* \"#utility.yul\":9403:9529   */\n    tag_217:\n        /* \"#utility.yul\":9440:9447   */\n      0x00\n        /* \"#utility.yul\":9480:9522   */\n      0xffffffffffffffffffffffffffffffffffffffff\n        /* \"#utility.yul\":9473:9478   */\n      dup3\n        /* \"#utility.yul\":9469:9523   */\n      and\n        /* \"#utility.yul\":9458:9523   */\n      swap1\n      pop\n        /* \"#utility.yul\":9403:9529   */\n      swap2\n      swap1\n      pop\n      jump\t// out\n        /* \"#utility.yul\":9535:9612   */\n    tag_180:\n        /* \"#utility.yul\":9572:9579   */\n      0x00\n        /* \"#utility.yul\":9601:9606   */\n      dup2\n        /* \"#utility.yul\":9590:9606   */\n      swap1\n      pop\n        /* \"#utility.yul\":9535:9612   */\n      swap2\n      swap1\n      pop\n      jump\t// out\n        /* \"#utility.yul\":9618:9798   */\n    tag_214:\n        /* \"#utility.yul\":9666:9743   */\n      0x4e487b7100000000000000000000000000000000000000000000000000000000\n        /* \"#utility.yul\":9663:9664   */\n      0x00\n        /* \"#utility.yul\":9656:9744   */\n      mstore\n        /* \"#utility.yul\":9763:9767   */\n      0x11\n        /* \"#utility.yul\":9760:9761   */\n      0x04\n        /* \"#utility.yul\":9753:9768   */\n      mstore\n        /* \"#utility.yul\":9787:9791   */\n      0x24\n        /* \"#utility.yul\":9784:9785   */\n      0x00\n        /* \"#utility.yul\":9777:9792   */\n      revert\n        /* \"#utility.yul\":9804:9984   */\n    tag_56:\n        /* \"#utility.yul\":9852:9929   */\n      0x4e487b7100000000000000000000000000000000000000000000000000000000\n        /* \"#utility.yul\":9849:9850   */\n      0x00\n        /* \"#utility.yul\":9842:9930   */\n      mstore\n        /* \"#utility.yul\":9949:9953   */\n      0x31\n        /* \"#utility.yul\":9946:9947   */\n      0x04\n        /* \"#utility.yul\":9939:9954   */\n      mstore\n        /* \"#utility.yul\":9973:9977   */\n      0x24\n        /* \"#utility.yul\":9970:9971   */\n      0x00\n        /* \"#utility.yul\":9963:9978   */\n      revert\n        /* \"#utility.yul\":9990:10170   */\n    tag_49:\n        /* \"#utility.yul\":10038:10115   */\n      0x4e487b7100000000000000000000000000000000000000000000000000000000\n        /* \"#utility.yul\":10035:10036   */\n      0x00\n        /* \"#utility.yul\":10028:10116   */\n      mstore\n        /* \"#utility.yul\":10135:10139   */\n      0x32\n        /* \"#utility.yul\":10132:10133   */\n      0x04\n        /* \"#utility.yul\":10125:10140   */\n      mstore\n        /* \"#utility.yul\":10159:10163   */\n      0x24\n        /* \"#utility.yul\":10156:10157   */\n      0x00\n        /* \"#utility.yul\":10149:10164   */\n      revert\n        /* \"#utility.yul\":10299:10416   */\n    tag_121:\n        /* \"#utility.yul\":10408:10409   */\n      0x00\n        /* \"#utility.yul\":10405:10406   */\n      dup1\n        /* \"#utility.yul\":10398:10410   */\n      revert\n        /* \"#utility.yul\":10422:10654   */\n    tag_146:\n        /* \"#utility.yul\":10562:10596   */\n      0x4f6e6c79206372656174696e6720636f6e74726163742063616e2063616c6c20\n        /* \"#utility.yul\":10558:10559   */\n      0x00\n        /* \"#utility.yul\":10550:10556   */\n      dup3\n        /* \"#utility.yul\":10546:10560   */\n      add\n        /* \"#utility.yul\":10539:10597   */\n      mstore\n        /* \"#utility.yul\":10631:10646   */\n      0x746869732066756e6374696f6e00000000000000000000000000000000000000\n        /* \"#utility.yul\":10626:10628   */\n      0x20\n        /* \"#utility.yul\":10618:10624   */\n      dup3\n        /* \"#utility.yul\":10614:10629   */\n      add\n        /* \"#utility.yul\":10607:10647   */\n      mstore\n        /* \"#utility.yul\":10422:10654   */\n      pop\n      jump\t// out\n        /* \"#utility.yul\":10660:10833   */\n    tag_151:\n        /* \"#utility.yul\":10800:10825   */\n      0x6163636f756e7420616c72656164792064656c65746564000000000000000000\n        /* \"#utility.yul\":10796:10797   */\n      0x00\n        /* \"#utility.yul\":10788:10794   */\n      dup3\n        /* \"#utility.yul\":10784:10798   */\n      add\n        /* \"#utility.yul\":10777:10826   */\n      mstore\n        /* \"#utility.yul\":10660:10833   */\n      pop\n      jump\t// out\n        /* \"#utility.yul\":10839:11007   */\n    tag_156:\n        /* \"#utility.yul\":10979:10999   */\n      0x5768697465206c6973742069732066756c6c0000000000000000000000000000\n        /* \"#utility.yul\":10975:10976   */\n      0x00\n        /* \"#utility.yul\":10967:10973   */\n      dup3\n        /* \"#utility.yul\":10963:10977   */\n      add\n        /* \"#utility.yul\":10956:11000   */\n      mstore\n        /* \"#utility.yul\":10839:11007   */\n      pop\n      jump\t// out\n        /* \"#utility.yul\":11013:11263   */\n    tag_161:\n        /* \"#utility.yul\":11153:11187   */\n      0x536d61727420636f6e7472616374206e6f7420616c6c6f77656420746f207769\n        /* \"#utility.yul\":11149:11150   */\n      0x00\n        /* \"#utility.yul\":11141:11147   */\n      dup3\n        /* \"#utility.yul\":11137:11151   */\n      add\n        /* \"#utility.yul\":11130:11188   */\n      mstore\n        /* \"#utility.yul\":11222:11255   */\n      0x746864726177206d6f6e6579207468726f756768742074686973206761746500\n        /* \"#utility.yul\":11217:11219   */\n      0x20\n        /* \"#utility.yul\":11209:11215   */\n      dup3\n        /* \"#utility.yul\":11205:11220   */\n      add\n        /* \"#utility.yul\":11198:11256   */\n      mstore\n        /* \"#utility.yul\":11013:11263   */\n      pop\n      jump\t// out\n        /* \"#utility.yul\":11269:11436   */\n    tag_166:\n        /* \"#utility.yul\":11409:11428   */\n      0x546f6b656e206e6f742063726561746564000000000000000000000000000000\n        /* \"#utility.yul\":11405:11406   */\n      0x00\n        /* \"#utility.yul\":11397:11403   */\n      dup3\n        /* \"#utility.yul\":11393:11407   */\n      add\n        /* \"#utility.yul\":11386:11429   */\n      mstore\n        /* \"#utility.yul\":11269:11436   */\n      pop\n      jump\t// out\n        /* \"#utility.yul\":11442:11611   */\n    tag_171:\n        /* \"#utility.yul\":11582:11603   */\n      0x416464656420746f207768697465206c69737400000000000000000000000000\n        /* \"#utility.yul\":11578:11579   */\n      0x00\n        /* \"#utility.yul\":11570:11576   */\n      dup3\n        /* \"#utility.yul\":11566:11580   */\n      add\n        /* \"#utility.yul\":11559:11604   */\n      mstore\n        /* \"#utility.yul\":11442:11611   */\n      pop\n      jump\t// out\n        /* \"#utility.yul\":11617:11783   */\n    tag_176:\n        /* \"#utility.yul\":11757:11775   */\n      0x44656c6574656420436f6e747261637400000000000000000000000000000000\n        /* \"#utility.yul\":11753:11754   */\n      0x00\n        /* \"#utility.yul\":11745:11751   */\n      dup3\n        /* \"#utility.yul\":11741:11755   */\n      add\n        /* \"#utility.yul\":11734:11776   */\n      mstore\n        /* \"#utility.yul\":11617:11783   */\n      pop\n      jump\t// out\n        /* \"#utility.yul\":11789:11911   */\n    tag_113:\n        /* \"#utility.yul\":11862:11886   */\n      tag_235\n        /* \"#utility.yul\":11880:11885   */\n      dup2\n        /* \"#utility.yul\":11862:11886   */\n      tag_136\n      jump\t// in\n    tag_235:\n        /* \"#utility.yul\":11855:11860   */\n      dup2\n        /* \"#utility.yul\":11852:11887   */\n      eq\n        /* \"#utility.yul\":11842:11905   */\n      tag_236\n      jumpi\n        /* \"#utility.yul\":11901:11902   */\n      0x00\n        /* \"#utility.yul\":11898:11899   */\n      dup1\n        /* \"#utility.yul\":11891:11903   */\n      revert\n        /* \"#utility.yul\":11842:11905   */\n    tag_236:\n        /* \"#utility.yul\":11789:11911   */\n      pop\n      jump\t// out\n        /* \"#utility.yul\":11917:12039   */\n    tag_117:\n        /* \"#utility.yul\":11990:12014   */\n      tag_238\n        /* \"#utility.yul\":12008:12013   */\n      dup2\n        /* \"#utility.yul\":11990:12014   */\n      tag_180\n      jump\t// in\n    tag_238:\n        /* \"#utility.yul\":11983:11988   */\n      dup2\n        /* \"#utility.yul\":11980:12015   */\n      eq\n        /* \"#utility.yul\":11970:12033   */\n      tag_239\n      jumpi\n        /* \"#utility.yul\":12029:12030   */\n      0x00\n        /* \"#utility.yul\":12026:12027   */\n      dup1\n        /* \"#utility.yul\":12019:12031   */\n      revert\n        /* \"#utility.yul\":11970:12033   */\n    tag_239:\n        /* \"#utility.yul\":11917:12039   */\n      pop\n      jump\t// out\n\n    auxdata: 0xa264697066735822122046d8fb57d019f205500c895a060a902390c3812e3f7d7957503a5b2b53176ab964736f6c63430008070033\n}\n",
				"bytecode": {
					"linkReferences": {},
					"object": "60806040523480156200001157600080fd5b50604051620011f3380380620011f38339818101604052810190620000379190620000f8565b336000806101000a81548173ffffffffffffffffffffffffffffffffffffffff021916908373ffffffffffffffffffffffffffffffffffffffff160217905550806003819055507f2cce1494b4ef3c5682648d5c4bbf147548f403fc2ac218e41ec797babdb0acb560008054906101000a900473ffffffffffffffffffffffffffffffffffffffff166000604051620000d292919062000173565b60405180910390a15062000260565b600081519050620000f28162000246565b92915050565b60006020828403121562000111576200011062000218565b5b60006200012184828501620000e1565b91505092915050565b6200013581620001c6565b82525050565b620001468162000204565b82525050565b60006200015b601c83620001b5565b915062000168826200021d565b602082019050919050565b600060608201905081810360008301526200018e816200014c565b90506200019f60208301856200012a565b620001ae60408301846200013b565b9392505050565b600082825260208201905092915050565b6000620001d382620001da565b9050919050565b600073ffffffffffffffffffffffffffffffffffffffff82169050919050565b6000819050919050565b60006200021182620001fa565b9050919050565b600080fd5b7f4c656e64696e6720706f6f6c2067617465206372656174656420627900000000600082015250565b6200025181620001fa565b81146200025d57600080fd5b50565b610f8380620002706000396000f3fe608060405234801561001057600080fd5b50600436106100625760003560e01c8063317549f21461006757806389f78c8e146100985780639dc61d4f146100b6578063ac446002146100d4578063bc134ae3146100de578063cbc20f301461010e575b600080fd5b610081600480360381019061007c9190610950565b61012a565b60405161008f929190610c6c565b60405180910390f35b6100a0610431565b6040516100ad9190610c51565b60405180910390f35b6100be610437565b6040516100cb9190610b1f565b60405180910390f35b6100dc61045b565b005b6100f860048036038101906100f391906109aa565b61052e565b6040516101059190610b3a565b60405180910390f35b6101286004803603810190610123919061097d565b6106f4565b005b60008060008054906101000a900473ffffffffffffffffffffffffffffffffffffffff1673ffffffffffffffffffffffffffffffffffffffff163373ffffffffffffffffffffffffffffffffffffffff16146101bb576040517f08c379a00000000000000000000000000000000000000000000000000000000081526004016101b290610b55565b60405180910390fd5b60035460018054905010806101d65750600060028054905014155b610215576040517f08c379a000000000000000000000000000000000000000000000000000000000815260040161020c90610b95565b60405180910390fd5b600060028054905014610341576000600261023f600160028054905061090190919063ffffffff16565b815481106102505761024f610d80565b5b90600052602060002001549050836001828154811061027257610271610d80565b5b9060005260206000200160006101000a81548173ffffffffffffffffffffffffffffffffffffffff021916908373ffffffffffffffffffffffffffffffffffffffff16021790555060028054806102cc576102cb610d51565b5b600190038181906000526020600020016000905590557f2cce1494b4ef3c5682648d5c4bbf147548f403fc2ac218e41ec797babdb0acb58482604051610313929190610bf5565b60405180910390a18060035460018054905010806103375750600060028054905014155b925092505061042c565b6001839080600181540180825580915050600190039060005260206000200160009091909190916101000a81548173ffffffffffffffffffffffffffffffffffffffff021916908373ffffffffffffffffffffffffffffffffffffffff1602179055507f2cce1494b4ef3c5682648d5c4bbf147548f403fc2ac218e41ec797babdb0acb5836103de6001808054905061090190919063ffffffff16565b6040516103ec929190610bf5565b60405180910390a161040c6001808054905061090190919063ffffffff16565b60035460018054905010806104275750600060028054905014155b915091505b915091565b60035481565b60008054906101000a900473ffffffffffffffffffffffffffffffffffffffff1681565b6000600460003373ffffffffffffffffffffffffffffffffffffffff1673ffffffffffffffffffffffffffffffffffffffff1681526020019081526020016000205490506000600460003373ffffffffffffffffffffffffffffffffffffffff1673ffffffffffffffffffffffffffffffffffffffff168152602001908152602001600020819055503373ffffffffffffffffffffffffffffffffffffffff166108fc829081150290604051600060405180830381858888f1935050505015801561052a573d6000803e3d6000fd5b5050565b600083600180549050811061054257600080fd5b600073ffffffffffffffffffffffffffffffffffffffff166001828154811061056e5761056d610d80565b5b9060005260206000200160009054906101000a900473ffffffffffffffffffffffffffffffffffffffff1673ffffffffffffffffffffffffffffffffffffffff1614156105f0576040517f08c379a00000000000000000000000000000000000000000000000000000000081526004016105e790610c31565b60405180910390fd5b6001818154811061060457610603610d80565b5b9060005260206000200160009054906101000a900473ffffffffffffffffffffffffffffffffffffffff1673ffffffffffffffffffffffffffffffffffffffff163373ffffffffffffffffffffffffffffffffffffffff161461069c576040517f08c379a000000000000000000000000000000000000000000000000000000000815260040161069390610bb5565b60405180910390fd5b6106a4610924565b82600460008673ffffffffffffffffffffffffffffffffffffffff1673ffffffffffffffffffffffffffffffffffffffff1681526020019081526020016000208190555060019150509392505050565b60008054906101000a900473ffffffffffffffffffffffffffffffffffffffff1673ffffffffffffffffffffffffffffffffffffffff163373ffffffffffffffffffffffffffffffffffffffff1614610782576040517f08c379a000000000000000000000000000000000000000000000000000000000815260040161077990610b55565b60405180910390fd5b60018054905081106107c9576040517f08c379a00000000000000000000000000000000000000000000000000000000081526004016107c090610bd5565b60405180910390fd5b600073ffffffffffffffffffffffffffffffffffffffff16600182815481106107f5576107f4610d80565b5b9060005260206000200160009054906101000a900473ffffffffffffffffffffffffffffffffffffffff1673ffffffffffffffffffffffffffffffffffffffff161415610877576040517f08c379a000000000000000000000000000000000000000000000000000000000815260040161086e90610b75565b60405180910390fd5b60006001828154811061088d5761088c610d80565b5b9060005260206000200160006101000a81548173ffffffffffffffffffffffffffffffffffffffff021916908373ffffffffffffffffffffffffffffffffffffffff160217905550600281908060018154018082558091505060019003906000526020600020016000909190919091505550565b60008282111561091057600080fd5b818361091c9190610ca6565b905092915050565b565b60008135905061093581610f1f565b92915050565b60008135905061094a81610f36565b92915050565b60006020828403121561096657610965610daf565b5b600061097484828501610926565b91505092915050565b60006020828403121561099357610992610daf565b5b60006109a18482850161093b565b91505092915050565b6000806000606084860312156109c3576109c2610daf565b5b60006109d18682870161093b565b93505060206109e286828701610926565b92505060406109f38682870161093b565b9150509250925092565b610a0681610cda565b82525050565b610a1581610cec565b82525050565b6000610a28602d83610c95565b9150610a3382610db4565b604082019050919050565b6000610a4b601783610c95565b9150610a5682610e03565b602082019050919050565b6000610a6e601283610c95565b9150610a7982610e2c565b602082019050919050565b6000610a91603f83610c95565b9150610a9c82610e55565b604082019050919050565b6000610ab4601183610c95565b9150610abf82610ea4565b602082019050919050565b6000610ad7601383610c95565b9150610ae282610ecd565b602082019050919050565b6000610afa601083610c95565b9150610b0582610ef6565b602082019050919050565b610b1981610d18565b82525050565b6000602082019050610b3460008301846109fd565b92915050565b6000602082019050610b4f6000830184610a0c565b92915050565b60006020820190508181036000830152610b6e81610a1b565b9050919050565b60006020820190508181036000830152610b8e81610a3e565b9050919050565b60006020820190508181036000830152610bae81610a61565b9050919050565b60006020820190508181036000830152610bce81610a84565b9050919050565b60006020820190508181036000830152610bee81610aa7565b9050919050565b60006060820190508181036000830152610c0e81610aca565b9050610c1d60208301856109fd565b610c2a6040830184610b10565b9392505050565b60006020820190508181036000830152610c4a81610aed565b9050919050565b6000602082019050610c666000830184610b10565b92915050565b6000604082019050610c816000830185610b10565b610c8e6020830184610a0c565b9392505050565b600082825260208201905092915050565b6000610cb182610d18565b9150610cbc83610d18565b925082821015610ccf57610cce610d22565b5b828203905092915050565b6000610ce582610cf8565b9050919050565b60008115159050919050565b600073ffffffffffffffffffffffffffffffffffffffff82169050919050565b6000819050919050565b7f4e487b7100000000000000000000000000000000000000000000000000000000600052601160045260246000fd5b7f4e487b7100000000000000000000000000000000000000000000000000000000600052603160045260246000fd5b7f4e487b7100000000000000000000000000000000000000000000000000000000600052603260045260246000fd5b600080fd5b7f4f6e6c79206372656174696e6720636f6e74726163742063616e2063616c6c2060008201527f746869732066756e6374696f6e00000000000000000000000000000000000000602082015250565b7f6163636f756e7420616c72656164792064656c65746564000000000000000000600082015250565b7f5768697465206c6973742069732066756c6c0000000000000000000000000000600082015250565b7f536d61727420636f6e7472616374206e6f7420616c6c6f77656420746f20776960008201527f746864726177206d6f6e6579207468726f756768742074686973206761746500602082015250565b7f546f6b656e206e6f742063726561746564000000000000000000000000000000600082015250565b7f416464656420746f207768697465206c69737400000000000000000000000000600082015250565b7f44656c6574656420436f6e747261637400000000000000000000000000000000600082015250565b610f2881610cda565b8114610f3357600080fd5b50565b610f3f81610d18565b8114610f4a57600080fd5b5056fea264697066735822122046d8fb57d019f205500c895a060a902390c3812e3f7d7957503a5b2b53176ab964736f6c63430008070033",
					"opcodes": "PUSH1 0x80 PUSH1 0x40 MSTORE CALLVALUE DUP1 ISZERO PUSH3 0x11 JUMPI PUSH1 0x0 DUP1 REVERT JUMPDEST POP PUSH1 0x40 MLOAD PUSH3 0x11F3 CODESIZE SUB DUP1 PUSH3 0x11F3 DUP4 CODECOPY DUP2 DUP2 ADD PUSH1 0x40 MSTORE DUP2 ADD SWAP1 PUSH3 0x37 SWAP2 SWAP1 PUSH3 0xF8 JUMP JUMPDEST CALLER PUSH1 0x0 DUP1 PUSH2 0x100 EXP DUP2 SLOAD DUP2 PUSH20 0xFFFFFFFFFFFFFFFFFFFFFFFFFFFFFFFFFFFFFFFF MUL NOT AND SWAP1 DUP4 PUSH20 0xFFFFFFFFFFFFFFFFFFFFFFFFFFFFFFFFFFFFFFFF AND MUL OR SWAP1 SSTORE POP DUP1 PUSH1 0x3 DUP2 SWAP1 SSTORE POP PUSH32 0x2CCE1494B4EF3C5682648D5C4BBF147548F403FC2AC218E41EC797BABDB0ACB5 PUSH1 0x0 DUP1 SLOAD SWAP1 PUSH2 0x100 EXP SWAP1 DIV PUSH20 0xFFFFFFFFFFFFFFFFFFFFFFFFFFFFFFFFFFFFFFFF AND PUSH1 0x0 PUSH1 0x40 MLOAD PUSH3 0xD2 SWAP3 SWAP2 SWAP1 PUSH3 0x173 JUMP JUMPDEST PUSH1 0x40 MLOAD DUP1 SWAP2 SUB SWAP1 LOG1 POP PUSH3 0x260 JUMP JUMPDEST PUSH1 0x0 DUP2 MLOAD SWAP1 POP PUSH3 0xF2 DUP2 PUSH3 0x246 JUMP JUMPDEST SWAP3 SWAP2 POP POP JUMP JUMPDEST PUSH1 0x0 PUSH1 0x20 DUP3 DUP5 SUB SLT ISZERO PUSH3 0x111 JUMPI PUSH3 0x110 PUSH3 0x218 JUMP JUMPDEST JUMPDEST PUSH1 0x0 PUSH3 0x121 DUP5 DUP3 DUP6 ADD PUSH3 0xE1 JUMP JUMPDEST SWAP2 POP POP SWAP3 SWAP2 POP POP JUMP JUMPDEST PUSH3 0x135 DUP2 PUSH3 0x1C6 JUMP JUMPDEST DUP3 MSTORE POP POP JUMP JUMPDEST PUSH3 0x146 DUP2 PUSH3 0x204 JUMP JUMPDEST DUP3 MSTORE POP POP JUMP JUMPDEST PUSH1 0x0 PUSH3 0x15B PUSH1 0x1C DUP4 PUSH3 0x1B5 JUMP JUMPDEST SWAP2 POP PUSH3 0x168 DUP3 PUSH3 0x21D JUMP JUMPDEST PUSH1 0x20 DUP3 ADD SWAP1 POP SWAP2 SWAP1 POP JUMP JUMPDEST PUSH1 0x0 PUSH1 0x60 DUP3 ADD SWAP1 POP DUP2 DUP2 SUB PUSH1 0x0 DUP4 ADD MSTORE PUSH3 0x18E DUP2 PUSH3 0x14C JUMP JUMPDEST SWAP1 POP PUSH3 0x19F PUSH1 0x20 DUP4 ADD DUP6 PUSH3 0x12A JUMP JUMPDEST PUSH3 0x1AE PUSH1 0x40 DUP4 ADD DUP5 PUSH3 0x13B JUMP JUMPDEST SWAP4 SWAP3 POP POP POP JUMP JUMPDEST PUSH1 0x0 DUP3 DUP3 MSTORE PUSH1 0x20 DUP3 ADD SWAP1 POP SWAP3 SWAP2 POP POP JUMP JUMPDEST PUSH1 0x0 PUSH3 0x1D3 DUP3 PUSH3 0x1DA JUMP JUMPDEST SWAP1 POP SWAP2 SWAP1 POP JUMP JUMPDEST PUSH1 0x0 PUSH20 0xFFFFFFFFFFFFFFFFFFFFFFFFFFFFFFFFFFFFFFFF DUP3 AND SWAP1 POP SWAP2 SWAP1 POP JUMP JUMPDEST PUSH1 0x0 DUP2 SWAP1 POP SWAP2 SWAP1 POP JUMP JUMPDEST PUSH1 0x0 PUSH3 0x211 DUP3 PUSH3 0x1FA JUMP JUMPDEST SWAP1 POP SWAP2 SWAP1 POP JUMP JUMPDEST PUSH1 0x0 DUP1 REVERT JUMPDEST PUSH32 0x4C656E64696E6720706F6F6C2067617465206372656174656420627900000000 PUSH1 0x0 DUP3 ADD MSTORE POP JUMP JUMPDEST PUSH3 0x251 DUP2 PUSH3 0x1FA JUMP JUMPDEST DUP2 EQ PUSH3 0x25D JUMPI PUSH1 0x0 DUP1 REVERT JUMPDEST POP JUMP JUMPDEST PUSH2 0xF83 DUP1 PUSH3 0x270 PUSH1 0x0 CODECOPY PUSH1 0x0 RETURN INVALID PUSH1 0x80 PUSH1 0x40 MSTORE CALLVALUE DUP1 ISZERO PUSH2 0x10 JUMPI PUSH1 0x0 DUP1 REVERT JUMPDEST POP PUSH1 0x4 CALLDATASIZE LT PUSH2 0x62 JUMPI PUSH1 0x0 CALLDATALOAD PUSH1 0xE0 SHR DUP1 PUSH4 0x317549F2 EQ PUSH2 0x67 JUMPI DUP1 PUSH4 0x89F78C8E EQ PUSH2 0x98 JUMPI DUP1 PUSH4 0x9DC61D4F EQ PUSH2 0xB6 JUMPI DUP1 PUSH4 0xAC446002 EQ PUSH2 0xD4 JUMPI DUP1 PUSH4 0xBC134AE3 EQ PUSH2 0xDE JUMPI DUP1 PUSH4 0xCBC20F30 EQ PUSH2 0x10E JUMPI JUMPDEST PUSH1 0x0 DUP1 REVERT JUMPDEST PUSH2 0x81 PUSH1 0x4 DUP1 CALLDATASIZE SUB DUP2 ADD SWAP1 PUSH2 0x7C SWAP2 SWAP1 PUSH2 0x950 JUMP JUMPDEST PUSH2 0x12A JUMP JUMPDEST PUSH1 0x40 MLOAD PUSH2 0x8F SWAP3 SWAP2 SWAP1 PUSH2 0xC6C JUMP JUMPDEST PUSH1 0x40 MLOAD DUP1 SWAP2 SUB SWAP1 RETURN JUMPDEST PUSH2 0xA0 PUSH2 0x431 JUMP JUMPDEST PUSH1 0x40 MLOAD PUSH2 0xAD SWAP2 SWAP1 PUSH2 0xC51 JUMP JUMPDEST PUSH1 0x40 MLOAD DUP1 SWAP2 SUB SWAP1 RETURN JUMPDEST PUSH2 0xBE PUSH2 0x437 JUMP JUMPDEST PUSH1 0x40 MLOAD PUSH2 0xCB SWAP2 SWAP1 PUSH2 0xB1F JUMP JUMPDEST PUSH1 0x40 MLOAD DUP1 SWAP2 SUB SWAP1 RETURN JUMPDEST PUSH2 0xDC PUSH2 0x45B JUMP JUMPDEST STOP JUMPDEST PUSH2 0xF8 PUSH1 0x4 DUP1 CALLDATASIZE SUB DUP2 ADD SWAP1 PUSH2 0xF3 SWAP2 SWAP1 PUSH2 0x9AA JUMP JUMPDEST PUSH2 0x52E JUMP JUMPDEST PUSH1 0x40 MLOAD PUSH2 0x105 SWAP2 SWAP1 PUSH2 0xB3A JUMP JUMPDEST PUSH1 0x40 MLOAD DUP1 SWAP2 SUB SWAP1 RETURN JUMPDEST PUSH2 0x128 PUSH1 0x4 DUP1 CALLDATASIZE SUB DUP2 ADD SWAP1 PUSH2 0x123 SWAP2 SWAP1 PUSH2 0x97D JUMP JUMPDEST PUSH2 0x6F4 JUMP JUMPDEST STOP JUMPDEST PUSH1 0x0 DUP1 PUSH1 0x0 DUP1 SLOAD SWAP1 PUSH2 0x100 EXP SWAP1 DIV PUSH20 0xFFFFFFFFFFFFFFFFFFFFFFFFFFFFFFFFFFFFFFFF AND PUSH20 0xFFFFFFFFFFFFFFFFFFFFFFFFFFFFFFFFFFFFFFFF AND CALLER PUSH20 0xFFFFFFFFFFFFFFFFFFFFFFFFFFFFFFFFFFFFFFFF AND EQ PUSH2 0x1BB JUMPI PUSH1 0x40 MLOAD PUSH32 0x8C379A000000000000000000000000000000000000000000000000000000000 DUP2 MSTORE PUSH1 0x4 ADD PUSH2 0x1B2 SWAP1 PUSH2 0xB55 JUMP JUMPDEST PUSH1 0x40 MLOAD DUP1 SWAP2 SUB SWAP1 REVERT JUMPDEST PUSH1 0x3 SLOAD PUSH1 0x1 DUP1 SLOAD SWAP1 POP LT DUP1 PUSH2 0x1D6 JUMPI POP PUSH1 0x0 PUSH1 0x2 DUP1 SLOAD SWAP1 POP EQ ISZERO JUMPDEST PUSH2 0x215 JUMPI PUSH1 0x40 MLOAD PUSH32 0x8C379A000000000000000000000000000000000000000000000000000000000 DUP2 MSTORE PUSH1 0x4 ADD PUSH2 0x20C SWAP1 PUSH2 0xB95 JUMP JUMPDEST PUSH1 0x40 MLOAD DUP1 SWAP2 SUB SWAP1 REVERT JUMPDEST PUSH1 0x0 PUSH1 0x2 DUP1 SLOAD SWAP1 POP EQ PUSH2 0x341 JUMPI PUSH1 0x0 PUSH1 0x2 PUSH2 0x23F PUSH1 0x1 PUSH1 0x2 DUP1 SLOAD SWAP1 POP PUSH2 0x901 SWAP1 SWAP2 SWAP1 PUSH4 0xFFFFFFFF AND JUMP JUMPDEST DUP2 SLOAD DUP2 LT PUSH2 0x250 JUMPI PUSH2 0x24F PUSH2 0xD80 JUMP JUMPDEST JUMPDEST SWAP1 PUSH1 0x0 MSTORE PUSH1 0x20 PUSH1 0x0 KECCAK256 ADD SLOAD SWAP1 POP DUP4 PUSH1 0x1 DUP3 DUP2 SLOAD DUP2 LT PUSH2 0x272 JUMPI PUSH2 0x271 PUSH2 0xD80 JUMP JUMPDEST JUMPDEST SWAP1 PUSH1 0x0 MSTORE PUSH1 0x20 PUSH1 0x0 KECCAK256 ADD PUSH1 0x0 PUSH2 0x100 EXP DUP2 SLOAD DUP2 PUSH20 0xFFFFFFFFFFFFFFFFFFFFFFFFFFFFFFFFFFFFFFFF MUL NOT AND SWAP1 DUP4 PUSH20 0xFFFFFFFFFFFFFFFFFFFFFFFFFFFFFFFFFFFFFFFF AND MUL OR SWAP1 SSTORE POP PUSH1 0x2 DUP1 SLOAD DUP1 PUSH2 0x2CC JUMPI PUSH2 0x2CB PUSH2 0xD51 JUMP JUMPDEST JUMPDEST PUSH1 0x1 SWAP1 SUB DUP2 DUP2 SWAP1 PUSH1 0x0 MSTORE PUSH1 0x20 PUSH1 0x0 KECCAK256 ADD PUSH1 0x0 SWAP1 SSTORE SWAP1 SSTORE PUSH32 0x2CCE1494B4EF3C5682648D5C4BBF147548F403FC2AC218E41EC797BABDB0ACB5 DUP5 DUP3 PUSH1 0x40 MLOAD PUSH2 0x313 SWAP3 SWAP2 SWAP1 PUSH2 0xBF5 JUMP JUMPDEST PUSH1 0x40 MLOAD DUP1 SWAP2 SUB SWAP1 LOG1 DUP1 PUSH1 0x3 SLOAD PUSH1 0x1 DUP1 SLOAD SWAP1 POP LT DUP1 PUSH2 0x337 JUMPI POP PUSH1 0x0 PUSH1 0x2 DUP1 SLOAD SWAP1 POP EQ ISZERO JUMPDEST SWAP3 POP SWAP3 POP POP PUSH2 0x42C JUMP JUMPDEST PUSH1 0x1 DUP4 SWAP1 DUP1 PUSH1 0x1 DUP2 SLOAD ADD DUP1 DUP3 SSTORE DUP1 SWAP2 POP POP PUSH1 0x1 SWAP1 SUB SWAP1 PUSH1 0x0 MSTORE PUSH1 0x20 PUSH1 0x0 KECCAK256 ADD PUSH1 0x0 SWAP1 SWAP2 SWAP1 SWAP2 SWAP1 SWAP2 PUSH2 0x100 EXP DUP2 SLOAD DUP2 PUSH20 0xFFFFFFFFFFFFFFFFFFFFFFFFFFFFFFFFFFFFFFFF MUL NOT AND SWAP1 DUP4 PUSH20 0xFFFFFFFFFFFFFFFFFFFFFFFFFFFFFFFFFFFFFFFF AND MUL OR SWAP1 SSTORE POP PUSH32 0x2CCE1494B4EF3C5682648D5C4BBF147548F403FC2AC218E41EC797BABDB0ACB5 DUP4 PUSH2 0x3DE PUSH1 0x1 DUP1 DUP1 SLOAD SWAP1 POP PUSH2 0x901 SWAP1 SWAP2 SWAP1 PUSH4 0xFFFFFFFF AND JUMP JUMPDEST PUSH1 0x40 MLOAD PUSH2 0x3EC SWAP3 SWAP2 SWAP1 PUSH2 0xBF5 JUMP JUMPDEST PUSH1 0x40 MLOAD DUP1 SWAP2 SUB SWAP1 LOG1 PUSH2 0x40C PUSH1 0x1 DUP1 DUP1 SLOAD SWAP1 POP PUSH2 0x901 SWAP1 SWAP2 SWAP1 PUSH4 0xFFFFFFFF AND JUMP JUMPDEST PUSH1 0x3 SLOAD PUSH1 0x1 DUP1 SLOAD SWAP1 POP LT DUP1 PUSH2 0x427 JUMPI POP PUSH1 0x0 PUSH1 0x2 DUP1 SLOAD SWAP1 POP EQ ISZERO JUMPDEST SWAP2 POP SWAP2 POP JUMPDEST SWAP2 POP SWAP2 JUMP JUMPDEST PUSH1 0x3 SLOAD DUP2 JUMP JUMPDEST PUSH1 0x0 DUP1 SLOAD SWAP1 PUSH2 0x100 EXP SWAP1 DIV PUSH20 0xFFFFFFFFFFFFFFFFFFFFFFFFFFFFFFFFFFFFFFFF AND DUP2 JUMP JUMPDEST PUSH1 0x0 PUSH1 0x4 PUSH1 0x0 CALLER PUSH20 0xFFFFFFFFFFFFFFFFFFFFFFFFFFFFFFFFFFFFFFFF AND PUSH20 0xFFFFFFFFFFFFFFFFFFFFFFFFFFFFFFFFFFFFFFFF AND DUP2 MSTORE PUSH1 0x20 ADD SWAP1 DUP2 MSTORE PUSH1 0x20 ADD PUSH1 0x0 KECCAK256 SLOAD SWAP1 POP PUSH1 0x0 PUSH1 0x4 PUSH1 0x0 CALLER PUSH20 0xFFFFFFFFFFFFFFFFFFFFFFFFFFFFFFFFFFFFFFFF AND PUSH20 0xFFFFFFFFFFFFFFFFFFFFFFFFFFFFFFFFFFFFFFFF AND DUP2 MSTORE PUSH1 0x20 ADD SWAP1 DUP2 MSTORE PUSH1 0x20 ADD PUSH1 0x0 KECCAK256 DUP2 SWAP1 SSTORE POP CALLER PUSH20 0xFFFFFFFFFFFFFFFFFFFFFFFFFFFFFFFFFFFFFFFF AND PUSH2 0x8FC DUP3 SWAP1 DUP2 ISZERO MUL SWAP1 PUSH1 0x40 MLOAD PUSH1 0x0 PUSH1 0x40 MLOAD DUP1 DUP4 SUB DUP2 DUP6 DUP9 DUP9 CALL SWAP4 POP POP POP POP ISZERO DUP1 ISZERO PUSH2 0x52A JUMPI RETURNDATASIZE PUSH1 0x0 DUP1 RETURNDATACOPY RETURNDATASIZE PUSH1 0x0 REVERT JUMPDEST POP POP JUMP JUMPDEST PUSH1 0x0 DUP4 PUSH1 0x1 DUP1 SLOAD SWAP1 POP DUP2 LT PUSH2 0x542 JUMPI PUSH1 0x0 DUP1 REVERT JUMPDEST PUSH1 0x0 PUSH20 0xFFFFFFFFFFFFFFFFFFFFFFFFFFFFFFFFFFFFFFFF AND PUSH1 0x1 DUP3 DUP2 SLOAD DUP2 LT PUSH2 0x56E JUMPI PUSH2 0x56D PUSH2 0xD80 JUMP JUMPDEST JUMPDEST SWAP1 PUSH1 0x0 MSTORE PUSH1 0x20 PUSH1 0x0 KECCAK256 ADD PUSH1 0x0 SWAP1 SLOAD SWAP1 PUSH2 0x100 EXP SWAP1 DIV PUSH20 0xFFFFFFFFFFFFFFFFFFFFFFFFFFFFFFFFFFFFFFFF AND PUSH20 0xFFFFFFFFFFFFFFFFFFFFFFFFFFFFFFFFFFFFFFFF AND EQ ISZERO PUSH2 0x5F0 JUMPI PUSH1 0x40 MLOAD PUSH32 0x8C379A000000000000000000000000000000000000000000000000000000000 DUP2 MSTORE PUSH1 0x4 ADD PUSH2 0x5E7 SWAP1 PUSH2 0xC31 JUMP JUMPDEST PUSH1 0x40 MLOAD DUP1 SWAP2 SUB SWAP1 REVERT JUMPDEST PUSH1 0x1 DUP2 DUP2 SLOAD DUP2 LT PUSH2 0x604 JUMPI PUSH2 0x603 PUSH2 0xD80 JUMP JUMPDEST JUMPDEST SWAP1 PUSH1 0x0 MSTORE PUSH1 0x20 PUSH1 0x0 KECCAK256 ADD PUSH1 0x0 SWAP1 SLOAD SWAP1 PUSH2 0x100 EXP SWAP1 DIV PUSH20 0xFFFFFFFFFFFFFFFFFFFFFFFFFFFFFFFFFFFFFFFF AND PUSH20 0xFFFFFFFFFFFFFFFFFFFFFFFFFFFFFFFFFFFFFFFF AND CALLER PUSH20 0xFFFFFFFFFFFFFFFFFFFFFFFFFFFFFFFFFFFFFFFF AND EQ PUSH2 0x69C JUMPI PUSH1 0x40 MLOAD PUSH32 0x8C379A000000000000000000000000000000000000000000000000000000000 DUP2 MSTORE PUSH1 0x4 ADD PUSH2 0x693 SWAP1 PUSH2 0xBB5 JUMP JUMPDEST PUSH1 0x40 MLOAD DUP1 SWAP2 SUB SWAP1 REVERT JUMPDEST PUSH2 0x6A4 PUSH2 0x924 JUMP JUMPDEST DUP3 PUSH1 0x4 PUSH1 0x0 DUP7 PUSH20 0xFFFFFFFFFFFFFFFFFFFFFFFFFFFFFFFFFFFFFFFF AND PUSH20 0xFFFFFFFFFFFFFFFFFFFFFFFFFFFFFFFFFFFFFFFF AND DUP2 MSTORE PUSH1 0x20 ADD SWAP1 DUP2 MSTORE PUSH1 0x20 ADD PUSH1 0x0 KECCAK256 DUP2 SWAP1 SSTORE POP PUSH1 0x1 SWAP2 POP POP SWAP4 SWAP3 POP POP POP JUMP JUMPDEST PUSH1 0x0 DUP1 SLOAD SWAP1 PUSH2 0x100 EXP SWAP1 DIV PUSH20 0xFFFFFFFFFFFFFFFFFFFFFFFFFFFFFFFFFFFFFFFF AND PUSH20 0xFFFFFFFFFFFFFFFFFFFFFFFFFFFFFFFFFFFFFFFF AND CALLER PUSH20 0xFFFFFFFFFFFFFFFFFFFFFFFFFFFFFFFFFFFFFFFF AND EQ PUSH2 0x782 JUMPI PUSH1 0x40 MLOAD PUSH32 0x8C379A000000000000000000000000000000000000000000000000000000000 DUP2 MSTORE PUSH1 0x4 ADD PUSH2 0x779 SWAP1 PUSH2 0xB55 JUMP JUMPDEST PUSH1 0x40 MLOAD DUP1 SWAP2 SUB SWAP1 REVERT JUMPDEST PUSH1 0x1 DUP1 SLOAD SWAP1 POP DUP2 LT PUSH2 0x7C9 JUMPI PUSH1 0x40 MLOAD PUSH32 0x8C379A000000000000000000000000000000000000000000000000000000000 DUP2 MSTORE PUSH1 0x4 ADD PUSH2 0x7C0 SWAP1 PUSH2 0xBD5 JUMP JUMPDEST PUSH1 0x40 MLOAD DUP1 SWAP2 SUB SWAP1 REVERT JUMPDEST PUSH1 0x0 PUSH20 0xFFFFFFFFFFFFFFFFFFFFFFFFFFFFFFFFFFFFFFFF AND PUSH1 0x1 DUP3 DUP2 SLOAD DUP2 LT PUSH2 0x7F5 JUMPI PUSH2 0x7F4 PUSH2 0xD80 JUMP JUMPDEST JUMPDEST SWAP1 PUSH1 0x0 MSTORE PUSH1 0x20 PUSH1 0x0 KECCAK256 ADD PUSH1 0x0 SWAP1 SLOAD SWAP1 PUSH2 0x100 EXP SWAP1 DIV PUSH20 0xFFFFFFFFFFFFFFFFFFFFFFFFFFFFFFFFFFFFFFFF AND PUSH20 0xFFFFFFFFFFFFFFFFFFFFFFFFFFFFFFFFFFFFFFFF AND EQ ISZERO PUSH2 0x877 JUMPI PUSH1 0x40 MLOAD PUSH32 0x8C379A000000000000000000000000000000000000000000000000000000000 DUP2 MSTORE PUSH1 0x4 ADD PUSH2 0x86E SWAP1 PUSH2 0xB75 JUMP JUMPDEST PUSH1 0x40 MLOAD DUP1 SWAP2 SUB SWAP1 REVERT JUMPDEST PUSH1 0x0 PUSH1 0x1 DUP3 DUP2 SLOAD DUP2 LT PUSH2 0x88D JUMPI PUSH2 0x88C PUSH2 0xD80 JUMP JUMPDEST JUMPDEST SWAP1 PUSH1 0x0 MSTORE PUSH1 0x20 PUSH1 0x0 KECCAK256 ADD PUSH1 0x0 PUSH2 0x100 EXP DUP2 SLOAD DUP2 PUSH20 0xFFFFFFFFFFFFFFFFFFFFFFFFFFFFFFFFFFFFFFFF MUL NOT AND SWAP1 DUP4 PUSH20 0xFFFFFFFFFFFFFFFFFFFFFFFFFFFFFFFFFFFFFFFF AND MUL OR SWAP1 SSTORE POP PUSH1 0x2 DUP2 SWAP1 DUP1 PUSH1 0x1 DUP2 SLOAD ADD DUP1 DUP3 SSTORE DUP1 SWAP2 POP POP PUSH1 0x1 SWAP1 SUB SWAP1 PUSH1 0x0 MSTORE PUSH1 0x20 PUSH1 0x0 KECCAK256 ADD PUSH1 0x0 SWAP1 SWAP2 SWAP1 SWAP2 SWAP1 SWAP2 POP SSTORE POP JUMP JUMPDEST PUSH1 0x0 DUP3 DUP3 GT ISZERO PUSH2 0x910 JUMPI PUSH1 0x0 DUP1 REVERT JUMPDEST DUP2 DUP4 PUSH2 0x91C SWAP2 SWAP1 PUSH2 0xCA6 JUMP JUMPDEST SWAP1 POP SWAP3 SWAP2 POP POP JUMP JUMPDEST JUMP JUMPDEST PUSH1 0x0 DUP2 CALLDATALOAD SWAP1 POP PUSH2 0x935 DUP2 PUSH2 0xF1F JUMP JUMPDEST SWAP3 SWAP2 POP POP JUMP JUMPDEST PUSH1 0x0 DUP2 CALLDATALOAD SWAP1 POP PUSH2 0x94A DUP2 PUSH2 0xF36 JUMP JUMPDEST SWAP3 SWAP2 POP POP JUMP JUMPDEST PUSH1 0x0 PUSH1 0x20 DUP3 DUP5 SUB SLT ISZERO PUSH2 0x966 JUMPI PUSH2 0x965 PUSH2 0xDAF JUMP JUMPDEST JUMPDEST PUSH1 0x0 PUSH2 0x974 DUP5 DUP3 DUP6 ADD PUSH2 0x926 JUMP JUMPDEST SWAP2 POP POP SWAP3 SWAP2 POP POP JUMP JUMPDEST PUSH1 0x0 PUSH1 0x20 DUP3 DUP5 SUB SLT ISZERO PUSH2 0x993 JUMPI PUSH2 0x992 PUSH2 0xDAF JUMP JUMPDEST JUMPDEST PUSH1 0x0 PUSH2 0x9A1 DUP5 DUP3 DUP6 ADD PUSH2 0x93B JUMP JUMPDEST SWAP2 POP POP SWAP3 SWAP2 POP POP JUMP JUMPDEST PUSH1 0x0 DUP1 PUSH1 0x0 PUSH1 0x60 DUP5 DUP7 SUB SLT ISZERO PUSH2 0x9C3 JUMPI PUSH2 0x9C2 PUSH2 0xDAF JUMP JUMPDEST JUMPDEST PUSH1 0x0 PUSH2 0x9D1 DUP7 DUP3 DUP8 ADD PUSH2 0x93B JUMP JUMPDEST SWAP4 POP POP PUSH1 0x20 PUSH2 0x9E2 DUP7 DUP3 DUP8 ADD PUSH2 0x926 JUMP JUMPDEST SWAP3 POP POP PUSH1 0x40 PUSH2 0x9F3 DUP7 DUP3 DUP8 ADD PUSH2 0x93B JUMP JUMPDEST SWAP2 POP POP SWAP3 POP SWAP3 POP SWAP3 JUMP JUMPDEST PUSH2 0xA06 DUP2 PUSH2 0xCDA JUMP JUMPDEST DUP3 MSTORE POP POP JUMP JUMPDEST PUSH2 0xA15 DUP2 PUSH2 0xCEC JUMP JUMPDEST DUP3 MSTORE POP POP JUMP JUMPDEST PUSH1 0x0 PUSH2 0xA28 PUSH1 0x2D DUP4 PUSH2 0xC95 JUMP JUMPDEST SWAP2 POP PUSH2 0xA33 DUP3 PUSH2 0xDB4 JUMP JUMPDEST PUSH1 0x40 DUP3 ADD SWAP1 POP SWAP2 SWAP1 POP JUMP JUMPDEST PUSH1 0x0 PUSH2 0xA4B PUSH1 0x17 DUP4 PUSH2 0xC95 JUMP JUMPDEST SWAP2 POP PUSH2 0xA56 DUP3 PUSH2 0xE03 JUMP JUMPDEST PUSH1 0x20 DUP3 ADD SWAP1 POP SWAP2 SWAP1 POP JUMP JUMPDEST PUSH1 0x0 PUSH2 0xA6E PUSH1 0x12 DUP4 PUSH2 0xC95 JUMP JUMPDEST SWAP2 POP PUSH2 0xA79 DUP3 PUSH2 0xE2C JUMP JUMPDEST PUSH1 0x20 DUP3 ADD SWAP1 POP SWAP2 SWAP1 POP JUMP JUMPDEST PUSH1 0x0 PUSH2 0xA91 PUSH1 0x3F DUP4 PUSH2 0xC95 JUMP JUMPDEST SWAP2 POP PUSH2 0xA9C DUP3 PUSH2 0xE55 JUMP JUMPDEST PUSH1 0x40 DUP3 ADD SWAP1 POP SWAP2 SWAP1 POP JUMP JUMPDEST PUSH1 0x0 PUSH2 0xAB4 PUSH1 0x11 DUP4 PUSH2 0xC95 JUMP JUMPDEST SWAP2 POP PUSH2 0xABF DUP3 PUSH2 0xEA4 JUMP JUMPDEST PUSH1 0x20 DUP3 ADD SWAP1 POP SWAP2 SWAP1 POP JUMP JUMPDEST PUSH1 0x0 PUSH2 0xAD7 PUSH1 0x13 DUP4 PUSH2 0xC95 JUMP JUMPDEST SWAP2 POP PUSH2 0xAE2 DUP3 PUSH2 0xECD JUMP JUMPDEST PUSH1 0x20 DUP3 ADD SWAP1 POP SWAP2 SWAP1 POP JUMP JUMPDEST PUSH1 0x0 PUSH2 0xAFA PUSH1 0x10 DUP4 PUSH2 0xC95 JUMP JUMPDEST SWAP2 POP PUSH2 0xB05 DUP3 PUSH2 0xEF6 JUMP JUMPDEST PUSH1 0x20 DUP3 ADD SWAP1 POP SWAP2 SWAP1 POP JUMP JUMPDEST PUSH2 0xB19 DUP2 PUSH2 0xD18 JUMP JUMPDEST DUP3 MSTORE POP POP JUMP JUMPDEST PUSH1 0x0 PUSH1 0x20 DUP3 ADD SWAP1 POP PUSH2 0xB34 PUSH1 0x0 DUP4 ADD DUP5 PUSH2 0x9FD JUMP JUMPDEST SWAP3 SWAP2 POP POP JUMP JUMPDEST PUSH1 0x0 PUSH1 0x20 DUP3 ADD SWAP1 POP PUSH2 0xB4F PUSH1 0x0 DUP4 ADD DUP5 PUSH2 0xA0C JUMP JUMPDEST SWAP3 SWAP2 POP POP JUMP JUMPDEST PUSH1 0x0 PUSH1 0x20 DUP3 ADD SWAP1 POP DUP2 DUP2 SUB PUSH1 0x0 DUP4 ADD MSTORE PUSH2 0xB6E DUP2 PUSH2 0xA1B JUMP JUMPDEST SWAP1 POP SWAP2 SWAP1 POP JUMP JUMPDEST PUSH1 0x0 PUSH1 0x20 DUP3 ADD SWAP1 POP DUP2 DUP2 SUB PUSH1 0x0 DUP4 ADD MSTORE PUSH2 0xB8E DUP2 PUSH2 0xA3E JUMP JUMPDEST SWAP1 POP SWAP2 SWAP1 POP JUMP JUMPDEST PUSH1 0x0 PUSH1 0x20 DUP3 ADD SWAP1 POP DUP2 DUP2 SUB PUSH1 0x0 DUP4 ADD MSTORE PUSH2 0xBAE DUP2 PUSH2 0xA61 JUMP JUMPDEST SWAP1 POP SWAP2 SWAP1 POP JUMP JUMPDEST PUSH1 0x0 PUSH1 0x20 DUP3 ADD SWAP1 POP DUP2 DUP2 SUB PUSH1 0x0 DUP4 ADD MSTORE PUSH2 0xBCE DUP2 PUSH2 0xA84 JUMP JUMPDEST SWAP1 POP SWAP2 SWAP1 POP JUMP JUMPDEST PUSH1 0x0 PUSH1 0x20 DUP3 ADD SWAP1 POP DUP2 DUP2 SUB PUSH1 0x0 DUP4 ADD MSTORE PUSH2 0xBEE DUP2 PUSH2 0xAA7 JUMP JUMPDEST SWAP1 POP SWAP2 SWAP1 POP JUMP JUMPDEST PUSH1 0x0 PUSH1 0x60 DUP3 ADD SWAP1 POP DUP2 DUP2 SUB PUSH1 0x0 DUP4 ADD MSTORE PUSH2 0xC0E DUP2 PUSH2 0xACA JUMP JUMPDEST SWAP1 POP PUSH2 0xC1D PUSH1 0x20 DUP4 ADD DUP6 PUSH2 0x9FD JUMP JUMPDEST PUSH2 0xC2A PUSH1 0x40 DUP4 ADD DUP5 PUSH2 0xB10 JUMP JUMPDEST SWAP4 SWAP3 POP POP POP JUMP JUMPDEST PUSH1 0x0 PUSH1 0x20 DUP3 ADD SWAP1 POP DUP2 DUP2 SUB PUSH1 0x0 DUP4 ADD MSTORE PUSH2 0xC4A DUP2 PUSH2 0xAED JUMP JUMPDEST SWAP1 POP SWAP2 SWAP1 POP JUMP JUMPDEST PUSH1 0x0 PUSH1 0x20 DUP3 ADD SWAP1 POP PUSH2 0xC66 PUSH1 0x0 DUP4 ADD DUP5 PUSH2 0xB10 JUMP JUMPDEST SWAP3 SWAP2 POP POP JUMP JUMPDEST PUSH1 0x0 PUSH1 0x40 DUP3 ADD SWAP1 POP PUSH2 0xC81 PUSH1 0x0 DUP4 ADD DUP6 PUSH2 0xB10 JUMP JUMPDEST PUSH2 0xC8E PUSH1 0x20 DUP4 ADD DUP5 PUSH2 0xA0C JUMP JUMPDEST SWAP4 SWAP3 POP POP POP JUMP JUMPDEST PUSH1 0x0 DUP3 DUP3 MSTORE PUSH1 0x20 DUP3 ADD SWAP1 POP SWAP3 SWAP2 POP POP JUMP JUMPDEST PUSH1 0x0 PUSH2 0xCB1 DUP3 PUSH2 0xD18 JUMP JUMPDEST SWAP2 POP PUSH2 0xCBC DUP4 PUSH2 0xD18 JUMP JUMPDEST SWAP3 POP DUP3 DUP3 LT ISZERO PUSH2 0xCCF JUMPI PUSH2 0xCCE PUSH2 0xD22 JUMP JUMPDEST JUMPDEST DUP3 DUP3 SUB SWAP1 POP SWAP3 SWAP2 POP POP JUMP JUMPDEST PUSH1 0x0 PUSH2 0xCE5 DUP3 PUSH2 0xCF8 JUMP JUMPDEST SWAP1 POP SWAP2 SWAP1 POP JUMP JUMPDEST PUSH1 0x0 DUP2 ISZERO ISZERO SWAP1 POP SWAP2 SWAP1 POP JUMP JUMPDEST PUSH1 0x0 PUSH20 0xFFFFFFFFFFFFFFFFFFFFFFFFFFFFFFFFFFFFFFFF DUP3 AND SWAP1 POP SWAP2 SWAP1 POP JUMP JUMPDEST PUSH1 0x0 DUP2 SWAP1 POP SWAP2 SWAP1 POP JUMP JUMPDEST PUSH32 0x4E487B7100000000000000000000000000000000000000000000000000000000 PUSH1 0x0 MSTORE PUSH1 0x11 PUSH1 0x4 MSTORE PUSH1 0x24 PUSH1 0x0 REVERT JUMPDEST PUSH32 0x4E487B7100000000000000000000000000000000000000000000000000000000 PUSH1 0x0 MSTORE PUSH1 0x31 PUSH1 0x4 MSTORE PUSH1 0x24 PUSH1 0x0 REVERT JUMPDEST PUSH32 0x4E487B7100000000000000000000000000000000000000000000000000000000 PUSH1 0x0 MSTORE PUSH1 0x32 PUSH1 0x4 MSTORE PUSH1 0x24 PUSH1 0x0 REVERT JUMPDEST PUSH1 0x0 DUP1 REVERT JUMPDEST PUSH32 0x4F6E6C79206372656174696E6720636F6E74726163742063616E2063616C6C20 PUSH1 0x0 DUP3 ADD MSTORE PUSH32 0x746869732066756E6374696F6E00000000000000000000000000000000000000 PUSH1 0x20 DUP3 ADD MSTORE POP JUMP JUMPDEST PUSH32 0x6163636F756E7420616C72656164792064656C65746564000000000000000000 PUSH1 0x0 DUP3 ADD MSTORE POP JUMP JUMPDEST PUSH32 0x5768697465206C6973742069732066756C6C0000000000000000000000000000 PUSH1 0x0 DUP3 ADD MSTORE POP JUMP JUMPDEST PUSH32 0x536D61727420636F6E7472616374206E6F7420616C6C6F77656420746F207769 PUSH1 0x0 DUP3 ADD MSTORE PUSH32 0x746864726177206D6F6E6579207468726F756768742074686973206761746500 PUSH1 0x20 DUP3 ADD MSTORE POP JUMP JUMPDEST PUSH32 0x546F6B656E206E6F742063726561746564000000000000000000000000000000 PUSH1 0x0 DUP3 ADD MSTORE POP JUMP JUMPDEST PUSH32 0x416464656420746F207768697465206C69737400000000000000000000000000 PUSH1 0x0 DUP3 ADD MSTORE POP JUMP JUMPDEST PUSH32 0x44656C6574656420436F6E747261637400000000000000000000000000000000 PUSH1 0x0 DUP3 ADD MSTORE POP JUMP JUMPDEST PUSH2 0xF28 DUP2 PUSH2 0xCDA JUMP JUMPDEST DUP2 EQ PUSH2 0xF33 JUMPI PUSH1 0x0 DUP1 REVERT JUMPDEST POP JUMP JUMPDEST PUSH2 0xF3F DUP2 PUSH2 0xD18 JUMP JUMPDEST DUP2 EQ PUSH2 0xF4A JUMPI PUSH1 0x0 DUP1 REVERT JUMPDEST POP JUMP INVALID LOG2 PUSH5 0x6970667358 0x22 SLT KECCAK256 CHAINID 0xD8 0xFB JUMPI 0xD0 NOT CALLCODE SDIV POP 0xC DUP10 GAS MOD EXP SWAP1 0x23 SWAP1 0xC3 DUP2 0x2E EXTCODEHASH PUSH30 0x7957503A5B2B53176AB964736F6C63430008070033000000000000000000 "
				},
				"gasEstimates": {
					"creation": {
						"codeDepositCost": "794200",
						"executionCost": "infinite",
						"totalCost": "infinite"
					},
					"external": {
						"append2WhiteList(address)": "infinite",
						"deleteFromWhiteList(uint256)": "82016",
						"max_nuser()": "2429",
						"parent_contract()": "2533",
						"payDapp(uint256,address,uint256)": "infinite",
						"withdrawMoney()": "infinite"
					},
					"internal": {
						"informParent()": "infinite",
						"withdrawFromPool()": "9"
					}
				},
				"methodIdentifiers": {
					"append2WhiteList(address)": "317549f2",
					"deleteFromWhiteList(uint256)": "cbc20f30",
					"max_nuser()": "89f78c8e",
					"parent_contract()": "9dc61d4f",
					"payDapp(uint256,address,uint256)": "bc134ae3",
					"withdrawMoney()": "ac446002"
				}
			},
			"userdoc": {
				"kind": "user",
				"methods": {
					"append2WhiteList(address)": {
						"notice": "Adds a new smart contract to a whitelist"
					},
					"deleteFromWhiteList(uint256)": {
						"notice": "Delete an account from the whitelist"
					},
					"payDapp(uint256,address,uint256)": {
						"notice": "Withdraws money from a lending pool and pays to a requested user"
					}
				},
				"notice": "Transfers money from lending pool to preffered address",
				"version": 1
			}
		}
	}
}