{
  "abi": [
    {
      "inputs": [
        {
          "internalType": "uint256",
          "name": "total_users",
          "type": "uint256"
        },
        {
          "internalType": "address",
          "name": "lending_pool_address",
          "type": "address"
        }
      ],
      "stateMutability": "nonpayable",
      "type": "constructor"
    },
    {
      "anonymous": false,
      "inputs": [
        {
          "indexed": false,
          "internalType": "string",
          "name": "message",
          "type": "string"
        },
        {
          "indexed": false,
          "internalType": "address",
          "name": "related",
          "type": "address"
        },
        {
          "indexed": false,
          "internalType": "uint256",
          "name": "token",
          "type": "uint256"
        }
      ],
      "name": "LendingPoolGateMessage",
      "type": "event"
    },
    {
      "inputs": [
        {
          "internalType": "address",
          "name": "contract_address",
          "type": "address"
        }
      ],
      "name": "append2WhiteList",
      "outputs": [
        {
          "internalType": "uint256",
          "name": "",
          "type": "uint256"
        },
        {
          "internalType": "bool",
          "name": "",
          "type": "bool"
        }
      ],
      "stateMutability": "nonpayable",
      "type": "function"
    },
    {
      "inputs": [
        {
          "internalType": "uint256",
          "name": "id",
          "type": "uint256"
        }
      ],
      "name": "deleteFromWhiteList",
      "outputs": [],
      "stateMutability": "nonpayable",
      "type": "function"
    },
    {
      "inputs": [],
      "name": "lending_pool",
      "outputs": [
        {
          "internalType": "contract LendingPool",
          "name": "",
          "type": "address"
        }
      ],
      "stateMutability": "view",
      "type": "function"
    },
    {
      "inputs": [],
      "name": "max_nuser",
      "outputs": [
        {
          "internalType": "uint256",
          "name": "",
          "type": "uint256"
        }
      ],
      "stateMutability": "view",
      "type": "function"
    },
    {
      "inputs": [],
      "name": "parent_contract",
      "outputs": [
        {
          "internalType": "address",
          "name": "",
          "type": "address"
        }
      ],
      "stateMutability": "view",
      "type": "function"
    },
    {
      "inputs": [
        {
          "internalType": "uint256",
          "name": "requester_id",
          "type": "uint256"
        },
        {
          "internalType": "address",
          "name": "reciever_address",
          "type": "address"
        },
        {
          "internalType": "uint256",
          "name": "amount",
          "type": "uint256"
        }
      ],
      "name": "payDapp",
      "outputs": [
        {
          "internalType": "bool",
          "name": "",
          "type": "bool"
        }
      ],
      "stateMutability": "nonpayable",
      "type": "function"
    },
    {
      "inputs": [],
      "name": "withdrawMoney",
      "outputs": [],
      "stateMutability": "nonpayable",
      "type": "function"
    }
  ],
  "bytecode": "608060405234801561001057600080fd5b506040516109c73803806109c783398101604081905261002f916100d5565b60008054336001600160a01b0319918216811783556003859055600480549092166001600160a01b03851617909155604080516060808252601c908201527f4c656e64696e6720706f6f6c2067617465206372656174656420627900000000608082015260208101929092528101919091527f2cce1494b4ef3c5682648d5c4bbf147548f403fc2ac218e41ec797babdb0acb59060a00160405180910390a15050610112565b600080604083850312156100e857600080fd5b825160208401519092506001600160a01b038116811461010757600080fd5b809150509250929050565b6108a6806101216000396000f3fe608060405234801561001057600080fd5b506004361061007d5760003560e01c8063ac4460021161005b578063ac446002146100f1578063bc134ae3146100fb578063cbc20f301461011e578063f984ead81461013157600080fd5b8063317549f21461008257806389f78c8e146100af5780639dc61d4f146100c6575b600080fd5b610095610090366004610726565b610144565b604080519283529015156020830152015b60405180910390f35b6100b860035481565b6040519081526020016100a6565b6000546100d9906001600160a01b031681565b6040516001600160a01b0390911681526020016100a6565b6100f961037e565b005b61010e610109366004610741565b6103c3565b60405190151581526020016100a6565b6100f961012c366004610776565b610554565b6004546100d9906001600160a01b031681565b6000805481906001600160a01b0316331461017a5760405162461bcd60e51b81526004016101719061078f565b60405180910390fd5b600354600154108061018d575060025415155b6101ce5760405162461bcd60e51b815260206004820152601260248201527115da1a5d19481b1a5cdd081a5cc8199d5b1b60721b6044820152606401610171565b600254156102c75760028054600091906101e99060016106b2565b815481106101f9576101f96107dc565b90600052602060002001549050836001828154811061021a5761021a6107dc565b9060005260206000200160006101000a8154816001600160a01b0302191690836001600160a01b031602179055506002805480610259576102596107f2565b600190038181906000526020600020016000905590557f2cce1494b4ef3c5682648d5c4bbf147548f403fc2ac218e41ec797babdb0acb584826040516102a0929190610808565b60405180910390a1600354600154829111806102bd575060025415155b9250925050915091565b60018054808201825560008290527fb10e2d527612073b26eecdfd717e6a320cf44b4afac2b0732d9fcbe2b7fa0cf60180546001600160a01b0319166001600160a01b03861617905580547f2cce1494b4ef3c5682648d5c4bbf147548f403fc2ac218e41ec797babdb0acb591859161033f916106b2565b60405161034d929190610808565b60405180910390a160018054610362916106b2565b6003546001541080610375575060025415155b91509150915091565b33600081815260056020526040808220805490839055905190929183156108fc02918491818181858888f193505050501580156103bf573d6000803e3d6000fd5b5050565b600154600090849081106103d657600080fd5b60006001600160a01b0316600182815481106103f4576103f46107dc565b6000918252602090912001546001600160a01b0316036104495760405162461bcd60e51b815260206004820152601060248201526f11195b195d19590810dbdb9d1c9858dd60821b6044820152606401610171565b6001818154811061045c5761045c6107dc565b6000918252602090912001546001600160a01b031633146104e55760405162461bcd60e51b815260206004820152603f60248201527f536d61727420636f6e7472616374206e6f7420616c6c6f77656420746f20776960448201527f746864726177206d6f6e6579207468726f7567687420746869732067617465006064820152608401610171565b60048054604051633607999b60e01b81529182018590526001600160a01b0386811660248401521690633607999b90604401600060405180830381600087803b15801561053157600080fd5b505af1158015610545573d6000803e3d6000fd5b50600198975050505050505050565b6000546001600160a01b0316331461057e5760405162461bcd60e51b81526004016101719061078f565b60015481106105c35760405162461bcd60e51b8152602060048201526011602482015270151bdad95b881b9bdd0818dc99585d1959607a1b6044820152606401610171565b60006001600160a01b0316600182815481106105e1576105e16107dc565b6000918252602090912001546001600160a01b0316036106435760405162461bcd60e51b815260206004820152601760248201527f6163636f756e7420616c72656164792064656c657465640000000000000000006044820152606401610171565b600060018281548110610658576106586107dc565b6000918252602082200180546001600160a01b0319166001600160a01b0393909316929092179091556002805460018101825591527f405787fa12a823e0f2b7631cc41b3ba8828b3321ca811111fa75cd3aa3bb5ace0155565b6000828211156106f95760405162461bcd60e51b815260206004820152601260248201527114dd589cdd1c9858dd1a5bdb8819985a5b1960721b6044820152606401610171565b610703828461084b565b9392505050565b80356001600160a01b038116811461072157600080fd5b919050565b60006020828403121561073857600080fd5b6107038261070a565b60008060006060848603121561075657600080fd5b833592506107666020850161070a565b9150604084013590509250925092565b60006020828403121561078857600080fd5b5035919050565b6020808252602d908201527f4f6e6c79206372656174696e6720636f6e74726163742063616e2063616c6c2060408201526c3a3434b990333ab731ba34b7b760991b606082015260800190565b634e487b7160e01b600052603260045260246000fd5b634e487b7160e01b600052603160045260246000fd5b6060808252601390820152721059191959081d1bc81dda1a5d19481b1a5cdd606a1b60808201526001600160a01b03929092166020830152604082015260a00190565b60008282101561086b57634e487b7160e01b600052601160045260246000fd5b50039056fea2646970667358221220f4d49cce88c6670d812898cecda62f9d2453c200f7be4a17573f13aea47a526264736f6c634300080d0033",
  "bytecodeSha1": "bc3c2b83efc365f08556b4ac1e67166fd3ab4568",
  "compiler": {
    "evm_version": "istanbul",
    "optimizer": {
      "enabled": true,
      "runs": 200
    },
    "version": "0.8.13+commit.abaa5c0e"
  },
  "contractName": "LendingPoolGate",
  "language": "Solidity",
  "natspec": {
    "author": "Hileamlak Yitayew, Matt Tengtrakool",
    "details": "Only whitelisted smart contracts can ask to withdraw money form lending       pools and only the smart contract contract that created this contract     can update the whitelist",
    "kind": "dev",
    "methods": {
      "append2WhiteList(address)": {
        "details": "Only parent smart contract could make this request",
        "notice": "Adds a new smart contract to a whitelist",
        "params": {
          "contract_address": "Address to add to the whitelist"
        },
        "returns": {
          "_0": "id returns the id contract_address should use to withdraw_money, and the status of the white list             true meaning free space is available and false meaning the opposite"
        }
      },
      "deleteFromWhiteList(uint256)": {
        "details": "Only creator smart contract can delete element from a whitelist",
        "notice": "Delete an account from the whitelist",
        "params": {
          "id": "Id of smart contract to be deleted, must be already in whitelist"
        }
      },
      "payDapp(uint256,address,uint256)": {
        "details": "Only whitlisted smart contract can access this function",
        "notice": "Withdraws money from a lending pool and pays to a requested user",
        "params": {
          "amount": "amount of money to be transferred",
          "reciever_address": "Adress money is to be transfered to",
          "requester_id": "Whitlist id of smart contract provided during creation"
        },
        "returns": {
          "_0": "sucess true if payment was successfull or false if it fails."
        }
      }
    },
    "notice": "Transfers money from lending pool to preffered address",
    "title": "LendingPoolGate  ",
    "version": 1
  },
  "opcodes": "PUSH1 0x80 PUSH1 0x40 MSTORE CALLVALUE DUP1 ISZERO PUSH2 0x10 JUMPI PUSH1 0x0 DUP1 REVERT JUMPDEST POP PUSH1 0x4 CALLDATASIZE LT PUSH2 0x7D JUMPI PUSH1 0x0 CALLDATALOAD PUSH1 0xE0 SHR DUP1 PUSH4 0xAC446002 GT PUSH2 0x5B JUMPI DUP1 PUSH4 0xAC446002 EQ PUSH2 0xF1 JUMPI DUP1 PUSH4 0xBC134AE3 EQ PUSH2 0xFB JUMPI DUP1 PUSH4 0xCBC20F30 EQ PUSH2 0x11E JUMPI DUP1 PUSH4 0xF984EAD8 EQ PUSH2 0x131 JUMPI PUSH1 0x0 DUP1 REVERT JUMPDEST DUP1 PUSH4 0x317549F2 EQ PUSH2 0x82 JUMPI DUP1 PUSH4 0x89F78C8E EQ PUSH2 0xAF JUMPI DUP1 PUSH4 0x9DC61D4F EQ PUSH2 0xC6 JUMPI JUMPDEST PUSH1 0x0 DUP1 REVERT JUMPDEST PUSH2 0x95 PUSH2 0x90 CALLDATASIZE PUSH1 0x4 PUSH2 0x726 JUMP JUMPDEST PUSH2 0x144 JUMP JUMPDEST PUSH1 0x40 DUP1 MLOAD SWAP3 DUP4 MSTORE SWAP1 ISZERO ISZERO PUSH1 0x20 DUP4 ADD MSTORE ADD JUMPDEST PUSH1 0x40 MLOAD DUP1 SWAP2 SUB SWAP1 RETURN JUMPDEST PUSH2 0xB8 PUSH1 0x3 SLOAD DUP2 JUMP JUMPDEST PUSH1 0x40 MLOAD SWAP1 DUP2 MSTORE PUSH1 0x20 ADD PUSH2 0xA6 JUMP JUMPDEST PUSH1 0x0 SLOAD PUSH2 0xD9 SWAP1 PUSH1 0x1 PUSH1 0x1 PUSH1 0xA0 SHL SUB AND DUP2 JUMP JUMPDEST PUSH1 0x40 MLOAD PUSH1 0x1 PUSH1 0x1 PUSH1 0xA0 SHL SUB SWAP1 SWAP2 AND DUP2 MSTORE PUSH1 0x20 ADD PUSH2 0xA6 JUMP JUMPDEST PUSH2 0xF9 PUSH2 0x37E JUMP JUMPDEST STOP JUMPDEST PUSH2 0x10E PUSH2 0x109 CALLDATASIZE PUSH1 0x4 PUSH2 0x741 JUMP JUMPDEST PUSH2 0x3C3 JUMP JUMPDEST PUSH1 0x40 MLOAD SWAP1 ISZERO ISZERO DUP2 MSTORE PUSH1 0x20 ADD PUSH2 0xA6 JUMP JUMPDEST PUSH2 0xF9 PUSH2 0x12C CALLDATASIZE PUSH1 0x4 PUSH2 0x776 JUMP JUMPDEST PUSH2 0x554 JUMP JUMPDEST PUSH1 0x4 SLOAD PUSH2 0xD9 SWAP1 PUSH1 0x1 PUSH1 0x1 PUSH1 0xA0 SHL SUB AND DUP2 JUMP JUMPDEST PUSH1 0x0 DUP1 SLOAD DUP2 SWAP1 PUSH1 0x1 PUSH1 0x1 PUSH1 0xA0 SHL SUB AND CALLER EQ PUSH2 0x17A JUMPI PUSH1 0x40 MLOAD PUSH3 0x461BCD PUSH1 0xE5 SHL DUP2 MSTORE PUSH1 0x4 ADD PUSH2 0x171 SWAP1 PUSH2 0x78F JUMP JUMPDEST PUSH1 0x40 MLOAD DUP1 SWAP2 SUB SWAP1 REVERT JUMPDEST PUSH1 0x3 SLOAD PUSH1 0x1 SLOAD LT DUP1 PUSH2 0x18D JUMPI POP PUSH1 0x2 SLOAD ISZERO ISZERO JUMPDEST PUSH2 0x1CE JUMPI PUSH1 0x40 MLOAD PUSH3 0x461BCD PUSH1 0xE5 SHL DUP2 MSTORE PUSH1 0x20 PUSH1 0x4 DUP3 ADD MSTORE PUSH1 0x12 PUSH1 0x24 DUP3 ADD MSTORE PUSH18 0x15DA1A5D19481B1A5CDD081A5CC8199D5B1B PUSH1 0x72 SHL PUSH1 0x44 DUP3 ADD MSTORE PUSH1 0x64 ADD PUSH2 0x171 JUMP JUMPDEST PUSH1 0x2 SLOAD ISZERO PUSH2 0x2C7 JUMPI PUSH1 0x2 DUP1 SLOAD PUSH1 0x0 SWAP2 SWAP1 PUSH2 0x1E9 SWAP1 PUSH1 0x1 PUSH2 0x6B2 JUMP JUMPDEST DUP2 SLOAD DUP2 LT PUSH2 0x1F9 JUMPI PUSH2 0x1F9 PUSH2 0x7DC JUMP JUMPDEST SWAP1 PUSH1 0x0 MSTORE PUSH1 0x20 PUSH1 0x0 KECCAK256 ADD SLOAD SWAP1 POP DUP4 PUSH1 0x1 DUP3 DUP2 SLOAD DUP2 LT PUSH2 0x21A JUMPI PUSH2 0x21A PUSH2 0x7DC JUMP JUMPDEST SWAP1 PUSH1 0x0 MSTORE PUSH1 0x20 PUSH1 0x0 KECCAK256 ADD PUSH1 0x0 PUSH2 0x100 EXP DUP2 SLOAD DUP2 PUSH1 0x1 PUSH1 0x1 PUSH1 0xA0 SHL SUB MUL NOT AND SWAP1 DUP4 PUSH1 0x1 PUSH1 0x1 PUSH1 0xA0 SHL SUB AND MUL OR SWAP1 SSTORE POP PUSH1 0x2 DUP1 SLOAD DUP1 PUSH2 0x259 JUMPI PUSH2 0x259 PUSH2 0x7F2 JUMP JUMPDEST PUSH1 0x1 SWAP1 SUB DUP2 DUP2 SWAP1 PUSH1 0x0 MSTORE PUSH1 0x20 PUSH1 0x0 KECCAK256 ADD PUSH1 0x0 SWAP1 SSTORE SWAP1 SSTORE PUSH32 0x2CCE1494B4EF3C5682648D5C4BBF147548F403FC2AC218E41EC797BABDB0ACB5 DUP5 DUP3 PUSH1 0x40 MLOAD PUSH2 0x2A0 SWAP3 SWAP2 SWAP1 PUSH2 0x808 JUMP JUMPDEST PUSH1 0x40 MLOAD DUP1 SWAP2 SUB SWAP1 LOG1 PUSH1 0x3 SLOAD PUSH1 0x1 SLOAD DUP3 SWAP2 GT DUP1 PUSH2 0x2BD JUMPI POP PUSH1 0x2 SLOAD ISZERO ISZERO JUMPDEST SWAP3 POP SWAP3 POP POP SWAP2 POP SWAP2 JUMP JUMPDEST PUSH1 0x1 DUP1 SLOAD DUP1 DUP3 ADD DUP3 SSTORE PUSH1 0x0 DUP3 SWAP1 MSTORE PUSH32 0xB10E2D527612073B26EECDFD717E6A320CF44B4AFAC2B0732D9FCBE2B7FA0CF6 ADD DUP1 SLOAD PUSH1 0x1 PUSH1 0x1 PUSH1 0xA0 SHL SUB NOT AND PUSH1 0x1 PUSH1 0x1 PUSH1 0xA0 SHL SUB DUP7 AND OR SWAP1 SSTORE DUP1 SLOAD PUSH32 0x2CCE1494B4EF3C5682648D5C4BBF147548F403FC2AC218E41EC797BABDB0ACB5 SWAP2 DUP6 SWAP2 PUSH2 0x33F SWAP2 PUSH2 0x6B2 JUMP JUMPDEST PUSH1 0x40 MLOAD PUSH2 0x34D SWAP3 SWAP2 SWAP1 PUSH2 0x808 JUMP JUMPDEST PUSH1 0x40 MLOAD DUP1 SWAP2 SUB SWAP1 LOG1 PUSH1 0x1 DUP1 SLOAD PUSH2 0x362 SWAP2 PUSH2 0x6B2 JUMP JUMPDEST PUSH1 0x3 SLOAD PUSH1 0x1 SLOAD LT DUP1 PUSH2 0x375 JUMPI POP PUSH1 0x2 SLOAD ISZERO ISZERO JUMPDEST SWAP2 POP SWAP2 POP SWAP2 POP SWAP2 JUMP JUMPDEST CALLER PUSH1 0x0 DUP2 DUP2 MSTORE PUSH1 0x5 PUSH1 0x20 MSTORE PUSH1 0x40 DUP1 DUP3 KECCAK256 DUP1 SLOAD SWAP1 DUP4 SWAP1 SSTORE SWAP1 MLOAD SWAP1 SWAP3 SWAP2 DUP4 ISZERO PUSH2 0x8FC MUL SWAP2 DUP5 SWAP2 DUP2 DUP2 DUP2 DUP6 DUP9 DUP9 CALL SWAP4 POP POP POP POP ISZERO DUP1 ISZERO PUSH2 0x3BF JUMPI RETURNDATASIZE PUSH1 0x0 DUP1 RETURNDATACOPY RETURNDATASIZE PUSH1 0x0 REVERT JUMPDEST POP POP JUMP JUMPDEST PUSH1 0x1 SLOAD PUSH1 0x0 SWAP1 DUP5 SWAP1 DUP2 LT PUSH2 0x3D6 JUMPI PUSH1 0x0 DUP1 REVERT JUMPDEST PUSH1 0x0 PUSH1 0x1 PUSH1 0x1 PUSH1 0xA0 SHL SUB AND PUSH1 0x1 DUP3 DUP2 SLOAD DUP2 LT PUSH2 0x3F4 JUMPI PUSH2 0x3F4 PUSH2 0x7DC JUMP JUMPDEST PUSH1 0x0 SWAP2 DUP3 MSTORE PUSH1 0x20 SWAP1 SWAP2 KECCAK256 ADD SLOAD PUSH1 0x1 PUSH1 0x1 PUSH1 0xA0 SHL SUB AND SUB PUSH2 0x449 JUMPI PUSH1 0x40 MLOAD PUSH3 0x461BCD PUSH1 0xE5 SHL DUP2 MSTORE PUSH1 0x20 PUSH1 0x4 DUP3 ADD MSTORE PUSH1 0x10 PUSH1 0x24 DUP3 ADD MSTORE PUSH16 0x11195B195D19590810DBDB9D1C9858DD PUSH1 0x82 SHL PUSH1 0x44 DUP3 ADD MSTORE PUSH1 0x64 ADD PUSH2 0x171 JUMP JUMPDEST PUSH1 0x1 DUP2 DUP2 SLOAD DUP2 LT PUSH2 0x45C JUMPI PUSH2 0x45C PUSH2 0x7DC JUMP JUMPDEST PUSH1 0x0 SWAP2 DUP3 MSTORE PUSH1 0x20 SWAP1 SWAP2 KECCAK256 ADD SLOAD PUSH1 0x1 PUSH1 0x1 PUSH1 0xA0 SHL SUB AND CALLER EQ PUSH2 0x4E5 JUMPI PUSH1 0x40 MLOAD PUSH3 0x461BCD PUSH1 0xE5 SHL DUP2 MSTORE PUSH1 0x20 PUSH1 0x4 DUP3 ADD MSTORE PUSH1 0x3F PUSH1 0x24 DUP3 ADD MSTORE PUSH32 0x536D61727420636F6E7472616374206E6F7420616C6C6F77656420746F207769 PUSH1 0x44 DUP3 ADD MSTORE PUSH32 0x746864726177206D6F6E6579207468726F756768742074686973206761746500 PUSH1 0x64 DUP3 ADD MSTORE PUSH1 0x84 ADD PUSH2 0x171 JUMP JUMPDEST PUSH1 0x4 DUP1 SLOAD PUSH1 0x40 MLOAD PUSH4 0x3607999B PUSH1 0xE0 SHL DUP2 MSTORE SWAP2 DUP3 ADD DUP6 SWAP1 MSTORE PUSH1 0x1 PUSH1 0x1 PUSH1 0xA0 SHL SUB DUP7 DUP2 AND PUSH1 0x24 DUP5 ADD MSTORE AND SWAP1 PUSH4 0x3607999B SWAP1 PUSH1 0x44 ADD PUSH1 0x0 PUSH1 0x40 MLOAD DUP1 DUP4 SUB DUP2 PUSH1 0x0 DUP8 DUP1 EXTCODESIZE ISZERO DUP1 ISZERO PUSH2 0x531 JUMPI PUSH1 0x0 DUP1 REVERT JUMPDEST POP GAS CALL ISZERO DUP1 ISZERO PUSH2 0x545 JUMPI RETURNDATASIZE PUSH1 0x0 DUP1 RETURNDATACOPY RETURNDATASIZE PUSH1 0x0 REVERT JUMPDEST POP PUSH1 0x1 SWAP9 SWAP8 POP POP POP POP POP POP POP POP JUMP JUMPDEST PUSH1 0x0 SLOAD PUSH1 0x1 PUSH1 0x1 PUSH1 0xA0 SHL SUB AND CALLER EQ PUSH2 0x57E JUMPI PUSH1 0x40 MLOAD PUSH3 0x461BCD PUSH1 0xE5 SHL DUP2 MSTORE PUSH1 0x4 ADD PUSH2 0x171 SWAP1 PUSH2 0x78F JUMP JUMPDEST PUSH1 0x1 SLOAD DUP2 LT PUSH2 0x5C3 JUMPI PUSH1 0x40 MLOAD PUSH3 0x461BCD PUSH1 0xE5 SHL DUP2 MSTORE PUSH1 0x20 PUSH1 0x4 DUP3 ADD MSTORE PUSH1 0x11 PUSH1 0x24 DUP3 ADD MSTORE PUSH17 0x151BDAD95B881B9BDD0818DC99585D1959 PUSH1 0x7A SHL PUSH1 0x44 DUP3 ADD MSTORE PUSH1 0x64 ADD PUSH2 0x171 JUMP JUMPDEST PUSH1 0x0 PUSH1 0x1 PUSH1 0x1 PUSH1 0xA0 SHL SUB AND PUSH1 0x1 DUP3 DUP2 SLOAD DUP2 LT PUSH2 0x5E1 JUMPI PUSH2 0x5E1 PUSH2 0x7DC JUMP JUMPDEST PUSH1 0x0 SWAP2 DUP3 MSTORE PUSH1 0x20 SWAP1 SWAP2 KECCAK256 ADD SLOAD PUSH1 0x1 PUSH1 0x1 PUSH1 0xA0 SHL SUB AND SUB PUSH2 0x643 JUMPI PUSH1 0x40 MLOAD PUSH3 0x461BCD PUSH1 0xE5 SHL DUP2 MSTORE PUSH1 0x20 PUSH1 0x4 DUP3 ADD MSTORE PUSH1 0x17 PUSH1 0x24 DUP3 ADD MSTORE PUSH32 0x6163636F756E7420616C72656164792064656C65746564000000000000000000 PUSH1 0x44 DUP3 ADD MSTORE PUSH1 0x64 ADD PUSH2 0x171 JUMP JUMPDEST PUSH1 0x0 PUSH1 0x1 DUP3 DUP2 SLOAD DUP2 LT PUSH2 0x658 JUMPI PUSH2 0x658 PUSH2 0x7DC JUMP JUMPDEST PUSH1 0x0 SWAP2 DUP3 MSTORE PUSH1 0x20 DUP3 KECCAK256 ADD DUP1 SLOAD PUSH1 0x1 PUSH1 0x1 PUSH1 0xA0 SHL SUB NOT AND PUSH1 0x1 PUSH1 0x1 PUSH1 0xA0 SHL SUB SWAP4 SWAP1 SWAP4 AND SWAP3 SWAP1 SWAP3 OR SWAP1 SWAP2 SSTORE PUSH1 0x2 DUP1 SLOAD PUSH1 0x1 DUP2 ADD DUP3 SSTORE SWAP2 MSTORE PUSH32 0x405787FA12A823E0F2B7631CC41B3BA8828B3321CA811111FA75CD3AA3BB5ACE ADD SSTORE JUMP JUMPDEST PUSH1 0x0 DUP3 DUP3 GT ISZERO PUSH2 0x6F9 JUMPI PUSH1 0x40 MLOAD PUSH3 0x461BCD PUSH1 0xE5 SHL DUP2 MSTORE PUSH1 0x20 PUSH1 0x4 DUP3 ADD MSTORE PUSH1 0x12 PUSH1 0x24 DUP3 ADD MSTORE PUSH18 0x14DD589CDD1C9858DD1A5BDB8819985A5B19 PUSH1 0x72 SHL PUSH1 0x44 DUP3 ADD MSTORE PUSH1 0x64 ADD PUSH2 0x171 JUMP JUMPDEST PUSH2 0x703 DUP3 DUP5 PUSH2 0x84B JUMP JUMPDEST SWAP4 SWAP3 POP POP POP JUMP JUMPDEST DUP1 CALLDATALOAD PUSH1 0x1 PUSH1 0x1 PUSH1 0xA0 SHL SUB DUP2 AND DUP2 EQ PUSH2 0x721 JUMPI PUSH1 0x0 DUP1 REVERT JUMPDEST SWAP2 SWAP1 POP JUMP JUMPDEST PUSH1 0x0 PUSH1 0x20 DUP3 DUP5 SUB SLT ISZERO PUSH2 0x738 JUMPI PUSH1 0x0 DUP1 REVERT JUMPDEST PUSH2 0x703 DUP3 PUSH2 0x70A JUMP JUMPDEST PUSH1 0x0 DUP1 PUSH1 0x0 PUSH1 0x60 DUP5 DUP7 SUB SLT ISZERO PUSH2 0x756 JUMPI PUSH1 0x0 DUP1 REVERT JUMPDEST DUP4 CALLDATALOAD SWAP3 POP PUSH2 0x766 PUSH1 0x20 DUP6 ADD PUSH2 0x70A JUMP JUMPDEST SWAP2 POP PUSH1 0x40 DUP5 ADD CALLDATALOAD SWAP1 POP SWAP3 POP SWAP3 POP SWAP3 JUMP JUMPDEST PUSH1 0x0 PUSH1 0x20 DUP3 DUP5 SUB SLT ISZERO PUSH2 0x788 JUMPI PUSH1 0x0 DUP1 REVERT JUMPDEST POP CALLDATALOAD SWAP2 SWAP1 POP JUMP JUMPDEST PUSH1 0x20 DUP1 DUP3 MSTORE PUSH1 0x2D SWAP1 DUP3 ADD MSTORE PUSH32 0x4F6E6C79206372656174696E6720636F6E74726163742063616E2063616C6C20 PUSH1 0x40 DUP3 ADD MSTORE PUSH13 0x3A3434B990333AB731BA34B7B7 PUSH1 0x99 SHL PUSH1 0x60 DUP3 ADD MSTORE PUSH1 0x80 ADD SWAP1 JUMP JUMPDEST PUSH4 0x4E487B71 PUSH1 0xE0 SHL PUSH1 0x0 MSTORE PUSH1 0x32 PUSH1 0x4 MSTORE PUSH1 0x24 PUSH1 0x0 REVERT JUMPDEST PUSH4 0x4E487B71 PUSH1 0xE0 SHL PUSH1 0x0 MSTORE PUSH1 0x31 PUSH1 0x4 MSTORE PUSH1 0x24 PUSH1 0x0 REVERT JUMPDEST PUSH1 0x60 DUP1 DUP3 MSTORE PUSH1 0x13 SWAP1 DUP3 ADD MSTORE PUSH19 0x1059191959081D1BC81DDA1A5D19481B1A5CDD PUSH1 0x6A SHL PUSH1 0x80 DUP3 ADD MSTORE PUSH1 0x1 PUSH1 0x1 PUSH1 0xA0 SHL SUB SWAP3 SWAP1 SWAP3 AND PUSH1 0x20 DUP4 ADD MSTORE PUSH1 0x40 DUP3 ADD MSTORE PUSH1 0xA0 ADD SWAP1 JUMP JUMPDEST PUSH1 0x0 DUP3 DUP3 LT ISZERO PUSH2 0x86B JUMPI PUSH4 0x4E487B71 PUSH1 0xE0 SHL PUSH1 0x0 MSTORE PUSH1 0x11 PUSH1 0x4 MSTORE PUSH1 0x24 PUSH1 0x0 REVERT JUMPDEST POP SUB SWAP1 JUMP INVALID LOG2 PUSH5 0x6970667358 0x22 SLT KECCAK256 DELEGATECALL 0xD4 SWAP13 0xCE DUP9 0xC6 PUSH8 0xD812898CECDA62F SWAP14 0x24 MSTORE8 0xC2 STOP 0xF7 0xBE 0x4A OR JUMPI EXTCODEHASH SGT 0xAE LOG4 PUSH27 0x526264736F6C634300080D00330000000000000000000000000000 ",
  "sha1": "39b6ed9ce0b2c6f95f3f6e5f9e210732d32ba81c",
  "source": "pragma solidity ^0.8.0;\n\n// SPDX-License-Identifier: MIT\n\nimport \"./SafeMath.sol\";\nimport \"./LendingPool.sol\";\n\n\n/// @title LendingPoolGate  \n/// @author Hileamlak Yitayew, Matt Tengtrakool\n/// @notice Transfers money from lending pool to preffered address\n/// @dev Only whitelisted smart contracts can ask to withdraw money form lending \n///      pools and only the smart contract contract that created this contract\n///     can update the whitelist\ncontract LendingPoolGate {\n\n    using SafeMath for uint256;\n\n    address public parent_contract;\n    address[] private users_list;\n    uint256[] private freed_index;\n    uint256 public max_nuser;\n    LendingPool public lending_pool;\n\n    mapping (address => uint) pendingWithdrawals;\n\n    event LendingPoolGateMessage(string message, address related, uint256 token);\n\n\n    modifier onlyWhiteListed(uint256 requester_id){\n        //  Handle cases of overflow and malcious requester_id's\n        require(requester_id < users_list.length);\n        require(users_list[requester_id] != address(0x0), \"Deleted Contract\");\n        require(msg.sender == users_list[requester_id], \"Smart contract not allowed to withdraw money throught this gate\");\n        _;\n\n    }\n\n    modifier onlyParent(){\n        require(msg.sender == parent_contract, \"Only creating contract can call this function\");\n        _;\n    }\n\n \n    constructor(uint256 total_users, address lending_pool_address){\n        parent_contract = msg.sender;\n        max_nuser = total_users; \n        lending_pool = LendingPool(payable(lending_pool_address));\n        emit LendingPoolGateMessage(\"Lending pool gate created by\", parent_contract, 0);\n    }\n\n  \n    /// @notice Adds a new smart contract to a whitelist\n    /// @dev Only parent smart contract could make this request\n    /// @param contract_address Address to add to the whitelist\n    /// @return id returns the id contract_address should use to withdraw_money, and the status of the white list\n    ///             true meaning free space is available and false meaning the opposite\n    function append2WhiteList(address contract_address) \n        public\n        onlyParent\n        returns (uint256, bool)\n    {\n       \n        require(users_list.length < max_nuser || freed_index.length != 0, \"White list is full\");\n        if (freed_index.length != 0){\n            uint256 id = freed_index[freed_index.length.sub(1)];\n            users_list[id] = contract_address;\n            freed_index.pop();\n            emit LendingPoolGateMessage(\"Added to white list\", contract_address, id);\n            return (id, users_list.length < max_nuser || freed_index.length != 0);\n        }else{\n            //  Make sure pushing won't overflow\n            users_list.push(contract_address);\n            emit LendingPoolGateMessage(\"Added to white list\", contract_address, users_list.length.sub(1));\n            return (users_list.length.sub(1), users_list.length < max_nuser || freed_index.length != 0);\n        }\n        \n\n    }\n\n\n    /// @notice Delete an account from the whitelist\n    /// @dev Only creator smart contract can delete element from a whitelist\n    /// @param id Id of smart contract to be deleted, must be already in whitelist\n    function deleteFromWhiteList(uint256 id) \n        public\n        onlyParent\n    {\n        require(id < users_list.length, 'Token not created');\n        require(users_list[id] != address(0x0), \"account already deleted\");\n        users_list[id] = address(0x0);\n        freed_index.push(id);\n    }\n\n    /// @notice Withdraws money from a lending pool and pays to a requested user\n    /// @dev Only whitlisted smart contract can access this function\n    /// @param requester_id Whitlist id of smart contract provided during creation\n    /// @param reciever_address Adress money is to be transfered to\n    /// @param amount amount of money to be transferred\n    /// @return sucess true if payment was successfull or false if it fails.\n    function payDapp(uint256 requester_id, \n        address reciever_address, uint256 amount) \n        onlyWhiteListed(requester_id)\n        public\n        returns(bool)\n    {\n        // Withdraws money from pool \n        // (this might not be necessary if the gate becomes a pool itself but )\n        // Making it a pool might be hard to handle interest and stuff so my choice\n        // is this model\n        // check if reciever_address is  valid payable adress and if it isn't respond with false\n\n        lending_pool.lendingWithdraw(amount, reciever_address); \n        return true;\n    }\n\n    function withdrawMoney() public{\n        uint256 amount = pendingWithdrawals[msg.sender];\n        // Remember to zero the pending refund before\n        // sending to prevent re-entrancy attacks\n        pendingWithdrawals[msg.sender] = 0;\n        payable(msg.sender).transfer(amount);\n          \n    }\n\n    function withdrawFromPool() private{\n\n        // The lendingpool gate might itself be a lending pool byitself if that is a bettermodel\n    }\n\n    function informParent() private{\n        // When a whitelist position clears up a parent should know about it\n    }\n\n    \n}",
  "sourcePath": "contracts/LendingPoolGate.sol",
  "type": "contract"
}