{
  "abi": [
    {
      "inputs": [],
      "stateMutability": "nonpayable",
      "type": "constructor"
    },
    {
      "inputs": [],
      "name": "unimplemented_service",
      "type": "error"
    },
    {
      "anonymous": false,
      "inputs": [
        {
          "indexed": false,
          "internalType": "string",
          "name": "message",
          "type": "string"
        },
        {
          "indexed": false,
          "internalType": "address",
          "name": "new_contract",
          "type": "address"
        }
      ],
      "name": "ContractMessage",
      "type": "event"
    },
    {
      "stateMutability": "payable",
      "type": "fallback"
    },
    {
      "inputs": [],
      "name": "Swip3_deployer",
      "outputs": [
        {
          "internalType": "address payable",
          "name": "",
          "type": "address"
        }
      ],
      "stateMutability": "view",
      "type": "function"
    },
    {
      "inputs": [
        {
          "internalType": "address",
          "name": "",
          "type": "address"
        }
      ],
      "name": "gate_ids",
      "outputs": [
        {
          "internalType": "uint256",
          "name": "",
          "type": "uint256"
        }
      ],
      "stateMutability": "view",
      "type": "function"
    },
    {
      "inputs": [],
      "name": "gate_max_nuser",
      "outputs": [
        {
          "internalType": "uint256",
          "name": "",
          "type": "uint256"
        }
      ],
      "stateMutability": "view",
      "type": "function"
    },
    {
      "inputs": [
        {
          "internalType": "enum Swip3.Assets",
          "name": "asset_type",
          "type": "uint8"
        },
        {
          "components": [
            {
              "internalType": "address",
              "name": "factory",
              "type": "address"
            },
            {
              "internalType": "uint256",
              "name": "token_id",
              "type": "uint256"
            }
          ],
          "internalType": "struct Swip3.NFTProps",
          "name": "nft_data",
          "type": "tuple"
        },
        {
          "components": [
            {
              "internalType": "enum Swip3.Coins",
              "name": "coin_type",
              "type": "uint8"
            },
            {
              "internalType": "uint256",
              "name": "value",
              "type": "uint256"
            }
          ],
          "internalType": "struct Swip3.CoinPops",
          "name": "coin_data",
          "type": "tuple"
        }
      ],
      "name": "initateContract",
      "outputs": [
        {
          "internalType": "address",
          "name": "",
          "type": "address"
        }
      ],
      "stateMutability": "payable",
      "type": "function"
    },
    {
      "inputs": [],
      "name": "lending_pool_address",
      "outputs": [
        {
          "internalType": "address",
          "name": "",
          "type": "address"
        }
      ],
      "stateMutability": "view",
      "type": "function"
    },
    {
      "inputs": [],
      "name": "updateGateState",
      "outputs": [],
      "stateMutability": "nonpayable",
      "type": "function"
    },
    {
      "stateMutability": "payable",
      "type": "receive"
    }
  ],
  "bytecode": "608060405234801561001057600080fd5b50600080546001600160a01b031990811633179091556103e86002556001805490911673d9145cce52d386f254917e481eb44e9943f391381790556120c98061005a6000396000f3fe6080604052600436106100565760003560e01c80630a334bfd1461005f578063818579ef14610088578063c8b5ec1e146100b5578063d59ffccd146100ed578063f9aa9e061461010d578063fab6cf591461012057005b3661005d57005b005b34801561006b57600080fd5b5061007560025481565b6040519081526020015b60405180910390f35b34801561009457600080fd5b506100756100a336600461089d565b60056020526000908152604090205481565b3480156100c157600080fd5b506001546100d5906001600160a01b031681565b6040516001600160a01b03909116815260200161007f565b3480156100f957600080fd5b506000546100d5906001600160a01b031681565b6100d561011b3660046108f1565b610135565b34801561012c57600080fd5b5061005d610321565b6000600184600181111561014b5761014b610991565b036102de5760018251600281111561016557610165610991565b036102c557346014600061017c4262278d006103e1565b3033858560405161018c9061086b565b9485526001600160a01b0393841660208601529290911660408401526060830152608082015260a001604051809103906000f0801580156101d1573d6000803e3d6000fd5b5090506000806101e083610437565b60405163ca11be6960e01b81526001600160a01b038084166004830152602482018390529294509092509084169063ca11be6990604401600060405180830381600087803b15801561023157600080fd5b505af1158015610245573d6000803e3d6000fd5b5050604080518181526018818301527f5573657220636f6e74726163742063726561746564206174000000000000000060608201526001600160a01b038716602082015290517fb758e6c0d2c9aeca50f129afc686c8ae28726e41c3df2af4a0ec5ca15dcc70c59350908190036080019150a1829550505050505061031a565b6040516302efa81b60e61b815260040160405180910390fd5b60008460018111156102f2576102f2610991565b036102c5576103008361069a565b506040516302efa81b60e61b815260040160405180910390fd5b9392505050565b33600081815260056020526040902054600380549091908110610346576103466109a7565b6000918252602090912001546001600160a01b03161461039e5760405162461bcd60e51b815260206004820152600e60248201526d11d85d19481b9bdd081bdddb995960921b60448201526064015b60405180910390fd5b336000908152600560205260408120546004805460018101825592527f8a35acfbc15ff81a39ae7d344fd709f28e8600b4aa8c65c6b64bfe7fe36bd19b90910155565b60006103ed82846109d3565b9050828110156104315760405162461bcd60e51b815260206004820152600f60248201526e1059191a5d1a5bdb8819985a5b1959608a1b6044820152606401610395565b92915050565b6004546000908190810361059057600254600154604051600092916001600160a01b03169061046590610878565b9182526001600160a01b03166020820152604001604051809103906000f080158015610495573d6000803e3d6000fd5b50600380546001808201835560008390527fc2575a0e9e593c00f959f8c92f12db2869c3395a3b0502d05e2516446f71f85b90910180546001600160a01b0319166001600160a01b03851617905590549192506104f2919061081a565b6001600160a01b03821660009081526005602052604090205560035460049061051c90600161081a565b81546001808201845560009384526020909320015554604051631e23271d60e01b81526001600160a01b03838116600483015290911690631e23271d90602401600060405180830381600087803b15801561057657600080fd5b505af115801561058a573d6000803e3d6000fd5b50505050505b6004546000036105a2576105a26109eb565b600480546000916003916105b790600161081a565b815481106105c7576105c76109a7565b9060005260206000200154815481106105e2576105e26109a7565b60009182526020822001546040516318baa4f960e11b81526001600160a01b03878116600483015290911692508190839063317549f29060240160408051808303816000875af115801561063a573d6000803e3d6000fd5b505050506040513d601f19601f8201168201806040525081019061065e9190610a01565b915091508061068f57600480548061067857610678610a36565b600190038181906000526020600020016000905590555b509094909350915050565b600080600083600001516001600160a01b031684602001516040516024016106c491815260200190565b60408051601f198184030181529181526020820180516001600160e01b03166331a9108f60e11b179052516106f99190610a4c565b6000604051808303816000865af19150503d8060008114610736576040519150601f19603f3d011682016040523d82523d6000602084013e61073b565b606091505b50915091508161078d5760405162461bcd60e51b815260206004820152601d60248201527f4e465420636f6e7472616374206861736e277420726573706f6e6465640000006044820152606401610395565b306001600160a01b0316818060200190518101906107ab9190610a87565b6001600160a01b03161461080f5760405162461bcd60e51b815260206004820152602560248201527f4e4654206e6f74207472616e7366657272656420746f20736d61727420636f6e6044820152641d1c9858dd60da1b6064820152608401610395565b506103e89392505050565b6000828211156108615760405162461bcd60e51b815260206004820152601260248201527114dd589cdd1c9858dd1a5bdb8819985a5b1960721b6044820152606401610395565b61031a8284610aa4565b610c1180610abc83390190565b6109c7806116cd83390190565b6001600160a01b038116811461089a57600080fd5b50565b6000602082840312156108af57600080fd5b813561031a81610885565b6040805190810167ffffffffffffffff811182821017156108eb57634e487b7160e01b600052604160045260246000fd5b60405290565b600080600083850360a081121561090757600080fd5b84356002811061091657600080fd5b93506040601f198201121561092a57600080fd5b6109326108ba565b602086013561094081610885565b81526040868101356020830152909350605f198201121561096057600080fd5b506109696108ba565b60608501356003811061097b57600080fd5b8152608094909401356020850152509093909250565b634e487b7160e01b600052602160045260246000fd5b634e487b7160e01b600052603260045260246000fd5b634e487b7160e01b600052601160045260246000fd5b600082198211156109e6576109e66109bd565b500190565b634e487b7160e01b600052600160045260246000fd5b60008060408385031215610a1457600080fd5b8251915060208301518015158114610a2b57600080fd5b809150509250929050565b634e487b7160e01b600052603160045260246000fd5b6000825160005b81811015610a6d5760208186018101518583015201610a53565b81811115610a7c576000828501525b509190910192915050565b600060208284031215610a9957600080fd5b815161031a81610885565b600082821015610ab657610ab66109bd565b50039056fe608060405234801561001057600080fd5b50604051610c11380380610c1183398101604081905261002f9161010f565b7fa224651db1c118154a1c45f82025442a97acadb5db9e887d7098aa23e98fa10d60405161008e906020808252601c908201527f41206368696c64206a757374206f70656e656420697473206579657300000000604082015260600190565b60405180910390a1600080546001600160a01b039485166001600160a01b031991821617909155600180549590941694169390931782556002939093556005805460ff19908116909155600693909355600a91909155600c805490921617905561015e565b80516001600160a01b038116811461010a57600080fd5b919050565b600080600080600060a0868803121561012757600080fd5b85519450610137602087016100f3565b9350610145604087016100f3565b6060870151608090970151959894975095949392505050565b610aa48061016d6000396000f3fe60806040526004361061009a5760003560e01c80639f0c592e116100615780639f0c592e14610117578063a6601f2e14610147578063ae0aba8c1461015c578063c19d93fb14610164578063ca11be691461018b578063d12abd8a1461010257005b806307cc692f146100a35780630c08bf88146100cb5780633b7104f2146100e057806378706079146100ec578063804d6b381461010257005b366100a157005b005b3480156100af57600080fd5b506100b86101ab565b6040519081526020015b60405180910390f35b3480156100d757600080fd5b506100a16101c9565b3480156100a157600080fd5b3480156100f857600080fd5b506100b860025481565b34801561010e57600080fd5b506100a16103a6565b34801561012357600080fd5b5061013761013236600461092f565b610459565b60405190151581526020016100c2565b34801561015357600080fd5b506100a1610611565b6100a16106dd565b34801561017057600080fd5b5060055461017e9060ff1681565b6040516100c2919061097d565b34801561019757600080fd5b506100a16101a636600461092f565b6107a1565b60006101c460075460065461088e90919063ffffffff16565b905090565b6000546001600160a01b03163314806101ec57506001546001600160a01b031633145b6102115760405162461bcd60e51b8152600401610208906109a5565b60405180910390fd5b600160055460ff16600381111561022a5761022a610967565b1480610237575060025442115b1561026957600580546001919060ff191682805b0217905550604051630407b05b60e31b815260040160405180910390fd5b600260055460ff16600381111561028257610282610967565b1461029f5760405162461bcd60e51b8152600401610208906109d0565b600754156103035760405162461bcd60e51b815260206004820152602b60248201527f42616c616e6365206d7573742062652030206265666f7265207465726d69616e60448201526a1d1a5b99c818481919585b60aa1b6064820152608401610208565b600b541561036c5760405162461bcd60e51b815260206004820152603060248201527f546865726520697320756e77697468647261776d206d6f6e65792e205769746860448201526f6472617720796f7572206d6f6e65792160801b6064820152608401610208565b6005805460ff191660031790556040517f6d0d90585834980bd0e5603341ff50b06349c11e0bf9241d03f6d065f12a262b90600090a1565b565b6000546001600160a01b03163314806103c957506001546001600160a01b031633145b6103e55760405162461bcd60e51b8152600401610208906109a5565b600160055460ff1660038111156103fe576103fe610967565b148061040b575060025442115b1561042357600580546001919060ff1916828061024b565b600260055460ff16600381111561043c5761043c610967565b146103a45760405162461bcd60e51b8152600401610208906109d0565b600080546001600160a01b031633148061047d57506001546001600160a01b031633145b6104995760405162461bcd60e51b8152600401610208906109a5565b600160055460ff1660038111156104b2576104b2610967565b14806104bf575060025442115b156104d757600580546001919060ff1916828061024b565b600260055460ff1660038111156104f0576104f0610967565b1461050d5760405162461bcd60e51b8152600401610208906109d0565b6105156101ab565b82111561056f5760405162461bcd60e51b815260206004820152602260248201527f4e6f20617661696c61626c652063726564697420666f722074686973206379636044820152616c6560f01b6064820152608401610208565b6003546004805460405163bc134ae360e01b8152918201526001600160a01b03858116602483015260448201859052600092169063bc134ae3906064016020604051808303816000875af11580156105cb573d6000803e3d6000fd5b505050506040513d601f19601f820116820180604052508101906105ef9190610a07565b905080156106085760075461060490846108df565b6007555b90505b92915050565b6000546001600160a01b0316331461066b5760405162461bcd60e51b815260206004820181905260248201527f4f6e6c7920757365722063616e206163636573732074686973206d6574686f646044820152606401610208565b600260055460ff16600381111561068457610684610967565b146106a15760405162461bcd60e51b8152600401610208906109d0565b600b80546000918290556040519091339183156108fc0291849190818181858888f193505050501580156106d9573d6000803e3d6000fd5b5050565b6000546001600160a01b031633146107375760405162461bcd60e51b815260206004820181905260248201527f4f6e6c7920757365722063616e206163636573732074686973206d6574686f646044820152606401610208565b600260055460ff16600381111561075057610750610967565b1461076d5760405162461bcd60e51b8152600401610208906109d0565b60075434111561078f5760075461078590349061088e565b600b556000600755565b60075461079c903461088e565b600755565b6001546001600160a01b031633146108065760405162461bcd60e51b815260206004820152602260248201527f4f6e6c7920706172656e742063616e206163636573732074686973206d6574686044820152611bd960f21b6064820152608401610208565b600380546001600160a01b0319166001600160a01b038416179055600481905560058054600260ff19909116179055604080516020808252601290820152711248185b481b9bddc81858dd1a5d985d195960721b8183015290517fa224651db1c118154a1c45f82025442a97acadb5db9e887d7098aa23e98fa10d9181900360600190a15050565b6000828211156108d55760405162461bcd60e51b815260206004820152601260248201527114dd589cdd1c9858dd1a5bdb8819985a5b1960721b6044820152606401610208565b6106088284610a3f565b60006108eb8284610a56565b90508281101561060b5760405162461bcd60e51b815260206004820152600f60248201526e1059191a5d1a5bdb8819985a5b1959608a1b6044820152606401610208565b6000806040838503121561094257600080fd5b82356001600160a01b038116811461095957600080fd5b946020939093013593505050565b634e487b7160e01b600052602160045260246000fd5b602081016004831061099f57634e487b7160e01b600052602160045260246000fd5b91905290565b6020808252601190820152702ab730baba3437b934bd32b2103ab9b2b960791b604082015260600190565b6020808252601b908201527f436f6e74726163742073746174652069736e2774206163746976650000000000604082015260600190565b600060208284031215610a1957600080fd5b8151801515811461060857600080fd5b634e487b7160e01b600052601160045260246000fd5b600082821015610a5157610a51610a29565b500390565b60008219821115610a6957610a69610a29565b50019056fea264697066735822122049ddffa047dd9f1775b20910c53521b01323d26752c5e1a54702224bfb4110be64736f6c634300080d0033608060405234801561001057600080fd5b506040516109c73803806109c783398101604081905261002f916100d5565b60008054336001600160a01b0319918216811783556003859055600480549092166001600160a01b03851617909155604080516060808252601c908201527f4c656e64696e6720706f6f6c2067617465206372656174656420627900000000608082015260208101929092528101919091527f2cce1494b4ef3c5682648d5c4bbf147548f403fc2ac218e41ec797babdb0acb59060a00160405180910390a15050610112565b600080604083850312156100e857600080fd5b825160208401519092506001600160a01b038116811461010757600080fd5b809150509250929050565b6108a6806101216000396000f3fe608060405234801561001057600080fd5b506004361061007d5760003560e01c8063ac4460021161005b578063ac446002146100f1578063bc134ae3146100fb578063cbc20f301461011e578063f984ead81461013157600080fd5b8063317549f21461008257806389f78c8e146100af5780639dc61d4f146100c6575b600080fd5b610095610090366004610726565b610144565b604080519283529015156020830152015b60405180910390f35b6100b860035481565b6040519081526020016100a6565b6000546100d9906001600160a01b031681565b6040516001600160a01b0390911681526020016100a6565b6100f961037e565b005b61010e610109366004610741565b6103c3565b60405190151581526020016100a6565b6100f961012c366004610776565b610554565b6004546100d9906001600160a01b031681565b6000805481906001600160a01b0316331461017a5760405162461bcd60e51b81526004016101719061078f565b60405180910390fd5b600354600154108061018d575060025415155b6101ce5760405162461bcd60e51b815260206004820152601260248201527115da1a5d19481b1a5cdd081a5cc8199d5b1b60721b6044820152606401610171565b600254156102c75760028054600091906101e99060016106b2565b815481106101f9576101f96107dc565b90600052602060002001549050836001828154811061021a5761021a6107dc565b9060005260206000200160006101000a8154816001600160a01b0302191690836001600160a01b031602179055506002805480610259576102596107f2565b600190038181906000526020600020016000905590557f2cce1494b4ef3c5682648d5c4bbf147548f403fc2ac218e41ec797babdb0acb584826040516102a0929190610808565b60405180910390a1600354600154829111806102bd575060025415155b9250925050915091565b60018054808201825560008290527fb10e2d527612073b26eecdfd717e6a320cf44b4afac2b0732d9fcbe2b7fa0cf60180546001600160a01b0319166001600160a01b03861617905580547f2cce1494b4ef3c5682648d5c4bbf147548f403fc2ac218e41ec797babdb0acb591859161033f916106b2565b60405161034d929190610808565b60405180910390a160018054610362916106b2565b6003546001541080610375575060025415155b91509150915091565b33600081815260056020526040808220805490839055905190929183156108fc02918491818181858888f193505050501580156103bf573d6000803e3d6000fd5b5050565b600154600090849081106103d657600080fd5b60006001600160a01b0316600182815481106103f4576103f46107dc565b6000918252602090912001546001600160a01b0316036104495760405162461bcd60e51b815260206004820152601060248201526f11195b195d19590810dbdb9d1c9858dd60821b6044820152606401610171565b6001818154811061045c5761045c6107dc565b6000918252602090912001546001600160a01b031633146104e55760405162461bcd60e51b815260206004820152603f60248201527f536d61727420636f6e7472616374206e6f7420616c6c6f77656420746f20776960448201527f746864726177206d6f6e6579207468726f7567687420746869732067617465006064820152608401610171565b60048054604051633607999b60e01b81529182018590526001600160a01b0386811660248401521690633607999b90604401600060405180830381600087803b15801561053157600080fd5b505af1158015610545573d6000803e3d6000fd5b50600198975050505050505050565b6000546001600160a01b0316331461057e5760405162461bcd60e51b81526004016101719061078f565b60015481106105c35760405162461bcd60e51b8152602060048201526011602482015270151bdad95b881b9bdd0818dc99585d1959607a1b6044820152606401610171565b60006001600160a01b0316600182815481106105e1576105e16107dc565b6000918252602090912001546001600160a01b0316036106435760405162461bcd60e51b815260206004820152601760248201527f6163636f756e7420616c72656164792064656c657465640000000000000000006044820152606401610171565b600060018281548110610658576106586107dc565b6000918252602082200180546001600160a01b0319166001600160a01b0393909316929092179091556002805460018101825591527f405787fa12a823e0f2b7631cc41b3ba8828b3321ca811111fa75cd3aa3bb5ace0155565b6000828211156106f95760405162461bcd60e51b815260206004820152601260248201527114dd589cdd1c9858dd1a5bdb8819985a5b1960721b6044820152606401610171565b610703828461084b565b9392505050565b80356001600160a01b038116811461072157600080fd5b919050565b60006020828403121561073857600080fd5b6107038261070a565b60008060006060848603121561075657600080fd5b833592506107666020850161070a565b9150604084013590509250925092565b60006020828403121561078857600080fd5b5035919050565b6020808252602d908201527f4f6e6c79206372656174696e6720636f6e74726163742063616e2063616c6c2060408201526c3a3434b990333ab731ba34b7b760991b606082015260800190565b634e487b7160e01b600052603260045260246000fd5b634e487b7160e01b600052603160045260246000fd5b6060808252601390820152721059191959081d1bc81dda1a5d19481b1a5cdd606a1b60808201526001600160a01b03929092166020830152604082015260a00190565b60008282101561086b57634e487b7160e01b600052601160045260246000fd5b50039056fea2646970667358221220f4d49cce88c6670d812898cecda62f9d2453c200f7be4a17573f13aea47a526264736f6c634300080d0033a2646970667358221220aa05b13bd31c1f2a70b190b0cc56ad70738b9ae536ffa2072833a3053705811e64736f6c634300080d0033",
  "bytecodeSha1": "9f724a1fd1267caa12192f5ab8576f0afa5dbea7",
  "compiler": {
    "evm_version": "istanbul",
    "optimizer": {
      "enabled": true,
      "runs": 200
    },
    "version": "0.8.13+commit.abaa5c0e"
  },
  "contractName": "Swip3",
  "language": "Solidity",
  "natspec": {
    "author": "Hileamlak Yitayew",
    "details": "Uses the Swip3Customer iterface to create Swip3 customer contracts",
    "errors": {
      "unimplemented_service()": [
        {
          "notice": "Feature isn't yet implemented"
        }
      ]
    },
    "kind": "dev",
    "methods": {
      "initateContract(uint8,(address,uint256),(uint8,uint256))": {
        "details": "Puts asset in escrow and depending on that calculates credit",
        "notice": "Creates a contract between swip3 protocol and user",
        "params": {
          "asset_type": "the staked asset, either nft or coin",
          "coin_data": "if the staked asset is coin this infromation should be filled",
          "nft_data": "if the staked asset is nft this infomation should be filled"
        },
        "returns": {
          "_0": "returns contract address"
        }
      }
    },
    "notice": "Creates Swip3contracts between users and iself",
    "title": "Swip3",
    "version": 1
  },
  "opcodes": "PUSH1 0x80 PUSH1 0x40 MSTORE PUSH1 0x4 CALLDATASIZE LT PUSH2 0x56 JUMPI PUSH1 0x0 CALLDATALOAD PUSH1 0xE0 SHR DUP1 PUSH4 0xA334BFD EQ PUSH2 0x5F JUMPI DUP1 PUSH4 0x818579EF EQ PUSH2 0x88 JUMPI DUP1 PUSH4 0xC8B5EC1E EQ PUSH2 0xB5 JUMPI DUP1 PUSH4 0xD59FFCCD EQ PUSH2 0xED JUMPI DUP1 PUSH4 0xF9AA9E06 EQ PUSH2 0x10D JUMPI DUP1 PUSH4 0xFAB6CF59 EQ PUSH2 0x120 JUMPI STOP JUMPDEST CALLDATASIZE PUSH2 0x5D JUMPI STOP JUMPDEST STOP JUMPDEST CALLVALUE DUP1 ISZERO PUSH2 0x6B JUMPI PUSH1 0x0 DUP1 REVERT JUMPDEST POP PUSH2 0x75 PUSH1 0x2 SLOAD DUP2 JUMP JUMPDEST PUSH1 0x40 MLOAD SWAP1 DUP2 MSTORE PUSH1 0x20 ADD JUMPDEST PUSH1 0x40 MLOAD DUP1 SWAP2 SUB SWAP1 RETURN JUMPDEST CALLVALUE DUP1 ISZERO PUSH2 0x94 JUMPI PUSH1 0x0 DUP1 REVERT JUMPDEST POP PUSH2 0x75 PUSH2 0xA3 CALLDATASIZE PUSH1 0x4 PUSH2 0x89D JUMP JUMPDEST PUSH1 0x5 PUSH1 0x20 MSTORE PUSH1 0x0 SWAP1 DUP2 MSTORE PUSH1 0x40 SWAP1 KECCAK256 SLOAD DUP2 JUMP JUMPDEST CALLVALUE DUP1 ISZERO PUSH2 0xC1 JUMPI PUSH1 0x0 DUP1 REVERT JUMPDEST POP PUSH1 0x1 SLOAD PUSH2 0xD5 SWAP1 PUSH1 0x1 PUSH1 0x1 PUSH1 0xA0 SHL SUB AND DUP2 JUMP JUMPDEST PUSH1 0x40 MLOAD PUSH1 0x1 PUSH1 0x1 PUSH1 0xA0 SHL SUB SWAP1 SWAP2 AND DUP2 MSTORE PUSH1 0x20 ADD PUSH2 0x7F JUMP JUMPDEST CALLVALUE DUP1 ISZERO PUSH2 0xF9 JUMPI PUSH1 0x0 DUP1 REVERT JUMPDEST POP PUSH1 0x0 SLOAD PUSH2 0xD5 SWAP1 PUSH1 0x1 PUSH1 0x1 PUSH1 0xA0 SHL SUB AND DUP2 JUMP JUMPDEST PUSH2 0xD5 PUSH2 0x11B CALLDATASIZE PUSH1 0x4 PUSH2 0x8F1 JUMP JUMPDEST PUSH2 0x135 JUMP JUMPDEST CALLVALUE DUP1 ISZERO PUSH2 0x12C JUMPI PUSH1 0x0 DUP1 REVERT JUMPDEST POP PUSH2 0x5D PUSH2 0x321 JUMP JUMPDEST PUSH1 0x0 PUSH1 0x1 DUP5 PUSH1 0x1 DUP2 GT ISZERO PUSH2 0x14B JUMPI PUSH2 0x14B PUSH2 0x991 JUMP JUMPDEST SUB PUSH2 0x2DE JUMPI PUSH1 0x1 DUP3 MLOAD PUSH1 0x2 DUP2 GT ISZERO PUSH2 0x165 JUMPI PUSH2 0x165 PUSH2 0x991 JUMP JUMPDEST SUB PUSH2 0x2C5 JUMPI CALLVALUE PUSH1 0x14 PUSH1 0x0 PUSH2 0x17C TIMESTAMP PUSH3 0x278D00 PUSH2 0x3E1 JUMP JUMPDEST ADDRESS CALLER DUP6 DUP6 PUSH1 0x40 MLOAD PUSH2 0x18C SWAP1 PUSH2 0x86B JUMP JUMPDEST SWAP5 DUP6 MSTORE PUSH1 0x1 PUSH1 0x1 PUSH1 0xA0 SHL SUB SWAP4 DUP5 AND PUSH1 0x20 DUP7 ADD MSTORE SWAP3 SWAP1 SWAP2 AND PUSH1 0x40 DUP5 ADD MSTORE PUSH1 0x60 DUP4 ADD MSTORE PUSH1 0x80 DUP3 ADD MSTORE PUSH1 0xA0 ADD PUSH1 0x40 MLOAD DUP1 SWAP2 SUB SWAP1 PUSH1 0x0 CREATE DUP1 ISZERO DUP1 ISZERO PUSH2 0x1D1 JUMPI RETURNDATASIZE PUSH1 0x0 DUP1 RETURNDATACOPY RETURNDATASIZE PUSH1 0x0 REVERT JUMPDEST POP SWAP1 POP PUSH1 0x0 DUP1 PUSH2 0x1E0 DUP4 PUSH2 0x437 JUMP JUMPDEST PUSH1 0x40 MLOAD PUSH4 0xCA11BE69 PUSH1 0xE0 SHL DUP2 MSTORE PUSH1 0x1 PUSH1 0x1 PUSH1 0xA0 SHL SUB DUP1 DUP5 AND PUSH1 0x4 DUP4 ADD MSTORE PUSH1 0x24 DUP3 ADD DUP4 SWAP1 MSTORE SWAP3 SWAP5 POP SWAP1 SWAP3 POP SWAP1 DUP5 AND SWAP1 PUSH4 0xCA11BE69 SWAP1 PUSH1 0x44 ADD PUSH1 0x0 PUSH1 0x40 MLOAD DUP1 DUP4 SUB DUP2 PUSH1 0x0 DUP8 DUP1 EXTCODESIZE ISZERO DUP1 ISZERO PUSH2 0x231 JUMPI PUSH1 0x0 DUP1 REVERT JUMPDEST POP GAS CALL ISZERO DUP1 ISZERO PUSH2 0x245 JUMPI RETURNDATASIZE PUSH1 0x0 DUP1 RETURNDATACOPY RETURNDATASIZE PUSH1 0x0 REVERT JUMPDEST POP POP PUSH1 0x40 DUP1 MLOAD DUP2 DUP2 MSTORE PUSH1 0x18 DUP2 DUP4 ADD MSTORE PUSH32 0x5573657220636F6E747261637420637265617465642061740000000000000000 PUSH1 0x60 DUP3 ADD MSTORE PUSH1 0x1 PUSH1 0x1 PUSH1 0xA0 SHL SUB DUP8 AND PUSH1 0x20 DUP3 ADD MSTORE SWAP1 MLOAD PUSH32 0xB758E6C0D2C9AECA50F129AFC686C8AE28726E41C3DF2AF4A0EC5CA15DCC70C5 SWAP4 POP SWAP1 DUP2 SWAP1 SUB PUSH1 0x80 ADD SWAP2 POP LOG1 DUP3 SWAP6 POP POP POP POP POP POP PUSH2 0x31A JUMP JUMPDEST PUSH1 0x40 MLOAD PUSH4 0x2EFA81B PUSH1 0xE6 SHL DUP2 MSTORE PUSH1 0x4 ADD PUSH1 0x40 MLOAD DUP1 SWAP2 SUB SWAP1 REVERT JUMPDEST PUSH1 0x0 DUP5 PUSH1 0x1 DUP2 GT ISZERO PUSH2 0x2F2 JUMPI PUSH2 0x2F2 PUSH2 0x991 JUMP JUMPDEST SUB PUSH2 0x2C5 JUMPI PUSH2 0x300 DUP4 PUSH2 0x69A JUMP JUMPDEST POP PUSH1 0x40 MLOAD PUSH4 0x2EFA81B PUSH1 0xE6 SHL DUP2 MSTORE PUSH1 0x4 ADD PUSH1 0x40 MLOAD DUP1 SWAP2 SUB SWAP1 REVERT JUMPDEST SWAP4 SWAP3 POP POP POP JUMP JUMPDEST CALLER PUSH1 0x0 DUP2 DUP2 MSTORE PUSH1 0x5 PUSH1 0x20 MSTORE PUSH1 0x40 SWAP1 KECCAK256 SLOAD PUSH1 0x3 DUP1 SLOAD SWAP1 SWAP2 SWAP1 DUP2 LT PUSH2 0x346 JUMPI PUSH2 0x346 PUSH2 0x9A7 JUMP JUMPDEST PUSH1 0x0 SWAP2 DUP3 MSTORE PUSH1 0x20 SWAP1 SWAP2 KECCAK256 ADD SLOAD PUSH1 0x1 PUSH1 0x1 PUSH1 0xA0 SHL SUB AND EQ PUSH2 0x39E JUMPI PUSH1 0x40 MLOAD PUSH3 0x461BCD PUSH1 0xE5 SHL DUP2 MSTORE PUSH1 0x20 PUSH1 0x4 DUP3 ADD MSTORE PUSH1 0xE PUSH1 0x24 DUP3 ADD MSTORE PUSH14 0x11D85D19481B9BDD081BDDDB9959 PUSH1 0x92 SHL PUSH1 0x44 DUP3 ADD MSTORE PUSH1 0x64 ADD JUMPDEST PUSH1 0x40 MLOAD DUP1 SWAP2 SUB SWAP1 REVERT JUMPDEST CALLER PUSH1 0x0 SWAP1 DUP2 MSTORE PUSH1 0x5 PUSH1 0x20 MSTORE PUSH1 0x40 DUP2 KECCAK256 SLOAD PUSH1 0x4 DUP1 SLOAD PUSH1 0x1 DUP2 ADD DUP3 SSTORE SWAP3 MSTORE PUSH32 0x8A35ACFBC15FF81A39AE7D344FD709F28E8600B4AA8C65C6B64BFE7FE36BD19B SWAP1 SWAP2 ADD SSTORE JUMP JUMPDEST PUSH1 0x0 PUSH2 0x3ED DUP3 DUP5 PUSH2 0x9D3 JUMP JUMPDEST SWAP1 POP DUP3 DUP2 LT ISZERO PUSH2 0x431 JUMPI PUSH1 0x40 MLOAD PUSH3 0x461BCD PUSH1 0xE5 SHL DUP2 MSTORE PUSH1 0x20 PUSH1 0x4 DUP3 ADD MSTORE PUSH1 0xF PUSH1 0x24 DUP3 ADD MSTORE PUSH15 0x1059191A5D1A5BDB8819985A5B1959 PUSH1 0x8A SHL PUSH1 0x44 DUP3 ADD MSTORE PUSH1 0x64 ADD PUSH2 0x395 JUMP JUMPDEST SWAP3 SWAP2 POP POP JUMP JUMPDEST PUSH1 0x4 SLOAD PUSH1 0x0 SWAP1 DUP2 SWAP1 DUP2 SUB PUSH2 0x590 JUMPI PUSH1 0x2 SLOAD PUSH1 0x1 SLOAD PUSH1 0x40 MLOAD PUSH1 0x0 SWAP3 SWAP2 PUSH1 0x1 PUSH1 0x1 PUSH1 0xA0 SHL SUB AND SWAP1 PUSH2 0x465 SWAP1 PUSH2 0x878 JUMP JUMPDEST SWAP2 DUP3 MSTORE PUSH1 0x1 PUSH1 0x1 PUSH1 0xA0 SHL SUB AND PUSH1 0x20 DUP3 ADD MSTORE PUSH1 0x40 ADD PUSH1 0x40 MLOAD DUP1 SWAP2 SUB SWAP1 PUSH1 0x0 CREATE DUP1 ISZERO DUP1 ISZERO PUSH2 0x495 JUMPI RETURNDATASIZE PUSH1 0x0 DUP1 RETURNDATACOPY RETURNDATASIZE PUSH1 0x0 REVERT JUMPDEST POP PUSH1 0x3 DUP1 SLOAD PUSH1 0x1 DUP1 DUP3 ADD DUP4 SSTORE PUSH1 0x0 DUP4 SWAP1 MSTORE PUSH32 0xC2575A0E9E593C00F959F8C92F12DB2869C3395A3B0502D05E2516446F71F85B SWAP1 SWAP2 ADD DUP1 SLOAD PUSH1 0x1 PUSH1 0x1 PUSH1 0xA0 SHL SUB NOT AND PUSH1 0x1 PUSH1 0x1 PUSH1 0xA0 SHL SUB DUP6 AND OR SWAP1 SSTORE SWAP1 SLOAD SWAP2 SWAP3 POP PUSH2 0x4F2 SWAP2 SWAP1 PUSH2 0x81A JUMP JUMPDEST PUSH1 0x1 PUSH1 0x1 PUSH1 0xA0 SHL SUB DUP3 AND PUSH1 0x0 SWAP1 DUP2 MSTORE PUSH1 0x5 PUSH1 0x20 MSTORE PUSH1 0x40 SWAP1 KECCAK256 SSTORE PUSH1 0x3 SLOAD PUSH1 0x4 SWAP1 PUSH2 0x51C SWAP1 PUSH1 0x1 PUSH2 0x81A JUMP JUMPDEST DUP2 SLOAD PUSH1 0x1 DUP1 DUP3 ADD DUP5 SSTORE PUSH1 0x0 SWAP4 DUP5 MSTORE PUSH1 0x20 SWAP1 SWAP4 KECCAK256 ADD SSTORE SLOAD PUSH1 0x40 MLOAD PUSH4 0x1E23271D PUSH1 0xE0 SHL DUP2 MSTORE PUSH1 0x1 PUSH1 0x1 PUSH1 0xA0 SHL SUB DUP4 DUP2 AND PUSH1 0x4 DUP4 ADD MSTORE SWAP1 SWAP2 AND SWAP1 PUSH4 0x1E23271D SWAP1 PUSH1 0x24 ADD PUSH1 0x0 PUSH1 0x40 MLOAD DUP1 DUP4 SUB DUP2 PUSH1 0x0 DUP8 DUP1 EXTCODESIZE ISZERO DUP1 ISZERO PUSH2 0x576 JUMPI PUSH1 0x0 DUP1 REVERT JUMPDEST POP GAS CALL ISZERO DUP1 ISZERO PUSH2 0x58A JUMPI RETURNDATASIZE PUSH1 0x0 DUP1 RETURNDATACOPY RETURNDATASIZE PUSH1 0x0 REVERT JUMPDEST POP POP POP POP POP JUMPDEST PUSH1 0x4 SLOAD PUSH1 0x0 SUB PUSH2 0x5A2 JUMPI PUSH2 0x5A2 PUSH2 0x9EB JUMP JUMPDEST PUSH1 0x4 DUP1 SLOAD PUSH1 0x0 SWAP2 PUSH1 0x3 SWAP2 PUSH2 0x5B7 SWAP1 PUSH1 0x1 PUSH2 0x81A JUMP JUMPDEST DUP2 SLOAD DUP2 LT PUSH2 0x5C7 JUMPI PUSH2 0x5C7 PUSH2 0x9A7 JUMP JUMPDEST SWAP1 PUSH1 0x0 MSTORE PUSH1 0x20 PUSH1 0x0 KECCAK256 ADD SLOAD DUP2 SLOAD DUP2 LT PUSH2 0x5E2 JUMPI PUSH2 0x5E2 PUSH2 0x9A7 JUMP JUMPDEST PUSH1 0x0 SWAP2 DUP3 MSTORE PUSH1 0x20 DUP3 KECCAK256 ADD SLOAD PUSH1 0x40 MLOAD PUSH4 0x18BAA4F9 PUSH1 0xE1 SHL DUP2 MSTORE PUSH1 0x1 PUSH1 0x1 PUSH1 0xA0 SHL SUB DUP8 DUP2 AND PUSH1 0x4 DUP4 ADD MSTORE SWAP1 SWAP2 AND SWAP3 POP DUP2 SWAP1 DUP4 SWAP1 PUSH4 0x317549F2 SWAP1 PUSH1 0x24 ADD PUSH1 0x40 DUP1 MLOAD DUP1 DUP4 SUB DUP2 PUSH1 0x0 DUP8 GAS CALL ISZERO DUP1 ISZERO PUSH2 0x63A JUMPI RETURNDATASIZE PUSH1 0x0 DUP1 RETURNDATACOPY RETURNDATASIZE PUSH1 0x0 REVERT JUMPDEST POP POP POP POP PUSH1 0x40 MLOAD RETURNDATASIZE PUSH1 0x1F NOT PUSH1 0x1F DUP3 ADD AND DUP3 ADD DUP1 PUSH1 0x40 MSTORE POP DUP2 ADD SWAP1 PUSH2 0x65E SWAP2 SWAP1 PUSH2 0xA01 JUMP JUMPDEST SWAP2 POP SWAP2 POP DUP1 PUSH2 0x68F JUMPI PUSH1 0x4 DUP1 SLOAD DUP1 PUSH2 0x678 JUMPI PUSH2 0x678 PUSH2 0xA36 JUMP JUMPDEST PUSH1 0x1 SWAP1 SUB DUP2 DUP2 SWAP1 PUSH1 0x0 MSTORE PUSH1 0x20 PUSH1 0x0 KECCAK256 ADD PUSH1 0x0 SWAP1 SSTORE SWAP1 SSTORE JUMPDEST POP SWAP1 SWAP5 SWAP1 SWAP4 POP SWAP2 POP POP JUMP JUMPDEST PUSH1 0x0 DUP1 PUSH1 0x0 DUP4 PUSH1 0x0 ADD MLOAD PUSH1 0x1 PUSH1 0x1 PUSH1 0xA0 SHL SUB AND DUP5 PUSH1 0x20 ADD MLOAD PUSH1 0x40 MLOAD PUSH1 0x24 ADD PUSH2 0x6C4 SWAP2 DUP2 MSTORE PUSH1 0x20 ADD SWAP1 JUMP JUMPDEST PUSH1 0x40 DUP1 MLOAD PUSH1 0x1F NOT DUP2 DUP5 SUB ADD DUP2 MSTORE SWAP2 DUP2 MSTORE PUSH1 0x20 DUP3 ADD DUP1 MLOAD PUSH1 0x1 PUSH1 0x1 PUSH1 0xE0 SHL SUB AND PUSH4 0x31A9108F PUSH1 0xE1 SHL OR SWAP1 MSTORE MLOAD PUSH2 0x6F9 SWAP2 SWAP1 PUSH2 0xA4C JUMP JUMPDEST PUSH1 0x0 PUSH1 0x40 MLOAD DUP1 DUP4 SUB DUP2 PUSH1 0x0 DUP7 GAS CALL SWAP2 POP POP RETURNDATASIZE DUP1 PUSH1 0x0 DUP2 EQ PUSH2 0x736 JUMPI PUSH1 0x40 MLOAD SWAP2 POP PUSH1 0x1F NOT PUSH1 0x3F RETURNDATASIZE ADD AND DUP3 ADD PUSH1 0x40 MSTORE RETURNDATASIZE DUP3 MSTORE RETURNDATASIZE PUSH1 0x0 PUSH1 0x20 DUP5 ADD RETURNDATACOPY PUSH2 0x73B JUMP JUMPDEST PUSH1 0x60 SWAP2 POP JUMPDEST POP SWAP2 POP SWAP2 POP DUP2 PUSH2 0x78D JUMPI PUSH1 0x40 MLOAD PUSH3 0x461BCD PUSH1 0xE5 SHL DUP2 MSTORE PUSH1 0x20 PUSH1 0x4 DUP3 ADD MSTORE PUSH1 0x1D PUSH1 0x24 DUP3 ADD MSTORE PUSH32 0x4E465420636F6E7472616374206861736E277420726573706F6E646564000000 PUSH1 0x44 DUP3 ADD MSTORE PUSH1 0x64 ADD PUSH2 0x395 JUMP JUMPDEST ADDRESS PUSH1 0x1 PUSH1 0x1 PUSH1 0xA0 SHL SUB AND DUP2 DUP1 PUSH1 0x20 ADD SWAP1 MLOAD DUP2 ADD SWAP1 PUSH2 0x7AB SWAP2 SWAP1 PUSH2 0xA87 JUMP JUMPDEST PUSH1 0x1 PUSH1 0x1 PUSH1 0xA0 SHL SUB AND EQ PUSH2 0x80F JUMPI PUSH1 0x40 MLOAD PUSH3 0x461BCD PUSH1 0xE5 SHL DUP2 MSTORE PUSH1 0x20 PUSH1 0x4 DUP3 ADD MSTORE PUSH1 0x25 PUSH1 0x24 DUP3 ADD MSTORE PUSH32 0x4E4654206E6F74207472616E7366657272656420746F20736D61727420636F6E PUSH1 0x44 DUP3 ADD MSTORE PUSH5 0x1D1C9858DD PUSH1 0xDA SHL PUSH1 0x64 DUP3 ADD MSTORE PUSH1 0x84 ADD PUSH2 0x395 JUMP JUMPDEST POP PUSH2 0x3E8 SWAP4 SWAP3 POP POP POP JUMP JUMPDEST PUSH1 0x0 DUP3 DUP3 GT ISZERO PUSH2 0x861 JUMPI PUSH1 0x40 MLOAD PUSH3 0x461BCD PUSH1 0xE5 SHL DUP2 MSTORE PUSH1 0x20 PUSH1 0x4 DUP3 ADD MSTORE PUSH1 0x12 PUSH1 0x24 DUP3 ADD MSTORE PUSH18 0x14DD589CDD1C9858DD1A5BDB8819985A5B19 PUSH1 0x72 SHL PUSH1 0x44 DUP3 ADD MSTORE PUSH1 0x64 ADD PUSH2 0x395 JUMP JUMPDEST PUSH2 0x31A DUP3 DUP5 PUSH2 0xAA4 JUMP JUMPDEST PUSH2 0xC11 DUP1 PUSH2 0xABC DUP4 CODECOPY ADD SWAP1 JUMP JUMPDEST PUSH2 0x9C7 DUP1 PUSH2 0x16CD DUP4 CODECOPY ADD SWAP1 JUMP JUMPDEST PUSH1 0x1 PUSH1 0x1 PUSH1 0xA0 SHL SUB DUP2 AND DUP2 EQ PUSH2 0x89A JUMPI PUSH1 0x0 DUP1 REVERT JUMPDEST POP JUMP JUMPDEST PUSH1 0x0 PUSH1 0x20 DUP3 DUP5 SUB SLT ISZERO PUSH2 0x8AF JUMPI PUSH1 0x0 DUP1 REVERT JUMPDEST DUP2 CALLDATALOAD PUSH2 0x31A DUP2 PUSH2 0x885 JUMP JUMPDEST PUSH1 0x40 DUP1 MLOAD SWAP1 DUP2 ADD PUSH8 0xFFFFFFFFFFFFFFFF DUP2 GT DUP3 DUP3 LT OR ISZERO PUSH2 0x8EB JUMPI PUSH4 0x4E487B71 PUSH1 0xE0 SHL PUSH1 0x0 MSTORE PUSH1 0x41 PUSH1 0x4 MSTORE PUSH1 0x24 PUSH1 0x0 REVERT JUMPDEST PUSH1 0x40 MSTORE SWAP1 JUMP JUMPDEST PUSH1 0x0 DUP1 PUSH1 0x0 DUP4 DUP6 SUB PUSH1 0xA0 DUP2 SLT ISZERO PUSH2 0x907 JUMPI PUSH1 0x0 DUP1 REVERT JUMPDEST DUP5 CALLDATALOAD PUSH1 0x2 DUP2 LT PUSH2 0x916 JUMPI PUSH1 0x0 DUP1 REVERT JUMPDEST SWAP4 POP PUSH1 0x40 PUSH1 0x1F NOT DUP3 ADD SLT ISZERO PUSH2 0x92A JUMPI PUSH1 0x0 DUP1 REVERT JUMPDEST PUSH2 0x932 PUSH2 0x8BA JUMP JUMPDEST PUSH1 0x20 DUP7 ADD CALLDATALOAD PUSH2 0x940 DUP2 PUSH2 0x885 JUMP JUMPDEST DUP2 MSTORE PUSH1 0x40 DUP7 DUP2 ADD CALLDATALOAD PUSH1 0x20 DUP4 ADD MSTORE SWAP1 SWAP4 POP PUSH1 0x5F NOT DUP3 ADD SLT ISZERO PUSH2 0x960 JUMPI PUSH1 0x0 DUP1 REVERT JUMPDEST POP PUSH2 0x969 PUSH2 0x8BA JUMP JUMPDEST PUSH1 0x60 DUP6 ADD CALLDATALOAD PUSH1 0x3 DUP2 LT PUSH2 0x97B JUMPI PUSH1 0x0 DUP1 REVERT JUMPDEST DUP2 MSTORE PUSH1 0x80 SWAP5 SWAP1 SWAP5 ADD CALLDATALOAD PUSH1 0x20 DUP6 ADD MSTORE POP SWAP1 SWAP4 SWAP1 SWAP3 POP JUMP JUMPDEST PUSH4 0x4E487B71 PUSH1 0xE0 SHL PUSH1 0x0 MSTORE PUSH1 0x21 PUSH1 0x4 MSTORE PUSH1 0x24 PUSH1 0x0 REVERT JUMPDEST PUSH4 0x4E487B71 PUSH1 0xE0 SHL PUSH1 0x0 MSTORE PUSH1 0x32 PUSH1 0x4 MSTORE PUSH1 0x24 PUSH1 0x0 REVERT JUMPDEST PUSH4 0x4E487B71 PUSH1 0xE0 SHL PUSH1 0x0 MSTORE PUSH1 0x11 PUSH1 0x4 MSTORE PUSH1 0x24 PUSH1 0x0 REVERT JUMPDEST PUSH1 0x0 DUP3 NOT DUP3 GT ISZERO PUSH2 0x9E6 JUMPI PUSH2 0x9E6 PUSH2 0x9BD JUMP JUMPDEST POP ADD SWAP1 JUMP JUMPDEST PUSH4 0x4E487B71 PUSH1 0xE0 SHL PUSH1 0x0 MSTORE PUSH1 0x1 PUSH1 0x4 MSTORE PUSH1 0x24 PUSH1 0x0 REVERT JUMPDEST PUSH1 0x0 DUP1 PUSH1 0x40 DUP4 DUP6 SUB SLT ISZERO PUSH2 0xA14 JUMPI PUSH1 0x0 DUP1 REVERT JUMPDEST DUP3 MLOAD SWAP2 POP PUSH1 0x20 DUP4 ADD MLOAD DUP1 ISZERO ISZERO DUP2 EQ PUSH2 0xA2B JUMPI PUSH1 0x0 DUP1 REVERT JUMPDEST DUP1 SWAP2 POP POP SWAP3 POP SWAP3 SWAP1 POP JUMP JUMPDEST PUSH4 0x4E487B71 PUSH1 0xE0 SHL PUSH1 0x0 MSTORE PUSH1 0x31 PUSH1 0x4 MSTORE PUSH1 0x24 PUSH1 0x0 REVERT JUMPDEST PUSH1 0x0 DUP3 MLOAD PUSH1 0x0 JUMPDEST DUP2 DUP2 LT ISZERO PUSH2 0xA6D JUMPI PUSH1 0x20 DUP2 DUP7 ADD DUP2 ADD MLOAD DUP6 DUP4 ADD MSTORE ADD PUSH2 0xA53 JUMP JUMPDEST DUP2 DUP2 GT ISZERO PUSH2 0xA7C JUMPI PUSH1 0x0 DUP3 DUP6 ADD MSTORE JUMPDEST POP SWAP2 SWAP1 SWAP2 ADD SWAP3 SWAP2 POP POP JUMP JUMPDEST PUSH1 0x0 PUSH1 0x20 DUP3 DUP5 SUB SLT ISZERO PUSH2 0xA99 JUMPI PUSH1 0x0 DUP1 REVERT JUMPDEST DUP2 MLOAD PUSH2 0x31A DUP2 PUSH2 0x885 JUMP JUMPDEST PUSH1 0x0 DUP3 DUP3 LT ISZERO PUSH2 0xAB6 JUMPI PUSH2 0xAB6 PUSH2 0x9BD JUMP JUMPDEST POP SUB SWAP1 JUMP INVALID PUSH1 0x80 PUSH1 0x40 MSTORE CALLVALUE DUP1 ISZERO PUSH2 0x10 JUMPI PUSH1 0x0 DUP1 REVERT JUMPDEST POP PUSH1 0x40 MLOAD PUSH2 0xC11 CODESIZE SUB DUP1 PUSH2 0xC11 DUP4 CODECOPY DUP2 ADD PUSH1 0x40 DUP2 SWAP1 MSTORE PUSH2 0x2F SWAP2 PUSH2 0x10F JUMP JUMPDEST PUSH32 0xA224651DB1C118154A1C45F82025442A97ACADB5DB9E887D7098AA23E98FA10D PUSH1 0x40 MLOAD PUSH2 0x8E SWAP1 PUSH1 0x20 DUP1 DUP3 MSTORE PUSH1 0x1C SWAP1 DUP3 ADD MSTORE PUSH32 0x41206368696C64206A757374206F70656E656420697473206579657300000000 PUSH1 0x40 DUP3 ADD MSTORE PUSH1 0x60 ADD SWAP1 JUMP JUMPDEST PUSH1 0x40 MLOAD DUP1 SWAP2 SUB SWAP1 LOG1 PUSH1 0x0 DUP1 SLOAD PUSH1 0x1 PUSH1 0x1 PUSH1 0xA0 SHL SUB SWAP5 DUP6 AND PUSH1 0x1 PUSH1 0x1 PUSH1 0xA0 SHL SUB NOT SWAP2 DUP3 AND OR SWAP1 SWAP2 SSTORE PUSH1 0x1 DUP1 SLOAD SWAP6 SWAP1 SWAP5 AND SWAP5 AND SWAP4 SWAP1 SWAP4 OR DUP3 SSTORE PUSH1 0x2 SWAP4 SWAP1 SWAP4 SSTORE PUSH1 0x5 DUP1 SLOAD PUSH1 0xFF NOT SWAP1 DUP2 AND SWAP1 SWAP2 SSTORE PUSH1 0x6 SWAP4 SWAP1 SWAP4 SSTORE PUSH1 0xA SWAP2 SWAP1 SWAP2 SSTORE PUSH1 0xC DUP1 SLOAD SWAP1 SWAP3 AND OR SWAP1 SSTORE PUSH2 0x15E JUMP JUMPDEST DUP1 MLOAD PUSH1 0x1 PUSH1 0x1 PUSH1 0xA0 SHL SUB DUP2 AND DUP2 EQ PUSH2 0x10A JUMPI PUSH1 0x0 DUP1 REVERT JUMPDEST SWAP2 SWAP1 POP JUMP JUMPDEST PUSH1 0x0 DUP1 PUSH1 0x0 DUP1 PUSH1 0x0 PUSH1 0xA0 DUP7 DUP9 SUB SLT ISZERO PUSH2 0x127 JUMPI PUSH1 0x0 DUP1 REVERT JUMPDEST DUP6 MLOAD SWAP5 POP PUSH2 0x137 PUSH1 0x20 DUP8 ADD PUSH2 0xF3 JUMP JUMPDEST SWAP4 POP PUSH2 0x145 PUSH1 0x40 DUP8 ADD PUSH2 0xF3 JUMP JUMPDEST PUSH1 0x60 DUP8 ADD MLOAD PUSH1 0x80 SWAP1 SWAP8 ADD MLOAD SWAP6 SWAP9 SWAP5 SWAP8 POP SWAP6 SWAP5 SWAP4 SWAP3 POP POP POP JUMP JUMPDEST PUSH2 0xAA4 DUP1 PUSH2 0x16D PUSH1 0x0 CODECOPY PUSH1 0x0 RETURN INVALID PUSH1 0x80 PUSH1 0x40 MSTORE PUSH1 0x4 CALLDATASIZE LT PUSH2 0x9A JUMPI PUSH1 0x0 CALLDATALOAD PUSH1 0xE0 SHR DUP1 PUSH4 0x9F0C592E GT PUSH2 0x61 JUMPI DUP1 PUSH4 0x9F0C592E EQ PUSH2 0x117 JUMPI DUP1 PUSH4 0xA6601F2E EQ PUSH2 0x147 JUMPI DUP1 PUSH4 0xAE0ABA8C EQ PUSH2 0x15C JUMPI DUP1 PUSH4 0xC19D93FB EQ PUSH2 0x164 JUMPI DUP1 PUSH4 0xCA11BE69 EQ PUSH2 0x18B JUMPI DUP1 PUSH4 0xD12ABD8A EQ PUSH2 0x102 JUMPI STOP JUMPDEST DUP1 PUSH4 0x7CC692F EQ PUSH2 0xA3 JUMPI DUP1 PUSH4 0xC08BF88 EQ PUSH2 0xCB JUMPI DUP1 PUSH4 0x3B7104F2 EQ PUSH2 0xE0 JUMPI DUP1 PUSH4 0x78706079 EQ PUSH2 0xEC JUMPI DUP1 PUSH4 0x804D6B38 EQ PUSH2 0x102 JUMPI STOP JUMPDEST CALLDATASIZE PUSH2 0xA1 JUMPI STOP JUMPDEST STOP JUMPDEST CALLVALUE DUP1 ISZERO PUSH2 0xAF JUMPI PUSH1 0x0 DUP1 REVERT JUMPDEST POP PUSH2 0xB8 PUSH2 0x1AB JUMP JUMPDEST PUSH1 0x40 MLOAD SWAP1 DUP2 MSTORE PUSH1 0x20 ADD JUMPDEST PUSH1 0x40 MLOAD DUP1 SWAP2 SUB SWAP1 RETURN JUMPDEST CALLVALUE DUP1 ISZERO PUSH2 0xD7 JUMPI PUSH1 0x0 DUP1 REVERT JUMPDEST POP PUSH2 0xA1 PUSH2 0x1C9 JUMP JUMPDEST CALLVALUE DUP1 ISZERO PUSH2 0xA1 JUMPI PUSH1 0x0 DUP1 REVERT JUMPDEST CALLVALUE DUP1 ISZERO PUSH2 0xF8 JUMPI PUSH1 0x0 DUP1 REVERT JUMPDEST POP PUSH2 0xB8 PUSH1 0x2 SLOAD DUP2 JUMP JUMPDEST CALLVALUE DUP1 ISZERO PUSH2 0x10E JUMPI PUSH1 0x0 DUP1 REVERT JUMPDEST POP PUSH2 0xA1 PUSH2 0x3A6 JUMP JUMPDEST CALLVALUE DUP1 ISZERO PUSH2 0x123 JUMPI PUSH1 0x0 DUP1 REVERT JUMPDEST POP PUSH2 0x137 PUSH2 0x132 CALLDATASIZE PUSH1 0x4 PUSH2 0x92F JUMP JUMPDEST PUSH2 0x459 JUMP JUMPDEST PUSH1 0x40 MLOAD SWAP1 ISZERO ISZERO DUP2 MSTORE PUSH1 0x20 ADD PUSH2 0xC2 JUMP JUMPDEST CALLVALUE DUP1 ISZERO PUSH2 0x153 JUMPI PUSH1 0x0 DUP1 REVERT JUMPDEST POP PUSH2 0xA1 PUSH2 0x611 JUMP JUMPDEST PUSH2 0xA1 PUSH2 0x6DD JUMP JUMPDEST CALLVALUE DUP1 ISZERO PUSH2 0x170 JUMPI PUSH1 0x0 DUP1 REVERT JUMPDEST POP PUSH1 0x5 SLOAD PUSH2 0x17E SWAP1 PUSH1 0xFF AND DUP2 JUMP JUMPDEST PUSH1 0x40 MLOAD PUSH2 0xC2 SWAP2 SWAP1 PUSH2 0x97D JUMP JUMPDEST CALLVALUE DUP1 ISZERO PUSH2 0x197 JUMPI PUSH1 0x0 DUP1 REVERT JUMPDEST POP PUSH2 0xA1 PUSH2 0x1A6 CALLDATASIZE PUSH1 0x4 PUSH2 0x92F JUMP JUMPDEST PUSH2 0x7A1 JUMP JUMPDEST PUSH1 0x0 PUSH2 0x1C4 PUSH1 0x7 SLOAD PUSH1 0x6 SLOAD PUSH2 0x88E SWAP1 SWAP2 SWAP1 PUSH4 0xFFFFFFFF AND JUMP JUMPDEST SWAP1 POP SWAP1 JUMP JUMPDEST PUSH1 0x0 SLOAD PUSH1 0x1 PUSH1 0x1 PUSH1 0xA0 SHL SUB AND CALLER EQ DUP1 PUSH2 0x1EC JUMPI POP PUSH1 0x1 SLOAD PUSH1 0x1 PUSH1 0x1 PUSH1 0xA0 SHL SUB AND CALLER EQ JUMPDEST PUSH2 0x211 JUMPI PUSH1 0x40 MLOAD PUSH3 0x461BCD PUSH1 0xE5 SHL DUP2 MSTORE PUSH1 0x4 ADD PUSH2 0x208 SWAP1 PUSH2 0x9A5 JUMP JUMPDEST PUSH1 0x40 MLOAD DUP1 SWAP2 SUB SWAP1 REVERT JUMPDEST PUSH1 0x1 PUSH1 0x5 SLOAD PUSH1 0xFF AND PUSH1 0x3 DUP2 GT ISZERO PUSH2 0x22A JUMPI PUSH2 0x22A PUSH2 0x967 JUMP JUMPDEST EQ DUP1 PUSH2 0x237 JUMPI POP PUSH1 0x2 SLOAD TIMESTAMP GT JUMPDEST ISZERO PUSH2 0x269 JUMPI PUSH1 0x5 DUP1 SLOAD PUSH1 0x1 SWAP2 SWAP1 PUSH1 0xFF NOT AND DUP3 DUP1 JUMPDEST MUL OR SWAP1 SSTORE POP PUSH1 0x40 MLOAD PUSH4 0x407B05B PUSH1 0xE3 SHL DUP2 MSTORE PUSH1 0x4 ADD PUSH1 0x40 MLOAD DUP1 SWAP2 SUB SWAP1 REVERT JUMPDEST PUSH1 0x2 PUSH1 0x5 SLOAD PUSH1 0xFF AND PUSH1 0x3 DUP2 GT ISZERO PUSH2 0x282 JUMPI PUSH2 0x282 PUSH2 0x967 JUMP JUMPDEST EQ PUSH2 0x29F JUMPI PUSH1 0x40 MLOAD PUSH3 0x461BCD PUSH1 0xE5 SHL DUP2 MSTORE PUSH1 0x4 ADD PUSH2 0x208 SWAP1 PUSH2 0x9D0 JUMP JUMPDEST PUSH1 0x7 SLOAD ISZERO PUSH2 0x303 JUMPI PUSH1 0x40 MLOAD PUSH3 0x461BCD PUSH1 0xE5 SHL DUP2 MSTORE PUSH1 0x20 PUSH1 0x4 DUP3 ADD MSTORE PUSH1 0x2B PUSH1 0x24 DUP3 ADD MSTORE PUSH32 0x42616C616E6365206D7573742062652030206265666F7265207465726D69616E PUSH1 0x44 DUP3 ADD MSTORE PUSH11 0x1D1A5B99C818481919585B PUSH1 0xAA SHL PUSH1 0x64 DUP3 ADD MSTORE PUSH1 0x84 ADD PUSH2 0x208 JUMP JUMPDEST PUSH1 0xB SLOAD ISZERO PUSH2 0x36C JUMPI PUSH1 0x40 MLOAD PUSH3 0x461BCD PUSH1 0xE5 SHL DUP2 MSTORE PUSH1 0x20 PUSH1 0x4 DUP3 ADD MSTORE PUSH1 0x30 PUSH1 0x24 DUP3 ADD MSTORE PUSH32 0x546865726520697320756E77697468647261776D206D6F6E65792E2057697468 PUSH1 0x44 DUP3 ADD MSTORE PUSH16 0x6472617720796F7572206D6F6E657921 PUSH1 0x80 SHL PUSH1 0x64 DUP3 ADD MSTORE PUSH1 0x84 ADD PUSH2 0x208 JUMP JUMPDEST PUSH1 0x5 DUP1 SLOAD PUSH1 0xFF NOT AND PUSH1 0x3 OR SWAP1 SSTORE PUSH1 0x40 MLOAD PUSH32 0x6D0D90585834980BD0E5603341FF50B06349C11E0BF9241D03F6D065F12A262B SWAP1 PUSH1 0x0 SWAP1 LOG1 JUMP JUMPDEST JUMP JUMPDEST PUSH1 0x0 SLOAD PUSH1 0x1 PUSH1 0x1 PUSH1 0xA0 SHL SUB AND CALLER EQ DUP1 PUSH2 0x3C9 JUMPI POP PUSH1 0x1 SLOAD PUSH1 0x1 PUSH1 0x1 PUSH1 0xA0 SHL SUB AND CALLER EQ JUMPDEST PUSH2 0x3E5 JUMPI PUSH1 0x40 MLOAD PUSH3 0x461BCD PUSH1 0xE5 SHL DUP2 MSTORE PUSH1 0x4 ADD PUSH2 0x208 SWAP1 PUSH2 0x9A5 JUMP JUMPDEST PUSH1 0x1 PUSH1 0x5 SLOAD PUSH1 0xFF AND PUSH1 0x3 DUP2 GT ISZERO PUSH2 0x3FE JUMPI PUSH2 0x3FE PUSH2 0x967 JUMP JUMPDEST EQ DUP1 PUSH2 0x40B JUMPI POP PUSH1 0x2 SLOAD TIMESTAMP GT JUMPDEST ISZERO PUSH2 0x423 JUMPI PUSH1 0x5 DUP1 SLOAD PUSH1 0x1 SWAP2 SWAP1 PUSH1 0xFF NOT AND DUP3 DUP1 PUSH2 0x24B JUMP JUMPDEST PUSH1 0x2 PUSH1 0x5 SLOAD PUSH1 0xFF AND PUSH1 0x3 DUP2 GT ISZERO PUSH2 0x43C JUMPI PUSH2 0x43C PUSH2 0x967 JUMP JUMPDEST EQ PUSH2 0x3A4 JUMPI PUSH1 0x40 MLOAD PUSH3 0x461BCD PUSH1 0xE5 SHL DUP2 MSTORE PUSH1 0x4 ADD PUSH2 0x208 SWAP1 PUSH2 0x9D0 JUMP JUMPDEST PUSH1 0x0 DUP1 SLOAD PUSH1 0x1 PUSH1 0x1 PUSH1 0xA0 SHL SUB AND CALLER EQ DUP1 PUSH2 0x47D JUMPI POP PUSH1 0x1 SLOAD PUSH1 0x1 PUSH1 0x1 PUSH1 0xA0 SHL SUB AND CALLER EQ JUMPDEST PUSH2 0x499 JUMPI PUSH1 0x40 MLOAD PUSH3 0x461BCD PUSH1 0xE5 SHL DUP2 MSTORE PUSH1 0x4 ADD PUSH2 0x208 SWAP1 PUSH2 0x9A5 JUMP JUMPDEST PUSH1 0x1 PUSH1 0x5 SLOAD PUSH1 0xFF AND PUSH1 0x3 DUP2 GT ISZERO PUSH2 0x4B2 JUMPI PUSH2 0x4B2 PUSH2 0x967 JUMP JUMPDEST EQ DUP1 PUSH2 0x4BF JUMPI POP PUSH1 0x2 SLOAD TIMESTAMP GT JUMPDEST ISZERO PUSH2 0x4D7 JUMPI PUSH1 0x5 DUP1 SLOAD PUSH1 0x1 SWAP2 SWAP1 PUSH1 0xFF NOT AND DUP3 DUP1 PUSH2 0x24B JUMP JUMPDEST PUSH1 0x2 PUSH1 0x5 SLOAD PUSH1 0xFF AND PUSH1 0x3 DUP2 GT ISZERO PUSH2 0x4F0 JUMPI PUSH2 0x4F0 PUSH2 0x967 JUMP JUMPDEST EQ PUSH2 0x50D JUMPI PUSH1 0x40 MLOAD PUSH3 0x461BCD PUSH1 0xE5 SHL DUP2 MSTORE PUSH1 0x4 ADD PUSH2 0x208 SWAP1 PUSH2 0x9D0 JUMP JUMPDEST PUSH2 0x515 PUSH2 0x1AB JUMP JUMPDEST DUP3 GT ISZERO PUSH2 0x56F JUMPI PUSH1 0x40 MLOAD PUSH3 0x461BCD PUSH1 0xE5 SHL DUP2 MSTORE PUSH1 0x20 PUSH1 0x4 DUP3 ADD MSTORE PUSH1 0x22 PUSH1 0x24 DUP3 ADD MSTORE PUSH32 0x4E6F20617661696C61626C652063726564697420666F72207468697320637963 PUSH1 0x44 DUP3 ADD MSTORE PUSH2 0x6C65 PUSH1 0xF0 SHL PUSH1 0x64 DUP3 ADD MSTORE PUSH1 0x84 ADD PUSH2 0x208 JUMP JUMPDEST PUSH1 0x3 SLOAD PUSH1 0x4 DUP1 SLOAD PUSH1 0x40 MLOAD PUSH4 0xBC134AE3 PUSH1 0xE0 SHL DUP2 MSTORE SWAP2 DUP3 ADD MSTORE PUSH1 0x1 PUSH1 0x1 PUSH1 0xA0 SHL SUB DUP6 DUP2 AND PUSH1 0x24 DUP4 ADD MSTORE PUSH1 0x44 DUP3 ADD DUP6 SWAP1 MSTORE PUSH1 0x0 SWAP3 AND SWAP1 PUSH4 0xBC134AE3 SWAP1 PUSH1 0x64 ADD PUSH1 0x20 PUSH1 0x40 MLOAD DUP1 DUP4 SUB DUP2 PUSH1 0x0 DUP8 GAS CALL ISZERO DUP1 ISZERO PUSH2 0x5CB JUMPI RETURNDATASIZE PUSH1 0x0 DUP1 RETURNDATACOPY RETURNDATASIZE PUSH1 0x0 REVERT JUMPDEST POP POP POP POP PUSH1 0x40 MLOAD RETURNDATASIZE PUSH1 0x1F NOT PUSH1 0x1F DUP3 ADD AND DUP3 ADD DUP1 PUSH1 0x40 MSTORE POP DUP2 ADD SWAP1 PUSH2 0x5EF SWAP2 SWAP1 PUSH2 0xA07 JUMP JUMPDEST SWAP1 POP DUP1 ISZERO PUSH2 0x608 JUMPI PUSH1 0x7 SLOAD PUSH2 0x604 SWAP1 DUP5 PUSH2 0x8DF JUMP JUMPDEST PUSH1 0x7 SSTORE JUMPDEST SWAP1 POP JUMPDEST SWAP3 SWAP2 POP POP JUMP JUMPDEST PUSH1 0x0 SLOAD PUSH1 0x1 PUSH1 0x1 PUSH1 0xA0 SHL SUB AND CALLER EQ PUSH2 0x66B JUMPI PUSH1 0x40 MLOAD PUSH3 0x461BCD PUSH1 0xE5 SHL DUP2 MSTORE PUSH1 0x20 PUSH1 0x4 DUP3 ADD DUP2 SWAP1 MSTORE PUSH1 0x24 DUP3 ADD MSTORE PUSH32 0x4F6E6C7920757365722063616E206163636573732074686973206D6574686F64 PUSH1 0x44 DUP3 ADD MSTORE PUSH1 0x64 ADD PUSH2 0x208 JUMP JUMPDEST PUSH1 0x2 PUSH1 0x5 SLOAD PUSH1 0xFF AND PUSH1 0x3 DUP2 GT ISZERO PUSH2 0x684 JUMPI PUSH2 0x684 PUSH2 0x967 JUMP JUMPDEST EQ PUSH2 0x6A1 JUMPI PUSH1 0x40 MLOAD PUSH3 0x461BCD PUSH1 0xE5 SHL DUP2 MSTORE PUSH1 0x4 ADD PUSH2 0x208 SWAP1 PUSH2 0x9D0 JUMP JUMPDEST PUSH1 0xB DUP1 SLOAD PUSH1 0x0 SWAP2 DUP3 SWAP1 SSTORE PUSH1 0x40 MLOAD SWAP1 SWAP2 CALLER SWAP2 DUP4 ISZERO PUSH2 0x8FC MUL SWAP2 DUP5 SWAP2 SWAP1 DUP2 DUP2 DUP2 DUP6 DUP9 DUP9 CALL SWAP4 POP POP POP POP ISZERO DUP1 ISZERO PUSH2 0x6D9 JUMPI RETURNDATASIZE PUSH1 0x0 DUP1 RETURNDATACOPY RETURNDATASIZE PUSH1 0x0 REVERT JUMPDEST POP POP JUMP JUMPDEST PUSH1 0x0 SLOAD PUSH1 0x1 PUSH1 0x1 PUSH1 0xA0 SHL SUB AND CALLER EQ PUSH2 0x737 JUMPI PUSH1 0x40 MLOAD PUSH3 0x461BCD PUSH1 0xE5 SHL DUP2 MSTORE PUSH1 0x20 PUSH1 0x4 DUP3 ADD DUP2 SWAP1 MSTORE PUSH1 0x24 DUP3 ADD MSTORE PUSH32 0x4F6E6C7920757365722063616E206163636573732074686973206D6574686F64 PUSH1 0x44 DUP3 ADD MSTORE PUSH1 0x64 ADD PUSH2 0x208 JUMP JUMPDEST PUSH1 0x2 PUSH1 0x5 SLOAD PUSH1 0xFF AND PUSH1 0x3 DUP2 GT ISZERO PUSH2 0x750 JUMPI PUSH2 0x750 PUSH2 0x967 JUMP JUMPDEST EQ PUSH2 0x76D JUMPI PUSH1 0x40 MLOAD PUSH3 0x461BCD PUSH1 0xE5 SHL DUP2 MSTORE PUSH1 0x4 ADD PUSH2 0x208 SWAP1 PUSH2 0x9D0 JUMP JUMPDEST PUSH1 0x7 SLOAD CALLVALUE GT ISZERO PUSH2 0x78F JUMPI PUSH1 0x7 SLOAD PUSH2 0x785 SWAP1 CALLVALUE SWAP1 PUSH2 0x88E JUMP JUMPDEST PUSH1 0xB SSTORE PUSH1 0x0 PUSH1 0x7 SSTORE JUMP JUMPDEST PUSH1 0x7 SLOAD PUSH2 0x79C SWAP1 CALLVALUE PUSH2 0x88E JUMP JUMPDEST PUSH1 0x7 SSTORE JUMP JUMPDEST PUSH1 0x1 SLOAD PUSH1 0x1 PUSH1 0x1 PUSH1 0xA0 SHL SUB AND CALLER EQ PUSH2 0x806 JUMPI PUSH1 0x40 MLOAD PUSH3 0x461BCD PUSH1 0xE5 SHL DUP2 MSTORE PUSH1 0x20 PUSH1 0x4 DUP3 ADD MSTORE PUSH1 0x22 PUSH1 0x24 DUP3 ADD MSTORE PUSH32 0x4F6E6C7920706172656E742063616E206163636573732074686973206D657468 PUSH1 0x44 DUP3 ADD MSTORE PUSH2 0x1BD9 PUSH1 0xF2 SHL PUSH1 0x64 DUP3 ADD MSTORE PUSH1 0x84 ADD PUSH2 0x208 JUMP JUMPDEST PUSH1 0x3 DUP1 SLOAD PUSH1 0x1 PUSH1 0x1 PUSH1 0xA0 SHL SUB NOT AND PUSH1 0x1 PUSH1 0x1 PUSH1 0xA0 SHL SUB DUP5 AND OR SWAP1 SSTORE PUSH1 0x4 DUP2 SWAP1 SSTORE PUSH1 0x5 DUP1 SLOAD PUSH1 0x2 PUSH1 0xFF NOT SWAP1 SWAP2 AND OR SWAP1 SSTORE PUSH1 0x40 DUP1 MLOAD PUSH1 0x20 DUP1 DUP3 MSTORE PUSH1 0x12 SWAP1 DUP3 ADD MSTORE PUSH18 0x1248185B481B9BDDC81858DD1A5D985D1959 PUSH1 0x72 SHL DUP2 DUP4 ADD MSTORE SWAP1 MLOAD PUSH32 0xA224651DB1C118154A1C45F82025442A97ACADB5DB9E887D7098AA23E98FA10D SWAP2 DUP2 SWAP1 SUB PUSH1 0x60 ADD SWAP1 LOG1 POP POP JUMP JUMPDEST PUSH1 0x0 DUP3 DUP3 GT ISZERO PUSH2 0x8D5 JUMPI PUSH1 0x40 MLOAD PUSH3 0x461BCD PUSH1 0xE5 SHL DUP2 MSTORE PUSH1 0x20 PUSH1 0x4 DUP3 ADD MSTORE PUSH1 0x12 PUSH1 0x24 DUP3 ADD MSTORE PUSH18 0x14DD589CDD1C9858DD1A5BDB8819985A5B19 PUSH1 0x72 SHL PUSH1 0x44 DUP3 ADD MSTORE PUSH1 0x64 ADD PUSH2 0x208 JUMP JUMPDEST PUSH2 0x608 DUP3 DUP5 PUSH2 0xA3F JUMP JUMPDEST PUSH1 0x0 PUSH2 0x8EB DUP3 DUP5 PUSH2 0xA56 JUMP JUMPDEST SWAP1 POP DUP3 DUP2 LT ISZERO PUSH2 0x60B JUMPI PUSH1 0x40 MLOAD PUSH3 0x461BCD PUSH1 0xE5 SHL DUP2 MSTORE PUSH1 0x20 PUSH1 0x4 DUP3 ADD MSTORE PUSH1 0xF PUSH1 0x24 DUP3 ADD MSTORE PUSH15 0x1059191A5D1A5BDB8819985A5B1959 PUSH1 0x8A SHL PUSH1 0x44 DUP3 ADD MSTORE PUSH1 0x64 ADD PUSH2 0x208 JUMP JUMPDEST PUSH1 0x0 DUP1 PUSH1 0x40 DUP4 DUP6 SUB SLT ISZERO PUSH2 0x942 JUMPI PUSH1 0x0 DUP1 REVERT JUMPDEST DUP3 CALLDATALOAD PUSH1 0x1 PUSH1 0x1 PUSH1 0xA0 SHL SUB DUP2 AND DUP2 EQ PUSH2 0x959 JUMPI PUSH1 0x0 DUP1 REVERT JUMPDEST SWAP5 PUSH1 0x20 SWAP4 SWAP1 SWAP4 ADD CALLDATALOAD SWAP4 POP POP POP JUMP JUMPDEST PUSH4 0x4E487B71 PUSH1 0xE0 SHL PUSH1 0x0 MSTORE PUSH1 0x21 PUSH1 0x4 MSTORE PUSH1 0x24 PUSH1 0x0 REVERT JUMPDEST PUSH1 0x20 DUP2 ADD PUSH1 0x4 DUP4 LT PUSH2 0x99F JUMPI PUSH4 0x4E487B71 PUSH1 0xE0 SHL PUSH1 0x0 MSTORE PUSH1 0x21 PUSH1 0x4 MSTORE PUSH1 0x24 PUSH1 0x0 REVERT JUMPDEST SWAP2 SWAP1 MSTORE SWAP1 JUMP JUMPDEST PUSH1 0x20 DUP1 DUP3 MSTORE PUSH1 0x11 SWAP1 DUP3 ADD MSTORE PUSH17 0x2AB730BABA3437B934BD32B2103AB9B2B9 PUSH1 0x79 SHL PUSH1 0x40 DUP3 ADD MSTORE PUSH1 0x60 ADD SWAP1 JUMP JUMPDEST PUSH1 0x20 DUP1 DUP3 MSTORE PUSH1 0x1B SWAP1 DUP3 ADD MSTORE PUSH32 0x436F6E74726163742073746174652069736E2774206163746976650000000000 PUSH1 0x40 DUP3 ADD MSTORE PUSH1 0x60 ADD SWAP1 JUMP JUMPDEST PUSH1 0x0 PUSH1 0x20 DUP3 DUP5 SUB SLT ISZERO PUSH2 0xA19 JUMPI PUSH1 0x0 DUP1 REVERT JUMPDEST DUP2 MLOAD DUP1 ISZERO ISZERO DUP2 EQ PUSH2 0x608 JUMPI PUSH1 0x0 DUP1 REVERT JUMPDEST PUSH4 0x4E487B71 PUSH1 0xE0 SHL PUSH1 0x0 MSTORE PUSH1 0x11 PUSH1 0x4 MSTORE PUSH1 0x24 PUSH1 0x0 REVERT JUMPDEST PUSH1 0x0 DUP3 DUP3 LT ISZERO PUSH2 0xA51 JUMPI PUSH2 0xA51 PUSH2 0xA29 JUMP JUMPDEST POP SUB SWAP1 JUMP JUMPDEST PUSH1 0x0 DUP3 NOT DUP3 GT ISZERO PUSH2 0xA69 JUMPI PUSH2 0xA69 PUSH2 0xA29 JUMP JUMPDEST POP ADD SWAP1 JUMP INVALID LOG2 PUSH5 0x6970667358 0x22 SLT KECCAK256 0x49 0xDD SELFDESTRUCT LOG0 SELFBALANCE 0xDD SWAP16 OR PUSH22 0xB20910C53521B01323D26752C5E1A54702224BFB4110 0xBE PUSH5 0x736F6C6343 STOP ADDMOD 0xD STOP CALLER PUSH1 0x80 PUSH1 0x40 MSTORE CALLVALUE DUP1 ISZERO PUSH2 0x10 JUMPI PUSH1 0x0 DUP1 REVERT JUMPDEST POP PUSH1 0x40 MLOAD PUSH2 0x9C7 CODESIZE SUB DUP1 PUSH2 0x9C7 DUP4 CODECOPY DUP2 ADD PUSH1 0x40 DUP2 SWAP1 MSTORE PUSH2 0x2F SWAP2 PUSH2 0xD5 JUMP JUMPDEST PUSH1 0x0 DUP1 SLOAD CALLER PUSH1 0x1 PUSH1 0x1 PUSH1 0xA0 SHL SUB NOT SWAP2 DUP3 AND DUP2 OR DUP4 SSTORE PUSH1 0x3 DUP6 SWAP1 SSTORE PUSH1 0x4 DUP1 SLOAD SWAP1 SWAP3 AND PUSH1 0x1 PUSH1 0x1 PUSH1 0xA0 SHL SUB DUP6 AND OR SWAP1 SWAP2 SSTORE PUSH1 0x40 DUP1 MLOAD PUSH1 0x60 DUP1 DUP3 MSTORE PUSH1 0x1C SWAP1 DUP3 ADD MSTORE PUSH32 0x4C656E64696E6720706F6F6C2067617465206372656174656420627900000000 PUSH1 0x80 DUP3 ADD MSTORE PUSH1 0x20 DUP2 ADD SWAP3 SWAP1 SWAP3 MSTORE DUP2 ADD SWAP2 SWAP1 SWAP2 MSTORE PUSH32 0x2CCE1494B4EF3C5682648D5C4BBF147548F403FC2AC218E41EC797BABDB0ACB5 SWAP1 PUSH1 0xA0 ADD PUSH1 0x40 MLOAD DUP1 SWAP2 SUB SWAP1 LOG1 POP POP PUSH2 0x112 JUMP JUMPDEST PUSH1 0x0 DUP1 PUSH1 0x40 DUP4 DUP6 SUB SLT ISZERO PUSH2 0xE8 JUMPI PUSH1 0x0 DUP1 REVERT JUMPDEST DUP3 MLOAD PUSH1 0x20 DUP5 ADD MLOAD SWAP1 SWAP3 POP PUSH1 0x1 PUSH1 0x1 PUSH1 0xA0 SHL SUB DUP2 AND DUP2 EQ PUSH2 0x107 JUMPI PUSH1 0x0 DUP1 REVERT JUMPDEST DUP1 SWAP2 POP POP SWAP3 POP SWAP3 SWAP1 POP JUMP JUMPDEST PUSH2 0x8A6 DUP1 PUSH2 0x121 PUSH1 0x0 CODECOPY PUSH1 0x0 RETURN INVALID PUSH1 0x80 PUSH1 0x40 MSTORE CALLVALUE DUP1 ISZERO PUSH2 0x10 JUMPI PUSH1 0x0 DUP1 REVERT JUMPDEST POP PUSH1 0x4 CALLDATASIZE LT PUSH2 0x7D JUMPI PUSH1 0x0 CALLDATALOAD PUSH1 0xE0 SHR DUP1 PUSH4 0xAC446002 GT PUSH2 0x5B JUMPI DUP1 PUSH4 0xAC446002 EQ PUSH2 0xF1 JUMPI DUP1 PUSH4 0xBC134AE3 EQ PUSH2 0xFB JUMPI DUP1 PUSH4 0xCBC20F30 EQ PUSH2 0x11E JUMPI DUP1 PUSH4 0xF984EAD8 EQ PUSH2 0x131 JUMPI PUSH1 0x0 DUP1 REVERT JUMPDEST DUP1 PUSH4 0x317549F2 EQ PUSH2 0x82 JUMPI DUP1 PUSH4 0x89F78C8E EQ PUSH2 0xAF JUMPI DUP1 PUSH4 0x9DC61D4F EQ PUSH2 0xC6 JUMPI JUMPDEST PUSH1 0x0 DUP1 REVERT JUMPDEST PUSH2 0x95 PUSH2 0x90 CALLDATASIZE PUSH1 0x4 PUSH2 0x726 JUMP JUMPDEST PUSH2 0x144 JUMP JUMPDEST PUSH1 0x40 DUP1 MLOAD SWAP3 DUP4 MSTORE SWAP1 ISZERO ISZERO PUSH1 0x20 DUP4 ADD MSTORE ADD JUMPDEST PUSH1 0x40 MLOAD DUP1 SWAP2 SUB SWAP1 RETURN JUMPDEST PUSH2 0xB8 PUSH1 0x3 SLOAD DUP2 JUMP JUMPDEST PUSH1 0x40 MLOAD SWAP1 DUP2 MSTORE PUSH1 0x20 ADD PUSH2 0xA6 JUMP JUMPDEST PUSH1 0x0 SLOAD PUSH2 0xD9 SWAP1 PUSH1 0x1 PUSH1 0x1 PUSH1 0xA0 SHL SUB AND DUP2 JUMP JUMPDEST PUSH1 0x40 MLOAD PUSH1 0x1 PUSH1 0x1 PUSH1 0xA0 SHL SUB SWAP1 SWAP2 AND DUP2 MSTORE PUSH1 0x20 ADD PUSH2 0xA6 JUMP JUMPDEST PUSH2 0xF9 PUSH2 0x37E JUMP JUMPDEST STOP JUMPDEST PUSH2 0x10E PUSH2 0x109 CALLDATASIZE PUSH1 0x4 PUSH2 0x741 JUMP JUMPDEST PUSH2 0x3C3 JUMP JUMPDEST PUSH1 0x40 MLOAD SWAP1 ISZERO ISZERO DUP2 MSTORE PUSH1 0x20 ADD PUSH2 0xA6 JUMP JUMPDEST PUSH2 0xF9 PUSH2 0x12C CALLDATASIZE PUSH1 0x4 PUSH2 0x776 JUMP JUMPDEST PUSH2 0x554 JUMP JUMPDEST PUSH1 0x4 SLOAD PUSH2 0xD9 SWAP1 PUSH1 0x1 PUSH1 0x1 PUSH1 0xA0 SHL SUB AND DUP2 JUMP JUMPDEST PUSH1 0x0 DUP1 SLOAD DUP2 SWAP1 PUSH1 0x1 PUSH1 0x1 PUSH1 0xA0 SHL SUB AND CALLER EQ PUSH2 0x17A JUMPI PUSH1 0x40 MLOAD PUSH3 0x461BCD PUSH1 0xE5 SHL DUP2 MSTORE PUSH1 0x4 ADD PUSH2 0x171 SWAP1 PUSH2 0x78F JUMP JUMPDEST PUSH1 0x40 MLOAD DUP1 SWAP2 SUB SWAP1 REVERT JUMPDEST PUSH1 0x3 SLOAD PUSH1 0x1 SLOAD LT DUP1 PUSH2 0x18D JUMPI POP PUSH1 0x2 SLOAD ISZERO ISZERO JUMPDEST PUSH2 0x1CE JUMPI PUSH1 0x40 MLOAD PUSH3 0x461BCD PUSH1 0xE5 SHL DUP2 MSTORE PUSH1 0x20 PUSH1 0x4 DUP3 ADD MSTORE PUSH1 0x12 PUSH1 0x24 DUP3 ADD MSTORE PUSH18 0x15DA1A5D19481B1A5CDD081A5CC8199D5B1B PUSH1 0x72 SHL PUSH1 0x44 DUP3 ADD MSTORE PUSH1 0x64 ADD PUSH2 0x171 JUMP JUMPDEST PUSH1 0x2 SLOAD ISZERO PUSH2 0x2C7 JUMPI PUSH1 0x2 DUP1 SLOAD PUSH1 0x0 SWAP2 SWAP1 PUSH2 0x1E9 SWAP1 PUSH1 0x1 PUSH2 0x6B2 JUMP JUMPDEST DUP2 SLOAD DUP2 LT PUSH2 0x1F9 JUMPI PUSH2 0x1F9 PUSH2 0x7DC JUMP JUMPDEST SWAP1 PUSH1 0x0 MSTORE PUSH1 0x20 PUSH1 0x0 KECCAK256 ADD SLOAD SWAP1 POP DUP4 PUSH1 0x1 DUP3 DUP2 SLOAD DUP2 LT PUSH2 0x21A JUMPI PUSH2 0x21A PUSH2 0x7DC JUMP JUMPDEST SWAP1 PUSH1 0x0 MSTORE PUSH1 0x20 PUSH1 0x0 KECCAK256 ADD PUSH1 0x0 PUSH2 0x100 EXP DUP2 SLOAD DUP2 PUSH1 0x1 PUSH1 0x1 PUSH1 0xA0 SHL SUB MUL NOT AND SWAP1 DUP4 PUSH1 0x1 PUSH1 0x1 PUSH1 0xA0 SHL SUB AND MUL OR SWAP1 SSTORE POP PUSH1 0x2 DUP1 SLOAD DUP1 PUSH2 0x259 JUMPI PUSH2 0x259 PUSH2 0x7F2 JUMP JUMPDEST PUSH1 0x1 SWAP1 SUB DUP2 DUP2 SWAP1 PUSH1 0x0 MSTORE PUSH1 0x20 PUSH1 0x0 KECCAK256 ADD PUSH1 0x0 SWAP1 SSTORE SWAP1 SSTORE PUSH32 0x2CCE1494B4EF3C5682648D5C4BBF147548F403FC2AC218E41EC797BABDB0ACB5 DUP5 DUP3 PUSH1 0x40 MLOAD PUSH2 0x2A0 SWAP3 SWAP2 SWAP1 PUSH2 0x808 JUMP JUMPDEST PUSH1 0x40 MLOAD DUP1 SWAP2 SUB SWAP1 LOG1 PUSH1 0x3 SLOAD PUSH1 0x1 SLOAD DUP3 SWAP2 GT DUP1 PUSH2 0x2BD JUMPI POP PUSH1 0x2 SLOAD ISZERO ISZERO JUMPDEST SWAP3 POP SWAP3 POP POP SWAP2 POP SWAP2 JUMP JUMPDEST PUSH1 0x1 DUP1 SLOAD DUP1 DUP3 ADD DUP3 SSTORE PUSH1 0x0 DUP3 SWAP1 MSTORE PUSH32 0xB10E2D527612073B26EECDFD717E6A320CF44B4AFAC2B0732D9FCBE2B7FA0CF6 ADD DUP1 SLOAD PUSH1 0x1 PUSH1 0x1 PUSH1 0xA0 SHL SUB NOT AND PUSH1 0x1 PUSH1 0x1 PUSH1 0xA0 SHL SUB DUP7 AND OR SWAP1 SSTORE DUP1 SLOAD PUSH32 0x2CCE1494B4EF3C5682648D5C4BBF147548F403FC2AC218E41EC797BABDB0ACB5 SWAP2 DUP6 SWAP2 PUSH2 0x33F SWAP2 PUSH2 0x6B2 JUMP JUMPDEST PUSH1 0x40 MLOAD PUSH2 0x34D SWAP3 SWAP2 SWAP1 PUSH2 0x808 JUMP JUMPDEST PUSH1 0x40 MLOAD DUP1 SWAP2 SUB SWAP1 LOG1 PUSH1 0x1 DUP1 SLOAD PUSH2 0x362 SWAP2 PUSH2 0x6B2 JUMP JUMPDEST PUSH1 0x3 SLOAD PUSH1 0x1 SLOAD LT DUP1 PUSH2 0x375 JUMPI POP PUSH1 0x2 SLOAD ISZERO ISZERO JUMPDEST SWAP2 POP SWAP2 POP SWAP2 POP SWAP2 JUMP JUMPDEST CALLER PUSH1 0x0 DUP2 DUP2 MSTORE PUSH1 0x5 PUSH1 0x20 MSTORE PUSH1 0x40 DUP1 DUP3 KECCAK256 DUP1 SLOAD SWAP1 DUP4 SWAP1 SSTORE SWAP1 MLOAD SWAP1 SWAP3 SWAP2 DUP4 ISZERO PUSH2 0x8FC MUL SWAP2 DUP5 SWAP2 DUP2 DUP2 DUP2 DUP6 DUP9 DUP9 CALL SWAP4 POP POP POP POP ISZERO DUP1 ISZERO PUSH2 0x3BF JUMPI RETURNDATASIZE PUSH1 0x0 DUP1 RETURNDATACOPY RETURNDATASIZE PUSH1 0x0 REVERT JUMPDEST POP POP JUMP JUMPDEST PUSH1 0x1 SLOAD PUSH1 0x0 SWAP1 DUP5 SWAP1 DUP2 LT PUSH2 0x3D6 JUMPI PUSH1 0x0 DUP1 REVERT JUMPDEST PUSH1 0x0 PUSH1 0x1 PUSH1 0x1 PUSH1 0xA0 SHL SUB AND PUSH1 0x1 DUP3 DUP2 SLOAD DUP2 LT PUSH2 0x3F4 JUMPI PUSH2 0x3F4 PUSH2 0x7DC JUMP JUMPDEST PUSH1 0x0 SWAP2 DUP3 MSTORE PUSH1 0x20 SWAP1 SWAP2 KECCAK256 ADD SLOAD PUSH1 0x1 PUSH1 0x1 PUSH1 0xA0 SHL SUB AND SUB PUSH2 0x449 JUMPI PUSH1 0x40 MLOAD PUSH3 0x461BCD PUSH1 0xE5 SHL DUP2 MSTORE PUSH1 0x20 PUSH1 0x4 DUP3 ADD MSTORE PUSH1 0x10 PUSH1 0x24 DUP3 ADD MSTORE PUSH16 0x11195B195D19590810DBDB9D1C9858DD PUSH1 0x82 SHL PUSH1 0x44 DUP3 ADD MSTORE PUSH1 0x64 ADD PUSH2 0x171 JUMP JUMPDEST PUSH1 0x1 DUP2 DUP2 SLOAD DUP2 LT PUSH2 0x45C JUMPI PUSH2 0x45C PUSH2 0x7DC JUMP JUMPDEST PUSH1 0x0 SWAP2 DUP3 MSTORE PUSH1 0x20 SWAP1 SWAP2 KECCAK256 ADD SLOAD PUSH1 0x1 PUSH1 0x1 PUSH1 0xA0 SHL SUB AND CALLER EQ PUSH2 0x4E5 JUMPI PUSH1 0x40 MLOAD PUSH3 0x461BCD PUSH1 0xE5 SHL DUP2 MSTORE PUSH1 0x20 PUSH1 0x4 DUP3 ADD MSTORE PUSH1 0x3F PUSH1 0x24 DUP3 ADD MSTORE PUSH32 0x536D61727420636F6E7472616374206E6F7420616C6C6F77656420746F207769 PUSH1 0x44 DUP3 ADD MSTORE PUSH32 0x746864726177206D6F6E6579207468726F756768742074686973206761746500 PUSH1 0x64 DUP3 ADD MSTORE PUSH1 0x84 ADD PUSH2 0x171 JUMP JUMPDEST PUSH1 0x4 DUP1 SLOAD PUSH1 0x40 MLOAD PUSH4 0x3607999B PUSH1 0xE0 SHL DUP2 MSTORE SWAP2 DUP3 ADD DUP6 SWAP1 MSTORE PUSH1 0x1 PUSH1 0x1 PUSH1 0xA0 SHL SUB DUP7 DUP2 AND PUSH1 0x24 DUP5 ADD MSTORE AND SWAP1 PUSH4 0x3607999B SWAP1 PUSH1 0x44 ADD PUSH1 0x0 PUSH1 0x40 MLOAD DUP1 DUP4 SUB DUP2 PUSH1 0x0 DUP8 DUP1 EXTCODESIZE ISZERO DUP1 ISZERO PUSH2 0x531 JUMPI PUSH1 0x0 DUP1 REVERT JUMPDEST POP GAS CALL ISZERO DUP1 ISZERO PUSH2 0x545 JUMPI RETURNDATASIZE PUSH1 0x0 DUP1 RETURNDATACOPY RETURNDATASIZE PUSH1 0x0 REVERT JUMPDEST POP PUSH1 0x1 SWAP9 SWAP8 POP POP POP POP POP POP POP POP JUMP JUMPDEST PUSH1 0x0 SLOAD PUSH1 0x1 PUSH1 0x1 PUSH1 0xA0 SHL SUB AND CALLER EQ PUSH2 0x57E JUMPI PUSH1 0x40 MLOAD PUSH3 0x461BCD PUSH1 0xE5 SHL DUP2 MSTORE PUSH1 0x4 ADD PUSH2 0x171 SWAP1 PUSH2 0x78F JUMP JUMPDEST PUSH1 0x1 SLOAD DUP2 LT PUSH2 0x5C3 JUMPI PUSH1 0x40 MLOAD PUSH3 0x461BCD PUSH1 0xE5 SHL DUP2 MSTORE PUSH1 0x20 PUSH1 0x4 DUP3 ADD MSTORE PUSH1 0x11 PUSH1 0x24 DUP3 ADD MSTORE PUSH17 0x151BDAD95B881B9BDD0818DC99585D1959 PUSH1 0x7A SHL PUSH1 0x44 DUP3 ADD MSTORE PUSH1 0x64 ADD PUSH2 0x171 JUMP JUMPDEST PUSH1 0x0 PUSH1 0x1 PUSH1 0x1 PUSH1 0xA0 SHL SUB AND PUSH1 0x1 DUP3 DUP2 SLOAD DUP2 LT PUSH2 0x5E1 JUMPI PUSH2 0x5E1 PUSH2 0x7DC JUMP JUMPDEST PUSH1 0x0 SWAP2 DUP3 MSTORE PUSH1 0x20 SWAP1 SWAP2 KECCAK256 ADD SLOAD PUSH1 0x1 PUSH1 0x1 PUSH1 0xA0 SHL SUB AND SUB PUSH2 0x643 JUMPI PUSH1 0x40 MLOAD PUSH3 0x461BCD PUSH1 0xE5 SHL DUP2 MSTORE PUSH1 0x20 PUSH1 0x4 DUP3 ADD MSTORE PUSH1 0x17 PUSH1 0x24 DUP3 ADD MSTORE PUSH32 0x6163636F756E7420616C72656164792064656C65746564000000000000000000 PUSH1 0x44 DUP3 ADD MSTORE PUSH1 0x64 ADD PUSH2 0x171 JUMP JUMPDEST PUSH1 0x0 PUSH1 0x1 DUP3 DUP2 SLOAD DUP2 LT PUSH2 0x658 JUMPI PUSH2 0x658 PUSH2 0x7DC JUMP JUMPDEST PUSH1 0x0 SWAP2 DUP3 MSTORE PUSH1 0x20 DUP3 KECCAK256 ADD DUP1 SLOAD PUSH1 0x1 PUSH1 0x1 PUSH1 0xA0 SHL SUB NOT AND PUSH1 0x1 PUSH1 0x1 PUSH1 0xA0 SHL SUB SWAP4 SWAP1 SWAP4 AND SWAP3 SWAP1 SWAP3 OR SWAP1 SWAP2 SSTORE PUSH1 0x2 DUP1 SLOAD PUSH1 0x1 DUP2 ADD DUP3 SSTORE SWAP2 MSTORE PUSH32 0x405787FA12A823E0F2B7631CC41B3BA8828B3321CA811111FA75CD3AA3BB5ACE ADD SSTORE JUMP JUMPDEST PUSH1 0x0 DUP3 DUP3 GT ISZERO PUSH2 0x6F9 JUMPI PUSH1 0x40 MLOAD PUSH3 0x461BCD PUSH1 0xE5 SHL DUP2 MSTORE PUSH1 0x20 PUSH1 0x4 DUP3 ADD MSTORE PUSH1 0x12 PUSH1 0x24 DUP3 ADD MSTORE PUSH18 0x14DD589CDD1C9858DD1A5BDB8819985A5B19 PUSH1 0x72 SHL PUSH1 0x44 DUP3 ADD MSTORE PUSH1 0x64 ADD PUSH2 0x171 JUMP JUMPDEST PUSH2 0x703 DUP3 DUP5 PUSH2 0x84B JUMP JUMPDEST SWAP4 SWAP3 POP POP POP JUMP JUMPDEST DUP1 CALLDATALOAD PUSH1 0x1 PUSH1 0x1 PUSH1 0xA0 SHL SUB DUP2 AND DUP2 EQ PUSH2 0x721 JUMPI PUSH1 0x0 DUP1 REVERT JUMPDEST SWAP2 SWAP1 POP JUMP JUMPDEST PUSH1 0x0 PUSH1 0x20 DUP3 DUP5 SUB SLT ISZERO PUSH2 0x738 JUMPI PUSH1 0x0 DUP1 REVERT JUMPDEST PUSH2 0x703 DUP3 PUSH2 0x70A JUMP JUMPDEST PUSH1 0x0 DUP1 PUSH1 0x0 PUSH1 0x60 DUP5 DUP7 SUB SLT ISZERO PUSH2 0x756 JUMPI PUSH1 0x0 DUP1 REVERT JUMPDEST DUP4 CALLDATALOAD SWAP3 POP PUSH2 0x766 PUSH1 0x20 DUP6 ADD PUSH2 0x70A JUMP JUMPDEST SWAP2 POP PUSH1 0x40 DUP5 ADD CALLDATALOAD SWAP1 POP SWAP3 POP SWAP3 POP SWAP3 JUMP JUMPDEST PUSH1 0x0 PUSH1 0x20 DUP3 DUP5 SUB SLT ISZERO PUSH2 0x788 JUMPI PUSH1 0x0 DUP1 REVERT JUMPDEST POP CALLDATALOAD SWAP2 SWAP1 POP JUMP JUMPDEST PUSH1 0x20 DUP1 DUP3 MSTORE PUSH1 0x2D SWAP1 DUP3 ADD MSTORE PUSH32 0x4F6E6C79206372656174696E6720636F6E74726163742063616E2063616C6C20 PUSH1 0x40 DUP3 ADD MSTORE PUSH13 0x3A3434B990333AB731BA34B7B7 PUSH1 0x99 SHL PUSH1 0x60 DUP3 ADD MSTORE PUSH1 0x80 ADD SWAP1 JUMP JUMPDEST PUSH4 0x4E487B71 PUSH1 0xE0 SHL PUSH1 0x0 MSTORE PUSH1 0x32 PUSH1 0x4 MSTORE PUSH1 0x24 PUSH1 0x0 REVERT JUMPDEST PUSH4 0x4E487B71 PUSH1 0xE0 SHL PUSH1 0x0 MSTORE PUSH1 0x31 PUSH1 0x4 MSTORE PUSH1 0x24 PUSH1 0x0 REVERT JUMPDEST PUSH1 0x60 DUP1 DUP3 MSTORE PUSH1 0x13 SWAP1 DUP3 ADD MSTORE PUSH19 0x1059191959081D1BC81DDA1A5D19481B1A5CDD PUSH1 0x6A SHL PUSH1 0x80 DUP3 ADD MSTORE PUSH1 0x1 PUSH1 0x1 PUSH1 0xA0 SHL SUB SWAP3 SWAP1 SWAP3 AND PUSH1 0x20 DUP4 ADD MSTORE PUSH1 0x40 DUP3 ADD MSTORE PUSH1 0xA0 ADD SWAP1 JUMP JUMPDEST PUSH1 0x0 DUP3 DUP3 LT ISZERO PUSH2 0x86B JUMPI PUSH4 0x4E487B71 PUSH1 0xE0 SHL PUSH1 0x0 MSTORE PUSH1 0x11 PUSH1 0x4 MSTORE PUSH1 0x24 PUSH1 0x0 REVERT JUMPDEST POP SUB SWAP1 JUMP INVALID LOG2 PUSH5 0x6970667358 0x22 SLT KECCAK256 DELEGATECALL 0xD4 SWAP13 0xCE DUP9 0xC6 PUSH8 0xD812898CECDA62F SWAP14 0x24 MSTORE8 0xC2 STOP 0xF7 0xBE 0x4A OR JUMPI EXTCODEHASH SGT 0xAE LOG4 PUSH27 0x526264736F6C634300080D0033A2646970667358221220AA05B13B 0xD3 SHR 0x1F 0x2A PUSH17 0xB190B0CC56AD70738B9AE536FFA2072833 LOG3 SDIV CALLDATACOPY SDIV DUP2 0x1E PUSH5 0x736F6C6343 STOP ADDMOD 0xD STOP CALLER ",
  "sha1": "2205c5b6310012040e8a6b552a4d652dd52dbecc",
  "source": "pragma solidity ^0.8.0;\n\n// SPDX-License-Identifier: MIT\n\nimport \"./SafeMath.sol\";\nimport {Swip3Customer} from \"./Swip3Customer.sol\";\nimport {LendingPoolGate} from \"./LendingPoolGate.sol\";\nimport {LendingPool} from \"./LendingPool.sol\";\n\n\n/// @title Swip3\n/// @author Hileamlak Yitayew\n/// @notice Creates Swip3contracts between users and iself\n/// @dev Uses the Swip3Customer iterface to create Swip3 customer contracts\n\ncontract Swip3 {\n\n    using SafeMath for uint256;\n    address payable public Swip3_deployer;\n    address public lending_pool_address;\n    uint256 public gate_max_nuser;\n\n\n    LendingPoolGate[] private gates;\n    uint256[] free_gates;\n    mapping(address => uint256) public gate_ids;\n\n    event ContractMessage(string message, address new_contract);\n\n    enum Assets {NFT, COIN}\n    enum Coins {BITCOIN, ETHEREUM, CARDANO}\n\n    struct NFTProps{\n        address factory;\n        uint256 token_id;\n    }\n\n    struct CoinPops{\n        Coins coin_type;\n        uint256 value;\n    }\n\n    /// Feature isn't yet implemented\n    error unimplemented_service();\n\n    \n    modifier inGates(){\n        require(address(gates[gate_ids[msg.sender]]) == msg.sender, \"Gate not owned\");\n        _;\n    }\n\n\n    constructor(){\n        Swip3_deployer = payable(msg.sender);\n        gate_max_nuser = 1000;\n        lending_pool_address = address(0xd9145CCE52D386f254917e481eB44e9943F39138);\n    }\n\n    // function removeFreeGate(address gate_address) internal{\n    //     free_gates[gate_ids[gate_address]] = free_gates[free_gates.length - 1];\n    //     free_gates.pop();\n    // }\n\n   \n\n    /// @notice Find a free lending pool for contract_address\n    /// @dev checks if already existing gates have more space other wise creats more\n    /// @param contract_address address to be added to a white list\n    /// @return tuple retruns address of lending pool along with token id\n\n    function matchWithLendingPool(address contract_address) \n        private\n        returns (address, uint256)\n    {\n        if (free_gates.length == 0){\n            LendingPoolGate new_gate = new LendingPoolGate(gate_max_nuser, lending_pool_address);\n            gates.push(new_gate);\n            gate_ids[address(new_gate)] = gates.length.sub(1);\n            free_gates.push(gates.length.sub(1));\n            LendingPool(payable(lending_pool_address)).addGate(address(new_gate));\n        }\n\n        assert(free_gates.length != 0);\n\n        LendingPoolGate free_gate = gates[free_gates[free_gates.length.sub(1)]];\n        (uint256 id, bool stat) = free_gate.append2WhiteList(contract_address);\n\n        if (!stat){\n            free_gates.pop();\n        }\n\n        return (address(free_gate), id);\n\n\n    }\n\n\n    /// @notice Creates a contract between swip3 protocol and user\n    /// @dev Puts asset in escrow and depending on that calculates credit\n    /// @param asset_type the staked asset, either nft or coin\n    /// @param nft_data if the staked asset is nft this infomation should be filled\n    /// @param coin_data if the staked asset is coin this infromation should be filled\n    /// @return returns contract address\n    function initateContract (Assets asset_type, NFTProps memory nft_data,\n                             CoinPops memory coin_data) \n        public \n        payable\n        returns(address)\n    {\n        if (asset_type == Assets.COIN){\n            if (coin_data.coin_type  == Coins.ETHEREUM){\n                \n                // Currently credit is the same as deposited money\n                (uint256 credit_limit, uint256 APR) = evaluateCoinStake();\n                // The lockStake function is only going to be usefull in the future\n                lockStake();\n                Swip3Customer user_contract = new Swip3Customer(block.timestamp.add(30 * 86400), \n                                                    address(this), \n                                                    msg.sender, credit_limit, \n                                                    APR);\n                (address gate, uint256 id) = matchWithLendingPool(address(user_contract));\n                user_contract.activate(gate, id);\n                \n                emit ContractMessage(\"User contract created at\", address(user_contract));\n                return address(user_contract);\n\n            }\n            else{\n                // If the coins is different from Ethereum use \n                // multi chain tools to verify if transaction has sent money to \n                //  sister account\n                 revert unimplemented_service();\n            }\n\n        }\n        else if (asset_type == Assets.NFT){\n\n            // Token smart contract address\n            // Token id\n            // NFT must follow the ERC-721 standard\n            evaluateNFTStake(nft_data);\n            revert unimplemented_service();\n        }\n        else{\n            revert unimplemented_service();\n        }\n\n    }\n\n    function evaluateNFTStake(NFTProps memory nft_data) \n        private\n        returns (uint256)\n    {\n        \n       (bool success, bytes memory returnData) =  nft_data.factory.call(abi.encodeWithSignature(\"ownerOf(uint256)\", nft_data.token_id));\n        require (success, \"NFT contract hasn't responded\");\n        require(abi.decode(returnData, (address)) == address(this), \"NFT not transferred to smart contract\");\n\n        // Evaluate the value of nft\n        uint256 credit_limit = 1000;\n\n        return credit_limit;\n    }\n\n    function evaluateCoinStake()\n        private\n        view\n        returns (uint256, uint256)\n    {\n        // Evaluate the value of nft\n        uint256 credit_limit = msg.value;\n        uint256 APR = 20;\n\n        return (credit_limit, APR);\n    }\n\n    function lockStake()\n    private\n    {\n        // put asset in escrow\n    }\n\n    function updateGateState() \n    inGates\n    public{\n        free_gates.push(gate_ids[msg.sender]);\n    }\n\n    receive() external payable {\n    }\n    fallback() external payable {\n    }\n\n    \n\n    \n}",
  "sourcePath": "contracts/Swip3.sol",
  "type": "contract"
}