{
  "abi": [
    {
      "inputs": [
        {
          "internalType": "uint256",
          "name": "_expiration_date",
          "type": "uint256"
        },
        {
          "internalType": "address",
          "name": "_smart_contract",
          "type": "address"
        },
        {
          "internalType": "address",
          "name": "_user",
          "type": "address"
        },
        {
          "internalType": "uint256",
          "name": "_credit_limit",
          "type": "uint256"
        },
        {
          "internalType": "uint256",
          "name": "_APR",
          "type": "uint256"
        }
      ],
      "stateMutability": "nonpayable",
      "type": "constructor"
    },
    {
      "inputs": [],
      "name": "Expired",
      "type": "error"
    },
    {
      "anonymous": false,
      "inputs": [],
      "name": "ContractTerminated",
      "type": "event"
    },
    {
      "anonymous": false,
      "inputs": [
        {
          "indexed": false,
          "internalType": "string",
          "name": "message",
          "type": "string"
        }
      ],
      "name": "Swip3CustomerMessage",
      "type": "event"
    },
    {
      "stateMutability": "payable",
      "type": "fallback"
    },
    {
      "inputs": [],
      "name": "acceptPayment",
      "outputs": [],
      "stateMutability": "payable",
      "type": "function"
    },
    {
      "inputs": [
        {
          "internalType": "address",
          "name": "_lending_poolGate",
          "type": "address"
        },
        {
          "internalType": "uint256",
          "name": "_lending_poolID",
          "type": "uint256"
        }
      ],
      "name": "activate",
      "outputs": [],
      "stateMutability": "nonpayable",
      "type": "function"
    },
    {
      "inputs": [],
      "name": "availableCredit",
      "outputs": [
        {
          "internalType": "uint256",
          "name": "",
          "type": "uint256"
        }
      ],
      "stateMutability": "view",
      "type": "function"
    },
    {
      "inputs": [],
      "name": "checkStatus",
      "outputs": [],
      "stateMutability": "nonpayable",
      "type": "function"
    },
    {
      "inputs": [],
      "name": "expiration_date",
      "outputs": [
        {
          "internalType": "uint256",
          "name": "",
          "type": "uint256"
        }
      ],
      "stateMutability": "view",
      "type": "function"
    },
    {
      "inputs": [
        {
          "internalType": "address",
          "name": "reciever_address",
          "type": "address"
        },
        {
          "internalType": "uint256",
          "name": "amount",
          "type": "uint256"
        }
      ],
      "name": "requestPayment",
      "outputs": [
        {
          "internalType": "bool",
          "name": "",
          "type": "bool"
        }
      ],
      "stateMutability": "nonpayable",
      "type": "function"
    },
    {
      "inputs": [],
      "name": "state",
      "outputs": [
        {
          "internalType": "enum Swip3Customer.State",
          "name": "",
          "type": "uint8"
        }
      ],
      "stateMutability": "view",
      "type": "function"
    },
    {
      "inputs": [],
      "name": "terminate",
      "outputs": [],
      "stateMutability": "nonpayable",
      "type": "function"
    },
    {
      "inputs": [],
      "name": "updateCredit",
      "outputs": [],
      "stateMutability": "nonpayable",
      "type": "function"
    },
    {
      "inputs": [],
      "name": "updateExpiration",
      "outputs": [],
      "stateMutability": "nonpayable",
      "type": "function"
    },
    {
      "inputs": [],
      "name": "withdrawOverPayed",
      "outputs": [],
      "stateMutability": "nonpayable",
      "type": "function"
    },
    {
      "stateMutability": "payable",
      "type": "receive"
    }
  ],
  "bytecode": "608060405234801561001057600080fd5b50604051610c11380380610c1183398101604081905261002f9161010f565b7fa224651db1c118154a1c45f82025442a97acadb5db9e887d7098aa23e98fa10d60405161008e906020808252601c908201527f41206368696c64206a757374206f70656e656420697473206579657300000000604082015260600190565b60405180910390a1600080546001600160a01b039485166001600160a01b031991821617909155600180549590941694169390931782556002939093556005805460ff19908116909155600693909355600a91909155600c805490921617905561015e565b80516001600160a01b038116811461010a57600080fd5b919050565b600080600080600060a0868803121561012757600080fd5b85519450610137602087016100f3565b9350610145604087016100f3565b6060870151608090970151959894975095949392505050565b610aa48061016d6000396000f3fe60806040526004361061009a5760003560e01c80639f0c592e116100615780639f0c592e14610117578063a6601f2e14610147578063ae0aba8c1461015c578063c19d93fb14610164578063ca11be691461018b578063d12abd8a1461010257005b806307cc692f146100a35780630c08bf88146100cb5780633b7104f2146100e057806378706079146100ec578063804d6b381461010257005b366100a157005b005b3480156100af57600080fd5b506100b86101ab565b6040519081526020015b60405180910390f35b3480156100d757600080fd5b506100a16101c9565b3480156100a157600080fd5b3480156100f857600080fd5b506100b860025481565b34801561010e57600080fd5b506100a16103a6565b34801561012357600080fd5b5061013761013236600461092f565b610459565b60405190151581526020016100c2565b34801561015357600080fd5b506100a1610611565b6100a16106dd565b34801561017057600080fd5b5060055461017e9060ff1681565b6040516100c2919061097d565b34801561019757600080fd5b506100a16101a636600461092f565b6107a1565b60006101c460075460065461088e90919063ffffffff16565b905090565b6000546001600160a01b03163314806101ec57506001546001600160a01b031633145b6102115760405162461bcd60e51b8152600401610208906109a5565b60405180910390fd5b600160055460ff16600381111561022a5761022a610967565b1480610237575060025442115b1561026957600580546001919060ff191682805b0217905550604051630407b05b60e31b815260040160405180910390fd5b600260055460ff16600381111561028257610282610967565b1461029f5760405162461bcd60e51b8152600401610208906109d0565b600754156103035760405162461bcd60e51b815260206004820152602b60248201527f42616c616e6365206d7573742062652030206265666f7265207465726d69616e60448201526a1d1a5b99c818481919585b60aa1b6064820152608401610208565b600b541561036c5760405162461bcd60e51b815260206004820152603060248201527f546865726520697320756e77697468647261776d206d6f6e65792e205769746860448201526f6472617720796f7572206d6f6e65792160801b6064820152608401610208565b6005805460ff191660031790556040517f6d0d90585834980bd0e5603341ff50b06349c11e0bf9241d03f6d065f12a262b90600090a1565b565b6000546001600160a01b03163314806103c957506001546001600160a01b031633145b6103e55760405162461bcd60e51b8152600401610208906109a5565b600160055460ff1660038111156103fe576103fe610967565b148061040b575060025442115b1561042357600580546001919060ff1916828061024b565b600260055460ff16600381111561043c5761043c610967565b146103a45760405162461bcd60e51b8152600401610208906109d0565b600080546001600160a01b031633148061047d57506001546001600160a01b031633145b6104995760405162461bcd60e51b8152600401610208906109a5565b600160055460ff1660038111156104b2576104b2610967565b14806104bf575060025442115b156104d757600580546001919060ff1916828061024b565b600260055460ff1660038111156104f0576104f0610967565b1461050d5760405162461bcd60e51b8152600401610208906109d0565b6105156101ab565b82111561056f5760405162461bcd60e51b815260206004820152602260248201527f4e6f20617661696c61626c652063726564697420666f722074686973206379636044820152616c6560f01b6064820152608401610208565b6003546004805460405163bc134ae360e01b8152918201526001600160a01b03858116602483015260448201859052600092169063bc134ae3906064016020604051808303816000875af11580156105cb573d6000803e3d6000fd5b505050506040513d601f19601f820116820180604052508101906105ef9190610a07565b905080156106085760075461060490846108df565b6007555b90505b92915050565b6000546001600160a01b0316331461066b5760405162461bcd60e51b815260206004820181905260248201527f4f6e6c7920757365722063616e206163636573732074686973206d6574686f646044820152606401610208565b600260055460ff16600381111561068457610684610967565b146106a15760405162461bcd60e51b8152600401610208906109d0565b600b80546000918290556040519091339183156108fc0291849190818181858888f193505050501580156106d9573d6000803e3d6000fd5b5050565b6000546001600160a01b031633146107375760405162461bcd60e51b815260206004820181905260248201527f4f6e6c7920757365722063616e206163636573732074686973206d6574686f646044820152606401610208565b600260055460ff16600381111561075057610750610967565b1461076d5760405162461bcd60e51b8152600401610208906109d0565b60075434111561078f5760075461078590349061088e565b600b556000600755565b60075461079c903461088e565b600755565b6001546001600160a01b031633146108065760405162461bcd60e51b815260206004820152602260248201527f4f6e6c7920706172656e742063616e206163636573732074686973206d6574686044820152611bd960f21b6064820152608401610208565b600380546001600160a01b0319166001600160a01b038416179055600481905560058054600260ff19909116179055604080516020808252601290820152711248185b481b9bddc81858dd1a5d985d195960721b8183015290517fa224651db1c118154a1c45f82025442a97acadb5db9e887d7098aa23e98fa10d9181900360600190a15050565b6000828211156108d55760405162461bcd60e51b815260206004820152601260248201527114dd589cdd1c9858dd1a5bdb8819985a5b1960721b6044820152606401610208565b6106088284610a3f565b60006108eb8284610a56565b90508281101561060b5760405162461bcd60e51b815260206004820152600f60248201526e1059191a5d1a5bdb8819985a5b1959608a1b6044820152606401610208565b6000806040838503121561094257600080fd5b82356001600160a01b038116811461095957600080fd5b946020939093013593505050565b634e487b7160e01b600052602160045260246000fd5b602081016004831061099f57634e487b7160e01b600052602160045260246000fd5b91905290565b6020808252601190820152702ab730baba3437b934bd32b2103ab9b2b960791b604082015260600190565b6020808252601b908201527f436f6e74726163742073746174652069736e2774206163746976650000000000604082015260600190565b600060208284031215610a1957600080fd5b8151801515811461060857600080fd5b634e487b7160e01b600052601160045260246000fd5b600082821015610a5157610a51610a29565b500390565b60008219821115610a6957610a69610a29565b50019056fea264697066735822122049ddffa047dd9f1775b20910c53521b01323d26752c5e1a54702224bfb4110be64736f6c634300080d0033",
  "bytecodeSha1": "0b920fd8f7bb10a2e1be1255a292ef39deefeb51",
  "compiler": {
    "evm_version": "istanbul",
    "optimizer": {
      "enabled": true,
      "runs": 200
    },
    "version": "0.8.13+commit.abaa5c0e"
  },
  "contractName": "Swip3Customer",
  "language": "Solidity",
  "natspec": {
    "author": "Hileamlak Yitayew",
    "details": "Except view function only parent contract and user can access this contract ",
    "errors": {
      "Expired()": [
        {
          "notice": "Contract has expired"
        }
      ]
    },
    "kind": "dev",
    "methods": {
      "activate(address,uint256)": {
        "details": "Activation connects smart contract to its designated lending pool",
        "notice": "A started contract must be activated to start working",
        "params": {
          "_lending_poolGate": "address of lending pool gat"
        }
      }
    },
    "notice": "The terms of this contract will dictate the transfer of credit ",
    "title": "Swip3Customer - an agreement between the swip3 credit service and customer",
    "version": 1
  },
  "opcodes": "PUSH1 0x80 PUSH1 0x40 MSTORE PUSH1 0x4 CALLDATASIZE LT PUSH2 0x9A JUMPI PUSH1 0x0 CALLDATALOAD PUSH1 0xE0 SHR DUP1 PUSH4 0x9F0C592E GT PUSH2 0x61 JUMPI DUP1 PUSH4 0x9F0C592E EQ PUSH2 0x117 JUMPI DUP1 PUSH4 0xA6601F2E EQ PUSH2 0x147 JUMPI DUP1 PUSH4 0xAE0ABA8C EQ PUSH2 0x15C JUMPI DUP1 PUSH4 0xC19D93FB EQ PUSH2 0x164 JUMPI DUP1 PUSH4 0xCA11BE69 EQ PUSH2 0x18B JUMPI DUP1 PUSH4 0xD12ABD8A EQ PUSH2 0x102 JUMPI STOP JUMPDEST DUP1 PUSH4 0x7CC692F EQ PUSH2 0xA3 JUMPI DUP1 PUSH4 0xC08BF88 EQ PUSH2 0xCB JUMPI DUP1 PUSH4 0x3B7104F2 EQ PUSH2 0xE0 JUMPI DUP1 PUSH4 0x78706079 EQ PUSH2 0xEC JUMPI DUP1 PUSH4 0x804D6B38 EQ PUSH2 0x102 JUMPI STOP JUMPDEST CALLDATASIZE PUSH2 0xA1 JUMPI STOP JUMPDEST STOP JUMPDEST CALLVALUE DUP1 ISZERO PUSH2 0xAF JUMPI PUSH1 0x0 DUP1 REVERT JUMPDEST POP PUSH2 0xB8 PUSH2 0x1AB JUMP JUMPDEST PUSH1 0x40 MLOAD SWAP1 DUP2 MSTORE PUSH1 0x20 ADD JUMPDEST PUSH1 0x40 MLOAD DUP1 SWAP2 SUB SWAP1 RETURN JUMPDEST CALLVALUE DUP1 ISZERO PUSH2 0xD7 JUMPI PUSH1 0x0 DUP1 REVERT JUMPDEST POP PUSH2 0xA1 PUSH2 0x1C9 JUMP JUMPDEST CALLVALUE DUP1 ISZERO PUSH2 0xA1 JUMPI PUSH1 0x0 DUP1 REVERT JUMPDEST CALLVALUE DUP1 ISZERO PUSH2 0xF8 JUMPI PUSH1 0x0 DUP1 REVERT JUMPDEST POP PUSH2 0xB8 PUSH1 0x2 SLOAD DUP2 JUMP JUMPDEST CALLVALUE DUP1 ISZERO PUSH2 0x10E JUMPI PUSH1 0x0 DUP1 REVERT JUMPDEST POP PUSH2 0xA1 PUSH2 0x3A6 JUMP JUMPDEST CALLVALUE DUP1 ISZERO PUSH2 0x123 JUMPI PUSH1 0x0 DUP1 REVERT JUMPDEST POP PUSH2 0x137 PUSH2 0x132 CALLDATASIZE PUSH1 0x4 PUSH2 0x92F JUMP JUMPDEST PUSH2 0x459 JUMP JUMPDEST PUSH1 0x40 MLOAD SWAP1 ISZERO ISZERO DUP2 MSTORE PUSH1 0x20 ADD PUSH2 0xC2 JUMP JUMPDEST CALLVALUE DUP1 ISZERO PUSH2 0x153 JUMPI PUSH1 0x0 DUP1 REVERT JUMPDEST POP PUSH2 0xA1 PUSH2 0x611 JUMP JUMPDEST PUSH2 0xA1 PUSH2 0x6DD JUMP JUMPDEST CALLVALUE DUP1 ISZERO PUSH2 0x170 JUMPI PUSH1 0x0 DUP1 REVERT JUMPDEST POP PUSH1 0x5 SLOAD PUSH2 0x17E SWAP1 PUSH1 0xFF AND DUP2 JUMP JUMPDEST PUSH1 0x40 MLOAD PUSH2 0xC2 SWAP2 SWAP1 PUSH2 0x97D JUMP JUMPDEST CALLVALUE DUP1 ISZERO PUSH2 0x197 JUMPI PUSH1 0x0 DUP1 REVERT JUMPDEST POP PUSH2 0xA1 PUSH2 0x1A6 CALLDATASIZE PUSH1 0x4 PUSH2 0x92F JUMP JUMPDEST PUSH2 0x7A1 JUMP JUMPDEST PUSH1 0x0 PUSH2 0x1C4 PUSH1 0x7 SLOAD PUSH1 0x6 SLOAD PUSH2 0x88E SWAP1 SWAP2 SWAP1 PUSH4 0xFFFFFFFF AND JUMP JUMPDEST SWAP1 POP SWAP1 JUMP JUMPDEST PUSH1 0x0 SLOAD PUSH1 0x1 PUSH1 0x1 PUSH1 0xA0 SHL SUB AND CALLER EQ DUP1 PUSH2 0x1EC JUMPI POP PUSH1 0x1 SLOAD PUSH1 0x1 PUSH1 0x1 PUSH1 0xA0 SHL SUB AND CALLER EQ JUMPDEST PUSH2 0x211 JUMPI PUSH1 0x40 MLOAD PUSH3 0x461BCD PUSH1 0xE5 SHL DUP2 MSTORE PUSH1 0x4 ADD PUSH2 0x208 SWAP1 PUSH2 0x9A5 JUMP JUMPDEST PUSH1 0x40 MLOAD DUP1 SWAP2 SUB SWAP1 REVERT JUMPDEST PUSH1 0x1 PUSH1 0x5 SLOAD PUSH1 0xFF AND PUSH1 0x3 DUP2 GT ISZERO PUSH2 0x22A JUMPI PUSH2 0x22A PUSH2 0x967 JUMP JUMPDEST EQ DUP1 PUSH2 0x237 JUMPI POP PUSH1 0x2 SLOAD TIMESTAMP GT JUMPDEST ISZERO PUSH2 0x269 JUMPI PUSH1 0x5 DUP1 SLOAD PUSH1 0x1 SWAP2 SWAP1 PUSH1 0xFF NOT AND DUP3 DUP1 JUMPDEST MUL OR SWAP1 SSTORE POP PUSH1 0x40 MLOAD PUSH4 0x407B05B PUSH1 0xE3 SHL DUP2 MSTORE PUSH1 0x4 ADD PUSH1 0x40 MLOAD DUP1 SWAP2 SUB SWAP1 REVERT JUMPDEST PUSH1 0x2 PUSH1 0x5 SLOAD PUSH1 0xFF AND PUSH1 0x3 DUP2 GT ISZERO PUSH2 0x282 JUMPI PUSH2 0x282 PUSH2 0x967 JUMP JUMPDEST EQ PUSH2 0x29F JUMPI PUSH1 0x40 MLOAD PUSH3 0x461BCD PUSH1 0xE5 SHL DUP2 MSTORE PUSH1 0x4 ADD PUSH2 0x208 SWAP1 PUSH2 0x9D0 JUMP JUMPDEST PUSH1 0x7 SLOAD ISZERO PUSH2 0x303 JUMPI PUSH1 0x40 MLOAD PUSH3 0x461BCD PUSH1 0xE5 SHL DUP2 MSTORE PUSH1 0x20 PUSH1 0x4 DUP3 ADD MSTORE PUSH1 0x2B PUSH1 0x24 DUP3 ADD MSTORE PUSH32 0x42616C616E6365206D7573742062652030206265666F7265207465726D69616E PUSH1 0x44 DUP3 ADD MSTORE PUSH11 0x1D1A5B99C818481919585B PUSH1 0xAA SHL PUSH1 0x64 DUP3 ADD MSTORE PUSH1 0x84 ADD PUSH2 0x208 JUMP JUMPDEST PUSH1 0xB SLOAD ISZERO PUSH2 0x36C JUMPI PUSH1 0x40 MLOAD PUSH3 0x461BCD PUSH1 0xE5 SHL DUP2 MSTORE PUSH1 0x20 PUSH1 0x4 DUP3 ADD MSTORE PUSH1 0x30 PUSH1 0x24 DUP3 ADD MSTORE PUSH32 0x546865726520697320756E77697468647261776D206D6F6E65792E2057697468 PUSH1 0x44 DUP3 ADD MSTORE PUSH16 0x6472617720796F7572206D6F6E657921 PUSH1 0x80 SHL PUSH1 0x64 DUP3 ADD MSTORE PUSH1 0x84 ADD PUSH2 0x208 JUMP JUMPDEST PUSH1 0x5 DUP1 SLOAD PUSH1 0xFF NOT AND PUSH1 0x3 OR SWAP1 SSTORE PUSH1 0x40 MLOAD PUSH32 0x6D0D90585834980BD0E5603341FF50B06349C11E0BF9241D03F6D065F12A262B SWAP1 PUSH1 0x0 SWAP1 LOG1 JUMP JUMPDEST JUMP JUMPDEST PUSH1 0x0 SLOAD PUSH1 0x1 PUSH1 0x1 PUSH1 0xA0 SHL SUB AND CALLER EQ DUP1 PUSH2 0x3C9 JUMPI POP PUSH1 0x1 SLOAD PUSH1 0x1 PUSH1 0x1 PUSH1 0xA0 SHL SUB AND CALLER EQ JUMPDEST PUSH2 0x3E5 JUMPI PUSH1 0x40 MLOAD PUSH3 0x461BCD PUSH1 0xE5 SHL DUP2 MSTORE PUSH1 0x4 ADD PUSH2 0x208 SWAP1 PUSH2 0x9A5 JUMP JUMPDEST PUSH1 0x1 PUSH1 0x5 SLOAD PUSH1 0xFF AND PUSH1 0x3 DUP2 GT ISZERO PUSH2 0x3FE JUMPI PUSH2 0x3FE PUSH2 0x967 JUMP JUMPDEST EQ DUP1 PUSH2 0x40B JUMPI POP PUSH1 0x2 SLOAD TIMESTAMP GT JUMPDEST ISZERO PUSH2 0x423 JUMPI PUSH1 0x5 DUP1 SLOAD PUSH1 0x1 SWAP2 SWAP1 PUSH1 0xFF NOT AND DUP3 DUP1 PUSH2 0x24B JUMP JUMPDEST PUSH1 0x2 PUSH1 0x5 SLOAD PUSH1 0xFF AND PUSH1 0x3 DUP2 GT ISZERO PUSH2 0x43C JUMPI PUSH2 0x43C PUSH2 0x967 JUMP JUMPDEST EQ PUSH2 0x3A4 JUMPI PUSH1 0x40 MLOAD PUSH3 0x461BCD PUSH1 0xE5 SHL DUP2 MSTORE PUSH1 0x4 ADD PUSH2 0x208 SWAP1 PUSH2 0x9D0 JUMP JUMPDEST PUSH1 0x0 DUP1 SLOAD PUSH1 0x1 PUSH1 0x1 PUSH1 0xA0 SHL SUB AND CALLER EQ DUP1 PUSH2 0x47D JUMPI POP PUSH1 0x1 SLOAD PUSH1 0x1 PUSH1 0x1 PUSH1 0xA0 SHL SUB AND CALLER EQ JUMPDEST PUSH2 0x499 JUMPI PUSH1 0x40 MLOAD PUSH3 0x461BCD PUSH1 0xE5 SHL DUP2 MSTORE PUSH1 0x4 ADD PUSH2 0x208 SWAP1 PUSH2 0x9A5 JUMP JUMPDEST PUSH1 0x1 PUSH1 0x5 SLOAD PUSH1 0xFF AND PUSH1 0x3 DUP2 GT ISZERO PUSH2 0x4B2 JUMPI PUSH2 0x4B2 PUSH2 0x967 JUMP JUMPDEST EQ DUP1 PUSH2 0x4BF JUMPI POP PUSH1 0x2 SLOAD TIMESTAMP GT JUMPDEST ISZERO PUSH2 0x4D7 JUMPI PUSH1 0x5 DUP1 SLOAD PUSH1 0x1 SWAP2 SWAP1 PUSH1 0xFF NOT AND DUP3 DUP1 PUSH2 0x24B JUMP JUMPDEST PUSH1 0x2 PUSH1 0x5 SLOAD PUSH1 0xFF AND PUSH1 0x3 DUP2 GT ISZERO PUSH2 0x4F0 JUMPI PUSH2 0x4F0 PUSH2 0x967 JUMP JUMPDEST EQ PUSH2 0x50D JUMPI PUSH1 0x40 MLOAD PUSH3 0x461BCD PUSH1 0xE5 SHL DUP2 MSTORE PUSH1 0x4 ADD PUSH2 0x208 SWAP1 PUSH2 0x9D0 JUMP JUMPDEST PUSH2 0x515 PUSH2 0x1AB JUMP JUMPDEST DUP3 GT ISZERO PUSH2 0x56F JUMPI PUSH1 0x40 MLOAD PUSH3 0x461BCD PUSH1 0xE5 SHL DUP2 MSTORE PUSH1 0x20 PUSH1 0x4 DUP3 ADD MSTORE PUSH1 0x22 PUSH1 0x24 DUP3 ADD MSTORE PUSH32 0x4E6F20617661696C61626C652063726564697420666F72207468697320637963 PUSH1 0x44 DUP3 ADD MSTORE PUSH2 0x6C65 PUSH1 0xF0 SHL PUSH1 0x64 DUP3 ADD MSTORE PUSH1 0x84 ADD PUSH2 0x208 JUMP JUMPDEST PUSH1 0x3 SLOAD PUSH1 0x4 DUP1 SLOAD PUSH1 0x40 MLOAD PUSH4 0xBC134AE3 PUSH1 0xE0 SHL DUP2 MSTORE SWAP2 DUP3 ADD MSTORE PUSH1 0x1 PUSH1 0x1 PUSH1 0xA0 SHL SUB DUP6 DUP2 AND PUSH1 0x24 DUP4 ADD MSTORE PUSH1 0x44 DUP3 ADD DUP6 SWAP1 MSTORE PUSH1 0x0 SWAP3 AND SWAP1 PUSH4 0xBC134AE3 SWAP1 PUSH1 0x64 ADD PUSH1 0x20 PUSH1 0x40 MLOAD DUP1 DUP4 SUB DUP2 PUSH1 0x0 DUP8 GAS CALL ISZERO DUP1 ISZERO PUSH2 0x5CB JUMPI RETURNDATASIZE PUSH1 0x0 DUP1 RETURNDATACOPY RETURNDATASIZE PUSH1 0x0 REVERT JUMPDEST POP POP POP POP PUSH1 0x40 MLOAD RETURNDATASIZE PUSH1 0x1F NOT PUSH1 0x1F DUP3 ADD AND DUP3 ADD DUP1 PUSH1 0x40 MSTORE POP DUP2 ADD SWAP1 PUSH2 0x5EF SWAP2 SWAP1 PUSH2 0xA07 JUMP JUMPDEST SWAP1 POP DUP1 ISZERO PUSH2 0x608 JUMPI PUSH1 0x7 SLOAD PUSH2 0x604 SWAP1 DUP5 PUSH2 0x8DF JUMP JUMPDEST PUSH1 0x7 SSTORE JUMPDEST SWAP1 POP JUMPDEST SWAP3 SWAP2 POP POP JUMP JUMPDEST PUSH1 0x0 SLOAD PUSH1 0x1 PUSH1 0x1 PUSH1 0xA0 SHL SUB AND CALLER EQ PUSH2 0x66B JUMPI PUSH1 0x40 MLOAD PUSH3 0x461BCD PUSH1 0xE5 SHL DUP2 MSTORE PUSH1 0x20 PUSH1 0x4 DUP3 ADD DUP2 SWAP1 MSTORE PUSH1 0x24 DUP3 ADD MSTORE PUSH32 0x4F6E6C7920757365722063616E206163636573732074686973206D6574686F64 PUSH1 0x44 DUP3 ADD MSTORE PUSH1 0x64 ADD PUSH2 0x208 JUMP JUMPDEST PUSH1 0x2 PUSH1 0x5 SLOAD PUSH1 0xFF AND PUSH1 0x3 DUP2 GT ISZERO PUSH2 0x684 JUMPI PUSH2 0x684 PUSH2 0x967 JUMP JUMPDEST EQ PUSH2 0x6A1 JUMPI PUSH1 0x40 MLOAD PUSH3 0x461BCD PUSH1 0xE5 SHL DUP2 MSTORE PUSH1 0x4 ADD PUSH2 0x208 SWAP1 PUSH2 0x9D0 JUMP JUMPDEST PUSH1 0xB DUP1 SLOAD PUSH1 0x0 SWAP2 DUP3 SWAP1 SSTORE PUSH1 0x40 MLOAD SWAP1 SWAP2 CALLER SWAP2 DUP4 ISZERO PUSH2 0x8FC MUL SWAP2 DUP5 SWAP2 SWAP1 DUP2 DUP2 DUP2 DUP6 DUP9 DUP9 CALL SWAP4 POP POP POP POP ISZERO DUP1 ISZERO PUSH2 0x6D9 JUMPI RETURNDATASIZE PUSH1 0x0 DUP1 RETURNDATACOPY RETURNDATASIZE PUSH1 0x0 REVERT JUMPDEST POP POP JUMP JUMPDEST PUSH1 0x0 SLOAD PUSH1 0x1 PUSH1 0x1 PUSH1 0xA0 SHL SUB AND CALLER EQ PUSH2 0x737 JUMPI PUSH1 0x40 MLOAD PUSH3 0x461BCD PUSH1 0xE5 SHL DUP2 MSTORE PUSH1 0x20 PUSH1 0x4 DUP3 ADD DUP2 SWAP1 MSTORE PUSH1 0x24 DUP3 ADD MSTORE PUSH32 0x4F6E6C7920757365722063616E206163636573732074686973206D6574686F64 PUSH1 0x44 DUP3 ADD MSTORE PUSH1 0x64 ADD PUSH2 0x208 JUMP JUMPDEST PUSH1 0x2 PUSH1 0x5 SLOAD PUSH1 0xFF AND PUSH1 0x3 DUP2 GT ISZERO PUSH2 0x750 JUMPI PUSH2 0x750 PUSH2 0x967 JUMP JUMPDEST EQ PUSH2 0x76D JUMPI PUSH1 0x40 MLOAD PUSH3 0x461BCD PUSH1 0xE5 SHL DUP2 MSTORE PUSH1 0x4 ADD PUSH2 0x208 SWAP1 PUSH2 0x9D0 JUMP JUMPDEST PUSH1 0x7 SLOAD CALLVALUE GT ISZERO PUSH2 0x78F JUMPI PUSH1 0x7 SLOAD PUSH2 0x785 SWAP1 CALLVALUE SWAP1 PUSH2 0x88E JUMP JUMPDEST PUSH1 0xB SSTORE PUSH1 0x0 PUSH1 0x7 SSTORE JUMP JUMPDEST PUSH1 0x7 SLOAD PUSH2 0x79C SWAP1 CALLVALUE PUSH2 0x88E JUMP JUMPDEST PUSH1 0x7 SSTORE JUMP JUMPDEST PUSH1 0x1 SLOAD PUSH1 0x1 PUSH1 0x1 PUSH1 0xA0 SHL SUB AND CALLER EQ PUSH2 0x806 JUMPI PUSH1 0x40 MLOAD PUSH3 0x461BCD PUSH1 0xE5 SHL DUP2 MSTORE PUSH1 0x20 PUSH1 0x4 DUP3 ADD MSTORE PUSH1 0x22 PUSH1 0x24 DUP3 ADD MSTORE PUSH32 0x4F6E6C7920706172656E742063616E206163636573732074686973206D657468 PUSH1 0x44 DUP3 ADD MSTORE PUSH2 0x1BD9 PUSH1 0xF2 SHL PUSH1 0x64 DUP3 ADD MSTORE PUSH1 0x84 ADD PUSH2 0x208 JUMP JUMPDEST PUSH1 0x3 DUP1 SLOAD PUSH1 0x1 PUSH1 0x1 PUSH1 0xA0 SHL SUB NOT AND PUSH1 0x1 PUSH1 0x1 PUSH1 0xA0 SHL SUB DUP5 AND OR SWAP1 SSTORE PUSH1 0x4 DUP2 SWAP1 SSTORE PUSH1 0x5 DUP1 SLOAD PUSH1 0x2 PUSH1 0xFF NOT SWAP1 SWAP2 AND OR SWAP1 SSTORE PUSH1 0x40 DUP1 MLOAD PUSH1 0x20 DUP1 DUP3 MSTORE PUSH1 0x12 SWAP1 DUP3 ADD MSTORE PUSH18 0x1248185B481B9BDDC81858DD1A5D985D1959 PUSH1 0x72 SHL DUP2 DUP4 ADD MSTORE SWAP1 MLOAD PUSH32 0xA224651DB1C118154A1C45F82025442A97ACADB5DB9E887D7098AA23E98FA10D SWAP2 DUP2 SWAP1 SUB PUSH1 0x60 ADD SWAP1 LOG1 POP POP JUMP JUMPDEST PUSH1 0x0 DUP3 DUP3 GT ISZERO PUSH2 0x8D5 JUMPI PUSH1 0x40 MLOAD PUSH3 0x461BCD PUSH1 0xE5 SHL DUP2 MSTORE PUSH1 0x20 PUSH1 0x4 DUP3 ADD MSTORE PUSH1 0x12 PUSH1 0x24 DUP3 ADD MSTORE PUSH18 0x14DD589CDD1C9858DD1A5BDB8819985A5B19 PUSH1 0x72 SHL PUSH1 0x44 DUP3 ADD MSTORE PUSH1 0x64 ADD PUSH2 0x208 JUMP JUMPDEST PUSH2 0x608 DUP3 DUP5 PUSH2 0xA3F JUMP JUMPDEST PUSH1 0x0 PUSH2 0x8EB DUP3 DUP5 PUSH2 0xA56 JUMP JUMPDEST SWAP1 POP DUP3 DUP2 LT ISZERO PUSH2 0x60B JUMPI PUSH1 0x40 MLOAD PUSH3 0x461BCD PUSH1 0xE5 SHL DUP2 MSTORE PUSH1 0x20 PUSH1 0x4 DUP3 ADD MSTORE PUSH1 0xF PUSH1 0x24 DUP3 ADD MSTORE PUSH15 0x1059191A5D1A5BDB8819985A5B1959 PUSH1 0x8A SHL PUSH1 0x44 DUP3 ADD MSTORE PUSH1 0x64 ADD PUSH2 0x208 JUMP JUMPDEST PUSH1 0x0 DUP1 PUSH1 0x40 DUP4 DUP6 SUB SLT ISZERO PUSH2 0x942 JUMPI PUSH1 0x0 DUP1 REVERT JUMPDEST DUP3 CALLDATALOAD PUSH1 0x1 PUSH1 0x1 PUSH1 0xA0 SHL SUB DUP2 AND DUP2 EQ PUSH2 0x959 JUMPI PUSH1 0x0 DUP1 REVERT JUMPDEST SWAP5 PUSH1 0x20 SWAP4 SWAP1 SWAP4 ADD CALLDATALOAD SWAP4 POP POP POP JUMP JUMPDEST PUSH4 0x4E487B71 PUSH1 0xE0 SHL PUSH1 0x0 MSTORE PUSH1 0x21 PUSH1 0x4 MSTORE PUSH1 0x24 PUSH1 0x0 REVERT JUMPDEST PUSH1 0x20 DUP2 ADD PUSH1 0x4 DUP4 LT PUSH2 0x99F JUMPI PUSH4 0x4E487B71 PUSH1 0xE0 SHL PUSH1 0x0 MSTORE PUSH1 0x21 PUSH1 0x4 MSTORE PUSH1 0x24 PUSH1 0x0 REVERT JUMPDEST SWAP2 SWAP1 MSTORE SWAP1 JUMP JUMPDEST PUSH1 0x20 DUP1 DUP3 MSTORE PUSH1 0x11 SWAP1 DUP3 ADD MSTORE PUSH17 0x2AB730BABA3437B934BD32B2103AB9B2B9 PUSH1 0x79 SHL PUSH1 0x40 DUP3 ADD MSTORE PUSH1 0x60 ADD SWAP1 JUMP JUMPDEST PUSH1 0x20 DUP1 DUP3 MSTORE PUSH1 0x1B SWAP1 DUP3 ADD MSTORE PUSH32 0x436F6E74726163742073746174652069736E2774206163746976650000000000 PUSH1 0x40 DUP3 ADD MSTORE PUSH1 0x60 ADD SWAP1 JUMP JUMPDEST PUSH1 0x0 PUSH1 0x20 DUP3 DUP5 SUB SLT ISZERO PUSH2 0xA19 JUMPI PUSH1 0x0 DUP1 REVERT JUMPDEST DUP2 MLOAD DUP1 ISZERO ISZERO DUP2 EQ PUSH2 0x608 JUMPI PUSH1 0x0 DUP1 REVERT JUMPDEST PUSH4 0x4E487B71 PUSH1 0xE0 SHL PUSH1 0x0 MSTORE PUSH1 0x11 PUSH1 0x4 MSTORE PUSH1 0x24 PUSH1 0x0 REVERT JUMPDEST PUSH1 0x0 DUP3 DUP3 LT ISZERO PUSH2 0xA51 JUMPI PUSH2 0xA51 PUSH2 0xA29 JUMP JUMPDEST POP SUB SWAP1 JUMP JUMPDEST PUSH1 0x0 DUP3 NOT DUP3 GT ISZERO PUSH2 0xA69 JUMPI PUSH2 0xA69 PUSH2 0xA29 JUMP JUMPDEST POP ADD SWAP1 JUMP INVALID LOG2 PUSH5 0x6970667358 0x22 SLT KECCAK256 0x49 0xDD SELFDESTRUCT LOG0 SELFBALANCE 0xDD SWAP16 OR PUSH22 0xB20910C53521B01323D26752C5E1A54702224BFB4110 0xBE PUSH5 0x736F6C6343 STOP ADDMOD 0xD STOP CALLER ",
  "sha1": "3a90bdf2842338b4291907cab32c7714e17afac4",
  "source": "pragma solidity ^0.8.0;\n\n// SPDX-License-Identifier: MIT\n\nimport {SafeMath} from \"./SafeMath.sol\";\nimport {LendingPoolGate} from \"./LendingPoolGate.sol\";\n\n\n/// @title Swip3Customer - an agreement between the swip3 credit service and customer\n/// @author Hileamlak Yitayew\n/// @notice The terms of this contract will dictate the transfer of credit \n/// @dev Except view function only parent contract and user can access this contract \ncontract Swip3Customer {\n\n    using SafeMath for uint256;\n\n    address private user;\n    address private parent_contract;\n    uint public expiration_date;\n    LendingPoolGate lending_poolGate;\n    uint256 private lending_poolID;\n\n    enum State {STARTING, EXPIRED, ACTIVE, TERMINATED}\n    State public state;\n\n    /// Contract has expired\n    error Expired();\n    ///Contract has been terminated\n    event ContractTerminated();\n    event Swip3CustomerMessage(string message);\n    \n\n    // credit realted states\n    uint256 private credit_limit;\n    uint256 private balance;\n    uint256 private other_fees;\n    uint256 private interest_fees;\n    uint256 private APR;\n    uint256 private over_payed;\n    bool private good_standing;\n    uint private last_payed_date;\n    uint private payment_cycle;\n\n\n\n    modifier onlyUser{\n        require(msg.sender == user, \"Only user can access this method\");\n        _;\n    }\n\n     modifier onlyParent{\n        require(msg.sender == parent_contract, \"Only parent can access this method\");\n        _;\n    }\n\n    modifier checkState(){\n        require(state == State.ACTIVE, \"Contract state isn't active\");\n        _;\n    }\n\n    modifier checkAuthorization(){\n        require(msg.sender == user || msg.sender == parent_contract, \"Unauthorized user\");\n        _;\n    }\n\n    modifier checkExpiry(){\n        if(state == State.EXPIRED || block.timestamp > expiration_date){\n            state = State.EXPIRED;\n            revert Expired();\n        }\n        _;\n    }\n\n\n    //CHECKED\n    constructor (uint _expiration_date, address _smart_contract, \n                address _user, uint256 _credit_limit, \n                uint256 _APR)\n            {\n        emit Swip3CustomerMessage(\"A child just opened its eyes\");\n        user = _user;\n        parent_contract = _smart_contract;\n        expiration_date = _expiration_date;\n\n        state = State.STARTING;\n\n        credit_limit = _credit_limit;\n        APR = _APR;\n        good_standing = true;\n    }\n\n\n   \n    /// @notice A started contract must be activated to start working\n    /// @dev Activation connects smart contract to its designated lending pool\n    /// @param _lending_poolGate address of lending pool gat\n    function activate(address _lending_poolGate, uint256 _lending_poolID) \n        public\n        onlyParent\n    {\n\n        lending_poolGate = LendingPoolGate(_lending_poolGate);\n        lending_poolID = _lending_poolID;\n        state = State.ACTIVE;\n        emit Swip3CustomerMessage(\"I am now activated\");\n    }\n  \n   \n    function requestPayment(address reciever_address, uint256 amount) \n        public \n        checkAuthorization \n        checkExpiry\n        checkState\n        returns (bool)\n    {\n   \n        checkStatus();\n        require(amount <= availableCredit(), \"No available credit for this cycle\");\n        bool payed = lending_poolGate.payDapp(lending_poolID, reciever_address, amount);\n        if (payed){\n            balance = balance.add(amount);\n        }\n        return payed;\n    }\n\n    function acceptPayment()\n    onlyUser\n    checkState\n    public\n    payable\n    {\n        if (msg.value > balance){\n            over_payed = msg.value.sub(balance);\n            balance = 0;\n        }\n        else{\n            balance = balance.sub(msg.value);\n        }\n\n    }\n\n    function withdrawOverPayed() \n        onlyUser\n        checkState\n        public\n    {\n        uint256 owed = over_payed;\n        over_payed = 0;\n        payable(msg.sender).transfer(owed);\n\n    }\n\n    function availableCredit() \n        public \n        view\n        returns(uint256)\n    {\n        return credit_limit.sub(balance);\n    }\n\n    function terminate() \n        public\n        checkAuthorization \n        checkExpiry\n        checkState\n    {\n\n        // check credit status and other detials before terminating deal\n        require(balance == 0, \"Balance must be 0 before termianting a deal\");\n        require(over_payed == 0, \"There is unwithdrawm money. Withdraw your money!\");\n        state = State.TERMINATED;\n        // returns escrowed content\n        //  Move any potention money contained in this account into the lending pool gate\n        //  \n        emit ContractTerminated();\n        // Tell parent contract has been deleted\n        // Tell lending pool to forget about it\n        \n\n    }\n\n    function updateCredit() \n        public\n        checkAuthorization \n        checkExpiry\n        checkState{\n        \n    }\n\n    function updateExpiration() \n        public\n        checkAuthorization \n        checkExpiry\n        checkState{\n        \n    }\n\n\n    function calculateInterest() private{\n\n    }\n    function isInGoodStandin() private{\n\n    }\n\n    function checkStatus() public{\n        // \n\n    }\n\n    receive() external payable {\n    }\n    fallback() external payable {\n    }\n\n}",
  "sourcePath": "contracts/Swip3Customer.sol",
  "type": "contract"
}