{
  "abi": [
    {
      "inputs": [],
      "name": "current_block",
      "outputs": [
        {
          "internalType": "uint256",
          "name": "",
          "type": "uint256"
        }
      ],
      "stateMutability": "view",
      "type": "function"
    },
    {
      "inputs": [
        {
          "internalType": "address",
          "name": "balance_of",
          "type": "address"
        }
      ],
      "name": "get_balance",
      "outputs": [
        {
          "internalType": "uint256",
          "name": "",
          "type": "uint256"
        }
      ],
      "stateMutability": "view",
      "type": "function"
    }
  ],
  "bytecode": "608060405234801561001057600080fd5b5060ca8061001f6000396000f3fe6080604052348015600f57600080fd5b506004361060325760003560e01c80631e279a371460375780639e6062fc146061575b600080fd5b604f60423660046066565b6001600160a01b03163190565b60405190815260200160405180910390f35b42604f565b600060208284031215607757600080fd5b81356001600160a01b0381168114608d57600080fd5b939250505056fea26469706673582212200b5fad7d1eb88047ea3dfe6d94ad4408833f357190475d3360f97d9e5a986bae64736f6c634300080d0033",
  "bytecodeSha1": "c460936147561c1342ae01f563c63c2287c78e95",
  "compiler": {
    "evm_version": "istanbul",
    "optimizer": {
      "enabled": true,
      "runs": 200
    },
    "version": "0.8.13+commit.abaa5c0e"
  },
  "contractName": "Test",
  "language": "Solidity",
  "natspec": {
    "kind": "dev",
    "methods": {},
    "version": 1
  },
  "opcodes": "PUSH1 0x80 PUSH1 0x40 MSTORE CALLVALUE DUP1 ISZERO PUSH1 0xF JUMPI PUSH1 0x0 DUP1 REVERT JUMPDEST POP PUSH1 0x4 CALLDATASIZE LT PUSH1 0x32 JUMPI PUSH1 0x0 CALLDATALOAD PUSH1 0xE0 SHR DUP1 PUSH4 0x1E279A37 EQ PUSH1 0x37 JUMPI DUP1 PUSH4 0x9E6062FC EQ PUSH1 0x61 JUMPI JUMPDEST PUSH1 0x0 DUP1 REVERT JUMPDEST PUSH1 0x4F PUSH1 0x42 CALLDATASIZE PUSH1 0x4 PUSH1 0x66 JUMP JUMPDEST PUSH1 0x1 PUSH1 0x1 PUSH1 0xA0 SHL SUB AND BALANCE SWAP1 JUMP JUMPDEST PUSH1 0x40 MLOAD SWAP1 DUP2 MSTORE PUSH1 0x20 ADD PUSH1 0x40 MLOAD DUP1 SWAP2 SUB SWAP1 RETURN JUMPDEST TIMESTAMP PUSH1 0x4F JUMP JUMPDEST PUSH1 0x0 PUSH1 0x20 DUP3 DUP5 SUB SLT ISZERO PUSH1 0x77 JUMPI PUSH1 0x0 DUP1 REVERT JUMPDEST DUP2 CALLDATALOAD PUSH1 0x1 PUSH1 0x1 PUSH1 0xA0 SHL SUB DUP2 AND DUP2 EQ PUSH1 0x8D JUMPI PUSH1 0x0 DUP1 REVERT JUMPDEST SWAP4 SWAP3 POP POP POP JUMP INVALID LOG2 PUSH5 0x6970667358 0x22 SLT KECCAK256 SIGNEXTEND 0x5F 0xAD PUSH30 0x1EB88047EA3DFE6D94AD4408833F357190475D3360F97D9E5A986BAE6473 PUSH16 0x6C634300080D00330000000000000000 ",
  "sha1": "a9fa221aadc9050a50c7cf7d0f46b7e1c9101884",
  "source": "pragma solidity ^0.8.0;\n\ncontract Test{\n\n    function get_balance(address balance_of) view public returns(uint256){\n        return (balance_of.balance);\n    }\n\n    function current_block() view public returns(uint256){\n        return (block.timestamp);\n    }\n}",
  "sourcePath": "contracts/Test.sol",
  "type": "contract"
}