{
	"data": {
		"bytecode": {
			"linkReferences": {},
			"object": "608060405234801561001057600080fd5b50336000806101000a81548173ffffffffffffffffffffffffffffffffffffffff021916908373ffffffffffffffffffffffffffffffffffffffff1602179055506103e8600281905550734a597b8aa6cd150aae24efc5895b6e30510fca19600160006101000a81548173ffffffffffffffffffffffffffffffffffffffff021916908373ffffffffffffffffffffffffffffffffffffffff160217905550614779806100be6000396000f3fe608060405260043610620000615760003560e01c80630a334bfd146200006b578063818579ef146200009b578063c8b5ec1e14620000df578063d59ffccd146200010f578063f9aa9e06146200013f578063fab6cf5914620001755762000069565b366200006957005b005b3480156200007857600080fd5b50620000836200018f565b60405162000092919062001140565b60405180910390f35b348015620000a857600080fd5b50620000c76004803603810190620000c1919062000d89565b62000195565b604051620000d6919062001140565b60405180910390f35b348015620000ec57600080fd5b50620000f7620001ad565b60405162000106919062000ffd565b60405180910390f35b3480156200011c57600080fd5b5062000127620001d3565b6040516200013691906200101a565b60405180910390f35b6200015d600480360381019062000157919062000ded565b620001f7565b6040516200016c919062000ffd565b60405180910390f35b3480156200018257600080fd5b506200018d62000482565b005b60025481565b60056020528060005260406000206000915090505481565b600160009054906101000a900473ffffffffffffffffffffffffffffffffffffffff1681565b60008054906101000a900473ffffffffffffffffffffffffffffffffffffffff1681565b60006001808111156200020f576200020e620013f7565b5b846001811115620002255762000224620013f7565b5b1415620003d75760016002811115620002435762000242620013f7565b5b826000015160028111156200025d576200025c620013f7565b5b1415620003a55760008062000271620005dd565b915091506200027f620005f7565b60006200029962278d0042620005f990919063ffffffff16565b30338585604051620002ab9062000c1a565b620002bb9594939291906200118a565b604051809103906000f080158015620002d8573d6000803e3d6000fd5b509050600080620002e98362000657565b915091508273ffffffffffffffffffffffffffffffffffffffff1663ca11be6983836040518363ffffffff1660e01b81526004016200032a92919062001037565b600060405180830381600087803b1580156200034557600080fd5b505af11580156200035a573d6000803e3d6000fd5b505050507fb758e6c0d2c9aeca50f129afc686c8ae28726e41c3df2af4a0ec5ca15dcc70c5836040516200038f91906200110e565b60405180910390a182955050505050506200047b565b6040517fbbea06c000000000000000000000000000000000000000000000000000000000815260040160405180910390fd5b60006001811115620003ee57620003ed620013f7565b5b846001811115620004045762000403620013f7565b5b141562000449576200041683620009d5565b506040517fbbea06c000000000000000000000000000000000000000000000000000000000815260040160405180910390fd5b6040517fbbea06c000000000000000000000000000000000000000000000000000000000815260040160405180910390fd5b9392505050565b3373ffffffffffffffffffffffffffffffffffffffff166003600560003373ffffffffffffffffffffffffffffffffffffffff1673ffffffffffffffffffffffffffffffffffffffff1681526020019081526020016000205481548110620004ef57620004ee62001455565b5b9060005260206000200160009054906101000a900473ffffffffffffffffffffffffffffffffffffffff1673ffffffffffffffffffffffffffffffffffffffff161462000573576040517f08c379a00000000000000000000000000000000000000000000000000000000081526004016200056a9062001086565b60405180910390fd5b6004600560003373ffffffffffffffffffffffffffffffffffffffff1673ffffffffffffffffffffffffffffffffffffffff168152602001908152602001600020549080600181540180825580915050600190039060005260206000200160009091909190915055565b600080600034905060006014905081819350935050509091565b565b6000818362000609919062001237565b90508281101562000651576040517f08c379a00000000000000000000000000000000000000000000000000000000081526004016200064890620010ec565b60405180910390fd5b92915050565b6000806000600480549050141562000863576000600254600160009054906101000a900473ffffffffffffffffffffffffffffffffffffffff166040516200069f9062000c28565b620006ac9291906200115d565b604051809103906000f080158015620006c9573d6000803e3d6000fd5b5090506003819080600181540180825580915050600190039060005260206000200160009091909190916101000a81548173ffffffffffffffffffffffffffffffffffffffff021916908373ffffffffffffffffffffffffffffffffffffffff1602179055506200074a600160038054905062000bbc90919063ffffffff16565b600560008373ffffffffffffffffffffffffffffffffffffffff1673ffffffffffffffffffffffffffffffffffffffff168152602001908152602001600020819055506004620007aa600160038054905062000bbc90919063ffffffff16565b9080600181540180825580915050600190039060005260206000200160009091909190915055600160009054906101000a900473ffffffffffffffffffffffffffffffffffffffff1673ffffffffffffffffffffffffffffffffffffffff16631e23271d826040518263ffffffff1660e01b81526004016200082d919062000ffd565b600060405180830381600087803b1580156200084857600080fd5b505af11580156200085d573d6000803e3d6000fd5b50505050505b600060048054905014156200087d576200087c62001399565b5b6000600360046200089e600160048054905062000bbc90919063ffffffff16565b81548110620008b257620008b162001455565b5b906000526020600020015481548110620008d157620008d062001455565b5b9060005260206000200160009054906101000a900473ffffffffffffffffffffffffffffffffffffffff1690506000808273ffffffffffffffffffffffffffffffffffffffff1663317549f2876040518263ffffffff1660e01b81526004016200093c919062000ffd565b6040805180830381600087803b1580156200095657600080fd5b505af11580156200096b573d6000803e3d6000fd5b505050506040513d601f19601f8201168201806040525081019062000991919062000e49565b9150915080620009c7576004805480620009b057620009af62001426565b5b600190038181906000526020600020016000905590555b828294509450505050915091565b6000806000836000015173ffffffffffffffffffffffffffffffffffffffff16846020015160405160240162000a0c919062001140565b6040516020818303038152906040527f6352211e000000000000000000000000000000000000000000000000000000007bffffffffffffffffffffffffffffffffffffffffffffffffffffffff19166020820180517bffffffffffffffffffffffffffffffffffffffffffffffffffffffff838183161783525050505060405162000a98919062000fe4565b6000604051808303816000865af19150503d806000811462000ad7576040519150601f19603f3d011682016040523d82523d6000602084013e62000adc565b606091505b50915091508162000b24576040517f08c379a000000000000000000000000000000000000000000000000000000000815260040162000b1b90620010a8565b60405180910390fd5b3073ffffffffffffffffffffffffffffffffffffffff168180602001905181019062000b51919062000dbb565b73ffffffffffffffffffffffffffffffffffffffff161462000baa576040517f08c379a000000000000000000000000000000000000000000000000000000000815260040162000ba19062001064565b60405180910390fd5b60006103e89050809350505050919050565b60008282111562000c04576040517f08c379a000000000000000000000000000000000000000000000000000000000815260040162000bfb90620010ca565b60405180910390fd5b818362000c12919062001294565b905092915050565b611c89806200167583390190565b61144680620032fe83390190565b60008135905062000c4781620015ea565b92915050565b60008151905062000c5e8162001604565b92915050565b60008151905062000c75816200161e565b92915050565b60008135905062000c8c8162001638565b92915050565b60008135905062000ca38162001649565b92915050565b60006040828403121562000cc25762000cc1620014b3565b5b62000cce6040620011e7565b9050600062000ce08482850162000c92565b600083015250602062000cf68482850162000d5b565b60208301525092915050565b60006040828403121562000d1b5762000d1a620014b3565b5b62000d276040620011e7565b9050600062000d398482850162000c36565b600083015250602062000d4f8482850162000d5b565b60208301525092915050565b60008135905062000d6c816200165a565b92915050565b60008151905062000d83816200165a565b92915050565b60006020828403121562000da25762000da1620014b8565b5b600062000db28482850162000c36565b91505092915050565b60006020828403121562000dd45762000dd3620014b8565b5b600062000de48482850162000c4d565b91505092915050565b600080600060a0848603121562000e095762000e08620014b8565b5b600062000e198682870162000c7b565b935050602062000e2c8682870162000d02565b925050606062000e3f8682870162000ca9565b9150509250925092565b6000806040838503121562000e635762000e62620014b8565b5b600062000e738582860162000d72565b925050602062000e868582860162000c64565b9150509250929050565b62000e9b81620012e3565b82525050565b62000eac81620012cf565b82525050565b600062000ebf8262001210565b62000ecb81856200121b565b935062000edd8185602086016200132d565b80840191505092915050565b600062000ef860258362001226565b915062000f0582620014ce565b604082019050919050565b600062000f1f600e8362001226565b915062000f2c826200151d565b602082019050919050565b600062000f46601d8362001226565b915062000f538262001546565b602082019050919050565b600062000f6d60128362001226565b915062000f7a826200156f565b602082019050919050565b600062000f94600f8362001226565b915062000fa18262001598565b602082019050919050565b600062000fbb60188362001226565b915062000fc882620015c1565b602082019050919050565b62000fde8162001323565b82525050565b600062000ff2828462000eb2565b915081905092915050565b600060208201905062001014600083018462000ea1565b92915050565b600060208201905062001031600083018462000e90565b92915050565b60006040820190506200104e600083018562000ea1565b6200105d602083018462000fd3565b9392505050565b600060208201905081810360008301526200107f8162000ee9565b9050919050565b60006020820190508181036000830152620010a18162000f10565b9050919050565b60006020820190508181036000830152620010c38162000f37565b9050919050565b60006020820190508181036000830152620010e58162000f5e565b9050919050565b60006020820190508181036000830152620011078162000f85565b9050919050565b60006040820190508181036000830152620011298162000fac565b90506200113a602083018462000ea1565b92915050565b600060208201905062001157600083018462000fd3565b92915050565b600060408201905062001174600083018562000fd3565b62001183602083018462000ea1565b9392505050565b600060a082019050620011a1600083018862000fd3565b620011b0602083018762000ea1565b620011bf604083018662000ea1565b620011ce606083018562000fd3565b620011dd608083018462000fd3565b9695505050505050565b6000620011f362001206565b905062001201828262001363565b919050565b6000604051905090565b600081519050919050565b600081905092915050565b600082825260208201905092915050565b6000620012448262001323565b9150620012518362001323565b9250827fffffffffffffffffffffffffffffffffffffffffffffffffffffffffffffffff03821115620012895762001288620013c8565b5b828201905092915050565b6000620012a18262001323565b9150620012ae8362001323565b925082821015620012c457620012c3620013c8565b5b828203905092915050565b6000620012dc8262001303565b9050919050565b6000620012f08262001303565b9050919050565b60008115159050919050565b600073ffffffffffffffffffffffffffffffffffffffff82169050919050565b6000819050919050565b60005b838110156200134d57808201518184015260208101905062001330565b838111156200135d576000848401525b50505050565b6200136e82620014bd565b810181811067ffffffffffffffff8211171562001390576200138f62001484565b5b80604052505050565b7f4e487b7100000000000000000000000000000000000000000000000000000000600052600160045260246000fd5b7f4e487b7100000000000000000000000000000000000000000000000000000000600052601160045260246000fd5b7f4e487b7100000000000000000000000000000000000000000000000000000000600052602160045260246000fd5b7f4e487b7100000000000000000000000000000000000000000000000000000000600052603160045260246000fd5b7f4e487b7100000000000000000000000000000000000000000000000000000000600052603260045260246000fd5b7f4e487b7100000000000000000000000000000000000000000000000000000000600052604160045260246000fd5b600080fd5b600080fd5b6000601f19601f8301169050919050565b7f4e4654206e6f74207472616e7366657272656420746f20736d61727420636f6e60008201527f7472616374000000000000000000000000000000000000000000000000000000602082015250565b7f47617465206e6f74206f776e6564000000000000000000000000000000000000600082015250565b7f4e465420636f6e7472616374206861736e277420726573706f6e646564000000600082015250565b7f537562737472616374696f6e206661696c640000000000000000000000000000600082015250565b7f4164646974696f6e206661696c65640000000000000000000000000000000000600082015250565b7f5573657220636f6e747261637420637265617465642061740000000000000000600082015250565b620015f581620012cf565b81146200160157600080fd5b50565b6200160f81620012e3565b81146200161b57600080fd5b50565b6200162981620012f7565b81146200163557600080fd5b50565b600281106200164657600080fd5b50565b600381106200165757600080fd5b50565b620016658162001323565b81146200167157600080fd5b5056fe60806040523480156200001157600080fd5b5060405162001c8938038062001c89833981810160405281019062000037919062000186565b7fa224651db1c118154a1c45f82025442a97acadb5db9e887d7098aa23e98fa10d604051620000669062000235565b60405180910390a1826000806101000a81548173ffffffffffffffffffffffffffffffffffffffff021916908373ffffffffffffffffffffffffffffffffffffffff16021790555083600160006101000a81548173ffffffffffffffffffffffffffffffffffffffff021916908373ffffffffffffffffffffffffffffffffffffffff160217905550846002819055506000600560006101000a81548160ff021916908360038111156200011f576200011e620002a6565b5b02179055508160068190555080600a819055506001600c60006101000a81548160ff021916908315150217905550505050505062000337565b600081519050620001698162000303565b92915050565b60008151905062000180816200031d565b92915050565b600080600080600060a08688031215620001a557620001a4620002d5565b5b6000620001b5888289016200016f565b9550506020620001c88882890162000158565b9450506040620001db8882890162000158565b9350506060620001ee888289016200016f565b925050608062000201888289016200016f565b9150509295509295909350565b60006200021d601c8362000257565b91506200022a82620002da565b602082019050919050565b6000602082019050818103600083015262000250816200020e565b9050919050565b600082825260208201905092915050565b600062000275826200027c565b9050919050565b600073ffffffffffffffffffffffffffffffffffffffff82169050919050565b6000819050919050565b7f4e487b7100000000000000000000000000000000000000000000000000000000600052602160045260246000fd5b600080fd5b7f41206368696c64206a757374206f70656e656420697473206579657300000000600082015250565b6200030e8162000268565b81146200031a57600080fd5b50565b62000328816200029c565b81146200033457600080fd5b50565b61194280620003476000396000f3fe6080604052600436106100a05760003560e01c80639f0c592e116100645780639f0c592e14610144578063a6601f2e14610181578063ae0aba8c14610198578063c19d93fb146101a2578063ca11be69146101cd578063d12abd8a146101f6576100a7565b806307cc692f146100a95780630c08bf88146100d45780633b7104f2146100eb5780637870607914610102578063804d6b381461012d576100a7565b366100a757005b005b3480156100b557600080fd5b506100be61020d565b6040516100cb91906114c4565b60405180910390f35b3480156100e057600080fd5b506100e961022b565b005b3480156100f757600080fd5b5061010061050f565b005b34801561010e57600080fd5b50610117610511565b60405161012491906114c4565b60405180910390f35b34801561013957600080fd5b50610142610517565b005b34801561015057600080fd5b5061016b60048036038101906101669190611147565b61071a565b604051610178919061134e565b60405180910390f35b34801561018d57600080fd5b50610196610a53565b005b6101a0610bb0565b005b3480156101ae57600080fd5b506101b7610d04565b6040516101c49190611369565b60405180910390f35b3480156101d957600080fd5b506101f460048036038101906101ef9190611147565b610d17565b005b34801561020257600080fd5b5061020b610e53565b005b600061022660075460065461105690919063ffffffff16565b905090565b60008054906101000a900473ffffffffffffffffffffffffffffffffffffffff1673ffffffffffffffffffffffffffffffffffffffff163373ffffffffffffffffffffffffffffffffffffffff1614806102d25750600160009054906101000a900473ffffffffffffffffffffffffffffffffffffffff1673ffffffffffffffffffffffffffffffffffffffff163373ffffffffffffffffffffffffffffffffffffffff16145b610311576040517f08c379a0000000000000000000000000000000000000000000000000000000008152600401610308906113a4565b60405180910390fd5b600160038111156103255761032461164d565b5b600560009054906101000a900460ff1660038111156103475761034661164d565b5b1480610354575060025442115b156103b6576001600560006101000a81548160ff0219169083600381111561037f5761037e61164d565b5b02179055506040517f203d82d800000000000000000000000000000000000000000000000000000000815260040160405180910390fd5b600260038111156103ca576103c961164d565b5b600560009054906101000a900460ff1660038111156103ec576103eb61164d565b5b1461042c576040517f08c379a000000000000000000000000000000000000000000000000000000000815260040161042390611384565b60405180910390fd5b600060075414610471576040517f08c379a000000000000000000000000000000000000000000000000000000000815260040161046890611424565b60405180910390fd5b6000600b54146104b6576040517f08c379a00000000000000000000000000000000000000000000000000000000081526004016104ad90611444565b60405180910390fd5b6003600560006101000a81548160ff021916908360038111156104dc576104db61164d565b5b02179055507f6d0d90585834980bd0e5603341ff50b06349c11e0bf9241d03f6d065f12a262b60405160405180910390a1565b565b60025481565b60008054906101000a900473ffffffffffffffffffffffffffffffffffffffff1673ffffffffffffffffffffffffffffffffffffffff163373ffffffffffffffffffffffffffffffffffffffff1614806105be5750600160009054906101000a900473ffffffffffffffffffffffffffffffffffffffff1673ffffffffffffffffffffffffffffffffffffffff163373ffffffffffffffffffffffffffffffffffffffff16145b6105fd576040517f08c379a00000000000000000000000000000000000000000000000000000000081526004016105f4906113a4565b60405180910390fd5b600160038111156106115761061061164d565b5b600560009054906101000a900460ff1660038111156106335761063261164d565b5b1480610640575060025442115b156106a2576001600560006101000a81548160ff0219169083600381111561066b5761066a61164d565b5b02179055506040517f203d82d800000000000000000000000000000000000000000000000000000000815260040160405180910390fd5b600260038111156106b6576106b561164d565b5b600560009054906101000a900460ff1660038111156106d8576106d761164d565b5b14610718576040517f08c379a000000000000000000000000000000000000000000000000000000000815260040161070f90611384565b60405180910390fd5b565b60008060009054906101000a900473ffffffffffffffffffffffffffffffffffffffff1673ffffffffffffffffffffffffffffffffffffffff163373ffffffffffffffffffffffffffffffffffffffff1614806107c45750600160009054906101000a900473ffffffffffffffffffffffffffffffffffffffff1673ffffffffffffffffffffffffffffffffffffffff163373ffffffffffffffffffffffffffffffffffffffff16145b610803576040517f08c379a00000000000000000000000000000000000000000000000000000000081526004016107fa906113a4565b60405180910390fd5b600160038111156108175761081661164d565b5b600560009054906101000a900460ff1660038111156108395761083861164d565b5b1480610846575060025442115b156108a8576001600560006101000a81548160ff021916908360038111156108715761087061164d565b5b02179055506040517f203d82d800000000000000000000000000000000000000000000000000000000815260040160405180910390fd5b600260038111156108bc576108bb61164d565b5b600560009054906101000a900460ff1660038111156108de576108dd61164d565b5b1461091e576040517f08c379a000000000000000000000000000000000000000000000000000000000815260040161091590611384565b60405180910390fd5b61092661050f565b61092e61020d565b821115610970576040517f08c379a0000000000000000000000000000000000000000000000000000000008152600401610967906114a4565b60405180910390fd5b6000600360009054906101000a900473ffffffffffffffffffffffffffffffffffffffff1673ffffffffffffffffffffffffffffffffffffffff1663bc134ae360045486866040518463ffffffff1660e01b81526004016109d3939291906114df565b602060405180830381600087803b1580156109ed57600080fd5b505af1158015610a01573d6000803e3d6000fd5b505050506040513d601f19601f82011682018060405250810190610a259190611187565b90508015610a4957610a42836007546110af90919063ffffffff16565b6007819055505b8091505092915050565b60008054906101000a900473ffffffffffffffffffffffffffffffffffffffff1673ffffffffffffffffffffffffffffffffffffffff163373ffffffffffffffffffffffffffffffffffffffff1614610ae1576040517f08c379a0000000000000000000000000000000000000000000000000000000008152600401610ad890611484565b60405180910390fd5b60026003811115610af557610af461164d565b5b600560009054906101000a900460ff166003811115610b1757610b1661164d565b5b14610b57576040517f08c379a0000000000000000000000000000000000000000000000000000000008152600401610b4e90611384565b60405180910390fd5b6000600b5490506000600b819055503373ffffffffffffffffffffffffffffffffffffffff166108fc829081150290604051600060405180830381858888f19350505050158015610bac573d6000803e3d6000fd5b5050565b60008054906101000a900473ffffffffffffffffffffffffffffffffffffffff1673ffffffffffffffffffffffffffffffffffffffff163373ffffffffffffffffffffffffffffffffffffffff1614610c3e576040517f08c379a0000000000000000000000000000000000000000000000000000000008152600401610c3590611484565b60405180910390fd5b60026003811115610c5257610c5161164d565b5b600560009054906101000a900460ff166003811115610c7457610c7361164d565b5b14610cb4576040517f08c379a0000000000000000000000000000000000000000000000000000000008152600401610cab90611384565b60405180910390fd5b600754341115610ce657610cd36007543461105690919063ffffffff16565b600b819055506000600781905550610d02565b610cfb3460075461105690919063ffffffff16565b6007819055505b565b600560009054906101000a900460ff1681565b600160009054906101000a900473ffffffffffffffffffffffffffffffffffffffff1673ffffffffffffffffffffffffffffffffffffffff163373ffffffffffffffffffffffffffffffffffffffff1614610da7576040517f08c379a0000000000000000000000000000000000000000000000000000000008152600401610d9e906113c4565b60405180910390fd5b81600360006101000a81548173ffffffffffffffffffffffffffffffffffffffff021916908373ffffffffffffffffffffffffffffffffffffffff160217905550806004819055506002600560006101000a81548160ff02191690836003811115610e1557610e1461164d565b5b02179055507fa224651db1c118154a1c45f82025442a97acadb5db9e887d7098aa23e98fa10d604051610e4790611464565b60405180910390a15050565b60008054906101000a900473ffffffffffffffffffffffffffffffffffffffff1673ffffffffffffffffffffffffffffffffffffffff163373ffffffffffffffffffffffffffffffffffffffff161480610efa5750600160009054906101000a900473ffffffffffffffffffffffffffffffffffffffff1673ffffffffffffffffffffffffffffffffffffffff163373ffffffffffffffffffffffffffffffffffffffff16145b610f39576040517f08c379a0000000000000000000000000000000000000000000000000000000008152600401610f30906113a4565b60405180910390fd5b60016003811115610f4d57610f4c61164d565b5b600560009054906101000a900460ff166003811115610f6f57610f6e61164d565b5b1480610f7c575060025442115b15610fde576001600560006101000a81548160ff02191690836003811115610fa757610fa661164d565b5b02179055506040517f203d82d800000000000000000000000000000000000000000000000000000000815260040160405180910390fd5b60026003811115610ff257610ff161164d565b5b600560009054906101000a900460ff1660038111156110145761101361164d565b5b14611054576040517f08c379a000000000000000000000000000000000000000000000000000000000815260040161104b90611384565b60405180910390fd5b565b60008282111561109b576040517f08c379a0000000000000000000000000000000000000000000000000000000008152600401611092906113e4565b60405180910390fd5b81836110a7919061157d565b905092915050565b600081836110bd9190611527565b905082811015611102576040517f08c379a00000000000000000000000000000000000000000000000000000000081526004016110f990611404565b60405180910390fd5b92915050565b600081359050611117816118c7565b92915050565b60008151905061112c816118de565b92915050565b600081359050611141816118f5565b92915050565b6000806040838503121561115e5761115d61167c565b5b600061116c85828601611108565b925050602061117d85828601611132565b9150509250929050565b60006020828403121561119d5761119c61167c565b5b60006111ab8482850161111d565b91505092915050565b6111bd816115b1565b82525050565b6111cc816115c3565b82525050565b6111db8161160c565b82525050565b60006111ee601b83611516565b91506111f982611681565b602082019050919050565b6000611211601183611516565b915061121c826116aa565b602082019050919050565b6000611234602283611516565b915061123f826116d3565b604082019050919050565b6000611257601283611516565b915061126282611722565b602082019050919050565b600061127a600f83611516565b91506112858261174b565b602082019050919050565b600061129d602b83611516565b91506112a882611774565b604082019050919050565b60006112c0603083611516565b91506112cb826117c3565b604082019050919050565b60006112e3601283611516565b91506112ee82611812565b602082019050919050565b6000611306602083611516565b91506113118261183b565b602082019050919050565b6000611329602283611516565b915061133482611864565b604082019050919050565b61134881611602565b82525050565b600060208201905061136360008301846111c3565b92915050565b600060208201905061137e60008301846111d2565b92915050565b6000602082019050818103600083015261139d816111e1565b9050919050565b600060208201905081810360008301526113bd81611204565b9050919050565b600060208201905081810360008301526113dd81611227565b9050919050565b600060208201905081810360008301526113fd8161124a565b9050919050565b6000602082019050818103600083015261141d8161126d565b9050919050565b6000602082019050818103600083015261143d81611290565b9050919050565b6000602082019050818103600083015261145d816112b3565b9050919050565b6000602082019050818103600083015261147d816112d6565b9050919050565b6000602082019050818103600083015261149d816112f9565b9050919050565b600060208201905081810360008301526114bd8161131c565b9050919050565b60006020820190506114d9600083018461133f565b92915050565b60006060820190506114f4600083018661133f565b61150160208301856111b4565b61150e604083018461133f565b949350505050565b600082825260208201905092915050565b600061153282611602565b915061153d83611602565b9250827fffffffffffffffffffffffffffffffffffffffffffffffffffffffffffffffff038211156115725761157161161e565b5b828201905092915050565b600061158882611602565b915061159383611602565b9250828210156115a6576115a561161e565b5b828203905092915050565b60006115bc826115e2565b9050919050565b60008115159050919050565b60008190506115dd826118b3565b919050565b600073ffffffffffffffffffffffffffffffffffffffff82169050919050565b6000819050919050565b6000611617826115cf565b9050919050565b7f4e487b7100000000000000000000000000000000000000000000000000000000600052601160045260246000fd5b7f4e487b7100000000000000000000000000000000000000000000000000000000600052602160045260246000fd5b600080fd5b7f436f6e74726163742073746174652069736e2774206163746976650000000000600082015250565b7f556e617574686f72697a65642075736572000000000000000000000000000000600082015250565b7f4f6e6c7920706172656e742063616e206163636573732074686973206d65746860008201527f6f64000000000000000000000000000000000000000000000000000000000000602082015250565b7f537562737472616374696f6e206661696c640000000000000000000000000000600082015250565b7f4164646974696f6e206661696c65640000000000000000000000000000000000600082015250565b7f42616c616e6365206d7573742062652030206265666f7265207465726d69616e60008201527f74696e672061206465616c000000000000000000000000000000000000000000602082015250565b7f546865726520697320756e77697468647261776d206d6f6e65792e205769746860008201527f6472617720796f7572206d6f6e65792100000000000000000000000000000000602082015250565b7f4920616d206e6f77206163746976617465640000000000000000000000000000600082015250565b7f4f6e6c7920757365722063616e206163636573732074686973206d6574686f64600082015250565b7f4e6f20617661696c61626c652063726564697420666f7220746869732063796360008201527f6c65000000000000000000000000000000000000000000000000000000000000602082015250565b600481106118c4576118c361164d565b5b50565b6118d0816115b1565b81146118db57600080fd5b50565b6118e7816115c3565b81146118f257600080fd5b50565b6118fe81611602565b811461190957600080fd5b5056fea26469706673582212203ebb6d3ca2c2de596e430170768968c2cf0291b1e28f1cffc4b6c395dd4f21f264736f6c6343000807003360806040523480156200001157600080fd5b506040516200144638038062001446833981810160405281019062000037919062000151565b336000806101000a81548173ffffffffffffffffffffffffffffffffffffffff021916908373ffffffffffffffffffffffffffffffffffffffff1602179055508160038190555080600460006101000a81548173ffffffffffffffffffffffffffffffffffffffff021916908373ffffffffffffffffffffffffffffffffffffffff1602179055507f2cce1494b4ef3c5682648d5c4bbf147548f403fc2ac218e41ec797babdb0acb560008054906101000a900473ffffffffffffffffffffffffffffffffffffffff16600060405162000113929190620001e1565b60405180910390a15050620002e8565b6000815190506200013481620002b4565b92915050565b6000815190506200014b81620002ce565b92915050565b600080604083850312156200016b576200016a62000286565b5b60006200017b858286016200013a565b92505060206200018e8582860162000123565b9150509250929050565b620001a38162000234565b82525050565b620001b48162000272565b82525050565b6000620001c9601c8362000223565b9150620001d6826200028b565b602082019050919050565b60006060820190508181036000830152620001fc81620001ba565b90506200020d602083018562000198565b6200021c6040830184620001a9565b9392505050565b600082825260208201905092915050565b6000620002418262000248565b9050919050565b600073ffffffffffffffffffffffffffffffffffffffff82169050919050565b6000819050919050565b60006200027f8262000268565b9050919050565b600080fd5b7f4c656e64696e6720706f6f6c2067617465206372656174656420627900000000600082015250565b620002bf8162000234565b8114620002cb57600080fd5b50565b620002d98162000268565b8114620002e557600080fd5b50565b61114e80620002f86000396000f3fe608060405234801561001057600080fd5b506004361061007d5760003560e01c8063ac4460021161005b578063ac446002146100ef578063bc134ae3146100f9578063cbc20f3014610129578063f984ead8146101455761007d565b8063317549f21461008257806389f78c8e146100b35780639dc61d4f146100d1575b600080fd5b61009c60048036038101906100979190610a26565b610163565b6040516100aa929190610dd8565b60405180910390f35b6100bb61046a565b6040516100c89190610d94565b60405180910390f35b6100d9610470565b6040516100e69190610c27565b60405180910390f35b6100f7610494565b005b610113600480360381019061010e9190610a80565b610567565b6040516101209190610c42565b60405180910390f35b610143600480360381019061013e9190610a53565b610770565b005b61014d61097d565b60405161015a9190610c5d565b60405180910390f35b60008060008054906101000a900473ffffffffffffffffffffffffffffffffffffffff1673ffffffffffffffffffffffffffffffffffffffff163373ffffffffffffffffffffffffffffffffffffffff16146101f4576040517f08c379a00000000000000000000000000000000000000000000000000000000081526004016101eb90610c78565b60405180910390fd5b600354600180549050108061020f5750600060028054905014155b61024e576040517f08c379a000000000000000000000000000000000000000000000000000000000815260040161024590610cb8565b60405180910390fd5b60006002805490501461037a576000600261027860016002805490506109a390919063ffffffff16565b8154811061028957610288610f22565b5b9060005260206000200154905083600182815481106102ab576102aa610f22565b5b9060005260206000200160006101000a81548173ffffffffffffffffffffffffffffffffffffffff021916908373ffffffffffffffffffffffffffffffffffffffff160217905550600280548061030557610304610ef3565b5b600190038181906000526020600020016000905590557f2cce1494b4ef3c5682648d5c4bbf147548f403fc2ac218e41ec797babdb0acb5848260405161034c929190610d38565b60405180910390a18060035460018054905010806103705750600060028054905014155b9250925050610465565b6001839080600181540180825580915050600190039060005260206000200160009091909190916101000a81548173ffffffffffffffffffffffffffffffffffffffff021916908373ffffffffffffffffffffffffffffffffffffffff1602179055507f2cce1494b4ef3c5682648d5c4bbf147548f403fc2ac218e41ec797babdb0acb583610417600180805490506109a390919063ffffffff16565b604051610425929190610d38565b60405180910390a1610445600180805490506109a390919063ffffffff16565b60035460018054905010806104605750600060028054905014155b915091505b915091565b60035481565b60008054906101000a900473ffffffffffffffffffffffffffffffffffffffff1681565b6000600560003373ffffffffffffffffffffffffffffffffffffffff1673ffffffffffffffffffffffffffffffffffffffff1681526020019081526020016000205490506000600560003373ffffffffffffffffffffffffffffffffffffffff1673ffffffffffffffffffffffffffffffffffffffff168152602001908152602001600020819055503373ffffffffffffffffffffffffffffffffffffffff166108fc829081150290604051600060405180830381858888f19350505050158015610563573d6000803e3d6000fd5b5050565b600083600180549050811061057b57600080fd5b600073ffffffffffffffffffffffffffffffffffffffff16600182815481106105a7576105a6610f22565b5b9060005260206000200160009054906101000a900473ffffffffffffffffffffffffffffffffffffffff1673ffffffffffffffffffffffffffffffffffffffff161415610629576040517f08c379a000000000000000000000000000000000000000000000000000000000815260040161062090610d74565b60405180910390fd5b6001818154811061063d5761063c610f22565b5b9060005260206000200160009054906101000a900473ffffffffffffffffffffffffffffffffffffffff1673ffffffffffffffffffffffffffffffffffffffff163373ffffffffffffffffffffffffffffffffffffffff16146106d5576040517f08c379a00000000000000000000000000000000000000000000000000000000081526004016106cc90610cd8565b60405180910390fd5b600460009054906101000a900473ffffffffffffffffffffffffffffffffffffffff1673ffffffffffffffffffffffffffffffffffffffff16633607999b84866040518363ffffffff1660e01b8152600401610732929190610daf565b600060405180830381600087803b15801561074c57600080fd5b505af1158015610760573d6000803e3d6000fd5b5050505060019150509392505050565b60008054906101000a900473ffffffffffffffffffffffffffffffffffffffff1673ffffffffffffffffffffffffffffffffffffffff163373ffffffffffffffffffffffffffffffffffffffff16146107fe576040517f08c379a00000000000000000000000000000000000000000000000000000000081526004016107f590610c78565b60405180910390fd5b6001805490508110610845576040517f08c379a000000000000000000000000000000000000000000000000000000000815260040161083c90610d18565b60405180910390fd5b600073ffffffffffffffffffffffffffffffffffffffff166001828154811061087157610870610f22565b5b9060005260206000200160009054906101000a900473ffffffffffffffffffffffffffffffffffffffff1673ffffffffffffffffffffffffffffffffffffffff1614156108f3576040517f08c379a00000000000000000000000000000000000000000000000000000000081526004016108ea90610c98565b60405180910390fd5b60006001828154811061090957610908610f22565b5b9060005260206000200160006101000a81548173ffffffffffffffffffffffffffffffffffffffff021916908373ffffffffffffffffffffffffffffffffffffffff160217905550600281908060018154018082558091505060019003906000526020600020016000909190919091505550565b600460009054906101000a900473ffffffffffffffffffffffffffffffffffffffff1681565b6000828211156109e8576040517f08c379a00000000000000000000000000000000000000000000000000000000081526004016109df90610cf8565b60405180910390fd5b81836109f49190610e12565b905092915050565b600081359050610a0b816110ea565b92915050565b600081359050610a2081611101565b92915050565b600060208284031215610a3c57610a3b610f51565b5b6000610a4a848285016109fc565b91505092915050565b600060208284031215610a6957610a68610f51565b5b6000610a7784828501610a11565b91505092915050565b600080600060608486031215610a9957610a98610f51565b5b6000610aa786828701610a11565b9350506020610ab8868287016109fc565b9250506040610ac986828701610a11565b9150509250925092565b610adc81610e46565b82525050565b610aeb81610e58565b82525050565b610afa81610e8e565b82525050565b6000610b0d602d83610e01565b9150610b1882610f56565b604082019050919050565b6000610b30601783610e01565b9150610b3b82610fa5565b602082019050919050565b6000610b53601283610e01565b9150610b5e82610fce565b602082019050919050565b6000610b76603f83610e01565b9150610b8182610ff7565b604082019050919050565b6000610b99601283610e01565b9150610ba482611046565b602082019050919050565b6000610bbc601183610e01565b9150610bc78261106f565b602082019050919050565b6000610bdf601383610e01565b9150610bea82611098565b602082019050919050565b6000610c02601083610e01565b9150610c0d826110c1565b602082019050919050565b610c2181610e84565b82525050565b6000602082019050610c3c6000830184610ad3565b92915050565b6000602082019050610c576000830184610ae2565b92915050565b6000602082019050610c726000830184610af1565b92915050565b60006020820190508181036000830152610c9181610b00565b9050919050565b60006020820190508181036000830152610cb181610b23565b9050919050565b60006020820190508181036000830152610cd181610b46565b9050919050565b60006020820190508181036000830152610cf181610b69565b9050919050565b60006020820190508181036000830152610d1181610b8c565b9050919050565b60006020820190508181036000830152610d3181610baf565b9050919050565b60006060820190508181036000830152610d5181610bd2565b9050610d606020830185610ad3565b610d6d6040830184610c18565b9392505050565b60006020820190508181036000830152610d8d81610bf5565b9050919050565b6000602082019050610da96000830184610c18565b92915050565b6000604082019050610dc46000830185610c18565b610dd16020830184610ad3565b9392505050565b6000604082019050610ded6000830185610c18565b610dfa6020830184610ae2565b9392505050565b600082825260208201905092915050565b6000610e1d82610e84565b9150610e2883610e84565b925082821015610e3b57610e3a610ec4565b5b828203905092915050565b6000610e5182610e64565b9050919050565b60008115159050919050565b600073ffffffffffffffffffffffffffffffffffffffff82169050919050565b6000819050919050565b6000610e9982610ea0565b9050919050565b6000610eab82610eb2565b9050919050565b6000610ebd82610e64565b9050919050565b7f4e487b7100000000000000000000000000000000000000000000000000000000600052601160045260246000fd5b7f4e487b7100000000000000000000000000000000000000000000000000000000600052603160045260246000fd5b7f4e487b7100000000000000000000000000000000000000000000000000000000600052603260045260246000fd5b600080fd5b7f4f6e6c79206372656174696e6720636f6e74726163742063616e2063616c6c2060008201527f746869732066756e6374696f6e00000000000000000000000000000000000000602082015250565b7f6163636f756e7420616c72656164792064656c65746564000000000000000000600082015250565b7f5768697465206c6973742069732066756c6c0000000000000000000000000000600082015250565b7f536d61727420636f6e7472616374206e6f7420616c6c6f77656420746f20776960008201527f746864726177206d6f6e6579207468726f756768742074686973206761746500602082015250565b7f537562737472616374696f6e206661696c640000000000000000000000000000600082015250565b7f546f6b656e206e6f742063726561746564000000000000000000000000000000600082015250565b7f416464656420746f207768697465206c69737400000000000000000000000000600082015250565b7f44656c6574656420436f6e747261637400000000000000000000000000000000600082015250565b6110f381610e46565b81146110fe57600080fd5b50565b61110a81610e84565b811461111557600080fd5b5056fea2646970667358221220a794b9196bf7e4c26cf832c37444b1e16cad39cb89bbed966dae0af2e2901ddf64736f6c63430008070033a26469706673582212205bc01cbd99a3d077060d4ace7d478417213e3b1a2bad87c06898f968d50f62fa64736f6c63430008070033",
			"opcodes": "PUSH1 0x80 PUSH1 0x40 MSTORE CALLVALUE DUP1 ISZERO PUSH2 0x10 JUMPI PUSH1 0x0 DUP1 REVERT JUMPDEST POP CALLER PUSH1 0x0 DUP1 PUSH2 0x100 EXP DUP2 SLOAD DUP2 PUSH20 0xFFFFFFFFFFFFFFFFFFFFFFFFFFFFFFFFFFFFFFFF MUL NOT AND SWAP1 DUP4 PUSH20 0xFFFFFFFFFFFFFFFFFFFFFFFFFFFFFFFFFFFFFFFF AND MUL OR SWAP1 SSTORE POP PUSH2 0x3E8 PUSH1 0x2 DUP2 SWAP1 SSTORE POP PUSH20 0x4A597B8AA6CD150AAE24EFC5895B6E30510FCA19 PUSH1 0x1 PUSH1 0x0 PUSH2 0x100 EXP DUP2 SLOAD DUP2 PUSH20 0xFFFFFFFFFFFFFFFFFFFFFFFFFFFFFFFFFFFFFFFF MUL NOT AND SWAP1 DUP4 PUSH20 0xFFFFFFFFFFFFFFFFFFFFFFFFFFFFFFFFFFFFFFFF AND MUL OR SWAP1 SSTORE POP PUSH2 0x4779 DUP1 PUSH2 0xBE PUSH1 0x0 CODECOPY PUSH1 0x0 RETURN INVALID PUSH1 0x80 PUSH1 0x40 MSTORE PUSH1 0x4 CALLDATASIZE LT PUSH3 0x61 JUMPI PUSH1 0x0 CALLDATALOAD PUSH1 0xE0 SHR DUP1 PUSH4 0xA334BFD EQ PUSH3 0x6B JUMPI DUP1 PUSH4 0x818579EF EQ PUSH3 0x9B JUMPI DUP1 PUSH4 0xC8B5EC1E EQ PUSH3 0xDF JUMPI DUP1 PUSH4 0xD59FFCCD EQ PUSH3 0x10F JUMPI DUP1 PUSH4 0xF9AA9E06 EQ PUSH3 0x13F JUMPI DUP1 PUSH4 0xFAB6CF59 EQ PUSH3 0x175 JUMPI PUSH3 0x69 JUMP JUMPDEST CALLDATASIZE PUSH3 0x69 JUMPI STOP JUMPDEST STOP JUMPDEST CALLVALUE DUP1 ISZERO PUSH3 0x78 JUMPI PUSH1 0x0 DUP1 REVERT JUMPDEST POP PUSH3 0x83 PUSH3 0x18F JUMP JUMPDEST PUSH1 0x40 MLOAD PUSH3 0x92 SWAP2 SWAP1 PUSH3 0x1140 JUMP JUMPDEST PUSH1 0x40 MLOAD DUP1 SWAP2 SUB SWAP1 RETURN JUMPDEST CALLVALUE DUP1 ISZERO PUSH3 0xA8 JUMPI PUSH1 0x0 DUP1 REVERT JUMPDEST POP PUSH3 0xC7 PUSH1 0x4 DUP1 CALLDATASIZE SUB DUP2 ADD SWAP1 PUSH3 0xC1 SWAP2 SWAP1 PUSH3 0xD89 JUMP JUMPDEST PUSH3 0x195 JUMP JUMPDEST PUSH1 0x40 MLOAD PUSH3 0xD6 SWAP2 SWAP1 PUSH3 0x1140 JUMP JUMPDEST PUSH1 0x40 MLOAD DUP1 SWAP2 SUB SWAP1 RETURN JUMPDEST CALLVALUE DUP1 ISZERO PUSH3 0xEC JUMPI PUSH1 0x0 DUP1 REVERT JUMPDEST POP PUSH3 0xF7 PUSH3 0x1AD JUMP JUMPDEST PUSH1 0x40 MLOAD PUSH3 0x106 SWAP2 SWAP1 PUSH3 0xFFD JUMP JUMPDEST PUSH1 0x40 MLOAD DUP1 SWAP2 SUB SWAP1 RETURN JUMPDEST CALLVALUE DUP1 ISZERO PUSH3 0x11C JUMPI PUSH1 0x0 DUP1 REVERT JUMPDEST POP PUSH3 0x127 PUSH3 0x1D3 JUMP JUMPDEST PUSH1 0x40 MLOAD PUSH3 0x136 SWAP2 SWAP1 PUSH3 0x101A JUMP JUMPDEST PUSH1 0x40 MLOAD DUP1 SWAP2 SUB SWAP1 RETURN JUMPDEST PUSH3 0x15D PUSH1 0x4 DUP1 CALLDATASIZE SUB DUP2 ADD SWAP1 PUSH3 0x157 SWAP2 SWAP1 PUSH3 0xDED JUMP JUMPDEST PUSH3 0x1F7 JUMP JUMPDEST PUSH1 0x40 MLOAD PUSH3 0x16C SWAP2 SWAP1 PUSH3 0xFFD JUMP JUMPDEST PUSH1 0x40 MLOAD DUP1 SWAP2 SUB SWAP1 RETURN JUMPDEST CALLVALUE DUP1 ISZERO PUSH3 0x182 JUMPI PUSH1 0x0 DUP1 REVERT JUMPDEST POP PUSH3 0x18D PUSH3 0x482 JUMP JUMPDEST STOP JUMPDEST PUSH1 0x2 SLOAD DUP2 JUMP JUMPDEST PUSH1 0x5 PUSH1 0x20 MSTORE DUP1 PUSH1 0x0 MSTORE PUSH1 0x40 PUSH1 0x0 KECCAK256 PUSH1 0x0 SWAP2 POP SWAP1 POP SLOAD DUP2 JUMP JUMPDEST PUSH1 0x1 PUSH1 0x0 SWAP1 SLOAD SWAP1 PUSH2 0x100 EXP SWAP1 DIV PUSH20 0xFFFFFFFFFFFFFFFFFFFFFFFFFFFFFFFFFFFFFFFF AND DUP2 JUMP JUMPDEST PUSH1 0x0 DUP1 SLOAD SWAP1 PUSH2 0x100 EXP SWAP1 DIV PUSH20 0xFFFFFFFFFFFFFFFFFFFFFFFFFFFFFFFFFFFFFFFF AND DUP2 JUMP JUMPDEST PUSH1 0x0 PUSH1 0x1 DUP1 DUP2 GT ISZERO PUSH3 0x20F JUMPI PUSH3 0x20E PUSH3 0x13F7 JUMP JUMPDEST JUMPDEST DUP5 PUSH1 0x1 DUP2 GT ISZERO PUSH3 0x225 JUMPI PUSH3 0x224 PUSH3 0x13F7 JUMP JUMPDEST JUMPDEST EQ ISZERO PUSH3 0x3D7 JUMPI PUSH1 0x1 PUSH1 0x2 DUP2 GT ISZERO PUSH3 0x243 JUMPI PUSH3 0x242 PUSH3 0x13F7 JUMP JUMPDEST JUMPDEST DUP3 PUSH1 0x0 ADD MLOAD PUSH1 0x2 DUP2 GT ISZERO PUSH3 0x25D JUMPI PUSH3 0x25C PUSH3 0x13F7 JUMP JUMPDEST JUMPDEST EQ ISZERO PUSH3 0x3A5 JUMPI PUSH1 0x0 DUP1 PUSH3 0x271 PUSH3 0x5DD JUMP JUMPDEST SWAP2 POP SWAP2 POP PUSH3 0x27F PUSH3 0x5F7 JUMP JUMPDEST PUSH1 0x0 PUSH3 0x299 PUSH3 0x278D00 TIMESTAMP PUSH3 0x5F9 SWAP1 SWAP2 SWAP1 PUSH4 0xFFFFFFFF AND JUMP JUMPDEST ADDRESS CALLER DUP6 DUP6 PUSH1 0x40 MLOAD PUSH3 0x2AB SWAP1 PUSH3 0xC1A JUMP JUMPDEST PUSH3 0x2BB SWAP6 SWAP5 SWAP4 SWAP3 SWAP2 SWAP1 PUSH3 0x118A JUMP JUMPDEST PUSH1 0x40 MLOAD DUP1 SWAP2 SUB SWAP1 PUSH1 0x0 CREATE DUP1 ISZERO DUP1 ISZERO PUSH3 0x2D8 JUMPI RETURNDATASIZE PUSH1 0x0 DUP1 RETURNDATACOPY RETURNDATASIZE PUSH1 0x0 REVERT JUMPDEST POP SWAP1 POP PUSH1 0x0 DUP1 PUSH3 0x2E9 DUP4 PUSH3 0x657 JUMP JUMPDEST SWAP2 POP SWAP2 POP DUP3 PUSH20 0xFFFFFFFFFFFFFFFFFFFFFFFFFFFFFFFFFFFFFFFF AND PUSH4 0xCA11BE69 DUP4 DUP4 PUSH1 0x40 MLOAD DUP4 PUSH4 0xFFFFFFFF AND PUSH1 0xE0 SHL DUP2 MSTORE PUSH1 0x4 ADD PUSH3 0x32A SWAP3 SWAP2 SWAP1 PUSH3 0x1037 JUMP JUMPDEST PUSH1 0x0 PUSH1 0x40 MLOAD DUP1 DUP4 SUB DUP2 PUSH1 0x0 DUP8 DUP1 EXTCODESIZE ISZERO DUP1 ISZERO PUSH3 0x345 JUMPI PUSH1 0x0 DUP1 REVERT JUMPDEST POP GAS CALL ISZERO DUP1 ISZERO PUSH3 0x35A JUMPI RETURNDATASIZE PUSH1 0x0 DUP1 RETURNDATACOPY RETURNDATASIZE PUSH1 0x0 REVERT JUMPDEST POP POP POP POP PUSH32 0xB758E6C0D2C9AECA50F129AFC686C8AE28726E41C3DF2AF4A0EC5CA15DCC70C5 DUP4 PUSH1 0x40 MLOAD PUSH3 0x38F SWAP2 SWAP1 PUSH3 0x110E JUMP JUMPDEST PUSH1 0x40 MLOAD DUP1 SWAP2 SUB SWAP1 LOG1 DUP3 SWAP6 POP POP POP POP POP POP PUSH3 0x47B JUMP JUMPDEST PUSH1 0x40 MLOAD PUSH32 0xBBEA06C000000000000000000000000000000000000000000000000000000000 DUP2 MSTORE PUSH1 0x4 ADD PUSH1 0x40 MLOAD DUP1 SWAP2 SUB SWAP1 REVERT JUMPDEST PUSH1 0x0 PUSH1 0x1 DUP2 GT ISZERO PUSH3 0x3EE JUMPI PUSH3 0x3ED PUSH3 0x13F7 JUMP JUMPDEST JUMPDEST DUP5 PUSH1 0x1 DUP2 GT ISZERO PUSH3 0x404 JUMPI PUSH3 0x403 PUSH3 0x13F7 JUMP JUMPDEST JUMPDEST EQ ISZERO PUSH3 0x449 JUMPI PUSH3 0x416 DUP4 PUSH3 0x9D5 JUMP JUMPDEST POP PUSH1 0x40 MLOAD PUSH32 0xBBEA06C000000000000000000000000000000000000000000000000000000000 DUP2 MSTORE PUSH1 0x4 ADD PUSH1 0x40 MLOAD DUP1 SWAP2 SUB SWAP1 REVERT JUMPDEST PUSH1 0x40 MLOAD PUSH32 0xBBEA06C000000000000000000000000000000000000000000000000000000000 DUP2 MSTORE PUSH1 0x4 ADD PUSH1 0x40 MLOAD DUP1 SWAP2 SUB SWAP1 REVERT JUMPDEST SWAP4 SWAP3 POP POP POP JUMP JUMPDEST CALLER PUSH20 0xFFFFFFFFFFFFFFFFFFFFFFFFFFFFFFFFFFFFFFFF AND PUSH1 0x3 PUSH1 0x5 PUSH1 0x0 CALLER PUSH20 0xFFFFFFFFFFFFFFFFFFFFFFFFFFFFFFFFFFFFFFFF AND PUSH20 0xFFFFFFFFFFFFFFFFFFFFFFFFFFFFFFFFFFFFFFFF AND DUP2 MSTORE PUSH1 0x20 ADD SWAP1 DUP2 MSTORE PUSH1 0x20 ADD PUSH1 0x0 KECCAK256 SLOAD DUP2 SLOAD DUP2 LT PUSH3 0x4EF JUMPI PUSH3 0x4EE PUSH3 0x1455 JUMP JUMPDEST JUMPDEST SWAP1 PUSH1 0x0 MSTORE PUSH1 0x20 PUSH1 0x0 KECCAK256 ADD PUSH1 0x0 SWAP1 SLOAD SWAP1 PUSH2 0x100 EXP SWAP1 DIV PUSH20 0xFFFFFFFFFFFFFFFFFFFFFFFFFFFFFFFFFFFFFFFF AND PUSH20 0xFFFFFFFFFFFFFFFFFFFFFFFFFFFFFFFFFFFFFFFF AND EQ PUSH3 0x573 JUMPI PUSH1 0x40 MLOAD PUSH32 0x8C379A000000000000000000000000000000000000000000000000000000000 DUP2 MSTORE PUSH1 0x4 ADD PUSH3 0x56A SWAP1 PUSH3 0x1086 JUMP JUMPDEST PUSH1 0x40 MLOAD DUP1 SWAP2 SUB SWAP1 REVERT JUMPDEST PUSH1 0x4 PUSH1 0x5 PUSH1 0x0 CALLER PUSH20 0xFFFFFFFFFFFFFFFFFFFFFFFFFFFFFFFFFFFFFFFF AND PUSH20 0xFFFFFFFFFFFFFFFFFFFFFFFFFFFFFFFFFFFFFFFF AND DUP2 MSTORE PUSH1 0x20 ADD SWAP1 DUP2 MSTORE PUSH1 0x20 ADD PUSH1 0x0 KECCAK256 SLOAD SWAP1 DUP1 PUSH1 0x1 DUP2 SLOAD ADD DUP1 DUP3 SSTORE DUP1 SWAP2 POP POP PUSH1 0x1 SWAP1 SUB SWAP1 PUSH1 0x0 MSTORE PUSH1 0x20 PUSH1 0x0 KECCAK256 ADD PUSH1 0x0 SWAP1 SWAP2 SWAP1 SWAP2 SWAP1 SWAP2 POP SSTORE JUMP JUMPDEST PUSH1 0x0 DUP1 PUSH1 0x0 CALLVALUE SWAP1 POP PUSH1 0x0 PUSH1 0x14 SWAP1 POP DUP2 DUP2 SWAP4 POP SWAP4 POP POP POP SWAP1 SWAP2 JUMP JUMPDEST JUMP JUMPDEST PUSH1 0x0 DUP2 DUP4 PUSH3 0x609 SWAP2 SWAP1 PUSH3 0x1237 JUMP JUMPDEST SWAP1 POP DUP3 DUP2 LT ISZERO PUSH3 0x651 JUMPI PUSH1 0x40 MLOAD PUSH32 0x8C379A000000000000000000000000000000000000000000000000000000000 DUP2 MSTORE PUSH1 0x4 ADD PUSH3 0x648 SWAP1 PUSH3 0x10EC JUMP JUMPDEST PUSH1 0x40 MLOAD DUP1 SWAP2 SUB SWAP1 REVERT JUMPDEST SWAP3 SWAP2 POP POP JUMP JUMPDEST PUSH1 0x0 DUP1 PUSH1 0x0 PUSH1 0x4 DUP1 SLOAD SWAP1 POP EQ ISZERO PUSH3 0x863 JUMPI PUSH1 0x0 PUSH1 0x2 SLOAD PUSH1 0x1 PUSH1 0x0 SWAP1 SLOAD SWAP1 PUSH2 0x100 EXP SWAP1 DIV PUSH20 0xFFFFFFFFFFFFFFFFFFFFFFFFFFFFFFFFFFFFFFFF AND PUSH1 0x40 MLOAD PUSH3 0x69F SWAP1 PUSH3 0xC28 JUMP JUMPDEST PUSH3 0x6AC SWAP3 SWAP2 SWAP1 PUSH3 0x115D JUMP JUMPDEST PUSH1 0x40 MLOAD DUP1 SWAP2 SUB SWAP1 PUSH1 0x0 CREATE DUP1 ISZERO DUP1 ISZERO PUSH3 0x6C9 JUMPI RETURNDATASIZE PUSH1 0x0 DUP1 RETURNDATACOPY RETURNDATASIZE PUSH1 0x0 REVERT JUMPDEST POP SWAP1 POP PUSH1 0x3 DUP2 SWAP1 DUP1 PUSH1 0x1 DUP2 SLOAD ADD DUP1 DUP3 SSTORE DUP1 SWAP2 POP POP PUSH1 0x1 SWAP1 SUB SWAP1 PUSH1 0x0 MSTORE PUSH1 0x20 PUSH1 0x0 KECCAK256 ADD PUSH1 0x0 SWAP1 SWAP2 SWAP1 SWAP2 SWAP1 SWAP2 PUSH2 0x100 EXP DUP2 SLOAD DUP2 PUSH20 0xFFFFFFFFFFFFFFFFFFFFFFFFFFFFFFFFFFFFFFFF MUL NOT AND SWAP1 DUP4 PUSH20 0xFFFFFFFFFFFFFFFFFFFFFFFFFFFFFFFFFFFFFFFF AND MUL OR SWAP1 SSTORE POP PUSH3 0x74A PUSH1 0x1 PUSH1 0x3 DUP1 SLOAD SWAP1 POP PUSH3 0xBBC SWAP1 SWAP2 SWAP1 PUSH4 0xFFFFFFFF AND JUMP JUMPDEST PUSH1 0x5 PUSH1 0x0 DUP4 PUSH20 0xFFFFFFFFFFFFFFFFFFFFFFFFFFFFFFFFFFFFFFFF AND PUSH20 0xFFFFFFFFFFFFFFFFFFFFFFFFFFFFFFFFFFFFFFFF AND DUP2 MSTORE PUSH1 0x20 ADD SWAP1 DUP2 MSTORE PUSH1 0x20 ADD PUSH1 0x0 KECCAK256 DUP2 SWAP1 SSTORE POP PUSH1 0x4 PUSH3 0x7AA PUSH1 0x1 PUSH1 0x3 DUP1 SLOAD SWAP1 POP PUSH3 0xBBC SWAP1 SWAP2 SWAP1 PUSH4 0xFFFFFFFF AND JUMP JUMPDEST SWAP1 DUP1 PUSH1 0x1 DUP2 SLOAD ADD DUP1 DUP3 SSTORE DUP1 SWAP2 POP POP PUSH1 0x1 SWAP1 SUB SWAP1 PUSH1 0x0 MSTORE PUSH1 0x20 PUSH1 0x0 KECCAK256 ADD PUSH1 0x0 SWAP1 SWAP2 SWAP1 SWAP2 SWAP1 SWAP2 POP SSTORE PUSH1 0x1 PUSH1 0x0 SWAP1 SLOAD SWAP1 PUSH2 0x100 EXP SWAP1 DIV PUSH20 0xFFFFFFFFFFFFFFFFFFFFFFFFFFFFFFFFFFFFFFFF AND PUSH20 0xFFFFFFFFFFFFFFFFFFFFFFFFFFFFFFFFFFFFFFFF AND PUSH4 0x1E23271D DUP3 PUSH1 0x40 MLOAD DUP3 PUSH4 0xFFFFFFFF AND PUSH1 0xE0 SHL DUP2 MSTORE PUSH1 0x4 ADD PUSH3 0x82D SWAP2 SWAP1 PUSH3 0xFFD JUMP JUMPDEST PUSH1 0x0 PUSH1 0x40 MLOAD DUP1 DUP4 SUB DUP2 PUSH1 0x0 DUP8 DUP1 EXTCODESIZE ISZERO DUP1 ISZERO PUSH3 0x848 JUMPI PUSH1 0x0 DUP1 REVERT JUMPDEST POP GAS CALL ISZERO DUP1 ISZERO PUSH3 0x85D JUMPI RETURNDATASIZE PUSH1 0x0 DUP1 RETURNDATACOPY RETURNDATASIZE PUSH1 0x0 REVERT JUMPDEST POP POP POP POP POP JUMPDEST PUSH1 0x0 PUSH1 0x4 DUP1 SLOAD SWAP1 POP EQ ISZERO PUSH3 0x87D JUMPI PUSH3 0x87C PUSH3 0x1399 JUMP JUMPDEST JUMPDEST PUSH1 0x0 PUSH1 0x3 PUSH1 0x4 PUSH3 0x89E PUSH1 0x1 PUSH1 0x4 DUP1 SLOAD SWAP1 POP PUSH3 0xBBC SWAP1 SWAP2 SWAP1 PUSH4 0xFFFFFFFF AND JUMP JUMPDEST DUP2 SLOAD DUP2 LT PUSH3 0x8B2 JUMPI PUSH3 0x8B1 PUSH3 0x1455 JUMP JUMPDEST JUMPDEST SWAP1 PUSH1 0x0 MSTORE PUSH1 0x20 PUSH1 0x0 KECCAK256 ADD SLOAD DUP2 SLOAD DUP2 LT PUSH3 0x8D1 JUMPI PUSH3 0x8D0 PUSH3 0x1455 JUMP JUMPDEST JUMPDEST SWAP1 PUSH1 0x0 MSTORE PUSH1 0x20 PUSH1 0x0 KECCAK256 ADD PUSH1 0x0 SWAP1 SLOAD SWAP1 PUSH2 0x100 EXP SWAP1 DIV PUSH20 0xFFFFFFFFFFFFFFFFFFFFFFFFFFFFFFFFFFFFFFFF AND SWAP1 POP PUSH1 0x0 DUP1 DUP3 PUSH20 0xFFFFFFFFFFFFFFFFFFFFFFFFFFFFFFFFFFFFFFFF AND PUSH4 0x317549F2 DUP8 PUSH1 0x40 MLOAD DUP3 PUSH4 0xFFFFFFFF AND PUSH1 0xE0 SHL DUP2 MSTORE PUSH1 0x4 ADD PUSH3 0x93C SWAP2 SWAP1 PUSH3 0xFFD JUMP JUMPDEST PUSH1 0x40 DUP1 MLOAD DUP1 DUP4 SUB DUP2 PUSH1 0x0 DUP8 DUP1 EXTCODESIZE ISZERO DUP1 ISZERO PUSH3 0x956 JUMPI PUSH1 0x0 DUP1 REVERT JUMPDEST POP GAS CALL ISZERO DUP1 ISZERO PUSH3 0x96B JUMPI RETURNDATASIZE PUSH1 0x0 DUP1 RETURNDATACOPY RETURNDATASIZE PUSH1 0x0 REVERT JUMPDEST POP POP POP POP PUSH1 0x40 MLOAD RETURNDATASIZE PUSH1 0x1F NOT PUSH1 0x1F DUP3 ADD AND DUP3 ADD DUP1 PUSH1 0x40 MSTORE POP DUP2 ADD SWAP1 PUSH3 0x991 SWAP2 SWAP1 PUSH3 0xE49 JUMP JUMPDEST SWAP2 POP SWAP2 POP DUP1 PUSH3 0x9C7 JUMPI PUSH1 0x4 DUP1 SLOAD DUP1 PUSH3 0x9B0 JUMPI PUSH3 0x9AF PUSH3 0x1426 JUMP JUMPDEST JUMPDEST PUSH1 0x1 SWAP1 SUB DUP2 DUP2 SWAP1 PUSH1 0x0 MSTORE PUSH1 0x20 PUSH1 0x0 KECCAK256 ADD PUSH1 0x0 SWAP1 SSTORE SWAP1 SSTORE JUMPDEST DUP3 DUP3 SWAP5 POP SWAP5 POP POP POP POP SWAP2 POP SWAP2 JUMP JUMPDEST PUSH1 0x0 DUP1 PUSH1 0x0 DUP4 PUSH1 0x0 ADD MLOAD PUSH20 0xFFFFFFFFFFFFFFFFFFFFFFFFFFFFFFFFFFFFFFFF AND DUP5 PUSH1 0x20 ADD MLOAD PUSH1 0x40 MLOAD PUSH1 0x24 ADD PUSH3 0xA0C SWAP2 SWAP1 PUSH3 0x1140 JUMP JUMPDEST PUSH1 0x40 MLOAD PUSH1 0x20 DUP2 DUP4 SUB SUB DUP2 MSTORE SWAP1 PUSH1 0x40 MSTORE PUSH32 0x6352211E00000000000000000000000000000000000000000000000000000000 PUSH28 0xFFFFFFFFFFFFFFFFFFFFFFFFFFFFFFFFFFFFFFFFFFFFFFFFFFFFFFFF NOT AND PUSH1 0x20 DUP3 ADD DUP1 MLOAD PUSH28 0xFFFFFFFFFFFFFFFFFFFFFFFFFFFFFFFFFFFFFFFFFFFFFFFFFFFFFFFF DUP4 DUP2 DUP4 AND OR DUP4 MSTORE POP POP POP POP PUSH1 0x40 MLOAD PUSH3 0xA98 SWAP2 SWAP1 PUSH3 0xFE4 JUMP JUMPDEST PUSH1 0x0 PUSH1 0x40 MLOAD DUP1 DUP4 SUB DUP2 PUSH1 0x0 DUP7 GAS CALL SWAP2 POP POP RETURNDATASIZE DUP1 PUSH1 0x0 DUP2 EQ PUSH3 0xAD7 JUMPI PUSH1 0x40 MLOAD SWAP2 POP PUSH1 0x1F NOT PUSH1 0x3F RETURNDATASIZE ADD AND DUP3 ADD PUSH1 0x40 MSTORE RETURNDATASIZE DUP3 MSTORE RETURNDATASIZE PUSH1 0x0 PUSH1 0x20 DUP5 ADD RETURNDATACOPY PUSH3 0xADC JUMP JUMPDEST PUSH1 0x60 SWAP2 POP JUMPDEST POP SWAP2 POP SWAP2 POP DUP2 PUSH3 0xB24 JUMPI PUSH1 0x40 MLOAD PUSH32 0x8C379A000000000000000000000000000000000000000000000000000000000 DUP2 MSTORE PUSH1 0x4 ADD PUSH3 0xB1B SWAP1 PUSH3 0x10A8 JUMP JUMPDEST PUSH1 0x40 MLOAD DUP1 SWAP2 SUB SWAP1 REVERT JUMPDEST ADDRESS PUSH20 0xFFFFFFFFFFFFFFFFFFFFFFFFFFFFFFFFFFFFFFFF AND DUP2 DUP1 PUSH1 0x20 ADD SWAP1 MLOAD DUP2 ADD SWAP1 PUSH3 0xB51 SWAP2 SWAP1 PUSH3 0xDBB JUMP JUMPDEST PUSH20 0xFFFFFFFFFFFFFFFFFFFFFFFFFFFFFFFFFFFFFFFF AND EQ PUSH3 0xBAA JUMPI PUSH1 0x40 MLOAD PUSH32 0x8C379A000000000000000000000000000000000000000000000000000000000 DUP2 MSTORE PUSH1 0x4 ADD PUSH3 0xBA1 SWAP1 PUSH3 0x1064 JUMP JUMPDEST PUSH1 0x40 MLOAD DUP1 SWAP2 SUB SWAP1 REVERT JUMPDEST PUSH1 0x0 PUSH2 0x3E8 SWAP1 POP DUP1 SWAP4 POP POP POP POP SWAP2 SWAP1 POP JUMP JUMPDEST PUSH1 0x0 DUP3 DUP3 GT ISZERO PUSH3 0xC04 JUMPI PUSH1 0x40 MLOAD PUSH32 0x8C379A000000000000000000000000000000000000000000000000000000000 DUP2 MSTORE PUSH1 0x4 ADD PUSH3 0xBFB SWAP1 PUSH3 0x10CA JUMP JUMPDEST PUSH1 0x40 MLOAD DUP1 SWAP2 SUB SWAP1 REVERT JUMPDEST DUP2 DUP4 PUSH3 0xC12 SWAP2 SWAP1 PUSH3 0x1294 JUMP JUMPDEST SWAP1 POP SWAP3 SWAP2 POP POP JUMP JUMPDEST PUSH2 0x1C89 DUP1 PUSH3 0x1675 DUP4 CODECOPY ADD SWAP1 JUMP JUMPDEST PUSH2 0x1446 DUP1 PUSH3 0x32FE DUP4 CODECOPY ADD SWAP1 JUMP JUMPDEST PUSH1 0x0 DUP2 CALLDATALOAD SWAP1 POP PUSH3 0xC47 DUP2 PUSH3 0x15EA JUMP JUMPDEST SWAP3 SWAP2 POP POP JUMP JUMPDEST PUSH1 0x0 DUP2 MLOAD SWAP1 POP PUSH3 0xC5E DUP2 PUSH3 0x1604 JUMP JUMPDEST SWAP3 SWAP2 POP POP JUMP JUMPDEST PUSH1 0x0 DUP2 MLOAD SWAP1 POP PUSH3 0xC75 DUP2 PUSH3 0x161E JUMP JUMPDEST SWAP3 SWAP2 POP POP JUMP JUMPDEST PUSH1 0x0 DUP2 CALLDATALOAD SWAP1 POP PUSH3 0xC8C DUP2 PUSH3 0x1638 JUMP JUMPDEST SWAP3 SWAP2 POP POP JUMP JUMPDEST PUSH1 0x0 DUP2 CALLDATALOAD SWAP1 POP PUSH3 0xCA3 DUP2 PUSH3 0x1649 JUMP JUMPDEST SWAP3 SWAP2 POP POP JUMP JUMPDEST PUSH1 0x0 PUSH1 0x40 DUP3 DUP5 SUB SLT ISZERO PUSH3 0xCC2 JUMPI PUSH3 0xCC1 PUSH3 0x14B3 JUMP JUMPDEST JUMPDEST PUSH3 0xCCE PUSH1 0x40 PUSH3 0x11E7 JUMP JUMPDEST SWAP1 POP PUSH1 0x0 PUSH3 0xCE0 DUP5 DUP3 DUP6 ADD PUSH3 0xC92 JUMP JUMPDEST PUSH1 0x0 DUP4 ADD MSTORE POP PUSH1 0x20 PUSH3 0xCF6 DUP5 DUP3 DUP6 ADD PUSH3 0xD5B JUMP JUMPDEST PUSH1 0x20 DUP4 ADD MSTORE POP SWAP3 SWAP2 POP POP JUMP JUMPDEST PUSH1 0x0 PUSH1 0x40 DUP3 DUP5 SUB SLT ISZERO PUSH3 0xD1B JUMPI PUSH3 0xD1A PUSH3 0x14B3 JUMP JUMPDEST JUMPDEST PUSH3 0xD27 PUSH1 0x40 PUSH3 0x11E7 JUMP JUMPDEST SWAP1 POP PUSH1 0x0 PUSH3 0xD39 DUP5 DUP3 DUP6 ADD PUSH3 0xC36 JUMP JUMPDEST PUSH1 0x0 DUP4 ADD MSTORE POP PUSH1 0x20 PUSH3 0xD4F DUP5 DUP3 DUP6 ADD PUSH3 0xD5B JUMP JUMPDEST PUSH1 0x20 DUP4 ADD MSTORE POP SWAP3 SWAP2 POP POP JUMP JUMPDEST PUSH1 0x0 DUP2 CALLDATALOAD SWAP1 POP PUSH3 0xD6C DUP2 PUSH3 0x165A JUMP JUMPDEST SWAP3 SWAP2 POP POP JUMP JUMPDEST PUSH1 0x0 DUP2 MLOAD SWAP1 POP PUSH3 0xD83 DUP2 PUSH3 0x165A JUMP JUMPDEST SWAP3 SWAP2 POP POP JUMP JUMPDEST PUSH1 0x0 PUSH1 0x20 DUP3 DUP5 SUB SLT ISZERO PUSH3 0xDA2 JUMPI PUSH3 0xDA1 PUSH3 0x14B8 JUMP JUMPDEST JUMPDEST PUSH1 0x0 PUSH3 0xDB2 DUP5 DUP3 DUP6 ADD PUSH3 0xC36 JUMP JUMPDEST SWAP2 POP POP SWAP3 SWAP2 POP POP JUMP JUMPDEST PUSH1 0x0 PUSH1 0x20 DUP3 DUP5 SUB SLT ISZERO PUSH3 0xDD4 JUMPI PUSH3 0xDD3 PUSH3 0x14B8 JUMP JUMPDEST JUMPDEST PUSH1 0x0 PUSH3 0xDE4 DUP5 DUP3 DUP6 ADD PUSH3 0xC4D JUMP JUMPDEST SWAP2 POP POP SWAP3 SWAP2 POP POP JUMP JUMPDEST PUSH1 0x0 DUP1 PUSH1 0x0 PUSH1 0xA0 DUP5 DUP7 SUB SLT ISZERO PUSH3 0xE09 JUMPI PUSH3 0xE08 PUSH3 0x14B8 JUMP JUMPDEST JUMPDEST PUSH1 0x0 PUSH3 0xE19 DUP7 DUP3 DUP8 ADD PUSH3 0xC7B JUMP JUMPDEST SWAP4 POP POP PUSH1 0x20 PUSH3 0xE2C DUP7 DUP3 DUP8 ADD PUSH3 0xD02 JUMP JUMPDEST SWAP3 POP POP PUSH1 0x60 PUSH3 0xE3F DUP7 DUP3 DUP8 ADD PUSH3 0xCA9 JUMP JUMPDEST SWAP2 POP POP SWAP3 POP SWAP3 POP SWAP3 JUMP JUMPDEST PUSH1 0x0 DUP1 PUSH1 0x40 DUP4 DUP6 SUB SLT ISZERO PUSH3 0xE63 JUMPI PUSH3 0xE62 PUSH3 0x14B8 JUMP JUMPDEST JUMPDEST PUSH1 0x0 PUSH3 0xE73 DUP6 DUP3 DUP7 ADD PUSH3 0xD72 JUMP JUMPDEST SWAP3 POP POP PUSH1 0x20 PUSH3 0xE86 DUP6 DUP3 DUP7 ADD PUSH3 0xC64 JUMP JUMPDEST SWAP2 POP POP SWAP3 POP SWAP3 SWAP1 POP JUMP JUMPDEST PUSH3 0xE9B DUP2 PUSH3 0x12E3 JUMP JUMPDEST DUP3 MSTORE POP POP JUMP JUMPDEST PUSH3 0xEAC DUP2 PUSH3 0x12CF JUMP JUMPDEST DUP3 MSTORE POP POP JUMP JUMPDEST PUSH1 0x0 PUSH3 0xEBF DUP3 PUSH3 0x1210 JUMP JUMPDEST PUSH3 0xECB DUP2 DUP6 PUSH3 0x121B JUMP JUMPDEST SWAP4 POP PUSH3 0xEDD DUP2 DUP6 PUSH1 0x20 DUP7 ADD PUSH3 0x132D JUMP JUMPDEST DUP1 DUP5 ADD SWAP2 POP POP SWAP3 SWAP2 POP POP JUMP JUMPDEST PUSH1 0x0 PUSH3 0xEF8 PUSH1 0x25 DUP4 PUSH3 0x1226 JUMP JUMPDEST SWAP2 POP PUSH3 0xF05 DUP3 PUSH3 0x14CE JUMP JUMPDEST PUSH1 0x40 DUP3 ADD SWAP1 POP SWAP2 SWAP1 POP JUMP JUMPDEST PUSH1 0x0 PUSH3 0xF1F PUSH1 0xE DUP4 PUSH3 0x1226 JUMP JUMPDEST SWAP2 POP PUSH3 0xF2C DUP3 PUSH3 0x151D JUMP JUMPDEST PUSH1 0x20 DUP3 ADD SWAP1 POP SWAP2 SWAP1 POP JUMP JUMPDEST PUSH1 0x0 PUSH3 0xF46 PUSH1 0x1D DUP4 PUSH3 0x1226 JUMP JUMPDEST SWAP2 POP PUSH3 0xF53 DUP3 PUSH3 0x1546 JUMP JUMPDEST PUSH1 0x20 DUP3 ADD SWAP1 POP SWAP2 SWAP1 POP JUMP JUMPDEST PUSH1 0x0 PUSH3 0xF6D PUSH1 0x12 DUP4 PUSH3 0x1226 JUMP JUMPDEST SWAP2 POP PUSH3 0xF7A DUP3 PUSH3 0x156F JUMP JUMPDEST PUSH1 0x20 DUP3 ADD SWAP1 POP SWAP2 SWAP1 POP JUMP JUMPDEST PUSH1 0x0 PUSH3 0xF94 PUSH1 0xF DUP4 PUSH3 0x1226 JUMP JUMPDEST SWAP2 POP PUSH3 0xFA1 DUP3 PUSH3 0x1598 JUMP JUMPDEST PUSH1 0x20 DUP3 ADD SWAP1 POP SWAP2 SWAP1 POP JUMP JUMPDEST PUSH1 0x0 PUSH3 0xFBB PUSH1 0x18 DUP4 PUSH3 0x1226 JUMP JUMPDEST SWAP2 POP PUSH3 0xFC8 DUP3 PUSH3 0x15C1 JUMP JUMPDEST PUSH1 0x20 DUP3 ADD SWAP1 POP SWAP2 SWAP1 POP JUMP JUMPDEST PUSH3 0xFDE DUP2 PUSH3 0x1323 JUMP JUMPDEST DUP3 MSTORE POP POP JUMP JUMPDEST PUSH1 0x0 PUSH3 0xFF2 DUP3 DUP5 PUSH3 0xEB2 JUMP JUMPDEST SWAP2 POP DUP2 SWAP1 POP SWAP3 SWAP2 POP POP JUMP JUMPDEST PUSH1 0x0 PUSH1 0x20 DUP3 ADD SWAP1 POP PUSH3 0x1014 PUSH1 0x0 DUP4 ADD DUP5 PUSH3 0xEA1 JUMP JUMPDEST SWAP3 SWAP2 POP POP JUMP JUMPDEST PUSH1 0x0 PUSH1 0x20 DUP3 ADD SWAP1 POP PUSH3 0x1031 PUSH1 0x0 DUP4 ADD DUP5 PUSH3 0xE90 JUMP JUMPDEST SWAP3 SWAP2 POP POP JUMP JUMPDEST PUSH1 0x0 PUSH1 0x40 DUP3 ADD SWAP1 POP PUSH3 0x104E PUSH1 0x0 DUP4 ADD DUP6 PUSH3 0xEA1 JUMP JUMPDEST PUSH3 0x105D PUSH1 0x20 DUP4 ADD DUP5 PUSH3 0xFD3 JUMP JUMPDEST SWAP4 SWAP3 POP POP POP JUMP JUMPDEST PUSH1 0x0 PUSH1 0x20 DUP3 ADD SWAP1 POP DUP2 DUP2 SUB PUSH1 0x0 DUP4 ADD MSTORE PUSH3 0x107F DUP2 PUSH3 0xEE9 JUMP JUMPDEST SWAP1 POP SWAP2 SWAP1 POP JUMP JUMPDEST PUSH1 0x0 PUSH1 0x20 DUP3 ADD SWAP1 POP DUP2 DUP2 SUB PUSH1 0x0 DUP4 ADD MSTORE PUSH3 0x10A1 DUP2 PUSH3 0xF10 JUMP JUMPDEST SWAP1 POP SWAP2 SWAP1 POP JUMP JUMPDEST PUSH1 0x0 PUSH1 0x20 DUP3 ADD SWAP1 POP DUP2 DUP2 SUB PUSH1 0x0 DUP4 ADD MSTORE PUSH3 0x10C3 DUP2 PUSH3 0xF37 JUMP JUMPDEST SWAP1 POP SWAP2 SWAP1 POP JUMP JUMPDEST PUSH1 0x0 PUSH1 0x20 DUP3 ADD SWAP1 POP DUP2 DUP2 SUB PUSH1 0x0 DUP4 ADD MSTORE PUSH3 0x10E5 DUP2 PUSH3 0xF5E JUMP JUMPDEST SWAP1 POP SWAP2 SWAP1 POP JUMP JUMPDEST PUSH1 0x0 PUSH1 0x20 DUP3 ADD SWAP1 POP DUP2 DUP2 SUB PUSH1 0x0 DUP4 ADD MSTORE PUSH3 0x1107 DUP2 PUSH3 0xF85 JUMP JUMPDEST SWAP1 POP SWAP2 SWAP1 POP JUMP JUMPDEST PUSH1 0x0 PUSH1 0x40 DUP3 ADD SWAP1 POP DUP2 DUP2 SUB PUSH1 0x0 DUP4 ADD MSTORE PUSH3 0x1129 DUP2 PUSH3 0xFAC JUMP JUMPDEST SWAP1 POP PUSH3 0x113A PUSH1 0x20 DUP4 ADD DUP5 PUSH3 0xEA1 JUMP JUMPDEST SWAP3 SWAP2 POP POP JUMP JUMPDEST PUSH1 0x0 PUSH1 0x20 DUP3 ADD SWAP1 POP PUSH3 0x1157 PUSH1 0x0 DUP4 ADD DUP5 PUSH3 0xFD3 JUMP JUMPDEST SWAP3 SWAP2 POP POP JUMP JUMPDEST PUSH1 0x0 PUSH1 0x40 DUP3 ADD SWAP1 POP PUSH3 0x1174 PUSH1 0x0 DUP4 ADD DUP6 PUSH3 0xFD3 JUMP JUMPDEST PUSH3 0x1183 PUSH1 0x20 DUP4 ADD DUP5 PUSH3 0xEA1 JUMP JUMPDEST SWAP4 SWAP3 POP POP POP JUMP JUMPDEST PUSH1 0x0 PUSH1 0xA0 DUP3 ADD SWAP1 POP PUSH3 0x11A1 PUSH1 0x0 DUP4 ADD DUP9 PUSH3 0xFD3 JUMP JUMPDEST PUSH3 0x11B0 PUSH1 0x20 DUP4 ADD DUP8 PUSH3 0xEA1 JUMP JUMPDEST PUSH3 0x11BF PUSH1 0x40 DUP4 ADD DUP7 PUSH3 0xEA1 JUMP JUMPDEST PUSH3 0x11CE PUSH1 0x60 DUP4 ADD DUP6 PUSH3 0xFD3 JUMP JUMPDEST PUSH3 0x11DD PUSH1 0x80 DUP4 ADD DUP5 PUSH3 0xFD3 JUMP JUMPDEST SWAP7 SWAP6 POP POP POP POP POP POP JUMP JUMPDEST PUSH1 0x0 PUSH3 0x11F3 PUSH3 0x1206 JUMP JUMPDEST SWAP1 POP PUSH3 0x1201 DUP3 DUP3 PUSH3 0x1363 JUMP JUMPDEST SWAP2 SWAP1 POP JUMP JUMPDEST PUSH1 0x0 PUSH1 0x40 MLOAD SWAP1 POP SWAP1 JUMP JUMPDEST PUSH1 0x0 DUP2 MLOAD SWAP1 POP SWAP2 SWAP1 POP JUMP JUMPDEST PUSH1 0x0 DUP2 SWAP1 POP SWAP3 SWAP2 POP POP JUMP JUMPDEST PUSH1 0x0 DUP3 DUP3 MSTORE PUSH1 0x20 DUP3 ADD SWAP1 POP SWAP3 SWAP2 POP POP JUMP JUMPDEST PUSH1 0x0 PUSH3 0x1244 DUP3 PUSH3 0x1323 JUMP JUMPDEST SWAP2 POP PUSH3 0x1251 DUP4 PUSH3 0x1323 JUMP JUMPDEST SWAP3 POP DUP3 PUSH32 0xFFFFFFFFFFFFFFFFFFFFFFFFFFFFFFFFFFFFFFFFFFFFFFFFFFFFFFFFFFFFFFFF SUB DUP3 GT ISZERO PUSH3 0x1289 JUMPI PUSH3 0x1288 PUSH3 0x13C8 JUMP JUMPDEST JUMPDEST DUP3 DUP3 ADD SWAP1 POP SWAP3 SWAP2 POP POP JUMP JUMPDEST PUSH1 0x0 PUSH3 0x12A1 DUP3 PUSH3 0x1323 JUMP JUMPDEST SWAP2 POP PUSH3 0x12AE DUP4 PUSH3 0x1323 JUMP JUMPDEST SWAP3 POP DUP3 DUP3 LT ISZERO PUSH3 0x12C4 JUMPI PUSH3 0x12C3 PUSH3 0x13C8 JUMP JUMPDEST JUMPDEST DUP3 DUP3 SUB SWAP1 POP SWAP3 SWAP2 POP POP JUMP JUMPDEST PUSH1 0x0 PUSH3 0x12DC DUP3 PUSH3 0x1303 JUMP JUMPDEST SWAP1 POP SWAP2 SWAP1 POP JUMP JUMPDEST PUSH1 0x0 PUSH3 0x12F0 DUP3 PUSH3 0x1303 JUMP JUMPDEST SWAP1 POP SWAP2 SWAP1 POP JUMP JUMPDEST PUSH1 0x0 DUP2 ISZERO ISZERO SWAP1 POP SWAP2 SWAP1 POP JUMP JUMPDEST PUSH1 0x0 PUSH20 0xFFFFFFFFFFFFFFFFFFFFFFFFFFFFFFFFFFFFFFFF DUP3 AND SWAP1 POP SWAP2 SWAP1 POP JUMP JUMPDEST PUSH1 0x0 DUP2 SWAP1 POP SWAP2 SWAP1 POP JUMP JUMPDEST PUSH1 0x0 JUMPDEST DUP4 DUP2 LT ISZERO PUSH3 0x134D JUMPI DUP1 DUP3 ADD MLOAD DUP2 DUP5 ADD MSTORE PUSH1 0x20 DUP2 ADD SWAP1 POP PUSH3 0x1330 JUMP JUMPDEST DUP4 DUP2 GT ISZERO PUSH3 0x135D JUMPI PUSH1 0x0 DUP5 DUP5 ADD MSTORE JUMPDEST POP POP POP POP JUMP JUMPDEST PUSH3 0x136E DUP3 PUSH3 0x14BD JUMP JUMPDEST DUP2 ADD DUP2 DUP2 LT PUSH8 0xFFFFFFFFFFFFFFFF DUP3 GT OR ISZERO PUSH3 0x1390 JUMPI PUSH3 0x138F PUSH3 0x1484 JUMP JUMPDEST JUMPDEST DUP1 PUSH1 0x40 MSTORE POP POP POP JUMP JUMPDEST PUSH32 0x4E487B7100000000000000000000000000000000000000000000000000000000 PUSH1 0x0 MSTORE PUSH1 0x1 PUSH1 0x4 MSTORE PUSH1 0x24 PUSH1 0x0 REVERT JUMPDEST PUSH32 0x4E487B7100000000000000000000000000000000000000000000000000000000 PUSH1 0x0 MSTORE PUSH1 0x11 PUSH1 0x4 MSTORE PUSH1 0x24 PUSH1 0x0 REVERT JUMPDEST PUSH32 0x4E487B7100000000000000000000000000000000000000000000000000000000 PUSH1 0x0 MSTORE PUSH1 0x21 PUSH1 0x4 MSTORE PUSH1 0x24 PUSH1 0x0 REVERT JUMPDEST PUSH32 0x4E487B7100000000000000000000000000000000000000000000000000000000 PUSH1 0x0 MSTORE PUSH1 0x31 PUSH1 0x4 MSTORE PUSH1 0x24 PUSH1 0x0 REVERT JUMPDEST PUSH32 0x4E487B7100000000000000000000000000000000000000000000000000000000 PUSH1 0x0 MSTORE PUSH1 0x32 PUSH1 0x4 MSTORE PUSH1 0x24 PUSH1 0x0 REVERT JUMPDEST PUSH32 0x4E487B7100000000000000000000000000000000000000000000000000000000 PUSH1 0x0 MSTORE PUSH1 0x41 PUSH1 0x4 MSTORE PUSH1 0x24 PUSH1 0x0 REVERT JUMPDEST PUSH1 0x0 DUP1 REVERT JUMPDEST PUSH1 0x0 DUP1 REVERT JUMPDEST PUSH1 0x0 PUSH1 0x1F NOT PUSH1 0x1F DUP4 ADD AND SWAP1 POP SWAP2 SWAP1 POP JUMP JUMPDEST PUSH32 0x4E4654206E6F74207472616E7366657272656420746F20736D61727420636F6E PUSH1 0x0 DUP3 ADD MSTORE PUSH32 0x7472616374000000000000000000000000000000000000000000000000000000 PUSH1 0x20 DUP3 ADD MSTORE POP JUMP JUMPDEST PUSH32 0x47617465206E6F74206F776E6564000000000000000000000000000000000000 PUSH1 0x0 DUP3 ADD MSTORE POP JUMP JUMPDEST PUSH32 0x4E465420636F6E7472616374206861736E277420726573706F6E646564000000 PUSH1 0x0 DUP3 ADD MSTORE POP JUMP JUMPDEST PUSH32 0x537562737472616374696F6E206661696C640000000000000000000000000000 PUSH1 0x0 DUP3 ADD MSTORE POP JUMP JUMPDEST PUSH32 0x4164646974696F6E206661696C65640000000000000000000000000000000000 PUSH1 0x0 DUP3 ADD MSTORE POP JUMP JUMPDEST PUSH32 0x5573657220636F6E747261637420637265617465642061740000000000000000 PUSH1 0x0 DUP3 ADD MSTORE POP JUMP JUMPDEST PUSH3 0x15F5 DUP2 PUSH3 0x12CF JUMP JUMPDEST DUP2 EQ PUSH3 0x1601 JUMPI PUSH1 0x0 DUP1 REVERT JUMPDEST POP JUMP JUMPDEST PUSH3 0x160F DUP2 PUSH3 0x12E3 JUMP JUMPDEST DUP2 EQ PUSH3 0x161B JUMPI PUSH1 0x0 DUP1 REVERT JUMPDEST POP JUMP JUMPDEST PUSH3 0x1629 DUP2 PUSH3 0x12F7 JUMP JUMPDEST DUP2 EQ PUSH3 0x1635 JUMPI PUSH1 0x0 DUP1 REVERT JUMPDEST POP JUMP JUMPDEST PUSH1 0x2 DUP2 LT PUSH3 0x1646 JUMPI PUSH1 0x0 DUP1 REVERT JUMPDEST POP JUMP JUMPDEST PUSH1 0x3 DUP2 LT PUSH3 0x1657 JUMPI PUSH1 0x0 DUP1 REVERT JUMPDEST POP JUMP JUMPDEST PUSH3 0x1665 DUP2 PUSH3 0x1323 JUMP JUMPDEST DUP2 EQ PUSH3 0x1671 JUMPI PUSH1 0x0 DUP1 REVERT JUMPDEST POP JUMP INVALID PUSH1 0x80 PUSH1 0x40 MSTORE CALLVALUE DUP1 ISZERO PUSH3 0x11 JUMPI PUSH1 0x0 DUP1 REVERT JUMPDEST POP PUSH1 0x40 MLOAD PUSH3 0x1C89 CODESIZE SUB DUP1 PUSH3 0x1C89 DUP4 CODECOPY DUP2 DUP2 ADD PUSH1 0x40 MSTORE DUP2 ADD SWAP1 PUSH3 0x37 SWAP2 SWAP1 PUSH3 0x186 JUMP JUMPDEST PUSH32 0xA224651DB1C118154A1C45F82025442A97ACADB5DB9E887D7098AA23E98FA10D PUSH1 0x40 MLOAD PUSH3 0x66 SWAP1 PUSH3 0x235 JUMP JUMPDEST PUSH1 0x40 MLOAD DUP1 SWAP2 SUB SWAP1 LOG1 DUP3 PUSH1 0x0 DUP1 PUSH2 0x100 EXP DUP2 SLOAD DUP2 PUSH20 0xFFFFFFFFFFFFFFFFFFFFFFFFFFFFFFFFFFFFFFFF MUL NOT AND SWAP1 DUP4 PUSH20 0xFFFFFFFFFFFFFFFFFFFFFFFFFFFFFFFFFFFFFFFF AND MUL OR SWAP1 SSTORE POP DUP4 PUSH1 0x1 PUSH1 0x0 PUSH2 0x100 EXP DUP2 SLOAD DUP2 PUSH20 0xFFFFFFFFFFFFFFFFFFFFFFFFFFFFFFFFFFFFFFFF MUL NOT AND SWAP1 DUP4 PUSH20 0xFFFFFFFFFFFFFFFFFFFFFFFFFFFFFFFFFFFFFFFF AND MUL OR SWAP1 SSTORE POP DUP5 PUSH1 0x2 DUP2 SWAP1 SSTORE POP PUSH1 0x0 PUSH1 0x5 PUSH1 0x0 PUSH2 0x100 EXP DUP2 SLOAD DUP2 PUSH1 0xFF MUL NOT AND SWAP1 DUP4 PUSH1 0x3 DUP2 GT ISZERO PUSH3 0x11F JUMPI PUSH3 0x11E PUSH3 0x2A6 JUMP JUMPDEST JUMPDEST MUL OR SWAP1 SSTORE POP DUP2 PUSH1 0x6 DUP2 SWAP1 SSTORE POP DUP1 PUSH1 0xA DUP2 SWAP1 SSTORE POP PUSH1 0x1 PUSH1 0xC PUSH1 0x0 PUSH2 0x100 EXP DUP2 SLOAD DUP2 PUSH1 0xFF MUL NOT AND SWAP1 DUP4 ISZERO ISZERO MUL OR SWAP1 SSTORE POP POP POP POP POP POP PUSH3 0x337 JUMP JUMPDEST PUSH1 0x0 DUP2 MLOAD SWAP1 POP PUSH3 0x169 DUP2 PUSH3 0x303 JUMP JUMPDEST SWAP3 SWAP2 POP POP JUMP JUMPDEST PUSH1 0x0 DUP2 MLOAD SWAP1 POP PUSH3 0x180 DUP2 PUSH3 0x31D JUMP JUMPDEST SWAP3 SWAP2 POP POP JUMP JUMPDEST PUSH1 0x0 DUP1 PUSH1 0x0 DUP1 PUSH1 0x0 PUSH1 0xA0 DUP7 DUP9 SUB SLT ISZERO PUSH3 0x1A5 JUMPI PUSH3 0x1A4 PUSH3 0x2D5 JUMP JUMPDEST JUMPDEST PUSH1 0x0 PUSH3 0x1B5 DUP9 DUP3 DUP10 ADD PUSH3 0x16F JUMP JUMPDEST SWAP6 POP POP PUSH1 0x20 PUSH3 0x1C8 DUP9 DUP3 DUP10 ADD PUSH3 0x158 JUMP JUMPDEST SWAP5 POP POP PUSH1 0x40 PUSH3 0x1DB DUP9 DUP3 DUP10 ADD PUSH3 0x158 JUMP JUMPDEST SWAP4 POP POP PUSH1 0x60 PUSH3 0x1EE DUP9 DUP3 DUP10 ADD PUSH3 0x16F JUMP JUMPDEST SWAP3 POP POP PUSH1 0x80 PUSH3 0x201 DUP9 DUP3 DUP10 ADD PUSH3 0x16F JUMP JUMPDEST SWAP2 POP POP SWAP3 SWAP6 POP SWAP3 SWAP6 SWAP1 SWAP4 POP JUMP JUMPDEST PUSH1 0x0 PUSH3 0x21D PUSH1 0x1C DUP4 PUSH3 0x257 JUMP JUMPDEST SWAP2 POP PUSH3 0x22A DUP3 PUSH3 0x2DA JUMP JUMPDEST PUSH1 0x20 DUP3 ADD SWAP1 POP SWAP2 SWAP1 POP JUMP JUMPDEST PUSH1 0x0 PUSH1 0x20 DUP3 ADD SWAP1 POP DUP2 DUP2 SUB PUSH1 0x0 DUP4 ADD MSTORE PUSH3 0x250 DUP2 PUSH3 0x20E JUMP JUMPDEST SWAP1 POP SWAP2 SWAP1 POP JUMP JUMPDEST PUSH1 0x0 DUP3 DUP3 MSTORE PUSH1 0x20 DUP3 ADD SWAP1 POP SWAP3 SWAP2 POP POP JUMP JUMPDEST PUSH1 0x0 PUSH3 0x275 DUP3 PUSH3 0x27C JUMP JUMPDEST SWAP1 POP SWAP2 SWAP1 POP JUMP JUMPDEST PUSH1 0x0 PUSH20 0xFFFFFFFFFFFFFFFFFFFFFFFFFFFFFFFFFFFFFFFF DUP3 AND SWAP1 POP SWAP2 SWAP1 POP JUMP JUMPDEST PUSH1 0x0 DUP2 SWAP1 POP SWAP2 SWAP1 POP JUMP JUMPDEST PUSH32 0x4E487B7100000000000000000000000000000000000000000000000000000000 PUSH1 0x0 MSTORE PUSH1 0x21 PUSH1 0x4 MSTORE PUSH1 0x24 PUSH1 0x0 REVERT JUMPDEST PUSH1 0x0 DUP1 REVERT JUMPDEST PUSH32 0x41206368696C64206A757374206F70656E656420697473206579657300000000 PUSH1 0x0 DUP3 ADD MSTORE POP JUMP JUMPDEST PUSH3 0x30E DUP2 PUSH3 0x268 JUMP JUMPDEST DUP2 EQ PUSH3 0x31A JUMPI PUSH1 0x0 DUP1 REVERT JUMPDEST POP JUMP JUMPDEST PUSH3 0x328 DUP2 PUSH3 0x29C JUMP JUMPDEST DUP2 EQ PUSH3 0x334 JUMPI PUSH1 0x0 DUP1 REVERT JUMPDEST POP JUMP JUMPDEST PUSH2 0x1942 DUP1 PUSH3 0x347 PUSH1 0x0 CODECOPY PUSH1 0x0 RETURN INVALID PUSH1 0x80 PUSH1 0x40 MSTORE PUSH1 0x4 CALLDATASIZE LT PUSH2 0xA0 JUMPI PUSH1 0x0 CALLDATALOAD PUSH1 0xE0 SHR DUP1 PUSH4 0x9F0C592E GT PUSH2 0x64 JUMPI DUP1 PUSH4 0x9F0C592E EQ PUSH2 0x144 JUMPI DUP1 PUSH4 0xA6601F2E EQ PUSH2 0x181 JUMPI DUP1 PUSH4 0xAE0ABA8C EQ PUSH2 0x198 JUMPI DUP1 PUSH4 0xC19D93FB EQ PUSH2 0x1A2 JUMPI DUP1 PUSH4 0xCA11BE69 EQ PUSH2 0x1CD JUMPI DUP1 PUSH4 0xD12ABD8A EQ PUSH2 0x1F6 JUMPI PUSH2 0xA7 JUMP JUMPDEST DUP1 PUSH4 0x7CC692F EQ PUSH2 0xA9 JUMPI DUP1 PUSH4 0xC08BF88 EQ PUSH2 0xD4 JUMPI DUP1 PUSH4 0x3B7104F2 EQ PUSH2 0xEB JUMPI DUP1 PUSH4 0x78706079 EQ PUSH2 0x102 JUMPI DUP1 PUSH4 0x804D6B38 EQ PUSH2 0x12D JUMPI PUSH2 0xA7 JUMP JUMPDEST CALLDATASIZE PUSH2 0xA7 JUMPI STOP JUMPDEST STOP JUMPDEST CALLVALUE DUP1 ISZERO PUSH2 0xB5 JUMPI PUSH1 0x0 DUP1 REVERT JUMPDEST POP PUSH2 0xBE PUSH2 0x20D JUMP JUMPDEST PUSH1 0x40 MLOAD PUSH2 0xCB SWAP2 SWAP1 PUSH2 0x14C4 JUMP JUMPDEST PUSH1 0x40 MLOAD DUP1 SWAP2 SUB SWAP1 RETURN JUMPDEST CALLVALUE DUP1 ISZERO PUSH2 0xE0 JUMPI PUSH1 0x0 DUP1 REVERT JUMPDEST POP PUSH2 0xE9 PUSH2 0x22B JUMP JUMPDEST STOP JUMPDEST CALLVALUE DUP1 ISZERO PUSH2 0xF7 JUMPI PUSH1 0x0 DUP1 REVERT JUMPDEST POP PUSH2 0x100 PUSH2 0x50F JUMP JUMPDEST STOP JUMPDEST CALLVALUE DUP1 ISZERO PUSH2 0x10E JUMPI PUSH1 0x0 DUP1 REVERT JUMPDEST POP PUSH2 0x117 PUSH2 0x511 JUMP JUMPDEST PUSH1 0x40 MLOAD PUSH2 0x124 SWAP2 SWAP1 PUSH2 0x14C4 JUMP JUMPDEST PUSH1 0x40 MLOAD DUP1 SWAP2 SUB SWAP1 RETURN JUMPDEST CALLVALUE DUP1 ISZERO PUSH2 0x139 JUMPI PUSH1 0x0 DUP1 REVERT JUMPDEST POP PUSH2 0x142 PUSH2 0x517 JUMP JUMPDEST STOP JUMPDEST CALLVALUE DUP1 ISZERO PUSH2 0x150 JUMPI PUSH1 0x0 DUP1 REVERT JUMPDEST POP PUSH2 0x16B PUSH1 0x4 DUP1 CALLDATASIZE SUB DUP2 ADD SWAP1 PUSH2 0x166 SWAP2 SWAP1 PUSH2 0x1147 JUMP JUMPDEST PUSH2 0x71A JUMP JUMPDEST PUSH1 0x40 MLOAD PUSH2 0x178 SWAP2 SWAP1 PUSH2 0x134E JUMP JUMPDEST PUSH1 0x40 MLOAD DUP1 SWAP2 SUB SWAP1 RETURN JUMPDEST CALLVALUE DUP1 ISZERO PUSH2 0x18D JUMPI PUSH1 0x0 DUP1 REVERT JUMPDEST POP PUSH2 0x196 PUSH2 0xA53 JUMP JUMPDEST STOP JUMPDEST PUSH2 0x1A0 PUSH2 0xBB0 JUMP JUMPDEST STOP JUMPDEST CALLVALUE DUP1 ISZERO PUSH2 0x1AE JUMPI PUSH1 0x0 DUP1 REVERT JUMPDEST POP PUSH2 0x1B7 PUSH2 0xD04 JUMP JUMPDEST PUSH1 0x40 MLOAD PUSH2 0x1C4 SWAP2 SWAP1 PUSH2 0x1369 JUMP JUMPDEST PUSH1 0x40 MLOAD DUP1 SWAP2 SUB SWAP1 RETURN JUMPDEST CALLVALUE DUP1 ISZERO PUSH2 0x1D9 JUMPI PUSH1 0x0 DUP1 REVERT JUMPDEST POP PUSH2 0x1F4 PUSH1 0x4 DUP1 CALLDATASIZE SUB DUP2 ADD SWAP1 PUSH2 0x1EF SWAP2 SWAP1 PUSH2 0x1147 JUMP JUMPDEST PUSH2 0xD17 JUMP JUMPDEST STOP JUMPDEST CALLVALUE DUP1 ISZERO PUSH2 0x202 JUMPI PUSH1 0x0 DUP1 REVERT JUMPDEST POP PUSH2 0x20B PUSH2 0xE53 JUMP JUMPDEST STOP JUMPDEST PUSH1 0x0 PUSH2 0x226 PUSH1 0x7 SLOAD PUSH1 0x6 SLOAD PUSH2 0x1056 SWAP1 SWAP2 SWAP1 PUSH4 0xFFFFFFFF AND JUMP JUMPDEST SWAP1 POP SWAP1 JUMP JUMPDEST PUSH1 0x0 DUP1 SLOAD SWAP1 PUSH2 0x100 EXP SWAP1 DIV PUSH20 0xFFFFFFFFFFFFFFFFFFFFFFFFFFFFFFFFFFFFFFFF AND PUSH20 0xFFFFFFFFFFFFFFFFFFFFFFFFFFFFFFFFFFFFFFFF AND CALLER PUSH20 0xFFFFFFFFFFFFFFFFFFFFFFFFFFFFFFFFFFFFFFFF AND EQ DUP1 PUSH2 0x2D2 JUMPI POP PUSH1 0x1 PUSH1 0x0 SWAP1 SLOAD SWAP1 PUSH2 0x100 EXP SWAP1 DIV PUSH20 0xFFFFFFFFFFFFFFFFFFFFFFFFFFFFFFFFFFFFFFFF AND PUSH20 0xFFFFFFFFFFFFFFFFFFFFFFFFFFFFFFFFFFFFFFFF AND CALLER PUSH20 0xFFFFFFFFFFFFFFFFFFFFFFFFFFFFFFFFFFFFFFFF AND EQ JUMPDEST PUSH2 0x311 JUMPI PUSH1 0x40 MLOAD PUSH32 0x8C379A000000000000000000000000000000000000000000000000000000000 DUP2 MSTORE PUSH1 0x4 ADD PUSH2 0x308 SWAP1 PUSH2 0x13A4 JUMP JUMPDEST PUSH1 0x40 MLOAD DUP1 SWAP2 SUB SWAP1 REVERT JUMPDEST PUSH1 0x1 PUSH1 0x3 DUP2 GT ISZERO PUSH2 0x325 JUMPI PUSH2 0x324 PUSH2 0x164D JUMP JUMPDEST JUMPDEST PUSH1 0x5 PUSH1 0x0 SWAP1 SLOAD SWAP1 PUSH2 0x100 EXP SWAP1 DIV PUSH1 0xFF AND PUSH1 0x3 DUP2 GT ISZERO PUSH2 0x347 JUMPI PUSH2 0x346 PUSH2 0x164D JUMP JUMPDEST JUMPDEST EQ DUP1 PUSH2 0x354 JUMPI POP PUSH1 0x2 SLOAD TIMESTAMP GT JUMPDEST ISZERO PUSH2 0x3B6 JUMPI PUSH1 0x1 PUSH1 0x5 PUSH1 0x0 PUSH2 0x100 EXP DUP2 SLOAD DUP2 PUSH1 0xFF MUL NOT AND SWAP1 DUP4 PUSH1 0x3 DUP2 GT ISZERO PUSH2 0x37F JUMPI PUSH2 0x37E PUSH2 0x164D JUMP JUMPDEST JUMPDEST MUL OR SWAP1 SSTORE POP PUSH1 0x40 MLOAD PUSH32 0x203D82D800000000000000000000000000000000000000000000000000000000 DUP2 MSTORE PUSH1 0x4 ADD PUSH1 0x40 MLOAD DUP1 SWAP2 SUB SWAP1 REVERT JUMPDEST PUSH1 0x2 PUSH1 0x3 DUP2 GT ISZERO PUSH2 0x3CA JUMPI PUSH2 0x3C9 PUSH2 0x164D JUMP JUMPDEST JUMPDEST PUSH1 0x5 PUSH1 0x0 SWAP1 SLOAD SWAP1 PUSH2 0x100 EXP SWAP1 DIV PUSH1 0xFF AND PUSH1 0x3 DUP2 GT ISZERO PUSH2 0x3EC JUMPI PUSH2 0x3EB PUSH2 0x164D JUMP JUMPDEST JUMPDEST EQ PUSH2 0x42C JUMPI PUSH1 0x40 MLOAD PUSH32 0x8C379A000000000000000000000000000000000000000000000000000000000 DUP2 MSTORE PUSH1 0x4 ADD PUSH2 0x423 SWAP1 PUSH2 0x1384 JUMP JUMPDEST PUSH1 0x40 MLOAD DUP1 SWAP2 SUB SWAP1 REVERT JUMPDEST PUSH1 0x0 PUSH1 0x7 SLOAD EQ PUSH2 0x471 JUMPI PUSH1 0x40 MLOAD PUSH32 0x8C379A000000000000000000000000000000000000000000000000000000000 DUP2 MSTORE PUSH1 0x4 ADD PUSH2 0x468 SWAP1 PUSH2 0x1424 JUMP JUMPDEST PUSH1 0x40 MLOAD DUP1 SWAP2 SUB SWAP1 REVERT JUMPDEST PUSH1 0x0 PUSH1 0xB SLOAD EQ PUSH2 0x4B6 JUMPI PUSH1 0x40 MLOAD PUSH32 0x8C379A000000000000000000000000000000000000000000000000000000000 DUP2 MSTORE PUSH1 0x4 ADD PUSH2 0x4AD SWAP1 PUSH2 0x1444 JUMP JUMPDEST PUSH1 0x40 MLOAD DUP1 SWAP2 SUB SWAP1 REVERT JUMPDEST PUSH1 0x3 PUSH1 0x5 PUSH1 0x0 PUSH2 0x100 EXP DUP2 SLOAD DUP2 PUSH1 0xFF MUL NOT AND SWAP1 DUP4 PUSH1 0x3 DUP2 GT ISZERO PUSH2 0x4DC JUMPI PUSH2 0x4DB PUSH2 0x164D JUMP JUMPDEST JUMPDEST MUL OR SWAP1 SSTORE POP PUSH32 0x6D0D90585834980BD0E5603341FF50B06349C11E0BF9241D03F6D065F12A262B PUSH1 0x40 MLOAD PUSH1 0x40 MLOAD DUP1 SWAP2 SUB SWAP1 LOG1 JUMP JUMPDEST JUMP JUMPDEST PUSH1 0x2 SLOAD DUP2 JUMP JUMPDEST PUSH1 0x0 DUP1 SLOAD SWAP1 PUSH2 0x100 EXP SWAP1 DIV PUSH20 0xFFFFFFFFFFFFFFFFFFFFFFFFFFFFFFFFFFFFFFFF AND PUSH20 0xFFFFFFFFFFFFFFFFFFFFFFFFFFFFFFFFFFFFFFFF AND CALLER PUSH20 0xFFFFFFFFFFFFFFFFFFFFFFFFFFFFFFFFFFFFFFFF AND EQ DUP1 PUSH2 0x5BE JUMPI POP PUSH1 0x1 PUSH1 0x0 SWAP1 SLOAD SWAP1 PUSH2 0x100 EXP SWAP1 DIV PUSH20 0xFFFFFFFFFFFFFFFFFFFFFFFFFFFFFFFFFFFFFFFF AND PUSH20 0xFFFFFFFFFFFFFFFFFFFFFFFFFFFFFFFFFFFFFFFF AND CALLER PUSH20 0xFFFFFFFFFFFFFFFFFFFFFFFFFFFFFFFFFFFFFFFF AND EQ JUMPDEST PUSH2 0x5FD JUMPI PUSH1 0x40 MLOAD PUSH32 0x8C379A000000000000000000000000000000000000000000000000000000000 DUP2 MSTORE PUSH1 0x4 ADD PUSH2 0x5F4 SWAP1 PUSH2 0x13A4 JUMP JUMPDEST PUSH1 0x40 MLOAD DUP1 SWAP2 SUB SWAP1 REVERT JUMPDEST PUSH1 0x1 PUSH1 0x3 DUP2 GT ISZERO PUSH2 0x611 JUMPI PUSH2 0x610 PUSH2 0x164D JUMP JUMPDEST JUMPDEST PUSH1 0x5 PUSH1 0x0 SWAP1 SLOAD SWAP1 PUSH2 0x100 EXP SWAP1 DIV PUSH1 0xFF AND PUSH1 0x3 DUP2 GT ISZERO PUSH2 0x633 JUMPI PUSH2 0x632 PUSH2 0x164D JUMP JUMPDEST JUMPDEST EQ DUP1 PUSH2 0x640 JUMPI POP PUSH1 0x2 SLOAD TIMESTAMP GT JUMPDEST ISZERO PUSH2 0x6A2 JUMPI PUSH1 0x1 PUSH1 0x5 PUSH1 0x0 PUSH2 0x100 EXP DUP2 SLOAD DUP2 PUSH1 0xFF MUL NOT AND SWAP1 DUP4 PUSH1 0x3 DUP2 GT ISZERO PUSH2 0x66B JUMPI PUSH2 0x66A PUSH2 0x164D JUMP JUMPDEST JUMPDEST MUL OR SWAP1 SSTORE POP PUSH1 0x40 MLOAD PUSH32 0x203D82D800000000000000000000000000000000000000000000000000000000 DUP2 MSTORE PUSH1 0x4 ADD PUSH1 0x40 MLOAD DUP1 SWAP2 SUB SWAP1 REVERT JUMPDEST PUSH1 0x2 PUSH1 0x3 DUP2 GT ISZERO PUSH2 0x6B6 JUMPI PUSH2 0x6B5 PUSH2 0x164D JUMP JUMPDEST JUMPDEST PUSH1 0x5 PUSH1 0x0 SWAP1 SLOAD SWAP1 PUSH2 0x100 EXP SWAP1 DIV PUSH1 0xFF AND PUSH1 0x3 DUP2 GT ISZERO PUSH2 0x6D8 JUMPI PUSH2 0x6D7 PUSH2 0x164D JUMP JUMPDEST JUMPDEST EQ PUSH2 0x718 JUMPI PUSH1 0x40 MLOAD PUSH32 0x8C379A000000000000000000000000000000000000000000000000000000000 DUP2 MSTORE PUSH1 0x4 ADD PUSH2 0x70F SWAP1 PUSH2 0x1384 JUMP JUMPDEST PUSH1 0x40 MLOAD DUP1 SWAP2 SUB SWAP1 REVERT JUMPDEST JUMP JUMPDEST PUSH1 0x0 DUP1 PUSH1 0x0 SWAP1 SLOAD SWAP1 PUSH2 0x100 EXP SWAP1 DIV PUSH20 0xFFFFFFFFFFFFFFFFFFFFFFFFFFFFFFFFFFFFFFFF AND PUSH20 0xFFFFFFFFFFFFFFFFFFFFFFFFFFFFFFFFFFFFFFFF AND CALLER PUSH20 0xFFFFFFFFFFFFFFFFFFFFFFFFFFFFFFFFFFFFFFFF AND EQ DUP1 PUSH2 0x7C4 JUMPI POP PUSH1 0x1 PUSH1 0x0 SWAP1 SLOAD SWAP1 PUSH2 0x100 EXP SWAP1 DIV PUSH20 0xFFFFFFFFFFFFFFFFFFFFFFFFFFFFFFFFFFFFFFFF AND PUSH20 0xFFFFFFFFFFFFFFFFFFFFFFFFFFFFFFFFFFFFFFFF AND CALLER PUSH20 0xFFFFFFFFFFFFFFFFFFFFFFFFFFFFFFFFFFFFFFFF AND EQ JUMPDEST PUSH2 0x803 JUMPI PUSH1 0x40 MLOAD PUSH32 0x8C379A000000000000000000000000000000000000000000000000000000000 DUP2 MSTORE PUSH1 0x4 ADD PUSH2 0x7FA SWAP1 PUSH2 0x13A4 JUMP JUMPDEST PUSH1 0x40 MLOAD DUP1 SWAP2 SUB SWAP1 REVERT JUMPDEST PUSH1 0x1 PUSH1 0x3 DUP2 GT ISZERO PUSH2 0x817 JUMPI PUSH2 0x816 PUSH2 0x164D JUMP JUMPDEST JUMPDEST PUSH1 0x5 PUSH1 0x0 SWAP1 SLOAD SWAP1 PUSH2 0x100 EXP SWAP1 DIV PUSH1 0xFF AND PUSH1 0x3 DUP2 GT ISZERO PUSH2 0x839 JUMPI PUSH2 0x838 PUSH2 0x164D JUMP JUMPDEST JUMPDEST EQ DUP1 PUSH2 0x846 JUMPI POP PUSH1 0x2 SLOAD TIMESTAMP GT JUMPDEST ISZERO PUSH2 0x8A8 JUMPI PUSH1 0x1 PUSH1 0x5 PUSH1 0x0 PUSH2 0x100 EXP DUP2 SLOAD DUP2 PUSH1 0xFF MUL NOT AND SWAP1 DUP4 PUSH1 0x3 DUP2 GT ISZERO PUSH2 0x871 JUMPI PUSH2 0x870 PUSH2 0x164D JUMP JUMPDEST JUMPDEST MUL OR SWAP1 SSTORE POP PUSH1 0x40 MLOAD PUSH32 0x203D82D800000000000000000000000000000000000000000000000000000000 DUP2 MSTORE PUSH1 0x4 ADD PUSH1 0x40 MLOAD DUP1 SWAP2 SUB SWAP1 REVERT JUMPDEST PUSH1 0x2 PUSH1 0x3 DUP2 GT ISZERO PUSH2 0x8BC JUMPI PUSH2 0x8BB PUSH2 0x164D JUMP JUMPDEST JUMPDEST PUSH1 0x5 PUSH1 0x0 SWAP1 SLOAD SWAP1 PUSH2 0x100 EXP SWAP1 DIV PUSH1 0xFF AND PUSH1 0x3 DUP2 GT ISZERO PUSH2 0x8DE JUMPI PUSH2 0x8DD PUSH2 0x164D JUMP JUMPDEST JUMPDEST EQ PUSH2 0x91E JUMPI PUSH1 0x40 MLOAD PUSH32 0x8C379A000000000000000000000000000000000000000000000000000000000 DUP2 MSTORE PUSH1 0x4 ADD PUSH2 0x915 SWAP1 PUSH2 0x1384 JUMP JUMPDEST PUSH1 0x40 MLOAD DUP1 SWAP2 SUB SWAP1 REVERT JUMPDEST PUSH2 0x926 PUSH2 0x50F JUMP JUMPDEST PUSH2 0x92E PUSH2 0x20D JUMP JUMPDEST DUP3 GT ISZERO PUSH2 0x970 JUMPI PUSH1 0x40 MLOAD PUSH32 0x8C379A000000000000000000000000000000000000000000000000000000000 DUP2 MSTORE PUSH1 0x4 ADD PUSH2 0x967 SWAP1 PUSH2 0x14A4 JUMP JUMPDEST PUSH1 0x40 MLOAD DUP1 SWAP2 SUB SWAP1 REVERT JUMPDEST PUSH1 0x0 PUSH1 0x3 PUSH1 0x0 SWAP1 SLOAD SWAP1 PUSH2 0x100 EXP SWAP1 DIV PUSH20 0xFFFFFFFFFFFFFFFFFFFFFFFFFFFFFFFFFFFFFFFF AND PUSH20 0xFFFFFFFFFFFFFFFFFFFFFFFFFFFFFFFFFFFFFFFF AND PUSH4 0xBC134AE3 PUSH1 0x4 SLOAD DUP7 DUP7 PUSH1 0x40 MLOAD DUP5 PUSH4 0xFFFFFFFF AND PUSH1 0xE0 SHL DUP2 MSTORE PUSH1 0x4 ADD PUSH2 0x9D3 SWAP4 SWAP3 SWAP2 SWAP1 PUSH2 0x14DF JUMP JUMPDEST PUSH1 0x20 PUSH1 0x40 MLOAD DUP1 DUP4 SUB DUP2 PUSH1 0x0 DUP8 DUP1 EXTCODESIZE ISZERO DUP1 ISZERO PUSH2 0x9ED JUMPI PUSH1 0x0 DUP1 REVERT JUMPDEST POP GAS CALL ISZERO DUP1 ISZERO PUSH2 0xA01 JUMPI RETURNDATASIZE PUSH1 0x0 DUP1 RETURNDATACOPY RETURNDATASIZE PUSH1 0x0 REVERT JUMPDEST POP POP POP POP PUSH1 0x40 MLOAD RETURNDATASIZE PUSH1 0x1F NOT PUSH1 0x1F DUP3 ADD AND DUP3 ADD DUP1 PUSH1 0x40 MSTORE POP DUP2 ADD SWAP1 PUSH2 0xA25 SWAP2 SWAP1 PUSH2 0x1187 JUMP JUMPDEST SWAP1 POP DUP1 ISZERO PUSH2 0xA49 JUMPI PUSH2 0xA42 DUP4 PUSH1 0x7 SLOAD PUSH2 0x10AF SWAP1 SWAP2 SWAP1 PUSH4 0xFFFFFFFF AND JUMP JUMPDEST PUSH1 0x7 DUP2 SWAP1 SSTORE POP JUMPDEST DUP1 SWAP2 POP POP SWAP3 SWAP2 POP POP JUMP JUMPDEST PUSH1 0x0 DUP1 SLOAD SWAP1 PUSH2 0x100 EXP SWAP1 DIV PUSH20 0xFFFFFFFFFFFFFFFFFFFFFFFFFFFFFFFFFFFFFFFF AND PUSH20 0xFFFFFFFFFFFFFFFFFFFFFFFFFFFFFFFFFFFFFFFF AND CALLER PUSH20 0xFFFFFFFFFFFFFFFFFFFFFFFFFFFFFFFFFFFFFFFF AND EQ PUSH2 0xAE1 JUMPI PUSH1 0x40 MLOAD PUSH32 0x8C379A000000000000000000000000000000000000000000000000000000000 DUP2 MSTORE PUSH1 0x4 ADD PUSH2 0xAD8 SWAP1 PUSH2 0x1484 JUMP JUMPDEST PUSH1 0x40 MLOAD DUP1 SWAP2 SUB SWAP1 REVERT JUMPDEST PUSH1 0x2 PUSH1 0x3 DUP2 GT ISZERO PUSH2 0xAF5 JUMPI PUSH2 0xAF4 PUSH2 0x164D JUMP JUMPDEST JUMPDEST PUSH1 0x5 PUSH1 0x0 SWAP1 SLOAD SWAP1 PUSH2 0x100 EXP SWAP1 DIV PUSH1 0xFF AND PUSH1 0x3 DUP2 GT ISZERO PUSH2 0xB17 JUMPI PUSH2 0xB16 PUSH2 0x164D JUMP JUMPDEST JUMPDEST EQ PUSH2 0xB57 JUMPI PUSH1 0x40 MLOAD PUSH32 0x8C379A000000000000000000000000000000000000000000000000000000000 DUP2 MSTORE PUSH1 0x4 ADD PUSH2 0xB4E SWAP1 PUSH2 0x1384 JUMP JUMPDEST PUSH1 0x40 MLOAD DUP1 SWAP2 SUB SWAP1 REVERT JUMPDEST PUSH1 0x0 PUSH1 0xB SLOAD SWAP1 POP PUSH1 0x0 PUSH1 0xB DUP2 SWAP1 SSTORE POP CALLER PUSH20 0xFFFFFFFFFFFFFFFFFFFFFFFFFFFFFFFFFFFFFFFF AND PUSH2 0x8FC DUP3 SWAP1 DUP2 ISZERO MUL SWAP1 PUSH1 0x40 MLOAD PUSH1 0x0 PUSH1 0x40 MLOAD DUP1 DUP4 SUB DUP2 DUP6 DUP9 DUP9 CALL SWAP4 POP POP POP POP ISZERO DUP1 ISZERO PUSH2 0xBAC JUMPI RETURNDATASIZE PUSH1 0x0 DUP1 RETURNDATACOPY RETURNDATASIZE PUSH1 0x0 REVERT JUMPDEST POP POP JUMP JUMPDEST PUSH1 0x0 DUP1 SLOAD SWAP1 PUSH2 0x100 EXP SWAP1 DIV PUSH20 0xFFFFFFFFFFFFFFFFFFFFFFFFFFFFFFFFFFFFFFFF AND PUSH20 0xFFFFFFFFFFFFFFFFFFFFFFFFFFFFFFFFFFFFFFFF AND CALLER PUSH20 0xFFFFFFFFFFFFFFFFFFFFFFFFFFFFFFFFFFFFFFFF AND EQ PUSH2 0xC3E JUMPI PUSH1 0x40 MLOAD PUSH32 0x8C379A000000000000000000000000000000000000000000000000000000000 DUP2 MSTORE PUSH1 0x4 ADD PUSH2 0xC35 SWAP1 PUSH2 0x1484 JUMP JUMPDEST PUSH1 0x40 MLOAD DUP1 SWAP2 SUB SWAP1 REVERT JUMPDEST PUSH1 0x2 PUSH1 0x3 DUP2 GT ISZERO PUSH2 0xC52 JUMPI PUSH2 0xC51 PUSH2 0x164D JUMP JUMPDEST JUMPDEST PUSH1 0x5 PUSH1 0x0 SWAP1 SLOAD SWAP1 PUSH2 0x100 EXP SWAP1 DIV PUSH1 0xFF AND PUSH1 0x3 DUP2 GT ISZERO PUSH2 0xC74 JUMPI PUSH2 0xC73 PUSH2 0x164D JUMP JUMPDEST JUMPDEST EQ PUSH2 0xCB4 JUMPI PUSH1 0x40 MLOAD PUSH32 0x8C379A000000000000000000000000000000000000000000000000000000000 DUP2 MSTORE PUSH1 0x4 ADD PUSH2 0xCAB SWAP1 PUSH2 0x1384 JUMP JUMPDEST PUSH1 0x40 MLOAD DUP1 SWAP2 SUB SWAP1 REVERT JUMPDEST PUSH1 0x7 SLOAD CALLVALUE GT ISZERO PUSH2 0xCE6 JUMPI PUSH2 0xCD3 PUSH1 0x7 SLOAD CALLVALUE PUSH2 0x1056 SWAP1 SWAP2 SWAP1 PUSH4 0xFFFFFFFF AND JUMP JUMPDEST PUSH1 0xB DUP2 SWAP1 SSTORE POP PUSH1 0x0 PUSH1 0x7 DUP2 SWAP1 SSTORE POP PUSH2 0xD02 JUMP JUMPDEST PUSH2 0xCFB CALLVALUE PUSH1 0x7 SLOAD PUSH2 0x1056 SWAP1 SWAP2 SWAP1 PUSH4 0xFFFFFFFF AND JUMP JUMPDEST PUSH1 0x7 DUP2 SWAP1 SSTORE POP JUMPDEST JUMP JUMPDEST PUSH1 0x5 PUSH1 0x0 SWAP1 SLOAD SWAP1 PUSH2 0x100 EXP SWAP1 DIV PUSH1 0xFF AND DUP2 JUMP JUMPDEST PUSH1 0x1 PUSH1 0x0 SWAP1 SLOAD SWAP1 PUSH2 0x100 EXP SWAP1 DIV PUSH20 0xFFFFFFFFFFFFFFFFFFFFFFFFFFFFFFFFFFFFFFFF AND PUSH20 0xFFFFFFFFFFFFFFFFFFFFFFFFFFFFFFFFFFFFFFFF AND CALLER PUSH20 0xFFFFFFFFFFFFFFFFFFFFFFFFFFFFFFFFFFFFFFFF AND EQ PUSH2 0xDA7 JUMPI PUSH1 0x40 MLOAD PUSH32 0x8C379A000000000000000000000000000000000000000000000000000000000 DUP2 MSTORE PUSH1 0x4 ADD PUSH2 0xD9E SWAP1 PUSH2 0x13C4 JUMP JUMPDEST PUSH1 0x40 MLOAD DUP1 SWAP2 SUB SWAP1 REVERT JUMPDEST DUP2 PUSH1 0x3 PUSH1 0x0 PUSH2 0x100 EXP DUP2 SLOAD DUP2 PUSH20 0xFFFFFFFFFFFFFFFFFFFFFFFFFFFFFFFFFFFFFFFF MUL NOT AND SWAP1 DUP4 PUSH20 0xFFFFFFFFFFFFFFFFFFFFFFFFFFFFFFFFFFFFFFFF AND MUL OR SWAP1 SSTORE POP DUP1 PUSH1 0x4 DUP2 SWAP1 SSTORE POP PUSH1 0x2 PUSH1 0x5 PUSH1 0x0 PUSH2 0x100 EXP DUP2 SLOAD DUP2 PUSH1 0xFF MUL NOT AND SWAP1 DUP4 PUSH1 0x3 DUP2 GT ISZERO PUSH2 0xE15 JUMPI PUSH2 0xE14 PUSH2 0x164D JUMP JUMPDEST JUMPDEST MUL OR SWAP1 SSTORE POP PUSH32 0xA224651DB1C118154A1C45F82025442A97ACADB5DB9E887D7098AA23E98FA10D PUSH1 0x40 MLOAD PUSH2 0xE47 SWAP1 PUSH2 0x1464 JUMP JUMPDEST PUSH1 0x40 MLOAD DUP1 SWAP2 SUB SWAP1 LOG1 POP POP JUMP JUMPDEST PUSH1 0x0 DUP1 SLOAD SWAP1 PUSH2 0x100 EXP SWAP1 DIV PUSH20 0xFFFFFFFFFFFFFFFFFFFFFFFFFFFFFFFFFFFFFFFF AND PUSH20 0xFFFFFFFFFFFFFFFFFFFFFFFFFFFFFFFFFFFFFFFF AND CALLER PUSH20 0xFFFFFFFFFFFFFFFFFFFFFFFFFFFFFFFFFFFFFFFF AND EQ DUP1 PUSH2 0xEFA JUMPI POP PUSH1 0x1 PUSH1 0x0 SWAP1 SLOAD SWAP1 PUSH2 0x100 EXP SWAP1 DIV PUSH20 0xFFFFFFFFFFFFFFFFFFFFFFFFFFFFFFFFFFFFFFFF AND PUSH20 0xFFFFFFFFFFFFFFFFFFFFFFFFFFFFFFFFFFFFFFFF AND CALLER PUSH20 0xFFFFFFFFFFFFFFFFFFFFFFFFFFFFFFFFFFFFFFFF AND EQ JUMPDEST PUSH2 0xF39 JUMPI PUSH1 0x40 MLOAD PUSH32 0x8C379A000000000000000000000000000000000000000000000000000000000 DUP2 MSTORE PUSH1 0x4 ADD PUSH2 0xF30 SWAP1 PUSH2 0x13A4 JUMP JUMPDEST PUSH1 0x40 MLOAD DUP1 SWAP2 SUB SWAP1 REVERT JUMPDEST PUSH1 0x1 PUSH1 0x3 DUP2 GT ISZERO PUSH2 0xF4D JUMPI PUSH2 0xF4C PUSH2 0x164D JUMP JUMPDEST JUMPDEST PUSH1 0x5 PUSH1 0x0 SWAP1 SLOAD SWAP1 PUSH2 0x100 EXP SWAP1 DIV PUSH1 0xFF AND PUSH1 0x3 DUP2 GT ISZERO PUSH2 0xF6F JUMPI PUSH2 0xF6E PUSH2 0x164D JUMP JUMPDEST JUMPDEST EQ DUP1 PUSH2 0xF7C JUMPI POP PUSH1 0x2 SLOAD TIMESTAMP GT JUMPDEST ISZERO PUSH2 0xFDE JUMPI PUSH1 0x1 PUSH1 0x5 PUSH1 0x0 PUSH2 0x100 EXP DUP2 SLOAD DUP2 PUSH1 0xFF MUL NOT AND SWAP1 DUP4 PUSH1 0x3 DUP2 GT ISZERO PUSH2 0xFA7 JUMPI PUSH2 0xFA6 PUSH2 0x164D JUMP JUMPDEST JUMPDEST MUL OR SWAP1 SSTORE POP PUSH1 0x40 MLOAD PUSH32 0x203D82D800000000000000000000000000000000000000000000000000000000 DUP2 MSTORE PUSH1 0x4 ADD PUSH1 0x40 MLOAD DUP1 SWAP2 SUB SWAP1 REVERT JUMPDEST PUSH1 0x2 PUSH1 0x3 DUP2 GT ISZERO PUSH2 0xFF2 JUMPI PUSH2 0xFF1 PUSH2 0x164D JUMP JUMPDEST JUMPDEST PUSH1 0x5 PUSH1 0x0 SWAP1 SLOAD SWAP1 PUSH2 0x100 EXP SWAP1 DIV PUSH1 0xFF AND PUSH1 0x3 DUP2 GT ISZERO PUSH2 0x1014 JUMPI PUSH2 0x1013 PUSH2 0x164D JUMP JUMPDEST JUMPDEST EQ PUSH2 0x1054 JUMPI PUSH1 0x40 MLOAD PUSH32 0x8C379A000000000000000000000000000000000000000000000000000000000 DUP2 MSTORE PUSH1 0x4 ADD PUSH2 0x104B SWAP1 PUSH2 0x1384 JUMP JUMPDEST PUSH1 0x40 MLOAD DUP1 SWAP2 SUB SWAP1 REVERT JUMPDEST JUMP JUMPDEST PUSH1 0x0 DUP3 DUP3 GT ISZERO PUSH2 0x109B JUMPI PUSH1 0x40 MLOAD PUSH32 0x8C379A000000000000000000000000000000000000000000000000000000000 DUP2 MSTORE PUSH1 0x4 ADD PUSH2 0x1092 SWAP1 PUSH2 0x13E4 JUMP JUMPDEST PUSH1 0x40 MLOAD DUP1 SWAP2 SUB SWAP1 REVERT JUMPDEST DUP2 DUP4 PUSH2 0x10A7 SWAP2 SWAP1 PUSH2 0x157D JUMP JUMPDEST SWAP1 POP SWAP3 SWAP2 POP POP JUMP JUMPDEST PUSH1 0x0 DUP2 DUP4 PUSH2 0x10BD SWAP2 SWAP1 PUSH2 0x1527 JUMP JUMPDEST SWAP1 POP DUP3 DUP2 LT ISZERO PUSH2 0x1102 JUMPI PUSH1 0x40 MLOAD PUSH32 0x8C379A000000000000000000000000000000000000000000000000000000000 DUP2 MSTORE PUSH1 0x4 ADD PUSH2 0x10F9 SWAP1 PUSH2 0x1404 JUMP JUMPDEST PUSH1 0x40 MLOAD DUP1 SWAP2 SUB SWAP1 REVERT JUMPDEST SWAP3 SWAP2 POP POP JUMP JUMPDEST PUSH1 0x0 DUP2 CALLDATALOAD SWAP1 POP PUSH2 0x1117 DUP2 PUSH2 0x18C7 JUMP JUMPDEST SWAP3 SWAP2 POP POP JUMP JUMPDEST PUSH1 0x0 DUP2 MLOAD SWAP1 POP PUSH2 0x112C DUP2 PUSH2 0x18DE JUMP JUMPDEST SWAP3 SWAP2 POP POP JUMP JUMPDEST PUSH1 0x0 DUP2 CALLDATALOAD SWAP1 POP PUSH2 0x1141 DUP2 PUSH2 0x18F5 JUMP JUMPDEST SWAP3 SWAP2 POP POP JUMP JUMPDEST PUSH1 0x0 DUP1 PUSH1 0x40 DUP4 DUP6 SUB SLT ISZERO PUSH2 0x115E JUMPI PUSH2 0x115D PUSH2 0x167C JUMP JUMPDEST JUMPDEST PUSH1 0x0 PUSH2 0x116C DUP6 DUP3 DUP7 ADD PUSH2 0x1108 JUMP JUMPDEST SWAP3 POP POP PUSH1 0x20 PUSH2 0x117D DUP6 DUP3 DUP7 ADD PUSH2 0x1132 JUMP JUMPDEST SWAP2 POP POP SWAP3 POP SWAP3 SWAP1 POP JUMP JUMPDEST PUSH1 0x0 PUSH1 0x20 DUP3 DUP5 SUB SLT ISZERO PUSH2 0x119D JUMPI PUSH2 0x119C PUSH2 0x167C JUMP JUMPDEST JUMPDEST PUSH1 0x0 PUSH2 0x11AB DUP5 DUP3 DUP6 ADD PUSH2 0x111D JUMP JUMPDEST SWAP2 POP POP SWAP3 SWAP2 POP POP JUMP JUMPDEST PUSH2 0x11BD DUP2 PUSH2 0x15B1 JUMP JUMPDEST DUP3 MSTORE POP POP JUMP JUMPDEST PUSH2 0x11CC DUP2 PUSH2 0x15C3 JUMP JUMPDEST DUP3 MSTORE POP POP JUMP JUMPDEST PUSH2 0x11DB DUP2 PUSH2 0x160C JUMP JUMPDEST DUP3 MSTORE POP POP JUMP JUMPDEST PUSH1 0x0 PUSH2 0x11EE PUSH1 0x1B DUP4 PUSH2 0x1516 JUMP JUMPDEST SWAP2 POP PUSH2 0x11F9 DUP3 PUSH2 0x1681 JUMP JUMPDEST PUSH1 0x20 DUP3 ADD SWAP1 POP SWAP2 SWAP1 POP JUMP JUMPDEST PUSH1 0x0 PUSH2 0x1211 PUSH1 0x11 DUP4 PUSH2 0x1516 JUMP JUMPDEST SWAP2 POP PUSH2 0x121C DUP3 PUSH2 0x16AA JUMP JUMPDEST PUSH1 0x20 DUP3 ADD SWAP1 POP SWAP2 SWAP1 POP JUMP JUMPDEST PUSH1 0x0 PUSH2 0x1234 PUSH1 0x22 DUP4 PUSH2 0x1516 JUMP JUMPDEST SWAP2 POP PUSH2 0x123F DUP3 PUSH2 0x16D3 JUMP JUMPDEST PUSH1 0x40 DUP3 ADD SWAP1 POP SWAP2 SWAP1 POP JUMP JUMPDEST PUSH1 0x0 PUSH2 0x1257 PUSH1 0x12 DUP4 PUSH2 0x1516 JUMP JUMPDEST SWAP2 POP PUSH2 0x1262 DUP3 PUSH2 0x1722 JUMP JUMPDEST PUSH1 0x20 DUP3 ADD SWAP1 POP SWAP2 SWAP1 POP JUMP JUMPDEST PUSH1 0x0 PUSH2 0x127A PUSH1 0xF DUP4 PUSH2 0x1516 JUMP JUMPDEST SWAP2 POP PUSH2 0x1285 DUP3 PUSH2 0x174B JUMP JUMPDEST PUSH1 0x20 DUP3 ADD SWAP1 POP SWAP2 SWAP1 POP JUMP JUMPDEST PUSH1 0x0 PUSH2 0x129D PUSH1 0x2B DUP4 PUSH2 0x1516 JUMP JUMPDEST SWAP2 POP PUSH2 0x12A8 DUP3 PUSH2 0x1774 JUMP JUMPDEST PUSH1 0x40 DUP3 ADD SWAP1 POP SWAP2 SWAP1 POP JUMP JUMPDEST PUSH1 0x0 PUSH2 0x12C0 PUSH1 0x30 DUP4 PUSH2 0x1516 JUMP JUMPDEST SWAP2 POP PUSH2 0x12CB DUP3 PUSH2 0x17C3 JUMP JUMPDEST PUSH1 0x40 DUP3 ADD SWAP1 POP SWAP2 SWAP1 POP JUMP JUMPDEST PUSH1 0x0 PUSH2 0x12E3 PUSH1 0x12 DUP4 PUSH2 0x1516 JUMP JUMPDEST SWAP2 POP PUSH2 0x12EE DUP3 PUSH2 0x1812 JUMP JUMPDEST PUSH1 0x20 DUP3 ADD SWAP1 POP SWAP2 SWAP1 POP JUMP JUMPDEST PUSH1 0x0 PUSH2 0x1306 PUSH1 0x20 DUP4 PUSH2 0x1516 JUMP JUMPDEST SWAP2 POP PUSH2 0x1311 DUP3 PUSH2 0x183B JUMP JUMPDEST PUSH1 0x20 DUP3 ADD SWAP1 POP SWAP2 SWAP1 POP JUMP JUMPDEST PUSH1 0x0 PUSH2 0x1329 PUSH1 0x22 DUP4 PUSH2 0x1516 JUMP JUMPDEST SWAP2 POP PUSH2 0x1334 DUP3 PUSH2 0x1864 JUMP JUMPDEST PUSH1 0x40 DUP3 ADD SWAP1 POP SWAP2 SWAP1 POP JUMP JUMPDEST PUSH2 0x1348 DUP2 PUSH2 0x1602 JUMP JUMPDEST DUP3 MSTORE POP POP JUMP JUMPDEST PUSH1 0x0 PUSH1 0x20 DUP3 ADD SWAP1 POP PUSH2 0x1363 PUSH1 0x0 DUP4 ADD DUP5 PUSH2 0x11C3 JUMP JUMPDEST SWAP3 SWAP2 POP POP JUMP JUMPDEST PUSH1 0x0 PUSH1 0x20 DUP3 ADD SWAP1 POP PUSH2 0x137E PUSH1 0x0 DUP4 ADD DUP5 PUSH2 0x11D2 JUMP JUMPDEST SWAP3 SWAP2 POP POP JUMP JUMPDEST PUSH1 0x0 PUSH1 0x20 DUP3 ADD SWAP1 POP DUP2 DUP2 SUB PUSH1 0x0 DUP4 ADD MSTORE PUSH2 0x139D DUP2 PUSH2 0x11E1 JUMP JUMPDEST SWAP1 POP SWAP2 SWAP1 POP JUMP JUMPDEST PUSH1 0x0 PUSH1 0x20 DUP3 ADD SWAP1 POP DUP2 DUP2 SUB PUSH1 0x0 DUP4 ADD MSTORE PUSH2 0x13BD DUP2 PUSH2 0x1204 JUMP JUMPDEST SWAP1 POP SWAP2 SWAP1 POP JUMP JUMPDEST PUSH1 0x0 PUSH1 0x20 DUP3 ADD SWAP1 POP DUP2 DUP2 SUB PUSH1 0x0 DUP4 ADD MSTORE PUSH2 0x13DD DUP2 PUSH2 0x1227 JUMP JUMPDEST SWAP1 POP SWAP2 SWAP1 POP JUMP JUMPDEST PUSH1 0x0 PUSH1 0x20 DUP3 ADD SWAP1 POP DUP2 DUP2 SUB PUSH1 0x0 DUP4 ADD MSTORE PUSH2 0x13FD DUP2 PUSH2 0x124A JUMP JUMPDEST SWAP1 POP SWAP2 SWAP1 POP JUMP JUMPDEST PUSH1 0x0 PUSH1 0x20 DUP3 ADD SWAP1 POP DUP2 DUP2 SUB PUSH1 0x0 DUP4 ADD MSTORE PUSH2 0x141D DUP2 PUSH2 0x126D JUMP JUMPDEST SWAP1 POP SWAP2 SWAP1 POP JUMP JUMPDEST PUSH1 0x0 PUSH1 0x20 DUP3 ADD SWAP1 POP DUP2 DUP2 SUB PUSH1 0x0 DUP4 ADD MSTORE PUSH2 0x143D DUP2 PUSH2 0x1290 JUMP JUMPDEST SWAP1 POP SWAP2 SWAP1 POP JUMP JUMPDEST PUSH1 0x0 PUSH1 0x20 DUP3 ADD SWAP1 POP DUP2 DUP2 SUB PUSH1 0x0 DUP4 ADD MSTORE PUSH2 0x145D DUP2 PUSH2 0x12B3 JUMP JUMPDEST SWAP1 POP SWAP2 SWAP1 POP JUMP JUMPDEST PUSH1 0x0 PUSH1 0x20 DUP3 ADD SWAP1 POP DUP2 DUP2 SUB PUSH1 0x0 DUP4 ADD MSTORE PUSH2 0x147D DUP2 PUSH2 0x12D6 JUMP JUMPDEST SWAP1 POP SWAP2 SWAP1 POP JUMP JUMPDEST PUSH1 0x0 PUSH1 0x20 DUP3 ADD SWAP1 POP DUP2 DUP2 SUB PUSH1 0x0 DUP4 ADD MSTORE PUSH2 0x149D DUP2 PUSH2 0x12F9 JUMP JUMPDEST SWAP1 POP SWAP2 SWAP1 POP JUMP JUMPDEST PUSH1 0x0 PUSH1 0x20 DUP3 ADD SWAP1 POP DUP2 DUP2 SUB PUSH1 0x0 DUP4 ADD MSTORE PUSH2 0x14BD DUP2 PUSH2 0x131C JUMP JUMPDEST SWAP1 POP SWAP2 SWAP1 POP JUMP JUMPDEST PUSH1 0x0 PUSH1 0x20 DUP3 ADD SWAP1 POP PUSH2 0x14D9 PUSH1 0x0 DUP4 ADD DUP5 PUSH2 0x133F JUMP JUMPDEST SWAP3 SWAP2 POP POP JUMP JUMPDEST PUSH1 0x0 PUSH1 0x60 DUP3 ADD SWAP1 POP PUSH2 0x14F4 PUSH1 0x0 DUP4 ADD DUP7 PUSH2 0x133F JUMP JUMPDEST PUSH2 0x1501 PUSH1 0x20 DUP4 ADD DUP6 PUSH2 0x11B4 JUMP JUMPDEST PUSH2 0x150E PUSH1 0x40 DUP4 ADD DUP5 PUSH2 0x133F JUMP JUMPDEST SWAP5 SWAP4 POP POP POP POP JUMP JUMPDEST PUSH1 0x0 DUP3 DUP3 MSTORE PUSH1 0x20 DUP3 ADD SWAP1 POP SWAP3 SWAP2 POP POP JUMP JUMPDEST PUSH1 0x0 PUSH2 0x1532 DUP3 PUSH2 0x1602 JUMP JUMPDEST SWAP2 POP PUSH2 0x153D DUP4 PUSH2 0x1602 JUMP JUMPDEST SWAP3 POP DUP3 PUSH32 0xFFFFFFFFFFFFFFFFFFFFFFFFFFFFFFFFFFFFFFFFFFFFFFFFFFFFFFFFFFFFFFFF SUB DUP3 GT ISZERO PUSH2 0x1572 JUMPI PUSH2 0x1571 PUSH2 0x161E JUMP JUMPDEST JUMPDEST DUP3 DUP3 ADD SWAP1 POP SWAP3 SWAP2 POP POP JUMP JUMPDEST PUSH1 0x0 PUSH2 0x1588 DUP3 PUSH2 0x1602 JUMP JUMPDEST SWAP2 POP PUSH2 0x1593 DUP4 PUSH2 0x1602 JUMP JUMPDEST SWAP3 POP DUP3 DUP3 LT ISZERO PUSH2 0x15A6 JUMPI PUSH2 0x15A5 PUSH2 0x161E JUMP JUMPDEST JUMPDEST DUP3 DUP3 SUB SWAP1 POP SWAP3 SWAP2 POP POP JUMP JUMPDEST PUSH1 0x0 PUSH2 0x15BC DUP3 PUSH2 0x15E2 JUMP JUMPDEST SWAP1 POP SWAP2 SWAP1 POP JUMP JUMPDEST PUSH1 0x0 DUP2 ISZERO ISZERO SWAP1 POP SWAP2 SWAP1 POP JUMP JUMPDEST PUSH1 0x0 DUP2 SWAP1 POP PUSH2 0x15DD DUP3 PUSH2 0x18B3 JUMP JUMPDEST SWAP2 SWAP1 POP JUMP JUMPDEST PUSH1 0x0 PUSH20 0xFFFFFFFFFFFFFFFFFFFFFFFFFFFFFFFFFFFFFFFF DUP3 AND SWAP1 POP SWAP2 SWAP1 POP JUMP JUMPDEST PUSH1 0x0 DUP2 SWAP1 POP SWAP2 SWAP1 POP JUMP JUMPDEST PUSH1 0x0 PUSH2 0x1617 DUP3 PUSH2 0x15CF JUMP JUMPDEST SWAP1 POP SWAP2 SWAP1 POP JUMP JUMPDEST PUSH32 0x4E487B7100000000000000000000000000000000000000000000000000000000 PUSH1 0x0 MSTORE PUSH1 0x11 PUSH1 0x4 MSTORE PUSH1 0x24 PUSH1 0x0 REVERT JUMPDEST PUSH32 0x4E487B7100000000000000000000000000000000000000000000000000000000 PUSH1 0x0 MSTORE PUSH1 0x21 PUSH1 0x4 MSTORE PUSH1 0x24 PUSH1 0x0 REVERT JUMPDEST PUSH1 0x0 DUP1 REVERT JUMPDEST PUSH32 0x436F6E74726163742073746174652069736E2774206163746976650000000000 PUSH1 0x0 DUP3 ADD MSTORE POP JUMP JUMPDEST PUSH32 0x556E617574686F72697A65642075736572000000000000000000000000000000 PUSH1 0x0 DUP3 ADD MSTORE POP JUMP JUMPDEST PUSH32 0x4F6E6C7920706172656E742063616E206163636573732074686973206D657468 PUSH1 0x0 DUP3 ADD MSTORE PUSH32 0x6F64000000000000000000000000000000000000000000000000000000000000 PUSH1 0x20 DUP3 ADD MSTORE POP JUMP JUMPDEST PUSH32 0x537562737472616374696F6E206661696C640000000000000000000000000000 PUSH1 0x0 DUP3 ADD MSTORE POP JUMP JUMPDEST PUSH32 0x4164646974696F6E206661696C65640000000000000000000000000000000000 PUSH1 0x0 DUP3 ADD MSTORE POP JUMP JUMPDEST PUSH32 0x42616C616E6365206D7573742062652030206265666F7265207465726D69616E PUSH1 0x0 DUP3 ADD MSTORE PUSH32 0x74696E672061206465616C000000000000000000000000000000000000000000 PUSH1 0x20 DUP3 ADD MSTORE POP JUMP JUMPDEST PUSH32 0x546865726520697320756E77697468647261776D206D6F6E65792E2057697468 PUSH1 0x0 DUP3 ADD MSTORE PUSH32 0x6472617720796F7572206D6F6E65792100000000000000000000000000000000 PUSH1 0x20 DUP3 ADD MSTORE POP JUMP JUMPDEST PUSH32 0x4920616D206E6F77206163746976617465640000000000000000000000000000 PUSH1 0x0 DUP3 ADD MSTORE POP JUMP JUMPDEST PUSH32 0x4F6E6C7920757365722063616E206163636573732074686973206D6574686F64 PUSH1 0x0 DUP3 ADD MSTORE POP JUMP JUMPDEST PUSH32 0x4E6F20617661696C61626C652063726564697420666F72207468697320637963 PUSH1 0x0 DUP3 ADD MSTORE PUSH32 0x6C65000000000000000000000000000000000000000000000000000000000000 PUSH1 0x20 DUP3 ADD MSTORE POP JUMP JUMPDEST PUSH1 0x4 DUP2 LT PUSH2 0x18C4 JUMPI PUSH2 0x18C3 PUSH2 0x164D JUMP JUMPDEST JUMPDEST POP JUMP JUMPDEST PUSH2 0x18D0 DUP2 PUSH2 0x15B1 JUMP JUMPDEST DUP2 EQ PUSH2 0x18DB JUMPI PUSH1 0x0 DUP1 REVERT JUMPDEST POP JUMP JUMPDEST PUSH2 0x18E7 DUP2 PUSH2 0x15C3 JUMP JUMPDEST DUP2 EQ PUSH2 0x18F2 JUMPI PUSH1 0x0 DUP1 REVERT JUMPDEST POP JUMP JUMPDEST PUSH2 0x18FE DUP2 PUSH2 0x1602 JUMP JUMPDEST DUP2 EQ PUSH2 0x1909 JUMPI PUSH1 0x0 DUP1 REVERT JUMPDEST POP JUMP INVALID LOG2 PUSH5 0x6970667358 0x22 SLT KECCAK256 RETURNDATACOPY 0xBB PUSH14 0x3CA2C2DE596E430170768968C2CF MUL SWAP2 0xB1 0xE2 DUP16 SHR SELFDESTRUCT 0xC4 0xB6 0xC3 SWAP6 0xDD 0x4F 0x21 CALLCODE PUSH5 0x736F6C6343 STOP ADDMOD SMOD STOP CALLER PUSH1 0x80 PUSH1 0x40 MSTORE CALLVALUE DUP1 ISZERO PUSH3 0x11 JUMPI PUSH1 0x0 DUP1 REVERT JUMPDEST POP PUSH1 0x40 MLOAD PUSH3 0x1446 CODESIZE SUB DUP1 PUSH3 0x1446 DUP4 CODECOPY DUP2 DUP2 ADD PUSH1 0x40 MSTORE DUP2 ADD SWAP1 PUSH3 0x37 SWAP2 SWAP1 PUSH3 0x151 JUMP JUMPDEST CALLER PUSH1 0x0 DUP1 PUSH2 0x100 EXP DUP2 SLOAD DUP2 PUSH20 0xFFFFFFFFFFFFFFFFFFFFFFFFFFFFFFFFFFFFFFFF MUL NOT AND SWAP1 DUP4 PUSH20 0xFFFFFFFFFFFFFFFFFFFFFFFFFFFFFFFFFFFFFFFF AND MUL OR SWAP1 SSTORE POP DUP2 PUSH1 0x3 DUP2 SWAP1 SSTORE POP DUP1 PUSH1 0x4 PUSH1 0x0 PUSH2 0x100 EXP DUP2 SLOAD DUP2 PUSH20 0xFFFFFFFFFFFFFFFFFFFFFFFFFFFFFFFFFFFFFFFF MUL NOT AND SWAP1 DUP4 PUSH20 0xFFFFFFFFFFFFFFFFFFFFFFFFFFFFFFFFFFFFFFFF AND MUL OR SWAP1 SSTORE POP PUSH32 0x2CCE1494B4EF3C5682648D5C4BBF147548F403FC2AC218E41EC797BABDB0ACB5 PUSH1 0x0 DUP1 SLOAD SWAP1 PUSH2 0x100 EXP SWAP1 DIV PUSH20 0xFFFFFFFFFFFFFFFFFFFFFFFFFFFFFFFFFFFFFFFF AND PUSH1 0x0 PUSH1 0x40 MLOAD PUSH3 0x113 SWAP3 SWAP2 SWAP1 PUSH3 0x1E1 JUMP JUMPDEST PUSH1 0x40 MLOAD DUP1 SWAP2 SUB SWAP1 LOG1 POP POP PUSH3 0x2E8 JUMP JUMPDEST PUSH1 0x0 DUP2 MLOAD SWAP1 POP PUSH3 0x134 DUP2 PUSH3 0x2B4 JUMP JUMPDEST SWAP3 SWAP2 POP POP JUMP JUMPDEST PUSH1 0x0 DUP2 MLOAD SWAP1 POP PUSH3 0x14B DUP2 PUSH3 0x2CE JUMP JUMPDEST SWAP3 SWAP2 POP POP JUMP JUMPDEST PUSH1 0x0 DUP1 PUSH1 0x40 DUP4 DUP6 SUB SLT ISZERO PUSH3 0x16B JUMPI PUSH3 0x16A PUSH3 0x286 JUMP JUMPDEST JUMPDEST PUSH1 0x0 PUSH3 0x17B DUP6 DUP3 DUP7 ADD PUSH3 0x13A JUMP JUMPDEST SWAP3 POP POP PUSH1 0x20 PUSH3 0x18E DUP6 DUP3 DUP7 ADD PUSH3 0x123 JUMP JUMPDEST SWAP2 POP POP SWAP3 POP SWAP3 SWAP1 POP JUMP JUMPDEST PUSH3 0x1A3 DUP2 PUSH3 0x234 JUMP JUMPDEST DUP3 MSTORE POP POP JUMP JUMPDEST PUSH3 0x1B4 DUP2 PUSH3 0x272 JUMP JUMPDEST DUP3 MSTORE POP POP JUMP JUMPDEST PUSH1 0x0 PUSH3 0x1C9 PUSH1 0x1C DUP4 PUSH3 0x223 JUMP JUMPDEST SWAP2 POP PUSH3 0x1D6 DUP3 PUSH3 0x28B JUMP JUMPDEST PUSH1 0x20 DUP3 ADD SWAP1 POP SWAP2 SWAP1 POP JUMP JUMPDEST PUSH1 0x0 PUSH1 0x60 DUP3 ADD SWAP1 POP DUP2 DUP2 SUB PUSH1 0x0 DUP4 ADD MSTORE PUSH3 0x1FC DUP2 PUSH3 0x1BA JUMP JUMPDEST SWAP1 POP PUSH3 0x20D PUSH1 0x20 DUP4 ADD DUP6 PUSH3 0x198 JUMP JUMPDEST PUSH3 0x21C PUSH1 0x40 DUP4 ADD DUP5 PUSH3 0x1A9 JUMP JUMPDEST SWAP4 SWAP3 POP POP POP JUMP JUMPDEST PUSH1 0x0 DUP3 DUP3 MSTORE PUSH1 0x20 DUP3 ADD SWAP1 POP SWAP3 SWAP2 POP POP JUMP JUMPDEST PUSH1 0x0 PUSH3 0x241 DUP3 PUSH3 0x248 JUMP JUMPDEST SWAP1 POP SWAP2 SWAP1 POP JUMP JUMPDEST PUSH1 0x0 PUSH20 0xFFFFFFFFFFFFFFFFFFFFFFFFFFFFFFFFFFFFFFFF DUP3 AND SWAP1 POP SWAP2 SWAP1 POP JUMP JUMPDEST PUSH1 0x0 DUP2 SWAP1 POP SWAP2 SWAP1 POP JUMP JUMPDEST PUSH1 0x0 PUSH3 0x27F DUP3 PUSH3 0x268 JUMP JUMPDEST SWAP1 POP SWAP2 SWAP1 POP JUMP JUMPDEST PUSH1 0x0 DUP1 REVERT JUMPDEST PUSH32 0x4C656E64696E6720706F6F6C2067617465206372656174656420627900000000 PUSH1 0x0 DUP3 ADD MSTORE POP JUMP JUMPDEST PUSH3 0x2BF DUP2 PUSH3 0x234 JUMP JUMPDEST DUP2 EQ PUSH3 0x2CB JUMPI PUSH1 0x0 DUP1 REVERT JUMPDEST POP JUMP JUMPDEST PUSH3 0x2D9 DUP2 PUSH3 0x268 JUMP JUMPDEST DUP2 EQ PUSH3 0x2E5 JUMPI PUSH1 0x0 DUP1 REVERT JUMPDEST POP JUMP JUMPDEST PUSH2 0x114E DUP1 PUSH3 0x2F8 PUSH1 0x0 CODECOPY PUSH1 0x0 RETURN INVALID PUSH1 0x80 PUSH1 0x40 MSTORE CALLVALUE DUP1 ISZERO PUSH2 0x10 JUMPI PUSH1 0x0 DUP1 REVERT JUMPDEST POP PUSH1 0x4 CALLDATASIZE LT PUSH2 0x7D JUMPI PUSH1 0x0 CALLDATALOAD PUSH1 0xE0 SHR DUP1 PUSH4 0xAC446002 GT PUSH2 0x5B JUMPI DUP1 PUSH4 0xAC446002 EQ PUSH2 0xEF JUMPI DUP1 PUSH4 0xBC134AE3 EQ PUSH2 0xF9 JUMPI DUP1 PUSH4 0xCBC20F30 EQ PUSH2 0x129 JUMPI DUP1 PUSH4 0xF984EAD8 EQ PUSH2 0x145 JUMPI PUSH2 0x7D JUMP JUMPDEST DUP1 PUSH4 0x317549F2 EQ PUSH2 0x82 JUMPI DUP1 PUSH4 0x89F78C8E EQ PUSH2 0xB3 JUMPI DUP1 PUSH4 0x9DC61D4F EQ PUSH2 0xD1 JUMPI JUMPDEST PUSH1 0x0 DUP1 REVERT JUMPDEST PUSH2 0x9C PUSH1 0x4 DUP1 CALLDATASIZE SUB DUP2 ADD SWAP1 PUSH2 0x97 SWAP2 SWAP1 PUSH2 0xA26 JUMP JUMPDEST PUSH2 0x163 JUMP JUMPDEST PUSH1 0x40 MLOAD PUSH2 0xAA SWAP3 SWAP2 SWAP1 PUSH2 0xDD8 JUMP JUMPDEST PUSH1 0x40 MLOAD DUP1 SWAP2 SUB SWAP1 RETURN JUMPDEST PUSH2 0xBB PUSH2 0x46A JUMP JUMPDEST PUSH1 0x40 MLOAD PUSH2 0xC8 SWAP2 SWAP1 PUSH2 0xD94 JUMP JUMPDEST PUSH1 0x40 MLOAD DUP1 SWAP2 SUB SWAP1 RETURN JUMPDEST PUSH2 0xD9 PUSH2 0x470 JUMP JUMPDEST PUSH1 0x40 MLOAD PUSH2 0xE6 SWAP2 SWAP1 PUSH2 0xC27 JUMP JUMPDEST PUSH1 0x40 MLOAD DUP1 SWAP2 SUB SWAP1 RETURN JUMPDEST PUSH2 0xF7 PUSH2 0x494 JUMP JUMPDEST STOP JUMPDEST PUSH2 0x113 PUSH1 0x4 DUP1 CALLDATASIZE SUB DUP2 ADD SWAP1 PUSH2 0x10E SWAP2 SWAP1 PUSH2 0xA80 JUMP JUMPDEST PUSH2 0x567 JUMP JUMPDEST PUSH1 0x40 MLOAD PUSH2 0x120 SWAP2 SWAP1 PUSH2 0xC42 JUMP JUMPDEST PUSH1 0x40 MLOAD DUP1 SWAP2 SUB SWAP1 RETURN JUMPDEST PUSH2 0x143 PUSH1 0x4 DUP1 CALLDATASIZE SUB DUP2 ADD SWAP1 PUSH2 0x13E SWAP2 SWAP1 PUSH2 0xA53 JUMP JUMPDEST PUSH2 0x770 JUMP JUMPDEST STOP JUMPDEST PUSH2 0x14D PUSH2 0x97D JUMP JUMPDEST PUSH1 0x40 MLOAD PUSH2 0x15A SWAP2 SWAP1 PUSH2 0xC5D JUMP JUMPDEST PUSH1 0x40 MLOAD DUP1 SWAP2 SUB SWAP1 RETURN JUMPDEST PUSH1 0x0 DUP1 PUSH1 0x0 DUP1 SLOAD SWAP1 PUSH2 0x100 EXP SWAP1 DIV PUSH20 0xFFFFFFFFFFFFFFFFFFFFFFFFFFFFFFFFFFFFFFFF AND PUSH20 0xFFFFFFFFFFFFFFFFFFFFFFFFFFFFFFFFFFFFFFFF AND CALLER PUSH20 0xFFFFFFFFFFFFFFFFFFFFFFFFFFFFFFFFFFFFFFFF AND EQ PUSH2 0x1F4 JUMPI PUSH1 0x40 MLOAD PUSH32 0x8C379A000000000000000000000000000000000000000000000000000000000 DUP2 MSTORE PUSH1 0x4 ADD PUSH2 0x1EB SWAP1 PUSH2 0xC78 JUMP JUMPDEST PUSH1 0x40 MLOAD DUP1 SWAP2 SUB SWAP1 REVERT JUMPDEST PUSH1 0x3 SLOAD PUSH1 0x1 DUP1 SLOAD SWAP1 POP LT DUP1 PUSH2 0x20F JUMPI POP PUSH1 0x0 PUSH1 0x2 DUP1 SLOAD SWAP1 POP EQ ISZERO JUMPDEST PUSH2 0x24E JUMPI PUSH1 0x40 MLOAD PUSH32 0x8C379A000000000000000000000000000000000000000000000000000000000 DUP2 MSTORE PUSH1 0x4 ADD PUSH2 0x245 SWAP1 PUSH2 0xCB8 JUMP JUMPDEST PUSH1 0x40 MLOAD DUP1 SWAP2 SUB SWAP1 REVERT JUMPDEST PUSH1 0x0 PUSH1 0x2 DUP1 SLOAD SWAP1 POP EQ PUSH2 0x37A JUMPI PUSH1 0x0 PUSH1 0x2 PUSH2 0x278 PUSH1 0x1 PUSH1 0x2 DUP1 SLOAD SWAP1 POP PUSH2 0x9A3 SWAP1 SWAP2 SWAP1 PUSH4 0xFFFFFFFF AND JUMP JUMPDEST DUP2 SLOAD DUP2 LT PUSH2 0x289 JUMPI PUSH2 0x288 PUSH2 0xF22 JUMP JUMPDEST JUMPDEST SWAP1 PUSH1 0x0 MSTORE PUSH1 0x20 PUSH1 0x0 KECCAK256 ADD SLOAD SWAP1 POP DUP4 PUSH1 0x1 DUP3 DUP2 SLOAD DUP2 LT PUSH2 0x2AB JUMPI PUSH2 0x2AA PUSH2 0xF22 JUMP JUMPDEST JUMPDEST SWAP1 PUSH1 0x0 MSTORE PUSH1 0x20 PUSH1 0x0 KECCAK256 ADD PUSH1 0x0 PUSH2 0x100 EXP DUP2 SLOAD DUP2 PUSH20 0xFFFFFFFFFFFFFFFFFFFFFFFFFFFFFFFFFFFFFFFF MUL NOT AND SWAP1 DUP4 PUSH20 0xFFFFFFFFFFFFFFFFFFFFFFFFFFFFFFFFFFFFFFFF AND MUL OR SWAP1 SSTORE POP PUSH1 0x2 DUP1 SLOAD DUP1 PUSH2 0x305 JUMPI PUSH2 0x304 PUSH2 0xEF3 JUMP JUMPDEST JUMPDEST PUSH1 0x1 SWAP1 SUB DUP2 DUP2 SWAP1 PUSH1 0x0 MSTORE PUSH1 0x20 PUSH1 0x0 KECCAK256 ADD PUSH1 0x0 SWAP1 SSTORE SWAP1 SSTORE PUSH32 0x2CCE1494B4EF3C5682648D5C4BBF147548F403FC2AC218E41EC797BABDB0ACB5 DUP5 DUP3 PUSH1 0x40 MLOAD PUSH2 0x34C SWAP3 SWAP2 SWAP1 PUSH2 0xD38 JUMP JUMPDEST PUSH1 0x40 MLOAD DUP1 SWAP2 SUB SWAP1 LOG1 DUP1 PUSH1 0x3 SLOAD PUSH1 0x1 DUP1 SLOAD SWAP1 POP LT DUP1 PUSH2 0x370 JUMPI POP PUSH1 0x0 PUSH1 0x2 DUP1 SLOAD SWAP1 POP EQ ISZERO JUMPDEST SWAP3 POP SWAP3 POP POP PUSH2 0x465 JUMP JUMPDEST PUSH1 0x1 DUP4 SWAP1 DUP1 PUSH1 0x1 DUP2 SLOAD ADD DUP1 DUP3 SSTORE DUP1 SWAP2 POP POP PUSH1 0x1 SWAP1 SUB SWAP1 PUSH1 0x0 MSTORE PUSH1 0x20 PUSH1 0x0 KECCAK256 ADD PUSH1 0x0 SWAP1 SWAP2 SWAP1 SWAP2 SWAP1 SWAP2 PUSH2 0x100 EXP DUP2 SLOAD DUP2 PUSH20 0xFFFFFFFFFFFFFFFFFFFFFFFFFFFFFFFFFFFFFFFF MUL NOT AND SWAP1 DUP4 PUSH20 0xFFFFFFFFFFFFFFFFFFFFFFFFFFFFFFFFFFFFFFFF AND MUL OR SWAP1 SSTORE POP PUSH32 0x2CCE1494B4EF3C5682648D5C4BBF147548F403FC2AC218E41EC797BABDB0ACB5 DUP4 PUSH2 0x417 PUSH1 0x1 DUP1 DUP1 SLOAD SWAP1 POP PUSH2 0x9A3 SWAP1 SWAP2 SWAP1 PUSH4 0xFFFFFFFF AND JUMP JUMPDEST PUSH1 0x40 MLOAD PUSH2 0x425 SWAP3 SWAP2 SWAP1 PUSH2 0xD38 JUMP JUMPDEST PUSH1 0x40 MLOAD DUP1 SWAP2 SUB SWAP1 LOG1 PUSH2 0x445 PUSH1 0x1 DUP1 DUP1 SLOAD SWAP1 POP PUSH2 0x9A3 SWAP1 SWAP2 SWAP1 PUSH4 0xFFFFFFFF AND JUMP JUMPDEST PUSH1 0x3 SLOAD PUSH1 0x1 DUP1 SLOAD SWAP1 POP LT DUP1 PUSH2 0x460 JUMPI POP PUSH1 0x0 PUSH1 0x2 DUP1 SLOAD SWAP1 POP EQ ISZERO JUMPDEST SWAP2 POP SWAP2 POP JUMPDEST SWAP2 POP SWAP2 JUMP JUMPDEST PUSH1 0x3 SLOAD DUP2 JUMP JUMPDEST PUSH1 0x0 DUP1 SLOAD SWAP1 PUSH2 0x100 EXP SWAP1 DIV PUSH20 0xFFFFFFFFFFFFFFFFFFFFFFFFFFFFFFFFFFFFFFFF AND DUP2 JUMP JUMPDEST PUSH1 0x0 PUSH1 0x5 PUSH1 0x0 CALLER PUSH20 0xFFFFFFFFFFFFFFFFFFFFFFFFFFFFFFFFFFFFFFFF AND PUSH20 0xFFFFFFFFFFFFFFFFFFFFFFFFFFFFFFFFFFFFFFFF AND DUP2 MSTORE PUSH1 0x20 ADD SWAP1 DUP2 MSTORE PUSH1 0x20 ADD PUSH1 0x0 KECCAK256 SLOAD SWAP1 POP PUSH1 0x0 PUSH1 0x5 PUSH1 0x0 CALLER PUSH20 0xFFFFFFFFFFFFFFFFFFFFFFFFFFFFFFFFFFFFFFFF AND PUSH20 0xFFFFFFFFFFFFFFFFFFFFFFFFFFFFFFFFFFFFFFFF AND DUP2 MSTORE PUSH1 0x20 ADD SWAP1 DUP2 MSTORE PUSH1 0x20 ADD PUSH1 0x0 KECCAK256 DUP2 SWAP1 SSTORE POP CALLER PUSH20 0xFFFFFFFFFFFFFFFFFFFFFFFFFFFFFFFFFFFFFFFF AND PUSH2 0x8FC DUP3 SWAP1 DUP2 ISZERO MUL SWAP1 PUSH1 0x40 MLOAD PUSH1 0x0 PUSH1 0x40 MLOAD DUP1 DUP4 SUB DUP2 DUP6 DUP9 DUP9 CALL SWAP4 POP POP POP POP ISZERO DUP1 ISZERO PUSH2 0x563 JUMPI RETURNDATASIZE PUSH1 0x0 DUP1 RETURNDATACOPY RETURNDATASIZE PUSH1 0x0 REVERT JUMPDEST POP POP JUMP JUMPDEST PUSH1 0x0 DUP4 PUSH1 0x1 DUP1 SLOAD SWAP1 POP DUP2 LT PUSH2 0x57B JUMPI PUSH1 0x0 DUP1 REVERT JUMPDEST PUSH1 0x0 PUSH20 0xFFFFFFFFFFFFFFFFFFFFFFFFFFFFFFFFFFFFFFFF AND PUSH1 0x1 DUP3 DUP2 SLOAD DUP2 LT PUSH2 0x5A7 JUMPI PUSH2 0x5A6 PUSH2 0xF22 JUMP JUMPDEST JUMPDEST SWAP1 PUSH1 0x0 MSTORE PUSH1 0x20 PUSH1 0x0 KECCAK256 ADD PUSH1 0x0 SWAP1 SLOAD SWAP1 PUSH2 0x100 EXP SWAP1 DIV PUSH20 0xFFFFFFFFFFFFFFFFFFFFFFFFFFFFFFFFFFFFFFFF AND PUSH20 0xFFFFFFFFFFFFFFFFFFFFFFFFFFFFFFFFFFFFFFFF AND EQ ISZERO PUSH2 0x629 JUMPI PUSH1 0x40 MLOAD PUSH32 0x8C379A000000000000000000000000000000000000000000000000000000000 DUP2 MSTORE PUSH1 0x4 ADD PUSH2 0x620 SWAP1 PUSH2 0xD74 JUMP JUMPDEST PUSH1 0x40 MLOAD DUP1 SWAP2 SUB SWAP1 REVERT JUMPDEST PUSH1 0x1 DUP2 DUP2 SLOAD DUP2 LT PUSH2 0x63D JUMPI PUSH2 0x63C PUSH2 0xF22 JUMP JUMPDEST JUMPDEST SWAP1 PUSH1 0x0 MSTORE PUSH1 0x20 PUSH1 0x0 KECCAK256 ADD PUSH1 0x0 SWAP1 SLOAD SWAP1 PUSH2 0x100 EXP SWAP1 DIV PUSH20 0xFFFFFFFFFFFFFFFFFFFFFFFFFFFFFFFFFFFFFFFF AND PUSH20 0xFFFFFFFFFFFFFFFFFFFFFFFFFFFFFFFFFFFFFFFF AND CALLER PUSH20 0xFFFFFFFFFFFFFFFFFFFFFFFFFFFFFFFFFFFFFFFF AND EQ PUSH2 0x6D5 JUMPI PUSH1 0x40 MLOAD PUSH32 0x8C379A000000000000000000000000000000000000000000000000000000000 DUP2 MSTORE PUSH1 0x4 ADD PUSH2 0x6CC SWAP1 PUSH2 0xCD8 JUMP JUMPDEST PUSH1 0x40 MLOAD DUP1 SWAP2 SUB SWAP1 REVERT JUMPDEST PUSH1 0x4 PUSH1 0x0 SWAP1 SLOAD SWAP1 PUSH2 0x100 EXP SWAP1 DIV PUSH20 0xFFFFFFFFFFFFFFFFFFFFFFFFFFFFFFFFFFFFFFFF AND PUSH20 0xFFFFFFFFFFFFFFFFFFFFFFFFFFFFFFFFFFFFFFFF AND PUSH4 0x3607999B DUP5 DUP7 PUSH1 0x40 MLOAD DUP4 PUSH4 0xFFFFFFFF AND PUSH1 0xE0 SHL DUP2 MSTORE PUSH1 0x4 ADD PUSH2 0x732 SWAP3 SWAP2 SWAP1 PUSH2 0xDAF JUMP JUMPDEST PUSH1 0x0 PUSH1 0x40 MLOAD DUP1 DUP4 SUB DUP2 PUSH1 0x0 DUP8 DUP1 EXTCODESIZE ISZERO DUP1 ISZERO PUSH2 0x74C JUMPI PUSH1 0x0 DUP1 REVERT JUMPDEST POP GAS CALL ISZERO DUP1 ISZERO PUSH2 0x760 JUMPI RETURNDATASIZE PUSH1 0x0 DUP1 RETURNDATACOPY RETURNDATASIZE PUSH1 0x0 REVERT JUMPDEST POP POP POP POP PUSH1 0x1 SWAP2 POP POP SWAP4 SWAP3 POP POP POP JUMP JUMPDEST PUSH1 0x0 DUP1 SLOAD SWAP1 PUSH2 0x100 EXP SWAP1 DIV PUSH20 0xFFFFFFFFFFFFFFFFFFFFFFFFFFFFFFFFFFFFFFFF AND PUSH20 0xFFFFFFFFFFFFFFFFFFFFFFFFFFFFFFFFFFFFFFFF AND CALLER PUSH20 0xFFFFFFFFFFFFFFFFFFFFFFFFFFFFFFFFFFFFFFFF AND EQ PUSH2 0x7FE JUMPI PUSH1 0x40 MLOAD PUSH32 0x8C379A000000000000000000000000000000000000000000000000000000000 DUP2 MSTORE PUSH1 0x4 ADD PUSH2 0x7F5 SWAP1 PUSH2 0xC78 JUMP JUMPDEST PUSH1 0x40 MLOAD DUP1 SWAP2 SUB SWAP1 REVERT JUMPDEST PUSH1 0x1 DUP1 SLOAD SWAP1 POP DUP2 LT PUSH2 0x845 JUMPI PUSH1 0x40 MLOAD PUSH32 0x8C379A000000000000000000000000000000000000000000000000000000000 DUP2 MSTORE PUSH1 0x4 ADD PUSH2 0x83C SWAP1 PUSH2 0xD18 JUMP JUMPDEST PUSH1 0x40 MLOAD DUP1 SWAP2 SUB SWAP1 REVERT JUMPDEST PUSH1 0x0 PUSH20 0xFFFFFFFFFFFFFFFFFFFFFFFFFFFFFFFFFFFFFFFF AND PUSH1 0x1 DUP3 DUP2 SLOAD DUP2 LT PUSH2 0x871 JUMPI PUSH2 0x870 PUSH2 0xF22 JUMP JUMPDEST JUMPDEST SWAP1 PUSH1 0x0 MSTORE PUSH1 0x20 PUSH1 0x0 KECCAK256 ADD PUSH1 0x0 SWAP1 SLOAD SWAP1 PUSH2 0x100 EXP SWAP1 DIV PUSH20 0xFFFFFFFFFFFFFFFFFFFFFFFFFFFFFFFFFFFFFFFF AND PUSH20 0xFFFFFFFFFFFFFFFFFFFFFFFFFFFFFFFFFFFFFFFF AND EQ ISZERO PUSH2 0x8F3 JUMPI PUSH1 0x40 MLOAD PUSH32 0x8C379A000000000000000000000000000000000000000000000000000000000 DUP2 MSTORE PUSH1 0x4 ADD PUSH2 0x8EA SWAP1 PUSH2 0xC98 JUMP JUMPDEST PUSH1 0x40 MLOAD DUP1 SWAP2 SUB SWAP1 REVERT JUMPDEST PUSH1 0x0 PUSH1 0x1 DUP3 DUP2 SLOAD DUP2 LT PUSH2 0x909 JUMPI PUSH2 0x908 PUSH2 0xF22 JUMP JUMPDEST JUMPDEST SWAP1 PUSH1 0x0 MSTORE PUSH1 0x20 PUSH1 0x0 KECCAK256 ADD PUSH1 0x0 PUSH2 0x100 EXP DUP2 SLOAD DUP2 PUSH20 0xFFFFFFFFFFFFFFFFFFFFFFFFFFFFFFFFFFFFFFFF MUL NOT AND SWAP1 DUP4 PUSH20 0xFFFFFFFFFFFFFFFFFFFFFFFFFFFFFFFFFFFFFFFF AND MUL OR SWAP1 SSTORE POP PUSH1 0x2 DUP2 SWAP1 DUP1 PUSH1 0x1 DUP2 SLOAD ADD DUP1 DUP3 SSTORE DUP1 SWAP2 POP POP PUSH1 0x1 SWAP1 SUB SWAP1 PUSH1 0x0 MSTORE PUSH1 0x20 PUSH1 0x0 KECCAK256 ADD PUSH1 0x0 SWAP1 SWAP2 SWAP1 SWAP2 SWAP1 SWAP2 POP SSTORE POP JUMP JUMPDEST PUSH1 0x4 PUSH1 0x0 SWAP1 SLOAD SWAP1 PUSH2 0x100 EXP SWAP1 DIV PUSH20 0xFFFFFFFFFFFFFFFFFFFFFFFFFFFFFFFFFFFFFFFF AND DUP2 JUMP JUMPDEST PUSH1 0x0 DUP3 DUP3 GT ISZERO PUSH2 0x9E8 JUMPI PUSH1 0x40 MLOAD PUSH32 0x8C379A000000000000000000000000000000000000000000000000000000000 DUP2 MSTORE PUSH1 0x4 ADD PUSH2 0x9DF SWAP1 PUSH2 0xCF8 JUMP JUMPDEST PUSH1 0x40 MLOAD DUP1 SWAP2 SUB SWAP1 REVERT JUMPDEST DUP2 DUP4 PUSH2 0x9F4 SWAP2 SWAP1 PUSH2 0xE12 JUMP JUMPDEST SWAP1 POP SWAP3 SWAP2 POP POP JUMP JUMPDEST PUSH1 0x0 DUP2 CALLDATALOAD SWAP1 POP PUSH2 0xA0B DUP2 PUSH2 0x10EA JUMP JUMPDEST SWAP3 SWAP2 POP POP JUMP JUMPDEST PUSH1 0x0 DUP2 CALLDATALOAD SWAP1 POP PUSH2 0xA20 DUP2 PUSH2 0x1101 JUMP JUMPDEST SWAP3 SWAP2 POP POP JUMP JUMPDEST PUSH1 0x0 PUSH1 0x20 DUP3 DUP5 SUB SLT ISZERO PUSH2 0xA3C JUMPI PUSH2 0xA3B PUSH2 0xF51 JUMP JUMPDEST JUMPDEST PUSH1 0x0 PUSH2 0xA4A DUP5 DUP3 DUP6 ADD PUSH2 0x9FC JUMP JUMPDEST SWAP2 POP POP SWAP3 SWAP2 POP POP JUMP JUMPDEST PUSH1 0x0 PUSH1 0x20 DUP3 DUP5 SUB SLT ISZERO PUSH2 0xA69 JUMPI PUSH2 0xA68 PUSH2 0xF51 JUMP JUMPDEST JUMPDEST PUSH1 0x0 PUSH2 0xA77 DUP5 DUP3 DUP6 ADD PUSH2 0xA11 JUMP JUMPDEST SWAP2 POP POP SWAP3 SWAP2 POP POP JUMP JUMPDEST PUSH1 0x0 DUP1 PUSH1 0x0 PUSH1 0x60 DUP5 DUP7 SUB SLT ISZERO PUSH2 0xA99 JUMPI PUSH2 0xA98 PUSH2 0xF51 JUMP JUMPDEST JUMPDEST PUSH1 0x0 PUSH2 0xAA7 DUP7 DUP3 DUP8 ADD PUSH2 0xA11 JUMP JUMPDEST SWAP4 POP POP PUSH1 0x20 PUSH2 0xAB8 DUP7 DUP3 DUP8 ADD PUSH2 0x9FC JUMP JUMPDEST SWAP3 POP POP PUSH1 0x40 PUSH2 0xAC9 DUP7 DUP3 DUP8 ADD PUSH2 0xA11 JUMP JUMPDEST SWAP2 POP POP SWAP3 POP SWAP3 POP SWAP3 JUMP JUMPDEST PUSH2 0xADC DUP2 PUSH2 0xE46 JUMP JUMPDEST DUP3 MSTORE POP POP JUMP JUMPDEST PUSH2 0xAEB DUP2 PUSH2 0xE58 JUMP JUMPDEST DUP3 MSTORE POP POP JUMP JUMPDEST PUSH2 0xAFA DUP2 PUSH2 0xE8E JUMP JUMPDEST DUP3 MSTORE POP POP JUMP JUMPDEST PUSH1 0x0 PUSH2 0xB0D PUSH1 0x2D DUP4 PUSH2 0xE01 JUMP JUMPDEST SWAP2 POP PUSH2 0xB18 DUP3 PUSH2 0xF56 JUMP JUMPDEST PUSH1 0x40 DUP3 ADD SWAP1 POP SWAP2 SWAP1 POP JUMP JUMPDEST PUSH1 0x0 PUSH2 0xB30 PUSH1 0x17 DUP4 PUSH2 0xE01 JUMP JUMPDEST SWAP2 POP PUSH2 0xB3B DUP3 PUSH2 0xFA5 JUMP JUMPDEST PUSH1 0x20 DUP3 ADD SWAP1 POP SWAP2 SWAP1 POP JUMP JUMPDEST PUSH1 0x0 PUSH2 0xB53 PUSH1 0x12 DUP4 PUSH2 0xE01 JUMP JUMPDEST SWAP2 POP PUSH2 0xB5E DUP3 PUSH2 0xFCE JUMP JUMPDEST PUSH1 0x20 DUP3 ADD SWAP1 POP SWAP2 SWAP1 POP JUMP JUMPDEST PUSH1 0x0 PUSH2 0xB76 PUSH1 0x3F DUP4 PUSH2 0xE01 JUMP JUMPDEST SWAP2 POP PUSH2 0xB81 DUP3 PUSH2 0xFF7 JUMP JUMPDEST PUSH1 0x40 DUP3 ADD SWAP1 POP SWAP2 SWAP1 POP JUMP JUMPDEST PUSH1 0x0 PUSH2 0xB99 PUSH1 0x12 DUP4 PUSH2 0xE01 JUMP JUMPDEST SWAP2 POP PUSH2 0xBA4 DUP3 PUSH2 0x1046 JUMP JUMPDEST PUSH1 0x20 DUP3 ADD SWAP1 POP SWAP2 SWAP1 POP JUMP JUMPDEST PUSH1 0x0 PUSH2 0xBBC PUSH1 0x11 DUP4 PUSH2 0xE01 JUMP JUMPDEST SWAP2 POP PUSH2 0xBC7 DUP3 PUSH2 0x106F JUMP JUMPDEST PUSH1 0x20 DUP3 ADD SWAP1 POP SWAP2 SWAP1 POP JUMP JUMPDEST PUSH1 0x0 PUSH2 0xBDF PUSH1 0x13 DUP4 PUSH2 0xE01 JUMP JUMPDEST SWAP2 POP PUSH2 0xBEA DUP3 PUSH2 0x1098 JUMP JUMPDEST PUSH1 0x20 DUP3 ADD SWAP1 POP SWAP2 SWAP1 POP JUMP JUMPDEST PUSH1 0x0 PUSH2 0xC02 PUSH1 0x10 DUP4 PUSH2 0xE01 JUMP JUMPDEST SWAP2 POP PUSH2 0xC0D DUP3 PUSH2 0x10C1 JUMP JUMPDEST PUSH1 0x20 DUP3 ADD SWAP1 POP SWAP2 SWAP1 POP JUMP JUMPDEST PUSH2 0xC21 DUP2 PUSH2 0xE84 JUMP JUMPDEST DUP3 MSTORE POP POP JUMP JUMPDEST PUSH1 0x0 PUSH1 0x20 DUP3 ADD SWAP1 POP PUSH2 0xC3C PUSH1 0x0 DUP4 ADD DUP5 PUSH2 0xAD3 JUMP JUMPDEST SWAP3 SWAP2 POP POP JUMP JUMPDEST PUSH1 0x0 PUSH1 0x20 DUP3 ADD SWAP1 POP PUSH2 0xC57 PUSH1 0x0 DUP4 ADD DUP5 PUSH2 0xAE2 JUMP JUMPDEST SWAP3 SWAP2 POP POP JUMP JUMPDEST PUSH1 0x0 PUSH1 0x20 DUP3 ADD SWAP1 POP PUSH2 0xC72 PUSH1 0x0 DUP4 ADD DUP5 PUSH2 0xAF1 JUMP JUMPDEST SWAP3 SWAP2 POP POP JUMP JUMPDEST PUSH1 0x0 PUSH1 0x20 DUP3 ADD SWAP1 POP DUP2 DUP2 SUB PUSH1 0x0 DUP4 ADD MSTORE PUSH2 0xC91 DUP2 PUSH2 0xB00 JUMP JUMPDEST SWAP1 POP SWAP2 SWAP1 POP JUMP JUMPDEST PUSH1 0x0 PUSH1 0x20 DUP3 ADD SWAP1 POP DUP2 DUP2 SUB PUSH1 0x0 DUP4 ADD MSTORE PUSH2 0xCB1 DUP2 PUSH2 0xB23 JUMP JUMPDEST SWAP1 POP SWAP2 SWAP1 POP JUMP JUMPDEST PUSH1 0x0 PUSH1 0x20 DUP3 ADD SWAP1 POP DUP2 DUP2 SUB PUSH1 0x0 DUP4 ADD MSTORE PUSH2 0xCD1 DUP2 PUSH2 0xB46 JUMP JUMPDEST SWAP1 POP SWAP2 SWAP1 POP JUMP JUMPDEST PUSH1 0x0 PUSH1 0x20 DUP3 ADD SWAP1 POP DUP2 DUP2 SUB PUSH1 0x0 DUP4 ADD MSTORE PUSH2 0xCF1 DUP2 PUSH2 0xB69 JUMP JUMPDEST SWAP1 POP SWAP2 SWAP1 POP JUMP JUMPDEST PUSH1 0x0 PUSH1 0x20 DUP3 ADD SWAP1 POP DUP2 DUP2 SUB PUSH1 0x0 DUP4 ADD MSTORE PUSH2 0xD11 DUP2 PUSH2 0xB8C JUMP JUMPDEST SWAP1 POP SWAP2 SWAP1 POP JUMP JUMPDEST PUSH1 0x0 PUSH1 0x20 DUP3 ADD SWAP1 POP DUP2 DUP2 SUB PUSH1 0x0 DUP4 ADD MSTORE PUSH2 0xD31 DUP2 PUSH2 0xBAF JUMP JUMPDEST SWAP1 POP SWAP2 SWAP1 POP JUMP JUMPDEST PUSH1 0x0 PUSH1 0x60 DUP3 ADD SWAP1 POP DUP2 DUP2 SUB PUSH1 0x0 DUP4 ADD MSTORE PUSH2 0xD51 DUP2 PUSH2 0xBD2 JUMP JUMPDEST SWAP1 POP PUSH2 0xD60 PUSH1 0x20 DUP4 ADD DUP6 PUSH2 0xAD3 JUMP JUMPDEST PUSH2 0xD6D PUSH1 0x40 DUP4 ADD DUP5 PUSH2 0xC18 JUMP JUMPDEST SWAP4 SWAP3 POP POP POP JUMP JUMPDEST PUSH1 0x0 PUSH1 0x20 DUP3 ADD SWAP1 POP DUP2 DUP2 SUB PUSH1 0x0 DUP4 ADD MSTORE PUSH2 0xD8D DUP2 PUSH2 0xBF5 JUMP JUMPDEST SWAP1 POP SWAP2 SWAP1 POP JUMP JUMPDEST PUSH1 0x0 PUSH1 0x20 DUP3 ADD SWAP1 POP PUSH2 0xDA9 PUSH1 0x0 DUP4 ADD DUP5 PUSH2 0xC18 JUMP JUMPDEST SWAP3 SWAP2 POP POP JUMP JUMPDEST PUSH1 0x0 PUSH1 0x40 DUP3 ADD SWAP1 POP PUSH2 0xDC4 PUSH1 0x0 DUP4 ADD DUP6 PUSH2 0xC18 JUMP JUMPDEST PUSH2 0xDD1 PUSH1 0x20 DUP4 ADD DUP5 PUSH2 0xAD3 JUMP JUMPDEST SWAP4 SWAP3 POP POP POP JUMP JUMPDEST PUSH1 0x0 PUSH1 0x40 DUP3 ADD SWAP1 POP PUSH2 0xDED PUSH1 0x0 DUP4 ADD DUP6 PUSH2 0xC18 JUMP JUMPDEST PUSH2 0xDFA PUSH1 0x20 DUP4 ADD DUP5 PUSH2 0xAE2 JUMP JUMPDEST SWAP4 SWAP3 POP POP POP JUMP JUMPDEST PUSH1 0x0 DUP3 DUP3 MSTORE PUSH1 0x20 DUP3 ADD SWAP1 POP SWAP3 SWAP2 POP POP JUMP JUMPDEST PUSH1 0x0 PUSH2 0xE1D DUP3 PUSH2 0xE84 JUMP JUMPDEST SWAP2 POP PUSH2 0xE28 DUP4 PUSH2 0xE84 JUMP JUMPDEST SWAP3 POP DUP3 DUP3 LT ISZERO PUSH2 0xE3B JUMPI PUSH2 0xE3A PUSH2 0xEC4 JUMP JUMPDEST JUMPDEST DUP3 DUP3 SUB SWAP1 POP SWAP3 SWAP2 POP POP JUMP JUMPDEST PUSH1 0x0 PUSH2 0xE51 DUP3 PUSH2 0xE64 JUMP JUMPDEST SWAP1 POP SWAP2 SWAP1 POP JUMP JUMPDEST PUSH1 0x0 DUP2 ISZERO ISZERO SWAP1 POP SWAP2 SWAP1 POP JUMP JUMPDEST PUSH1 0x0 PUSH20 0xFFFFFFFFFFFFFFFFFFFFFFFFFFFFFFFFFFFFFFFF DUP3 AND SWAP1 POP SWAP2 SWAP1 POP JUMP JUMPDEST PUSH1 0x0 DUP2 SWAP1 POP SWAP2 SWAP1 POP JUMP JUMPDEST PUSH1 0x0 PUSH2 0xE99 DUP3 PUSH2 0xEA0 JUMP JUMPDEST SWAP1 POP SWAP2 SWAP1 POP JUMP JUMPDEST PUSH1 0x0 PUSH2 0xEAB DUP3 PUSH2 0xEB2 JUMP JUMPDEST SWAP1 POP SWAP2 SWAP1 POP JUMP JUMPDEST PUSH1 0x0 PUSH2 0xEBD DUP3 PUSH2 0xE64 JUMP JUMPDEST SWAP1 POP SWAP2 SWAP1 POP JUMP JUMPDEST PUSH32 0x4E487B7100000000000000000000000000000000000000000000000000000000 PUSH1 0x0 MSTORE PUSH1 0x11 PUSH1 0x4 MSTORE PUSH1 0x24 PUSH1 0x0 REVERT JUMPDEST PUSH32 0x4E487B7100000000000000000000000000000000000000000000000000000000 PUSH1 0x0 MSTORE PUSH1 0x31 PUSH1 0x4 MSTORE PUSH1 0x24 PUSH1 0x0 REVERT JUMPDEST PUSH32 0x4E487B7100000000000000000000000000000000000000000000000000000000 PUSH1 0x0 MSTORE PUSH1 0x32 PUSH1 0x4 MSTORE PUSH1 0x24 PUSH1 0x0 REVERT JUMPDEST PUSH1 0x0 DUP1 REVERT JUMPDEST PUSH32 0x4F6E6C79206372656174696E6720636F6E74726163742063616E2063616C6C20 PUSH1 0x0 DUP3 ADD MSTORE PUSH32 0x746869732066756E6374696F6E00000000000000000000000000000000000000 PUSH1 0x20 DUP3 ADD MSTORE POP JUMP JUMPDEST PUSH32 0x6163636F756E7420616C72656164792064656C65746564000000000000000000 PUSH1 0x0 DUP3 ADD MSTORE POP JUMP JUMPDEST PUSH32 0x5768697465206C6973742069732066756C6C0000000000000000000000000000 PUSH1 0x0 DUP3 ADD MSTORE POP JUMP JUMPDEST PUSH32 0x536D61727420636F6E7472616374206E6F7420616C6C6F77656420746F207769 PUSH1 0x0 DUP3 ADD MSTORE PUSH32 0x746864726177206D6F6E6579207468726F756768742074686973206761746500 PUSH1 0x20 DUP3 ADD MSTORE POP JUMP JUMPDEST PUSH32 0x537562737472616374696F6E206661696C640000000000000000000000000000 PUSH1 0x0 DUP3 ADD MSTORE POP JUMP JUMPDEST PUSH32 0x546F6B656E206E6F742063726561746564000000000000000000000000000000 PUSH1 0x0 DUP3 ADD MSTORE POP JUMP JUMPDEST PUSH32 0x416464656420746F207768697465206C69737400000000000000000000000000 PUSH1 0x0 DUP3 ADD MSTORE POP JUMP JUMPDEST PUSH32 0x44656C6574656420436F6E747261637400000000000000000000000000000000 PUSH1 0x0 DUP3 ADD MSTORE POP JUMP JUMPDEST PUSH2 0x10F3 DUP2 PUSH2 0xE46 JUMP JUMPDEST DUP2 EQ PUSH2 0x10FE JUMPI PUSH1 0x0 DUP1 REVERT JUMPDEST POP JUMP JUMPDEST PUSH2 0x110A DUP2 PUSH2 0xE84 JUMP JUMPDEST DUP2 EQ PUSH2 0x1115 JUMPI PUSH1 0x0 DUP1 REVERT JUMPDEST POP JUMP INVALID LOG2 PUSH5 0x6970667358 0x22 SLT KECCAK256 0xA7 SWAP5 0xB9 NOT PUSH12 0xF7E4C26CF832C37444B1E16C 0xAD CODECOPY 0xCB DUP10 0xBB 0xED SWAP7 PUSH14 0xAE0AF2E2901DDF64736F6C634300 ADDMOD SMOD STOP CALLER LOG2 PUSH5 0x6970667358 0x22 SLT KECCAK256 JUMPDEST 0xC0 SHR 0xBD SWAP10 LOG3 0xD0 PUSH24 0x60D4ACE7D478417213E3B1A2BAD87C06898F968D50F62FA PUSH5 0x736F6C6343 STOP ADDMOD SMOD STOP CALLER "
		},
		"gasEstimates": {
			"creation": {
				"codeDepositCost": "3659400",
				"executionCost": "74769",
				"totalCost": "3734169"
			},
			"external": {
				"": "195",
				"Swip3_deployer()": "2555",
				"gate_ids(address)": "2814",
				"gate_max_nuser()": "2407",
				"initateContract(uint8,(address,uint256),(uint8,uint256))": "infinite",
				"lending_pool_address()": "2536",
				"updateGateState()": "55383"
			},
			"internal": {
				"evaluateCoinStake()": "62",
				"evaluateNFTStake(struct Swip3.NFTProps memory)": "infinite",
				"lockStake()": "9",
				"matchWithLendingPool(address)": "infinite"
			}
		},
		"methodIdentifiers": {
			"Swip3_deployer()": "d59ffccd",
			"gate_ids(address)": "818579ef",
			"gate_max_nuser()": "0a334bfd",
			"initateContract(uint8,(address,uint256),(uint8,uint256))": "f9aa9e06",
			"lending_pool_address()": "c8b5ec1e",
			"updateGateState()": "fab6cf59"
		}
	},
	"abi": [
		{
			"inputs": [],
			"stateMutability": "nonpayable",
			"type": "constructor"
		},
		{
			"inputs": [],
			"name": "unimplemented_service",
			"type": "error"
		},
		{
			"anonymous": false,
			"inputs": [
				{
					"indexed": false,
					"internalType": "string",
					"name": "message",
					"type": "string"
				},
				{
					"indexed": false,
					"internalType": "address",
					"name": "new_contract",
					"type": "address"
				}
			],
			"name": "ContractMessage",
			"type": "event"
		},
		{
			"stateMutability": "payable",
			"type": "fallback"
		},
		{
			"inputs": [],
			"name": "Swip3_deployer",
			"outputs": [
				{
					"internalType": "address payable",
					"name": "",
					"type": "address"
				}
			],
			"stateMutability": "view",
			"type": "function"
		},
		{
			"inputs": [
				{
					"internalType": "address",
					"name": "",
					"type": "address"
				}
			],
			"name": "gate_ids",
			"outputs": [
				{
					"internalType": "uint256",
					"name": "",
					"type": "uint256"
				}
			],
			"stateMutability": "view",
			"type": "function"
		},
		{
			"inputs": [],
			"name": "gate_max_nuser",
			"outputs": [
				{
					"internalType": "uint256",
					"name": "",
					"type": "uint256"
				}
			],
			"stateMutability": "view",
			"type": "function"
		},
		{
			"inputs": [
				{
					"internalType": "enum Swip3.Assets",
					"name": "asset_type",
					"type": "uint8"
				},
				{
					"components": [
						{
							"internalType": "address",
							"name": "factory",
							"type": "address"
						},
						{
							"internalType": "uint256",
							"name": "token_id",
							"type": "uint256"
						}
					],
					"internalType": "struct Swip3.NFTProps",
					"name": "nft_data",
					"type": "tuple"
				},
				{
					"components": [
						{
							"internalType": "enum Swip3.Coins",
							"name": "coin_type",
							"type": "uint8"
						},
						{
							"internalType": "uint256",
							"name": "value",
							"type": "uint256"
						}
					],
					"internalType": "struct Swip3.CoinPops",
					"name": "coin_data",
					"type": "tuple"
				}
			],
			"name": "initateContract",
			"outputs": [
				{
					"internalType": "address",
					"name": "",
					"type": "address"
				}
			],
			"stateMutability": "payable",
			"type": "function"
		},
		{
			"inputs": [],
			"name": "lending_pool_address",
			"outputs": [
				{
					"internalType": "address",
					"name": "",
					"type": "address"
				}
			],
			"stateMutability": "view",
			"type": "function"
		},
		{
			"inputs": [],
			"name": "updateGateState",
			"outputs": [],
			"stateMutability": "nonpayable",
			"type": "function"
		},
		{
			"stateMutability": "payable",
			"type": "receive"
		}
	]
}